{
	"contracts/mocks/MockAIOracle.sol": {
		"MockAIOracle": {
			"abi": [
				{
					"inputs": [
						{
							"internalType": "address",
							"name": "_server",
							"type": "address"
						},
						{
							"internalType": "address",
							"name": "_opml",
							"type": "address"
						}
					],
					"stateMutability": "nonpayable",
					"type": "constructor"
				},
				{
					"anonymous": false,
					"inputs": [
						{
							"indexed": true,
							"internalType": "address",
							"name": "account",
							"type": "address"
						},
						{
							"indexed": true,
							"internalType": "uint256",
							"name": "requestId",
							"type": "uint256"
						},
						{
							"indexed": false,
							"internalType": "uint256",
							"name": "modelId",
							"type": "uint256"
						},
						{
							"indexed": false,
							"internalType": "bytes",
							"name": "input",
							"type": "bytes"
						},
						{
							"indexed": false,
							"internalType": "address",
							"name": "callbackContract",
							"type": "address"
						},
						{
							"indexed": false,
							"internalType": "uint64",
							"name": "gasLimit",
							"type": "uint64"
						},
						{
							"indexed": false,
							"internalType": "bytes",
							"name": "callbackData",
							"type": "bytes"
						}
					],
					"name": "AICallbackRequest",
					"type": "event"
				},
				{
					"anonymous": false,
					"inputs": [
						{
							"indexed": true,
							"internalType": "address",
							"name": "account",
							"type": "address"
						},
						{
							"indexed": true,
							"internalType": "uint256",
							"name": "requestId",
							"type": "uint256"
						},
						{
							"indexed": false,
							"internalType": "address",
							"name": "invoker",
							"type": "address"
						},
						{
							"indexed": false,
							"internalType": "bytes",
							"name": "output",
							"type": "bytes"
						}
					],
					"name": "AICallbackResult",
					"type": "event"
				},
				{
					"inputs": [
						{
							"internalType": "address",
							"name": "_address",
							"type": "address"
						}
					],
					"name": "addToBlacklist",
					"outputs": [],
					"stateMutability": "nonpayable",
					"type": "function"
				},
				{
					"inputs": [
						{
							"internalType": "address",
							"name": "",
							"type": "address"
						}
					],
					"name": "blacklist",
					"outputs": [
						{
							"internalType": "bool",
							"name": "",
							"type": "bool"
						}
					],
					"stateMutability": "view",
					"type": "function"
				},
				{
					"inputs": [],
					"name": "callbackFunctionSelector",
					"outputs": [
						{
							"internalType": "bytes4",
							"name": "",
							"type": "bytes4"
						}
					],
					"stateMutability": "pure",
					"type": "function"
				},
				{
					"inputs": [
						{
							"internalType": "uint256",
							"name": "modelId",
							"type": "uint256"
						}
					],
					"name": "claimModelRevenue",
					"outputs": [],
					"stateMutability": "nonpayable",
					"type": "function"
				},
				{
					"inputs": [
						{
							"internalType": "uint256",
							"name": "modelId",
							"type": "uint256"
						},
						{
							"internalType": "uint256",
							"name": "gasLimit",
							"type": "uint256"
						}
					],
					"name": "estimateFee",
					"outputs": [
						{
							"internalType": "uint256",
							"name": "",
							"type": "uint256"
						}
					],
					"stateMutability": "view",
					"type": "function"
				},
				{
					"inputs": [],
					"name": "gasPrice",
					"outputs": [
						{
							"internalType": "uint256",
							"name": "",
							"type": "uint256"
						}
					],
					"stateMutability": "view",
					"type": "function"
				},
				{
					"inputs": [
						{
							"internalType": "uint256",
							"name": "modelId",
							"type": "uint256"
						}
					],
					"name": "getModel",
					"outputs": [
						{
							"components": [
								{
									"internalType": "bytes32",
									"name": "modelHash",
									"type": "bytes32"
								},
								{
									"internalType": "bytes32",
									"name": "programHash",
									"type": "bytes32"
								},
								{
									"internalType": "uint256",
									"name": "fee",
									"type": "uint256"
								},
								{
									"internalType": "address",
									"name": "receiver",
									"type": "address"
								},
								{
									"internalType": "uint256",
									"name": "receiverPercentage",
									"type": "uint256"
								},
								{
									"internalType": "uint256",
									"name": "accumulateRevenue",
									"type": "uint256"
								}
							],
							"internalType": "struct MockAIOracle.ModelData",
							"name": "",
							"type": "tuple"
						}
					],
					"stateMutability": "view",
					"type": "function"
				},
				{
					"inputs": [
						{
							"internalType": "uint256",
							"name": "requestId",
							"type": "uint256"
						},
						{
							"internalType": "bytes",
							"name": "output",
							"type": "bytes"
						}
					],
					"name": "invokeCallback",
					"outputs": [],
					"stateMutability": "nonpayable",
					"type": "function"
				},
				{
					"inputs": [
						{
							"internalType": "uint256",
							"name": "requestId",
							"type": "uint256"
						}
					],
					"name": "isFinalized",
					"outputs": [
						{
							"internalType": "bool",
							"name": "",
							"type": "bool"
						}
					],
					"stateMutability": "view",
					"type": "function"
				},
				{
					"inputs": [
						{
							"internalType": "uint256",
							"name": "",
							"type": "uint256"
						}
					],
					"name": "modelIDs",
					"outputs": [
						{
							"internalType": "uint256",
							"name": "",
							"type": "uint256"
						}
					],
					"stateMutability": "view",
					"type": "function"
				},
				{
					"inputs": [],
					"name": "numberOfModels",
					"outputs": [
						{
							"internalType": "uint256",
							"name": "",
							"type": "uint256"
						}
					],
					"stateMutability": "view",
					"type": "function"
				},
				{
					"inputs": [],
					"name": "opml",
					"outputs": [
						{
							"internalType": "contract IOpml",
							"name": "",
							"type": "address"
						}
					],
					"stateMutability": "view",
					"type": "function"
				},
				{
					"inputs": [
						{
							"internalType": "uint256",
							"name": "",
							"type": "uint256"
						}
					],
					"name": "outputOfRequest",
					"outputs": [
						{
							"internalType": "bytes",
							"name": "",
							"type": "bytes"
						}
					],
					"stateMutability": "view",
					"type": "function"
				},
				{
					"inputs": [],
					"name": "owner",
					"outputs": [
						{
							"internalType": "address",
							"name": "",
							"type": "address"
						}
					],
					"stateMutability": "view",
					"type": "function"
				},
				{
					"inputs": [
						{
							"internalType": "address",
							"name": "_address",
							"type": "address"
						}
					],
					"name": "removeFromBlacklist",
					"outputs": [],
					"stateMutability": "nonpayable",
					"type": "function"
				},
				{
					"inputs": [
						{
							"internalType": "uint256",
							"name": "modelId",
							"type": "uint256"
						}
					],
					"name": "removeModel",
					"outputs": [],
					"stateMutability": "nonpayable",
					"type": "function"
				},
				{
					"inputs": [
						{
							"internalType": "uint256",
							"name": "modelId",
							"type": "uint256"
						},
						{
							"internalType": "bytes",
							"name": "input",
							"type": "bytes"
						},
						{
							"internalType": "address",
							"name": "callbackContract",
							"type": "address"
						},
						{
							"internalType": "uint64",
							"name": "gasLimit",
							"type": "uint64"
						},
						{
							"internalType": "bytes",
							"name": "callbackData",
							"type": "bytes"
						}
					],
					"name": "requestCallback",
					"outputs": [
						{
							"internalType": "uint256",
							"name": "",
							"type": "uint256"
						}
					],
					"stateMutability": "payable",
					"type": "function"
				},
				{
					"inputs": [
						{
							"internalType": "uint256",
							"name": "",
							"type": "uint256"
						}
					],
					"name": "requests",
					"outputs": [
						{
							"internalType": "address",
							"name": "account",
							"type": "address"
						},
						{
							"internalType": "uint256",
							"name": "requestId",
							"type": "uint256"
						},
						{
							"internalType": "uint256",
							"name": "modelId",
							"type": "uint256"
						},
						{
							"internalType": "bytes",
							"name": "input",
							"type": "bytes"
						},
						{
							"internalType": "address",
							"name": "callbackContract",
							"type": "address"
						},
						{
							"internalType": "uint64",
							"name": "gasLimit",
							"type": "uint64"
						},
						{
							"internalType": "bytes",
							"name": "callbackData",
							"type": "bytes"
						}
					],
					"stateMutability": "view",
					"type": "function"
				},
				{
					"inputs": [],
					"name": "resetGasPrice",
					"outputs": [],
					"stateMutability": "nonpayable",
					"type": "function"
				},
				{
					"inputs": [],
					"name": "resetModelIDs",
					"outputs": [],
					"stateMutability": "nonpayable",
					"type": "function"
				},
				{
					"inputs": [],
					"name": "server",
					"outputs": [
						{
							"internalType": "address",
							"name": "",
							"type": "address"
						}
					],
					"stateMutability": "view",
					"type": "function"
				},
				{
					"inputs": [
						{
							"internalType": "uint256",
							"name": "modelId",
							"type": "uint256"
						},
						{
							"internalType": "uint256",
							"name": "_fee",
							"type": "uint256"
						}
					],
					"name": "setModelFee",
					"outputs": [],
					"stateMutability": "nonpayable",
					"type": "function"
				},
				{
					"inputs": [
						{
							"internalType": "uint256",
							"name": "modelId",
							"type": "uint256"
						},
						{
							"internalType": "address",
							"name": "receiver",
							"type": "address"
						}
					],
					"name": "setModelReceiver",
					"outputs": [],
					"stateMutability": "nonpayable",
					"type": "function"
				},
				{
					"inputs": [
						{
							"internalType": "uint256",
							"name": "modelId",
							"type": "uint256"
						},
						{
							"internalType": "uint256",
							"name": "receiverPercentage",
							"type": "uint256"
						}
					],
					"name": "setModelReceiverPercentage",
					"outputs": [],
					"stateMutability": "nonpayable",
					"type": "function"
				},
				{
					"inputs": [
						{
							"internalType": "uint256",
							"name": "modelId",
							"type": "uint256"
						},
						{
							"internalType": "bytes32",
							"name": "modelHash",
							"type": "bytes32"
						},
						{
							"internalType": "bytes32",
							"name": "programHash",
							"type": "bytes32"
						},
						{
							"internalType": "uint256",
							"name": "fee",
							"type": "uint256"
						},
						{
							"internalType": "address",
							"name": "receiver",
							"type": "address"
						},
						{
							"internalType": "uint256",
							"name": "receiverPercentage",
							"type": "uint256"
						}
					],
					"name": "updateModel",
					"outputs": [],
					"stateMutability": "nonpayable",
					"type": "function"
				},
				{
					"inputs": [
						{
							"internalType": "uint256",
							"name": "requestId",
							"type": "uint256"
						}
					],
					"name": "updateResult",
					"outputs": [],
					"stateMutability": "nonpayable",
					"type": "function"
				},
				{
					"inputs": [
						{
							"internalType": "uint256",
							"name": "modelId",
							"type": "uint256"
						},
						{
							"internalType": "bytes32",
							"name": "modelHash",
							"type": "bytes32"
						},
						{
							"internalType": "bytes32",
							"name": "programHash",
							"type": "bytes32"
						},
						{
							"internalType": "uint256",
							"name": "fee",
							"type": "uint256"
						},
						{
							"internalType": "address",
							"name": "receiver",
							"type": "address"
						},
						{
							"internalType": "uint256",
							"name": "receiverPercentage",
							"type": "uint256"
						}
					],
					"name": "uploadModel",
					"outputs": [],
					"stateMutability": "nonpayable",
					"type": "function"
				},
				{
					"inputs": [],
					"name": "withdraw",
					"outputs": [],
					"stateMutability": "nonpayable",
					"type": "function"
				}
			],
			"devdoc": {
				"kind": "dev",
				"methods": {
					"requestCallback(uint256,bytes,address,uint64,bytes)": {
						"params": {
							"callbackContract": "address of callback contract",
							"callbackData": "optional, user-defined data, will send back to the callback function",
							"gasLimit": "gas limitation of calling the callback function",
							"input": "input for AI model",
							"modelId": "ID for AI model"
						},
						"returns": {
							"_0": "requestID"
						}
					}
				},
				"version": 1
			},
			"evm": {
				"assembly": "    /* \"contracts/mocks/MockAIOracle.sol\":152:10348  contract MockAIOracle is IAIOracle {... */\n  mstore(0x40, 0x80)\n    /* \"contracts/mocks/MockAIOracle.sol\":251:378  constructor(address _server, address _opml) {... */\n  callvalue\n  dup1\n  iszero\n  tag_1\n  jumpi\n  0x00\n  dup1\n  revert\ntag_1:\n  pop\n  mload(0x40)\n  sub(codesize, bytecodeSize)\n  dup1\n  bytecodeSize\n  dup4\n  codecopy\n  dup2\n  dup2\n  add\n  0x40\n  mstore\n  dup2\n  add\n  swap1\n  tag_2\n  swap2\n  swap1\n  tag_3\n  jump\t// in\ntag_2:\n    /* \"contracts/mocks/MockAIOracle.sol\":312:317  _opml */\n  dup1\n    /* \"contracts/mocks/MockAIOracle.sol\":305:309  Opml */\n  0x00\n  dup1\n    /* \"contracts/mocks/MockAIOracle.sol\":305:317  Opml = _opml */\n  0x0100\n  exp\n  dup2\n  sload\n  dup2\n  0xffffffffffffffffffffffffffffffffffffffff\n  mul\n  not\n  and\n  swap1\n  dup4\n  0xffffffffffffffffffffffffffffffffffffffff\n  and\n  mul\n  or\n  swap1\n  sstore\n  pop\n    /* \"contracts/mocks/MockAIOracle.sol\":335:345  msg.sender */\n  caller\n    /* \"contracts/mocks/MockAIOracle.sol\":327:332  Owner */\n  0x01\n  0x00\n    /* \"contracts/mocks/MockAIOracle.sol\":327:345  Owner = msg.sender */\n  0x0100\n  exp\n  dup2\n  sload\n  dup2\n  0xffffffffffffffffffffffffffffffffffffffff\n  mul\n  not\n  and\n  swap1\n  dup4\n  0xffffffffffffffffffffffffffffffffffffffff\n  and\n  mul\n  or\n  swap1\n  sstore\n  pop\n    /* \"contracts/mocks/MockAIOracle.sol\":364:371  _server */\n  dup2\n    /* \"contracts/mocks/MockAIOracle.sol\":355:361  Server */\n  0x02\n  0x00\n    /* \"contracts/mocks/MockAIOracle.sol\":355:371  Server = _server */\n  0x0100\n  exp\n  dup2\n  sload\n  dup2\n  0xffffffffffffffffffffffffffffffffffffffff\n  mul\n  not\n  and\n  swap1\n  dup4\n  0xffffffffffffffffffffffffffffffffffffffff\n  and\n  mul\n  or\n  swap1\n  sstore\n  pop\n    /* \"contracts/mocks/MockAIOracle.sol\":251:378  constructor(address _server, address _opml) {... */\n  pop\n  pop\n    /* \"contracts/mocks/MockAIOracle.sol\":152:10348  contract MockAIOracle is IAIOracle {... */\n  jump(tag_6)\n    /* \"#utility.yul\":88:205   */\ntag_8:\n    /* \"#utility.yul\":197:198   */\n  0x00\n    /* \"#utility.yul\":194:195   */\n  dup1\n    /* \"#utility.yul\":187:199   */\n  revert\n    /* \"#utility.yul\":334:460   */\ntag_10:\n    /* \"#utility.yul\":371:378   */\n  0x00\n    /* \"#utility.yul\":411:453   */\n  0xffffffffffffffffffffffffffffffffffffffff\n    /* \"#utility.yul\":404:409   */\n  dup3\n    /* \"#utility.yul\":400:454   */\n  and\n    /* \"#utility.yul\":389:454   */\n  swap1\n  pop\n    /* \"#utility.yul\":334:460   */\n  swap2\n  swap1\n  pop\n  jump\t// out\n    /* \"#utility.yul\":466:562   */\ntag_11:\n    /* \"#utility.yul\":503:510   */\n  0x00\n    /* \"#utility.yul\":532:556   */\n  tag_20\n    /* \"#utility.yul\":550:555   */\n  dup3\n    /* \"#utility.yul\":532:556   */\n  tag_10\n  jump\t// in\ntag_20:\n    /* \"#utility.yul\":521:556   */\n  swap1\n  pop\n    /* \"#utility.yul\":466:562   */\n  swap2\n  swap1\n  pop\n  jump\t// out\n    /* \"#utility.yul\":568:690   */\ntag_12:\n    /* \"#utility.yul\":641:665   */\n  tag_22\n    /* \"#utility.yul\":659:664   */\n  dup2\n    /* \"#utility.yul\":641:665   */\n  tag_11\n  jump\t// in\ntag_22:\n    /* \"#utility.yul\":634:639   */\n  dup2\n    /* \"#utility.yul\":631:666   */\n  eq\n    /* \"#utility.yul\":621:684   */\n  tag_23\n  jumpi\n    /* \"#utility.yul\":680:681   */\n  0x00\n    /* \"#utility.yul\":677:678   */\n  dup1\n    /* \"#utility.yul\":670:682   */\n  revert\n    /* \"#utility.yul\":621:684   */\ntag_23:\n    /* \"#utility.yul\":568:690   */\n  pop\n  jump\t// out\n    /* \"#utility.yul\":696:839   */\ntag_13:\n    /* \"#utility.yul\":753:758   */\n  0x00\n    /* \"#utility.yul\":784:790   */\n  dup2\n    /* \"#utility.yul\":778:791   */\n  mload\n    /* \"#utility.yul\":769:791   */\n  swap1\n  pop\n    /* \"#utility.yul\":800:833   */\n  tag_25\n    /* \"#utility.yul\":827:832   */\n  dup2\n    /* \"#utility.yul\":800:833   */\n  tag_12\n  jump\t// in\ntag_25:\n    /* \"#utility.yul\":696:839   */\n  swap3\n  swap2\n  pop\n  pop\n  jump\t// out\n    /* \"#utility.yul\":845:1352   */\ntag_3:\n    /* \"#utility.yul\":924:930   */\n  0x00\n    /* \"#utility.yul\":932:938   */\n  dup1\n    /* \"#utility.yul\":981:983   */\n  0x40\n    /* \"#utility.yul\":969:978   */\n  dup4\n    /* \"#utility.yul\":960:967   */\n  dup6\n    /* \"#utility.yul\":956:979   */\n  sub\n    /* \"#utility.yul\":952:984   */\n  slt\n    /* \"#utility.yul\":949:1068   */\n  iszero\n  tag_27\n  jumpi\n    /* \"#utility.yul\":987:1066   */\n  tag_28\n  tag_8\n  jump\t// in\ntag_28:\n    /* \"#utility.yul\":949:1068   */\ntag_27:\n    /* \"#utility.yul\":1107:1108   */\n  0x00\n    /* \"#utility.yul\":1132:1196   */\n  tag_29\n    /* \"#utility.yul\":1188:1195   */\n  dup6\n    /* \"#utility.yul\":1179:1185   */\n  dup3\n    /* \"#utility.yul\":1168:1177   */\n  dup7\n    /* \"#utility.yul\":1164:1186   */\n  add\n    /* \"#utility.yul\":1132:1196   */\n  tag_13\n  jump\t// in\ntag_29:\n    /* \"#utility.yul\":1122:1196   */\n  swap3\n  pop\n    /* \"#utility.yul\":1078:1206   */\n  pop\n    /* \"#utility.yul\":1245:1247   */\n  0x20\n    /* \"#utility.yul\":1271:1335   */\n  tag_30\n    /* \"#utility.yul\":1327:1334   */\n  dup6\n    /* \"#utility.yul\":1318:1324   */\n  dup3\n    /* \"#utility.yul\":1307:1316   */\n  dup7\n    /* \"#utility.yul\":1303:1325   */\n  add\n    /* \"#utility.yul\":1271:1335   */\n  tag_13\n  jump\t// in\ntag_30:\n    /* \"#utility.yul\":1261:1335   */\n  swap2\n  pop\n    /* \"#utility.yul\":1216:1345   */\n  pop\n    /* \"#utility.yul\":845:1352   */\n  swap3\n  pop\n  swap3\n  swap1\n  pop\n  jump\t// out\n    /* \"contracts/mocks/MockAIOracle.sol\":152:10348  contract MockAIOracle is IAIOracle {... */\ntag_6:\n  dataSize(sub_0)\n  dup1\n  dataOffset(sub_0)\n  0x00\n  codecopy\n  0x00\n  return\nstop\n\nsub_0: assembly {\n        /* \"contracts/mocks/MockAIOracle.sol\":152:10348  contract MockAIOracle is IAIOracle {... */\n      mstore(0x40, 0x80)\n      jumpi(tag_1, lt(calldatasize, 0x04))\n      shr(0xe0, calldataload(0x00))\n      dup1\n      0x6c124d74\n      gt\n      tag_30\n      jumpi\n      dup1\n      0xace04ec7\n      gt\n      tag_31\n      jumpi\n      dup1\n      0xe857f747\n      gt\n      tag_32\n      jumpi\n      dup1\n      0xe857f747\n      eq\n      tag_26\n      jumpi\n      dup1\n      0xf9f92be4\n      eq\n      tag_27\n      jumpi\n      dup1\n      0xfd922a42\n      eq\n      tag_28\n      jumpi\n      dup1\n      0xfe173b97\n      eq\n      tag_29\n      jumpi\n      jump(tag_1)\n    tag_32:\n      dup1\n      0xace04ec7\n      eq\n      tag_23\n      jumpi\n      dup1\n      0xb1097523\n      eq\n      tag_24\n      jumpi\n      dup1\n      0xb70b5ccc\n      eq\n      tag_25\n      jumpi\n      jump(tag_1)\n    tag_31:\n      dup1\n      0x81d12c58\n      gt\n      tag_33\n      jumpi\n      dup1\n      0x81d12c58\n      eq\n      tag_19\n      jumpi\n      dup1\n      0x82dcc26d\n      eq\n      tag_20\n      jumpi\n      dup1\n      0x8da5cb5b\n      eq\n      tag_21\n      jumpi\n      dup1\n      0x9a6a794f\n      eq\n      tag_22\n      jumpi\n      jump(tag_1)\n    tag_33:\n      dup1\n      0x6c124d74\n      eq\n      tag_16\n      jumpi\n      dup1\n      0x6d361694\n      eq\n      tag_17\n      jumpi\n      dup1\n      0x754592b2\n      eq\n      tag_18\n      jumpi\n      jump(tag_1)\n    tag_30:\n      dup1\n      0x537df3b6\n      gt\n      tag_34\n      jumpi\n      dup1\n      0x5638101b\n      gt\n      tag_35\n      jumpi\n      dup1\n      0x5638101b\n      eq\n      tag_12\n      jumpi\n      dup1\n      0x5b953806\n      eq\n      tag_13\n      jumpi\n      dup1\n      0x699ecb83\n      eq\n      tag_14\n      jumpi\n      dup1\n      0x6b0641a3\n      eq\n      tag_15\n      jumpi\n      jump(tag_1)\n    tag_35:\n      dup1\n      0x537df3b6\n      eq\n      tag_9\n      jumpi\n      dup1\n      0x54c33b10\n      eq\n      tag_10\n      jumpi\n      dup1\n      0x55d15d93\n      eq\n      tag_11\n      jumpi\n      jump(tag_1)\n    tag_34:\n      dup1\n      0x349c4136\n      gt\n      tag_36\n      jumpi\n      dup1\n      0x349c4136\n      eq\n      tag_5\n      jumpi\n      dup1\n      0x3ccfd60b\n      eq\n      tag_6\n      jumpi\n      dup1\n      0x44337ea1\n      eq\n      tag_7\n      jumpi\n      dup1\n      0x49163731\n      eq\n      tag_8\n      jumpi\n      jump(tag_1)\n    tag_36:\n      dup1\n      0x77f244\n      eq\n      tag_2\n      jumpi\n      dup1\n      0xe1d8d0\n      eq\n      tag_3\n      jumpi\n      dup1\n      0x33727c4d\n      eq\n      tag_4\n      jumpi\n    tag_1:\n      0x00\n      dup1\n      revert\n        /* \"contracts/mocks/MockAIOracle.sol\":3798:3994  function setModelReceiver(uint256 modelId, address receiver) external onlyOwner ifModelExists(modelId) {... */\n    tag_2:\n      callvalue\n      dup1\n      iszero\n      tag_37\n      jumpi\n      0x00\n      dup1\n      revert\n    tag_37:\n      pop\n      tag_38\n      0x04\n      dup1\n      calldatasize\n      sub\n      dup2\n      add\n      swap1\n      tag_39\n      swap2\n      swap1\n      tag_40\n      jump\t// in\n    tag_39:\n      tag_41\n      jump\t// in\n    tag_38:\n      stop\n        /* \"contracts/mocks/MockAIOracle.sol\":4501:4716  function estimateFee(uint256 modelId, uint256 gasLimit) public view ifModelExists(modelId) returns (uint256) {... */\n    tag_3:\n      callvalue\n      dup1\n      iszero\n      tag_42\n      jumpi\n      0x00\n      dup1\n      revert\n    tag_42:\n      pop\n      tag_43\n      0x04\n      dup1\n      calldatasize\n      sub\n      dup2\n      add\n      swap1\n      tag_44\n      swap2\n      swap1\n      tag_45\n      jump\t// in\n    tag_44:\n      tag_46\n      jump\t// in\n    tag_43:\n      mload(0x40)\n      tag_47\n      swap2\n      swap1\n      tag_48\n      jump\t// in\n    tag_47:\n      mload(0x40)\n      dup1\n      swap2\n      sub\n      swap1\n      return\n        /* \"contracts/mocks/MockAIOracle.sol\":5910:6032  function isFinalized(uint256 requestId) external view returns (bool) {... */\n    tag_4:\n      callvalue\n      dup1\n      iszero\n      tag_49\n      jumpi\n      0x00\n      dup1\n      revert\n    tag_49:\n      pop\n      tag_50\n      0x04\n      dup1\n      calldatasize\n      sub\n      dup2\n      add\n      swap1\n      tag_51\n      swap2\n      swap1\n      tag_52\n      jump\t// in\n    tag_51:\n      tag_53\n      jump\t// in\n    tag_50:\n      mload(0x40)\n      tag_54\n      swap2\n      swap1\n      tag_55\n      jump\t// in\n    tag_54:\n      mload(0x40)\n      dup1\n      swap2\n      sub\n      swap1\n      return\n        /* \"contracts/mocks/MockAIOracle.sol\":1713:1738  uint256[] public modelIDs */\n    tag_5:\n      callvalue\n      dup1\n      iszero\n      tag_56\n      jumpi\n      0x00\n      dup1\n      revert\n    tag_56:\n      pop\n      tag_57\n      0x04\n      dup1\n      calldatasize\n      sub\n      dup2\n      add\n      swap1\n      tag_58\n      swap2\n      swap1\n      tag_52\n      jump\t// in\n    tag_58:\n      tag_59\n      jump\t// in\n    tag_57:\n      mload(0x40)\n      tag_60\n      swap2\n      swap1\n      tag_48\n      jump\t// in\n    tag_60:\n      mload(0x40)\n      dup1\n      swap2\n      sub\n      swap1\n      return\n        /* \"contracts/mocks/MockAIOracle.sol\":3208:3608  function withdraw() external onlyOwner {... */\n    tag_6:\n      callvalue\n      dup1\n      iszero\n      tag_61\n      jumpi\n      0x00\n      dup1\n      revert\n    tag_61:\n      pop\n      tag_62\n      tag_63\n      jump\t// in\n    tag_62:\n      stop\n        /* \"contracts/mocks/MockAIOracle.sol\":1745:1849  function addToBlacklist(address _address) external onlyOwner {... */\n    tag_7:\n      callvalue\n      dup1\n      iszero\n      tag_64\n      jumpi\n      0x00\n      dup1\n      revert\n    tag_64:\n      pop\n      tag_65\n      0x04\n      dup1\n      calldatasize\n      sub\n      dup2\n      add\n      swap1\n      tag_66\n      swap2\n      swap1\n      tag_67\n      jump\t// in\n    tag_66:\n      tag_68\n      jump\t// in\n    tag_65:\n      stop\n        /* \"contracts/mocks/MockAIOracle.sol\":839:946  function callbackFunctionSelector() public pure returns (bytes4) {... */\n    tag_8:\n      callvalue\n      dup1\n      iszero\n      tag_69\n      jumpi\n      0x00\n      dup1\n      revert\n    tag_69:\n      pop\n      tag_70\n      tag_71\n      jump\t// in\n    tag_70:\n      mload(0x40)\n      tag_72\n      swap2\n      swap1\n      tag_73\n      jump\t// in\n    tag_72:\n      mload(0x40)\n      dup1\n      swap2\n      sub\n      swap1\n      return\n        /* \"contracts/mocks/MockAIOracle.sol\":1855:1965  function removeFromBlacklist(address _address) external onlyOwner {... */\n    tag_9:\n      callvalue\n      dup1\n      iszero\n      tag_74\n      jumpi\n      0x00\n      dup1\n      revert\n    tag_74:\n      pop\n      tag_75\n      0x04\n      dup1\n      calldatasize\n      sub\n      dup2\n      add\n      swap1\n      tag_76\n      swap2\n      swap1\n      tag_67\n      jump\t// in\n    tag_76:\n      tag_77\n      jump\t// in\n    tag_75:\n      stop\n        /* \"contracts/mocks/MockAIOracle.sol\":5395:5900  function updateModel(uint256 modelId, bytes32 modelHash, bytes32 programHash, uint256 fee, address receiver, uint256 receiverPercentage) external onlyOwner ifModelExists(modelId) {... */\n    tag_10:\n      callvalue\n      dup1\n      iszero\n      tag_78\n      jumpi\n      0x00\n      dup1\n      revert\n    tag_78:\n      pop\n      tag_79\n      0x04\n      dup1\n      calldatasize\n      sub\n      dup2\n      add\n      swap1\n      tag_80\n      swap2\n      swap1\n      tag_81\n      jump\t// in\n    tag_80:\n      tag_82\n      jump\t// in\n    tag_79:\n      stop\n        /* \"contracts/mocks/MockAIOracle.sol\":9307:10346  function invokeCallback(uint256 requestId, bytes calldata output) external onlyServer {... */\n    tag_11:\n      callvalue\n      dup1\n      iszero\n      tag_83\n      jumpi\n      0x00\n      dup1\n      revert\n    tag_83:\n      pop\n      tag_84\n      0x04\n      dup1\n      calldatasize\n      sub\n      dup2\n      add\n      swap1\n      tag_85\n      swap2\n      swap1\n      tag_86\n      jump\t// in\n    tag_85:\n      tag_87\n      jump\t// in\n    tag_84:\n      stop\n        /* \"contracts/mocks/MockAIOracle.sol\":7813:8124  function claimModelRevenue(uint256 modelId) external ifModelExists(modelId) {... */\n    tag_12:\n      callvalue\n      dup1\n      iszero\n      tag_88\n      jumpi\n      0x00\n      dup1\n      revert\n    tag_88:\n      pop\n      tag_89\n      0x04\n      dup1\n      calldatasize\n      sub\n      dup2\n      add\n      swap1\n      tag_90\n      swap2\n      swap1\n      tag_52\n      jump\t// in\n    tag_90:\n      tag_91\n      jump\t// in\n    tag_89:\n      stop\n        /* \"contracts/mocks/MockAIOracle.sol\":6682:7773  function requestCallback(... */\n    tag_13:\n      tag_92\n      0x04\n      dup1\n      calldatasize\n      sub\n      dup2\n      add\n      swap1\n      tag_93\n      swap2\n      swap1\n      tag_94\n      jump\t// in\n    tag_93:\n      tag_95\n      jump\t// in\n    tag_92:\n      mload(0x40)\n      tag_96\n      swap2\n      swap1\n      tag_48\n      jump\t// in\n    tag_96:\n      mload(0x40)\n      dup1\n      swap2\n      sub\n      swap1\n      return\n        /* \"contracts/mocks/MockAIOracle.sol\":4000:4311  function setModelReceiverPercentage(uint256 modelId, uint256 receiverPercentage) external onlyOwner ifModelExists(modelId) {... */\n    tag_14:\n      callvalue\n      dup1\n      iszero\n      tag_97\n      jumpi\n      0x00\n      dup1\n      revert\n    tag_97:\n      pop\n      tag_98\n      0x04\n      dup1\n      calldatasize\n      sub\n      dup2\n      add\n      swap1\n      tag_99\n      swap2\n      swap1\n      tag_45\n      jump\t// in\n    tag_99:\n      tag_100\n      jump\t// in\n    tag_98:\n      stop\n        /* \"contracts/mocks/MockAIOracle.sol\":2637:3202  function removeModel(uint256 modelId) external onlyOwner ifModelExists(modelId) {... */\n    tag_15:\n      callvalue\n      dup1\n      iszero\n      tag_101\n      jumpi\n      0x00\n      dup1\n      revert\n    tag_101:\n      pop\n      tag_102\n      0x04\n      dup1\n      calldatasize\n      sub\n      dup2\n      add\n      swap1\n      tag_103\n      swap2\n      swap1\n      tag_52\n      jump\t// in\n    tag_103:\n      tag_104\n      jump\t// in\n    tag_102:\n      stop\n        /* \"contracts/mocks/MockAIOracle.sol\":3614:3792  function setModelFee(uint256 modelId, uint256 _fee) external onlyOwner ifModelExists(modelId) {... */\n    tag_16:\n      callvalue\n      dup1\n      iszero\n      tag_105\n      jumpi\n      0x00\n      dup1\n      revert\n    tag_105:\n      pop\n      tag_106\n      0x04\n      dup1\n      calldatasize\n      sub\n      dup2\n      add\n      swap1\n      tag_107\n      swap2\n      swap1\n      tag_45\n      jump\t// in\n    tag_107:\n      tag_108\n      jump\t// in\n    tag_106:\n      stop\n        /* \"contracts/mocks/MockAIOracle.sol\":4317:4495  function getModel(uint256 modelId) external view ifModelExists(modelId) returns (ModelData memory) {... */\n    tag_17:\n      callvalue\n      dup1\n      iszero\n      tag_109\n      jumpi\n      0x00\n      dup1\n      revert\n    tag_109:\n      pop\n      tag_110\n      0x04\n      dup1\n      calldatasize\n      sub\n      dup2\n      add\n      swap1\n      tag_111\n      swap2\n      swap1\n      tag_52\n      jump\t// in\n    tag_111:\n      tag_112\n      jump\t// in\n    tag_110:\n      mload(0x40)\n      tag_113\n      swap2\n      swap1\n      tag_114\n      jump\t// in\n    tag_113:\n      mload(0x40)\n      dup1\n      swap2\n      sub\n      swap1\n      return\n        /* \"contracts/mocks/MockAIOracle.sol\":2273:2346  function resetGasPrice() external onlyOwner {... */\n    tag_18:\n      callvalue\n      dup1\n      iszero\n      tag_115\n      jumpi\n      0x00\n      dup1\n      revert\n    tag_115:\n      pop\n      tag_116\n      tag_117\n      jump\t// in\n    tag_116:\n      stop\n        /* \"contracts/mocks/MockAIOracle.sol\":1274:1331  mapping(uint256 => AICallbackRequestData) public requests */\n    tag_19:\n      callvalue\n      dup1\n      iszero\n      tag_118\n      jumpi\n      0x00\n      dup1\n      revert\n    tag_118:\n      pop\n      tag_119\n      0x04\n      dup1\n      calldatasize\n      sub\n      dup2\n      add\n      swap1\n      tag_120\n      swap2\n      swap1\n      tag_52\n      jump\t// in\n    tag_120:\n      tag_121\n      jump\t// in\n    tag_119:\n      mload(0x40)\n      tag_122\n      swap8\n      swap7\n      swap6\n      swap5\n      swap4\n      swap3\n      swap2\n      swap1\n      tag_123\n      jump\t// in\n    tag_122:\n      mload(0x40)\n      dup1\n      swap2\n      sub\n      swap1\n      return\n        /* \"contracts/mocks/MockAIOracle.sol\":8230:9242  function updateResult(uint256 requestId) external {... */\n    tag_20:\n      callvalue\n      dup1\n      iszero\n      tag_124\n      jumpi\n      0x00\n      dup1\n      revert\n    tag_124:\n      pop\n      tag_125\n      0x04\n      dup1\n      calldatasize\n      sub\n      dup2\n      add\n      swap1\n      tag_126\n      swap2\n      swap1\n      tag_52\n      jump\t// in\n    tag_126:\n      tag_127\n      jump\t// in\n    tag_125:\n      stop\n        /* \"contracts/mocks/MockAIOracle.sol\":469:545  function owner() public view returns (address) {... */\n    tag_21:\n      callvalue\n      dup1\n      iszero\n      tag_128\n      jumpi\n      0x00\n      dup1\n      revert\n    tag_128:\n      pop\n      tag_129\n      tag_130\n      jump\t// in\n    tag_129:\n      mload(0x40)\n      tag_131\n      swap2\n      swap1\n      tag_132\n      jump\t// in\n    tag_131:\n      mload(0x40)\n      dup1\n      swap2\n      sub\n      swap1\n      return\n        /* \"contracts/mocks/MockAIOracle.sol\":384:463  function opml() public view returns (IOpml) {... */\n    tag_22:\n      callvalue\n      dup1\n      iszero\n      tag_133\n      jumpi\n      0x00\n      dup1\n      revert\n    tag_133:\n      pop\n      tag_134\n      tag_135\n      jump\t// in\n    tag_134:\n      mload(0x40)\n      tag_136\n      swap2\n      swap1\n      tag_137\n      jump\t// in\n    tag_136:\n      mload(0x40)\n      dup1\n      swap2\n      sub\n      swap1\n      return\n        /* \"contracts/mocks/MockAIOracle.sol\":2384:2460  function resetModelIDs() external onlyOwner {... */\n    tag_23:\n      callvalue\n      dup1\n      iszero\n      tag_138\n      jumpi\n      0x00\n      dup1\n      revert\n    tag_138:\n      pop\n      tag_139\n      tag_140\n      jump\t// in\n    tag_139:\n      stop\n        /* \"contracts/mocks/MockAIOracle.sol\":1337:1385  mapping(uint256 => bytes) public outputOfRequest */\n    tag_24:\n      callvalue\n      dup1\n      iszero\n      tag_141\n      jumpi\n      0x00\n      dup1\n      revert\n    tag_141:\n      pop\n      tag_142\n      0x04\n      dup1\n      calldatasize\n      sub\n      dup2\n      add\n      swap1\n      tag_143\n      swap2\n      swap1\n      tag_52\n      jump\t// in\n    tag_143:\n      tag_144\n      jump\t// in\n    tag_142:\n      mload(0x40)\n      tag_145\n      swap2\n      swap1\n      tag_146\n      jump\t// in\n    tag_145:\n      mload(0x40)\n      dup1\n      swap2\n      sub\n      swap1\n      return\n        /* \"contracts/mocks/MockAIOracle.sol\":4722:5389  function uploadModel(uint256 modelId, bytes32 modelHash, bytes32 programHash, uint256 fee, address receiver, uint256 receiverPercentage) external onlyOwner {... */\n    tag_25:\n      callvalue\n      dup1\n      iszero\n      tag_147\n      jumpi\n      0x00\n      dup1\n      revert\n    tag_147:\n      pop\n      tag_148\n      0x04\n      dup1\n      calldatasize\n      sub\n      dup2\n      add\n      swap1\n      tag_149\n      swap2\n      swap1\n      tag_81\n      jump\t// in\n    tag_149:\n      tag_150\n      jump\t// in\n    tag_148:\n      stop\n        /* \"contracts/mocks/MockAIOracle.sol\":2466:2563  function numberOfModels() external view returns (uint256) {... */\n    tag_26:\n      callvalue\n      dup1\n      iszero\n      tag_151\n      jumpi\n      0x00\n      dup1\n      revert\n    tag_151:\n      pop\n      tag_152\n      tag_153\n      jump\t// in\n    tag_152:\n      mload(0x40)\n      tag_154\n      swap2\n      swap1\n      tag_48\n      jump\t// in\n    tag_154:\n      mload(0x40)\n      dup1\n      swap2\n      sub\n      swap1\n      return\n        /* \"contracts/mocks/MockAIOracle.sol\":1000:1041  mapping(address => bool) public blacklist */\n    tag_27:\n      callvalue\n      dup1\n      iszero\n      tag_155\n      jumpi\n      0x00\n      dup1\n      revert\n    tag_155:\n      pop\n      tag_156\n      0x04\n      dup1\n      calldatasize\n      sub\n      dup2\n      add\n      swap1\n      tag_157\n      swap2\n      swap1\n      tag_67\n      jump\t// in\n    tag_157:\n      tag_158\n      jump\t// in\n    tag_156:\n      mload(0x40)\n      tag_159\n      swap2\n      swap1\n      tag_55\n      jump\t// in\n    tag_159:\n      mload(0x40)\n      dup1\n      swap2\n      sub\n      swap1\n      return\n        /* \"contracts/mocks/MockAIOracle.sol\":551:629  function server() public view returns (address) {... */\n    tag_28:\n      callvalue\n      dup1\n      iszero\n      tag_160\n      jumpi\n      0x00\n      dup1\n      revert\n    tag_160:\n      pop\n      tag_161\n      tag_162\n      jump\t// in\n    tag_161:\n      mload(0x40)\n      tag_163\n      swap2\n      swap1\n      tag_132\n      jump\t// in\n    tag_163:\n      mload(0x40)\n      dup1\n      swap2\n      sub\n      swap1\n      return\n        /* \"contracts/mocks/MockAIOracle.sol\":1683:1706  uint256 public gasPrice */\n    tag_29:\n      callvalue\n      dup1\n      iszero\n      tag_164\n      jumpi\n      0x00\n      dup1\n      revert\n    tag_164:\n      pop\n      tag_165\n      tag_166\n      jump\t// in\n    tag_165:\n      mload(0x40)\n      tag_167\n      swap2\n      swap1\n      tag_48\n      jump\t// in\n    tag_167:\n      mload(0x40)\n      dup1\n      swap2\n      sub\n      swap1\n      return\n        /* \"contracts/mocks/MockAIOracle.sol\":3798:3994  function setModelReceiver(uint256 modelId, address receiver) external onlyOwner ifModelExists(modelId) {... */\n    tag_41:\n        /* \"contracts/mocks/MockAIOracle.sol\":688:695  owner() */\n      tag_169\n        /* \"contracts/mocks/MockAIOracle.sol\":688:693  owner */\n      tag_130\n        /* \"contracts/mocks/MockAIOracle.sol\":688:695  owner() */\n      jump\t// in\n    tag_169:\n        /* \"contracts/mocks/MockAIOracle.sol\":674:695  msg.sender == owner() */\n      0xffffffffffffffffffffffffffffffffffffffff\n      and\n        /* \"contracts/mocks/MockAIOracle.sol\":674:684  msg.sender */\n      caller\n        /* \"contracts/mocks/MockAIOracle.sol\":674:695  msg.sender == owner() */\n      0xffffffffffffffffffffffffffffffffffffffff\n      and\n      eq\n        /* \"contracts/mocks/MockAIOracle.sol\":666:713  require(msg.sender == owner(), \"Not the owner\") */\n      tag_170\n      jumpi\n      mload(0x40)\n      0x08c379a000000000000000000000000000000000000000000000000000000000\n      dup2\n      mstore\n      0x04\n      add\n      tag_171\n      swap1\n      tag_172\n      jump\t// in\n    tag_171:\n      mload(0x40)\n      dup1\n      swap2\n      sub\n      swap1\n      revert\n    tag_170:\n        /* \"contracts/mocks/MockAIOracle.sol\":3892:3899  modelId */\n      dup2\n        /* \"contracts/mocks/MockAIOracle.sol\":2166:2177  modelExists */\n      0x07\n        /* \"contracts/mocks/MockAIOracle.sol\":2166:2186  modelExists[modelId] */\n      0x00\n        /* \"contracts/mocks/MockAIOracle.sol\":2178:2185  modelId */\n      dup3\n        /* \"contracts/mocks/MockAIOracle.sol\":2166:2186  modelExists[modelId] */\n      dup2\n      mstore\n      0x20\n      add\n      swap1\n      dup2\n      mstore\n      0x20\n      add\n      0x00\n      keccak256\n      0x00\n      swap1\n      sload\n      swap1\n      0x0100\n      exp\n      swap1\n      div\n      0xff\n      and\n        /* \"contracts/mocks/MockAIOracle.sol\":2158:2211  require(modelExists[modelId], \"model does not exist\") */\n      tag_174\n      jumpi\n      mload(0x40)\n      0x08c379a000000000000000000000000000000000000000000000000000000000\n      dup2\n      mstore\n      0x04\n      add\n      tag_175\n      swap1\n      tag_176\n      jump\t// in\n    tag_175:\n      mload(0x40)\n      dup1\n      swap2\n      sub\n      swap1\n      revert\n    tag_174:\n        /* \"contracts/mocks/MockAIOracle.sol\":3911:3934  ModelData storage model */\n      0x00\n        /* \"contracts/mocks/MockAIOracle.sol\":3937:3943  models */\n      0x06\n        /* \"contracts/mocks/MockAIOracle.sol\":3937:3952  models[modelId] */\n      0x00\n        /* \"contracts/mocks/MockAIOracle.sol\":3944:3951  modelId */\n      dup6\n        /* \"contracts/mocks/MockAIOracle.sol\":3937:3952  models[modelId] */\n      dup2\n      mstore\n      0x20\n      add\n      swap1\n      dup2\n      mstore\n      0x20\n      add\n      0x00\n      keccak256\n        /* \"contracts/mocks/MockAIOracle.sol\":3911:3952  ModelData storage model = models[modelId] */\n      swap1\n      pop\n        /* \"contracts/mocks/MockAIOracle.sol\":3979:3987  receiver */\n      dup3\n        /* \"contracts/mocks/MockAIOracle.sol\":3962:3967  model */\n      dup2\n        /* \"contracts/mocks/MockAIOracle.sol\":3962:3976  model.receiver */\n      0x03\n      add\n      0x00\n        /* \"contracts/mocks/MockAIOracle.sol\":3962:3987  model.receiver = receiver */\n      0x0100\n      exp\n      dup2\n      sload\n      dup2\n      0xffffffffffffffffffffffffffffffffffffffff\n      mul\n      not\n      and\n      swap1\n      dup4\n      0xffffffffffffffffffffffffffffffffffffffff\n      and\n      mul\n      or\n      swap1\n      sstore\n      pop\n        /* \"contracts/mocks/MockAIOracle.sol\":3901:3994  {... */\n      pop\n        /* \"contracts/mocks/MockAIOracle.sol\":723:724  _ */\n      pop\n        /* \"contracts/mocks/MockAIOracle.sol\":3798:3994  function setModelReceiver(uint256 modelId, address receiver) external onlyOwner ifModelExists(modelId) {... */\n      pop\n      pop\n      jump\t// out\n        /* \"contracts/mocks/MockAIOracle.sol\":4501:4716  function estimateFee(uint256 modelId, uint256 gasLimit) public view ifModelExists(modelId) returns (uint256) {... */\n    tag_46:\n        /* \"contracts/mocks/MockAIOracle.sol\":4601:4608  uint256 */\n      0x00\n        /* \"contracts/mocks/MockAIOracle.sol\":4583:4590  modelId */\n      dup3\n        /* \"contracts/mocks/MockAIOracle.sol\":2166:2177  modelExists */\n      0x07\n        /* \"contracts/mocks/MockAIOracle.sol\":2166:2186  modelExists[modelId] */\n      0x00\n        /* \"contracts/mocks/MockAIOracle.sol\":2178:2185  modelId */\n      dup3\n        /* \"contracts/mocks/MockAIOracle.sol\":2166:2186  modelExists[modelId] */\n      dup2\n      mstore\n      0x20\n      add\n      swap1\n      dup2\n      mstore\n      0x20\n      add\n      0x00\n      keccak256\n      0x00\n      swap1\n      sload\n      swap1\n      0x0100\n      exp\n      swap1\n      div\n      0xff\n      and\n        /* \"contracts/mocks/MockAIOracle.sol\":2158:2211  require(modelExists[modelId], \"model does not exist\") */\n      tag_179\n      jumpi\n      mload(0x40)\n      0x08c379a000000000000000000000000000000000000000000000000000000000\n      dup2\n      mstore\n      0x04\n      add\n      tag_180\n      swap1\n      tag_176\n      jump\t// in\n    tag_180:\n      mload(0x40)\n      dup1\n      swap2\n      sub\n      swap1\n      revert\n    tag_179:\n        /* \"contracts/mocks/MockAIOracle.sol\":4620:4643  ModelData storage model */\n      0x00\n        /* \"contracts/mocks/MockAIOracle.sol\":4646:4652  models */\n      0x06\n        /* \"contracts/mocks/MockAIOracle.sol\":4646:4661  models[modelId] */\n      0x00\n        /* \"contracts/mocks/MockAIOracle.sol\":4653:4660  modelId */\n      dup7\n        /* \"contracts/mocks/MockAIOracle.sol\":4646:4661  models[modelId] */\n      dup2\n      mstore\n      0x20\n      add\n      swap1\n      dup2\n      mstore\n      0x20\n      add\n      0x00\n      keccak256\n        /* \"contracts/mocks/MockAIOracle.sol\":4620:4661  ModelData storage model = models[modelId] */\n      swap1\n      pop\n        /* \"contracts/mocks/MockAIOracle.sol\":4701:4709  gasLimit */\n      dup4\n        /* \"contracts/mocks/MockAIOracle.sol\":4690:4698  gasPrice */\n      sload(0x08)\n        /* \"contracts/mocks/MockAIOracle.sol\":4690:4709  gasPrice * gasLimit */\n      tag_182\n      swap2\n      swap1\n      tag_183\n      jump\t// in\n    tag_182:\n        /* \"contracts/mocks/MockAIOracle.sol\":4678:4683  model */\n      dup2\n        /* \"contracts/mocks/MockAIOracle.sol\":4678:4687  model.fee */\n      0x02\n      add\n      sload\n        /* \"contracts/mocks/MockAIOracle.sol\":4678:4709  model.fee + gasPrice * gasLimit */\n      tag_184\n      swap2\n      swap1\n      tag_185\n      jump\t// in\n    tag_184:\n        /* \"contracts/mocks/MockAIOracle.sol\":4671:4709  return model.fee + gasPrice * gasLimit */\n      swap3\n      pop\n      pop\n        /* \"contracts/mocks/MockAIOracle.sol\":4501:4716  function estimateFee(uint256 modelId, uint256 gasLimit) public view ifModelExists(modelId) returns (uint256) {... */\n      pop\n      swap3\n      swap2\n      pop\n      pop\n      jump\t// out\n        /* \"contracts/mocks/MockAIOracle.sol\":5910:6032  function isFinalized(uint256 requestId) external view returns (bool) {... */\n    tag_53:\n        /* \"contracts/mocks/MockAIOracle.sol\":5973:5977  bool */\n      0x00\n        /* \"contracts/mocks/MockAIOracle.sol\":5996:6002  opml() */\n      tag_187\n        /* \"contracts/mocks/MockAIOracle.sol\":5996:6000  opml */\n      tag_135\n        /* \"contracts/mocks/MockAIOracle.sol\":5996:6002  opml() */\n      jump\t// in\n    tag_187:\n        /* \"contracts/mocks/MockAIOracle.sol\":5996:6014  opml().isFinalized */\n      0xffffffffffffffffffffffffffffffffffffffff\n      and\n      0x33727c4d\n        /* \"contracts/mocks/MockAIOracle.sol\":6015:6024  requestId */\n      dup4\n        /* \"contracts/mocks/MockAIOracle.sol\":5996:6025  opml().isFinalized(requestId) */\n      mload(0x40)\n      dup3\n      0xffffffff\n      and\n      0xe0\n      shl\n      dup2\n      mstore\n      0x04\n      add\n      tag_188\n      swap2\n      swap1\n      tag_48\n      jump\t// in\n    tag_188:\n      0x20\n      mload(0x40)\n      dup1\n      dup4\n      sub\n      dup2\n      dup7\n      gas\n      staticcall\n      iszero\n      dup1\n      iszero\n      tag_190\n      jumpi\n      returndatasize\n      0x00\n      dup1\n      returndatacopy\n      revert(0x00, returndatasize)\n    tag_190:\n      pop\n      pop\n      pop\n      pop\n      mload(0x40)\n      returndatasize\n      not(0x1f)\n      0x1f\n      dup3\n      add\n      and\n      dup3\n      add\n      dup1\n      0x40\n      mstore\n      pop\n      dup2\n      add\n      swap1\n      tag_191\n      swap2\n      swap1\n      tag_192\n      jump\t// in\n    tag_191:\n        /* \"contracts/mocks/MockAIOracle.sol\":5989:6025  return opml().isFinalized(requestId) */\n      swap1\n      pop\n        /* \"contracts/mocks/MockAIOracle.sol\":5910:6032  function isFinalized(uint256 requestId) external view returns (bool) {... */\n      swap2\n      swap1\n      pop\n      jump\t// out\n        /* \"contracts/mocks/MockAIOracle.sol\":1713:1738  uint256[] public modelIDs */\n    tag_59:\n      0x09\n      dup2\n      dup2\n      sload\n      dup2\n      lt\n      tag_193\n      jumpi\n      0x00\n      dup1\n      revert\n    tag_193:\n      swap1\n      0x00\n      mstore\n      keccak256(0x00, 0x20)\n      add\n      0x00\n      swap2\n      pop\n      swap1\n      pop\n      sload\n      dup2\n      jump\t// out\n        /* \"contracts/mocks/MockAIOracle.sol\":3208:3608  function withdraw() external onlyOwner {... */\n    tag_63:\n        /* \"contracts/mocks/MockAIOracle.sol\":688:695  owner() */\n      tag_196\n        /* \"contracts/mocks/MockAIOracle.sol\":688:693  owner */\n      tag_130\n        /* \"contracts/mocks/MockAIOracle.sol\":688:695  owner() */\n      jump\t// in\n    tag_196:\n        /* \"contracts/mocks/MockAIOracle.sol\":674:695  msg.sender == owner() */\n      0xffffffffffffffffffffffffffffffffffffffff\n      and\n        /* \"contracts/mocks/MockAIOracle.sol\":674:684  msg.sender */\n      caller\n        /* \"contracts/mocks/MockAIOracle.sol\":674:695  msg.sender == owner() */\n      0xffffffffffffffffffffffffffffffffffffffff\n      and\n      eq\n        /* \"contracts/mocks/MockAIOracle.sol\":666:713  require(msg.sender == owner(), \"Not the owner\") */\n      tag_197\n      jumpi\n      mload(0x40)\n      0x08c379a000000000000000000000000000000000000000000000000000000000\n      dup2\n      mstore\n      0x04\n      add\n      tag_198\n      swap1\n      tag_172\n      jump\t// in\n    tag_198:\n      mload(0x40)\n      dup1\n      swap2\n      sub\n      swap1\n      revert\n    tag_197:\n        /* \"contracts/mocks/MockAIOracle.sol\":3257:3277  uint256 modelRevenue */\n      0x00\n        /* \"contracts/mocks/MockAIOracle.sol\":3292:3298  uint i */\n      dup1\n        /* \"contracts/mocks/MockAIOracle.sol\":3301:3302  0 */\n      0x00\n        /* \"contracts/mocks/MockAIOracle.sol\":3292:3302  uint i = 0 */\n      swap1\n      pop\n        /* \"contracts/mocks/MockAIOracle.sol\":3287:3481  for (uint i = 0; i < modelIDs.length; i++) {... */\n    tag_200:\n        /* \"contracts/mocks/MockAIOracle.sol\":3308:3316  modelIDs */\n      0x09\n        /* \"contracts/mocks/MockAIOracle.sol\":3308:3323  modelIDs.length */\n      dup1\n      sload\n      swap1\n      pop\n        /* \"contracts/mocks/MockAIOracle.sol\":3304:3305  i */\n      dup2\n        /* \"contracts/mocks/MockAIOracle.sol\":3304:3323  i < modelIDs.length */\n      lt\n        /* \"contracts/mocks/MockAIOracle.sol\":3287:3481  for (uint i = 0; i < modelIDs.length; i++) {... */\n      iszero\n      tag_201\n      jumpi\n        /* \"contracts/mocks/MockAIOracle.sol\":3344:3354  uint256 id */\n      0x00\n        /* \"contracts/mocks/MockAIOracle.sol\":3357:3365  modelIDs */\n      0x09\n        /* \"contracts/mocks/MockAIOracle.sol\":3366:3367  i */\n      dup3\n        /* \"contracts/mocks/MockAIOracle.sol\":3357:3368  modelIDs[i] */\n      dup2\n      sload\n      dup2\n      lt\n      tag_203\n      jumpi\n      tag_204\n      tag_205\n      jump\t// in\n    tag_204:\n    tag_203:\n      swap1\n      0x00\n      mstore\n      keccak256(0x00, 0x20)\n      add\n      sload\n        /* \"contracts/mocks/MockAIOracle.sol\":3344:3368  uint256 id = modelIDs[i] */\n      swap1\n      pop\n        /* \"contracts/mocks/MockAIOracle.sol\":3382:3404  ModelData memory model */\n      0x00\n        /* \"contracts/mocks/MockAIOracle.sol\":3407:3413  models */\n      0x06\n        /* \"contracts/mocks/MockAIOracle.sol\":3407:3417  models[id] */\n      0x00\n        /* \"contracts/mocks/MockAIOracle.sol\":3414:3416  id */\n      dup4\n        /* \"contracts/mocks/MockAIOracle.sol\":3407:3417  models[id] */\n      dup2\n      mstore\n      0x20\n      add\n      swap1\n      dup2\n      mstore\n      0x20\n      add\n      0x00\n      keccak256\n        /* \"contracts/mocks/MockAIOracle.sol\":3382:3417  ModelData memory model = models[id] */\n      mload(0x40)\n      dup1\n      0xc0\n      add\n      0x40\n      mstore\n      swap1\n      dup2\n      0x00\n      dup3\n      add\n      sload\n      dup2\n      mstore\n      0x20\n      add\n      0x01\n      dup3\n      add\n      sload\n      dup2\n      mstore\n      0x20\n      add\n      0x02\n      dup3\n      add\n      sload\n      dup2\n      mstore\n      0x20\n      add\n      0x03\n      dup3\n      add\n      0x00\n      swap1\n      sload\n      swap1\n      0x0100\n      exp\n      swap1\n      div\n      0xffffffffffffffffffffffffffffffffffffffff\n      and\n      0xffffffffffffffffffffffffffffffffffffffff\n      and\n      0xffffffffffffffffffffffffffffffffffffffff\n      and\n      dup2\n      mstore\n      0x20\n      add\n      0x04\n      dup3\n      add\n      sload\n      dup2\n      mstore\n      0x20\n      add\n      0x05\n      dup3\n      add\n      sload\n      dup2\n      mstore\n      pop\n      pop\n      swap1\n      pop\n        /* \"contracts/mocks/MockAIOracle.sol\":3447:3452  model */\n      dup1\n        /* \"contracts/mocks/MockAIOracle.sol\":3447:3470  model.accumulateRevenue */\n      0xa0\n      add\n      mload\n        /* \"contracts/mocks/MockAIOracle.sol\":3431:3470  modelRevenue += model.accumulateRevenue */\n      dup5\n      tag_207\n      swap2\n      swap1\n      tag_185\n      jump\t// in\n    tag_207:\n      swap4\n      pop\n        /* \"contracts/mocks/MockAIOracle.sol\":3330:3481  {... */\n      pop\n      pop\n        /* \"contracts/mocks/MockAIOracle.sol\":3325:3328  i++ */\n      dup1\n      dup1\n      0x01\n      add\n      swap2\n      pop\n      pop\n        /* \"contracts/mocks/MockAIOracle.sol\":3287:3481  for (uint i = 0; i < modelIDs.length; i++) {... */\n      jump(tag_200)\n    tag_201:\n      pop\n        /* \"contracts/mocks/MockAIOracle.sol\":3490:3510  uint256 ownerRevenue */\n      0x00\n        /* \"contracts/mocks/MockAIOracle.sol\":3537:3549  modelRevenue */\n      dup2\n        /* \"contracts/mocks/MockAIOracle.sol\":3513:3534  address(this).balance */\n      selfbalance\n        /* \"contracts/mocks/MockAIOracle.sol\":3513:3549  address(this).balance - modelRevenue */\n      tag_208\n      swap2\n      swap1\n      tag_209\n      jump\t// in\n    tag_208:\n        /* \"contracts/mocks/MockAIOracle.sol\":3490:3549  uint256 ownerRevenue = address(this).balance - modelRevenue */\n      swap1\n      pop\n        /* \"contracts/mocks/MockAIOracle.sol\":3567:3577  msg.sender */\n      caller\n        /* \"contracts/mocks/MockAIOracle.sol\":3559:3587  payable(msg.sender).transfer */\n      0xffffffffffffffffffffffffffffffffffffffff\n      and\n        /* \"contracts/mocks/MockAIOracle.sol\":3559:3601  payable(msg.sender).transfer(ownerRevenue) */\n      0x08fc\n        /* \"contracts/mocks/MockAIOracle.sol\":3588:3600  ownerRevenue */\n      dup3\n        /* \"contracts/mocks/MockAIOracle.sol\":3559:3601  payable(msg.sender).transfer(ownerRevenue) */\n      swap1\n      dup2\n      iszero\n      mul\n      swap1\n      mload(0x40)\n      0x00\n      mload(0x40)\n      dup1\n      dup4\n      sub\n      dup2\n      dup6\n      dup9\n      dup9\n      call\n      swap4\n      pop\n      pop\n      pop\n      pop\n      iszero\n      dup1\n      iszero\n      tag_211\n      jumpi\n      returndatasize\n      0x00\n      dup1\n      returndatacopy\n      revert(0x00, returndatasize)\n    tag_211:\n      pop\n        /* \"contracts/mocks/MockAIOracle.sol\":3247:3608  {... */\n      pop\n      pop\n        /* \"contracts/mocks/MockAIOracle.sol\":3208:3608  function withdraw() external onlyOwner {... */\n      jump\t// out\n        /* \"contracts/mocks/MockAIOracle.sol\":1745:1849  function addToBlacklist(address _address) external onlyOwner {... */\n    tag_68:\n        /* \"contracts/mocks/MockAIOracle.sol\":688:695  owner() */\n      tag_213\n        /* \"contracts/mocks/MockAIOracle.sol\":688:693  owner */\n      tag_130\n        /* \"contracts/mocks/MockAIOracle.sol\":688:695  owner() */\n      jump\t// in\n    tag_213:\n        /* \"contracts/mocks/MockAIOracle.sol\":674:695  msg.sender == owner() */\n      0xffffffffffffffffffffffffffffffffffffffff\n      and\n        /* \"contracts/mocks/MockAIOracle.sol\":674:684  msg.sender */\n      caller\n        /* \"contracts/mocks/MockAIOracle.sol\":674:695  msg.sender == owner() */\n      0xffffffffffffffffffffffffffffffffffffffff\n      and\n      eq\n        /* \"contracts/mocks/MockAIOracle.sol\":666:713  require(msg.sender == owner(), \"Not the owner\") */\n      tag_214\n      jumpi\n      mload(0x40)\n      0x08c379a000000000000000000000000000000000000000000000000000000000\n      dup2\n      mstore\n      0x04\n      add\n      tag_215\n      swap1\n      tag_172\n      jump\t// in\n    tag_215:\n      mload(0x40)\n      dup1\n      swap2\n      sub\n      swap1\n      revert\n    tag_214:\n        /* \"contracts/mocks/MockAIOracle.sol\":1838:1842  true */\n      0x01\n        /* \"contracts/mocks/MockAIOracle.sol\":1816:1825  blacklist */\n      0x03\n        /* \"contracts/mocks/MockAIOracle.sol\":1816:1835  blacklist[_address] */\n      0x00\n        /* \"contracts/mocks/MockAIOracle.sol\":1826:1834  _address */\n      dup4\n        /* \"contracts/mocks/MockAIOracle.sol\":1816:1835  blacklist[_address] */\n      0xffffffffffffffffffffffffffffffffffffffff\n      and\n      0xffffffffffffffffffffffffffffffffffffffff\n      and\n      dup2\n      mstore\n      0x20\n      add\n      swap1\n      dup2\n      mstore\n      0x20\n      add\n      0x00\n      keccak256\n      0x00\n        /* \"contracts/mocks/MockAIOracle.sol\":1816:1842  blacklist[_address] = true */\n      0x0100\n      exp\n      dup2\n      sload\n      dup2\n      0xff\n      mul\n      not\n      and\n      swap1\n      dup4\n      iszero\n      iszero\n      mul\n      or\n      swap1\n      sstore\n      pop\n        /* \"contracts/mocks/MockAIOracle.sol\":1745:1849  function addToBlacklist(address _address) external onlyOwner {... */\n      pop\n      jump\t// out\n        /* \"contracts/mocks/MockAIOracle.sol\":839:946  function callbackFunctionSelector() public pure returns (bytes4) {... */\n    tag_71:\n        /* \"contracts/mocks/MockAIOracle.sol\":896:902  bytes4 */\n      0x00\n        /* \"contracts/mocks/MockAIOracle.sol\":928:938  0xb0347814 */\n      0xb0347814\n        /* \"contracts/mocks/MockAIOracle.sol\":921:939  bytes4(0xb0347814) */\n      0xe0\n      shl\n        /* \"contracts/mocks/MockAIOracle.sol\":914:939  return bytes4(0xb0347814) */\n      swap1\n      pop\n        /* \"contracts/mocks/MockAIOracle.sol\":839:946  function callbackFunctionSelector() public pure returns (bytes4) {... */\n      swap1\n      jump\t// out\n        /* \"contracts/mocks/MockAIOracle.sol\":1855:1965  function removeFromBlacklist(address _address) external onlyOwner {... */\n    tag_77:\n        /* \"contracts/mocks/MockAIOracle.sol\":688:695  owner() */\n      tag_219\n        /* \"contracts/mocks/MockAIOracle.sol\":688:693  owner */\n      tag_130\n        /* \"contracts/mocks/MockAIOracle.sol\":688:695  owner() */\n      jump\t// in\n    tag_219:\n        /* \"contracts/mocks/MockAIOracle.sol\":674:695  msg.sender == owner() */\n      0xffffffffffffffffffffffffffffffffffffffff\n      and\n        /* \"contracts/mocks/MockAIOracle.sol\":674:684  msg.sender */\n      caller\n        /* \"contracts/mocks/MockAIOracle.sol\":674:695  msg.sender == owner() */\n      0xffffffffffffffffffffffffffffffffffffffff\n      and\n      eq\n        /* \"contracts/mocks/MockAIOracle.sol\":666:713  require(msg.sender == owner(), \"Not the owner\") */\n      tag_220\n      jumpi\n      mload(0x40)\n      0x08c379a000000000000000000000000000000000000000000000000000000000\n      dup2\n      mstore\n      0x04\n      add\n      tag_221\n      swap1\n      tag_172\n      jump\t// in\n    tag_221:\n      mload(0x40)\n      dup1\n      swap2\n      sub\n      swap1\n      revert\n    tag_220:\n        /* \"contracts/mocks/MockAIOracle.sol\":1953:1958  false */\n      0x00\n        /* \"contracts/mocks/MockAIOracle.sol\":1931:1940  blacklist */\n      0x03\n        /* \"contracts/mocks/MockAIOracle.sol\":1931:1950  blacklist[_address] */\n      0x00\n        /* \"contracts/mocks/MockAIOracle.sol\":1941:1949  _address */\n      dup4\n        /* \"contracts/mocks/MockAIOracle.sol\":1931:1950  blacklist[_address] */\n      0xffffffffffffffffffffffffffffffffffffffff\n      and\n      0xffffffffffffffffffffffffffffffffffffffff\n      and\n      dup2\n      mstore\n      0x20\n      add\n      swap1\n      dup2\n      mstore\n      0x20\n      add\n      0x00\n      keccak256\n      0x00\n        /* \"contracts/mocks/MockAIOracle.sol\":1931:1958  blacklist[_address] = false */\n      0x0100\n      exp\n      dup2\n      sload\n      dup2\n      0xff\n      mul\n      not\n      and\n      swap1\n      dup4\n      iszero\n      iszero\n      mul\n      or\n      swap1\n      sstore\n      pop\n        /* \"contracts/mocks/MockAIOracle.sol\":1855:1965  function removeFromBlacklist(address _address) external onlyOwner {... */\n      pop\n      jump\t// out\n        /* \"contracts/mocks/MockAIOracle.sol\":5395:5900  function updateModel(uint256 modelId, bytes32 modelHash, bytes32 programHash, uint256 fee, address receiver, uint256 receiverPercentage) external onlyOwner ifModelExists(modelId) {... */\n    tag_82:\n        /* \"contracts/mocks/MockAIOracle.sol\":688:695  owner() */\n      tag_224\n        /* \"contracts/mocks/MockAIOracle.sol\":688:693  owner */\n      tag_130\n        /* \"contracts/mocks/MockAIOracle.sol\":688:695  owner() */\n      jump\t// in\n    tag_224:\n        /* \"contracts/mocks/MockAIOracle.sol\":674:695  msg.sender == owner() */\n      0xffffffffffffffffffffffffffffffffffffffff\n      and\n        /* \"contracts/mocks/MockAIOracle.sol\":674:684  msg.sender */\n      caller\n        /* \"contracts/mocks/MockAIOracle.sol\":674:695  msg.sender == owner() */\n      0xffffffffffffffffffffffffffffffffffffffff\n      and\n      eq\n        /* \"contracts/mocks/MockAIOracle.sol\":666:713  require(msg.sender == owner(), \"Not the owner\") */\n      tag_225\n      jumpi\n      mload(0x40)\n      0x08c379a000000000000000000000000000000000000000000000000000000000\n      dup2\n      mstore\n      0x04\n      add\n      tag_226\n      swap1\n      tag_172\n      jump\t// in\n    tag_226:\n      mload(0x40)\n      dup1\n      swap2\n      sub\n      swap1\n      revert\n    tag_225:\n        /* \"contracts/mocks/MockAIOracle.sol\":5565:5572  modelId */\n      dup6\n        /* \"contracts/mocks/MockAIOracle.sol\":2166:2177  modelExists */\n      0x07\n        /* \"contracts/mocks/MockAIOracle.sol\":2166:2186  modelExists[modelId] */\n      0x00\n        /* \"contracts/mocks/MockAIOracle.sol\":2178:2185  modelId */\n      dup3\n        /* \"contracts/mocks/MockAIOracle.sol\":2166:2186  modelExists[modelId] */\n      dup2\n      mstore\n      0x20\n      add\n      swap1\n      dup2\n      mstore\n      0x20\n      add\n      0x00\n      keccak256\n      0x00\n      swap1\n      sload\n      swap1\n      0x0100\n      exp\n      swap1\n      div\n      0xff\n      and\n        /* \"contracts/mocks/MockAIOracle.sol\":2158:2211  require(modelExists[modelId], \"model does not exist\") */\n      tag_228\n      jumpi\n      mload(0x40)\n      0x08c379a000000000000000000000000000000000000000000000000000000000\n      dup2\n      mstore\n      0x04\n      add\n      tag_229\n      swap1\n      tag_176\n      jump\t// in\n    tag_229:\n      mload(0x40)\n      dup1\n      swap2\n      sub\n      swap1\n      revert\n    tag_228:\n        /* \"contracts/mocks/MockAIOracle.sol\":5614:5617  100 */\n      0x64\n        /* \"contracts/mocks/MockAIOracle.sol\":5592:5610  receiverPercentage */\n      dup3\n        /* \"contracts/mocks/MockAIOracle.sol\":5592:5617  receiverPercentage <= 100 */\n      gt\n      iszero\n        /* \"contracts/mocks/MockAIOracle.sol\":5584:5649  require(receiverPercentage <= 100, \"percentage should be <= 100\") */\n      tag_231\n      jumpi\n      mload(0x40)\n      0x08c379a000000000000000000000000000000000000000000000000000000000\n      dup2\n      mstore\n      0x04\n      add\n      tag_232\n      swap1\n      tag_233\n      jump\t// in\n    tag_232:\n      mload(0x40)\n      dup1\n      swap2\n      sub\n      swap1\n      revert\n    tag_231:\n        /* \"contracts/mocks/MockAIOracle.sol\":5659:5682  ModelData storage model */\n      0x00\n        /* \"contracts/mocks/MockAIOracle.sol\":5685:5691  models */\n      0x06\n        /* \"contracts/mocks/MockAIOracle.sol\":5685:5700  models[modelId] */\n      0x00\n        /* \"contracts/mocks/MockAIOracle.sol\":5692:5699  modelId */\n      dup10\n        /* \"contracts/mocks/MockAIOracle.sol\":5685:5700  models[modelId] */\n      dup2\n      mstore\n      0x20\n      add\n      swap1\n      dup2\n      mstore\n      0x20\n      add\n      0x00\n      keccak256\n        /* \"contracts/mocks/MockAIOracle.sol\":5659:5700  ModelData storage model = models[modelId] */\n      swap1\n      pop\n        /* \"contracts/mocks/MockAIOracle.sol\":5728:5737  modelHash */\n      dup7\n        /* \"contracts/mocks/MockAIOracle.sol\":5710:5715  model */\n      dup2\n        /* \"contracts/mocks/MockAIOracle.sol\":5710:5725  model.modelHash */\n      0x00\n      add\n        /* \"contracts/mocks/MockAIOracle.sol\":5710:5737  model.modelHash = modelHash */\n      dup2\n      swap1\n      sstore\n      pop\n        /* \"contracts/mocks/MockAIOracle.sol\":5767:5778  programHash */\n      dup6\n        /* \"contracts/mocks/MockAIOracle.sol\":5747:5752  model */\n      dup2\n        /* \"contracts/mocks/MockAIOracle.sol\":5747:5764  model.programHash */\n      0x01\n      add\n        /* \"contracts/mocks/MockAIOracle.sol\":5747:5778  model.programHash = programHash */\n      dup2\n      swap1\n      sstore\n      pop\n        /* \"contracts/mocks/MockAIOracle.sol\":5800:5803  fee */\n      dup5\n        /* \"contracts/mocks/MockAIOracle.sol\":5788:5793  model */\n      dup2\n        /* \"contracts/mocks/MockAIOracle.sol\":5788:5797  model.fee */\n      0x02\n      add\n        /* \"contracts/mocks/MockAIOracle.sol\":5788:5803  model.fee = fee */\n      dup2\n      swap1\n      sstore\n      pop\n        /* \"contracts/mocks/MockAIOracle.sol\":5830:5838  receiver */\n      dup4\n        /* \"contracts/mocks/MockAIOracle.sol\":5813:5818  model */\n      dup2\n        /* \"contracts/mocks/MockAIOracle.sol\":5813:5827  model.receiver */\n      0x03\n      add\n      0x00\n        /* \"contracts/mocks/MockAIOracle.sol\":5813:5838  model.receiver = receiver */\n      0x0100\n      exp\n      dup2\n      sload\n      dup2\n      0xffffffffffffffffffffffffffffffffffffffff\n      mul\n      not\n      and\n      swap1\n      dup4\n      0xffffffffffffffffffffffffffffffffffffffff\n      and\n      mul\n      or\n      swap1\n      sstore\n      pop\n        /* \"contracts/mocks/MockAIOracle.sol\":5875:5893  receiverPercentage */\n      dup3\n        /* \"contracts/mocks/MockAIOracle.sol\":5848:5853  model */\n      dup2\n        /* \"contracts/mocks/MockAIOracle.sol\":5848:5872  model.receiverPercentage */\n      0x04\n      add\n        /* \"contracts/mocks/MockAIOracle.sol\":5848:5893  model.receiverPercentage = receiverPercentage */\n      dup2\n      swap1\n      sstore\n      pop\n        /* \"contracts/mocks/MockAIOracle.sol\":5574:5900  {... */\n      pop\n        /* \"contracts/mocks/MockAIOracle.sol\":723:724  _ */\n      pop\n        /* \"contracts/mocks/MockAIOracle.sol\":5395:5900  function updateModel(uint256 modelId, bytes32 modelHash, bytes32 programHash, uint256 fee, address receiver, uint256 receiverPercentage) external onlyOwner ifModelExists(modelId) {... */\n      pop\n      pop\n      pop\n      pop\n      pop\n      pop\n      jump\t// out\n        /* \"contracts/mocks/MockAIOracle.sol\":9307:10346  function invokeCallback(uint256 requestId, bytes calldata output) external onlyServer {... */\n    tag_87:\n        /* \"contracts/mocks/MockAIOracle.sol\":791:799  server() */\n      tag_235\n        /* \"contracts/mocks/MockAIOracle.sol\":791:797  server */\n      tag_162\n        /* \"contracts/mocks/MockAIOracle.sol\":791:799  server() */\n      jump\t// in\n    tag_235:\n        /* \"contracts/mocks/MockAIOracle.sol\":777:799  msg.sender == server() */\n      0xffffffffffffffffffffffffffffffffffffffff\n      and\n        /* \"contracts/mocks/MockAIOracle.sol\":777:787  msg.sender */\n      caller\n        /* \"contracts/mocks/MockAIOracle.sol\":777:799  msg.sender == server() */\n      0xffffffffffffffffffffffffffffffffffffffff\n      and\n      eq\n        /* \"contracts/mocks/MockAIOracle.sol\":769:815  require(msg.sender == server(), \"Only server\") */\n      tag_236\n      jumpi\n      mload(0x40)\n      0x08c379a000000000000000000000000000000000000000000000000000000000\n      dup2\n      mstore\n      0x04\n      add\n      tag_237\n      swap1\n      tag_238\n      jump\t// in\n    tag_237:\n      mload(0x40)\n      dup1\n      swap2\n      sub\n      swap1\n      revert\n    tag_236:\n        /* \"contracts/mocks/MockAIOracle.sol\":9440:9477  AICallbackRequestData storage request */\n      0x00\n        /* \"contracts/mocks/MockAIOracle.sol\":9480:9488  requests */\n      0x04\n        /* \"contracts/mocks/MockAIOracle.sol\":9480:9499  requests[requestId] */\n      0x00\n        /* \"contracts/mocks/MockAIOracle.sol\":9489:9498  requestId */\n      dup6\n        /* \"contracts/mocks/MockAIOracle.sol\":9480:9499  requests[requestId] */\n      dup2\n      mstore\n      0x20\n      add\n      swap1\n      dup2\n      mstore\n      0x20\n      add\n      0x00\n      keccak256\n        /* \"contracts/mocks/MockAIOracle.sol\":9440:9499  AICallbackRequestData storage request = requests[requestId] */\n      swap1\n      pop\n        /* \"contracts/mocks/MockAIOracle.sol\":9578:9584  opml() */\n      tag_240\n        /* \"contracts/mocks/MockAIOracle.sol\":9578:9582  opml */\n      tag_135\n        /* \"contracts/mocks/MockAIOracle.sol\":9578:9584  opml() */\n      jump\t// in\n    tag_240:\n        /* \"contracts/mocks/MockAIOracle.sol\":9578:9597  opml().uploadResult */\n      0xffffffffffffffffffffffffffffffffffffffff\n      and\n      0x480f07c8\n        /* \"contracts/mocks/MockAIOracle.sol\":9598:9607  requestId */\n      dup6\n        /* \"contracts/mocks/MockAIOracle.sol\":9609:9615  output */\n      dup6\n      dup6\n        /* \"contracts/mocks/MockAIOracle.sol\":9578:9616  opml().uploadResult(requestId, output) */\n      mload(0x40)\n      dup5\n      0xffffffff\n      and\n      0xe0\n      shl\n      dup2\n      mstore\n      0x04\n      add\n      tag_241\n      swap4\n      swap3\n      swap2\n      swap1\n      tag_242\n      jump\t// in\n    tag_241:\n      0x00\n      mload(0x40)\n      dup1\n      dup4\n      sub\n      dup2\n      0x00\n      dup8\n      dup1\n      extcodesize\n      iszero\n      dup1\n      iszero\n      tag_243\n      jumpi\n      0x00\n      dup1\n      revert\n    tag_243:\n      pop\n      gas\n      call\n      iszero\n      dup1\n      iszero\n      tag_245\n      jumpi\n      returndatasize\n      0x00\n      dup1\n      returndatacopy\n      revert(0x00, returndatasize)\n    tag_245:\n      pop\n      pop\n      pop\n      pop\n        /* \"contracts/mocks/MockAIOracle.sol\":9693:9694  0 */\n      0x00\n        /* \"contracts/mocks/MockAIOracle.sol\":9657:9695  request.callbackContract != address(0) */\n      0xffffffffffffffffffffffffffffffffffffffff\n      and\n        /* \"contracts/mocks/MockAIOracle.sol\":9657:9664  request */\n      dup2\n        /* \"contracts/mocks/MockAIOracle.sol\":9657:9681  request.callbackContract */\n      0x04\n      add\n      0x00\n      swap1\n      sload\n      swap1\n      0x0100\n      exp\n      swap1\n      div\n      0xffffffffffffffffffffffffffffffffffffffff\n      and\n        /* \"contracts/mocks/MockAIOracle.sol\":9657:9695  request.callbackContract != address(0) */\n      0xffffffffffffffffffffffffffffffffffffffff\n      and\n      eq\n        /* \"contracts/mocks/MockAIOracle.sol\":9654:10154  if(request.callbackContract != address(0)) {... */\n      tag_246\n      jumpi\n        /* \"contracts/mocks/MockAIOracle.sol\":9711:9731  bytes memory payload */\n      0x00\n        /* \"contracts/mocks/MockAIOracle.sol\":9757:9783  callbackFunctionSelector() */\n      tag_247\n        /* \"contracts/mocks/MockAIOracle.sol\":9757:9781  callbackFunctionSelector */\n      tag_71\n        /* \"contracts/mocks/MockAIOracle.sol\":9757:9783  callbackFunctionSelector() */\n      jump\t// in\n    tag_247:\n        /* \"contracts/mocks/MockAIOracle.sol\":9785:9792  request */\n      dup3\n        /* \"contracts/mocks/MockAIOracle.sol\":9785:9802  request.requestId */\n      0x01\n      add\n      sload\n        /* \"contracts/mocks/MockAIOracle.sol\":9804:9810  output */\n      dup6\n      dup6\n        /* \"contracts/mocks/MockAIOracle.sol\":9812:9819  request */\n      dup6\n        /* \"contracts/mocks/MockAIOracle.sol\":9812:9832  request.callbackData */\n      0x05\n      add\n        /* \"contracts/mocks/MockAIOracle.sol\":9734:9833  abi.encodeWithSelector(callbackFunctionSelector(), request.requestId, output, request.callbackData) */\n      add(0x24, mload(0x40))\n      tag_248\n      swap5\n      swap4\n      swap3\n      swap2\n      swap1\n      tag_249\n      jump\t// in\n    tag_248:\n      mload(0x40)\n      0x20\n      dup2\n      dup4\n      sub\n      sub\n      dup2\n      mstore\n      swap1\n      0x40\n      mstore\n      swap1\n      not(0xffffffffffffffffffffffffffffffffffffffffffffffffffffffff)\n      and\n      0x20\n      dup3\n      add\n      dup1\n      mload\n      0xffffffffffffffffffffffffffffffffffffffffffffffffffffffff\n      dup4\n      dup2\n      dup4\n      and\n      or\n      dup4\n      mstore\n      pop\n      pop\n      pop\n      pop\n        /* \"contracts/mocks/MockAIOracle.sol\":9711:9833  bytes memory payload = abi.encodeWithSelector(callbackFunctionSelector(), request.requestId, output, request.callbackData) */\n      swap1\n      pop\n        /* \"contracts/mocks/MockAIOracle.sol\":9848:9860  bool success */\n      0x00\n        /* \"contracts/mocks/MockAIOracle.sol\":9862:9879  bytes memory data */\n      dup1\n        /* \"contracts/mocks/MockAIOracle.sol\":9883:9890  request */\n      dup4\n        /* \"contracts/mocks/MockAIOracle.sol\":9883:9907  request.callbackContract */\n      0x04\n      add\n      0x00\n      swap1\n      sload\n      swap1\n      0x0100\n      exp\n      swap1\n      div\n      0xffffffffffffffffffffffffffffffffffffffff\n      and\n        /* \"contracts/mocks/MockAIOracle.sol\":9883:9912  request.callbackContract.call */\n      0xffffffffffffffffffffffffffffffffffffffff\n      and\n        /* \"contracts/mocks/MockAIOracle.sol\":9918:9925  request */\n      dup5\n        /* \"contracts/mocks/MockAIOracle.sol\":9918:9934  request.gasLimit */\n      0x04\n      add\n      0x14\n      swap1\n      sload\n      swap1\n      0x0100\n      exp\n      swap1\n      div\n      0xffffffffffffffff\n      and\n        /* \"contracts/mocks/MockAIOracle.sol\":9883:9944  request.callbackContract.call{gas: request.gasLimit}(payload) */\n      0xffffffffffffffff\n      and\n        /* \"contracts/mocks/MockAIOracle.sol\":9936:9943  payload */\n      dup5\n        /* \"contracts/mocks/MockAIOracle.sol\":9883:9944  request.callbackContract.call{gas: request.gasLimit}(payload) */\n      mload(0x40)\n      tag_250\n      swap2\n      swap1\n      tag_251\n      jump\t// in\n    tag_250:\n      0x00\n      mload(0x40)\n      dup1\n      dup4\n      sub\n      dup2\n      0x00\n      dup8\n      dup8\n      call\n      swap3\n      pop\n      pop\n      pop\n      returndatasize\n      dup1\n      0x00\n      dup2\n      eq\n      tag_254\n      jumpi\n      mload(0x40)\n      swap2\n      pop\n      and(add(returndatasize, 0x3f), not(0x1f))\n      dup3\n      add\n      0x40\n      mstore\n      returndatasize\n      dup3\n      mstore\n      returndatasize\n      0x00\n      0x20\n      dup5\n      add\n      returndatacopy\n      jump(tag_253)\n    tag_254:\n      0x60\n      swap2\n      pop\n    tag_253:\n      pop\n        /* \"contracts/mocks/MockAIOracle.sol\":9847:9944  (bool success, bytes memory data) = request.callbackContract.call{gas: request.gasLimit}(payload) */\n      swap2\n      pop\n      swap2\n      pop\n        /* \"contracts/mocks/MockAIOracle.sol\":9966:9973  success */\n      dup2\n        /* \"contracts/mocks/MockAIOracle.sol\":9958:10001  require(success, \"failed to call selector\") */\n      tag_255\n      jumpi\n      mload(0x40)\n      0x08c379a000000000000000000000000000000000000000000000000000000000\n      dup2\n      mstore\n      0x04\n      add\n      tag_256\n      swap1\n      tag_257\n      jump\t// in\n    tag_256:\n      mload(0x40)\n      dup1\n      swap2\n      sub\n      swap1\n      revert\n    tag_255:\n        /* \"contracts/mocks/MockAIOracle.sol\":10020:10027  success */\n      dup2\n        /* \"contracts/mocks/MockAIOracle.sol\":10015:10144  if (!success) {... */\n      tag_258\n      jumpi\n        /* \"contracts/mocks/MockAIOracle.sol\":10106:10110  data */\n      dup1\n        /* \"contracts/mocks/MockAIOracle.sol\":10100:10111  mload(data) */\n      mload\n        /* \"contracts/mocks/MockAIOracle.sol\":10095:10097  32 */\n      0x20\n        /* \"contracts/mocks/MockAIOracle.sol\":10089:10093  data */\n      dup3\n        /* \"contracts/mocks/MockAIOracle.sol\":10085:10098  add(data, 32) */\n      add\n        /* \"contracts/mocks/MockAIOracle.sol\":10078:10112  revert(add(data, 32), mload(data)) */\n      revert\n        /* \"contracts/mocks/MockAIOracle.sol\":10015:10144  if (!success) {... */\n    tag_258:\n        /* \"contracts/mocks/MockAIOracle.sol\":9697:10154  {... */\n      pop\n      pop\n      pop\n        /* \"contracts/mocks/MockAIOracle.sol\":9654:10154  if(request.callbackContract != address(0)) {... */\n    tag_246:\n        /* \"contracts/mocks/MockAIOracle.sol\":10221:10227  output */\n      dup3\n      dup3\n        /* \"contracts/mocks/MockAIOracle.sol\":10192:10207  outputOfRequest */\n      0x05\n        /* \"contracts/mocks/MockAIOracle.sol\":10192:10218  outputOfRequest[requestId] */\n      0x00\n        /* \"contracts/mocks/MockAIOracle.sol\":10208:10217  requestId */\n      dup8\n        /* \"contracts/mocks/MockAIOracle.sol\":10192:10218  outputOfRequest[requestId] */\n      dup2\n      mstore\n      0x20\n      add\n      swap1\n      dup2\n      mstore\n      0x20\n      add\n      0x00\n      keccak256\n        /* \"contracts/mocks/MockAIOracle.sol\":10192:10227  outputOfRequest[requestId] = output */\n      swap2\n      dup3\n      tag_259\n      swap3\n      swap2\n      swap1\n      tag_260\n      jump\t// in\n    tag_259:\n      pop\n        /* \"contracts/mocks/MockAIOracle.sol\":10276:10285  requestId */\n      dup4\n        /* \"contracts/mocks/MockAIOracle.sol\":10259:10266  request */\n      dup2\n        /* \"contracts/mocks/MockAIOracle.sol\":10259:10274  request.account */\n      0x00\n      add\n      0x00\n      swap1\n      sload\n      swap1\n      0x0100\n      exp\n      swap1\n      div\n      0xffffffffffffffffffffffffffffffffffffffff\n      and\n        /* \"contracts/mocks/MockAIOracle.sol\":10242:10306  AICallbackResult(request.account, requestId, msg.sender, output) */\n      0xffffffffffffffffffffffffffffffffffffffff\n      and\n      0xb7b413554c4e94c80cfbb175a0e4727f2f425d29b980195c49dac293c2914fc0\n        /* \"contracts/mocks/MockAIOracle.sol\":10287:10297  msg.sender */\n      caller\n        /* \"contracts/mocks/MockAIOracle.sol\":10299:10305  output */\n      dup7\n      dup7\n        /* \"contracts/mocks/MockAIOracle.sol\":10242:10306  AICallbackResult(request.account, requestId, msg.sender, output) */\n      mload(0x40)\n      tag_261\n      swap4\n      swap3\n      swap2\n      swap1\n      tag_262\n      jump\t// in\n    tag_261:\n      mload(0x40)\n      dup1\n      swap2\n      sub\n      swap1\n      log3\n        /* \"contracts/mocks/MockAIOracle.sol\":10328:10339  tx.gasprice */\n      gasprice\n        /* \"contracts/mocks/MockAIOracle.sol\":10317:10325  gasPrice */\n      0x08\n        /* \"contracts/mocks/MockAIOracle.sol\":10317:10339  gasPrice = tx.gasprice */\n      dup2\n      swap1\n      sstore\n      pop\n        /* \"contracts/mocks/MockAIOracle.sol\":9393:10346  {... */\n      pop\n        /* \"contracts/mocks/MockAIOracle.sol\":9307:10346  function invokeCallback(uint256 requestId, bytes calldata output) external onlyServer {... */\n      pop\n      pop\n      pop\n      jump\t// out\n        /* \"contracts/mocks/MockAIOracle.sol\":7813:8124  function claimModelRevenue(uint256 modelId) external ifModelExists(modelId) {... */\n    tag_91:\n        /* \"contracts/mocks/MockAIOracle.sol\":7880:7887  modelId */\n      dup1\n        /* \"contracts/mocks/MockAIOracle.sol\":2166:2177  modelExists */\n      0x07\n        /* \"contracts/mocks/MockAIOracle.sol\":2166:2186  modelExists[modelId] */\n      0x00\n        /* \"contracts/mocks/MockAIOracle.sol\":2178:2185  modelId */\n      dup3\n        /* \"contracts/mocks/MockAIOracle.sol\":2166:2186  modelExists[modelId] */\n      dup2\n      mstore\n      0x20\n      add\n      swap1\n      dup2\n      mstore\n      0x20\n      add\n      0x00\n      keccak256\n      0x00\n      swap1\n      sload\n      swap1\n      0x0100\n      exp\n      swap1\n      div\n      0xff\n      and\n        /* \"contracts/mocks/MockAIOracle.sol\":2158:2211  require(modelExists[modelId], \"model does not exist\") */\n      tag_264\n      jumpi\n      mload(0x40)\n      0x08c379a000000000000000000000000000000000000000000000000000000000\n      dup2\n      mstore\n      0x04\n      add\n      tag_265\n      swap1\n      tag_176\n      jump\t// in\n    tag_265:\n      mload(0x40)\n      dup1\n      swap2\n      sub\n      swap1\n      revert\n    tag_264:\n        /* \"contracts/mocks/MockAIOracle.sol\":7899:7922  ModelData storage model */\n      0x00\n        /* \"contracts/mocks/MockAIOracle.sol\":7925:7931  models */\n      0x06\n        /* \"contracts/mocks/MockAIOracle.sol\":7925:7940  models[modelId] */\n      0x00\n        /* \"contracts/mocks/MockAIOracle.sol\":7932:7939  modelId */\n      dup5\n        /* \"contracts/mocks/MockAIOracle.sol\":7925:7940  models[modelId] */\n      dup2\n      mstore\n      0x20\n      add\n      swap1\n      dup2\n      mstore\n      0x20\n      add\n      0x00\n      keccak256\n        /* \"contracts/mocks/MockAIOracle.sol\":7899:7940  ModelData storage model = models[modelId] */\n      swap1\n      pop\n        /* \"contracts/mocks/MockAIOracle.sol\":7984:7985  0 */\n      0x00\n        /* \"contracts/mocks/MockAIOracle.sol\":7958:7963  model */\n      dup2\n        /* \"contracts/mocks/MockAIOracle.sol\":7958:7981  model.accumulateRevenue */\n      0x05\n      add\n      sload\n        /* \"contracts/mocks/MockAIOracle.sol\":7958:7985  model.accumulateRevenue > 0 */\n      gt\n        /* \"contracts/mocks/MockAIOracle.sol\":7950:8013  require(model.accumulateRevenue > 0, \"accumulate revenue is 0\") */\n      tag_267\n      jumpi\n      mload(0x40)\n      0x08c379a000000000000000000000000000000000000000000000000000000000\n      dup2\n      mstore\n      0x04\n      add\n      tag_268\n      swap1\n      tag_269\n      jump\t// in\n    tag_268:\n      mload(0x40)\n      dup1\n      swap2\n      sub\n      swap1\n      revert\n    tag_267:\n        /* \"contracts/mocks/MockAIOracle.sol\":8031:8036  model */\n      dup1\n        /* \"contracts/mocks/MockAIOracle.sol\":8031:8045  model.receiver */\n      0x03\n      add\n      0x00\n      swap1\n      sload\n      swap1\n      0x0100\n      exp\n      swap1\n      div\n      0xffffffffffffffffffffffffffffffffffffffff\n      and\n        /* \"contracts/mocks/MockAIOracle.sol\":8023:8055  payable(model.receiver).transfer */\n      0xffffffffffffffffffffffffffffffffffffffff\n      and\n        /* \"contracts/mocks/MockAIOracle.sol\":8023:8080  payable(model.receiver).transfer(model.accumulateRevenue) */\n      0x08fc\n        /* \"contracts/mocks/MockAIOracle.sol\":8056:8061  model */\n      dup3\n        /* \"contracts/mocks/MockAIOracle.sol\":8056:8079  model.accumulateRevenue */\n      0x05\n      add\n      sload\n        /* \"contracts/mocks/MockAIOracle.sol\":8023:8080  payable(model.receiver).transfer(model.accumulateRevenue) */\n      swap1\n      dup2\n      iszero\n      mul\n      swap1\n      mload(0x40)\n      0x00\n      mload(0x40)\n      dup1\n      dup4\n      sub\n      dup2\n      dup6\n      dup9\n      dup9\n      call\n      swap4\n      pop\n      pop\n      pop\n      pop\n      iszero\n      dup1\n      iszero\n      tag_271\n      jumpi\n      returndatasize\n      0x00\n      dup1\n      returndatacopy\n      revert(0x00, returndatasize)\n    tag_271:\n      pop\n        /* \"contracts/mocks/MockAIOracle.sol\":8116:8117  0 */\n      0x00\n        /* \"contracts/mocks/MockAIOracle.sol\":8090:8095  model */\n      dup2\n        /* \"contracts/mocks/MockAIOracle.sol\":8090:8113  model.accumulateRevenue */\n      0x05\n      add\n        /* \"contracts/mocks/MockAIOracle.sol\":8090:8117  model.accumulateRevenue = 0 */\n      dup2\n      swap1\n      sstore\n      pop\n        /* \"contracts/mocks/MockAIOracle.sol\":7889:8124  {... */\n      pop\n        /* \"contracts/mocks/MockAIOracle.sol\":7813:8124  function claimModelRevenue(uint256 modelId) external ifModelExists(modelId) {... */\n      pop\n      pop\n      jump\t// out\n        /* \"contracts/mocks/MockAIOracle.sol\":6682:7773  function requestCallback(... */\n    tag_95:\n        /* \"contracts/mocks/MockAIOracle.sol\":6886:6893  uint256 */\n      0x00\n        /* \"contracts/mocks/MockAIOracle.sol\":6932:6991  _validateParams(modelId, input, callbackContract, gasLimit) */\n      tag_273\n        /* \"contracts/mocks/MockAIOracle.sol\":6948:6955  modelId */\n      dup7\n        /* \"contracts/mocks/MockAIOracle.sol\":6957:6962  input */\n      dup7\n        /* \"contracts/mocks/MockAIOracle.sol\":6964:6980  callbackContract */\n      dup7\n        /* \"contracts/mocks/MockAIOracle.sol\":6982:6990  gasLimit */\n      dup7\n        /* \"contracts/mocks/MockAIOracle.sol\":6932:6947  _validateParams */\n      tag_274\n        /* \"contracts/mocks/MockAIOracle.sol\":6932:6991  _validateParams(modelId, input, callbackContract, gasLimit) */\n      jump\t// in\n    tag_273:\n        /* \"contracts/mocks/MockAIOracle.sol\":7002:7024  ModelData memory model */\n      0x00\n        /* \"contracts/mocks/MockAIOracle.sol\":7027:7033  models */\n      0x06\n        /* \"contracts/mocks/MockAIOracle.sol\":7027:7042  models[modelId] */\n      0x00\n        /* \"contracts/mocks/MockAIOracle.sol\":7034:7041  modelId */\n      dup9\n        /* \"contracts/mocks/MockAIOracle.sol\":7027:7042  models[modelId] */\n      dup2\n      mstore\n      0x20\n      add\n      swap1\n      dup2\n      mstore\n      0x20\n      add\n      0x00\n      keccak256\n        /* \"contracts/mocks/MockAIOracle.sol\":7002:7042  ModelData memory model = models[modelId] */\n      mload(0x40)\n      dup1\n      0xc0\n      add\n      0x40\n      mstore\n      swap1\n      dup2\n      0x00\n      dup3\n      add\n      sload\n      dup2\n      mstore\n      0x20\n      add\n      0x01\n      dup3\n      add\n      sload\n      dup2\n      mstore\n      0x20\n      add\n      0x02\n      dup3\n      add\n      sload\n      dup2\n      mstore\n      0x20\n      add\n      0x03\n      dup3\n      add\n      0x00\n      swap1\n      sload\n      swap1\n      0x0100\n      exp\n      swap1\n      div\n      0xffffffffffffffffffffffffffffffffffffffff\n      and\n      0xffffffffffffffffffffffffffffffffffffffff\n      and\n      0xffffffffffffffffffffffffffffffffffffffff\n      and\n      dup2\n      mstore\n      0x20\n      add\n      0x04\n      dup3\n      add\n      sload\n      dup2\n      mstore\n      0x20\n      add\n      0x05\n      dup3\n      add\n      sload\n      dup2\n      mstore\n      pop\n      pop\n      swap1\n      pop\n        /* \"contracts/mocks/MockAIOracle.sol\":7082:7099  uint256 requestId */\n      0x00\n        /* \"contracts/mocks/MockAIOracle.sol\":7102:7108  opml() */\n      tag_275\n        /* \"contracts/mocks/MockAIOracle.sol\":7102:7106  opml */\n      tag_135\n        /* \"contracts/mocks/MockAIOracle.sol\":7102:7108  opml() */\n      jump\t// in\n    tag_275:\n        /* \"contracts/mocks/MockAIOracle.sol\":7102:7124  opml().initOpmlRequest */\n      0xffffffffffffffffffffffffffffffffffffffff\n      and\n      0xc61b0b76\n        /* \"contracts/mocks/MockAIOracle.sol\":7125:7130  model */\n      dup4\n        /* \"contracts/mocks/MockAIOracle.sol\":7125:7140  model.modelHash */\n      0x00\n      add\n      mload\n        /* \"contracts/mocks/MockAIOracle.sol\":7142:7147  model */\n      dup5\n        /* \"contracts/mocks/MockAIOracle.sol\":7142:7159  model.programHash */\n      0x20\n      add\n      mload\n        /* \"contracts/mocks/MockAIOracle.sol\":7161:7166  input */\n      dup11\n        /* \"contracts/mocks/MockAIOracle.sol\":7102:7167  opml().initOpmlRequest(model.modelHash, model.programHash, input) */\n      mload(0x40)\n      dup5\n      0xffffffff\n      and\n      0xe0\n      shl\n      dup2\n      mstore\n      0x04\n      add\n      tag_276\n      swap4\n      swap3\n      swap2\n      swap1\n      tag_277\n      jump\t// in\n    tag_276:\n      0x20\n      mload(0x40)\n      dup1\n      dup4\n      sub\n      dup2\n      0x00\n      dup8\n      gas\n      call\n      iszero\n      dup1\n      iszero\n      tag_279\n      jumpi\n      returndatasize\n      0x00\n      dup1\n      returndatacopy\n      revert(0x00, returndatasize)\n    tag_279:\n      pop\n      pop\n      pop\n      pop\n      mload(0x40)\n      returndatasize\n      not(0x1f)\n      0x1f\n      dup3\n      add\n      and\n      dup3\n      add\n      dup1\n      0x40\n      mstore\n      pop\n      dup2\n      add\n      swap1\n      tag_280\n      swap2\n      swap1\n      tag_281\n      jump\t// in\n    tag_280:\n        /* \"contracts/mocks/MockAIOracle.sol\":7082:7167  uint256 requestId = opml().initOpmlRequest(model.modelHash, model.programHash, input) */\n      swap1\n      pop\n        /* \"contracts/mocks/MockAIOracle.sol\":7266:7303  AICallbackRequestData storage request */\n      0x00\n        /* \"contracts/mocks/MockAIOracle.sol\":7306:7314  requests */\n      0x04\n        /* \"contracts/mocks/MockAIOracle.sol\":7306:7325  requests[requestId] */\n      0x00\n        /* \"contracts/mocks/MockAIOracle.sol\":7315:7324  requestId */\n      dup4\n        /* \"contracts/mocks/MockAIOracle.sol\":7306:7325  requests[requestId] */\n      dup2\n      mstore\n      0x20\n      add\n      swap1\n      dup2\n      mstore\n      0x20\n      add\n      0x00\n      keccak256\n        /* \"contracts/mocks/MockAIOracle.sol\":7266:7325  AICallbackRequestData storage request = requests[requestId] */\n      swap1\n      pop\n        /* \"contracts/mocks/MockAIOracle.sol\":7353:7363  msg.sender */\n      caller\n        /* \"contracts/mocks/MockAIOracle.sol\":7335:7342  request */\n      dup2\n        /* \"contracts/mocks/MockAIOracle.sol\":7335:7350  request.account */\n      0x00\n      add\n      0x00\n        /* \"contracts/mocks/MockAIOracle.sol\":7335:7363  request.account = msg.sender */\n      0x0100\n      exp\n      dup2\n      sload\n      dup2\n      0xffffffffffffffffffffffffffffffffffffffff\n      mul\n      not\n      and\n      swap1\n      dup4\n      0xffffffffffffffffffffffffffffffffffffffff\n      and\n      mul\n      or\n      swap1\n      sstore\n      pop\n        /* \"contracts/mocks/MockAIOracle.sol\":7393:7402  requestId */\n      dup2\n        /* \"contracts/mocks/MockAIOracle.sol\":7373:7380  request */\n      dup2\n        /* \"contracts/mocks/MockAIOracle.sol\":7373:7390  request.requestId */\n      0x01\n      add\n        /* \"contracts/mocks/MockAIOracle.sol\":7373:7402  request.requestId = requestId */\n      dup2\n      swap1\n      sstore\n      pop\n        /* \"contracts/mocks/MockAIOracle.sol\":7430:7437  modelId */\n      dup9\n        /* \"contracts/mocks/MockAIOracle.sol\":7412:7419  request */\n      dup2\n        /* \"contracts/mocks/MockAIOracle.sol\":7412:7427  request.modelId */\n      0x02\n      add\n        /* \"contracts/mocks/MockAIOracle.sol\":7412:7437  request.modelId = modelId */\n      dup2\n      swap1\n      sstore\n      pop\n        /* \"contracts/mocks/MockAIOracle.sol\":7463:7468  input */\n      dup8\n        /* \"contracts/mocks/MockAIOracle.sol\":7447:7454  request */\n      dup2\n        /* \"contracts/mocks/MockAIOracle.sol\":7447:7460  request.input */\n      0x03\n      add\n        /* \"contracts/mocks/MockAIOracle.sol\":7447:7468  request.input = input */\n      swap1\n      dup2\n      tag_282\n      swap2\n      swap1\n      tag_283\n      jump\t// in\n    tag_282:\n      pop\n        /* \"contracts/mocks/MockAIOracle.sol\":7505:7521  callbackContract */\n      dup7\n        /* \"contracts/mocks/MockAIOracle.sol\":7478:7485  request */\n      dup2\n        /* \"contracts/mocks/MockAIOracle.sol\":7478:7502  request.callbackContract */\n      0x04\n      add\n      0x00\n        /* \"contracts/mocks/MockAIOracle.sol\":7478:7521  request.callbackContract = callbackContract */\n      0x0100\n      exp\n      dup2\n      sload\n      dup2\n      0xffffffffffffffffffffffffffffffffffffffff\n      mul\n      not\n      and\n      swap1\n      dup4\n      0xffffffffffffffffffffffffffffffffffffffff\n      and\n      mul\n      or\n      swap1\n      sstore\n      pop\n        /* \"contracts/mocks/MockAIOracle.sol\":7550:7558  gasLimit */\n      dup6\n        /* \"contracts/mocks/MockAIOracle.sol\":7531:7538  request */\n      dup2\n        /* \"contracts/mocks/MockAIOracle.sol\":7531:7547  request.gasLimit */\n      0x04\n      add\n      0x14\n        /* \"contracts/mocks/MockAIOracle.sol\":7531:7558  request.gasLimit = gasLimit */\n      0x0100\n      exp\n      dup2\n      sload\n      dup2\n      0xffffffffffffffff\n      mul\n      not\n      and\n      swap1\n      dup4\n      0xffffffffffffffff\n      and\n      mul\n      or\n      swap1\n      sstore\n      pop\n        /* \"contracts/mocks/MockAIOracle.sol\":7591:7603  callbackData */\n      dup5\n        /* \"contracts/mocks/MockAIOracle.sol\":7568:7575  request */\n      dup2\n        /* \"contracts/mocks/MockAIOracle.sol\":7568:7588  request.callbackData */\n      0x05\n      add\n        /* \"contracts/mocks/MockAIOracle.sol\":7568:7603  request.callbackData = callbackData */\n      swap1\n      dup2\n      tag_284\n      swap2\n      swap1\n      tag_283\n      jump\t// in\n    tag_284:\n      pop\n        /* \"contracts/mocks/MockAIOracle.sol\":7671:7680  requestId */\n      dup2\n        /* \"contracts/mocks/MockAIOracle.sol\":7659:7669  msg.sender */\n      caller\n        /* \"contracts/mocks/MockAIOracle.sol\":7641:7739  AICallbackRequest(msg.sender, requestId, modelId, input, callbackContract, gasLimit, callbackData) */\n      0xffffffffffffffffffffffffffffffffffffffff\n      and\n      0x849aa5adc3bf6a75cb08afbf31d88d1528c274e5d84e3d4355d23d8e9ebd649b\n        /* \"contracts/mocks/MockAIOracle.sol\":7682:7689  modelId */\n      dup12\n        /* \"contracts/mocks/MockAIOracle.sol\":7691:7696  input */\n      dup12\n        /* \"contracts/mocks/MockAIOracle.sol\":7698:7714  callbackContract */\n      dup12\n        /* \"contracts/mocks/MockAIOracle.sol\":7716:7724  gasLimit */\n      dup12\n        /* \"contracts/mocks/MockAIOracle.sol\":7726:7738  callbackData */\n      dup12\n        /* \"contracts/mocks/MockAIOracle.sol\":7641:7739  AICallbackRequest(msg.sender, requestId, modelId, input, callbackContract, gasLimit, callbackData) */\n      mload(0x40)\n      tag_285\n      swap6\n      swap5\n      swap4\n      swap3\n      swap2\n      swap1\n      tag_286\n      jump\t// in\n    tag_285:\n      mload(0x40)\n      dup1\n      swap2\n      sub\n      swap1\n      log3\n        /* \"contracts/mocks/MockAIOracle.sol\":7757:7766  requestId */\n      dup2\n        /* \"contracts/mocks/MockAIOracle.sol\":7750:7766  return requestId */\n      swap4\n      pop\n      pop\n      pop\n      pop\n        /* \"contracts/mocks/MockAIOracle.sol\":6682:7773  function requestCallback(... */\n      swap6\n      swap5\n      pop\n      pop\n      pop\n      pop\n      pop\n      jump\t// out\n        /* \"contracts/mocks/MockAIOracle.sol\":4000:4311  function setModelReceiverPercentage(uint256 modelId, uint256 receiverPercentage) external onlyOwner ifModelExists(modelId) {... */\n    tag_100:\n        /* \"contracts/mocks/MockAIOracle.sol\":688:695  owner() */\n      tag_288\n        /* \"contracts/mocks/MockAIOracle.sol\":688:693  owner */\n      tag_130\n        /* \"contracts/mocks/MockAIOracle.sol\":688:695  owner() */\n      jump\t// in\n    tag_288:\n        /* \"contracts/mocks/MockAIOracle.sol\":674:695  msg.sender == owner() */\n      0xffffffffffffffffffffffffffffffffffffffff\n      and\n        /* \"contracts/mocks/MockAIOracle.sol\":674:684  msg.sender */\n      caller\n        /* \"contracts/mocks/MockAIOracle.sol\":674:695  msg.sender == owner() */\n      0xffffffffffffffffffffffffffffffffffffffff\n      and\n      eq\n        /* \"contracts/mocks/MockAIOracle.sol\":666:713  require(msg.sender == owner(), \"Not the owner\") */\n      tag_289\n      jumpi\n      mload(0x40)\n      0x08c379a000000000000000000000000000000000000000000000000000000000\n      dup2\n      mstore\n      0x04\n      add\n      tag_290\n      swap1\n      tag_172\n      jump\t// in\n    tag_290:\n      mload(0x40)\n      dup1\n      swap2\n      sub\n      swap1\n      revert\n    tag_289:\n        /* \"contracts/mocks/MockAIOracle.sol\":4114:4121  modelId */\n      dup2\n        /* \"contracts/mocks/MockAIOracle.sol\":2166:2177  modelExists */\n      0x07\n        /* \"contracts/mocks/MockAIOracle.sol\":2166:2186  modelExists[modelId] */\n      0x00\n        /* \"contracts/mocks/MockAIOracle.sol\":2178:2185  modelId */\n      dup3\n        /* \"contracts/mocks/MockAIOracle.sol\":2166:2186  modelExists[modelId] */\n      dup2\n      mstore\n      0x20\n      add\n      swap1\n      dup2\n      mstore\n      0x20\n      add\n      0x00\n      keccak256\n      0x00\n      swap1\n      sload\n      swap1\n      0x0100\n      exp\n      swap1\n      div\n      0xff\n      and\n        /* \"contracts/mocks/MockAIOracle.sol\":2158:2211  require(modelExists[modelId], \"model does not exist\") */\n      tag_292\n      jumpi\n      mload(0x40)\n      0x08c379a000000000000000000000000000000000000000000000000000000000\n      dup2\n      mstore\n      0x04\n      add\n      tag_293\n      swap1\n      tag_176\n      jump\t// in\n    tag_293:\n      mload(0x40)\n      dup1\n      swap2\n      sub\n      swap1\n      revert\n    tag_292:\n        /* \"contracts/mocks/MockAIOracle.sol\":4163:4166  100 */\n      0x64\n        /* \"contracts/mocks/MockAIOracle.sol\":4141:4159  receiverPercentage */\n      dup3\n        /* \"contracts/mocks/MockAIOracle.sol\":4141:4166  receiverPercentage <= 100 */\n      gt\n      iszero\n        /* \"contracts/mocks/MockAIOracle.sol\":4133:4198  require(receiverPercentage <= 100, \"percentage should be <= 100\") */\n      tag_295\n      jumpi\n      mload(0x40)\n      0x08c379a000000000000000000000000000000000000000000000000000000000\n      dup2\n      mstore\n      0x04\n      add\n      tag_296\n      swap1\n      tag_233\n      jump\t// in\n    tag_296:\n      mload(0x40)\n      dup1\n      swap2\n      sub\n      swap1\n      revert\n    tag_295:\n        /* \"contracts/mocks/MockAIOracle.sol\":4208:4231  ModelData storage model */\n      0x00\n        /* \"contracts/mocks/MockAIOracle.sol\":4234:4240  models */\n      0x06\n        /* \"contracts/mocks/MockAIOracle.sol\":4234:4249  models[modelId] */\n      0x00\n        /* \"contracts/mocks/MockAIOracle.sol\":4241:4248  modelId */\n      dup6\n        /* \"contracts/mocks/MockAIOracle.sol\":4234:4249  models[modelId] */\n      dup2\n      mstore\n      0x20\n      add\n      swap1\n      dup2\n      mstore\n      0x20\n      add\n      0x00\n      keccak256\n        /* \"contracts/mocks/MockAIOracle.sol\":4208:4249  ModelData storage model = models[modelId] */\n      swap1\n      pop\n        /* \"contracts/mocks/MockAIOracle.sol\":4286:4304  receiverPercentage */\n      dup3\n        /* \"contracts/mocks/MockAIOracle.sol\":4259:4264  model */\n      dup2\n        /* \"contracts/mocks/MockAIOracle.sol\":4259:4283  model.receiverPercentage */\n      0x04\n      add\n        /* \"contracts/mocks/MockAIOracle.sol\":4259:4304  model.receiverPercentage = receiverPercentage */\n      dup2\n      swap1\n      sstore\n      pop\n        /* \"contracts/mocks/MockAIOracle.sol\":4123:4311  {... */\n      pop\n        /* \"contracts/mocks/MockAIOracle.sol\":723:724  _ */\n      pop\n        /* \"contracts/mocks/MockAIOracle.sol\":4000:4311  function setModelReceiverPercentage(uint256 modelId, uint256 receiverPercentage) external onlyOwner ifModelExists(modelId) {... */\n      pop\n      pop\n      jump\t// out\n        /* \"contracts/mocks/MockAIOracle.sol\":2637:3202  function removeModel(uint256 modelId) external onlyOwner ifModelExists(modelId) {... */\n    tag_104:\n        /* \"contracts/mocks/MockAIOracle.sol\":688:695  owner() */\n      tag_298\n        /* \"contracts/mocks/MockAIOracle.sol\":688:693  owner */\n      tag_130\n        /* \"contracts/mocks/MockAIOracle.sol\":688:695  owner() */\n      jump\t// in\n    tag_298:\n        /* \"contracts/mocks/MockAIOracle.sol\":674:695  msg.sender == owner() */\n      0xffffffffffffffffffffffffffffffffffffffff\n      and\n        /* \"contracts/mocks/MockAIOracle.sol\":674:684  msg.sender */\n      caller\n        /* \"contracts/mocks/MockAIOracle.sol\":674:695  msg.sender == owner() */\n      0xffffffffffffffffffffffffffffffffffffffff\n      and\n      eq\n        /* \"contracts/mocks/MockAIOracle.sol\":666:713  require(msg.sender == owner(), \"Not the owner\") */\n      tag_299\n      jumpi\n      mload(0x40)\n      0x08c379a000000000000000000000000000000000000000000000000000000000\n      dup2\n      mstore\n      0x04\n      add\n      tag_300\n      swap1\n      tag_172\n      jump\t// in\n    tag_300:\n      mload(0x40)\n      dup1\n      swap2\n      sub\n      swap1\n      revert\n    tag_299:\n        /* \"contracts/mocks/MockAIOracle.sol\":2708:2715  modelId */\n      dup1\n        /* \"contracts/mocks/MockAIOracle.sol\":2166:2177  modelExists */\n      0x07\n        /* \"contracts/mocks/MockAIOracle.sol\":2166:2186  modelExists[modelId] */\n      0x00\n        /* \"contracts/mocks/MockAIOracle.sol\":2178:2185  modelId */\n      dup3\n        /* \"contracts/mocks/MockAIOracle.sol\":2166:2186  modelExists[modelId] */\n      dup2\n      mstore\n      0x20\n      add\n      swap1\n      dup2\n      mstore\n      0x20\n      add\n      0x00\n      keccak256\n      0x00\n      swap1\n      sload\n      swap1\n      0x0100\n      exp\n      swap1\n      div\n      0xff\n      and\n        /* \"contracts/mocks/MockAIOracle.sol\":2158:2211  require(modelExists[modelId], \"model does not exist\") */\n      tag_302\n      jumpi\n      mload(0x40)\n      0x08c379a000000000000000000000000000000000000000000000000000000000\n      dup2\n      mstore\n      0x04\n      add\n      tag_303\n      swap1\n      tag_176\n      jump\t// in\n    tag_303:\n      mload(0x40)\n      dup1\n      swap2\n      sub\n      swap1\n      revert\n    tag_302:\n        /* \"contracts/mocks/MockAIOracle.sol\":2750:2755  false */\n      0x00\n        /* \"contracts/mocks/MockAIOracle.sol\":2727:2738  modelExists */\n      0x07\n        /* \"contracts/mocks/MockAIOracle.sol\":2727:2747  modelExists[modelId] */\n      0x00\n        /* \"contracts/mocks/MockAIOracle.sol\":2739:2746  modelId */\n      dup5\n        /* \"contracts/mocks/MockAIOracle.sol\":2727:2747  modelExists[modelId] */\n      dup2\n      mstore\n      0x20\n      add\n      swap1\n      dup2\n      mstore\n      0x20\n      add\n      0x00\n      keccak256\n      0x00\n        /* \"contracts/mocks/MockAIOracle.sol\":2727:2755  modelExists[modelId] = false */\n      0x0100\n      exp\n      dup2\n      sload\n      dup2\n      0xff\n      mul\n      not\n      and\n      swap1\n      dup4\n      iszero\n      iszero\n      mul\n      or\n      swap1\n      sstore\n      pop\n        /* \"contracts/mocks/MockAIOracle.sol\":2802:2808  uint i */\n      0x00\n        /* \"contracts/mocks/MockAIOracle.sol\":2797:3196  for (uint i = 0; i < modelIDs.length; i++) {... */\n    tag_305:\n        /* \"contracts/mocks/MockAIOracle.sol\":2818:2826  modelIDs */\n      0x09\n        /* \"contracts/mocks/MockAIOracle.sol\":2818:2833  modelIDs.length */\n      dup1\n      sload\n      swap1\n      pop\n        /* \"contracts/mocks/MockAIOracle.sol\":2814:2815  i */\n      dup2\n        /* \"contracts/mocks/MockAIOracle.sol\":2814:2833  i < modelIDs.length */\n      lt\n        /* \"contracts/mocks/MockAIOracle.sol\":2797:3196  for (uint i = 0; i < modelIDs.length; i++) {... */\n      iszero\n      tag_306\n      jumpi\n        /* \"contracts/mocks/MockAIOracle.sol\":2854:2864  uint256 id */\n      0x00\n        /* \"contracts/mocks/MockAIOracle.sol\":2867:2875  modelIDs */\n      0x09\n        /* \"contracts/mocks/MockAIOracle.sol\":2876:2877  i */\n      dup3\n        /* \"contracts/mocks/MockAIOracle.sol\":2867:2878  modelIDs[i] */\n      dup2\n      sload\n      dup2\n      lt\n      tag_308\n      jumpi\n      tag_309\n      tag_205\n      jump\t// in\n    tag_309:\n    tag_308:\n      swap1\n      0x00\n      mstore\n      keccak256(0x00, 0x20)\n      add\n      sload\n        /* \"contracts/mocks/MockAIOracle.sol\":2854:2878  uint256 id = modelIDs[i] */\n      swap1\n      pop\n        /* \"contracts/mocks/MockAIOracle.sol\":2902:2909  modelId */\n      dup4\n        /* \"contracts/mocks/MockAIOracle.sol\":2896:2898  id */\n      dup2\n        /* \"contracts/mocks/MockAIOracle.sol\":2896:2909  id == modelId */\n      sub\n        /* \"contracts/mocks/MockAIOracle.sol\":2892:3186  if (id == modelId) {... */\n      tag_311\n      jumpi\n        /* \"contracts/mocks/MockAIOracle.sol\":3013:3021  modelIDs */\n      0x09\n        /* \"contracts/mocks/MockAIOracle.sol\":3040:3041  1 */\n      0x01\n        /* \"contracts/mocks/MockAIOracle.sol\":3022:3030  modelIDs */\n      0x09\n        /* \"contracts/mocks/MockAIOracle.sol\":3022:3037  modelIDs.length */\n      dup1\n      sload\n      swap1\n      pop\n        /* \"contracts/mocks/MockAIOracle.sol\":3022:3041  modelIDs.length - 1 */\n      tag_312\n      swap2\n      swap1\n      tag_209\n      jump\t// in\n    tag_312:\n        /* \"contracts/mocks/MockAIOracle.sol\":3013:3042  modelIDs[modelIDs.length - 1] */\n      dup2\n      sload\n      dup2\n      lt\n      tag_313\n      jumpi\n      tag_314\n      tag_205\n      jump\t// in\n    tag_314:\n    tag_313:\n      swap1\n      0x00\n      mstore\n      keccak256(0x00, 0x20)\n      add\n      sload\n        /* \"contracts/mocks/MockAIOracle.sol\":2999:3007  modelIDs */\n      0x09\n        /* \"contracts/mocks/MockAIOracle.sol\":3008:3009  i */\n      dup4\n        /* \"contracts/mocks/MockAIOracle.sol\":2999:3010  modelIDs[i] */\n      dup2\n      sload\n      dup2\n      lt\n      tag_316\n      jumpi\n      tag_317\n      tag_205\n      jump\t// in\n    tag_317:\n    tag_316:\n      swap1\n      0x00\n      mstore\n      keccak256(0x00, 0x20)\n      add\n        /* \"contracts/mocks/MockAIOracle.sol\":2999:3042  modelIDs[i] = modelIDs[modelIDs.length - 1] */\n      dup2\n      swap1\n      sstore\n      pop\n        /* \"contracts/mocks/MockAIOracle.sol\":3134:3142  modelIDs */\n      0x09\n        /* \"contracts/mocks/MockAIOracle.sol\":3134:3148  modelIDs.pop() */\n      dup1\n      sload\n      dup1\n      tag_319\n      jumpi\n      tag_320\n      tag_321\n      jump\t// in\n    tag_320:\n    tag_319:\n      0x01\n      swap1\n      sub\n      dup2\n      dup2\n      swap1\n      0x00\n      mstore\n      keccak256(0x00, 0x20)\n      add\n      0x00\n      swap1\n      sstore\n      swap1\n      sstore\n        /* \"contracts/mocks/MockAIOracle.sol\":3166:3171  break */\n      pop\n      jump(tag_306)\n        /* \"contracts/mocks/MockAIOracle.sol\":2892:3186  if (id == modelId) {... */\n    tag_311:\n        /* \"contracts/mocks/MockAIOracle.sol\":2840:3196  {... */\n      pop\n        /* \"contracts/mocks/MockAIOracle.sol\":2835:2838  i++ */\n      dup1\n      dup1\n      0x01\n      add\n      swap2\n      pop\n      pop\n        /* \"contracts/mocks/MockAIOracle.sol\":2797:3196  for (uint i = 0; i < modelIDs.length; i++) {... */\n      jump(tag_305)\n    tag_306:\n      pop\n        /* \"contracts/mocks/MockAIOracle.sol\":723:724  _ */\n      pop\n        /* \"contracts/mocks/MockAIOracle.sol\":2637:3202  function removeModel(uint256 modelId) external onlyOwner ifModelExists(modelId) {... */\n      pop\n      jump\t// out\n        /* \"contracts/mocks/MockAIOracle.sol\":3614:3792  function setModelFee(uint256 modelId, uint256 _fee) external onlyOwner ifModelExists(modelId) {... */\n    tag_108:\n        /* \"contracts/mocks/MockAIOracle.sol\":688:695  owner() */\n      tag_324\n        /* \"contracts/mocks/MockAIOracle.sol\":688:693  owner */\n      tag_130\n        /* \"contracts/mocks/MockAIOracle.sol\":688:695  owner() */\n      jump\t// in\n    tag_324:\n        /* \"contracts/mocks/MockAIOracle.sol\":674:695  msg.sender == owner() */\n      0xffffffffffffffffffffffffffffffffffffffff\n      and\n        /* \"contracts/mocks/MockAIOracle.sol\":674:684  msg.sender */\n      caller\n        /* \"contracts/mocks/MockAIOracle.sol\":674:695  msg.sender == owner() */\n      0xffffffffffffffffffffffffffffffffffffffff\n      and\n      eq\n        /* \"contracts/mocks/MockAIOracle.sol\":666:713  require(msg.sender == owner(), \"Not the owner\") */\n      tag_325\n      jumpi\n      mload(0x40)\n      0x08c379a000000000000000000000000000000000000000000000000000000000\n      dup2\n      mstore\n      0x04\n      add\n      tag_326\n      swap1\n      tag_172\n      jump\t// in\n    tag_326:\n      mload(0x40)\n      dup1\n      swap2\n      sub\n      swap1\n      revert\n    tag_325:\n        /* \"contracts/mocks/MockAIOracle.sol\":3699:3706  modelId */\n      dup2\n        /* \"contracts/mocks/MockAIOracle.sol\":2166:2177  modelExists */\n      0x07\n        /* \"contracts/mocks/MockAIOracle.sol\":2166:2186  modelExists[modelId] */\n      0x00\n        /* \"contracts/mocks/MockAIOracle.sol\":2178:2185  modelId */\n      dup3\n        /* \"contracts/mocks/MockAIOracle.sol\":2166:2186  modelExists[modelId] */\n      dup2\n      mstore\n      0x20\n      add\n      swap1\n      dup2\n      mstore\n      0x20\n      add\n      0x00\n      keccak256\n      0x00\n      swap1\n      sload\n      swap1\n      0x0100\n      exp\n      swap1\n      div\n      0xff\n      and\n        /* \"contracts/mocks/MockAIOracle.sol\":2158:2211  require(modelExists[modelId], \"model does not exist\") */\n      tag_328\n      jumpi\n      mload(0x40)\n      0x08c379a000000000000000000000000000000000000000000000000000000000\n      dup2\n      mstore\n      0x04\n      add\n      tag_329\n      swap1\n      tag_176\n      jump\t// in\n    tag_329:\n      mload(0x40)\n      dup1\n      swap2\n      sub\n      swap1\n      revert\n    tag_328:\n        /* \"contracts/mocks/MockAIOracle.sol\":3718:3741  ModelData storage model */\n      0x00\n        /* \"contracts/mocks/MockAIOracle.sol\":3744:3750  models */\n      0x06\n        /* \"contracts/mocks/MockAIOracle.sol\":3744:3759  models[modelId] */\n      0x00\n        /* \"contracts/mocks/MockAIOracle.sol\":3751:3758  modelId */\n      dup6\n        /* \"contracts/mocks/MockAIOracle.sol\":3744:3759  models[modelId] */\n      dup2\n      mstore\n      0x20\n      add\n      swap1\n      dup2\n      mstore\n      0x20\n      add\n      0x00\n      keccak256\n        /* \"contracts/mocks/MockAIOracle.sol\":3718:3759  ModelData storage model = models[modelId] */\n      swap1\n      pop\n        /* \"contracts/mocks/MockAIOracle.sol\":3781:3785  _fee */\n      dup3\n        /* \"contracts/mocks/MockAIOracle.sol\":3769:3774  model */\n      dup2\n        /* \"contracts/mocks/MockAIOracle.sol\":3769:3778  model.fee */\n      0x02\n      add\n        /* \"contracts/mocks/MockAIOracle.sol\":3769:3785  model.fee = _fee */\n      dup2\n      swap1\n      sstore\n      pop\n        /* \"contracts/mocks/MockAIOracle.sol\":3708:3792  {... */\n      pop\n        /* \"contracts/mocks/MockAIOracle.sol\":723:724  _ */\n      pop\n        /* \"contracts/mocks/MockAIOracle.sol\":3614:3792  function setModelFee(uint256 modelId, uint256 _fee) external onlyOwner ifModelExists(modelId) {... */\n      pop\n      pop\n      jump\t// out\n        /* \"contracts/mocks/MockAIOracle.sol\":4317:4495  function getModel(uint256 modelId) external view ifModelExists(modelId) returns (ModelData memory) {... */\n    tag_112:\n        /* \"contracts/mocks/MockAIOracle.sol\":4398:4414  ModelData memory */\n      tag_331\n      tag_332\n      jump\t// in\n    tag_331:\n        /* \"contracts/mocks/MockAIOracle.sol\":4380:4387  modelId */\n      dup2\n        /* \"contracts/mocks/MockAIOracle.sol\":2166:2177  modelExists */\n      0x07\n        /* \"contracts/mocks/MockAIOracle.sol\":2166:2186  modelExists[modelId] */\n      0x00\n        /* \"contracts/mocks/MockAIOracle.sol\":2178:2185  modelId */\n      dup3\n        /* \"contracts/mocks/MockAIOracle.sol\":2166:2186  modelExists[modelId] */\n      dup2\n      mstore\n      0x20\n      add\n      swap1\n      dup2\n      mstore\n      0x20\n      add\n      0x00\n      keccak256\n      0x00\n      swap1\n      sload\n      swap1\n      0x0100\n      exp\n      swap1\n      div\n      0xff\n      and\n        /* \"contracts/mocks/MockAIOracle.sol\":2158:2211  require(modelExists[modelId], \"model does not exist\") */\n      tag_334\n      jumpi\n      mload(0x40)\n      0x08c379a000000000000000000000000000000000000000000000000000000000\n      dup2\n      mstore\n      0x04\n      add\n      tag_335\n      swap1\n      tag_176\n      jump\t// in\n    tag_335:\n      mload(0x40)\n      dup1\n      swap2\n      sub\n      swap1\n      revert\n    tag_334:\n        /* \"contracts/mocks/MockAIOracle.sol\":4426:4448  ModelData memory model */\n      0x00\n        /* \"contracts/mocks/MockAIOracle.sol\":4451:4457  models */\n      0x06\n        /* \"contracts/mocks/MockAIOracle.sol\":4451:4466  models[modelId] */\n      0x00\n        /* \"contracts/mocks/MockAIOracle.sol\":4458:4465  modelId */\n      dup6\n        /* \"contracts/mocks/MockAIOracle.sol\":4451:4466  models[modelId] */\n      dup2\n      mstore\n      0x20\n      add\n      swap1\n      dup2\n      mstore\n      0x20\n      add\n      0x00\n      keccak256\n        /* \"contracts/mocks/MockAIOracle.sol\":4426:4466  ModelData memory model = models[modelId] */\n      mload(0x40)\n      dup1\n      0xc0\n      add\n      0x40\n      mstore\n      swap1\n      dup2\n      0x00\n      dup3\n      add\n      sload\n      dup2\n      mstore\n      0x20\n      add\n      0x01\n      dup3\n      add\n      sload\n      dup2\n      mstore\n      0x20\n      add\n      0x02\n      dup3\n      add\n      sload\n      dup2\n      mstore\n      0x20\n      add\n      0x03\n      dup3\n      add\n      0x00\n      swap1\n      sload\n      swap1\n      0x0100\n      exp\n      swap1\n      div\n      0xffffffffffffffffffffffffffffffffffffffff\n      and\n      0xffffffffffffffffffffffffffffffffffffffff\n      and\n      0xffffffffffffffffffffffffffffffffffffffff\n      and\n      dup2\n      mstore\n      0x20\n      add\n      0x04\n      dup3\n      add\n      sload\n      dup2\n      mstore\n      0x20\n      add\n      0x05\n      dup3\n      add\n      sload\n      dup2\n      mstore\n      pop\n      pop\n      swap1\n      pop\n        /* \"contracts/mocks/MockAIOracle.sol\":4483:4488  model */\n      dup1\n        /* \"contracts/mocks/MockAIOracle.sol\":4476:4488  return model */\n      swap3\n      pop\n      pop\n        /* \"contracts/mocks/MockAIOracle.sol\":4317:4495  function getModel(uint256 modelId) external view ifModelExists(modelId) returns (ModelData memory) {... */\n      pop\n      swap2\n      swap1\n      pop\n      jump\t// out\n        /* \"contracts/mocks/MockAIOracle.sol\":2273:2346  function resetGasPrice() external onlyOwner {... */\n    tag_117:\n        /* \"contracts/mocks/MockAIOracle.sol\":688:695  owner() */\n      tag_338\n        /* \"contracts/mocks/MockAIOracle.sol\":688:693  owner */\n      tag_130\n        /* \"contracts/mocks/MockAIOracle.sol\":688:695  owner() */\n      jump\t// in\n    tag_338:\n        /* \"contracts/mocks/MockAIOracle.sol\":674:695  msg.sender == owner() */\n      0xffffffffffffffffffffffffffffffffffffffff\n      and\n        /* \"contracts/mocks/MockAIOracle.sol\":674:684  msg.sender */\n      caller\n        /* \"contracts/mocks/MockAIOracle.sol\":674:695  msg.sender == owner() */\n      0xffffffffffffffffffffffffffffffffffffffff\n      and\n      eq\n        /* \"contracts/mocks/MockAIOracle.sol\":666:713  require(msg.sender == owner(), \"Not the owner\") */\n      tag_339\n      jumpi\n      mload(0x40)\n      0x08c379a000000000000000000000000000000000000000000000000000000000\n      dup2\n      mstore\n      0x04\n      add\n      tag_340\n      swap1\n      tag_172\n      jump\t// in\n    tag_340:\n      mload(0x40)\n      dup1\n      swap2\n      sub\n      swap1\n      revert\n    tag_339:\n        /* \"contracts/mocks/MockAIOracle.sol\":2338:2339  0 */\n      0x00\n        /* \"contracts/mocks/MockAIOracle.sol\":2327:2335  gasPrice */\n      0x08\n        /* \"contracts/mocks/MockAIOracle.sol\":2327:2339  gasPrice = 0 */\n      dup2\n      swap1\n      sstore\n      pop\n        /* \"contracts/mocks/MockAIOracle.sol\":2273:2346  function resetGasPrice() external onlyOwner {... */\n      jump\t// out\n        /* \"contracts/mocks/MockAIOracle.sol\":1274:1331  mapping(uint256 => AICallbackRequestData) public requests */\n    tag_121:\n      mstore(0x20, 0x04)\n      dup1\n      0x00\n      mstore\n      keccak256(0x00, 0x40)\n      0x00\n      swap2\n      pop\n      swap1\n      pop\n      dup1\n      0x00\n      add\n      0x00\n      swap1\n      sload\n      swap1\n      0x0100\n      exp\n      swap1\n      div\n      0xffffffffffffffffffffffffffffffffffffffff\n      and\n      swap1\n      dup1\n      0x01\n      add\n      sload\n      swap1\n      dup1\n      0x02\n      add\n      sload\n      swap1\n      dup1\n      0x03\n      add\n      dup1\n      sload\n      tag_342\n      swap1\n      tag_343\n      jump\t// in\n    tag_342:\n      dup1\n      0x1f\n      add\n      0x20\n      dup1\n      swap2\n      div\n      mul\n      0x20\n      add\n      mload(0x40)\n      swap1\n      dup2\n      add\n      0x40\n      mstore\n      dup1\n      swap3\n      swap2\n      swap1\n      dup2\n      dup2\n      mstore\n      0x20\n      add\n      dup3\n      dup1\n      sload\n      tag_344\n      swap1\n      tag_343\n      jump\t// in\n    tag_344:\n      dup1\n      iszero\n      tag_345\n      jumpi\n      dup1\n      0x1f\n      lt\n      tag_346\n      jumpi\n      0x0100\n      dup1\n      dup4\n      sload\n      div\n      mul\n      dup4\n      mstore\n      swap2\n      0x20\n      add\n      swap2\n      jump(tag_345)\n    tag_346:\n      dup3\n      add\n      swap2\n      swap1\n      0x00\n      mstore\n      keccak256(0x00, 0x20)\n      swap1\n    tag_347:\n      dup2\n      sload\n      dup2\n      mstore\n      swap1\n      0x01\n      add\n      swap1\n      0x20\n      add\n      dup1\n      dup4\n      gt\n      tag_347\n      jumpi\n      dup3\n      swap1\n      sub\n      0x1f\n      and\n      dup3\n      add\n      swap2\n    tag_345:\n      pop\n      pop\n      pop\n      pop\n      pop\n      swap1\n      dup1\n      0x04\n      add\n      0x00\n      swap1\n      sload\n      swap1\n      0x0100\n      exp\n      swap1\n      div\n      0xffffffffffffffffffffffffffffffffffffffff\n      and\n      swap1\n      dup1\n      0x04\n      add\n      0x14\n      swap1\n      sload\n      swap1\n      0x0100\n      exp\n      swap1\n      div\n      0xffffffffffffffff\n      and\n      swap1\n      dup1\n      0x05\n      add\n      dup1\n      sload\n      tag_348\n      swap1\n      tag_343\n      jump\t// in\n    tag_348:\n      dup1\n      0x1f\n      add\n      0x20\n      dup1\n      swap2\n      div\n      mul\n      0x20\n      add\n      mload(0x40)\n      swap1\n      dup2\n      add\n      0x40\n      mstore\n      dup1\n      swap3\n      swap2\n      swap1\n      dup2\n      dup2\n      mstore\n      0x20\n      add\n      dup3\n      dup1\n      sload\n      tag_349\n      swap1\n      tag_343\n      jump\t// in\n    tag_349:\n      dup1\n      iszero\n      tag_350\n      jumpi\n      dup1\n      0x1f\n      lt\n      tag_351\n      jumpi\n      0x0100\n      dup1\n      dup4\n      sload\n      div\n      mul\n      dup4\n      mstore\n      swap2\n      0x20\n      add\n      swap2\n      jump(tag_350)\n    tag_351:\n      dup3\n      add\n      swap2\n      swap1\n      0x00\n      mstore\n      keccak256(0x00, 0x20)\n      swap1\n    tag_352:\n      dup2\n      sload\n      dup2\n      mstore\n      swap1\n      0x01\n      add\n      swap1\n      0x20\n      add\n      dup1\n      dup4\n      gt\n      tag_352\n      jumpi\n      dup3\n      swap1\n      sub\n      0x1f\n      and\n      dup3\n      add\n      swap2\n    tag_350:\n      pop\n      pop\n      pop\n      pop\n      pop\n      swap1\n      pop\n      dup8\n      jump\t// out\n        /* \"contracts/mocks/MockAIOracle.sol\":8230:9242  function updateResult(uint256 requestId) external {... */\n    tag_127:\n        /* \"contracts/mocks/MockAIOracle.sol\":8327:8364  AICallbackRequestData storage request */\n      0x00\n        /* \"contracts/mocks/MockAIOracle.sol\":8367:8375  requests */\n      0x04\n        /* \"contracts/mocks/MockAIOracle.sol\":8367:8386  requests[requestId] */\n      0x00\n        /* \"contracts/mocks/MockAIOracle.sol\":8376:8385  requestId */\n      dup4\n        /* \"contracts/mocks/MockAIOracle.sol\":8367:8386  requests[requestId] */\n      dup2\n      mstore\n      0x20\n      add\n      swap1\n      dup2\n      mstore\n      0x20\n      add\n      0x00\n      keccak256\n        /* \"contracts/mocks/MockAIOracle.sol\":8327:8386  AICallbackRequestData storage request = requests[requestId] */\n      swap1\n      pop\n        /* \"contracts/mocks/MockAIOracle.sol\":8437:8456  bytes memory output */\n      0x00\n        /* \"contracts/mocks/MockAIOracle.sol\":8459:8465  opml() */\n      tag_354\n        /* \"contracts/mocks/MockAIOracle.sol\":8459:8463  opml */\n      tag_135\n        /* \"contracts/mocks/MockAIOracle.sol\":8459:8465  opml() */\n      jump\t// in\n    tag_354:\n        /* \"contracts/mocks/MockAIOracle.sol\":8459:8475  opml().getOutput */\n      0xffffffffffffffffffffffffffffffffffffffff\n      and\n      0x17861f87\n        /* \"contracts/mocks/MockAIOracle.sol\":8476:8485  requestId */\n      dup5\n        /* \"contracts/mocks/MockAIOracle.sol\":8459:8486  opml().getOutput(requestId) */\n      mload(0x40)\n      dup3\n      0xffffffff\n      and\n      0xe0\n      shl\n      dup2\n      mstore\n      0x04\n      add\n      tag_355\n      swap2\n      swap1\n      tag_48\n      jump\t// in\n    tag_355:\n      0x00\n      mload(0x40)\n      dup1\n      dup4\n      sub\n      dup2\n      dup7\n      gas\n      staticcall\n      iszero\n      dup1\n      iszero\n      tag_357\n      jumpi\n      returndatasize\n      0x00\n      dup1\n      returndatacopy\n      revert(0x00, returndatasize)\n    tag_357:\n      pop\n      pop\n      pop\n      pop\n      mload(0x40)\n      returndatasize\n      0x00\n      dup3\n      returndatacopy\n      returndatasize\n      not(0x1f)\n      0x1f\n      dup3\n      add\n      and\n      dup3\n      add\n      dup1\n      0x40\n      mstore\n      pop\n      dup2\n      add\n      swap1\n      tag_358\n      swap2\n      swap1\n      tag_359\n      jump\t// in\n    tag_358:\n        /* \"contracts/mocks/MockAIOracle.sol\":8437:8486  bytes memory output = opml().getOutput(requestId) */\n      swap1\n      pop\n        /* \"contracts/mocks/MockAIOracle.sol\":8520:8521  0 */\n      0x00\n        /* \"contracts/mocks/MockAIOracle.sol\":8504:8510  output */\n      dup2\n        /* \"contracts/mocks/MockAIOracle.sol\":8504:8517  output.length */\n      mload\n        /* \"contracts/mocks/MockAIOracle.sol\":8504:8521  output.length > 0 */\n      gt\n        /* \"contracts/mocks/MockAIOracle.sol\":8496:8545  require(output.length > 0, \"output not uploaded\") */\n      tag_360\n      jumpi\n      mload(0x40)\n      0x08c379a000000000000000000000000000000000000000000000000000000000\n      dup2\n      mstore\n      0x04\n      add\n      tag_361\n      swap1\n      tag_362\n      jump\t// in\n    tag_361:\n      mload(0x40)\n      dup1\n      swap2\n      sub\n      swap1\n      revert\n    tag_360:\n        /* \"contracts/mocks/MockAIOracle.sol\":8622:8623  0 */\n      0x00\n        /* \"contracts/mocks/MockAIOracle.sol\":8586:8624  request.callbackContract != address(0) */\n      0xffffffffffffffffffffffffffffffffffffffff\n      and\n        /* \"contracts/mocks/MockAIOracle.sol\":8586:8593  request */\n      dup3\n        /* \"contracts/mocks/MockAIOracle.sol\":8586:8610  request.callbackContract */\n      0x04\n      add\n      0x00\n      swap1\n      sload\n      swap1\n      0x0100\n      exp\n      swap1\n      div\n      0xffffffffffffffffffffffffffffffffffffffff\n      and\n        /* \"contracts/mocks/MockAIOracle.sol\":8586:8624  request.callbackContract != address(0) */\n      0xffffffffffffffffffffffffffffffffffffffff\n      and\n      eq\n        /* \"contracts/mocks/MockAIOracle.sol\":8583:9083  if(request.callbackContract != address(0)) {... */\n      tag_363\n      jumpi\n        /* \"contracts/mocks/MockAIOracle.sol\":8640:8660  bytes memory payload */\n      0x00\n        /* \"contracts/mocks/MockAIOracle.sol\":8686:8712  callbackFunctionSelector() */\n      tag_364\n        /* \"contracts/mocks/MockAIOracle.sol\":8686:8710  callbackFunctionSelector */\n      tag_71\n        /* \"contracts/mocks/MockAIOracle.sol\":8686:8712  callbackFunctionSelector() */\n      jump\t// in\n    tag_364:\n        /* \"contracts/mocks/MockAIOracle.sol\":8714:8721  request */\n      dup4\n        /* \"contracts/mocks/MockAIOracle.sol\":8714:8731  request.requestId */\n      0x01\n      add\n      sload\n        /* \"contracts/mocks/MockAIOracle.sol\":8733:8739  output */\n      dup4\n        /* \"contracts/mocks/MockAIOracle.sol\":8741:8748  request */\n      dup6\n        /* \"contracts/mocks/MockAIOracle.sol\":8741:8761  request.callbackData */\n      0x05\n      add\n        /* \"contracts/mocks/MockAIOracle.sol\":8663:8762  abi.encodeWithSelector(callbackFunctionSelector(), request.requestId, output, request.callbackData) */\n      add(0x24, mload(0x40))\n      tag_365\n      swap4\n      swap3\n      swap2\n      swap1\n      tag_366\n      jump\t// in\n    tag_365:\n      mload(0x40)\n      0x20\n      dup2\n      dup4\n      sub\n      sub\n      dup2\n      mstore\n      swap1\n      0x40\n      mstore\n      swap1\n      not(0xffffffffffffffffffffffffffffffffffffffffffffffffffffffff)\n      and\n      0x20\n      dup3\n      add\n      dup1\n      mload\n      0xffffffffffffffffffffffffffffffffffffffffffffffffffffffff\n      dup4\n      dup2\n      dup4\n      and\n      or\n      dup4\n      mstore\n      pop\n      pop\n      pop\n      pop\n        /* \"contracts/mocks/MockAIOracle.sol\":8640:8762  bytes memory payload = abi.encodeWithSelector(callbackFunctionSelector(), request.requestId, output, request.callbackData) */\n      swap1\n      pop\n        /* \"contracts/mocks/MockAIOracle.sol\":8777:8789  bool success */\n      0x00\n        /* \"contracts/mocks/MockAIOracle.sol\":8791:8808  bytes memory data */\n      dup1\n        /* \"contracts/mocks/MockAIOracle.sol\":8812:8819  request */\n      dup5\n        /* \"contracts/mocks/MockAIOracle.sol\":8812:8836  request.callbackContract */\n      0x04\n      add\n      0x00\n      swap1\n      sload\n      swap1\n      0x0100\n      exp\n      swap1\n      div\n      0xffffffffffffffffffffffffffffffffffffffff\n      and\n        /* \"contracts/mocks/MockAIOracle.sol\":8812:8841  request.callbackContract.call */\n      0xffffffffffffffffffffffffffffffffffffffff\n      and\n        /* \"contracts/mocks/MockAIOracle.sol\":8847:8854  request */\n      dup6\n        /* \"contracts/mocks/MockAIOracle.sol\":8847:8863  request.gasLimit */\n      0x04\n      add\n      0x14\n      swap1\n      sload\n      swap1\n      0x0100\n      exp\n      swap1\n      div\n      0xffffffffffffffff\n      and\n        /* \"contracts/mocks/MockAIOracle.sol\":8812:8873  request.callbackContract.call{gas: request.gasLimit}(payload) */\n      0xffffffffffffffff\n      and\n        /* \"contracts/mocks/MockAIOracle.sol\":8865:8872  payload */\n      dup5\n        /* \"contracts/mocks/MockAIOracle.sol\":8812:8873  request.callbackContract.call{gas: request.gasLimit}(payload) */\n      mload(0x40)\n      tag_367\n      swap2\n      swap1\n      tag_251\n      jump\t// in\n    tag_367:\n      0x00\n      mload(0x40)\n      dup1\n      dup4\n      sub\n      dup2\n      0x00\n      dup8\n      dup8\n      call\n      swap3\n      pop\n      pop\n      pop\n      returndatasize\n      dup1\n      0x00\n      dup2\n      eq\n      tag_370\n      jumpi\n      mload(0x40)\n      swap2\n      pop\n      and(add(returndatasize, 0x3f), not(0x1f))\n      dup3\n      add\n      0x40\n      mstore\n      returndatasize\n      dup3\n      mstore\n      returndatasize\n      0x00\n      0x20\n      dup5\n      add\n      returndatacopy\n      jump(tag_369)\n    tag_370:\n      0x60\n      swap2\n      pop\n    tag_369:\n      pop\n        /* \"contracts/mocks/MockAIOracle.sol\":8776:8873  (bool success, bytes memory data) = request.callbackContract.call{gas: request.gasLimit}(payload) */\n      swap2\n      pop\n      swap2\n      pop\n        /* \"contracts/mocks/MockAIOracle.sol\":8895:8902  success */\n      dup2\n        /* \"contracts/mocks/MockAIOracle.sol\":8887:8930  require(success, \"failed to call selector\") */\n      tag_371\n      jumpi\n      mload(0x40)\n      0x08c379a000000000000000000000000000000000000000000000000000000000\n      dup2\n      mstore\n      0x04\n      add\n      tag_372\n      swap1\n      tag_257\n      jump\t// in\n    tag_372:\n      mload(0x40)\n      dup1\n      swap2\n      sub\n      swap1\n      revert\n    tag_371:\n        /* \"contracts/mocks/MockAIOracle.sol\":8949:8956  success */\n      dup2\n        /* \"contracts/mocks/MockAIOracle.sol\":8944:9073  if (!success) {... */\n      tag_373\n      jumpi\n        /* \"contracts/mocks/MockAIOracle.sol\":9035:9039  data */\n      dup1\n        /* \"contracts/mocks/MockAIOracle.sol\":9029:9040  mload(data) */\n      mload\n        /* \"contracts/mocks/MockAIOracle.sol\":9024:9026  32 */\n      0x20\n        /* \"contracts/mocks/MockAIOracle.sol\":9018:9022  data */\n      dup3\n        /* \"contracts/mocks/MockAIOracle.sol\":9014:9027  add(data, 32) */\n      add\n        /* \"contracts/mocks/MockAIOracle.sol\":9007:9041  revert(add(data, 32), mload(data)) */\n      revert\n        /* \"contracts/mocks/MockAIOracle.sol\":8944:9073  if (!success) {... */\n    tag_373:\n        /* \"contracts/mocks/MockAIOracle.sol\":8626:9083  {... */\n      pop\n      pop\n      pop\n        /* \"contracts/mocks/MockAIOracle.sol\":8583:9083  if(request.callbackContract != address(0)) {... */\n    tag_363:\n        /* \"contracts/mocks/MockAIOracle.sol\":9150:9156  output */\n      dup1\n        /* \"contracts/mocks/MockAIOracle.sol\":9121:9136  outputOfRequest */\n      0x05\n        /* \"contracts/mocks/MockAIOracle.sol\":9121:9147  outputOfRequest[requestId] */\n      0x00\n        /* \"contracts/mocks/MockAIOracle.sol\":9137:9146  requestId */\n      dup6\n        /* \"contracts/mocks/MockAIOracle.sol\":9121:9147  outputOfRequest[requestId] */\n      dup2\n      mstore\n      0x20\n      add\n      swap1\n      dup2\n      mstore\n      0x20\n      add\n      0x00\n      keccak256\n        /* \"contracts/mocks/MockAIOracle.sol\":9121:9156  outputOfRequest[requestId] = output */\n      swap1\n      dup2\n      tag_374\n      swap2\n      swap1\n      tag_283\n      jump\t// in\n    tag_374:\n      pop\n        /* \"contracts/mocks/MockAIOracle.sol\":9205:9214  requestId */\n      dup3\n        /* \"contracts/mocks/MockAIOracle.sol\":9188:9195  request */\n      dup3\n        /* \"contracts/mocks/MockAIOracle.sol\":9188:9203  request.account */\n      0x00\n      add\n      0x00\n      swap1\n      sload\n      swap1\n      0x0100\n      exp\n      swap1\n      div\n      0xffffffffffffffffffffffffffffffffffffffff\n      and\n        /* \"contracts/mocks/MockAIOracle.sol\":9171:9235  AICallbackResult(request.account, requestId, msg.sender, output) */\n      0xffffffffffffffffffffffffffffffffffffffff\n      and\n      0xb7b413554c4e94c80cfbb175a0e4727f2f425d29b980195c49dac293c2914fc0\n        /* \"contracts/mocks/MockAIOracle.sol\":9216:9226  msg.sender */\n      caller\n        /* \"contracts/mocks/MockAIOracle.sol\":9228:9234  output */\n      dup5\n        /* \"contracts/mocks/MockAIOracle.sol\":9171:9235  AICallbackResult(request.account, requestId, msg.sender, output) */\n      mload(0x40)\n      tag_375\n      swap3\n      swap2\n      swap1\n      tag_376\n      jump\t// in\n    tag_375:\n      mload(0x40)\n      dup1\n      swap2\n      sub\n      swap1\n      log3\n        /* \"contracts/mocks/MockAIOracle.sol\":8280:9242  {... */\n      pop\n      pop\n        /* \"contracts/mocks/MockAIOracle.sol\":8230:9242  function updateResult(uint256 requestId) external {... */\n      pop\n      jump\t// out\n        /* \"contracts/mocks/MockAIOracle.sol\":469:545  function owner() public view returns (address) {... */\n    tag_130:\n        /* \"contracts/mocks/MockAIOracle.sol\":507:514  address */\n      0x00\n        /* \"contracts/mocks/MockAIOracle.sol\":533:538  Owner */\n      0x01\n      0x00\n      swap1\n      sload\n      swap1\n      0x0100\n      exp\n      swap1\n      div\n      0xffffffffffffffffffffffffffffffffffffffff\n      and\n        /* \"contracts/mocks/MockAIOracle.sol\":526:538  return Owner */\n      swap1\n      pop\n        /* \"contracts/mocks/MockAIOracle.sol\":469:545  function owner() public view returns (address) {... */\n      swap1\n      jump\t// out\n        /* \"contracts/mocks/MockAIOracle.sol\":384:463  function opml() public view returns (IOpml) {... */\n    tag_135:\n        /* \"contracts/mocks/MockAIOracle.sol\":421:426  IOpml */\n      0x00\n        /* \"contracts/mocks/MockAIOracle.sol\":451:455  Opml */\n      dup1\n      0x00\n      swap1\n      sload\n      swap1\n      0x0100\n      exp\n      swap1\n      div\n      0xffffffffffffffffffffffffffffffffffffffff\n      and\n        /* \"contracts/mocks/MockAIOracle.sol\":438:456  return IOpml(Opml) */\n      swap1\n      pop\n        /* \"contracts/mocks/MockAIOracle.sol\":384:463  function opml() public view returns (IOpml) {... */\n      swap1\n      jump\t// out\n        /* \"contracts/mocks/MockAIOracle.sol\":2384:2460  function resetModelIDs() external onlyOwner {... */\n    tag_140:\n        /* \"contracts/mocks/MockAIOracle.sol\":688:695  owner() */\n      tag_380\n        /* \"contracts/mocks/MockAIOracle.sol\":688:693  owner */\n      tag_130\n        /* \"contracts/mocks/MockAIOracle.sol\":688:695  owner() */\n      jump\t// in\n    tag_380:\n        /* \"contracts/mocks/MockAIOracle.sol\":674:695  msg.sender == owner() */\n      0xffffffffffffffffffffffffffffffffffffffff\n      and\n        /* \"contracts/mocks/MockAIOracle.sol\":674:684  msg.sender */\n      caller\n        /* \"contracts/mocks/MockAIOracle.sol\":674:695  msg.sender == owner() */\n      0xffffffffffffffffffffffffffffffffffffffff\n      and\n      eq\n        /* \"contracts/mocks/MockAIOracle.sol\":666:713  require(msg.sender == owner(), \"Not the owner\") */\n      tag_381\n      jumpi\n      mload(0x40)\n      0x08c379a000000000000000000000000000000000000000000000000000000000\n      dup2\n      mstore\n      0x04\n      add\n      tag_382\n      swap1\n      tag_172\n      jump\t// in\n    tag_382:\n      mload(0x40)\n      dup1\n      swap2\n      sub\n      swap1\n      revert\n    tag_381:\n        /* \"contracts/mocks/MockAIOracle.sol\":2445:2453  modelIDs */\n      0x09\n      0x00\n        /* \"contracts/mocks/MockAIOracle.sol\":2438:2453  delete modelIDs */\n      tag_384\n      swap2\n      swap1\n      tag_385\n      jump\t// in\n    tag_384:\n        /* \"contracts/mocks/MockAIOracle.sol\":2384:2460  function resetModelIDs() external onlyOwner {... */\n      jump\t// out\n        /* \"contracts/mocks/MockAIOracle.sol\":1337:1385  mapping(uint256 => bytes) public outputOfRequest */\n    tag_144:\n      mstore(0x20, 0x05)\n      dup1\n      0x00\n      mstore\n      keccak256(0x00, 0x40)\n      0x00\n      swap2\n      pop\n      swap1\n      pop\n      dup1\n      sload\n      tag_386\n      swap1\n      tag_343\n      jump\t// in\n    tag_386:\n      dup1\n      0x1f\n      add\n      0x20\n      dup1\n      swap2\n      div\n      mul\n      0x20\n      add\n      mload(0x40)\n      swap1\n      dup2\n      add\n      0x40\n      mstore\n      dup1\n      swap3\n      swap2\n      swap1\n      dup2\n      dup2\n      mstore\n      0x20\n      add\n      dup3\n      dup1\n      sload\n      tag_387\n      swap1\n      tag_343\n      jump\t// in\n    tag_387:\n      dup1\n      iszero\n      tag_388\n      jumpi\n      dup1\n      0x1f\n      lt\n      tag_389\n      jumpi\n      0x0100\n      dup1\n      dup4\n      sload\n      div\n      mul\n      dup4\n      mstore\n      swap2\n      0x20\n      add\n      swap2\n      jump(tag_388)\n    tag_389:\n      dup3\n      add\n      swap2\n      swap1\n      0x00\n      mstore\n      keccak256(0x00, 0x20)\n      swap1\n    tag_390:\n      dup2\n      sload\n      dup2\n      mstore\n      swap1\n      0x01\n      add\n      swap1\n      0x20\n      add\n      dup1\n      dup4\n      gt\n      tag_390\n      jumpi\n      dup3\n      swap1\n      sub\n      0x1f\n      and\n      dup3\n      add\n      swap2\n    tag_388:\n      pop\n      pop\n      pop\n      pop\n      pop\n      dup2\n      jump\t// out\n        /* \"contracts/mocks/MockAIOracle.sol\":4722:5389  function uploadModel(uint256 modelId, bytes32 modelHash, bytes32 programHash, uint256 fee, address receiver, uint256 receiverPercentage) external onlyOwner {... */\n    tag_150:\n        /* \"contracts/mocks/MockAIOracle.sol\":688:695  owner() */\n      tag_392\n        /* \"contracts/mocks/MockAIOracle.sol\":688:693  owner */\n      tag_130\n        /* \"contracts/mocks/MockAIOracle.sol\":688:695  owner() */\n      jump\t// in\n    tag_392:\n        /* \"contracts/mocks/MockAIOracle.sol\":674:695  msg.sender == owner() */\n      0xffffffffffffffffffffffffffffffffffffffff\n      and\n        /* \"contracts/mocks/MockAIOracle.sol\":674:684  msg.sender */\n      caller\n        /* \"contracts/mocks/MockAIOracle.sol\":674:695  msg.sender == owner() */\n      0xffffffffffffffffffffffffffffffffffffffff\n      and\n      eq\n        /* \"contracts/mocks/MockAIOracle.sol\":666:713  require(msg.sender == owner(), \"Not the owner\") */\n      tag_393\n      jumpi\n      mload(0x40)\n      0x08c379a000000000000000000000000000000000000000000000000000000000\n      dup2\n      mstore\n      0x04\n      add\n      tag_394\n      swap1\n      tag_172\n      jump\t// in\n    tag_394:\n      mload(0x40)\n      dup1\n      swap2\n      sub\n      swap1\n      revert\n    tag_393:\n        /* \"contracts/mocks/MockAIOracle.sol\":4897:4908  modelExists */\n      0x07\n        /* \"contracts/mocks/MockAIOracle.sol\":4897:4917  modelExists[modelId] */\n      0x00\n        /* \"contracts/mocks/MockAIOracle.sol\":4909:4916  modelId */\n      dup8\n        /* \"contracts/mocks/MockAIOracle.sol\":4897:4917  modelExists[modelId] */\n      dup2\n      mstore\n      0x20\n      add\n      swap1\n      dup2\n      mstore\n      0x20\n      add\n      0x00\n      keccak256\n      0x00\n      swap1\n      sload\n      swap1\n      0x0100\n      exp\n      swap1\n      div\n      0xff\n      and\n        /* \"contracts/mocks/MockAIOracle.sol\":4896:4917  !modelExists[modelId] */\n      iszero\n        /* \"contracts/mocks/MockAIOracle.sol\":4888:4942  require(!modelExists[modelId], \"model already exists\") */\n      tag_396\n      jumpi\n      mload(0x40)\n      0x08c379a000000000000000000000000000000000000000000000000000000000\n      dup2\n      mstore\n      0x04\n      add\n      tag_397\n      swap1\n      tag_398\n      jump\t// in\n    tag_397:\n      mload(0x40)\n      dup1\n      swap2\n      sub\n      swap1\n      revert\n    tag_396:\n        /* \"contracts/mocks/MockAIOracle.sol\":4982:4985  100 */\n      0x64\n        /* \"contracts/mocks/MockAIOracle.sol\":4960:4978  receiverPercentage */\n      dup2\n        /* \"contracts/mocks/MockAIOracle.sol\":4960:4985  receiverPercentage <= 100 */\n      gt\n      iszero\n        /* \"contracts/mocks/MockAIOracle.sol\":4952:5017  require(receiverPercentage <= 100, \"percentage should be <= 100\") */\n      tag_399\n      jumpi\n      mload(0x40)\n      0x08c379a000000000000000000000000000000000000000000000000000000000\n      dup2\n      mstore\n      0x04\n      add\n      tag_400\n      swap1\n      tag_233\n      jump\t// in\n    tag_400:\n      mload(0x40)\n      dup1\n      swap2\n      sub\n      swap1\n      revert\n    tag_399:\n        /* \"contracts/mocks/MockAIOracle.sol\":5050:5054  true */\n      0x01\n        /* \"contracts/mocks/MockAIOracle.sol\":5027:5038  modelExists */\n      0x07\n        /* \"contracts/mocks/MockAIOracle.sol\":5027:5047  modelExists[modelId] */\n      0x00\n        /* \"contracts/mocks/MockAIOracle.sol\":5039:5046  modelId */\n      dup9\n        /* \"contracts/mocks/MockAIOracle.sol\":5027:5047  modelExists[modelId] */\n      dup2\n      mstore\n      0x20\n      add\n      swap1\n      dup2\n      mstore\n      0x20\n      add\n      0x00\n      keccak256\n      0x00\n        /* \"contracts/mocks/MockAIOracle.sol\":5027:5054  modelExists[modelId] = true */\n      0x0100\n      exp\n      dup2\n      sload\n      dup2\n      0xff\n      mul\n      not\n      and\n      swap1\n      dup4\n      iszero\n      iszero\n      mul\n      or\n      swap1\n      sstore\n      pop\n        /* \"contracts/mocks/MockAIOracle.sol\":5064:5072  modelIDs */\n      0x09\n        /* \"contracts/mocks/MockAIOracle.sol\":5078:5085  modelId */\n      dup7\n        /* \"contracts/mocks/MockAIOracle.sol\":5064:5086  modelIDs.push(modelId) */\n      swap1\n      dup1\n      0x01\n      dup2\n      sload\n      add\n      dup1\n      dup3\n      sstore\n      dup1\n      swap2\n      pop\n      pop\n      0x01\n      swap1\n      sub\n      swap1\n      0x00\n      mstore\n      keccak256(0x00, 0x20)\n      add\n      0x00\n      swap1\n      swap2\n      swap1\n      swap2\n      swap1\n      swap2\n      pop\n      sstore\n        /* \"contracts/mocks/MockAIOracle.sol\":5096:5119  ModelData storage model */\n      0x00\n        /* \"contracts/mocks/MockAIOracle.sol\":5122:5128  models */\n      0x06\n        /* \"contracts/mocks/MockAIOracle.sol\":5122:5137  models[modelId] */\n      0x00\n        /* \"contracts/mocks/MockAIOracle.sol\":5129:5136  modelId */\n      dup9\n        /* \"contracts/mocks/MockAIOracle.sol\":5122:5137  models[modelId] */\n      dup2\n      mstore\n      0x20\n      add\n      swap1\n      dup2\n      mstore\n      0x20\n      add\n      0x00\n      keccak256\n        /* \"contracts/mocks/MockAIOracle.sol\":5096:5137  ModelData storage model = models[modelId] */\n      swap1\n      pop\n        /* \"contracts/mocks/MockAIOracle.sol\":5165:5174  modelHash */\n      dup6\n        /* \"contracts/mocks/MockAIOracle.sol\":5147:5152  model */\n      dup2\n        /* \"contracts/mocks/MockAIOracle.sol\":5147:5162  model.modelHash */\n      0x00\n      add\n        /* \"contracts/mocks/MockAIOracle.sol\":5147:5174  model.modelHash = modelHash */\n      dup2\n      swap1\n      sstore\n      pop\n        /* \"contracts/mocks/MockAIOracle.sol\":5204:5215  programHash */\n      dup5\n        /* \"contracts/mocks/MockAIOracle.sol\":5184:5189  model */\n      dup2\n        /* \"contracts/mocks/MockAIOracle.sol\":5184:5201  model.programHash */\n      0x01\n      add\n        /* \"contracts/mocks/MockAIOracle.sol\":5184:5215  model.programHash = programHash */\n      dup2\n      swap1\n      sstore\n      pop\n        /* \"contracts/mocks/MockAIOracle.sol\":5237:5240  fee */\n      dup4\n        /* \"contracts/mocks/MockAIOracle.sol\":5225:5230  model */\n      dup2\n        /* \"contracts/mocks/MockAIOracle.sol\":5225:5234  model.fee */\n      0x02\n      add\n        /* \"contracts/mocks/MockAIOracle.sol\":5225:5240  model.fee = fee */\n      dup2\n      swap1\n      sstore\n      pop\n        /* \"contracts/mocks/MockAIOracle.sol\":5267:5275  receiver */\n      dup3\n        /* \"contracts/mocks/MockAIOracle.sol\":5250:5255  model */\n      dup2\n        /* \"contracts/mocks/MockAIOracle.sol\":5250:5264  model.receiver */\n      0x03\n      add\n      0x00\n        /* \"contracts/mocks/MockAIOracle.sol\":5250:5275  model.receiver = receiver */\n      0x0100\n      exp\n      dup2\n      sload\n      dup2\n      0xffffffffffffffffffffffffffffffffffffffff\n      mul\n      not\n      and\n      swap1\n      dup4\n      0xffffffffffffffffffffffffffffffffffffffff\n      and\n      mul\n      or\n      swap1\n      sstore\n      pop\n        /* \"contracts/mocks/MockAIOracle.sol\":5312:5330  receiverPercentage */\n      dup2\n        /* \"contracts/mocks/MockAIOracle.sol\":5285:5290  model */\n      dup2\n        /* \"contracts/mocks/MockAIOracle.sol\":5285:5309  model.receiverPercentage */\n      0x04\n      add\n        /* \"contracts/mocks/MockAIOracle.sol\":5285:5330  model.receiverPercentage = receiverPercentage */\n      dup2\n      swap1\n      sstore\n      pop\n        /* \"contracts/mocks/MockAIOracle.sol\":5340:5346  opml() */\n      tag_402\n        /* \"contracts/mocks/MockAIOracle.sol\":5340:5344  opml */\n      tag_135\n        /* \"contracts/mocks/MockAIOracle.sol\":5340:5346  opml() */\n      jump\t// in\n    tag_402:\n        /* \"contracts/mocks/MockAIOracle.sol\":5340:5358  opml().uploadModel */\n      0xffffffffffffffffffffffffffffffffffffffff\n      and\n      0x5c3d1519\n        /* \"contracts/mocks/MockAIOracle.sol\":5359:5368  modelHash */\n      dup8\n        /* \"contracts/mocks/MockAIOracle.sol\":5370:5381  programHash */\n      dup8\n        /* \"contracts/mocks/MockAIOracle.sol\":5340:5382  opml().uploadModel(modelHash, programHash) */\n      mload(0x40)\n      dup4\n      0xffffffff\n      and\n      0xe0\n      shl\n      dup2\n      mstore\n      0x04\n      add\n      tag_403\n      swap3\n      swap2\n      swap1\n      tag_404\n      jump\t// in\n    tag_403:\n      0x00\n      mload(0x40)\n      dup1\n      dup4\n      sub\n      dup2\n      0x00\n      dup8\n      dup1\n      extcodesize\n      iszero\n      dup1\n      iszero\n      tag_405\n      jumpi\n      0x00\n      dup1\n      revert\n    tag_405:\n      pop\n      gas\n      call\n      iszero\n      dup1\n      iszero\n      tag_407\n      jumpi\n      returndatasize\n      0x00\n      dup1\n      returndatacopy\n      revert(0x00, returndatasize)\n    tag_407:\n      pop\n      pop\n      pop\n      pop\n        /* \"contracts/mocks/MockAIOracle.sol\":4878:5389  {... */\n      pop\n        /* \"contracts/mocks/MockAIOracle.sol\":4722:5389  function uploadModel(uint256 modelId, bytes32 modelHash, bytes32 programHash, uint256 fee, address receiver, uint256 receiverPercentage) external onlyOwner {... */\n      pop\n      pop\n      pop\n      pop\n      pop\n      pop\n      jump\t// out\n        /* \"contracts/mocks/MockAIOracle.sol\":2466:2563  function numberOfModels() external view returns (uint256) {... */\n    tag_153:\n        /* \"contracts/mocks/MockAIOracle.sol\":2515:2522  uint256 */\n      0x00\n        /* \"contracts/mocks/MockAIOracle.sol\":2541:2549  modelIDs */\n      0x09\n        /* \"contracts/mocks/MockAIOracle.sol\":2541:2556  modelIDs.length */\n      dup1\n      sload\n      swap1\n      pop\n        /* \"contracts/mocks/MockAIOracle.sol\":2534:2556  return modelIDs.length */\n      swap1\n      pop\n        /* \"contracts/mocks/MockAIOracle.sol\":2466:2563  function numberOfModels() external view returns (uint256) {... */\n      swap1\n      jump\t// out\n        /* \"contracts/mocks/MockAIOracle.sol\":1000:1041  mapping(address => bool) public blacklist */\n    tag_158:\n      mstore(0x20, 0x03)\n      dup1\n      0x00\n      mstore\n      keccak256(0x00, 0x40)\n      0x00\n      swap2\n      pop\n      sload\n      swap1\n      0x0100\n      exp\n      swap1\n      div\n      0xff\n      and\n      dup2\n      jump\t// out\n        /* \"contracts/mocks/MockAIOracle.sol\":551:629  function server() public view returns (address) {... */\n    tag_162:\n        /* \"contracts/mocks/MockAIOracle.sol\":590:597  address */\n      0x00\n        /* \"contracts/mocks/MockAIOracle.sol\":616:622  Server */\n      0x02\n      0x00\n      swap1\n      sload\n      swap1\n      0x0100\n      exp\n      swap1\n      div\n      0xffffffffffffffffffffffffffffffffffffffff\n      and\n        /* \"contracts/mocks/MockAIOracle.sol\":609:622  return Server */\n      swap1\n      pop\n        /* \"contracts/mocks/MockAIOracle.sol\":551:629  function server() public view returns (address) {... */\n      swap1\n      jump\t// out\n        /* \"contracts/mocks/MockAIOracle.sol\":1683:1706  uint256 public gasPrice */\n    tag_166:\n      sload(0x08)\n      dup2\n      jump\t// out\n        /* \"contracts/mocks/MockAIOracle.sol\":6059:6676  function _validateParams(... */\n    tag_274:\n        /* \"contracts/mocks/MockAIOracle.sol\":6227:6234  modelId */\n      dup4\n        /* \"contracts/mocks/MockAIOracle.sol\":2166:2177  modelExists */\n      0x07\n        /* \"contracts/mocks/MockAIOracle.sol\":2166:2186  modelExists[modelId] */\n      0x00\n        /* \"contracts/mocks/MockAIOracle.sol\":2178:2185  modelId */\n      dup3\n        /* \"contracts/mocks/MockAIOracle.sol\":2166:2186  modelExists[modelId] */\n      dup2\n      mstore\n      0x20\n      add\n      swap1\n      dup2\n      mstore\n      0x20\n      add\n      0x00\n      keccak256\n      0x00\n      swap1\n      sload\n      swap1\n      0x0100\n      exp\n      swap1\n      div\n      0xff\n      and\n        /* \"contracts/mocks/MockAIOracle.sol\":2158:2211  require(modelExists[modelId], \"model does not exist\") */\n      tag_411\n      jumpi\n      mload(0x40)\n      0x08c379a000000000000000000000000000000000000000000000000000000000\n      dup2\n      mstore\n      0x04\n      add\n      tag_412\n      swap1\n      tag_176\n      jump\t// in\n    tag_412:\n      mload(0x40)\n      dup1\n      swap2\n      sub\n      swap1\n      revert\n    tag_411:\n        /* \"contracts/mocks/MockAIOracle.sol\":6251:6267  callbackContract */\n      dup3\n        /* \"contracts/mocks/MockAIOracle.sol\":2040:2049  blacklist */\n      0x03\n        /* \"contracts/mocks/MockAIOracle.sol\":2040:2067  blacklist[callbackContract] */\n      0x00\n        /* \"contracts/mocks/MockAIOracle.sol\":2050:2066  callbackContract */\n      dup3\n        /* \"contracts/mocks/MockAIOracle.sol\":2040:2067  blacklist[callbackContract] */\n      0xffffffffffffffffffffffffffffffffffffffff\n      and\n      0xffffffffffffffffffffffffffffffffffffffff\n      and\n      dup2\n      mstore\n      0x20\n      add\n      swap1\n      dup2\n      mstore\n      0x20\n      add\n      0x00\n      keccak256\n      0x00\n      swap1\n      sload\n      swap1\n      0x0100\n      exp\n      swap1\n      div\n      0xff\n      and\n        /* \"contracts/mocks/MockAIOracle.sol\":2039:2067  !blacklist[callbackContract] */\n      iszero\n        /* \"contracts/mocks/MockAIOracle.sol\":2031:2084  require(!blacklist[callbackContract], \"In blacklist\") */\n      tag_414\n      jumpi\n      mload(0x40)\n      0x08c379a000000000000000000000000000000000000000000000000000000000\n      dup2\n      mstore\n      0x04\n      add\n      tag_415\n      swap1\n      tag_416\n      jump\t// in\n    tag_415:\n      mload(0x40)\n      dup1\n      swap2\n      sub\n      swap1\n      revert\n    tag_414:\n        /* \"contracts/mocks/MockAIOracle.sol\":6279:6302  ModelData storage model */\n      0x00\n        /* \"contracts/mocks/MockAIOracle.sol\":6305:6311  models */\n      0x06\n        /* \"contracts/mocks/MockAIOracle.sol\":6305:6320  models[modelId] */\n      0x00\n        /* \"contracts/mocks/MockAIOracle.sol\":6312:6319  modelId */\n      dup9\n        /* \"contracts/mocks/MockAIOracle.sol\":6305:6320  models[modelId] */\n      dup2\n      mstore\n      0x20\n      add\n      swap1\n      dup2\n      mstore\n      0x20\n      add\n      0x00\n      keccak256\n        /* \"contracts/mocks/MockAIOracle.sol\":6279:6320  ModelData storage model = models[modelId] */\n      swap1\n      pop\n        /* \"contracts/mocks/MockAIOracle.sol\":6374:6382  gasLimit */\n      dup4\n        /* \"contracts/mocks/MockAIOracle.sol\":6363:6382  gasPrice * gasLimit */\n      0xffffffffffffffff\n      and\n        /* \"contracts/mocks/MockAIOracle.sol\":6363:6371  gasPrice */\n      sload(0x08)\n        /* \"contracts/mocks/MockAIOracle.sol\":6363:6382  gasPrice * gasLimit */\n      tag_418\n      swap2\n      swap1\n      tag_183\n      jump\t// in\n    tag_418:\n        /* \"contracts/mocks/MockAIOracle.sol\":6351:6356  model */\n      dup2\n        /* \"contracts/mocks/MockAIOracle.sol\":6351:6360  model.fee */\n      0x02\n      add\n      sload\n        /* \"contracts/mocks/MockAIOracle.sol\":6351:6382  model.fee + gasPrice * gasLimit */\n      tag_419\n      swap2\n      swap1\n      tag_185\n      jump\t// in\n    tag_419:\n        /* \"contracts/mocks/MockAIOracle.sol\":6338:6347  msg.value */\n      callvalue\n        /* \"contracts/mocks/MockAIOracle.sol\":6338:6382  msg.value >= model.fee + gasPrice * gasLimit */\n      lt\n      iszero\n        /* \"contracts/mocks/MockAIOracle.sol\":6330:6403  require(msg.value >= model.fee + gasPrice * gasLimit, \"insufficient fee\") */\n      tag_420\n      jumpi\n      mload(0x40)\n      0x08c379a000000000000000000000000000000000000000000000000000000000\n      dup2\n      mstore\n      0x04\n      add\n      tag_421\n      swap1\n      tag_422\n      jump\t// in\n    tag_421:\n      mload(0x40)\n      dup1\n      swap2\n      sub\n      swap1\n      revert\n    tag_420:\n        /* \"contracts/mocks/MockAIOracle.sol\":6479:6482  100 */\n      0x64\n        /* \"contracts/mocks/MockAIOracle.sol\":6452:6457  model */\n      dup2\n        /* \"contracts/mocks/MockAIOracle.sol\":6452:6476  model.receiverPercentage */\n      0x04\n      add\n      sload\n        /* \"contracts/mocks/MockAIOracle.sol\":6440:6445  model */\n      dup3\n        /* \"contracts/mocks/MockAIOracle.sol\":6440:6449  model.fee */\n      0x02\n      add\n      sload\n        /* \"contracts/mocks/MockAIOracle.sol\":6440:6476  model.fee * model.receiverPercentage */\n      tag_423\n      swap2\n      swap1\n      tag_183\n      jump\t// in\n    tag_423:\n        /* \"contracts/mocks/MockAIOracle.sol\":6440:6482  model.fee * model.receiverPercentage / 100 */\n      tag_424\n      swap2\n      swap1\n      tag_425\n      jump\t// in\n    tag_424:\n        /* \"contracts/mocks/MockAIOracle.sol\":6413:6418  model */\n      dup2\n        /* \"contracts/mocks/MockAIOracle.sol\":6413:6436  model.accumulateRevenue */\n      0x05\n      add\n      0x00\n        /* \"contracts/mocks/MockAIOracle.sol\":6413:6482  model.accumulateRevenue += model.fee * model.receiverPercentage / 100 */\n      dup3\n      dup3\n      sload\n      tag_426\n      swap2\n      swap1\n      tag_185\n      jump\t// in\n    tag_426:\n      swap3\n      pop\n      pop\n      dup2\n      swap1\n      sstore\n      pop\n        /* \"contracts/mocks/MockAIOracle.sol\":6515:6516  0 */\n      0x00\n        /* \"contracts/mocks/MockAIOracle.sol\":6500:6505  input */\n      dup7\n        /* \"contracts/mocks/MockAIOracle.sol\":6500:6512  input.length */\n      mload\n        /* \"contracts/mocks/MockAIOracle.sol\":6500:6516  input.length > 0 */\n      gt\n        /* \"contracts/mocks/MockAIOracle.sol\":6492:6539  require(input.length > 0, \"input not uploaded\") */\n      tag_427\n      jumpi\n      mload(0x40)\n      0x08c379a000000000000000000000000000000000000000000000000000000000\n      dup2\n      mstore\n      0x04\n      add\n      tag_428\n      swap1\n      tag_429\n      jump\t// in\n    tag_428:\n      mload(0x40)\n      dup1\n      swap2\n      sub\n      swap1\n      revert\n    tag_427:\n        /* \"contracts/mocks/MockAIOracle.sol\":6549:6564  bool noCallback */\n      0x00\n        /* \"contracts/mocks/MockAIOracle.sol\":6595:6596  0 */\n      dup1\n        /* \"contracts/mocks/MockAIOracle.sol\":6567:6597  callbackContract == address(0) */\n      0xffffffffffffffffffffffffffffffffffffffff\n      and\n        /* \"contracts/mocks/MockAIOracle.sol\":6567:6583  callbackContract */\n      dup7\n        /* \"contracts/mocks/MockAIOracle.sol\":6567:6597  callbackContract == address(0) */\n      0xffffffffffffffffffffffffffffffffffffffff\n      and\n      eq\n        /* \"contracts/mocks/MockAIOracle.sol\":6549:6597  bool noCallback = callbackContract == address(0) */\n      swap1\n      pop\n        /* \"contracts/mocks/MockAIOracle.sol\":6642:6643  0 */\n      0x00\n        /* \"contracts/mocks/MockAIOracle.sol\":6630:6638  gasLimit */\n      dup6\n        /* \"contracts/mocks/MockAIOracle.sol\":6630:6643  gasLimit == 0 */\n      0xffffffffffffffff\n      and\n      eq\n        /* \"contracts/mocks/MockAIOracle.sol\":6615:6644  noCallback == (gasLimit == 0) */\n      iszero\n      iszero\n        /* \"contracts/mocks/MockAIOracle.sol\":6615:6625  noCallback */\n      dup2\n        /* \"contracts/mocks/MockAIOracle.sol\":6615:6644  noCallback == (gasLimit == 0) */\n      iszero\n      iszero\n      eq\n        /* \"contracts/mocks/MockAIOracle.sol\":6607:6669  require(noCallback == (gasLimit == 0), \"gasLimit cannot be 0\") */\n      tag_430\n      jumpi\n      mload(0x40)\n      0x08c379a000000000000000000000000000000000000000000000000000000000\n      dup2\n      mstore\n      0x04\n      add\n      tag_431\n      swap1\n      tag_432\n      jump\t// in\n    tag_431:\n      mload(0x40)\n      dup1\n      swap2\n      sub\n      swap1\n      revert\n    tag_430:\n        /* \"contracts/mocks/MockAIOracle.sol\":6269:6676  {... */\n      pop\n      pop\n        /* \"contracts/mocks/MockAIOracle.sol\":2221:2222  _ */\n      pop\n        /* \"contracts/mocks/MockAIOracle.sol\":6059:6676  function _validateParams(... */\n      pop\n      pop\n      pop\n      pop\n      pop\n      jump\t// out\n    tag_332:\n      mload(0x40)\n      dup1\n      0xc0\n      add\n      0x40\n      mstore\n      dup1\n      0x00\n      dup1\n      not\n      and\n      dup2\n      mstore\n      0x20\n      add\n      0x00\n      dup1\n      not\n      and\n      dup2\n      mstore\n      0x20\n      add\n      0x00\n      dup2\n      mstore\n      0x20\n      add\n      and(0xffffffffffffffffffffffffffffffffffffffff, 0x00)\n      dup2\n      mstore\n      0x20\n      add\n      0x00\n      dup2\n      mstore\n      0x20\n      add\n      0x00\n      dup2\n      mstore\n      pop\n      swap1\n      jump\t// out\n    tag_385:\n      pop\n      dup1\n      sload\n      0x00\n      dup3\n      sstore\n      swap1\n      0x00\n      mstore\n      keccak256(0x00, 0x20)\n      swap1\n      dup2\n      add\n      swap1\n      tag_434\n      swap2\n      swap1\n      tag_435\n      jump\t// in\n    tag_434:\n      pop\n      jump\t// out\n    tag_435:\n    tag_436:\n      dup1\n      dup3\n      gt\n      iszero\n      tag_437\n      jumpi\n      0x00\n      dup2\n      0x00\n      swap1\n      sstore\n      pop\n      0x01\n      add\n      jump(tag_436)\n    tag_437:\n      pop\n      swap1\n      jump\t// out\n        /* \"#utility.yul\":7:82   */\n    tag_438:\n        /* \"#utility.yul\":40:46   */\n      0x00\n        /* \"#utility.yul\":73:75   */\n      0x40\n        /* \"#utility.yul\":67:76   */\n      mload\n        /* \"#utility.yul\":57:76   */\n      swap1\n      pop\n        /* \"#utility.yul\":7:82   */\n      swap1\n      jump\t// out\n        /* \"#utility.yul\":88:205   */\n    tag_439:\n        /* \"#utility.yul\":197:198   */\n      0x00\n        /* \"#utility.yul\":194:195   */\n      dup1\n        /* \"#utility.yul\":187:199   */\n      revert\n        /* \"#utility.yul\":211:328   */\n    tag_440:\n        /* \"#utility.yul\":320:321   */\n      0x00\n        /* \"#utility.yul\":317:318   */\n      dup1\n        /* \"#utility.yul\":310:322   */\n      revert\n        /* \"#utility.yul\":334:411   */\n    tag_441:\n        /* \"#utility.yul\":371:378   */\n      0x00\n        /* \"#utility.yul\":400:405   */\n      dup2\n        /* \"#utility.yul\":389:405   */\n      swap1\n      pop\n        /* \"#utility.yul\":334:411   */\n      swap2\n      swap1\n      pop\n      jump\t// out\n        /* \"#utility.yul\":417:539   */\n    tag_442:\n        /* \"#utility.yul\":490:514   */\n      tag_546\n        /* \"#utility.yul\":508:513   */\n      dup2\n        /* \"#utility.yul\":490:514   */\n      tag_441\n      jump\t// in\n    tag_546:\n        /* \"#utility.yul\":483:488   */\n      dup2\n        /* \"#utility.yul\":480:515   */\n      eq\n        /* \"#utility.yul\":470:533   */\n      tag_547\n      jumpi\n        /* \"#utility.yul\":529:530   */\n      0x00\n        /* \"#utility.yul\":526:527   */\n      dup1\n        /* \"#utility.yul\":519:531   */\n      revert\n        /* \"#utility.yul\":470:533   */\n    tag_547:\n        /* \"#utility.yul\":417:539   */\n      pop\n      jump\t// out\n        /* \"#utility.yul\":545:684   */\n    tag_443:\n        /* \"#utility.yul\":591:596   */\n      0x00\n        /* \"#utility.yul\":629:635   */\n      dup2\n        /* \"#utility.yul\":616:636   */\n      calldataload\n        /* \"#utility.yul\":607:636   */\n      swap1\n      pop\n        /* \"#utility.yul\":645:678   */\n      tag_549\n        /* \"#utility.yul\":672:677   */\n      dup2\n        /* \"#utility.yul\":645:678   */\n      tag_442\n      jump\t// in\n    tag_549:\n        /* \"#utility.yul\":545:684   */\n      swap3\n      swap2\n      pop\n      pop\n      jump\t// out\n        /* \"#utility.yul\":690:816   */\n    tag_444:\n        /* \"#utility.yul\":727:734   */\n      0x00\n        /* \"#utility.yul\":767:809   */\n      0xffffffffffffffffffffffffffffffffffffffff\n        /* \"#utility.yul\":760:765   */\n      dup3\n        /* \"#utility.yul\":756:810   */\n      and\n        /* \"#utility.yul\":745:810   */\n      swap1\n      pop\n        /* \"#utility.yul\":690:816   */\n      swap2\n      swap1\n      pop\n      jump\t// out\n        /* \"#utility.yul\":822:918   */\n    tag_445:\n        /* \"#utility.yul\":859:866   */\n      0x00\n        /* \"#utility.yul\":888:912   */\n      tag_552\n        /* \"#utility.yul\":906:911   */\n      dup3\n        /* \"#utility.yul\":888:912   */\n      tag_444\n      jump\t// in\n    tag_552:\n        /* \"#utility.yul\":877:912   */\n      swap1\n      pop\n        /* \"#utility.yul\":822:918   */\n      swap2\n      swap1\n      pop\n      jump\t// out\n        /* \"#utility.yul\":924:1046   */\n    tag_446:\n        /* \"#utility.yul\":997:1021   */\n      tag_554\n        /* \"#utility.yul\":1015:1020   */\n      dup2\n        /* \"#utility.yul\":997:1021   */\n      tag_445\n      jump\t// in\n    tag_554:\n        /* \"#utility.yul\":990:995   */\n      dup2\n        /* \"#utility.yul\":987:1022   */\n      eq\n        /* \"#utility.yul\":977:1040   */\n      tag_555\n      jumpi\n        /* \"#utility.yul\":1036:1037   */\n      0x00\n        /* \"#utility.yul\":1033:1034   */\n      dup1\n        /* \"#utility.yul\":1026:1038   */\n      revert\n        /* \"#utility.yul\":977:1040   */\n    tag_555:\n        /* \"#utility.yul\":924:1046   */\n      pop\n      jump\t// out\n        /* \"#utility.yul\":1052:1191   */\n    tag_447:\n        /* \"#utility.yul\":1098:1103   */\n      0x00\n        /* \"#utility.yul\":1136:1142   */\n      dup2\n        /* \"#utility.yul\":1123:1143   */\n      calldataload\n        /* \"#utility.yul\":1114:1143   */\n      swap1\n      pop\n        /* \"#utility.yul\":1152:1185   */\n      tag_557\n        /* \"#utility.yul\":1179:1184   */\n      dup2\n        /* \"#utility.yul\":1152:1185   */\n      tag_446\n      jump\t// in\n    tag_557:\n        /* \"#utility.yul\":1052:1191   */\n      swap3\n      swap2\n      pop\n      pop\n      jump\t// out\n        /* \"#utility.yul\":1197:1671   */\n    tag_40:\n        /* \"#utility.yul\":1265:1271   */\n      0x00\n        /* \"#utility.yul\":1273:1279   */\n      dup1\n        /* \"#utility.yul\":1322:1324   */\n      0x40\n        /* \"#utility.yul\":1310:1319   */\n      dup4\n        /* \"#utility.yul\":1301:1308   */\n      dup6\n        /* \"#utility.yul\":1297:1320   */\n      sub\n        /* \"#utility.yul\":1293:1325   */\n      slt\n        /* \"#utility.yul\":1290:1409   */\n      iszero\n      tag_559\n      jumpi\n        /* \"#utility.yul\":1328:1407   */\n      tag_560\n      tag_439\n      jump\t// in\n    tag_560:\n        /* \"#utility.yul\":1290:1409   */\n    tag_559:\n        /* \"#utility.yul\":1448:1449   */\n      0x00\n        /* \"#utility.yul\":1473:1526   */\n      tag_561\n        /* \"#utility.yul\":1518:1525   */\n      dup6\n        /* \"#utility.yul\":1509:1515   */\n      dup3\n        /* \"#utility.yul\":1498:1507   */\n      dup7\n        /* \"#utility.yul\":1494:1516   */\n      add\n        /* \"#utility.yul\":1473:1526   */\n      tag_443\n      jump\t// in\n    tag_561:\n        /* \"#utility.yul\":1463:1526   */\n      swap3\n      pop\n        /* \"#utility.yul\":1419:1536   */\n      pop\n        /* \"#utility.yul\":1575:1577   */\n      0x20\n        /* \"#utility.yul\":1601:1654   */\n      tag_562\n        /* \"#utility.yul\":1646:1653   */\n      dup6\n        /* \"#utility.yul\":1637:1643   */\n      dup3\n        /* \"#utility.yul\":1626:1635   */\n      dup7\n        /* \"#utility.yul\":1622:1644   */\n      add\n        /* \"#utility.yul\":1601:1654   */\n      tag_447\n      jump\t// in\n    tag_562:\n        /* \"#utility.yul\":1591:1654   */\n      swap2\n      pop\n        /* \"#utility.yul\":1546:1664   */\n      pop\n        /* \"#utility.yul\":1197:1671   */\n      swap3\n      pop\n      swap3\n      swap1\n      pop\n      jump\t// out\n        /* \"#utility.yul\":1677:2151   */\n    tag_45:\n        /* \"#utility.yul\":1745:1751   */\n      0x00\n        /* \"#utility.yul\":1753:1759   */\n      dup1\n        /* \"#utility.yul\":1802:1804   */\n      0x40\n        /* \"#utility.yul\":1790:1799   */\n      dup4\n        /* \"#utility.yul\":1781:1788   */\n      dup6\n        /* \"#utility.yul\":1777:1800   */\n      sub\n        /* \"#utility.yul\":1773:1805   */\n      slt\n        /* \"#utility.yul\":1770:1889   */\n      iszero\n      tag_564\n      jumpi\n        /* \"#utility.yul\":1808:1887   */\n      tag_565\n      tag_439\n      jump\t// in\n    tag_565:\n        /* \"#utility.yul\":1770:1889   */\n    tag_564:\n        /* \"#utility.yul\":1928:1929   */\n      0x00\n        /* \"#utility.yul\":1953:2006   */\n      tag_566\n        /* \"#utility.yul\":1998:2005   */\n      dup6\n        /* \"#utility.yul\":1989:1995   */\n      dup3\n        /* \"#utility.yul\":1978:1987   */\n      dup7\n        /* \"#utility.yul\":1974:1996   */\n      add\n        /* \"#utility.yul\":1953:2006   */\n      tag_443\n      jump\t// in\n    tag_566:\n        /* \"#utility.yul\":1943:2006   */\n      swap3\n      pop\n        /* \"#utility.yul\":1899:2016   */\n      pop\n        /* \"#utility.yul\":2055:2057   */\n      0x20\n        /* \"#utility.yul\":2081:2134   */\n      tag_567\n        /* \"#utility.yul\":2126:2133   */\n      dup6\n        /* \"#utility.yul\":2117:2123   */\n      dup3\n        /* \"#utility.yul\":2106:2115   */\n      dup7\n        /* \"#utility.yul\":2102:2124   */\n      add\n        /* \"#utility.yul\":2081:2134   */\n      tag_443\n      jump\t// in\n    tag_567:\n        /* \"#utility.yul\":2071:2134   */\n      swap2\n      pop\n        /* \"#utility.yul\":2026:2144   */\n      pop\n        /* \"#utility.yul\":1677:2151   */\n      swap3\n      pop\n      swap3\n      swap1\n      pop\n      jump\t// out\n        /* \"#utility.yul\":2157:2275   */\n    tag_448:\n        /* \"#utility.yul\":2244:2268   */\n      tag_569\n        /* \"#utility.yul\":2262:2267   */\n      dup2\n        /* \"#utility.yul\":2244:2268   */\n      tag_441\n      jump\t// in\n    tag_569:\n        /* \"#utility.yul\":2239:2242   */\n      dup3\n        /* \"#utility.yul\":2232:2269   */\n      mstore\n        /* \"#utility.yul\":2157:2275   */\n      pop\n      pop\n      jump\t// out\n        /* \"#utility.yul\":2281:2503   */\n    tag_48:\n        /* \"#utility.yul\":2374:2378   */\n      0x00\n        /* \"#utility.yul\":2412:2414   */\n      0x20\n        /* \"#utility.yul\":2401:2410   */\n      dup3\n        /* \"#utility.yul\":2397:2415   */\n      add\n        /* \"#utility.yul\":2389:2415   */\n      swap1\n      pop\n        /* \"#utility.yul\":2425:2496   */\n      tag_571\n        /* \"#utility.yul\":2493:2494   */\n      0x00\n        /* \"#utility.yul\":2482:2491   */\n      dup4\n        /* \"#utility.yul\":2478:2495   */\n      add\n        /* \"#utility.yul\":2469:2475   */\n      dup5\n        /* \"#utility.yul\":2425:2496   */\n      tag_448\n      jump\t// in\n    tag_571:\n        /* \"#utility.yul\":2281:2503   */\n      swap3\n      swap2\n      pop\n      pop\n      jump\t// out\n        /* \"#utility.yul\":2509:2838   */\n    tag_52:\n        /* \"#utility.yul\":2568:2574   */\n      0x00\n        /* \"#utility.yul\":2617:2619   */\n      0x20\n        /* \"#utility.yul\":2605:2614   */\n      dup3\n        /* \"#utility.yul\":2596:2603   */\n      dup5\n        /* \"#utility.yul\":2592:2615   */\n      sub\n        /* \"#utility.yul\":2588:2620   */\n      slt\n        /* \"#utility.yul\":2585:2704   */\n      iszero\n      tag_573\n      jumpi\n        /* \"#utility.yul\":2623:2702   */\n      tag_574\n      tag_439\n      jump\t// in\n    tag_574:\n        /* \"#utility.yul\":2585:2704   */\n    tag_573:\n        /* \"#utility.yul\":2743:2744   */\n      0x00\n        /* \"#utility.yul\":2768:2821   */\n      tag_575\n        /* \"#utility.yul\":2813:2820   */\n      dup5\n        /* \"#utility.yul\":2804:2810   */\n      dup3\n        /* \"#utility.yul\":2793:2802   */\n      dup6\n        /* \"#utility.yul\":2789:2811   */\n      add\n        /* \"#utility.yul\":2768:2821   */\n      tag_443\n      jump\t// in\n    tag_575:\n        /* \"#utility.yul\":2758:2821   */\n      swap2\n      pop\n        /* \"#utility.yul\":2714:2831   */\n      pop\n        /* \"#utility.yul\":2509:2838   */\n      swap3\n      swap2\n      pop\n      pop\n      jump\t// out\n        /* \"#utility.yul\":2844:2934   */\n    tag_449:\n        /* \"#utility.yul\":2878:2885   */\n      0x00\n        /* \"#utility.yul\":2921:2926   */\n      dup2\n        /* \"#utility.yul\":2914:2927   */\n      iszero\n        /* \"#utility.yul\":2907:2928   */\n      iszero\n        /* \"#utility.yul\":2896:2928   */\n      swap1\n      pop\n        /* \"#utility.yul\":2844:2934   */\n      swap2\n      swap1\n      pop\n      jump\t// out\n        /* \"#utility.yul\":2940:3049   */\n    tag_450:\n        /* \"#utility.yul\":3021:3042   */\n      tag_578\n        /* \"#utility.yul\":3036:3041   */\n      dup2\n        /* \"#utility.yul\":3021:3042   */\n      tag_449\n      jump\t// in\n    tag_578:\n        /* \"#utility.yul\":3016:3019   */\n      dup3\n        /* \"#utility.yul\":3009:3043   */\n      mstore\n        /* \"#utility.yul\":2940:3049   */\n      pop\n      pop\n      jump\t// out\n        /* \"#utility.yul\":3055:3265   */\n    tag_55:\n        /* \"#utility.yul\":3142:3146   */\n      0x00\n        /* \"#utility.yul\":3180:3182   */\n      0x20\n        /* \"#utility.yul\":3169:3178   */\n      dup3\n        /* \"#utility.yul\":3165:3183   */\n      add\n        /* \"#utility.yul\":3157:3183   */\n      swap1\n      pop\n        /* \"#utility.yul\":3193:3258   */\n      tag_580\n        /* \"#utility.yul\":3255:3256   */\n      0x00\n        /* \"#utility.yul\":3244:3253   */\n      dup4\n        /* \"#utility.yul\":3240:3257   */\n      add\n        /* \"#utility.yul\":3231:3237   */\n      dup5\n        /* \"#utility.yul\":3193:3258   */\n      tag_450\n      jump\t// in\n    tag_580:\n        /* \"#utility.yul\":3055:3265   */\n      swap3\n      swap2\n      pop\n      pop\n      jump\t// out\n        /* \"#utility.yul\":3271:3600   */\n    tag_67:\n        /* \"#utility.yul\":3330:3336   */\n      0x00\n        /* \"#utility.yul\":3379:3381   */\n      0x20\n        /* \"#utility.yul\":3367:3376   */\n      dup3\n        /* \"#utility.yul\":3358:3365   */\n      dup5\n        /* \"#utility.yul\":3354:3377   */\n      sub\n        /* \"#utility.yul\":3350:3382   */\n      slt\n        /* \"#utility.yul\":3347:3466   */\n      iszero\n      tag_582\n      jumpi\n        /* \"#utility.yul\":3385:3464   */\n      tag_583\n      tag_439\n      jump\t// in\n    tag_583:\n        /* \"#utility.yul\":3347:3466   */\n    tag_582:\n        /* \"#utility.yul\":3505:3506   */\n      0x00\n        /* \"#utility.yul\":3530:3583   */\n      tag_584\n        /* \"#utility.yul\":3575:3582   */\n      dup5\n        /* \"#utility.yul\":3566:3572   */\n      dup3\n        /* \"#utility.yul\":3555:3564   */\n      dup6\n        /* \"#utility.yul\":3551:3573   */\n      add\n        /* \"#utility.yul\":3530:3583   */\n      tag_447\n      jump\t// in\n    tag_584:\n        /* \"#utility.yul\":3520:3583   */\n      swap2\n      pop\n        /* \"#utility.yul\":3476:3593   */\n      pop\n        /* \"#utility.yul\":3271:3600   */\n      swap3\n      swap2\n      pop\n      pop\n      jump\t// out\n        /* \"#utility.yul\":3606:3755   */\n    tag_451:\n        /* \"#utility.yul\":3642:3649   */\n      0x00\n        /* \"#utility.yul\":3682:3748   */\n      0xffffffff00000000000000000000000000000000000000000000000000000000\n        /* \"#utility.yul\":3675:3680   */\n      dup3\n        /* \"#utility.yul\":3671:3749   */\n      and\n        /* \"#utility.yul\":3660:3749   */\n      swap1\n      pop\n        /* \"#utility.yul\":3606:3755   */\n      swap2\n      swap1\n      pop\n      jump\t// out\n        /* \"#utility.yul\":3761:3876   */\n    tag_452:\n        /* \"#utility.yul\":3846:3869   */\n      tag_587\n        /* \"#utility.yul\":3863:3868   */\n      dup2\n        /* \"#utility.yul\":3846:3869   */\n      tag_451\n      jump\t// in\n    tag_587:\n        /* \"#utility.yul\":3841:3844   */\n      dup3\n        /* \"#utility.yul\":3834:3870   */\n      mstore\n        /* \"#utility.yul\":3761:3876   */\n      pop\n      pop\n      jump\t// out\n        /* \"#utility.yul\":3882:4100   */\n    tag_73:\n        /* \"#utility.yul\":3973:3977   */\n      0x00\n        /* \"#utility.yul\":4011:4013   */\n      0x20\n        /* \"#utility.yul\":4000:4009   */\n      dup3\n        /* \"#utility.yul\":3996:4014   */\n      add\n        /* \"#utility.yul\":3988:4014   */\n      swap1\n      pop\n        /* \"#utility.yul\":4024:4093   */\n      tag_589\n        /* \"#utility.yul\":4090:4091   */\n      0x00\n        /* \"#utility.yul\":4079:4088   */\n      dup4\n        /* \"#utility.yul\":4075:4092   */\n      add\n        /* \"#utility.yul\":4066:4072   */\n      dup5\n        /* \"#utility.yul\":4024:4093   */\n      tag_452\n      jump\t// in\n    tag_589:\n        /* \"#utility.yul\":3882:4100   */\n      swap3\n      swap2\n      pop\n      pop\n      jump\t// out\n        /* \"#utility.yul\":4106:4183   */\n    tag_453:\n        /* \"#utility.yul\":4143:4150   */\n      0x00\n        /* \"#utility.yul\":4172:4177   */\n      dup2\n        /* \"#utility.yul\":4161:4177   */\n      swap1\n      pop\n        /* \"#utility.yul\":4106:4183   */\n      swap2\n      swap1\n      pop\n      jump\t// out\n        /* \"#utility.yul\":4189:4311   */\n    tag_454:\n        /* \"#utility.yul\":4262:4286   */\n      tag_592\n        /* \"#utility.yul\":4280:4285   */\n      dup2\n        /* \"#utility.yul\":4262:4286   */\n      tag_453\n      jump\t// in\n    tag_592:\n        /* \"#utility.yul\":4255:4260   */\n      dup2\n        /* \"#utility.yul\":4252:4287   */\n      eq\n        /* \"#utility.yul\":4242:4305   */\n      tag_593\n      jumpi\n        /* \"#utility.yul\":4301:4302   */\n      0x00\n        /* \"#utility.yul\":4298:4299   */\n      dup1\n        /* \"#utility.yul\":4291:4303   */\n      revert\n        /* \"#utility.yul\":4242:4305   */\n    tag_593:\n        /* \"#utility.yul\":4189:4311   */\n      pop\n      jump\t// out\n        /* \"#utility.yul\":4317:4456   */\n    tag_455:\n        /* \"#utility.yul\":4363:4368   */\n      0x00\n        /* \"#utility.yul\":4401:4407   */\n      dup2\n        /* \"#utility.yul\":4388:4408   */\n      calldataload\n        /* \"#utility.yul\":4379:4408   */\n      swap1\n      pop\n        /* \"#utility.yul\":4417:4450   */\n      tag_595\n        /* \"#utility.yul\":4444:4449   */\n      dup2\n        /* \"#utility.yul\":4417:4450   */\n      tag_454\n      jump\t// in\n    tag_595:\n        /* \"#utility.yul\":4317:4456   */\n      swap3\n      swap2\n      pop\n      pop\n      jump\t// out\n        /* \"#utility.yul\":4462:5519   */\n    tag_81:\n        /* \"#utility.yul\":4566:4572   */\n      0x00\n        /* \"#utility.yul\":4574:4580   */\n      dup1\n        /* \"#utility.yul\":4582:4588   */\n      0x00\n        /* \"#utility.yul\":4590:4596   */\n      dup1\n        /* \"#utility.yul\":4598:4604   */\n      0x00\n        /* \"#utility.yul\":4606:4612   */\n      dup1\n        /* \"#utility.yul\":4655:4658   */\n      0xc0\n        /* \"#utility.yul\":4643:4652   */\n      dup8\n        /* \"#utility.yul\":4634:4641   */\n      dup10\n        /* \"#utility.yul\":4630:4653   */\n      sub\n        /* \"#utility.yul\":4626:4659   */\n      slt\n        /* \"#utility.yul\":4623:4743   */\n      iszero\n      tag_597\n      jumpi\n        /* \"#utility.yul\":4662:4741   */\n      tag_598\n      tag_439\n      jump\t// in\n    tag_598:\n        /* \"#utility.yul\":4623:4743   */\n    tag_597:\n        /* \"#utility.yul\":4782:4783   */\n      0x00\n        /* \"#utility.yul\":4807:4860   */\n      tag_599\n        /* \"#utility.yul\":4852:4859   */\n      dup10\n        /* \"#utility.yul\":4843:4849   */\n      dup3\n        /* \"#utility.yul\":4832:4841   */\n      dup11\n        /* \"#utility.yul\":4828:4850   */\n      add\n        /* \"#utility.yul\":4807:4860   */\n      tag_443\n      jump\t// in\n    tag_599:\n        /* \"#utility.yul\":4797:4860   */\n      swap7\n      pop\n        /* \"#utility.yul\":4753:4870   */\n      pop\n        /* \"#utility.yul\":4909:4911   */\n      0x20\n        /* \"#utility.yul\":4935:4988   */\n      tag_600\n        /* \"#utility.yul\":4980:4987   */\n      dup10\n        /* \"#utility.yul\":4971:4977   */\n      dup3\n        /* \"#utility.yul\":4960:4969   */\n      dup11\n        /* \"#utility.yul\":4956:4978   */\n      add\n        /* \"#utility.yul\":4935:4988   */\n      tag_455\n      jump\t// in\n    tag_600:\n        /* \"#utility.yul\":4925:4988   */\n      swap6\n      pop\n        /* \"#utility.yul\":4880:4998   */\n      pop\n        /* \"#utility.yul\":5037:5039   */\n      0x40\n        /* \"#utility.yul\":5063:5116   */\n      tag_601\n        /* \"#utility.yul\":5108:5115   */\n      dup10\n        /* \"#utility.yul\":5099:5105   */\n      dup3\n        /* \"#utility.yul\":5088:5097   */\n      dup11\n        /* \"#utility.yul\":5084:5106   */\n      add\n        /* \"#utility.yul\":5063:5116   */\n      tag_455\n      jump\t// in\n    tag_601:\n        /* \"#utility.yul\":5053:5116   */\n      swap5\n      pop\n        /* \"#utility.yul\":5008:5126   */\n      pop\n        /* \"#utility.yul\":5165:5167   */\n      0x60\n        /* \"#utility.yul\":5191:5244   */\n      tag_602\n        /* \"#utility.yul\":5236:5243   */\n      dup10\n        /* \"#utility.yul\":5227:5233   */\n      dup3\n        /* \"#utility.yul\":5216:5225   */\n      dup11\n        /* \"#utility.yul\":5212:5234   */\n      add\n        /* \"#utility.yul\":5191:5244   */\n      tag_443\n      jump\t// in\n    tag_602:\n        /* \"#utility.yul\":5181:5244   */\n      swap4\n      pop\n        /* \"#utility.yul\":5136:5254   */\n      pop\n        /* \"#utility.yul\":5293:5296   */\n      0x80\n        /* \"#utility.yul\":5320:5373   */\n      tag_603\n        /* \"#utility.yul\":5365:5372   */\n      dup10\n        /* \"#utility.yul\":5356:5362   */\n      dup3\n        /* \"#utility.yul\":5345:5354   */\n      dup11\n        /* \"#utility.yul\":5341:5363   */\n      add\n        /* \"#utility.yul\":5320:5373   */\n      tag_447\n      jump\t// in\n    tag_603:\n        /* \"#utility.yul\":5310:5373   */\n      swap3\n      pop\n        /* \"#utility.yul\":5264:5383   */\n      pop\n        /* \"#utility.yul\":5422:5425   */\n      0xa0\n        /* \"#utility.yul\":5449:5502   */\n      tag_604\n        /* \"#utility.yul\":5494:5501   */\n      dup10\n        /* \"#utility.yul\":5485:5491   */\n      dup3\n        /* \"#utility.yul\":5474:5483   */\n      dup11\n        /* \"#utility.yul\":5470:5492   */\n      add\n        /* \"#utility.yul\":5449:5502   */\n      tag_443\n      jump\t// in\n    tag_604:\n        /* \"#utility.yul\":5439:5502   */\n      swap2\n      pop\n        /* \"#utility.yul\":5393:5512   */\n      pop\n        /* \"#utility.yul\":4462:5519   */\n      swap3\n      swap6\n      pop\n      swap3\n      swap6\n      pop\n      swap3\n      swap6\n      jump\t// out\n        /* \"#utility.yul\":5525:5642   */\n    tag_456:\n        /* \"#utility.yul\":5634:5635   */\n      0x00\n        /* \"#utility.yul\":5631:5632   */\n      dup1\n        /* \"#utility.yul\":5624:5636   */\n      revert\n        /* \"#utility.yul\":5648:5765   */\n    tag_457:\n        /* \"#utility.yul\":5757:5758   */\n      0x00\n        /* \"#utility.yul\":5754:5755   */\n      dup1\n        /* \"#utility.yul\":5747:5759   */\n      revert\n        /* \"#utility.yul\":5771:5888   */\n    tag_458:\n        /* \"#utility.yul\":5880:5881   */\n      0x00\n        /* \"#utility.yul\":5877:5878   */\n      dup1\n        /* \"#utility.yul\":5870:5882   */\n      revert\n        /* \"#utility.yul\":5907:6459   */\n    tag_459:\n        /* \"#utility.yul\":5964:5972   */\n      0x00\n        /* \"#utility.yul\":5974:5980   */\n      dup1\n        /* \"#utility.yul\":6024:6027   */\n      dup4\n        /* \"#utility.yul\":6017:6021   */\n      0x1f\n        /* \"#utility.yul\":6009:6015   */\n      dup5\n        /* \"#utility.yul\":6005:6022   */\n      add\n        /* \"#utility.yul\":6001:6028   */\n      slt\n        /* \"#utility.yul\":5991:6113   */\n      tag_609\n      jumpi\n        /* \"#utility.yul\":6032:6111   */\n      tag_610\n      tag_456\n      jump\t// in\n    tag_610:\n        /* \"#utility.yul\":5991:6113   */\n    tag_609:\n        /* \"#utility.yul\":6145:6151   */\n      dup3\n        /* \"#utility.yul\":6132:6152   */\n      calldataload\n        /* \"#utility.yul\":6122:6152   */\n      swap1\n      pop\n        /* \"#utility.yul\":6175:6193   */\n      0xffffffffffffffff\n        /* \"#utility.yul\":6167:6173   */\n      dup2\n        /* \"#utility.yul\":6164:6194   */\n      gt\n        /* \"#utility.yul\":6161:6278   */\n      iszero\n      tag_611\n      jumpi\n        /* \"#utility.yul\":6197:6276   */\n      tag_612\n      tag_457\n      jump\t// in\n    tag_612:\n        /* \"#utility.yul\":6161:6278   */\n    tag_611:\n        /* \"#utility.yul\":6311:6315   */\n      0x20\n        /* \"#utility.yul\":6303:6309   */\n      dup4\n        /* \"#utility.yul\":6299:6316   */\n      add\n        /* \"#utility.yul\":6287:6316   */\n      swap2\n      pop\n        /* \"#utility.yul\":6365:6368   */\n      dup4\n        /* \"#utility.yul\":6357:6361   */\n      0x01\n        /* \"#utility.yul\":6349:6355   */\n      dup3\n        /* \"#utility.yul\":6345:6362   */\n      mul\n        /* \"#utility.yul\":6335:6343   */\n      dup4\n        /* \"#utility.yul\":6331:6363   */\n      add\n        /* \"#utility.yul\":6328:6369   */\n      gt\n        /* \"#utility.yul\":6325:6453   */\n      iszero\n      tag_613\n      jumpi\n        /* \"#utility.yul\":6372:6451   */\n      tag_614\n      tag_458\n      jump\t// in\n    tag_614:\n        /* \"#utility.yul\":6325:6453   */\n    tag_613:\n        /* \"#utility.yul\":5907:6459   */\n      swap3\n      pop\n      swap3\n      swap1\n      pop\n      jump\t// out\n        /* \"#utility.yul\":6465:7137   */\n    tag_86:\n        /* \"#utility.yul\":6544:6550   */\n      0x00\n        /* \"#utility.yul\":6552:6558   */\n      dup1\n        /* \"#utility.yul\":6560:6566   */\n      0x00\n        /* \"#utility.yul\":6609:6611   */\n      0x40\n        /* \"#utility.yul\":6597:6606   */\n      dup5\n        /* \"#utility.yul\":6588:6595   */\n      dup7\n        /* \"#utility.yul\":6584:6607   */\n      sub\n        /* \"#utility.yul\":6580:6612   */\n      slt\n        /* \"#utility.yul\":6577:6696   */\n      iszero\n      tag_616\n      jumpi\n        /* \"#utility.yul\":6615:6694   */\n      tag_617\n      tag_439\n      jump\t// in\n    tag_617:\n        /* \"#utility.yul\":6577:6696   */\n    tag_616:\n        /* \"#utility.yul\":6735:6736   */\n      0x00\n        /* \"#utility.yul\":6760:6813   */\n      tag_618\n        /* \"#utility.yul\":6805:6812   */\n      dup7\n        /* \"#utility.yul\":6796:6802   */\n      dup3\n        /* \"#utility.yul\":6785:6794   */\n      dup8\n        /* \"#utility.yul\":6781:6803   */\n      add\n        /* \"#utility.yul\":6760:6813   */\n      tag_443\n      jump\t// in\n    tag_618:\n        /* \"#utility.yul\":6750:6813   */\n      swap4\n      pop\n        /* \"#utility.yul\":6706:6823   */\n      pop\n        /* \"#utility.yul\":6890:6892   */\n      0x20\n        /* \"#utility.yul\":6879:6888   */\n      dup5\n        /* \"#utility.yul\":6875:6893   */\n      add\n        /* \"#utility.yul\":6862:6894   */\n      calldataload\n        /* \"#utility.yul\":6921:6939   */\n      0xffffffffffffffff\n        /* \"#utility.yul\":6913:6919   */\n      dup2\n        /* \"#utility.yul\":6910:6940   */\n      gt\n        /* \"#utility.yul\":6907:7024   */\n      iszero\n      tag_619\n      jumpi\n        /* \"#utility.yul\":6943:7022   */\n      tag_620\n      tag_440\n      jump\t// in\n    tag_620:\n        /* \"#utility.yul\":6907:7024   */\n    tag_619:\n        /* \"#utility.yul\":7056:7120   */\n      tag_621\n        /* \"#utility.yul\":7112:7119   */\n      dup7\n        /* \"#utility.yul\":7103:7109   */\n      dup3\n        /* \"#utility.yul\":7092:7101   */\n      dup8\n        /* \"#utility.yul\":7088:7110   */\n      add\n        /* \"#utility.yul\":7056:7120   */\n      tag_459\n      jump\t// in\n    tag_621:\n        /* \"#utility.yul\":7038:7120   */\n      swap3\n      pop\n      swap3\n      pop\n        /* \"#utility.yul\":6833:7130   */\n      pop\n        /* \"#utility.yul\":6465:7137   */\n      swap3\n      pop\n      swap3\n      pop\n      swap3\n      jump\t// out\n        /* \"#utility.yul\":7143:7260   */\n    tag_460:\n        /* \"#utility.yul\":7252:7253   */\n      0x00\n        /* \"#utility.yul\":7249:7250   */\n      dup1\n        /* \"#utility.yul\":7242:7254   */\n      revert\n        /* \"#utility.yul\":7266:7368   */\n    tag_461:\n        /* \"#utility.yul\":7307:7313   */\n      0x00\n        /* \"#utility.yul\":7358:7360   */\n      0x1f\n        /* \"#utility.yul\":7354:7361   */\n      not\n        /* \"#utility.yul\":7349:7351   */\n      0x1f\n        /* \"#utility.yul\":7342:7347   */\n      dup4\n        /* \"#utility.yul\":7338:7352   */\n      add\n        /* \"#utility.yul\":7334:7362   */\n      and\n        /* \"#utility.yul\":7324:7362   */\n      swap1\n      pop\n        /* \"#utility.yul\":7266:7368   */\n      swap2\n      swap1\n      pop\n      jump\t// out\n        /* \"#utility.yul\":7374:7554   */\n    tag_462:\n        /* \"#utility.yul\":7422:7499   */\n      0x4e487b7100000000000000000000000000000000000000000000000000000000\n        /* \"#utility.yul\":7419:7420   */\n      0x00\n        /* \"#utility.yul\":7412:7500   */\n      mstore\n        /* \"#utility.yul\":7519:7523   */\n      0x41\n        /* \"#utility.yul\":7516:7517   */\n      0x04\n        /* \"#utility.yul\":7509:7524   */\n      mstore\n        /* \"#utility.yul\":7543:7547   */\n      0x24\n        /* \"#utility.yul\":7540:7541   */\n      0x00\n        /* \"#utility.yul\":7533:7548   */\n      revert\n        /* \"#utility.yul\":7560:7841   */\n    tag_463:\n        /* \"#utility.yul\":7643:7670   */\n      tag_626\n        /* \"#utility.yul\":7665:7669   */\n      dup3\n        /* \"#utility.yul\":7643:7670   */\n      tag_461\n      jump\t// in\n    tag_626:\n        /* \"#utility.yul\":7635:7641   */\n      dup2\n        /* \"#utility.yul\":7631:7671   */\n      add\n        /* \"#utility.yul\":7773:7779   */\n      dup2\n        /* \"#utility.yul\":7761:7771   */\n      dup2\n        /* \"#utility.yul\":7758:7780   */\n      lt\n        /* \"#utility.yul\":7737:7755   */\n      0xffffffffffffffff\n        /* \"#utility.yul\":7725:7735   */\n      dup3\n        /* \"#utility.yul\":7722:7756   */\n      gt\n        /* \"#utility.yul\":7719:7781   */\n      or\n        /* \"#utility.yul\":7716:7804   */\n      iszero\n      tag_627\n      jumpi\n        /* \"#utility.yul\":7784:7802   */\n      tag_628\n      tag_462\n      jump\t// in\n    tag_628:\n        /* \"#utility.yul\":7716:7804   */\n    tag_627:\n        /* \"#utility.yul\":7824:7834   */\n      dup1\n        /* \"#utility.yul\":7820:7822   */\n      0x40\n        /* \"#utility.yul\":7813:7835   */\n      mstore\n        /* \"#utility.yul\":7603:7841   */\n      pop\n        /* \"#utility.yul\":7560:7841   */\n      pop\n      pop\n      jump\t// out\n        /* \"#utility.yul\":7847:7976   */\n    tag_464:\n        /* \"#utility.yul\":7881:7887   */\n      0x00\n        /* \"#utility.yul\":7908:7928   */\n      tag_630\n      tag_438\n      jump\t// in\n    tag_630:\n        /* \"#utility.yul\":7898:7928   */\n      swap1\n      pop\n        /* \"#utility.yul\":7937:7970   */\n      tag_631\n        /* \"#utility.yul\":7965:7969   */\n      dup3\n        /* \"#utility.yul\":7957:7963   */\n      dup3\n        /* \"#utility.yul\":7937:7970   */\n      tag_463\n      jump\t// in\n    tag_631:\n        /* \"#utility.yul\":7847:7976   */\n      swap2\n      swap1\n      pop\n      jump\t// out\n        /* \"#utility.yul\":7982:8289   */\n    tag_465:\n        /* \"#utility.yul\":8043:8047   */\n      0x00\n        /* \"#utility.yul\":8133:8151   */\n      0xffffffffffffffff\n        /* \"#utility.yul\":8125:8131   */\n      dup3\n        /* \"#utility.yul\":8122:8152   */\n      gt\n        /* \"#utility.yul\":8119:8175   */\n      iszero\n      tag_633\n      jumpi\n        /* \"#utility.yul\":8155:8173   */\n      tag_634\n      tag_462\n      jump\t// in\n    tag_634:\n        /* \"#utility.yul\":8119:8175   */\n    tag_633:\n        /* \"#utility.yul\":8193:8222   */\n      tag_635\n        /* \"#utility.yul\":8215:8221   */\n      dup3\n        /* \"#utility.yul\":8193:8222   */\n      tag_461\n      jump\t// in\n    tag_635:\n        /* \"#utility.yul\":8185:8222   */\n      swap1\n      pop\n        /* \"#utility.yul\":8277:8281   */\n      0x20\n        /* \"#utility.yul\":8271:8275   */\n      dup2\n        /* \"#utility.yul\":8267:8282   */\n      add\n        /* \"#utility.yul\":8259:8282   */\n      swap1\n      pop\n        /* \"#utility.yul\":7982:8289   */\n      swap2\n      swap1\n      pop\n      jump\t// out\n        /* \"#utility.yul\":8295:8443   */\n    tag_466:\n        /* \"#utility.yul\":8393:8399   */\n      dup3\n        /* \"#utility.yul\":8388:8391   */\n      dup2\n        /* \"#utility.yul\":8383:8386   */\n      dup4\n        /* \"#utility.yul\":8370:8400   */\n      calldatacopy\n        /* \"#utility.yul\":8434:8435   */\n      0x00\n        /* \"#utility.yul\":8425:8431   */\n      dup4\n        /* \"#utility.yul\":8420:8423   */\n      dup4\n        /* \"#utility.yul\":8416:8432   */\n      add\n        /* \"#utility.yul\":8409:8436   */\n      mstore\n        /* \"#utility.yul\":8295:8443   */\n      pop\n      pop\n      pop\n      jump\t// out\n        /* \"#utility.yul\":8449:8872   */\n    tag_467:\n        /* \"#utility.yul\":8526:8531   */\n      0x00\n        /* \"#utility.yul\":8551:8616   */\n      tag_638\n        /* \"#utility.yul\":8567:8615   */\n      tag_639\n        /* \"#utility.yul\":8608:8614   */\n      dup5\n        /* \"#utility.yul\":8567:8615   */\n      tag_465\n      jump\t// in\n    tag_639:\n        /* \"#utility.yul\":8551:8616   */\n      tag_464\n      jump\t// in\n    tag_638:\n        /* \"#utility.yul\":8542:8616   */\n      swap1\n      pop\n        /* \"#utility.yul\":8639:8645   */\n      dup3\n        /* \"#utility.yul\":8632:8637   */\n      dup2\n        /* \"#utility.yul\":8625:8646   */\n      mstore\n        /* \"#utility.yul\":8677:8681   */\n      0x20\n        /* \"#utility.yul\":8670:8675   */\n      dup2\n        /* \"#utility.yul\":8666:8682   */\n      add\n        /* \"#utility.yul\":8715:8718   */\n      dup5\n        /* \"#utility.yul\":8706:8712   */\n      dup5\n        /* \"#utility.yul\":8701:8704   */\n      dup5\n        /* \"#utility.yul\":8697:8713   */\n      add\n        /* \"#utility.yul\":8694:8719   */\n      gt\n        /* \"#utility.yul\":8691:8803   */\n      iszero\n      tag_640\n      jumpi\n        /* \"#utility.yul\":8722:8801   */\n      tag_641\n      tag_460\n      jump\t// in\n    tag_641:\n        /* \"#utility.yul\":8691:8803   */\n    tag_640:\n        /* \"#utility.yul\":8812:8866   */\n      tag_642\n        /* \"#utility.yul\":8859:8865   */\n      dup5\n        /* \"#utility.yul\":8854:8857   */\n      dup3\n        /* \"#utility.yul\":8849:8852   */\n      dup6\n        /* \"#utility.yul\":8812:8866   */\n      tag_466\n      jump\t// in\n    tag_642:\n        /* \"#utility.yul\":8532:8872   */\n      pop\n        /* \"#utility.yul\":8449:8872   */\n      swap4\n      swap3\n      pop\n      pop\n      pop\n      jump\t// out\n        /* \"#utility.yul\":8891:9229   */\n    tag_468:\n        /* \"#utility.yul\":8946:8951   */\n      0x00\n        /* \"#utility.yul\":8995:8998   */\n      dup3\n        /* \"#utility.yul\":8988:8992   */\n      0x1f\n        /* \"#utility.yul\":8980:8986   */\n      dup4\n        /* \"#utility.yul\":8976:8993   */\n      add\n        /* \"#utility.yul\":8972:8999   */\n      slt\n        /* \"#utility.yul\":8962:9084   */\n      tag_644\n      jumpi\n        /* \"#utility.yul\":9003:9082   */\n      tag_645\n      tag_456\n      jump\t// in\n    tag_645:\n        /* \"#utility.yul\":8962:9084   */\n    tag_644:\n        /* \"#utility.yul\":9120:9126   */\n      dup2\n        /* \"#utility.yul\":9107:9127   */\n      calldataload\n        /* \"#utility.yul\":9145:9223   */\n      tag_646\n        /* \"#utility.yul\":9219:9222   */\n      dup5\n        /* \"#utility.yul\":9211:9217   */\n      dup3\n        /* \"#utility.yul\":9204:9208   */\n      0x20\n        /* \"#utility.yul\":9196:9202   */\n      dup7\n        /* \"#utility.yul\":9192:9209   */\n      add\n        /* \"#utility.yul\":9145:9223   */\n      tag_467\n      jump\t// in\n    tag_646:\n        /* \"#utility.yul\":9136:9223   */\n      swap2\n      pop\n        /* \"#utility.yul\":8952:9229   */\n      pop\n        /* \"#utility.yul\":8891:9229   */\n      swap3\n      swap2\n      pop\n      pop\n      jump\t// out\n        /* \"#utility.yul\":9235:9336   */\n    tag_469:\n        /* \"#utility.yul\":9271:9278   */\n      0x00\n        /* \"#utility.yul\":9311:9329   */\n      0xffffffffffffffff\n        /* \"#utility.yul\":9304:9309   */\n      dup3\n        /* \"#utility.yul\":9300:9330   */\n      and\n        /* \"#utility.yul\":9289:9330   */\n      swap1\n      pop\n        /* \"#utility.yul\":9235:9336   */\n      swap2\n      swap1\n      pop\n      jump\t// out\n        /* \"#utility.yul\":9342:9462   */\n    tag_470:\n        /* \"#utility.yul\":9414:9437   */\n      tag_649\n        /* \"#utility.yul\":9431:9436   */\n      dup2\n        /* \"#utility.yul\":9414:9437   */\n      tag_469\n      jump\t// in\n    tag_649:\n        /* \"#utility.yul\":9407:9412   */\n      dup2\n        /* \"#utility.yul\":9404:9438   */\n      eq\n        /* \"#utility.yul\":9394:9456   */\n      tag_650\n      jumpi\n        /* \"#utility.yul\":9452:9453   */\n      0x00\n        /* \"#utility.yul\":9449:9450   */\n      dup1\n        /* \"#utility.yul\":9442:9454   */\n      revert\n        /* \"#utility.yul\":9394:9456   */\n    tag_650:\n        /* \"#utility.yul\":9342:9462   */\n      pop\n      jump\t// out\n        /* \"#utility.yul\":9468:9605   */\n    tag_471:\n        /* \"#utility.yul\":9513:9518   */\n      0x00\n        /* \"#utility.yul\":9551:9557   */\n      dup2\n        /* \"#utility.yul\":9538:9558   */\n      calldataload\n        /* \"#utility.yul\":9529:9558   */\n      swap1\n      pop\n        /* \"#utility.yul\":9567:9599   */\n      tag_652\n        /* \"#utility.yul\":9593:9598   */\n      dup2\n        /* \"#utility.yul\":9567:9599   */\n      tag_470\n      jump\t// in\n    tag_652:\n        /* \"#utility.yul\":9468:9605   */\n      swap3\n      swap2\n      pop\n      pop\n      jump\t// out\n        /* \"#utility.yul\":9611:10876   */\n    tag_94:\n        /* \"#utility.yul\":9723:9729   */\n      0x00\n        /* \"#utility.yul\":9731:9737   */\n      dup1\n        /* \"#utility.yul\":9739:9745   */\n      0x00\n        /* \"#utility.yul\":9747:9753   */\n      dup1\n        /* \"#utility.yul\":9755:9761   */\n      0x00\n        /* \"#utility.yul\":9804:9807   */\n      0xa0\n        /* \"#utility.yul\":9792:9801   */\n      dup7\n        /* \"#utility.yul\":9783:9790   */\n      dup9\n        /* \"#utility.yul\":9779:9802   */\n      sub\n        /* \"#utility.yul\":9775:9808   */\n      slt\n        /* \"#utility.yul\":9772:9892   */\n      iszero\n      tag_654\n      jumpi\n        /* \"#utility.yul\":9811:9890   */\n      tag_655\n      tag_439\n      jump\t// in\n    tag_655:\n        /* \"#utility.yul\":9772:9892   */\n    tag_654:\n        /* \"#utility.yul\":9931:9932   */\n      0x00\n        /* \"#utility.yul\":9956:10009   */\n      tag_656\n        /* \"#utility.yul\":10001:10008   */\n      dup9\n        /* \"#utility.yul\":9992:9998   */\n      dup3\n        /* \"#utility.yul\":9981:9990   */\n      dup10\n        /* \"#utility.yul\":9977:9999   */\n      add\n        /* \"#utility.yul\":9956:10009   */\n      tag_443\n      jump\t// in\n    tag_656:\n        /* \"#utility.yul\":9946:10009   */\n      swap6\n      pop\n        /* \"#utility.yul\":9902:10019   */\n      pop\n        /* \"#utility.yul\":10086:10088   */\n      0x20\n        /* \"#utility.yul\":10075:10084   */\n      dup7\n        /* \"#utility.yul\":10071:10089   */\n      add\n        /* \"#utility.yul\":10058:10090   */\n      calldataload\n        /* \"#utility.yul\":10117:10135   */\n      0xffffffffffffffff\n        /* \"#utility.yul\":10109:10115   */\n      dup2\n        /* \"#utility.yul\":10106:10136   */\n      gt\n        /* \"#utility.yul\":10103:10220   */\n      iszero\n      tag_657\n      jumpi\n        /* \"#utility.yul\":10139:10218   */\n      tag_658\n      tag_440\n      jump\t// in\n    tag_658:\n        /* \"#utility.yul\":10103:10220   */\n    tag_657:\n        /* \"#utility.yul\":10244:10306   */\n      tag_659\n        /* \"#utility.yul\":10298:10305   */\n      dup9\n        /* \"#utility.yul\":10289:10295   */\n      dup3\n        /* \"#utility.yul\":10278:10287   */\n      dup10\n        /* \"#utility.yul\":10274:10296   */\n      add\n        /* \"#utility.yul\":10244:10306   */\n      tag_468\n      jump\t// in\n    tag_659:\n        /* \"#utility.yul\":10234:10306   */\n      swap5\n      pop\n        /* \"#utility.yul\":10029:10316   */\n      pop\n        /* \"#utility.yul\":10355:10357   */\n      0x40\n        /* \"#utility.yul\":10381:10434   */\n      tag_660\n        /* \"#utility.yul\":10426:10433   */\n      dup9\n        /* \"#utility.yul\":10417:10423   */\n      dup3\n        /* \"#utility.yul\":10406:10415   */\n      dup10\n        /* \"#utility.yul\":10402:10424   */\n      add\n        /* \"#utility.yul\":10381:10434   */\n      tag_447\n      jump\t// in\n    tag_660:\n        /* \"#utility.yul\":10371:10434   */\n      swap4\n      pop\n        /* \"#utility.yul\":10326:10444   */\n      pop\n        /* \"#utility.yul\":10483:10485   */\n      0x60\n        /* \"#utility.yul\":10509:10561   */\n      tag_661\n        /* \"#utility.yul\":10553:10560   */\n      dup9\n        /* \"#utility.yul\":10544:10550   */\n      dup3\n        /* \"#utility.yul\":10533:10542   */\n      dup10\n        /* \"#utility.yul\":10529:10551   */\n      add\n        /* \"#utility.yul\":10509:10561   */\n      tag_471\n      jump\t// in\n    tag_661:\n        /* \"#utility.yul\":10499:10561   */\n      swap3\n      pop\n        /* \"#utility.yul\":10454:10571   */\n      pop\n        /* \"#utility.yul\":10638:10641   */\n      0x80\n        /* \"#utility.yul\":10627:10636   */\n      dup7\n        /* \"#utility.yul\":10623:10642   */\n      add\n        /* \"#utility.yul\":10610:10643   */\n      calldataload\n        /* \"#utility.yul\":10670:10688   */\n      0xffffffffffffffff\n        /* \"#utility.yul\":10662:10668   */\n      dup2\n        /* \"#utility.yul\":10659:10689   */\n      gt\n        /* \"#utility.yul\":10656:10773   */\n      iszero\n      tag_662\n      jumpi\n        /* \"#utility.yul\":10692:10771   */\n      tag_663\n      tag_440\n      jump\t// in\n    tag_663:\n        /* \"#utility.yul\":10656:10773   */\n    tag_662:\n        /* \"#utility.yul\":10797:10859   */\n      tag_664\n        /* \"#utility.yul\":10851:10858   */\n      dup9\n        /* \"#utility.yul\":10842:10848   */\n      dup3\n        /* \"#utility.yul\":10831:10840   */\n      dup10\n        /* \"#utility.yul\":10827:10849   */\n      add\n        /* \"#utility.yul\":10797:10859   */\n      tag_468\n      jump\t// in\n    tag_664:\n        /* \"#utility.yul\":10787:10859   */\n      swap2\n      pop\n        /* \"#utility.yul\":10581:10869   */\n      pop\n        /* \"#utility.yul\":9611:10876   */\n      swap3\n      swap6\n      pop\n      swap3\n      swap6\n      swap1\n      swap4\n      pop\n      jump\t// out\n        /* \"#utility.yul\":10882:10990   */\n    tag_472:\n        /* \"#utility.yul\":10959:10983   */\n      tag_666\n        /* \"#utility.yul\":10977:10982   */\n      dup2\n        /* \"#utility.yul\":10959:10983   */\n      tag_453\n      jump\t// in\n    tag_666:\n        /* \"#utility.yul\":10954:10957   */\n      dup3\n        /* \"#utility.yul\":10947:10984   */\n      mstore\n        /* \"#utility.yul\":10882:10990   */\n      pop\n      pop\n      jump\t// out\n        /* \"#utility.yul\":10996:11104   */\n    tag_473:\n        /* \"#utility.yul\":11073:11097   */\n      tag_668\n        /* \"#utility.yul\":11091:11096   */\n      dup2\n        /* \"#utility.yul\":11073:11097   */\n      tag_441\n      jump\t// in\n    tag_668:\n        /* \"#utility.yul\":11068:11071   */\n      dup3\n        /* \"#utility.yul\":11061:11098   */\n      mstore\n        /* \"#utility.yul\":10996:11104   */\n      pop\n      pop\n      jump\t// out\n        /* \"#utility.yul\":11110:11218   */\n    tag_474:\n        /* \"#utility.yul\":11187:11211   */\n      tag_670\n        /* \"#utility.yul\":11205:11210   */\n      dup2\n        /* \"#utility.yul\":11187:11211   */\n      tag_445\n      jump\t// in\n    tag_670:\n        /* \"#utility.yul\":11182:11185   */\n      dup3\n        /* \"#utility.yul\":11175:11212   */\n      mstore\n        /* \"#utility.yul\":11110:11218   */\n      pop\n      pop\n      jump\t// out\n        /* \"#utility.yul\":11294:12541   */\n    tag_475:\n        /* \"#utility.yul\":11443:11447   */\n      0xc0\n        /* \"#utility.yul\":11438:11441   */\n      dup3\n        /* \"#utility.yul\":11434:11448   */\n      add\n        /* \"#utility.yul\":11535:11539   */\n      0x00\n        /* \"#utility.yul\":11528:11533   */\n      dup3\n        /* \"#utility.yul\":11524:11540   */\n      add\n        /* \"#utility.yul\":11518:11541   */\n      mload\n        /* \"#utility.yul\":11554:11617   */\n      tag_672\n        /* \"#utility.yul\":11611:11615   */\n      0x00\n        /* \"#utility.yul\":11606:11609   */\n      dup6\n        /* \"#utility.yul\":11602:11616   */\n      add\n        /* \"#utility.yul\":11588:11600   */\n      dup3\n        /* \"#utility.yul\":11554:11617   */\n      tag_472\n      jump\t// in\n    tag_672:\n        /* \"#utility.yul\":11458:11627   */\n      pop\n        /* \"#utility.yul\":11716:11720   */\n      0x20\n        /* \"#utility.yul\":11709:11714   */\n      dup3\n        /* \"#utility.yul\":11705:11721   */\n      add\n        /* \"#utility.yul\":11699:11722   */\n      mload\n        /* \"#utility.yul\":11735:11798   */\n      tag_673\n        /* \"#utility.yul\":11792:11796   */\n      0x20\n        /* \"#utility.yul\":11787:11790   */\n      dup6\n        /* \"#utility.yul\":11783:11797   */\n      add\n        /* \"#utility.yul\":11769:11781   */\n      dup3\n        /* \"#utility.yul\":11735:11798   */\n      tag_472\n      jump\t// in\n    tag_673:\n        /* \"#utility.yul\":11637:11808   */\n      pop\n        /* \"#utility.yul\":11889:11893   */\n      0x40\n        /* \"#utility.yul\":11882:11887   */\n      dup3\n        /* \"#utility.yul\":11878:11894   */\n      add\n        /* \"#utility.yul\":11872:11895   */\n      mload\n        /* \"#utility.yul\":11908:11971   */\n      tag_674\n        /* \"#utility.yul\":11965:11969   */\n      0x40\n        /* \"#utility.yul\":11960:11963   */\n      dup6\n        /* \"#utility.yul\":11956:11970   */\n      add\n        /* \"#utility.yul\":11942:11954   */\n      dup3\n        /* \"#utility.yul\":11908:11971   */\n      tag_473\n      jump\t// in\n    tag_674:\n        /* \"#utility.yul\":11818:11981   */\n      pop\n        /* \"#utility.yul\":12067:12071   */\n      0x60\n        /* \"#utility.yul\":12060:12065   */\n      dup3\n        /* \"#utility.yul\":12056:12072   */\n      add\n        /* \"#utility.yul\":12050:12073   */\n      mload\n        /* \"#utility.yul\":12086:12149   */\n      tag_675\n        /* \"#utility.yul\":12143:12147   */\n      0x60\n        /* \"#utility.yul\":12138:12141   */\n      dup6\n        /* \"#utility.yul\":12134:12148   */\n      add\n        /* \"#utility.yul\":12120:12132   */\n      dup3\n        /* \"#utility.yul\":12086:12149   */\n      tag_474\n      jump\t// in\n    tag_675:\n        /* \"#utility.yul\":11991:12159   */\n      pop\n        /* \"#utility.yul\":12255:12259   */\n      0x80\n        /* \"#utility.yul\":12248:12253   */\n      dup3\n        /* \"#utility.yul\":12244:12260   */\n      add\n        /* \"#utility.yul\":12238:12261   */\n      mload\n        /* \"#utility.yul\":12274:12337   */\n      tag_676\n        /* \"#utility.yul\":12331:12335   */\n      0x80\n        /* \"#utility.yul\":12326:12329   */\n      dup6\n        /* \"#utility.yul\":12322:12336   */\n      add\n        /* \"#utility.yul\":12308:12320   */\n      dup3\n        /* \"#utility.yul\":12274:12337   */\n      tag_473\n      jump\t// in\n    tag_676:\n        /* \"#utility.yul\":12169:12347   */\n      pop\n        /* \"#utility.yul\":12442:12446   */\n      0xa0\n        /* \"#utility.yul\":12435:12440   */\n      dup3\n        /* \"#utility.yul\":12431:12447   */\n      add\n        /* \"#utility.yul\":12425:12448   */\n      mload\n        /* \"#utility.yul\":12461:12524   */\n      tag_677\n        /* \"#utility.yul\":12518:12522   */\n      0xa0\n        /* \"#utility.yul\":12513:12516   */\n      dup6\n        /* \"#utility.yul\":12509:12523   */\n      add\n        /* \"#utility.yul\":12495:12507   */\n      dup3\n        /* \"#utility.yul\":12461:12524   */\n      tag_473\n      jump\t// in\n    tag_677:\n        /* \"#utility.yul\":12357:12534   */\n      pop\n        /* \"#utility.yul\":11412:12541   */\n      pop\n        /* \"#utility.yul\":11294:12541   */\n      pop\n      pop\n      jump\t// out\n        /* \"#utility.yul\":12547:12874   */\n    tag_114:\n        /* \"#utility.yul\":12692:12696   */\n      0x00\n        /* \"#utility.yul\":12730:12733   */\n      0xc0\n        /* \"#utility.yul\":12719:12728   */\n      dup3\n        /* \"#utility.yul\":12715:12734   */\n      add\n        /* \"#utility.yul\":12707:12734   */\n      swap1\n      pop\n        /* \"#utility.yul\":12744:12867   */\n      tag_679\n        /* \"#utility.yul\":12864:12865   */\n      0x00\n        /* \"#utility.yul\":12853:12862   */\n      dup4\n        /* \"#utility.yul\":12849:12866   */\n      add\n        /* \"#utility.yul\":12840:12846   */\n      dup5\n        /* \"#utility.yul\":12744:12867   */\n      tag_475\n      jump\t// in\n    tag_679:\n        /* \"#utility.yul\":12547:12874   */\n      swap3\n      swap2\n      pop\n      pop\n      jump\t// out\n        /* \"#utility.yul\":12880:12998   */\n    tag_476:\n        /* \"#utility.yul\":12967:12991   */\n      tag_681\n        /* \"#utility.yul\":12985:12990   */\n      dup2\n        /* \"#utility.yul\":12967:12991   */\n      tag_445\n      jump\t// in\n    tag_681:\n        /* \"#utility.yul\":12962:12965   */\n      dup3\n        /* \"#utility.yul\":12955:12992   */\n      mstore\n        /* \"#utility.yul\":12880:12998   */\n      pop\n      pop\n      jump\t// out\n        /* \"#utility.yul\":13004:13102   */\n    tag_477:\n        /* \"#utility.yul\":13055:13061   */\n      0x00\n        /* \"#utility.yul\":13089:13094   */\n      dup2\n        /* \"#utility.yul\":13083:13095   */\n      mload\n        /* \"#utility.yul\":13073:13095   */\n      swap1\n      pop\n        /* \"#utility.yul\":13004:13102   */\n      swap2\n      swap1\n      pop\n      jump\t// out\n        /* \"#utility.yul\":13108:13276   */\n    tag_478:\n        /* \"#utility.yul\":13191:13202   */\n      0x00\n        /* \"#utility.yul\":13225:13231   */\n      dup3\n        /* \"#utility.yul\":13220:13223   */\n      dup3\n        /* \"#utility.yul\":13213:13232   */\n      mstore\n        /* \"#utility.yul\":13265:13269   */\n      0x20\n        /* \"#utility.yul\":13260:13263   */\n      dup3\n        /* \"#utility.yul\":13256:13270   */\n      add\n        /* \"#utility.yul\":13241:13270   */\n      swap1\n      pop\n        /* \"#utility.yul\":13108:13276   */\n      swap3\n      swap2\n      pop\n      pop\n      jump\t// out\n        /* \"#utility.yul\":13282:13421   */\n    tag_479:\n        /* \"#utility.yul\":13371:13377   */\n      dup3\n        /* \"#utility.yul\":13366:13369   */\n      dup2\n        /* \"#utility.yul\":13361:13364   */\n      dup4\n        /* \"#utility.yul\":13355:13378   */\n      mcopy\n        /* \"#utility.yul\":13412:13413   */\n      0x00\n        /* \"#utility.yul\":13403:13409   */\n      dup4\n        /* \"#utility.yul\":13398:13401   */\n      dup4\n        /* \"#utility.yul\":13394:13410   */\n      add\n        /* \"#utility.yul\":13387:13414   */\n      mstore\n        /* \"#utility.yul\":13282:13421   */\n      pop\n      pop\n      pop\n      jump\t// out\n        /* \"#utility.yul\":13427:13800   */\n    tag_480:\n        /* \"#utility.yul\":13513:13516   */\n      0x00\n        /* \"#utility.yul\":13541:13579   */\n      tag_686\n        /* \"#utility.yul\":13573:13578   */\n      dup3\n        /* \"#utility.yul\":13541:13579   */\n      tag_477\n      jump\t// in\n    tag_686:\n        /* \"#utility.yul\":13595:13665   */\n      tag_687\n        /* \"#utility.yul\":13658:13664   */\n      dup2\n        /* \"#utility.yul\":13653:13656   */\n      dup6\n        /* \"#utility.yul\":13595:13665   */\n      tag_478\n      jump\t// in\n    tag_687:\n        /* \"#utility.yul\":13588:13665   */\n      swap4\n      pop\n        /* \"#utility.yul\":13674:13739   */\n      tag_688\n        /* \"#utility.yul\":13732:13738   */\n      dup2\n        /* \"#utility.yul\":13727:13730   */\n      dup6\n        /* \"#utility.yul\":13720:13724   */\n      0x20\n        /* \"#utility.yul\":13713:13718   */\n      dup7\n        /* \"#utility.yul\":13709:13725   */\n      add\n        /* \"#utility.yul\":13674:13739   */\n      tag_479\n      jump\t// in\n    tag_688:\n        /* \"#utility.yul\":13764:13793   */\n      tag_689\n        /* \"#utility.yul\":13786:13792   */\n      dup2\n        /* \"#utility.yul\":13764:13793   */\n      tag_461\n      jump\t// in\n    tag_689:\n        /* \"#utility.yul\":13759:13762   */\n      dup5\n        /* \"#utility.yul\":13755:13794   */\n      add\n        /* \"#utility.yul\":13748:13794   */\n      swap2\n      pop\n        /* \"#utility.yul\":13517:13800   */\n      pop\n        /* \"#utility.yul\":13427:13800   */\n      swap3\n      swap2\n      pop\n      pop\n      jump\t// out\n        /* \"#utility.yul\":13806:13921   */\n    tag_481:\n        /* \"#utility.yul\":13891:13914   */\n      tag_691\n        /* \"#utility.yul\":13908:13913   */\n      dup2\n        /* \"#utility.yul\":13891:13914   */\n      tag_469\n      jump\t// in\n    tag_691:\n        /* \"#utility.yul\":13886:13889   */\n      dup3\n        /* \"#utility.yul\":13879:13915   */\n      mstore\n        /* \"#utility.yul\":13806:13921   */\n      pop\n      pop\n      jump\t// out\n        /* \"#utility.yul\":13927:14983   */\n    tag_123:\n        /* \"#utility.yul\":14222:14226   */\n      0x00\n        /* \"#utility.yul\":14260:14263   */\n      0xe0\n        /* \"#utility.yul\":14249:14258   */\n      dup3\n        /* \"#utility.yul\":14245:14264   */\n      add\n        /* \"#utility.yul\":14237:14264   */\n      swap1\n      pop\n        /* \"#utility.yul\":14274:14345   */\n      tag_693\n        /* \"#utility.yul\":14342:14343   */\n      0x00\n        /* \"#utility.yul\":14331:14340   */\n      dup4\n        /* \"#utility.yul\":14327:14344   */\n      add\n        /* \"#utility.yul\":14318:14324   */\n      dup11\n        /* \"#utility.yul\":14274:14345   */\n      tag_476\n      jump\t// in\n    tag_693:\n        /* \"#utility.yul\":14355:14427   */\n      tag_694\n        /* \"#utility.yul\":14423:14425   */\n      0x20\n        /* \"#utility.yul\":14412:14421   */\n      dup4\n        /* \"#utility.yul\":14408:14426   */\n      add\n        /* \"#utility.yul\":14399:14405   */\n      dup10\n        /* \"#utility.yul\":14355:14427   */\n      tag_448\n      jump\t// in\n    tag_694:\n        /* \"#utility.yul\":14437:14509   */\n      tag_695\n        /* \"#utility.yul\":14505:14507   */\n      0x40\n        /* \"#utility.yul\":14494:14503   */\n      dup4\n        /* \"#utility.yul\":14490:14508   */\n      add\n        /* \"#utility.yul\":14481:14487   */\n      dup9\n        /* \"#utility.yul\":14437:14509   */\n      tag_448\n      jump\t// in\n    tag_695:\n        /* \"#utility.yul\":14556:14565   */\n      dup2\n        /* \"#utility.yul\":14550:14554   */\n      dup2\n        /* \"#utility.yul\":14546:14566   */\n      sub\n        /* \"#utility.yul\":14541:14543   */\n      0x60\n        /* \"#utility.yul\":14530:14539   */\n      dup4\n        /* \"#utility.yul\":14526:14544   */\n      add\n        /* \"#utility.yul\":14519:14567   */\n      mstore\n        /* \"#utility.yul\":14584:14660   */\n      tag_696\n        /* \"#utility.yul\":14655:14659   */\n      dup2\n        /* \"#utility.yul\":14646:14652   */\n      dup8\n        /* \"#utility.yul\":14584:14660   */\n      tag_480\n      jump\t// in\n    tag_696:\n        /* \"#utility.yul\":14576:14660   */\n      swap1\n      pop\n        /* \"#utility.yul\":14670:14743   */\n      tag_697\n        /* \"#utility.yul\":14738:14741   */\n      0x80\n        /* \"#utility.yul\":14727:14736   */\n      dup4\n        /* \"#utility.yul\":14723:14742   */\n      add\n        /* \"#utility.yul\":14714:14720   */\n      dup7\n        /* \"#utility.yul\":14670:14743   */\n      tag_476\n      jump\t// in\n    tag_697:\n        /* \"#utility.yul\":14753:14824   */\n      tag_698\n        /* \"#utility.yul\":14819:14822   */\n      0xa0\n        /* \"#utility.yul\":14808:14817   */\n      dup4\n        /* \"#utility.yul\":14804:14823   */\n      add\n        /* \"#utility.yul\":14795:14801   */\n      dup6\n        /* \"#utility.yul\":14753:14824   */\n      tag_481\n      jump\t// in\n    tag_698:\n        /* \"#utility.yul\":14872:14881   */\n      dup2\n        /* \"#utility.yul\":14866:14870   */\n      dup2\n        /* \"#utility.yul\":14862:14882   */\n      sub\n        /* \"#utility.yul\":14856:14859   */\n      0xc0\n        /* \"#utility.yul\":14845:14854   */\n      dup4\n        /* \"#utility.yul\":14841:14860   */\n      add\n        /* \"#utility.yul\":14834:14883   */\n      mstore\n        /* \"#utility.yul\":14900:14976   */\n      tag_699\n        /* \"#utility.yul\":14971:14975   */\n      dup2\n        /* \"#utility.yul\":14962:14968   */\n      dup5\n        /* \"#utility.yul\":14900:14976   */\n      tag_480\n      jump\t// in\n    tag_699:\n        /* \"#utility.yul\":14892:14976   */\n      swap1\n      pop\n        /* \"#utility.yul\":13927:14983   */\n      swap9\n      swap8\n      pop\n      pop\n      pop\n      pop\n      pop\n      pop\n      pop\n      pop\n      jump\t// out\n        /* \"#utility.yul\":14989:15211   */\n    tag_132:\n        /* \"#utility.yul\":15082:15086   */\n      0x00\n        /* \"#utility.yul\":15120:15122   */\n      0x20\n        /* \"#utility.yul\":15109:15118   */\n      dup3\n        /* \"#utility.yul\":15105:15123   */\n      add\n        /* \"#utility.yul\":15097:15123   */\n      swap1\n      pop\n        /* \"#utility.yul\":15133:15204   */\n      tag_701\n        /* \"#utility.yul\":15201:15202   */\n      0x00\n        /* \"#utility.yul\":15190:15199   */\n      dup4\n        /* \"#utility.yul\":15186:15203   */\n      add\n        /* \"#utility.yul\":15177:15183   */\n      dup5\n        /* \"#utility.yul\":15133:15204   */\n      tag_476\n      jump\t// in\n    tag_701:\n        /* \"#utility.yul\":14989:15211   */\n      swap3\n      swap2\n      pop\n      pop\n      jump\t// out\n        /* \"#utility.yul\":15217:15277   */\n    tag_482:\n        /* \"#utility.yul\":15245:15248   */\n      0x00\n        /* \"#utility.yul\":15266:15271   */\n      dup2\n        /* \"#utility.yul\":15259:15271   */\n      swap1\n      pop\n        /* \"#utility.yul\":15217:15277   */\n      swap2\n      swap1\n      pop\n      jump\t// out\n        /* \"#utility.yul\":15283:15425   */\n    tag_483:\n        /* \"#utility.yul\":15333:15342   */\n      0x00\n        /* \"#utility.yul\":15366:15419   */\n      tag_704\n        /* \"#utility.yul\":15384:15418   */\n      tag_705\n        /* \"#utility.yul\":15393:15417   */\n      tag_706\n        /* \"#utility.yul\":15411:15416   */\n      dup5\n        /* \"#utility.yul\":15393:15417   */\n      tag_444\n      jump\t// in\n    tag_706:\n        /* \"#utility.yul\":15384:15418   */\n      tag_482\n      jump\t// in\n    tag_705:\n        /* \"#utility.yul\":15366:15419   */\n      tag_444\n      jump\t// in\n    tag_704:\n        /* \"#utility.yul\":15353:15419   */\n      swap1\n      pop\n        /* \"#utility.yul\":15283:15425   */\n      swap2\n      swap1\n      pop\n      jump\t// out\n        /* \"#utility.yul\":15431:15557   */\n    tag_484:\n        /* \"#utility.yul\":15481:15490   */\n      0x00\n        /* \"#utility.yul\":15514:15551   */\n      tag_708\n        /* \"#utility.yul\":15545:15550   */\n      dup3\n        /* \"#utility.yul\":15514:15551   */\n      tag_483\n      jump\t// in\n    tag_708:\n        /* \"#utility.yul\":15501:15551   */\n      swap1\n      pop\n        /* \"#utility.yul\":15431:15557   */\n      swap2\n      swap1\n      pop\n      jump\t// out\n        /* \"#utility.yul\":15563:15702   */\n    tag_485:\n        /* \"#utility.yul\":15626:15635   */\n      0x00\n        /* \"#utility.yul\":15659:15696   */\n      tag_710\n        /* \"#utility.yul\":15690:15695   */\n      dup3\n        /* \"#utility.yul\":15659:15696   */\n      tag_484\n      jump\t// in\n    tag_710:\n        /* \"#utility.yul\":15646:15696   */\n      swap1\n      pop\n        /* \"#utility.yul\":15563:15702   */\n      swap2\n      swap1\n      pop\n      jump\t// out\n        /* \"#utility.yul\":15708:15865   */\n    tag_486:\n        /* \"#utility.yul\":15808:15858   */\n      tag_712\n        /* \"#utility.yul\":15852:15857   */\n      dup2\n        /* \"#utility.yul\":15808:15858   */\n      tag_485\n      jump\t// in\n    tag_712:\n        /* \"#utility.yul\":15803:15806   */\n      dup3\n        /* \"#utility.yul\":15796:15859   */\n      mstore\n        /* \"#utility.yul\":15708:15865   */\n      pop\n      pop\n      jump\t// out\n        /* \"#utility.yul\":15871:16119   */\n    tag_137:\n        /* \"#utility.yul\":15977:15981   */\n      0x00\n        /* \"#utility.yul\":16015:16017   */\n      0x20\n        /* \"#utility.yul\":16004:16013   */\n      dup3\n        /* \"#utility.yul\":16000:16018   */\n      add\n        /* \"#utility.yul\":15992:16018   */\n      swap1\n      pop\n        /* \"#utility.yul\":16028:16112   */\n      tag_714\n        /* \"#utility.yul\":16109:16110   */\n      0x00\n        /* \"#utility.yul\":16098:16107   */\n      dup4\n        /* \"#utility.yul\":16094:16111   */\n      add\n        /* \"#utility.yul\":16085:16091   */\n      dup5\n        /* \"#utility.yul\":16028:16112   */\n      tag_486\n      jump\t// in\n    tag_714:\n        /* \"#utility.yul\":15871:16119   */\n      swap3\n      swap2\n      pop\n      pop\n      jump\t// out\n        /* \"#utility.yul\":16125:16434   */\n    tag_146:\n        /* \"#utility.yul\":16236:16240   */\n      0x00\n        /* \"#utility.yul\":16274:16276   */\n      0x20\n        /* \"#utility.yul\":16263:16272   */\n      dup3\n        /* \"#utility.yul\":16259:16277   */\n      add\n        /* \"#utility.yul\":16251:16277   */\n      swap1\n      pop\n        /* \"#utility.yul\":16323:16332   */\n      dup2\n        /* \"#utility.yul\":16317:16321   */\n      dup2\n        /* \"#utility.yul\":16313:16333   */\n      sub\n        /* \"#utility.yul\":16309:16310   */\n      0x00\n        /* \"#utility.yul\":16298:16307   */\n      dup4\n        /* \"#utility.yul\":16294:16311   */\n      add\n        /* \"#utility.yul\":16287:16334   */\n      mstore\n        /* \"#utility.yul\":16351:16427   */\n      tag_716\n        /* \"#utility.yul\":16422:16426   */\n      dup2\n        /* \"#utility.yul\":16413:16419   */\n      dup5\n        /* \"#utility.yul\":16351:16427   */\n      tag_480\n      jump\t// in\n    tag_716:\n        /* \"#utility.yul\":16343:16427   */\n      swap1\n      pop\n        /* \"#utility.yul\":16125:16434   */\n      swap3\n      swap2\n      pop\n      pop\n      jump\t// out\n        /* \"#utility.yul\":16440:16609   */\n    tag_487:\n        /* \"#utility.yul\":16524:16535   */\n      0x00\n        /* \"#utility.yul\":16558:16564   */\n      dup3\n        /* \"#utility.yul\":16553:16556   */\n      dup3\n        /* \"#utility.yul\":16546:16565   */\n      mstore\n        /* \"#utility.yul\":16598:16602   */\n      0x20\n        /* \"#utility.yul\":16593:16596   */\n      dup3\n        /* \"#utility.yul\":16589:16603   */\n      add\n        /* \"#utility.yul\":16574:16603   */\n      swap1\n      pop\n        /* \"#utility.yul\":16440:16609   */\n      swap3\n      swap2\n      pop\n      pop\n      jump\t// out\n        /* \"#utility.yul\":16615:16778   */\n    tag_488:\n        /* \"#utility.yul\":16755:16770   */\n      0x4e6f7420746865206f776e657200000000000000000000000000000000000000\n        /* \"#utility.yul\":16751:16752   */\n      0x00\n        /* \"#utility.yul\":16743:16749   */\n      dup3\n        /* \"#utility.yul\":16739:16753   */\n      add\n        /* \"#utility.yul\":16732:16771   */\n      mstore\n        /* \"#utility.yul\":16615:16778   */\n      pop\n      jump\t// out\n        /* \"#utility.yul\":16784:17150   */\n    tag_489:\n        /* \"#utility.yul\":16926:16929   */\n      0x00\n        /* \"#utility.yul\":16947:17014   */\n      tag_720\n        /* \"#utility.yul\":17011:17013   */\n      0x0d\n        /* \"#utility.yul\":17006:17009   */\n      dup4\n        /* \"#utility.yul\":16947:17014   */\n      tag_487\n      jump\t// in\n    tag_720:\n        /* \"#utility.yul\":16940:17014   */\n      swap2\n      pop\n        /* \"#utility.yul\":17023:17116   */\n      tag_721\n        /* \"#utility.yul\":17112:17115   */\n      dup3\n        /* \"#utility.yul\":17023:17116   */\n      tag_488\n      jump\t// in\n    tag_721:\n        /* \"#utility.yul\":17141:17143   */\n      0x20\n        /* \"#utility.yul\":17136:17139   */\n      dup3\n        /* \"#utility.yul\":17132:17144   */\n      add\n        /* \"#utility.yul\":17125:17144   */\n      swap1\n      pop\n        /* \"#utility.yul\":16784:17150   */\n      swap2\n      swap1\n      pop\n      jump\t// out\n        /* \"#utility.yul\":17156:17575   */\n    tag_172:\n        /* \"#utility.yul\":17322:17326   */\n      0x00\n        /* \"#utility.yul\":17360:17362   */\n      0x20\n        /* \"#utility.yul\":17349:17358   */\n      dup3\n        /* \"#utility.yul\":17345:17363   */\n      add\n        /* \"#utility.yul\":17337:17363   */\n      swap1\n      pop\n        /* \"#utility.yul\":17409:17418   */\n      dup2\n        /* \"#utility.yul\":17403:17407   */\n      dup2\n        /* \"#utility.yul\":17399:17419   */\n      sub\n        /* \"#utility.yul\":17395:17396   */\n      0x00\n        /* \"#utility.yul\":17384:17393   */\n      dup4\n        /* \"#utility.yul\":17380:17397   */\n      add\n        /* \"#utility.yul\":17373:17420   */\n      mstore\n        /* \"#utility.yul\":17437:17568   */\n      tag_723\n        /* \"#utility.yul\":17563:17567   */\n      dup2\n        /* \"#utility.yul\":17437:17568   */\n      tag_489\n      jump\t// in\n    tag_723:\n        /* \"#utility.yul\":17429:17568   */\n      swap1\n      pop\n        /* \"#utility.yul\":17156:17575   */\n      swap2\n      swap1\n      pop\n      jump\t// out\n        /* \"#utility.yul\":17581:17751   */\n    tag_490:\n        /* \"#utility.yul\":17721:17743   */\n      0x6d6f64656c20646f6573206e6f74206578697374000000000000000000000000\n        /* \"#utility.yul\":17717:17718   */\n      0x00\n        /* \"#utility.yul\":17709:17715   */\n      dup3\n        /* \"#utility.yul\":17705:17719   */\n      add\n        /* \"#utility.yul\":17698:17744   */\n      mstore\n        /* \"#utility.yul\":17581:17751   */\n      pop\n      jump\t// out\n        /* \"#utility.yul\":17757:18123   */\n    tag_491:\n        /* \"#utility.yul\":17899:17902   */\n      0x00\n        /* \"#utility.yul\":17920:17987   */\n      tag_726\n        /* \"#utility.yul\":17984:17986   */\n      0x14\n        /* \"#utility.yul\":17979:17982   */\n      dup4\n        /* \"#utility.yul\":17920:17987   */\n      tag_487\n      jump\t// in\n    tag_726:\n        /* \"#utility.yul\":17913:17987   */\n      swap2\n      pop\n        /* \"#utility.yul\":17996:18089   */\n      tag_727\n        /* \"#utility.yul\":18085:18088   */\n      dup3\n        /* \"#utility.yul\":17996:18089   */\n      tag_490\n      jump\t// in\n    tag_727:\n        /* \"#utility.yul\":18114:18116   */\n      0x20\n        /* \"#utility.yul\":18109:18112   */\n      dup3\n        /* \"#utility.yul\":18105:18117   */\n      add\n        /* \"#utility.yul\":18098:18117   */\n      swap1\n      pop\n        /* \"#utility.yul\":17757:18123   */\n      swap2\n      swap1\n      pop\n      jump\t// out\n        /* \"#utility.yul\":18129:18548   */\n    tag_176:\n        /* \"#utility.yul\":18295:18299   */\n      0x00\n        /* \"#utility.yul\":18333:18335   */\n      0x20\n        /* \"#utility.yul\":18322:18331   */\n      dup3\n        /* \"#utility.yul\":18318:18336   */\n      add\n        /* \"#utility.yul\":18310:18336   */\n      swap1\n      pop\n        /* \"#utility.yul\":18382:18391   */\n      dup2\n        /* \"#utility.yul\":18376:18380   */\n      dup2\n        /* \"#utility.yul\":18372:18392   */\n      sub\n        /* \"#utility.yul\":18368:18369   */\n      0x00\n        /* \"#utility.yul\":18357:18366   */\n      dup4\n        /* \"#utility.yul\":18353:18370   */\n      add\n        /* \"#utility.yul\":18346:18393   */\n      mstore\n        /* \"#utility.yul\":18410:18541   */\n      tag_729\n        /* \"#utility.yul\":18536:18540   */\n      dup2\n        /* \"#utility.yul\":18410:18541   */\n      tag_491\n      jump\t// in\n    tag_729:\n        /* \"#utility.yul\":18402:18541   */\n      swap1\n      pop\n        /* \"#utility.yul\":18129:18548   */\n      swap2\n      swap1\n      pop\n      jump\t// out\n        /* \"#utility.yul\":18554:18734   */\n    tag_492:\n        /* \"#utility.yul\":18602:18679   */\n      0x4e487b7100000000000000000000000000000000000000000000000000000000\n        /* \"#utility.yul\":18599:18600   */\n      0x00\n        /* \"#utility.yul\":18592:18680   */\n      mstore\n        /* \"#utility.yul\":18699:18703   */\n      0x11\n        /* \"#utility.yul\":18696:18697   */\n      0x04\n        /* \"#utility.yul\":18689:18704   */\n      mstore\n        /* \"#utility.yul\":18723:18727   */\n      0x24\n        /* \"#utility.yul\":18720:18721   */\n      0x00\n        /* \"#utility.yul\":18713:18728   */\n      revert\n        /* \"#utility.yul\":18740:19150   */\n    tag_183:\n        /* \"#utility.yul\":18780:18787   */\n      0x00\n        /* \"#utility.yul\":18803:18823   */\n      tag_732\n        /* \"#utility.yul\":18821:18822   */\n      dup3\n        /* \"#utility.yul\":18803:18823   */\n      tag_441\n      jump\t// in\n    tag_732:\n        /* \"#utility.yul\":18798:18823   */\n      swap2\n      pop\n        /* \"#utility.yul\":18837:18857   */\n      tag_733\n        /* \"#utility.yul\":18855:18856   */\n      dup4\n        /* \"#utility.yul\":18837:18857   */\n      tag_441\n      jump\t// in\n    tag_733:\n        /* \"#utility.yul\":18832:18857   */\n      swap3\n      pop\n        /* \"#utility.yul\":18892:18893   */\n      dup3\n        /* \"#utility.yul\":18889:18890   */\n      dup3\n        /* \"#utility.yul\":18885:18894   */\n      mul\n        /* \"#utility.yul\":18914:18944   */\n      tag_734\n        /* \"#utility.yul\":18932:18943   */\n      dup2\n        /* \"#utility.yul\":18914:18944   */\n      tag_441\n      jump\t// in\n    tag_734:\n        /* \"#utility.yul\":18903:18944   */\n      swap2\n      pop\n        /* \"#utility.yul\":19093:19094   */\n      dup3\n        /* \"#utility.yul\":19084:19091   */\n      dup3\n        /* \"#utility.yul\":19080:19095   */\n      div\n        /* \"#utility.yul\":19077:19078   */\n      dup5\n        /* \"#utility.yul\":19074:19096   */\n      eq\n        /* \"#utility.yul\":19054:19055   */\n      dup4\n        /* \"#utility.yul\":19047:19056   */\n      iszero\n        /* \"#utility.yul\":19027:19110   */\n      or\n        /* \"#utility.yul\":19004:19143   */\n      tag_735\n      jumpi\n        /* \"#utility.yul\":19123:19141   */\n      tag_736\n      tag_492\n      jump\t// in\n    tag_736:\n        /* \"#utility.yul\":19004:19143   */\n    tag_735:\n        /* \"#utility.yul\":18788:19150   */\n      pop\n        /* \"#utility.yul\":18740:19150   */\n      swap3\n      swap2\n      pop\n      pop\n      jump\t// out\n        /* \"#utility.yul\":19156:19347   */\n    tag_185:\n        /* \"#utility.yul\":19196:19199   */\n      0x00\n        /* \"#utility.yul\":19215:19235   */\n      tag_738\n        /* \"#utility.yul\":19233:19234   */\n      dup3\n        /* \"#utility.yul\":19215:19235   */\n      tag_441\n      jump\t// in\n    tag_738:\n        /* \"#utility.yul\":19210:19235   */\n      swap2\n      pop\n        /* \"#utility.yul\":19249:19269   */\n      tag_739\n        /* \"#utility.yul\":19267:19268   */\n      dup4\n        /* \"#utility.yul\":19249:19269   */\n      tag_441\n      jump\t// in\n    tag_739:\n        /* \"#utility.yul\":19244:19269   */\n      swap3\n      pop\n        /* \"#utility.yul\":19292:19293   */\n      dup3\n        /* \"#utility.yul\":19289:19290   */\n      dup3\n        /* \"#utility.yul\":19285:19294   */\n      add\n        /* \"#utility.yul\":19278:19294   */\n      swap1\n      pop\n        /* \"#utility.yul\":19313:19316   */\n      dup1\n        /* \"#utility.yul\":19310:19311   */\n      dup3\n        /* \"#utility.yul\":19307:19317   */\n      gt\n        /* \"#utility.yul\":19304:19340   */\n      iszero\n      tag_740\n      jumpi\n        /* \"#utility.yul\":19320:19338   */\n      tag_741\n      tag_492\n      jump\t// in\n    tag_741:\n        /* \"#utility.yul\":19304:19340   */\n    tag_740:\n        /* \"#utility.yul\":19156:19347   */\n      swap3\n      swap2\n      pop\n      pop\n      jump\t// out\n        /* \"#utility.yul\":19353:19469   */\n    tag_493:\n        /* \"#utility.yul\":19423:19444   */\n      tag_743\n        /* \"#utility.yul\":19438:19443   */\n      dup2\n        /* \"#utility.yul\":19423:19444   */\n      tag_449\n      jump\t// in\n    tag_743:\n        /* \"#utility.yul\":19416:19421   */\n      dup2\n        /* \"#utility.yul\":19413:19445   */\n      eq\n        /* \"#utility.yul\":19403:19463   */\n      tag_744\n      jumpi\n        /* \"#utility.yul\":19459:19460   */\n      0x00\n        /* \"#utility.yul\":19456:19457   */\n      dup1\n        /* \"#utility.yul\":19449:19461   */\n      revert\n        /* \"#utility.yul\":19403:19463   */\n    tag_744:\n        /* \"#utility.yul\":19353:19469   */\n      pop\n      jump\t// out\n        /* \"#utility.yul\":19475:19612   */\n    tag_494:\n        /* \"#utility.yul\":19529:19534   */\n      0x00\n        /* \"#utility.yul\":19560:19566   */\n      dup2\n        /* \"#utility.yul\":19554:19567   */\n      mload\n        /* \"#utility.yul\":19545:19567   */\n      swap1\n      pop\n        /* \"#utility.yul\":19576:19606   */\n      tag_746\n        /* \"#utility.yul\":19600:19605   */\n      dup2\n        /* \"#utility.yul\":19576:19606   */\n      tag_493\n      jump\t// in\n    tag_746:\n        /* \"#utility.yul\":19475:19612   */\n      swap3\n      swap2\n      pop\n      pop\n      jump\t// out\n        /* \"#utility.yul\":19618:19963   */\n    tag_192:\n        /* \"#utility.yul\":19685:19691   */\n      0x00\n        /* \"#utility.yul\":19734:19736   */\n      0x20\n        /* \"#utility.yul\":19722:19731   */\n      dup3\n        /* \"#utility.yul\":19713:19720   */\n      dup5\n        /* \"#utility.yul\":19709:19732   */\n      sub\n        /* \"#utility.yul\":19705:19737   */\n      slt\n        /* \"#utility.yul\":19702:19821   */\n      iszero\n      tag_748\n      jumpi\n        /* \"#utility.yul\":19740:19819   */\n      tag_749\n      tag_439\n      jump\t// in\n    tag_749:\n        /* \"#utility.yul\":19702:19821   */\n    tag_748:\n        /* \"#utility.yul\":19860:19861   */\n      0x00\n        /* \"#utility.yul\":19885:19946   */\n      tag_750\n        /* \"#utility.yul\":19938:19945   */\n      dup5\n        /* \"#utility.yul\":19929:19935   */\n      dup3\n        /* \"#utility.yul\":19918:19927   */\n      dup6\n        /* \"#utility.yul\":19914:19936   */\n      add\n        /* \"#utility.yul\":19885:19946   */\n      tag_494\n      jump\t// in\n    tag_750:\n        /* \"#utility.yul\":19875:19946   */\n      swap2\n      pop\n        /* \"#utility.yul\":19831:19956   */\n      pop\n        /* \"#utility.yul\":19618:19963   */\n      swap3\n      swap2\n      pop\n      pop\n      jump\t// out\n        /* \"#utility.yul\":19969:20149   */\n    tag_205:\n        /* \"#utility.yul\":20017:20094   */\n      0x4e487b7100000000000000000000000000000000000000000000000000000000\n        /* \"#utility.yul\":20014:20015   */\n      0x00\n        /* \"#utility.yul\":20007:20095   */\n      mstore\n        /* \"#utility.yul\":20114:20118   */\n      0x32\n        /* \"#utility.yul\":20111:20112   */\n      0x04\n        /* \"#utility.yul\":20104:20119   */\n      mstore\n        /* \"#utility.yul\":20138:20142   */\n      0x24\n        /* \"#utility.yul\":20135:20136   */\n      0x00\n        /* \"#utility.yul\":20128:20143   */\n      revert\n        /* \"#utility.yul\":20155:20349   */\n    tag_209:\n        /* \"#utility.yul\":20195:20199   */\n      0x00\n        /* \"#utility.yul\":20215:20235   */\n      tag_753\n        /* \"#utility.yul\":20233:20234   */\n      dup3\n        /* \"#utility.yul\":20215:20235   */\n      tag_441\n      jump\t// in\n    tag_753:\n        /* \"#utility.yul\":20210:20235   */\n      swap2\n      pop\n        /* \"#utility.yul\":20249:20269   */\n      tag_754\n        /* \"#utility.yul\":20267:20268   */\n      dup4\n        /* \"#utility.yul\":20249:20269   */\n      tag_441\n      jump\t// in\n    tag_754:\n        /* \"#utility.yul\":20244:20269   */\n      swap3\n      pop\n        /* \"#utility.yul\":20293:20294   */\n      dup3\n        /* \"#utility.yul\":20290:20291   */\n      dup3\n        /* \"#utility.yul\":20286:20295   */\n      sub\n        /* \"#utility.yul\":20278:20295   */\n      swap1\n      pop\n        /* \"#utility.yul\":20317:20318   */\n      dup2\n        /* \"#utility.yul\":20311:20315   */\n      dup2\n        /* \"#utility.yul\":20308:20319   */\n      gt\n        /* \"#utility.yul\":20305:20342   */\n      iszero\n      tag_755\n      jumpi\n        /* \"#utility.yul\":20322:20340   */\n      tag_756\n      tag_492\n      jump\t// in\n    tag_756:\n        /* \"#utility.yul\":20305:20342   */\n    tag_755:\n        /* \"#utility.yul\":20155:20349   */\n      swap3\n      swap2\n      pop\n      pop\n      jump\t// out\n        /* \"#utility.yul\":20355:20532   */\n    tag_495:\n        /* \"#utility.yul\":20495:20524   */\n      0x70657263656e746167652073686f756c64206265203c3d203130300000000000\n        /* \"#utility.yul\":20491:20492   */\n      0x00\n        /* \"#utility.yul\":20483:20489   */\n      dup3\n        /* \"#utility.yul\":20479:20493   */\n      add\n        /* \"#utility.yul\":20472:20525   */\n      mstore\n        /* \"#utility.yul\":20355:20532   */\n      pop\n      jump\t// out\n        /* \"#utility.yul\":20538:20904   */\n    tag_496:\n        /* \"#utility.yul\":20680:20683   */\n      0x00\n        /* \"#utility.yul\":20701:20768   */\n      tag_759\n        /* \"#utility.yul\":20765:20767   */\n      0x1b\n        /* \"#utility.yul\":20760:20763   */\n      dup4\n        /* \"#utility.yul\":20701:20768   */\n      tag_487\n      jump\t// in\n    tag_759:\n        /* \"#utility.yul\":20694:20768   */\n      swap2\n      pop\n        /* \"#utility.yul\":20777:20870   */\n      tag_760\n        /* \"#utility.yul\":20866:20869   */\n      dup3\n        /* \"#utility.yul\":20777:20870   */\n      tag_495\n      jump\t// in\n    tag_760:\n        /* \"#utility.yul\":20895:20897   */\n      0x20\n        /* \"#utility.yul\":20890:20893   */\n      dup3\n        /* \"#utility.yul\":20886:20898   */\n      add\n        /* \"#utility.yul\":20879:20898   */\n      swap1\n      pop\n        /* \"#utility.yul\":20538:20904   */\n      swap2\n      swap1\n      pop\n      jump\t// out\n        /* \"#utility.yul\":20910:21329   */\n    tag_233:\n        /* \"#utility.yul\":21076:21080   */\n      0x00\n        /* \"#utility.yul\":21114:21116   */\n      0x20\n        /* \"#utility.yul\":21103:21112   */\n      dup3\n        /* \"#utility.yul\":21099:21117   */\n      add\n        /* \"#utility.yul\":21091:21117   */\n      swap1\n      pop\n        /* \"#utility.yul\":21163:21172   */\n      dup2\n        /* \"#utility.yul\":21157:21161   */\n      dup2\n        /* \"#utility.yul\":21153:21173   */\n      sub\n        /* \"#utility.yul\":21149:21150   */\n      0x00\n        /* \"#utility.yul\":21138:21147   */\n      dup4\n        /* \"#utility.yul\":21134:21151   */\n      add\n        /* \"#utility.yul\":21127:21174   */\n      mstore\n        /* \"#utility.yul\":21191:21322   */\n      tag_762\n        /* \"#utility.yul\":21317:21321   */\n      dup2\n        /* \"#utility.yul\":21191:21322   */\n      tag_496\n      jump\t// in\n    tag_762:\n        /* \"#utility.yul\":21183:21322   */\n      swap1\n      pop\n        /* \"#utility.yul\":20910:21329   */\n      swap2\n      swap1\n      pop\n      jump\t// out\n        /* \"#utility.yul\":21335:21496   */\n    tag_497:\n        /* \"#utility.yul\":21475:21488   */\n      0x4f6e6c7920736572766572000000000000000000000000000000000000000000\n        /* \"#utility.yul\":21471:21472   */\n      0x00\n        /* \"#utility.yul\":21463:21469   */\n      dup3\n        /* \"#utility.yul\":21459:21473   */\n      add\n        /* \"#utility.yul\":21452:21489   */\n      mstore\n        /* \"#utility.yul\":21335:21496   */\n      pop\n      jump\t// out\n        /* \"#utility.yul\":21502:21868   */\n    tag_498:\n        /* \"#utility.yul\":21644:21647   */\n      0x00\n        /* \"#utility.yul\":21665:21732   */\n      tag_765\n        /* \"#utility.yul\":21729:21731   */\n      0x0b\n        /* \"#utility.yul\":21724:21727   */\n      dup4\n        /* \"#utility.yul\":21665:21732   */\n      tag_487\n      jump\t// in\n    tag_765:\n        /* \"#utility.yul\":21658:21732   */\n      swap2\n      pop\n        /* \"#utility.yul\":21741:21834   */\n      tag_766\n        /* \"#utility.yul\":21830:21833   */\n      dup3\n        /* \"#utility.yul\":21741:21834   */\n      tag_497\n      jump\t// in\n    tag_766:\n        /* \"#utility.yul\":21859:21861   */\n      0x20\n        /* \"#utility.yul\":21854:21857   */\n      dup3\n        /* \"#utility.yul\":21850:21862   */\n      add\n        /* \"#utility.yul\":21843:21862   */\n      swap1\n      pop\n        /* \"#utility.yul\":21502:21868   */\n      swap2\n      swap1\n      pop\n      jump\t// out\n        /* \"#utility.yul\":21874:22293   */\n    tag_238:\n        /* \"#utility.yul\":22040:22044   */\n      0x00\n        /* \"#utility.yul\":22078:22080   */\n      0x20\n        /* \"#utility.yul\":22067:22076   */\n      dup3\n        /* \"#utility.yul\":22063:22081   */\n      add\n        /* \"#utility.yul\":22055:22081   */\n      swap1\n      pop\n        /* \"#utility.yul\":22127:22136   */\n      dup2\n        /* \"#utility.yul\":22121:22125   */\n      dup2\n        /* \"#utility.yul\":22117:22137   */\n      sub\n        /* \"#utility.yul\":22113:22114   */\n      0x00\n        /* \"#utility.yul\":22102:22111   */\n      dup4\n        /* \"#utility.yul\":22098:22115   */\n      add\n        /* \"#utility.yul\":22091:22138   */\n      mstore\n        /* \"#utility.yul\":22155:22286   */\n      tag_768\n        /* \"#utility.yul\":22281:22285   */\n      dup2\n        /* \"#utility.yul\":22155:22286   */\n      tag_498\n      jump\t// in\n    tag_768:\n        /* \"#utility.yul\":22147:22286   */\n      swap1\n      pop\n        /* \"#utility.yul\":21874:22293   */\n      swap2\n      swap1\n      pop\n      jump\t// out\n        /* \"#utility.yul\":22321:22635   */\n    tag_499:\n        /* \"#utility.yul\":22417:22420   */\n      0x00\n        /* \"#utility.yul\":22438:22508   */\n      tag_770\n        /* \"#utility.yul\":22501:22507   */\n      dup4\n        /* \"#utility.yul\":22496:22499   */\n      dup6\n        /* \"#utility.yul\":22438:22508   */\n      tag_478\n      jump\t// in\n    tag_770:\n        /* \"#utility.yul\":22431:22508   */\n      swap4\n      pop\n        /* \"#utility.yul\":22518:22574   */\n      tag_771\n        /* \"#utility.yul\":22567:22573   */\n      dup4\n        /* \"#utility.yul\":22562:22565   */\n      dup6\n        /* \"#utility.yul\":22555:22560   */\n      dup5\n        /* \"#utility.yul\":22518:22574   */\n      tag_466\n      jump\t// in\n    tag_771:\n        /* \"#utility.yul\":22599:22628   */\n      tag_772\n        /* \"#utility.yul\":22621:22627   */\n      dup4\n        /* \"#utility.yul\":22599:22628   */\n      tag_461\n      jump\t// in\n    tag_772:\n        /* \"#utility.yul\":22594:22597   */\n      dup5\n        /* \"#utility.yul\":22590:22629   */\n      add\n        /* \"#utility.yul\":22583:22629   */\n      swap1\n      pop\n        /* \"#utility.yul\":22321:22635   */\n      swap4\n      swap3\n      pop\n      pop\n      pop\n      jump\t// out\n        /* \"#utility.yul\":22641:23080   */\n    tag_242:\n        /* \"#utility.yul\":22790:22794   */\n      0x00\n        /* \"#utility.yul\":22828:22830   */\n      0x40\n        /* \"#utility.yul\":22817:22826   */\n      dup3\n        /* \"#utility.yul\":22813:22831   */\n      add\n        /* \"#utility.yul\":22805:22831   */\n      swap1\n      pop\n        /* \"#utility.yul\":22841:22912   */\n      tag_774\n        /* \"#utility.yul\":22909:22910   */\n      0x00\n        /* \"#utility.yul\":22898:22907   */\n      dup4\n        /* \"#utility.yul\":22894:22911   */\n      add\n        /* \"#utility.yul\":22885:22891   */\n      dup7\n        /* \"#utility.yul\":22841:22912   */\n      tag_448\n      jump\t// in\n    tag_774:\n        /* \"#utility.yul\":22959:22968   */\n      dup2\n        /* \"#utility.yul\":22953:22957   */\n      dup2\n        /* \"#utility.yul\":22949:22969   */\n      sub\n        /* \"#utility.yul\":22944:22946   */\n      0x20\n        /* \"#utility.yul\":22933:22942   */\n      dup4\n        /* \"#utility.yul\":22929:22947   */\n      add\n        /* \"#utility.yul\":22922:22970   */\n      mstore\n        /* \"#utility.yul\":22987:23073   */\n      tag_775\n        /* \"#utility.yul\":23068:23072   */\n      dup2\n        /* \"#utility.yul\":23059:23065   */\n      dup5\n        /* \"#utility.yul\":23051:23057   */\n      dup7\n        /* \"#utility.yul\":22987:23073   */\n      tag_499\n      jump\t// in\n    tag_775:\n        /* \"#utility.yul\":22979:23073   */\n      swap1\n      pop\n        /* \"#utility.yul\":22641:23080   */\n      swap5\n      swap4\n      pop\n      pop\n      pop\n      pop\n      jump\t// out\n        /* \"#utility.yul\":23086:23266   */\n    tag_500:\n        /* \"#utility.yul\":23134:23211   */\n      0x4e487b7100000000000000000000000000000000000000000000000000000000\n        /* \"#utility.yul\":23131:23132   */\n      0x00\n        /* \"#utility.yul\":23124:23212   */\n      mstore\n        /* \"#utility.yul\":23231:23235   */\n      0x22\n        /* \"#utility.yul\":23228:23229   */\n      0x04\n        /* \"#utility.yul\":23221:23236   */\n      mstore\n        /* \"#utility.yul\":23255:23259   */\n      0x24\n        /* \"#utility.yul\":23252:23253   */\n      0x00\n        /* \"#utility.yul\":23245:23260   */\n      revert\n        /* \"#utility.yul\":23272:23592   */\n    tag_343:\n        /* \"#utility.yul\":23316:23322   */\n      0x00\n        /* \"#utility.yul\":23353:23354   */\n      0x02\n        /* \"#utility.yul\":23347:23351   */\n      dup3\n        /* \"#utility.yul\":23343:23355   */\n      div\n        /* \"#utility.yul\":23333:23355   */\n      swap1\n      pop\n        /* \"#utility.yul\":23400:23401   */\n      0x01\n        /* \"#utility.yul\":23394:23398   */\n      dup3\n        /* \"#utility.yul\":23390:23402   */\n      and\n        /* \"#utility.yul\":23421:23439   */\n      dup1\n        /* \"#utility.yul\":23411:23492   */\n      tag_778\n      jumpi\n        /* \"#utility.yul\":23477:23481   */\n      0x7f\n        /* \"#utility.yul\":23469:23475   */\n      dup3\n        /* \"#utility.yul\":23465:23482   */\n      and\n        /* \"#utility.yul\":23455:23482   */\n      swap2\n      pop\n        /* \"#utility.yul\":23411:23492   */\n    tag_778:\n        /* \"#utility.yul\":23539:23541   */\n      0x20\n        /* \"#utility.yul\":23531:23537   */\n      dup3\n        /* \"#utility.yul\":23528:23542   */\n      lt\n        /* \"#utility.yul\":23508:23526   */\n      dup2\n        /* \"#utility.yul\":23505:23543   */\n      sub\n        /* \"#utility.yul\":23502:23586   */\n      tag_779\n      jumpi\n        /* \"#utility.yul\":23558:23576   */\n      tag_780\n      tag_500\n      jump\t// in\n    tag_780:\n        /* \"#utility.yul\":23502:23586   */\n    tag_779:\n        /* \"#utility.yul\":23323:23592   */\n      pop\n        /* \"#utility.yul\":23272:23592   */\n      swap2\n      swap1\n      pop\n      jump\t// out\n        /* \"#utility.yul\":23598:23738   */\n    tag_501:\n        /* \"#utility.yul\":23646:23650   */\n      0x00\n        /* \"#utility.yul\":23669:23672   */\n      dup2\n        /* \"#utility.yul\":23661:23672   */\n      swap1\n      pop\n        /* \"#utility.yul\":23692:23695   */\n      dup2\n        /* \"#utility.yul\":23689:23690   */\n      0x00\n        /* \"#utility.yul\":23682:23696   */\n      mstore\n        /* \"#utility.yul\":23726:23730   */\n      0x20\n        /* \"#utility.yul\":23723:23724   */\n      0x00\n        /* \"#utility.yul\":23713:23731   */\n      keccak256\n        /* \"#utility.yul\":23705:23731   */\n      swap1\n      pop\n        /* \"#utility.yul\":23598:23738   */\n      swap2\n      swap1\n      pop\n      jump\t// out\n        /* \"#utility.yul\":23766:24593   */\n    tag_502:\n        /* \"#utility.yul\":23849:23852   */\n      0x00\n        /* \"#utility.yul\":23886:23891   */\n      dup2\n        /* \"#utility.yul\":23880:23892   */\n      sload\n        /* \"#utility.yul\":23915:23951   */\n      tag_783\n        /* \"#utility.yul\":23941:23950   */\n      dup2\n        /* \"#utility.yul\":23915:23951   */\n      tag_343\n      jump\t// in\n    tag_783:\n        /* \"#utility.yul\":23967:24037   */\n      tag_784\n        /* \"#utility.yul\":24030:24036   */\n      dup2\n        /* \"#utility.yul\":24025:24028   */\n      dup7\n        /* \"#utility.yul\":23967:24037   */\n      tag_478\n      jump\t// in\n    tag_784:\n        /* \"#utility.yul\":23960:24037   */\n      swap5\n      pop\n        /* \"#utility.yul\":24068:24069   */\n      0x01\n        /* \"#utility.yul\":24057:24066   */\n      dup3\n        /* \"#utility.yul\":24053:24070   */\n      and\n        /* \"#utility.yul\":24084:24085   */\n      0x00\n        /* \"#utility.yul\":24079:24243   */\n      dup2\n      eq\n      tag_786\n      jumpi\n        /* \"#utility.yul\":24257:24258   */\n      0x01\n        /* \"#utility.yul\":24252:24587   */\n      dup2\n      eq\n      tag_787\n      jumpi\n        /* \"#utility.yul\":24046:24587   */\n      jump(tag_785)\n        /* \"#utility.yul\":24079:24243   */\n    tag_786:\n        /* \"#utility.yul\":24163:24167   */\n      0xff\n        /* \"#utility.yul\":24159:24168   */\n      not\n        /* \"#utility.yul\":24148:24157   */\n      dup4\n        /* \"#utility.yul\":24144:24169   */\n      and\n        /* \"#utility.yul\":24139:24142   */\n      dup7\n        /* \"#utility.yul\":24132:24170   */\n      mstore\n        /* \"#utility.yul\":24223:24229   */\n      dup2\n        /* \"#utility.yul\":24216:24230   */\n      iszero\n        /* \"#utility.yul\":24209:24231   */\n      iszero\n        /* \"#utility.yul\":24203:24207   */\n      0x20\n        /* \"#utility.yul\":24199:24232   */\n      mul\n        /* \"#utility.yul\":24194:24197   */\n      dup7\n        /* \"#utility.yul\":24190:24233   */\n      add\n        /* \"#utility.yul\":24183:24233   */\n      swap4\n      pop\n        /* \"#utility.yul\":24079:24243   */\n      jump(tag_785)\n        /* \"#utility.yul\":24252:24587   */\n    tag_787:\n        /* \"#utility.yul\":24319:24356   */\n      tag_788\n        /* \"#utility.yul\":24350:24355   */\n      dup6\n        /* \"#utility.yul\":24319:24356   */\n      tag_501\n      jump\t// in\n    tag_788:\n        /* \"#utility.yul\":24378:24379   */\n      0x00\n        /* \"#utility.yul\":24392:24546   */\n    tag_789:\n        /* \"#utility.yul\":24406:24412   */\n      dup4\n        /* \"#utility.yul\":24403:24404   */\n      dup2\n        /* \"#utility.yul\":24400:24413   */\n      lt\n        /* \"#utility.yul\":24392:24546   */\n      iszero\n      tag_791\n      jumpi\n        /* \"#utility.yul\":24480:24487   */\n      dup2\n        /* \"#utility.yul\":24474:24488   */\n      sload\n        /* \"#utility.yul\":24470:24471   */\n      dup2\n        /* \"#utility.yul\":24465:24468   */\n      dup10\n        /* \"#utility.yul\":24461:24472   */\n      add\n        /* \"#utility.yul\":24454:24489   */\n      mstore\n        /* \"#utility.yul\":24530:24531   */\n      0x01\n        /* \"#utility.yul\":24521:24528   */\n      dup3\n        /* \"#utility.yul\":24517:24532   */\n      add\n        /* \"#utility.yul\":24506:24532   */\n      swap2\n      pop\n        /* \"#utility.yul\":24428:24432   */\n      0x20\n        /* \"#utility.yul\":24425:24426   */\n      dup2\n        /* \"#utility.yul\":24421:24433   */\n      add\n        /* \"#utility.yul\":24416:24433   */\n      swap1\n      pop\n        /* \"#utility.yul\":24392:24546   */\n      jump(tag_789)\n    tag_791:\n        /* \"#utility.yul\":24575:24576   */\n      dup1\n        /* \"#utility.yul\":24570:24573   */\n      dup9\n        /* \"#utility.yul\":24566:24577   */\n      add\n        /* \"#utility.yul\":24559:24577   */\n      swap6\n      pop\n        /* \"#utility.yul\":24259:24587   */\n      pop\n      pop\n        /* \"#utility.yul\":24046:24587   */\n    tag_785:\n      pop\n        /* \"#utility.yul\":23853:24593   */\n      pop\n      pop\n        /* \"#utility.yul\":23766:24593   */\n      swap3\n      swap2\n      pop\n      pop\n      jump\t// out\n        /* \"#utility.yul\":24599:25229   */\n    tag_249:\n        /* \"#utility.yul\":24791:24795   */\n      0x00\n        /* \"#utility.yul\":24829:24831   */\n      0x60\n        /* \"#utility.yul\":24818:24827   */\n      dup3\n        /* \"#utility.yul\":24814:24832   */\n      add\n        /* \"#utility.yul\":24806:24832   */\n      swap1\n      pop\n        /* \"#utility.yul\":24842:24913   */\n      tag_793\n        /* \"#utility.yul\":24910:24911   */\n      0x00\n        /* \"#utility.yul\":24899:24908   */\n      dup4\n        /* \"#utility.yul\":24895:24912   */\n      add\n        /* \"#utility.yul\":24886:24892   */\n      dup8\n        /* \"#utility.yul\":24842:24913   */\n      tag_448\n      jump\t// in\n    tag_793:\n        /* \"#utility.yul\":24960:24969   */\n      dup2\n        /* \"#utility.yul\":24954:24958   */\n      dup2\n        /* \"#utility.yul\":24950:24970   */\n      sub\n        /* \"#utility.yul\":24945:24947   */\n      0x20\n        /* \"#utility.yul\":24934:24943   */\n      dup4\n        /* \"#utility.yul\":24930:24948   */\n      add\n        /* \"#utility.yul\":24923:24971   */\n      mstore\n        /* \"#utility.yul\":24988:25074   */\n      tag_794\n        /* \"#utility.yul\":25069:25073   */\n      dup2\n        /* \"#utility.yul\":25060:25066   */\n      dup6\n        /* \"#utility.yul\":25052:25058   */\n      dup8\n        /* \"#utility.yul\":24988:25074   */\n      tag_499\n      jump\t// in\n    tag_794:\n        /* \"#utility.yul\":24980:25074   */\n      swap1\n      pop\n        /* \"#utility.yul\":25121:25130   */\n      dup2\n        /* \"#utility.yul\":25115:25119   */\n      dup2\n        /* \"#utility.yul\":25111:25131   */\n      sub\n        /* \"#utility.yul\":25106:25108   */\n      0x40\n        /* \"#utility.yul\":25095:25104   */\n      dup4\n        /* \"#utility.yul\":25091:25109   */\n      add\n        /* \"#utility.yul\":25084:25132   */\n      mstore\n        /* \"#utility.yul\":25149:25222   */\n      tag_795\n        /* \"#utility.yul\":25217:25221   */\n      dup2\n        /* \"#utility.yul\":25208:25214   */\n      dup5\n        /* \"#utility.yul\":25149:25222   */\n      tag_502\n      jump\t// in\n    tag_795:\n        /* \"#utility.yul\":25141:25222   */\n      swap1\n      pop\n        /* \"#utility.yul\":24599:25229   */\n      swap6\n      swap5\n      pop\n      pop\n      pop\n      pop\n      pop\n      jump\t// out\n        /* \"#utility.yul\":25235:25382   */\n    tag_503:\n        /* \"#utility.yul\":25336:25347   */\n      0x00\n        /* \"#utility.yul\":25373:25376   */\n      dup2\n        /* \"#utility.yul\":25358:25376   */\n      swap1\n      pop\n        /* \"#utility.yul\":25235:25382   */\n      swap3\n      swap2\n      pop\n      pop\n      jump\t// out\n        /* \"#utility.yul\":25388:25774   */\n    tag_504:\n        /* \"#utility.yul\":25492:25495   */\n      0x00\n        /* \"#utility.yul\":25520:25558   */\n      tag_798\n        /* \"#utility.yul\":25552:25557   */\n      dup3\n        /* \"#utility.yul\":25520:25558   */\n      tag_477\n      jump\t// in\n    tag_798:\n        /* \"#utility.yul\":25574:25662   */\n      tag_799\n        /* \"#utility.yul\":25655:25661   */\n      dup2\n        /* \"#utility.yul\":25650:25653   */\n      dup6\n        /* \"#utility.yul\":25574:25662   */\n      tag_503\n      jump\t// in\n    tag_799:\n        /* \"#utility.yul\":25567:25662   */\n      swap4\n      pop\n        /* \"#utility.yul\":25671:25736   */\n      tag_800\n        /* \"#utility.yul\":25729:25735   */\n      dup2\n        /* \"#utility.yul\":25724:25727   */\n      dup6\n        /* \"#utility.yul\":25717:25721   */\n      0x20\n        /* \"#utility.yul\":25710:25715   */\n      dup7\n        /* \"#utility.yul\":25706:25722   */\n      add\n        /* \"#utility.yul\":25671:25736   */\n      tag_479\n      jump\t// in\n    tag_800:\n        /* \"#utility.yul\":25761:25767   */\n      dup1\n        /* \"#utility.yul\":25756:25759   */\n      dup5\n        /* \"#utility.yul\":25752:25768   */\n      add\n        /* \"#utility.yul\":25745:25768   */\n      swap2\n      pop\n        /* \"#utility.yul\":25496:25774   */\n      pop\n        /* \"#utility.yul\":25388:25774   */\n      swap3\n      swap2\n      pop\n      pop\n      jump\t// out\n        /* \"#utility.yul\":25780:26051   */\n    tag_251:\n        /* \"#utility.yul\":25910:25913   */\n      0x00\n        /* \"#utility.yul\":25932:26025   */\n      tag_802\n        /* \"#utility.yul\":26021:26024   */\n      dup3\n        /* \"#utility.yul\":26012:26018   */\n      dup5\n        /* \"#utility.yul\":25932:26025   */\n      tag_504\n      jump\t// in\n    tag_802:\n        /* \"#utility.yul\":25925:26025   */\n      swap2\n      pop\n        /* \"#utility.yul\":26042:26045   */\n      dup2\n        /* \"#utility.yul\":26035:26045   */\n      swap1\n      pop\n        /* \"#utility.yul\":25780:26051   */\n      swap3\n      swap2\n      pop\n      pop\n      jump\t// out\n        /* \"#utility.yul\":26057:26230   */\n    tag_505:\n        /* \"#utility.yul\":26197:26222   */\n      0x6661696c656420746f2063616c6c2073656c6563746f72000000000000000000\n        /* \"#utility.yul\":26193:26194   */\n      0x00\n        /* \"#utility.yul\":26185:26191   */\n      dup3\n        /* \"#utility.yul\":26181:26195   */\n      add\n        /* \"#utility.yul\":26174:26223   */\n      mstore\n        /* \"#utility.yul\":26057:26230   */\n      pop\n      jump\t// out\n        /* \"#utility.yul\":26236:26602   */\n    tag_506:\n        /* \"#utility.yul\":26378:26381   */\n      0x00\n        /* \"#utility.yul\":26399:26466   */\n      tag_805\n        /* \"#utility.yul\":26463:26465   */\n      0x17\n        /* \"#utility.yul\":26458:26461   */\n      dup4\n        /* \"#utility.yul\":26399:26466   */\n      tag_487\n      jump\t// in\n    tag_805:\n        /* \"#utility.yul\":26392:26466   */\n      swap2\n      pop\n        /* \"#utility.yul\":26475:26568   */\n      tag_806\n        /* \"#utility.yul\":26564:26567   */\n      dup3\n        /* \"#utility.yul\":26475:26568   */\n      tag_505\n      jump\t// in\n    tag_806:\n        /* \"#utility.yul\":26593:26595   */\n      0x20\n        /* \"#utility.yul\":26588:26591   */\n      dup3\n        /* \"#utility.yul\":26584:26596   */\n      add\n        /* \"#utility.yul\":26577:26596   */\n      swap1\n      pop\n        /* \"#utility.yul\":26236:26602   */\n      swap2\n      swap1\n      pop\n      jump\t// out\n        /* \"#utility.yul\":26608:27027   */\n    tag_257:\n        /* \"#utility.yul\":26774:26778   */\n      0x00\n        /* \"#utility.yul\":26812:26814   */\n      0x20\n        /* \"#utility.yul\":26801:26810   */\n      dup3\n        /* \"#utility.yul\":26797:26815   */\n      add\n        /* \"#utility.yul\":26789:26815   */\n      swap1\n      pop\n        /* \"#utility.yul\":26861:26870   */\n      dup2\n        /* \"#utility.yul\":26855:26859   */\n      dup2\n        /* \"#utility.yul\":26851:26871   */\n      sub\n        /* \"#utility.yul\":26847:26848   */\n      0x00\n        /* \"#utility.yul\":26836:26845   */\n      dup4\n        /* \"#utility.yul\":26832:26849   */\n      add\n        /* \"#utility.yul\":26825:26872   */\n      mstore\n        /* \"#utility.yul\":26889:27020   */\n      tag_808\n        /* \"#utility.yul\":27015:27019   */\n      dup2\n        /* \"#utility.yul\":26889:27020   */\n      tag_506\n      jump\t// in\n    tag_808:\n        /* \"#utility.yul\":26881:27020   */\n      swap1\n      pop\n        /* \"#utility.yul\":26608:27027   */\n      swap2\n      swap1\n      pop\n      jump\t// out\n        /* \"#utility.yul\":27033:27129   */\n    tag_507:\n        /* \"#utility.yul\":27091:27097   */\n      0x00\n        /* \"#utility.yul\":27119:27122   */\n      dup3\n        /* \"#utility.yul\":27109:27122   */\n      swap1\n      pop\n        /* \"#utility.yul\":27033:27129   */\n      swap3\n      swap2\n      pop\n      pop\n      jump\t// out\n        /* \"#utility.yul\":27135:27228   */\n    tag_508:\n        /* \"#utility.yul\":27172:27178   */\n      0x00\n        /* \"#utility.yul\":27219:27221   */\n      0x20\n        /* \"#utility.yul\":27214:27216   */\n      0x1f\n        /* \"#utility.yul\":27207:27212   */\n      dup4\n        /* \"#utility.yul\":27203:27217   */\n      add\n        /* \"#utility.yul\":27199:27222   */\n      div\n        /* \"#utility.yul\":27189:27222   */\n      swap1\n      pop\n        /* \"#utility.yul\":27135:27228   */\n      swap2\n      swap1\n      pop\n      jump\t// out\n        /* \"#utility.yul\":27234:27341   */\n    tag_509:\n        /* \"#utility.yul\":27278:27286   */\n      0x00\n        /* \"#utility.yul\":27328:27333   */\n      dup3\n        /* \"#utility.yul\":27322:27326   */\n      dup3\n        /* \"#utility.yul\":27318:27334   */\n      shl\n        /* \"#utility.yul\":27297:27334   */\n      swap1\n      pop\n        /* \"#utility.yul\":27234:27341   */\n      swap3\n      swap2\n      pop\n      pop\n      jump\t// out\n        /* \"#utility.yul\":27347:27740   */\n    tag_510:\n        /* \"#utility.yul\":27416:27422   */\n      0x00\n        /* \"#utility.yul\":27466:27467   */\n      0x08\n        /* \"#utility.yul\":27454:27464   */\n      dup4\n        /* \"#utility.yul\":27450:27468   */\n      mul\n        /* \"#utility.yul\":27489:27586   */\n      tag_813\n        /* \"#utility.yul\":27519:27585   */\n      0xffffffffffffffffffffffffffffffffffffffffffffffffffffffffffffffff\n        /* \"#utility.yul\":27508:27517   */\n      dup3\n        /* \"#utility.yul\":27489:27586   */\n      tag_509\n      jump\t// in\n    tag_813:\n        /* \"#utility.yul\":27607:27646   */\n      tag_814\n        /* \"#utility.yul\":27637:27645   */\n      dup7\n        /* \"#utility.yul\":27626:27635   */\n      dup4\n        /* \"#utility.yul\":27607:27646   */\n      tag_509\n      jump\t// in\n    tag_814:\n        /* \"#utility.yul\":27595:27646   */\n      swap6\n      pop\n        /* \"#utility.yul\":27679:27683   */\n      dup1\n        /* \"#utility.yul\":27675:27684   */\n      not\n        /* \"#utility.yul\":27668:27673   */\n      dup5\n        /* \"#utility.yul\":27664:27685   */\n      and\n        /* \"#utility.yul\":27655:27685   */\n      swap4\n      pop\n        /* \"#utility.yul\":27728:27732   */\n      dup1\n        /* \"#utility.yul\":27718:27726   */\n      dup7\n        /* \"#utility.yul\":27714:27733   */\n      and\n        /* \"#utility.yul\":27707:27712   */\n      dup5\n        /* \"#utility.yul\":27704:27734   */\n      or\n        /* \"#utility.yul\":27694:27734   */\n      swap3\n      pop\n        /* \"#utility.yul\":27423:27740   */\n      pop\n      pop\n        /* \"#utility.yul\":27347:27740   */\n      swap4\n      swap3\n      pop\n      pop\n      pop\n      jump\t// out\n        /* \"#utility.yul\":27746:27888   */\n    tag_511:\n        /* \"#utility.yul\":27796:27805   */\n      0x00\n        /* \"#utility.yul\":27829:27882   */\n      tag_816\n        /* \"#utility.yul\":27847:27881   */\n      tag_817\n        /* \"#utility.yul\":27856:27880   */\n      tag_818\n        /* \"#utility.yul\":27874:27879   */\n      dup5\n        /* \"#utility.yul\":27856:27880   */\n      tag_441\n      jump\t// in\n    tag_818:\n        /* \"#utility.yul\":27847:27881   */\n      tag_482\n      jump\t// in\n    tag_817:\n        /* \"#utility.yul\":27829:27882   */\n      tag_441\n      jump\t// in\n    tag_816:\n        /* \"#utility.yul\":27816:27882   */\n      swap1\n      pop\n        /* \"#utility.yul\":27746:27888   */\n      swap2\n      swap1\n      pop\n      jump\t// out\n        /* \"#utility.yul\":27894:27969   */\n    tag_512:\n        /* \"#utility.yul\":27937:27940   */\n      0x00\n        /* \"#utility.yul\":27958:27963   */\n      dup2\n        /* \"#utility.yul\":27951:27963   */\n      swap1\n      pop\n        /* \"#utility.yul\":27894:27969   */\n      swap2\n      swap1\n      pop\n      jump\t// out\n        /* \"#utility.yul\":27975:28244   */\n    tag_513:\n        /* \"#utility.yul\":28085:28124   */\n      tag_821\n        /* \"#utility.yul\":28116:28123   */\n      dup4\n        /* \"#utility.yul\":28085:28124   */\n      tag_511\n      jump\t// in\n    tag_821:\n        /* \"#utility.yul\":28146:28237   */\n      tag_822\n        /* \"#utility.yul\":28195:28236   */\n      tag_823\n        /* \"#utility.yul\":28219:28235   */\n      dup3\n        /* \"#utility.yul\":28195:28236   */\n      tag_512\n      jump\t// in\n    tag_823:\n        /* \"#utility.yul\":28187:28193   */\n      dup5\n        /* \"#utility.yul\":28180:28184   */\n      dup5\n        /* \"#utility.yul\":28174:28185   */\n      sload\n        /* \"#utility.yul\":28146:28237   */\n      tag_510\n      jump\t// in\n    tag_822:\n        /* \"#utility.yul\":28140:28144   */\n      dup3\n        /* \"#utility.yul\":28133:28238   */\n      sstore\n        /* \"#utility.yul\":28051:28244   */\n      pop\n        /* \"#utility.yul\":27975:28244   */\n      pop\n      pop\n      pop\n      jump\t// out\n        /* \"#utility.yul\":28250:28323   */\n    tag_514:\n        /* \"#utility.yul\":28295:28298   */\n      0x00\n        /* \"#utility.yul\":28250:28323   */\n      swap1\n      jump\t// out\n        /* \"#utility.yul\":28329:28518   */\n    tag_515:\n        /* \"#utility.yul\":28406:28438   */\n      tag_826\n      tag_514\n      jump\t// in\n    tag_826:\n        /* \"#utility.yul\":28447:28512   */\n      tag_827\n        /* \"#utility.yul\":28505:28511   */\n      dup2\n        /* \"#utility.yul\":28497:28503   */\n      dup5\n        /* \"#utility.yul\":28491:28495   */\n      dup5\n        /* \"#utility.yul\":28447:28512   */\n      tag_513\n      jump\t// in\n    tag_827:\n        /* \"#utility.yul\":28382:28518   */\n      pop\n        /* \"#utility.yul\":28329:28518   */\n      pop\n      pop\n      jump\t// out\n        /* \"#utility.yul\":28524:28710   */\n    tag_516:\n        /* \"#utility.yul\":28584:28704   */\n    tag_829:\n        /* \"#utility.yul\":28601:28604   */\n      dup2\n        /* \"#utility.yul\":28594:28599   */\n      dup2\n        /* \"#utility.yul\":28591:28605   */\n      lt\n        /* \"#utility.yul\":28584:28704   */\n      iszero\n      tag_831\n      jumpi\n        /* \"#utility.yul\":28655:28694   */\n      tag_832\n        /* \"#utility.yul\":28692:28693   */\n      0x00\n        /* \"#utility.yul\":28685:28690   */\n      dup3\n        /* \"#utility.yul\":28655:28694   */\n      tag_515\n      jump\t// in\n    tag_832:\n        /* \"#utility.yul\":28628:28629   */\n      0x01\n        /* \"#utility.yul\":28621:28626   */\n      dup2\n        /* \"#utility.yul\":28617:28630   */\n      add\n        /* \"#utility.yul\":28608:28630   */\n      swap1\n      pop\n        /* \"#utility.yul\":28584:28704   */\n      jump(tag_829)\n    tag_831:\n        /* \"#utility.yul\":28524:28710   */\n      pop\n      pop\n      jump\t// out\n        /* \"#utility.yul\":28716:29257   */\n    tag_517:\n        /* \"#utility.yul\":28816:28818   */\n      0x1f\n        /* \"#utility.yul\":28811:28814   */\n      dup3\n        /* \"#utility.yul\":28808:28819   */\n      gt\n        /* \"#utility.yul\":28805:29250   */\n      iszero\n      tag_834\n      jumpi\n        /* \"#utility.yul\":28850:28887   */\n      tag_835\n        /* \"#utility.yul\":28881:28886   */\n      dup2\n        /* \"#utility.yul\":28850:28887   */\n      tag_501\n      jump\t// in\n    tag_835:\n        /* \"#utility.yul\":28933:28962   */\n      tag_836\n        /* \"#utility.yul\":28951:28961   */\n      dup5\n        /* \"#utility.yul\":28933:28962   */\n      tag_508\n      jump\t// in\n    tag_836:\n        /* \"#utility.yul\":28923:28931   */\n      dup2\n        /* \"#utility.yul\":28919:28963   */\n      add\n        /* \"#utility.yul\":29116:29118   */\n      0x20\n        /* \"#utility.yul\":29104:29114   */\n      dup6\n        /* \"#utility.yul\":29101:29119   */\n      lt\n        /* \"#utility.yul\":29098:29147   */\n      iszero\n      tag_837\n      jumpi\n        /* \"#utility.yul\":29137:29145   */\n      dup2\n        /* \"#utility.yul\":29122:29145   */\n      swap1\n      pop\n        /* \"#utility.yul\":29098:29147   */\n    tag_837:\n        /* \"#utility.yul\":29160:29240   */\n      tag_838\n        /* \"#utility.yul\":29216:29238   */\n      tag_839\n        /* \"#utility.yul\":29234:29237   */\n      dup6\n        /* \"#utility.yul\":29216:29238   */\n      tag_508\n      jump\t// in\n    tag_839:\n        /* \"#utility.yul\":29206:29214   */\n      dup4\n        /* \"#utility.yul\":29202:29239   */\n      add\n        /* \"#utility.yul\":29189:29200   */\n      dup3\n        /* \"#utility.yul\":29160:29240   */\n      tag_516\n      jump\t// in\n    tag_838:\n        /* \"#utility.yul\":28820:29250   */\n      pop\n      pop\n        /* \"#utility.yul\":28805:29250   */\n    tag_834:\n        /* \"#utility.yul\":28716:29257   */\n      pop\n      pop\n      pop\n      jump\t// out\n        /* \"#utility.yul\":29263:29380   */\n    tag_518:\n        /* \"#utility.yul\":29317:29325   */\n      0x00\n        /* \"#utility.yul\":29367:29372   */\n      dup3\n        /* \"#utility.yul\":29361:29365   */\n      dup3\n        /* \"#utility.yul\":29357:29373   */\n      shr\n        /* \"#utility.yul\":29336:29373   */\n      swap1\n      pop\n        /* \"#utility.yul\":29263:29380   */\n      swap3\n      swap2\n      pop\n      pop\n      jump\t// out\n        /* \"#utility.yul\":29386:29555   */\n    tag_519:\n        /* \"#utility.yul\":29430:29436   */\n      0x00\n        /* \"#utility.yul\":29463:29514   */\n      tag_842\n        /* \"#utility.yul\":29511:29512   */\n      0x00\n        /* \"#utility.yul\":29507:29513   */\n      not\n        /* \"#utility.yul\":29499:29504   */\n      dup5\n        /* \"#utility.yul\":29496:29497   */\n      0x08\n        /* \"#utility.yul\":29492:29505   */\n      mul\n        /* \"#utility.yul\":29463:29514   */\n      tag_518\n      jump\t// in\n    tag_842:\n        /* \"#utility.yul\":29459:29515   */\n      not\n        /* \"#utility.yul\":29544:29548   */\n      dup1\n        /* \"#utility.yul\":29538:29542   */\n      dup4\n        /* \"#utility.yul\":29534:29549   */\n      and\n        /* \"#utility.yul\":29524:29549   */\n      swap2\n      pop\n        /* \"#utility.yul\":29437:29555   */\n      pop\n        /* \"#utility.yul\":29386:29555   */\n      swap3\n      swap2\n      pop\n      pop\n      jump\t// out\n        /* \"#utility.yul\":29560:29855   */\n    tag_520:\n        /* \"#utility.yul\":29636:29640   */\n      0x00\n        /* \"#utility.yul\":29782:29811   */\n      tag_844\n        /* \"#utility.yul\":29807:29810   */\n      dup4\n        /* \"#utility.yul\":29801:29805   */\n      dup4\n        /* \"#utility.yul\":29782:29811   */\n      tag_519\n      jump\t// in\n    tag_844:\n        /* \"#utility.yul\":29774:29811   */\n      swap2\n      pop\n        /* \"#utility.yul\":29844:29847   */\n      dup3\n        /* \"#utility.yul\":29841:29842   */\n      0x02\n        /* \"#utility.yul\":29837:29848   */\n      mul\n        /* \"#utility.yul\":29831:29835   */\n      dup3\n        /* \"#utility.yul\":29828:29849   */\n      or\n        /* \"#utility.yul\":29820:29849   */\n      swap1\n      pop\n        /* \"#utility.yul\":29560:29855   */\n      swap3\n      swap2\n      pop\n      pop\n      jump\t// out\n        /* \"#utility.yul\":29860:31258   */\n    tag_260:\n        /* \"#utility.yul\":29982:30025   */\n      tag_846\n        /* \"#utility.yul\":30021:30024   */\n      dup4\n        /* \"#utility.yul\":30016:30019   */\n      dup4\n        /* \"#utility.yul\":29982:30025   */\n      tag_507\n      jump\t// in\n    tag_846:\n        /* \"#utility.yul\":30090:30108   */\n      0xffffffffffffffff\n        /* \"#utility.yul\":30082:30088   */\n      dup2\n        /* \"#utility.yul\":30079:30109   */\n      gt\n        /* \"#utility.yul\":30076:30132   */\n      iszero\n      tag_847\n      jumpi\n        /* \"#utility.yul\":30112:30130   */\n      tag_848\n      tag_462\n      jump\t// in\n    tag_848:\n        /* \"#utility.yul\":30076:30132   */\n    tag_847:\n        /* \"#utility.yul\":30156:30194   */\n      tag_849\n        /* \"#utility.yul\":30188:30192   */\n      dup3\n        /* \"#utility.yul\":30182:30193   */\n      sload\n        /* \"#utility.yul\":30156:30194   */\n      tag_343\n      jump\t// in\n    tag_849:\n        /* \"#utility.yul\":30241:30307   */\n      tag_850\n        /* \"#utility.yul\":30300:30306   */\n      dup3\n        /* \"#utility.yul\":30292:30298   */\n      dup3\n        /* \"#utility.yul\":30286:30290   */\n      dup6\n        /* \"#utility.yul\":30241:30307   */\n      tag_517\n      jump\t// in\n    tag_850:\n        /* \"#utility.yul\":30334:30335   */\n      0x00\n        /* \"#utility.yul\":30363:30365   */\n      0x1f\n        /* \"#utility.yul\":30355:30361   */\n      dup4\n        /* \"#utility.yul\":30352:30366   */\n      gt\n        /* \"#utility.yul\":30380:30381   */\n      0x01\n        /* \"#utility.yul\":30375:31006   */\n      dup2\n      eq\n      tag_852\n      jumpi\n        /* \"#utility.yul\":31050:31051   */\n      0x00\n        /* \"#utility.yul\":31067:31073   */\n      dup5\n        /* \"#utility.yul\":31064:31148   */\n      iszero\n      tag_853\n      jumpi\n        /* \"#utility.yul\":31123:31132   */\n      dup3\n        /* \"#utility.yul\":31118:31121   */\n      dup8\n        /* \"#utility.yul\":31114:31133   */\n      add\n        /* \"#utility.yul\":31101:31134   */\n      calldataload\n        /* \"#utility.yul\":31092:31134   */\n      swap1\n      pop\n        /* \"#utility.yul\":31064:31148   */\n    tag_853:\n        /* \"#utility.yul\":31174:31241   */\n      tag_854\n        /* \"#utility.yul\":31234:31240   */\n      dup6\n        /* \"#utility.yul\":31227:31232   */\n      dup3\n        /* \"#utility.yul\":31174:31241   */\n      tag_520\n      jump\t// in\n    tag_854:\n        /* \"#utility.yul\":31168:31172   */\n      dup7\n        /* \"#utility.yul\":31161:31242   */\n      sstore\n        /* \"#utility.yul\":31023:31252   */\n      pop\n        /* \"#utility.yul\":30345:31252   */\n      jump(tag_851)\n        /* \"#utility.yul\":30375:31006   */\n    tag_852:\n        /* \"#utility.yul\":30427:30431   */\n      0x1f\n        /* \"#utility.yul\":30423:30432   */\n      not\n        /* \"#utility.yul\":30415:30421   */\n      dup5\n        /* \"#utility.yul\":30411:30433   */\n      and\n        /* \"#utility.yul\":30461:30497   */\n      tag_855\n        /* \"#utility.yul\":30492:30496   */\n      dup7\n        /* \"#utility.yul\":30461:30497   */\n      tag_501\n      jump\t// in\n    tag_855:\n        /* \"#utility.yul\":30519:30520   */\n      0x00\n        /* \"#utility.yul\":30533:30748   */\n    tag_856:\n        /* \"#utility.yul\":30547:30554   */\n      dup3\n        /* \"#utility.yul\":30544:30545   */\n      dup2\n        /* \"#utility.yul\":30541:30555   */\n      lt\n        /* \"#utility.yul\":30533:30748   */\n      iszero\n      tag_858\n      jumpi\n        /* \"#utility.yul\":30633:30642   */\n      dup5\n        /* \"#utility.yul\":30628:30631   */\n      dup10\n        /* \"#utility.yul\":30624:30643   */\n      add\n        /* \"#utility.yul\":30611:30644   */\n      calldataload\n        /* \"#utility.yul\":30603:30609   */\n      dup3\n        /* \"#utility.yul\":30596:30645   */\n      sstore\n        /* \"#utility.yul\":30684:30685   */\n      0x01\n        /* \"#utility.yul\":30676:30682   */\n      dup3\n        /* \"#utility.yul\":30672:30686   */\n      add\n        /* \"#utility.yul\":30662:30686   */\n      swap2\n      pop\n        /* \"#utility.yul\":30731:30733   */\n      0x20\n        /* \"#utility.yul\":30720:30729   */\n      dup6\n        /* \"#utility.yul\":30716:30734   */\n      add\n        /* \"#utility.yul\":30703:30734   */\n      swap5\n      pop\n        /* \"#utility.yul\":30570:30574   */\n      0x20\n        /* \"#utility.yul\":30567:30568   */\n      dup2\n        /* \"#utility.yul\":30563:30575   */\n      add\n        /* \"#utility.yul\":30558:30575   */\n      swap1\n      pop\n        /* \"#utility.yul\":30533:30748   */\n      jump(tag_856)\n    tag_858:\n        /* \"#utility.yul\":30776:30782   */\n      dup7\n        /* \"#utility.yul\":30767:30774   */\n      dup4\n        /* \"#utility.yul\":30764:30783   */\n      lt\n        /* \"#utility.yul\":30761:30947   */\n      iszero\n      tag_859\n      jumpi\n        /* \"#utility.yul\":30841:30850   */\n      dup5\n        /* \"#utility.yul\":30836:30839   */\n      dup10\n        /* \"#utility.yul\":30832:30851   */\n      add\n        /* \"#utility.yul\":30819:30852   */\n      calldataload\n        /* \"#utility.yul\":30884:30932   */\n      tag_860\n        /* \"#utility.yul\":30926:30930   */\n      0x1f\n        /* \"#utility.yul\":30918:30924   */\n      dup10\n        /* \"#utility.yul\":30914:30931   */\n      and\n        /* \"#utility.yul\":30903:30912   */\n      dup3\n        /* \"#utility.yul\":30884:30932   */\n      tag_519\n      jump\t// in\n    tag_860:\n        /* \"#utility.yul\":30876:30882   */\n      dup4\n        /* \"#utility.yul\":30869:30933   */\n      sstore\n        /* \"#utility.yul\":30784:30947   */\n      pop\n        /* \"#utility.yul\":30761:30947   */\n    tag_859:\n        /* \"#utility.yul\":30993:30994   */\n      0x01\n        /* \"#utility.yul\":30989:30990   */\n      0x02\n        /* \"#utility.yul\":30981:30987   */\n      dup9\n        /* \"#utility.yul\":30977:30991   */\n      mul\n        /* \"#utility.yul\":30973:30995   */\n      add\n        /* \"#utility.yul\":30967:30971   */\n      dup9\n        /* \"#utility.yul\":30960:30996   */\n      sstore\n        /* \"#utility.yul\":30382:31006   */\n      pop\n      pop\n      pop\n        /* \"#utility.yul\":30345:31252   */\n    tag_851:\n      pop\n        /* \"#utility.yul\":29957:31258   */\n      pop\n      pop\n      pop\n        /* \"#utility.yul\":29860:31258   */\n      pop\n      pop\n      pop\n      jump\t// out\n        /* \"#utility.yul\":31264:31703   */\n    tag_262:\n        /* \"#utility.yul\":31413:31417   */\n      0x00\n        /* \"#utility.yul\":31451:31453   */\n      0x40\n        /* \"#utility.yul\":31440:31449   */\n      dup3\n        /* \"#utility.yul\":31436:31454   */\n      add\n        /* \"#utility.yul\":31428:31454   */\n      swap1\n      pop\n        /* \"#utility.yul\":31464:31535   */\n      tag_862\n        /* \"#utility.yul\":31532:31533   */\n      0x00\n        /* \"#utility.yul\":31521:31530   */\n      dup4\n        /* \"#utility.yul\":31517:31534   */\n      add\n        /* \"#utility.yul\":31508:31514   */\n      dup7\n        /* \"#utility.yul\":31464:31535   */\n      tag_476\n      jump\t// in\n    tag_862:\n        /* \"#utility.yul\":31582:31591   */\n      dup2\n        /* \"#utility.yul\":31576:31580   */\n      dup2\n        /* \"#utility.yul\":31572:31592   */\n      sub\n        /* \"#utility.yul\":31567:31569   */\n      0x20\n        /* \"#utility.yul\":31556:31565   */\n      dup4\n        /* \"#utility.yul\":31552:31570   */\n      add\n        /* \"#utility.yul\":31545:31593   */\n      mstore\n        /* \"#utility.yul\":31610:31696   */\n      tag_863\n        /* \"#utility.yul\":31691:31695   */\n      dup2\n        /* \"#utility.yul\":31682:31688   */\n      dup5\n        /* \"#utility.yul\":31674:31680   */\n      dup7\n        /* \"#utility.yul\":31610:31696   */\n      tag_499\n      jump\t// in\n    tag_863:\n        /* \"#utility.yul\":31602:31696   */\n      swap1\n      pop\n        /* \"#utility.yul\":31264:31703   */\n      swap5\n      swap4\n      pop\n      pop\n      pop\n      pop\n      jump\t// out\n        /* \"#utility.yul\":31709:31882   */\n    tag_521:\n        /* \"#utility.yul\":31849:31874   */\n      0x616363756d756c61746520726576656e75652069732030000000000000000000\n        /* \"#utility.yul\":31845:31846   */\n      0x00\n        /* \"#utility.yul\":31837:31843   */\n      dup3\n        /* \"#utility.yul\":31833:31847   */\n      add\n        /* \"#utility.yul\":31826:31875   */\n      mstore\n        /* \"#utility.yul\":31709:31882   */\n      pop\n      jump\t// out\n        /* \"#utility.yul\":31888:32254   */\n    tag_522:\n        /* \"#utility.yul\":32030:32033   */\n      0x00\n        /* \"#utility.yul\":32051:32118   */\n      tag_866\n        /* \"#utility.yul\":32115:32117   */\n      0x17\n        /* \"#utility.yul\":32110:32113   */\n      dup4\n        /* \"#utility.yul\":32051:32118   */\n      tag_487\n      jump\t// in\n    tag_866:\n        /* \"#utility.yul\":32044:32118   */\n      swap2\n      pop\n        /* \"#utility.yul\":32127:32220   */\n      tag_867\n        /* \"#utility.yul\":32216:32219   */\n      dup3\n        /* \"#utility.yul\":32127:32220   */\n      tag_521\n      jump\t// in\n    tag_867:\n        /* \"#utility.yul\":32245:32247   */\n      0x20\n        /* \"#utility.yul\":32240:32243   */\n      dup3\n        /* \"#utility.yul\":32236:32248   */\n      add\n        /* \"#utility.yul\":32229:32248   */\n      swap1\n      pop\n        /* \"#utility.yul\":31888:32254   */\n      swap2\n      swap1\n      pop\n      jump\t// out\n        /* \"#utility.yul\":32260:32679   */\n    tag_269:\n        /* \"#utility.yul\":32426:32430   */\n      0x00\n        /* \"#utility.yul\":32464:32466   */\n      0x20\n        /* \"#utility.yul\":32453:32462   */\n      dup3\n        /* \"#utility.yul\":32449:32467   */\n      add\n        /* \"#utility.yul\":32441:32467   */\n      swap1\n      pop\n        /* \"#utility.yul\":32513:32522   */\n      dup2\n        /* \"#utility.yul\":32507:32511   */\n      dup2\n        /* \"#utility.yul\":32503:32523   */\n      sub\n        /* \"#utility.yul\":32499:32500   */\n      0x00\n        /* \"#utility.yul\":32488:32497   */\n      dup4\n        /* \"#utility.yul\":32484:32501   */\n      add\n        /* \"#utility.yul\":32477:32524   */\n      mstore\n        /* \"#utility.yul\":32541:32672   */\n      tag_869\n        /* \"#utility.yul\":32667:32671   */\n      dup2\n        /* \"#utility.yul\":32541:32672   */\n      tag_522\n      jump\t// in\n    tag_869:\n        /* \"#utility.yul\":32533:32672   */\n      swap1\n      pop\n        /* \"#utility.yul\":32260:32679   */\n      swap2\n      swap1\n      pop\n      jump\t// out\n        /* \"#utility.yul\":32685:32803   */\n    tag_523:\n        /* \"#utility.yul\":32772:32796   */\n      tag_871\n        /* \"#utility.yul\":32790:32795   */\n      dup2\n        /* \"#utility.yul\":32772:32796   */\n      tag_453\n      jump\t// in\n    tag_871:\n        /* \"#utility.yul\":32767:32770   */\n      dup3\n        /* \"#utility.yul\":32760:32797   */\n      mstore\n        /* \"#utility.yul\":32685:32803   */\n      pop\n      pop\n      jump\t// out\n        /* \"#utility.yul\":32809:33338   */\n    tag_277:\n        /* \"#utility.yul\":32976:32980   */\n      0x00\n        /* \"#utility.yul\":33014:33016   */\n      0x60\n        /* \"#utility.yul\":33003:33012   */\n      dup3\n        /* \"#utility.yul\":32999:33017   */\n      add\n        /* \"#utility.yul\":32991:33017   */\n      swap1\n      pop\n        /* \"#utility.yul\":33027:33098   */\n      tag_873\n        /* \"#utility.yul\":33095:33096   */\n      0x00\n        /* \"#utility.yul\":33084:33093   */\n      dup4\n        /* \"#utility.yul\":33080:33097   */\n      add\n        /* \"#utility.yul\":33071:33077   */\n      dup7\n        /* \"#utility.yul\":33027:33098   */\n      tag_523\n      jump\t// in\n    tag_873:\n        /* \"#utility.yul\":33108:33180   */\n      tag_874\n        /* \"#utility.yul\":33176:33178   */\n      0x20\n        /* \"#utility.yul\":33165:33174   */\n      dup4\n        /* \"#utility.yul\":33161:33179   */\n      add\n        /* \"#utility.yul\":33152:33158   */\n      dup6\n        /* \"#utility.yul\":33108:33180   */\n      tag_523\n      jump\t// in\n    tag_874:\n        /* \"#utility.yul\":33227:33236   */\n      dup2\n        /* \"#utility.yul\":33221:33225   */\n      dup2\n        /* \"#utility.yul\":33217:33237   */\n      sub\n        /* \"#utility.yul\":33212:33214   */\n      0x40\n        /* \"#utility.yul\":33201:33210   */\n      dup4\n        /* \"#utility.yul\":33197:33215   */\n      add\n        /* \"#utility.yul\":33190:33238   */\n      mstore\n        /* \"#utility.yul\":33255:33331   */\n      tag_875\n        /* \"#utility.yul\":33326:33330   */\n      dup2\n        /* \"#utility.yul\":33317:33323   */\n      dup5\n        /* \"#utility.yul\":33255:33331   */\n      tag_480\n      jump\t// in\n    tag_875:\n        /* \"#utility.yul\":33247:33331   */\n      swap1\n      pop\n        /* \"#utility.yul\":32809:33338   */\n      swap5\n      swap4\n      pop\n      pop\n      pop\n      pop\n      jump\t// out\n        /* \"#utility.yul\":33344:33487   */\n    tag_524:\n        /* \"#utility.yul\":33401:33406   */\n      0x00\n        /* \"#utility.yul\":33432:33438   */\n      dup2\n        /* \"#utility.yul\":33426:33439   */\n      mload\n        /* \"#utility.yul\":33417:33439   */\n      swap1\n      pop\n        /* \"#utility.yul\":33448:33481   */\n      tag_877\n        /* \"#utility.yul\":33475:33480   */\n      dup2\n        /* \"#utility.yul\":33448:33481   */\n      tag_442\n      jump\t// in\n    tag_877:\n        /* \"#utility.yul\":33344:33487   */\n      swap3\n      swap2\n      pop\n      pop\n      jump\t// out\n        /* \"#utility.yul\":33493:33844   */\n    tag_281:\n        /* \"#utility.yul\":33563:33569   */\n      0x00\n        /* \"#utility.yul\":33612:33614   */\n      0x20\n        /* \"#utility.yul\":33600:33609   */\n      dup3\n        /* \"#utility.yul\":33591:33598   */\n      dup5\n        /* \"#utility.yul\":33587:33610   */\n      sub\n        /* \"#utility.yul\":33583:33615   */\n      slt\n        /* \"#utility.yul\":33580:33699   */\n      iszero\n      tag_879\n      jumpi\n        /* \"#utility.yul\":33618:33697   */\n      tag_880\n      tag_439\n      jump\t// in\n    tag_880:\n        /* \"#utility.yul\":33580:33699   */\n    tag_879:\n        /* \"#utility.yul\":33738:33739   */\n      0x00\n        /* \"#utility.yul\":33763:33827   */\n      tag_881\n        /* \"#utility.yul\":33819:33826   */\n      dup5\n        /* \"#utility.yul\":33810:33816   */\n      dup3\n        /* \"#utility.yul\":33799:33808   */\n      dup6\n        /* \"#utility.yul\":33795:33817   */\n      add\n        /* \"#utility.yul\":33763:33827   */\n      tag_524\n      jump\t// in\n    tag_881:\n        /* \"#utility.yul\":33753:33827   */\n      swap2\n      pop\n        /* \"#utility.yul\":33709:33837   */\n      pop\n        /* \"#utility.yul\":33493:33844   */\n      swap3\n      swap2\n      pop\n      pop\n      jump\t// out\n        /* \"#utility.yul\":33850:35240   */\n    tag_283:\n        /* \"#utility.yul\":33965:34001   */\n      tag_883\n        /* \"#utility.yul\":33997:34000   */\n      dup3\n        /* \"#utility.yul\":33965:34001   */\n      tag_477\n      jump\t// in\n    tag_883:\n        /* \"#utility.yul\":34066:34084   */\n      0xffffffffffffffff\n        /* \"#utility.yul\":34058:34064   */\n      dup2\n        /* \"#utility.yul\":34055:34085   */\n      gt\n        /* \"#utility.yul\":34052:34108   */\n      iszero\n      tag_884\n      jumpi\n        /* \"#utility.yul\":34088:34106   */\n      tag_885\n      tag_462\n      jump\t// in\n    tag_885:\n        /* \"#utility.yul\":34052:34108   */\n    tag_884:\n        /* \"#utility.yul\":34132:34170   */\n      tag_886\n        /* \"#utility.yul\":34164:34168   */\n      dup3\n        /* \"#utility.yul\":34158:34169   */\n      sload\n        /* \"#utility.yul\":34132:34170   */\n      tag_343\n      jump\t// in\n    tag_886:\n        /* \"#utility.yul\":34217:34283   */\n      tag_887\n        /* \"#utility.yul\":34276:34282   */\n      dup3\n        /* \"#utility.yul\":34268:34274   */\n      dup3\n        /* \"#utility.yul\":34262:34266   */\n      dup6\n        /* \"#utility.yul\":34217:34283   */\n      tag_517\n      jump\t// in\n    tag_887:\n        /* \"#utility.yul\":34310:34311   */\n      0x00\n        /* \"#utility.yul\":34334:34338   */\n      0x20\n        /* \"#utility.yul\":34321:34338   */\n      swap1\n      pop\n        /* \"#utility.yul\":34366:34368   */\n      0x1f\n        /* \"#utility.yul\":34358:34364   */\n      dup4\n        /* \"#utility.yul\":34355:34369   */\n      gt\n        /* \"#utility.yul\":34383:34384   */\n      0x01\n        /* \"#utility.yul\":34378:34995   */\n      dup2\n      eq\n      tag_889\n      jumpi\n        /* \"#utility.yul\":35039:35040   */\n      0x00\n        /* \"#utility.yul\":35056:35062   */\n      dup5\n        /* \"#utility.yul\":35053:35130   */\n      iszero\n      tag_890\n      jumpi\n        /* \"#utility.yul\":35105:35114   */\n      dup3\n        /* \"#utility.yul\":35100:35103   */\n      dup8\n        /* \"#utility.yul\":35096:35115   */\n      add\n        /* \"#utility.yul\":35090:35116   */\n      mload\n        /* \"#utility.yul\":35081:35116   */\n      swap1\n      pop\n        /* \"#utility.yul\":35053:35130   */\n    tag_890:\n        /* \"#utility.yul\":35156:35223   */\n      tag_891\n        /* \"#utility.yul\":35216:35222   */\n      dup6\n        /* \"#utility.yul\":35209:35214   */\n      dup3\n        /* \"#utility.yul\":35156:35223   */\n      tag_520\n      jump\t// in\n    tag_891:\n        /* \"#utility.yul\":35150:35154   */\n      dup7\n        /* \"#utility.yul\":35143:35224   */\n      sstore\n        /* \"#utility.yul\":35012:35234   */\n      pop\n        /* \"#utility.yul\":34348:35234   */\n      jump(tag_888)\n        /* \"#utility.yul\":34378:34995   */\n    tag_889:\n        /* \"#utility.yul\":34430:34434   */\n      0x1f\n        /* \"#utility.yul\":34426:34435   */\n      not\n        /* \"#utility.yul\":34418:34424   */\n      dup5\n        /* \"#utility.yul\":34414:34436   */\n      and\n        /* \"#utility.yul\":34464:34500   */\n      tag_892\n        /* \"#utility.yul\":34495:34499   */\n      dup7\n        /* \"#utility.yul\":34464:34500   */\n      tag_501\n      jump\t// in\n    tag_892:\n        /* \"#utility.yul\":34522:34523   */\n      0x00\n        /* \"#utility.yul\":34536:34744   */\n    tag_893:\n        /* \"#utility.yul\":34550:34557   */\n      dup3\n        /* \"#utility.yul\":34547:34548   */\n      dup2\n        /* \"#utility.yul\":34544:34558   */\n      lt\n        /* \"#utility.yul\":34536:34744   */\n      iszero\n      tag_895\n      jumpi\n        /* \"#utility.yul\":34629:34638   */\n      dup5\n        /* \"#utility.yul\":34624:34627   */\n      dup10\n        /* \"#utility.yul\":34620:34639   */\n      add\n        /* \"#utility.yul\":34614:34640   */\n      mload\n        /* \"#utility.yul\":34606:34612   */\n      dup3\n        /* \"#utility.yul\":34599:34641   */\n      sstore\n        /* \"#utility.yul\":34680:34681   */\n      0x01\n        /* \"#utility.yul\":34672:34678   */\n      dup3\n        /* \"#utility.yul\":34668:34682   */\n      add\n        /* \"#utility.yul\":34658:34682   */\n      swap2\n      pop\n        /* \"#utility.yul\":34727:34729   */\n      0x20\n        /* \"#utility.yul\":34716:34725   */\n      dup6\n        /* \"#utility.yul\":34712:34730   */\n      add\n        /* \"#utility.yul\":34699:34730   */\n      swap5\n      pop\n        /* \"#utility.yul\":34573:34577   */\n      0x20\n        /* \"#utility.yul\":34570:34571   */\n      dup2\n        /* \"#utility.yul\":34566:34578   */\n      add\n        /* \"#utility.yul\":34561:34578   */\n      swap1\n      pop\n        /* \"#utility.yul\":34536:34744   */\n      jump(tag_893)\n    tag_895:\n        /* \"#utility.yul\":34772:34778   */\n      dup7\n        /* \"#utility.yul\":34763:34770   */\n      dup4\n        /* \"#utility.yul\":34760:34779   */\n      lt\n        /* \"#utility.yul\":34757:34936   */\n      iszero\n      tag_896\n      jumpi\n        /* \"#utility.yul\":34830:34839   */\n      dup5\n        /* \"#utility.yul\":34825:34828   */\n      dup10\n        /* \"#utility.yul\":34821:34840   */\n      add\n        /* \"#utility.yul\":34815:34841   */\n      mload\n        /* \"#utility.yul\":34873:34921   */\n      tag_897\n        /* \"#utility.yul\":34915:34919   */\n      0x1f\n        /* \"#utility.yul\":34907:34913   */\n      dup10\n        /* \"#utility.yul\":34903:34920   */\n      and\n        /* \"#utility.yul\":34892:34901   */\n      dup3\n        /* \"#utility.yul\":34873:34921   */\n      tag_519\n      jump\t// in\n    tag_897:\n        /* \"#utility.yul\":34865:34871   */\n      dup4\n        /* \"#utility.yul\":34858:34922   */\n      sstore\n        /* \"#utility.yul\":34780:34936   */\n      pop\n        /* \"#utility.yul\":34757:34936   */\n    tag_896:\n        /* \"#utility.yul\":34982:34983   */\n      0x01\n        /* \"#utility.yul\":34978:34979   */\n      0x02\n        /* \"#utility.yul\":34970:34976   */\n      dup9\n        /* \"#utility.yul\":34966:34980   */\n      mul\n        /* \"#utility.yul\":34962:34984   */\n      add\n        /* \"#utility.yul\":34956:34960   */\n      dup9\n        /* \"#utility.yul\":34949:34985   */\n      sstore\n        /* \"#utility.yul\":34385:34995   */\n      pop\n      pop\n      pop\n        /* \"#utility.yul\":34348:35234   */\n    tag_888:\n      pop\n        /* \"#utility.yul\":33940:35240   */\n      pop\n      pop\n      pop\n        /* \"#utility.yul\":33850:35240   */\n      pop\n      pop\n      jump\t// out\n        /* \"#utility.yul\":35246:36080   */\n    tag_286:\n        /* \"#utility.yul\":35485:35489   */\n      0x00\n        /* \"#utility.yul\":35523:35526   */\n      0xa0\n        /* \"#utility.yul\":35512:35521   */\n      dup3\n        /* \"#utility.yul\":35508:35527   */\n      add\n        /* \"#utility.yul\":35500:35527   */\n      swap1\n      pop\n        /* \"#utility.yul\":35537:35608   */\n      tag_899\n        /* \"#utility.yul\":35605:35606   */\n      0x00\n        /* \"#utility.yul\":35594:35603   */\n      dup4\n        /* \"#utility.yul\":35590:35607   */\n      add\n        /* \"#utility.yul\":35581:35587   */\n      dup9\n        /* \"#utility.yul\":35537:35608   */\n      tag_448\n      jump\t// in\n    tag_899:\n        /* \"#utility.yul\":35655:35664   */\n      dup2\n        /* \"#utility.yul\":35649:35653   */\n      dup2\n        /* \"#utility.yul\":35645:35665   */\n      sub\n        /* \"#utility.yul\":35640:35642   */\n      0x20\n        /* \"#utility.yul\":35629:35638   */\n      dup4\n        /* \"#utility.yul\":35625:35643   */\n      add\n        /* \"#utility.yul\":35618:35666   */\n      mstore\n        /* \"#utility.yul\":35683:35759   */\n      tag_900\n        /* \"#utility.yul\":35754:35758   */\n      dup2\n        /* \"#utility.yul\":35745:35751   */\n      dup8\n        /* \"#utility.yul\":35683:35759   */\n      tag_480\n      jump\t// in\n    tag_900:\n        /* \"#utility.yul\":35675:35759   */\n      swap1\n      pop\n        /* \"#utility.yul\":35769:35841   */\n      tag_901\n        /* \"#utility.yul\":35837:35839   */\n      0x40\n        /* \"#utility.yul\":35826:35835   */\n      dup4\n        /* \"#utility.yul\":35822:35840   */\n      add\n        /* \"#utility.yul\":35813:35819   */\n      dup7\n        /* \"#utility.yul\":35769:35841   */\n      tag_476\n      jump\t// in\n    tag_901:\n        /* \"#utility.yul\":35851:35921   */\n      tag_902\n        /* \"#utility.yul\":35917:35919   */\n      0x60\n        /* \"#utility.yul\":35906:35915   */\n      dup4\n        /* \"#utility.yul\":35902:35920   */\n      add\n        /* \"#utility.yul\":35893:35899   */\n      dup6\n        /* \"#utility.yul\":35851:35921   */\n      tag_481\n      jump\t// in\n    tag_902:\n        /* \"#utility.yul\":35969:35978   */\n      dup2\n        /* \"#utility.yul\":35963:35967   */\n      dup2\n        /* \"#utility.yul\":35959:35979   */\n      sub\n        /* \"#utility.yul\":35953:35956   */\n      0x80\n        /* \"#utility.yul\":35942:35951   */\n      dup4\n        /* \"#utility.yul\":35938:35957   */\n      add\n        /* \"#utility.yul\":35931:35980   */\n      mstore\n        /* \"#utility.yul\":35997:36073   */\n      tag_903\n        /* \"#utility.yul\":36068:36072   */\n      dup2\n        /* \"#utility.yul\":36059:36065   */\n      dup5\n        /* \"#utility.yul\":35997:36073   */\n      tag_480\n      jump\t// in\n    tag_903:\n        /* \"#utility.yul\":35989:36073   */\n      swap1\n      pop\n        /* \"#utility.yul\":35246:36080   */\n      swap7\n      swap6\n      pop\n      pop\n      pop\n      pop\n      pop\n      pop\n      jump\t// out\n        /* \"#utility.yul\":36086:36266   */\n    tag_321:\n        /* \"#utility.yul\":36134:36211   */\n      0x4e487b7100000000000000000000000000000000000000000000000000000000\n        /* \"#utility.yul\":36131:36132   */\n      0x00\n        /* \"#utility.yul\":36124:36212   */\n      mstore\n        /* \"#utility.yul\":36231:36235   */\n      0x31\n        /* \"#utility.yul\":36228:36229   */\n      0x04\n        /* \"#utility.yul\":36221:36236   */\n      mstore\n        /* \"#utility.yul\":36255:36259   */\n      0x24\n        /* \"#utility.yul\":36252:36253   */\n      0x00\n        /* \"#utility.yul\":36245:36260   */\n      revert\n        /* \"#utility.yul\":36272:36704   */\n    tag_525:\n        /* \"#utility.yul\":36360:36365   */\n      0x00\n        /* \"#utility.yul\":36385:36450   */\n      tag_906\n        /* \"#utility.yul\":36401:36449   */\n      tag_907\n        /* \"#utility.yul\":36442:36448   */\n      dup5\n        /* \"#utility.yul\":36401:36449   */\n      tag_465\n      jump\t// in\n    tag_907:\n        /* \"#utility.yul\":36385:36450   */\n      tag_464\n      jump\t// in\n    tag_906:\n        /* \"#utility.yul\":36376:36450   */\n      swap1\n      pop\n        /* \"#utility.yul\":36473:36479   */\n      dup3\n        /* \"#utility.yul\":36466:36471   */\n      dup2\n        /* \"#utility.yul\":36459:36480   */\n      mstore\n        /* \"#utility.yul\":36511:36515   */\n      0x20\n        /* \"#utility.yul\":36504:36509   */\n      dup2\n        /* \"#utility.yul\":36500:36516   */\n      add\n        /* \"#utility.yul\":36549:36552   */\n      dup5\n        /* \"#utility.yul\":36540:36546   */\n      dup5\n        /* \"#utility.yul\":36535:36538   */\n      dup5\n        /* \"#utility.yul\":36531:36547   */\n      add\n        /* \"#utility.yul\":36528:36553   */\n      gt\n        /* \"#utility.yul\":36525:36637   */\n      iszero\n      tag_908\n      jumpi\n        /* \"#utility.yul\":36556:36635   */\n      tag_909\n      tag_460\n      jump\t// in\n    tag_909:\n        /* \"#utility.yul\":36525:36637   */\n    tag_908:\n        /* \"#utility.yul\":36646:36698   */\n      tag_910\n        /* \"#utility.yul\":36691:36697   */\n      dup5\n        /* \"#utility.yul\":36686:36689   */\n      dup3\n        /* \"#utility.yul\":36681:36684   */\n      dup6\n        /* \"#utility.yul\":36646:36698   */\n      tag_479\n      jump\t// in\n    tag_910:\n        /* \"#utility.yul\":36366:36704   */\n      pop\n        /* \"#utility.yul\":36272:36704   */\n      swap4\n      swap3\n      pop\n      pop\n      pop\n      jump\t// out\n        /* \"#utility.yul\":36723:37076   */\n    tag_526:\n        /* \"#utility.yul\":36789:36794   */\n      0x00\n        /* \"#utility.yul\":36838:36841   */\n      dup3\n        /* \"#utility.yul\":36831:36835   */\n      0x1f\n        /* \"#utility.yul\":36823:36829   */\n      dup4\n        /* \"#utility.yul\":36819:36836   */\n      add\n        /* \"#utility.yul\":36815:36842   */\n      slt\n        /* \"#utility.yul\":36805:36927   */\n      tag_912\n      jumpi\n        /* \"#utility.yul\":36846:36925   */\n      tag_913\n      tag_456\n      jump\t// in\n    tag_913:\n        /* \"#utility.yul\":36805:36927   */\n    tag_912:\n        /* \"#utility.yul\":36956:36962   */\n      dup2\n        /* \"#utility.yul\":36950:36963   */\n      mload\n        /* \"#utility.yul\":36981:37070   */\n      tag_914\n        /* \"#utility.yul\":37066:37069   */\n      dup5\n        /* \"#utility.yul\":37058:37064   */\n      dup3\n        /* \"#utility.yul\":37051:37055   */\n      0x20\n        /* \"#utility.yul\":37043:37049   */\n      dup7\n        /* \"#utility.yul\":37039:37056   */\n      add\n        /* \"#utility.yul\":36981:37070   */\n      tag_525\n      jump\t// in\n    tag_914:\n        /* \"#utility.yul\":36972:37070   */\n      swap2\n      pop\n        /* \"#utility.yul\":36795:37076   */\n      pop\n        /* \"#utility.yul\":36723:37076   */\n      swap3\n      swap2\n      pop\n      pop\n      jump\t// out\n        /* \"#utility.yul\":37082:37604   */\n    tag_359:\n        /* \"#utility.yul\":37161:37167   */\n      0x00\n        /* \"#utility.yul\":37210:37212   */\n      0x20\n        /* \"#utility.yul\":37198:37207   */\n      dup3\n        /* \"#utility.yul\":37189:37196   */\n      dup5\n        /* \"#utility.yul\":37185:37208   */\n      sub\n        /* \"#utility.yul\":37181:37213   */\n      slt\n        /* \"#utility.yul\":37178:37297   */\n      iszero\n      tag_916\n      jumpi\n        /* \"#utility.yul\":37216:37295   */\n      tag_917\n      tag_439\n      jump\t// in\n    tag_917:\n        /* \"#utility.yul\":37178:37297   */\n    tag_916:\n        /* \"#utility.yul\":37357:37358   */\n      0x00\n        /* \"#utility.yul\":37346:37355   */\n      dup3\n        /* \"#utility.yul\":37342:37359   */\n      add\n        /* \"#utility.yul\":37336:37360   */\n      mload\n        /* \"#utility.yul\":37387:37405   */\n      0xffffffffffffffff\n        /* \"#utility.yul\":37379:37385   */\n      dup2\n        /* \"#utility.yul\":37376:37406   */\n      gt\n        /* \"#utility.yul\":37373:37490   */\n      iszero\n      tag_918\n      jumpi\n        /* \"#utility.yul\":37409:37488   */\n      tag_919\n      tag_440\n      jump\t// in\n    tag_919:\n        /* \"#utility.yul\":37373:37490   */\n    tag_918:\n        /* \"#utility.yul\":37514:37587   */\n      tag_920\n        /* \"#utility.yul\":37579:37586   */\n      dup5\n        /* \"#utility.yul\":37570:37576   */\n      dup3\n        /* \"#utility.yul\":37559:37568   */\n      dup6\n        /* \"#utility.yul\":37555:37577   */\n      add\n        /* \"#utility.yul\":37514:37587   */\n      tag_526\n      jump\t// in\n    tag_920:\n        /* \"#utility.yul\":37504:37587   */\n      swap2\n      pop\n        /* \"#utility.yul\":37307:37597   */\n      pop\n        /* \"#utility.yul\":37082:37604   */\n      swap3\n      swap2\n      pop\n      pop\n      jump\t// out\n        /* \"#utility.yul\":37610:37779   */\n    tag_527:\n        /* \"#utility.yul\":37750:37771   */\n      0x6f7574707574206e6f742075706c6f6164656400000000000000000000000000\n        /* \"#utility.yul\":37746:37747   */\n      0x00\n        /* \"#utility.yul\":37738:37744   */\n      dup3\n        /* \"#utility.yul\":37734:37748   */\n      add\n        /* \"#utility.yul\":37727:37772   */\n      mstore\n        /* \"#utility.yul\":37610:37779   */\n      pop\n      jump\t// out\n        /* \"#utility.yul\":37785:38151   */\n    tag_528:\n        /* \"#utility.yul\":37927:37930   */\n      0x00\n        /* \"#utility.yul\":37948:38015   */\n      tag_923\n        /* \"#utility.yul\":38012:38014   */\n      0x13\n        /* \"#utility.yul\":38007:38010   */\n      dup4\n        /* \"#utility.yul\":37948:38015   */\n      tag_487\n      jump\t// in\n    tag_923:\n        /* \"#utility.yul\":37941:38015   */\n      swap2\n      pop\n        /* \"#utility.yul\":38024:38117   */\n      tag_924\n        /* \"#utility.yul\":38113:38116   */\n      dup3\n        /* \"#utility.yul\":38024:38117   */\n      tag_527\n      jump\t// in\n    tag_924:\n        /* \"#utility.yul\":38142:38144   */\n      0x20\n        /* \"#utility.yul\":38137:38140   */\n      dup3\n        /* \"#utility.yul\":38133:38145   */\n      add\n        /* \"#utility.yul\":38126:38145   */\n      swap1\n      pop\n        /* \"#utility.yul\":37785:38151   */\n      swap2\n      swap1\n      pop\n      jump\t// out\n        /* \"#utility.yul\":38157:38576   */\n    tag_362:\n        /* \"#utility.yul\":38323:38327   */\n      0x00\n        /* \"#utility.yul\":38361:38363   */\n      0x20\n        /* \"#utility.yul\":38350:38359   */\n      dup3\n        /* \"#utility.yul\":38346:38364   */\n      add\n        /* \"#utility.yul\":38338:38364   */\n      swap1\n      pop\n        /* \"#utility.yul\":38410:38419   */\n      dup2\n        /* \"#utility.yul\":38404:38408   */\n      dup2\n        /* \"#utility.yul\":38400:38420   */\n      sub\n        /* \"#utility.yul\":38396:38397   */\n      0x00\n        /* \"#utility.yul\":38385:38394   */\n      dup4\n        /* \"#utility.yul\":38381:38398   */\n      add\n        /* \"#utility.yul\":38374:38421   */\n      mstore\n        /* \"#utility.yul\":38438:38569   */\n      tag_926\n        /* \"#utility.yul\":38564:38568   */\n      dup2\n        /* \"#utility.yul\":38438:38569   */\n      tag_528\n      jump\t// in\n    tag_926:\n        /* \"#utility.yul\":38430:38569   */\n      swap1\n      pop\n        /* \"#utility.yul\":38157:38576   */\n      swap2\n      swap1\n      pop\n      jump\t// out\n        /* \"#utility.yul\":38582:39192   */\n    tag_366:\n        /* \"#utility.yul\":38764:38768   */\n      0x00\n        /* \"#utility.yul\":38802:38804   */\n      0x60\n        /* \"#utility.yul\":38791:38800   */\n      dup3\n        /* \"#utility.yul\":38787:38805   */\n      add\n        /* \"#utility.yul\":38779:38805   */\n      swap1\n      pop\n        /* \"#utility.yul\":38815:38886   */\n      tag_928\n        /* \"#utility.yul\":38883:38884   */\n      0x00\n        /* \"#utility.yul\":38872:38881   */\n      dup4\n        /* \"#utility.yul\":38868:38885   */\n      add\n        /* \"#utility.yul\":38859:38865   */\n      dup7\n        /* \"#utility.yul\":38815:38886   */\n      tag_448\n      jump\t// in\n    tag_928:\n        /* \"#utility.yul\":38933:38942   */\n      dup2\n        /* \"#utility.yul\":38927:38931   */\n      dup2\n        /* \"#utility.yul\":38923:38943   */\n      sub\n        /* \"#utility.yul\":38918:38920   */\n      0x20\n        /* \"#utility.yul\":38907:38916   */\n      dup4\n        /* \"#utility.yul\":38903:38921   */\n      add\n        /* \"#utility.yul\":38896:38944   */\n      mstore\n        /* \"#utility.yul\":38961:39037   */\n      tag_929\n        /* \"#utility.yul\":39032:39036   */\n      dup2\n        /* \"#utility.yul\":39023:39029   */\n      dup6\n        /* \"#utility.yul\":38961:39037   */\n      tag_480\n      jump\t// in\n    tag_929:\n        /* \"#utility.yul\":38953:39037   */\n      swap1\n      pop\n        /* \"#utility.yul\":39084:39093   */\n      dup2\n        /* \"#utility.yul\":39078:39082   */\n      dup2\n        /* \"#utility.yul\":39074:39094   */\n      sub\n        /* \"#utility.yul\":39069:39071   */\n      0x40\n        /* \"#utility.yul\":39058:39067   */\n      dup4\n        /* \"#utility.yul\":39054:39072   */\n      add\n        /* \"#utility.yul\":39047:39095   */\n      mstore\n        /* \"#utility.yul\":39112:39185   */\n      tag_930\n        /* \"#utility.yul\":39180:39184   */\n      dup2\n        /* \"#utility.yul\":39171:39177   */\n      dup5\n        /* \"#utility.yul\":39112:39185   */\n      tag_502\n      jump\t// in\n    tag_930:\n        /* \"#utility.yul\":39104:39185   */\n      swap1\n      pop\n        /* \"#utility.yul\":38582:39192   */\n      swap5\n      swap4\n      pop\n      pop\n      pop\n      pop\n      jump\t// out\n        /* \"#utility.yul\":39198:39617   */\n    tag_376:\n        /* \"#utility.yul\":39337:39341   */\n      0x00\n        /* \"#utility.yul\":39375:39377   */\n      0x40\n        /* \"#utility.yul\":39364:39373   */\n      dup3\n        /* \"#utility.yul\":39360:39378   */\n      add\n        /* \"#utility.yul\":39352:39378   */\n      swap1\n      pop\n        /* \"#utility.yul\":39388:39459   */\n      tag_932\n        /* \"#utility.yul\":39456:39457   */\n      0x00\n        /* \"#utility.yul\":39445:39454   */\n      dup4\n        /* \"#utility.yul\":39441:39458   */\n      add\n        /* \"#utility.yul\":39432:39438   */\n      dup6\n        /* \"#utility.yul\":39388:39459   */\n      tag_476\n      jump\t// in\n    tag_932:\n        /* \"#utility.yul\":39506:39515   */\n      dup2\n        /* \"#utility.yul\":39500:39504   */\n      dup2\n        /* \"#utility.yul\":39496:39516   */\n      sub\n        /* \"#utility.yul\":39491:39493   */\n      0x20\n        /* \"#utility.yul\":39480:39489   */\n      dup4\n        /* \"#utility.yul\":39476:39494   */\n      add\n        /* \"#utility.yul\":39469:39517   */\n      mstore\n        /* \"#utility.yul\":39534:39610   */\n      tag_933\n        /* \"#utility.yul\":39605:39609   */\n      dup2\n        /* \"#utility.yul\":39596:39602   */\n      dup5\n        /* \"#utility.yul\":39534:39610   */\n      tag_480\n      jump\t// in\n    tag_933:\n        /* \"#utility.yul\":39526:39610   */\n      swap1\n      pop\n        /* \"#utility.yul\":39198:39617   */\n      swap4\n      swap3\n      pop\n      pop\n      pop\n      jump\t// out\n        /* \"#utility.yul\":39623:39793   */\n    tag_529:\n        /* \"#utility.yul\":39763:39785   */\n      0x6d6f64656c20616c726561647920657869737473000000000000000000000000\n        /* \"#utility.yul\":39759:39760   */\n      0x00\n        /* \"#utility.yul\":39751:39757   */\n      dup3\n        /* \"#utility.yul\":39747:39761   */\n      add\n        /* \"#utility.yul\":39740:39786   */\n      mstore\n        /* \"#utility.yul\":39623:39793   */\n      pop\n      jump\t// out\n        /* \"#utility.yul\":39799:40165   */\n    tag_530:\n        /* \"#utility.yul\":39941:39944   */\n      0x00\n        /* \"#utility.yul\":39962:40029   */\n      tag_936\n        /* \"#utility.yul\":40026:40028   */\n      0x14\n        /* \"#utility.yul\":40021:40024   */\n      dup4\n        /* \"#utility.yul\":39962:40029   */\n      tag_487\n      jump\t// in\n    tag_936:\n        /* \"#utility.yul\":39955:40029   */\n      swap2\n      pop\n        /* \"#utility.yul\":40038:40131   */\n      tag_937\n        /* \"#utility.yul\":40127:40130   */\n      dup3\n        /* \"#utility.yul\":40038:40131   */\n      tag_529\n      jump\t// in\n    tag_937:\n        /* \"#utility.yul\":40156:40158   */\n      0x20\n        /* \"#utility.yul\":40151:40154   */\n      dup3\n        /* \"#utility.yul\":40147:40159   */\n      add\n        /* \"#utility.yul\":40140:40159   */\n      swap1\n      pop\n        /* \"#utility.yul\":39799:40165   */\n      swap2\n      swap1\n      pop\n      jump\t// out\n        /* \"#utility.yul\":40171:40590   */\n    tag_398:\n        /* \"#utility.yul\":40337:40341   */\n      0x00\n        /* \"#utility.yul\":40375:40377   */\n      0x20\n        /* \"#utility.yul\":40364:40373   */\n      dup3\n        /* \"#utility.yul\":40360:40378   */\n      add\n        /* \"#utility.yul\":40352:40378   */\n      swap1\n      pop\n        /* \"#utility.yul\":40424:40433   */\n      dup2\n        /* \"#utility.yul\":40418:40422   */\n      dup2\n        /* \"#utility.yul\":40414:40434   */\n      sub\n        /* \"#utility.yul\":40410:40411   */\n      0x00\n        /* \"#utility.yul\":40399:40408   */\n      dup4\n        /* \"#utility.yul\":40395:40412   */\n      add\n        /* \"#utility.yul\":40388:40435   */\n      mstore\n        /* \"#utility.yul\":40452:40583   */\n      tag_939\n        /* \"#utility.yul\":40578:40582   */\n      dup2\n        /* \"#utility.yul\":40452:40583   */\n      tag_530\n      jump\t// in\n    tag_939:\n        /* \"#utility.yul\":40444:40583   */\n      swap1\n      pop\n        /* \"#utility.yul\":40171:40590   */\n      swap2\n      swap1\n      pop\n      jump\t// out\n        /* \"#utility.yul\":40596:40928   */\n    tag_404:\n        /* \"#utility.yul\":40717:40721   */\n      0x00\n        /* \"#utility.yul\":40755:40757   */\n      0x40\n        /* \"#utility.yul\":40744:40753   */\n      dup3\n        /* \"#utility.yul\":40740:40758   */\n      add\n        /* \"#utility.yul\":40732:40758   */\n      swap1\n      pop\n        /* \"#utility.yul\":40768:40839   */\n      tag_941\n        /* \"#utility.yul\":40836:40837   */\n      0x00\n        /* \"#utility.yul\":40825:40834   */\n      dup4\n        /* \"#utility.yul\":40821:40838   */\n      add\n        /* \"#utility.yul\":40812:40818   */\n      dup6\n        /* \"#utility.yul\":40768:40839   */\n      tag_523\n      jump\t// in\n    tag_941:\n        /* \"#utility.yul\":40849:40921   */\n      tag_942\n        /* \"#utility.yul\":40917:40919   */\n      0x20\n        /* \"#utility.yul\":40906:40915   */\n      dup4\n        /* \"#utility.yul\":40902:40920   */\n      add\n        /* \"#utility.yul\":40893:40899   */\n      dup5\n        /* \"#utility.yul\":40849:40921   */\n      tag_523\n      jump\t// in\n    tag_942:\n        /* \"#utility.yul\":40596:40928   */\n      swap4\n      swap3\n      pop\n      pop\n      pop\n      jump\t// out\n        /* \"#utility.yul\":40934:41096   */\n    tag_531:\n        /* \"#utility.yul\":41074:41088   */\n      0x496e20626c61636b6c6973740000000000000000000000000000000000000000\n        /* \"#utility.yul\":41070:41071   */\n      0x00\n        /* \"#utility.yul\":41062:41068   */\n      dup3\n        /* \"#utility.yul\":41058:41072   */\n      add\n        /* \"#utility.yul\":41051:41089   */\n      mstore\n        /* \"#utility.yul\":40934:41096   */\n      pop\n      jump\t// out\n        /* \"#utility.yul\":41102:41468   */\n    tag_532:\n        /* \"#utility.yul\":41244:41247   */\n      0x00\n        /* \"#utility.yul\":41265:41332   */\n      tag_945\n        /* \"#utility.yul\":41329:41331   */\n      0x0c\n        /* \"#utility.yul\":41324:41327   */\n      dup4\n        /* \"#utility.yul\":41265:41332   */\n      tag_487\n      jump\t// in\n    tag_945:\n        /* \"#utility.yul\":41258:41332   */\n      swap2\n      pop\n        /* \"#utility.yul\":41341:41434   */\n      tag_946\n        /* \"#utility.yul\":41430:41433   */\n      dup3\n        /* \"#utility.yul\":41341:41434   */\n      tag_531\n      jump\t// in\n    tag_946:\n        /* \"#utility.yul\":41459:41461   */\n      0x20\n        /* \"#utility.yul\":41454:41457   */\n      dup3\n        /* \"#utility.yul\":41450:41462   */\n      add\n        /* \"#utility.yul\":41443:41462   */\n      swap1\n      pop\n        /* \"#utility.yul\":41102:41468   */\n      swap2\n      swap1\n      pop\n      jump\t// out\n        /* \"#utility.yul\":41474:41893   */\n    tag_416:\n        /* \"#utility.yul\":41640:41644   */\n      0x00\n        /* \"#utility.yul\":41678:41680   */\n      0x20\n        /* \"#utility.yul\":41667:41676   */\n      dup3\n        /* \"#utility.yul\":41663:41681   */\n      add\n        /* \"#utility.yul\":41655:41681   */\n      swap1\n      pop\n        /* \"#utility.yul\":41727:41736   */\n      dup2\n        /* \"#utility.yul\":41721:41725   */\n      dup2\n        /* \"#utility.yul\":41717:41737   */\n      sub\n        /* \"#utility.yul\":41713:41714   */\n      0x00\n        /* \"#utility.yul\":41702:41711   */\n      dup4\n        /* \"#utility.yul\":41698:41715   */\n      add\n        /* \"#utility.yul\":41691:41738   */\n      mstore\n        /* \"#utility.yul\":41755:41886   */\n      tag_948\n        /* \"#utility.yul\":41881:41885   */\n      dup2\n        /* \"#utility.yul\":41755:41886   */\n      tag_532\n      jump\t// in\n    tag_948:\n        /* \"#utility.yul\":41747:41886   */\n      swap1\n      pop\n        /* \"#utility.yul\":41474:41893   */\n      swap2\n      swap1\n      pop\n      jump\t// out\n        /* \"#utility.yul\":41899:42065   */\n    tag_533:\n        /* \"#utility.yul\":42039:42057   */\n      0x696e73756666696369656e742066656500000000000000000000000000000000\n        /* \"#utility.yul\":42035:42036   */\n      0x00\n        /* \"#utility.yul\":42027:42033   */\n      dup3\n        /* \"#utility.yul\":42023:42037   */\n      add\n        /* \"#utility.yul\":42016:42058   */\n      mstore\n        /* \"#utility.yul\":41899:42065   */\n      pop\n      jump\t// out\n        /* \"#utility.yul\":42071:42437   */\n    tag_534:\n        /* \"#utility.yul\":42213:42216   */\n      0x00\n        /* \"#utility.yul\":42234:42301   */\n      tag_951\n        /* \"#utility.yul\":42298:42300   */\n      0x10\n        /* \"#utility.yul\":42293:42296   */\n      dup4\n        /* \"#utility.yul\":42234:42301   */\n      tag_487\n      jump\t// in\n    tag_951:\n        /* \"#utility.yul\":42227:42301   */\n      swap2\n      pop\n        /* \"#utility.yul\":42310:42403   */\n      tag_952\n        /* \"#utility.yul\":42399:42402   */\n      dup3\n        /* \"#utility.yul\":42310:42403   */\n      tag_533\n      jump\t// in\n    tag_952:\n        /* \"#utility.yul\":42428:42430   */\n      0x20\n        /* \"#utility.yul\":42423:42426   */\n      dup3\n        /* \"#utility.yul\":42419:42431   */\n      add\n        /* \"#utility.yul\":42412:42431   */\n      swap1\n      pop\n        /* \"#utility.yul\":42071:42437   */\n      swap2\n      swap1\n      pop\n      jump\t// out\n        /* \"#utility.yul\":42443:42862   */\n    tag_422:\n        /* \"#utility.yul\":42609:42613   */\n      0x00\n        /* \"#utility.yul\":42647:42649   */\n      0x20\n        /* \"#utility.yul\":42636:42645   */\n      dup3\n        /* \"#utility.yul\":42632:42650   */\n      add\n        /* \"#utility.yul\":42624:42650   */\n      swap1\n      pop\n        /* \"#utility.yul\":42696:42705   */\n      dup2\n        /* \"#utility.yul\":42690:42694   */\n      dup2\n        /* \"#utility.yul\":42686:42706   */\n      sub\n        /* \"#utility.yul\":42682:42683   */\n      0x00\n        /* \"#utility.yul\":42671:42680   */\n      dup4\n        /* \"#utility.yul\":42667:42684   */\n      add\n        /* \"#utility.yul\":42660:42707   */\n      mstore\n        /* \"#utility.yul\":42724:42855   */\n      tag_954\n        /* \"#utility.yul\":42850:42854   */\n      dup2\n        /* \"#utility.yul\":42724:42855   */\n      tag_534\n      jump\t// in\n    tag_954:\n        /* \"#utility.yul\":42716:42855   */\n      swap1\n      pop\n        /* \"#utility.yul\":42443:42862   */\n      swap2\n      swap1\n      pop\n      jump\t// out\n        /* \"#utility.yul\":42868:43048   */\n    tag_535:\n        /* \"#utility.yul\":42916:42993   */\n      0x4e487b7100000000000000000000000000000000000000000000000000000000\n        /* \"#utility.yul\":42913:42914   */\n      0x00\n        /* \"#utility.yul\":42906:42994   */\n      mstore\n        /* \"#utility.yul\":43013:43017   */\n      0x12\n        /* \"#utility.yul\":43010:43011   */\n      0x04\n        /* \"#utility.yul\":43003:43018   */\n      mstore\n        /* \"#utility.yul\":43037:43041   */\n      0x24\n        /* \"#utility.yul\":43034:43035   */\n      0x00\n        /* \"#utility.yul\":43027:43042   */\n      revert\n        /* \"#utility.yul\":43054:43239   */\n    tag_425:\n        /* \"#utility.yul\":43094:43095   */\n      0x00\n        /* \"#utility.yul\":43111:43131   */\n      tag_957\n        /* \"#utility.yul\":43129:43130   */\n      dup3\n        /* \"#utility.yul\":43111:43131   */\n      tag_441\n      jump\t// in\n    tag_957:\n        /* \"#utility.yul\":43106:43131   */\n      swap2\n      pop\n        /* \"#utility.yul\":43145:43165   */\n      tag_958\n        /* \"#utility.yul\":43163:43164   */\n      dup4\n        /* \"#utility.yul\":43145:43165   */\n      tag_441\n      jump\t// in\n    tag_958:\n        /* \"#utility.yul\":43140:43165   */\n      swap3\n      pop\n        /* \"#utility.yul\":43184:43185   */\n      dup3\n        /* \"#utility.yul\":43174:43209   */\n      tag_959\n      jumpi\n        /* \"#utility.yul\":43189:43207   */\n      tag_960\n      tag_535\n      jump\t// in\n    tag_960:\n        /* \"#utility.yul\":43174:43209   */\n    tag_959:\n        /* \"#utility.yul\":43231:43232   */\n      dup3\n        /* \"#utility.yul\":43228:43229   */\n      dup3\n        /* \"#utility.yul\":43224:43233   */\n      div\n        /* \"#utility.yul\":43219:43233   */\n      swap1\n      pop\n        /* \"#utility.yul\":43054:43239   */\n      swap3\n      swap2\n      pop\n      pop\n      jump\t// out\n        /* \"#utility.yul\":43245:43413   */\n    tag_536:\n        /* \"#utility.yul\":43385:43405   */\n      0x696e707574206e6f742075706c6f616465640000000000000000000000000000\n        /* \"#utility.yul\":43381:43382   */\n      0x00\n        /* \"#utility.yul\":43373:43379   */\n      dup3\n        /* \"#utility.yul\":43369:43383   */\n      add\n        /* \"#utility.yul\":43362:43406   */\n      mstore\n        /* \"#utility.yul\":43245:43413   */\n      pop\n      jump\t// out\n        /* \"#utility.yul\":43419:43785   */\n    tag_537:\n        /* \"#utility.yul\":43561:43564   */\n      0x00\n        /* \"#utility.yul\":43582:43649   */\n      tag_963\n        /* \"#utility.yul\":43646:43648   */\n      0x12\n        /* \"#utility.yul\":43641:43644   */\n      dup4\n        /* \"#utility.yul\":43582:43649   */\n      tag_487\n      jump\t// in\n    tag_963:\n        /* \"#utility.yul\":43575:43649   */\n      swap2\n      pop\n        /* \"#utility.yul\":43658:43751   */\n      tag_964\n        /* \"#utility.yul\":43747:43750   */\n      dup3\n        /* \"#utility.yul\":43658:43751   */\n      tag_536\n      jump\t// in\n    tag_964:\n        /* \"#utility.yul\":43776:43778   */\n      0x20\n        /* \"#utility.yul\":43771:43774   */\n      dup3\n        /* \"#utility.yul\":43767:43779   */\n      add\n        /* \"#utility.yul\":43760:43779   */\n      swap1\n      pop\n        /* \"#utility.yul\":43419:43785   */\n      swap2\n      swap1\n      pop\n      jump\t// out\n        /* \"#utility.yul\":43791:44210   */\n    tag_429:\n        /* \"#utility.yul\":43957:43961   */\n      0x00\n        /* \"#utility.yul\":43995:43997   */\n      0x20\n        /* \"#utility.yul\":43984:43993   */\n      dup3\n        /* \"#utility.yul\":43980:43998   */\n      add\n        /* \"#utility.yul\":43972:43998   */\n      swap1\n      pop\n        /* \"#utility.yul\":44044:44053   */\n      dup2\n        /* \"#utility.yul\":44038:44042   */\n      dup2\n        /* \"#utility.yul\":44034:44054   */\n      sub\n        /* \"#utility.yul\":44030:44031   */\n      0x00\n        /* \"#utility.yul\":44019:44028   */\n      dup4\n        /* \"#utility.yul\":44015:44032   */\n      add\n        /* \"#utility.yul\":44008:44055   */\n      mstore\n        /* \"#utility.yul\":44072:44203   */\n      tag_966\n        /* \"#utility.yul\":44198:44202   */\n      dup2\n        /* \"#utility.yul\":44072:44203   */\n      tag_537\n      jump\t// in\n    tag_966:\n        /* \"#utility.yul\":44064:44203   */\n      swap1\n      pop\n        /* \"#utility.yul\":43791:44210   */\n      swap2\n      swap1\n      pop\n      jump\t// out\n        /* \"#utility.yul\":44216:44386   */\n    tag_538:\n        /* \"#utility.yul\":44356:44378   */\n      0x6761734c696d69742063616e6e6f742062652030000000000000000000000000\n        /* \"#utility.yul\":44352:44353   */\n      0x00\n        /* \"#utility.yul\":44344:44350   */\n      dup3\n        /* \"#utility.yul\":44340:44354   */\n      add\n        /* \"#utility.yul\":44333:44379   */\n      mstore\n        /* \"#utility.yul\":44216:44386   */\n      pop\n      jump\t// out\n        /* \"#utility.yul\":44392:44758   */\n    tag_539:\n        /* \"#utility.yul\":44534:44537   */\n      0x00\n        /* \"#utility.yul\":44555:44622   */\n      tag_969\n        /* \"#utility.yul\":44619:44621   */\n      0x14\n        /* \"#utility.yul\":44614:44617   */\n      dup4\n        /* \"#utility.yul\":44555:44622   */\n      tag_487\n      jump\t// in\n    tag_969:\n        /* \"#utility.yul\":44548:44622   */\n      swap2\n      pop\n        /* \"#utility.yul\":44631:44724   */\n      tag_970\n        /* \"#utility.yul\":44720:44723   */\n      dup3\n        /* \"#utility.yul\":44631:44724   */\n      tag_538\n      jump\t// in\n    tag_970:\n        /* \"#utility.yul\":44749:44751   */\n      0x20\n        /* \"#utility.yul\":44744:44747   */\n      dup3\n        /* \"#utility.yul\":44740:44752   */\n      add\n        /* \"#utility.yul\":44733:44752   */\n      swap1\n      pop\n        /* \"#utility.yul\":44392:44758   */\n      swap2\n      swap1\n      pop\n      jump\t// out\n        /* \"#utility.yul\":44764:45183   */\n    tag_432:\n        /* \"#utility.yul\":44930:44934   */\n      0x00\n        /* \"#utility.yul\":44968:44970   */\n      0x20\n        /* \"#utility.yul\":44957:44966   */\n      dup3\n        /* \"#utility.yul\":44953:44971   */\n      add\n        /* \"#utility.yul\":44945:44971   */\n      swap1\n      pop\n        /* \"#utility.yul\":45017:45026   */\n      dup2\n        /* \"#utility.yul\":45011:45015   */\n      dup2\n        /* \"#utility.yul\":45007:45027   */\n      sub\n        /* \"#utility.yul\":45003:45004   */\n      0x00\n        /* \"#utility.yul\":44992:45001   */\n      dup4\n        /* \"#utility.yul\":44988:45005   */\n      add\n        /* \"#utility.yul\":44981:45028   */\n      mstore\n        /* \"#utility.yul\":45045:45176   */\n      tag_972\n        /* \"#utility.yul\":45171:45175   */\n      dup2\n        /* \"#utility.yul\":45045:45176   */\n      tag_539\n      jump\t// in\n    tag_972:\n        /* \"#utility.yul\":45037:45176   */\n      swap1\n      pop\n        /* \"#utility.yul\":44764:45183   */\n      swap2\n      swap1\n      pop\n      jump\t// out\n\n    auxdata: 0xa264697066735822122024c52a736eb251ac1a43a9392465a94beed7104e93da192b9bcaeeb009a244ef64736f6c634300081a0033\n}\n",
				"bytecode": {
					"linkReferences": {},
					"object": "608060405234801561000f575f80fd5b50604051613efb380380613efb83398181016040528101906100319190610155565b805f806101000a81548173ffffffffffffffffffffffffffffffffffffffff021916908373ffffffffffffffffffffffffffffffffffffffff1602179055503360015f6101000a81548173ffffffffffffffffffffffffffffffffffffffff021916908373ffffffffffffffffffffffffffffffffffffffff1602179055508160025f6101000a81548173ffffffffffffffffffffffffffffffffffffffff021916908373ffffffffffffffffffffffffffffffffffffffff1602179055505050610193565b5f80fd5b5f73ffffffffffffffffffffffffffffffffffffffff82169050919050565b5f610124826100fb565b9050919050565b6101348161011a565b811461013e575f80fd5b50565b5f8151905061014f8161012b565b92915050565b5f806040838503121561016b5761016a6100f7565b5b5f61017885828601610141565b925050602061018985828601610141565b9150509250929050565b613d5b806101a05f395ff3fe6080604052600436106101b4575f3560e01c80636c124d74116100eb578063ace04ec711610089578063e857f74711610063578063e857f747146105ce578063f9f92be4146105f8578063fd922a4214610634578063fe173b971461065e576101b4565b8063ace04ec714610554578063b10975231461056a578063b70b5ccc146105a6576101b4565b806381d12c58116100c557806381d12c581461049657806382dcc26d146104d85780638da5cb5b146105005780639a6a794f1461052a576101b4565b80636c124d741461041c5780636d36169414610444578063754592b214610480576101b4565b8063537df3b6116101585780635638101b116101325780635638101b146103745780635b9538061461039c578063699ecb83146103cc5780636b0641a3146103f4576101b4565b8063537df3b6146102fc57806354c33b101461032457806355d15d931461034c576101b4565b8063349c413611610194578063349c4136146102585780633ccfd60b1461029457806344337ea1146102aa57806349163731146102d2576101b4565b806277f244146101b8578062e1d8d0146101e057806333727c4d1461021c575b5f80fd5b3480156101c3575f80fd5b506101de60048036038101906101d99190612763565b610688565b005b3480156101eb575f80fd5b50610206600480360381019061020191906127a1565b6107b7565b60405161021391906127ee565b60405180910390f35b348015610227575f80fd5b50610242600480360381019061023d9190612807565b610851565b60405161024f919061284c565b60405180910390f35b348015610263575f80fd5b5061027e60048036038101906102799190612807565b6108d8565b60405161028b91906127ee565b60405180910390f35b34801561029f575f80fd5b506102a86108f8565b005b3480156102b5575f80fd5b506102d060048036038101906102cb9190612865565b610abe565b005b3480156102dd575f80fd5b506102e6610b8b565b6040516102f391906128ca565b60405180910390f35b348015610307575f80fd5b50610322600480360381019061031d9190612865565b610b99565b005b34801561032f575f80fd5b5061034a60048036038101906103459190612916565b610c65565b005b348015610357575f80fd5b50610372600480360381019061036d9190612a00565b610dff565b005b34801561037f575f80fd5b5061039a60048036038101906103959190612807565b61117a565b005b6103b660048036038101906103b19190612bd2565b6112ab565b6040516103c391906127ee565b60405180910390f35b3480156103d7575f80fd5b506103f260048036038101906103ed91906127a1565b611549565b005b3480156103ff575f80fd5b5061041a60048036038101906104159190612807565b611683565b005b348015610427575f80fd5b50610442600480360381019061043d91906127a1565b611840565b005b34801561044f575f80fd5b5061046a60048036038101906104659190612807565b611936565b6040516104779190612d27565b60405180910390f35b34801561048b575f80fd5b50610494611a4b565b005b3480156104a1575f80fd5b506104bc60048036038101906104b79190612807565b611ac9565b6040516104cf9796959493929190612dbe565b60405180910390f35b3480156104e3575f80fd5b506104fe60048036038101906104f99190612807565b611c65565b005b34801561050b575f80fd5b50610514611fb4565b6040516105219190612e39565b60405180910390f35b348015610535575f80fd5b5061053e611fdc565b60405161054b9190612ead565b60405180910390f35b34801561055f575f80fd5b50610568612003565b005b348015610575575f80fd5b50610590600480360381019061058b9190612807565b612087565b60405161059d9190612ec6565b60405180910390f35b3480156105b1575f80fd5b506105cc60048036038101906105c79190612916565b612122565b005b3480156105d9575f80fd5b506105e2612379565b6040516105ef91906127ee565b60405180910390f35b348015610603575f80fd5b5061061e60048036038101906106199190612865565b612385565b60405161062b919061284c565b60405180910390f35b34801561063f575f80fd5b506106486123a2565b6040516106559190612e39565b60405180910390f35b348015610669575f80fd5b506106726123ca565b60405161067f91906127ee565b60405180910390f35b610690611fb4565b73ffffffffffffffffffffffffffffffffffffffff163373ffffffffffffffffffffffffffffffffffffffff16146106fd576040517f08c379a00000000000000000000000000000000000000000000000000000000081526004016106f490612f40565b60405180910390fd5b8160075f8281526020019081526020015f205f9054906101000a900460ff1661075b576040517f08c379a000000000000000000000000000000000000000000000000000000000815260040161075290612fa8565b60405180910390fd5b5f60065f8581526020019081526020015f20905082816003015f6101000a81548173ffffffffffffffffffffffffffffffffffffffff021916908373ffffffffffffffffffffffffffffffffffffffff16021790555050505050565b5f8260075f8281526020019081526020015f205f9054906101000a900460ff16610816576040517f08c379a000000000000000000000000000000000000000000000000000000000815260040161080d90612fa8565b60405180910390fd5b5f60065f8681526020019081526020015f209050836008546108389190612ff3565b81600201546108479190613034565b9250505092915050565b5f61085a611fdc565b73ffffffffffffffffffffffffffffffffffffffff166333727c4d836040518263ffffffff1660e01b815260040161089291906127ee565b602060405180830381865afa1580156108ad573d5f803e3d5ffd5b505050506040513d601f19601f820116820180604052508101906108d19190613091565b9050919050565b600981815481106108e7575f80fd5b905f5260205f20015f915090505481565b610900611fb4565b73ffffffffffffffffffffffffffffffffffffffff163373ffffffffffffffffffffffffffffffffffffffff161461096d576040517f08c379a000000000000000000000000000000000000000000000000000000000815260040161096490612f40565b60405180910390fd5b5f805f90505b600980549050811015610a66575f60098281548110610995576109946130bc565b5b905f5260205f20015490505f60065f8381526020019081526020015f206040518060c00160405290815f82015481526020016001820154815260200160028201548152602001600382015f9054906101000a900473ffffffffffffffffffffffffffffffffffffffff1673ffffffffffffffffffffffffffffffffffffffff1673ffffffffffffffffffffffffffffffffffffffff1681526020016004820154815260200160058201548152505090508060a0015184610a559190613034565b935050508080600101915050610973565b505f8147610a7491906130e9565b90503373ffffffffffffffffffffffffffffffffffffffff166108fc8290811502906040515f60405180830381858888f19350505050158015610ab9573d5f803e3d5ffd5b505050565b610ac6611fb4565b73ffffffffffffffffffffffffffffffffffffffff163373ffffffffffffffffffffffffffffffffffffffff1614610b33576040517f08c379a0000000000000000000000000000000000000000000000000000000008152600401610b2a90612f40565b60405180910390fd5b600160035f8373ffffffffffffffffffffffffffffffffffffffff1673ffffffffffffffffffffffffffffffffffffffff1681526020019081526020015f205f6101000a81548160ff02191690831515021790555050565b5f63b034781460e01b905090565b610ba1611fb4565b73ffffffffffffffffffffffffffffffffffffffff163373ffffffffffffffffffffffffffffffffffffffff1614610c0e576040517f08c379a0000000000000000000000000000000000000000000000000000000008152600401610c0590612f40565b60405180910390fd5b5f60035f8373ffffffffffffffffffffffffffffffffffffffff1673ffffffffffffffffffffffffffffffffffffffff1681526020019081526020015f205f6101000a81548160ff02191690831515021790555050565b610c6d611fb4565b73ffffffffffffffffffffffffffffffffffffffff163373ffffffffffffffffffffffffffffffffffffffff1614610cda576040517f08c379a0000000000000000000000000000000000000000000000000000000008152600401610cd190612f40565b60405180910390fd5b8560075f8281526020019081526020015f205f9054906101000a900460ff16610d38576040517f08c379a0000000000000000000000000000000000000000000000000000000008152600401610d2f90612fa8565b60405180910390fd5b6064821115610d7c576040517f08c379a0000000000000000000000000000000000000000000000000000000008152600401610d7390613166565b60405180910390fd5b5f60065f8981526020019081526020015f20905086815f018190555085816001018190555084816002018190555083816003015f6101000a81548173ffffffffffffffffffffffffffffffffffffffff021916908373ffffffffffffffffffffffffffffffffffffffff1602179055508281600401819055505050505050505050565b610e076123a2565b73ffffffffffffffffffffffffffffffffffffffff163373ffffffffffffffffffffffffffffffffffffffff1614610e74576040517f08c379a0000000000000000000000000000000000000000000000000000000008152600401610e6b906131ce565b60405180910390fd5b5f60045f8581526020019081526020015f209050610e90611fdc565b73ffffffffffffffffffffffffffffffffffffffff1663480f07c88585856040518463ffffffff1660e01b8152600401610ecc93929190613218565b5f604051808303815f87803b158015610ee3575f80fd5b505af1158015610ef5573d5f803e3d5ffd5b505050505f73ffffffffffffffffffffffffffffffffffffffff16816004015f9054906101000a900473ffffffffffffffffffffffffffffffffffffffff1673ffffffffffffffffffffffffffffffffffffffff16146110d7575f610f58610b8b565b8260010154858585600501604051602401610f769493929190613338565b604051602081830303815290604052907bffffffffffffffffffffffffffffffffffffffffffffffffffffffff19166020820180517bffffffffffffffffffffffffffffffffffffffffffffffffffffffff838183161783525050505090505f80836004015f9054906101000a900473ffffffffffffffffffffffffffffffffffffffff1673ffffffffffffffffffffffffffffffffffffffff168460040160149054906101000a900467ffffffffffffffff1667ffffffffffffffff168460405161104291906133b7565b5f604051808303815f8787f1925050503d805f811461107c576040519150601f19603f3d011682016040523d82523d5f602084013e611081565b606091505b5091509150816110c6576040517f08c379a00000000000000000000000000000000000000000000000000000000081526004016110bd90613417565b60405180910390fd5b816110d357805160208201fd5b5050505b828260055f8781526020019081526020015f2091826110f79291906135c1565b5083815f015f9054906101000a900473ffffffffffffffffffffffffffffffffffffffff1673ffffffffffffffffffffffffffffffffffffffff167fb7b413554c4e94c80cfbb175a0e4727f2f425d29b980195c49dac293c2914fc03386866040516111659392919061368e565b60405180910390a33a60088190555050505050565b8060075f8281526020019081526020015f205f9054906101000a900460ff166111d8576040517f08c379a00000000000000000000000000000000000000000000000000000000081526004016111cf90612fa8565b60405180910390fd5b5f60065f8481526020019081526020015f2090505f816005015411611232576040517f08c379a000000000000000000000000000000000000000000000000000000000815260040161122990613708565b60405180910390fd5b806003015f9054906101000a900473ffffffffffffffffffffffffffffffffffffffff1673ffffffffffffffffffffffffffffffffffffffff166108fc826005015490811502906040515f60405180830381858888f1935050505015801561129c573d5f803e3d5ffd5b505f8160050181905550505050565b5f6112b8868686866123d0565b5f60065f8881526020019081526020015f206040518060c00160405290815f82015481526020016001820154815260200160028201548152602001600382015f9054906101000a900473ffffffffffffffffffffffffffffffffffffffff1673ffffffffffffffffffffffffffffffffffffffff1673ffffffffffffffffffffffffffffffffffffffff1681526020016004820154815260200160058201548152505090505f611366611fdc565b73ffffffffffffffffffffffffffffffffffffffff1663c61b0b76835f015184602001518a6040518463ffffffff1660e01b81526004016113a993929190613735565b6020604051808303815f875af11580156113c5573d5f803e3d5ffd5b505050506040513d601f19601f820116820180604052508101906113e99190613785565b90505f60045f8381526020019081526020015f20905033815f015f6101000a81548173ffffffffffffffffffffffffffffffffffffffff021916908373ffffffffffffffffffffffffffffffffffffffff1602179055508181600101819055508881600201819055508781600301908161146391906137b0565b5086816004015f6101000a81548173ffffffffffffffffffffffffffffffffffffffff021916908373ffffffffffffffffffffffffffffffffffffffff160217905550858160040160146101000a81548167ffffffffffffffff021916908367ffffffffffffffff160217905550848160050190816114e291906137b0565b50813373ffffffffffffffffffffffffffffffffffffffff167f849aa5adc3bf6a75cb08afbf31d88d1528c274e5d84e3d4355d23d8e9ebd649b8b8b8b8b8b60405161153295949392919061387f565b60405180910390a381935050505095945050505050565b611551611fb4565b73ffffffffffffffffffffffffffffffffffffffff163373ffffffffffffffffffffffffffffffffffffffff16146115be576040517f08c379a00000000000000000000000000000000000000000000000000000000081526004016115b590612f40565b60405180910390fd5b8160075f8281526020019081526020015f205f9054906101000a900460ff1661161c576040517f08c379a000000000000000000000000000000000000000000000000000000000815260040161161390612fa8565b60405180910390fd5b6064821115611660576040517f08c379a000000000000000000000000000000000000000000000000000000000815260040161165790613166565b60405180910390fd5b5f60065f8581526020019081526020015f20905082816004018190555050505050565b61168b611fb4565b73ffffffffffffffffffffffffffffffffffffffff163373ffffffffffffffffffffffffffffffffffffffff16146116f8576040517f08c379a00000000000000000000000000000000000000000000000000000000081526004016116ef90612f40565b60405180910390fd5b8060075f8281526020019081526020015f205f9054906101000a900460ff16611756576040517f08c379a000000000000000000000000000000000000000000000000000000000815260040161174d90612fa8565b60405180910390fd5b5f60075f8481526020019081526020015f205f6101000a81548160ff0219169083151502179055505f5b60098054905081101561183b575f600982815481106117a2576117a16130bc565b5b905f5260205f200154905083810361182d57600960016009805490506117c891906130e9565b815481106117d9576117d86130bc565b5b905f5260205f200154600983815481106117f6576117f56130bc565b5b905f5260205f2001819055506009805480611814576118136138de565b5b600190038181905f5260205f20015f905590555061183b565b508080600101915050611780565b505050565b611848611fb4565b73ffffffffffffffffffffffffffffffffffffffff163373ffffffffffffffffffffffffffffffffffffffff16146118b5576040517f08c379a00000000000000000000000000000000000000000000000000000000081526004016118ac90612f40565b60405180910390fd5b8160075f8281526020019081526020015f205f9054906101000a900460ff16611913576040517f08c379a000000000000000000000000000000000000000000000000000000000815260040161190a90612fa8565b60405180910390fd5b5f60065f8581526020019081526020015f20905082816002018190555050505050565b61193e612640565b8160075f8281526020019081526020015f205f9054906101000a900460ff1661199c576040517f08c379a000000000000000000000000000000000000000000000000000000000815260040161199390612fa8565b60405180910390fd5b5f60065f8581526020019081526020015f206040518060c00160405290815f82015481526020016001820154815260200160028201548152602001600382015f9054906101000a900473ffffffffffffffffffffffffffffffffffffffff1673ffffffffffffffffffffffffffffffffffffffff1673ffffffffffffffffffffffffffffffffffffffff1681526020016004820154815260200160058201548152505090508092505050919050565b611a53611fb4565b73ffffffffffffffffffffffffffffffffffffffff163373ffffffffffffffffffffffffffffffffffffffff1614611ac0576040517f08c379a0000000000000000000000000000000000000000000000000000000008152600401611ab790612f40565b60405180910390fd5b5f600881905550565b6004602052805f5260405f205f91509050805f015f9054906101000a900473ffffffffffffffffffffffffffffffffffffffff1690806001015490806002015490806003018054611b1990613275565b80601f0160208091040260200160405190810160405280929190818152602001828054611b4590613275565b8015611b905780601f10611b6757610100808354040283529160200191611b90565b820191905f5260205f20905b815481529060010190602001808311611b7357829003601f168201915b505050505090806004015f9054906101000a900473ffffffffffffffffffffffffffffffffffffffff16908060040160149054906101000a900467ffffffffffffffff1690806005018054611be490613275565b80601f0160208091040260200160405190810160405280929190818152602001828054611c1090613275565b8015611c5b5780601f10611c3257610100808354040283529160200191611c5b565b820191905f5260205f20905b815481529060010190602001808311611c3e57829003601f168201915b5050505050905087565b5f60045f8381526020019081526020015f2090505f611c82611fdc565b73ffffffffffffffffffffffffffffffffffffffff166317861f87846040518263ffffffff1660e01b8152600401611cba91906127ee565b5f60405180830381865afa158015611cd4573d5f803e3d5ffd5b505050506040513d5f823e3d601f19601f82011682018060405250810190611cfc9190613979565b90505f815111611d41576040517f08c379a0000000000000000000000000000000000000000000000000000000008152600401611d3890613a0a565b60405180910390fd5b5f73ffffffffffffffffffffffffffffffffffffffff16826004015f9054906101000a900473ffffffffffffffffffffffffffffffffffffffff1673ffffffffffffffffffffffffffffffffffffffff1614611f1d575f611da0610b8b565b83600101548385600501604051602401611dbc93929190613a28565b604051602081830303815290604052907bffffffffffffffffffffffffffffffffffffffffffffffffffffffff19166020820180517bffffffffffffffffffffffffffffffffffffffffffffffffffffffff838183161783525050505090505f80846004015f9054906101000a900473ffffffffffffffffffffffffffffffffffffffff1673ffffffffffffffffffffffffffffffffffffffff168560040160149054906101000a900467ffffffffffffffff1667ffffffffffffffff1684604051611e8891906133b7565b5f604051808303815f8787f1925050503d805f8114611ec2576040519150601f19603f3d011682016040523d82523d5f602084013e611ec7565b606091505b509150915081611f0c576040517f08c379a0000000000000000000000000000000000000000000000000000000008152600401611f0390613417565b60405180910390fd5b81611f1957805160208201fd5b5050505b8060055f8581526020019081526020015f209081611f3b91906137b0565b5082825f015f9054906101000a900473ffffffffffffffffffffffffffffffffffffffff1673ffffffffffffffffffffffffffffffffffffffff167fb7b413554c4e94c80cfbb175a0e4727f2f425d29b980195c49dac293c2914fc03384604051611fa7929190613a6b565b60405180910390a3505050565b5f60015f9054906101000a900473ffffffffffffffffffffffffffffffffffffffff16905090565b5f805f9054906101000a900473ffffffffffffffffffffffffffffffffffffffff16905090565b61200b611fb4565b73ffffffffffffffffffffffffffffffffffffffff163373ffffffffffffffffffffffffffffffffffffffff1614612078576040517f08c379a000000000000000000000000000000000000000000000000000000000815260040161206f90612f40565b60405180910390fd5b60095f612085919061268c565b565b6005602052805f5260405f205f9150905080546120a390613275565b80601f01602080910402602001604051908101604052809291908181526020018280546120cf90613275565b801561211a5780601f106120f15761010080835404028352916020019161211a565b820191905f5260205f20905b8154815290600101906020018083116120fd57829003601f168201915b505050505081565b61212a611fb4565b73ffffffffffffffffffffffffffffffffffffffff163373ffffffffffffffffffffffffffffffffffffffff1614612197576040517f08c379a000000000000000000000000000000000000000000000000000000000815260040161218e90612f40565b60405180910390fd5b60075f8781526020019081526020015f205f9054906101000a900460ff16156121f5576040517f08c379a00000000000000000000000000000000000000000000000000000000081526004016121ec90613ae3565b60405180910390fd5b6064811115612239576040517f08c379a000000000000000000000000000000000000000000000000000000000815260040161223090613166565b60405180910390fd5b600160075f8881526020019081526020015f205f6101000a81548160ff021916908315150217905550600986908060018154018082558091505060019003905f5260205f20015f90919091909150555f60065f8881526020019081526020015f20905085815f018190555084816001018190555083816002018190555082816003015f6101000a81548173ffffffffffffffffffffffffffffffffffffffff021916908373ffffffffffffffffffffffffffffffffffffffff160217905550818160040181905550612309611fdc565b73ffffffffffffffffffffffffffffffffffffffff16635c3d151987876040518363ffffffff1660e01b8152600401612343929190613b01565b5f604051808303815f87803b15801561235a575f80fd5b505af115801561236c573d5f803e3d5ffd5b5050505050505050505050565b5f600980549050905090565b6003602052805f5260405f205f915054906101000a900460ff1681565b5f60025f9054906101000a900473ffffffffffffffffffffffffffffffffffffffff16905090565b60085481565b8360075f8281526020019081526020015f205f9054906101000a900460ff1661242e576040517f08c379a000000000000000000000000000000000000000000000000000000000815260040161242590612fa8565b60405180910390fd5b8260035f8273ffffffffffffffffffffffffffffffffffffffff1673ffffffffffffffffffffffffffffffffffffffff1681526020019081526020015f205f9054906101000a900460ff16156124b9576040517f08c379a00000000000000000000000000000000000000000000000000000000081526004016124b090613b72565b60405180910390fd5b5f60065f8881526020019081526020015f2090508367ffffffffffffffff166008546124e59190612ff3565b81600201546124f49190613034565b341015612536576040517f08c379a000000000000000000000000000000000000000000000000000000000815260040161252d90613bda565b60405180910390fd5b60648160040154826002015461254c9190612ff3565b6125569190613c25565b816005015f8282546125689190613034565b925050819055505f8651116125b2576040517f08c379a00000000000000000000000000000000000000000000000000000000081526004016125a990613c9f565b60405180910390fd5b5f8073ffffffffffffffffffffffffffffffffffffffff168673ffffffffffffffffffffffffffffffffffffffff161490505f8567ffffffffffffffff1614151581151514612636576040517f08c379a000000000000000000000000000000000000000000000000000000000815260040161262d90613d07565b60405180910390fd5b5050505050505050565b6040518060c001604052805f80191681526020015f80191681526020015f81526020015f73ffffffffffffffffffffffffffffffffffffffff1681526020015f81526020015f81525090565b5080545f8255905f5260205f20908101906126a791906126aa565b50565b5b808211156126c1575f815f9055506001016126ab565b5090565b5f604051905090565b5f80fd5b5f80fd5b5f819050919050565b6126e8816126d6565b81146126f2575f80fd5b50565b5f81359050612703816126df565b92915050565b5f73ffffffffffffffffffffffffffffffffffffffff82169050919050565b5f61273282612709565b9050919050565b61274281612728565b811461274c575f80fd5b50565b5f8135905061275d81612739565b92915050565b5f8060408385031215612779576127786126ce565b5b5f612786858286016126f5565b92505060206127978582860161274f565b9150509250929050565b5f80604083850312156127b7576127b66126ce565b5b5f6127c4858286016126f5565b92505060206127d5858286016126f5565b9150509250929050565b6127e8816126d6565b82525050565b5f6020820190506128015f8301846127df565b92915050565b5f6020828403121561281c5761281b6126ce565b5b5f612829848285016126f5565b91505092915050565b5f8115159050919050565b61284681612832565b82525050565b5f60208201905061285f5f83018461283d565b92915050565b5f6020828403121561287a576128796126ce565b5b5f6128878482850161274f565b91505092915050565b5f7fffffffff0000000000000000000000000000000000000000000000000000000082169050919050565b6128c481612890565b82525050565b5f6020820190506128dd5f8301846128bb565b92915050565b5f819050919050565b6128f5816128e3565b81146128ff575f80fd5b50565b5f81359050612910816128ec565b92915050565b5f805f805f8060c087890312156129305761292f6126ce565b5b5f61293d89828a016126f5565b965050602061294e89828a01612902565b955050604061295f89828a01612902565b945050606061297089828a016126f5565b935050608061298189828a0161274f565b92505060a061299289828a016126f5565b9150509295509295509295565b5f80fd5b5f80fd5b5f80fd5b5f8083601f8401126129c0576129bf61299f565b5b8235905067ffffffffffffffff8111156129dd576129dc6129a3565b5b6020830191508360018202830111156129f9576129f86129a7565b5b9250929050565b5f805f60408486031215612a1757612a166126ce565b5b5f612a24868287016126f5565b935050602084013567ffffffffffffffff811115612a4557612a446126d2565b5b612a51868287016129ab565b92509250509250925092565b5f80fd5b5f601f19601f8301169050919050565b7f4e487b71000000000000000000000000000000000000000000000000000000005f52604160045260245ffd5b612aa782612a61565b810181811067ffffffffffffffff82111715612ac657612ac5612a71565b5b80604052505050565b5f612ad86126c5565b9050612ae48282612a9e565b919050565b5f67ffffffffffffffff821115612b0357612b02612a71565b5b612b0c82612a61565b9050602081019050919050565b828183375f83830152505050565b5f612b39612b3484612ae9565b612acf565b905082815260208101848484011115612b5557612b54612a5d565b5b612b60848285612b19565b509392505050565b5f82601f830112612b7c57612b7b61299f565b5b8135612b8c848260208601612b27565b91505092915050565b5f67ffffffffffffffff82169050919050565b612bb181612b95565b8114612bbb575f80fd5b50565b5f81359050612bcc81612ba8565b92915050565b5f805f805f60a08688031215612beb57612bea6126ce565b5b5f612bf8888289016126f5565b955050602086013567ffffffffffffffff811115612c1957612c186126d2565b5b612c2588828901612b68565b9450506040612c368882890161274f565b9350506060612c4788828901612bbe565b925050608086013567ffffffffffffffff811115612c6857612c676126d2565b5b612c7488828901612b68565b9150509295509295909350565b612c8a816128e3565b82525050565b612c99816126d6565b82525050565b612ca881612728565b82525050565b60c082015f820151612cc25f850182612c81565b506020820151612cd56020850182612c81565b506040820151612ce86040850182612c90565b506060820151612cfb6060850182612c9f565b506080820151612d0e6080850182612c90565b5060a0820151612d2160a0850182612c90565b50505050565b5f60c082019050612d3a5f830184612cae565b92915050565b612d4981612728565b82525050565b5f81519050919050565b5f82825260208201905092915050565b8281835e5f83830152505050565b5f612d8182612d4f565b612d8b8185612d59565b9350612d9b818560208601612d69565b612da481612a61565b840191505092915050565b612db881612b95565b82525050565b5f60e082019050612dd15f83018a612d40565b612dde60208301896127df565b612deb60408301886127df565b8181036060830152612dfd8187612d77565b9050612e0c6080830186612d40565b612e1960a0830185612daf565b81810360c0830152612e2b8184612d77565b905098975050505050505050565b5f602082019050612e4c5f830184612d40565b92915050565b5f819050919050565b5f612e75612e70612e6b84612709565b612e52565b612709565b9050919050565b5f612e8682612e5b565b9050919050565b5f612e9782612e7c565b9050919050565b612ea781612e8d565b82525050565b5f602082019050612ec05f830184612e9e565b92915050565b5f6020820190508181035f830152612ede8184612d77565b905092915050565b5f82825260208201905092915050565b7f4e6f7420746865206f776e6572000000000000000000000000000000000000005f82015250565b5f612f2a600d83612ee6565b9150612f3582612ef6565b602082019050919050565b5f6020820190508181035f830152612f5781612f1e565b9050919050565b7f6d6f64656c20646f6573206e6f742065786973740000000000000000000000005f82015250565b5f612f92601483612ee6565b9150612f9d82612f5e565b602082019050919050565b5f6020820190508181035f830152612fbf81612f86565b9050919050565b7f4e487b71000000000000000000000000000000000000000000000000000000005f52601160045260245ffd5b5f612ffd826126d6565b9150613008836126d6565b9250828202613016816126d6565b9150828204841483151761302d5761302c612fc6565b5b5092915050565b5f61303e826126d6565b9150613049836126d6565b925082820190508082111561306157613060612fc6565b5b92915050565b61307081612832565b811461307a575f80fd5b50565b5f8151905061308b81613067565b92915050565b5f602082840312156130a6576130a56126ce565b5b5f6130b38482850161307d565b91505092915050565b7f4e487b71000000000000000000000000000000000000000000000000000000005f52603260045260245ffd5b5f6130f3826126d6565b91506130fe836126d6565b925082820390508181111561311657613115612fc6565b5b92915050565b7f70657263656e746167652073686f756c64206265203c3d2031303000000000005f82015250565b5f613150601b83612ee6565b915061315b8261311c565b602082019050919050565b5f6020820190508181035f83015261317d81613144565b9050919050565b7f4f6e6c79207365727665720000000000000000000000000000000000000000005f82015250565b5f6131b8600b83612ee6565b91506131c382613184565b602082019050919050565b5f6020820190508181035f8301526131e5816131ac565b9050919050565b5f6131f78385612d59565b9350613204838584612b19565b61320d83612a61565b840190509392505050565b5f60408201905061322b5f8301866127df565b818103602083015261323e8184866131ec565b9050949350505050565b7f4e487b71000000000000000000000000000000000000000000000000000000005f52602260045260245ffd5b5f600282049050600182168061328c57607f821691505b60208210810361329f5761329e613248565b5b50919050565b5f819050815f5260205f209050919050565b5f81546132c381613275565b6132cd8186612d59565b9450600182165f81146132e757600181146132fd5761332f565b60ff19831686528115156020028601935061332f565b613306856132a5565b5f5b8381101561332757815481890152600182019150602081019050613308565b808801955050505b50505092915050565b5f60608201905061334b5f8301876127df565b818103602083015261335e8185876131ec565b9050818103604083015261337281846132b7565b905095945050505050565b5f81905092915050565b5f61339182612d4f565b61339b818561337d565b93506133ab818560208601612d69565b80840191505092915050565b5f6133c28284613387565b915081905092915050565b7f6661696c656420746f2063616c6c2073656c6563746f720000000000000000005f82015250565b5f613401601783612ee6565b915061340c826133cd565b602082019050919050565b5f6020820190508181035f83015261342e816133f5565b9050919050565b5f82905092915050565b5f6020601f8301049050919050565b5f82821b905092915050565b5f600883026134897fffffffffffffffffffffffffffffffffffffffffffffffffffffffffffffffff8261344e565b613493868361344e565b95508019841693508086168417925050509392505050565b5f6134c56134c06134bb846126d6565b612e52565b6126d6565b9050919050565b5f819050919050565b6134de836134ab565b6134f26134ea826134cc565b84845461345a565b825550505050565b5f90565b6135066134fa565b6135118184846134d5565b505050565b5b81811015613534576135295f826134fe565b600181019050613517565b5050565b601f8211156135795761354a816132a5565b6135538461343f565b81016020851015613562578190505b61357661356e8561343f565b830182613516565b50505b505050565b5f82821c905092915050565b5f6135995f198460080261357e565b1980831691505092915050565b5f6135b1838361358a565b9150826002028217905092915050565b6135cb8383613435565b67ffffffffffffffff8111156135e4576135e3612a71565b5b6135ee8254613275565b6135f9828285613538565b5f601f831160018114613626575f8415613614578287013590505b61361e85826135a6565b865550613685565b601f198416613634866132a5565b5f5b8281101561365b57848901358255600182019150602085019450602081019050613636565b868310156136785784890135613674601f89168261358a565b8355505b6001600288020188555050505b50505050505050565b5f6040820190506136a15f830186612d40565b81810360208301526136b48184866131ec565b9050949350505050565b7f616363756d756c61746520726576656e756520697320300000000000000000005f82015250565b5f6136f2601783612ee6565b91506136fd826136be565b602082019050919050565b5f6020820190508181035f83015261371f816136e6565b9050919050565b61372f816128e3565b82525050565b5f6060820190506137485f830186613726565b6137556020830185613726565b81810360408301526137678184612d77565b9050949350505050565b5f8151905061377f816126df565b92915050565b5f6020828403121561379a576137996126ce565b5b5f6137a784828501613771565b91505092915050565b6137b982612d4f565b67ffffffffffffffff8111156137d2576137d1612a71565b5b6137dc8254613275565b6137e7828285613538565b5f60209050601f831160018114613818575f8415613806578287015190505b61381085826135a6565b865550613877565b601f198416613826866132a5565b5f5b8281101561384d57848901518255600182019150602085019450602081019050613828565b8683101561386a5784890151613866601f89168261358a565b8355505b6001600288020188555050505b505050505050565b5f60a0820190506138925f8301886127df565b81810360208301526138a48187612d77565b90506138b36040830186612d40565b6138c06060830185612daf565b81810360808301526138d28184612d77565b90509695505050505050565b7f4e487b71000000000000000000000000000000000000000000000000000000005f52603160045260245ffd5b5f61391d61391884612ae9565b612acf565b90508281526020810184848401111561393957613938612a5d565b5b613944848285612d69565b509392505050565b5f82601f8301126139605761395f61299f565b5b815161397084826020860161390b565b91505092915050565b5f6020828403121561398e5761398d6126ce565b5b5f82015167ffffffffffffffff8111156139ab576139aa6126d2565b5b6139b78482850161394c565b91505092915050565b7f6f7574707574206e6f742075706c6f61646564000000000000000000000000005f82015250565b5f6139f4601383612ee6565b91506139ff826139c0565b602082019050919050565b5f6020820190508181035f830152613a21816139e8565b9050919050565b5f606082019050613a3b5f8301866127df565b8181036020830152613a4d8185612d77565b90508181036040830152613a6181846132b7565b9050949350505050565b5f604082019050613a7e5f830185612d40565b8181036020830152613a908184612d77565b90509392505050565b7f6d6f64656c20616c7265616479206578697374730000000000000000000000005f82015250565b5f613acd601483612ee6565b9150613ad882613a99565b602082019050919050565b5f6020820190508181035f830152613afa81613ac1565b9050919050565b5f604082019050613b145f830185613726565b613b216020830184613726565b9392505050565b7f496e20626c61636b6c69737400000000000000000000000000000000000000005f82015250565b5f613b5c600c83612ee6565b9150613b6782613b28565b602082019050919050565b5f6020820190508181035f830152613b8981613b50565b9050919050565b7f696e73756666696369656e7420666565000000000000000000000000000000005f82015250565b5f613bc4601083612ee6565b9150613bcf82613b90565b602082019050919050565b5f6020820190508181035f830152613bf181613bb8565b9050919050565b7f4e487b71000000000000000000000000000000000000000000000000000000005f52601260045260245ffd5b5f613c2f826126d6565b9150613c3a836126d6565b925082613c4a57613c49613bf8565b5b828204905092915050565b7f696e707574206e6f742075706c6f6164656400000000000000000000000000005f82015250565b5f613c89601283612ee6565b9150613c9482613c55565b602082019050919050565b5f6020820190508181035f830152613cb681613c7d565b9050919050565b7f6761734c696d69742063616e6e6f7420626520300000000000000000000000005f82015250565b5f613cf1601483612ee6565b9150613cfc82613cbd565b602082019050919050565b5f6020820190508181035f830152613d1e81613ce5565b905091905056fea264697066735822122024c52a736eb251ac1a43a9392465a94beed7104e93da192b9bcaeeb009a244ef64736f6c634300081a0033",
					"opcodes": "PUSH1 0x80 PUSH1 0x40 MSTORE CALLVALUE DUP1 ISZERO PUSH2 0xF JUMPI PUSH0 DUP1 REVERT JUMPDEST POP PUSH1 0x40 MLOAD PUSH2 0x3EFB CODESIZE SUB DUP1 PUSH2 0x3EFB DUP4 CODECOPY DUP2 DUP2 ADD PUSH1 0x40 MSTORE DUP2 ADD SWAP1 PUSH2 0x31 SWAP2 SWAP1 PUSH2 0x155 JUMP JUMPDEST DUP1 PUSH0 DUP1 PUSH2 0x100 EXP DUP2 SLOAD DUP2 PUSH20 0xFFFFFFFFFFFFFFFFFFFFFFFFFFFFFFFFFFFFFFFF MUL NOT AND SWAP1 DUP4 PUSH20 0xFFFFFFFFFFFFFFFFFFFFFFFFFFFFFFFFFFFFFFFF AND MUL OR SWAP1 SSTORE POP CALLER PUSH1 0x1 PUSH0 PUSH2 0x100 EXP DUP2 SLOAD DUP2 PUSH20 0xFFFFFFFFFFFFFFFFFFFFFFFFFFFFFFFFFFFFFFFF MUL NOT AND SWAP1 DUP4 PUSH20 0xFFFFFFFFFFFFFFFFFFFFFFFFFFFFFFFFFFFFFFFF AND MUL OR SWAP1 SSTORE POP DUP2 PUSH1 0x2 PUSH0 PUSH2 0x100 EXP DUP2 SLOAD DUP2 PUSH20 0xFFFFFFFFFFFFFFFFFFFFFFFFFFFFFFFFFFFFFFFF MUL NOT AND SWAP1 DUP4 PUSH20 0xFFFFFFFFFFFFFFFFFFFFFFFFFFFFFFFFFFFFFFFF AND MUL OR SWAP1 SSTORE POP POP POP PUSH2 0x193 JUMP JUMPDEST PUSH0 DUP1 REVERT JUMPDEST PUSH0 PUSH20 0xFFFFFFFFFFFFFFFFFFFFFFFFFFFFFFFFFFFFFFFF DUP3 AND SWAP1 POP SWAP2 SWAP1 POP JUMP JUMPDEST PUSH0 PUSH2 0x124 DUP3 PUSH2 0xFB JUMP JUMPDEST SWAP1 POP SWAP2 SWAP1 POP JUMP JUMPDEST PUSH2 0x134 DUP2 PUSH2 0x11A JUMP JUMPDEST DUP2 EQ PUSH2 0x13E JUMPI PUSH0 DUP1 REVERT JUMPDEST POP JUMP JUMPDEST PUSH0 DUP2 MLOAD SWAP1 POP PUSH2 0x14F DUP2 PUSH2 0x12B JUMP JUMPDEST SWAP3 SWAP2 POP POP JUMP JUMPDEST PUSH0 DUP1 PUSH1 0x40 DUP4 DUP6 SUB SLT ISZERO PUSH2 0x16B JUMPI PUSH2 0x16A PUSH2 0xF7 JUMP JUMPDEST JUMPDEST PUSH0 PUSH2 0x178 DUP6 DUP3 DUP7 ADD PUSH2 0x141 JUMP JUMPDEST SWAP3 POP POP PUSH1 0x20 PUSH2 0x189 DUP6 DUP3 DUP7 ADD PUSH2 0x141 JUMP JUMPDEST SWAP2 POP POP SWAP3 POP SWAP3 SWAP1 POP JUMP JUMPDEST PUSH2 0x3D5B DUP1 PUSH2 0x1A0 PUSH0 CODECOPY PUSH0 RETURN INVALID PUSH1 0x80 PUSH1 0x40 MSTORE PUSH1 0x4 CALLDATASIZE LT PUSH2 0x1B4 JUMPI PUSH0 CALLDATALOAD PUSH1 0xE0 SHR DUP1 PUSH4 0x6C124D74 GT PUSH2 0xEB JUMPI DUP1 PUSH4 0xACE04EC7 GT PUSH2 0x89 JUMPI DUP1 PUSH4 0xE857F747 GT PUSH2 0x63 JUMPI DUP1 PUSH4 0xE857F747 EQ PUSH2 0x5CE JUMPI DUP1 PUSH4 0xF9F92BE4 EQ PUSH2 0x5F8 JUMPI DUP1 PUSH4 0xFD922A42 EQ PUSH2 0x634 JUMPI DUP1 PUSH4 0xFE173B97 EQ PUSH2 0x65E JUMPI PUSH2 0x1B4 JUMP JUMPDEST DUP1 PUSH4 0xACE04EC7 EQ PUSH2 0x554 JUMPI DUP1 PUSH4 0xB1097523 EQ PUSH2 0x56A JUMPI DUP1 PUSH4 0xB70B5CCC EQ PUSH2 0x5A6 JUMPI PUSH2 0x1B4 JUMP JUMPDEST DUP1 PUSH4 0x81D12C58 GT PUSH2 0xC5 JUMPI DUP1 PUSH4 0x81D12C58 EQ PUSH2 0x496 JUMPI DUP1 PUSH4 0x82DCC26D EQ PUSH2 0x4D8 JUMPI DUP1 PUSH4 0x8DA5CB5B EQ PUSH2 0x500 JUMPI DUP1 PUSH4 0x9A6A794F EQ PUSH2 0x52A JUMPI PUSH2 0x1B4 JUMP JUMPDEST DUP1 PUSH4 0x6C124D74 EQ PUSH2 0x41C JUMPI DUP1 PUSH4 0x6D361694 EQ PUSH2 0x444 JUMPI DUP1 PUSH4 0x754592B2 EQ PUSH2 0x480 JUMPI PUSH2 0x1B4 JUMP JUMPDEST DUP1 PUSH4 0x537DF3B6 GT PUSH2 0x158 JUMPI DUP1 PUSH4 0x5638101B GT PUSH2 0x132 JUMPI DUP1 PUSH4 0x5638101B EQ PUSH2 0x374 JUMPI DUP1 PUSH4 0x5B953806 EQ PUSH2 0x39C JUMPI DUP1 PUSH4 0x699ECB83 EQ PUSH2 0x3CC JUMPI DUP1 PUSH4 0x6B0641A3 EQ PUSH2 0x3F4 JUMPI PUSH2 0x1B4 JUMP JUMPDEST DUP1 PUSH4 0x537DF3B6 EQ PUSH2 0x2FC JUMPI DUP1 PUSH4 0x54C33B10 EQ PUSH2 0x324 JUMPI DUP1 PUSH4 0x55D15D93 EQ PUSH2 0x34C JUMPI PUSH2 0x1B4 JUMP JUMPDEST DUP1 PUSH4 0x349C4136 GT PUSH2 0x194 JUMPI DUP1 PUSH4 0x349C4136 EQ PUSH2 0x258 JUMPI DUP1 PUSH4 0x3CCFD60B EQ PUSH2 0x294 JUMPI DUP1 PUSH4 0x44337EA1 EQ PUSH2 0x2AA JUMPI DUP1 PUSH4 0x49163731 EQ PUSH2 0x2D2 JUMPI PUSH2 0x1B4 JUMP JUMPDEST DUP1 PUSH3 0x77F244 EQ PUSH2 0x1B8 JUMPI DUP1 PUSH3 0xE1D8D0 EQ PUSH2 0x1E0 JUMPI DUP1 PUSH4 0x33727C4D EQ PUSH2 0x21C JUMPI JUMPDEST PUSH0 DUP1 REVERT JUMPDEST CALLVALUE DUP1 ISZERO PUSH2 0x1C3 JUMPI PUSH0 DUP1 REVERT JUMPDEST POP PUSH2 0x1DE PUSH1 0x4 DUP1 CALLDATASIZE SUB DUP2 ADD SWAP1 PUSH2 0x1D9 SWAP2 SWAP1 PUSH2 0x2763 JUMP JUMPDEST PUSH2 0x688 JUMP JUMPDEST STOP JUMPDEST CALLVALUE DUP1 ISZERO PUSH2 0x1EB JUMPI PUSH0 DUP1 REVERT JUMPDEST POP PUSH2 0x206 PUSH1 0x4 DUP1 CALLDATASIZE SUB DUP2 ADD SWAP1 PUSH2 0x201 SWAP2 SWAP1 PUSH2 0x27A1 JUMP JUMPDEST PUSH2 0x7B7 JUMP JUMPDEST PUSH1 0x40 MLOAD PUSH2 0x213 SWAP2 SWAP1 PUSH2 0x27EE JUMP JUMPDEST PUSH1 0x40 MLOAD DUP1 SWAP2 SUB SWAP1 RETURN JUMPDEST CALLVALUE DUP1 ISZERO PUSH2 0x227 JUMPI PUSH0 DUP1 REVERT JUMPDEST POP PUSH2 0x242 PUSH1 0x4 DUP1 CALLDATASIZE SUB DUP2 ADD SWAP1 PUSH2 0x23D SWAP2 SWAP1 PUSH2 0x2807 JUMP JUMPDEST PUSH2 0x851 JUMP JUMPDEST PUSH1 0x40 MLOAD PUSH2 0x24F SWAP2 SWAP1 PUSH2 0x284C JUMP JUMPDEST PUSH1 0x40 MLOAD DUP1 SWAP2 SUB SWAP1 RETURN JUMPDEST CALLVALUE DUP1 ISZERO PUSH2 0x263 JUMPI PUSH0 DUP1 REVERT JUMPDEST POP PUSH2 0x27E PUSH1 0x4 DUP1 CALLDATASIZE SUB DUP2 ADD SWAP1 PUSH2 0x279 SWAP2 SWAP1 PUSH2 0x2807 JUMP JUMPDEST PUSH2 0x8D8 JUMP JUMPDEST PUSH1 0x40 MLOAD PUSH2 0x28B SWAP2 SWAP1 PUSH2 0x27EE JUMP JUMPDEST PUSH1 0x40 MLOAD DUP1 SWAP2 SUB SWAP1 RETURN JUMPDEST CALLVALUE DUP1 ISZERO PUSH2 0x29F JUMPI PUSH0 DUP1 REVERT JUMPDEST POP PUSH2 0x2A8 PUSH2 0x8F8 JUMP JUMPDEST STOP JUMPDEST CALLVALUE DUP1 ISZERO PUSH2 0x2B5 JUMPI PUSH0 DUP1 REVERT JUMPDEST POP PUSH2 0x2D0 PUSH1 0x4 DUP1 CALLDATASIZE SUB DUP2 ADD SWAP1 PUSH2 0x2CB SWAP2 SWAP1 PUSH2 0x2865 JUMP JUMPDEST PUSH2 0xABE JUMP JUMPDEST STOP JUMPDEST CALLVALUE DUP1 ISZERO PUSH2 0x2DD JUMPI PUSH0 DUP1 REVERT JUMPDEST POP PUSH2 0x2E6 PUSH2 0xB8B JUMP JUMPDEST PUSH1 0x40 MLOAD PUSH2 0x2F3 SWAP2 SWAP1 PUSH2 0x28CA JUMP JUMPDEST PUSH1 0x40 MLOAD DUP1 SWAP2 SUB SWAP1 RETURN JUMPDEST CALLVALUE DUP1 ISZERO PUSH2 0x307 JUMPI PUSH0 DUP1 REVERT JUMPDEST POP PUSH2 0x322 PUSH1 0x4 DUP1 CALLDATASIZE SUB DUP2 ADD SWAP1 PUSH2 0x31D SWAP2 SWAP1 PUSH2 0x2865 JUMP JUMPDEST PUSH2 0xB99 JUMP JUMPDEST STOP JUMPDEST CALLVALUE DUP1 ISZERO PUSH2 0x32F JUMPI PUSH0 DUP1 REVERT JUMPDEST POP PUSH2 0x34A PUSH1 0x4 DUP1 CALLDATASIZE SUB DUP2 ADD SWAP1 PUSH2 0x345 SWAP2 SWAP1 PUSH2 0x2916 JUMP JUMPDEST PUSH2 0xC65 JUMP JUMPDEST STOP JUMPDEST CALLVALUE DUP1 ISZERO PUSH2 0x357 JUMPI PUSH0 DUP1 REVERT JUMPDEST POP PUSH2 0x372 PUSH1 0x4 DUP1 CALLDATASIZE SUB DUP2 ADD SWAP1 PUSH2 0x36D SWAP2 SWAP1 PUSH2 0x2A00 JUMP JUMPDEST PUSH2 0xDFF JUMP JUMPDEST STOP JUMPDEST CALLVALUE DUP1 ISZERO PUSH2 0x37F JUMPI PUSH0 DUP1 REVERT JUMPDEST POP PUSH2 0x39A PUSH1 0x4 DUP1 CALLDATASIZE SUB DUP2 ADD SWAP1 PUSH2 0x395 SWAP2 SWAP1 PUSH2 0x2807 JUMP JUMPDEST PUSH2 0x117A JUMP JUMPDEST STOP JUMPDEST PUSH2 0x3B6 PUSH1 0x4 DUP1 CALLDATASIZE SUB DUP2 ADD SWAP1 PUSH2 0x3B1 SWAP2 SWAP1 PUSH2 0x2BD2 JUMP JUMPDEST PUSH2 0x12AB JUMP JUMPDEST PUSH1 0x40 MLOAD PUSH2 0x3C3 SWAP2 SWAP1 PUSH2 0x27EE JUMP JUMPDEST PUSH1 0x40 MLOAD DUP1 SWAP2 SUB SWAP1 RETURN JUMPDEST CALLVALUE DUP1 ISZERO PUSH2 0x3D7 JUMPI PUSH0 DUP1 REVERT JUMPDEST POP PUSH2 0x3F2 PUSH1 0x4 DUP1 CALLDATASIZE SUB DUP2 ADD SWAP1 PUSH2 0x3ED SWAP2 SWAP1 PUSH2 0x27A1 JUMP JUMPDEST PUSH2 0x1549 JUMP JUMPDEST STOP JUMPDEST CALLVALUE DUP1 ISZERO PUSH2 0x3FF JUMPI PUSH0 DUP1 REVERT JUMPDEST POP PUSH2 0x41A PUSH1 0x4 DUP1 CALLDATASIZE SUB DUP2 ADD SWAP1 PUSH2 0x415 SWAP2 SWAP1 PUSH2 0x2807 JUMP JUMPDEST PUSH2 0x1683 JUMP JUMPDEST STOP JUMPDEST CALLVALUE DUP1 ISZERO PUSH2 0x427 JUMPI PUSH0 DUP1 REVERT JUMPDEST POP PUSH2 0x442 PUSH1 0x4 DUP1 CALLDATASIZE SUB DUP2 ADD SWAP1 PUSH2 0x43D SWAP2 SWAP1 PUSH2 0x27A1 JUMP JUMPDEST PUSH2 0x1840 JUMP JUMPDEST STOP JUMPDEST CALLVALUE DUP1 ISZERO PUSH2 0x44F JUMPI PUSH0 DUP1 REVERT JUMPDEST POP PUSH2 0x46A PUSH1 0x4 DUP1 CALLDATASIZE SUB DUP2 ADD SWAP1 PUSH2 0x465 SWAP2 SWAP1 PUSH2 0x2807 JUMP JUMPDEST PUSH2 0x1936 JUMP JUMPDEST PUSH1 0x40 MLOAD PUSH2 0x477 SWAP2 SWAP1 PUSH2 0x2D27 JUMP JUMPDEST PUSH1 0x40 MLOAD DUP1 SWAP2 SUB SWAP1 RETURN JUMPDEST CALLVALUE DUP1 ISZERO PUSH2 0x48B JUMPI PUSH0 DUP1 REVERT JUMPDEST POP PUSH2 0x494 PUSH2 0x1A4B JUMP JUMPDEST STOP JUMPDEST CALLVALUE DUP1 ISZERO PUSH2 0x4A1 JUMPI PUSH0 DUP1 REVERT JUMPDEST POP PUSH2 0x4BC PUSH1 0x4 DUP1 CALLDATASIZE SUB DUP2 ADD SWAP1 PUSH2 0x4B7 SWAP2 SWAP1 PUSH2 0x2807 JUMP JUMPDEST PUSH2 0x1AC9 JUMP JUMPDEST PUSH1 0x40 MLOAD PUSH2 0x4CF SWAP8 SWAP7 SWAP6 SWAP5 SWAP4 SWAP3 SWAP2 SWAP1 PUSH2 0x2DBE JUMP JUMPDEST PUSH1 0x40 MLOAD DUP1 SWAP2 SUB SWAP1 RETURN JUMPDEST CALLVALUE DUP1 ISZERO PUSH2 0x4E3 JUMPI PUSH0 DUP1 REVERT JUMPDEST POP PUSH2 0x4FE PUSH1 0x4 DUP1 CALLDATASIZE SUB DUP2 ADD SWAP1 PUSH2 0x4F9 SWAP2 SWAP1 PUSH2 0x2807 JUMP JUMPDEST PUSH2 0x1C65 JUMP JUMPDEST STOP JUMPDEST CALLVALUE DUP1 ISZERO PUSH2 0x50B JUMPI PUSH0 DUP1 REVERT JUMPDEST POP PUSH2 0x514 PUSH2 0x1FB4 JUMP JUMPDEST PUSH1 0x40 MLOAD PUSH2 0x521 SWAP2 SWAP1 PUSH2 0x2E39 JUMP JUMPDEST PUSH1 0x40 MLOAD DUP1 SWAP2 SUB SWAP1 RETURN JUMPDEST CALLVALUE DUP1 ISZERO PUSH2 0x535 JUMPI PUSH0 DUP1 REVERT JUMPDEST POP PUSH2 0x53E PUSH2 0x1FDC JUMP JUMPDEST PUSH1 0x40 MLOAD PUSH2 0x54B SWAP2 SWAP1 PUSH2 0x2EAD JUMP JUMPDEST PUSH1 0x40 MLOAD DUP1 SWAP2 SUB SWAP1 RETURN JUMPDEST CALLVALUE DUP1 ISZERO PUSH2 0x55F JUMPI PUSH0 DUP1 REVERT JUMPDEST POP PUSH2 0x568 PUSH2 0x2003 JUMP JUMPDEST STOP JUMPDEST CALLVALUE DUP1 ISZERO PUSH2 0x575 JUMPI PUSH0 DUP1 REVERT JUMPDEST POP PUSH2 0x590 PUSH1 0x4 DUP1 CALLDATASIZE SUB DUP2 ADD SWAP1 PUSH2 0x58B SWAP2 SWAP1 PUSH2 0x2807 JUMP JUMPDEST PUSH2 0x2087 JUMP JUMPDEST PUSH1 0x40 MLOAD PUSH2 0x59D SWAP2 SWAP1 PUSH2 0x2EC6 JUMP JUMPDEST PUSH1 0x40 MLOAD DUP1 SWAP2 SUB SWAP1 RETURN JUMPDEST CALLVALUE DUP1 ISZERO PUSH2 0x5B1 JUMPI PUSH0 DUP1 REVERT JUMPDEST POP PUSH2 0x5CC PUSH1 0x4 DUP1 CALLDATASIZE SUB DUP2 ADD SWAP1 PUSH2 0x5C7 SWAP2 SWAP1 PUSH2 0x2916 JUMP JUMPDEST PUSH2 0x2122 JUMP JUMPDEST STOP JUMPDEST CALLVALUE DUP1 ISZERO PUSH2 0x5D9 JUMPI PUSH0 DUP1 REVERT JUMPDEST POP PUSH2 0x5E2 PUSH2 0x2379 JUMP JUMPDEST PUSH1 0x40 MLOAD PUSH2 0x5EF SWAP2 SWAP1 PUSH2 0x27EE JUMP JUMPDEST PUSH1 0x40 MLOAD DUP1 SWAP2 SUB SWAP1 RETURN JUMPDEST CALLVALUE DUP1 ISZERO PUSH2 0x603 JUMPI PUSH0 DUP1 REVERT JUMPDEST POP PUSH2 0x61E PUSH1 0x4 DUP1 CALLDATASIZE SUB DUP2 ADD SWAP1 PUSH2 0x619 SWAP2 SWAP1 PUSH2 0x2865 JUMP JUMPDEST PUSH2 0x2385 JUMP JUMPDEST PUSH1 0x40 MLOAD PUSH2 0x62B SWAP2 SWAP1 PUSH2 0x284C JUMP JUMPDEST PUSH1 0x40 MLOAD DUP1 SWAP2 SUB SWAP1 RETURN JUMPDEST CALLVALUE DUP1 ISZERO PUSH2 0x63F JUMPI PUSH0 DUP1 REVERT JUMPDEST POP PUSH2 0x648 PUSH2 0x23A2 JUMP JUMPDEST PUSH1 0x40 MLOAD PUSH2 0x655 SWAP2 SWAP1 PUSH2 0x2E39 JUMP JUMPDEST PUSH1 0x40 MLOAD DUP1 SWAP2 SUB SWAP1 RETURN JUMPDEST CALLVALUE DUP1 ISZERO PUSH2 0x669 JUMPI PUSH0 DUP1 REVERT JUMPDEST POP PUSH2 0x672 PUSH2 0x23CA JUMP JUMPDEST PUSH1 0x40 MLOAD PUSH2 0x67F SWAP2 SWAP1 PUSH2 0x27EE JUMP JUMPDEST PUSH1 0x40 MLOAD DUP1 SWAP2 SUB SWAP1 RETURN JUMPDEST PUSH2 0x690 PUSH2 0x1FB4 JUMP JUMPDEST PUSH20 0xFFFFFFFFFFFFFFFFFFFFFFFFFFFFFFFFFFFFFFFF AND CALLER PUSH20 0xFFFFFFFFFFFFFFFFFFFFFFFFFFFFFFFFFFFFFFFF AND EQ PUSH2 0x6FD JUMPI PUSH1 0x40 MLOAD PUSH32 0x8C379A000000000000000000000000000000000000000000000000000000000 DUP2 MSTORE PUSH1 0x4 ADD PUSH2 0x6F4 SWAP1 PUSH2 0x2F40 JUMP JUMPDEST PUSH1 0x40 MLOAD DUP1 SWAP2 SUB SWAP1 REVERT JUMPDEST DUP2 PUSH1 0x7 PUSH0 DUP3 DUP2 MSTORE PUSH1 0x20 ADD SWAP1 DUP2 MSTORE PUSH1 0x20 ADD PUSH0 KECCAK256 PUSH0 SWAP1 SLOAD SWAP1 PUSH2 0x100 EXP SWAP1 DIV PUSH1 0xFF AND PUSH2 0x75B JUMPI PUSH1 0x40 MLOAD PUSH32 0x8C379A000000000000000000000000000000000000000000000000000000000 DUP2 MSTORE PUSH1 0x4 ADD PUSH2 0x752 SWAP1 PUSH2 0x2FA8 JUMP JUMPDEST PUSH1 0x40 MLOAD DUP1 SWAP2 SUB SWAP1 REVERT JUMPDEST PUSH0 PUSH1 0x6 PUSH0 DUP6 DUP2 MSTORE PUSH1 0x20 ADD SWAP1 DUP2 MSTORE PUSH1 0x20 ADD PUSH0 KECCAK256 SWAP1 POP DUP3 DUP2 PUSH1 0x3 ADD PUSH0 PUSH2 0x100 EXP DUP2 SLOAD DUP2 PUSH20 0xFFFFFFFFFFFFFFFFFFFFFFFFFFFFFFFFFFFFFFFF MUL NOT AND SWAP1 DUP4 PUSH20 0xFFFFFFFFFFFFFFFFFFFFFFFFFFFFFFFFFFFFFFFF AND MUL OR SWAP1 SSTORE POP POP POP POP POP JUMP JUMPDEST PUSH0 DUP3 PUSH1 0x7 PUSH0 DUP3 DUP2 MSTORE PUSH1 0x20 ADD SWAP1 DUP2 MSTORE PUSH1 0x20 ADD PUSH0 KECCAK256 PUSH0 SWAP1 SLOAD SWAP1 PUSH2 0x100 EXP SWAP1 DIV PUSH1 0xFF AND PUSH2 0x816 JUMPI PUSH1 0x40 MLOAD PUSH32 0x8C379A000000000000000000000000000000000000000000000000000000000 DUP2 MSTORE PUSH1 0x4 ADD PUSH2 0x80D SWAP1 PUSH2 0x2FA8 JUMP JUMPDEST PUSH1 0x40 MLOAD DUP1 SWAP2 SUB SWAP1 REVERT JUMPDEST PUSH0 PUSH1 0x6 PUSH0 DUP7 DUP2 MSTORE PUSH1 0x20 ADD SWAP1 DUP2 MSTORE PUSH1 0x20 ADD PUSH0 KECCAK256 SWAP1 POP DUP4 PUSH1 0x8 SLOAD PUSH2 0x838 SWAP2 SWAP1 PUSH2 0x2FF3 JUMP JUMPDEST DUP2 PUSH1 0x2 ADD SLOAD PUSH2 0x847 SWAP2 SWAP1 PUSH2 0x3034 JUMP JUMPDEST SWAP3 POP POP POP SWAP3 SWAP2 POP POP JUMP JUMPDEST PUSH0 PUSH2 0x85A PUSH2 0x1FDC JUMP JUMPDEST PUSH20 0xFFFFFFFFFFFFFFFFFFFFFFFFFFFFFFFFFFFFFFFF AND PUSH4 0x33727C4D DUP4 PUSH1 0x40 MLOAD DUP3 PUSH4 0xFFFFFFFF AND PUSH1 0xE0 SHL DUP2 MSTORE PUSH1 0x4 ADD PUSH2 0x892 SWAP2 SWAP1 PUSH2 0x27EE JUMP JUMPDEST PUSH1 0x20 PUSH1 0x40 MLOAD DUP1 DUP4 SUB DUP2 DUP7 GAS STATICCALL ISZERO DUP1 ISZERO PUSH2 0x8AD JUMPI RETURNDATASIZE PUSH0 DUP1 RETURNDATACOPY RETURNDATASIZE PUSH0 REVERT JUMPDEST POP POP POP POP PUSH1 0x40 MLOAD RETURNDATASIZE PUSH1 0x1F NOT PUSH1 0x1F DUP3 ADD AND DUP3 ADD DUP1 PUSH1 0x40 MSTORE POP DUP2 ADD SWAP1 PUSH2 0x8D1 SWAP2 SWAP1 PUSH2 0x3091 JUMP JUMPDEST SWAP1 POP SWAP2 SWAP1 POP JUMP JUMPDEST PUSH1 0x9 DUP2 DUP2 SLOAD DUP2 LT PUSH2 0x8E7 JUMPI PUSH0 DUP1 REVERT JUMPDEST SWAP1 PUSH0 MSTORE PUSH1 0x20 PUSH0 KECCAK256 ADD PUSH0 SWAP2 POP SWAP1 POP SLOAD DUP2 JUMP JUMPDEST PUSH2 0x900 PUSH2 0x1FB4 JUMP JUMPDEST PUSH20 0xFFFFFFFFFFFFFFFFFFFFFFFFFFFFFFFFFFFFFFFF AND CALLER PUSH20 0xFFFFFFFFFFFFFFFFFFFFFFFFFFFFFFFFFFFFFFFF AND EQ PUSH2 0x96D JUMPI PUSH1 0x40 MLOAD PUSH32 0x8C379A000000000000000000000000000000000000000000000000000000000 DUP2 MSTORE PUSH1 0x4 ADD PUSH2 0x964 SWAP1 PUSH2 0x2F40 JUMP JUMPDEST PUSH1 0x40 MLOAD DUP1 SWAP2 SUB SWAP1 REVERT JUMPDEST PUSH0 DUP1 PUSH0 SWAP1 POP JUMPDEST PUSH1 0x9 DUP1 SLOAD SWAP1 POP DUP2 LT ISZERO PUSH2 0xA66 JUMPI PUSH0 PUSH1 0x9 DUP3 DUP2 SLOAD DUP2 LT PUSH2 0x995 JUMPI PUSH2 0x994 PUSH2 0x30BC JUMP JUMPDEST JUMPDEST SWAP1 PUSH0 MSTORE PUSH1 0x20 PUSH0 KECCAK256 ADD SLOAD SWAP1 POP PUSH0 PUSH1 0x6 PUSH0 DUP4 DUP2 MSTORE PUSH1 0x20 ADD SWAP1 DUP2 MSTORE PUSH1 0x20 ADD PUSH0 KECCAK256 PUSH1 0x40 MLOAD DUP1 PUSH1 0xC0 ADD PUSH1 0x40 MSTORE SWAP1 DUP2 PUSH0 DUP3 ADD SLOAD DUP2 MSTORE PUSH1 0x20 ADD PUSH1 0x1 DUP3 ADD SLOAD DUP2 MSTORE PUSH1 0x20 ADD PUSH1 0x2 DUP3 ADD SLOAD DUP2 MSTORE PUSH1 0x20 ADD PUSH1 0x3 DUP3 ADD PUSH0 SWAP1 SLOAD SWAP1 PUSH2 0x100 EXP SWAP1 DIV PUSH20 0xFFFFFFFFFFFFFFFFFFFFFFFFFFFFFFFFFFFFFFFF AND PUSH20 0xFFFFFFFFFFFFFFFFFFFFFFFFFFFFFFFFFFFFFFFF AND PUSH20 0xFFFFFFFFFFFFFFFFFFFFFFFFFFFFFFFFFFFFFFFF AND DUP2 MSTORE PUSH1 0x20 ADD PUSH1 0x4 DUP3 ADD SLOAD DUP2 MSTORE PUSH1 0x20 ADD PUSH1 0x5 DUP3 ADD SLOAD DUP2 MSTORE POP POP SWAP1 POP DUP1 PUSH1 0xA0 ADD MLOAD DUP5 PUSH2 0xA55 SWAP2 SWAP1 PUSH2 0x3034 JUMP JUMPDEST SWAP4 POP POP POP DUP1 DUP1 PUSH1 0x1 ADD SWAP2 POP POP PUSH2 0x973 JUMP JUMPDEST POP PUSH0 DUP2 SELFBALANCE PUSH2 0xA74 SWAP2 SWAP1 PUSH2 0x30E9 JUMP JUMPDEST SWAP1 POP CALLER PUSH20 0xFFFFFFFFFFFFFFFFFFFFFFFFFFFFFFFFFFFFFFFF AND PUSH2 0x8FC DUP3 SWAP1 DUP2 ISZERO MUL SWAP1 PUSH1 0x40 MLOAD PUSH0 PUSH1 0x40 MLOAD DUP1 DUP4 SUB DUP2 DUP6 DUP9 DUP9 CALL SWAP4 POP POP POP POP ISZERO DUP1 ISZERO PUSH2 0xAB9 JUMPI RETURNDATASIZE PUSH0 DUP1 RETURNDATACOPY RETURNDATASIZE PUSH0 REVERT JUMPDEST POP POP POP JUMP JUMPDEST PUSH2 0xAC6 PUSH2 0x1FB4 JUMP JUMPDEST PUSH20 0xFFFFFFFFFFFFFFFFFFFFFFFFFFFFFFFFFFFFFFFF AND CALLER PUSH20 0xFFFFFFFFFFFFFFFFFFFFFFFFFFFFFFFFFFFFFFFF AND EQ PUSH2 0xB33 JUMPI PUSH1 0x40 MLOAD PUSH32 0x8C379A000000000000000000000000000000000000000000000000000000000 DUP2 MSTORE PUSH1 0x4 ADD PUSH2 0xB2A SWAP1 PUSH2 0x2F40 JUMP JUMPDEST PUSH1 0x40 MLOAD DUP1 SWAP2 SUB SWAP1 REVERT JUMPDEST PUSH1 0x1 PUSH1 0x3 PUSH0 DUP4 PUSH20 0xFFFFFFFFFFFFFFFFFFFFFFFFFFFFFFFFFFFFFFFF AND PUSH20 0xFFFFFFFFFFFFFFFFFFFFFFFFFFFFFFFFFFFFFFFF AND DUP2 MSTORE PUSH1 0x20 ADD SWAP1 DUP2 MSTORE PUSH1 0x20 ADD PUSH0 KECCAK256 PUSH0 PUSH2 0x100 EXP DUP2 SLOAD DUP2 PUSH1 0xFF MUL NOT AND SWAP1 DUP4 ISZERO ISZERO MUL OR SWAP1 SSTORE POP POP JUMP JUMPDEST PUSH0 PUSH4 0xB0347814 PUSH1 0xE0 SHL SWAP1 POP SWAP1 JUMP JUMPDEST PUSH2 0xBA1 PUSH2 0x1FB4 JUMP JUMPDEST PUSH20 0xFFFFFFFFFFFFFFFFFFFFFFFFFFFFFFFFFFFFFFFF AND CALLER PUSH20 0xFFFFFFFFFFFFFFFFFFFFFFFFFFFFFFFFFFFFFFFF AND EQ PUSH2 0xC0E JUMPI PUSH1 0x40 MLOAD PUSH32 0x8C379A000000000000000000000000000000000000000000000000000000000 DUP2 MSTORE PUSH1 0x4 ADD PUSH2 0xC05 SWAP1 PUSH2 0x2F40 JUMP JUMPDEST PUSH1 0x40 MLOAD DUP1 SWAP2 SUB SWAP1 REVERT JUMPDEST PUSH0 PUSH1 0x3 PUSH0 DUP4 PUSH20 0xFFFFFFFFFFFFFFFFFFFFFFFFFFFFFFFFFFFFFFFF AND PUSH20 0xFFFFFFFFFFFFFFFFFFFFFFFFFFFFFFFFFFFFFFFF AND DUP2 MSTORE PUSH1 0x20 ADD SWAP1 DUP2 MSTORE PUSH1 0x20 ADD PUSH0 KECCAK256 PUSH0 PUSH2 0x100 EXP DUP2 SLOAD DUP2 PUSH1 0xFF MUL NOT AND SWAP1 DUP4 ISZERO ISZERO MUL OR SWAP1 SSTORE POP POP JUMP JUMPDEST PUSH2 0xC6D PUSH2 0x1FB4 JUMP JUMPDEST PUSH20 0xFFFFFFFFFFFFFFFFFFFFFFFFFFFFFFFFFFFFFFFF AND CALLER PUSH20 0xFFFFFFFFFFFFFFFFFFFFFFFFFFFFFFFFFFFFFFFF AND EQ PUSH2 0xCDA JUMPI PUSH1 0x40 MLOAD PUSH32 0x8C379A000000000000000000000000000000000000000000000000000000000 DUP2 MSTORE PUSH1 0x4 ADD PUSH2 0xCD1 SWAP1 PUSH2 0x2F40 JUMP JUMPDEST PUSH1 0x40 MLOAD DUP1 SWAP2 SUB SWAP1 REVERT JUMPDEST DUP6 PUSH1 0x7 PUSH0 DUP3 DUP2 MSTORE PUSH1 0x20 ADD SWAP1 DUP2 MSTORE PUSH1 0x20 ADD PUSH0 KECCAK256 PUSH0 SWAP1 SLOAD SWAP1 PUSH2 0x100 EXP SWAP1 DIV PUSH1 0xFF AND PUSH2 0xD38 JUMPI PUSH1 0x40 MLOAD PUSH32 0x8C379A000000000000000000000000000000000000000000000000000000000 DUP2 MSTORE PUSH1 0x4 ADD PUSH2 0xD2F SWAP1 PUSH2 0x2FA8 JUMP JUMPDEST PUSH1 0x40 MLOAD DUP1 SWAP2 SUB SWAP1 REVERT JUMPDEST PUSH1 0x64 DUP3 GT ISZERO PUSH2 0xD7C JUMPI PUSH1 0x40 MLOAD PUSH32 0x8C379A000000000000000000000000000000000000000000000000000000000 DUP2 MSTORE PUSH1 0x4 ADD PUSH2 0xD73 SWAP1 PUSH2 0x3166 JUMP JUMPDEST PUSH1 0x40 MLOAD DUP1 SWAP2 SUB SWAP1 REVERT JUMPDEST PUSH0 PUSH1 0x6 PUSH0 DUP10 DUP2 MSTORE PUSH1 0x20 ADD SWAP1 DUP2 MSTORE PUSH1 0x20 ADD PUSH0 KECCAK256 SWAP1 POP DUP7 DUP2 PUSH0 ADD DUP2 SWAP1 SSTORE POP DUP6 DUP2 PUSH1 0x1 ADD DUP2 SWAP1 SSTORE POP DUP5 DUP2 PUSH1 0x2 ADD DUP2 SWAP1 SSTORE POP DUP4 DUP2 PUSH1 0x3 ADD PUSH0 PUSH2 0x100 EXP DUP2 SLOAD DUP2 PUSH20 0xFFFFFFFFFFFFFFFFFFFFFFFFFFFFFFFFFFFFFFFF MUL NOT AND SWAP1 DUP4 PUSH20 0xFFFFFFFFFFFFFFFFFFFFFFFFFFFFFFFFFFFFFFFF AND MUL OR SWAP1 SSTORE POP DUP3 DUP2 PUSH1 0x4 ADD DUP2 SWAP1 SSTORE POP POP POP POP POP POP POP POP POP JUMP JUMPDEST PUSH2 0xE07 PUSH2 0x23A2 JUMP JUMPDEST PUSH20 0xFFFFFFFFFFFFFFFFFFFFFFFFFFFFFFFFFFFFFFFF AND CALLER PUSH20 0xFFFFFFFFFFFFFFFFFFFFFFFFFFFFFFFFFFFFFFFF AND EQ PUSH2 0xE74 JUMPI PUSH1 0x40 MLOAD PUSH32 0x8C379A000000000000000000000000000000000000000000000000000000000 DUP2 MSTORE PUSH1 0x4 ADD PUSH2 0xE6B SWAP1 PUSH2 0x31CE JUMP JUMPDEST PUSH1 0x40 MLOAD DUP1 SWAP2 SUB SWAP1 REVERT JUMPDEST PUSH0 PUSH1 0x4 PUSH0 DUP6 DUP2 MSTORE PUSH1 0x20 ADD SWAP1 DUP2 MSTORE PUSH1 0x20 ADD PUSH0 KECCAK256 SWAP1 POP PUSH2 0xE90 PUSH2 0x1FDC JUMP JUMPDEST PUSH20 0xFFFFFFFFFFFFFFFFFFFFFFFFFFFFFFFFFFFFFFFF AND PUSH4 0x480F07C8 DUP6 DUP6 DUP6 PUSH1 0x40 MLOAD DUP5 PUSH4 0xFFFFFFFF AND PUSH1 0xE0 SHL DUP2 MSTORE PUSH1 0x4 ADD PUSH2 0xECC SWAP4 SWAP3 SWAP2 SWAP1 PUSH2 0x3218 JUMP JUMPDEST PUSH0 PUSH1 0x40 MLOAD DUP1 DUP4 SUB DUP2 PUSH0 DUP8 DUP1 EXTCODESIZE ISZERO DUP1 ISZERO PUSH2 0xEE3 JUMPI PUSH0 DUP1 REVERT JUMPDEST POP GAS CALL ISZERO DUP1 ISZERO PUSH2 0xEF5 JUMPI RETURNDATASIZE PUSH0 DUP1 RETURNDATACOPY RETURNDATASIZE PUSH0 REVERT JUMPDEST POP POP POP POP PUSH0 PUSH20 0xFFFFFFFFFFFFFFFFFFFFFFFFFFFFFFFFFFFFFFFF AND DUP2 PUSH1 0x4 ADD PUSH0 SWAP1 SLOAD SWAP1 PUSH2 0x100 EXP SWAP1 DIV PUSH20 0xFFFFFFFFFFFFFFFFFFFFFFFFFFFFFFFFFFFFFFFF AND PUSH20 0xFFFFFFFFFFFFFFFFFFFFFFFFFFFFFFFFFFFFFFFF AND EQ PUSH2 0x10D7 JUMPI PUSH0 PUSH2 0xF58 PUSH2 0xB8B JUMP JUMPDEST DUP3 PUSH1 0x1 ADD SLOAD DUP6 DUP6 DUP6 PUSH1 0x5 ADD PUSH1 0x40 MLOAD PUSH1 0x24 ADD PUSH2 0xF76 SWAP5 SWAP4 SWAP3 SWAP2 SWAP1 PUSH2 0x3338 JUMP JUMPDEST PUSH1 0x40 MLOAD PUSH1 0x20 DUP2 DUP4 SUB SUB DUP2 MSTORE SWAP1 PUSH1 0x40 MSTORE SWAP1 PUSH28 0xFFFFFFFFFFFFFFFFFFFFFFFFFFFFFFFFFFFFFFFFFFFFFFFFFFFFFFFF NOT AND PUSH1 0x20 DUP3 ADD DUP1 MLOAD PUSH28 0xFFFFFFFFFFFFFFFFFFFFFFFFFFFFFFFFFFFFFFFFFFFFFFFFFFFFFFFF DUP4 DUP2 DUP4 AND OR DUP4 MSTORE POP POP POP POP SWAP1 POP PUSH0 DUP1 DUP4 PUSH1 0x4 ADD PUSH0 SWAP1 SLOAD SWAP1 PUSH2 0x100 EXP SWAP1 DIV PUSH20 0xFFFFFFFFFFFFFFFFFFFFFFFFFFFFFFFFFFFFFFFF AND PUSH20 0xFFFFFFFFFFFFFFFFFFFFFFFFFFFFFFFFFFFFFFFF AND DUP5 PUSH1 0x4 ADD PUSH1 0x14 SWAP1 SLOAD SWAP1 PUSH2 0x100 EXP SWAP1 DIV PUSH8 0xFFFFFFFFFFFFFFFF AND PUSH8 0xFFFFFFFFFFFFFFFF AND DUP5 PUSH1 0x40 MLOAD PUSH2 0x1042 SWAP2 SWAP1 PUSH2 0x33B7 JUMP JUMPDEST PUSH0 PUSH1 0x40 MLOAD DUP1 DUP4 SUB DUP2 PUSH0 DUP8 DUP8 CALL SWAP3 POP POP POP RETURNDATASIZE DUP1 PUSH0 DUP2 EQ PUSH2 0x107C JUMPI PUSH1 0x40 MLOAD SWAP2 POP PUSH1 0x1F NOT PUSH1 0x3F RETURNDATASIZE ADD AND DUP3 ADD PUSH1 0x40 MSTORE RETURNDATASIZE DUP3 MSTORE RETURNDATASIZE PUSH0 PUSH1 0x20 DUP5 ADD RETURNDATACOPY PUSH2 0x1081 JUMP JUMPDEST PUSH1 0x60 SWAP2 POP JUMPDEST POP SWAP2 POP SWAP2 POP DUP2 PUSH2 0x10C6 JUMPI PUSH1 0x40 MLOAD PUSH32 0x8C379A000000000000000000000000000000000000000000000000000000000 DUP2 MSTORE PUSH1 0x4 ADD PUSH2 0x10BD SWAP1 PUSH2 0x3417 JUMP JUMPDEST PUSH1 0x40 MLOAD DUP1 SWAP2 SUB SWAP1 REVERT JUMPDEST DUP2 PUSH2 0x10D3 JUMPI DUP1 MLOAD PUSH1 0x20 DUP3 ADD REVERT JUMPDEST POP POP POP JUMPDEST DUP3 DUP3 PUSH1 0x5 PUSH0 DUP8 DUP2 MSTORE PUSH1 0x20 ADD SWAP1 DUP2 MSTORE PUSH1 0x20 ADD PUSH0 KECCAK256 SWAP2 DUP3 PUSH2 0x10F7 SWAP3 SWAP2 SWAP1 PUSH2 0x35C1 JUMP JUMPDEST POP DUP4 DUP2 PUSH0 ADD PUSH0 SWAP1 SLOAD SWAP1 PUSH2 0x100 EXP SWAP1 DIV PUSH20 0xFFFFFFFFFFFFFFFFFFFFFFFFFFFFFFFFFFFFFFFF AND PUSH20 0xFFFFFFFFFFFFFFFFFFFFFFFFFFFFFFFFFFFFFFFF AND PUSH32 0xB7B413554C4E94C80CFBB175A0E4727F2F425D29B980195C49DAC293C2914FC0 CALLER DUP7 DUP7 PUSH1 0x40 MLOAD PUSH2 0x1165 SWAP4 SWAP3 SWAP2 SWAP1 PUSH2 0x368E JUMP JUMPDEST PUSH1 0x40 MLOAD DUP1 SWAP2 SUB SWAP1 LOG3 GASPRICE PUSH1 0x8 DUP2 SWAP1 SSTORE POP POP POP POP POP JUMP JUMPDEST DUP1 PUSH1 0x7 PUSH0 DUP3 DUP2 MSTORE PUSH1 0x20 ADD SWAP1 DUP2 MSTORE PUSH1 0x20 ADD PUSH0 KECCAK256 PUSH0 SWAP1 SLOAD SWAP1 PUSH2 0x100 EXP SWAP1 DIV PUSH1 0xFF AND PUSH2 0x11D8 JUMPI PUSH1 0x40 MLOAD PUSH32 0x8C379A000000000000000000000000000000000000000000000000000000000 DUP2 MSTORE PUSH1 0x4 ADD PUSH2 0x11CF SWAP1 PUSH2 0x2FA8 JUMP JUMPDEST PUSH1 0x40 MLOAD DUP1 SWAP2 SUB SWAP1 REVERT JUMPDEST PUSH0 PUSH1 0x6 PUSH0 DUP5 DUP2 MSTORE PUSH1 0x20 ADD SWAP1 DUP2 MSTORE PUSH1 0x20 ADD PUSH0 KECCAK256 SWAP1 POP PUSH0 DUP2 PUSH1 0x5 ADD SLOAD GT PUSH2 0x1232 JUMPI PUSH1 0x40 MLOAD PUSH32 0x8C379A000000000000000000000000000000000000000000000000000000000 DUP2 MSTORE PUSH1 0x4 ADD PUSH2 0x1229 SWAP1 PUSH2 0x3708 JUMP JUMPDEST PUSH1 0x40 MLOAD DUP1 SWAP2 SUB SWAP1 REVERT JUMPDEST DUP1 PUSH1 0x3 ADD PUSH0 SWAP1 SLOAD SWAP1 PUSH2 0x100 EXP SWAP1 DIV PUSH20 0xFFFFFFFFFFFFFFFFFFFFFFFFFFFFFFFFFFFFFFFF AND PUSH20 0xFFFFFFFFFFFFFFFFFFFFFFFFFFFFFFFFFFFFFFFF AND PUSH2 0x8FC DUP3 PUSH1 0x5 ADD SLOAD SWAP1 DUP2 ISZERO MUL SWAP1 PUSH1 0x40 MLOAD PUSH0 PUSH1 0x40 MLOAD DUP1 DUP4 SUB DUP2 DUP6 DUP9 DUP9 CALL SWAP4 POP POP POP POP ISZERO DUP1 ISZERO PUSH2 0x129C JUMPI RETURNDATASIZE PUSH0 DUP1 RETURNDATACOPY RETURNDATASIZE PUSH0 REVERT JUMPDEST POP PUSH0 DUP2 PUSH1 0x5 ADD DUP2 SWAP1 SSTORE POP POP POP POP JUMP JUMPDEST PUSH0 PUSH2 0x12B8 DUP7 DUP7 DUP7 DUP7 PUSH2 0x23D0 JUMP JUMPDEST PUSH0 PUSH1 0x6 PUSH0 DUP9 DUP2 MSTORE PUSH1 0x20 ADD SWAP1 DUP2 MSTORE PUSH1 0x20 ADD PUSH0 KECCAK256 PUSH1 0x40 MLOAD DUP1 PUSH1 0xC0 ADD PUSH1 0x40 MSTORE SWAP1 DUP2 PUSH0 DUP3 ADD SLOAD DUP2 MSTORE PUSH1 0x20 ADD PUSH1 0x1 DUP3 ADD SLOAD DUP2 MSTORE PUSH1 0x20 ADD PUSH1 0x2 DUP3 ADD SLOAD DUP2 MSTORE PUSH1 0x20 ADD PUSH1 0x3 DUP3 ADD PUSH0 SWAP1 SLOAD SWAP1 PUSH2 0x100 EXP SWAP1 DIV PUSH20 0xFFFFFFFFFFFFFFFFFFFFFFFFFFFFFFFFFFFFFFFF AND PUSH20 0xFFFFFFFFFFFFFFFFFFFFFFFFFFFFFFFFFFFFFFFF AND PUSH20 0xFFFFFFFFFFFFFFFFFFFFFFFFFFFFFFFFFFFFFFFF AND DUP2 MSTORE PUSH1 0x20 ADD PUSH1 0x4 DUP3 ADD SLOAD DUP2 MSTORE PUSH1 0x20 ADD PUSH1 0x5 DUP3 ADD SLOAD DUP2 MSTORE POP POP SWAP1 POP PUSH0 PUSH2 0x1366 PUSH2 0x1FDC JUMP JUMPDEST PUSH20 0xFFFFFFFFFFFFFFFFFFFFFFFFFFFFFFFFFFFFFFFF AND PUSH4 0xC61B0B76 DUP4 PUSH0 ADD MLOAD DUP5 PUSH1 0x20 ADD MLOAD DUP11 PUSH1 0x40 MLOAD DUP5 PUSH4 0xFFFFFFFF AND PUSH1 0xE0 SHL DUP2 MSTORE PUSH1 0x4 ADD PUSH2 0x13A9 SWAP4 SWAP3 SWAP2 SWAP1 PUSH2 0x3735 JUMP JUMPDEST PUSH1 0x20 PUSH1 0x40 MLOAD DUP1 DUP4 SUB DUP2 PUSH0 DUP8 GAS CALL ISZERO DUP1 ISZERO PUSH2 0x13C5 JUMPI RETURNDATASIZE PUSH0 DUP1 RETURNDATACOPY RETURNDATASIZE PUSH0 REVERT JUMPDEST POP POP POP POP PUSH1 0x40 MLOAD RETURNDATASIZE PUSH1 0x1F NOT PUSH1 0x1F DUP3 ADD AND DUP3 ADD DUP1 PUSH1 0x40 MSTORE POP DUP2 ADD SWAP1 PUSH2 0x13E9 SWAP2 SWAP1 PUSH2 0x3785 JUMP JUMPDEST SWAP1 POP PUSH0 PUSH1 0x4 PUSH0 DUP4 DUP2 MSTORE PUSH1 0x20 ADD SWAP1 DUP2 MSTORE PUSH1 0x20 ADD PUSH0 KECCAK256 SWAP1 POP CALLER DUP2 PUSH0 ADD PUSH0 PUSH2 0x100 EXP DUP2 SLOAD DUP2 PUSH20 0xFFFFFFFFFFFFFFFFFFFFFFFFFFFFFFFFFFFFFFFF MUL NOT AND SWAP1 DUP4 PUSH20 0xFFFFFFFFFFFFFFFFFFFFFFFFFFFFFFFFFFFFFFFF AND MUL OR SWAP1 SSTORE POP DUP2 DUP2 PUSH1 0x1 ADD DUP2 SWAP1 SSTORE POP DUP9 DUP2 PUSH1 0x2 ADD DUP2 SWAP1 SSTORE POP DUP8 DUP2 PUSH1 0x3 ADD SWAP1 DUP2 PUSH2 0x1463 SWAP2 SWAP1 PUSH2 0x37B0 JUMP JUMPDEST POP DUP7 DUP2 PUSH1 0x4 ADD PUSH0 PUSH2 0x100 EXP DUP2 SLOAD DUP2 PUSH20 0xFFFFFFFFFFFFFFFFFFFFFFFFFFFFFFFFFFFFFFFF MUL NOT AND SWAP1 DUP4 PUSH20 0xFFFFFFFFFFFFFFFFFFFFFFFFFFFFFFFFFFFFFFFF AND MUL OR SWAP1 SSTORE POP DUP6 DUP2 PUSH1 0x4 ADD PUSH1 0x14 PUSH2 0x100 EXP DUP2 SLOAD DUP2 PUSH8 0xFFFFFFFFFFFFFFFF MUL NOT AND SWAP1 DUP4 PUSH8 0xFFFFFFFFFFFFFFFF AND MUL OR SWAP1 SSTORE POP DUP5 DUP2 PUSH1 0x5 ADD SWAP1 DUP2 PUSH2 0x14E2 SWAP2 SWAP1 PUSH2 0x37B0 JUMP JUMPDEST POP DUP2 CALLER PUSH20 0xFFFFFFFFFFFFFFFFFFFFFFFFFFFFFFFFFFFFFFFF AND PUSH32 0x849AA5ADC3BF6A75CB08AFBF31D88D1528C274E5D84E3D4355D23D8E9EBD649B DUP12 DUP12 DUP12 DUP12 DUP12 PUSH1 0x40 MLOAD PUSH2 0x1532 SWAP6 SWAP5 SWAP4 SWAP3 SWAP2 SWAP1 PUSH2 0x387F JUMP JUMPDEST PUSH1 0x40 MLOAD DUP1 SWAP2 SUB SWAP1 LOG3 DUP2 SWAP4 POP POP POP POP SWAP6 SWAP5 POP POP POP POP POP JUMP JUMPDEST PUSH2 0x1551 PUSH2 0x1FB4 JUMP JUMPDEST PUSH20 0xFFFFFFFFFFFFFFFFFFFFFFFFFFFFFFFFFFFFFFFF AND CALLER PUSH20 0xFFFFFFFFFFFFFFFFFFFFFFFFFFFFFFFFFFFFFFFF AND EQ PUSH2 0x15BE JUMPI PUSH1 0x40 MLOAD PUSH32 0x8C379A000000000000000000000000000000000000000000000000000000000 DUP2 MSTORE PUSH1 0x4 ADD PUSH2 0x15B5 SWAP1 PUSH2 0x2F40 JUMP JUMPDEST PUSH1 0x40 MLOAD DUP1 SWAP2 SUB SWAP1 REVERT JUMPDEST DUP2 PUSH1 0x7 PUSH0 DUP3 DUP2 MSTORE PUSH1 0x20 ADD SWAP1 DUP2 MSTORE PUSH1 0x20 ADD PUSH0 KECCAK256 PUSH0 SWAP1 SLOAD SWAP1 PUSH2 0x100 EXP SWAP1 DIV PUSH1 0xFF AND PUSH2 0x161C JUMPI PUSH1 0x40 MLOAD PUSH32 0x8C379A000000000000000000000000000000000000000000000000000000000 DUP2 MSTORE PUSH1 0x4 ADD PUSH2 0x1613 SWAP1 PUSH2 0x2FA8 JUMP JUMPDEST PUSH1 0x40 MLOAD DUP1 SWAP2 SUB SWAP1 REVERT JUMPDEST PUSH1 0x64 DUP3 GT ISZERO PUSH2 0x1660 JUMPI PUSH1 0x40 MLOAD PUSH32 0x8C379A000000000000000000000000000000000000000000000000000000000 DUP2 MSTORE PUSH1 0x4 ADD PUSH2 0x1657 SWAP1 PUSH2 0x3166 JUMP JUMPDEST PUSH1 0x40 MLOAD DUP1 SWAP2 SUB SWAP1 REVERT JUMPDEST PUSH0 PUSH1 0x6 PUSH0 DUP6 DUP2 MSTORE PUSH1 0x20 ADD SWAP1 DUP2 MSTORE PUSH1 0x20 ADD PUSH0 KECCAK256 SWAP1 POP DUP3 DUP2 PUSH1 0x4 ADD DUP2 SWAP1 SSTORE POP POP POP POP POP JUMP JUMPDEST PUSH2 0x168B PUSH2 0x1FB4 JUMP JUMPDEST PUSH20 0xFFFFFFFFFFFFFFFFFFFFFFFFFFFFFFFFFFFFFFFF AND CALLER PUSH20 0xFFFFFFFFFFFFFFFFFFFFFFFFFFFFFFFFFFFFFFFF AND EQ PUSH2 0x16F8 JUMPI PUSH1 0x40 MLOAD PUSH32 0x8C379A000000000000000000000000000000000000000000000000000000000 DUP2 MSTORE PUSH1 0x4 ADD PUSH2 0x16EF SWAP1 PUSH2 0x2F40 JUMP JUMPDEST PUSH1 0x40 MLOAD DUP1 SWAP2 SUB SWAP1 REVERT JUMPDEST DUP1 PUSH1 0x7 PUSH0 DUP3 DUP2 MSTORE PUSH1 0x20 ADD SWAP1 DUP2 MSTORE PUSH1 0x20 ADD PUSH0 KECCAK256 PUSH0 SWAP1 SLOAD SWAP1 PUSH2 0x100 EXP SWAP1 DIV PUSH1 0xFF AND PUSH2 0x1756 JUMPI PUSH1 0x40 MLOAD PUSH32 0x8C379A000000000000000000000000000000000000000000000000000000000 DUP2 MSTORE PUSH1 0x4 ADD PUSH2 0x174D SWAP1 PUSH2 0x2FA8 JUMP JUMPDEST PUSH1 0x40 MLOAD DUP1 SWAP2 SUB SWAP1 REVERT JUMPDEST PUSH0 PUSH1 0x7 PUSH0 DUP5 DUP2 MSTORE PUSH1 0x20 ADD SWAP1 DUP2 MSTORE PUSH1 0x20 ADD PUSH0 KECCAK256 PUSH0 PUSH2 0x100 EXP DUP2 SLOAD DUP2 PUSH1 0xFF MUL NOT AND SWAP1 DUP4 ISZERO ISZERO MUL OR SWAP1 SSTORE POP PUSH0 JUMPDEST PUSH1 0x9 DUP1 SLOAD SWAP1 POP DUP2 LT ISZERO PUSH2 0x183B JUMPI PUSH0 PUSH1 0x9 DUP3 DUP2 SLOAD DUP2 LT PUSH2 0x17A2 JUMPI PUSH2 0x17A1 PUSH2 0x30BC JUMP JUMPDEST JUMPDEST SWAP1 PUSH0 MSTORE PUSH1 0x20 PUSH0 KECCAK256 ADD SLOAD SWAP1 POP DUP4 DUP2 SUB PUSH2 0x182D JUMPI PUSH1 0x9 PUSH1 0x1 PUSH1 0x9 DUP1 SLOAD SWAP1 POP PUSH2 0x17C8 SWAP2 SWAP1 PUSH2 0x30E9 JUMP JUMPDEST DUP2 SLOAD DUP2 LT PUSH2 0x17D9 JUMPI PUSH2 0x17D8 PUSH2 0x30BC JUMP JUMPDEST JUMPDEST SWAP1 PUSH0 MSTORE PUSH1 0x20 PUSH0 KECCAK256 ADD SLOAD PUSH1 0x9 DUP4 DUP2 SLOAD DUP2 LT PUSH2 0x17F6 JUMPI PUSH2 0x17F5 PUSH2 0x30BC JUMP JUMPDEST JUMPDEST SWAP1 PUSH0 MSTORE PUSH1 0x20 PUSH0 KECCAK256 ADD DUP2 SWAP1 SSTORE POP PUSH1 0x9 DUP1 SLOAD DUP1 PUSH2 0x1814 JUMPI PUSH2 0x1813 PUSH2 0x38DE JUMP JUMPDEST JUMPDEST PUSH1 0x1 SWAP1 SUB DUP2 DUP2 SWAP1 PUSH0 MSTORE PUSH1 0x20 PUSH0 KECCAK256 ADD PUSH0 SWAP1 SSTORE SWAP1 SSTORE POP PUSH2 0x183B JUMP JUMPDEST POP DUP1 DUP1 PUSH1 0x1 ADD SWAP2 POP POP PUSH2 0x1780 JUMP JUMPDEST POP POP POP JUMP JUMPDEST PUSH2 0x1848 PUSH2 0x1FB4 JUMP JUMPDEST PUSH20 0xFFFFFFFFFFFFFFFFFFFFFFFFFFFFFFFFFFFFFFFF AND CALLER PUSH20 0xFFFFFFFFFFFFFFFFFFFFFFFFFFFFFFFFFFFFFFFF AND EQ PUSH2 0x18B5 JUMPI PUSH1 0x40 MLOAD PUSH32 0x8C379A000000000000000000000000000000000000000000000000000000000 DUP2 MSTORE PUSH1 0x4 ADD PUSH2 0x18AC SWAP1 PUSH2 0x2F40 JUMP JUMPDEST PUSH1 0x40 MLOAD DUP1 SWAP2 SUB SWAP1 REVERT JUMPDEST DUP2 PUSH1 0x7 PUSH0 DUP3 DUP2 MSTORE PUSH1 0x20 ADD SWAP1 DUP2 MSTORE PUSH1 0x20 ADD PUSH0 KECCAK256 PUSH0 SWAP1 SLOAD SWAP1 PUSH2 0x100 EXP SWAP1 DIV PUSH1 0xFF AND PUSH2 0x1913 JUMPI PUSH1 0x40 MLOAD PUSH32 0x8C379A000000000000000000000000000000000000000000000000000000000 DUP2 MSTORE PUSH1 0x4 ADD PUSH2 0x190A SWAP1 PUSH2 0x2FA8 JUMP JUMPDEST PUSH1 0x40 MLOAD DUP1 SWAP2 SUB SWAP1 REVERT JUMPDEST PUSH0 PUSH1 0x6 PUSH0 DUP6 DUP2 MSTORE PUSH1 0x20 ADD SWAP1 DUP2 MSTORE PUSH1 0x20 ADD PUSH0 KECCAK256 SWAP1 POP DUP3 DUP2 PUSH1 0x2 ADD DUP2 SWAP1 SSTORE POP POP POP POP POP JUMP JUMPDEST PUSH2 0x193E PUSH2 0x2640 JUMP JUMPDEST DUP2 PUSH1 0x7 PUSH0 DUP3 DUP2 MSTORE PUSH1 0x20 ADD SWAP1 DUP2 MSTORE PUSH1 0x20 ADD PUSH0 KECCAK256 PUSH0 SWAP1 SLOAD SWAP1 PUSH2 0x100 EXP SWAP1 DIV PUSH1 0xFF AND PUSH2 0x199C JUMPI PUSH1 0x40 MLOAD PUSH32 0x8C379A000000000000000000000000000000000000000000000000000000000 DUP2 MSTORE PUSH1 0x4 ADD PUSH2 0x1993 SWAP1 PUSH2 0x2FA8 JUMP JUMPDEST PUSH1 0x40 MLOAD DUP1 SWAP2 SUB SWAP1 REVERT JUMPDEST PUSH0 PUSH1 0x6 PUSH0 DUP6 DUP2 MSTORE PUSH1 0x20 ADD SWAP1 DUP2 MSTORE PUSH1 0x20 ADD PUSH0 KECCAK256 PUSH1 0x40 MLOAD DUP1 PUSH1 0xC0 ADD PUSH1 0x40 MSTORE SWAP1 DUP2 PUSH0 DUP3 ADD SLOAD DUP2 MSTORE PUSH1 0x20 ADD PUSH1 0x1 DUP3 ADD SLOAD DUP2 MSTORE PUSH1 0x20 ADD PUSH1 0x2 DUP3 ADD SLOAD DUP2 MSTORE PUSH1 0x20 ADD PUSH1 0x3 DUP3 ADD PUSH0 SWAP1 SLOAD SWAP1 PUSH2 0x100 EXP SWAP1 DIV PUSH20 0xFFFFFFFFFFFFFFFFFFFFFFFFFFFFFFFFFFFFFFFF AND PUSH20 0xFFFFFFFFFFFFFFFFFFFFFFFFFFFFFFFFFFFFFFFF AND PUSH20 0xFFFFFFFFFFFFFFFFFFFFFFFFFFFFFFFFFFFFFFFF AND DUP2 MSTORE PUSH1 0x20 ADD PUSH1 0x4 DUP3 ADD SLOAD DUP2 MSTORE PUSH1 0x20 ADD PUSH1 0x5 DUP3 ADD SLOAD DUP2 MSTORE POP POP SWAP1 POP DUP1 SWAP3 POP POP POP SWAP2 SWAP1 POP JUMP JUMPDEST PUSH2 0x1A53 PUSH2 0x1FB4 JUMP JUMPDEST PUSH20 0xFFFFFFFFFFFFFFFFFFFFFFFFFFFFFFFFFFFFFFFF AND CALLER PUSH20 0xFFFFFFFFFFFFFFFFFFFFFFFFFFFFFFFFFFFFFFFF AND EQ PUSH2 0x1AC0 JUMPI PUSH1 0x40 MLOAD PUSH32 0x8C379A000000000000000000000000000000000000000000000000000000000 DUP2 MSTORE PUSH1 0x4 ADD PUSH2 0x1AB7 SWAP1 PUSH2 0x2F40 JUMP JUMPDEST PUSH1 0x40 MLOAD DUP1 SWAP2 SUB SWAP1 REVERT JUMPDEST PUSH0 PUSH1 0x8 DUP2 SWAP1 SSTORE POP JUMP JUMPDEST PUSH1 0x4 PUSH1 0x20 MSTORE DUP1 PUSH0 MSTORE PUSH1 0x40 PUSH0 KECCAK256 PUSH0 SWAP2 POP SWAP1 POP DUP1 PUSH0 ADD PUSH0 SWAP1 SLOAD SWAP1 PUSH2 0x100 EXP SWAP1 DIV PUSH20 0xFFFFFFFFFFFFFFFFFFFFFFFFFFFFFFFFFFFFFFFF AND SWAP1 DUP1 PUSH1 0x1 ADD SLOAD SWAP1 DUP1 PUSH1 0x2 ADD SLOAD SWAP1 DUP1 PUSH1 0x3 ADD DUP1 SLOAD PUSH2 0x1B19 SWAP1 PUSH2 0x3275 JUMP JUMPDEST DUP1 PUSH1 0x1F ADD PUSH1 0x20 DUP1 SWAP2 DIV MUL PUSH1 0x20 ADD PUSH1 0x40 MLOAD SWAP1 DUP2 ADD PUSH1 0x40 MSTORE DUP1 SWAP3 SWAP2 SWAP1 DUP2 DUP2 MSTORE PUSH1 0x20 ADD DUP3 DUP1 SLOAD PUSH2 0x1B45 SWAP1 PUSH2 0x3275 JUMP JUMPDEST DUP1 ISZERO PUSH2 0x1B90 JUMPI DUP1 PUSH1 0x1F LT PUSH2 0x1B67 JUMPI PUSH2 0x100 DUP1 DUP4 SLOAD DIV MUL DUP4 MSTORE SWAP2 PUSH1 0x20 ADD SWAP2 PUSH2 0x1B90 JUMP JUMPDEST DUP3 ADD SWAP2 SWAP1 PUSH0 MSTORE PUSH1 0x20 PUSH0 KECCAK256 SWAP1 JUMPDEST DUP2 SLOAD DUP2 MSTORE SWAP1 PUSH1 0x1 ADD SWAP1 PUSH1 0x20 ADD DUP1 DUP4 GT PUSH2 0x1B73 JUMPI DUP3 SWAP1 SUB PUSH1 0x1F AND DUP3 ADD SWAP2 JUMPDEST POP POP POP POP POP SWAP1 DUP1 PUSH1 0x4 ADD PUSH0 SWAP1 SLOAD SWAP1 PUSH2 0x100 EXP SWAP1 DIV PUSH20 0xFFFFFFFFFFFFFFFFFFFFFFFFFFFFFFFFFFFFFFFF AND SWAP1 DUP1 PUSH1 0x4 ADD PUSH1 0x14 SWAP1 SLOAD SWAP1 PUSH2 0x100 EXP SWAP1 DIV PUSH8 0xFFFFFFFFFFFFFFFF AND SWAP1 DUP1 PUSH1 0x5 ADD DUP1 SLOAD PUSH2 0x1BE4 SWAP1 PUSH2 0x3275 JUMP JUMPDEST DUP1 PUSH1 0x1F ADD PUSH1 0x20 DUP1 SWAP2 DIV MUL PUSH1 0x20 ADD PUSH1 0x40 MLOAD SWAP1 DUP2 ADD PUSH1 0x40 MSTORE DUP1 SWAP3 SWAP2 SWAP1 DUP2 DUP2 MSTORE PUSH1 0x20 ADD DUP3 DUP1 SLOAD PUSH2 0x1C10 SWAP1 PUSH2 0x3275 JUMP JUMPDEST DUP1 ISZERO PUSH2 0x1C5B JUMPI DUP1 PUSH1 0x1F LT PUSH2 0x1C32 JUMPI PUSH2 0x100 DUP1 DUP4 SLOAD DIV MUL DUP4 MSTORE SWAP2 PUSH1 0x20 ADD SWAP2 PUSH2 0x1C5B JUMP JUMPDEST DUP3 ADD SWAP2 SWAP1 PUSH0 MSTORE PUSH1 0x20 PUSH0 KECCAK256 SWAP1 JUMPDEST DUP2 SLOAD DUP2 MSTORE SWAP1 PUSH1 0x1 ADD SWAP1 PUSH1 0x20 ADD DUP1 DUP4 GT PUSH2 0x1C3E JUMPI DUP3 SWAP1 SUB PUSH1 0x1F AND DUP3 ADD SWAP2 JUMPDEST POP POP POP POP POP SWAP1 POP DUP8 JUMP JUMPDEST PUSH0 PUSH1 0x4 PUSH0 DUP4 DUP2 MSTORE PUSH1 0x20 ADD SWAP1 DUP2 MSTORE PUSH1 0x20 ADD PUSH0 KECCAK256 SWAP1 POP PUSH0 PUSH2 0x1C82 PUSH2 0x1FDC JUMP JUMPDEST PUSH20 0xFFFFFFFFFFFFFFFFFFFFFFFFFFFFFFFFFFFFFFFF AND PUSH4 0x17861F87 DUP5 PUSH1 0x40 MLOAD DUP3 PUSH4 0xFFFFFFFF AND PUSH1 0xE0 SHL DUP2 MSTORE PUSH1 0x4 ADD PUSH2 0x1CBA SWAP2 SWAP1 PUSH2 0x27EE JUMP JUMPDEST PUSH0 PUSH1 0x40 MLOAD DUP1 DUP4 SUB DUP2 DUP7 GAS STATICCALL ISZERO DUP1 ISZERO PUSH2 0x1CD4 JUMPI RETURNDATASIZE PUSH0 DUP1 RETURNDATACOPY RETURNDATASIZE PUSH0 REVERT JUMPDEST POP POP POP POP PUSH1 0x40 MLOAD RETURNDATASIZE PUSH0 DUP3 RETURNDATACOPY RETURNDATASIZE PUSH1 0x1F NOT PUSH1 0x1F DUP3 ADD AND DUP3 ADD DUP1 PUSH1 0x40 MSTORE POP DUP2 ADD SWAP1 PUSH2 0x1CFC SWAP2 SWAP1 PUSH2 0x3979 JUMP JUMPDEST SWAP1 POP PUSH0 DUP2 MLOAD GT PUSH2 0x1D41 JUMPI PUSH1 0x40 MLOAD PUSH32 0x8C379A000000000000000000000000000000000000000000000000000000000 DUP2 MSTORE PUSH1 0x4 ADD PUSH2 0x1D38 SWAP1 PUSH2 0x3A0A JUMP JUMPDEST PUSH1 0x40 MLOAD DUP1 SWAP2 SUB SWAP1 REVERT JUMPDEST PUSH0 PUSH20 0xFFFFFFFFFFFFFFFFFFFFFFFFFFFFFFFFFFFFFFFF AND DUP3 PUSH1 0x4 ADD PUSH0 SWAP1 SLOAD SWAP1 PUSH2 0x100 EXP SWAP1 DIV PUSH20 0xFFFFFFFFFFFFFFFFFFFFFFFFFFFFFFFFFFFFFFFF AND PUSH20 0xFFFFFFFFFFFFFFFFFFFFFFFFFFFFFFFFFFFFFFFF AND EQ PUSH2 0x1F1D JUMPI PUSH0 PUSH2 0x1DA0 PUSH2 0xB8B JUMP JUMPDEST DUP4 PUSH1 0x1 ADD SLOAD DUP4 DUP6 PUSH1 0x5 ADD PUSH1 0x40 MLOAD PUSH1 0x24 ADD PUSH2 0x1DBC SWAP4 SWAP3 SWAP2 SWAP1 PUSH2 0x3A28 JUMP JUMPDEST PUSH1 0x40 MLOAD PUSH1 0x20 DUP2 DUP4 SUB SUB DUP2 MSTORE SWAP1 PUSH1 0x40 MSTORE SWAP1 PUSH28 0xFFFFFFFFFFFFFFFFFFFFFFFFFFFFFFFFFFFFFFFFFFFFFFFFFFFFFFFF NOT AND PUSH1 0x20 DUP3 ADD DUP1 MLOAD PUSH28 0xFFFFFFFFFFFFFFFFFFFFFFFFFFFFFFFFFFFFFFFFFFFFFFFFFFFFFFFF DUP4 DUP2 DUP4 AND OR DUP4 MSTORE POP POP POP POP SWAP1 POP PUSH0 DUP1 DUP5 PUSH1 0x4 ADD PUSH0 SWAP1 SLOAD SWAP1 PUSH2 0x100 EXP SWAP1 DIV PUSH20 0xFFFFFFFFFFFFFFFFFFFFFFFFFFFFFFFFFFFFFFFF AND PUSH20 0xFFFFFFFFFFFFFFFFFFFFFFFFFFFFFFFFFFFFFFFF AND DUP6 PUSH1 0x4 ADD PUSH1 0x14 SWAP1 SLOAD SWAP1 PUSH2 0x100 EXP SWAP1 DIV PUSH8 0xFFFFFFFFFFFFFFFF AND PUSH8 0xFFFFFFFFFFFFFFFF AND DUP5 PUSH1 0x40 MLOAD PUSH2 0x1E88 SWAP2 SWAP1 PUSH2 0x33B7 JUMP JUMPDEST PUSH0 PUSH1 0x40 MLOAD DUP1 DUP4 SUB DUP2 PUSH0 DUP8 DUP8 CALL SWAP3 POP POP POP RETURNDATASIZE DUP1 PUSH0 DUP2 EQ PUSH2 0x1EC2 JUMPI PUSH1 0x40 MLOAD SWAP2 POP PUSH1 0x1F NOT PUSH1 0x3F RETURNDATASIZE ADD AND DUP3 ADD PUSH1 0x40 MSTORE RETURNDATASIZE DUP3 MSTORE RETURNDATASIZE PUSH0 PUSH1 0x20 DUP5 ADD RETURNDATACOPY PUSH2 0x1EC7 JUMP JUMPDEST PUSH1 0x60 SWAP2 POP JUMPDEST POP SWAP2 POP SWAP2 POP DUP2 PUSH2 0x1F0C JUMPI PUSH1 0x40 MLOAD PUSH32 0x8C379A000000000000000000000000000000000000000000000000000000000 DUP2 MSTORE PUSH1 0x4 ADD PUSH2 0x1F03 SWAP1 PUSH2 0x3417 JUMP JUMPDEST PUSH1 0x40 MLOAD DUP1 SWAP2 SUB SWAP1 REVERT JUMPDEST DUP2 PUSH2 0x1F19 JUMPI DUP1 MLOAD PUSH1 0x20 DUP3 ADD REVERT JUMPDEST POP POP POP JUMPDEST DUP1 PUSH1 0x5 PUSH0 DUP6 DUP2 MSTORE PUSH1 0x20 ADD SWAP1 DUP2 MSTORE PUSH1 0x20 ADD PUSH0 KECCAK256 SWAP1 DUP2 PUSH2 0x1F3B SWAP2 SWAP1 PUSH2 0x37B0 JUMP JUMPDEST POP DUP3 DUP3 PUSH0 ADD PUSH0 SWAP1 SLOAD SWAP1 PUSH2 0x100 EXP SWAP1 DIV PUSH20 0xFFFFFFFFFFFFFFFFFFFFFFFFFFFFFFFFFFFFFFFF AND PUSH20 0xFFFFFFFFFFFFFFFFFFFFFFFFFFFFFFFFFFFFFFFF AND PUSH32 0xB7B413554C4E94C80CFBB175A0E4727F2F425D29B980195C49DAC293C2914FC0 CALLER DUP5 PUSH1 0x40 MLOAD PUSH2 0x1FA7 SWAP3 SWAP2 SWAP1 PUSH2 0x3A6B JUMP JUMPDEST PUSH1 0x40 MLOAD DUP1 SWAP2 SUB SWAP1 LOG3 POP POP POP JUMP JUMPDEST PUSH0 PUSH1 0x1 PUSH0 SWAP1 SLOAD SWAP1 PUSH2 0x100 EXP SWAP1 DIV PUSH20 0xFFFFFFFFFFFFFFFFFFFFFFFFFFFFFFFFFFFFFFFF AND SWAP1 POP SWAP1 JUMP JUMPDEST PUSH0 DUP1 PUSH0 SWAP1 SLOAD SWAP1 PUSH2 0x100 EXP SWAP1 DIV PUSH20 0xFFFFFFFFFFFFFFFFFFFFFFFFFFFFFFFFFFFFFFFF AND SWAP1 POP SWAP1 JUMP JUMPDEST PUSH2 0x200B PUSH2 0x1FB4 JUMP JUMPDEST PUSH20 0xFFFFFFFFFFFFFFFFFFFFFFFFFFFFFFFFFFFFFFFF AND CALLER PUSH20 0xFFFFFFFFFFFFFFFFFFFFFFFFFFFFFFFFFFFFFFFF AND EQ PUSH2 0x2078 JUMPI PUSH1 0x40 MLOAD PUSH32 0x8C379A000000000000000000000000000000000000000000000000000000000 DUP2 MSTORE PUSH1 0x4 ADD PUSH2 0x206F SWAP1 PUSH2 0x2F40 JUMP JUMPDEST PUSH1 0x40 MLOAD DUP1 SWAP2 SUB SWAP1 REVERT JUMPDEST PUSH1 0x9 PUSH0 PUSH2 0x2085 SWAP2 SWAP1 PUSH2 0x268C JUMP JUMPDEST JUMP JUMPDEST PUSH1 0x5 PUSH1 0x20 MSTORE DUP1 PUSH0 MSTORE PUSH1 0x40 PUSH0 KECCAK256 PUSH0 SWAP2 POP SWAP1 POP DUP1 SLOAD PUSH2 0x20A3 SWAP1 PUSH2 0x3275 JUMP JUMPDEST DUP1 PUSH1 0x1F ADD PUSH1 0x20 DUP1 SWAP2 DIV MUL PUSH1 0x20 ADD PUSH1 0x40 MLOAD SWAP1 DUP2 ADD PUSH1 0x40 MSTORE DUP1 SWAP3 SWAP2 SWAP1 DUP2 DUP2 MSTORE PUSH1 0x20 ADD DUP3 DUP1 SLOAD PUSH2 0x20CF SWAP1 PUSH2 0x3275 JUMP JUMPDEST DUP1 ISZERO PUSH2 0x211A JUMPI DUP1 PUSH1 0x1F LT PUSH2 0x20F1 JUMPI PUSH2 0x100 DUP1 DUP4 SLOAD DIV MUL DUP4 MSTORE SWAP2 PUSH1 0x20 ADD SWAP2 PUSH2 0x211A JUMP JUMPDEST DUP3 ADD SWAP2 SWAP1 PUSH0 MSTORE PUSH1 0x20 PUSH0 KECCAK256 SWAP1 JUMPDEST DUP2 SLOAD DUP2 MSTORE SWAP1 PUSH1 0x1 ADD SWAP1 PUSH1 0x20 ADD DUP1 DUP4 GT PUSH2 0x20FD JUMPI DUP3 SWAP1 SUB PUSH1 0x1F AND DUP3 ADD SWAP2 JUMPDEST POP POP POP POP POP DUP2 JUMP JUMPDEST PUSH2 0x212A PUSH2 0x1FB4 JUMP JUMPDEST PUSH20 0xFFFFFFFFFFFFFFFFFFFFFFFFFFFFFFFFFFFFFFFF AND CALLER PUSH20 0xFFFFFFFFFFFFFFFFFFFFFFFFFFFFFFFFFFFFFFFF AND EQ PUSH2 0x2197 JUMPI PUSH1 0x40 MLOAD PUSH32 0x8C379A000000000000000000000000000000000000000000000000000000000 DUP2 MSTORE PUSH1 0x4 ADD PUSH2 0x218E SWAP1 PUSH2 0x2F40 JUMP JUMPDEST PUSH1 0x40 MLOAD DUP1 SWAP2 SUB SWAP1 REVERT JUMPDEST PUSH1 0x7 PUSH0 DUP8 DUP2 MSTORE PUSH1 0x20 ADD SWAP1 DUP2 MSTORE PUSH1 0x20 ADD PUSH0 KECCAK256 PUSH0 SWAP1 SLOAD SWAP1 PUSH2 0x100 EXP SWAP1 DIV PUSH1 0xFF AND ISZERO PUSH2 0x21F5 JUMPI PUSH1 0x40 MLOAD PUSH32 0x8C379A000000000000000000000000000000000000000000000000000000000 DUP2 MSTORE PUSH1 0x4 ADD PUSH2 0x21EC SWAP1 PUSH2 0x3AE3 JUMP JUMPDEST PUSH1 0x40 MLOAD DUP1 SWAP2 SUB SWAP1 REVERT JUMPDEST PUSH1 0x64 DUP2 GT ISZERO PUSH2 0x2239 JUMPI PUSH1 0x40 MLOAD PUSH32 0x8C379A000000000000000000000000000000000000000000000000000000000 DUP2 MSTORE PUSH1 0x4 ADD PUSH2 0x2230 SWAP1 PUSH2 0x3166 JUMP JUMPDEST PUSH1 0x40 MLOAD DUP1 SWAP2 SUB SWAP1 REVERT JUMPDEST PUSH1 0x1 PUSH1 0x7 PUSH0 DUP9 DUP2 MSTORE PUSH1 0x20 ADD SWAP1 DUP2 MSTORE PUSH1 0x20 ADD PUSH0 KECCAK256 PUSH0 PUSH2 0x100 EXP DUP2 SLOAD DUP2 PUSH1 0xFF MUL NOT AND SWAP1 DUP4 ISZERO ISZERO MUL OR SWAP1 SSTORE POP PUSH1 0x9 DUP7 SWAP1 DUP1 PUSH1 0x1 DUP2 SLOAD ADD DUP1 DUP3 SSTORE DUP1 SWAP2 POP POP PUSH1 0x1 SWAP1 SUB SWAP1 PUSH0 MSTORE PUSH1 0x20 PUSH0 KECCAK256 ADD PUSH0 SWAP1 SWAP2 SWAP1 SWAP2 SWAP1 SWAP2 POP SSTORE PUSH0 PUSH1 0x6 PUSH0 DUP9 DUP2 MSTORE PUSH1 0x20 ADD SWAP1 DUP2 MSTORE PUSH1 0x20 ADD PUSH0 KECCAK256 SWAP1 POP DUP6 DUP2 PUSH0 ADD DUP2 SWAP1 SSTORE POP DUP5 DUP2 PUSH1 0x1 ADD DUP2 SWAP1 SSTORE POP DUP4 DUP2 PUSH1 0x2 ADD DUP2 SWAP1 SSTORE POP DUP3 DUP2 PUSH1 0x3 ADD PUSH0 PUSH2 0x100 EXP DUP2 SLOAD DUP2 PUSH20 0xFFFFFFFFFFFFFFFFFFFFFFFFFFFFFFFFFFFFFFFF MUL NOT AND SWAP1 DUP4 PUSH20 0xFFFFFFFFFFFFFFFFFFFFFFFFFFFFFFFFFFFFFFFF AND MUL OR SWAP1 SSTORE POP DUP2 DUP2 PUSH1 0x4 ADD DUP2 SWAP1 SSTORE POP PUSH2 0x2309 PUSH2 0x1FDC JUMP JUMPDEST PUSH20 0xFFFFFFFFFFFFFFFFFFFFFFFFFFFFFFFFFFFFFFFF AND PUSH4 0x5C3D1519 DUP8 DUP8 PUSH1 0x40 MLOAD DUP4 PUSH4 0xFFFFFFFF AND PUSH1 0xE0 SHL DUP2 MSTORE PUSH1 0x4 ADD PUSH2 0x2343 SWAP3 SWAP2 SWAP1 PUSH2 0x3B01 JUMP JUMPDEST PUSH0 PUSH1 0x40 MLOAD DUP1 DUP4 SUB DUP2 PUSH0 DUP8 DUP1 EXTCODESIZE ISZERO DUP1 ISZERO PUSH2 0x235A JUMPI PUSH0 DUP1 REVERT JUMPDEST POP GAS CALL ISZERO DUP1 ISZERO PUSH2 0x236C JUMPI RETURNDATASIZE PUSH0 DUP1 RETURNDATACOPY RETURNDATASIZE PUSH0 REVERT JUMPDEST POP POP POP POP POP POP POP POP POP POP POP JUMP JUMPDEST PUSH0 PUSH1 0x9 DUP1 SLOAD SWAP1 POP SWAP1 POP SWAP1 JUMP JUMPDEST PUSH1 0x3 PUSH1 0x20 MSTORE DUP1 PUSH0 MSTORE PUSH1 0x40 PUSH0 KECCAK256 PUSH0 SWAP2 POP SLOAD SWAP1 PUSH2 0x100 EXP SWAP1 DIV PUSH1 0xFF AND DUP2 JUMP JUMPDEST PUSH0 PUSH1 0x2 PUSH0 SWAP1 SLOAD SWAP1 PUSH2 0x100 EXP SWAP1 DIV PUSH20 0xFFFFFFFFFFFFFFFFFFFFFFFFFFFFFFFFFFFFFFFF AND SWAP1 POP SWAP1 JUMP JUMPDEST PUSH1 0x8 SLOAD DUP2 JUMP JUMPDEST DUP4 PUSH1 0x7 PUSH0 DUP3 DUP2 MSTORE PUSH1 0x20 ADD SWAP1 DUP2 MSTORE PUSH1 0x20 ADD PUSH0 KECCAK256 PUSH0 SWAP1 SLOAD SWAP1 PUSH2 0x100 EXP SWAP1 DIV PUSH1 0xFF AND PUSH2 0x242E JUMPI PUSH1 0x40 MLOAD PUSH32 0x8C379A000000000000000000000000000000000000000000000000000000000 DUP2 MSTORE PUSH1 0x4 ADD PUSH2 0x2425 SWAP1 PUSH2 0x2FA8 JUMP JUMPDEST PUSH1 0x40 MLOAD DUP1 SWAP2 SUB SWAP1 REVERT JUMPDEST DUP3 PUSH1 0x3 PUSH0 DUP3 PUSH20 0xFFFFFFFFFFFFFFFFFFFFFFFFFFFFFFFFFFFFFFFF AND PUSH20 0xFFFFFFFFFFFFFFFFFFFFFFFFFFFFFFFFFFFFFFFF AND DUP2 MSTORE PUSH1 0x20 ADD SWAP1 DUP2 MSTORE PUSH1 0x20 ADD PUSH0 KECCAK256 PUSH0 SWAP1 SLOAD SWAP1 PUSH2 0x100 EXP SWAP1 DIV PUSH1 0xFF AND ISZERO PUSH2 0x24B9 JUMPI PUSH1 0x40 MLOAD PUSH32 0x8C379A000000000000000000000000000000000000000000000000000000000 DUP2 MSTORE PUSH1 0x4 ADD PUSH2 0x24B0 SWAP1 PUSH2 0x3B72 JUMP JUMPDEST PUSH1 0x40 MLOAD DUP1 SWAP2 SUB SWAP1 REVERT JUMPDEST PUSH0 PUSH1 0x6 PUSH0 DUP9 DUP2 MSTORE PUSH1 0x20 ADD SWAP1 DUP2 MSTORE PUSH1 0x20 ADD PUSH0 KECCAK256 SWAP1 POP DUP4 PUSH8 0xFFFFFFFFFFFFFFFF AND PUSH1 0x8 SLOAD PUSH2 0x24E5 SWAP2 SWAP1 PUSH2 0x2FF3 JUMP JUMPDEST DUP2 PUSH1 0x2 ADD SLOAD PUSH2 0x24F4 SWAP2 SWAP1 PUSH2 0x3034 JUMP JUMPDEST CALLVALUE LT ISZERO PUSH2 0x2536 JUMPI PUSH1 0x40 MLOAD PUSH32 0x8C379A000000000000000000000000000000000000000000000000000000000 DUP2 MSTORE PUSH1 0x4 ADD PUSH2 0x252D SWAP1 PUSH2 0x3BDA JUMP JUMPDEST PUSH1 0x40 MLOAD DUP1 SWAP2 SUB SWAP1 REVERT JUMPDEST PUSH1 0x64 DUP2 PUSH1 0x4 ADD SLOAD DUP3 PUSH1 0x2 ADD SLOAD PUSH2 0x254C SWAP2 SWAP1 PUSH2 0x2FF3 JUMP JUMPDEST PUSH2 0x2556 SWAP2 SWAP1 PUSH2 0x3C25 JUMP JUMPDEST DUP2 PUSH1 0x5 ADD PUSH0 DUP3 DUP3 SLOAD PUSH2 0x2568 SWAP2 SWAP1 PUSH2 0x3034 JUMP JUMPDEST SWAP3 POP POP DUP2 SWAP1 SSTORE POP PUSH0 DUP7 MLOAD GT PUSH2 0x25B2 JUMPI PUSH1 0x40 MLOAD PUSH32 0x8C379A000000000000000000000000000000000000000000000000000000000 DUP2 MSTORE PUSH1 0x4 ADD PUSH2 0x25A9 SWAP1 PUSH2 0x3C9F JUMP JUMPDEST PUSH1 0x40 MLOAD DUP1 SWAP2 SUB SWAP1 REVERT JUMPDEST PUSH0 DUP1 PUSH20 0xFFFFFFFFFFFFFFFFFFFFFFFFFFFFFFFFFFFFFFFF AND DUP7 PUSH20 0xFFFFFFFFFFFFFFFFFFFFFFFFFFFFFFFFFFFFFFFF AND EQ SWAP1 POP PUSH0 DUP6 PUSH8 0xFFFFFFFFFFFFFFFF AND EQ ISZERO ISZERO DUP2 ISZERO ISZERO EQ PUSH2 0x2636 JUMPI PUSH1 0x40 MLOAD PUSH32 0x8C379A000000000000000000000000000000000000000000000000000000000 DUP2 MSTORE PUSH1 0x4 ADD PUSH2 0x262D SWAP1 PUSH2 0x3D07 JUMP JUMPDEST PUSH1 0x40 MLOAD DUP1 SWAP2 SUB SWAP1 REVERT JUMPDEST POP POP POP POP POP POP POP POP JUMP JUMPDEST PUSH1 0x40 MLOAD DUP1 PUSH1 0xC0 ADD PUSH1 0x40 MSTORE DUP1 PUSH0 DUP1 NOT AND DUP2 MSTORE PUSH1 0x20 ADD PUSH0 DUP1 NOT AND DUP2 MSTORE PUSH1 0x20 ADD PUSH0 DUP2 MSTORE PUSH1 0x20 ADD PUSH0 PUSH20 0xFFFFFFFFFFFFFFFFFFFFFFFFFFFFFFFFFFFFFFFF AND DUP2 MSTORE PUSH1 0x20 ADD PUSH0 DUP2 MSTORE PUSH1 0x20 ADD PUSH0 DUP2 MSTORE POP SWAP1 JUMP JUMPDEST POP DUP1 SLOAD PUSH0 DUP3 SSTORE SWAP1 PUSH0 MSTORE PUSH1 0x20 PUSH0 KECCAK256 SWAP1 DUP2 ADD SWAP1 PUSH2 0x26A7 SWAP2 SWAP1 PUSH2 0x26AA JUMP JUMPDEST POP JUMP JUMPDEST JUMPDEST DUP1 DUP3 GT ISZERO PUSH2 0x26C1 JUMPI PUSH0 DUP2 PUSH0 SWAP1 SSTORE POP PUSH1 0x1 ADD PUSH2 0x26AB JUMP JUMPDEST POP SWAP1 JUMP JUMPDEST PUSH0 PUSH1 0x40 MLOAD SWAP1 POP SWAP1 JUMP JUMPDEST PUSH0 DUP1 REVERT JUMPDEST PUSH0 DUP1 REVERT JUMPDEST PUSH0 DUP2 SWAP1 POP SWAP2 SWAP1 POP JUMP JUMPDEST PUSH2 0x26E8 DUP2 PUSH2 0x26D6 JUMP JUMPDEST DUP2 EQ PUSH2 0x26F2 JUMPI PUSH0 DUP1 REVERT JUMPDEST POP JUMP JUMPDEST PUSH0 DUP2 CALLDATALOAD SWAP1 POP PUSH2 0x2703 DUP2 PUSH2 0x26DF JUMP JUMPDEST SWAP3 SWAP2 POP POP JUMP JUMPDEST PUSH0 PUSH20 0xFFFFFFFFFFFFFFFFFFFFFFFFFFFFFFFFFFFFFFFF DUP3 AND SWAP1 POP SWAP2 SWAP1 POP JUMP JUMPDEST PUSH0 PUSH2 0x2732 DUP3 PUSH2 0x2709 JUMP JUMPDEST SWAP1 POP SWAP2 SWAP1 POP JUMP JUMPDEST PUSH2 0x2742 DUP2 PUSH2 0x2728 JUMP JUMPDEST DUP2 EQ PUSH2 0x274C JUMPI PUSH0 DUP1 REVERT JUMPDEST POP JUMP JUMPDEST PUSH0 DUP2 CALLDATALOAD SWAP1 POP PUSH2 0x275D DUP2 PUSH2 0x2739 JUMP JUMPDEST SWAP3 SWAP2 POP POP JUMP JUMPDEST PUSH0 DUP1 PUSH1 0x40 DUP4 DUP6 SUB SLT ISZERO PUSH2 0x2779 JUMPI PUSH2 0x2778 PUSH2 0x26CE JUMP JUMPDEST JUMPDEST PUSH0 PUSH2 0x2786 DUP6 DUP3 DUP7 ADD PUSH2 0x26F5 JUMP JUMPDEST SWAP3 POP POP PUSH1 0x20 PUSH2 0x2797 DUP6 DUP3 DUP7 ADD PUSH2 0x274F JUMP JUMPDEST SWAP2 POP POP SWAP3 POP SWAP3 SWAP1 POP JUMP JUMPDEST PUSH0 DUP1 PUSH1 0x40 DUP4 DUP6 SUB SLT ISZERO PUSH2 0x27B7 JUMPI PUSH2 0x27B6 PUSH2 0x26CE JUMP JUMPDEST JUMPDEST PUSH0 PUSH2 0x27C4 DUP6 DUP3 DUP7 ADD PUSH2 0x26F5 JUMP JUMPDEST SWAP3 POP POP PUSH1 0x20 PUSH2 0x27D5 DUP6 DUP3 DUP7 ADD PUSH2 0x26F5 JUMP JUMPDEST SWAP2 POP POP SWAP3 POP SWAP3 SWAP1 POP JUMP JUMPDEST PUSH2 0x27E8 DUP2 PUSH2 0x26D6 JUMP JUMPDEST DUP3 MSTORE POP POP JUMP JUMPDEST PUSH0 PUSH1 0x20 DUP3 ADD SWAP1 POP PUSH2 0x2801 PUSH0 DUP4 ADD DUP5 PUSH2 0x27DF JUMP JUMPDEST SWAP3 SWAP2 POP POP JUMP JUMPDEST PUSH0 PUSH1 0x20 DUP3 DUP5 SUB SLT ISZERO PUSH2 0x281C JUMPI PUSH2 0x281B PUSH2 0x26CE JUMP JUMPDEST JUMPDEST PUSH0 PUSH2 0x2829 DUP5 DUP3 DUP6 ADD PUSH2 0x26F5 JUMP JUMPDEST SWAP2 POP POP SWAP3 SWAP2 POP POP JUMP JUMPDEST PUSH0 DUP2 ISZERO ISZERO SWAP1 POP SWAP2 SWAP1 POP JUMP JUMPDEST PUSH2 0x2846 DUP2 PUSH2 0x2832 JUMP JUMPDEST DUP3 MSTORE POP POP JUMP JUMPDEST PUSH0 PUSH1 0x20 DUP3 ADD SWAP1 POP PUSH2 0x285F PUSH0 DUP4 ADD DUP5 PUSH2 0x283D JUMP JUMPDEST SWAP3 SWAP2 POP POP JUMP JUMPDEST PUSH0 PUSH1 0x20 DUP3 DUP5 SUB SLT ISZERO PUSH2 0x287A JUMPI PUSH2 0x2879 PUSH2 0x26CE JUMP JUMPDEST JUMPDEST PUSH0 PUSH2 0x2887 DUP5 DUP3 DUP6 ADD PUSH2 0x274F JUMP JUMPDEST SWAP2 POP POP SWAP3 SWAP2 POP POP JUMP JUMPDEST PUSH0 PUSH32 0xFFFFFFFF00000000000000000000000000000000000000000000000000000000 DUP3 AND SWAP1 POP SWAP2 SWAP1 POP JUMP JUMPDEST PUSH2 0x28C4 DUP2 PUSH2 0x2890 JUMP JUMPDEST DUP3 MSTORE POP POP JUMP JUMPDEST PUSH0 PUSH1 0x20 DUP3 ADD SWAP1 POP PUSH2 0x28DD PUSH0 DUP4 ADD DUP5 PUSH2 0x28BB JUMP JUMPDEST SWAP3 SWAP2 POP POP JUMP JUMPDEST PUSH0 DUP2 SWAP1 POP SWAP2 SWAP1 POP JUMP JUMPDEST PUSH2 0x28F5 DUP2 PUSH2 0x28E3 JUMP JUMPDEST DUP2 EQ PUSH2 0x28FF JUMPI PUSH0 DUP1 REVERT JUMPDEST POP JUMP JUMPDEST PUSH0 DUP2 CALLDATALOAD SWAP1 POP PUSH2 0x2910 DUP2 PUSH2 0x28EC JUMP JUMPDEST SWAP3 SWAP2 POP POP JUMP JUMPDEST PUSH0 DUP1 PUSH0 DUP1 PUSH0 DUP1 PUSH1 0xC0 DUP8 DUP10 SUB SLT ISZERO PUSH2 0x2930 JUMPI PUSH2 0x292F PUSH2 0x26CE JUMP JUMPDEST JUMPDEST PUSH0 PUSH2 0x293D DUP10 DUP3 DUP11 ADD PUSH2 0x26F5 JUMP JUMPDEST SWAP7 POP POP PUSH1 0x20 PUSH2 0x294E DUP10 DUP3 DUP11 ADD PUSH2 0x2902 JUMP JUMPDEST SWAP6 POP POP PUSH1 0x40 PUSH2 0x295F DUP10 DUP3 DUP11 ADD PUSH2 0x2902 JUMP JUMPDEST SWAP5 POP POP PUSH1 0x60 PUSH2 0x2970 DUP10 DUP3 DUP11 ADD PUSH2 0x26F5 JUMP JUMPDEST SWAP4 POP POP PUSH1 0x80 PUSH2 0x2981 DUP10 DUP3 DUP11 ADD PUSH2 0x274F JUMP JUMPDEST SWAP3 POP POP PUSH1 0xA0 PUSH2 0x2992 DUP10 DUP3 DUP11 ADD PUSH2 0x26F5 JUMP JUMPDEST SWAP2 POP POP SWAP3 SWAP6 POP SWAP3 SWAP6 POP SWAP3 SWAP6 JUMP JUMPDEST PUSH0 DUP1 REVERT JUMPDEST PUSH0 DUP1 REVERT JUMPDEST PUSH0 DUP1 REVERT JUMPDEST PUSH0 DUP1 DUP4 PUSH1 0x1F DUP5 ADD SLT PUSH2 0x29C0 JUMPI PUSH2 0x29BF PUSH2 0x299F JUMP JUMPDEST JUMPDEST DUP3 CALLDATALOAD SWAP1 POP PUSH8 0xFFFFFFFFFFFFFFFF DUP2 GT ISZERO PUSH2 0x29DD JUMPI PUSH2 0x29DC PUSH2 0x29A3 JUMP JUMPDEST JUMPDEST PUSH1 0x20 DUP4 ADD SWAP2 POP DUP4 PUSH1 0x1 DUP3 MUL DUP4 ADD GT ISZERO PUSH2 0x29F9 JUMPI PUSH2 0x29F8 PUSH2 0x29A7 JUMP JUMPDEST JUMPDEST SWAP3 POP SWAP3 SWAP1 POP JUMP JUMPDEST PUSH0 DUP1 PUSH0 PUSH1 0x40 DUP5 DUP7 SUB SLT ISZERO PUSH2 0x2A17 JUMPI PUSH2 0x2A16 PUSH2 0x26CE JUMP JUMPDEST JUMPDEST PUSH0 PUSH2 0x2A24 DUP7 DUP3 DUP8 ADD PUSH2 0x26F5 JUMP JUMPDEST SWAP4 POP POP PUSH1 0x20 DUP5 ADD CALLDATALOAD PUSH8 0xFFFFFFFFFFFFFFFF DUP2 GT ISZERO PUSH2 0x2A45 JUMPI PUSH2 0x2A44 PUSH2 0x26D2 JUMP JUMPDEST JUMPDEST PUSH2 0x2A51 DUP7 DUP3 DUP8 ADD PUSH2 0x29AB JUMP JUMPDEST SWAP3 POP SWAP3 POP POP SWAP3 POP SWAP3 POP SWAP3 JUMP JUMPDEST PUSH0 DUP1 REVERT JUMPDEST PUSH0 PUSH1 0x1F NOT PUSH1 0x1F DUP4 ADD AND SWAP1 POP SWAP2 SWAP1 POP JUMP JUMPDEST PUSH32 0x4E487B7100000000000000000000000000000000000000000000000000000000 PUSH0 MSTORE PUSH1 0x41 PUSH1 0x4 MSTORE PUSH1 0x24 PUSH0 REVERT JUMPDEST PUSH2 0x2AA7 DUP3 PUSH2 0x2A61 JUMP JUMPDEST DUP2 ADD DUP2 DUP2 LT PUSH8 0xFFFFFFFFFFFFFFFF DUP3 GT OR ISZERO PUSH2 0x2AC6 JUMPI PUSH2 0x2AC5 PUSH2 0x2A71 JUMP JUMPDEST JUMPDEST DUP1 PUSH1 0x40 MSTORE POP POP POP JUMP JUMPDEST PUSH0 PUSH2 0x2AD8 PUSH2 0x26C5 JUMP JUMPDEST SWAP1 POP PUSH2 0x2AE4 DUP3 DUP3 PUSH2 0x2A9E JUMP JUMPDEST SWAP2 SWAP1 POP JUMP JUMPDEST PUSH0 PUSH8 0xFFFFFFFFFFFFFFFF DUP3 GT ISZERO PUSH2 0x2B03 JUMPI PUSH2 0x2B02 PUSH2 0x2A71 JUMP JUMPDEST JUMPDEST PUSH2 0x2B0C DUP3 PUSH2 0x2A61 JUMP JUMPDEST SWAP1 POP PUSH1 0x20 DUP2 ADD SWAP1 POP SWAP2 SWAP1 POP JUMP JUMPDEST DUP3 DUP2 DUP4 CALLDATACOPY PUSH0 DUP4 DUP4 ADD MSTORE POP POP POP JUMP JUMPDEST PUSH0 PUSH2 0x2B39 PUSH2 0x2B34 DUP5 PUSH2 0x2AE9 JUMP JUMPDEST PUSH2 0x2ACF JUMP JUMPDEST SWAP1 POP DUP3 DUP2 MSTORE PUSH1 0x20 DUP2 ADD DUP5 DUP5 DUP5 ADD GT ISZERO PUSH2 0x2B55 JUMPI PUSH2 0x2B54 PUSH2 0x2A5D JUMP JUMPDEST JUMPDEST PUSH2 0x2B60 DUP5 DUP3 DUP6 PUSH2 0x2B19 JUMP JUMPDEST POP SWAP4 SWAP3 POP POP POP JUMP JUMPDEST PUSH0 DUP3 PUSH1 0x1F DUP4 ADD SLT PUSH2 0x2B7C JUMPI PUSH2 0x2B7B PUSH2 0x299F JUMP JUMPDEST JUMPDEST DUP2 CALLDATALOAD PUSH2 0x2B8C DUP5 DUP3 PUSH1 0x20 DUP7 ADD PUSH2 0x2B27 JUMP JUMPDEST SWAP2 POP POP SWAP3 SWAP2 POP POP JUMP JUMPDEST PUSH0 PUSH8 0xFFFFFFFFFFFFFFFF DUP3 AND SWAP1 POP SWAP2 SWAP1 POP JUMP JUMPDEST PUSH2 0x2BB1 DUP2 PUSH2 0x2B95 JUMP JUMPDEST DUP2 EQ PUSH2 0x2BBB JUMPI PUSH0 DUP1 REVERT JUMPDEST POP JUMP JUMPDEST PUSH0 DUP2 CALLDATALOAD SWAP1 POP PUSH2 0x2BCC DUP2 PUSH2 0x2BA8 JUMP JUMPDEST SWAP3 SWAP2 POP POP JUMP JUMPDEST PUSH0 DUP1 PUSH0 DUP1 PUSH0 PUSH1 0xA0 DUP7 DUP9 SUB SLT ISZERO PUSH2 0x2BEB JUMPI PUSH2 0x2BEA PUSH2 0x26CE JUMP JUMPDEST JUMPDEST PUSH0 PUSH2 0x2BF8 DUP9 DUP3 DUP10 ADD PUSH2 0x26F5 JUMP JUMPDEST SWAP6 POP POP PUSH1 0x20 DUP7 ADD CALLDATALOAD PUSH8 0xFFFFFFFFFFFFFFFF DUP2 GT ISZERO PUSH2 0x2C19 JUMPI PUSH2 0x2C18 PUSH2 0x26D2 JUMP JUMPDEST JUMPDEST PUSH2 0x2C25 DUP9 DUP3 DUP10 ADD PUSH2 0x2B68 JUMP JUMPDEST SWAP5 POP POP PUSH1 0x40 PUSH2 0x2C36 DUP9 DUP3 DUP10 ADD PUSH2 0x274F JUMP JUMPDEST SWAP4 POP POP PUSH1 0x60 PUSH2 0x2C47 DUP9 DUP3 DUP10 ADD PUSH2 0x2BBE JUMP JUMPDEST SWAP3 POP POP PUSH1 0x80 DUP7 ADD CALLDATALOAD PUSH8 0xFFFFFFFFFFFFFFFF DUP2 GT ISZERO PUSH2 0x2C68 JUMPI PUSH2 0x2C67 PUSH2 0x26D2 JUMP JUMPDEST JUMPDEST PUSH2 0x2C74 DUP9 DUP3 DUP10 ADD PUSH2 0x2B68 JUMP JUMPDEST SWAP2 POP POP SWAP3 SWAP6 POP SWAP3 SWAP6 SWAP1 SWAP4 POP JUMP JUMPDEST PUSH2 0x2C8A DUP2 PUSH2 0x28E3 JUMP JUMPDEST DUP3 MSTORE POP POP JUMP JUMPDEST PUSH2 0x2C99 DUP2 PUSH2 0x26D6 JUMP JUMPDEST DUP3 MSTORE POP POP JUMP JUMPDEST PUSH2 0x2CA8 DUP2 PUSH2 0x2728 JUMP JUMPDEST DUP3 MSTORE POP POP JUMP JUMPDEST PUSH1 0xC0 DUP3 ADD PUSH0 DUP3 ADD MLOAD PUSH2 0x2CC2 PUSH0 DUP6 ADD DUP3 PUSH2 0x2C81 JUMP JUMPDEST POP PUSH1 0x20 DUP3 ADD MLOAD PUSH2 0x2CD5 PUSH1 0x20 DUP6 ADD DUP3 PUSH2 0x2C81 JUMP JUMPDEST POP PUSH1 0x40 DUP3 ADD MLOAD PUSH2 0x2CE8 PUSH1 0x40 DUP6 ADD DUP3 PUSH2 0x2C90 JUMP JUMPDEST POP PUSH1 0x60 DUP3 ADD MLOAD PUSH2 0x2CFB PUSH1 0x60 DUP6 ADD DUP3 PUSH2 0x2C9F JUMP JUMPDEST POP PUSH1 0x80 DUP3 ADD MLOAD PUSH2 0x2D0E PUSH1 0x80 DUP6 ADD DUP3 PUSH2 0x2C90 JUMP JUMPDEST POP PUSH1 0xA0 DUP3 ADD MLOAD PUSH2 0x2D21 PUSH1 0xA0 DUP6 ADD DUP3 PUSH2 0x2C90 JUMP JUMPDEST POP POP POP POP JUMP JUMPDEST PUSH0 PUSH1 0xC0 DUP3 ADD SWAP1 POP PUSH2 0x2D3A PUSH0 DUP4 ADD DUP5 PUSH2 0x2CAE JUMP JUMPDEST SWAP3 SWAP2 POP POP JUMP JUMPDEST PUSH2 0x2D49 DUP2 PUSH2 0x2728 JUMP JUMPDEST DUP3 MSTORE POP POP JUMP JUMPDEST PUSH0 DUP2 MLOAD SWAP1 POP SWAP2 SWAP1 POP JUMP JUMPDEST PUSH0 DUP3 DUP3 MSTORE PUSH1 0x20 DUP3 ADD SWAP1 POP SWAP3 SWAP2 POP POP JUMP JUMPDEST DUP3 DUP2 DUP4 MCOPY PUSH0 DUP4 DUP4 ADD MSTORE POP POP POP JUMP JUMPDEST PUSH0 PUSH2 0x2D81 DUP3 PUSH2 0x2D4F JUMP JUMPDEST PUSH2 0x2D8B DUP2 DUP6 PUSH2 0x2D59 JUMP JUMPDEST SWAP4 POP PUSH2 0x2D9B DUP2 DUP6 PUSH1 0x20 DUP7 ADD PUSH2 0x2D69 JUMP JUMPDEST PUSH2 0x2DA4 DUP2 PUSH2 0x2A61 JUMP JUMPDEST DUP5 ADD SWAP2 POP POP SWAP3 SWAP2 POP POP JUMP JUMPDEST PUSH2 0x2DB8 DUP2 PUSH2 0x2B95 JUMP JUMPDEST DUP3 MSTORE POP POP JUMP JUMPDEST PUSH0 PUSH1 0xE0 DUP3 ADD SWAP1 POP PUSH2 0x2DD1 PUSH0 DUP4 ADD DUP11 PUSH2 0x2D40 JUMP JUMPDEST PUSH2 0x2DDE PUSH1 0x20 DUP4 ADD DUP10 PUSH2 0x27DF JUMP JUMPDEST PUSH2 0x2DEB PUSH1 0x40 DUP4 ADD DUP9 PUSH2 0x27DF JUMP JUMPDEST DUP2 DUP2 SUB PUSH1 0x60 DUP4 ADD MSTORE PUSH2 0x2DFD DUP2 DUP8 PUSH2 0x2D77 JUMP JUMPDEST SWAP1 POP PUSH2 0x2E0C PUSH1 0x80 DUP4 ADD DUP7 PUSH2 0x2D40 JUMP JUMPDEST PUSH2 0x2E19 PUSH1 0xA0 DUP4 ADD DUP6 PUSH2 0x2DAF JUMP JUMPDEST DUP2 DUP2 SUB PUSH1 0xC0 DUP4 ADD MSTORE PUSH2 0x2E2B DUP2 DUP5 PUSH2 0x2D77 JUMP JUMPDEST SWAP1 POP SWAP9 SWAP8 POP POP POP POP POP POP POP POP JUMP JUMPDEST PUSH0 PUSH1 0x20 DUP3 ADD SWAP1 POP PUSH2 0x2E4C PUSH0 DUP4 ADD DUP5 PUSH2 0x2D40 JUMP JUMPDEST SWAP3 SWAP2 POP POP JUMP JUMPDEST PUSH0 DUP2 SWAP1 POP SWAP2 SWAP1 POP JUMP JUMPDEST PUSH0 PUSH2 0x2E75 PUSH2 0x2E70 PUSH2 0x2E6B DUP5 PUSH2 0x2709 JUMP JUMPDEST PUSH2 0x2E52 JUMP JUMPDEST PUSH2 0x2709 JUMP JUMPDEST SWAP1 POP SWAP2 SWAP1 POP JUMP JUMPDEST PUSH0 PUSH2 0x2E86 DUP3 PUSH2 0x2E5B JUMP JUMPDEST SWAP1 POP SWAP2 SWAP1 POP JUMP JUMPDEST PUSH0 PUSH2 0x2E97 DUP3 PUSH2 0x2E7C JUMP JUMPDEST SWAP1 POP SWAP2 SWAP1 POP JUMP JUMPDEST PUSH2 0x2EA7 DUP2 PUSH2 0x2E8D JUMP JUMPDEST DUP3 MSTORE POP POP JUMP JUMPDEST PUSH0 PUSH1 0x20 DUP3 ADD SWAP1 POP PUSH2 0x2EC0 PUSH0 DUP4 ADD DUP5 PUSH2 0x2E9E JUMP JUMPDEST SWAP3 SWAP2 POP POP JUMP JUMPDEST PUSH0 PUSH1 0x20 DUP3 ADD SWAP1 POP DUP2 DUP2 SUB PUSH0 DUP4 ADD MSTORE PUSH2 0x2EDE DUP2 DUP5 PUSH2 0x2D77 JUMP JUMPDEST SWAP1 POP SWAP3 SWAP2 POP POP JUMP JUMPDEST PUSH0 DUP3 DUP3 MSTORE PUSH1 0x20 DUP3 ADD SWAP1 POP SWAP3 SWAP2 POP POP JUMP JUMPDEST PUSH32 0x4E6F7420746865206F776E657200000000000000000000000000000000000000 PUSH0 DUP3 ADD MSTORE POP JUMP JUMPDEST PUSH0 PUSH2 0x2F2A PUSH1 0xD DUP4 PUSH2 0x2EE6 JUMP JUMPDEST SWAP2 POP PUSH2 0x2F35 DUP3 PUSH2 0x2EF6 JUMP JUMPDEST PUSH1 0x20 DUP3 ADD SWAP1 POP SWAP2 SWAP1 POP JUMP JUMPDEST PUSH0 PUSH1 0x20 DUP3 ADD SWAP1 POP DUP2 DUP2 SUB PUSH0 DUP4 ADD MSTORE PUSH2 0x2F57 DUP2 PUSH2 0x2F1E JUMP JUMPDEST SWAP1 POP SWAP2 SWAP1 POP JUMP JUMPDEST PUSH32 0x6D6F64656C20646F6573206E6F74206578697374000000000000000000000000 PUSH0 DUP3 ADD MSTORE POP JUMP JUMPDEST PUSH0 PUSH2 0x2F92 PUSH1 0x14 DUP4 PUSH2 0x2EE6 JUMP JUMPDEST SWAP2 POP PUSH2 0x2F9D DUP3 PUSH2 0x2F5E JUMP JUMPDEST PUSH1 0x20 DUP3 ADD SWAP1 POP SWAP2 SWAP1 POP JUMP JUMPDEST PUSH0 PUSH1 0x20 DUP3 ADD SWAP1 POP DUP2 DUP2 SUB PUSH0 DUP4 ADD MSTORE PUSH2 0x2FBF DUP2 PUSH2 0x2F86 JUMP JUMPDEST SWAP1 POP SWAP2 SWAP1 POP JUMP JUMPDEST PUSH32 0x4E487B7100000000000000000000000000000000000000000000000000000000 PUSH0 MSTORE PUSH1 0x11 PUSH1 0x4 MSTORE PUSH1 0x24 PUSH0 REVERT JUMPDEST PUSH0 PUSH2 0x2FFD DUP3 PUSH2 0x26D6 JUMP JUMPDEST SWAP2 POP PUSH2 0x3008 DUP4 PUSH2 0x26D6 JUMP JUMPDEST SWAP3 POP DUP3 DUP3 MUL PUSH2 0x3016 DUP2 PUSH2 0x26D6 JUMP JUMPDEST SWAP2 POP DUP3 DUP3 DIV DUP5 EQ DUP4 ISZERO OR PUSH2 0x302D JUMPI PUSH2 0x302C PUSH2 0x2FC6 JUMP JUMPDEST JUMPDEST POP SWAP3 SWAP2 POP POP JUMP JUMPDEST PUSH0 PUSH2 0x303E DUP3 PUSH2 0x26D6 JUMP JUMPDEST SWAP2 POP PUSH2 0x3049 DUP4 PUSH2 0x26D6 JUMP JUMPDEST SWAP3 POP DUP3 DUP3 ADD SWAP1 POP DUP1 DUP3 GT ISZERO PUSH2 0x3061 JUMPI PUSH2 0x3060 PUSH2 0x2FC6 JUMP JUMPDEST JUMPDEST SWAP3 SWAP2 POP POP JUMP JUMPDEST PUSH2 0x3070 DUP2 PUSH2 0x2832 JUMP JUMPDEST DUP2 EQ PUSH2 0x307A JUMPI PUSH0 DUP1 REVERT JUMPDEST POP JUMP JUMPDEST PUSH0 DUP2 MLOAD SWAP1 POP PUSH2 0x308B DUP2 PUSH2 0x3067 JUMP JUMPDEST SWAP3 SWAP2 POP POP JUMP JUMPDEST PUSH0 PUSH1 0x20 DUP3 DUP5 SUB SLT ISZERO PUSH2 0x30A6 JUMPI PUSH2 0x30A5 PUSH2 0x26CE JUMP JUMPDEST JUMPDEST PUSH0 PUSH2 0x30B3 DUP5 DUP3 DUP6 ADD PUSH2 0x307D JUMP JUMPDEST SWAP2 POP POP SWAP3 SWAP2 POP POP JUMP JUMPDEST PUSH32 0x4E487B7100000000000000000000000000000000000000000000000000000000 PUSH0 MSTORE PUSH1 0x32 PUSH1 0x4 MSTORE PUSH1 0x24 PUSH0 REVERT JUMPDEST PUSH0 PUSH2 0x30F3 DUP3 PUSH2 0x26D6 JUMP JUMPDEST SWAP2 POP PUSH2 0x30FE DUP4 PUSH2 0x26D6 JUMP JUMPDEST SWAP3 POP DUP3 DUP3 SUB SWAP1 POP DUP2 DUP2 GT ISZERO PUSH2 0x3116 JUMPI PUSH2 0x3115 PUSH2 0x2FC6 JUMP JUMPDEST JUMPDEST SWAP3 SWAP2 POP POP JUMP JUMPDEST PUSH32 0x70657263656E746167652073686F756C64206265203C3D203130300000000000 PUSH0 DUP3 ADD MSTORE POP JUMP JUMPDEST PUSH0 PUSH2 0x3150 PUSH1 0x1B DUP4 PUSH2 0x2EE6 JUMP JUMPDEST SWAP2 POP PUSH2 0x315B DUP3 PUSH2 0x311C JUMP JUMPDEST PUSH1 0x20 DUP3 ADD SWAP1 POP SWAP2 SWAP1 POP JUMP JUMPDEST PUSH0 PUSH1 0x20 DUP3 ADD SWAP1 POP DUP2 DUP2 SUB PUSH0 DUP4 ADD MSTORE PUSH2 0x317D DUP2 PUSH2 0x3144 JUMP JUMPDEST SWAP1 POP SWAP2 SWAP1 POP JUMP JUMPDEST PUSH32 0x4F6E6C7920736572766572000000000000000000000000000000000000000000 PUSH0 DUP3 ADD MSTORE POP JUMP JUMPDEST PUSH0 PUSH2 0x31B8 PUSH1 0xB DUP4 PUSH2 0x2EE6 JUMP JUMPDEST SWAP2 POP PUSH2 0x31C3 DUP3 PUSH2 0x3184 JUMP JUMPDEST PUSH1 0x20 DUP3 ADD SWAP1 POP SWAP2 SWAP1 POP JUMP JUMPDEST PUSH0 PUSH1 0x20 DUP3 ADD SWAP1 POP DUP2 DUP2 SUB PUSH0 DUP4 ADD MSTORE PUSH2 0x31E5 DUP2 PUSH2 0x31AC JUMP JUMPDEST SWAP1 POP SWAP2 SWAP1 POP JUMP JUMPDEST PUSH0 PUSH2 0x31F7 DUP4 DUP6 PUSH2 0x2D59 JUMP JUMPDEST SWAP4 POP PUSH2 0x3204 DUP4 DUP6 DUP5 PUSH2 0x2B19 JUMP JUMPDEST PUSH2 0x320D DUP4 PUSH2 0x2A61 JUMP JUMPDEST DUP5 ADD SWAP1 POP SWAP4 SWAP3 POP POP POP JUMP JUMPDEST PUSH0 PUSH1 0x40 DUP3 ADD SWAP1 POP PUSH2 0x322B PUSH0 DUP4 ADD DUP7 PUSH2 0x27DF JUMP JUMPDEST DUP2 DUP2 SUB PUSH1 0x20 DUP4 ADD MSTORE PUSH2 0x323E DUP2 DUP5 DUP7 PUSH2 0x31EC JUMP JUMPDEST SWAP1 POP SWAP5 SWAP4 POP POP POP POP JUMP JUMPDEST PUSH32 0x4E487B7100000000000000000000000000000000000000000000000000000000 PUSH0 MSTORE PUSH1 0x22 PUSH1 0x4 MSTORE PUSH1 0x24 PUSH0 REVERT JUMPDEST PUSH0 PUSH1 0x2 DUP3 DIV SWAP1 POP PUSH1 0x1 DUP3 AND DUP1 PUSH2 0x328C JUMPI PUSH1 0x7F DUP3 AND SWAP2 POP JUMPDEST PUSH1 0x20 DUP3 LT DUP2 SUB PUSH2 0x329F JUMPI PUSH2 0x329E PUSH2 0x3248 JUMP JUMPDEST JUMPDEST POP SWAP2 SWAP1 POP JUMP JUMPDEST PUSH0 DUP2 SWAP1 POP DUP2 PUSH0 MSTORE PUSH1 0x20 PUSH0 KECCAK256 SWAP1 POP SWAP2 SWAP1 POP JUMP JUMPDEST PUSH0 DUP2 SLOAD PUSH2 0x32C3 DUP2 PUSH2 0x3275 JUMP JUMPDEST PUSH2 0x32CD DUP2 DUP7 PUSH2 0x2D59 JUMP JUMPDEST SWAP5 POP PUSH1 0x1 DUP3 AND PUSH0 DUP2 EQ PUSH2 0x32E7 JUMPI PUSH1 0x1 DUP2 EQ PUSH2 0x32FD JUMPI PUSH2 0x332F JUMP JUMPDEST PUSH1 0xFF NOT DUP4 AND DUP7 MSTORE DUP2 ISZERO ISZERO PUSH1 0x20 MUL DUP7 ADD SWAP4 POP PUSH2 0x332F JUMP JUMPDEST PUSH2 0x3306 DUP6 PUSH2 0x32A5 JUMP JUMPDEST PUSH0 JUMPDEST DUP4 DUP2 LT ISZERO PUSH2 0x3327 JUMPI DUP2 SLOAD DUP2 DUP10 ADD MSTORE PUSH1 0x1 DUP3 ADD SWAP2 POP PUSH1 0x20 DUP2 ADD SWAP1 POP PUSH2 0x3308 JUMP JUMPDEST DUP1 DUP9 ADD SWAP6 POP POP POP JUMPDEST POP POP POP SWAP3 SWAP2 POP POP JUMP JUMPDEST PUSH0 PUSH1 0x60 DUP3 ADD SWAP1 POP PUSH2 0x334B PUSH0 DUP4 ADD DUP8 PUSH2 0x27DF JUMP JUMPDEST DUP2 DUP2 SUB PUSH1 0x20 DUP4 ADD MSTORE PUSH2 0x335E DUP2 DUP6 DUP8 PUSH2 0x31EC JUMP JUMPDEST SWAP1 POP DUP2 DUP2 SUB PUSH1 0x40 DUP4 ADD MSTORE PUSH2 0x3372 DUP2 DUP5 PUSH2 0x32B7 JUMP JUMPDEST SWAP1 POP SWAP6 SWAP5 POP POP POP POP POP JUMP JUMPDEST PUSH0 DUP2 SWAP1 POP SWAP3 SWAP2 POP POP JUMP JUMPDEST PUSH0 PUSH2 0x3391 DUP3 PUSH2 0x2D4F JUMP JUMPDEST PUSH2 0x339B DUP2 DUP6 PUSH2 0x337D JUMP JUMPDEST SWAP4 POP PUSH2 0x33AB DUP2 DUP6 PUSH1 0x20 DUP7 ADD PUSH2 0x2D69 JUMP JUMPDEST DUP1 DUP5 ADD SWAP2 POP POP SWAP3 SWAP2 POP POP JUMP JUMPDEST PUSH0 PUSH2 0x33C2 DUP3 DUP5 PUSH2 0x3387 JUMP JUMPDEST SWAP2 POP DUP2 SWAP1 POP SWAP3 SWAP2 POP POP JUMP JUMPDEST PUSH32 0x6661696C656420746F2063616C6C2073656C6563746F72000000000000000000 PUSH0 DUP3 ADD MSTORE POP JUMP JUMPDEST PUSH0 PUSH2 0x3401 PUSH1 0x17 DUP4 PUSH2 0x2EE6 JUMP JUMPDEST SWAP2 POP PUSH2 0x340C DUP3 PUSH2 0x33CD JUMP JUMPDEST PUSH1 0x20 DUP3 ADD SWAP1 POP SWAP2 SWAP1 POP JUMP JUMPDEST PUSH0 PUSH1 0x20 DUP3 ADD SWAP1 POP DUP2 DUP2 SUB PUSH0 DUP4 ADD MSTORE PUSH2 0x342E DUP2 PUSH2 0x33F5 JUMP JUMPDEST SWAP1 POP SWAP2 SWAP1 POP JUMP JUMPDEST PUSH0 DUP3 SWAP1 POP SWAP3 SWAP2 POP POP JUMP JUMPDEST PUSH0 PUSH1 0x20 PUSH1 0x1F DUP4 ADD DIV SWAP1 POP SWAP2 SWAP1 POP JUMP JUMPDEST PUSH0 DUP3 DUP3 SHL SWAP1 POP SWAP3 SWAP2 POP POP JUMP JUMPDEST PUSH0 PUSH1 0x8 DUP4 MUL PUSH2 0x3489 PUSH32 0xFFFFFFFFFFFFFFFFFFFFFFFFFFFFFFFFFFFFFFFFFFFFFFFFFFFFFFFFFFFFFFFF DUP3 PUSH2 0x344E JUMP JUMPDEST PUSH2 0x3493 DUP7 DUP4 PUSH2 0x344E JUMP JUMPDEST SWAP6 POP DUP1 NOT DUP5 AND SWAP4 POP DUP1 DUP7 AND DUP5 OR SWAP3 POP POP POP SWAP4 SWAP3 POP POP POP JUMP JUMPDEST PUSH0 PUSH2 0x34C5 PUSH2 0x34C0 PUSH2 0x34BB DUP5 PUSH2 0x26D6 JUMP JUMPDEST PUSH2 0x2E52 JUMP JUMPDEST PUSH2 0x26D6 JUMP JUMPDEST SWAP1 POP SWAP2 SWAP1 POP JUMP JUMPDEST PUSH0 DUP2 SWAP1 POP SWAP2 SWAP1 POP JUMP JUMPDEST PUSH2 0x34DE DUP4 PUSH2 0x34AB JUMP JUMPDEST PUSH2 0x34F2 PUSH2 0x34EA DUP3 PUSH2 0x34CC JUMP JUMPDEST DUP5 DUP5 SLOAD PUSH2 0x345A JUMP JUMPDEST DUP3 SSTORE POP POP POP POP JUMP JUMPDEST PUSH0 SWAP1 JUMP JUMPDEST PUSH2 0x3506 PUSH2 0x34FA JUMP JUMPDEST PUSH2 0x3511 DUP2 DUP5 DUP5 PUSH2 0x34D5 JUMP JUMPDEST POP POP POP JUMP JUMPDEST JUMPDEST DUP2 DUP2 LT ISZERO PUSH2 0x3534 JUMPI PUSH2 0x3529 PUSH0 DUP3 PUSH2 0x34FE JUMP JUMPDEST PUSH1 0x1 DUP2 ADD SWAP1 POP PUSH2 0x3517 JUMP JUMPDEST POP POP JUMP JUMPDEST PUSH1 0x1F DUP3 GT ISZERO PUSH2 0x3579 JUMPI PUSH2 0x354A DUP2 PUSH2 0x32A5 JUMP JUMPDEST PUSH2 0x3553 DUP5 PUSH2 0x343F JUMP JUMPDEST DUP2 ADD PUSH1 0x20 DUP6 LT ISZERO PUSH2 0x3562 JUMPI DUP2 SWAP1 POP JUMPDEST PUSH2 0x3576 PUSH2 0x356E DUP6 PUSH2 0x343F JUMP JUMPDEST DUP4 ADD DUP3 PUSH2 0x3516 JUMP JUMPDEST POP POP JUMPDEST POP POP POP JUMP JUMPDEST PUSH0 DUP3 DUP3 SHR SWAP1 POP SWAP3 SWAP2 POP POP JUMP JUMPDEST PUSH0 PUSH2 0x3599 PUSH0 NOT DUP5 PUSH1 0x8 MUL PUSH2 0x357E JUMP JUMPDEST NOT DUP1 DUP4 AND SWAP2 POP POP SWAP3 SWAP2 POP POP JUMP JUMPDEST PUSH0 PUSH2 0x35B1 DUP4 DUP4 PUSH2 0x358A JUMP JUMPDEST SWAP2 POP DUP3 PUSH1 0x2 MUL DUP3 OR SWAP1 POP SWAP3 SWAP2 POP POP JUMP JUMPDEST PUSH2 0x35CB DUP4 DUP4 PUSH2 0x3435 JUMP JUMPDEST PUSH8 0xFFFFFFFFFFFFFFFF DUP2 GT ISZERO PUSH2 0x35E4 JUMPI PUSH2 0x35E3 PUSH2 0x2A71 JUMP JUMPDEST JUMPDEST PUSH2 0x35EE DUP3 SLOAD PUSH2 0x3275 JUMP JUMPDEST PUSH2 0x35F9 DUP3 DUP3 DUP6 PUSH2 0x3538 JUMP JUMPDEST PUSH0 PUSH1 0x1F DUP4 GT PUSH1 0x1 DUP2 EQ PUSH2 0x3626 JUMPI PUSH0 DUP5 ISZERO PUSH2 0x3614 JUMPI DUP3 DUP8 ADD CALLDATALOAD SWAP1 POP JUMPDEST PUSH2 0x361E DUP6 DUP3 PUSH2 0x35A6 JUMP JUMPDEST DUP7 SSTORE POP PUSH2 0x3685 JUMP JUMPDEST PUSH1 0x1F NOT DUP5 AND PUSH2 0x3634 DUP7 PUSH2 0x32A5 JUMP JUMPDEST PUSH0 JUMPDEST DUP3 DUP2 LT ISZERO PUSH2 0x365B JUMPI DUP5 DUP10 ADD CALLDATALOAD DUP3 SSTORE PUSH1 0x1 DUP3 ADD SWAP2 POP PUSH1 0x20 DUP6 ADD SWAP5 POP PUSH1 0x20 DUP2 ADD SWAP1 POP PUSH2 0x3636 JUMP JUMPDEST DUP7 DUP4 LT ISZERO PUSH2 0x3678 JUMPI DUP5 DUP10 ADD CALLDATALOAD PUSH2 0x3674 PUSH1 0x1F DUP10 AND DUP3 PUSH2 0x358A JUMP JUMPDEST DUP4 SSTORE POP JUMPDEST PUSH1 0x1 PUSH1 0x2 DUP9 MUL ADD DUP9 SSTORE POP POP POP JUMPDEST POP POP POP POP POP POP POP JUMP JUMPDEST PUSH0 PUSH1 0x40 DUP3 ADD SWAP1 POP PUSH2 0x36A1 PUSH0 DUP4 ADD DUP7 PUSH2 0x2D40 JUMP JUMPDEST DUP2 DUP2 SUB PUSH1 0x20 DUP4 ADD MSTORE PUSH2 0x36B4 DUP2 DUP5 DUP7 PUSH2 0x31EC JUMP JUMPDEST SWAP1 POP SWAP5 SWAP4 POP POP POP POP JUMP JUMPDEST PUSH32 0x616363756D756C61746520726576656E75652069732030000000000000000000 PUSH0 DUP3 ADD MSTORE POP JUMP JUMPDEST PUSH0 PUSH2 0x36F2 PUSH1 0x17 DUP4 PUSH2 0x2EE6 JUMP JUMPDEST SWAP2 POP PUSH2 0x36FD DUP3 PUSH2 0x36BE JUMP JUMPDEST PUSH1 0x20 DUP3 ADD SWAP1 POP SWAP2 SWAP1 POP JUMP JUMPDEST PUSH0 PUSH1 0x20 DUP3 ADD SWAP1 POP DUP2 DUP2 SUB PUSH0 DUP4 ADD MSTORE PUSH2 0x371F DUP2 PUSH2 0x36E6 JUMP JUMPDEST SWAP1 POP SWAP2 SWAP1 POP JUMP JUMPDEST PUSH2 0x372F DUP2 PUSH2 0x28E3 JUMP JUMPDEST DUP3 MSTORE POP POP JUMP JUMPDEST PUSH0 PUSH1 0x60 DUP3 ADD SWAP1 POP PUSH2 0x3748 PUSH0 DUP4 ADD DUP7 PUSH2 0x3726 JUMP JUMPDEST PUSH2 0x3755 PUSH1 0x20 DUP4 ADD DUP6 PUSH2 0x3726 JUMP JUMPDEST DUP2 DUP2 SUB PUSH1 0x40 DUP4 ADD MSTORE PUSH2 0x3767 DUP2 DUP5 PUSH2 0x2D77 JUMP JUMPDEST SWAP1 POP SWAP5 SWAP4 POP POP POP POP JUMP JUMPDEST PUSH0 DUP2 MLOAD SWAP1 POP PUSH2 0x377F DUP2 PUSH2 0x26DF JUMP JUMPDEST SWAP3 SWAP2 POP POP JUMP JUMPDEST PUSH0 PUSH1 0x20 DUP3 DUP5 SUB SLT ISZERO PUSH2 0x379A JUMPI PUSH2 0x3799 PUSH2 0x26CE JUMP JUMPDEST JUMPDEST PUSH0 PUSH2 0x37A7 DUP5 DUP3 DUP6 ADD PUSH2 0x3771 JUMP JUMPDEST SWAP2 POP POP SWAP3 SWAP2 POP POP JUMP JUMPDEST PUSH2 0x37B9 DUP3 PUSH2 0x2D4F JUMP JUMPDEST PUSH8 0xFFFFFFFFFFFFFFFF DUP2 GT ISZERO PUSH2 0x37D2 JUMPI PUSH2 0x37D1 PUSH2 0x2A71 JUMP JUMPDEST JUMPDEST PUSH2 0x37DC DUP3 SLOAD PUSH2 0x3275 JUMP JUMPDEST PUSH2 0x37E7 DUP3 DUP3 DUP6 PUSH2 0x3538 JUMP JUMPDEST PUSH0 PUSH1 0x20 SWAP1 POP PUSH1 0x1F DUP4 GT PUSH1 0x1 DUP2 EQ PUSH2 0x3818 JUMPI PUSH0 DUP5 ISZERO PUSH2 0x3806 JUMPI DUP3 DUP8 ADD MLOAD SWAP1 POP JUMPDEST PUSH2 0x3810 DUP6 DUP3 PUSH2 0x35A6 JUMP JUMPDEST DUP7 SSTORE POP PUSH2 0x3877 JUMP JUMPDEST PUSH1 0x1F NOT DUP5 AND PUSH2 0x3826 DUP7 PUSH2 0x32A5 JUMP JUMPDEST PUSH0 JUMPDEST DUP3 DUP2 LT ISZERO PUSH2 0x384D JUMPI DUP5 DUP10 ADD MLOAD DUP3 SSTORE PUSH1 0x1 DUP3 ADD SWAP2 POP PUSH1 0x20 DUP6 ADD SWAP5 POP PUSH1 0x20 DUP2 ADD SWAP1 POP PUSH2 0x3828 JUMP JUMPDEST DUP7 DUP4 LT ISZERO PUSH2 0x386A JUMPI DUP5 DUP10 ADD MLOAD PUSH2 0x3866 PUSH1 0x1F DUP10 AND DUP3 PUSH2 0x358A JUMP JUMPDEST DUP4 SSTORE POP JUMPDEST PUSH1 0x1 PUSH1 0x2 DUP9 MUL ADD DUP9 SSTORE POP POP POP JUMPDEST POP POP POP POP POP POP JUMP JUMPDEST PUSH0 PUSH1 0xA0 DUP3 ADD SWAP1 POP PUSH2 0x3892 PUSH0 DUP4 ADD DUP9 PUSH2 0x27DF JUMP JUMPDEST DUP2 DUP2 SUB PUSH1 0x20 DUP4 ADD MSTORE PUSH2 0x38A4 DUP2 DUP8 PUSH2 0x2D77 JUMP JUMPDEST SWAP1 POP PUSH2 0x38B3 PUSH1 0x40 DUP4 ADD DUP7 PUSH2 0x2D40 JUMP JUMPDEST PUSH2 0x38C0 PUSH1 0x60 DUP4 ADD DUP6 PUSH2 0x2DAF JUMP JUMPDEST DUP2 DUP2 SUB PUSH1 0x80 DUP4 ADD MSTORE PUSH2 0x38D2 DUP2 DUP5 PUSH2 0x2D77 JUMP JUMPDEST SWAP1 POP SWAP7 SWAP6 POP POP POP POP POP POP JUMP JUMPDEST PUSH32 0x4E487B7100000000000000000000000000000000000000000000000000000000 PUSH0 MSTORE PUSH1 0x31 PUSH1 0x4 MSTORE PUSH1 0x24 PUSH0 REVERT JUMPDEST PUSH0 PUSH2 0x391D PUSH2 0x3918 DUP5 PUSH2 0x2AE9 JUMP JUMPDEST PUSH2 0x2ACF JUMP JUMPDEST SWAP1 POP DUP3 DUP2 MSTORE PUSH1 0x20 DUP2 ADD DUP5 DUP5 DUP5 ADD GT ISZERO PUSH2 0x3939 JUMPI PUSH2 0x3938 PUSH2 0x2A5D JUMP JUMPDEST JUMPDEST PUSH2 0x3944 DUP5 DUP3 DUP6 PUSH2 0x2D69 JUMP JUMPDEST POP SWAP4 SWAP3 POP POP POP JUMP JUMPDEST PUSH0 DUP3 PUSH1 0x1F DUP4 ADD SLT PUSH2 0x3960 JUMPI PUSH2 0x395F PUSH2 0x299F JUMP JUMPDEST JUMPDEST DUP2 MLOAD PUSH2 0x3970 DUP5 DUP3 PUSH1 0x20 DUP7 ADD PUSH2 0x390B JUMP JUMPDEST SWAP2 POP POP SWAP3 SWAP2 POP POP JUMP JUMPDEST PUSH0 PUSH1 0x20 DUP3 DUP5 SUB SLT ISZERO PUSH2 0x398E JUMPI PUSH2 0x398D PUSH2 0x26CE JUMP JUMPDEST JUMPDEST PUSH0 DUP3 ADD MLOAD PUSH8 0xFFFFFFFFFFFFFFFF DUP2 GT ISZERO PUSH2 0x39AB JUMPI PUSH2 0x39AA PUSH2 0x26D2 JUMP JUMPDEST JUMPDEST PUSH2 0x39B7 DUP5 DUP3 DUP6 ADD PUSH2 0x394C JUMP JUMPDEST SWAP2 POP POP SWAP3 SWAP2 POP POP JUMP JUMPDEST PUSH32 0x6F7574707574206E6F742075706C6F6164656400000000000000000000000000 PUSH0 DUP3 ADD MSTORE POP JUMP JUMPDEST PUSH0 PUSH2 0x39F4 PUSH1 0x13 DUP4 PUSH2 0x2EE6 JUMP JUMPDEST SWAP2 POP PUSH2 0x39FF DUP3 PUSH2 0x39C0 JUMP JUMPDEST PUSH1 0x20 DUP3 ADD SWAP1 POP SWAP2 SWAP1 POP JUMP JUMPDEST PUSH0 PUSH1 0x20 DUP3 ADD SWAP1 POP DUP2 DUP2 SUB PUSH0 DUP4 ADD MSTORE PUSH2 0x3A21 DUP2 PUSH2 0x39E8 JUMP JUMPDEST SWAP1 POP SWAP2 SWAP1 POP JUMP JUMPDEST PUSH0 PUSH1 0x60 DUP3 ADD SWAP1 POP PUSH2 0x3A3B PUSH0 DUP4 ADD DUP7 PUSH2 0x27DF JUMP JUMPDEST DUP2 DUP2 SUB PUSH1 0x20 DUP4 ADD MSTORE PUSH2 0x3A4D DUP2 DUP6 PUSH2 0x2D77 JUMP JUMPDEST SWAP1 POP DUP2 DUP2 SUB PUSH1 0x40 DUP4 ADD MSTORE PUSH2 0x3A61 DUP2 DUP5 PUSH2 0x32B7 JUMP JUMPDEST SWAP1 POP SWAP5 SWAP4 POP POP POP POP JUMP JUMPDEST PUSH0 PUSH1 0x40 DUP3 ADD SWAP1 POP PUSH2 0x3A7E PUSH0 DUP4 ADD DUP6 PUSH2 0x2D40 JUMP JUMPDEST DUP2 DUP2 SUB PUSH1 0x20 DUP4 ADD MSTORE PUSH2 0x3A90 DUP2 DUP5 PUSH2 0x2D77 JUMP JUMPDEST SWAP1 POP SWAP4 SWAP3 POP POP POP JUMP JUMPDEST PUSH32 0x6D6F64656C20616C726561647920657869737473000000000000000000000000 PUSH0 DUP3 ADD MSTORE POP JUMP JUMPDEST PUSH0 PUSH2 0x3ACD PUSH1 0x14 DUP4 PUSH2 0x2EE6 JUMP JUMPDEST SWAP2 POP PUSH2 0x3AD8 DUP3 PUSH2 0x3A99 JUMP JUMPDEST PUSH1 0x20 DUP3 ADD SWAP1 POP SWAP2 SWAP1 POP JUMP JUMPDEST PUSH0 PUSH1 0x20 DUP3 ADD SWAP1 POP DUP2 DUP2 SUB PUSH0 DUP4 ADD MSTORE PUSH2 0x3AFA DUP2 PUSH2 0x3AC1 JUMP JUMPDEST SWAP1 POP SWAP2 SWAP1 POP JUMP JUMPDEST PUSH0 PUSH1 0x40 DUP3 ADD SWAP1 POP PUSH2 0x3B14 PUSH0 DUP4 ADD DUP6 PUSH2 0x3726 JUMP JUMPDEST PUSH2 0x3B21 PUSH1 0x20 DUP4 ADD DUP5 PUSH2 0x3726 JUMP JUMPDEST SWAP4 SWAP3 POP POP POP JUMP JUMPDEST PUSH32 0x496E20626C61636B6C6973740000000000000000000000000000000000000000 PUSH0 DUP3 ADD MSTORE POP JUMP JUMPDEST PUSH0 PUSH2 0x3B5C PUSH1 0xC DUP4 PUSH2 0x2EE6 JUMP JUMPDEST SWAP2 POP PUSH2 0x3B67 DUP3 PUSH2 0x3B28 JUMP JUMPDEST PUSH1 0x20 DUP3 ADD SWAP1 POP SWAP2 SWAP1 POP JUMP JUMPDEST PUSH0 PUSH1 0x20 DUP3 ADD SWAP1 POP DUP2 DUP2 SUB PUSH0 DUP4 ADD MSTORE PUSH2 0x3B89 DUP2 PUSH2 0x3B50 JUMP JUMPDEST SWAP1 POP SWAP2 SWAP1 POP JUMP JUMPDEST PUSH32 0x696E73756666696369656E742066656500000000000000000000000000000000 PUSH0 DUP3 ADD MSTORE POP JUMP JUMPDEST PUSH0 PUSH2 0x3BC4 PUSH1 0x10 DUP4 PUSH2 0x2EE6 JUMP JUMPDEST SWAP2 POP PUSH2 0x3BCF DUP3 PUSH2 0x3B90 JUMP JUMPDEST PUSH1 0x20 DUP3 ADD SWAP1 POP SWAP2 SWAP1 POP JUMP JUMPDEST PUSH0 PUSH1 0x20 DUP3 ADD SWAP1 POP DUP2 DUP2 SUB PUSH0 DUP4 ADD MSTORE PUSH2 0x3BF1 DUP2 PUSH2 0x3BB8 JUMP JUMPDEST SWAP1 POP SWAP2 SWAP1 POP JUMP JUMPDEST PUSH32 0x4E487B7100000000000000000000000000000000000000000000000000000000 PUSH0 MSTORE PUSH1 0x12 PUSH1 0x4 MSTORE PUSH1 0x24 PUSH0 REVERT JUMPDEST PUSH0 PUSH2 0x3C2F DUP3 PUSH2 0x26D6 JUMP JUMPDEST SWAP2 POP PUSH2 0x3C3A DUP4 PUSH2 0x26D6 JUMP JUMPDEST SWAP3 POP DUP3 PUSH2 0x3C4A JUMPI PUSH2 0x3C49 PUSH2 0x3BF8 JUMP JUMPDEST JUMPDEST DUP3 DUP3 DIV SWAP1 POP SWAP3 SWAP2 POP POP JUMP JUMPDEST PUSH32 0x696E707574206E6F742075706C6F616465640000000000000000000000000000 PUSH0 DUP3 ADD MSTORE POP JUMP JUMPDEST PUSH0 PUSH2 0x3C89 PUSH1 0x12 DUP4 PUSH2 0x2EE6 JUMP JUMPDEST SWAP2 POP PUSH2 0x3C94 DUP3 PUSH2 0x3C55 JUMP JUMPDEST PUSH1 0x20 DUP3 ADD SWAP1 POP SWAP2 SWAP1 POP JUMP JUMPDEST PUSH0 PUSH1 0x20 DUP3 ADD SWAP1 POP DUP2 DUP2 SUB PUSH0 DUP4 ADD MSTORE PUSH2 0x3CB6 DUP2 PUSH2 0x3C7D JUMP JUMPDEST SWAP1 POP SWAP2 SWAP1 POP JUMP JUMPDEST PUSH32 0x6761734C696D69742063616E6E6F742062652030000000000000000000000000 PUSH0 DUP3 ADD MSTORE POP JUMP JUMPDEST PUSH0 PUSH2 0x3CF1 PUSH1 0x14 DUP4 PUSH2 0x2EE6 JUMP JUMPDEST SWAP2 POP PUSH2 0x3CFC DUP3 PUSH2 0x3CBD JUMP JUMPDEST PUSH1 0x20 DUP3 ADD SWAP1 POP SWAP2 SWAP1 POP JUMP JUMPDEST PUSH0 PUSH1 0x20 DUP3 ADD SWAP1 POP DUP2 DUP2 SUB PUSH0 DUP4 ADD MSTORE PUSH2 0x3D1E DUP2 PUSH2 0x3CE5 JUMP JUMPDEST SWAP1 POP SWAP2 SWAP1 POP JUMP INVALID LOG2 PUSH5 0x6970667358 0x22 SLT KECCAK256 0x24 0xC5 0x2A PUSH20 0x6EB251AC1A43A9392465A94BEED7104E93DA192B SWAP12 0xCA 0xEE 0xB0 MULMOD LOG2 PREVRANDAO 0xEF PUSH5 0x736F6C6343 STOP ADDMOD BYTE STOP CALLER "
				},
				"gasEstimates": {
					"creation": {
						"codeDepositCost": "3141400",
						"executionCost": "infinite",
						"totalCost": "infinite"
					},
					"external": {
						"addToBlacklist(address)": "27096",
						"blacklist(address)": "2899",
						"callbackFunctionSelector()": "456",
						"claimModelRevenue(uint256)": "infinite",
						"estimateFee(uint256,uint256)": "infinite",
						"gasPrice()": "2535",
						"getModel(uint256)": "infinite",
						"invokeCallback(uint256,bytes)": "infinite",
						"isFinalized(uint256)": "infinite",
						"modelIDs(uint256)": "infinite",
						"numberOfModels()": "2484",
						"opml()": "infinite",
						"outputOfRequest(uint256)": "infinite",
						"owner()": "2604",
						"removeFromBlacklist(address)": "27051",
						"removeModel(uint256)": "infinite",
						"requestCallback(uint256,bytes,address,uint64,bytes)": "infinite",
						"requests(uint256)": "infinite",
						"resetGasPrice()": "7449",
						"resetModelIDs()": "infinite",
						"server()": "2603",
						"setModelFee(uint256,uint256)": "infinite",
						"setModelReceiver(uint256,address)": "29463",
						"setModelReceiverPercentage(uint256,uint256)": "infinite",
						"updateModel(uint256,bytes32,bytes32,uint256,address,uint256)": "infinite",
						"updateResult(uint256)": "infinite",
						"uploadModel(uint256,bytes32,bytes32,uint256,address,uint256)": "infinite",
						"withdraw()": "infinite"
					},
					"internal": {
						"_validateParams(uint256,bytes memory,address,uint64)": "infinite"
					}
				},
				"methodIdentifiers": {
					"addToBlacklist(address)": "44337ea1",
					"blacklist(address)": "f9f92be4",
					"callbackFunctionSelector()": "49163731",
					"claimModelRevenue(uint256)": "5638101b",
					"estimateFee(uint256,uint256)": "00e1d8d0",
					"gasPrice()": "fe173b97",
					"getModel(uint256)": "6d361694",
					"invokeCallback(uint256,bytes)": "55d15d93",
					"isFinalized(uint256)": "33727c4d",
					"modelIDs(uint256)": "349c4136",
					"numberOfModels()": "e857f747",
					"opml()": "9a6a794f",
					"outputOfRequest(uint256)": "b1097523",
					"owner()": "8da5cb5b",
					"removeFromBlacklist(address)": "537df3b6",
					"removeModel(uint256)": "6b0641a3",
					"requestCallback(uint256,bytes,address,uint64,bytes)": "5b953806",
					"requests(uint256)": "81d12c58",
					"resetGasPrice()": "754592b2",
					"resetModelIDs()": "ace04ec7",
					"server()": "fd922a42",
					"setModelFee(uint256,uint256)": "6c124d74",
					"setModelReceiver(uint256,address)": "0077f244",
					"setModelReceiverPercentage(uint256,uint256)": "699ecb83",
					"updateModel(uint256,bytes32,bytes32,uint256,address,uint256)": "54c33b10",
					"updateResult(uint256)": "82dcc26d",
					"uploadModel(uint256,bytes32,bytes32,uint256,address,uint256)": "b70b5ccc",
					"withdraw()": "3ccfd60b"
				}
			},
			"storageLayout": {
				"storage": [
					{
						"astId": 144,
						"contract": "contracts/mocks/MockAIOracle.sol:MockAIOracle",
						"label": "Opml",
						"offset": 0,
						"slot": "0",
						"type": "t_address"
					},
					{
						"astId": 146,
						"contract": "contracts/mocks/MockAIOracle.sol:MockAIOracle",
						"label": "Owner",
						"offset": 0,
						"slot": "1",
						"type": "t_address"
					},
					{
						"astId": 148,
						"contract": "contracts/mocks/MockAIOracle.sol:MockAIOracle",
						"label": "Server",
						"offset": 0,
						"slot": "2",
						"type": "t_address"
					},
					{
						"astId": 237,
						"contract": "contracts/mocks/MockAIOracle.sol:MockAIOracle",
						"label": "blacklist",
						"offset": 0,
						"slot": "3",
						"type": "t_mapping(t_address,t_bool)"
					},
					{
						"astId": 257,
						"contract": "contracts/mocks/MockAIOracle.sol:MockAIOracle",
						"label": "requests",
						"offset": 0,
						"slot": "4",
						"type": "t_mapping(t_uint256,t_struct(AICallbackRequestData)252_storage)"
					},
					{
						"astId": 261,
						"contract": "contracts/mocks/MockAIOracle.sol:MockAIOracle",
						"label": "outputOfRequest",
						"offset": 0,
						"slot": "5",
						"type": "t_mapping(t_uint256,t_bytes_storage)"
					},
					{
						"astId": 279,
						"contract": "contracts/mocks/MockAIOracle.sol:MockAIOracle",
						"label": "models",
						"offset": 0,
						"slot": "6",
						"type": "t_mapping(t_uint256,t_struct(ModelData)274_storage)"
					},
					{
						"astId": 283,
						"contract": "contracts/mocks/MockAIOracle.sol:MockAIOracle",
						"label": "modelExists",
						"offset": 0,
						"slot": "7",
						"type": "t_mapping(t_uint256,t_bool)"
					},
					{
						"astId": 285,
						"contract": "contracts/mocks/MockAIOracle.sol:MockAIOracle",
						"label": "gasPrice",
						"offset": 0,
						"slot": "8",
						"type": "t_uint256"
					},
					{
						"astId": 288,
						"contract": "contracts/mocks/MockAIOracle.sol:MockAIOracle",
						"label": "modelIDs",
						"offset": 0,
						"slot": "9",
						"type": "t_array(t_uint256)dyn_storage"
					}
				],
				"types": {
					"t_address": {
						"encoding": "inplace",
						"label": "address",
						"numberOfBytes": "20"
					},
					"t_array(t_uint256)dyn_storage": {
						"base": "t_uint256",
						"encoding": "dynamic_array",
						"label": "uint256[]",
						"numberOfBytes": "32"
					},
					"t_bool": {
						"encoding": "inplace",
						"label": "bool",
						"numberOfBytes": "1"
					},
					"t_bytes32": {
						"encoding": "inplace",
						"label": "bytes32",
						"numberOfBytes": "32"
					},
					"t_bytes_storage": {
						"encoding": "bytes",
						"label": "bytes",
						"numberOfBytes": "32"
					},
					"t_mapping(t_address,t_bool)": {
						"encoding": "mapping",
						"key": "t_address",
						"label": "mapping(address => bool)",
						"numberOfBytes": "32",
						"value": "t_bool"
					},
					"t_mapping(t_uint256,t_bool)": {
						"encoding": "mapping",
						"key": "t_uint256",
						"label": "mapping(uint256 => bool)",
						"numberOfBytes": "32",
						"value": "t_bool"
					},
					"t_mapping(t_uint256,t_bytes_storage)": {
						"encoding": "mapping",
						"key": "t_uint256",
						"label": "mapping(uint256 => bytes)",
						"numberOfBytes": "32",
						"value": "t_bytes_storage"
					},
					"t_mapping(t_uint256,t_struct(AICallbackRequestData)252_storage)": {
						"encoding": "mapping",
						"key": "t_uint256",
						"label": "mapping(uint256 => struct MockAIOracle.AICallbackRequestData)",
						"numberOfBytes": "32",
						"value": "t_struct(AICallbackRequestData)252_storage"
					},
					"t_mapping(t_uint256,t_struct(ModelData)274_storage)": {
						"encoding": "mapping",
						"key": "t_uint256",
						"label": "mapping(uint256 => struct MockAIOracle.ModelData)",
						"numberOfBytes": "32",
						"value": "t_struct(ModelData)274_storage"
					},
					"t_struct(AICallbackRequestData)252_storage": {
						"encoding": "inplace",
						"label": "struct MockAIOracle.AICallbackRequestData",
						"members": [
							{
								"astId": 239,
								"contract": "contracts/mocks/MockAIOracle.sol:MockAIOracle",
								"label": "account",
								"offset": 0,
								"slot": "0",
								"type": "t_address"
							},
							{
								"astId": 241,
								"contract": "contracts/mocks/MockAIOracle.sol:MockAIOracle",
								"label": "requestId",
								"offset": 0,
								"slot": "1",
								"type": "t_uint256"
							},
							{
								"astId": 243,
								"contract": "contracts/mocks/MockAIOracle.sol:MockAIOracle",
								"label": "modelId",
								"offset": 0,
								"slot": "2",
								"type": "t_uint256"
							},
							{
								"astId": 245,
								"contract": "contracts/mocks/MockAIOracle.sol:MockAIOracle",
								"label": "input",
								"offset": 0,
								"slot": "3",
								"type": "t_bytes_storage"
							},
							{
								"astId": 247,
								"contract": "contracts/mocks/MockAIOracle.sol:MockAIOracle",
								"label": "callbackContract",
								"offset": 0,
								"slot": "4",
								"type": "t_address"
							},
							{
								"astId": 249,
								"contract": "contracts/mocks/MockAIOracle.sol:MockAIOracle",
								"label": "gasLimit",
								"offset": 20,
								"slot": "4",
								"type": "t_uint64"
							},
							{
								"astId": 251,
								"contract": "contracts/mocks/MockAIOracle.sol:MockAIOracle",
								"label": "callbackData",
								"offset": 0,
								"slot": "5",
								"type": "t_bytes_storage"
							}
						],
						"numberOfBytes": "192"
					},
					"t_struct(ModelData)274_storage": {
						"encoding": "inplace",
						"label": "struct MockAIOracle.ModelData",
						"members": [
							{
								"astId": 263,
								"contract": "contracts/mocks/MockAIOracle.sol:MockAIOracle",
								"label": "modelHash",
								"offset": 0,
								"slot": "0",
								"type": "t_bytes32"
							},
							{
								"astId": 265,
								"contract": "contracts/mocks/MockAIOracle.sol:MockAIOracle",
								"label": "programHash",
								"offset": 0,
								"slot": "1",
								"type": "t_bytes32"
							},
							{
								"astId": 267,
								"contract": "contracts/mocks/MockAIOracle.sol:MockAIOracle",
								"label": "fee",
								"offset": 0,
								"slot": "2",
								"type": "t_uint256"
							},
							{
								"astId": 269,
								"contract": "contracts/mocks/MockAIOracle.sol:MockAIOracle",
								"label": "receiver",
								"offset": 0,
								"slot": "3",
								"type": "t_address"
							},
							{
								"astId": 271,
								"contract": "contracts/mocks/MockAIOracle.sol:MockAIOracle",
								"label": "receiverPercentage",
								"offset": 0,
								"slot": "4",
								"type": "t_uint256"
							},
							{
								"astId": 273,
								"contract": "contracts/mocks/MockAIOracle.sol:MockAIOracle",
								"label": "accumulateRevenue",
								"offset": 0,
								"slot": "5",
								"type": "t_uint256"
							}
						],
						"numberOfBytes": "192"
					},
					"t_uint256": {
						"encoding": "inplace",
						"label": "uint256",
						"numberOfBytes": "32"
					},
					"t_uint64": {
						"encoding": "inplace",
						"label": "uint64",
						"numberOfBytes": "8"
					}
				}
			},
			"userdoc": {
				"events": {
					"AICallbackRequest(address,uint256,uint256,bytes,address,uint64,bytes)": {
						"notice": "Event emitted upon receiving a callback request through requestCallback."
					},
					"AICallbackResult(address,uint256,address,bytes)": {
						"notice": "Event emitted when the result is uploaded or update."
					}
				},
				"kind": "user",
				"methods": {
					"requestCallback(uint256,bytes,address,uint64,bytes)": {
						"notice": "initiate a request in OAO"
					}
				},
				"version": 1
			}
		}
	}
}