{
	"contracts/verifier.sol": {
		"Verifier": {
			"abi": [
				{
					"inputs": [
						{
							"components": [
								{
									"components": [
										{
											"internalType": "uint256",
											"name": "X",
											"type": "uint256"
										},
										{
											"internalType": "uint256",
											"name": "Y",
											"type": "uint256"
										}
									],
									"internalType": "struct Pairing.G1Point",
									"name": "a",
									"type": "tuple"
								},
								{
									"components": [
										{
											"internalType": "uint256[2]",
											"name": "X",
											"type": "uint256[2]"
										},
										{
											"internalType": "uint256[2]",
											"name": "Y",
											"type": "uint256[2]"
										}
									],
									"internalType": "struct Pairing.G2Point",
									"name": "b",
									"type": "tuple"
								},
								{
									"components": [
										{
											"internalType": "uint256",
											"name": "X",
											"type": "uint256"
										},
										{
											"internalType": "uint256",
											"name": "Y",
											"type": "uint256"
										}
									],
									"internalType": "struct Pairing.G1Point",
									"name": "c",
									"type": "tuple"
								}
							],
							"internalType": "struct Verifier.Proof",
							"name": "proof",
							"type": "tuple"
						},
						{
							"internalType": "uint256[5]",
							"name": "input",
							"type": "uint256[5]"
						}
					],
					"name": "verifyTx",
					"outputs": [
						{
							"internalType": "bool",
							"name": "r",
							"type": "bool"
						}
					],
					"stateMutability": "view",
					"type": "function"
				}
			],
			"devdoc": {
				"kind": "dev",
				"methods": {},
				"version": 1
			},
			"evm": {
				"assembly": "    /* \"contracts/verifier.sol\":6234:10456  contract Verifier {... */\n  mstore(0x40, 0x80)\n  callvalue\n  dup1\n  iszero\n  tag_1\n  jumpi\n  0x00\n  dup1\n  revert\ntag_1:\n  pop\n  dataSize(sub_0)\n  dup1\n  dataOffset(sub_0)\n  0x00\n  codecopy\n  0x00\n  return\nstop\n\nsub_0: assembly {\n        /* \"contracts/verifier.sol\":6234:10456  contract Verifier {... */\n      mstore(0x40, 0x80)\n      callvalue\n      dup1\n      iszero\n      tag_1\n      jumpi\n      0x00\n      dup1\n      revert\n    tag_1:\n      pop\n      jumpi(tag_2, lt(calldatasize, 0x04))\n      shr(0xe0, calldataload(0x00))\n      dup1\n      0xbcb99886\n      eq\n      tag_3\n      jumpi\n    tag_2:\n      0x00\n      dup1\n      revert\n        /* \"contracts/verifier.sol\":10054:10454  function verifyTx(... */\n    tag_3:\n      tag_4\n      0x04\n      dup1\n      calldatasize\n      sub\n      dup2\n      add\n      swap1\n      tag_5\n      swap2\n      swap1\n      tag_6\n      jump\t// in\n    tag_5:\n      tag_7\n      jump\t// in\n    tag_4:\n      mload(0x40)\n      tag_8\n      swap2\n      swap1\n      tag_9\n      jump\t// in\n    tag_8:\n      mload(0x40)\n      dup1\n      swap2\n      sub\n      swap1\n      return\n    tag_7:\n        /* \"contracts/verifier.sol\":10157:10163  bool r */\n      0x00\n        /* \"contracts/verifier.sol\":10175:10200  uint[] memory inputValues */\n      dup1\n        /* \"contracts/verifier.sol\":10214:10215  5 */\n      0x05\n        /* \"contracts/verifier.sol\":10203:10216  new uint[](5) */\n      0xffffffffffffffff\n      dup2\n      gt\n      iszero\n      tag_11\n      jumpi\n      tag_12\n      tag_13\n      jump\t// in\n    tag_12:\n    tag_11:\n      mload(0x40)\n      swap1\n      dup1\n      dup3\n      mstore\n      dup1\n      0x20\n      mul\n      0x20\n      add\n      dup3\n      add\n      0x40\n      mstore\n      dup1\n      iszero\n      tag_14\n      jumpi\n      dup2\n      0x20\n      add\n      0x20\n      dup3\n      mul\n      dup1\n      calldatasize\n      dup4\n      calldatacopy\n      dup1\n      dup3\n      add\n      swap2\n      pop\n      pop\n      swap1\n      pop\n    tag_14:\n      pop\n        /* \"contracts/verifier.sol\":10175:10216  uint[] memory inputValues = new uint[](5) */\n      swap1\n      pop\n        /* \"contracts/verifier.sol\":10239:10245  uint i */\n      0x00\n        /* \"contracts/verifier.sol\":10235:10323  for(uint i = 0; i < input.length; i++){... */\n    tag_15:\n        /* \"contracts/verifier.sol\":10255:10267  input.length */\n      0x05\n        /* \"contracts/verifier.sol\":10251:10252  i */\n      dup2\n        /* \"contracts/verifier.sol\":10251:10267  i < input.length */\n      lt\n        /* \"contracts/verifier.sol\":10235:10323  for(uint i = 0; i < input.length; i++){... */\n      iszero\n      tag_16\n      jumpi\n        /* \"contracts/verifier.sol\":10304:10309  input */\n      dup4\n        /* \"contracts/verifier.sol\":10310:10311  i */\n      dup2\n        /* \"contracts/verifier.sol\":10304:10312  input[i] */\n      0x05\n      dup2\n      lt\n      tag_18\n      jumpi\n      tag_19\n      tag_20\n      jump\t// in\n    tag_19:\n    tag_18:\n      0x20\n      mul\n      add\n      mload\n        /* \"contracts/verifier.sol\":10287:10298  inputValues */\n      dup3\n        /* \"contracts/verifier.sol\":10299:10300  i */\n      dup3\n        /* \"contracts/verifier.sol\":10287:10301  inputValues[i] */\n      dup2\n      mload\n      dup2\n      lt\n      tag_21\n      jumpi\n      tag_22\n      tag_20\n      jump\t// in\n    tag_22:\n    tag_21:\n      0x20\n      mul\n      0x20\n      add\n      add\n        /* \"contracts/verifier.sol\":10287:10312  inputValues[i] = input[i] */\n      dup2\n      dup2\n      mstore\n      pop\n      pop\n        /* \"contracts/verifier.sol\":10269:10272  i++ */\n      dup1\n      dup1\n      0x01\n      add\n      swap2\n      pop\n      pop\n        /* \"contracts/verifier.sol\":10235:10323  for(uint i = 0; i < input.length; i++){... */\n      jump(tag_15)\n    tag_16:\n      pop\n        /* \"contracts/verifier.sol\":10366:10367  0 */\n      0x00\n        /* \"contracts/verifier.sol\":10336:10362  verify(inputValues, proof) */\n      tag_23\n        /* \"contracts/verifier.sol\":10343:10354  inputValues */\n      dup3\n        /* \"contracts/verifier.sol\":10356:10361  proof */\n      dup7\n        /* \"contracts/verifier.sol\":10336:10342  verify */\n      tag_24\n        /* \"contracts/verifier.sol\":10336:10362  verify(inputValues, proof) */\n      jump\t// in\n    tag_23:\n        /* \"contracts/verifier.sol\":10336:10367  verify(inputValues, proof) == 0 */\n      sub\n        /* \"contracts/verifier.sol\":10332:10448  if (verify(inputValues, proof) == 0) {... */\n      tag_25\n      jumpi\n        /* \"contracts/verifier.sol\":10390:10394  true */\n      0x01\n        /* \"contracts/verifier.sol\":10383:10394  return true */\n      swap2\n      pop\n      pop\n      jump(tag_10)\n        /* \"contracts/verifier.sol\":10332:10448  if (verify(inputValues, proof) == 0) {... */\n    tag_25:\n        /* \"contracts/verifier.sol\":10432:10437  false */\n      0x00\n        /* \"contracts/verifier.sol\":10425:10437  return false */\n      swap2\n      pop\n      pop\n        /* \"contracts/verifier.sol\":10054:10454  function verifyTx(... */\n    tag_10:\n      swap3\n      swap2\n      pop\n      pop\n      jump\t// out\n        /* \"contracts/verifier.sol\":9128:10049  function verify(uint[] memory input, Proof memory proof) internal view returns (uint) {... */\n    tag_24:\n        /* \"contracts/verifier.sol\":9208:9212  uint */\n      0x00\n        /* \"contracts/verifier.sol\":9224:9250  uint256 snark_scalar_field */\n      dup1\n        /* \"contracts/verifier.sol\":9253:9330  21888242871839275222246405745257275088548364400416034343698204186575808495617 */\n      0x30644e72e131a029b85045b68181585d2833e84879b9709143e1f593f0000001\n        /* \"contracts/verifier.sol\":9224:9330  uint256 snark_scalar_field = 21888242871839275222246405745257275088548364400416034343698204186575808495617 */\n      swap1\n      pop\n        /* \"contracts/verifier.sol\":9340:9362  VerifyingKey memory vk */\n      0x00\n        /* \"contracts/verifier.sol\":9365:9379  verifyingKey() */\n      tag_28\n        /* \"contracts/verifier.sol\":9365:9377  verifyingKey */\n      tag_29\n        /* \"contracts/verifier.sol\":9365:9379  verifyingKey() */\n      jump\t// in\n    tag_28:\n        /* \"contracts/verifier.sol\":9340:9379  VerifyingKey memory vk = verifyingKey() */\n      swap1\n      pop\n        /* \"contracts/verifier.sol\":9417:9419  vk */\n      dup1\n        /* \"contracts/verifier.sol\":9417:9429  vk.gamma_abc */\n      0x80\n      add\n      mload\n        /* \"contracts/verifier.sol\":9417:9436  vk.gamma_abc.length */\n      mload\n        /* \"contracts/verifier.sol\":9412:9413  1 */\n      0x01\n        /* \"contracts/verifier.sol\":9397:9402  input */\n      dup7\n        /* \"contracts/verifier.sol\":9397:9409  input.length */\n      mload\n        /* \"contracts/verifier.sol\":9397:9413  input.length + 1 */\n      tag_30\n      swap2\n      swap1\n      tag_31\n      jump\t// in\n    tag_30:\n        /* \"contracts/verifier.sol\":9397:9436  input.length + 1 == vk.gamma_abc.length */\n      eq\n        /* \"contracts/verifier.sol\":9389:9437  require(input.length + 1 == vk.gamma_abc.length) */\n      tag_32\n      jumpi\n      0x00\n      dup1\n      revert\n    tag_32:\n        /* \"contracts/verifier.sol\":9494:9521  Pairing.G1Point memory vk_x */\n      0x00\n        /* \"contracts/verifier.sol\":9524:9545  Pairing.G1Point(0, 0) */\n      mload(0x40)\n      dup1\n      0x40\n      add\n      0x40\n      mstore\n      dup1\n        /* \"contracts/verifier.sol\":9540:9541  0 */\n      0x00\n        /* \"contracts/verifier.sol\":9524:9545  Pairing.G1Point(0, 0) */\n      dup2\n      mstore\n      0x20\n      add\n        /* \"contracts/verifier.sol\":9543:9544  0 */\n      0x00\n        /* \"contracts/verifier.sol\":9524:9545  Pairing.G1Point(0, 0) */\n      dup2\n      mstore\n      pop\n        /* \"contracts/verifier.sol\":9494:9545  Pairing.G1Point memory vk_x = Pairing.G1Point(0, 0) */\n      swap1\n      pop\n        /* \"contracts/verifier.sol\":9560:9566  uint i */\n      0x00\n        /* \"contracts/verifier.sol\":9555:9752  for (uint i = 0; i < input.length; i++) {... */\n    tag_33:\n        /* \"contracts/verifier.sol\":9576:9581  input */\n      dup7\n        /* \"contracts/verifier.sol\":9576:9588  input.length */\n      mload\n        /* \"contracts/verifier.sol\":9572:9573  i */\n      dup2\n        /* \"contracts/verifier.sol\":9572:9588  i < input.length */\n      lt\n        /* \"contracts/verifier.sol\":9555:9752  for (uint i = 0; i < input.length; i++) {... */\n      iszero\n      tag_34\n      jumpi\n        /* \"contracts/verifier.sol\":9628:9646  snark_scalar_field */\n      dup4\n        /* \"contracts/verifier.sol\":9617:9622  input */\n      dup8\n        /* \"contracts/verifier.sol\":9623:9624  i */\n      dup3\n        /* \"contracts/verifier.sol\":9617:9625  input[i] */\n      dup2\n      mload\n      dup2\n      lt\n      tag_36\n      jumpi\n      tag_37\n      tag_20\n      jump\t// in\n    tag_37:\n    tag_36:\n      0x20\n      mul\n      0x20\n      add\n      add\n      mload\n        /* \"contracts/verifier.sol\":9617:9646  input[i] < snark_scalar_field */\n      lt\n        /* \"contracts/verifier.sol\":9609:9647  require(input[i] < snark_scalar_field) */\n      tag_38\n      jumpi\n      0x00\n      dup1\n      revert\n    tag_38:\n        /* \"contracts/verifier.sol\":9668:9741  Pairing.addition(vk_x, Pairing.scalar_mul(vk.gamma_abc[i + 1], input[i])) */\n      tag_39\n        /* \"contracts/verifier.sol\":9685:9689  vk_x */\n      dup3\n        /* \"contracts/verifier.sol\":9691:9740  Pairing.scalar_mul(vk.gamma_abc[i + 1], input[i]) */\n      tag_40\n        /* \"contracts/verifier.sol\":9710:9712  vk */\n      dup6\n        /* \"contracts/verifier.sol\":9710:9722  vk.gamma_abc */\n      0x80\n      add\n      mload\n        /* \"contracts/verifier.sol\":9727:9728  1 */\n      0x01\n        /* \"contracts/verifier.sol\":9723:9724  i */\n      dup6\n        /* \"contracts/verifier.sol\":9723:9728  i + 1 */\n      tag_41\n      swap2\n      swap1\n      tag_31\n      jump\t// in\n    tag_41:\n        /* \"contracts/verifier.sol\":9710:9729  vk.gamma_abc[i + 1] */\n      dup2\n      mload\n      dup2\n      lt\n      tag_42\n      jumpi\n      tag_43\n      tag_20\n      jump\t// in\n    tag_43:\n    tag_42:\n      0x20\n      mul\n      0x20\n      add\n      add\n      mload\n        /* \"contracts/verifier.sol\":9731:9736  input */\n      dup11\n        /* \"contracts/verifier.sol\":9737:9738  i */\n      dup6\n        /* \"contracts/verifier.sol\":9731:9739  input[i] */\n      dup2\n      mload\n      dup2\n      lt\n      tag_44\n      jumpi\n      tag_45\n      tag_20\n      jump\t// in\n    tag_45:\n    tag_44:\n      0x20\n      mul\n      0x20\n      add\n      add\n      mload\n        /* \"contracts/verifier.sol\":9691:9709  Pairing.scalar_mul */\n      tag_46\n        /* \"contracts/verifier.sol\":9691:9740  Pairing.scalar_mul(vk.gamma_abc[i + 1], input[i]) */\n      jump\t// in\n    tag_40:\n        /* \"contracts/verifier.sol\":9668:9684  Pairing.addition */\n      tag_47\n        /* \"contracts/verifier.sol\":9668:9741  Pairing.addition(vk_x, Pairing.scalar_mul(vk.gamma_abc[i + 1], input[i])) */\n      jump\t// in\n    tag_39:\n        /* \"contracts/verifier.sol\":9661:9741  vk_x = Pairing.addition(vk_x, Pairing.scalar_mul(vk.gamma_abc[i + 1], input[i])) */\n      swap2\n      pop\n        /* \"contracts/verifier.sol\":9590:9593  i++ */\n      dup1\n      dup1\n      0x01\n      add\n      swap2\n      pop\n      pop\n        /* \"contracts/verifier.sol\":9555:9752  for (uint i = 0; i < input.length; i++) {... */\n      jump(tag_33)\n    tag_34:\n      pop\n        /* \"contracts/verifier.sol\":9768:9807  Pairing.addition(vk_x, vk.gamma_abc[0]) */\n      tag_48\n        /* \"contracts/verifier.sol\":9785:9789  vk_x */\n      dup2\n        /* \"contracts/verifier.sol\":9791:9793  vk */\n      dup4\n        /* \"contracts/verifier.sol\":9791:9803  vk.gamma_abc */\n      0x80\n      add\n      mload\n        /* \"contracts/verifier.sol\":9804:9805  0 */\n      0x00\n        /* \"contracts/verifier.sol\":9791:9806  vk.gamma_abc[0] */\n      dup2\n      mload\n      dup2\n      lt\n      tag_49\n      jumpi\n      tag_50\n      tag_20\n      jump\t// in\n    tag_50:\n    tag_49:\n      0x20\n      mul\n      0x20\n      add\n      add\n      mload\n        /* \"contracts/verifier.sol\":9768:9784  Pairing.addition */\n      tag_47\n        /* \"contracts/verifier.sol\":9768:9807  Pairing.addition(vk_x, vk.gamma_abc[0]) */\n      jump\t// in\n    tag_48:\n        /* \"contracts/verifier.sol\":9761:9807  vk_x = Pairing.addition(vk_x, vk.gamma_abc[0]) */\n      swap1\n      pop\n        /* \"contracts/verifier.sol\":9821:10014  Pairing.pairingProd4(... */\n      tag_51\n        /* \"contracts/verifier.sol\":9856:9861  proof */\n      dup6\n        /* \"contracts/verifier.sol\":9856:9863  proof.a */\n      0x00\n      add\n      mload\n        /* \"contracts/verifier.sol\":9865:9870  proof */\n      dup7\n        /* \"contracts/verifier.sol\":9865:9872  proof.b */\n      0x20\n      add\n      mload\n        /* \"contracts/verifier.sol\":9887:9907  Pairing.negate(vk_x) */\n      tag_52\n        /* \"contracts/verifier.sol\":9902:9906  vk_x */\n      dup5\n        /* \"contracts/verifier.sol\":9887:9901  Pairing.negate */\n      tag_53\n        /* \"contracts/verifier.sol\":9887:9907  Pairing.negate(vk_x) */\n      jump\t// in\n    tag_52:\n        /* \"contracts/verifier.sol\":9909:9911  vk */\n      dup6\n        /* \"contracts/verifier.sol\":9909:9917  vk.gamma */\n      0x40\n      add\n      mload\n        /* \"contracts/verifier.sol\":9932:9955  Pairing.negate(proof.c) */\n      tag_54\n        /* \"contracts/verifier.sol\":9947:9952  proof */\n      dup11\n        /* \"contracts/verifier.sol\":9947:9954  proof.c */\n      0x40\n      add\n      mload\n        /* \"contracts/verifier.sol\":9932:9946  Pairing.negate */\n      tag_53\n        /* \"contracts/verifier.sol\":9932:9955  Pairing.negate(proof.c) */\n      jump\t// in\n    tag_54:\n        /* \"contracts/verifier.sol\":9957:9959  vk */\n      dup8\n        /* \"contracts/verifier.sol\":9957:9965  vk.delta */\n      0x60\n      add\n      mload\n        /* \"contracts/verifier.sol\":9980:10004  Pairing.negate(vk.alpha) */\n      tag_55\n        /* \"contracts/verifier.sol\":9995:9997  vk */\n      dup10\n        /* \"contracts/verifier.sol\":9995:10003  vk.alpha */\n      0x00\n      add\n      mload\n        /* \"contracts/verifier.sol\":9980:9994  Pairing.negate */\n      tag_53\n        /* \"contracts/verifier.sol\":9980:10004  Pairing.negate(vk.alpha) */\n      jump\t// in\n    tag_55:\n        /* \"contracts/verifier.sol\":10006:10008  vk */\n      dup10\n        /* \"contracts/verifier.sol\":10006:10013  vk.beta */\n      0x20\n      add\n      mload\n        /* \"contracts/verifier.sol\":9821:9841  Pairing.pairingProd4 */\n      tag_56\n        /* \"contracts/verifier.sol\":9821:10014  Pairing.pairingProd4(... */\n      jump\t// in\n    tag_51:\n        /* \"contracts/verifier.sol\":9817:10024  if(!Pairing.pairingProd4(... */\n      tag_57\n      jumpi\n        /* \"contracts/verifier.sol\":10023:10024  1 */\n      0x01\n        /* \"contracts/verifier.sol\":10016:10024  return 1 */\n      swap4\n      pop\n      pop\n      pop\n      pop\n      jump(tag_27)\n        /* \"contracts/verifier.sol\":9817:10024  if(!Pairing.pairingProd4(... */\n    tag_57:\n        /* \"contracts/verifier.sol\":10041:10042  0 */\n      0x00\n        /* \"contracts/verifier.sol\":10034:10042  return 0 */\n      swap4\n      pop\n      pop\n      pop\n      pop\n        /* \"contracts/verifier.sol\":9128:10049  function verify(uint[] memory input, Proof memory proof) internal view returns (uint) {... */\n    tag_27:\n      swap3\n      swap2\n      pop\n      pop\n      jump\t// out\n        /* \"contracts/verifier.sol\":6581:9123  function verifyingKey() pure internal returns (VerifyingKey memory vk) {... */\n    tag_29:\n        /* \"contracts/verifier.sol\":6628:6650  VerifyingKey memory vk */\n      tag_58\n      tag_59\n      jump\t// in\n    tag_58:\n        /* \"contracts/verifier.sol\":6673:6842  Pairing.G1Point(uint256(0x02e4e342e09cc38aea0f5718187109ee6a693e1692746240d8067b196c9ab885), uint256(0x03c638f67c45fb557ff3f71cc8dcf72453f99c0d4a2798d493b74abe18338639)) */\n      mload(0x40)\n      dup1\n      0x40\n      add\n      0x40\n      mstore\n      dup1\n        /* \"contracts/verifier.sol\":6697:6763  0x02e4e342e09cc38aea0f5718187109ee6a693e1692746240d8067b196c9ab885 */\n      0x02e4e342e09cc38aea0f5718187109ee6a693e1692746240d8067b196c9ab885\n        /* \"contracts/verifier.sol\":6673:6842  Pairing.G1Point(uint256(0x02e4e342e09cc38aea0f5718187109ee6a693e1692746240d8067b196c9ab885), uint256(0x03c638f67c45fb557ff3f71cc8dcf72453f99c0d4a2798d493b74abe18338639)) */\n      dup2\n      mstore\n      0x20\n      add\n        /* \"contracts/verifier.sol\":6774:6840  0x03c638f67c45fb557ff3f71cc8dcf72453f99c0d4a2798d493b74abe18338639 */\n      0x03c638f67c45fb557ff3f71cc8dcf72453f99c0d4a2798d493b74abe18338639\n        /* \"contracts/verifier.sol\":6673:6842  Pairing.G1Point(uint256(0x02e4e342e09cc38aea0f5718187109ee6a693e1692746240d8067b196c9ab885), uint256(0x03c638f67c45fb557ff3f71cc8dcf72453f99c0d4a2798d493b74abe18338639)) */\n      dup2\n      mstore\n      pop\n        /* \"contracts/verifier.sol\":6662:6664  vk */\n      dup2\n        /* \"contracts/verifier.sol\":6662:6670  vk.alpha */\n      0x00\n      add\n        /* \"contracts/verifier.sol\":6662:6842  vk.alpha = Pairing.G1Point(uint256(0x02e4e342e09cc38aea0f5718187109ee6a693e1692746240d8067b196c9ab885), uint256(0x03c638f67c45fb557ff3f71cc8dcf72453f99c0d4a2798d493b74abe18338639)) */\n      dup2\n      swap1\n      mstore\n      pop\n        /* \"contracts/verifier.sol\":6862:7189  Pairing.G2Point([uint256(0x2ba2f1e535ae7e51b492963def6fa6c4738a45225ff6da59f9ca3555d5597ab6), uint256(0x14417ad1e990c4c9e7409cd36c6e407d8bb6c8a2f68874c94a36b4e8ac633b31)], [uint256(0x19928a8904f87693d2d2bd365716ea0c91dbeaa0372af2f81fb70fe83e49a4e5), uint256(0x11f564070e89eba8be4ad6d33b4d552e7bc8bf037844b9e8c7af2b7ecedccca2)]) */\n      mload(0x40)\n      dup1\n      0x40\n      add\n      0x40\n      mstore\n      dup1\n      mload(0x40)\n      dup1\n      0x40\n      add\n      0x40\n      mstore\n      dup1\n        /* \"contracts/verifier.sol\":6887:6953  0x2ba2f1e535ae7e51b492963def6fa6c4738a45225ff6da59f9ca3555d5597ab6 */\n      0x2ba2f1e535ae7e51b492963def6fa6c4738a45225ff6da59f9ca3555d5597ab6\n        /* \"contracts/verifier.sol\":6862:7189  Pairing.G2Point([uint256(0x2ba2f1e535ae7e51b492963def6fa6c4738a45225ff6da59f9ca3555d5597ab6), uint256(0x14417ad1e990c4c9e7409cd36c6e407d8bb6c8a2f68874c94a36b4e8ac633b31)], [uint256(0x19928a8904f87693d2d2bd365716ea0c91dbeaa0372af2f81fb70fe83e49a4e5), uint256(0x11f564070e89eba8be4ad6d33b4d552e7bc8bf037844b9e8c7af2b7ecedccca2)]) */\n      dup2\n      mstore\n      0x20\n      add\n        /* \"contracts/verifier.sol\":6964:7030  0x14417ad1e990c4c9e7409cd36c6e407d8bb6c8a2f68874c94a36b4e8ac633b31 */\n      0x14417ad1e990c4c9e7409cd36c6e407d8bb6c8a2f68874c94a36b4e8ac633b31\n        /* \"contracts/verifier.sol\":6862:7189  Pairing.G2Point([uint256(0x2ba2f1e535ae7e51b492963def6fa6c4738a45225ff6da59f9ca3555d5597ab6), uint256(0x14417ad1e990c4c9e7409cd36c6e407d8bb6c8a2f68874c94a36b4e8ac633b31)], [uint256(0x19928a8904f87693d2d2bd365716ea0c91dbeaa0372af2f81fb70fe83e49a4e5), uint256(0x11f564070e89eba8be4ad6d33b4d552e7bc8bf037844b9e8c7af2b7ecedccca2)]) */\n      dup2\n      mstore\n      pop\n      dup2\n      mstore\n      0x20\n      add\n      mload(0x40)\n      dup1\n      0x40\n      add\n      0x40\n      mstore\n      dup1\n        /* \"contracts/verifier.sol\":7043:7109  0x19928a8904f87693d2d2bd365716ea0c91dbeaa0372af2f81fb70fe83e49a4e5 */\n      0x19928a8904f87693d2d2bd365716ea0c91dbeaa0372af2f81fb70fe83e49a4e5\n        /* \"contracts/verifier.sol\":6862:7189  Pairing.G2Point([uint256(0x2ba2f1e535ae7e51b492963def6fa6c4738a45225ff6da59f9ca3555d5597ab6), uint256(0x14417ad1e990c4c9e7409cd36c6e407d8bb6c8a2f68874c94a36b4e8ac633b31)], [uint256(0x19928a8904f87693d2d2bd365716ea0c91dbeaa0372af2f81fb70fe83e49a4e5), uint256(0x11f564070e89eba8be4ad6d33b4d552e7bc8bf037844b9e8c7af2b7ecedccca2)]) */\n      dup2\n      mstore\n      0x20\n      add\n        /* \"contracts/verifier.sol\":7120:7186  0x11f564070e89eba8be4ad6d33b4d552e7bc8bf037844b9e8c7af2b7ecedccca2 */\n      0x11f564070e89eba8be4ad6d33b4d552e7bc8bf037844b9e8c7af2b7ecedccca2\n        /* \"contracts/verifier.sol\":6862:7189  Pairing.G2Point([uint256(0x2ba2f1e535ae7e51b492963def6fa6c4738a45225ff6da59f9ca3555d5597ab6), uint256(0x14417ad1e990c4c9e7409cd36c6e407d8bb6c8a2f68874c94a36b4e8ac633b31)], [uint256(0x19928a8904f87693d2d2bd365716ea0c91dbeaa0372af2f81fb70fe83e49a4e5), uint256(0x11f564070e89eba8be4ad6d33b4d552e7bc8bf037844b9e8c7af2b7ecedccca2)]) */\n      dup2\n      mstore\n      pop\n      dup2\n      mstore\n      pop\n        /* \"contracts/verifier.sol\":6852:6854  vk */\n      dup2\n        /* \"contracts/verifier.sol\":6852:6859  vk.beta */\n      0x20\n      add\n        /* \"contracts/verifier.sol\":6852:7189  vk.beta = Pairing.G2Point([uint256(0x2ba2f1e535ae7e51b492963def6fa6c4738a45225ff6da59f9ca3555d5597ab6), uint256(0x14417ad1e990c4c9e7409cd36c6e407d8bb6c8a2f68874c94a36b4e8ac633b31)], [uint256(0x19928a8904f87693d2d2bd365716ea0c91dbeaa0372af2f81fb70fe83e49a4e5), uint256(0x11f564070e89eba8be4ad6d33b4d552e7bc8bf037844b9e8c7af2b7ecedccca2)]) */\n      dup2\n      swap1\n      mstore\n      pop\n        /* \"contracts/verifier.sol\":7210:7537  Pairing.G2Point([uint256(0x0d804e6d1f1762cb46759150697eb53e52a834955768a4d45b68e05c90587c5f), uint256(0x0dc13c8c5866f242f0b7a647efcc1c5f6d879eae30506c5ad0eecd626d23aad3)], [uint256(0x08c66f6f5f3c534b3e1a9d8ce2ecd4487ff95326411961f1e6452ebd0b7c791a), uint256(0x00cde05a84f2e5d78e1842f70e7b0cb96ef779095a45868334e2464e96cb3f26)]) */\n      mload(0x40)\n      dup1\n      0x40\n      add\n      0x40\n      mstore\n      dup1\n      mload(0x40)\n      dup1\n      0x40\n      add\n      0x40\n      mstore\n      dup1\n        /* \"contracts/verifier.sol\":7235:7301  0x0d804e6d1f1762cb46759150697eb53e52a834955768a4d45b68e05c90587c5f */\n      0x0d804e6d1f1762cb46759150697eb53e52a834955768a4d45b68e05c90587c5f\n        /* \"contracts/verifier.sol\":7210:7537  Pairing.G2Point([uint256(0x0d804e6d1f1762cb46759150697eb53e52a834955768a4d45b68e05c90587c5f), uint256(0x0dc13c8c5866f242f0b7a647efcc1c5f6d879eae30506c5ad0eecd626d23aad3)], [uint256(0x08c66f6f5f3c534b3e1a9d8ce2ecd4487ff95326411961f1e6452ebd0b7c791a), uint256(0x00cde05a84f2e5d78e1842f70e7b0cb96ef779095a45868334e2464e96cb3f26)]) */\n      dup2\n      mstore\n      0x20\n      add\n        /* \"contracts/verifier.sol\":7312:7378  0x0dc13c8c5866f242f0b7a647efcc1c5f6d879eae30506c5ad0eecd626d23aad3 */\n      0x0dc13c8c5866f242f0b7a647efcc1c5f6d879eae30506c5ad0eecd626d23aad3\n        /* \"contracts/verifier.sol\":7210:7537  Pairing.G2Point([uint256(0x0d804e6d1f1762cb46759150697eb53e52a834955768a4d45b68e05c90587c5f), uint256(0x0dc13c8c5866f242f0b7a647efcc1c5f6d879eae30506c5ad0eecd626d23aad3)], [uint256(0x08c66f6f5f3c534b3e1a9d8ce2ecd4487ff95326411961f1e6452ebd0b7c791a), uint256(0x00cde05a84f2e5d78e1842f70e7b0cb96ef779095a45868334e2464e96cb3f26)]) */\n      dup2\n      mstore\n      pop\n      dup2\n      mstore\n      0x20\n      add\n      mload(0x40)\n      dup1\n      0x40\n      add\n      0x40\n      mstore\n      dup1\n        /* \"contracts/verifier.sol\":7391:7457  0x08c66f6f5f3c534b3e1a9d8ce2ecd4487ff95326411961f1e6452ebd0b7c791a */\n      0x08c66f6f5f3c534b3e1a9d8ce2ecd4487ff95326411961f1e6452ebd0b7c791a\n        /* \"contracts/verifier.sol\":7210:7537  Pairing.G2Point([uint256(0x0d804e6d1f1762cb46759150697eb53e52a834955768a4d45b68e05c90587c5f), uint256(0x0dc13c8c5866f242f0b7a647efcc1c5f6d879eae30506c5ad0eecd626d23aad3)], [uint256(0x08c66f6f5f3c534b3e1a9d8ce2ecd4487ff95326411961f1e6452ebd0b7c791a), uint256(0x00cde05a84f2e5d78e1842f70e7b0cb96ef779095a45868334e2464e96cb3f26)]) */\n      dup2\n      mstore\n      0x20\n      add\n        /* \"contracts/verifier.sol\":7468:7534  0x00cde05a84f2e5d78e1842f70e7b0cb96ef779095a45868334e2464e96cb3f26 */\n      0xcde05a84f2e5d78e1842f70e7b0cb96ef779095a45868334e2464e96cb3f26\n        /* \"contracts/verifier.sol\":7210:7537  Pairing.G2Point([uint256(0x0d804e6d1f1762cb46759150697eb53e52a834955768a4d45b68e05c90587c5f), uint256(0x0dc13c8c5866f242f0b7a647efcc1c5f6d879eae30506c5ad0eecd626d23aad3)], [uint256(0x08c66f6f5f3c534b3e1a9d8ce2ecd4487ff95326411961f1e6452ebd0b7c791a), uint256(0x00cde05a84f2e5d78e1842f70e7b0cb96ef779095a45868334e2464e96cb3f26)]) */\n      dup2\n      mstore\n      pop\n      dup2\n      mstore\n      pop\n        /* \"contracts/verifier.sol\":7199:7201  vk */\n      dup2\n        /* \"contracts/verifier.sol\":7199:7207  vk.gamma */\n      0x40\n      add\n        /* \"contracts/verifier.sol\":7199:7537  vk.gamma = Pairing.G2Point([uint256(0x0d804e6d1f1762cb46759150697eb53e52a834955768a4d45b68e05c90587c5f), uint256(0x0dc13c8c5866f242f0b7a647efcc1c5f6d879eae30506c5ad0eecd626d23aad3)], [uint256(0x08c66f6f5f3c534b3e1a9d8ce2ecd4487ff95326411961f1e6452ebd0b7c791a), uint256(0x00cde05a84f2e5d78e1842f70e7b0cb96ef779095a45868334e2464e96cb3f26)]) */\n      dup2\n      swap1\n      mstore\n      pop\n        /* \"contracts/verifier.sol\":7558:7885  Pairing.G2Point([uint256(0x2a16f67937b4b8e82faaa42288bac1efc6bc0add48c3e7c5fae8464f67bbe090), uint256(0x24b37c5a0a88be3189e6a10511d055059da535814b410845f844c29d14fb353a)], [uint256(0x2953406a63ac0b96f4f4b84abb6bd47b8a132631731e1c70e778b4baac67f086), uint256(0x03f07238dcf2398796b73e92b6898bb99d13b5619881e78b719bfd74ed2556c2)]) */\n      mload(0x40)\n      dup1\n      0x40\n      add\n      0x40\n      mstore\n      dup1\n      mload(0x40)\n      dup1\n      0x40\n      add\n      0x40\n      mstore\n      dup1\n        /* \"contracts/verifier.sol\":7583:7649  0x2a16f67937b4b8e82faaa42288bac1efc6bc0add48c3e7c5fae8464f67bbe090 */\n      0x2a16f67937b4b8e82faaa42288bac1efc6bc0add48c3e7c5fae8464f67bbe090\n        /* \"contracts/verifier.sol\":7558:7885  Pairing.G2Point([uint256(0x2a16f67937b4b8e82faaa42288bac1efc6bc0add48c3e7c5fae8464f67bbe090), uint256(0x24b37c5a0a88be3189e6a10511d055059da535814b410845f844c29d14fb353a)], [uint256(0x2953406a63ac0b96f4f4b84abb6bd47b8a132631731e1c70e778b4baac67f086), uint256(0x03f07238dcf2398796b73e92b6898bb99d13b5619881e78b719bfd74ed2556c2)]) */\n      dup2\n      mstore\n      0x20\n      add\n        /* \"contracts/verifier.sol\":7660:7726  0x24b37c5a0a88be3189e6a10511d055059da535814b410845f844c29d14fb353a */\n      0x24b37c5a0a88be3189e6a10511d055059da535814b410845f844c29d14fb353a\n        /* \"contracts/verifier.sol\":7558:7885  Pairing.G2Point([uint256(0x2a16f67937b4b8e82faaa42288bac1efc6bc0add48c3e7c5fae8464f67bbe090), uint256(0x24b37c5a0a88be3189e6a10511d055059da535814b410845f844c29d14fb353a)], [uint256(0x2953406a63ac0b96f4f4b84abb6bd47b8a132631731e1c70e778b4baac67f086), uint256(0x03f07238dcf2398796b73e92b6898bb99d13b5619881e78b719bfd74ed2556c2)]) */\n      dup2\n      mstore\n      pop\n      dup2\n      mstore\n      0x20\n      add\n      mload(0x40)\n      dup1\n      0x40\n      add\n      0x40\n      mstore\n      dup1\n        /* \"contracts/verifier.sol\":7739:7805  0x2953406a63ac0b96f4f4b84abb6bd47b8a132631731e1c70e778b4baac67f086 */\n      0x2953406a63ac0b96f4f4b84abb6bd47b8a132631731e1c70e778b4baac67f086\n        /* \"contracts/verifier.sol\":7558:7885  Pairing.G2Point([uint256(0x2a16f67937b4b8e82faaa42288bac1efc6bc0add48c3e7c5fae8464f67bbe090), uint256(0x24b37c5a0a88be3189e6a10511d055059da535814b410845f844c29d14fb353a)], [uint256(0x2953406a63ac0b96f4f4b84abb6bd47b8a132631731e1c70e778b4baac67f086), uint256(0x03f07238dcf2398796b73e92b6898bb99d13b5619881e78b719bfd74ed2556c2)]) */\n      dup2\n      mstore\n      0x20\n      add\n        /* \"contracts/verifier.sol\":7816:7882  0x03f07238dcf2398796b73e92b6898bb99d13b5619881e78b719bfd74ed2556c2 */\n      0x03f07238dcf2398796b73e92b6898bb99d13b5619881e78b719bfd74ed2556c2\n        /* \"contracts/verifier.sol\":7558:7885  Pairing.G2Point([uint256(0x2a16f67937b4b8e82faaa42288bac1efc6bc0add48c3e7c5fae8464f67bbe090), uint256(0x24b37c5a0a88be3189e6a10511d055059da535814b410845f844c29d14fb353a)], [uint256(0x2953406a63ac0b96f4f4b84abb6bd47b8a132631731e1c70e778b4baac67f086), uint256(0x03f07238dcf2398796b73e92b6898bb99d13b5619881e78b719bfd74ed2556c2)]) */\n      dup2\n      mstore\n      pop\n      dup2\n      mstore\n      pop\n        /* \"contracts/verifier.sol\":7547:7549  vk */\n      dup2\n        /* \"contracts/verifier.sol\":7547:7555  vk.delta */\n      0x60\n      add\n        /* \"contracts/verifier.sol\":7547:7885  vk.delta = Pairing.G2Point([uint256(0x2a16f67937b4b8e82faaa42288bac1efc6bc0add48c3e7c5fae8464f67bbe090), uint256(0x24b37c5a0a88be3189e6a10511d055059da535814b410845f844c29d14fb353a)], [uint256(0x2953406a63ac0b96f4f4b84abb6bd47b8a132631731e1c70e778b4baac67f086), uint256(0x03f07238dcf2398796b73e92b6898bb99d13b5619881e78b719bfd74ed2556c2)]) */\n      dup2\n      swap1\n      mstore\n      pop\n        /* \"contracts/verifier.sol\":7932:7933  6 */\n      0x06\n        /* \"contracts/verifier.sol\":7910:7934  new Pairing.G1Point[](6) */\n      0xffffffffffffffff\n      dup2\n      gt\n      iszero\n      tag_61\n      jumpi\n      tag_62\n      tag_13\n      jump\t// in\n    tag_62:\n    tag_61:\n      mload(0x40)\n      swap1\n      dup1\n      dup3\n      mstore\n      dup1\n      0x20\n      mul\n      0x20\n      add\n      dup3\n      add\n      0x40\n      mstore\n      dup1\n      iszero\n      tag_63\n      jumpi\n      dup2\n      0x20\n      add\n    tag_64:\n      tag_65\n      tag_66\n      jump\t// in\n    tag_65:\n      dup2\n      mstore\n      0x20\n      add\n      swap1\n      0x01\n      swap1\n      sub\n      swap1\n      dup2\n      tag_64\n      jumpi\n      swap1\n      pop\n    tag_63:\n      pop\n        /* \"contracts/verifier.sol\":7895:7897  vk */\n      dup2\n        /* \"contracts/verifier.sol\":7895:7907  vk.gamma_abc */\n      0x80\n      add\n        /* \"contracts/verifier.sol\":7895:7934  vk.gamma_abc = new Pairing.G1Point[](6) */\n      dup2\n      swap1\n      mstore\n      pop\n        /* \"contracts/verifier.sol\":7962:8131  Pairing.G1Point(uint256(0x2452a2328a0fca42ecb2a6f6d9b61576a910388349addc48198edf54ebad7a33), uint256(0x2454cb7daa4e6c00799d8117accb5039dfcacdffd4191d61eb4cc2ff410f4e3a)) */\n      mload(0x40)\n      dup1\n      0x40\n      add\n      0x40\n      mstore\n      dup1\n        /* \"contracts/verifier.sol\":7986:8052  0x2452a2328a0fca42ecb2a6f6d9b61576a910388349addc48198edf54ebad7a33 */\n      0x2452a2328a0fca42ecb2a6f6d9b61576a910388349addc48198edf54ebad7a33\n        /* \"contracts/verifier.sol\":7962:8131  Pairing.G1Point(uint256(0x2452a2328a0fca42ecb2a6f6d9b61576a910388349addc48198edf54ebad7a33), uint256(0x2454cb7daa4e6c00799d8117accb5039dfcacdffd4191d61eb4cc2ff410f4e3a)) */\n      dup2\n      mstore\n      0x20\n      add\n        /* \"contracts/verifier.sol\":8063:8129  0x2454cb7daa4e6c00799d8117accb5039dfcacdffd4191d61eb4cc2ff410f4e3a */\n      0x2454cb7daa4e6c00799d8117accb5039dfcacdffd4191d61eb4cc2ff410f4e3a\n        /* \"contracts/verifier.sol\":7962:8131  Pairing.G1Point(uint256(0x2452a2328a0fca42ecb2a6f6d9b61576a910388349addc48198edf54ebad7a33), uint256(0x2454cb7daa4e6c00799d8117accb5039dfcacdffd4191d61eb4cc2ff410f4e3a)) */\n      dup2\n      mstore\n      pop\n        /* \"contracts/verifier.sol\":7944:7946  vk */\n      dup2\n        /* \"contracts/verifier.sol\":7944:7956  vk.gamma_abc */\n      0x80\n      add\n      mload\n        /* \"contracts/verifier.sol\":7957:7958  0 */\n      0x00\n        /* \"contracts/verifier.sol\":7944:7959  vk.gamma_abc[0] */\n      dup2\n      mload\n      dup2\n      lt\n      tag_67\n      jumpi\n      tag_68\n      tag_20\n      jump\t// in\n    tag_68:\n    tag_67:\n      0x20\n      mul\n      0x20\n      add\n      add\n        /* \"contracts/verifier.sol\":7944:8131  vk.gamma_abc[0] = Pairing.G1Point(uint256(0x2452a2328a0fca42ecb2a6f6d9b61576a910388349addc48198edf54ebad7a33), uint256(0x2454cb7daa4e6c00799d8117accb5039dfcacdffd4191d61eb4cc2ff410f4e3a)) */\n      dup2\n      swap1\n      mstore\n      pop\n        /* \"contracts/verifier.sol\":8159:8328  Pairing.G1Point(uint256(0x2679b135d62055ab41a37c90c4155ffc349954780ab5e947f8e235c08917980c), uint256(0x23ef3a05c85d47d61c90386632c108cab613fc6dfe7faca9abdcda9e4ec32ffc)) */\n      mload(0x40)\n      dup1\n      0x40\n      add\n      0x40\n      mstore\n      dup1\n        /* \"contracts/verifier.sol\":8183:8249  0x2679b135d62055ab41a37c90c4155ffc349954780ab5e947f8e235c08917980c */\n      0x2679b135d62055ab41a37c90c4155ffc349954780ab5e947f8e235c08917980c\n        /* \"contracts/verifier.sol\":8159:8328  Pairing.G1Point(uint256(0x2679b135d62055ab41a37c90c4155ffc349954780ab5e947f8e235c08917980c), uint256(0x23ef3a05c85d47d61c90386632c108cab613fc6dfe7faca9abdcda9e4ec32ffc)) */\n      dup2\n      mstore\n      0x20\n      add\n        /* \"contracts/verifier.sol\":8260:8326  0x23ef3a05c85d47d61c90386632c108cab613fc6dfe7faca9abdcda9e4ec32ffc */\n      0x23ef3a05c85d47d61c90386632c108cab613fc6dfe7faca9abdcda9e4ec32ffc\n        /* \"contracts/verifier.sol\":8159:8328  Pairing.G1Point(uint256(0x2679b135d62055ab41a37c90c4155ffc349954780ab5e947f8e235c08917980c), uint256(0x23ef3a05c85d47d61c90386632c108cab613fc6dfe7faca9abdcda9e4ec32ffc)) */\n      dup2\n      mstore\n      pop\n        /* \"contracts/verifier.sol\":8141:8143  vk */\n      dup2\n        /* \"contracts/verifier.sol\":8141:8153  vk.gamma_abc */\n      0x80\n      add\n      mload\n        /* \"contracts/verifier.sol\":8154:8155  1 */\n      0x01\n        /* \"contracts/verifier.sol\":8141:8156  vk.gamma_abc[1] */\n      dup2\n      mload\n      dup2\n      lt\n      tag_69\n      jumpi\n      tag_70\n      tag_20\n      jump\t// in\n    tag_70:\n    tag_69:\n      0x20\n      mul\n      0x20\n      add\n      add\n        /* \"contracts/verifier.sol\":8141:8328  vk.gamma_abc[1] = Pairing.G1Point(uint256(0x2679b135d62055ab41a37c90c4155ffc349954780ab5e947f8e235c08917980c), uint256(0x23ef3a05c85d47d61c90386632c108cab613fc6dfe7faca9abdcda9e4ec32ffc)) */\n      dup2\n      swap1\n      mstore\n      pop\n        /* \"contracts/verifier.sol\":8356:8525  Pairing.G1Point(uint256(0x14e5b612c827c82c99359c2d63c44cf11d3e9a0b25f142e2f3aba355c7766313), uint256(0x0e51f3aaf7b63c9da98c6281493de75c57cccfcdf251cbb6256450a0c2bdf4e8)) */\n      mload(0x40)\n      dup1\n      0x40\n      add\n      0x40\n      mstore\n      dup1\n        /* \"contracts/verifier.sol\":8380:8446  0x14e5b612c827c82c99359c2d63c44cf11d3e9a0b25f142e2f3aba355c7766313 */\n      0x14e5b612c827c82c99359c2d63c44cf11d3e9a0b25f142e2f3aba355c7766313\n        /* \"contracts/verifier.sol\":8356:8525  Pairing.G1Point(uint256(0x14e5b612c827c82c99359c2d63c44cf11d3e9a0b25f142e2f3aba355c7766313), uint256(0x0e51f3aaf7b63c9da98c6281493de75c57cccfcdf251cbb6256450a0c2bdf4e8)) */\n      dup2\n      mstore\n      0x20\n      add\n        /* \"contracts/verifier.sol\":8457:8523  0x0e51f3aaf7b63c9da98c6281493de75c57cccfcdf251cbb6256450a0c2bdf4e8 */\n      0x0e51f3aaf7b63c9da98c6281493de75c57cccfcdf251cbb6256450a0c2bdf4e8\n        /* \"contracts/verifier.sol\":8356:8525  Pairing.G1Point(uint256(0x14e5b612c827c82c99359c2d63c44cf11d3e9a0b25f142e2f3aba355c7766313), uint256(0x0e51f3aaf7b63c9da98c6281493de75c57cccfcdf251cbb6256450a0c2bdf4e8)) */\n      dup2\n      mstore\n      pop\n        /* \"contracts/verifier.sol\":8338:8340  vk */\n      dup2\n        /* \"contracts/verifier.sol\":8338:8350  vk.gamma_abc */\n      0x80\n      add\n      mload\n        /* \"contracts/verifier.sol\":8351:8352  2 */\n      0x02\n        /* \"contracts/verifier.sol\":8338:8353  vk.gamma_abc[2] */\n      dup2\n      mload\n      dup2\n      lt\n      tag_71\n      jumpi\n      tag_72\n      tag_20\n      jump\t// in\n    tag_72:\n    tag_71:\n      0x20\n      mul\n      0x20\n      add\n      add\n        /* \"contracts/verifier.sol\":8338:8525  vk.gamma_abc[2] = Pairing.G1Point(uint256(0x14e5b612c827c82c99359c2d63c44cf11d3e9a0b25f142e2f3aba355c7766313), uint256(0x0e51f3aaf7b63c9da98c6281493de75c57cccfcdf251cbb6256450a0c2bdf4e8)) */\n      dup2\n      swap1\n      mstore\n      pop\n        /* \"contracts/verifier.sol\":8553:8722  Pairing.G1Point(uint256(0x2b10a4c3361b605103ce234ddc8b761b07276d7d053c7446aeb7495375482273), uint256(0x0924baec305060d2e5db5a75b55a37fbebe726e921f0cc2f8a1ed9494aba8808)) */\n      mload(0x40)\n      dup1\n      0x40\n      add\n      0x40\n      mstore\n      dup1\n        /* \"contracts/verifier.sol\":8577:8643  0x2b10a4c3361b605103ce234ddc8b761b07276d7d053c7446aeb7495375482273 */\n      0x2b10a4c3361b605103ce234ddc8b761b07276d7d053c7446aeb7495375482273\n        /* \"contracts/verifier.sol\":8553:8722  Pairing.G1Point(uint256(0x2b10a4c3361b605103ce234ddc8b761b07276d7d053c7446aeb7495375482273), uint256(0x0924baec305060d2e5db5a75b55a37fbebe726e921f0cc2f8a1ed9494aba8808)) */\n      dup2\n      mstore\n      0x20\n      add\n        /* \"contracts/verifier.sol\":8654:8720  0x0924baec305060d2e5db5a75b55a37fbebe726e921f0cc2f8a1ed9494aba8808 */\n      0x0924baec305060d2e5db5a75b55a37fbebe726e921f0cc2f8a1ed9494aba8808\n        /* \"contracts/verifier.sol\":8553:8722  Pairing.G1Point(uint256(0x2b10a4c3361b605103ce234ddc8b761b07276d7d053c7446aeb7495375482273), uint256(0x0924baec305060d2e5db5a75b55a37fbebe726e921f0cc2f8a1ed9494aba8808)) */\n      dup2\n      mstore\n      pop\n        /* \"contracts/verifier.sol\":8535:8537  vk */\n      dup2\n        /* \"contracts/verifier.sol\":8535:8547  vk.gamma_abc */\n      0x80\n      add\n      mload\n        /* \"contracts/verifier.sol\":8548:8549  3 */\n      0x03\n        /* \"contracts/verifier.sol\":8535:8550  vk.gamma_abc[3] */\n      dup2\n      mload\n      dup2\n      lt\n      tag_73\n      jumpi\n      tag_74\n      tag_20\n      jump\t// in\n    tag_74:\n    tag_73:\n      0x20\n      mul\n      0x20\n      add\n      add\n        /* \"contracts/verifier.sol\":8535:8722  vk.gamma_abc[3] = Pairing.G1Point(uint256(0x2b10a4c3361b605103ce234ddc8b761b07276d7d053c7446aeb7495375482273), uint256(0x0924baec305060d2e5db5a75b55a37fbebe726e921f0cc2f8a1ed9494aba8808)) */\n      dup2\n      swap1\n      mstore\n      pop\n        /* \"contracts/verifier.sol\":8750:8919  Pairing.G1Point(uint256(0x261ef28886d60c9824fb9a91bc881f585016c5c79d3ff8acab386f4217e08746), uint256(0x1ad4a1db1d3bd52391b730ce54667c51f1f11d84236025fc801c63dd099a7c56)) */\n      mload(0x40)\n      dup1\n      0x40\n      add\n      0x40\n      mstore\n      dup1\n        /* \"contracts/verifier.sol\":8774:8840  0x261ef28886d60c9824fb9a91bc881f585016c5c79d3ff8acab386f4217e08746 */\n      0x261ef28886d60c9824fb9a91bc881f585016c5c79d3ff8acab386f4217e08746\n        /* \"contracts/verifier.sol\":8750:8919  Pairing.G1Point(uint256(0x261ef28886d60c9824fb9a91bc881f585016c5c79d3ff8acab386f4217e08746), uint256(0x1ad4a1db1d3bd52391b730ce54667c51f1f11d84236025fc801c63dd099a7c56)) */\n      dup2\n      mstore\n      0x20\n      add\n        /* \"contracts/verifier.sol\":8851:8917  0x1ad4a1db1d3bd52391b730ce54667c51f1f11d84236025fc801c63dd099a7c56 */\n      0x1ad4a1db1d3bd52391b730ce54667c51f1f11d84236025fc801c63dd099a7c56\n        /* \"contracts/verifier.sol\":8750:8919  Pairing.G1Point(uint256(0x261ef28886d60c9824fb9a91bc881f585016c5c79d3ff8acab386f4217e08746), uint256(0x1ad4a1db1d3bd52391b730ce54667c51f1f11d84236025fc801c63dd099a7c56)) */\n      dup2\n      mstore\n      pop\n        /* \"contracts/verifier.sol\":8732:8734  vk */\n      dup2\n        /* \"contracts/verifier.sol\":8732:8744  vk.gamma_abc */\n      0x80\n      add\n      mload\n        /* \"contracts/verifier.sol\":8745:8746  4 */\n      0x04\n        /* \"contracts/verifier.sol\":8732:8747  vk.gamma_abc[4] */\n      dup2\n      mload\n      dup2\n      lt\n      tag_75\n      jumpi\n      tag_76\n      tag_20\n      jump\t// in\n    tag_76:\n    tag_75:\n      0x20\n      mul\n      0x20\n      add\n      add\n        /* \"contracts/verifier.sol\":8732:8919  vk.gamma_abc[4] = Pairing.G1Point(uint256(0x261ef28886d60c9824fb9a91bc881f585016c5c79d3ff8acab386f4217e08746), uint256(0x1ad4a1db1d3bd52391b730ce54667c51f1f11d84236025fc801c63dd099a7c56)) */\n      dup2\n      swap1\n      mstore\n      pop\n        /* \"contracts/verifier.sol\":8947:9116  Pairing.G1Point(uint256(0x086d3244f4ed19477811a7551700271c448723e042ca1a57868baf2c92b3c9a7), uint256(0x28b602b08762b6ae16bb5ae35c421a1f8d19b0331d71e1bb1fa22c866d46f8b7)) */\n      mload(0x40)\n      dup1\n      0x40\n      add\n      0x40\n      mstore\n      dup1\n        /* \"contracts/verifier.sol\":8971:9037  0x086d3244f4ed19477811a7551700271c448723e042ca1a57868baf2c92b3c9a7 */\n      0x086d3244f4ed19477811a7551700271c448723e042ca1a57868baf2c92b3c9a7\n        /* \"contracts/verifier.sol\":8947:9116  Pairing.G1Point(uint256(0x086d3244f4ed19477811a7551700271c448723e042ca1a57868baf2c92b3c9a7), uint256(0x28b602b08762b6ae16bb5ae35c421a1f8d19b0331d71e1bb1fa22c866d46f8b7)) */\n      dup2\n      mstore\n      0x20\n      add\n        /* \"contracts/verifier.sol\":9048:9114  0x28b602b08762b6ae16bb5ae35c421a1f8d19b0331d71e1bb1fa22c866d46f8b7 */\n      0x28b602b08762b6ae16bb5ae35c421a1f8d19b0331d71e1bb1fa22c866d46f8b7\n        /* \"contracts/verifier.sol\":8947:9116  Pairing.G1Point(uint256(0x086d3244f4ed19477811a7551700271c448723e042ca1a57868baf2c92b3c9a7), uint256(0x28b602b08762b6ae16bb5ae35c421a1f8d19b0331d71e1bb1fa22c866d46f8b7)) */\n      dup2\n      mstore\n      pop\n        /* \"contracts/verifier.sol\":8929:8931  vk */\n      dup2\n        /* \"contracts/verifier.sol\":8929:8941  vk.gamma_abc */\n      0x80\n      add\n      mload\n        /* \"contracts/verifier.sol\":8942:8943  5 */\n      0x05\n        /* \"contracts/verifier.sol\":8929:8944  vk.gamma_abc[5] */\n      dup2\n      mload\n      dup2\n      lt\n      tag_77\n      jumpi\n      tag_78\n      tag_20\n      jump\t// in\n    tag_78:\n    tag_77:\n      0x20\n      mul\n      0x20\n      add\n      add\n        /* \"contracts/verifier.sol\":8929:9116  vk.gamma_abc[5] = Pairing.G1Point(uint256(0x086d3244f4ed19477811a7551700271c448723e042ca1a57868baf2c92b3c9a7), uint256(0x28b602b08762b6ae16bb5ae35c421a1f8d19b0331d71e1bb1fa22c866d46f8b7)) */\n      dup2\n      swap1\n      mstore\n      pop\n        /* \"contracts/verifier.sol\":6581:9123  function verifyingKey() pure internal returns (VerifyingKey memory vk) {... */\n      swap1\n      jump\t// out\n        /* \"contracts/verifier.sol\":3082:3536  function scalar_mul(G1Point memory p, uint s) internal view returns (G1Point memory r) {... */\n    tag_46:\n        /* \"contracts/verifier.sol\":3151:3167  G1Point memory r */\n      tag_79\n      tag_66\n      jump\t// in\n    tag_79:\n        /* \"contracts/verifier.sol\":3179:3199  uint[3] memory input */\n      tag_81\n      tag_82\n      jump\t// in\n    tag_81:\n        /* \"contracts/verifier.sol\":3220:3221  p */\n      dup4\n        /* \"contracts/verifier.sol\":3220:3223  p.X */\n      0x00\n      add\n      mload\n        /* \"contracts/verifier.sol\":3209:3214  input */\n      dup2\n        /* \"contracts/verifier.sol\":3215:3216  0 */\n      0x00\n        /* \"contracts/verifier.sol\":3209:3217  input[0] */\n      0x03\n      dup2\n      lt\n      tag_83\n      jumpi\n      tag_84\n      tag_20\n      jump\t// in\n    tag_84:\n    tag_83:\n      0x20\n      mul\n      add\n        /* \"contracts/verifier.sol\":3209:3223  input[0] = p.X */\n      dup2\n      dup2\n      mstore\n      pop\n      pop\n        /* \"contracts/verifier.sol\":3244:3245  p */\n      dup4\n        /* \"contracts/verifier.sol\":3244:3247  p.Y */\n      0x20\n      add\n      mload\n        /* \"contracts/verifier.sol\":3233:3238  input */\n      dup2\n        /* \"contracts/verifier.sol\":3239:3240  1 */\n      0x01\n        /* \"contracts/verifier.sol\":3233:3241  input[1] */\n      0x03\n      dup2\n      lt\n      tag_85\n      jumpi\n      tag_86\n      tag_20\n      jump\t// in\n    tag_86:\n    tag_85:\n      0x20\n      mul\n      add\n        /* \"contracts/verifier.sol\":3233:3247  input[1] = p.Y */\n      dup2\n      dup2\n      mstore\n      pop\n      pop\n        /* \"contracts/verifier.sol\":3268:3269  s */\n      dup3\n        /* \"contracts/verifier.sol\":3257:3262  input */\n      dup2\n        /* \"contracts/verifier.sol\":3263:3264  2 */\n      0x02\n        /* \"contracts/verifier.sol\":3257:3265  input[2] */\n      0x03\n      dup2\n      lt\n      tag_87\n      jumpi\n      tag_88\n      tag_20\n      jump\t// in\n    tag_88:\n    tag_87:\n      0x20\n      mul\n      add\n        /* \"contracts/verifier.sol\":3257:3269  input[2] = s */\n      dup2\n      dup2\n      mstore\n      pop\n      pop\n        /* \"contracts/verifier.sol\":3279:3291  bool success */\n      0x00\n        /* \"contracts/verifier.sol\":3383:3387  0x60 */\n      0x60\n        /* \"contracts/verifier.sol\":3380:3381  r */\n      dup4\n        /* \"contracts/verifier.sol\":3374:3378  0x80 */\n      0x80\n        /* \"contracts/verifier.sol\":3367:3372  input */\n      dup5\n        /* \"contracts/verifier.sol\":3364:3365  7 */\n      0x07\n        /* \"contracts/verifier.sol\":3357:3361  2000 */\n      0x07d0\n        /* \"contracts/verifier.sol\":3350:3355  gas() */\n      gas\n        /* \"contracts/verifier.sol\":3346:3362  sub(gas(), 2000) */\n      sub\n        /* \"contracts/verifier.sol\":3335:3388  staticcall(sub(gas(), 2000), 7, input, 0x80, r, 0x60) */\n      staticcall\n        /* \"contracts/verifier.sol\":3324:3388  success := staticcall(sub(gas(), 2000), 7, input, 0x80, r, 0x60) */\n      swap1\n      pop\n        /* \"contracts/verifier.sol\":3465:3472  success */\n      dup1\n        /* \"contracts/verifier.sol\":3478:3479  0 */\n      0x00\n        /* \"contracts/verifier.sol\":3473:3493  case 0 { invalid() } */\n      dup2\n      sub\n        /* \"contracts/verifier.sol\":3458:3493  switch success case 0 { invalid() } */\n      tag_89\n        /* \"contracts/verifier.sol\":3473:3493  case 0 { invalid() } */\n      jumpi\n        /* \"contracts/verifier.sol\":3482:3491  invalid() */\n      invalid\n        /* \"contracts/verifier.sol\":3458:3493  switch success case 0 { invalid() } */\n    tag_89:\n      pop\n        /* \"contracts/verifier.sol\":3521:3528  success */\n      dup1\n        /* \"contracts/verifier.sol\":3512:3529  require (success) */\n      tag_91\n      jumpi\n      0x00\n      dup1\n      revert\n    tag_91:\n        /* \"contracts/verifier.sol\":3169:3536  {... */\n      pop\n      pop\n        /* \"contracts/verifier.sol\":3082:3536  function scalar_mul(G1Point memory p, uint s) internal view returns (G1Point memory r) {... */\n      swap3\n      swap2\n      pop\n      pop\n      jump\t// out\n        /* \"contracts/verifier.sol\":2432:2925  function addition(G1Point memory p1, G1Point memory p2) internal view returns (G1Point memory r) {... */\n    tag_47:\n        /* \"contracts/verifier.sol\":2511:2527  G1Point memory r */\n      tag_92\n      tag_66\n      jump\t// in\n    tag_92:\n        /* \"contracts/verifier.sol\":2539:2559  uint[4] memory input */\n      tag_94\n      tag_95\n      jump\t// in\n    tag_94:\n        /* \"contracts/verifier.sol\":2580:2582  p1 */\n      dup4\n        /* \"contracts/verifier.sol\":2580:2584  p1.X */\n      0x00\n      add\n      mload\n        /* \"contracts/verifier.sol\":2569:2574  input */\n      dup2\n        /* \"contracts/verifier.sol\":2575:2576  0 */\n      0x00\n        /* \"contracts/verifier.sol\":2569:2577  input[0] */\n      0x04\n      dup2\n      lt\n      tag_96\n      jumpi\n      tag_97\n      tag_20\n      jump\t// in\n    tag_97:\n    tag_96:\n      0x20\n      mul\n      add\n        /* \"contracts/verifier.sol\":2569:2584  input[0] = p1.X */\n      dup2\n      dup2\n      mstore\n      pop\n      pop\n        /* \"contracts/verifier.sol\":2605:2607  p1 */\n      dup4\n        /* \"contracts/verifier.sol\":2605:2609  p1.Y */\n      0x20\n      add\n      mload\n        /* \"contracts/verifier.sol\":2594:2599  input */\n      dup2\n        /* \"contracts/verifier.sol\":2600:2601  1 */\n      0x01\n        /* \"contracts/verifier.sol\":2594:2602  input[1] */\n      0x04\n      dup2\n      lt\n      tag_98\n      jumpi\n      tag_99\n      tag_20\n      jump\t// in\n    tag_99:\n    tag_98:\n      0x20\n      mul\n      add\n        /* \"contracts/verifier.sol\":2594:2609  input[1] = p1.Y */\n      dup2\n      dup2\n      mstore\n      pop\n      pop\n        /* \"contracts/verifier.sol\":2630:2632  p2 */\n      dup3\n        /* \"contracts/verifier.sol\":2630:2634  p2.X */\n      0x00\n      add\n      mload\n        /* \"contracts/verifier.sol\":2619:2624  input */\n      dup2\n        /* \"contracts/verifier.sol\":2625:2626  2 */\n      0x02\n        /* \"contracts/verifier.sol\":2619:2627  input[2] */\n      0x04\n      dup2\n      lt\n      tag_100\n      jumpi\n      tag_101\n      tag_20\n      jump\t// in\n    tag_101:\n    tag_100:\n      0x20\n      mul\n      add\n        /* \"contracts/verifier.sol\":2619:2634  input[2] = p2.X */\n      dup2\n      dup2\n      mstore\n      pop\n      pop\n        /* \"contracts/verifier.sol\":2655:2657  p2 */\n      dup3\n        /* \"contracts/verifier.sol\":2655:2659  p2.Y */\n      0x20\n      add\n      mload\n        /* \"contracts/verifier.sol\":2644:2649  input */\n      dup2\n        /* \"contracts/verifier.sol\":2650:2651  3 */\n      0x03\n        /* \"contracts/verifier.sol\":2644:2652  input[3] */\n      0x04\n      dup2\n      lt\n      tag_102\n      jumpi\n      tag_103\n      tag_20\n      jump\t// in\n    tag_103:\n    tag_102:\n      0x20\n      mul\n      add\n        /* \"contracts/verifier.sol\":2644:2659  input[3] = p2.Y */\n      dup2\n      dup2\n      mstore\n      pop\n      pop\n        /* \"contracts/verifier.sol\":2669:2681  bool success */\n      0x00\n        /* \"contracts/verifier.sol\":2773:2777  0x60 */\n      0x60\n        /* \"contracts/verifier.sol\":2770:2771  r */\n      dup4\n        /* \"contracts/verifier.sol\":2764:2768  0xc0 */\n      0xc0\n        /* \"contracts/verifier.sol\":2757:2762  input */\n      dup5\n        /* \"contracts/verifier.sol\":2754:2755  6 */\n      0x06\n        /* \"contracts/verifier.sol\":2747:2751  2000 */\n      0x07d0\n        /* \"contracts/verifier.sol\":2740:2745  gas() */\n      gas\n        /* \"contracts/verifier.sol\":2736:2752  sub(gas(), 2000) */\n      sub\n        /* \"contracts/verifier.sol\":2725:2778  staticcall(sub(gas(), 2000), 6, input, 0xc0, r, 0x60) */\n      staticcall\n        /* \"contracts/verifier.sol\":2714:2778  success := staticcall(sub(gas(), 2000), 6, input, 0xc0, r, 0x60) */\n      swap1\n      pop\n        /* \"contracts/verifier.sol\":2855:2862  success */\n      dup1\n        /* \"contracts/verifier.sol\":2868:2869  0 */\n      0x00\n        /* \"contracts/verifier.sol\":2863:2883  case 0 { invalid() } */\n      dup2\n      sub\n        /* \"contracts/verifier.sol\":2848:2883  switch success case 0 { invalid() } */\n      tag_104\n        /* \"contracts/verifier.sol\":2863:2883  case 0 { invalid() } */\n      jumpi\n        /* \"contracts/verifier.sol\":2872:2881  invalid() */\n      invalid\n        /* \"contracts/verifier.sol\":2848:2883  switch success case 0 { invalid() } */\n    tag_104:\n      pop\n        /* \"contracts/verifier.sol\":2910:2917  success */\n      dup1\n        /* \"contracts/verifier.sol\":2902:2918  require(success) */\n      tag_106\n      jumpi\n      0x00\n      dup1\n      revert\n    tag_106:\n        /* \"contracts/verifier.sol\":2529:2925  {... */\n      pop\n      pop\n        /* \"contracts/verifier.sol\":2432:2925  function addition(G1Point memory p1, G1Point memory p2) internal view returns (G1Point memory r) {... */\n      swap3\n      swap2\n      pop\n      pop\n      jump\t// out\n        /* \"contracts/verifier.sol\":2041:2381  function negate(G1Point memory p) pure internal returns (G1Point memory) {... */\n    tag_53:\n        /* \"contracts/verifier.sol\":2098:2112  G1Point memory */\n      tag_107\n      tag_66\n      jump\t// in\n    tag_107:\n        /* \"contracts/verifier.sol\":2176:2182  uint q */\n      0x00\n        /* \"contracts/verifier.sol\":2185:2262  21888242871839275222246405745257275088696311157297823662689037894645226208583 */\n      0x30644e72e131a029b85045b68181585d97816a916871ca8d3c208c16d87cfd47\n        /* \"contracts/verifier.sol\":2176:2262  uint q = 21888242871839275222246405745257275088696311157297823662689037894645226208583 */\n      swap1\n      pop\n        /* \"contracts/verifier.sol\":2283:2284  0 */\n      0x00\n        /* \"contracts/verifier.sol\":2276:2277  p */\n      dup4\n        /* \"contracts/verifier.sol\":2276:2279  p.X */\n      0x00\n      add\n      mload\n        /* \"contracts/verifier.sol\":2276:2284  p.X == 0 */\n      eq\n        /* \"contracts/verifier.sol\":2276:2296  p.X == 0 && p.Y == 0 */\n      dup1\n      iszero\n      tag_109\n      jumpi\n      pop\n        /* \"contracts/verifier.sol\":2295:2296  0 */\n      0x00\n        /* \"contracts/verifier.sol\":2288:2289  p */\n      dup4\n        /* \"contracts/verifier.sol\":2288:2291  p.Y */\n      0x20\n      add\n      mload\n        /* \"contracts/verifier.sol\":2288:2296  p.Y == 0 */\n      eq\n        /* \"contracts/verifier.sol\":2276:2296  p.X == 0 && p.Y == 0 */\n    tag_109:\n        /* \"contracts/verifier.sol\":2272:2330  if (p.X == 0 && p.Y == 0)... */\n      iszero\n      tag_110\n      jumpi\n        /* \"contracts/verifier.sol\":2317:2330  G1Point(0, 0) */\n      mload(0x40)\n      dup1\n      0x40\n      add\n      0x40\n      mstore\n      dup1\n        /* \"contracts/verifier.sol\":2325:2326  0 */\n      0x00\n        /* \"contracts/verifier.sol\":2317:2330  G1Point(0, 0) */\n      dup2\n      mstore\n      0x20\n      add\n        /* \"contracts/verifier.sol\":2328:2329  0 */\n      0x00\n        /* \"contracts/verifier.sol\":2317:2330  G1Point(0, 0) */\n      dup2\n      mstore\n      pop\n        /* \"contracts/verifier.sol\":2310:2330  return G1Point(0, 0) */\n      swap2\n      pop\n      pop\n      jump(tag_108)\n        /* \"contracts/verifier.sol\":2272:2330  if (p.X == 0 && p.Y == 0)... */\n    tag_110:\n        /* \"contracts/verifier.sol\":2347:2374  G1Point(p.X, q - (p.Y % q)) */\n      mload(0x40)\n      dup1\n      0x40\n      add\n      0x40\n      mstore\n      dup1\n        /* \"contracts/verifier.sol\":2355:2356  p */\n      dup5\n        /* \"contracts/verifier.sol\":2355:2358  p.X */\n      0x00\n      add\n      mload\n        /* \"contracts/verifier.sol\":2347:2374  G1Point(p.X, q - (p.Y % q)) */\n      dup2\n      mstore\n      0x20\n      add\n        /* \"contracts/verifier.sol\":2371:2372  q */\n      dup3\n        /* \"contracts/verifier.sol\":2365:2366  p */\n      dup6\n        /* \"contracts/verifier.sol\":2365:2368  p.Y */\n      0x20\n      add\n      mload\n        /* \"contracts/verifier.sol\":2365:2372  p.Y % q */\n      tag_111\n      swap2\n      swap1\n      tag_112\n      jump\t// in\n    tag_111:\n        /* \"contracts/verifier.sol\":2360:2361  q */\n      dup4\n        /* \"contracts/verifier.sol\":2360:2373  q - (p.Y % q) */\n      tag_113\n      swap2\n      swap1\n      tag_114\n      jump\t// in\n    tag_113:\n        /* \"contracts/verifier.sol\":2347:2374  G1Point(p.X, q - (p.Y % q)) */\n      dup2\n      mstore\n      pop\n        /* \"contracts/verifier.sol\":2340:2374  return G1Point(p.X, q - (p.Y % q)) */\n      swap2\n      pop\n      pop\n        /* \"contracts/verifier.sol\":2041:2381  function negate(G1Point memory p) pure internal returns (G1Point memory) {... */\n    tag_108:\n      swap2\n      swap1\n      pop\n      jump\t// out\n        /* \"contracts/verifier.sol\":5678:6230  function pairingProd4(... */\n    tag_56:\n        /* \"contracts/verifier.sol\":5929:5933  bool */\n      0x00\n        /* \"contracts/verifier.sol\":5945:5964  G1Point[] memory p1 */\n      dup1\n        /* \"contracts/verifier.sol\":5981:5982  4 */\n      0x04\n        /* \"contracts/verifier.sol\":5967:5983  new G1Point[](4) */\n      0xffffffffffffffff\n      dup2\n      gt\n      iszero\n      tag_116\n      jumpi\n      tag_117\n      tag_13\n      jump\t// in\n    tag_117:\n    tag_116:\n      mload(0x40)\n      swap1\n      dup1\n      dup3\n      mstore\n      dup1\n      0x20\n      mul\n      0x20\n      add\n      dup3\n      add\n      0x40\n      mstore\n      dup1\n      iszero\n      tag_118\n      jumpi\n      dup2\n      0x20\n      add\n    tag_119:\n      tag_120\n      tag_66\n      jump\t// in\n    tag_120:\n      dup2\n      mstore\n      0x20\n      add\n      swap1\n      0x01\n      swap1\n      sub\n      swap1\n      dup2\n      tag_119\n      jumpi\n      swap1\n      pop\n    tag_118:\n      pop\n        /* \"contracts/verifier.sol\":5945:5983  G1Point[] memory p1 = new G1Point[](4) */\n      swap1\n      pop\n        /* \"contracts/verifier.sol\":5993:6012  G2Point[] memory p2 */\n      0x00\n        /* \"contracts/verifier.sol\":6029:6030  4 */\n      0x04\n        /* \"contracts/verifier.sol\":6015:6031  new G2Point[](4) */\n      0xffffffffffffffff\n      dup2\n      gt\n      iszero\n      tag_121\n      jumpi\n      tag_122\n      tag_13\n      jump\t// in\n    tag_122:\n    tag_121:\n      mload(0x40)\n      swap1\n      dup1\n      dup3\n      mstore\n      dup1\n      0x20\n      mul\n      0x20\n      add\n      dup3\n      add\n      0x40\n      mstore\n      dup1\n      iszero\n      tag_123\n      jumpi\n      dup2\n      0x20\n      add\n    tag_124:\n      tag_125\n      tag_126\n      jump\t// in\n    tag_125:\n      dup2\n      mstore\n      0x20\n      add\n      swap1\n      0x01\n      swap1\n      sub\n      swap1\n      dup2\n      tag_124\n      jumpi\n      swap1\n      pop\n    tag_123:\n      pop\n        /* \"contracts/verifier.sol\":5993:6031  G2Point[] memory p2 = new G2Point[](4) */\n      swap1\n      pop\n        /* \"contracts/verifier.sol\":6049:6051  a1 */\n      dup11\n        /* \"contracts/verifier.sol\":6041:6043  p1 */\n      dup3\n        /* \"contracts/verifier.sol\":6044:6045  0 */\n      0x00\n        /* \"contracts/verifier.sol\":6041:6046  p1[0] */\n      dup2\n      mload\n      dup2\n      lt\n      tag_127\n      jumpi\n      tag_128\n      tag_20\n      jump\t// in\n    tag_128:\n    tag_127:\n      0x20\n      mul\n      0x20\n      add\n      add\n        /* \"contracts/verifier.sol\":6041:6051  p1[0] = a1 */\n      dup2\n      swap1\n      mstore\n      pop\n        /* \"contracts/verifier.sol\":6069:6071  b1 */\n      dup9\n        /* \"contracts/verifier.sol\":6061:6063  p1 */\n      dup3\n        /* \"contracts/verifier.sol\":6064:6065  1 */\n      0x01\n        /* \"contracts/verifier.sol\":6061:6066  p1[1] */\n      dup2\n      mload\n      dup2\n      lt\n      tag_129\n      jumpi\n      tag_130\n      tag_20\n      jump\t// in\n    tag_130:\n    tag_129:\n      0x20\n      mul\n      0x20\n      add\n      add\n        /* \"contracts/verifier.sol\":6061:6071  p1[1] = b1 */\n      dup2\n      swap1\n      mstore\n      pop\n        /* \"contracts/verifier.sol\":6089:6091  c1 */\n      dup7\n        /* \"contracts/verifier.sol\":6081:6083  p1 */\n      dup3\n        /* \"contracts/verifier.sol\":6084:6085  2 */\n      0x02\n        /* \"contracts/verifier.sol\":6081:6086  p1[2] */\n      dup2\n      mload\n      dup2\n      lt\n      tag_131\n      jumpi\n      tag_132\n      tag_20\n      jump\t// in\n    tag_132:\n    tag_131:\n      0x20\n      mul\n      0x20\n      add\n      add\n        /* \"contracts/verifier.sol\":6081:6091  p1[2] = c1 */\n      dup2\n      swap1\n      mstore\n      pop\n        /* \"contracts/verifier.sol\":6109:6111  d1 */\n      dup5\n        /* \"contracts/verifier.sol\":6101:6103  p1 */\n      dup3\n        /* \"contracts/verifier.sol\":6104:6105  3 */\n      0x03\n        /* \"contracts/verifier.sol\":6101:6106  p1[3] */\n      dup2\n      mload\n      dup2\n      lt\n      tag_133\n      jumpi\n      tag_134\n      tag_20\n      jump\t// in\n    tag_134:\n    tag_133:\n      0x20\n      mul\n      0x20\n      add\n      add\n        /* \"contracts/verifier.sol\":6101:6111  p1[3] = d1 */\n      dup2\n      swap1\n      mstore\n      pop\n        /* \"contracts/verifier.sol\":6129:6131  a2 */\n      dup10\n        /* \"contracts/verifier.sol\":6121:6123  p2 */\n      dup2\n        /* \"contracts/verifier.sol\":6124:6125  0 */\n      0x00\n        /* \"contracts/verifier.sol\":6121:6126  p2[0] */\n      dup2\n      mload\n      dup2\n      lt\n      tag_135\n      jumpi\n      tag_136\n      tag_20\n      jump\t// in\n    tag_136:\n    tag_135:\n      0x20\n      mul\n      0x20\n      add\n      add\n        /* \"contracts/verifier.sol\":6121:6131  p2[0] = a2 */\n      dup2\n      swap1\n      mstore\n      pop\n        /* \"contracts/verifier.sol\":6149:6151  b2 */\n      dup8\n        /* \"contracts/verifier.sol\":6141:6143  p2 */\n      dup2\n        /* \"contracts/verifier.sol\":6144:6145  1 */\n      0x01\n        /* \"contracts/verifier.sol\":6141:6146  p2[1] */\n      dup2\n      mload\n      dup2\n      lt\n      tag_137\n      jumpi\n      tag_138\n      tag_20\n      jump\t// in\n    tag_138:\n    tag_137:\n      0x20\n      mul\n      0x20\n      add\n      add\n        /* \"contracts/verifier.sol\":6141:6151  p2[1] = b2 */\n      dup2\n      swap1\n      mstore\n      pop\n        /* \"contracts/verifier.sol\":6169:6171  c2 */\n      dup6\n        /* \"contracts/verifier.sol\":6161:6163  p2 */\n      dup2\n        /* \"contracts/verifier.sol\":6164:6165  2 */\n      0x02\n        /* \"contracts/verifier.sol\":6161:6166  p2[2] */\n      dup2\n      mload\n      dup2\n      lt\n      tag_139\n      jumpi\n      tag_140\n      tag_20\n      jump\t// in\n    tag_140:\n    tag_139:\n      0x20\n      mul\n      0x20\n      add\n      add\n        /* \"contracts/verifier.sol\":6161:6171  p2[2] = c2 */\n      dup2\n      swap1\n      mstore\n      pop\n        /* \"contracts/verifier.sol\":6189:6191  d2 */\n      dup4\n        /* \"contracts/verifier.sol\":6181:6183  p2 */\n      dup2\n        /* \"contracts/verifier.sol\":6184:6185  3 */\n      0x03\n        /* \"contracts/verifier.sol\":6181:6186  p2[3] */\n      dup2\n      mload\n      dup2\n      lt\n      tag_141\n      jumpi\n      tag_142\n      tag_20\n      jump\t// in\n    tag_142:\n    tag_141:\n      0x20\n      mul\n      0x20\n      add\n      add\n        /* \"contracts/verifier.sol\":6181:6191  p2[3] = d2 */\n      dup2\n      swap1\n      mstore\n      pop\n        /* \"contracts/verifier.sol\":6208:6223  pairing(p1, p2) */\n      tag_143\n        /* \"contracts/verifier.sol\":6216:6218  p1 */\n      dup3\n        /* \"contracts/verifier.sol\":6220:6222  p2 */\n      dup3\n        /* \"contracts/verifier.sol\":6208:6215  pairing */\n      tag_144\n        /* \"contracts/verifier.sol\":6208:6223  pairing(p1, p2) */\n      jump\t// in\n    tag_143:\n        /* \"contracts/verifier.sol\":6201:6223  return pairing(p1, p2) */\n      swap3\n      pop\n      pop\n      pop\n        /* \"contracts/verifier.sol\":5678:6230  function pairingProd4(... */\n      swap9\n      swap8\n      pop\n      pop\n      pop\n      pop\n      pop\n      pop\n      pop\n      pop\n      jump\t// out\n        /* \"contracts/verifier.sol\":3747:4670  function pairing(G1Point[] memory p1, G2Point[] memory p2) internal view returns (bool) {... */\n    tag_144:\n        /* \"contracts/verifier.sol\":3829:3833  bool */\n      0x00\n        /* \"contracts/verifier.sol\":3866:3868  p2 */\n      dup2\n        /* \"contracts/verifier.sol\":3866:3875  p2.length */\n      mload\n        /* \"contracts/verifier.sol\":3853:3855  p1 */\n      dup4\n        /* \"contracts/verifier.sol\":3853:3862  p1.length */\n      mload\n        /* \"contracts/verifier.sol\":3853:3875  p1.length == p2.length */\n      eq\n        /* \"contracts/verifier.sol\":3845:3876  require(p1.length == p2.length) */\n      tag_146\n      jumpi\n      0x00\n      dup1\n      revert\n    tag_146:\n        /* \"contracts/verifier.sol\":3886:3899  uint elements */\n      0x00\n        /* \"contracts/verifier.sol\":3902:3904  p1 */\n      dup4\n        /* \"contracts/verifier.sol\":3902:3911  p1.length */\n      mload\n        /* \"contracts/verifier.sol\":3886:3911  uint elements = p1.length */\n      swap1\n      pop\n        /* \"contracts/verifier.sol\":3921:3935  uint inputSize */\n      0x00\n        /* \"contracts/verifier.sol\":3949:3950  6 */\n      0x06\n        /* \"contracts/verifier.sol\":3938:3946  elements */\n      dup3\n        /* \"contracts/verifier.sol\":3938:3950  elements * 6 */\n      tag_147\n      swap2\n      swap1\n      tag_148\n      jump\t// in\n    tag_147:\n        /* \"contracts/verifier.sol\":3921:3950  uint inputSize = elements * 6 */\n      swap1\n      pop\n        /* \"contracts/verifier.sol\":3960:3979  uint[] memory input */\n      0x00\n        /* \"contracts/verifier.sol\":3993:4002  inputSize */\n      dup2\n        /* \"contracts/verifier.sol\":3982:4003  new uint[](inputSize) */\n      0xffffffffffffffff\n      dup2\n      gt\n      iszero\n      tag_149\n      jumpi\n      tag_150\n      tag_13\n      jump\t// in\n    tag_150:\n    tag_149:\n      mload(0x40)\n      swap1\n      dup1\n      dup3\n      mstore\n      dup1\n      0x20\n      mul\n      0x20\n      add\n      dup3\n      add\n      0x40\n      mstore\n      dup1\n      iszero\n      tag_151\n      jumpi\n      dup2\n      0x20\n      add\n      0x20\n      dup3\n      mul\n      dup1\n      calldatasize\n      dup4\n      calldatacopy\n      dup1\n      dup3\n      add\n      swap2\n      pop\n      pop\n      swap1\n      pop\n    tag_151:\n      pop\n        /* \"contracts/verifier.sol\":3960:4003  uint[] memory input = new uint[](inputSize) */\n      swap1\n      pop\n        /* \"contracts/verifier.sol\":4018:4024  uint i */\n      0x00\n        /* \"contracts/verifier.sol\":4013:4320  for (uint i = 0; i < elements; i++)... */\n    tag_152:\n        /* \"contracts/verifier.sol\":4034:4042  elements */\n      dup4\n        /* \"contracts/verifier.sol\":4030:4031  i */\n      dup2\n        /* \"contracts/verifier.sol\":4030:4042  i < elements */\n      lt\n        /* \"contracts/verifier.sol\":4013:4320  for (uint i = 0; i < elements; i++)... */\n      iszero\n      tag_153\n      jumpi\n        /* \"contracts/verifier.sol\":4090:4092  p1 */\n      dup7\n        /* \"contracts/verifier.sol\":4093:4094  i */\n      dup2\n        /* \"contracts/verifier.sol\":4090:4095  p1[i] */\n      dup2\n      mload\n      dup2\n      lt\n      tag_155\n      jumpi\n      tag_156\n      tag_20\n      jump\t// in\n    tag_156:\n    tag_155:\n      0x20\n      mul\n      0x20\n      add\n      add\n      mload\n        /* \"contracts/verifier.sol\":4090:4097  p1[i].X */\n      0x00\n      add\n      mload\n        /* \"contracts/verifier.sol\":4071:4076  input */\n      dup3\n        /* \"contracts/verifier.sol\":4085:4086  0 */\n      0x00\n        /* \"contracts/verifier.sol\":4081:4082  6 */\n      0x06\n        /* \"contracts/verifier.sol\":4077:4078  i */\n      dup5\n        /* \"contracts/verifier.sol\":4077:4082  i * 6 */\n      tag_157\n      swap2\n      swap1\n      tag_148\n      jump\t// in\n    tag_157:\n        /* \"contracts/verifier.sol\":4077:4086  i * 6 + 0 */\n      tag_158\n      swap2\n      swap1\n      tag_31\n      jump\t// in\n    tag_158:\n        /* \"contracts/verifier.sol\":4071:4087  input[i * 6 + 0] */\n      dup2\n      mload\n      dup2\n      lt\n      tag_159\n      jumpi\n      tag_160\n      tag_20\n      jump\t// in\n    tag_160:\n    tag_159:\n      0x20\n      mul\n      0x20\n      add\n      add\n        /* \"contracts/verifier.sol\":4071:4097  input[i * 6 + 0] = p1[i].X */\n      dup2\n      dup2\n      mstore\n      pop\n      pop\n        /* \"contracts/verifier.sol\":4130:4132  p1 */\n      dup7\n        /* \"contracts/verifier.sol\":4133:4134  i */\n      dup2\n        /* \"contracts/verifier.sol\":4130:4135  p1[i] */\n      dup2\n      mload\n      dup2\n      lt\n      tag_161\n      jumpi\n      tag_162\n      tag_20\n      jump\t// in\n    tag_162:\n    tag_161:\n      0x20\n      mul\n      0x20\n      add\n      add\n      mload\n        /* \"contracts/verifier.sol\":4130:4137  p1[i].Y */\n      0x20\n      add\n      mload\n        /* \"contracts/verifier.sol\":4111:4116  input */\n      dup3\n        /* \"contracts/verifier.sol\":4125:4126  1 */\n      0x01\n        /* \"contracts/verifier.sol\":4121:4122  6 */\n      0x06\n        /* \"contracts/verifier.sol\":4117:4118  i */\n      dup5\n        /* \"contracts/verifier.sol\":4117:4122  i * 6 */\n      tag_163\n      swap2\n      swap1\n      tag_148\n      jump\t// in\n    tag_163:\n        /* \"contracts/verifier.sol\":4117:4126  i * 6 + 1 */\n      tag_164\n      swap2\n      swap1\n      tag_31\n      jump\t// in\n    tag_164:\n        /* \"contracts/verifier.sol\":4111:4127  input[i * 6 + 1] */\n      dup2\n      mload\n      dup2\n      lt\n      tag_165\n      jumpi\n      tag_166\n      tag_20\n      jump\t// in\n    tag_166:\n    tag_165:\n      0x20\n      mul\n      0x20\n      add\n      add\n        /* \"contracts/verifier.sol\":4111:4137  input[i * 6 + 1] = p1[i].Y */\n      dup2\n      dup2\n      mstore\n      pop\n      pop\n        /* \"contracts/verifier.sol\":4170:4172  p2 */\n      dup6\n        /* \"contracts/verifier.sol\":4173:4174  i */\n      dup2\n        /* \"contracts/verifier.sol\":4170:4175  p2[i] */\n      dup2\n      mload\n      dup2\n      lt\n      tag_167\n      jumpi\n      tag_168\n      tag_20\n      jump\t// in\n    tag_168:\n    tag_167:\n      0x20\n      mul\n      0x20\n      add\n      add\n      mload\n        /* \"contracts/verifier.sol\":4170:4177  p2[i].X */\n      0x00\n      add\n      mload\n        /* \"contracts/verifier.sol\":4178:4179  1 */\n      0x01\n        /* \"contracts/verifier.sol\":4170:4180  p2[i].X[1] */\n      0x02\n      dup2\n      lt\n      tag_169\n      jumpi\n      tag_170\n      tag_20\n      jump\t// in\n    tag_170:\n    tag_169:\n      0x20\n      mul\n      add\n      mload\n        /* \"contracts/verifier.sol\":4151:4156  input */\n      dup3\n        /* \"contracts/verifier.sol\":4165:4166  2 */\n      0x02\n        /* \"contracts/verifier.sol\":4161:4162  6 */\n      0x06\n        /* \"contracts/verifier.sol\":4157:4158  i */\n      dup5\n        /* \"contracts/verifier.sol\":4157:4162  i * 6 */\n      tag_171\n      swap2\n      swap1\n      tag_148\n      jump\t// in\n    tag_171:\n        /* \"contracts/verifier.sol\":4157:4166  i * 6 + 2 */\n      tag_172\n      swap2\n      swap1\n      tag_31\n      jump\t// in\n    tag_172:\n        /* \"contracts/verifier.sol\":4151:4167  input[i * 6 + 2] */\n      dup2\n      mload\n      dup2\n      lt\n      tag_173\n      jumpi\n      tag_174\n      tag_20\n      jump\t// in\n    tag_174:\n    tag_173:\n      0x20\n      mul\n      0x20\n      add\n      add\n        /* \"contracts/verifier.sol\":4151:4180  input[i * 6 + 2] = p2[i].X[1] */\n      dup2\n      dup2\n      mstore\n      pop\n      pop\n        /* \"contracts/verifier.sol\":4213:4215  p2 */\n      dup6\n        /* \"contracts/verifier.sol\":4216:4217  i */\n      dup2\n        /* \"contracts/verifier.sol\":4213:4218  p2[i] */\n      dup2\n      mload\n      dup2\n      lt\n      tag_175\n      jumpi\n      tag_176\n      tag_20\n      jump\t// in\n    tag_176:\n    tag_175:\n      0x20\n      mul\n      0x20\n      add\n      add\n      mload\n        /* \"contracts/verifier.sol\":4213:4220  p2[i].X */\n      0x00\n      add\n      mload\n        /* \"contracts/verifier.sol\":4221:4222  0 */\n      0x00\n        /* \"contracts/verifier.sol\":4213:4223  p2[i].X[0] */\n      0x02\n      dup2\n      lt\n      tag_177\n      jumpi\n      tag_178\n      tag_20\n      jump\t// in\n    tag_178:\n    tag_177:\n      0x20\n      mul\n      add\n      mload\n        /* \"contracts/verifier.sol\":4194:4199  input */\n      dup3\n        /* \"contracts/verifier.sol\":4208:4209  3 */\n      0x03\n        /* \"contracts/verifier.sol\":4204:4205  6 */\n      0x06\n        /* \"contracts/verifier.sol\":4200:4201  i */\n      dup5\n        /* \"contracts/verifier.sol\":4200:4205  i * 6 */\n      tag_179\n      swap2\n      swap1\n      tag_148\n      jump\t// in\n    tag_179:\n        /* \"contracts/verifier.sol\":4200:4209  i * 6 + 3 */\n      tag_180\n      swap2\n      swap1\n      tag_31\n      jump\t// in\n    tag_180:\n        /* \"contracts/verifier.sol\":4194:4210  input[i * 6 + 3] */\n      dup2\n      mload\n      dup2\n      lt\n      tag_181\n      jumpi\n      tag_182\n      tag_20\n      jump\t// in\n    tag_182:\n    tag_181:\n      0x20\n      mul\n      0x20\n      add\n      add\n        /* \"contracts/verifier.sol\":4194:4223  input[i * 6 + 3] = p2[i].X[0] */\n      dup2\n      dup2\n      mstore\n      pop\n      pop\n        /* \"contracts/verifier.sol\":4256:4258  p2 */\n      dup6\n        /* \"contracts/verifier.sol\":4259:4260  i */\n      dup2\n        /* \"contracts/verifier.sol\":4256:4261  p2[i] */\n      dup2\n      mload\n      dup2\n      lt\n      tag_183\n      jumpi\n      tag_184\n      tag_20\n      jump\t// in\n    tag_184:\n    tag_183:\n      0x20\n      mul\n      0x20\n      add\n      add\n      mload\n        /* \"contracts/verifier.sol\":4256:4263  p2[i].Y */\n      0x20\n      add\n      mload\n        /* \"contracts/verifier.sol\":4264:4265  1 */\n      0x01\n        /* \"contracts/verifier.sol\":4256:4266  p2[i].Y[1] */\n      0x02\n      dup2\n      lt\n      tag_185\n      jumpi\n      tag_186\n      tag_20\n      jump\t// in\n    tag_186:\n    tag_185:\n      0x20\n      mul\n      add\n      mload\n        /* \"contracts/verifier.sol\":4237:4242  input */\n      dup3\n        /* \"contracts/verifier.sol\":4251:4252  4 */\n      0x04\n        /* \"contracts/verifier.sol\":4247:4248  6 */\n      0x06\n        /* \"contracts/verifier.sol\":4243:4244  i */\n      dup5\n        /* \"contracts/verifier.sol\":4243:4248  i * 6 */\n      tag_187\n      swap2\n      swap1\n      tag_148\n      jump\t// in\n    tag_187:\n        /* \"contracts/verifier.sol\":4243:4252  i * 6 + 4 */\n      tag_188\n      swap2\n      swap1\n      tag_31\n      jump\t// in\n    tag_188:\n        /* \"contracts/verifier.sol\":4237:4253  input[i * 6 + 4] */\n      dup2\n      mload\n      dup2\n      lt\n      tag_189\n      jumpi\n      tag_190\n      tag_20\n      jump\t// in\n    tag_190:\n    tag_189:\n      0x20\n      mul\n      0x20\n      add\n      add\n        /* \"contracts/verifier.sol\":4237:4266  input[i * 6 + 4] = p2[i].Y[1] */\n      dup2\n      dup2\n      mstore\n      pop\n      pop\n        /* \"contracts/verifier.sol\":4299:4301  p2 */\n      dup6\n        /* \"contracts/verifier.sol\":4302:4303  i */\n      dup2\n        /* \"contracts/verifier.sol\":4299:4304  p2[i] */\n      dup2\n      mload\n      dup2\n      lt\n      tag_191\n      jumpi\n      tag_192\n      tag_20\n      jump\t// in\n    tag_192:\n    tag_191:\n      0x20\n      mul\n      0x20\n      add\n      add\n      mload\n        /* \"contracts/verifier.sol\":4299:4306  p2[i].Y */\n      0x20\n      add\n      mload\n        /* \"contracts/verifier.sol\":4307:4308  0 */\n      0x00\n        /* \"contracts/verifier.sol\":4299:4309  p2[i].Y[0] */\n      0x02\n      dup2\n      lt\n      tag_193\n      jumpi\n      tag_194\n      tag_20\n      jump\t// in\n    tag_194:\n    tag_193:\n      0x20\n      mul\n      add\n      mload\n        /* \"contracts/verifier.sol\":4280:4285  input */\n      dup3\n        /* \"contracts/verifier.sol\":4294:4295  5 */\n      0x05\n        /* \"contracts/verifier.sol\":4290:4291  6 */\n      0x06\n        /* \"contracts/verifier.sol\":4286:4287  i */\n      dup5\n        /* \"contracts/verifier.sol\":4286:4291  i * 6 */\n      tag_195\n      swap2\n      swap1\n      tag_148\n      jump\t// in\n    tag_195:\n        /* \"contracts/verifier.sol\":4286:4295  i * 6 + 5 */\n      tag_196\n      swap2\n      swap1\n      tag_31\n      jump\t// in\n    tag_196:\n        /* \"contracts/verifier.sol\":4280:4296  input[i * 6 + 5] */\n      dup2\n      mload\n      dup2\n      lt\n      tag_197\n      jumpi\n      tag_198\n      tag_20\n      jump\t// in\n    tag_198:\n    tag_197:\n      0x20\n      mul\n      0x20\n      add\n      add\n        /* \"contracts/verifier.sol\":4280:4309  input[i * 6 + 5] = p2[i].Y[0] */\n      dup2\n      dup2\n      mstore\n      pop\n      pop\n        /* \"contracts/verifier.sol\":4044:4047  i++ */\n      dup1\n      dup1\n      0x01\n      add\n      swap2\n      pop\n      pop\n        /* \"contracts/verifier.sol\":4013:4320  for (uint i = 0; i < elements; i++)... */\n      jump(tag_152)\n    tag_153:\n      pop\n        /* \"contracts/verifier.sol\":4329:4347  uint[1] memory out */\n      tag_199\n      tag_200\n      jump\t// in\n    tag_199:\n        /* \"contracts/verifier.sol\":4357:4369  bool success */\n      0x00\n        /* \"contracts/verifier.sol\":4490:4494  0x20 */\n      0x20\n        /* \"contracts/verifier.sol\":4485:4488  out */\n      dup3\n        /* \"contracts/verifier.sol\":4478:4482  0x20 */\n      0x20\n        /* \"contracts/verifier.sol\":4467:4476  inputSize */\n      dup7\n        /* \"contracts/verifier.sol\":4463:4483  mul(inputSize, 0x20) */\n      mul\n        /* \"contracts/verifier.sol\":4456:4460  0x20 */\n      0x20\n        /* \"contracts/verifier.sol\":4449:4454  input */\n      dup7\n        /* \"contracts/verifier.sol\":4445:4461  add(input, 0x20) */\n      add\n        /* \"contracts/verifier.sol\":4442:4443  8 */\n      0x08\n        /* \"contracts/verifier.sol\":4435:4439  2000 */\n      0x07d0\n        /* \"contracts/verifier.sol\":4428:4433  gas() */\n      gas\n        /* \"contracts/verifier.sol\":4424:4440  sub(gas(), 2000) */\n      sub\n        /* \"contracts/verifier.sol\":4413:4495  staticcall(sub(gas(), 2000), 8, add(input, 0x20), mul(inputSize, 0x20), out, 0x20) */\n      staticcall\n        /* \"contracts/verifier.sol\":4402:4495  success := staticcall(sub(gas(), 2000), 8, add(input, 0x20), mul(inputSize, 0x20), out, 0x20) */\n      swap1\n      pop\n        /* \"contracts/verifier.sol\":4572:4579  success */\n      dup1\n        /* \"contracts/verifier.sol\":4585:4586  0 */\n      0x00\n        /* \"contracts/verifier.sol\":4580:4600  case 0 { invalid() } */\n      dup2\n      sub\n        /* \"contracts/verifier.sol\":4565:4600  switch success case 0 { invalid() } */\n      tag_201\n        /* \"contracts/verifier.sol\":4580:4600  case 0 { invalid() } */\n      jumpi\n        /* \"contracts/verifier.sol\":4589:4598  invalid() */\n      invalid\n        /* \"contracts/verifier.sol\":4565:4600  switch success case 0 { invalid() } */\n    tag_201:\n      pop\n        /* \"contracts/verifier.sol\":4627:4634  success */\n      dup1\n        /* \"contracts/verifier.sol\":4619:4635  require(success) */\n      tag_203\n      jumpi\n      0x00\n      dup1\n      revert\n    tag_203:\n        /* \"contracts/verifier.sol\":4662:4663  0 */\n      0x00\n        /* \"contracts/verifier.sol\":4652:4655  out */\n      dup3\n        /* \"contracts/verifier.sol\":4656:4657  0 */\n      0x00\n        /* \"contracts/verifier.sol\":4652:4658  out[0] */\n      0x01\n      dup2\n      lt\n      tag_204\n      jumpi\n      tag_205\n      tag_20\n      jump\t// in\n    tag_205:\n    tag_204:\n      0x20\n      mul\n      add\n      mload\n        /* \"contracts/verifier.sol\":4652:4663  out[0] != 0 */\n      eq\n      iszero\n        /* \"contracts/verifier.sol\":4645:4663  return out[0] != 0 */\n      swap6\n      pop\n      pop\n      pop\n      pop\n      pop\n      pop\n        /* \"contracts/verifier.sol\":3747:4670  function pairing(G1Point[] memory p1, G2Point[] memory p2) internal view returns (bool) {... */\n      swap3\n      swap2\n      pop\n      pop\n      jump\t// out\n    tag_59:\n      mload(0x40)\n      dup1\n      0xa0\n      add\n      0x40\n      mstore\n      dup1\n      tag_206\n      tag_66\n      jump\t// in\n    tag_206:\n      dup2\n      mstore\n      0x20\n      add\n      tag_207\n      tag_126\n      jump\t// in\n    tag_207:\n      dup2\n      mstore\n      0x20\n      add\n      tag_208\n      tag_126\n      jump\t// in\n    tag_208:\n      dup2\n      mstore\n      0x20\n      add\n      tag_209\n      tag_126\n      jump\t// in\n    tag_209:\n      dup2\n      mstore\n      0x20\n      add\n      0x60\n      dup2\n      mstore\n      pop\n      swap1\n      jump\t// out\n    tag_66:\n      mload(0x40)\n      dup1\n      0x40\n      add\n      0x40\n      mstore\n      dup1\n      0x00\n      dup2\n      mstore\n      0x20\n      add\n      0x00\n      dup2\n      mstore\n      pop\n      swap1\n      jump\t// out\n    tag_82:\n      mload(0x40)\n      dup1\n      0x60\n      add\n      0x40\n      mstore\n      dup1\n      0x03\n      swap1\n      0x20\n      dup3\n      mul\n      dup1\n      calldatasize\n      dup4\n      calldatacopy\n      dup1\n      dup3\n      add\n      swap2\n      pop\n      pop\n      swap1\n      pop\n      pop\n      swap1\n      jump\t// out\n    tag_95:\n      mload(0x40)\n      dup1\n      0x80\n      add\n      0x40\n      mstore\n      dup1\n      0x04\n      swap1\n      0x20\n      dup3\n      mul\n      dup1\n      calldatasize\n      dup4\n      calldatacopy\n      dup1\n      dup3\n      add\n      swap2\n      pop\n      pop\n      swap1\n      pop\n      pop\n      swap1\n      jump\t// out\n    tag_126:\n      mload(0x40)\n      dup1\n      0x40\n      add\n      0x40\n      mstore\n      dup1\n      tag_210\n      tag_211\n      jump\t// in\n    tag_210:\n      dup2\n      mstore\n      0x20\n      add\n      tag_212\n      tag_211\n      jump\t// in\n    tag_212:\n      dup2\n      mstore\n      pop\n      swap1\n      jump\t// out\n    tag_200:\n      mload(0x40)\n      dup1\n      0x20\n      add\n      0x40\n      mstore\n      dup1\n      0x01\n      swap1\n      0x20\n      dup3\n      mul\n      dup1\n      calldatasize\n      dup4\n      calldatacopy\n      dup1\n      dup3\n      add\n      swap2\n      pop\n      pop\n      swap1\n      pop\n      pop\n      swap1\n      jump\t// out\n    tag_211:\n      mload(0x40)\n      dup1\n      0x40\n      add\n      0x40\n      mstore\n      dup1\n      0x02\n      swap1\n      0x20\n      dup3\n      mul\n      dup1\n      calldatasize\n      dup4\n      calldatacopy\n      dup1\n      dup3\n      add\n      swap2\n      pop\n      pop\n      swap1\n      pop\n      pop\n      swap1\n      jump\t// out\n        /* \"#utility.yul\":7:82   */\n    tag_213:\n        /* \"#utility.yul\":40:46   */\n      0x00\n        /* \"#utility.yul\":73:75   */\n      0x40\n        /* \"#utility.yul\":67:76   */\n      mload\n        /* \"#utility.yul\":57:76   */\n      swap1\n      pop\n        /* \"#utility.yul\":7:82   */\n      swap1\n      jump\t// out\n        /* \"#utility.yul\":88:205   */\n    tag_214:\n        /* \"#utility.yul\":197:198   */\n      0x00\n        /* \"#utility.yul\":194:195   */\n      dup1\n        /* \"#utility.yul\":187:199   */\n      revert\n        /* \"#utility.yul\":334:451   */\n    tag_216:\n        /* \"#utility.yul\":443:444   */\n      0x00\n        /* \"#utility.yul\":440:441   */\n      dup1\n        /* \"#utility.yul\":433:445   */\n      revert\n        /* \"#utility.yul\":457:559   */\n    tag_217:\n        /* \"#utility.yul\":498:504   */\n      0x00\n        /* \"#utility.yul\":549:551   */\n      0x1f\n        /* \"#utility.yul\":545:552   */\n      not\n        /* \"#utility.yul\":540:542   */\n      0x1f\n        /* \"#utility.yul\":533:538   */\n      dup4\n        /* \"#utility.yul\":529:543   */\n      add\n        /* \"#utility.yul\":525:553   */\n      and\n        /* \"#utility.yul\":515:553   */\n      swap1\n      pop\n        /* \"#utility.yul\":457:559   */\n      swap2\n      swap1\n      pop\n      jump\t// out\n        /* \"#utility.yul\":565:745   */\n    tag_13:\n        /* \"#utility.yul\":613:690   */\n      0x4e487b7100000000000000000000000000000000000000000000000000000000\n        /* \"#utility.yul\":610:611   */\n      0x00\n        /* \"#utility.yul\":603:691   */\n      mstore\n        /* \"#utility.yul\":710:714   */\n      0x41\n        /* \"#utility.yul\":707:708   */\n      0x04\n        /* \"#utility.yul\":700:715   */\n      mstore\n        /* \"#utility.yul\":734:738   */\n      0x24\n        /* \"#utility.yul\":731:732   */\n      0x00\n        /* \"#utility.yul\":724:739   */\n      revert\n        /* \"#utility.yul\":751:1032   */\n    tag_218:\n        /* \"#utility.yul\":834:861   */\n      tag_247\n        /* \"#utility.yul\":856:860   */\n      dup3\n        /* \"#utility.yul\":834:861   */\n      tag_217\n      jump\t// in\n    tag_247:\n        /* \"#utility.yul\":826:832   */\n      dup2\n        /* \"#utility.yul\":822:862   */\n      add\n        /* \"#utility.yul\":964:970   */\n      dup2\n        /* \"#utility.yul\":952:962   */\n      dup2\n        /* \"#utility.yul\":949:971   */\n      lt\n        /* \"#utility.yul\":928:946   */\n      0xffffffffffffffff\n        /* \"#utility.yul\":916:926   */\n      dup3\n        /* \"#utility.yul\":913:947   */\n      gt\n        /* \"#utility.yul\":910:972   */\n      or\n        /* \"#utility.yul\":907:995   */\n      iszero\n      tag_248\n      jumpi\n        /* \"#utility.yul\":975:993   */\n      tag_249\n      tag_13\n      jump\t// in\n    tag_249:\n        /* \"#utility.yul\":907:995   */\n    tag_248:\n        /* \"#utility.yul\":1015:1025   */\n      dup1\n        /* \"#utility.yul\":1011:1013   */\n      0x40\n        /* \"#utility.yul\":1004:1026   */\n      mstore\n        /* \"#utility.yul\":794:1032   */\n      pop\n        /* \"#utility.yul\":751:1032   */\n      pop\n      pop\n      jump\t// out\n        /* \"#utility.yul\":1038:1167   */\n    tag_219:\n        /* \"#utility.yul\":1072:1078   */\n      0x00\n        /* \"#utility.yul\":1099:1119   */\n      tag_251\n      tag_213\n      jump\t// in\n    tag_251:\n        /* \"#utility.yul\":1089:1119   */\n      swap1\n      pop\n        /* \"#utility.yul\":1128:1161   */\n      tag_252\n        /* \"#utility.yul\":1156:1160   */\n      dup3\n        /* \"#utility.yul\":1148:1154   */\n      dup3\n        /* \"#utility.yul\":1128:1161   */\n      tag_218\n      jump\t// in\n    tag_252:\n        /* \"#utility.yul\":1038:1167   */\n      swap2\n      swap1\n      pop\n      jump\t// out\n        /* \"#utility.yul\":1296:1373   */\n    tag_221:\n        /* \"#utility.yul\":1333:1340   */\n      0x00\n        /* \"#utility.yul\":1362:1367   */\n      dup2\n        /* \"#utility.yul\":1351:1367   */\n      swap1\n      pop\n        /* \"#utility.yul\":1296:1373   */\n      swap2\n      swap1\n      pop\n      jump\t// out\n        /* \"#utility.yul\":1379:1501   */\n    tag_222:\n        /* \"#utility.yul\":1452:1476   */\n      tag_256\n        /* \"#utility.yul\":1470:1475   */\n      dup2\n        /* \"#utility.yul\":1452:1476   */\n      tag_221\n      jump\t// in\n    tag_256:\n        /* \"#utility.yul\":1445:1450   */\n      dup2\n        /* \"#utility.yul\":1442:1477   */\n      eq\n        /* \"#utility.yul\":1432:1495   */\n      tag_257\n      jumpi\n        /* \"#utility.yul\":1491:1492   */\n      0x00\n        /* \"#utility.yul\":1488:1489   */\n      dup1\n        /* \"#utility.yul\":1481:1493   */\n      revert\n        /* \"#utility.yul\":1432:1495   */\n    tag_257:\n        /* \"#utility.yul\":1379:1501   */\n      pop\n      jump\t// out\n        /* \"#utility.yul\":1507:1646   */\n    tag_223:\n        /* \"#utility.yul\":1553:1558   */\n      0x00\n        /* \"#utility.yul\":1591:1597   */\n      dup2\n        /* \"#utility.yul\":1578:1598   */\n      calldataload\n        /* \"#utility.yul\":1569:1598   */\n      swap1\n      pop\n        /* \"#utility.yul\":1607:1640   */\n      tag_259\n        /* \"#utility.yul\":1634:1639   */\n      dup2\n        /* \"#utility.yul\":1607:1640   */\n      tag_222\n      jump\t// in\n    tag_259:\n        /* \"#utility.yul\":1507:1646   */\n      swap3\n      swap2\n      pop\n      pop\n      jump\t// out\n        /* \"#utility.yul\":1682:2247   */\n    tag_224:\n        /* \"#utility.yul\":1753:1758   */\n      0x00\n        /* \"#utility.yul\":1797:1801   */\n      0x40\n        /* \"#utility.yul\":1785:1794   */\n      dup3\n        /* \"#utility.yul\":1780:1783   */\n      dup5\n        /* \"#utility.yul\":1776:1795   */\n      sub\n        /* \"#utility.yul\":1772:1802   */\n      slt\n        /* \"#utility.yul\":1769:1886   */\n      iszero\n      tag_261\n      jumpi\n        /* \"#utility.yul\":1805:1884   */\n      tag_262\n      tag_216\n      jump\t// in\n    tag_262:\n        /* \"#utility.yul\":1769:1886   */\n    tag_261:\n        /* \"#utility.yul\":1904:1925   */\n      tag_263\n        /* \"#utility.yul\":1920:1924   */\n      0x40\n        /* \"#utility.yul\":1904:1925   */\n      tag_219\n      jump\t// in\n    tag_263:\n        /* \"#utility.yul\":1895:1925   */\n      swap1\n      pop\n        /* \"#utility.yul\":1981:1982   */\n      0x00\n        /* \"#utility.yul\":2021:2070   */\n      tag_264\n        /* \"#utility.yul\":2066:2069   */\n      dup5\n        /* \"#utility.yul\":2057:2063   */\n      dup3\n        /* \"#utility.yul\":2046:2055   */\n      dup6\n        /* \"#utility.yul\":2042:2064   */\n      add\n        /* \"#utility.yul\":2021:2070   */\n      tag_223\n      jump\t// in\n    tag_264:\n        /* \"#utility.yul\":2014:2018   */\n      0x00\n        /* \"#utility.yul\":2007:2012   */\n      dup4\n        /* \"#utility.yul\":2003:2019   */\n      add\n        /* \"#utility.yul\":1996:2071   */\n      mstore\n        /* \"#utility.yul\":1935:2082   */\n      pop\n        /* \"#utility.yul\":2138:2140   */\n      0x20\n        /* \"#utility.yul\":2179:2228   */\n      tag_265\n        /* \"#utility.yul\":2224:2227   */\n      dup5\n        /* \"#utility.yul\":2215:2221   */\n      dup3\n        /* \"#utility.yul\":2204:2213   */\n      dup6\n        /* \"#utility.yul\":2200:2222   */\n      add\n        /* \"#utility.yul\":2179:2228   */\n      tag_223\n      jump\t// in\n    tag_265:\n        /* \"#utility.yul\":2172:2176   */\n      0x20\n        /* \"#utility.yul\":2165:2170   */\n      dup4\n        /* \"#utility.yul\":2161:2177   */\n      add\n        /* \"#utility.yul\":2154:2229   */\n      mstore\n        /* \"#utility.yul\":2092:2240   */\n      pop\n        /* \"#utility.yul\":1682:2247   */\n      swap3\n      swap2\n      pop\n      pop\n      jump\t// out\n        /* \"#utility.yul\":2253:2370   */\n    tag_225:\n        /* \"#utility.yul\":2362:2363   */\n      0x00\n        /* \"#utility.yul\":2359:2360   */\n      dup1\n        /* \"#utility.yul\":2352:2364   */\n      revert\n        /* \"#utility.yul\":2376:2625   */\n    tag_226:\n        /* \"#utility.yul\":2451:2455   */\n      0x00\n        /* \"#utility.yul\":2541:2559   */\n      0xffffffffffffffff\n        /* \"#utility.yul\":2533:2539   */\n      dup3\n        /* \"#utility.yul\":2530:2560   */\n      gt\n        /* \"#utility.yul\":2527:2583   */\n      iszero\n      tag_268\n      jumpi\n        /* \"#utility.yul\":2563:2581   */\n      tag_269\n      tag_13\n      jump\t// in\n    tag_269:\n        /* \"#utility.yul\":2527:2583   */\n    tag_268:\n        /* \"#utility.yul\":2613:2617   */\n      0x20\n        /* \"#utility.yul\":2605:2611   */\n      dup3\n        /* \"#utility.yul\":2601:2618   */\n      mul\n        /* \"#utility.yul\":2593:2618   */\n      swap1\n      pop\n        /* \"#utility.yul\":2376:2625   */\n      swap2\n      swap1\n      pop\n      jump\t// out\n        /* \"#utility.yul\":2631:2748   */\n    tag_227:\n        /* \"#utility.yul\":2740:2741   */\n      0x00\n        /* \"#utility.yul\":2737:2738   */\n      dup1\n        /* \"#utility.yul\":2730:2742   */\n      revert\n        /* \"#utility.yul\":2772:3415   */\n    tag_228:\n        /* \"#utility.yul\":2866:2871   */\n      0x00\n        /* \"#utility.yul\":2891:2970   */\n      tag_272\n        /* \"#utility.yul\":2907:2969   */\n      tag_273\n        /* \"#utility.yul\":2962:2968   */\n      dup5\n        /* \"#utility.yul\":2907:2969   */\n      tag_226\n      jump\t// in\n    tag_273:\n        /* \"#utility.yul\":2891:2970   */\n      tag_219\n      jump\t// in\n    tag_272:\n        /* \"#utility.yul\":2882:2970   */\n      swap1\n      pop\n        /* \"#utility.yul\":2990:2995   */\n      dup1\n        /* \"#utility.yul\":3043:3047   */\n      0x20\n        /* \"#utility.yul\":3035:3041   */\n      dup5\n        /* \"#utility.yul\":3031:3048   */\n      mul\n        /* \"#utility.yul\":3023:3029   */\n      dup4\n        /* \"#utility.yul\":3019:3049   */\n      add\n        /* \"#utility.yul\":3072:3075   */\n      dup6\n        /* \"#utility.yul\":3064:3070   */\n      dup2\n        /* \"#utility.yul\":3061:3076   */\n      gt\n        /* \"#utility.yul\":3058:3180   */\n      iszero\n      tag_274\n      jumpi\n        /* \"#utility.yul\":3091:3170   */\n      tag_275\n      tag_227\n      jump\t// in\n    tag_275:\n        /* \"#utility.yul\":3058:3180   */\n    tag_274:\n        /* \"#utility.yul\":3206:3212   */\n      dup4\n        /* \"#utility.yul\":3189:3409   */\n    tag_276:\n        /* \"#utility.yul\":3223:3229   */\n      dup2\n        /* \"#utility.yul\":3218:3221   */\n      dup2\n        /* \"#utility.yul\":3215:3230   */\n      lt\n        /* \"#utility.yul\":3189:3409   */\n      iszero\n      tag_278\n      jumpi\n        /* \"#utility.yul\":3298:3301   */\n      dup1\n        /* \"#utility.yul\":3327:3364   */\n      tag_279\n        /* \"#utility.yul\":3360:3363   */\n      dup9\n        /* \"#utility.yul\":3348:3358   */\n      dup3\n        /* \"#utility.yul\":3327:3364   */\n      tag_223\n      jump\t// in\n    tag_279:\n        /* \"#utility.yul\":3322:3325   */\n      dup5\n        /* \"#utility.yul\":3315:3365   */\n      mstore\n        /* \"#utility.yul\":3394:3398   */\n      0x20\n        /* \"#utility.yul\":3389:3392   */\n      dup5\n        /* \"#utility.yul\":3385:3399   */\n      add\n        /* \"#utility.yul\":3378:3399   */\n      swap4\n      pop\n        /* \"#utility.yul\":3265:3409   */\n      pop\n        /* \"#utility.yul\":3249:3253   */\n      0x20\n        /* \"#utility.yul\":3244:3247   */\n      dup2\n        /* \"#utility.yul\":3240:3254   */\n      add\n        /* \"#utility.yul\":3233:3254   */\n      swap1\n      pop\n        /* \"#utility.yul\":3189:3409   */\n      jump(tag_276)\n    tag_278:\n        /* \"#utility.yul\":3193:3214   */\n      pop\n        /* \"#utility.yul\":2872:3415   */\n      pop\n      pop\n        /* \"#utility.yul\":2772:3415   */\n      swap4\n      swap3\n      pop\n      pop\n      pop\n      jump\t// out\n        /* \"#utility.yul\":3439:3778   */\n    tag_229:\n        /* \"#utility.yul\":3508:3513   */\n      0x00\n        /* \"#utility.yul\":3557:3560   */\n      dup3\n        /* \"#utility.yul\":3550:3554   */\n      0x1f\n        /* \"#utility.yul\":3542:3548   */\n      dup4\n        /* \"#utility.yul\":3538:3555   */\n      add\n        /* \"#utility.yul\":3534:3561   */\n      slt\n        /* \"#utility.yul\":3524:3646   */\n      tag_281\n      jumpi\n        /* \"#utility.yul\":3565:3644   */\n      tag_282\n      tag_225\n      jump\t// in\n    tag_282:\n        /* \"#utility.yul\":3524:3646   */\n    tag_281:\n        /* \"#utility.yul\":3669:3673   */\n      0x02\n        /* \"#utility.yul\":3691:3772   */\n      tag_283\n        /* \"#utility.yul\":3768:3771   */\n      dup5\n        /* \"#utility.yul\":3760:3766   */\n      dup3\n        /* \"#utility.yul\":3752:3758   */\n      dup6\n        /* \"#utility.yul\":3691:3772   */\n      tag_228\n      jump\t// in\n    tag_283:\n        /* \"#utility.yul\":3682:3772   */\n      swap2\n      pop\n        /* \"#utility.yul\":3514:3778   */\n      pop\n        /* \"#utility.yul\":3439:3778   */\n      swap3\n      swap2\n      pop\n      pop\n      jump\t// out\n        /* \"#utility.yul\":3814:4426   */\n    tag_230:\n        /* \"#utility.yul\":3886:3891   */\n      0x00\n        /* \"#utility.yul\":3930:3934   */\n      0x80\n        /* \"#utility.yul\":3918:3927   */\n      dup3\n        /* \"#utility.yul\":3913:3916   */\n      dup5\n        /* \"#utility.yul\":3909:3928   */\n      sub\n        /* \"#utility.yul\":3905:3935   */\n      slt\n        /* \"#utility.yul\":3902:4019   */\n      iszero\n      tag_285\n      jumpi\n        /* \"#utility.yul\":3938:4017   */\n      tag_286\n      tag_216\n      jump\t// in\n    tag_286:\n        /* \"#utility.yul\":3902:4019   */\n    tag_285:\n        /* \"#utility.yul\":4037:4058   */\n      tag_287\n        /* \"#utility.yul\":4053:4057   */\n      0x40\n        /* \"#utility.yul\":4037:4058   */\n      tag_219\n      jump\t// in\n    tag_287:\n        /* \"#utility.yul\":4028:4058   */\n      swap1\n      pop\n        /* \"#utility.yul\":4114:4115   */\n      0x00\n        /* \"#utility.yul\":4154:4226   */\n      tag_288\n        /* \"#utility.yul\":4222:4225   */\n      dup5\n        /* \"#utility.yul\":4213:4219   */\n      dup3\n        /* \"#utility.yul\":4202:4211   */\n      dup6\n        /* \"#utility.yul\":4198:4220   */\n      add\n        /* \"#utility.yul\":4154:4226   */\n      tag_229\n      jump\t// in\n    tag_288:\n        /* \"#utility.yul\":4147:4151   */\n      0x00\n        /* \"#utility.yul\":4140:4145   */\n      dup4\n        /* \"#utility.yul\":4136:4152   */\n      add\n        /* \"#utility.yul\":4129:4227   */\n      mstore\n        /* \"#utility.yul\":4068:4238   */\n      pop\n        /* \"#utility.yul\":4294:4296   */\n      0x40\n        /* \"#utility.yul\":4335:4407   */\n      tag_289\n        /* \"#utility.yul\":4403:4406   */\n      dup5\n        /* \"#utility.yul\":4394:4400   */\n      dup3\n        /* \"#utility.yul\":4383:4392   */\n      dup6\n        /* \"#utility.yul\":4379:4401   */\n      add\n        /* \"#utility.yul\":4335:4407   */\n      tag_229\n      jump\t// in\n    tag_289:\n        /* \"#utility.yul\":4328:4332   */\n      0x20\n        /* \"#utility.yul\":4321:4326   */\n      dup4\n        /* \"#utility.yul\":4317:4333   */\n      add\n        /* \"#utility.yul\":4310:4408   */\n      mstore\n        /* \"#utility.yul\":4248:4419   */\n      pop\n        /* \"#utility.yul\":3814:4426   */\n      swap3\n      swap2\n      pop\n      pop\n      jump\t// out\n        /* \"#utility.yul\":4461:5254   */\n    tag_231:\n        /* \"#utility.yul\":4532:4537   */\n      0x00\n        /* \"#utility.yul\":4576:4582   */\n      0x0100\n        /* \"#utility.yul\":4564:4573   */\n      dup3\n        /* \"#utility.yul\":4559:4562   */\n      dup5\n        /* \"#utility.yul\":4555:4574   */\n      sub\n        /* \"#utility.yul\":4551:4583   */\n      slt\n        /* \"#utility.yul\":4548:4667   */\n      iszero\n      tag_291\n      jumpi\n        /* \"#utility.yul\":4586:4665   */\n      tag_292\n      tag_216\n      jump\t// in\n    tag_292:\n        /* \"#utility.yul\":4548:4667   */\n    tag_291:\n        /* \"#utility.yul\":4685:4706   */\n      tag_293\n        /* \"#utility.yul\":4701:4705   */\n      0x60\n        /* \"#utility.yul\":4685:4706   */\n      tag_219\n      jump\t// in\n    tag_293:\n        /* \"#utility.yul\":4676:4706   */\n      swap1\n      pop\n        /* \"#utility.yul\":4762:4763   */\n      0x00\n        /* \"#utility.yul\":4802:4873   */\n      tag_294\n        /* \"#utility.yul\":4869:4872   */\n      dup5\n        /* \"#utility.yul\":4860:4866   */\n      dup3\n        /* \"#utility.yul\":4849:4858   */\n      dup6\n        /* \"#utility.yul\":4845:4867   */\n      add\n        /* \"#utility.yul\":4802:4873   */\n      tag_224\n      jump\t// in\n    tag_294:\n        /* \"#utility.yul\":4795:4799   */\n      0x00\n        /* \"#utility.yul\":4788:4793   */\n      dup4\n        /* \"#utility.yul\":4784:4800   */\n      add\n        /* \"#utility.yul\":4777:4874   */\n      mstore\n        /* \"#utility.yul\":4716:4885   */\n      pop\n        /* \"#utility.yul\":4941:4943   */\n      0x40\n        /* \"#utility.yul\":4982:5054   */\n      tag_295\n        /* \"#utility.yul\":5050:5053   */\n      dup5\n        /* \"#utility.yul\":5041:5047   */\n      dup3\n        /* \"#utility.yul\":5030:5039   */\n      dup6\n        /* \"#utility.yul\":5026:5048   */\n      add\n        /* \"#utility.yul\":4982:5054   */\n      tag_230\n      jump\t// in\n    tag_295:\n        /* \"#utility.yul\":4975:4979   */\n      0x20\n        /* \"#utility.yul\":4968:4973   */\n      dup4\n        /* \"#utility.yul\":4964:4980   */\n      add\n        /* \"#utility.yul\":4957:5055   */\n      mstore\n        /* \"#utility.yul\":4895:5066   */\n      pop\n        /* \"#utility.yul\":5122:5125   */\n      0xc0\n        /* \"#utility.yul\":5164:5235   */\n      tag_296\n        /* \"#utility.yul\":5231:5234   */\n      dup5\n        /* \"#utility.yul\":5222:5228   */\n      dup3\n        /* \"#utility.yul\":5211:5220   */\n      dup6\n        /* \"#utility.yul\":5207:5229   */\n      add\n        /* \"#utility.yul\":5164:5235   */\n      tag_224\n      jump\t// in\n    tag_296:\n        /* \"#utility.yul\":5157:5161   */\n      0x40\n        /* \"#utility.yul\":5150:5155   */\n      dup4\n        /* \"#utility.yul\":5146:5162   */\n      add\n        /* \"#utility.yul\":5139:5236   */\n      mstore\n        /* \"#utility.yul\":5076:5247   */\n      pop\n        /* \"#utility.yul\":4461:5254   */\n      swap3\n      swap2\n      pop\n      pop\n      jump\t// out\n        /* \"#utility.yul\":5260:5509   */\n    tag_232:\n        /* \"#utility.yul\":5335:5339   */\n      0x00\n        /* \"#utility.yul\":5425:5443   */\n      0xffffffffffffffff\n        /* \"#utility.yul\":5417:5423   */\n      dup3\n        /* \"#utility.yul\":5414:5444   */\n      gt\n        /* \"#utility.yul\":5411:5467   */\n      iszero\n      tag_298\n      jumpi\n        /* \"#utility.yul\":5447:5465   */\n      tag_299\n      tag_13\n      jump\t// in\n    tag_299:\n        /* \"#utility.yul\":5411:5467   */\n    tag_298:\n        /* \"#utility.yul\":5497:5501   */\n      0x20\n        /* \"#utility.yul\":5489:5495   */\n      dup3\n        /* \"#utility.yul\":5485:5502   */\n      mul\n        /* \"#utility.yul\":5477:5502   */\n      swap1\n      pop\n        /* \"#utility.yul\":5260:5509   */\n      swap2\n      swap1\n      pop\n      jump\t// out\n        /* \"#utility.yul\":5533:6176   */\n    tag_233:\n        /* \"#utility.yul\":5627:5632   */\n      0x00\n        /* \"#utility.yul\":5652:5731   */\n      tag_301\n        /* \"#utility.yul\":5668:5730   */\n      tag_302\n        /* \"#utility.yul\":5723:5729   */\n      dup5\n        /* \"#utility.yul\":5668:5730   */\n      tag_232\n      jump\t// in\n    tag_302:\n        /* \"#utility.yul\":5652:5731   */\n      tag_219\n      jump\t// in\n    tag_301:\n        /* \"#utility.yul\":5643:5731   */\n      swap1\n      pop\n        /* \"#utility.yul\":5751:5756   */\n      dup1\n        /* \"#utility.yul\":5804:5808   */\n      0x20\n        /* \"#utility.yul\":5796:5802   */\n      dup5\n        /* \"#utility.yul\":5792:5809   */\n      mul\n        /* \"#utility.yul\":5784:5790   */\n      dup4\n        /* \"#utility.yul\":5780:5810   */\n      add\n        /* \"#utility.yul\":5833:5836   */\n      dup6\n        /* \"#utility.yul\":5825:5831   */\n      dup2\n        /* \"#utility.yul\":5822:5837   */\n      gt\n        /* \"#utility.yul\":5819:5941   */\n      iszero\n      tag_303\n      jumpi\n        /* \"#utility.yul\":5852:5931   */\n      tag_304\n      tag_227\n      jump\t// in\n    tag_304:\n        /* \"#utility.yul\":5819:5941   */\n    tag_303:\n        /* \"#utility.yul\":5967:5973   */\n      dup4\n        /* \"#utility.yul\":5950:6170   */\n    tag_305:\n        /* \"#utility.yul\":5984:5990   */\n      dup2\n        /* \"#utility.yul\":5979:5982   */\n      dup2\n        /* \"#utility.yul\":5976:5991   */\n      lt\n        /* \"#utility.yul\":5950:6170   */\n      iszero\n      tag_307\n      jumpi\n        /* \"#utility.yul\":6059:6062   */\n      dup1\n        /* \"#utility.yul\":6088:6125   */\n      tag_308\n        /* \"#utility.yul\":6121:6124   */\n      dup9\n        /* \"#utility.yul\":6109:6119   */\n      dup3\n        /* \"#utility.yul\":6088:6125   */\n      tag_223\n      jump\t// in\n    tag_308:\n        /* \"#utility.yul\":6083:6086   */\n      dup5\n        /* \"#utility.yul\":6076:6126   */\n      mstore\n        /* \"#utility.yul\":6155:6159   */\n      0x20\n        /* \"#utility.yul\":6150:6153   */\n      dup5\n        /* \"#utility.yul\":6146:6160   */\n      add\n        /* \"#utility.yul\":6139:6160   */\n      swap4\n      pop\n        /* \"#utility.yul\":6026:6170   */\n      pop\n        /* \"#utility.yul\":6010:6014   */\n      0x20\n        /* \"#utility.yul\":6005:6008   */\n      dup2\n        /* \"#utility.yul\":6001:6015   */\n      add\n        /* \"#utility.yul\":5994:6015   */\n      swap1\n      pop\n        /* \"#utility.yul\":5950:6170   */\n      jump(tag_305)\n    tag_307:\n        /* \"#utility.yul\":5954:5975   */\n      pop\n        /* \"#utility.yul\":5633:6176   */\n      pop\n      pop\n        /* \"#utility.yul\":5533:6176   */\n      swap4\n      swap3\n      pop\n      pop\n      pop\n      jump\t// out\n        /* \"#utility.yul\":6200:6539   */\n    tag_234:\n        /* \"#utility.yul\":6269:6274   */\n      0x00\n        /* \"#utility.yul\":6318:6321   */\n      dup3\n        /* \"#utility.yul\":6311:6315   */\n      0x1f\n        /* \"#utility.yul\":6303:6309   */\n      dup4\n        /* \"#utility.yul\":6299:6316   */\n      add\n        /* \"#utility.yul\":6295:6322   */\n      slt\n        /* \"#utility.yul\":6285:6407   */\n      tag_310\n      jumpi\n        /* \"#utility.yul\":6326:6405   */\n      tag_311\n      tag_225\n      jump\t// in\n    tag_311:\n        /* \"#utility.yul\":6285:6407   */\n    tag_310:\n        /* \"#utility.yul\":6430:6434   */\n      0x05\n        /* \"#utility.yul\":6452:6533   */\n      tag_312\n        /* \"#utility.yul\":6529:6532   */\n      dup5\n        /* \"#utility.yul\":6521:6527   */\n      dup3\n        /* \"#utility.yul\":6513:6519   */\n      dup6\n        /* \"#utility.yul\":6452:6533   */\n      tag_233\n      jump\t// in\n    tag_312:\n        /* \"#utility.yul\":6443:6533   */\n      swap2\n      pop\n        /* \"#utility.yul\":6275:6539   */\n      pop\n        /* \"#utility.yul\":6200:6539   */\n      swap3\n      swap2\n      pop\n      pop\n      jump\t// out\n        /* \"#utility.yul\":6545:7111   */\n    tag_6:\n        /* \"#utility.yul\":6658:6664   */\n      0x00\n        /* \"#utility.yul\":6666:6672   */\n      dup1\n        /* \"#utility.yul\":6715:6718   */\n      0x01a0\n        /* \"#utility.yul\":6703:6712   */\n      dup4\n        /* \"#utility.yul\":6694:6701   */\n      dup6\n        /* \"#utility.yul\":6690:6713   */\n      sub\n        /* \"#utility.yul\":6686:6719   */\n      slt\n        /* \"#utility.yul\":6683:6803   */\n      iszero\n      tag_314\n      jumpi\n        /* \"#utility.yul\":6722:6801   */\n      tag_315\n      tag_214\n      jump\t// in\n    tag_315:\n        /* \"#utility.yul\":6683:6803   */\n    tag_314:\n        /* \"#utility.yul\":6842:6843   */\n      0x00\n        /* \"#utility.yul\":6867:6942   */\n      tag_316\n        /* \"#utility.yul\":6934:6941   */\n      dup6\n        /* \"#utility.yul\":6925:6931   */\n      dup3\n        /* \"#utility.yul\":6914:6923   */\n      dup7\n        /* \"#utility.yul\":6910:6932   */\n      add\n        /* \"#utility.yul\":6867:6942   */\n      tag_231\n      jump\t// in\n    tag_316:\n        /* \"#utility.yul\":6857:6942   */\n      swap3\n      pop\n        /* \"#utility.yul\":6813:6952   */\n      pop\n        /* \"#utility.yul\":6991:6994   */\n      0x0100\n        /* \"#utility.yul\":7018:7094   */\n      tag_317\n        /* \"#utility.yul\":7086:7093   */\n      dup6\n        /* \"#utility.yul\":7077:7083   */\n      dup3\n        /* \"#utility.yul\":7066:7075   */\n      dup7\n        /* \"#utility.yul\":7062:7084   */\n      add\n        /* \"#utility.yul\":7018:7094   */\n      tag_234\n      jump\t// in\n    tag_317:\n        /* \"#utility.yul\":7008:7094   */\n      swap2\n      pop\n        /* \"#utility.yul\":6962:7104   */\n      pop\n        /* \"#utility.yul\":6545:7111   */\n      swap3\n      pop\n      swap3\n      swap1\n      pop\n      jump\t// out\n        /* \"#utility.yul\":7117:7207   */\n    tag_235:\n        /* \"#utility.yul\":7151:7158   */\n      0x00\n        /* \"#utility.yul\":7194:7199   */\n      dup2\n        /* \"#utility.yul\":7187:7200   */\n      iszero\n        /* \"#utility.yul\":7180:7201   */\n      iszero\n        /* \"#utility.yul\":7169:7201   */\n      swap1\n      pop\n        /* \"#utility.yul\":7117:7207   */\n      swap2\n      swap1\n      pop\n      jump\t// out\n        /* \"#utility.yul\":7213:7322   */\n    tag_236:\n        /* \"#utility.yul\":7294:7315   */\n      tag_320\n        /* \"#utility.yul\":7309:7314   */\n      dup2\n        /* \"#utility.yul\":7294:7315   */\n      tag_235\n      jump\t// in\n    tag_320:\n        /* \"#utility.yul\":7289:7292   */\n      dup3\n        /* \"#utility.yul\":7282:7316   */\n      mstore\n        /* \"#utility.yul\":7213:7322   */\n      pop\n      pop\n      jump\t// out\n        /* \"#utility.yul\":7328:7538   */\n    tag_9:\n        /* \"#utility.yul\":7415:7419   */\n      0x00\n        /* \"#utility.yul\":7453:7455   */\n      0x20\n        /* \"#utility.yul\":7442:7451   */\n      dup3\n        /* \"#utility.yul\":7438:7456   */\n      add\n        /* \"#utility.yul\":7430:7456   */\n      swap1\n      pop\n        /* \"#utility.yul\":7466:7531   */\n      tag_322\n        /* \"#utility.yul\":7528:7529   */\n      0x00\n        /* \"#utility.yul\":7517:7526   */\n      dup4\n        /* \"#utility.yul\":7513:7530   */\n      add\n        /* \"#utility.yul\":7504:7510   */\n      dup5\n        /* \"#utility.yul\":7466:7531   */\n      tag_236\n      jump\t// in\n    tag_322:\n        /* \"#utility.yul\":7328:7538   */\n      swap3\n      swap2\n      pop\n      pop\n      jump\t// out\n        /* \"#utility.yul\":7544:7724   */\n    tag_20:\n        /* \"#utility.yul\":7592:7669   */\n      0x4e487b7100000000000000000000000000000000000000000000000000000000\n        /* \"#utility.yul\":7589:7590   */\n      0x00\n        /* \"#utility.yul\":7582:7670   */\n      mstore\n        /* \"#utility.yul\":7689:7693   */\n      0x32\n        /* \"#utility.yul\":7686:7687   */\n      0x04\n        /* \"#utility.yul\":7679:7694   */\n      mstore\n        /* \"#utility.yul\":7713:7717   */\n      0x24\n        /* \"#utility.yul\":7710:7711   */\n      0x00\n        /* \"#utility.yul\":7703:7718   */\n      revert\n        /* \"#utility.yul\":7730:7910   */\n    tag_237:\n        /* \"#utility.yul\":7778:7855   */\n      0x4e487b7100000000000000000000000000000000000000000000000000000000\n        /* \"#utility.yul\":7775:7776   */\n      0x00\n        /* \"#utility.yul\":7768:7856   */\n      mstore\n        /* \"#utility.yul\":7875:7879   */\n      0x11\n        /* \"#utility.yul\":7872:7873   */\n      0x04\n        /* \"#utility.yul\":7865:7880   */\n      mstore\n        /* \"#utility.yul\":7899:7903   */\n      0x24\n        /* \"#utility.yul\":7896:7897   */\n      0x00\n        /* \"#utility.yul\":7889:7904   */\n      revert\n        /* \"#utility.yul\":7916:8107   */\n    tag_31:\n        /* \"#utility.yul\":7956:7959   */\n      0x00\n        /* \"#utility.yul\":7975:7995   */\n      tag_326\n        /* \"#utility.yul\":7993:7994   */\n      dup3\n        /* \"#utility.yul\":7975:7995   */\n      tag_221\n      jump\t// in\n    tag_326:\n        /* \"#utility.yul\":7970:7995   */\n      swap2\n      pop\n        /* \"#utility.yul\":8009:8029   */\n      tag_327\n        /* \"#utility.yul\":8027:8028   */\n      dup4\n        /* \"#utility.yul\":8009:8029   */\n      tag_221\n      jump\t// in\n    tag_327:\n        /* \"#utility.yul\":8004:8029   */\n      swap3\n      pop\n        /* \"#utility.yul\":8052:8053   */\n      dup3\n        /* \"#utility.yul\":8049:8050   */\n      dup3\n        /* \"#utility.yul\":8045:8054   */\n      add\n        /* \"#utility.yul\":8038:8054   */\n      swap1\n      pop\n        /* \"#utility.yul\":8073:8076   */\n      dup1\n        /* \"#utility.yul\":8070:8071   */\n      dup3\n        /* \"#utility.yul\":8067:8077   */\n      gt\n        /* \"#utility.yul\":8064:8100   */\n      iszero\n      tag_328\n      jumpi\n        /* \"#utility.yul\":8080:8098   */\n      tag_329\n      tag_237\n      jump\t// in\n    tag_329:\n        /* \"#utility.yul\":8064:8100   */\n    tag_328:\n        /* \"#utility.yul\":7916:8107   */\n      swap3\n      swap2\n      pop\n      pop\n      jump\t// out\n        /* \"#utility.yul\":8113:8293   */\n    tag_238:\n        /* \"#utility.yul\":8161:8238   */\n      0x4e487b7100000000000000000000000000000000000000000000000000000000\n        /* \"#utility.yul\":8158:8159   */\n      0x00\n        /* \"#utility.yul\":8151:8239   */\n      mstore\n        /* \"#utility.yul\":8258:8262   */\n      0x12\n        /* \"#utility.yul\":8255:8256   */\n      0x04\n        /* \"#utility.yul\":8248:8263   */\n      mstore\n        /* \"#utility.yul\":8282:8286   */\n      0x24\n        /* \"#utility.yul\":8279:8280   */\n      0x00\n        /* \"#utility.yul\":8272:8287   */\n      revert\n        /* \"#utility.yul\":8299:8475   */\n    tag_112:\n        /* \"#utility.yul\":8331:8332   */\n      0x00\n        /* \"#utility.yul\":8348:8368   */\n      tag_332\n        /* \"#utility.yul\":8366:8367   */\n      dup3\n        /* \"#utility.yul\":8348:8368   */\n      tag_221\n      jump\t// in\n    tag_332:\n        /* \"#utility.yul\":8343:8368   */\n      swap2\n      pop\n        /* \"#utility.yul\":8382:8402   */\n      tag_333\n        /* \"#utility.yul\":8400:8401   */\n      dup4\n        /* \"#utility.yul\":8382:8402   */\n      tag_221\n      jump\t// in\n    tag_333:\n        /* \"#utility.yul\":8377:8402   */\n      swap3\n      pop\n        /* \"#utility.yul\":8421:8422   */\n      dup3\n        /* \"#utility.yul\":8411:8446   */\n      tag_334\n      jumpi\n        /* \"#utility.yul\":8426:8444   */\n      tag_335\n      tag_238\n      jump\t// in\n    tag_335:\n        /* \"#utility.yul\":8411:8446   */\n    tag_334:\n        /* \"#utility.yul\":8467:8468   */\n      dup3\n        /* \"#utility.yul\":8464:8465   */\n      dup3\n        /* \"#utility.yul\":8460:8469   */\n      mod\n        /* \"#utility.yul\":8455:8469   */\n      swap1\n      pop\n        /* \"#utility.yul\":8299:8475   */\n      swap3\n      swap2\n      pop\n      pop\n      jump\t// out\n        /* \"#utility.yul\":8481:8675   */\n    tag_114:\n        /* \"#utility.yul\":8521:8525   */\n      0x00\n        /* \"#utility.yul\":8541:8561   */\n      tag_337\n        /* \"#utility.yul\":8559:8560   */\n      dup3\n        /* \"#utility.yul\":8541:8561   */\n      tag_221\n      jump\t// in\n    tag_337:\n        /* \"#utility.yul\":8536:8561   */\n      swap2\n      pop\n        /* \"#utility.yul\":8575:8595   */\n      tag_338\n        /* \"#utility.yul\":8593:8594   */\n      dup4\n        /* \"#utility.yul\":8575:8595   */\n      tag_221\n      jump\t// in\n    tag_338:\n        /* \"#utility.yul\":8570:8595   */\n      swap3\n      pop\n        /* \"#utility.yul\":8619:8620   */\n      dup3\n        /* \"#utility.yul\":8616:8617   */\n      dup3\n        /* \"#utility.yul\":8612:8621   */\n      sub\n        /* \"#utility.yul\":8604:8621   */\n      swap1\n      pop\n        /* \"#utility.yul\":8643:8644   */\n      dup2\n        /* \"#utility.yul\":8637:8641   */\n      dup2\n        /* \"#utility.yul\":8634:8645   */\n      gt\n        /* \"#utility.yul\":8631:8668   */\n      iszero\n      tag_339\n      jumpi\n        /* \"#utility.yul\":8648:8666   */\n      tag_340\n      tag_237\n      jump\t// in\n    tag_340:\n        /* \"#utility.yul\":8631:8668   */\n    tag_339:\n        /* \"#utility.yul\":8481:8675   */\n      swap3\n      swap2\n      pop\n      pop\n      jump\t// out\n        /* \"#utility.yul\":8681:9091   */\n    tag_148:\n        /* \"#utility.yul\":8721:8728   */\n      0x00\n        /* \"#utility.yul\":8744:8764   */\n      tag_342\n        /* \"#utility.yul\":8762:8763   */\n      dup3\n        /* \"#utility.yul\":8744:8764   */\n      tag_221\n      jump\t// in\n    tag_342:\n        /* \"#utility.yul\":8739:8764   */\n      swap2\n      pop\n        /* \"#utility.yul\":8778:8798   */\n      tag_343\n        /* \"#utility.yul\":8796:8797   */\n      dup4\n        /* \"#utility.yul\":8778:8798   */\n      tag_221\n      jump\t// in\n    tag_343:\n        /* \"#utility.yul\":8773:8798   */\n      swap3\n      pop\n        /* \"#utility.yul\":8833:8834   */\n      dup3\n        /* \"#utility.yul\":8830:8831   */\n      dup3\n        /* \"#utility.yul\":8826:8835   */\n      mul\n        /* \"#utility.yul\":8855:8885   */\n      tag_344\n        /* \"#utility.yul\":8873:8884   */\n      dup2\n        /* \"#utility.yul\":8855:8885   */\n      tag_221\n      jump\t// in\n    tag_344:\n        /* \"#utility.yul\":8844:8885   */\n      swap2\n      pop\n        /* \"#utility.yul\":9034:9035   */\n      dup3\n        /* \"#utility.yul\":9025:9032   */\n      dup3\n        /* \"#utility.yul\":9021:9036   */\n      div\n        /* \"#utility.yul\":9018:9019   */\n      dup5\n        /* \"#utility.yul\":9015:9037   */\n      eq\n        /* \"#utility.yul\":8995:8996   */\n      dup4\n        /* \"#utility.yul\":8988:8997   */\n      iszero\n        /* \"#utility.yul\":8968:9051   */\n      or\n        /* \"#utility.yul\":8945:9084   */\n      tag_345\n      jumpi\n        /* \"#utility.yul\":9064:9082   */\n      tag_346\n      tag_237\n      jump\t// in\n    tag_346:\n        /* \"#utility.yul\":8945:9084   */\n    tag_345:\n        /* \"#utility.yul\":8729:9091   */\n      pop\n        /* \"#utility.yul\":8681:9091   */\n      swap3\n      swap2\n      pop\n      pop\n      jump\t// out\n\n    auxdata: 0xa2646970667358221220d975cbc68ed36fdc44b72930c19591bf8e778a074e865333d225d9c07ecfd77964736f6c634300081a0033\n}\n",
				"bytecode": {
					"linkReferences": {},
					"object": "6080604052348015600e575f80fd5b506115cb8061001c5f395ff3fe608060405234801561000f575f80fd5b5060043610610029575f3560e01c8063bcb998861461002d575b5f80fd5b610047600480360381019061004291906113c4565b61005d565b604051610054919061141e565b60405180910390f35b5f80600567ffffffffffffffff81111561007a576100796110b9565b5b6040519080825280602002602001820160405280156100a85781602001602082028036833780820191505090505b5090505f5b60058110156100fa578381600581106100c9576100c8611437565b5b60200201518282815181106100e1576100e0611437565b5b60200260200101818152505080806001019150506100ad565b505f6101068286610120565b0361011557600191505061011a565b5f9150505b92915050565b5f807f30644e72e131a029b85045b68181585d2833e84879b9709143e1f593f000000190505f61014e6102a5565b9050806080015151600186516101649190611491565b1461016d575f80fd5b5f60405180604001604052805f81526020015f81525090505f5b865181101561021b57838782815181106101a4576101a3611437565b5b6020026020010151106101b5575f80fd5b61020c8261020785608001516001856101ce9190611491565b815181106101df576101de611437565b5b60200260200101518a85815181106101fa576101f9611437565b5b6020026020010151610886565b610923565b91508080600101915050610187565b506102448183608001515f8151811061023757610236611437565b5b6020026020010151610923565b9050610288855f0151866020015161025b846109e5565b856040015161026d8a604001516109e5565b876060015161027e895f01516109e5565b8960200151610a83565b610298576001935050505061029f565b5f93505050505b92915050565b6102ad610f8b565b60405180604001604052807f02e4e342e09cc38aea0f5718187109ee6a693e1692746240d8067b196c9ab88581526020017f03c638f67c45fb557ff3f71cc8dcf72453f99c0d4a2798d493b74abe18338639815250815f0181905250604051806040016040528060405180604001604052807f2ba2f1e535ae7e51b492963def6fa6c4738a45225ff6da59f9ca3555d5597ab681526020017f14417ad1e990c4c9e7409cd36c6e407d8bb6c8a2f68874c94a36b4e8ac633b31815250815260200160405180604001604052807f19928a8904f87693d2d2bd365716ea0c91dbeaa0372af2f81fb70fe83e49a4e581526020017f11f564070e89eba8be4ad6d33b4d552e7bc8bf037844b9e8c7af2b7ecedccca28152508152508160200181905250604051806040016040528060405180604001604052807f0d804e6d1f1762cb46759150697eb53e52a834955768a4d45b68e05c90587c5f81526020017f0dc13c8c5866f242f0b7a647efcc1c5f6d879eae30506c5ad0eecd626d23aad3815250815260200160405180604001604052807f08c66f6f5f3c534b3e1a9d8ce2ecd4487ff95326411961f1e6452ebd0b7c791a81526020017ecde05a84f2e5d78e1842f70e7b0cb96ef779095a45868334e2464e96cb3f268152508152508160400181905250604051806040016040528060405180604001604052807f2a16f67937b4b8e82faaa42288bac1efc6bc0add48c3e7c5fae8464f67bbe09081526020017f24b37c5a0a88be3189e6a10511d055059da535814b410845f844c29d14fb353a815250815260200160405180604001604052807f2953406a63ac0b96f4f4b84abb6bd47b8a132631731e1c70e778b4baac67f08681526020017f03f07238dcf2398796b73e92b6898bb99d13b5619881e78b719bfd74ed2556c28152508152508160600181905250600667ffffffffffffffff811115610572576105716110b9565b5b6040519080825280602002602001820160405280156105ab57816020015b610598610fd2565b8152602001906001900390816105905790505b50816080018190525060405180604001604052807f2452a2328a0fca42ecb2a6f6d9b61576a910388349addc48198edf54ebad7a3381526020017f2454cb7daa4e6c00799d8117accb5039dfcacdffd4191d61eb4cc2ff410f4e3a81525081608001515f815181106106205761061f611437565b5b602002602001018190525060405180604001604052807f2679b135d62055ab41a37c90c4155ffc349954780ab5e947f8e235c08917980c81526020017f23ef3a05c85d47d61c90386632c108cab613fc6dfe7faca9abdcda9e4ec32ffc815250816080015160018151811061069857610697611437565b5b602002602001018190525060405180604001604052807f14e5b612c827c82c99359c2d63c44cf11d3e9a0b25f142e2f3aba355c776631381526020017f0e51f3aaf7b63c9da98c6281493de75c57cccfcdf251cbb6256450a0c2bdf4e881525081608001516002815181106107105761070f611437565b5b602002602001018190525060405180604001604052807f2b10a4c3361b605103ce234ddc8b761b07276d7d053c7446aeb749537548227381526020017f0924baec305060d2e5db5a75b55a37fbebe726e921f0cc2f8a1ed9494aba8808815250816080015160038151811061078857610787611437565b5b602002602001018190525060405180604001604052807f261ef28886d60c9824fb9a91bc881f585016c5c79d3ff8acab386f4217e0874681526020017f1ad4a1db1d3bd52391b730ce54667c51f1f11d84236025fc801c63dd099a7c568152508160800151600481518110610800576107ff611437565b5b602002602001018190525060405180604001604052807f086d3244f4ed19477811a7551700271c448723e042ca1a57868baf2c92b3c9a781526020017f28b602b08762b6ae16bb5ae35c421a1f8d19b0331d71e1bb1fa22c866d46f8b7815250816080015160058151811061087857610877611437565b5b602002602001018190525090565b61088e610fd2565b610896610fea565b835f0151815f600381106108ad576108ac611437565b5b6020020181815250508360200151816001600381106108cf576108ce611437565b5b60200201818152505082816002600381106108ed576108ec611437565b5b6020020181815250505f60608360808460076107d05a03fa9050805f810361091157fe5b508061091b575f80fd5b505092915050565b61092b610fd2565b61093361100c565b835f0151815f6004811061094a57610949611437565b5b60200201818152505083602001518160016004811061096c5761096b611437565b5b602002018181525050825f01518160026004811061098d5761098c611437565b5b6020020181815250508260200151816003600481106109af576109ae611437565b5b6020020181815250505f60608360c08460066107d05a03fa9050805f81036109d357fe5b50806109dd575f80fd5b505092915050565b6109ed610fd2565b5f7f30644e72e131a029b85045b68181585d97816a916871ca8d3c208c16d87cfd4790505f835f0151148015610a2657505f8360200151145b15610a485760405180604001604052805f81526020015f815250915050610a7e565b6040518060400160405280845f01518152602001828560200151610a6c91906114f1565b83610a779190611521565b8152509150505b919050565b5f80600467ffffffffffffffff811115610aa057610a9f6110b9565b5b604051908082528060200260200182016040528015610ad957816020015b610ac6610fd2565b815260200190600190039081610abe5790505b5090505f600467ffffffffffffffff811115610af857610af76110b9565b5b604051908082528060200260200182016040528015610b3157816020015b610b1e61102e565b815260200190600190039081610b165790505b5090508a825f81518110610b4857610b47611437565b5b60200260200101819052508882600181518110610b6857610b67611437565b5b60200260200101819052508682600281518110610b8857610b87611437565b5b60200260200101819052508482600381518110610ba857610ba7611437565b5b602002602001018190525089815f81518110610bc757610bc6611437565b5b60200260200101819052508781600181518110610be757610be6611437565b5b60200260200101819052508581600281518110610c0757610c06611437565b5b60200260200101819052508381600381518110610c2757610c26611437565b5b6020026020010181905250610c3c8282610c4c565b9250505098975050505050505050565b5f8151835114610c5a575f80fd5b5f835190505f600682610c6d9190611554565b90505f8167ffffffffffffffff811115610c8a57610c896110b9565b5b604051908082528060200260200182016040528015610cb85781602001602082028036833780820191505090505b5090505f5b83811015610f3057868181518110610cd857610cd7611437565b5b60200260200101515f0151825f600684610cf29190611554565b610cfc9190611491565b81518110610d0d57610d0c611437565b5b602002602001018181525050868181518110610d2c57610d2b611437565b5b602002602001015160200151826001600684610d489190611554565b610d529190611491565b81518110610d6357610d62611437565b5b602002602001018181525050858181518110610d8257610d81611437565b5b60200260200101515f0151600160028110610da057610d9f611437565b5b6020020151826002600684610db59190611554565b610dbf9190611491565b81518110610dd057610dcf611437565b5b602002602001018181525050858181518110610def57610dee611437565b5b60200260200101515f01515f60028110610e0c57610e0b611437565b5b6020020151826003600684610e219190611554565b610e2b9190611491565b81518110610e3c57610e3b611437565b5b602002602001018181525050858181518110610e5b57610e5a611437565b5b602002602001015160200151600160028110610e7a57610e79611437565b5b6020020151826004600684610e8f9190611554565b610e999190611491565b81518110610eaa57610ea9611437565b5b602002602001018181525050858181518110610ec957610ec8611437565b5b6020026020010151602001515f60028110610ee757610ee6611437565b5b6020020151826005600684610efc9190611554565b610f069190611491565b81518110610f1757610f16611437565b5b6020026020010181815250508080600101915050610cbd565b50610f39611054565b5f602082602086026020860160086107d05a03fa9050805f8103610f5957fe5b5080610f63575f80fd5b5f825f60018110610f7757610f76611437565b5b602002015114159550505050505092915050565b6040518060a00160405280610f9e610fd2565b8152602001610fab61102e565b8152602001610fb861102e565b8152602001610fc561102e565b8152602001606081525090565b60405180604001604052805f81526020015f81525090565b6040518060600160405280600390602082028036833780820191505090505090565b6040518060800160405280600490602082028036833780820191505090505090565b6040518060400160405280611041611076565b815260200161104e611076565b81525090565b6040518060200160405280600190602082028036833780820191505090505090565b6040518060400160405280600290602082028036833780820191505090505090565b5f604051905090565b5f80fd5b5f80fd5b5f601f19601f8301169050919050565b7f4e487b71000000000000000000000000000000000000000000000000000000005f52604160045260245ffd5b6110ef826110a9565b810181811067ffffffffffffffff8211171561110e5761110d6110b9565b5b80604052505050565b5f611120611098565b905061112c82826110e6565b919050565b5f819050919050565b61114381611131565b811461114d575f80fd5b50565b5f8135905061115e8161113a565b92915050565b5f60408284031215611179576111786110a5565b5b6111836040611117565b90505f61119284828501611150565b5f8301525060206111a584828501611150565b60208301525092915050565b5f80fd5b5f67ffffffffffffffff8211156111cf576111ce6110b9565b5b602082029050919050565b5f80fd5b5f6111f06111eb846111b5565b611117565b9050806020840283018581111561120a576112096111da565b5b835b81811015611233578061121f8882611150565b84526020840193505060208101905061120c565b5050509392505050565b5f82601f830112611251576112506111b1565b5b600261125e8482856111de565b91505092915050565b5f6080828403121561127c5761127b6110a5565b5b6112866040611117565b90505f6112958482850161123d565b5f8301525060406112a88482850161123d565b60208301525092915050565b5f61010082840312156112ca576112c96110a5565b5b6112d46060611117565b90505f6112e384828501611164565b5f8301525060406112f684828501611267565b60208301525060c061130a84828501611164565b60408301525092915050565b5f67ffffffffffffffff8211156113305761132f6110b9565b5b602082029050919050565b5f61134d61134884611316565b611117565b90508060208402830185811115611367576113666111da565b5b835b81811015611390578061137c8882611150565b845260208401935050602081019050611369565b5050509392505050565b5f82601f8301126113ae576113ad6111b1565b5b60056113bb84828561133b565b91505092915050565b5f806101a083850312156113db576113da6110a1565b5b5f6113e8858286016112b4565b9250506101006113fa8582860161139a565b9150509250929050565b5f8115159050919050565b61141881611404565b82525050565b5f6020820190506114315f83018461140f565b92915050565b7f4e487b71000000000000000000000000000000000000000000000000000000005f52603260045260245ffd5b7f4e487b71000000000000000000000000000000000000000000000000000000005f52601160045260245ffd5b5f61149b82611131565b91506114a683611131565b92508282019050808211156114be576114bd611464565b5b92915050565b7f4e487b71000000000000000000000000000000000000000000000000000000005f52601260045260245ffd5b5f6114fb82611131565b915061150683611131565b925082611516576115156114c4565b5b828206905092915050565b5f61152b82611131565b915061153683611131565b925082820390508181111561154e5761154d611464565b5b92915050565b5f61155e82611131565b915061156983611131565b925082820261157781611131565b9150828204841483151761158e5761158d611464565b5b509291505056fea2646970667358221220d975cbc68ed36fdc44b72930c19591bf8e778a074e865333d225d9c07ecfd77964736f6c634300081a0033",
					"opcodes": "PUSH1 0x80 PUSH1 0x40 MSTORE CALLVALUE DUP1 ISZERO PUSH1 0xE JUMPI PUSH0 DUP1 REVERT JUMPDEST POP PUSH2 0x15CB DUP1 PUSH2 0x1C PUSH0 CODECOPY PUSH0 RETURN INVALID PUSH1 0x80 PUSH1 0x40 MSTORE CALLVALUE DUP1 ISZERO PUSH2 0xF JUMPI PUSH0 DUP1 REVERT JUMPDEST POP PUSH1 0x4 CALLDATASIZE LT PUSH2 0x29 JUMPI PUSH0 CALLDATALOAD PUSH1 0xE0 SHR DUP1 PUSH4 0xBCB99886 EQ PUSH2 0x2D JUMPI JUMPDEST PUSH0 DUP1 REVERT JUMPDEST PUSH2 0x47 PUSH1 0x4 DUP1 CALLDATASIZE SUB DUP2 ADD SWAP1 PUSH2 0x42 SWAP2 SWAP1 PUSH2 0x13C4 JUMP JUMPDEST PUSH2 0x5D JUMP JUMPDEST PUSH1 0x40 MLOAD PUSH2 0x54 SWAP2 SWAP1 PUSH2 0x141E JUMP JUMPDEST PUSH1 0x40 MLOAD DUP1 SWAP2 SUB SWAP1 RETURN JUMPDEST PUSH0 DUP1 PUSH1 0x5 PUSH8 0xFFFFFFFFFFFFFFFF DUP2 GT ISZERO PUSH2 0x7A JUMPI PUSH2 0x79 PUSH2 0x10B9 JUMP JUMPDEST JUMPDEST PUSH1 0x40 MLOAD SWAP1 DUP1 DUP3 MSTORE DUP1 PUSH1 0x20 MUL PUSH1 0x20 ADD DUP3 ADD PUSH1 0x40 MSTORE DUP1 ISZERO PUSH2 0xA8 JUMPI DUP2 PUSH1 0x20 ADD PUSH1 0x20 DUP3 MUL DUP1 CALLDATASIZE DUP4 CALLDATACOPY DUP1 DUP3 ADD SWAP2 POP POP SWAP1 POP JUMPDEST POP SWAP1 POP PUSH0 JUMPDEST PUSH1 0x5 DUP2 LT ISZERO PUSH2 0xFA JUMPI DUP4 DUP2 PUSH1 0x5 DUP2 LT PUSH2 0xC9 JUMPI PUSH2 0xC8 PUSH2 0x1437 JUMP JUMPDEST JUMPDEST PUSH1 0x20 MUL ADD MLOAD DUP3 DUP3 DUP2 MLOAD DUP2 LT PUSH2 0xE1 JUMPI PUSH2 0xE0 PUSH2 0x1437 JUMP JUMPDEST JUMPDEST PUSH1 0x20 MUL PUSH1 0x20 ADD ADD DUP2 DUP2 MSTORE POP POP DUP1 DUP1 PUSH1 0x1 ADD SWAP2 POP POP PUSH2 0xAD JUMP JUMPDEST POP PUSH0 PUSH2 0x106 DUP3 DUP7 PUSH2 0x120 JUMP JUMPDEST SUB PUSH2 0x115 JUMPI PUSH1 0x1 SWAP2 POP POP PUSH2 0x11A JUMP JUMPDEST PUSH0 SWAP2 POP POP JUMPDEST SWAP3 SWAP2 POP POP JUMP JUMPDEST PUSH0 DUP1 PUSH32 0x30644E72E131A029B85045B68181585D2833E84879B9709143E1F593F0000001 SWAP1 POP PUSH0 PUSH2 0x14E PUSH2 0x2A5 JUMP JUMPDEST SWAP1 POP DUP1 PUSH1 0x80 ADD MLOAD MLOAD PUSH1 0x1 DUP7 MLOAD PUSH2 0x164 SWAP2 SWAP1 PUSH2 0x1491 JUMP JUMPDEST EQ PUSH2 0x16D JUMPI PUSH0 DUP1 REVERT JUMPDEST PUSH0 PUSH1 0x40 MLOAD DUP1 PUSH1 0x40 ADD PUSH1 0x40 MSTORE DUP1 PUSH0 DUP2 MSTORE PUSH1 0x20 ADD PUSH0 DUP2 MSTORE POP SWAP1 POP PUSH0 JUMPDEST DUP7 MLOAD DUP2 LT ISZERO PUSH2 0x21B JUMPI DUP4 DUP8 DUP3 DUP2 MLOAD DUP2 LT PUSH2 0x1A4 JUMPI PUSH2 0x1A3 PUSH2 0x1437 JUMP JUMPDEST JUMPDEST PUSH1 0x20 MUL PUSH1 0x20 ADD ADD MLOAD LT PUSH2 0x1B5 JUMPI PUSH0 DUP1 REVERT JUMPDEST PUSH2 0x20C DUP3 PUSH2 0x207 DUP6 PUSH1 0x80 ADD MLOAD PUSH1 0x1 DUP6 PUSH2 0x1CE SWAP2 SWAP1 PUSH2 0x1491 JUMP JUMPDEST DUP2 MLOAD DUP2 LT PUSH2 0x1DF JUMPI PUSH2 0x1DE PUSH2 0x1437 JUMP JUMPDEST JUMPDEST PUSH1 0x20 MUL PUSH1 0x20 ADD ADD MLOAD DUP11 DUP6 DUP2 MLOAD DUP2 LT PUSH2 0x1FA JUMPI PUSH2 0x1F9 PUSH2 0x1437 JUMP JUMPDEST JUMPDEST PUSH1 0x20 MUL PUSH1 0x20 ADD ADD MLOAD PUSH2 0x886 JUMP JUMPDEST PUSH2 0x923 JUMP JUMPDEST SWAP2 POP DUP1 DUP1 PUSH1 0x1 ADD SWAP2 POP POP PUSH2 0x187 JUMP JUMPDEST POP PUSH2 0x244 DUP2 DUP4 PUSH1 0x80 ADD MLOAD PUSH0 DUP2 MLOAD DUP2 LT PUSH2 0x237 JUMPI PUSH2 0x236 PUSH2 0x1437 JUMP JUMPDEST JUMPDEST PUSH1 0x20 MUL PUSH1 0x20 ADD ADD MLOAD PUSH2 0x923 JUMP JUMPDEST SWAP1 POP PUSH2 0x288 DUP6 PUSH0 ADD MLOAD DUP7 PUSH1 0x20 ADD MLOAD PUSH2 0x25B DUP5 PUSH2 0x9E5 JUMP JUMPDEST DUP6 PUSH1 0x40 ADD MLOAD PUSH2 0x26D DUP11 PUSH1 0x40 ADD MLOAD PUSH2 0x9E5 JUMP JUMPDEST DUP8 PUSH1 0x60 ADD MLOAD PUSH2 0x27E DUP10 PUSH0 ADD MLOAD PUSH2 0x9E5 JUMP JUMPDEST DUP10 PUSH1 0x20 ADD MLOAD PUSH2 0xA83 JUMP JUMPDEST PUSH2 0x298 JUMPI PUSH1 0x1 SWAP4 POP POP POP POP PUSH2 0x29F JUMP JUMPDEST PUSH0 SWAP4 POP POP POP POP JUMPDEST SWAP3 SWAP2 POP POP JUMP JUMPDEST PUSH2 0x2AD PUSH2 0xF8B JUMP JUMPDEST PUSH1 0x40 MLOAD DUP1 PUSH1 0x40 ADD PUSH1 0x40 MSTORE DUP1 PUSH32 0x2E4E342E09CC38AEA0F5718187109EE6A693E1692746240D8067B196C9AB885 DUP2 MSTORE PUSH1 0x20 ADD PUSH32 0x3C638F67C45FB557FF3F71CC8DCF72453F99C0D4A2798D493B74ABE18338639 DUP2 MSTORE POP DUP2 PUSH0 ADD DUP2 SWAP1 MSTORE POP PUSH1 0x40 MLOAD DUP1 PUSH1 0x40 ADD PUSH1 0x40 MSTORE DUP1 PUSH1 0x40 MLOAD DUP1 PUSH1 0x40 ADD PUSH1 0x40 MSTORE DUP1 PUSH32 0x2BA2F1E535AE7E51B492963DEF6FA6C4738A45225FF6DA59F9CA3555D5597AB6 DUP2 MSTORE PUSH1 0x20 ADD PUSH32 0x14417AD1E990C4C9E7409CD36C6E407D8BB6C8A2F68874C94A36B4E8AC633B31 DUP2 MSTORE POP DUP2 MSTORE PUSH1 0x20 ADD PUSH1 0x40 MLOAD DUP1 PUSH1 0x40 ADD PUSH1 0x40 MSTORE DUP1 PUSH32 0x19928A8904F87693D2D2BD365716EA0C91DBEAA0372AF2F81FB70FE83E49A4E5 DUP2 MSTORE PUSH1 0x20 ADD PUSH32 0x11F564070E89EBA8BE4AD6D33B4D552E7BC8BF037844B9E8C7AF2B7ECEDCCCA2 DUP2 MSTORE POP DUP2 MSTORE POP DUP2 PUSH1 0x20 ADD DUP2 SWAP1 MSTORE POP PUSH1 0x40 MLOAD DUP1 PUSH1 0x40 ADD PUSH1 0x40 MSTORE DUP1 PUSH1 0x40 MLOAD DUP1 PUSH1 0x40 ADD PUSH1 0x40 MSTORE DUP1 PUSH32 0xD804E6D1F1762CB46759150697EB53E52A834955768A4D45B68E05C90587C5F DUP2 MSTORE PUSH1 0x20 ADD PUSH32 0xDC13C8C5866F242F0B7A647EFCC1C5F6D879EAE30506C5AD0EECD626D23AAD3 DUP2 MSTORE POP DUP2 MSTORE PUSH1 0x20 ADD PUSH1 0x40 MLOAD DUP1 PUSH1 0x40 ADD PUSH1 0x40 MSTORE DUP1 PUSH32 0x8C66F6F5F3C534B3E1A9D8CE2ECD4487FF95326411961F1E6452EBD0B7C791A DUP2 MSTORE PUSH1 0x20 ADD PUSH31 0xCDE05A84F2E5D78E1842F70E7B0CB96EF779095A45868334E2464E96CB3F26 DUP2 MSTORE POP DUP2 MSTORE POP DUP2 PUSH1 0x40 ADD DUP2 SWAP1 MSTORE POP PUSH1 0x40 MLOAD DUP1 PUSH1 0x40 ADD PUSH1 0x40 MSTORE DUP1 PUSH1 0x40 MLOAD DUP1 PUSH1 0x40 ADD PUSH1 0x40 MSTORE DUP1 PUSH32 0x2A16F67937B4B8E82FAAA42288BAC1EFC6BC0ADD48C3E7C5FAE8464F67BBE090 DUP2 MSTORE PUSH1 0x20 ADD PUSH32 0x24B37C5A0A88BE3189E6A10511D055059DA535814B410845F844C29D14FB353A DUP2 MSTORE POP DUP2 MSTORE PUSH1 0x20 ADD PUSH1 0x40 MLOAD DUP1 PUSH1 0x40 ADD PUSH1 0x40 MSTORE DUP1 PUSH32 0x2953406A63AC0B96F4F4B84ABB6BD47B8A132631731E1C70E778B4BAAC67F086 DUP2 MSTORE PUSH1 0x20 ADD PUSH32 0x3F07238DCF2398796B73E92B6898BB99D13B5619881E78B719BFD74ED2556C2 DUP2 MSTORE POP DUP2 MSTORE POP DUP2 PUSH1 0x60 ADD DUP2 SWAP1 MSTORE POP PUSH1 0x6 PUSH8 0xFFFFFFFFFFFFFFFF DUP2 GT ISZERO PUSH2 0x572 JUMPI PUSH2 0x571 PUSH2 0x10B9 JUMP JUMPDEST JUMPDEST PUSH1 0x40 MLOAD SWAP1 DUP1 DUP3 MSTORE DUP1 PUSH1 0x20 MUL PUSH1 0x20 ADD DUP3 ADD PUSH1 0x40 MSTORE DUP1 ISZERO PUSH2 0x5AB JUMPI DUP2 PUSH1 0x20 ADD JUMPDEST PUSH2 0x598 PUSH2 0xFD2 JUMP JUMPDEST DUP2 MSTORE PUSH1 0x20 ADD SWAP1 PUSH1 0x1 SWAP1 SUB SWAP1 DUP2 PUSH2 0x590 JUMPI SWAP1 POP JUMPDEST POP DUP2 PUSH1 0x80 ADD DUP2 SWAP1 MSTORE POP PUSH1 0x40 MLOAD DUP1 PUSH1 0x40 ADD PUSH1 0x40 MSTORE DUP1 PUSH32 0x2452A2328A0FCA42ECB2A6F6D9B61576A910388349ADDC48198EDF54EBAD7A33 DUP2 MSTORE PUSH1 0x20 ADD PUSH32 0x2454CB7DAA4E6C00799D8117ACCB5039DFCACDFFD4191D61EB4CC2FF410F4E3A DUP2 MSTORE POP DUP2 PUSH1 0x80 ADD MLOAD PUSH0 DUP2 MLOAD DUP2 LT PUSH2 0x620 JUMPI PUSH2 0x61F PUSH2 0x1437 JUMP JUMPDEST JUMPDEST PUSH1 0x20 MUL PUSH1 0x20 ADD ADD DUP2 SWAP1 MSTORE POP PUSH1 0x40 MLOAD DUP1 PUSH1 0x40 ADD PUSH1 0x40 MSTORE DUP1 PUSH32 0x2679B135D62055AB41A37C90C4155FFC349954780AB5E947F8E235C08917980C DUP2 MSTORE PUSH1 0x20 ADD PUSH32 0x23EF3A05C85D47D61C90386632C108CAB613FC6DFE7FACA9ABDCDA9E4EC32FFC DUP2 MSTORE POP DUP2 PUSH1 0x80 ADD MLOAD PUSH1 0x1 DUP2 MLOAD DUP2 LT PUSH2 0x698 JUMPI PUSH2 0x697 PUSH2 0x1437 JUMP JUMPDEST JUMPDEST PUSH1 0x20 MUL PUSH1 0x20 ADD ADD DUP2 SWAP1 MSTORE POP PUSH1 0x40 MLOAD DUP1 PUSH1 0x40 ADD PUSH1 0x40 MSTORE DUP1 PUSH32 0x14E5B612C827C82C99359C2D63C44CF11D3E9A0B25F142E2F3ABA355C7766313 DUP2 MSTORE PUSH1 0x20 ADD PUSH32 0xE51F3AAF7B63C9DA98C6281493DE75C57CCCFCDF251CBB6256450A0C2BDF4E8 DUP2 MSTORE POP DUP2 PUSH1 0x80 ADD MLOAD PUSH1 0x2 DUP2 MLOAD DUP2 LT PUSH2 0x710 JUMPI PUSH2 0x70F PUSH2 0x1437 JUMP JUMPDEST JUMPDEST PUSH1 0x20 MUL PUSH1 0x20 ADD ADD DUP2 SWAP1 MSTORE POP PUSH1 0x40 MLOAD DUP1 PUSH1 0x40 ADD PUSH1 0x40 MSTORE DUP1 PUSH32 0x2B10A4C3361B605103CE234DDC8B761B07276D7D053C7446AEB7495375482273 DUP2 MSTORE PUSH1 0x20 ADD PUSH32 0x924BAEC305060D2E5DB5A75B55A37FBEBE726E921F0CC2F8A1ED9494ABA8808 DUP2 MSTORE POP DUP2 PUSH1 0x80 ADD MLOAD PUSH1 0x3 DUP2 MLOAD DUP2 LT PUSH2 0x788 JUMPI PUSH2 0x787 PUSH2 0x1437 JUMP JUMPDEST JUMPDEST PUSH1 0x20 MUL PUSH1 0x20 ADD ADD DUP2 SWAP1 MSTORE POP PUSH1 0x40 MLOAD DUP1 PUSH1 0x40 ADD PUSH1 0x40 MSTORE DUP1 PUSH32 0x261EF28886D60C9824FB9A91BC881F585016C5C79D3FF8ACAB386F4217E08746 DUP2 MSTORE PUSH1 0x20 ADD PUSH32 0x1AD4A1DB1D3BD52391B730CE54667C51F1F11D84236025FC801C63DD099A7C56 DUP2 MSTORE POP DUP2 PUSH1 0x80 ADD MLOAD PUSH1 0x4 DUP2 MLOAD DUP2 LT PUSH2 0x800 JUMPI PUSH2 0x7FF PUSH2 0x1437 JUMP JUMPDEST JUMPDEST PUSH1 0x20 MUL PUSH1 0x20 ADD ADD DUP2 SWAP1 MSTORE POP PUSH1 0x40 MLOAD DUP1 PUSH1 0x40 ADD PUSH1 0x40 MSTORE DUP1 PUSH32 0x86D3244F4ED19477811A7551700271C448723E042CA1A57868BAF2C92B3C9A7 DUP2 MSTORE PUSH1 0x20 ADD PUSH32 0x28B602B08762B6AE16BB5AE35C421A1F8D19B0331D71E1BB1FA22C866D46F8B7 DUP2 MSTORE POP DUP2 PUSH1 0x80 ADD MLOAD PUSH1 0x5 DUP2 MLOAD DUP2 LT PUSH2 0x878 JUMPI PUSH2 0x877 PUSH2 0x1437 JUMP JUMPDEST JUMPDEST PUSH1 0x20 MUL PUSH1 0x20 ADD ADD DUP2 SWAP1 MSTORE POP SWAP1 JUMP JUMPDEST PUSH2 0x88E PUSH2 0xFD2 JUMP JUMPDEST PUSH2 0x896 PUSH2 0xFEA JUMP JUMPDEST DUP4 PUSH0 ADD MLOAD DUP2 PUSH0 PUSH1 0x3 DUP2 LT PUSH2 0x8AD JUMPI PUSH2 0x8AC PUSH2 0x1437 JUMP JUMPDEST JUMPDEST PUSH1 0x20 MUL ADD DUP2 DUP2 MSTORE POP POP DUP4 PUSH1 0x20 ADD MLOAD DUP2 PUSH1 0x1 PUSH1 0x3 DUP2 LT PUSH2 0x8CF JUMPI PUSH2 0x8CE PUSH2 0x1437 JUMP JUMPDEST JUMPDEST PUSH1 0x20 MUL ADD DUP2 DUP2 MSTORE POP POP DUP3 DUP2 PUSH1 0x2 PUSH1 0x3 DUP2 LT PUSH2 0x8ED JUMPI PUSH2 0x8EC PUSH2 0x1437 JUMP JUMPDEST JUMPDEST PUSH1 0x20 MUL ADD DUP2 DUP2 MSTORE POP POP PUSH0 PUSH1 0x60 DUP4 PUSH1 0x80 DUP5 PUSH1 0x7 PUSH2 0x7D0 GAS SUB STATICCALL SWAP1 POP DUP1 PUSH0 DUP2 SUB PUSH2 0x911 JUMPI INVALID JUMPDEST POP DUP1 PUSH2 0x91B JUMPI PUSH0 DUP1 REVERT JUMPDEST POP POP SWAP3 SWAP2 POP POP JUMP JUMPDEST PUSH2 0x92B PUSH2 0xFD2 JUMP JUMPDEST PUSH2 0x933 PUSH2 0x100C JUMP JUMPDEST DUP4 PUSH0 ADD MLOAD DUP2 PUSH0 PUSH1 0x4 DUP2 LT PUSH2 0x94A JUMPI PUSH2 0x949 PUSH2 0x1437 JUMP JUMPDEST JUMPDEST PUSH1 0x20 MUL ADD DUP2 DUP2 MSTORE POP POP DUP4 PUSH1 0x20 ADD MLOAD DUP2 PUSH1 0x1 PUSH1 0x4 DUP2 LT PUSH2 0x96C JUMPI PUSH2 0x96B PUSH2 0x1437 JUMP JUMPDEST JUMPDEST PUSH1 0x20 MUL ADD DUP2 DUP2 MSTORE POP POP DUP3 PUSH0 ADD MLOAD DUP2 PUSH1 0x2 PUSH1 0x4 DUP2 LT PUSH2 0x98D JUMPI PUSH2 0x98C PUSH2 0x1437 JUMP JUMPDEST JUMPDEST PUSH1 0x20 MUL ADD DUP2 DUP2 MSTORE POP POP DUP3 PUSH1 0x20 ADD MLOAD DUP2 PUSH1 0x3 PUSH1 0x4 DUP2 LT PUSH2 0x9AF JUMPI PUSH2 0x9AE PUSH2 0x1437 JUMP JUMPDEST JUMPDEST PUSH1 0x20 MUL ADD DUP2 DUP2 MSTORE POP POP PUSH0 PUSH1 0x60 DUP4 PUSH1 0xC0 DUP5 PUSH1 0x6 PUSH2 0x7D0 GAS SUB STATICCALL SWAP1 POP DUP1 PUSH0 DUP2 SUB PUSH2 0x9D3 JUMPI INVALID JUMPDEST POP DUP1 PUSH2 0x9DD JUMPI PUSH0 DUP1 REVERT JUMPDEST POP POP SWAP3 SWAP2 POP POP JUMP JUMPDEST PUSH2 0x9ED PUSH2 0xFD2 JUMP JUMPDEST PUSH0 PUSH32 0x30644E72E131A029B85045B68181585D97816A916871CA8D3C208C16D87CFD47 SWAP1 POP PUSH0 DUP4 PUSH0 ADD MLOAD EQ DUP1 ISZERO PUSH2 0xA26 JUMPI POP PUSH0 DUP4 PUSH1 0x20 ADD MLOAD EQ JUMPDEST ISZERO PUSH2 0xA48 JUMPI PUSH1 0x40 MLOAD DUP1 PUSH1 0x40 ADD PUSH1 0x40 MSTORE DUP1 PUSH0 DUP2 MSTORE PUSH1 0x20 ADD PUSH0 DUP2 MSTORE POP SWAP2 POP POP PUSH2 0xA7E JUMP JUMPDEST PUSH1 0x40 MLOAD DUP1 PUSH1 0x40 ADD PUSH1 0x40 MSTORE DUP1 DUP5 PUSH0 ADD MLOAD DUP2 MSTORE PUSH1 0x20 ADD DUP3 DUP6 PUSH1 0x20 ADD MLOAD PUSH2 0xA6C SWAP2 SWAP1 PUSH2 0x14F1 JUMP JUMPDEST DUP4 PUSH2 0xA77 SWAP2 SWAP1 PUSH2 0x1521 JUMP JUMPDEST DUP2 MSTORE POP SWAP2 POP POP JUMPDEST SWAP2 SWAP1 POP JUMP JUMPDEST PUSH0 DUP1 PUSH1 0x4 PUSH8 0xFFFFFFFFFFFFFFFF DUP2 GT ISZERO PUSH2 0xAA0 JUMPI PUSH2 0xA9F PUSH2 0x10B9 JUMP JUMPDEST JUMPDEST PUSH1 0x40 MLOAD SWAP1 DUP1 DUP3 MSTORE DUP1 PUSH1 0x20 MUL PUSH1 0x20 ADD DUP3 ADD PUSH1 0x40 MSTORE DUP1 ISZERO PUSH2 0xAD9 JUMPI DUP2 PUSH1 0x20 ADD JUMPDEST PUSH2 0xAC6 PUSH2 0xFD2 JUMP JUMPDEST DUP2 MSTORE PUSH1 0x20 ADD SWAP1 PUSH1 0x1 SWAP1 SUB SWAP1 DUP2 PUSH2 0xABE JUMPI SWAP1 POP JUMPDEST POP SWAP1 POP PUSH0 PUSH1 0x4 PUSH8 0xFFFFFFFFFFFFFFFF DUP2 GT ISZERO PUSH2 0xAF8 JUMPI PUSH2 0xAF7 PUSH2 0x10B9 JUMP JUMPDEST JUMPDEST PUSH1 0x40 MLOAD SWAP1 DUP1 DUP3 MSTORE DUP1 PUSH1 0x20 MUL PUSH1 0x20 ADD DUP3 ADD PUSH1 0x40 MSTORE DUP1 ISZERO PUSH2 0xB31 JUMPI DUP2 PUSH1 0x20 ADD JUMPDEST PUSH2 0xB1E PUSH2 0x102E JUMP JUMPDEST DUP2 MSTORE PUSH1 0x20 ADD SWAP1 PUSH1 0x1 SWAP1 SUB SWAP1 DUP2 PUSH2 0xB16 JUMPI SWAP1 POP JUMPDEST POP SWAP1 POP DUP11 DUP3 PUSH0 DUP2 MLOAD DUP2 LT PUSH2 0xB48 JUMPI PUSH2 0xB47 PUSH2 0x1437 JUMP JUMPDEST JUMPDEST PUSH1 0x20 MUL PUSH1 0x20 ADD ADD DUP2 SWAP1 MSTORE POP DUP9 DUP3 PUSH1 0x1 DUP2 MLOAD DUP2 LT PUSH2 0xB68 JUMPI PUSH2 0xB67 PUSH2 0x1437 JUMP JUMPDEST JUMPDEST PUSH1 0x20 MUL PUSH1 0x20 ADD ADD DUP2 SWAP1 MSTORE POP DUP7 DUP3 PUSH1 0x2 DUP2 MLOAD DUP2 LT PUSH2 0xB88 JUMPI PUSH2 0xB87 PUSH2 0x1437 JUMP JUMPDEST JUMPDEST PUSH1 0x20 MUL PUSH1 0x20 ADD ADD DUP2 SWAP1 MSTORE POP DUP5 DUP3 PUSH1 0x3 DUP2 MLOAD DUP2 LT PUSH2 0xBA8 JUMPI PUSH2 0xBA7 PUSH2 0x1437 JUMP JUMPDEST JUMPDEST PUSH1 0x20 MUL PUSH1 0x20 ADD ADD DUP2 SWAP1 MSTORE POP DUP10 DUP2 PUSH0 DUP2 MLOAD DUP2 LT PUSH2 0xBC7 JUMPI PUSH2 0xBC6 PUSH2 0x1437 JUMP JUMPDEST JUMPDEST PUSH1 0x20 MUL PUSH1 0x20 ADD ADD DUP2 SWAP1 MSTORE POP DUP8 DUP2 PUSH1 0x1 DUP2 MLOAD DUP2 LT PUSH2 0xBE7 JUMPI PUSH2 0xBE6 PUSH2 0x1437 JUMP JUMPDEST JUMPDEST PUSH1 0x20 MUL PUSH1 0x20 ADD ADD DUP2 SWAP1 MSTORE POP DUP6 DUP2 PUSH1 0x2 DUP2 MLOAD DUP2 LT PUSH2 0xC07 JUMPI PUSH2 0xC06 PUSH2 0x1437 JUMP JUMPDEST JUMPDEST PUSH1 0x20 MUL PUSH1 0x20 ADD ADD DUP2 SWAP1 MSTORE POP DUP4 DUP2 PUSH1 0x3 DUP2 MLOAD DUP2 LT PUSH2 0xC27 JUMPI PUSH2 0xC26 PUSH2 0x1437 JUMP JUMPDEST JUMPDEST PUSH1 0x20 MUL PUSH1 0x20 ADD ADD DUP2 SWAP1 MSTORE POP PUSH2 0xC3C DUP3 DUP3 PUSH2 0xC4C JUMP JUMPDEST SWAP3 POP POP POP SWAP9 SWAP8 POP POP POP POP POP POP POP POP JUMP JUMPDEST PUSH0 DUP2 MLOAD DUP4 MLOAD EQ PUSH2 0xC5A JUMPI PUSH0 DUP1 REVERT JUMPDEST PUSH0 DUP4 MLOAD SWAP1 POP PUSH0 PUSH1 0x6 DUP3 PUSH2 0xC6D SWAP2 SWAP1 PUSH2 0x1554 JUMP JUMPDEST SWAP1 POP PUSH0 DUP2 PUSH8 0xFFFFFFFFFFFFFFFF DUP2 GT ISZERO PUSH2 0xC8A JUMPI PUSH2 0xC89 PUSH2 0x10B9 JUMP JUMPDEST JUMPDEST PUSH1 0x40 MLOAD SWAP1 DUP1 DUP3 MSTORE DUP1 PUSH1 0x20 MUL PUSH1 0x20 ADD DUP3 ADD PUSH1 0x40 MSTORE DUP1 ISZERO PUSH2 0xCB8 JUMPI DUP2 PUSH1 0x20 ADD PUSH1 0x20 DUP3 MUL DUP1 CALLDATASIZE DUP4 CALLDATACOPY DUP1 DUP3 ADD SWAP2 POP POP SWAP1 POP JUMPDEST POP SWAP1 POP PUSH0 JUMPDEST DUP4 DUP2 LT ISZERO PUSH2 0xF30 JUMPI DUP7 DUP2 DUP2 MLOAD DUP2 LT PUSH2 0xCD8 JUMPI PUSH2 0xCD7 PUSH2 0x1437 JUMP JUMPDEST JUMPDEST PUSH1 0x20 MUL PUSH1 0x20 ADD ADD MLOAD PUSH0 ADD MLOAD DUP3 PUSH0 PUSH1 0x6 DUP5 PUSH2 0xCF2 SWAP2 SWAP1 PUSH2 0x1554 JUMP JUMPDEST PUSH2 0xCFC SWAP2 SWAP1 PUSH2 0x1491 JUMP JUMPDEST DUP2 MLOAD DUP2 LT PUSH2 0xD0D JUMPI PUSH2 0xD0C PUSH2 0x1437 JUMP JUMPDEST JUMPDEST PUSH1 0x20 MUL PUSH1 0x20 ADD ADD DUP2 DUP2 MSTORE POP POP DUP7 DUP2 DUP2 MLOAD DUP2 LT PUSH2 0xD2C JUMPI PUSH2 0xD2B PUSH2 0x1437 JUMP JUMPDEST JUMPDEST PUSH1 0x20 MUL PUSH1 0x20 ADD ADD MLOAD PUSH1 0x20 ADD MLOAD DUP3 PUSH1 0x1 PUSH1 0x6 DUP5 PUSH2 0xD48 SWAP2 SWAP1 PUSH2 0x1554 JUMP JUMPDEST PUSH2 0xD52 SWAP2 SWAP1 PUSH2 0x1491 JUMP JUMPDEST DUP2 MLOAD DUP2 LT PUSH2 0xD63 JUMPI PUSH2 0xD62 PUSH2 0x1437 JUMP JUMPDEST JUMPDEST PUSH1 0x20 MUL PUSH1 0x20 ADD ADD DUP2 DUP2 MSTORE POP POP DUP6 DUP2 DUP2 MLOAD DUP2 LT PUSH2 0xD82 JUMPI PUSH2 0xD81 PUSH2 0x1437 JUMP JUMPDEST JUMPDEST PUSH1 0x20 MUL PUSH1 0x20 ADD ADD MLOAD PUSH0 ADD MLOAD PUSH1 0x1 PUSH1 0x2 DUP2 LT PUSH2 0xDA0 JUMPI PUSH2 0xD9F PUSH2 0x1437 JUMP JUMPDEST JUMPDEST PUSH1 0x20 MUL ADD MLOAD DUP3 PUSH1 0x2 PUSH1 0x6 DUP5 PUSH2 0xDB5 SWAP2 SWAP1 PUSH2 0x1554 JUMP JUMPDEST PUSH2 0xDBF SWAP2 SWAP1 PUSH2 0x1491 JUMP JUMPDEST DUP2 MLOAD DUP2 LT PUSH2 0xDD0 JUMPI PUSH2 0xDCF PUSH2 0x1437 JUMP JUMPDEST JUMPDEST PUSH1 0x20 MUL PUSH1 0x20 ADD ADD DUP2 DUP2 MSTORE POP POP DUP6 DUP2 DUP2 MLOAD DUP2 LT PUSH2 0xDEF JUMPI PUSH2 0xDEE PUSH2 0x1437 JUMP JUMPDEST JUMPDEST PUSH1 0x20 MUL PUSH1 0x20 ADD ADD MLOAD PUSH0 ADD MLOAD PUSH0 PUSH1 0x2 DUP2 LT PUSH2 0xE0C JUMPI PUSH2 0xE0B PUSH2 0x1437 JUMP JUMPDEST JUMPDEST PUSH1 0x20 MUL ADD MLOAD DUP3 PUSH1 0x3 PUSH1 0x6 DUP5 PUSH2 0xE21 SWAP2 SWAP1 PUSH2 0x1554 JUMP JUMPDEST PUSH2 0xE2B SWAP2 SWAP1 PUSH2 0x1491 JUMP JUMPDEST DUP2 MLOAD DUP2 LT PUSH2 0xE3C JUMPI PUSH2 0xE3B PUSH2 0x1437 JUMP JUMPDEST JUMPDEST PUSH1 0x20 MUL PUSH1 0x20 ADD ADD DUP2 DUP2 MSTORE POP POP DUP6 DUP2 DUP2 MLOAD DUP2 LT PUSH2 0xE5B JUMPI PUSH2 0xE5A PUSH2 0x1437 JUMP JUMPDEST JUMPDEST PUSH1 0x20 MUL PUSH1 0x20 ADD ADD MLOAD PUSH1 0x20 ADD MLOAD PUSH1 0x1 PUSH1 0x2 DUP2 LT PUSH2 0xE7A JUMPI PUSH2 0xE79 PUSH2 0x1437 JUMP JUMPDEST JUMPDEST PUSH1 0x20 MUL ADD MLOAD DUP3 PUSH1 0x4 PUSH1 0x6 DUP5 PUSH2 0xE8F SWAP2 SWAP1 PUSH2 0x1554 JUMP JUMPDEST PUSH2 0xE99 SWAP2 SWAP1 PUSH2 0x1491 JUMP JUMPDEST DUP2 MLOAD DUP2 LT PUSH2 0xEAA JUMPI PUSH2 0xEA9 PUSH2 0x1437 JUMP JUMPDEST JUMPDEST PUSH1 0x20 MUL PUSH1 0x20 ADD ADD DUP2 DUP2 MSTORE POP POP DUP6 DUP2 DUP2 MLOAD DUP2 LT PUSH2 0xEC9 JUMPI PUSH2 0xEC8 PUSH2 0x1437 JUMP JUMPDEST JUMPDEST PUSH1 0x20 MUL PUSH1 0x20 ADD ADD MLOAD PUSH1 0x20 ADD MLOAD PUSH0 PUSH1 0x2 DUP2 LT PUSH2 0xEE7 JUMPI PUSH2 0xEE6 PUSH2 0x1437 JUMP JUMPDEST JUMPDEST PUSH1 0x20 MUL ADD MLOAD DUP3 PUSH1 0x5 PUSH1 0x6 DUP5 PUSH2 0xEFC SWAP2 SWAP1 PUSH2 0x1554 JUMP JUMPDEST PUSH2 0xF06 SWAP2 SWAP1 PUSH2 0x1491 JUMP JUMPDEST DUP2 MLOAD DUP2 LT PUSH2 0xF17 JUMPI PUSH2 0xF16 PUSH2 0x1437 JUMP JUMPDEST JUMPDEST PUSH1 0x20 MUL PUSH1 0x20 ADD ADD DUP2 DUP2 MSTORE POP POP DUP1 DUP1 PUSH1 0x1 ADD SWAP2 POP POP PUSH2 0xCBD JUMP JUMPDEST POP PUSH2 0xF39 PUSH2 0x1054 JUMP JUMPDEST PUSH0 PUSH1 0x20 DUP3 PUSH1 0x20 DUP7 MUL PUSH1 0x20 DUP7 ADD PUSH1 0x8 PUSH2 0x7D0 GAS SUB STATICCALL SWAP1 POP DUP1 PUSH0 DUP2 SUB PUSH2 0xF59 JUMPI INVALID JUMPDEST POP DUP1 PUSH2 0xF63 JUMPI PUSH0 DUP1 REVERT JUMPDEST PUSH0 DUP3 PUSH0 PUSH1 0x1 DUP2 LT PUSH2 0xF77 JUMPI PUSH2 0xF76 PUSH2 0x1437 JUMP JUMPDEST JUMPDEST PUSH1 0x20 MUL ADD MLOAD EQ ISZERO SWAP6 POP POP POP POP POP POP SWAP3 SWAP2 POP POP JUMP JUMPDEST PUSH1 0x40 MLOAD DUP1 PUSH1 0xA0 ADD PUSH1 0x40 MSTORE DUP1 PUSH2 0xF9E PUSH2 0xFD2 JUMP JUMPDEST DUP2 MSTORE PUSH1 0x20 ADD PUSH2 0xFAB PUSH2 0x102E JUMP JUMPDEST DUP2 MSTORE PUSH1 0x20 ADD PUSH2 0xFB8 PUSH2 0x102E JUMP JUMPDEST DUP2 MSTORE PUSH1 0x20 ADD PUSH2 0xFC5 PUSH2 0x102E JUMP JUMPDEST DUP2 MSTORE PUSH1 0x20 ADD PUSH1 0x60 DUP2 MSTORE POP SWAP1 JUMP JUMPDEST PUSH1 0x40 MLOAD DUP1 PUSH1 0x40 ADD PUSH1 0x40 MSTORE DUP1 PUSH0 DUP2 MSTORE PUSH1 0x20 ADD PUSH0 DUP2 MSTORE POP SWAP1 JUMP JUMPDEST PUSH1 0x40 MLOAD DUP1 PUSH1 0x60 ADD PUSH1 0x40 MSTORE DUP1 PUSH1 0x3 SWAP1 PUSH1 0x20 DUP3 MUL DUP1 CALLDATASIZE DUP4 CALLDATACOPY DUP1 DUP3 ADD SWAP2 POP POP SWAP1 POP POP SWAP1 JUMP JUMPDEST PUSH1 0x40 MLOAD DUP1 PUSH1 0x80 ADD PUSH1 0x40 MSTORE DUP1 PUSH1 0x4 SWAP1 PUSH1 0x20 DUP3 MUL DUP1 CALLDATASIZE DUP4 CALLDATACOPY DUP1 DUP3 ADD SWAP2 POP POP SWAP1 POP POP SWAP1 JUMP JUMPDEST PUSH1 0x40 MLOAD DUP1 PUSH1 0x40 ADD PUSH1 0x40 MSTORE DUP1 PUSH2 0x1041 PUSH2 0x1076 JUMP JUMPDEST DUP2 MSTORE PUSH1 0x20 ADD PUSH2 0x104E PUSH2 0x1076 JUMP JUMPDEST DUP2 MSTORE POP SWAP1 JUMP JUMPDEST PUSH1 0x40 MLOAD DUP1 PUSH1 0x20 ADD PUSH1 0x40 MSTORE DUP1 PUSH1 0x1 SWAP1 PUSH1 0x20 DUP3 MUL DUP1 CALLDATASIZE DUP4 CALLDATACOPY DUP1 DUP3 ADD SWAP2 POP POP SWAP1 POP POP SWAP1 JUMP JUMPDEST PUSH1 0x40 MLOAD DUP1 PUSH1 0x40 ADD PUSH1 0x40 MSTORE DUP1 PUSH1 0x2 SWAP1 PUSH1 0x20 DUP3 MUL DUP1 CALLDATASIZE DUP4 CALLDATACOPY DUP1 DUP3 ADD SWAP2 POP POP SWAP1 POP POP SWAP1 JUMP JUMPDEST PUSH0 PUSH1 0x40 MLOAD SWAP1 POP SWAP1 JUMP JUMPDEST PUSH0 DUP1 REVERT JUMPDEST PUSH0 DUP1 REVERT JUMPDEST PUSH0 PUSH1 0x1F NOT PUSH1 0x1F DUP4 ADD AND SWAP1 POP SWAP2 SWAP1 POP JUMP JUMPDEST PUSH32 0x4E487B7100000000000000000000000000000000000000000000000000000000 PUSH0 MSTORE PUSH1 0x41 PUSH1 0x4 MSTORE PUSH1 0x24 PUSH0 REVERT JUMPDEST PUSH2 0x10EF DUP3 PUSH2 0x10A9 JUMP JUMPDEST DUP2 ADD DUP2 DUP2 LT PUSH8 0xFFFFFFFFFFFFFFFF DUP3 GT OR ISZERO PUSH2 0x110E JUMPI PUSH2 0x110D PUSH2 0x10B9 JUMP JUMPDEST JUMPDEST DUP1 PUSH1 0x40 MSTORE POP POP POP JUMP JUMPDEST PUSH0 PUSH2 0x1120 PUSH2 0x1098 JUMP JUMPDEST SWAP1 POP PUSH2 0x112C DUP3 DUP3 PUSH2 0x10E6 JUMP JUMPDEST SWAP2 SWAP1 POP JUMP JUMPDEST PUSH0 DUP2 SWAP1 POP SWAP2 SWAP1 POP JUMP JUMPDEST PUSH2 0x1143 DUP2 PUSH2 0x1131 JUMP JUMPDEST DUP2 EQ PUSH2 0x114D JUMPI PUSH0 DUP1 REVERT JUMPDEST POP JUMP JUMPDEST PUSH0 DUP2 CALLDATALOAD SWAP1 POP PUSH2 0x115E DUP2 PUSH2 0x113A JUMP JUMPDEST SWAP3 SWAP2 POP POP JUMP JUMPDEST PUSH0 PUSH1 0x40 DUP3 DUP5 SUB SLT ISZERO PUSH2 0x1179 JUMPI PUSH2 0x1178 PUSH2 0x10A5 JUMP JUMPDEST JUMPDEST PUSH2 0x1183 PUSH1 0x40 PUSH2 0x1117 JUMP JUMPDEST SWAP1 POP PUSH0 PUSH2 0x1192 DUP5 DUP3 DUP6 ADD PUSH2 0x1150 JUMP JUMPDEST PUSH0 DUP4 ADD MSTORE POP PUSH1 0x20 PUSH2 0x11A5 DUP5 DUP3 DUP6 ADD PUSH2 0x1150 JUMP JUMPDEST PUSH1 0x20 DUP4 ADD MSTORE POP SWAP3 SWAP2 POP POP JUMP JUMPDEST PUSH0 DUP1 REVERT JUMPDEST PUSH0 PUSH8 0xFFFFFFFFFFFFFFFF DUP3 GT ISZERO PUSH2 0x11CF JUMPI PUSH2 0x11CE PUSH2 0x10B9 JUMP JUMPDEST JUMPDEST PUSH1 0x20 DUP3 MUL SWAP1 POP SWAP2 SWAP1 POP JUMP JUMPDEST PUSH0 DUP1 REVERT JUMPDEST PUSH0 PUSH2 0x11F0 PUSH2 0x11EB DUP5 PUSH2 0x11B5 JUMP JUMPDEST PUSH2 0x1117 JUMP JUMPDEST SWAP1 POP DUP1 PUSH1 0x20 DUP5 MUL DUP4 ADD DUP6 DUP2 GT ISZERO PUSH2 0x120A JUMPI PUSH2 0x1209 PUSH2 0x11DA JUMP JUMPDEST JUMPDEST DUP4 JUMPDEST DUP2 DUP2 LT ISZERO PUSH2 0x1233 JUMPI DUP1 PUSH2 0x121F DUP9 DUP3 PUSH2 0x1150 JUMP JUMPDEST DUP5 MSTORE PUSH1 0x20 DUP5 ADD SWAP4 POP POP PUSH1 0x20 DUP2 ADD SWAP1 POP PUSH2 0x120C JUMP JUMPDEST POP POP POP SWAP4 SWAP3 POP POP POP JUMP JUMPDEST PUSH0 DUP3 PUSH1 0x1F DUP4 ADD SLT PUSH2 0x1251 JUMPI PUSH2 0x1250 PUSH2 0x11B1 JUMP JUMPDEST JUMPDEST PUSH1 0x2 PUSH2 0x125E DUP5 DUP3 DUP6 PUSH2 0x11DE JUMP JUMPDEST SWAP2 POP POP SWAP3 SWAP2 POP POP JUMP JUMPDEST PUSH0 PUSH1 0x80 DUP3 DUP5 SUB SLT ISZERO PUSH2 0x127C JUMPI PUSH2 0x127B PUSH2 0x10A5 JUMP JUMPDEST JUMPDEST PUSH2 0x1286 PUSH1 0x40 PUSH2 0x1117 JUMP JUMPDEST SWAP1 POP PUSH0 PUSH2 0x1295 DUP5 DUP3 DUP6 ADD PUSH2 0x123D JUMP JUMPDEST PUSH0 DUP4 ADD MSTORE POP PUSH1 0x40 PUSH2 0x12A8 DUP5 DUP3 DUP6 ADD PUSH2 0x123D JUMP JUMPDEST PUSH1 0x20 DUP4 ADD MSTORE POP SWAP3 SWAP2 POP POP JUMP JUMPDEST PUSH0 PUSH2 0x100 DUP3 DUP5 SUB SLT ISZERO PUSH2 0x12CA JUMPI PUSH2 0x12C9 PUSH2 0x10A5 JUMP JUMPDEST JUMPDEST PUSH2 0x12D4 PUSH1 0x60 PUSH2 0x1117 JUMP JUMPDEST SWAP1 POP PUSH0 PUSH2 0x12E3 DUP5 DUP3 DUP6 ADD PUSH2 0x1164 JUMP JUMPDEST PUSH0 DUP4 ADD MSTORE POP PUSH1 0x40 PUSH2 0x12F6 DUP5 DUP3 DUP6 ADD PUSH2 0x1267 JUMP JUMPDEST PUSH1 0x20 DUP4 ADD MSTORE POP PUSH1 0xC0 PUSH2 0x130A DUP5 DUP3 DUP6 ADD PUSH2 0x1164 JUMP JUMPDEST PUSH1 0x40 DUP4 ADD MSTORE POP SWAP3 SWAP2 POP POP JUMP JUMPDEST PUSH0 PUSH8 0xFFFFFFFFFFFFFFFF DUP3 GT ISZERO PUSH2 0x1330 JUMPI PUSH2 0x132F PUSH2 0x10B9 JUMP JUMPDEST JUMPDEST PUSH1 0x20 DUP3 MUL SWAP1 POP SWAP2 SWAP1 POP JUMP JUMPDEST PUSH0 PUSH2 0x134D PUSH2 0x1348 DUP5 PUSH2 0x1316 JUMP JUMPDEST PUSH2 0x1117 JUMP JUMPDEST SWAP1 POP DUP1 PUSH1 0x20 DUP5 MUL DUP4 ADD DUP6 DUP2 GT ISZERO PUSH2 0x1367 JUMPI PUSH2 0x1366 PUSH2 0x11DA JUMP JUMPDEST JUMPDEST DUP4 JUMPDEST DUP2 DUP2 LT ISZERO PUSH2 0x1390 JUMPI DUP1 PUSH2 0x137C DUP9 DUP3 PUSH2 0x1150 JUMP JUMPDEST DUP5 MSTORE PUSH1 0x20 DUP5 ADD SWAP4 POP POP PUSH1 0x20 DUP2 ADD SWAP1 POP PUSH2 0x1369 JUMP JUMPDEST POP POP POP SWAP4 SWAP3 POP POP POP JUMP JUMPDEST PUSH0 DUP3 PUSH1 0x1F DUP4 ADD SLT PUSH2 0x13AE JUMPI PUSH2 0x13AD PUSH2 0x11B1 JUMP JUMPDEST JUMPDEST PUSH1 0x5 PUSH2 0x13BB DUP5 DUP3 DUP6 PUSH2 0x133B JUMP JUMPDEST SWAP2 POP POP SWAP3 SWAP2 POP POP JUMP JUMPDEST PUSH0 DUP1 PUSH2 0x1A0 DUP4 DUP6 SUB SLT ISZERO PUSH2 0x13DB JUMPI PUSH2 0x13DA PUSH2 0x10A1 JUMP JUMPDEST JUMPDEST PUSH0 PUSH2 0x13E8 DUP6 DUP3 DUP7 ADD PUSH2 0x12B4 JUMP JUMPDEST SWAP3 POP POP PUSH2 0x100 PUSH2 0x13FA DUP6 DUP3 DUP7 ADD PUSH2 0x139A JUMP JUMPDEST SWAP2 POP POP SWAP3 POP SWAP3 SWAP1 POP JUMP JUMPDEST PUSH0 DUP2 ISZERO ISZERO SWAP1 POP SWAP2 SWAP1 POP JUMP JUMPDEST PUSH2 0x1418 DUP2 PUSH2 0x1404 JUMP JUMPDEST DUP3 MSTORE POP POP JUMP JUMPDEST PUSH0 PUSH1 0x20 DUP3 ADD SWAP1 POP PUSH2 0x1431 PUSH0 DUP4 ADD DUP5 PUSH2 0x140F JUMP JUMPDEST SWAP3 SWAP2 POP POP JUMP JUMPDEST PUSH32 0x4E487B7100000000000000000000000000000000000000000000000000000000 PUSH0 MSTORE PUSH1 0x32 PUSH1 0x4 MSTORE PUSH1 0x24 PUSH0 REVERT JUMPDEST PUSH32 0x4E487B7100000000000000000000000000000000000000000000000000000000 PUSH0 MSTORE PUSH1 0x11 PUSH1 0x4 MSTORE PUSH1 0x24 PUSH0 REVERT JUMPDEST PUSH0 PUSH2 0x149B DUP3 PUSH2 0x1131 JUMP JUMPDEST SWAP2 POP PUSH2 0x14A6 DUP4 PUSH2 0x1131 JUMP JUMPDEST SWAP3 POP DUP3 DUP3 ADD SWAP1 POP DUP1 DUP3 GT ISZERO PUSH2 0x14BE JUMPI PUSH2 0x14BD PUSH2 0x1464 JUMP JUMPDEST JUMPDEST SWAP3 SWAP2 POP POP JUMP JUMPDEST PUSH32 0x4E487B7100000000000000000000000000000000000000000000000000000000 PUSH0 MSTORE PUSH1 0x12 PUSH1 0x4 MSTORE PUSH1 0x24 PUSH0 REVERT JUMPDEST PUSH0 PUSH2 0x14FB DUP3 PUSH2 0x1131 JUMP JUMPDEST SWAP2 POP PUSH2 0x1506 DUP4 PUSH2 0x1131 JUMP JUMPDEST SWAP3 POP DUP3 PUSH2 0x1516 JUMPI PUSH2 0x1515 PUSH2 0x14C4 JUMP JUMPDEST JUMPDEST DUP3 DUP3 MOD SWAP1 POP SWAP3 SWAP2 POP POP JUMP JUMPDEST PUSH0 PUSH2 0x152B DUP3 PUSH2 0x1131 JUMP JUMPDEST SWAP2 POP PUSH2 0x1536 DUP4 PUSH2 0x1131 JUMP JUMPDEST SWAP3 POP DUP3 DUP3 SUB SWAP1 POP DUP2 DUP2 GT ISZERO PUSH2 0x154E JUMPI PUSH2 0x154D PUSH2 0x1464 JUMP JUMPDEST JUMPDEST SWAP3 SWAP2 POP POP JUMP JUMPDEST PUSH0 PUSH2 0x155E DUP3 PUSH2 0x1131 JUMP JUMPDEST SWAP2 POP PUSH2 0x1569 DUP4 PUSH2 0x1131 JUMP JUMPDEST SWAP3 POP DUP3 DUP3 MUL PUSH2 0x1577 DUP2 PUSH2 0x1131 JUMP JUMPDEST SWAP2 POP DUP3 DUP3 DIV DUP5 EQ DUP4 ISZERO OR PUSH2 0x158E JUMPI PUSH2 0x158D PUSH2 0x1464 JUMP JUMPDEST JUMPDEST POP SWAP3 SWAP2 POP POP JUMP INVALID LOG2 PUSH5 0x6970667358 0x22 SLT KECCAK256 0xD9 PUSH22 0xCBC68ED36FDC44B72930C19591BF8E778A074E865333 0xD2 0x25 0xD9 0xC0 PUSH31 0xCFD77964736F6C634300081A00330000000000000000000000000000000000 "
				},
				"gasEstimates": {
					"creation": {
						"codeDepositCost": "1115800",
						"executionCost": "1158",
						"totalCost": "1116958"
					},
					"external": {
						"verifyTx(((uint256,uint256),(uint256[2],uint256[2]),(uint256,uint256)),uint256[5])": "infinite"
					},
					"internal": {
						"verify(uint256[] memory,struct Verifier.Proof memory)": "infinite",
						"verifyingKey()": "infinite"
					}
				},
				"methodIdentifiers": {
					"verifyTx(((uint256,uint256),(uint256[2],uint256[2]),(uint256,uint256)),uint256[5])": "bcb99886"
				}
			},
			"storageLayout": {
				"storage": [],
				"types": null
			},
			"userdoc": {
				"kind": "user",
				"methods": {},
				"version": 1
			}
		}
	}
}