{
	"contracts/AIOracle.sol": {
		"AIOracle": {
			"abi": [
				{
					"anonymous": false,
					"inputs": [
						{
							"indexed": true,
							"internalType": "address",
							"name": "account",
							"type": "address"
						},
						{
							"indexed": true,
							"internalType": "uint256",
							"name": "requestId",
							"type": "uint256"
						},
						{
							"indexed": false,
							"internalType": "uint256",
							"name": "modelId",
							"type": "uint256"
						},
						{
							"indexed": false,
							"internalType": "bytes",
							"name": "input",
							"type": "bytes"
						},
						{
							"indexed": false,
							"internalType": "address",
							"name": "callbackContract",
							"type": "address"
						},
						{
							"indexed": false,
							"internalType": "uint64",
							"name": "gasLimit",
							"type": "uint64"
						},
						{
							"indexed": false,
							"internalType": "bytes",
							"name": "callbackData",
							"type": "bytes"
						}
					],
					"name": "AICallbackRequest",
					"type": "event"
				},
				{
					"anonymous": false,
					"inputs": [
						{
							"indexed": true,
							"internalType": "address",
							"name": "account",
							"type": "address"
						},
						{
							"indexed": true,
							"internalType": "uint256",
							"name": "requestId",
							"type": "uint256"
						},
						{
							"indexed": false,
							"internalType": "address",
							"name": "invoker",
							"type": "address"
						},
						{
							"indexed": false,
							"internalType": "bytes",
							"name": "output",
							"type": "bytes"
						}
					],
					"name": "AICallbackResult",
					"type": "event"
				},
				{
					"inputs": [
						{
							"internalType": "address",
							"name": "_address",
							"type": "address"
						}
					],
					"name": "addToBlacklist",
					"outputs": [],
					"stateMutability": "nonpayable",
					"type": "function"
				},
				{
					"inputs": [
						{
							"internalType": "address",
							"name": "_address",
							"type": "address"
						}
					],
					"name": "addToWhitelist",
					"outputs": [],
					"stateMutability": "nonpayable",
					"type": "function"
				},
				{
					"inputs": [
						{
							"internalType": "address",
							"name": "",
							"type": "address"
						}
					],
					"name": "blacklist",
					"outputs": [
						{
							"internalType": "bool",
							"name": "",
							"type": "bool"
						}
					],
					"stateMutability": "view",
					"type": "function"
				},
				{
					"inputs": [],
					"name": "callbackFunctionSelector",
					"outputs": [
						{
							"internalType": "bytes4",
							"name": "",
							"type": "bytes4"
						}
					],
					"stateMutability": "view",
					"type": "function"
				},
				{
					"inputs": [
						{
							"internalType": "uint256",
							"name": "modelId",
							"type": "uint256"
						}
					],
					"name": "claimModelRevenue",
					"outputs": [],
					"stateMutability": "nonpayable",
					"type": "function"
				},
				{
					"inputs": [
						{
							"internalType": "uint256",
							"name": "modelId",
							"type": "uint256"
						},
						{
							"internalType": "uint256",
							"name": "gasLimit",
							"type": "uint256"
						}
					],
					"name": "estimateFee",
					"outputs": [
						{
							"internalType": "uint256",
							"name": "",
							"type": "uint256"
						}
					],
					"stateMutability": "view",
					"type": "function"
				},
				{
					"inputs": [],
					"name": "gasPrice",
					"outputs": [
						{
							"internalType": "uint256",
							"name": "",
							"type": "uint256"
						}
					],
					"stateMutability": "view",
					"type": "function"
				},
				{
					"inputs": [
						{
							"internalType": "uint256",
							"name": "modelId",
							"type": "uint256"
						}
					],
					"name": "getModel",
					"outputs": [
						{
							"components": [
								{
									"internalType": "bytes32",
									"name": "modelHash",
									"type": "bytes32"
								},
								{
									"internalType": "bytes32",
									"name": "programHash",
									"type": "bytes32"
								},
								{
									"internalType": "uint256",
									"name": "fee",
									"type": "uint256"
								},
								{
									"internalType": "address",
									"name": "receiver",
									"type": "address"
								},
								{
									"internalType": "uint256",
									"name": "receiverPercentage",
									"type": "uint256"
								},
								{
									"internalType": "uint256",
									"name": "accumulateRevenue",
									"type": "uint256"
								}
							],
							"internalType": "struct AIOracle.ModelData",
							"name": "",
							"type": "tuple"
						}
					],
					"stateMutability": "view",
					"type": "function"
				},
				{
					"inputs": [
						{
							"internalType": "uint256",
							"name": "requestId",
							"type": "uint256"
						}
					],
					"name": "getOutput",
					"outputs": [
						{
							"internalType": "bytes",
							"name": "output",
							"type": "bytes"
						}
					],
					"stateMutability": "view",
					"type": "function"
				},
				{
					"inputs": [
						{
							"internalType": "uint256",
							"name": "requestId",
							"type": "uint256"
						},
						{
							"internalType": "bytes",
							"name": "output",
							"type": "bytes"
						}
					],
					"name": "invokeCallback",
					"outputs": [],
					"stateMutability": "nonpayable",
					"type": "function"
				},
				{
					"inputs": [
						{
							"internalType": "uint256",
							"name": "requestId",
							"type": "uint256"
						}
					],
					"name": "isFinalized",
					"outputs": [
						{
							"internalType": "bool",
							"name": "",
							"type": "bool"
						}
					],
					"stateMutability": "view",
					"type": "function"
				},
				{
					"inputs": [
						{
							"internalType": "uint256",
							"name": "",
							"type": "uint256"
						}
					],
					"name": "modelIDs",
					"outputs": [
						{
							"internalType": "uint256",
							"name": "",
							"type": "uint256"
						}
					],
					"stateMutability": "view",
					"type": "function"
				},
				{
					"inputs": [],
					"name": "numberOfModels",
					"outputs": [
						{
							"internalType": "uint256",
							"name": "",
							"type": "uint256"
						}
					],
					"stateMutability": "view",
					"type": "function"
				},
				{
					"inputs": [],
					"name": "opml",
					"outputs": [
						{
							"internalType": "contract IOpml",
							"name": "",
							"type": "address"
						}
					],
					"stateMutability": "view",
					"type": "function"
				},
				{
					"inputs": [
						{
							"internalType": "uint256",
							"name": "",
							"type": "uint256"
						}
					],
					"name": "outputOfRequest",
					"outputs": [
						{
							"internalType": "bytes",
							"name": "",
							"type": "bytes"
						}
					],
					"stateMutability": "view",
					"type": "function"
				},
				{
					"inputs": [],
					"name": "owner",
					"outputs": [
						{
							"internalType": "address",
							"name": "",
							"type": "address"
						}
					],
					"stateMutability": "view",
					"type": "function"
				},
				{
					"inputs": [
						{
							"internalType": "address",
							"name": "_address",
							"type": "address"
						}
					],
					"name": "removeFromBlacklist",
					"outputs": [],
					"stateMutability": "nonpayable",
					"type": "function"
				},
				{
					"inputs": [
						{
							"internalType": "address",
							"name": "_address",
							"type": "address"
						}
					],
					"name": "removeFromWhitelist",
					"outputs": [],
					"stateMutability": "nonpayable",
					"type": "function"
				},
				{
					"inputs": [
						{
							"internalType": "uint256",
							"name": "modelId",
							"type": "uint256"
						}
					],
					"name": "removeModel",
					"outputs": [],
					"stateMutability": "nonpayable",
					"type": "function"
				},
				{
					"inputs": [
						{
							"internalType": "uint256",
							"name": "modelId",
							"type": "uint256"
						},
						{
							"internalType": "bytes",
							"name": "input",
							"type": "bytes"
						},
						{
							"internalType": "address",
							"name": "callbackContract",
							"type": "address"
						},
						{
							"internalType": "uint64",
							"name": "gasLimit",
							"type": "uint64"
						},
						{
							"internalType": "bytes",
							"name": "callbackData",
							"type": "bytes"
						}
					],
					"name": "requestCallback",
					"outputs": [
						{
							"internalType": "uint256",
							"name": "",
							"type": "uint256"
						}
					],
					"stateMutability": "payable",
					"type": "function"
				},
				{
					"inputs": [
						{
							"internalType": "uint256",
							"name": "",
							"type": "uint256"
						}
					],
					"name": "requests",
					"outputs": [
						{
							"internalType": "address",
							"name": "account",
							"type": "address"
						},
						{
							"internalType": "uint256",
							"name": "requestId",
							"type": "uint256"
						},
						{
							"internalType": "uint256",
							"name": "modelId",
							"type": "uint256"
						},
						{
							"internalType": "bytes",
							"name": "input",
							"type": "bytes"
						},
						{
							"internalType": "address",
							"name": "callbackContract",
							"type": "address"
						},
						{
							"internalType": "uint64",
							"name": "gasLimit",
							"type": "uint64"
						},
						{
							"internalType": "bytes",
							"name": "callbackData",
							"type": "bytes"
						}
					],
					"stateMutability": "view",
					"type": "function"
				},
				{
					"inputs": [],
					"name": "resetGasPrice",
					"outputs": [],
					"stateMutability": "nonpayable",
					"type": "function"
				},
				{
					"inputs": [],
					"name": "resetModelIDs",
					"outputs": [],
					"stateMutability": "nonpayable",
					"type": "function"
				},
				{
					"inputs": [],
					"name": "server",
					"outputs": [
						{
							"internalType": "address",
							"name": "",
							"type": "address"
						}
					],
					"stateMutability": "view",
					"type": "function"
				},
				{
					"inputs": [
						{
							"internalType": "uint256",
							"name": "modelId",
							"type": "uint256"
						},
						{
							"internalType": "uint256",
							"name": "_fee",
							"type": "uint256"
						}
					],
					"name": "setModelFee",
					"outputs": [],
					"stateMutability": "nonpayable",
					"type": "function"
				},
				{
					"inputs": [
						{
							"internalType": "uint256",
							"name": "modelId",
							"type": "uint256"
						},
						{
							"internalType": "address",
							"name": "receiver",
							"type": "address"
						}
					],
					"name": "setModelReceiver",
					"outputs": [],
					"stateMutability": "nonpayable",
					"type": "function"
				},
				{
					"inputs": [
						{
							"internalType": "uint256",
							"name": "modelId",
							"type": "uint256"
						},
						{
							"internalType": "uint256",
							"name": "receiverPercentage",
							"type": "uint256"
						}
					],
					"name": "setModelReceiverPercentage",
					"outputs": [],
					"stateMutability": "nonpayable",
					"type": "function"
				},
				{
					"inputs": [
						{
							"internalType": "address",
							"name": "newOpml",
							"type": "address"
						}
					],
					"name": "setOpml",
					"outputs": [],
					"stateMutability": "nonpayable",
					"type": "function"
				},
				{
					"inputs": [
						{
							"internalType": "address",
							"name": "newOwner",
							"type": "address"
						}
					],
					"name": "transferOwnership",
					"outputs": [],
					"stateMutability": "nonpayable",
					"type": "function"
				},
				{
					"inputs": [
						{
							"internalType": "uint256",
							"name": "modelId",
							"type": "uint256"
						},
						{
							"internalType": "bytes32",
							"name": "modelHash",
							"type": "bytes32"
						},
						{
							"internalType": "bytes32",
							"name": "programHash",
							"type": "bytes32"
						},
						{
							"internalType": "uint256",
							"name": "fee",
							"type": "uint256"
						},
						{
							"internalType": "address",
							"name": "receiver",
							"type": "address"
						},
						{
							"internalType": "uint256",
							"name": "receiverPercentage",
							"type": "uint256"
						}
					],
					"name": "updateModel",
					"outputs": [],
					"stateMutability": "nonpayable",
					"type": "function"
				},
				{
					"inputs": [
						{
							"internalType": "uint256",
							"name": "requestId",
							"type": "uint256"
						}
					],
					"name": "updateResult",
					"outputs": [],
					"stateMutability": "nonpayable",
					"type": "function"
				},
				{
					"inputs": [
						{
							"internalType": "uint256",
							"name": "modelId",
							"type": "uint256"
						},
						{
							"internalType": "bytes32",
							"name": "modelHash",
							"type": "bytes32"
						},
						{
							"internalType": "bytes32",
							"name": "programHash",
							"type": "bytes32"
						},
						{
							"internalType": "uint256",
							"name": "fee",
							"type": "uint256"
						},
						{
							"internalType": "address",
							"name": "receiver",
							"type": "address"
						},
						{
							"internalType": "uint256",
							"name": "receiverPercentage",
							"type": "uint256"
						}
					],
					"name": "uploadModel",
					"outputs": [],
					"stateMutability": "nonpayable",
					"type": "function"
				},
				{
					"inputs": [
						{
							"internalType": "address",
							"name": "",
							"type": "address"
						}
					],
					"name": "whitelist",
					"outputs": [
						{
							"internalType": "bool",
							"name": "",
							"type": "bool"
						}
					],
					"stateMutability": "view",
					"type": "function"
				},
				{
					"inputs": [],
					"name": "withdraw",
					"outputs": [],
					"stateMutability": "nonpayable",
					"type": "function"
				}
			],
			"devdoc": {
				"kind": "dev",
				"methods": {
					"requestCallback(uint256,bytes,address,uint64,bytes)": {
						"params": {
							"callbackContract": "address of callback contract",
							"callbackData": "optional, user-defined data, will send back to the callback function",
							"gasLimit": "gas limitation of calling the callback function",
							"input": "input for AI model",
							"modelId": "ID for AI model"
						},
						"returns": {
							"_0": "requestID"
						}
					}
				},
				"version": 1
			},
			"evm": {
				"assembly": "    /* \"contracts/AIOracle.sol\":150:11375  contract AIOracle is IAIOracle {... */\n  mstore(0x40, 0x80)\n  callvalue\n  dup1\n  iszero\n  tag_1\n  jumpi\n  0x00\n  dup1\n  revert\ntag_1:\n  pop\n  dataSize(sub_0)\n  dup1\n  dataOffset(sub_0)\n  0x00\n  codecopy\n  0x00\n  return\nstop\n\nsub_0: assembly {\n        /* \"contracts/AIOracle.sol\":150:11375  contract AIOracle is IAIOracle {... */\n      mstore(0x40, 0x80)\n      jumpi(tag_1, lt(calldatasize, 0x04))\n      shr(0xe0, calldataload(0x00))\n      dup1\n      0x754592b2\n      gt\n      tag_36\n      jumpi\n      dup1\n      0xb1097523\n      gt\n      tag_37\n      jumpi\n      dup1\n      0xea5abe61\n      gt\n      tag_38\n      jumpi\n      dup1\n      0xea5abe61\n      eq\n      tag_31\n      jumpi\n      dup1\n      0xf2fde38b\n      eq\n      tag_32\n      jumpi\n      dup1\n      0xf9f92be4\n      eq\n      tag_33\n      jumpi\n      dup1\n      0xfd922a42\n      eq\n      tag_34\n      jumpi\n      dup1\n      0xfe173b97\n      eq\n      tag_35\n      jumpi\n      jump(tag_1)\n    tag_38:\n      dup1\n      0xb1097523\n      eq\n      tag_27\n      jumpi\n      dup1\n      0xb70b5ccc\n      eq\n      tag_28\n      jumpi\n      dup1\n      0xe43252d7\n      eq\n      tag_29\n      jumpi\n      dup1\n      0xe857f747\n      eq\n      tag_30\n      jumpi\n      jump(tag_1)\n    tag_37:\n      dup1\n      0x8da5cb5b\n      gt\n      tag_39\n      jumpi\n      dup1\n      0x8da5cb5b\n      eq\n      tag_23\n      jumpi\n      dup1\n      0x9a6a794f\n      eq\n      tag_24\n      jumpi\n      dup1\n      0x9b19251a\n      eq\n      tag_25\n      jumpi\n      dup1\n      0xace04ec7\n      eq\n      tag_26\n      jumpi\n      jump(tag_1)\n    tag_39:\n      dup1\n      0x754592b2\n      eq\n      tag_19\n      jumpi\n      dup1\n      0x81d12c58\n      eq\n      tag_20\n      jumpi\n      dup1\n      0x82dcc26d\n      eq\n      tag_21\n      jumpi\n      dup1\n      0x8ab1d681\n      eq\n      tag_22\n      jumpi\n      jump(tag_1)\n    tag_36:\n      dup1\n      0x537df3b6\n      gt\n      tag_40\n      jumpi\n      dup1\n      0x5b953806\n      gt\n      tag_41\n      jumpi\n      dup1\n      0x5b953806\n      eq\n      tag_14\n      jumpi\n      dup1\n      0x699ecb83\n      eq\n      tag_15\n      jumpi\n      dup1\n      0x6b0641a3\n      eq\n      tag_16\n      jumpi\n      dup1\n      0x6c124d74\n      eq\n      tag_17\n      jumpi\n      dup1\n      0x6d361694\n      eq\n      tag_18\n      jumpi\n      jump(tag_1)\n    tag_41:\n      dup1\n      0x537df3b6\n      eq\n      tag_10\n      jumpi\n      dup1\n      0x54c33b10\n      eq\n      tag_11\n      jumpi\n      dup1\n      0x55d15d93\n      eq\n      tag_12\n      jumpi\n      dup1\n      0x5638101b\n      eq\n      tag_13\n      jumpi\n      jump(tag_1)\n    tag_40:\n      dup1\n      0x349c4136\n      gt\n      tag_42\n      jumpi\n      dup1\n      0x349c4136\n      eq\n      tag_6\n      jumpi\n      dup1\n      0x3ccfd60b\n      eq\n      tag_7\n      jumpi\n      dup1\n      0x44337ea1\n      eq\n      tag_8\n      jumpi\n      dup1\n      0x49163731\n      eq\n      tag_9\n      jumpi\n      jump(tag_1)\n    tag_42:\n      dup1\n      0x77f244\n      eq\n      tag_2\n      jumpi\n      dup1\n      0xe1d8d0\n      eq\n      tag_3\n      jumpi\n      dup1\n      0x17861f87\n      eq\n      tag_4\n      jumpi\n      dup1\n      0x33727c4d\n      eq\n      tag_5\n      jumpi\n    tag_1:\n      0x00\n      dup1\n      revert\n        /* \"contracts/AIOracle.sol\":4660:4856  function setModelReceiver(uint256 modelId, address receiver) external onlyOwner ifModelExists(modelId) {... */\n    tag_2:\n      callvalue\n      dup1\n      iszero\n      tag_43\n      jumpi\n      0x00\n      dup1\n      revert\n    tag_43:\n      pop\n      tag_44\n      0x04\n      dup1\n      calldatasize\n      sub\n      dup2\n      add\n      swap1\n      tag_45\n      swap2\n      swap1\n      tag_46\n      jump\t// in\n    tag_45:\n      tag_47\n      jump\t// in\n    tag_44:\n      stop\n        /* \"contracts/AIOracle.sol\":5363:5578  function estimateFee(uint256 modelId, uint256 gasLimit) public view ifModelExists(modelId) returns (uint256) {... */\n    tag_3:\n      callvalue\n      dup1\n      iszero\n      tag_48\n      jumpi\n      0x00\n      dup1\n      revert\n    tag_48:\n      pop\n      tag_49\n      0x04\n      dup1\n      calldatasize\n      sub\n      dup2\n      add\n      swap1\n      tag_50\n      swap2\n      swap1\n      tag_51\n      jump\t// in\n    tag_50:\n      tag_52\n      jump\t// in\n    tag_49:\n      mload(0x40)\n      tag_53\n      swap2\n      swap1\n      tag_54\n      jump\t// in\n    tag_53:\n      mload(0x40)\n      dup1\n      swap2\n      sub\n      swap1\n      return\n        /* \"contracts/AIOracle.sol\":9170:9301  function getOutput(uint256 requestId) external view returns (bytes memory output) {... */\n    tag_4:\n      callvalue\n      dup1\n      iszero\n      tag_55\n      jumpi\n      0x00\n      dup1\n      revert\n    tag_55:\n      pop\n      tag_56\n      0x04\n      dup1\n      calldatasize\n      sub\n      dup2\n      add\n      swap1\n      tag_57\n      swap2\n      swap1\n      tag_58\n      jump\t// in\n    tag_57:\n      tag_59\n      jump\t// in\n    tag_56:\n      mload(0x40)\n      tag_60\n      swap2\n      swap1\n      tag_61\n      jump\t// in\n    tag_60:\n      mload(0x40)\n      dup1\n      swap2\n      sub\n      swap1\n      return\n        /* \"contracts/AIOracle.sol\":6820:6940  function isFinalized(uint256 requestId) external view returns (bool) {... */\n    tag_5:\n      callvalue\n      dup1\n      iszero\n      tag_62\n      jumpi\n      0x00\n      dup1\n      revert\n    tag_62:\n      pop\n      tag_63\n      0x04\n      dup1\n      calldatasize\n      sub\n      dup2\n      add\n      swap1\n      tag_64\n      swap2\n      swap1\n      tag_58\n      jump\t// in\n    tag_64:\n      tag_65\n      jump\t// in\n    tag_63:\n      mload(0x40)\n      tag_66\n      swap2\n      swap1\n      tag_67\n      jump\t// in\n    tag_66:\n      mload(0x40)\n      dup1\n      swap2\n      sub\n      swap1\n      return\n        /* \"contracts/AIOracle.sol\":1196:1221  uint256[] public modelIDs */\n    tag_6:\n      callvalue\n      dup1\n      iszero\n      tag_68\n      jumpi\n      0x00\n      dup1\n      revert\n    tag_68:\n      pop\n      tag_69\n      0x04\n      dup1\n      calldatasize\n      sub\n      dup2\n      add\n      swap1\n      tag_70\n      swap2\n      swap1\n      tag_58\n      jump\t// in\n    tag_70:\n      tag_71\n      jump\t// in\n    tag_69:\n      mload(0x40)\n      tag_72\n      swap2\n      swap1\n      tag_54\n      jump\t// in\n    tag_72:\n      mload(0x40)\n      dup1\n      swap2\n      sub\n      swap1\n      return\n        /* \"contracts/AIOracle.sol\":3909:4373  function withdraw() external onlyOwner {... */\n    tag_7:\n      callvalue\n      dup1\n      iszero\n      tag_73\n      jumpi\n      0x00\n      dup1\n      revert\n    tag_73:\n      pop\n      tag_74\n      tag_75\n      jump\t// in\n    tag_74:\n      stop\n        /* \"contracts/AIOracle.sol\":2004:2108  function addToBlacklist(address _address) external onlyOwner {... */\n    tag_8:\n      callvalue\n      dup1\n      iszero\n      tag_76\n      jumpi\n      0x00\n      dup1\n      revert\n    tag_76:\n      pop\n      tag_77\n      0x04\n      dup1\n      calldatasize\n      sub\n      dup2\n      add\n      swap1\n      tag_78\n      swap2\n      swap1\n      tag_79\n      jump\t// in\n    tag_78:\n      tag_80\n      jump\t// in\n    tag_77:\n      stop\n        /* \"contracts/AIOracle.sol\":269:329  bytes4 constant public callbackFunctionSelector = 0xb0347814 */\n    tag_9:\n      callvalue\n      dup1\n      iszero\n      tag_81\n      jumpi\n      0x00\n      dup1\n      revert\n    tag_81:\n      pop\n      tag_82\n      tag_83\n      jump\t// in\n    tag_82:\n      mload(0x40)\n      tag_84\n      swap2\n      swap1\n      tag_85\n      jump\t// in\n    tag_84:\n      mload(0x40)\n      dup1\n      swap2\n      sub\n      swap1\n      return\n        /* \"contracts/AIOracle.sol\":2114:2224  function removeFromBlacklist(address _address) external onlyOwner {... */\n    tag_10:\n      callvalue\n      dup1\n      iszero\n      tag_86\n      jumpi\n      0x00\n      dup1\n      revert\n    tag_86:\n      pop\n      tag_87\n      0x04\n      dup1\n      calldatasize\n      sub\n      dup2\n      add\n      swap1\n      tag_88\n      swap2\n      swap1\n      tag_79\n      jump\t// in\n    tag_88:\n      tag_89\n      jump\t// in\n    tag_87:\n      stop\n        /* \"contracts/AIOracle.sol\":6255:6810  function updateModel(uint256 modelId, bytes32 modelHash, bytes32 programHash, uint256 fee, address receiver, uint256 receiverPercentage) external onlyOwner ifModelExists(modelId) {... */\n    tag_11:\n      callvalue\n      dup1\n      iszero\n      tag_90\n      jumpi\n      0x00\n      dup1\n      revert\n    tag_90:\n      pop\n      tag_91\n      0x04\n      dup1\n      calldatasize\n      sub\n      dup2\n      add\n      swap1\n      tag_92\n      swap2\n      swap1\n      tag_93\n      jump\t// in\n    tag_92:\n      tag_94\n      jump\t// in\n    tag_91:\n      stop\n        /* \"contracts/AIOracle.sol\":10406:11373  function invokeCallback(uint256 requestId, bytes calldata output) external onlyWhitelisted {... */\n    tag_12:\n      callvalue\n      dup1\n      iszero\n      tag_95\n      jumpi\n      0x00\n      dup1\n      revert\n    tag_95:\n      pop\n      tag_96\n      0x04\n      dup1\n      calldatasize\n      sub\n      dup2\n      add\n      swap1\n      tag_97\n      swap2\n      swap1\n      tag_98\n      jump\t// in\n    tag_97:\n      tag_99\n      jump\t// in\n    tag_96:\n      stop\n        /* \"contracts/AIOracle.sol\":8720:9164  function claimModelRevenue(uint256 modelId) external ifModelExists(modelId) {... */\n    tag_13:\n      callvalue\n      dup1\n      iszero\n      tag_100\n      jumpi\n      0x00\n      dup1\n      revert\n    tag_100:\n      pop\n      tag_101\n      0x04\n      dup1\n      calldatasize\n      sub\n      dup2\n      add\n      swap1\n      tag_102\n      swap2\n      swap1\n      tag_58\n      jump\t// in\n    tag_102:\n      tag_103\n      jump\t// in\n    tag_101:\n      stop\n        /* \"contracts/AIOracle.sol\":7586:8680  function requestCallback(... */\n    tag_14:\n      tag_104\n      0x04\n      dup1\n      calldatasize\n      sub\n      dup2\n      add\n      swap1\n      tag_105\n      swap2\n      swap1\n      tag_106\n      jump\t// in\n    tag_105:\n      tag_107\n      jump\t// in\n    tag_104:\n      mload(0x40)\n      tag_108\n      swap2\n      swap1\n      tag_54\n      jump\t// in\n    tag_108:\n      mload(0x40)\n      dup1\n      swap2\n      sub\n      swap1\n      return\n        /* \"contracts/AIOracle.sol\":4862:5173  function setModelReceiverPercentage(uint256 modelId, uint256 receiverPercentage) external onlyOwner ifModelExists(modelId) {... */\n    tag_15:\n      callvalue\n      dup1\n      iszero\n      tag_109\n      jumpi\n      0x00\n      dup1\n      revert\n    tag_109:\n      pop\n      tag_110\n      0x04\n      dup1\n      calldatasize\n      sub\n      dup2\n      add\n      swap1\n      tag_111\n      swap2\n      swap1\n      tag_51\n      jump\t// in\n    tag_111:\n      tag_112\n      jump\t// in\n    tag_110:\n      stop\n        /* \"contracts/AIOracle.sol\":2896:3903  function removeModel(uint256 modelId) external onlyOwner ifModelExists(modelId) {... */\n    tag_16:\n      callvalue\n      dup1\n      iszero\n      tag_113\n      jumpi\n      0x00\n      dup1\n      revert\n    tag_113:\n      pop\n      tag_114\n      0x04\n      dup1\n      calldatasize\n      sub\n      dup2\n      add\n      swap1\n      tag_115\n      swap2\n      swap1\n      tag_58\n      jump\t// in\n    tag_115:\n      tag_116\n      jump\t// in\n    tag_114:\n      stop\n        /* \"contracts/AIOracle.sol\":4476:4654  function setModelFee(uint256 modelId, uint256 _fee) external onlyOwner ifModelExists(modelId) {... */\n    tag_17:\n      callvalue\n      dup1\n      iszero\n      tag_117\n      jumpi\n      0x00\n      dup1\n      revert\n    tag_117:\n      pop\n      tag_118\n      0x04\n      dup1\n      calldatasize\n      sub\n      dup2\n      add\n      swap1\n      tag_119\n      swap2\n      swap1\n      tag_51\n      jump\t// in\n    tag_119:\n      tag_120\n      jump\t// in\n    tag_118:\n      stop\n        /* \"contracts/AIOracle.sol\":5179:5357  function getModel(uint256 modelId) external view ifModelExists(modelId) returns (ModelData memory) {... */\n    tag_18:\n      callvalue\n      dup1\n      iszero\n      tag_121\n      jumpi\n      0x00\n      dup1\n      revert\n    tag_121:\n      pop\n      tag_122\n      0x04\n      dup1\n      calldatasize\n      sub\n      dup2\n      add\n      swap1\n      tag_123\n      swap2\n      swap1\n      tag_58\n      jump\t// in\n    tag_123:\n      tag_124\n      jump\t// in\n    tag_122:\n      mload(0x40)\n      tag_125\n      swap2\n      swap1\n      tag_126\n      jump\t// in\n    tag_125:\n      mload(0x40)\n      dup1\n      swap2\n      sub\n      swap1\n      return\n        /* \"contracts/AIOracle.sol\":2532:2605  function resetGasPrice() external onlyOwner {... */\n    tag_19:\n      callvalue\n      dup1\n      iszero\n      tag_127\n      jumpi\n      0x00\n      dup1\n      revert\n    tag_127:\n      pop\n      tag_128\n      tag_129\n      jump\t// in\n    tag_128:\n      stop\n        /* \"contracts/AIOracle.sol\":758:815  mapping(uint256 => AICallbackRequestData) public requests */\n    tag_20:\n      callvalue\n      dup1\n      iszero\n      tag_130\n      jumpi\n      0x00\n      dup1\n      revert\n    tag_130:\n      pop\n      tag_131\n      0x04\n      dup1\n      calldatasize\n      sub\n      dup2\n      add\n      swap1\n      tag_132\n      swap2\n      swap1\n      tag_58\n      jump\t// in\n    tag_132:\n      tag_133\n      jump\t// in\n    tag_131:\n      mload(0x40)\n      tag_134\n      swap8\n      swap7\n      swap6\n      swap5\n      swap4\n      swap3\n      swap2\n      swap1\n      tag_135\n      jump\t// in\n    tag_134:\n      mload(0x40)\n      dup1\n      swap2\n      sub\n      swap1\n      return\n        /* \"contracts/AIOracle.sol\":9406:10341  function updateResult(uint256 requestId) external {... */\n    tag_21:\n      callvalue\n      dup1\n      iszero\n      tag_136\n      jumpi\n      0x00\n      dup1\n      revert\n    tag_136:\n      pop\n      tag_137\n      0x04\n      dup1\n      calldatasize\n      sub\n      dup2\n      add\n      swap1\n      tag_138\n      swap2\n      swap1\n      tag_58\n      jump\t// in\n    tag_138:\n      tag_139\n      jump\t// in\n    tag_137:\n      stop\n        /* \"contracts/AIOracle.sol\":1604:1714  function removeFromWhitelist(address _address) external onlyOwner {... */\n    tag_22:\n      callvalue\n      dup1\n      iszero\n      tag_140\n      jumpi\n      0x00\n      dup1\n      revert\n    tag_140:\n      pop\n      tag_141\n      0x04\n      dup1\n      calldatasize\n      sub\n      dup2\n      add\n      swap1\n      tag_142\n      swap2\n      swap1\n      tag_79\n      jump\t// in\n    tag_142:\n      tag_143\n      jump\t// in\n    tag_141:\n      stop\n        /* \"contracts/AIOracle.sol\":1250:1270  address public owner */\n    tag_23:\n      callvalue\n      dup1\n      iszero\n      tag_144\n      jumpi\n      0x00\n      dup1\n      revert\n    tag_144:\n      pop\n      tag_145\n      tag_146\n      jump\t// in\n    tag_145:\n      mload(0x40)\n      tag_147\n      swap2\n      swap1\n      tag_148\n      jump\t// in\n    tag_147:\n      mload(0x40)\n      dup1\n      swap2\n      sub\n      swap1\n      return\n        /* \"contracts/AIOracle.sol\":1227:1244  IOpml public opml */\n    tag_24:\n      callvalue\n      dup1\n      iszero\n      tag_149\n      jumpi\n      0x00\n      dup1\n      revert\n    tag_149:\n      pop\n      tag_150\n      tag_151\n      jump\t// in\n    tag_150:\n      mload(0x40)\n      tag_152\n      swap2\n      swap1\n      tag_153\n      jump\t// in\n    tag_152:\n      mload(0x40)\n      dup1\n      swap2\n      sub\n      swap1\n      return\n        /* \"contracts/AIOracle.sol\":1277:1318  mapping(address => bool) public whitelist */\n    tag_25:\n      callvalue\n      dup1\n      iszero\n      tag_154\n      jumpi\n      0x00\n      dup1\n      revert\n    tag_154:\n      pop\n      tag_155\n      0x04\n      dup1\n      calldatasize\n      sub\n      dup2\n      add\n      swap1\n      tag_156\n      swap2\n      swap1\n      tag_79\n      jump\t// in\n    tag_156:\n      tag_157\n      jump\t// in\n    tag_155:\n      mload(0x40)\n      tag_158\n      swap2\n      swap1\n      tag_67\n      jump\t// in\n    tag_158:\n      mload(0x40)\n      dup1\n      swap2\n      sub\n      swap1\n      return\n        /* \"contracts/AIOracle.sol\":2643:2719  function resetModelIDs() external onlyOwner {... */\n    tag_26:\n      callvalue\n      dup1\n      iszero\n      tag_159\n      jumpi\n      0x00\n      dup1\n      revert\n    tag_159:\n      pop\n      tag_160\n      tag_161\n      jump\t// in\n    tag_160:\n      stop\n        /* \"contracts/AIOracle.sol\":821:869  mapping(uint256 => bytes) public outputOfRequest */\n    tag_27:\n      callvalue\n      dup1\n      iszero\n      tag_162\n      jumpi\n      0x00\n      dup1\n      revert\n    tag_162:\n      pop\n      tag_163\n      0x04\n      dup1\n      calldatasize\n      sub\n      dup2\n      add\n      swap1\n      tag_164\n      swap2\n      swap1\n      tag_58\n      jump\t// in\n    tag_164:\n      tag_165\n      jump\t// in\n    tag_163:\n      mload(0x40)\n      tag_166\n      swap2\n      swap1\n      tag_61\n      jump\t// in\n    tag_166:\n      mload(0x40)\n      dup1\n      swap2\n      sub\n      swap1\n      return\n        /* \"contracts/AIOracle.sol\":5584:6249  function uploadModel(uint256 modelId, bytes32 modelHash, bytes32 programHash, uint256 fee, address receiver, uint256 receiverPercentage) external onlyOwner {... */\n    tag_28:\n      callvalue\n      dup1\n      iszero\n      tag_167\n      jumpi\n      0x00\n      dup1\n      revert\n    tag_167:\n      pop\n      tag_168\n      0x04\n      dup1\n      calldatasize\n      sub\n      dup2\n      add\n      swap1\n      tag_169\n      swap2\n      swap1\n      tag_93\n      jump\t// in\n    tag_169:\n      tag_170\n      jump\t// in\n    tag_168:\n      stop\n        /* \"contracts/AIOracle.sol\":1494:1598  function addToWhitelist(address _address) external onlyOwner {... */\n    tag_29:\n      callvalue\n      dup1\n      iszero\n      tag_171\n      jumpi\n      0x00\n      dup1\n      revert\n    tag_171:\n      pop\n      tag_172\n      0x04\n      dup1\n      calldatasize\n      sub\n      dup2\n      add\n      swap1\n      tag_173\n      swap2\n      swap1\n      tag_79\n      jump\t// in\n    tag_173:\n      tag_174\n      jump\t// in\n    tag_172:\n      stop\n        /* \"contracts/AIOracle.sol\":2725:2822  function numberOfModels() external view returns (uint256) {... */\n    tag_30:\n      callvalue\n      dup1\n      iszero\n      tag_175\n      jumpi\n      0x00\n      dup1\n      revert\n    tag_175:\n      pop\n      tag_176\n      tag_177\n      jump\t// in\n    tag_176:\n      mload(0x40)\n      tag_178\n      swap2\n      swap1\n      tag_54\n      jump\t// in\n    tag_178:\n      mload(0x40)\n      dup1\n      swap2\n      sub\n      swap1\n      return\n        /* \"contracts/AIOracle.sol\":4379:4470  function setOpml(address newOpml) external onlyOwner {... */\n    tag_31:\n      callvalue\n      dup1\n      iszero\n      tag_179\n      jumpi\n      0x00\n      dup1\n      revert\n    tag_179:\n      pop\n      tag_180\n      0x04\n      dup1\n      calldatasize\n      sub\n      dup2\n      add\n      swap1\n      tag_181\n      swap2\n      swap1\n      tag_79\n      jump\t// in\n    tag_181:\n      tag_182\n      jump\t// in\n    tag_180:\n      stop\n        /* \"contracts/AIOracle.sol\":1720:1998  function transferOwnership(address newOwner) public {... */\n    tag_32:\n      callvalue\n      dup1\n      iszero\n      tag_183\n      jumpi\n      0x00\n      dup1\n      revert\n    tag_183:\n      pop\n      tag_184\n      0x04\n      dup1\n      calldatasize\n      sub\n      dup2\n      add\n      swap1\n      tag_185\n      swap2\n      swap1\n      tag_79\n      jump\t// in\n    tag_185:\n      tag_186\n      jump\t// in\n    tag_184:\n      stop\n        /* \"contracts/AIOracle.sol\":484:525  mapping(address => bool) public blacklist */\n    tag_33:\n      callvalue\n      dup1\n      iszero\n      tag_187\n      jumpi\n      0x00\n      dup1\n      revert\n    tag_187:\n      pop\n      tag_188\n      0x04\n      dup1\n      calldatasize\n      sub\n      dup2\n      add\n      swap1\n      tag_189\n      swap2\n      swap1\n      tag_79\n      jump\t// in\n    tag_189:\n      tag_190\n      jump\t// in\n    tag_188:\n      mload(0x40)\n      tag_191\n      swap2\n      swap1\n      tag_67\n      jump\t// in\n    tag_191:\n      mload(0x40)\n      dup1\n      swap2\n      sub\n      swap1\n      return\n        /* \"contracts/AIOracle.sol\":188:263  address constant public server = 0xf5aeB5A4B35be7Af7dBfDb765F99bCF479c917BD */\n    tag_34:\n      callvalue\n      dup1\n      iszero\n      tag_192\n      jumpi\n      0x00\n      dup1\n      revert\n    tag_192:\n      pop\n      tag_193\n      tag_194\n      jump\t// in\n    tag_193:\n      mload(0x40)\n      tag_195\n      swap2\n      swap1\n      tag_148\n      jump\t// in\n    tag_195:\n      mload(0x40)\n      dup1\n      swap2\n      sub\n      swap1\n      return\n        /* \"contracts/AIOracle.sol\":1167:1190  uint256 public gasPrice */\n    tag_35:\n      callvalue\n      dup1\n      iszero\n      tag_196\n      jumpi\n      0x00\n      dup1\n      revert\n    tag_196:\n      pop\n      tag_197\n      tag_198\n      jump\t// in\n    tag_197:\n      mload(0x40)\n      tag_199\n      swap2\n      swap1\n      tag_54\n      jump\t// in\n    tag_199:\n      mload(0x40)\n      dup1\n      swap2\n      sub\n      swap1\n      return\n        /* \"contracts/AIOracle.sol\":4660:4856  function setModelReceiver(uint256 modelId, address receiver) external onlyOwner ifModelExists(modelId) {... */\n    tag_47:\n        /* \"contracts/AIOracle.sol\":389:394  owner */\n      0x08\n      0x00\n      swap1\n      sload\n      swap1\n      0x0100\n      exp\n      swap1\n      div\n      0xffffffffffffffffffffffffffffffffffffffff\n      and\n        /* \"contracts/AIOracle.sol\":375:394  msg.sender == owner */\n      0xffffffffffffffffffffffffffffffffffffffff\n      and\n        /* \"contracts/AIOracle.sol\":375:385  msg.sender */\n      caller\n        /* \"contracts/AIOracle.sol\":375:394  msg.sender == owner */\n      0xffffffffffffffffffffffffffffffffffffffff\n      and\n      eq\n        /* \"contracts/AIOracle.sol\":367:412  require(msg.sender == owner, \"Not the owner\") */\n      tag_201\n      jumpi\n      mload(0x40)\n      0x08c379a000000000000000000000000000000000000000000000000000000000\n      dup2\n      mstore\n      0x04\n      add\n      tag_202\n      swap1\n      tag_203\n      jump\t// in\n    tag_202:\n      mload(0x40)\n      dup1\n      swap2\n      sub\n      swap1\n      revert\n    tag_201:\n        /* \"contracts/AIOracle.sol\":4754:4761  modelId */\n      dup2\n        /* \"contracts/AIOracle.sol\":2425:2436  modelExists */\n      0x04\n        /* \"contracts/AIOracle.sol\":2425:2445  modelExists[modelId] */\n      0x00\n        /* \"contracts/AIOracle.sol\":2437:2444  modelId */\n      dup3\n        /* \"contracts/AIOracle.sol\":2425:2445  modelExists[modelId] */\n      dup2\n      mstore\n      0x20\n      add\n      swap1\n      dup2\n      mstore\n      0x20\n      add\n      0x00\n      keccak256\n      0x00\n      swap1\n      sload\n      swap1\n      0x0100\n      exp\n      swap1\n      div\n      0xff\n      and\n        /* \"contracts/AIOracle.sol\":2417:2470  require(modelExists[modelId], \"model does not exist\") */\n      tag_205\n      jumpi\n      mload(0x40)\n      0x08c379a000000000000000000000000000000000000000000000000000000000\n      dup2\n      mstore\n      0x04\n      add\n      tag_206\n      swap1\n      tag_207\n      jump\t// in\n    tag_206:\n      mload(0x40)\n      dup1\n      swap2\n      sub\n      swap1\n      revert\n    tag_205:\n        /* \"contracts/AIOracle.sol\":4773:4796  ModelData storage model */\n      0x00\n        /* \"contracts/AIOracle.sol\":4799:4805  models */\n      0x03\n        /* \"contracts/AIOracle.sol\":4799:4814  models[modelId] */\n      0x00\n        /* \"contracts/AIOracle.sol\":4806:4813  modelId */\n      dup6\n        /* \"contracts/AIOracle.sol\":4799:4814  models[modelId] */\n      dup2\n      mstore\n      0x20\n      add\n      swap1\n      dup2\n      mstore\n      0x20\n      add\n      0x00\n      keccak256\n        /* \"contracts/AIOracle.sol\":4773:4814  ModelData storage model = models[modelId] */\n      swap1\n      pop\n        /* \"contracts/AIOracle.sol\":4841:4849  receiver */\n      dup3\n        /* \"contracts/AIOracle.sol\":4824:4829  model */\n      dup2\n        /* \"contracts/AIOracle.sol\":4824:4838  model.receiver */\n      0x03\n      add\n      0x00\n        /* \"contracts/AIOracle.sol\":4824:4849  model.receiver = receiver */\n      0x0100\n      exp\n      dup2\n      sload\n      dup2\n      0xffffffffffffffffffffffffffffffffffffffff\n      mul\n      not\n      and\n      swap1\n      dup4\n      0xffffffffffffffffffffffffffffffffffffffff\n      and\n      mul\n      or\n      swap1\n      sstore\n      pop\n        /* \"contracts/AIOracle.sol\":4763:4856  {... */\n      pop\n        /* \"contracts/AIOracle.sol\":422:423  _ */\n      pop\n        /* \"contracts/AIOracle.sol\":4660:4856  function setModelReceiver(uint256 modelId, address receiver) external onlyOwner ifModelExists(modelId) {... */\n      pop\n      pop\n      jump\t// out\n        /* \"contracts/AIOracle.sol\":5363:5578  function estimateFee(uint256 modelId, uint256 gasLimit) public view ifModelExists(modelId) returns (uint256) {... */\n    tag_52:\n        /* \"contracts/AIOracle.sol\":5463:5470  uint256 */\n      0x00\n        /* \"contracts/AIOracle.sol\":5445:5452  modelId */\n      dup3\n        /* \"contracts/AIOracle.sol\":2425:2436  modelExists */\n      0x04\n        /* \"contracts/AIOracle.sol\":2425:2445  modelExists[modelId] */\n      0x00\n        /* \"contracts/AIOracle.sol\":2437:2444  modelId */\n      dup3\n        /* \"contracts/AIOracle.sol\":2425:2445  modelExists[modelId] */\n      dup2\n      mstore\n      0x20\n      add\n      swap1\n      dup2\n      mstore\n      0x20\n      add\n      0x00\n      keccak256\n      0x00\n      swap1\n      sload\n      swap1\n      0x0100\n      exp\n      swap1\n      div\n      0xff\n      and\n        /* \"contracts/AIOracle.sol\":2417:2470  require(modelExists[modelId], \"model does not exist\") */\n      tag_210\n      jumpi\n      mload(0x40)\n      0x08c379a000000000000000000000000000000000000000000000000000000000\n      dup2\n      mstore\n      0x04\n      add\n      tag_211\n      swap1\n      tag_207\n      jump\t// in\n    tag_211:\n      mload(0x40)\n      dup1\n      swap2\n      sub\n      swap1\n      revert\n    tag_210:\n        /* \"contracts/AIOracle.sol\":5482:5505  ModelData storage model */\n      0x00\n        /* \"contracts/AIOracle.sol\":5508:5514  models */\n      0x03\n        /* \"contracts/AIOracle.sol\":5508:5523  models[modelId] */\n      0x00\n        /* \"contracts/AIOracle.sol\":5515:5522  modelId */\n      dup7\n        /* \"contracts/AIOracle.sol\":5508:5523  models[modelId] */\n      dup2\n      mstore\n      0x20\n      add\n      swap1\n      dup2\n      mstore\n      0x20\n      add\n      0x00\n      keccak256\n        /* \"contracts/AIOracle.sol\":5482:5523  ModelData storage model = models[modelId] */\n      swap1\n      pop\n        /* \"contracts/AIOracle.sol\":5563:5571  gasLimit */\n      dup4\n        /* \"contracts/AIOracle.sol\":5552:5560  gasPrice */\n      sload(0x05)\n        /* \"contracts/AIOracle.sol\":5552:5571  gasPrice * gasLimit */\n      tag_213\n      swap2\n      swap1\n      tag_214\n      jump\t// in\n    tag_213:\n        /* \"contracts/AIOracle.sol\":5540:5545  model */\n      dup2\n        /* \"contracts/AIOracle.sol\":5540:5549  model.fee */\n      0x02\n      add\n      sload\n        /* \"contracts/AIOracle.sol\":5540:5571  model.fee + gasPrice * gasLimit */\n      tag_215\n      swap2\n      swap1\n      tag_216\n      jump\t// in\n    tag_215:\n        /* \"contracts/AIOracle.sol\":5533:5571  return model.fee + gasPrice * gasLimit */\n      swap3\n      pop\n      pop\n        /* \"contracts/AIOracle.sol\":5363:5578  function estimateFee(uint256 modelId, uint256 gasLimit) public view ifModelExists(modelId) returns (uint256) {... */\n      pop\n      swap3\n      swap2\n      pop\n      pop\n      jump\t// out\n        /* \"contracts/AIOracle.sol\":9170:9301  function getOutput(uint256 requestId) external view returns (bytes memory output) {... */\n    tag_59:\n        /* \"contracts/AIOracle.sol\":9231:9250  bytes memory output */\n      0x60\n        /* \"contracts/AIOracle.sol\":9269:9273  opml */\n      0x07\n      0x00\n      swap1\n      sload\n      swap1\n      0x0100\n      exp\n      swap1\n      div\n      0xffffffffffffffffffffffffffffffffffffffff\n      and\n        /* \"contracts/AIOracle.sol\":9269:9283  opml.getOutput */\n      0xffffffffffffffffffffffffffffffffffffffff\n      and\n      0x17861f87\n        /* \"contracts/AIOracle.sol\":9284:9293  requestId */\n      dup4\n        /* \"contracts/AIOracle.sol\":9269:9294  opml.getOutput(requestId) */\n      mload(0x40)\n      dup3\n      0xffffffff\n      and\n      0xe0\n      shl\n      dup2\n      mstore\n      0x04\n      add\n      tag_218\n      swap2\n      swap1\n      tag_54\n      jump\t// in\n    tag_218:\n      0x00\n      mload(0x40)\n      dup1\n      dup4\n      sub\n      dup2\n      dup7\n      gas\n      staticcall\n      iszero\n      dup1\n      iszero\n      tag_220\n      jumpi\n      returndatasize\n      0x00\n      dup1\n      returndatacopy\n      revert(0x00, returndatasize)\n    tag_220:\n      pop\n      pop\n      pop\n      pop\n      mload(0x40)\n      returndatasize\n      0x00\n      dup3\n      returndatacopy\n      returndatasize\n      not(0x1f)\n      0x1f\n      dup3\n      add\n      and\n      dup3\n      add\n      dup1\n      0x40\n      mstore\n      pop\n      dup2\n      add\n      swap1\n      tag_221\n      swap2\n      swap1\n      tag_222\n      jump\t// in\n    tag_221:\n        /* \"contracts/AIOracle.sol\":9262:9294  return opml.getOutput(requestId) */\n      swap1\n      pop\n        /* \"contracts/AIOracle.sol\":9170:9301  function getOutput(uint256 requestId) external view returns (bytes memory output) {... */\n      swap2\n      swap1\n      pop\n      jump\t// out\n        /* \"contracts/AIOracle.sol\":6820:6940  function isFinalized(uint256 requestId) external view returns (bool) {... */\n    tag_65:\n        /* \"contracts/AIOracle.sol\":6883:6887  bool */\n      0x00\n        /* \"contracts/AIOracle.sol\":6906:6910  opml */\n      0x07\n      0x00\n      swap1\n      sload\n      swap1\n      0x0100\n      exp\n      swap1\n      div\n      0xffffffffffffffffffffffffffffffffffffffff\n      and\n        /* \"contracts/AIOracle.sol\":6906:6922  opml.isFinalized */\n      0xffffffffffffffffffffffffffffffffffffffff\n      and\n      0x33727c4d\n        /* \"contracts/AIOracle.sol\":6923:6932  requestId */\n      dup4\n        /* \"contracts/AIOracle.sol\":6906:6933  opml.isFinalized(requestId) */\n      mload(0x40)\n      dup3\n      0xffffffff\n      and\n      0xe0\n      shl\n      dup2\n      mstore\n      0x04\n      add\n      tag_224\n      swap2\n      swap1\n      tag_54\n      jump\t// in\n    tag_224:\n      0x20\n      mload(0x40)\n      dup1\n      dup4\n      sub\n      dup2\n      dup7\n      gas\n      staticcall\n      iszero\n      dup1\n      iszero\n      tag_226\n      jumpi\n      returndatasize\n      0x00\n      dup1\n      returndatacopy\n      revert(0x00, returndatasize)\n    tag_226:\n      pop\n      pop\n      pop\n      pop\n      mload(0x40)\n      returndatasize\n      not(0x1f)\n      0x1f\n      dup3\n      add\n      and\n      dup3\n      add\n      dup1\n      0x40\n      mstore\n      pop\n      dup2\n      add\n      swap1\n      tag_227\n      swap2\n      swap1\n      tag_228\n      jump\t// in\n    tag_227:\n        /* \"contracts/AIOracle.sol\":6899:6933  return opml.isFinalized(requestId) */\n      swap1\n      pop\n        /* \"contracts/AIOracle.sol\":6820:6940  function isFinalized(uint256 requestId) external view returns (bool) {... */\n      swap2\n      swap1\n      pop\n      jump\t// out\n        /* \"contracts/AIOracle.sol\":1196:1221  uint256[] public modelIDs */\n    tag_71:\n      0x06\n      dup2\n      dup2\n      sload\n      dup2\n      lt\n      tag_229\n      jumpi\n      0x00\n      dup1\n      revert\n    tag_229:\n      swap1\n      0x00\n      mstore\n      keccak256(0x00, 0x20)\n      add\n      0x00\n      swap2\n      pop\n      swap1\n      pop\n      sload\n      dup2\n      jump\t// out\n        /* \"contracts/AIOracle.sol\":3909:4373  function withdraw() external onlyOwner {... */\n    tag_75:\n        /* \"contracts/AIOracle.sol\":389:394  owner */\n      0x08\n      0x00\n      swap1\n      sload\n      swap1\n      0x0100\n      exp\n      swap1\n      div\n      0xffffffffffffffffffffffffffffffffffffffff\n      and\n        /* \"contracts/AIOracle.sol\":375:394  msg.sender == owner */\n      0xffffffffffffffffffffffffffffffffffffffff\n      and\n        /* \"contracts/AIOracle.sol\":375:385  msg.sender */\n      caller\n        /* \"contracts/AIOracle.sol\":375:394  msg.sender == owner */\n      0xffffffffffffffffffffffffffffffffffffffff\n      and\n      eq\n        /* \"contracts/AIOracle.sol\":367:412  require(msg.sender == owner, \"Not the owner\") */\n      tag_232\n      jumpi\n      mload(0x40)\n      0x08c379a000000000000000000000000000000000000000000000000000000000\n      dup2\n      mstore\n      0x04\n      add\n      tag_233\n      swap1\n      tag_203\n      jump\t// in\n    tag_233:\n      mload(0x40)\n      dup1\n      swap2\n      sub\n      swap1\n      revert\n    tag_232:\n        /* \"contracts/AIOracle.sol\":3958:3978  uint256 modelRevenue */\n      0x00\n        /* \"contracts/AIOracle.sol\":3993:3999  uint i */\n      dup1\n        /* \"contracts/AIOracle.sol\":4002:4003  0 */\n      0x00\n        /* \"contracts/AIOracle.sol\":3993:4003  uint i = 0 */\n      swap1\n      pop\n        /* \"contracts/AIOracle.sol\":3988:4182  for (uint i = 0; i < modelIDs.length; i++) {... */\n    tag_235:\n        /* \"contracts/AIOracle.sol\":4009:4017  modelIDs */\n      0x06\n        /* \"contracts/AIOracle.sol\":4009:4024  modelIDs.length */\n      dup1\n      sload\n      swap1\n      pop\n        /* \"contracts/AIOracle.sol\":4005:4006  i */\n      dup2\n        /* \"contracts/AIOracle.sol\":4005:4024  i < modelIDs.length */\n      lt\n        /* \"contracts/AIOracle.sol\":3988:4182  for (uint i = 0; i < modelIDs.length; i++) {... */\n      iszero\n      tag_236\n      jumpi\n        /* \"contracts/AIOracle.sol\":4045:4055  uint256 id */\n      0x00\n        /* \"contracts/AIOracle.sol\":4058:4066  modelIDs */\n      0x06\n        /* \"contracts/AIOracle.sol\":4067:4068  i */\n      dup3\n        /* \"contracts/AIOracle.sol\":4058:4069  modelIDs[i] */\n      dup2\n      sload\n      dup2\n      lt\n      tag_238\n      jumpi\n      tag_239\n      tag_240\n      jump\t// in\n    tag_239:\n    tag_238:\n      swap1\n      0x00\n      mstore\n      keccak256(0x00, 0x20)\n      add\n      sload\n        /* \"contracts/AIOracle.sol\":4045:4069  uint256 id = modelIDs[i] */\n      swap1\n      pop\n        /* \"contracts/AIOracle.sol\":4083:4105  ModelData memory model */\n      0x00\n        /* \"contracts/AIOracle.sol\":4108:4114  models */\n      0x03\n        /* \"contracts/AIOracle.sol\":4108:4118  models[id] */\n      0x00\n        /* \"contracts/AIOracle.sol\":4115:4117  id */\n      dup4\n        /* \"contracts/AIOracle.sol\":4108:4118  models[id] */\n      dup2\n      mstore\n      0x20\n      add\n      swap1\n      dup2\n      mstore\n      0x20\n      add\n      0x00\n      keccak256\n        /* \"contracts/AIOracle.sol\":4083:4118  ModelData memory model = models[id] */\n      mload(0x40)\n      dup1\n      0xc0\n      add\n      0x40\n      mstore\n      swap1\n      dup2\n      0x00\n      dup3\n      add\n      sload\n      dup2\n      mstore\n      0x20\n      add\n      0x01\n      dup3\n      add\n      sload\n      dup2\n      mstore\n      0x20\n      add\n      0x02\n      dup3\n      add\n      sload\n      dup2\n      mstore\n      0x20\n      add\n      0x03\n      dup3\n      add\n      0x00\n      swap1\n      sload\n      swap1\n      0x0100\n      exp\n      swap1\n      div\n      0xffffffffffffffffffffffffffffffffffffffff\n      and\n      0xffffffffffffffffffffffffffffffffffffffff\n      and\n      0xffffffffffffffffffffffffffffffffffffffff\n      and\n      dup2\n      mstore\n      0x20\n      add\n      0x04\n      dup3\n      add\n      sload\n      dup2\n      mstore\n      0x20\n      add\n      0x05\n      dup3\n      add\n      sload\n      dup2\n      mstore\n      pop\n      pop\n      swap1\n      pop\n        /* \"contracts/AIOracle.sol\":4148:4153  model */\n      dup1\n        /* \"contracts/AIOracle.sol\":4148:4171  model.accumulateRevenue */\n      0xa0\n      add\n      mload\n        /* \"contracts/AIOracle.sol\":4132:4171  modelRevenue += model.accumulateRevenue */\n      dup5\n      tag_242\n      swap2\n      swap1\n      tag_216\n      jump\t// in\n    tag_242:\n      swap4\n      pop\n        /* \"contracts/AIOracle.sol\":4031:4182  {... */\n      pop\n      pop\n        /* \"contracts/AIOracle.sol\":4026:4029  i++ */\n      dup1\n      dup1\n      0x01\n      add\n      swap2\n      pop\n      pop\n        /* \"contracts/AIOracle.sol\":3988:4182  for (uint i = 0; i < modelIDs.length; i++) {... */\n      jump(tag_235)\n    tag_236:\n      pop\n        /* \"contracts/AIOracle.sol\":4191:4211  uint256 ownerRevenue */\n      0x00\n        /* \"contracts/AIOracle.sol\":4238:4250  modelRevenue */\n      dup2\n        /* \"contracts/AIOracle.sol\":4214:4235  address(this).balance */\n      selfbalance\n        /* \"contracts/AIOracle.sol\":4214:4250  address(this).balance - modelRevenue */\n      tag_243\n      swap2\n      swap1\n      tag_244\n      jump\t// in\n    tag_243:\n        /* \"contracts/AIOracle.sol\":4191:4250  uint256 ownerRevenue = address(this).balance - modelRevenue */\n      swap1\n      pop\n        /* \"contracts/AIOracle.sol\":4261:4273  bool success */\n      0x00\n        /* \"contracts/AIOracle.sol\":4280:4290  msg.sender */\n      caller\n        /* \"contracts/AIOracle.sol\":4279:4296  (msg.sender).call */\n      0xffffffffffffffffffffffffffffffffffffffff\n      and\n        /* \"contracts/AIOracle.sol\":4304:4316  ownerRevenue */\n      dup3\n        /* \"contracts/AIOracle.sol\":4279:4321  (msg.sender).call{value: ownerRevenue}(\"\") */\n      mload(0x40)\n      tag_245\n      swap1\n      tag_246\n      jump\t// in\n    tag_245:\n      0x00\n      mload(0x40)\n      dup1\n      dup4\n      sub\n      dup2\n      dup6\n      dup8\n      gas\n      call\n      swap3\n      pop\n      pop\n      pop\n      returndatasize\n      dup1\n      0x00\n      dup2\n      eq\n      tag_249\n      jumpi\n      mload(0x40)\n      swap2\n      pop\n      and(add(returndatasize, 0x3f), not(0x1f))\n      dup3\n      add\n      0x40\n      mstore\n      returndatasize\n      dup3\n      mstore\n      returndatasize\n      0x00\n      0x20\n      dup5\n      add\n      returndatacopy\n      jump(tag_248)\n    tag_249:\n      0x60\n      swap2\n      pop\n    tag_248:\n      pop\n        /* \"contracts/AIOracle.sol\":4260:4321  (bool success, ) = (msg.sender).call{value: ownerRevenue}(\"\") */\n      pop\n      swap1\n      pop\n        /* \"contracts/AIOracle.sol\":4339:4346  success */\n      dup1\n        /* \"contracts/AIOracle.sol\":4331:4366  require(success, \"withdraw failed\") */\n      tag_250\n      jumpi\n      mload(0x40)\n      0x08c379a000000000000000000000000000000000000000000000000000000000\n      dup2\n      mstore\n      0x04\n      add\n      tag_251\n      swap1\n      tag_252\n      jump\t// in\n    tag_251:\n      mload(0x40)\n      dup1\n      swap2\n      sub\n      swap1\n      revert\n    tag_250:\n        /* \"contracts/AIOracle.sol\":3948:4373  {... */\n      pop\n      pop\n      pop\n        /* \"contracts/AIOracle.sol\":3909:4373  function withdraw() external onlyOwner {... */\n      jump\t// out\n        /* \"contracts/AIOracle.sol\":2004:2108  function addToBlacklist(address _address) external onlyOwner {... */\n    tag_80:\n        /* \"contracts/AIOracle.sol\":389:394  owner */\n      0x08\n      0x00\n      swap1\n      sload\n      swap1\n      0x0100\n      exp\n      swap1\n      div\n      0xffffffffffffffffffffffffffffffffffffffff\n      and\n        /* \"contracts/AIOracle.sol\":375:394  msg.sender == owner */\n      0xffffffffffffffffffffffffffffffffffffffff\n      and\n        /* \"contracts/AIOracle.sol\":375:385  msg.sender */\n      caller\n        /* \"contracts/AIOracle.sol\":375:394  msg.sender == owner */\n      0xffffffffffffffffffffffffffffffffffffffff\n      and\n      eq\n        /* \"contracts/AIOracle.sol\":367:412  require(msg.sender == owner, \"Not the owner\") */\n      tag_254\n      jumpi\n      mload(0x40)\n      0x08c379a000000000000000000000000000000000000000000000000000000000\n      dup2\n      mstore\n      0x04\n      add\n      tag_255\n      swap1\n      tag_203\n      jump\t// in\n    tag_255:\n      mload(0x40)\n      dup1\n      swap2\n      sub\n      swap1\n      revert\n    tag_254:\n        /* \"contracts/AIOracle.sol\":2097:2101  true */\n      0x01\n        /* \"contracts/AIOracle.sol\":2075:2084  blacklist */\n      0x00\n        /* \"contracts/AIOracle.sol\":2075:2094  blacklist[_address] */\n      dup1\n        /* \"contracts/AIOracle.sol\":2085:2093  _address */\n      dup4\n        /* \"contracts/AIOracle.sol\":2075:2094  blacklist[_address] */\n      0xffffffffffffffffffffffffffffffffffffffff\n      and\n      0xffffffffffffffffffffffffffffffffffffffff\n      and\n      dup2\n      mstore\n      0x20\n      add\n      swap1\n      dup2\n      mstore\n      0x20\n      add\n      0x00\n      keccak256\n      0x00\n        /* \"contracts/AIOracle.sol\":2075:2101  blacklist[_address] = true */\n      0x0100\n      exp\n      dup2\n      sload\n      dup2\n      0xff\n      mul\n      not\n      and\n      swap1\n      dup4\n      iszero\n      iszero\n      mul\n      or\n      swap1\n      sstore\n      pop\n        /* \"contracts/AIOracle.sol\":2004:2108  function addToBlacklist(address _address) external onlyOwner {... */\n      pop\n      jump\t// out\n        /* \"contracts/AIOracle.sol\":269:329  bytes4 constant public callbackFunctionSelector = 0xb0347814 */\n    tag_83:\n        /* \"contracts/AIOracle.sol\":319:329  0xb0347814 */\n      0xb0347814\n        /* \"contracts/AIOracle.sol\":269:329  bytes4 constant public callbackFunctionSelector = 0xb0347814 */\n      0xe0\n      shl\n      dup2\n      jump\t// out\n        /* \"contracts/AIOracle.sol\":2114:2224  function removeFromBlacklist(address _address) external onlyOwner {... */\n    tag_89:\n        /* \"contracts/AIOracle.sol\":389:394  owner */\n      0x08\n      0x00\n      swap1\n      sload\n      swap1\n      0x0100\n      exp\n      swap1\n      div\n      0xffffffffffffffffffffffffffffffffffffffff\n      and\n        /* \"contracts/AIOracle.sol\":375:394  msg.sender == owner */\n      0xffffffffffffffffffffffffffffffffffffffff\n      and\n        /* \"contracts/AIOracle.sol\":375:385  msg.sender */\n      caller\n        /* \"contracts/AIOracle.sol\":375:394  msg.sender == owner */\n      0xffffffffffffffffffffffffffffffffffffffff\n      and\n      eq\n        /* \"contracts/AIOracle.sol\":367:412  require(msg.sender == owner, \"Not the owner\") */\n      tag_258\n      jumpi\n      mload(0x40)\n      0x08c379a000000000000000000000000000000000000000000000000000000000\n      dup2\n      mstore\n      0x04\n      add\n      tag_259\n      swap1\n      tag_203\n      jump\t// in\n    tag_259:\n      mload(0x40)\n      dup1\n      swap2\n      sub\n      swap1\n      revert\n    tag_258:\n        /* \"contracts/AIOracle.sol\":2212:2217  false */\n      0x00\n        /* \"contracts/AIOracle.sol\":2190:2199  blacklist */\n      dup1\n        /* \"contracts/AIOracle.sol\":2190:2209  blacklist[_address] */\n      0x00\n        /* \"contracts/AIOracle.sol\":2200:2208  _address */\n      dup4\n        /* \"contracts/AIOracle.sol\":2190:2209  blacklist[_address] */\n      0xffffffffffffffffffffffffffffffffffffffff\n      and\n      0xffffffffffffffffffffffffffffffffffffffff\n      and\n      dup2\n      mstore\n      0x20\n      add\n      swap1\n      dup2\n      mstore\n      0x20\n      add\n      0x00\n      keccak256\n      0x00\n        /* \"contracts/AIOracle.sol\":2190:2217  blacklist[_address] = false */\n      0x0100\n      exp\n      dup2\n      sload\n      dup2\n      0xff\n      mul\n      not\n      and\n      swap1\n      dup4\n      iszero\n      iszero\n      mul\n      or\n      swap1\n      sstore\n      pop\n        /* \"contracts/AIOracle.sol\":2114:2224  function removeFromBlacklist(address _address) external onlyOwner {... */\n      pop\n      jump\t// out\n        /* \"contracts/AIOracle.sol\":6255:6810  function updateModel(uint256 modelId, bytes32 modelHash, bytes32 programHash, uint256 fee, address receiver, uint256 receiverPercentage) external onlyOwner ifModelExists(modelId) {... */\n    tag_94:\n        /* \"contracts/AIOracle.sol\":389:394  owner */\n      0x08\n      0x00\n      swap1\n      sload\n      swap1\n      0x0100\n      exp\n      swap1\n      div\n      0xffffffffffffffffffffffffffffffffffffffff\n      and\n        /* \"contracts/AIOracle.sol\":375:394  msg.sender == owner */\n      0xffffffffffffffffffffffffffffffffffffffff\n      and\n        /* \"contracts/AIOracle.sol\":375:385  msg.sender */\n      caller\n        /* \"contracts/AIOracle.sol\":375:394  msg.sender == owner */\n      0xffffffffffffffffffffffffffffffffffffffff\n      and\n      eq\n        /* \"contracts/AIOracle.sol\":367:412  require(msg.sender == owner, \"Not the owner\") */\n      tag_262\n      jumpi\n      mload(0x40)\n      0x08c379a000000000000000000000000000000000000000000000000000000000\n      dup2\n      mstore\n      0x04\n      add\n      tag_263\n      swap1\n      tag_203\n      jump\t// in\n    tag_263:\n      mload(0x40)\n      dup1\n      swap2\n      sub\n      swap1\n      revert\n    tag_262:\n        /* \"contracts/AIOracle.sol\":6425:6432  modelId */\n      dup6\n        /* \"contracts/AIOracle.sol\":2425:2436  modelExists */\n      0x04\n        /* \"contracts/AIOracle.sol\":2425:2445  modelExists[modelId] */\n      0x00\n        /* \"contracts/AIOracle.sol\":2437:2444  modelId */\n      dup3\n        /* \"contracts/AIOracle.sol\":2425:2445  modelExists[modelId] */\n      dup2\n      mstore\n      0x20\n      add\n      swap1\n      dup2\n      mstore\n      0x20\n      add\n      0x00\n      keccak256\n      0x00\n      swap1\n      sload\n      swap1\n      0x0100\n      exp\n      swap1\n      div\n      0xff\n      and\n        /* \"contracts/AIOracle.sol\":2417:2470  require(modelExists[modelId], \"model does not exist\") */\n      tag_265\n      jumpi\n      mload(0x40)\n      0x08c379a000000000000000000000000000000000000000000000000000000000\n      dup2\n      mstore\n      0x04\n      add\n      tag_266\n      swap1\n      tag_207\n      jump\t// in\n    tag_266:\n      mload(0x40)\n      dup1\n      swap2\n      sub\n      swap1\n      revert\n    tag_265:\n        /* \"contracts/AIOracle.sol\":6474:6477  100 */\n      0x64\n        /* \"contracts/AIOracle.sol\":6452:6470  receiverPercentage */\n      dup3\n        /* \"contracts/AIOracle.sol\":6452:6477  receiverPercentage <= 100 */\n      gt\n      iszero\n        /* \"contracts/AIOracle.sol\":6444:6509  require(receiverPercentage <= 100, \"percentage should be <= 100\") */\n      tag_268\n      jumpi\n      mload(0x40)\n      0x08c379a000000000000000000000000000000000000000000000000000000000\n      dup2\n      mstore\n      0x04\n      add\n      tag_269\n      swap1\n      tag_270\n      jump\t// in\n    tag_269:\n      mload(0x40)\n      dup1\n      swap2\n      sub\n      swap1\n      revert\n    tag_268:\n        /* \"contracts/AIOracle.sol\":6519:6542  ModelData storage model */\n      0x00\n        /* \"contracts/AIOracle.sol\":6545:6551  models */\n      0x03\n        /* \"contracts/AIOracle.sol\":6545:6560  models[modelId] */\n      0x00\n        /* \"contracts/AIOracle.sol\":6552:6559  modelId */\n      dup10\n        /* \"contracts/AIOracle.sol\":6545:6560  models[modelId] */\n      dup2\n      mstore\n      0x20\n      add\n      swap1\n      dup2\n      mstore\n      0x20\n      add\n      0x00\n      keccak256\n        /* \"contracts/AIOracle.sol\":6519:6560  ModelData storage model = models[modelId] */\n      swap1\n      pop\n        /* \"contracts/AIOracle.sol\":6588:6597  modelHash */\n      dup7\n        /* \"contracts/AIOracle.sol\":6570:6575  model */\n      dup2\n        /* \"contracts/AIOracle.sol\":6570:6585  model.modelHash */\n      0x00\n      add\n        /* \"contracts/AIOracle.sol\":6570:6597  model.modelHash = modelHash */\n      dup2\n      swap1\n      sstore\n      pop\n        /* \"contracts/AIOracle.sol\":6627:6638  programHash */\n      dup6\n        /* \"contracts/AIOracle.sol\":6607:6612  model */\n      dup2\n        /* \"contracts/AIOracle.sol\":6607:6624  model.programHash */\n      0x01\n      add\n        /* \"contracts/AIOracle.sol\":6607:6638  model.programHash = programHash */\n      dup2\n      swap1\n      sstore\n      pop\n        /* \"contracts/AIOracle.sol\":6660:6663  fee */\n      dup5\n        /* \"contracts/AIOracle.sol\":6648:6653  model */\n      dup2\n        /* \"contracts/AIOracle.sol\":6648:6657  model.fee */\n      0x02\n      add\n        /* \"contracts/AIOracle.sol\":6648:6663  model.fee = fee */\n      dup2\n      swap1\n      sstore\n      pop\n        /* \"contracts/AIOracle.sol\":6690:6698  receiver */\n      dup4\n        /* \"contracts/AIOracle.sol\":6673:6678  model */\n      dup2\n        /* \"contracts/AIOracle.sol\":6673:6687  model.receiver */\n      0x03\n      add\n      0x00\n        /* \"contracts/AIOracle.sol\":6673:6698  model.receiver = receiver */\n      0x0100\n      exp\n      dup2\n      sload\n      dup2\n      0xffffffffffffffffffffffffffffffffffffffff\n      mul\n      not\n      and\n      swap1\n      dup4\n      0xffffffffffffffffffffffffffffffffffffffff\n      and\n      mul\n      or\n      swap1\n      sstore\n      pop\n        /* \"contracts/AIOracle.sol\":6735:6753  receiverPercentage */\n      dup3\n        /* \"contracts/AIOracle.sol\":6708:6713  model */\n      dup2\n        /* \"contracts/AIOracle.sol\":6708:6732  model.receiverPercentage */\n      0x04\n      add\n        /* \"contracts/AIOracle.sol\":6708:6753  model.receiverPercentage = receiverPercentage */\n      dup2\n      swap1\n      sstore\n      pop\n        /* \"contracts/AIOracle.sol\":6763:6767  opml */\n      0x07\n      0x00\n      swap1\n      sload\n      swap1\n      0x0100\n      exp\n      swap1\n      div\n      0xffffffffffffffffffffffffffffffffffffffff\n      and\n        /* \"contracts/AIOracle.sol\":6763:6779  opml.uploadModel */\n      0xffffffffffffffffffffffffffffffffffffffff\n      and\n      0x5c3d1519\n        /* \"contracts/AIOracle.sol\":6780:6789  modelHash */\n      dup9\n        /* \"contracts/AIOracle.sol\":6791:6802  programHash */\n      dup9\n        /* \"contracts/AIOracle.sol\":6763:6803  opml.uploadModel(modelHash, programHash) */\n      mload(0x40)\n      dup4\n      0xffffffff\n      and\n      0xe0\n      shl\n      dup2\n      mstore\n      0x04\n      add\n      tag_271\n      swap3\n      swap2\n      swap1\n      tag_272\n      jump\t// in\n    tag_271:\n      0x00\n      mload(0x40)\n      dup1\n      dup4\n      sub\n      dup2\n      0x00\n      dup8\n      dup1\n      extcodesize\n      iszero\n      dup1\n      iszero\n      tag_273\n      jumpi\n      0x00\n      dup1\n      revert\n    tag_273:\n      pop\n      gas\n      call\n      iszero\n      dup1\n      iszero\n      tag_275\n      jumpi\n      returndatasize\n      0x00\n      dup1\n      returndatacopy\n      revert(0x00, returndatasize)\n    tag_275:\n      pop\n      pop\n      pop\n      pop\n        /* \"contracts/AIOracle.sol\":6434:6810  {... */\n      pop\n        /* \"contracts/AIOracle.sol\":422:423  _ */\n      pop\n        /* \"contracts/AIOracle.sol\":6255:6810  function updateModel(uint256 modelId, bytes32 modelHash, bytes32 programHash, uint256 fee, address receiver, uint256 receiverPercentage) external onlyOwner ifModelExists(modelId) {... */\n      pop\n      pop\n      pop\n      pop\n      pop\n      pop\n      jump\t// out\n        /* \"contracts/AIOracle.sol\":10406:11373  function invokeCallback(uint256 requestId, bytes calldata output) external onlyWhitelisted {... */\n    tag_99:\n        /* \"contracts/AIOracle.sol\":1370:1379  whitelist */\n      0x09\n        /* \"contracts/AIOracle.sol\":1370:1391  whitelist[msg.sender] */\n      0x00\n        /* \"contracts/AIOracle.sol\":1380:1390  msg.sender */\n      caller\n        /* \"contracts/AIOracle.sol\":1370:1391  whitelist[msg.sender] */\n      0xffffffffffffffffffffffffffffffffffffffff\n      and\n      0xffffffffffffffffffffffffffffffffffffffff\n      and\n      dup2\n      mstore\n      0x20\n      add\n      swap1\n      dup2\n      mstore\n      0x20\n      add\n      0x00\n      keccak256\n      0x00\n      swap1\n      sload\n      swap1\n      0x0100\n      exp\n      swap1\n      div\n      0xff\n      and\n        /* \"contracts/AIOracle.sol\":1362:1419  require(whitelist[msg.sender], \"Address not whitelisted\") */\n      tag_277\n      jumpi\n      mload(0x40)\n      0x08c379a000000000000000000000000000000000000000000000000000000000\n      dup2\n      mstore\n      0x04\n      add\n      tag_278\n      swap1\n      tag_279\n      jump\t// in\n    tag_278:\n      mload(0x40)\n      dup1\n      swap2\n      sub\n      swap1\n      revert\n    tag_277:\n        /* \"contracts/AIOracle.sol\":10544:10581  AICallbackRequestData storage request */\n      0x00\n        /* \"contracts/AIOracle.sol\":10584:10592  requests */\n      0x01\n        /* \"contracts/AIOracle.sol\":10584:10603  requests[requestId] */\n      0x00\n        /* \"contracts/AIOracle.sol\":10593:10602  requestId */\n      dup6\n        /* \"contracts/AIOracle.sol\":10584:10603  requests[requestId] */\n      dup2\n      mstore\n      0x20\n      add\n      swap1\n      dup2\n      mstore\n      0x20\n      add\n      0x00\n      keccak256\n        /* \"contracts/AIOracle.sol\":10544:10603  AICallbackRequestData storage request = requests[requestId] */\n      swap1\n      pop\n        /* \"contracts/AIOracle.sol\":10682:10686  opml */\n      0x07\n      0x00\n      swap1\n      sload\n      swap1\n      0x0100\n      exp\n      swap1\n      div\n      0xffffffffffffffffffffffffffffffffffffffff\n      and\n        /* \"contracts/AIOracle.sol\":10682:10699  opml.uploadResult */\n      0xffffffffffffffffffffffffffffffffffffffff\n      and\n      0x480f07c8\n        /* \"contracts/AIOracle.sol\":10700:10709  requestId */\n      dup6\n        /* \"contracts/AIOracle.sol\":10711:10717  output */\n      dup6\n      dup6\n        /* \"contracts/AIOracle.sol\":10682:10718  opml.uploadResult(requestId, output) */\n      mload(0x40)\n      dup5\n      0xffffffff\n      and\n      0xe0\n      shl\n      dup2\n      mstore\n      0x04\n      add\n      tag_281\n      swap4\n      swap3\n      swap2\n      swap1\n      tag_282\n      jump\t// in\n    tag_281:\n      0x00\n      mload(0x40)\n      dup1\n      dup4\n      sub\n      dup2\n      0x00\n      dup8\n      dup1\n      extcodesize\n      iszero\n      dup1\n      iszero\n      tag_283\n      jumpi\n      0x00\n      dup1\n      revert\n    tag_283:\n      pop\n      gas\n      call\n      iszero\n      dup1\n      iszero\n      tag_285\n      jumpi\n      returndatasize\n      0x00\n      dup1\n      returndatacopy\n      revert(0x00, returndatasize)\n    tag_285:\n      pop\n      pop\n      pop\n      pop\n        /* \"contracts/AIOracle.sol\":10795:10796  0 */\n      0x00\n        /* \"contracts/AIOracle.sol\":10759:10797  request.callbackContract != address(0) */\n      0xffffffffffffffffffffffffffffffffffffffff\n      and\n        /* \"contracts/AIOracle.sol\":10759:10766  request */\n      dup2\n        /* \"contracts/AIOracle.sol\":10759:10783  request.callbackContract */\n      0x04\n      add\n      0x00\n      swap1\n      sload\n      swap1\n      0x0100\n      exp\n      swap1\n      div\n      0xffffffffffffffffffffffffffffffffffffffff\n      and\n        /* \"contracts/AIOracle.sol\":10759:10797  request.callbackContract != address(0) */\n      0xffffffffffffffffffffffffffffffffffffffff\n      and\n      eq\n        /* \"contracts/AIOracle.sol\":10756:11254  if(request.callbackContract != address(0)) {... */\n      tag_286\n      jumpi\n        /* \"contracts/AIOracle.sol\":10813:10833  bytes memory payload */\n      0x00\n        /* \"contracts/AIOracle.sol\":319:329  0xb0347814 */\n      0xb0347814\n        /* \"contracts/AIOracle.sol\":10859:10883  callbackFunctionSelector */\n      0xe0\n      shl\n        /* \"contracts/AIOracle.sol\":10885:10892  request */\n      dup3\n        /* \"contracts/AIOracle.sol\":10885:10902  request.requestId */\n      0x01\n      add\n      sload\n        /* \"contracts/AIOracle.sol\":10904:10910  output */\n      dup6\n      dup6\n        /* \"contracts/AIOracle.sol\":10912:10919  request */\n      dup6\n        /* \"contracts/AIOracle.sol\":10912:10932  request.callbackData */\n      0x05\n      add\n        /* \"contracts/AIOracle.sol\":10836:10933  abi.encodeWithSelector(callbackFunctionSelector, request.requestId, output, request.callbackData) */\n      add(0x24, mload(0x40))\n      tag_287\n      swap5\n      swap4\n      swap3\n      swap2\n      swap1\n      tag_288\n      jump\t// in\n    tag_287:\n      mload(0x40)\n      0x20\n      dup2\n      dup4\n      sub\n      sub\n      dup2\n      mstore\n      swap1\n      0x40\n      mstore\n      swap1\n      not(0xffffffffffffffffffffffffffffffffffffffffffffffffffffffff)\n      and\n      0x20\n      dup3\n      add\n      dup1\n      mload\n      0xffffffffffffffffffffffffffffffffffffffffffffffffffffffff\n      dup4\n      dup2\n      dup4\n      and\n      or\n      dup4\n      mstore\n      pop\n      pop\n      pop\n      pop\n        /* \"contracts/AIOracle.sol\":10813:10933  bytes memory payload = abi.encodeWithSelector(callbackFunctionSelector, request.requestId, output, request.callbackData) */\n      swap1\n      pop\n        /* \"contracts/AIOracle.sol\":10948:10960  bool success */\n      0x00\n        /* \"contracts/AIOracle.sol\":10962:10979  bytes memory data */\n      dup1\n        /* \"contracts/AIOracle.sol\":10983:10990  request */\n      dup4\n        /* \"contracts/AIOracle.sol\":10983:11007  request.callbackContract */\n      0x04\n      add\n      0x00\n      swap1\n      sload\n      swap1\n      0x0100\n      exp\n      swap1\n      div\n      0xffffffffffffffffffffffffffffffffffffffff\n      and\n        /* \"contracts/AIOracle.sol\":10983:11012  request.callbackContract.call */\n      0xffffffffffffffffffffffffffffffffffffffff\n      and\n        /* \"contracts/AIOracle.sol\":11018:11025  request */\n      dup5\n        /* \"contracts/AIOracle.sol\":11018:11034  request.gasLimit */\n      0x04\n      add\n      0x14\n      swap1\n      sload\n      swap1\n      0x0100\n      exp\n      swap1\n      div\n      0xffffffffffffffff\n      and\n        /* \"contracts/AIOracle.sol\":10983:11044  request.callbackContract.call{gas: request.gasLimit}(payload) */\n      0xffffffffffffffff\n      and\n        /* \"contracts/AIOracle.sol\":11036:11043  payload */\n      dup5\n        /* \"contracts/AIOracle.sol\":10983:11044  request.callbackContract.call{gas: request.gasLimit}(payload) */\n      mload(0x40)\n      tag_289\n      swap2\n      swap1\n      tag_290\n      jump\t// in\n    tag_289:\n      0x00\n      mload(0x40)\n      dup1\n      dup4\n      sub\n      dup2\n      0x00\n      dup8\n      dup8\n      call\n      swap3\n      pop\n      pop\n      pop\n      returndatasize\n      dup1\n      0x00\n      dup2\n      eq\n      tag_293\n      jumpi\n      mload(0x40)\n      swap2\n      pop\n      and(add(returndatasize, 0x3f), not(0x1f))\n      dup3\n      add\n      0x40\n      mstore\n      returndatasize\n      dup3\n      mstore\n      returndatasize\n      0x00\n      0x20\n      dup5\n      add\n      returndatacopy\n      jump(tag_292)\n    tag_293:\n      0x60\n      swap2\n      pop\n    tag_292:\n      pop\n        /* \"contracts/AIOracle.sol\":10947:11044  (bool success, bytes memory data) = request.callbackContract.call{gas: request.gasLimit}(payload) */\n      swap2\n      pop\n      swap2\n      pop\n        /* \"contracts/AIOracle.sol\":11066:11073  success */\n      dup2\n        /* \"contracts/AIOracle.sol\":11058:11101  require(success, \"failed to call selector\") */\n      tag_294\n      jumpi\n      mload(0x40)\n      0x08c379a000000000000000000000000000000000000000000000000000000000\n      dup2\n      mstore\n      0x04\n      add\n      tag_295\n      swap1\n      tag_296\n      jump\t// in\n    tag_295:\n      mload(0x40)\n      dup1\n      swap2\n      sub\n      swap1\n      revert\n    tag_294:\n        /* \"contracts/AIOracle.sol\":11120:11127  success */\n      dup2\n        /* \"contracts/AIOracle.sol\":11115:11244  if (!success) {... */\n      tag_297\n      jumpi\n        /* \"contracts/AIOracle.sol\":11206:11210  data */\n      dup1\n        /* \"contracts/AIOracle.sol\":11200:11211  mload(data) */\n      mload\n        /* \"contracts/AIOracle.sol\":11195:11197  32 */\n      0x20\n        /* \"contracts/AIOracle.sol\":11189:11193  data */\n      dup3\n        /* \"contracts/AIOracle.sol\":11185:11198  add(data, 32) */\n      add\n        /* \"contracts/AIOracle.sol\":11178:11212  revert(add(data, 32), mload(data)) */\n      revert\n        /* \"contracts/AIOracle.sol\":11115:11244  if (!success) {... */\n    tag_297:\n        /* \"contracts/AIOracle.sol\":10799:11254  {... */\n      pop\n      pop\n      pop\n        /* \"contracts/AIOracle.sol\":10756:11254  if(request.callbackContract != address(0)) {... */\n    tag_286:\n        /* \"contracts/AIOracle.sol\":11303:11312  requestId */\n      dup4\n        /* \"contracts/AIOracle.sol\":11286:11293  request */\n      dup2\n        /* \"contracts/AIOracle.sol\":11286:11301  request.account */\n      0x00\n      add\n      0x00\n      swap1\n      sload\n      swap1\n      0x0100\n      exp\n      swap1\n      div\n      0xffffffffffffffffffffffffffffffffffffffff\n      and\n        /* \"contracts/AIOracle.sol\":11269:11333  AICallbackResult(request.account, requestId, msg.sender, output) */\n      0xffffffffffffffffffffffffffffffffffffffff\n      and\n      0xb7b413554c4e94c80cfbb175a0e4727f2f425d29b980195c49dac293c2914fc0\n        /* \"contracts/AIOracle.sol\":11314:11324  msg.sender */\n      caller\n        /* \"contracts/AIOracle.sol\":11326:11332  output */\n      dup7\n      dup7\n        /* \"contracts/AIOracle.sol\":11269:11333  AICallbackResult(request.account, requestId, msg.sender, output) */\n      mload(0x40)\n      tag_298\n      swap4\n      swap3\n      swap2\n      swap1\n      tag_299\n      jump\t// in\n    tag_298:\n      mload(0x40)\n      dup1\n      swap2\n      sub\n      swap1\n      log3\n        /* \"contracts/AIOracle.sol\":11355:11366  tx.gasprice */\n      gasprice\n        /* \"contracts/AIOracle.sol\":11344:11352  gasPrice */\n      0x05\n        /* \"contracts/AIOracle.sol\":11344:11366  gasPrice = tx.gasprice */\n      dup2\n      swap1\n      sstore\n      pop\n        /* \"contracts/AIOracle.sol\":10497:11373  {... */\n      pop\n        /* \"contracts/AIOracle.sol\":10406:11373  function invokeCallback(uint256 requestId, bytes calldata output) external onlyWhitelisted {... */\n      pop\n      pop\n      pop\n      jump\t// out\n        /* \"contracts/AIOracle.sol\":8720:9164  function claimModelRevenue(uint256 modelId) external ifModelExists(modelId) {... */\n    tag_103:\n        /* \"contracts/AIOracle.sol\":8787:8794  modelId */\n      dup1\n        /* \"contracts/AIOracle.sol\":2425:2436  modelExists */\n      0x04\n        /* \"contracts/AIOracle.sol\":2425:2445  modelExists[modelId] */\n      0x00\n        /* \"contracts/AIOracle.sol\":2437:2444  modelId */\n      dup3\n        /* \"contracts/AIOracle.sol\":2425:2445  modelExists[modelId] */\n      dup2\n      mstore\n      0x20\n      add\n      swap1\n      dup2\n      mstore\n      0x20\n      add\n      0x00\n      keccak256\n      0x00\n      swap1\n      sload\n      swap1\n      0x0100\n      exp\n      swap1\n      div\n      0xff\n      and\n        /* \"contracts/AIOracle.sol\":2417:2470  require(modelExists[modelId], \"model does not exist\") */\n      tag_301\n      jumpi\n      mload(0x40)\n      0x08c379a000000000000000000000000000000000000000000000000000000000\n      dup2\n      mstore\n      0x04\n      add\n      tag_302\n      swap1\n      tag_207\n      jump\t// in\n    tag_302:\n      mload(0x40)\n      dup1\n      swap2\n      sub\n      swap1\n      revert\n    tag_301:\n        /* \"contracts/AIOracle.sol\":8806:8829  ModelData storage model */\n      0x00\n        /* \"contracts/AIOracle.sol\":8832:8838  models */\n      0x03\n        /* \"contracts/AIOracle.sol\":8832:8847  models[modelId] */\n      0x00\n        /* \"contracts/AIOracle.sol\":8839:8846  modelId */\n      dup5\n        /* \"contracts/AIOracle.sol\":8832:8847  models[modelId] */\n      dup2\n      mstore\n      0x20\n      add\n      swap1\n      dup2\n      mstore\n      0x20\n      add\n      0x00\n      keccak256\n        /* \"contracts/AIOracle.sol\":8806:8847  ModelData storage model = models[modelId] */\n      swap1\n      pop\n        /* \"contracts/AIOracle.sol\":8891:8892  0 */\n      0x00\n        /* \"contracts/AIOracle.sol\":8865:8870  model */\n      dup2\n        /* \"contracts/AIOracle.sol\":8865:8888  model.accumulateRevenue */\n      0x05\n      add\n      sload\n        /* \"contracts/AIOracle.sol\":8865:8892  model.accumulateRevenue > 0 */\n      gt\n        /* \"contracts/AIOracle.sol\":8857:8920  require(model.accumulateRevenue > 0, \"accumulate revenue is 0\") */\n      tag_304\n      jumpi\n      mload(0x40)\n      0x08c379a000000000000000000000000000000000000000000000000000000000\n      dup2\n      mstore\n      0x04\n      add\n      tag_305\n      swap1\n      tag_306\n      jump\t// in\n    tag_305:\n      mload(0x40)\n      dup1\n      swap2\n      sub\n      swap1\n      revert\n    tag_304:\n        /* \"contracts/AIOracle.sol\":8930:8953  uint256 transferRevenue */\n      0x00\n        /* \"contracts/AIOracle.sol\":8956:8961  model */\n      dup2\n        /* \"contracts/AIOracle.sol\":8956:8979  model.accumulateRevenue */\n      0x05\n      add\n      sload\n        /* \"contracts/AIOracle.sol\":8930:8979  uint256 transferRevenue = model.accumulateRevenue */\n      swap1\n      pop\n        /* \"contracts/AIOracle.sol\":9015:9016  0 */\n      0x00\n        /* \"contracts/AIOracle.sol\":8989:8994  model */\n      dup3\n        /* \"contracts/AIOracle.sol\":8989:9012  model.accumulateRevenue */\n      0x05\n      add\n        /* \"contracts/AIOracle.sol\":8989:9016  model.accumulateRevenue = 0 */\n      dup2\n      swap1\n      sstore\n      pop\n        /* \"contracts/AIOracle.sol\":9027:9039  bool success */\n      0x00\n        /* \"contracts/AIOracle.sol\":9046:9051  model */\n      dup3\n        /* \"contracts/AIOracle.sol\":9046:9060  model.receiver */\n      0x03\n      add\n      0x00\n      swap1\n      sload\n      swap1\n      0x0100\n      exp\n      swap1\n      div\n      0xffffffffffffffffffffffffffffffffffffffff\n      and\n        /* \"contracts/AIOracle.sol\":9045:9066  (model.receiver).call */\n      0xffffffffffffffffffffffffffffffffffffffff\n      and\n        /* \"contracts/AIOracle.sol\":9074:9089  transferRevenue */\n      dup3\n        /* \"contracts/AIOracle.sol\":9045:9094  (model.receiver).call{value: transferRevenue}(\"\") */\n      mload(0x40)\n      tag_307\n      swap1\n      tag_246\n      jump\t// in\n    tag_307:\n      0x00\n      mload(0x40)\n      dup1\n      dup4\n      sub\n      dup2\n      dup6\n      dup8\n      gas\n      call\n      swap3\n      pop\n      pop\n      pop\n      returndatasize\n      dup1\n      0x00\n      dup2\n      eq\n      tag_310\n      jumpi\n      mload(0x40)\n      swap2\n      pop\n      and(add(returndatasize, 0x3f), not(0x1f))\n      dup3\n      add\n      0x40\n      mstore\n      returndatasize\n      dup3\n      mstore\n      returndatasize\n      0x00\n      0x20\n      dup5\n      add\n      returndatacopy\n      jump(tag_309)\n    tag_310:\n      0x60\n      swap2\n      pop\n    tag_309:\n      pop\n        /* \"contracts/AIOracle.sol\":9026:9094  (bool success, ) = (model.receiver).call{value: transferRevenue}(\"\") */\n      pop\n      swap1\n      pop\n        /* \"contracts/AIOracle.sol\":9112:9119  success */\n      dup1\n        /* \"contracts/AIOracle.sol\":9104:9157  require(success, \"claimModelRevenue transfer failed\") */\n      tag_311\n      jumpi\n      mload(0x40)\n      0x08c379a000000000000000000000000000000000000000000000000000000000\n      dup2\n      mstore\n      0x04\n      add\n      tag_312\n      swap1\n      tag_313\n      jump\t// in\n    tag_312:\n      mload(0x40)\n      dup1\n      swap2\n      sub\n      swap1\n      revert\n    tag_311:\n        /* \"contracts/AIOracle.sol\":8796:9164  {... */\n      pop\n      pop\n      pop\n        /* \"contracts/AIOracle.sol\":8720:9164  function claimModelRevenue(uint256 modelId) external ifModelExists(modelId) {... */\n      pop\n      pop\n      jump\t// out\n        /* \"contracts/AIOracle.sol\":7586:8680  function requestCallback(... */\n    tag_107:\n        /* \"contracts/AIOracle.sol\":7790:7797  uint256 */\n      0x00\n        /* \"contracts/AIOracle.sol\":7836:7895  _validateParams(modelId, input, callbackContract, gasLimit) */\n      tag_315\n        /* \"contracts/AIOracle.sol\":7852:7859  modelId */\n      dup7\n        /* \"contracts/AIOracle.sol\":7861:7866  input */\n      dup7\n        /* \"contracts/AIOracle.sol\":7868:7884  callbackContract */\n      dup7\n        /* \"contracts/AIOracle.sol\":7886:7894  gasLimit */\n      dup7\n        /* \"contracts/AIOracle.sol\":7836:7851  _validateParams */\n      tag_316\n        /* \"contracts/AIOracle.sol\":7836:7895  _validateParams(modelId, input, callbackContract, gasLimit) */\n      jump\t// in\n    tag_315:\n        /* \"contracts/AIOracle.sol\":7906:7928  ModelData memory model */\n      0x00\n        /* \"contracts/AIOracle.sol\":7931:7937  models */\n      0x03\n        /* \"contracts/AIOracle.sol\":7931:7946  models[modelId] */\n      0x00\n        /* \"contracts/AIOracle.sol\":7938:7945  modelId */\n      dup9\n        /* \"contracts/AIOracle.sol\":7931:7946  models[modelId] */\n      dup2\n      mstore\n      0x20\n      add\n      swap1\n      dup2\n      mstore\n      0x20\n      add\n      0x00\n      keccak256\n        /* \"contracts/AIOracle.sol\":7906:7946  ModelData memory model = models[modelId] */\n      mload(0x40)\n      dup1\n      0xc0\n      add\n      0x40\n      mstore\n      swap1\n      dup2\n      0x00\n      dup3\n      add\n      sload\n      dup2\n      mstore\n      0x20\n      add\n      0x01\n      dup3\n      add\n      sload\n      dup2\n      mstore\n      0x20\n      add\n      0x02\n      dup3\n      add\n      sload\n      dup2\n      mstore\n      0x20\n      add\n      0x03\n      dup3\n      add\n      0x00\n      swap1\n      sload\n      swap1\n      0x0100\n      exp\n      swap1\n      div\n      0xffffffffffffffffffffffffffffffffffffffff\n      and\n      0xffffffffffffffffffffffffffffffffffffffff\n      and\n      0xffffffffffffffffffffffffffffffffffffffff\n      and\n      dup2\n      mstore\n      0x20\n      add\n      0x04\n      dup3\n      add\n      sload\n      dup2\n      mstore\n      0x20\n      add\n      0x05\n      dup3\n      add\n      sload\n      dup2\n      mstore\n      pop\n      pop\n      swap1\n      pop\n        /* \"contracts/AIOracle.sol\":7986:8003  uint256 requestId */\n      0x00\n        /* \"contracts/AIOracle.sol\":8006:8010  opml */\n      0x07\n      0x00\n      swap1\n      sload\n      swap1\n      0x0100\n      exp\n      swap1\n      div\n      0xffffffffffffffffffffffffffffffffffffffff\n      and\n        /* \"contracts/AIOracle.sol\":8006:8026  opml.initOpmlRequest */\n      0xffffffffffffffffffffffffffffffffffffffff\n      and\n      0xc61b0b76\n        /* \"contracts/AIOracle.sol\":8027:8032  model */\n      dup4\n        /* \"contracts/AIOracle.sol\":8027:8042  model.modelHash */\n      0x00\n      add\n      mload\n        /* \"contracts/AIOracle.sol\":8044:8049  model */\n      dup5\n        /* \"contracts/AIOracle.sol\":8044:8061  model.programHash */\n      0x20\n      add\n      mload\n        /* \"contracts/AIOracle.sol\":8063:8068  input */\n      dup11\n        /* \"contracts/AIOracle.sol\":8006:8069  opml.initOpmlRequest(model.modelHash, model.programHash, input) */\n      mload(0x40)\n      dup5\n      0xffffffff\n      and\n      0xe0\n      shl\n      dup2\n      mstore\n      0x04\n      add\n      tag_317\n      swap4\n      swap3\n      swap2\n      swap1\n      tag_318\n      jump\t// in\n    tag_317:\n      0x20\n      mload(0x40)\n      dup1\n      dup4\n      sub\n      dup2\n      0x00\n      dup8\n      gas\n      call\n      iszero\n      dup1\n      iszero\n      tag_320\n      jumpi\n      returndatasize\n      0x00\n      dup1\n      returndatacopy\n      revert(0x00, returndatasize)\n    tag_320:\n      pop\n      pop\n      pop\n      pop\n      mload(0x40)\n      returndatasize\n      not(0x1f)\n      0x1f\n      dup3\n      add\n      and\n      dup3\n      add\n      dup1\n      0x40\n      mstore\n      pop\n      dup2\n      add\n      swap1\n      tag_321\n      swap2\n      swap1\n      tag_322\n      jump\t// in\n    tag_321:\n        /* \"contracts/AIOracle.sol\":7986:8069  uint256 requestId = opml.initOpmlRequest(model.modelHash, model.programHash, input) */\n      swap1\n      pop\n        /* \"contracts/AIOracle.sol\":8168:8205  AICallbackRequestData storage request */\n      0x00\n        /* \"contracts/AIOracle.sol\":8208:8216  requests */\n      0x01\n        /* \"contracts/AIOracle.sol\":8208:8227  requests[requestId] */\n      0x00\n        /* \"contracts/AIOracle.sol\":8217:8226  requestId */\n      dup4\n        /* \"contracts/AIOracle.sol\":8208:8227  requests[requestId] */\n      dup2\n      mstore\n      0x20\n      add\n      swap1\n      dup2\n      mstore\n      0x20\n      add\n      0x00\n      keccak256\n        /* \"contracts/AIOracle.sol\":8168:8227  AICallbackRequestData storage request = requests[requestId] */\n      swap1\n      pop\n        /* \"contracts/AIOracle.sol\":8255:8265  msg.sender */\n      caller\n        /* \"contracts/AIOracle.sol\":8237:8244  request */\n      dup2\n        /* \"contracts/AIOracle.sol\":8237:8252  request.account */\n      0x00\n      add\n      0x00\n        /* \"contracts/AIOracle.sol\":8237:8265  request.account = msg.sender */\n      0x0100\n      exp\n      dup2\n      sload\n      dup2\n      0xffffffffffffffffffffffffffffffffffffffff\n      mul\n      not\n      and\n      swap1\n      dup4\n      0xffffffffffffffffffffffffffffffffffffffff\n      and\n      mul\n      or\n      swap1\n      sstore\n      pop\n        /* \"contracts/AIOracle.sol\":8295:8304  requestId */\n      dup2\n        /* \"contracts/AIOracle.sol\":8275:8282  request */\n      dup2\n        /* \"contracts/AIOracle.sol\":8275:8292  request.requestId */\n      0x01\n      add\n        /* \"contracts/AIOracle.sol\":8275:8304  request.requestId = requestId */\n      dup2\n      swap1\n      sstore\n      pop\n        /* \"contracts/AIOracle.sol\":8332:8339  modelId */\n      dup9\n        /* \"contracts/AIOracle.sol\":8314:8321  request */\n      dup2\n        /* \"contracts/AIOracle.sol\":8314:8329  request.modelId */\n      0x02\n      add\n        /* \"contracts/AIOracle.sol\":8314:8339  request.modelId = modelId */\n      dup2\n      swap1\n      sstore\n      pop\n        /* \"contracts/AIOracle.sol\":8365:8370  input */\n      dup8\n        /* \"contracts/AIOracle.sol\":8349:8356  request */\n      dup2\n        /* \"contracts/AIOracle.sol\":8349:8362  request.input */\n      0x03\n      add\n        /* \"contracts/AIOracle.sol\":8349:8370  request.input = input */\n      swap1\n      dup2\n      tag_323\n      swap2\n      swap1\n      tag_324\n      jump\t// in\n    tag_323:\n      pop\n        /* \"contracts/AIOracle.sol\":8407:8423  callbackContract */\n      dup7\n        /* \"contracts/AIOracle.sol\":8380:8387  request */\n      dup2\n        /* \"contracts/AIOracle.sol\":8380:8404  request.callbackContract */\n      0x04\n      add\n      0x00\n        /* \"contracts/AIOracle.sol\":8380:8423  request.callbackContract = callbackContract */\n      0x0100\n      exp\n      dup2\n      sload\n      dup2\n      0xffffffffffffffffffffffffffffffffffffffff\n      mul\n      not\n      and\n      swap1\n      dup4\n      0xffffffffffffffffffffffffffffffffffffffff\n      and\n      mul\n      or\n      swap1\n      sstore\n      pop\n        /* \"contracts/AIOracle.sol\":8452:8460  gasLimit */\n      dup6\n        /* \"contracts/AIOracle.sol\":8433:8440  request */\n      dup2\n        /* \"contracts/AIOracle.sol\":8433:8449  request.gasLimit */\n      0x04\n      add\n      0x14\n        /* \"contracts/AIOracle.sol\":8433:8460  request.gasLimit = gasLimit */\n      0x0100\n      exp\n      dup2\n      sload\n      dup2\n      0xffffffffffffffff\n      mul\n      not\n      and\n      swap1\n      dup4\n      0xffffffffffffffff\n      and\n      mul\n      or\n      swap1\n      sstore\n      pop\n        /* \"contracts/AIOracle.sol\":8493:8505  callbackData */\n      dup5\n        /* \"contracts/AIOracle.sol\":8470:8477  request */\n      dup2\n        /* \"contracts/AIOracle.sol\":8470:8490  request.callbackData */\n      0x05\n      add\n        /* \"contracts/AIOracle.sol\":8470:8505  request.callbackData = callbackData */\n      swap1\n      dup2\n      tag_325\n      swap2\n      swap1\n      tag_324\n      jump\t// in\n    tag_325:\n      pop\n        /* \"contracts/AIOracle.sol\":8578:8587  requestId */\n      dup2\n        /* \"contracts/AIOracle.sol\":8561:8568  request */\n      dup2\n        /* \"contracts/AIOracle.sol\":8561:8576  request.account */\n      0x00\n      add\n      0x00\n      swap1\n      sload\n      swap1\n      0x0100\n      exp\n      swap1\n      div\n      0xffffffffffffffffffffffffffffffffffffffff\n      and\n        /* \"contracts/AIOracle.sol\":8543:8646  AICallbackRequest(request.account, requestId, modelId, input, callbackContract, gasLimit, callbackData) */\n      0xffffffffffffffffffffffffffffffffffffffff\n      and\n      0x849aa5adc3bf6a75cb08afbf31d88d1528c274e5d84e3d4355d23d8e9ebd649b\n        /* \"contracts/AIOracle.sol\":8589:8596  modelId */\n      dup12\n        /* \"contracts/AIOracle.sol\":8598:8603  input */\n      dup12\n        /* \"contracts/AIOracle.sol\":8605:8621  callbackContract */\n      dup12\n        /* \"contracts/AIOracle.sol\":8623:8631  gasLimit */\n      dup12\n        /* \"contracts/AIOracle.sol\":8633:8645  callbackData */\n      dup12\n        /* \"contracts/AIOracle.sol\":8543:8646  AICallbackRequest(request.account, requestId, modelId, input, callbackContract, gasLimit, callbackData) */\n      mload(0x40)\n      tag_326\n      swap6\n      swap5\n      swap4\n      swap3\n      swap2\n      swap1\n      tag_327\n      jump\t// in\n    tag_326:\n      mload(0x40)\n      dup1\n      swap2\n      sub\n      swap1\n      log3\n        /* \"contracts/AIOracle.sol\":8664:8673  requestId */\n      dup2\n        /* \"contracts/AIOracle.sol\":8657:8673  return requestId */\n      swap4\n      pop\n      pop\n      pop\n      pop\n        /* \"contracts/AIOracle.sol\":7586:8680  function requestCallback(... */\n      swap6\n      swap5\n      pop\n      pop\n      pop\n      pop\n      pop\n      jump\t// out\n        /* \"contracts/AIOracle.sol\":4862:5173  function setModelReceiverPercentage(uint256 modelId, uint256 receiverPercentage) external onlyOwner ifModelExists(modelId) {... */\n    tag_112:\n        /* \"contracts/AIOracle.sol\":389:394  owner */\n      0x08\n      0x00\n      swap1\n      sload\n      swap1\n      0x0100\n      exp\n      swap1\n      div\n      0xffffffffffffffffffffffffffffffffffffffff\n      and\n        /* \"contracts/AIOracle.sol\":375:394  msg.sender == owner */\n      0xffffffffffffffffffffffffffffffffffffffff\n      and\n        /* \"contracts/AIOracle.sol\":375:385  msg.sender */\n      caller\n        /* \"contracts/AIOracle.sol\":375:394  msg.sender == owner */\n      0xffffffffffffffffffffffffffffffffffffffff\n      and\n      eq\n        /* \"contracts/AIOracle.sol\":367:412  require(msg.sender == owner, \"Not the owner\") */\n      tag_329\n      jumpi\n      mload(0x40)\n      0x08c379a000000000000000000000000000000000000000000000000000000000\n      dup2\n      mstore\n      0x04\n      add\n      tag_330\n      swap1\n      tag_203\n      jump\t// in\n    tag_330:\n      mload(0x40)\n      dup1\n      swap2\n      sub\n      swap1\n      revert\n    tag_329:\n        /* \"contracts/AIOracle.sol\":4976:4983  modelId */\n      dup2\n        /* \"contracts/AIOracle.sol\":2425:2436  modelExists */\n      0x04\n        /* \"contracts/AIOracle.sol\":2425:2445  modelExists[modelId] */\n      0x00\n        /* \"contracts/AIOracle.sol\":2437:2444  modelId */\n      dup3\n        /* \"contracts/AIOracle.sol\":2425:2445  modelExists[modelId] */\n      dup2\n      mstore\n      0x20\n      add\n      swap1\n      dup2\n      mstore\n      0x20\n      add\n      0x00\n      keccak256\n      0x00\n      swap1\n      sload\n      swap1\n      0x0100\n      exp\n      swap1\n      div\n      0xff\n      and\n        /* \"contracts/AIOracle.sol\":2417:2470  require(modelExists[modelId], \"model does not exist\") */\n      tag_332\n      jumpi\n      mload(0x40)\n      0x08c379a000000000000000000000000000000000000000000000000000000000\n      dup2\n      mstore\n      0x04\n      add\n      tag_333\n      swap1\n      tag_207\n      jump\t// in\n    tag_333:\n      mload(0x40)\n      dup1\n      swap2\n      sub\n      swap1\n      revert\n    tag_332:\n        /* \"contracts/AIOracle.sol\":5025:5028  100 */\n      0x64\n        /* \"contracts/AIOracle.sol\":5003:5021  receiverPercentage */\n      dup3\n        /* \"contracts/AIOracle.sol\":5003:5028  receiverPercentage <= 100 */\n      gt\n      iszero\n        /* \"contracts/AIOracle.sol\":4995:5060  require(receiverPercentage <= 100, \"percentage should be <= 100\") */\n      tag_335\n      jumpi\n      mload(0x40)\n      0x08c379a000000000000000000000000000000000000000000000000000000000\n      dup2\n      mstore\n      0x04\n      add\n      tag_336\n      swap1\n      tag_270\n      jump\t// in\n    tag_336:\n      mload(0x40)\n      dup1\n      swap2\n      sub\n      swap1\n      revert\n    tag_335:\n        /* \"contracts/AIOracle.sol\":5070:5093  ModelData storage model */\n      0x00\n        /* \"contracts/AIOracle.sol\":5096:5102  models */\n      0x03\n        /* \"contracts/AIOracle.sol\":5096:5111  models[modelId] */\n      0x00\n        /* \"contracts/AIOracle.sol\":5103:5110  modelId */\n      dup6\n        /* \"contracts/AIOracle.sol\":5096:5111  models[modelId] */\n      dup2\n      mstore\n      0x20\n      add\n      swap1\n      dup2\n      mstore\n      0x20\n      add\n      0x00\n      keccak256\n        /* \"contracts/AIOracle.sol\":5070:5111  ModelData storage model = models[modelId] */\n      swap1\n      pop\n        /* \"contracts/AIOracle.sol\":5148:5166  receiverPercentage */\n      dup3\n        /* \"contracts/AIOracle.sol\":5121:5126  model */\n      dup2\n        /* \"contracts/AIOracle.sol\":5121:5145  model.receiverPercentage */\n      0x04\n      add\n        /* \"contracts/AIOracle.sol\":5121:5166  model.receiverPercentage = receiverPercentage */\n      dup2\n      swap1\n      sstore\n      pop\n        /* \"contracts/AIOracle.sol\":4985:5173  {... */\n      pop\n        /* \"contracts/AIOracle.sol\":422:423  _ */\n      pop\n        /* \"contracts/AIOracle.sol\":4862:5173  function setModelReceiverPercentage(uint256 modelId, uint256 receiverPercentage) external onlyOwner ifModelExists(modelId) {... */\n      pop\n      pop\n      jump\t// out\n        /* \"contracts/AIOracle.sol\":2896:3903  function removeModel(uint256 modelId) external onlyOwner ifModelExists(modelId) {... */\n    tag_116:\n        /* \"contracts/AIOracle.sol\":389:394  owner */\n      0x08\n      0x00\n      swap1\n      sload\n      swap1\n      0x0100\n      exp\n      swap1\n      div\n      0xffffffffffffffffffffffffffffffffffffffff\n      and\n        /* \"contracts/AIOracle.sol\":375:394  msg.sender == owner */\n      0xffffffffffffffffffffffffffffffffffffffff\n      and\n        /* \"contracts/AIOracle.sol\":375:385  msg.sender */\n      caller\n        /* \"contracts/AIOracle.sol\":375:394  msg.sender == owner */\n      0xffffffffffffffffffffffffffffffffffffffff\n      and\n      eq\n        /* \"contracts/AIOracle.sol\":367:412  require(msg.sender == owner, \"Not the owner\") */\n      tag_338\n      jumpi\n      mload(0x40)\n      0x08c379a000000000000000000000000000000000000000000000000000000000\n      dup2\n      mstore\n      0x04\n      add\n      tag_339\n      swap1\n      tag_203\n      jump\t// in\n    tag_339:\n      mload(0x40)\n      dup1\n      swap2\n      sub\n      swap1\n      revert\n    tag_338:\n        /* \"contracts/AIOracle.sol\":2967:2974  modelId */\n      dup1\n        /* \"contracts/AIOracle.sol\":2425:2436  modelExists */\n      0x04\n        /* \"contracts/AIOracle.sol\":2425:2445  modelExists[modelId] */\n      0x00\n        /* \"contracts/AIOracle.sol\":2437:2444  modelId */\n      dup3\n        /* \"contracts/AIOracle.sol\":2425:2445  modelExists[modelId] */\n      dup2\n      mstore\n      0x20\n      add\n      swap1\n      dup2\n      mstore\n      0x20\n      add\n      0x00\n      keccak256\n      0x00\n      swap1\n      sload\n      swap1\n      0x0100\n      exp\n      swap1\n      div\n      0xff\n      and\n        /* \"contracts/AIOracle.sol\":2417:2470  require(modelExists[modelId], \"model does not exist\") */\n      tag_341\n      jumpi\n      mload(0x40)\n      0x08c379a000000000000000000000000000000000000000000000000000000000\n      dup2\n      mstore\n      0x04\n      add\n      tag_342\n      swap1\n      tag_207\n      jump\t// in\n    tag_342:\n      mload(0x40)\n      dup1\n      swap2\n      sub\n      swap1\n      revert\n    tag_341:\n        /* \"contracts/AIOracle.sol\":3035:3058  ModelData storage model */\n      0x00\n        /* \"contracts/AIOracle.sol\":3061:3067  models */\n      0x03\n        /* \"contracts/AIOracle.sol\":3061:3076  models[modelId] */\n      0x00\n        /* \"contracts/AIOracle.sol\":3068:3075  modelId */\n      dup5\n        /* \"contracts/AIOracle.sol\":3061:3076  models[modelId] */\n      dup2\n      mstore\n      0x20\n      add\n      swap1\n      dup2\n      mstore\n      0x20\n      add\n      0x00\n      keccak256\n        /* \"contracts/AIOracle.sol\":3035:3076  ModelData storage model = models[modelId] */\n      swap1\n      pop\n        /* \"contracts/AIOracle.sol\":3116:3117  0 */\n      0x00\n        /* \"contracts/AIOracle.sol\":3090:3095  model */\n      dup2\n        /* \"contracts/AIOracle.sol\":3090:3113  model.accumulateRevenue */\n      0x05\n      add\n      sload\n        /* \"contracts/AIOracle.sol\":3090:3117  model.accumulateRevenue > 0 */\n      gt\n        /* \"contracts/AIOracle.sol\":3086:3395  if (model.accumulateRevenue > 0) {... */\n      iszero\n      tag_344\n      jumpi\n        /* \"contracts/AIOracle.sol\":3133:3156  uint256 transferRevenue */\n      0x00\n        /* \"contracts/AIOracle.sol\":3159:3164  model */\n      dup2\n        /* \"contracts/AIOracle.sol\":3159:3182  model.accumulateRevenue */\n      0x05\n      add\n      sload\n        /* \"contracts/AIOracle.sol\":3133:3182  uint256 transferRevenue = model.accumulateRevenue */\n      swap1\n      pop\n        /* \"contracts/AIOracle.sol\":3222:3223  0 */\n      0x00\n        /* \"contracts/AIOracle.sol\":3196:3201  model */\n      dup3\n        /* \"contracts/AIOracle.sol\":3196:3219  model.accumulateRevenue */\n      0x05\n      add\n        /* \"contracts/AIOracle.sol\":3196:3223  model.accumulateRevenue = 0 */\n      dup2\n      swap1\n      sstore\n      pop\n        /* \"contracts/AIOracle.sol\":3238:3250  bool success */\n      0x00\n        /* \"contracts/AIOracle.sol\":3257:3262  model */\n      dup3\n        /* \"contracts/AIOracle.sol\":3257:3271  model.receiver */\n      0x03\n      add\n      0x00\n      swap1\n      sload\n      swap1\n      0x0100\n      exp\n      swap1\n      div\n      0xffffffffffffffffffffffffffffffffffffffff\n      and\n        /* \"contracts/AIOracle.sol\":3256:3277  (model.receiver).call */\n      0xffffffffffffffffffffffffffffffffffffffff\n      and\n        /* \"contracts/AIOracle.sol\":3285:3300  transferRevenue */\n      dup3\n        /* \"contracts/AIOracle.sol\":3256:3305  (model.receiver).call{value: transferRevenue}(\"\") */\n      mload(0x40)\n      tag_345\n      swap1\n      tag_246\n      jump\t// in\n    tag_345:\n      0x00\n      mload(0x40)\n      dup1\n      dup4\n      sub\n      dup2\n      dup6\n      dup8\n      gas\n      call\n      swap3\n      pop\n      pop\n      pop\n      returndatasize\n      dup1\n      0x00\n      dup2\n      eq\n      tag_348\n      jumpi\n      mload(0x40)\n      swap2\n      pop\n      and(add(returndatasize, 0x3f), not(0x1f))\n      dup3\n      add\n      0x40\n      mstore\n      returndatasize\n      dup3\n      mstore\n      returndatasize\n      0x00\n      0x20\n      dup5\n      add\n      returndatacopy\n      jump(tag_347)\n    tag_348:\n      0x60\n      swap2\n      pop\n    tag_347:\n      pop\n        /* \"contracts/AIOracle.sol\":3237:3305  (bool success, ) = (model.receiver).call{value: transferRevenue}(\"\") */\n      pop\n      swap1\n      pop\n        /* \"contracts/AIOracle.sol\":3327:3334  success */\n      dup1\n        /* \"contracts/AIOracle.sol\":3319:3372  require(success, \"claimModelRevenue transfer failed\") */\n      tag_349\n      jumpi\n      mload(0x40)\n      0x08c379a000000000000000000000000000000000000000000000000000000000\n      dup2\n      mstore\n      0x04\n      add\n      tag_350\n      swap1\n      tag_313\n      jump\t// in\n    tag_350:\n      mload(0x40)\n      dup1\n      swap2\n      sub\n      swap1\n      revert\n    tag_349:\n        /* \"contracts/AIOracle.sol\":3119:3395  {... */\n      pop\n      pop\n        /* \"contracts/AIOracle.sol\":3086:3395  if (model.accumulateRevenue > 0) {... */\n    tag_344:\n        /* \"contracts/AIOracle.sol\":3451:3456  false */\n      0x00\n        /* \"contracts/AIOracle.sol\":3428:3439  modelExists */\n      0x04\n        /* \"contracts/AIOracle.sol\":3428:3448  modelExists[modelId] */\n      0x00\n        /* \"contracts/AIOracle.sol\":3440:3447  modelId */\n      dup6\n        /* \"contracts/AIOracle.sol\":3428:3448  modelExists[modelId] */\n      dup2\n      mstore\n      0x20\n      add\n      swap1\n      dup2\n      mstore\n      0x20\n      add\n      0x00\n      keccak256\n      0x00\n        /* \"contracts/AIOracle.sol\":3428:3456  modelExists[modelId] = false */\n      0x0100\n      exp\n      dup2\n      sload\n      dup2\n      0xff\n      mul\n      not\n      and\n      swap1\n      dup4\n      iszero\n      iszero\n      mul\n      or\n      swap1\n      sstore\n      pop\n        /* \"contracts/AIOracle.sol\":3503:3509  uint i */\n      0x00\n        /* \"contracts/AIOracle.sol\":3498:3897  for (uint i = 0; i < modelIDs.length; i++) {... */\n    tag_351:\n        /* \"contracts/AIOracle.sol\":3519:3527  modelIDs */\n      0x06\n        /* \"contracts/AIOracle.sol\":3519:3534  modelIDs.length */\n      dup1\n      sload\n      swap1\n      pop\n        /* \"contracts/AIOracle.sol\":3515:3516  i */\n      dup2\n        /* \"contracts/AIOracle.sol\":3515:3534  i < modelIDs.length */\n      lt\n        /* \"contracts/AIOracle.sol\":3498:3897  for (uint i = 0; i < modelIDs.length; i++) {... */\n      iszero\n      tag_352\n      jumpi\n        /* \"contracts/AIOracle.sol\":3555:3565  uint256 id */\n      0x00\n        /* \"contracts/AIOracle.sol\":3568:3576  modelIDs */\n      0x06\n        /* \"contracts/AIOracle.sol\":3577:3578  i */\n      dup3\n        /* \"contracts/AIOracle.sol\":3568:3579  modelIDs[i] */\n      dup2\n      sload\n      dup2\n      lt\n      tag_354\n      jumpi\n      tag_355\n      tag_240\n      jump\t// in\n    tag_355:\n    tag_354:\n      swap1\n      0x00\n      mstore\n      keccak256(0x00, 0x20)\n      add\n      sload\n        /* \"contracts/AIOracle.sol\":3555:3579  uint256 id = modelIDs[i] */\n      swap1\n      pop\n        /* \"contracts/AIOracle.sol\":3603:3610  modelId */\n      dup5\n        /* \"contracts/AIOracle.sol\":3597:3599  id */\n      dup2\n        /* \"contracts/AIOracle.sol\":3597:3610  id == modelId */\n      sub\n        /* \"contracts/AIOracle.sol\":3593:3887  if (id == modelId) {... */\n      tag_357\n      jumpi\n        /* \"contracts/AIOracle.sol\":3714:3722  modelIDs */\n      0x06\n        /* \"contracts/AIOracle.sol\":3741:3742  1 */\n      0x01\n        /* \"contracts/AIOracle.sol\":3723:3731  modelIDs */\n      0x06\n        /* \"contracts/AIOracle.sol\":3723:3738  modelIDs.length */\n      dup1\n      sload\n      swap1\n      pop\n        /* \"contracts/AIOracle.sol\":3723:3742  modelIDs.length - 1 */\n      tag_358\n      swap2\n      swap1\n      tag_244\n      jump\t// in\n    tag_358:\n        /* \"contracts/AIOracle.sol\":3714:3743  modelIDs[modelIDs.length - 1] */\n      dup2\n      sload\n      dup2\n      lt\n      tag_359\n      jumpi\n      tag_360\n      tag_240\n      jump\t// in\n    tag_360:\n    tag_359:\n      swap1\n      0x00\n      mstore\n      keccak256(0x00, 0x20)\n      add\n      sload\n        /* \"contracts/AIOracle.sol\":3700:3708  modelIDs */\n      0x06\n        /* \"contracts/AIOracle.sol\":3709:3710  i */\n      dup4\n        /* \"contracts/AIOracle.sol\":3700:3711  modelIDs[i] */\n      dup2\n      sload\n      dup2\n      lt\n      tag_362\n      jumpi\n      tag_363\n      tag_240\n      jump\t// in\n    tag_363:\n    tag_362:\n      swap1\n      0x00\n      mstore\n      keccak256(0x00, 0x20)\n      add\n        /* \"contracts/AIOracle.sol\":3700:3743  modelIDs[i] = modelIDs[modelIDs.length - 1] */\n      dup2\n      swap1\n      sstore\n      pop\n        /* \"contracts/AIOracle.sol\":3835:3843  modelIDs */\n      0x06\n        /* \"contracts/AIOracle.sol\":3835:3849  modelIDs.pop() */\n      dup1\n      sload\n      dup1\n      tag_365\n      jumpi\n      tag_366\n      tag_367\n      jump\t// in\n    tag_366:\n    tag_365:\n      0x01\n      swap1\n      sub\n      dup2\n      dup2\n      swap1\n      0x00\n      mstore\n      keccak256(0x00, 0x20)\n      add\n      0x00\n      swap1\n      sstore\n      swap1\n      sstore\n        /* \"contracts/AIOracle.sol\":3867:3872  break */\n      pop\n      jump(tag_352)\n        /* \"contracts/AIOracle.sol\":3593:3887  if (id == modelId) {... */\n    tag_357:\n        /* \"contracts/AIOracle.sol\":3541:3897  {... */\n      pop\n        /* \"contracts/AIOracle.sol\":3536:3539  i++ */\n      dup1\n      dup1\n      0x01\n      add\n      swap2\n      pop\n      pop\n        /* \"contracts/AIOracle.sol\":3498:3897  for (uint i = 0; i < modelIDs.length; i++) {... */\n      jump(tag_351)\n    tag_352:\n      pop\n        /* \"contracts/AIOracle.sol\":2976:3903  {... */\n      pop\n        /* \"contracts/AIOracle.sol\":422:423  _ */\n      pop\n        /* \"contracts/AIOracle.sol\":2896:3903  function removeModel(uint256 modelId) external onlyOwner ifModelExists(modelId) {... */\n      pop\n      jump\t// out\n        /* \"contracts/AIOracle.sol\":4476:4654  function setModelFee(uint256 modelId, uint256 _fee) external onlyOwner ifModelExists(modelId) {... */\n    tag_120:\n        /* \"contracts/AIOracle.sol\":389:394  owner */\n      0x08\n      0x00\n      swap1\n      sload\n      swap1\n      0x0100\n      exp\n      swap1\n      div\n      0xffffffffffffffffffffffffffffffffffffffff\n      and\n        /* \"contracts/AIOracle.sol\":375:394  msg.sender == owner */\n      0xffffffffffffffffffffffffffffffffffffffff\n      and\n        /* \"contracts/AIOracle.sol\":375:385  msg.sender */\n      caller\n        /* \"contracts/AIOracle.sol\":375:394  msg.sender == owner */\n      0xffffffffffffffffffffffffffffffffffffffff\n      and\n      eq\n        /* \"contracts/AIOracle.sol\":367:412  require(msg.sender == owner, \"Not the owner\") */\n      tag_370\n      jumpi\n      mload(0x40)\n      0x08c379a000000000000000000000000000000000000000000000000000000000\n      dup2\n      mstore\n      0x04\n      add\n      tag_371\n      swap1\n      tag_203\n      jump\t// in\n    tag_371:\n      mload(0x40)\n      dup1\n      swap2\n      sub\n      swap1\n      revert\n    tag_370:\n        /* \"contracts/AIOracle.sol\":4561:4568  modelId */\n      dup2\n        /* \"contracts/AIOracle.sol\":2425:2436  modelExists */\n      0x04\n        /* \"contracts/AIOracle.sol\":2425:2445  modelExists[modelId] */\n      0x00\n        /* \"contracts/AIOracle.sol\":2437:2444  modelId */\n      dup3\n        /* \"contracts/AIOracle.sol\":2425:2445  modelExists[modelId] */\n      dup2\n      mstore\n      0x20\n      add\n      swap1\n      dup2\n      mstore\n      0x20\n      add\n      0x00\n      keccak256\n      0x00\n      swap1\n      sload\n      swap1\n      0x0100\n      exp\n      swap1\n      div\n      0xff\n      and\n        /* \"contracts/AIOracle.sol\":2417:2470  require(modelExists[modelId], \"model does not exist\") */\n      tag_373\n      jumpi\n      mload(0x40)\n      0x08c379a000000000000000000000000000000000000000000000000000000000\n      dup2\n      mstore\n      0x04\n      add\n      tag_374\n      swap1\n      tag_207\n      jump\t// in\n    tag_374:\n      mload(0x40)\n      dup1\n      swap2\n      sub\n      swap1\n      revert\n    tag_373:\n        /* \"contracts/AIOracle.sol\":4580:4603  ModelData storage model */\n      0x00\n        /* \"contracts/AIOracle.sol\":4606:4612  models */\n      0x03\n        /* \"contracts/AIOracle.sol\":4606:4621  models[modelId] */\n      0x00\n        /* \"contracts/AIOracle.sol\":4613:4620  modelId */\n      dup6\n        /* \"contracts/AIOracle.sol\":4606:4621  models[modelId] */\n      dup2\n      mstore\n      0x20\n      add\n      swap1\n      dup2\n      mstore\n      0x20\n      add\n      0x00\n      keccak256\n        /* \"contracts/AIOracle.sol\":4580:4621  ModelData storage model = models[modelId] */\n      swap1\n      pop\n        /* \"contracts/AIOracle.sol\":4643:4647  _fee */\n      dup3\n        /* \"contracts/AIOracle.sol\":4631:4636  model */\n      dup2\n        /* \"contracts/AIOracle.sol\":4631:4640  model.fee */\n      0x02\n      add\n        /* \"contracts/AIOracle.sol\":4631:4647  model.fee = _fee */\n      dup2\n      swap1\n      sstore\n      pop\n        /* \"contracts/AIOracle.sol\":4570:4654  {... */\n      pop\n        /* \"contracts/AIOracle.sol\":422:423  _ */\n      pop\n        /* \"contracts/AIOracle.sol\":4476:4654  function setModelFee(uint256 modelId, uint256 _fee) external onlyOwner ifModelExists(modelId) {... */\n      pop\n      pop\n      jump\t// out\n        /* \"contracts/AIOracle.sol\":5179:5357  function getModel(uint256 modelId) external view ifModelExists(modelId) returns (ModelData memory) {... */\n    tag_124:\n        /* \"contracts/AIOracle.sol\":5260:5276  ModelData memory */\n      tag_376\n      tag_377\n      jump\t// in\n    tag_376:\n        /* \"contracts/AIOracle.sol\":5242:5249  modelId */\n      dup2\n        /* \"contracts/AIOracle.sol\":2425:2436  modelExists */\n      0x04\n        /* \"contracts/AIOracle.sol\":2425:2445  modelExists[modelId] */\n      0x00\n        /* \"contracts/AIOracle.sol\":2437:2444  modelId */\n      dup3\n        /* \"contracts/AIOracle.sol\":2425:2445  modelExists[modelId] */\n      dup2\n      mstore\n      0x20\n      add\n      swap1\n      dup2\n      mstore\n      0x20\n      add\n      0x00\n      keccak256\n      0x00\n      swap1\n      sload\n      swap1\n      0x0100\n      exp\n      swap1\n      div\n      0xff\n      and\n        /* \"contracts/AIOracle.sol\":2417:2470  require(modelExists[modelId], \"model does not exist\") */\n      tag_379\n      jumpi\n      mload(0x40)\n      0x08c379a000000000000000000000000000000000000000000000000000000000\n      dup2\n      mstore\n      0x04\n      add\n      tag_380\n      swap1\n      tag_207\n      jump\t// in\n    tag_380:\n      mload(0x40)\n      dup1\n      swap2\n      sub\n      swap1\n      revert\n    tag_379:\n        /* \"contracts/AIOracle.sol\":5288:5310  ModelData memory model */\n      0x00\n        /* \"contracts/AIOracle.sol\":5313:5319  models */\n      0x03\n        /* \"contracts/AIOracle.sol\":5313:5328  models[modelId] */\n      0x00\n        /* \"contracts/AIOracle.sol\":5320:5327  modelId */\n      dup6\n        /* \"contracts/AIOracle.sol\":5313:5328  models[modelId] */\n      dup2\n      mstore\n      0x20\n      add\n      swap1\n      dup2\n      mstore\n      0x20\n      add\n      0x00\n      keccak256\n        /* \"contracts/AIOracle.sol\":5288:5328  ModelData memory model = models[modelId] */\n      mload(0x40)\n      dup1\n      0xc0\n      add\n      0x40\n      mstore\n      swap1\n      dup2\n      0x00\n      dup3\n      add\n      sload\n      dup2\n      mstore\n      0x20\n      add\n      0x01\n      dup3\n      add\n      sload\n      dup2\n      mstore\n      0x20\n      add\n      0x02\n      dup3\n      add\n      sload\n      dup2\n      mstore\n      0x20\n      add\n      0x03\n      dup3\n      add\n      0x00\n      swap1\n      sload\n      swap1\n      0x0100\n      exp\n      swap1\n      div\n      0xffffffffffffffffffffffffffffffffffffffff\n      and\n      0xffffffffffffffffffffffffffffffffffffffff\n      and\n      0xffffffffffffffffffffffffffffffffffffffff\n      and\n      dup2\n      mstore\n      0x20\n      add\n      0x04\n      dup3\n      add\n      sload\n      dup2\n      mstore\n      0x20\n      add\n      0x05\n      dup3\n      add\n      sload\n      dup2\n      mstore\n      pop\n      pop\n      swap1\n      pop\n        /* \"contracts/AIOracle.sol\":5345:5350  model */\n      dup1\n        /* \"contracts/AIOracle.sol\":5338:5350  return model */\n      swap3\n      pop\n      pop\n        /* \"contracts/AIOracle.sol\":5179:5357  function getModel(uint256 modelId) external view ifModelExists(modelId) returns (ModelData memory) {... */\n      pop\n      swap2\n      swap1\n      pop\n      jump\t// out\n        /* \"contracts/AIOracle.sol\":2532:2605  function resetGasPrice() external onlyOwner {... */\n    tag_129:\n        /* \"contracts/AIOracle.sol\":389:394  owner */\n      0x08\n      0x00\n      swap1\n      sload\n      swap1\n      0x0100\n      exp\n      swap1\n      div\n      0xffffffffffffffffffffffffffffffffffffffff\n      and\n        /* \"contracts/AIOracle.sol\":375:394  msg.sender == owner */\n      0xffffffffffffffffffffffffffffffffffffffff\n      and\n        /* \"contracts/AIOracle.sol\":375:385  msg.sender */\n      caller\n        /* \"contracts/AIOracle.sol\":375:394  msg.sender == owner */\n      0xffffffffffffffffffffffffffffffffffffffff\n      and\n      eq\n        /* \"contracts/AIOracle.sol\":367:412  require(msg.sender == owner, \"Not the owner\") */\n      tag_383\n      jumpi\n      mload(0x40)\n      0x08c379a000000000000000000000000000000000000000000000000000000000\n      dup2\n      mstore\n      0x04\n      add\n      tag_384\n      swap1\n      tag_203\n      jump\t// in\n    tag_384:\n      mload(0x40)\n      dup1\n      swap2\n      sub\n      swap1\n      revert\n    tag_383:\n        /* \"contracts/AIOracle.sol\":2597:2598  0 */\n      0x00\n        /* \"contracts/AIOracle.sol\":2586:2594  gasPrice */\n      0x05\n        /* \"contracts/AIOracle.sol\":2586:2598  gasPrice = 0 */\n      dup2\n      swap1\n      sstore\n      pop\n        /* \"contracts/AIOracle.sol\":2532:2605  function resetGasPrice() external onlyOwner {... */\n      jump\t// out\n        /* \"contracts/AIOracle.sol\":758:815  mapping(uint256 => AICallbackRequestData) public requests */\n    tag_133:\n      mstore(0x20, 0x01)\n      dup1\n      0x00\n      mstore\n      keccak256(0x00, 0x40)\n      0x00\n      swap2\n      pop\n      swap1\n      pop\n      dup1\n      0x00\n      add\n      0x00\n      swap1\n      sload\n      swap1\n      0x0100\n      exp\n      swap1\n      div\n      0xffffffffffffffffffffffffffffffffffffffff\n      and\n      swap1\n      dup1\n      0x01\n      add\n      sload\n      swap1\n      dup1\n      0x02\n      add\n      sload\n      swap1\n      dup1\n      0x03\n      add\n      dup1\n      sload\n      tag_386\n      swap1\n      tag_387\n      jump\t// in\n    tag_386:\n      dup1\n      0x1f\n      add\n      0x20\n      dup1\n      swap2\n      div\n      mul\n      0x20\n      add\n      mload(0x40)\n      swap1\n      dup2\n      add\n      0x40\n      mstore\n      dup1\n      swap3\n      swap2\n      swap1\n      dup2\n      dup2\n      mstore\n      0x20\n      add\n      dup3\n      dup1\n      sload\n      tag_388\n      swap1\n      tag_387\n      jump\t// in\n    tag_388:\n      dup1\n      iszero\n      tag_389\n      jumpi\n      dup1\n      0x1f\n      lt\n      tag_390\n      jumpi\n      0x0100\n      dup1\n      dup4\n      sload\n      div\n      mul\n      dup4\n      mstore\n      swap2\n      0x20\n      add\n      swap2\n      jump(tag_389)\n    tag_390:\n      dup3\n      add\n      swap2\n      swap1\n      0x00\n      mstore\n      keccak256(0x00, 0x20)\n      swap1\n    tag_391:\n      dup2\n      sload\n      dup2\n      mstore\n      swap1\n      0x01\n      add\n      swap1\n      0x20\n      add\n      dup1\n      dup4\n      gt\n      tag_391\n      jumpi\n      dup3\n      swap1\n      sub\n      0x1f\n      and\n      dup3\n      add\n      swap2\n    tag_389:\n      pop\n      pop\n      pop\n      pop\n      pop\n      swap1\n      dup1\n      0x04\n      add\n      0x00\n      swap1\n      sload\n      swap1\n      0x0100\n      exp\n      swap1\n      div\n      0xffffffffffffffffffffffffffffffffffffffff\n      and\n      swap1\n      dup1\n      0x04\n      add\n      0x14\n      swap1\n      sload\n      swap1\n      0x0100\n      exp\n      swap1\n      div\n      0xffffffffffffffff\n      and\n      swap1\n      dup1\n      0x05\n      add\n      dup1\n      sload\n      tag_392\n      swap1\n      tag_387\n      jump\t// in\n    tag_392:\n      dup1\n      0x1f\n      add\n      0x20\n      dup1\n      swap2\n      div\n      mul\n      0x20\n      add\n      mload(0x40)\n      swap1\n      dup2\n      add\n      0x40\n      mstore\n      dup1\n      swap3\n      swap2\n      swap1\n      dup2\n      dup2\n      mstore\n      0x20\n      add\n      dup3\n      dup1\n      sload\n      tag_393\n      swap1\n      tag_387\n      jump\t// in\n    tag_393:\n      dup1\n      iszero\n      tag_394\n      jumpi\n      dup1\n      0x1f\n      lt\n      tag_395\n      jumpi\n      0x0100\n      dup1\n      dup4\n      sload\n      div\n      mul\n      dup4\n      mstore\n      swap2\n      0x20\n      add\n      swap2\n      jump(tag_394)\n    tag_395:\n      dup3\n      add\n      swap2\n      swap1\n      0x00\n      mstore\n      keccak256(0x00, 0x20)\n      swap1\n    tag_396:\n      dup2\n      sload\n      dup2\n      mstore\n      swap1\n      0x01\n      add\n      swap1\n      0x20\n      add\n      dup1\n      dup4\n      gt\n      tag_396\n      jumpi\n      dup3\n      swap1\n      sub\n      0x1f\n      and\n      dup3\n      add\n      swap2\n    tag_394:\n      pop\n      pop\n      pop\n      pop\n      pop\n      swap1\n      pop\n      dup8\n      jump\t// out\n        /* \"contracts/AIOracle.sol\":9406:10341  function updateResult(uint256 requestId) external {... */\n    tag_139:\n        /* \"contracts/AIOracle.sol\":9503:9540  AICallbackRequestData storage request */\n      0x00\n        /* \"contracts/AIOracle.sol\":9543:9551  requests */\n      0x01\n        /* \"contracts/AIOracle.sol\":9543:9562  requests[requestId] */\n      0x00\n        /* \"contracts/AIOracle.sol\":9552:9561  requestId */\n      dup4\n        /* \"contracts/AIOracle.sol\":9543:9562  requests[requestId] */\n      dup2\n      mstore\n      0x20\n      add\n      swap1\n      dup2\n      mstore\n      0x20\n      add\n      0x00\n      keccak256\n        /* \"contracts/AIOracle.sol\":9503:9562  AICallbackRequestData storage request = requests[requestId] */\n      swap1\n      pop\n        /* \"contracts/AIOracle.sol\":9613:9632  bytes memory output */\n      0x00\n        /* \"contracts/AIOracle.sol\":9635:9639  opml */\n      0x07\n      0x00\n      swap1\n      sload\n      swap1\n      0x0100\n      exp\n      swap1\n      div\n      0xffffffffffffffffffffffffffffffffffffffff\n      and\n        /* \"contracts/AIOracle.sol\":9635:9649  opml.getOutput */\n      0xffffffffffffffffffffffffffffffffffffffff\n      and\n      0x17861f87\n        /* \"contracts/AIOracle.sol\":9650:9659  requestId */\n      dup5\n        /* \"contracts/AIOracle.sol\":9635:9660  opml.getOutput(requestId) */\n      mload(0x40)\n      dup3\n      0xffffffff\n      and\n      0xe0\n      shl\n      dup2\n      mstore\n      0x04\n      add\n      tag_398\n      swap2\n      swap1\n      tag_54\n      jump\t// in\n    tag_398:\n      0x00\n      mload(0x40)\n      dup1\n      dup4\n      sub\n      dup2\n      dup7\n      gas\n      staticcall\n      iszero\n      dup1\n      iszero\n      tag_400\n      jumpi\n      returndatasize\n      0x00\n      dup1\n      returndatacopy\n      revert(0x00, returndatasize)\n    tag_400:\n      pop\n      pop\n      pop\n      pop\n      mload(0x40)\n      returndatasize\n      0x00\n      dup3\n      returndatacopy\n      returndatasize\n      not(0x1f)\n      0x1f\n      dup3\n      add\n      and\n      dup3\n      add\n      dup1\n      0x40\n      mstore\n      pop\n      dup2\n      add\n      swap1\n      tag_401\n      swap2\n      swap1\n      tag_222\n      jump\t// in\n    tag_401:\n        /* \"contracts/AIOracle.sol\":9613:9660  bytes memory output = opml.getOutput(requestId) */\n      swap1\n      pop\n        /* \"contracts/AIOracle.sol\":9694:9695  0 */\n      0x00\n        /* \"contracts/AIOracle.sol\":9678:9684  output */\n      dup2\n        /* \"contracts/AIOracle.sol\":9678:9691  output.length */\n      mload\n        /* \"contracts/AIOracle.sol\":9678:9695  output.length > 0 */\n      gt\n        /* \"contracts/AIOracle.sol\":9670:9719  require(output.length > 0, \"output not uploaded\") */\n      tag_402\n      jumpi\n      mload(0x40)\n      0x08c379a000000000000000000000000000000000000000000000000000000000\n      dup2\n      mstore\n      0x04\n      add\n      tag_403\n      swap1\n      tag_404\n      jump\t// in\n    tag_403:\n      mload(0x40)\n      dup1\n      swap2\n      sub\n      swap1\n      revert\n    tag_402:\n        /* \"contracts/AIOracle.sol\":9796:9797  0 */\n      0x00\n        /* \"contracts/AIOracle.sol\":9760:9798  request.callbackContract != address(0) */\n      0xffffffffffffffffffffffffffffffffffffffff\n      and\n        /* \"contracts/AIOracle.sol\":9760:9767  request */\n      dup3\n        /* \"contracts/AIOracle.sol\":9760:9784  request.callbackContract */\n      0x04\n      add\n      0x00\n      swap1\n      sload\n      swap1\n      0x0100\n      exp\n      swap1\n      div\n      0xffffffffffffffffffffffffffffffffffffffff\n      and\n        /* \"contracts/AIOracle.sol\":9760:9798  request.callbackContract != address(0) */\n      0xffffffffffffffffffffffffffffffffffffffff\n      and\n      eq\n        /* \"contracts/AIOracle.sol\":9757:10255  if(request.callbackContract != address(0)) {... */\n      tag_405\n      jumpi\n        /* \"contracts/AIOracle.sol\":9814:9834  bytes memory payload */\n      0x00\n        /* \"contracts/AIOracle.sol\":319:329  0xb0347814 */\n      0xb0347814\n        /* \"contracts/AIOracle.sol\":9860:9884  callbackFunctionSelector */\n      0xe0\n      shl\n        /* \"contracts/AIOracle.sol\":9886:9893  request */\n      dup4\n        /* \"contracts/AIOracle.sol\":9886:9903  request.requestId */\n      0x01\n      add\n      sload\n        /* \"contracts/AIOracle.sol\":9905:9911  output */\n      dup4\n        /* \"contracts/AIOracle.sol\":9913:9920  request */\n      dup6\n        /* \"contracts/AIOracle.sol\":9913:9933  request.callbackData */\n      0x05\n      add\n        /* \"contracts/AIOracle.sol\":9837:9934  abi.encodeWithSelector(callbackFunctionSelector, request.requestId, output, request.callbackData) */\n      add(0x24, mload(0x40))\n      tag_406\n      swap4\n      swap3\n      swap2\n      swap1\n      tag_407\n      jump\t// in\n    tag_406:\n      mload(0x40)\n      0x20\n      dup2\n      dup4\n      sub\n      sub\n      dup2\n      mstore\n      swap1\n      0x40\n      mstore\n      swap1\n      not(0xffffffffffffffffffffffffffffffffffffffffffffffffffffffff)\n      and\n      0x20\n      dup3\n      add\n      dup1\n      mload\n      0xffffffffffffffffffffffffffffffffffffffffffffffffffffffff\n      dup4\n      dup2\n      dup4\n      and\n      or\n      dup4\n      mstore\n      pop\n      pop\n      pop\n      pop\n        /* \"contracts/AIOracle.sol\":9814:9934  bytes memory payload = abi.encodeWithSelector(callbackFunctionSelector, request.requestId, output, request.callbackData) */\n      swap1\n      pop\n        /* \"contracts/AIOracle.sol\":9949:9961  bool success */\n      0x00\n        /* \"contracts/AIOracle.sol\":9963:9980  bytes memory data */\n      dup1\n        /* \"contracts/AIOracle.sol\":9984:9991  request */\n      dup5\n        /* \"contracts/AIOracle.sol\":9984:10008  request.callbackContract */\n      0x04\n      add\n      0x00\n      swap1\n      sload\n      swap1\n      0x0100\n      exp\n      swap1\n      div\n      0xffffffffffffffffffffffffffffffffffffffff\n      and\n        /* \"contracts/AIOracle.sol\":9984:10013  request.callbackContract.call */\n      0xffffffffffffffffffffffffffffffffffffffff\n      and\n        /* \"contracts/AIOracle.sol\":10019:10026  request */\n      dup6\n        /* \"contracts/AIOracle.sol\":10019:10035  request.gasLimit */\n      0x04\n      add\n      0x14\n      swap1\n      sload\n      swap1\n      0x0100\n      exp\n      swap1\n      div\n      0xffffffffffffffff\n      and\n        /* \"contracts/AIOracle.sol\":9984:10045  request.callbackContract.call{gas: request.gasLimit}(payload) */\n      0xffffffffffffffff\n      and\n        /* \"contracts/AIOracle.sol\":10037:10044  payload */\n      dup5\n        /* \"contracts/AIOracle.sol\":9984:10045  request.callbackContract.call{gas: request.gasLimit}(payload) */\n      mload(0x40)\n      tag_408\n      swap2\n      swap1\n      tag_290\n      jump\t// in\n    tag_408:\n      0x00\n      mload(0x40)\n      dup1\n      dup4\n      sub\n      dup2\n      0x00\n      dup8\n      dup8\n      call\n      swap3\n      pop\n      pop\n      pop\n      returndatasize\n      dup1\n      0x00\n      dup2\n      eq\n      tag_411\n      jumpi\n      mload(0x40)\n      swap2\n      pop\n      and(add(returndatasize, 0x3f), not(0x1f))\n      dup3\n      add\n      0x40\n      mstore\n      returndatasize\n      dup3\n      mstore\n      returndatasize\n      0x00\n      0x20\n      dup5\n      add\n      returndatacopy\n      jump(tag_410)\n    tag_411:\n      0x60\n      swap2\n      pop\n    tag_410:\n      pop\n        /* \"contracts/AIOracle.sol\":9948:10045  (bool success, bytes memory data) = request.callbackContract.call{gas: request.gasLimit}(payload) */\n      swap2\n      pop\n      swap2\n      pop\n        /* \"contracts/AIOracle.sol\":10067:10074  success */\n      dup2\n        /* \"contracts/AIOracle.sol\":10059:10102  require(success, \"failed to call selector\") */\n      tag_412\n      jumpi\n      mload(0x40)\n      0x08c379a000000000000000000000000000000000000000000000000000000000\n      dup2\n      mstore\n      0x04\n      add\n      tag_413\n      swap1\n      tag_296\n      jump\t// in\n    tag_413:\n      mload(0x40)\n      dup1\n      swap2\n      sub\n      swap1\n      revert\n    tag_412:\n        /* \"contracts/AIOracle.sol\":10121:10128  success */\n      dup2\n        /* \"contracts/AIOracle.sol\":10116:10245  if (!success) {... */\n      tag_414\n      jumpi\n        /* \"contracts/AIOracle.sol\":10207:10211  data */\n      dup1\n        /* \"contracts/AIOracle.sol\":10201:10212  mload(data) */\n      mload\n        /* \"contracts/AIOracle.sol\":10196:10198  32 */\n      0x20\n        /* \"contracts/AIOracle.sol\":10190:10194  data */\n      dup3\n        /* \"contracts/AIOracle.sol\":10186:10199  add(data, 32) */\n      add\n        /* \"contracts/AIOracle.sol\":10179:10213  revert(add(data, 32), mload(data)) */\n      revert\n        /* \"contracts/AIOracle.sol\":10116:10245  if (!success) {... */\n    tag_414:\n        /* \"contracts/AIOracle.sol\":9800:10255  {... */\n      pop\n      pop\n      pop\n        /* \"contracts/AIOracle.sol\":9757:10255  if(request.callbackContract != address(0)) {... */\n    tag_405:\n        /* \"contracts/AIOracle.sol\":10304:10313  requestId */\n      dup3\n        /* \"contracts/AIOracle.sol\":10287:10294  request */\n      dup3\n        /* \"contracts/AIOracle.sol\":10287:10302  request.account */\n      0x00\n      add\n      0x00\n      swap1\n      sload\n      swap1\n      0x0100\n      exp\n      swap1\n      div\n      0xffffffffffffffffffffffffffffffffffffffff\n      and\n        /* \"contracts/AIOracle.sol\":10270:10334  AICallbackResult(request.account, requestId, msg.sender, output) */\n      0xffffffffffffffffffffffffffffffffffffffff\n      and\n      0xb7b413554c4e94c80cfbb175a0e4727f2f425d29b980195c49dac293c2914fc0\n        /* \"contracts/AIOracle.sol\":10315:10325  msg.sender */\n      caller\n        /* \"contracts/AIOracle.sol\":10327:10333  output */\n      dup5\n        /* \"contracts/AIOracle.sol\":10270:10334  AICallbackResult(request.account, requestId, msg.sender, output) */\n      mload(0x40)\n      tag_415\n      swap3\n      swap2\n      swap1\n      tag_416\n      jump\t// in\n    tag_415:\n      mload(0x40)\n      dup1\n      swap2\n      sub\n      swap1\n      log3\n        /* \"contracts/AIOracle.sol\":9456:10341  {... */\n      pop\n      pop\n        /* \"contracts/AIOracle.sol\":9406:10341  function updateResult(uint256 requestId) external {... */\n      pop\n      jump\t// out\n        /* \"contracts/AIOracle.sol\":1604:1714  function removeFromWhitelist(address _address) external onlyOwner {... */\n    tag_143:\n        /* \"contracts/AIOracle.sol\":389:394  owner */\n      0x08\n      0x00\n      swap1\n      sload\n      swap1\n      0x0100\n      exp\n      swap1\n      div\n      0xffffffffffffffffffffffffffffffffffffffff\n      and\n        /* \"contracts/AIOracle.sol\":375:394  msg.sender == owner */\n      0xffffffffffffffffffffffffffffffffffffffff\n      and\n        /* \"contracts/AIOracle.sol\":375:385  msg.sender */\n      caller\n        /* \"contracts/AIOracle.sol\":375:394  msg.sender == owner */\n      0xffffffffffffffffffffffffffffffffffffffff\n      and\n      eq\n        /* \"contracts/AIOracle.sol\":367:412  require(msg.sender == owner, \"Not the owner\") */\n      tag_418\n      jumpi\n      mload(0x40)\n      0x08c379a000000000000000000000000000000000000000000000000000000000\n      dup2\n      mstore\n      0x04\n      add\n      tag_419\n      swap1\n      tag_203\n      jump\t// in\n    tag_419:\n      mload(0x40)\n      dup1\n      swap2\n      sub\n      swap1\n      revert\n    tag_418:\n        /* \"contracts/AIOracle.sol\":1702:1707  false */\n      0x00\n        /* \"contracts/AIOracle.sol\":1680:1689  whitelist */\n      0x09\n        /* \"contracts/AIOracle.sol\":1680:1699  whitelist[_address] */\n      0x00\n        /* \"contracts/AIOracle.sol\":1690:1698  _address */\n      dup4\n        /* \"contracts/AIOracle.sol\":1680:1699  whitelist[_address] */\n      0xffffffffffffffffffffffffffffffffffffffff\n      and\n      0xffffffffffffffffffffffffffffffffffffffff\n      and\n      dup2\n      mstore\n      0x20\n      add\n      swap1\n      dup2\n      mstore\n      0x20\n      add\n      0x00\n      keccak256\n      0x00\n        /* \"contracts/AIOracle.sol\":1680:1707  whitelist[_address] = false */\n      0x0100\n      exp\n      dup2\n      sload\n      dup2\n      0xff\n      mul\n      not\n      and\n      swap1\n      dup4\n      iszero\n      iszero\n      mul\n      or\n      swap1\n      sstore\n      pop\n        /* \"contracts/AIOracle.sol\":1604:1714  function removeFromWhitelist(address _address) external onlyOwner {... */\n      pop\n      jump\t// out\n        /* \"contracts/AIOracle.sol\":1250:1270  address public owner */\n    tag_146:\n      0x08\n      0x00\n      swap1\n      sload\n      swap1\n      0x0100\n      exp\n      swap1\n      div\n      0xffffffffffffffffffffffffffffffffffffffff\n      and\n      dup2\n      jump\t// out\n        /* \"contracts/AIOracle.sol\":1227:1244  IOpml public opml */\n    tag_151:\n      0x07\n      0x00\n      swap1\n      sload\n      swap1\n      0x0100\n      exp\n      swap1\n      div\n      0xffffffffffffffffffffffffffffffffffffffff\n      and\n      dup2\n      jump\t// out\n        /* \"contracts/AIOracle.sol\":1277:1318  mapping(address => bool) public whitelist */\n    tag_157:\n      mstore(0x20, 0x09)\n      dup1\n      0x00\n      mstore\n      keccak256(0x00, 0x40)\n      0x00\n      swap2\n      pop\n      sload\n      swap1\n      0x0100\n      exp\n      swap1\n      div\n      0xff\n      and\n      dup2\n      jump\t// out\n        /* \"contracts/AIOracle.sol\":2643:2719  function resetModelIDs() external onlyOwner {... */\n    tag_161:\n        /* \"contracts/AIOracle.sol\":389:394  owner */\n      0x08\n      0x00\n      swap1\n      sload\n      swap1\n      0x0100\n      exp\n      swap1\n      div\n      0xffffffffffffffffffffffffffffffffffffffff\n      and\n        /* \"contracts/AIOracle.sol\":375:394  msg.sender == owner */\n      0xffffffffffffffffffffffffffffffffffffffff\n      and\n        /* \"contracts/AIOracle.sol\":375:385  msg.sender */\n      caller\n        /* \"contracts/AIOracle.sol\":375:394  msg.sender == owner */\n      0xffffffffffffffffffffffffffffffffffffffff\n      and\n      eq\n        /* \"contracts/AIOracle.sol\":367:412  require(msg.sender == owner, \"Not the owner\") */\n      tag_422\n      jumpi\n      mload(0x40)\n      0x08c379a000000000000000000000000000000000000000000000000000000000\n      dup2\n      mstore\n      0x04\n      add\n      tag_423\n      swap1\n      tag_203\n      jump\t// in\n    tag_423:\n      mload(0x40)\n      dup1\n      swap2\n      sub\n      swap1\n      revert\n    tag_422:\n        /* \"contracts/AIOracle.sol\":2704:2712  modelIDs */\n      0x06\n      0x00\n        /* \"contracts/AIOracle.sol\":2697:2712  delete modelIDs */\n      tag_425\n      swap2\n      swap1\n      tag_426\n      jump\t// in\n    tag_425:\n        /* \"contracts/AIOracle.sol\":2643:2719  function resetModelIDs() external onlyOwner {... */\n      jump\t// out\n        /* \"contracts/AIOracle.sol\":821:869  mapping(uint256 => bytes) public outputOfRequest */\n    tag_165:\n      mstore(0x20, 0x02)\n      dup1\n      0x00\n      mstore\n      keccak256(0x00, 0x40)\n      0x00\n      swap2\n      pop\n      swap1\n      pop\n      dup1\n      sload\n      tag_427\n      swap1\n      tag_387\n      jump\t// in\n    tag_427:\n      dup1\n      0x1f\n      add\n      0x20\n      dup1\n      swap2\n      div\n      mul\n      0x20\n      add\n      mload(0x40)\n      swap1\n      dup2\n      add\n      0x40\n      mstore\n      dup1\n      swap3\n      swap2\n      swap1\n      dup2\n      dup2\n      mstore\n      0x20\n      add\n      dup3\n      dup1\n      sload\n      tag_428\n      swap1\n      tag_387\n      jump\t// in\n    tag_428:\n      dup1\n      iszero\n      tag_429\n      jumpi\n      dup1\n      0x1f\n      lt\n      tag_430\n      jumpi\n      0x0100\n      dup1\n      dup4\n      sload\n      div\n      mul\n      dup4\n      mstore\n      swap2\n      0x20\n      add\n      swap2\n      jump(tag_429)\n    tag_430:\n      dup3\n      add\n      swap2\n      swap1\n      0x00\n      mstore\n      keccak256(0x00, 0x20)\n      swap1\n    tag_431:\n      dup2\n      sload\n      dup2\n      mstore\n      swap1\n      0x01\n      add\n      swap1\n      0x20\n      add\n      dup1\n      dup4\n      gt\n      tag_431\n      jumpi\n      dup3\n      swap1\n      sub\n      0x1f\n      and\n      dup3\n      add\n      swap2\n    tag_429:\n      pop\n      pop\n      pop\n      pop\n      pop\n      dup2\n      jump\t// out\n        /* \"contracts/AIOracle.sol\":5584:6249  function uploadModel(uint256 modelId, bytes32 modelHash, bytes32 programHash, uint256 fee, address receiver, uint256 receiverPercentage) external onlyOwner {... */\n    tag_170:\n        /* \"contracts/AIOracle.sol\":389:394  owner */\n      0x08\n      0x00\n      swap1\n      sload\n      swap1\n      0x0100\n      exp\n      swap1\n      div\n      0xffffffffffffffffffffffffffffffffffffffff\n      and\n        /* \"contracts/AIOracle.sol\":375:394  msg.sender == owner */\n      0xffffffffffffffffffffffffffffffffffffffff\n      and\n        /* \"contracts/AIOracle.sol\":375:385  msg.sender */\n      caller\n        /* \"contracts/AIOracle.sol\":375:394  msg.sender == owner */\n      0xffffffffffffffffffffffffffffffffffffffff\n      and\n      eq\n        /* \"contracts/AIOracle.sol\":367:412  require(msg.sender == owner, \"Not the owner\") */\n      tag_433\n      jumpi\n      mload(0x40)\n      0x08c379a000000000000000000000000000000000000000000000000000000000\n      dup2\n      mstore\n      0x04\n      add\n      tag_434\n      swap1\n      tag_203\n      jump\t// in\n    tag_434:\n      mload(0x40)\n      dup1\n      swap2\n      sub\n      swap1\n      revert\n    tag_433:\n        /* \"contracts/AIOracle.sol\":5759:5770  modelExists */\n      0x04\n        /* \"contracts/AIOracle.sol\":5759:5779  modelExists[modelId] */\n      0x00\n        /* \"contracts/AIOracle.sol\":5771:5778  modelId */\n      dup8\n        /* \"contracts/AIOracle.sol\":5759:5779  modelExists[modelId] */\n      dup2\n      mstore\n      0x20\n      add\n      swap1\n      dup2\n      mstore\n      0x20\n      add\n      0x00\n      keccak256\n      0x00\n      swap1\n      sload\n      swap1\n      0x0100\n      exp\n      swap1\n      div\n      0xff\n      and\n        /* \"contracts/AIOracle.sol\":5758:5779  !modelExists[modelId] */\n      iszero\n        /* \"contracts/AIOracle.sol\":5750:5804  require(!modelExists[modelId], \"model already exists\") */\n      tag_436\n      jumpi\n      mload(0x40)\n      0x08c379a000000000000000000000000000000000000000000000000000000000\n      dup2\n      mstore\n      0x04\n      add\n      tag_437\n      swap1\n      tag_438\n      jump\t// in\n    tag_437:\n      mload(0x40)\n      dup1\n      swap2\n      sub\n      swap1\n      revert\n    tag_436:\n        /* \"contracts/AIOracle.sol\":5844:5847  100 */\n      0x64\n        /* \"contracts/AIOracle.sol\":5822:5840  receiverPercentage */\n      dup2\n        /* \"contracts/AIOracle.sol\":5822:5847  receiverPercentage <= 100 */\n      gt\n      iszero\n        /* \"contracts/AIOracle.sol\":5814:5879  require(receiverPercentage <= 100, \"percentage should be <= 100\") */\n      tag_439\n      jumpi\n      mload(0x40)\n      0x08c379a000000000000000000000000000000000000000000000000000000000\n      dup2\n      mstore\n      0x04\n      add\n      tag_440\n      swap1\n      tag_270\n      jump\t// in\n    tag_440:\n      mload(0x40)\n      dup1\n      swap2\n      sub\n      swap1\n      revert\n    tag_439:\n        /* \"contracts/AIOracle.sol\":5912:5916  true */\n      0x01\n        /* \"contracts/AIOracle.sol\":5889:5900  modelExists */\n      0x04\n        /* \"contracts/AIOracle.sol\":5889:5909  modelExists[modelId] */\n      0x00\n        /* \"contracts/AIOracle.sol\":5901:5908  modelId */\n      dup9\n        /* \"contracts/AIOracle.sol\":5889:5909  modelExists[modelId] */\n      dup2\n      mstore\n      0x20\n      add\n      swap1\n      dup2\n      mstore\n      0x20\n      add\n      0x00\n      keccak256\n      0x00\n        /* \"contracts/AIOracle.sol\":5889:5916  modelExists[modelId] = true */\n      0x0100\n      exp\n      dup2\n      sload\n      dup2\n      0xff\n      mul\n      not\n      and\n      swap1\n      dup4\n      iszero\n      iszero\n      mul\n      or\n      swap1\n      sstore\n      pop\n        /* \"contracts/AIOracle.sol\":5926:5934  modelIDs */\n      0x06\n        /* \"contracts/AIOracle.sol\":5940:5947  modelId */\n      dup7\n        /* \"contracts/AIOracle.sol\":5926:5948  modelIDs.push(modelId) */\n      swap1\n      dup1\n      0x01\n      dup2\n      sload\n      add\n      dup1\n      dup3\n      sstore\n      dup1\n      swap2\n      pop\n      pop\n      0x01\n      swap1\n      sub\n      swap1\n      0x00\n      mstore\n      keccak256(0x00, 0x20)\n      add\n      0x00\n      swap1\n      swap2\n      swap1\n      swap2\n      swap1\n      swap2\n      pop\n      sstore\n        /* \"contracts/AIOracle.sol\":5958:5981  ModelData storage model */\n      0x00\n        /* \"contracts/AIOracle.sol\":5984:5990  models */\n      0x03\n        /* \"contracts/AIOracle.sol\":5984:5999  models[modelId] */\n      0x00\n        /* \"contracts/AIOracle.sol\":5991:5998  modelId */\n      dup9\n        /* \"contracts/AIOracle.sol\":5984:5999  models[modelId] */\n      dup2\n      mstore\n      0x20\n      add\n      swap1\n      dup2\n      mstore\n      0x20\n      add\n      0x00\n      keccak256\n        /* \"contracts/AIOracle.sol\":5958:5999  ModelData storage model = models[modelId] */\n      swap1\n      pop\n        /* \"contracts/AIOracle.sol\":6027:6036  modelHash */\n      dup6\n        /* \"contracts/AIOracle.sol\":6009:6014  model */\n      dup2\n        /* \"contracts/AIOracle.sol\":6009:6024  model.modelHash */\n      0x00\n      add\n        /* \"contracts/AIOracle.sol\":6009:6036  model.modelHash = modelHash */\n      dup2\n      swap1\n      sstore\n      pop\n        /* \"contracts/AIOracle.sol\":6066:6077  programHash */\n      dup5\n        /* \"contracts/AIOracle.sol\":6046:6051  model */\n      dup2\n        /* \"contracts/AIOracle.sol\":6046:6063  model.programHash */\n      0x01\n      add\n        /* \"contracts/AIOracle.sol\":6046:6077  model.programHash = programHash */\n      dup2\n      swap1\n      sstore\n      pop\n        /* \"contracts/AIOracle.sol\":6099:6102  fee */\n      dup4\n        /* \"contracts/AIOracle.sol\":6087:6092  model */\n      dup2\n        /* \"contracts/AIOracle.sol\":6087:6096  model.fee */\n      0x02\n      add\n        /* \"contracts/AIOracle.sol\":6087:6102  model.fee = fee */\n      dup2\n      swap1\n      sstore\n      pop\n        /* \"contracts/AIOracle.sol\":6129:6137  receiver */\n      dup3\n        /* \"contracts/AIOracle.sol\":6112:6117  model */\n      dup2\n        /* \"contracts/AIOracle.sol\":6112:6126  model.receiver */\n      0x03\n      add\n      0x00\n        /* \"contracts/AIOracle.sol\":6112:6137  model.receiver = receiver */\n      0x0100\n      exp\n      dup2\n      sload\n      dup2\n      0xffffffffffffffffffffffffffffffffffffffff\n      mul\n      not\n      and\n      swap1\n      dup4\n      0xffffffffffffffffffffffffffffffffffffffff\n      and\n      mul\n      or\n      swap1\n      sstore\n      pop\n        /* \"contracts/AIOracle.sol\":6174:6192  receiverPercentage */\n      dup2\n        /* \"contracts/AIOracle.sol\":6147:6152  model */\n      dup2\n        /* \"contracts/AIOracle.sol\":6147:6171  model.receiverPercentage */\n      0x04\n      add\n        /* \"contracts/AIOracle.sol\":6147:6192  model.receiverPercentage = receiverPercentage */\n      dup2\n      swap1\n      sstore\n      pop\n        /* \"contracts/AIOracle.sol\":6202:6206  opml */\n      0x07\n      0x00\n      swap1\n      sload\n      swap1\n      0x0100\n      exp\n      swap1\n      div\n      0xffffffffffffffffffffffffffffffffffffffff\n      and\n        /* \"contracts/AIOracle.sol\":6202:6218  opml.uploadModel */\n      0xffffffffffffffffffffffffffffffffffffffff\n      and\n      0x5c3d1519\n        /* \"contracts/AIOracle.sol\":6219:6228  modelHash */\n      dup8\n        /* \"contracts/AIOracle.sol\":6230:6241  programHash */\n      dup8\n        /* \"contracts/AIOracle.sol\":6202:6242  opml.uploadModel(modelHash, programHash) */\n      mload(0x40)\n      dup4\n      0xffffffff\n      and\n      0xe0\n      shl\n      dup2\n      mstore\n      0x04\n      add\n      tag_442\n      swap3\n      swap2\n      swap1\n      tag_272\n      jump\t// in\n    tag_442:\n      0x00\n      mload(0x40)\n      dup1\n      dup4\n      sub\n      dup2\n      0x00\n      dup8\n      dup1\n      extcodesize\n      iszero\n      dup1\n      iszero\n      tag_443\n      jumpi\n      0x00\n      dup1\n      revert\n    tag_443:\n      pop\n      gas\n      call\n      iszero\n      dup1\n      iszero\n      tag_445\n      jumpi\n      returndatasize\n      0x00\n      dup1\n      returndatacopy\n      revert(0x00, returndatasize)\n    tag_445:\n      pop\n      pop\n      pop\n      pop\n        /* \"contracts/AIOracle.sol\":5740:6249  {... */\n      pop\n        /* \"contracts/AIOracle.sol\":5584:6249  function uploadModel(uint256 modelId, bytes32 modelHash, bytes32 programHash, uint256 fee, address receiver, uint256 receiverPercentage) external onlyOwner {... */\n      pop\n      pop\n      pop\n      pop\n      pop\n      pop\n      jump\t// out\n        /* \"contracts/AIOracle.sol\":1494:1598  function addToWhitelist(address _address) external onlyOwner {... */\n    tag_174:\n        /* \"contracts/AIOracle.sol\":389:394  owner */\n      0x08\n      0x00\n      swap1\n      sload\n      swap1\n      0x0100\n      exp\n      swap1\n      div\n      0xffffffffffffffffffffffffffffffffffffffff\n      and\n        /* \"contracts/AIOracle.sol\":375:394  msg.sender == owner */\n      0xffffffffffffffffffffffffffffffffffffffff\n      and\n        /* \"contracts/AIOracle.sol\":375:385  msg.sender */\n      caller\n        /* \"contracts/AIOracle.sol\":375:394  msg.sender == owner */\n      0xffffffffffffffffffffffffffffffffffffffff\n      and\n      eq\n        /* \"contracts/AIOracle.sol\":367:412  require(msg.sender == owner, \"Not the owner\") */\n      tag_447\n      jumpi\n      mload(0x40)\n      0x08c379a000000000000000000000000000000000000000000000000000000000\n      dup2\n      mstore\n      0x04\n      add\n      tag_448\n      swap1\n      tag_203\n      jump\t// in\n    tag_448:\n      mload(0x40)\n      dup1\n      swap2\n      sub\n      swap1\n      revert\n    tag_447:\n        /* \"contracts/AIOracle.sol\":1587:1591  true */\n      0x01\n        /* \"contracts/AIOracle.sol\":1565:1574  whitelist */\n      0x09\n        /* \"contracts/AIOracle.sol\":1565:1584  whitelist[_address] */\n      0x00\n        /* \"contracts/AIOracle.sol\":1575:1583  _address */\n      dup4\n        /* \"contracts/AIOracle.sol\":1565:1584  whitelist[_address] */\n      0xffffffffffffffffffffffffffffffffffffffff\n      and\n      0xffffffffffffffffffffffffffffffffffffffff\n      and\n      dup2\n      mstore\n      0x20\n      add\n      swap1\n      dup2\n      mstore\n      0x20\n      add\n      0x00\n      keccak256\n      0x00\n        /* \"contracts/AIOracle.sol\":1565:1591  whitelist[_address] = true */\n      0x0100\n      exp\n      dup2\n      sload\n      dup2\n      0xff\n      mul\n      not\n      and\n      swap1\n      dup4\n      iszero\n      iszero\n      mul\n      or\n      swap1\n      sstore\n      pop\n        /* \"contracts/AIOracle.sol\":1494:1598  function addToWhitelist(address _address) external onlyOwner {... */\n      pop\n      jump\t// out\n        /* \"contracts/AIOracle.sol\":2725:2822  function numberOfModels() external view returns (uint256) {... */\n    tag_177:\n        /* \"contracts/AIOracle.sol\":2774:2781  uint256 */\n      0x00\n        /* \"contracts/AIOracle.sol\":2800:2808  modelIDs */\n      0x06\n        /* \"contracts/AIOracle.sol\":2800:2815  modelIDs.length */\n      dup1\n      sload\n      swap1\n      pop\n        /* \"contracts/AIOracle.sol\":2793:2815  return modelIDs.length */\n      swap1\n      pop\n        /* \"contracts/AIOracle.sol\":2725:2822  function numberOfModels() external view returns (uint256) {... */\n      swap1\n      jump\t// out\n        /* \"contracts/AIOracle.sol\":4379:4470  function setOpml(address newOpml) external onlyOwner {... */\n    tag_182:\n        /* \"contracts/AIOracle.sol\":389:394  owner */\n      0x08\n      0x00\n      swap1\n      sload\n      swap1\n      0x0100\n      exp\n      swap1\n      div\n      0xffffffffffffffffffffffffffffffffffffffff\n      and\n        /* \"contracts/AIOracle.sol\":375:394  msg.sender == owner */\n      0xffffffffffffffffffffffffffffffffffffffff\n      and\n        /* \"contracts/AIOracle.sol\":375:385  msg.sender */\n      caller\n        /* \"contracts/AIOracle.sol\":375:394  msg.sender == owner */\n      0xffffffffffffffffffffffffffffffffffffffff\n      and\n      eq\n        /* \"contracts/AIOracle.sol\":367:412  require(msg.sender == owner, \"Not the owner\") */\n      tag_452\n      jumpi\n      mload(0x40)\n      0x08c379a000000000000000000000000000000000000000000000000000000000\n      dup2\n      mstore\n      0x04\n      add\n      tag_453\n      swap1\n      tag_203\n      jump\t// in\n    tag_453:\n      mload(0x40)\n      dup1\n      swap2\n      sub\n      swap1\n      revert\n    tag_452:\n        /* \"contracts/AIOracle.sol\":4455:4462  newOpml */\n      dup1\n        /* \"contracts/AIOracle.sol\":4442:4446  opml */\n      0x07\n      0x00\n        /* \"contracts/AIOracle.sol\":4442:4463  opml = IOpml(newOpml) */\n      0x0100\n      exp\n      dup2\n      sload\n      dup2\n      0xffffffffffffffffffffffffffffffffffffffff\n      mul\n      not\n      and\n      swap1\n      dup4\n      0xffffffffffffffffffffffffffffffffffffffff\n      and\n      mul\n      or\n      swap1\n      sstore\n      pop\n        /* \"contracts/AIOracle.sol\":4379:4470  function setOpml(address newOpml) external onlyOwner {... */\n      pop\n      jump\t// out\n        /* \"contracts/AIOracle.sol\":1720:1998  function transferOwnership(address newOwner) public {... */\n    tag_186:\n        /* \"contracts/AIOracle.sol\":1802:1803  0 */\n      0x00\n        /* \"contracts/AIOracle.sol\":1785:1804  owner == address(0) */\n      0xffffffffffffffffffffffffffffffffffffffff\n      and\n        /* \"contracts/AIOracle.sol\":1785:1790  owner */\n      0x08\n      0x00\n      swap1\n      sload\n      swap1\n      0x0100\n      exp\n      swap1\n      div\n      0xffffffffffffffffffffffffffffffffffffffff\n      and\n        /* \"contracts/AIOracle.sol\":1785:1804  owner == address(0) */\n      0xffffffffffffffffffffffffffffffffffffffff\n      and\n      sub\n        /* \"contracts/AIOracle.sol\":1782:1966  if(owner == address(0)) {... */\n      tag_456\n      jumpi\n        /* \"contracts/AIOracle.sol\":221:263  0xf5aeB5A4B35be7Af7dBfDb765F99bCF479c917BD */\n      0xf5aeb5a4b35be7af7dbfdb765f99bcf479c917bd\n        /* \"contracts/AIOracle.sol\":1828:1848  msg.sender == server */\n      0xffffffffffffffffffffffffffffffffffffffff\n      and\n        /* \"contracts/AIOracle.sol\":1828:1838  msg.sender */\n      caller\n        /* \"contracts/AIOracle.sol\":1828:1848  msg.sender == server */\n      0xffffffffffffffffffffffffffffffffffffffff\n      and\n      eq\n        /* \"contracts/AIOracle.sol\":1820:1879  require(msg.sender == server, \"only server can init owner\") */\n      tag_457\n      jumpi\n      mload(0x40)\n      0x08c379a000000000000000000000000000000000000000000000000000000000\n      dup2\n      mstore\n      0x04\n      add\n      tag_458\n      swap1\n      tag_459\n      jump\t// in\n    tag_458:\n      mload(0x40)\n      dup1\n      swap2\n      sub\n      swap1\n      revert\n    tag_457:\n        /* \"contracts/AIOracle.sol\":1782:1966  if(owner == address(0)) {... */\n      jump(tag_460)\n    tag_456:\n        /* \"contracts/AIOracle.sol\":1932:1937  owner */\n      0x08\n      0x00\n      swap1\n      sload\n      swap1\n      0x0100\n      exp\n      swap1\n      div\n      0xffffffffffffffffffffffffffffffffffffffff\n      and\n        /* \"contracts/AIOracle.sol\":1918:1937  msg.sender == owner */\n      0xffffffffffffffffffffffffffffffffffffffff\n      and\n        /* \"contracts/AIOracle.sol\":1918:1928  msg.sender */\n      caller\n        /* \"contracts/AIOracle.sol\":1918:1937  msg.sender == owner */\n      0xffffffffffffffffffffffffffffffffffffffff\n      and\n      eq\n        /* \"contracts/AIOracle.sol\":1910:1955  require(msg.sender == owner, \"Not the owner\") */\n      tag_461\n      jumpi\n      mload(0x40)\n      0x08c379a000000000000000000000000000000000000000000000000000000000\n      dup2\n      mstore\n      0x04\n      add\n      tag_462\n      swap1\n      tag_203\n      jump\t// in\n    tag_462:\n      mload(0x40)\n      dup1\n      swap2\n      sub\n      swap1\n      revert\n    tag_461:\n        /* \"contracts/AIOracle.sol\":1782:1966  if(owner == address(0)) {... */\n    tag_460:\n        /* \"contracts/AIOracle.sol\":1983:1991  newOwner */\n      dup1\n        /* \"contracts/AIOracle.sol\":1975:1980  owner */\n      0x08\n      0x00\n        /* \"contracts/AIOracle.sol\":1975:1991  owner = newOwner */\n      0x0100\n      exp\n      dup2\n      sload\n      dup2\n      0xffffffffffffffffffffffffffffffffffffffff\n      mul\n      not\n      and\n      swap1\n      dup4\n      0xffffffffffffffffffffffffffffffffffffffff\n      and\n      mul\n      or\n      swap1\n      sstore\n      pop\n        /* \"contracts/AIOracle.sol\":1720:1998  function transferOwnership(address newOwner) public {... */\n      pop\n      jump\t// out\n        /* \"contracts/AIOracle.sol\":484:525  mapping(address => bool) public blacklist */\n    tag_190:\n      mstore(0x20, 0x00)\n      dup1\n      0x00\n      mstore\n      keccak256(0x00, 0x40)\n      0x00\n      swap2\n      pop\n      sload\n      swap1\n      0x0100\n      exp\n      swap1\n      div\n      0xff\n      and\n      dup2\n      jump\t// out\n        /* \"contracts/AIOracle.sol\":188:263  address constant public server = 0xf5aeB5A4B35be7Af7dBfDb765F99bCF479c917BD */\n    tag_194:\n        /* \"contracts/AIOracle.sol\":221:263  0xf5aeB5A4B35be7Af7dBfDb765F99bCF479c917BD */\n      0xf5aeb5a4b35be7af7dbfdb765f99bcf479c917bd\n        /* \"contracts/AIOracle.sol\":188:263  address constant public server = 0xf5aeB5A4B35be7Af7dBfDb765F99bCF479c917BD */\n      dup2\n      jump\t// out\n        /* \"contracts/AIOracle.sol\":1167:1190  uint256 public gasPrice */\n    tag_198:\n      sload(0x05)\n      dup2\n      jump\t// out\n        /* \"contracts/AIOracle.sol\":6967:7580  function _validateParams(... */\n    tag_316:\n        /* \"contracts/AIOracle.sol\":7135:7142  modelId */\n      dup4\n        /* \"contracts/AIOracle.sol\":2425:2436  modelExists */\n      0x04\n        /* \"contracts/AIOracle.sol\":2425:2445  modelExists[modelId] */\n      0x00\n        /* \"contracts/AIOracle.sol\":2437:2444  modelId */\n      dup3\n        /* \"contracts/AIOracle.sol\":2425:2445  modelExists[modelId] */\n      dup2\n      mstore\n      0x20\n      add\n      swap1\n      dup2\n      mstore\n      0x20\n      add\n      0x00\n      keccak256\n      0x00\n      swap1\n      sload\n      swap1\n      0x0100\n      exp\n      swap1\n      div\n      0xff\n      and\n        /* \"contracts/AIOracle.sol\":2417:2470  require(modelExists[modelId], \"model does not exist\") */\n      tag_464\n      jumpi\n      mload(0x40)\n      0x08c379a000000000000000000000000000000000000000000000000000000000\n      dup2\n      mstore\n      0x04\n      add\n      tag_465\n      swap1\n      tag_207\n      jump\t// in\n    tag_465:\n      mload(0x40)\n      dup1\n      swap2\n      sub\n      swap1\n      revert\n    tag_464:\n        /* \"contracts/AIOracle.sol\":7159:7175  callbackContract */\n      dup3\n        /* \"contracts/AIOracle.sol\":2299:2308  blacklist */\n      0x00\n        /* \"contracts/AIOracle.sol\":2299:2326  blacklist[callbackContract] */\n      dup1\n        /* \"contracts/AIOracle.sol\":2309:2325  callbackContract */\n      dup3\n        /* \"contracts/AIOracle.sol\":2299:2326  blacklist[callbackContract] */\n      0xffffffffffffffffffffffffffffffffffffffff\n      and\n      0xffffffffffffffffffffffffffffffffffffffff\n      and\n      dup2\n      mstore\n      0x20\n      add\n      swap1\n      dup2\n      mstore\n      0x20\n      add\n      0x00\n      keccak256\n      0x00\n      swap1\n      sload\n      swap1\n      0x0100\n      exp\n      swap1\n      div\n      0xff\n      and\n        /* \"contracts/AIOracle.sol\":2298:2326  !blacklist[callbackContract] */\n      iszero\n        /* \"contracts/AIOracle.sol\":2290:2343  require(!blacklist[callbackContract], \"In blacklist\") */\n      tag_467\n      jumpi\n      mload(0x40)\n      0x08c379a000000000000000000000000000000000000000000000000000000000\n      dup2\n      mstore\n      0x04\n      add\n      tag_468\n      swap1\n      tag_469\n      jump\t// in\n    tag_468:\n      mload(0x40)\n      dup1\n      swap2\n      sub\n      swap1\n      revert\n    tag_467:\n        /* \"contracts/AIOracle.sol\":7187:7210  ModelData storage model */\n      0x00\n        /* \"contracts/AIOracle.sol\":7213:7219  models */\n      0x03\n        /* \"contracts/AIOracle.sol\":7213:7228  models[modelId] */\n      0x00\n        /* \"contracts/AIOracle.sol\":7220:7227  modelId */\n      dup9\n        /* \"contracts/AIOracle.sol\":7213:7228  models[modelId] */\n      dup2\n      mstore\n      0x20\n      add\n      swap1\n      dup2\n      mstore\n      0x20\n      add\n      0x00\n      keccak256\n        /* \"contracts/AIOracle.sol\":7187:7228  ModelData storage model = models[modelId] */\n      swap1\n      pop\n        /* \"contracts/AIOracle.sol\":7282:7290  gasLimit */\n      dup4\n        /* \"contracts/AIOracle.sol\":7271:7290  gasPrice * gasLimit */\n      0xffffffffffffffff\n      and\n        /* \"contracts/AIOracle.sol\":7271:7279  gasPrice */\n      sload(0x05)\n        /* \"contracts/AIOracle.sol\":7271:7290  gasPrice * gasLimit */\n      tag_471\n      swap2\n      swap1\n      tag_214\n      jump\t// in\n    tag_471:\n        /* \"contracts/AIOracle.sol\":7259:7264  model */\n      dup2\n        /* \"contracts/AIOracle.sol\":7259:7268  model.fee */\n      0x02\n      add\n      sload\n        /* \"contracts/AIOracle.sol\":7259:7290  model.fee + gasPrice * gasLimit */\n      tag_472\n      swap2\n      swap1\n      tag_216\n      jump\t// in\n    tag_472:\n        /* \"contracts/AIOracle.sol\":7246:7255  msg.value */\n      callvalue\n        /* \"contracts/AIOracle.sol\":7246:7290  msg.value >= model.fee + gasPrice * gasLimit */\n      lt\n      iszero\n        /* \"contracts/AIOracle.sol\":7238:7311  require(msg.value >= model.fee + gasPrice * gasLimit, \"insufficient fee\") */\n      tag_473\n      jumpi\n      mload(0x40)\n      0x08c379a000000000000000000000000000000000000000000000000000000000\n      dup2\n      mstore\n      0x04\n      add\n      tag_474\n      swap1\n      tag_475\n      jump\t// in\n    tag_474:\n      mload(0x40)\n      dup1\n      swap2\n      sub\n      swap1\n      revert\n    tag_473:\n        /* \"contracts/AIOracle.sol\":7387:7390  100 */\n      0x64\n        /* \"contracts/AIOracle.sol\":7360:7365  model */\n      dup2\n        /* \"contracts/AIOracle.sol\":7360:7384  model.receiverPercentage */\n      0x04\n      add\n      sload\n        /* \"contracts/AIOracle.sol\":7348:7353  model */\n      dup3\n        /* \"contracts/AIOracle.sol\":7348:7357  model.fee */\n      0x02\n      add\n      sload\n        /* \"contracts/AIOracle.sol\":7348:7384  model.fee * model.receiverPercentage */\n      tag_476\n      swap2\n      swap1\n      tag_214\n      jump\t// in\n    tag_476:\n        /* \"contracts/AIOracle.sol\":7348:7390  model.fee * model.receiverPercentage / 100 */\n      tag_477\n      swap2\n      swap1\n      tag_478\n      jump\t// in\n    tag_477:\n        /* \"contracts/AIOracle.sol\":7321:7326  model */\n      dup2\n        /* \"contracts/AIOracle.sol\":7321:7344  model.accumulateRevenue */\n      0x05\n      add\n      0x00\n        /* \"contracts/AIOracle.sol\":7321:7390  model.accumulateRevenue += model.fee * model.receiverPercentage / 100 */\n      dup3\n      dup3\n      sload\n      tag_479\n      swap2\n      swap1\n      tag_216\n      jump\t// in\n    tag_479:\n      swap3\n      pop\n      pop\n      dup2\n      swap1\n      sstore\n      pop\n        /* \"contracts/AIOracle.sol\":7423:7424  0 */\n      0x00\n        /* \"contracts/AIOracle.sol\":7408:7413  input */\n      dup7\n        /* \"contracts/AIOracle.sol\":7408:7420  input.length */\n      mload\n        /* \"contracts/AIOracle.sol\":7408:7424  input.length > 0 */\n      gt\n        /* \"contracts/AIOracle.sol\":7400:7447  require(input.length > 0, \"input not uploaded\") */\n      tag_480\n      jumpi\n      mload(0x40)\n      0x08c379a000000000000000000000000000000000000000000000000000000000\n      dup2\n      mstore\n      0x04\n      add\n      tag_481\n      swap1\n      tag_482\n      jump\t// in\n    tag_481:\n      mload(0x40)\n      dup1\n      swap2\n      sub\n      swap1\n      revert\n    tag_480:\n        /* \"contracts/AIOracle.sol\":7457:7472  bool noCallback */\n      0x00\n        /* \"contracts/AIOracle.sol\":7503:7504  0 */\n      dup1\n        /* \"contracts/AIOracle.sol\":7475:7505  callbackContract == address(0) */\n      0xffffffffffffffffffffffffffffffffffffffff\n      and\n        /* \"contracts/AIOracle.sol\":7475:7491  callbackContract */\n      dup7\n        /* \"contracts/AIOracle.sol\":7475:7505  callbackContract == address(0) */\n      0xffffffffffffffffffffffffffffffffffffffff\n      and\n      eq\n        /* \"contracts/AIOracle.sol\":7457:7505  bool noCallback = callbackContract == address(0) */\n      swap1\n      pop\n        /* \"contracts/AIOracle.sol\":7550:7551  0 */\n      0x00\n        /* \"contracts/AIOracle.sol\":7538:7546  gasLimit */\n      dup6\n        /* \"contracts/AIOracle.sol\":7538:7551  gasLimit == 0 */\n      0xffffffffffffffff\n      and\n      eq\n        /* \"contracts/AIOracle.sol\":7523:7552  noCallback == (gasLimit == 0) */\n      iszero\n      iszero\n        /* \"contracts/AIOracle.sol\":7523:7533  noCallback */\n      dup2\n        /* \"contracts/AIOracle.sol\":7523:7552  noCallback == (gasLimit == 0) */\n      iszero\n      iszero\n      eq\n        /* \"contracts/AIOracle.sol\":7515:7573  require(noCallback == (gasLimit == 0), \"Invalid gasLimit\") */\n      tag_483\n      jumpi\n      mload(0x40)\n      0x08c379a000000000000000000000000000000000000000000000000000000000\n      dup2\n      mstore\n      0x04\n      add\n      tag_484\n      swap1\n      tag_485\n      jump\t// in\n    tag_484:\n      mload(0x40)\n      dup1\n      swap2\n      sub\n      swap1\n      revert\n    tag_483:\n        /* \"contracts/AIOracle.sol\":7177:7580  {... */\n      pop\n      pop\n        /* \"contracts/AIOracle.sol\":2480:2481  _ */\n      pop\n        /* \"contracts/AIOracle.sol\":6967:7580  function _validateParams(... */\n      pop\n      pop\n      pop\n      pop\n      pop\n      jump\t// out\n    tag_377:\n      mload(0x40)\n      dup1\n      0xc0\n      add\n      0x40\n      mstore\n      dup1\n      0x00\n      dup1\n      not\n      and\n      dup2\n      mstore\n      0x20\n      add\n      0x00\n      dup1\n      not\n      and\n      dup2\n      mstore\n      0x20\n      add\n      0x00\n      dup2\n      mstore\n      0x20\n      add\n      and(0xffffffffffffffffffffffffffffffffffffffff, 0x00)\n      dup2\n      mstore\n      0x20\n      add\n      0x00\n      dup2\n      mstore\n      0x20\n      add\n      0x00\n      dup2\n      mstore\n      pop\n      swap1\n      jump\t// out\n    tag_426:\n      pop\n      dup1\n      sload\n      0x00\n      dup3\n      sstore\n      swap1\n      0x00\n      mstore\n      keccak256(0x00, 0x20)\n      swap1\n      dup2\n      add\n      swap1\n      tag_487\n      swap2\n      swap1\n      tag_488\n      jump\t// in\n    tag_487:\n      pop\n      jump\t// out\n    tag_488:\n    tag_489:\n      dup1\n      dup3\n      gt\n      iszero\n      tag_490\n      jumpi\n      0x00\n      dup2\n      0x00\n      swap1\n      sstore\n      pop\n      0x01\n      add\n      jump(tag_489)\n    tag_490:\n      pop\n      swap1\n      jump\t// out\n        /* \"#utility.yul\":7:82   */\n    tag_491:\n        /* \"#utility.yul\":40:46   */\n      0x00\n        /* \"#utility.yul\":73:75   */\n      0x40\n        /* \"#utility.yul\":67:76   */\n      mload\n        /* \"#utility.yul\":57:76   */\n      swap1\n      pop\n        /* \"#utility.yul\":7:82   */\n      swap1\n      jump\t// out\n        /* \"#utility.yul\":88:205   */\n    tag_492:\n        /* \"#utility.yul\":197:198   */\n      0x00\n        /* \"#utility.yul\":194:195   */\n      dup1\n        /* \"#utility.yul\":187:199   */\n      revert\n        /* \"#utility.yul\":211:328   */\n    tag_493:\n        /* \"#utility.yul\":320:321   */\n      0x00\n        /* \"#utility.yul\":317:318   */\n      dup1\n        /* \"#utility.yul\":310:322   */\n      revert\n        /* \"#utility.yul\":334:411   */\n    tag_494:\n        /* \"#utility.yul\":371:378   */\n      0x00\n        /* \"#utility.yul\":400:405   */\n      dup2\n        /* \"#utility.yul\":389:405   */\n      swap1\n      pop\n        /* \"#utility.yul\":334:411   */\n      swap2\n      swap1\n      pop\n      jump\t// out\n        /* \"#utility.yul\":417:539   */\n    tag_495:\n        /* \"#utility.yul\":490:514   */\n      tag_606\n        /* \"#utility.yul\":508:513   */\n      dup2\n        /* \"#utility.yul\":490:514   */\n      tag_494\n      jump\t// in\n    tag_606:\n        /* \"#utility.yul\":483:488   */\n      dup2\n        /* \"#utility.yul\":480:515   */\n      eq\n        /* \"#utility.yul\":470:533   */\n      tag_607\n      jumpi\n        /* \"#utility.yul\":529:530   */\n      0x00\n        /* \"#utility.yul\":526:527   */\n      dup1\n        /* \"#utility.yul\":519:531   */\n      revert\n        /* \"#utility.yul\":470:533   */\n    tag_607:\n        /* \"#utility.yul\":417:539   */\n      pop\n      jump\t// out\n        /* \"#utility.yul\":545:684   */\n    tag_496:\n        /* \"#utility.yul\":591:596   */\n      0x00\n        /* \"#utility.yul\":629:635   */\n      dup2\n        /* \"#utility.yul\":616:636   */\n      calldataload\n        /* \"#utility.yul\":607:636   */\n      swap1\n      pop\n        /* \"#utility.yul\":645:678   */\n      tag_609\n        /* \"#utility.yul\":672:677   */\n      dup2\n        /* \"#utility.yul\":645:678   */\n      tag_495\n      jump\t// in\n    tag_609:\n        /* \"#utility.yul\":545:684   */\n      swap3\n      swap2\n      pop\n      pop\n      jump\t// out\n        /* \"#utility.yul\":690:816   */\n    tag_497:\n        /* \"#utility.yul\":727:734   */\n      0x00\n        /* \"#utility.yul\":767:809   */\n      0xffffffffffffffffffffffffffffffffffffffff\n        /* \"#utility.yul\":760:765   */\n      dup3\n        /* \"#utility.yul\":756:810   */\n      and\n        /* \"#utility.yul\":745:810   */\n      swap1\n      pop\n        /* \"#utility.yul\":690:816   */\n      swap2\n      swap1\n      pop\n      jump\t// out\n        /* \"#utility.yul\":822:918   */\n    tag_498:\n        /* \"#utility.yul\":859:866   */\n      0x00\n        /* \"#utility.yul\":888:912   */\n      tag_612\n        /* \"#utility.yul\":906:911   */\n      dup3\n        /* \"#utility.yul\":888:912   */\n      tag_497\n      jump\t// in\n    tag_612:\n        /* \"#utility.yul\":877:912   */\n      swap1\n      pop\n        /* \"#utility.yul\":822:918   */\n      swap2\n      swap1\n      pop\n      jump\t// out\n        /* \"#utility.yul\":924:1046   */\n    tag_499:\n        /* \"#utility.yul\":997:1021   */\n      tag_614\n        /* \"#utility.yul\":1015:1020   */\n      dup2\n        /* \"#utility.yul\":997:1021   */\n      tag_498\n      jump\t// in\n    tag_614:\n        /* \"#utility.yul\":990:995   */\n      dup2\n        /* \"#utility.yul\":987:1022   */\n      eq\n        /* \"#utility.yul\":977:1040   */\n      tag_615\n      jumpi\n        /* \"#utility.yul\":1036:1037   */\n      0x00\n        /* \"#utility.yul\":1033:1034   */\n      dup1\n        /* \"#utility.yul\":1026:1038   */\n      revert\n        /* \"#utility.yul\":977:1040   */\n    tag_615:\n        /* \"#utility.yul\":924:1046   */\n      pop\n      jump\t// out\n        /* \"#utility.yul\":1052:1191   */\n    tag_500:\n        /* \"#utility.yul\":1098:1103   */\n      0x00\n        /* \"#utility.yul\":1136:1142   */\n      dup2\n        /* \"#utility.yul\":1123:1143   */\n      calldataload\n        /* \"#utility.yul\":1114:1143   */\n      swap1\n      pop\n        /* \"#utility.yul\":1152:1185   */\n      tag_617\n        /* \"#utility.yul\":1179:1184   */\n      dup2\n        /* \"#utility.yul\":1152:1185   */\n      tag_499\n      jump\t// in\n    tag_617:\n        /* \"#utility.yul\":1052:1191   */\n      swap3\n      swap2\n      pop\n      pop\n      jump\t// out\n        /* \"#utility.yul\":1197:1671   */\n    tag_46:\n        /* \"#utility.yul\":1265:1271   */\n      0x00\n        /* \"#utility.yul\":1273:1279   */\n      dup1\n        /* \"#utility.yul\":1322:1324   */\n      0x40\n        /* \"#utility.yul\":1310:1319   */\n      dup4\n        /* \"#utility.yul\":1301:1308   */\n      dup6\n        /* \"#utility.yul\":1297:1320   */\n      sub\n        /* \"#utility.yul\":1293:1325   */\n      slt\n        /* \"#utility.yul\":1290:1409   */\n      iszero\n      tag_619\n      jumpi\n        /* \"#utility.yul\":1328:1407   */\n      tag_620\n      tag_492\n      jump\t// in\n    tag_620:\n        /* \"#utility.yul\":1290:1409   */\n    tag_619:\n        /* \"#utility.yul\":1448:1449   */\n      0x00\n        /* \"#utility.yul\":1473:1526   */\n      tag_621\n        /* \"#utility.yul\":1518:1525   */\n      dup6\n        /* \"#utility.yul\":1509:1515   */\n      dup3\n        /* \"#utility.yul\":1498:1507   */\n      dup7\n        /* \"#utility.yul\":1494:1516   */\n      add\n        /* \"#utility.yul\":1473:1526   */\n      tag_496\n      jump\t// in\n    tag_621:\n        /* \"#utility.yul\":1463:1526   */\n      swap3\n      pop\n        /* \"#utility.yul\":1419:1536   */\n      pop\n        /* \"#utility.yul\":1575:1577   */\n      0x20\n        /* \"#utility.yul\":1601:1654   */\n      tag_622\n        /* \"#utility.yul\":1646:1653   */\n      dup6\n        /* \"#utility.yul\":1637:1643   */\n      dup3\n        /* \"#utility.yul\":1626:1635   */\n      dup7\n        /* \"#utility.yul\":1622:1644   */\n      add\n        /* \"#utility.yul\":1601:1654   */\n      tag_500\n      jump\t// in\n    tag_622:\n        /* \"#utility.yul\":1591:1654   */\n      swap2\n      pop\n        /* \"#utility.yul\":1546:1664   */\n      pop\n        /* \"#utility.yul\":1197:1671   */\n      swap3\n      pop\n      swap3\n      swap1\n      pop\n      jump\t// out\n        /* \"#utility.yul\":1677:2151   */\n    tag_51:\n        /* \"#utility.yul\":1745:1751   */\n      0x00\n        /* \"#utility.yul\":1753:1759   */\n      dup1\n        /* \"#utility.yul\":1802:1804   */\n      0x40\n        /* \"#utility.yul\":1790:1799   */\n      dup4\n        /* \"#utility.yul\":1781:1788   */\n      dup6\n        /* \"#utility.yul\":1777:1800   */\n      sub\n        /* \"#utility.yul\":1773:1805   */\n      slt\n        /* \"#utility.yul\":1770:1889   */\n      iszero\n      tag_624\n      jumpi\n        /* \"#utility.yul\":1808:1887   */\n      tag_625\n      tag_492\n      jump\t// in\n    tag_625:\n        /* \"#utility.yul\":1770:1889   */\n    tag_624:\n        /* \"#utility.yul\":1928:1929   */\n      0x00\n        /* \"#utility.yul\":1953:2006   */\n      tag_626\n        /* \"#utility.yul\":1998:2005   */\n      dup6\n        /* \"#utility.yul\":1989:1995   */\n      dup3\n        /* \"#utility.yul\":1978:1987   */\n      dup7\n        /* \"#utility.yul\":1974:1996   */\n      add\n        /* \"#utility.yul\":1953:2006   */\n      tag_496\n      jump\t// in\n    tag_626:\n        /* \"#utility.yul\":1943:2006   */\n      swap3\n      pop\n        /* \"#utility.yul\":1899:2016   */\n      pop\n        /* \"#utility.yul\":2055:2057   */\n      0x20\n        /* \"#utility.yul\":2081:2134   */\n      tag_627\n        /* \"#utility.yul\":2126:2133   */\n      dup6\n        /* \"#utility.yul\":2117:2123   */\n      dup3\n        /* \"#utility.yul\":2106:2115   */\n      dup7\n        /* \"#utility.yul\":2102:2124   */\n      add\n        /* \"#utility.yul\":2081:2134   */\n      tag_496\n      jump\t// in\n    tag_627:\n        /* \"#utility.yul\":2071:2134   */\n      swap2\n      pop\n        /* \"#utility.yul\":2026:2144   */\n      pop\n        /* \"#utility.yul\":1677:2151   */\n      swap3\n      pop\n      swap3\n      swap1\n      pop\n      jump\t// out\n        /* \"#utility.yul\":2157:2275   */\n    tag_501:\n        /* \"#utility.yul\":2244:2268   */\n      tag_629\n        /* \"#utility.yul\":2262:2267   */\n      dup2\n        /* \"#utility.yul\":2244:2268   */\n      tag_494\n      jump\t// in\n    tag_629:\n        /* \"#utility.yul\":2239:2242   */\n      dup3\n        /* \"#utility.yul\":2232:2269   */\n      mstore\n        /* \"#utility.yul\":2157:2275   */\n      pop\n      pop\n      jump\t// out\n        /* \"#utility.yul\":2281:2503   */\n    tag_54:\n        /* \"#utility.yul\":2374:2378   */\n      0x00\n        /* \"#utility.yul\":2412:2414   */\n      0x20\n        /* \"#utility.yul\":2401:2410   */\n      dup3\n        /* \"#utility.yul\":2397:2415   */\n      add\n        /* \"#utility.yul\":2389:2415   */\n      swap1\n      pop\n        /* \"#utility.yul\":2425:2496   */\n      tag_631\n        /* \"#utility.yul\":2493:2494   */\n      0x00\n        /* \"#utility.yul\":2482:2491   */\n      dup4\n        /* \"#utility.yul\":2478:2495   */\n      add\n        /* \"#utility.yul\":2469:2475   */\n      dup5\n        /* \"#utility.yul\":2425:2496   */\n      tag_501\n      jump\t// in\n    tag_631:\n        /* \"#utility.yul\":2281:2503   */\n      swap3\n      swap2\n      pop\n      pop\n      jump\t// out\n        /* \"#utility.yul\":2509:2838   */\n    tag_58:\n        /* \"#utility.yul\":2568:2574   */\n      0x00\n        /* \"#utility.yul\":2617:2619   */\n      0x20\n        /* \"#utility.yul\":2605:2614   */\n      dup3\n        /* \"#utility.yul\":2596:2603   */\n      dup5\n        /* \"#utility.yul\":2592:2615   */\n      sub\n        /* \"#utility.yul\":2588:2620   */\n      slt\n        /* \"#utility.yul\":2585:2704   */\n      iszero\n      tag_633\n      jumpi\n        /* \"#utility.yul\":2623:2702   */\n      tag_634\n      tag_492\n      jump\t// in\n    tag_634:\n        /* \"#utility.yul\":2585:2704   */\n    tag_633:\n        /* \"#utility.yul\":2743:2744   */\n      0x00\n        /* \"#utility.yul\":2768:2821   */\n      tag_635\n        /* \"#utility.yul\":2813:2820   */\n      dup5\n        /* \"#utility.yul\":2804:2810   */\n      dup3\n        /* \"#utility.yul\":2793:2802   */\n      dup6\n        /* \"#utility.yul\":2789:2811   */\n      add\n        /* \"#utility.yul\":2768:2821   */\n      tag_496\n      jump\t// in\n    tag_635:\n        /* \"#utility.yul\":2758:2821   */\n      swap2\n      pop\n        /* \"#utility.yul\":2714:2831   */\n      pop\n        /* \"#utility.yul\":2509:2838   */\n      swap3\n      swap2\n      pop\n      pop\n      jump\t// out\n        /* \"#utility.yul\":2844:2942   */\n    tag_502:\n        /* \"#utility.yul\":2895:2901   */\n      0x00\n        /* \"#utility.yul\":2929:2934   */\n      dup2\n        /* \"#utility.yul\":2923:2935   */\n      mload\n        /* \"#utility.yul\":2913:2935   */\n      swap1\n      pop\n        /* \"#utility.yul\":2844:2942   */\n      swap2\n      swap1\n      pop\n      jump\t// out\n        /* \"#utility.yul\":2948:3116   */\n    tag_503:\n        /* \"#utility.yul\":3031:3042   */\n      0x00\n        /* \"#utility.yul\":3065:3071   */\n      dup3\n        /* \"#utility.yul\":3060:3063   */\n      dup3\n        /* \"#utility.yul\":3053:3072   */\n      mstore\n        /* \"#utility.yul\":3105:3109   */\n      0x20\n        /* \"#utility.yul\":3100:3103   */\n      dup3\n        /* \"#utility.yul\":3096:3110   */\n      add\n        /* \"#utility.yul\":3081:3110   */\n      swap1\n      pop\n        /* \"#utility.yul\":2948:3116   */\n      swap3\n      swap2\n      pop\n      pop\n      jump\t// out\n        /* \"#utility.yul\":3122:3261   */\n    tag_504:\n        /* \"#utility.yul\":3211:3217   */\n      dup3\n        /* \"#utility.yul\":3206:3209   */\n      dup2\n        /* \"#utility.yul\":3201:3204   */\n      dup4\n        /* \"#utility.yul\":3195:3218   */\n      mcopy\n        /* \"#utility.yul\":3252:3253   */\n      0x00\n        /* \"#utility.yul\":3243:3249   */\n      dup4\n        /* \"#utility.yul\":3238:3241   */\n      dup4\n        /* \"#utility.yul\":3234:3250   */\n      add\n        /* \"#utility.yul\":3227:3254   */\n      mstore\n        /* \"#utility.yul\":3122:3261   */\n      pop\n      pop\n      pop\n      jump\t// out\n        /* \"#utility.yul\":3267:3369   */\n    tag_505:\n        /* \"#utility.yul\":3308:3314   */\n      0x00\n        /* \"#utility.yul\":3359:3361   */\n      0x1f\n        /* \"#utility.yul\":3355:3362   */\n      not\n        /* \"#utility.yul\":3350:3352   */\n      0x1f\n        /* \"#utility.yul\":3343:3348   */\n      dup4\n        /* \"#utility.yul\":3339:3353   */\n      add\n        /* \"#utility.yul\":3335:3363   */\n      and\n        /* \"#utility.yul\":3325:3363   */\n      swap1\n      pop\n        /* \"#utility.yul\":3267:3369   */\n      swap2\n      swap1\n      pop\n      jump\t// out\n        /* \"#utility.yul\":3375:3748   */\n    tag_506:\n        /* \"#utility.yul\":3461:3464   */\n      0x00\n        /* \"#utility.yul\":3489:3527   */\n      tag_641\n        /* \"#utility.yul\":3521:3526   */\n      dup3\n        /* \"#utility.yul\":3489:3527   */\n      tag_502\n      jump\t// in\n    tag_641:\n        /* \"#utility.yul\":3543:3613   */\n      tag_642\n        /* \"#utility.yul\":3606:3612   */\n      dup2\n        /* \"#utility.yul\":3601:3604   */\n      dup6\n        /* \"#utility.yul\":3543:3613   */\n      tag_503\n      jump\t// in\n    tag_642:\n        /* \"#utility.yul\":3536:3613   */\n      swap4\n      pop\n        /* \"#utility.yul\":3622:3687   */\n      tag_643\n        /* \"#utility.yul\":3680:3686   */\n      dup2\n        /* \"#utility.yul\":3675:3678   */\n      dup6\n        /* \"#utility.yul\":3668:3672   */\n      0x20\n        /* \"#utility.yul\":3661:3666   */\n      dup7\n        /* \"#utility.yul\":3657:3673   */\n      add\n        /* \"#utility.yul\":3622:3687   */\n      tag_504\n      jump\t// in\n    tag_643:\n        /* \"#utility.yul\":3712:3741   */\n      tag_644\n        /* \"#utility.yul\":3734:3740   */\n      dup2\n        /* \"#utility.yul\":3712:3741   */\n      tag_505\n      jump\t// in\n    tag_644:\n        /* \"#utility.yul\":3707:3710   */\n      dup5\n        /* \"#utility.yul\":3703:3742   */\n      add\n        /* \"#utility.yul\":3696:3742   */\n      swap2\n      pop\n        /* \"#utility.yul\":3465:3748   */\n      pop\n        /* \"#utility.yul\":3375:3748   */\n      swap3\n      swap2\n      pop\n      pop\n      jump\t// out\n        /* \"#utility.yul\":3754:4063   */\n    tag_61:\n        /* \"#utility.yul\":3865:3869   */\n      0x00\n        /* \"#utility.yul\":3903:3905   */\n      0x20\n        /* \"#utility.yul\":3892:3901   */\n      dup3\n        /* \"#utility.yul\":3888:3906   */\n      add\n        /* \"#utility.yul\":3880:3906   */\n      swap1\n      pop\n        /* \"#utility.yul\":3952:3961   */\n      dup2\n        /* \"#utility.yul\":3946:3950   */\n      dup2\n        /* \"#utility.yul\":3942:3962   */\n      sub\n        /* \"#utility.yul\":3938:3939   */\n      0x00\n        /* \"#utility.yul\":3927:3936   */\n      dup4\n        /* \"#utility.yul\":3923:3940   */\n      add\n        /* \"#utility.yul\":3916:3963   */\n      mstore\n        /* \"#utility.yul\":3980:4056   */\n      tag_646\n        /* \"#utility.yul\":4051:4055   */\n      dup2\n        /* \"#utility.yul\":4042:4048   */\n      dup5\n        /* \"#utility.yul\":3980:4056   */\n      tag_506\n      jump\t// in\n    tag_646:\n        /* \"#utility.yul\":3972:4056   */\n      swap1\n      pop\n        /* \"#utility.yul\":3754:4063   */\n      swap3\n      swap2\n      pop\n      pop\n      jump\t// out\n        /* \"#utility.yul\":4069:4159   */\n    tag_507:\n        /* \"#utility.yul\":4103:4110   */\n      0x00\n        /* \"#utility.yul\":4146:4151   */\n      dup2\n        /* \"#utility.yul\":4139:4152   */\n      iszero\n        /* \"#utility.yul\":4132:4153   */\n      iszero\n        /* \"#utility.yul\":4121:4153   */\n      swap1\n      pop\n        /* \"#utility.yul\":4069:4159   */\n      swap2\n      swap1\n      pop\n      jump\t// out\n        /* \"#utility.yul\":4165:4274   */\n    tag_508:\n        /* \"#utility.yul\":4246:4267   */\n      tag_649\n        /* \"#utility.yul\":4261:4266   */\n      dup2\n        /* \"#utility.yul\":4246:4267   */\n      tag_507\n      jump\t// in\n    tag_649:\n        /* \"#utility.yul\":4241:4244   */\n      dup3\n        /* \"#utility.yul\":4234:4268   */\n      mstore\n        /* \"#utility.yul\":4165:4274   */\n      pop\n      pop\n      jump\t// out\n        /* \"#utility.yul\":4280:4490   */\n    tag_67:\n        /* \"#utility.yul\":4367:4371   */\n      0x00\n        /* \"#utility.yul\":4405:4407   */\n      0x20\n        /* \"#utility.yul\":4394:4403   */\n      dup3\n        /* \"#utility.yul\":4390:4408   */\n      add\n        /* \"#utility.yul\":4382:4408   */\n      swap1\n      pop\n        /* \"#utility.yul\":4418:4483   */\n      tag_651\n        /* \"#utility.yul\":4480:4481   */\n      0x00\n        /* \"#utility.yul\":4469:4478   */\n      dup4\n        /* \"#utility.yul\":4465:4482   */\n      add\n        /* \"#utility.yul\":4456:4462   */\n      dup5\n        /* \"#utility.yul\":4418:4483   */\n      tag_508\n      jump\t// in\n    tag_651:\n        /* \"#utility.yul\":4280:4490   */\n      swap3\n      swap2\n      pop\n      pop\n      jump\t// out\n        /* \"#utility.yul\":4496:4825   */\n    tag_79:\n        /* \"#utility.yul\":4555:4561   */\n      0x00\n        /* \"#utility.yul\":4604:4606   */\n      0x20\n        /* \"#utility.yul\":4592:4601   */\n      dup3\n        /* \"#utility.yul\":4583:4590   */\n      dup5\n        /* \"#utility.yul\":4579:4602   */\n      sub\n        /* \"#utility.yul\":4575:4607   */\n      slt\n        /* \"#utility.yul\":4572:4691   */\n      iszero\n      tag_653\n      jumpi\n        /* \"#utility.yul\":4610:4689   */\n      tag_654\n      tag_492\n      jump\t// in\n    tag_654:\n        /* \"#utility.yul\":4572:4691   */\n    tag_653:\n        /* \"#utility.yul\":4730:4731   */\n      0x00\n        /* \"#utility.yul\":4755:4808   */\n      tag_655\n        /* \"#utility.yul\":4800:4807   */\n      dup5\n        /* \"#utility.yul\":4791:4797   */\n      dup3\n        /* \"#utility.yul\":4780:4789   */\n      dup6\n        /* \"#utility.yul\":4776:4798   */\n      add\n        /* \"#utility.yul\":4755:4808   */\n      tag_500\n      jump\t// in\n    tag_655:\n        /* \"#utility.yul\":4745:4808   */\n      swap2\n      pop\n        /* \"#utility.yul\":4701:4818   */\n      pop\n        /* \"#utility.yul\":4496:4825   */\n      swap3\n      swap2\n      pop\n      pop\n      jump\t// out\n        /* \"#utility.yul\":4831:4980   */\n    tag_509:\n        /* \"#utility.yul\":4867:4874   */\n      0x00\n        /* \"#utility.yul\":4907:4973   */\n      0xffffffff00000000000000000000000000000000000000000000000000000000\n        /* \"#utility.yul\":4900:4905   */\n      dup3\n        /* \"#utility.yul\":4896:4974   */\n      and\n        /* \"#utility.yul\":4885:4974   */\n      swap1\n      pop\n        /* \"#utility.yul\":4831:4980   */\n      swap2\n      swap1\n      pop\n      jump\t// out\n        /* \"#utility.yul\":4986:5101   */\n    tag_510:\n        /* \"#utility.yul\":5071:5094   */\n      tag_658\n        /* \"#utility.yul\":5088:5093   */\n      dup2\n        /* \"#utility.yul\":5071:5094   */\n      tag_509\n      jump\t// in\n    tag_658:\n        /* \"#utility.yul\":5066:5069   */\n      dup3\n        /* \"#utility.yul\":5059:5095   */\n      mstore\n        /* \"#utility.yul\":4986:5101   */\n      pop\n      pop\n      jump\t// out\n        /* \"#utility.yul\":5107:5325   */\n    tag_85:\n        /* \"#utility.yul\":5198:5202   */\n      0x00\n        /* \"#utility.yul\":5236:5238   */\n      0x20\n        /* \"#utility.yul\":5225:5234   */\n      dup3\n        /* \"#utility.yul\":5221:5239   */\n      add\n        /* \"#utility.yul\":5213:5239   */\n      swap1\n      pop\n        /* \"#utility.yul\":5249:5318   */\n      tag_660\n        /* \"#utility.yul\":5315:5316   */\n      0x00\n        /* \"#utility.yul\":5304:5313   */\n      dup4\n        /* \"#utility.yul\":5300:5317   */\n      add\n        /* \"#utility.yul\":5291:5297   */\n      dup5\n        /* \"#utility.yul\":5249:5318   */\n      tag_510\n      jump\t// in\n    tag_660:\n        /* \"#utility.yul\":5107:5325   */\n      swap3\n      swap2\n      pop\n      pop\n      jump\t// out\n        /* \"#utility.yul\":5331:5408   */\n    tag_511:\n        /* \"#utility.yul\":5368:5375   */\n      0x00\n        /* \"#utility.yul\":5397:5402   */\n      dup2\n        /* \"#utility.yul\":5386:5402   */\n      swap1\n      pop\n        /* \"#utility.yul\":5331:5408   */\n      swap2\n      swap1\n      pop\n      jump\t// out\n        /* \"#utility.yul\":5414:5536   */\n    tag_512:\n        /* \"#utility.yul\":5487:5511   */\n      tag_663\n        /* \"#utility.yul\":5505:5510   */\n      dup2\n        /* \"#utility.yul\":5487:5511   */\n      tag_511\n      jump\t// in\n    tag_663:\n        /* \"#utility.yul\":5480:5485   */\n      dup2\n        /* \"#utility.yul\":5477:5512   */\n      eq\n        /* \"#utility.yul\":5467:5530   */\n      tag_664\n      jumpi\n        /* \"#utility.yul\":5526:5527   */\n      0x00\n        /* \"#utility.yul\":5523:5524   */\n      dup1\n        /* \"#utility.yul\":5516:5528   */\n      revert\n        /* \"#utility.yul\":5467:5530   */\n    tag_664:\n        /* \"#utility.yul\":5414:5536   */\n      pop\n      jump\t// out\n        /* \"#utility.yul\":5542:5681   */\n    tag_513:\n        /* \"#utility.yul\":5588:5593   */\n      0x00\n        /* \"#utility.yul\":5626:5632   */\n      dup2\n        /* \"#utility.yul\":5613:5633   */\n      calldataload\n        /* \"#utility.yul\":5604:5633   */\n      swap1\n      pop\n        /* \"#utility.yul\":5642:5675   */\n      tag_666\n        /* \"#utility.yul\":5669:5674   */\n      dup2\n        /* \"#utility.yul\":5642:5675   */\n      tag_512\n      jump\t// in\n    tag_666:\n        /* \"#utility.yul\":5542:5681   */\n      swap3\n      swap2\n      pop\n      pop\n      jump\t// out\n        /* \"#utility.yul\":5687:6744   */\n    tag_93:\n        /* \"#utility.yul\":5791:5797   */\n      0x00\n        /* \"#utility.yul\":5799:5805   */\n      dup1\n        /* \"#utility.yul\":5807:5813   */\n      0x00\n        /* \"#utility.yul\":5815:5821   */\n      dup1\n        /* \"#utility.yul\":5823:5829   */\n      0x00\n        /* \"#utility.yul\":5831:5837   */\n      dup1\n        /* \"#utility.yul\":5880:5883   */\n      0xc0\n        /* \"#utility.yul\":5868:5877   */\n      dup8\n        /* \"#utility.yul\":5859:5866   */\n      dup10\n        /* \"#utility.yul\":5855:5878   */\n      sub\n        /* \"#utility.yul\":5851:5884   */\n      slt\n        /* \"#utility.yul\":5848:5968   */\n      iszero\n      tag_668\n      jumpi\n        /* \"#utility.yul\":5887:5966   */\n      tag_669\n      tag_492\n      jump\t// in\n    tag_669:\n        /* \"#utility.yul\":5848:5968   */\n    tag_668:\n        /* \"#utility.yul\":6007:6008   */\n      0x00\n        /* \"#utility.yul\":6032:6085   */\n      tag_670\n        /* \"#utility.yul\":6077:6084   */\n      dup10\n        /* \"#utility.yul\":6068:6074   */\n      dup3\n        /* \"#utility.yul\":6057:6066   */\n      dup11\n        /* \"#utility.yul\":6053:6075   */\n      add\n        /* \"#utility.yul\":6032:6085   */\n      tag_496\n      jump\t// in\n    tag_670:\n        /* \"#utility.yul\":6022:6085   */\n      swap7\n      pop\n        /* \"#utility.yul\":5978:6095   */\n      pop\n        /* \"#utility.yul\":6134:6136   */\n      0x20\n        /* \"#utility.yul\":6160:6213   */\n      tag_671\n        /* \"#utility.yul\":6205:6212   */\n      dup10\n        /* \"#utility.yul\":6196:6202   */\n      dup3\n        /* \"#utility.yul\":6185:6194   */\n      dup11\n        /* \"#utility.yul\":6181:6203   */\n      add\n        /* \"#utility.yul\":6160:6213   */\n      tag_513\n      jump\t// in\n    tag_671:\n        /* \"#utility.yul\":6150:6213   */\n      swap6\n      pop\n        /* \"#utility.yul\":6105:6223   */\n      pop\n        /* \"#utility.yul\":6262:6264   */\n      0x40\n        /* \"#utility.yul\":6288:6341   */\n      tag_672\n        /* \"#utility.yul\":6333:6340   */\n      dup10\n        /* \"#utility.yul\":6324:6330   */\n      dup3\n        /* \"#utility.yul\":6313:6322   */\n      dup11\n        /* \"#utility.yul\":6309:6331   */\n      add\n        /* \"#utility.yul\":6288:6341   */\n      tag_513\n      jump\t// in\n    tag_672:\n        /* \"#utility.yul\":6278:6341   */\n      swap5\n      pop\n        /* \"#utility.yul\":6233:6351   */\n      pop\n        /* \"#utility.yul\":6390:6392   */\n      0x60\n        /* \"#utility.yul\":6416:6469   */\n      tag_673\n        /* \"#utility.yul\":6461:6468   */\n      dup10\n        /* \"#utility.yul\":6452:6458   */\n      dup3\n        /* \"#utility.yul\":6441:6450   */\n      dup11\n        /* \"#utility.yul\":6437:6459   */\n      add\n        /* \"#utility.yul\":6416:6469   */\n      tag_496\n      jump\t// in\n    tag_673:\n        /* \"#utility.yul\":6406:6469   */\n      swap4\n      pop\n        /* \"#utility.yul\":6361:6479   */\n      pop\n        /* \"#utility.yul\":6518:6521   */\n      0x80\n        /* \"#utility.yul\":6545:6598   */\n      tag_674\n        /* \"#utility.yul\":6590:6597   */\n      dup10\n        /* \"#utility.yul\":6581:6587   */\n      dup3\n        /* \"#utility.yul\":6570:6579   */\n      dup11\n        /* \"#utility.yul\":6566:6588   */\n      add\n        /* \"#utility.yul\":6545:6598   */\n      tag_500\n      jump\t// in\n    tag_674:\n        /* \"#utility.yul\":6535:6598   */\n      swap3\n      pop\n        /* \"#utility.yul\":6489:6608   */\n      pop\n        /* \"#utility.yul\":6647:6650   */\n      0xa0\n        /* \"#utility.yul\":6674:6727   */\n      tag_675\n        /* \"#utility.yul\":6719:6726   */\n      dup10\n        /* \"#utility.yul\":6710:6716   */\n      dup3\n        /* \"#utility.yul\":6699:6708   */\n      dup11\n        /* \"#utility.yul\":6695:6717   */\n      add\n        /* \"#utility.yul\":6674:6727   */\n      tag_496\n      jump\t// in\n    tag_675:\n        /* \"#utility.yul\":6664:6727   */\n      swap2\n      pop\n        /* \"#utility.yul\":6618:6737   */\n      pop\n        /* \"#utility.yul\":5687:6744   */\n      swap3\n      swap6\n      pop\n      swap3\n      swap6\n      pop\n      swap3\n      swap6\n      jump\t// out\n        /* \"#utility.yul\":6750:6867   */\n    tag_514:\n        /* \"#utility.yul\":6859:6860   */\n      0x00\n        /* \"#utility.yul\":6856:6857   */\n      dup1\n        /* \"#utility.yul\":6849:6861   */\n      revert\n        /* \"#utility.yul\":6873:6990   */\n    tag_515:\n        /* \"#utility.yul\":6982:6983   */\n      0x00\n        /* \"#utility.yul\":6979:6980   */\n      dup1\n        /* \"#utility.yul\":6972:6984   */\n      revert\n        /* \"#utility.yul\":6996:7113   */\n    tag_516:\n        /* \"#utility.yul\":7105:7106   */\n      0x00\n        /* \"#utility.yul\":7102:7103   */\n      dup1\n        /* \"#utility.yul\":7095:7107   */\n      revert\n        /* \"#utility.yul\":7132:7684   */\n    tag_517:\n        /* \"#utility.yul\":7189:7197   */\n      0x00\n        /* \"#utility.yul\":7199:7205   */\n      dup1\n        /* \"#utility.yul\":7249:7252   */\n      dup4\n        /* \"#utility.yul\":7242:7246   */\n      0x1f\n        /* \"#utility.yul\":7234:7240   */\n      dup5\n        /* \"#utility.yul\":7230:7247   */\n      add\n        /* \"#utility.yul\":7226:7253   */\n      slt\n        /* \"#utility.yul\":7216:7338   */\n      tag_680\n      jumpi\n        /* \"#utility.yul\":7257:7336   */\n      tag_681\n      tag_514\n      jump\t// in\n    tag_681:\n        /* \"#utility.yul\":7216:7338   */\n    tag_680:\n        /* \"#utility.yul\":7370:7376   */\n      dup3\n        /* \"#utility.yul\":7357:7377   */\n      calldataload\n        /* \"#utility.yul\":7347:7377   */\n      swap1\n      pop\n        /* \"#utility.yul\":7400:7418   */\n      0xffffffffffffffff\n        /* \"#utility.yul\":7392:7398   */\n      dup2\n        /* \"#utility.yul\":7389:7419   */\n      gt\n        /* \"#utility.yul\":7386:7503   */\n      iszero\n      tag_682\n      jumpi\n        /* \"#utility.yul\":7422:7501   */\n      tag_683\n      tag_515\n      jump\t// in\n    tag_683:\n        /* \"#utility.yul\":7386:7503   */\n    tag_682:\n        /* \"#utility.yul\":7536:7540   */\n      0x20\n        /* \"#utility.yul\":7528:7534   */\n      dup4\n        /* \"#utility.yul\":7524:7541   */\n      add\n        /* \"#utility.yul\":7512:7541   */\n      swap2\n      pop\n        /* \"#utility.yul\":7590:7593   */\n      dup4\n        /* \"#utility.yul\":7582:7586   */\n      0x01\n        /* \"#utility.yul\":7574:7580   */\n      dup3\n        /* \"#utility.yul\":7570:7587   */\n      mul\n        /* \"#utility.yul\":7560:7568   */\n      dup4\n        /* \"#utility.yul\":7556:7588   */\n      add\n        /* \"#utility.yul\":7553:7594   */\n      gt\n        /* \"#utility.yul\":7550:7678   */\n      iszero\n      tag_684\n      jumpi\n        /* \"#utility.yul\":7597:7676   */\n      tag_685\n      tag_516\n      jump\t// in\n    tag_685:\n        /* \"#utility.yul\":7550:7678   */\n    tag_684:\n        /* \"#utility.yul\":7132:7684   */\n      swap3\n      pop\n      swap3\n      swap1\n      pop\n      jump\t// out\n        /* \"#utility.yul\":7690:8362   */\n    tag_98:\n        /* \"#utility.yul\":7769:7775   */\n      0x00\n        /* \"#utility.yul\":7777:7783   */\n      dup1\n        /* \"#utility.yul\":7785:7791   */\n      0x00\n        /* \"#utility.yul\":7834:7836   */\n      0x40\n        /* \"#utility.yul\":7822:7831   */\n      dup5\n        /* \"#utility.yul\":7813:7820   */\n      dup7\n        /* \"#utility.yul\":7809:7832   */\n      sub\n        /* \"#utility.yul\":7805:7837   */\n      slt\n        /* \"#utility.yul\":7802:7921   */\n      iszero\n      tag_687\n      jumpi\n        /* \"#utility.yul\":7840:7919   */\n      tag_688\n      tag_492\n      jump\t// in\n    tag_688:\n        /* \"#utility.yul\":7802:7921   */\n    tag_687:\n        /* \"#utility.yul\":7960:7961   */\n      0x00\n        /* \"#utility.yul\":7985:8038   */\n      tag_689\n        /* \"#utility.yul\":8030:8037   */\n      dup7\n        /* \"#utility.yul\":8021:8027   */\n      dup3\n        /* \"#utility.yul\":8010:8019   */\n      dup8\n        /* \"#utility.yul\":8006:8028   */\n      add\n        /* \"#utility.yul\":7985:8038   */\n      tag_496\n      jump\t// in\n    tag_689:\n        /* \"#utility.yul\":7975:8038   */\n      swap4\n      pop\n        /* \"#utility.yul\":7931:8048   */\n      pop\n        /* \"#utility.yul\":8115:8117   */\n      0x20\n        /* \"#utility.yul\":8104:8113   */\n      dup5\n        /* \"#utility.yul\":8100:8118   */\n      add\n        /* \"#utility.yul\":8087:8119   */\n      calldataload\n        /* \"#utility.yul\":8146:8164   */\n      0xffffffffffffffff\n        /* \"#utility.yul\":8138:8144   */\n      dup2\n        /* \"#utility.yul\":8135:8165   */\n      gt\n        /* \"#utility.yul\":8132:8249   */\n      iszero\n      tag_690\n      jumpi\n        /* \"#utility.yul\":8168:8247   */\n      tag_691\n      tag_493\n      jump\t// in\n    tag_691:\n        /* \"#utility.yul\":8132:8249   */\n    tag_690:\n        /* \"#utility.yul\":8281:8345   */\n      tag_692\n        /* \"#utility.yul\":8337:8344   */\n      dup7\n        /* \"#utility.yul\":8328:8334   */\n      dup3\n        /* \"#utility.yul\":8317:8326   */\n      dup8\n        /* \"#utility.yul\":8313:8335   */\n      add\n        /* \"#utility.yul\":8281:8345   */\n      tag_517\n      jump\t// in\n    tag_692:\n        /* \"#utility.yul\":8263:8345   */\n      swap3\n      pop\n      swap3\n      pop\n        /* \"#utility.yul\":8058:8355   */\n      pop\n        /* \"#utility.yul\":7690:8362   */\n      swap3\n      pop\n      swap3\n      pop\n      swap3\n      jump\t// out\n        /* \"#utility.yul\":8368:8485   */\n    tag_518:\n        /* \"#utility.yul\":8477:8478   */\n      0x00\n        /* \"#utility.yul\":8474:8475   */\n      dup1\n        /* \"#utility.yul\":8467:8479   */\n      revert\n        /* \"#utility.yul\":8491:8671   */\n    tag_519:\n        /* \"#utility.yul\":8539:8616   */\n      0x4e487b7100000000000000000000000000000000000000000000000000000000\n        /* \"#utility.yul\":8536:8537   */\n      0x00\n        /* \"#utility.yul\":8529:8617   */\n      mstore\n        /* \"#utility.yul\":8636:8640   */\n      0x41\n        /* \"#utility.yul\":8633:8634   */\n      0x04\n        /* \"#utility.yul\":8626:8641   */\n      mstore\n        /* \"#utility.yul\":8660:8664   */\n      0x24\n        /* \"#utility.yul\":8657:8658   */\n      0x00\n        /* \"#utility.yul\":8650:8665   */\n      revert\n        /* \"#utility.yul\":8677:8958   */\n    tag_520:\n        /* \"#utility.yul\":8760:8787   */\n      tag_696\n        /* \"#utility.yul\":8782:8786   */\n      dup3\n        /* \"#utility.yul\":8760:8787   */\n      tag_505\n      jump\t// in\n    tag_696:\n        /* \"#utility.yul\":8752:8758   */\n      dup2\n        /* \"#utility.yul\":8748:8788   */\n      add\n        /* \"#utility.yul\":8890:8896   */\n      dup2\n        /* \"#utility.yul\":8878:8888   */\n      dup2\n        /* \"#utility.yul\":8875:8897   */\n      lt\n        /* \"#utility.yul\":8854:8872   */\n      0xffffffffffffffff\n        /* \"#utility.yul\":8842:8852   */\n      dup3\n        /* \"#utility.yul\":8839:8873   */\n      gt\n        /* \"#utility.yul\":8836:8898   */\n      or\n        /* \"#utility.yul\":8833:8921   */\n      iszero\n      tag_697\n      jumpi\n        /* \"#utility.yul\":8901:8919   */\n      tag_698\n      tag_519\n      jump\t// in\n    tag_698:\n        /* \"#utility.yul\":8833:8921   */\n    tag_697:\n        /* \"#utility.yul\":8941:8951   */\n      dup1\n        /* \"#utility.yul\":8937:8939   */\n      0x40\n        /* \"#utility.yul\":8930:8952   */\n      mstore\n        /* \"#utility.yul\":8720:8958   */\n      pop\n        /* \"#utility.yul\":8677:8958   */\n      pop\n      pop\n      jump\t// out\n        /* \"#utility.yul\":8964:9093   */\n    tag_521:\n        /* \"#utility.yul\":8998:9004   */\n      0x00\n        /* \"#utility.yul\":9025:9045   */\n      tag_700\n      tag_491\n      jump\t// in\n    tag_700:\n        /* \"#utility.yul\":9015:9045   */\n      swap1\n      pop\n        /* \"#utility.yul\":9054:9087   */\n      tag_701\n        /* \"#utility.yul\":9082:9086   */\n      dup3\n        /* \"#utility.yul\":9074:9080   */\n      dup3\n        /* \"#utility.yul\":9054:9087   */\n      tag_520\n      jump\t// in\n    tag_701:\n        /* \"#utility.yul\":8964:9093   */\n      swap2\n      swap1\n      pop\n      jump\t// out\n        /* \"#utility.yul\":9099:9406   */\n    tag_522:\n        /* \"#utility.yul\":9160:9164   */\n      0x00\n        /* \"#utility.yul\":9250:9268   */\n      0xffffffffffffffff\n        /* \"#utility.yul\":9242:9248   */\n      dup3\n        /* \"#utility.yul\":9239:9269   */\n      gt\n        /* \"#utility.yul\":9236:9292   */\n      iszero\n      tag_703\n      jumpi\n        /* \"#utility.yul\":9272:9290   */\n      tag_704\n      tag_519\n      jump\t// in\n    tag_704:\n        /* \"#utility.yul\":9236:9292   */\n    tag_703:\n        /* \"#utility.yul\":9310:9339   */\n      tag_705\n        /* \"#utility.yul\":9332:9338   */\n      dup3\n        /* \"#utility.yul\":9310:9339   */\n      tag_505\n      jump\t// in\n    tag_705:\n        /* \"#utility.yul\":9302:9339   */\n      swap1\n      pop\n        /* \"#utility.yul\":9394:9398   */\n      0x20\n        /* \"#utility.yul\":9388:9392   */\n      dup2\n        /* \"#utility.yul\":9384:9399   */\n      add\n        /* \"#utility.yul\":9376:9399   */\n      swap1\n      pop\n        /* \"#utility.yul\":9099:9406   */\n      swap2\n      swap1\n      pop\n      jump\t// out\n        /* \"#utility.yul\":9412:9560   */\n    tag_523:\n        /* \"#utility.yul\":9510:9516   */\n      dup3\n        /* \"#utility.yul\":9505:9508   */\n      dup2\n        /* \"#utility.yul\":9500:9503   */\n      dup4\n        /* \"#utility.yul\":9487:9517   */\n      calldatacopy\n        /* \"#utility.yul\":9551:9552   */\n      0x00\n        /* \"#utility.yul\":9542:9548   */\n      dup4\n        /* \"#utility.yul\":9537:9540   */\n      dup4\n        /* \"#utility.yul\":9533:9549   */\n      add\n        /* \"#utility.yul\":9526:9553   */\n      mstore\n        /* \"#utility.yul\":9412:9560   */\n      pop\n      pop\n      pop\n      jump\t// out\n        /* \"#utility.yul\":9566:9989   */\n    tag_524:\n        /* \"#utility.yul\":9643:9648   */\n      0x00\n        /* \"#utility.yul\":9668:9733   */\n      tag_708\n        /* \"#utility.yul\":9684:9732   */\n      tag_709\n        /* \"#utility.yul\":9725:9731   */\n      dup5\n        /* \"#utility.yul\":9684:9732   */\n      tag_522\n      jump\t// in\n    tag_709:\n        /* \"#utility.yul\":9668:9733   */\n      tag_521\n      jump\t// in\n    tag_708:\n        /* \"#utility.yul\":9659:9733   */\n      swap1\n      pop\n        /* \"#utility.yul\":9756:9762   */\n      dup3\n        /* \"#utility.yul\":9749:9754   */\n      dup2\n        /* \"#utility.yul\":9742:9763   */\n      mstore\n        /* \"#utility.yul\":9794:9798   */\n      0x20\n        /* \"#utility.yul\":9787:9792   */\n      dup2\n        /* \"#utility.yul\":9783:9799   */\n      add\n        /* \"#utility.yul\":9832:9835   */\n      dup5\n        /* \"#utility.yul\":9823:9829   */\n      dup5\n        /* \"#utility.yul\":9818:9821   */\n      dup5\n        /* \"#utility.yul\":9814:9830   */\n      add\n        /* \"#utility.yul\":9811:9836   */\n      gt\n        /* \"#utility.yul\":9808:9920   */\n      iszero\n      tag_710\n      jumpi\n        /* \"#utility.yul\":9839:9918   */\n      tag_711\n      tag_518\n      jump\t// in\n    tag_711:\n        /* \"#utility.yul\":9808:9920   */\n    tag_710:\n        /* \"#utility.yul\":9929:9983   */\n      tag_712\n        /* \"#utility.yul\":9976:9982   */\n      dup5\n        /* \"#utility.yul\":9971:9974   */\n      dup3\n        /* \"#utility.yul\":9966:9969   */\n      dup6\n        /* \"#utility.yul\":9929:9983   */\n      tag_523\n      jump\t// in\n    tag_712:\n        /* \"#utility.yul\":9649:9989   */\n      pop\n        /* \"#utility.yul\":9566:9989   */\n      swap4\n      swap3\n      pop\n      pop\n      pop\n      jump\t// out\n        /* \"#utility.yul\":10008:10346   */\n    tag_525:\n        /* \"#utility.yul\":10063:10068   */\n      0x00\n        /* \"#utility.yul\":10112:10115   */\n      dup3\n        /* \"#utility.yul\":10105:10109   */\n      0x1f\n        /* \"#utility.yul\":10097:10103   */\n      dup4\n        /* \"#utility.yul\":10093:10110   */\n      add\n        /* \"#utility.yul\":10089:10116   */\n      slt\n        /* \"#utility.yul\":10079:10201   */\n      tag_714\n      jumpi\n        /* \"#utility.yul\":10120:10199   */\n      tag_715\n      tag_514\n      jump\t// in\n    tag_715:\n        /* \"#utility.yul\":10079:10201   */\n    tag_714:\n        /* \"#utility.yul\":10237:10243   */\n      dup2\n        /* \"#utility.yul\":10224:10244   */\n      calldataload\n        /* \"#utility.yul\":10262:10340   */\n      tag_716\n        /* \"#utility.yul\":10336:10339   */\n      dup5\n        /* \"#utility.yul\":10328:10334   */\n      dup3\n        /* \"#utility.yul\":10321:10325   */\n      0x20\n        /* \"#utility.yul\":10313:10319   */\n      dup7\n        /* \"#utility.yul\":10309:10326   */\n      add\n        /* \"#utility.yul\":10262:10340   */\n      tag_524\n      jump\t// in\n    tag_716:\n        /* \"#utility.yul\":10253:10340   */\n      swap2\n      pop\n        /* \"#utility.yul\":10069:10346   */\n      pop\n        /* \"#utility.yul\":10008:10346   */\n      swap3\n      swap2\n      pop\n      pop\n      jump\t// out\n        /* \"#utility.yul\":10352:10453   */\n    tag_526:\n        /* \"#utility.yul\":10388:10395   */\n      0x00\n        /* \"#utility.yul\":10428:10446   */\n      0xffffffffffffffff\n        /* \"#utility.yul\":10421:10426   */\n      dup3\n        /* \"#utility.yul\":10417:10447   */\n      and\n        /* \"#utility.yul\":10406:10447   */\n      swap1\n      pop\n        /* \"#utility.yul\":10352:10453   */\n      swap2\n      swap1\n      pop\n      jump\t// out\n        /* \"#utility.yul\":10459:10579   */\n    tag_527:\n        /* \"#utility.yul\":10531:10554   */\n      tag_719\n        /* \"#utility.yul\":10548:10553   */\n      dup2\n        /* \"#utility.yul\":10531:10554   */\n      tag_526\n      jump\t// in\n    tag_719:\n        /* \"#utility.yul\":10524:10529   */\n      dup2\n        /* \"#utility.yul\":10521:10555   */\n      eq\n        /* \"#utility.yul\":10511:10573   */\n      tag_720\n      jumpi\n        /* \"#utility.yul\":10569:10570   */\n      0x00\n        /* \"#utility.yul\":10566:10567   */\n      dup1\n        /* \"#utility.yul\":10559:10571   */\n      revert\n        /* \"#utility.yul\":10511:10573   */\n    tag_720:\n        /* \"#utility.yul\":10459:10579   */\n      pop\n      jump\t// out\n        /* \"#utility.yul\":10585:10722   */\n    tag_528:\n        /* \"#utility.yul\":10630:10635   */\n      0x00\n        /* \"#utility.yul\":10668:10674   */\n      dup2\n        /* \"#utility.yul\":10655:10675   */\n      calldataload\n        /* \"#utility.yul\":10646:10675   */\n      swap1\n      pop\n        /* \"#utility.yul\":10684:10716   */\n      tag_722\n        /* \"#utility.yul\":10710:10715   */\n      dup2\n        /* \"#utility.yul\":10684:10716   */\n      tag_527\n      jump\t// in\n    tag_722:\n        /* \"#utility.yul\":10585:10722   */\n      swap3\n      swap2\n      pop\n      pop\n      jump\t// out\n        /* \"#utility.yul\":10728:11993   */\n    tag_106:\n        /* \"#utility.yul\":10840:10846   */\n      0x00\n        /* \"#utility.yul\":10848:10854   */\n      dup1\n        /* \"#utility.yul\":10856:10862   */\n      0x00\n        /* \"#utility.yul\":10864:10870   */\n      dup1\n        /* \"#utility.yul\":10872:10878   */\n      0x00\n        /* \"#utility.yul\":10921:10924   */\n      0xa0\n        /* \"#utility.yul\":10909:10918   */\n      dup7\n        /* \"#utility.yul\":10900:10907   */\n      dup9\n        /* \"#utility.yul\":10896:10919   */\n      sub\n        /* \"#utility.yul\":10892:10925   */\n      slt\n        /* \"#utility.yul\":10889:11009   */\n      iszero\n      tag_724\n      jumpi\n        /* \"#utility.yul\":10928:11007   */\n      tag_725\n      tag_492\n      jump\t// in\n    tag_725:\n        /* \"#utility.yul\":10889:11009   */\n    tag_724:\n        /* \"#utility.yul\":11048:11049   */\n      0x00\n        /* \"#utility.yul\":11073:11126   */\n      tag_726\n        /* \"#utility.yul\":11118:11125   */\n      dup9\n        /* \"#utility.yul\":11109:11115   */\n      dup3\n        /* \"#utility.yul\":11098:11107   */\n      dup10\n        /* \"#utility.yul\":11094:11116   */\n      add\n        /* \"#utility.yul\":11073:11126   */\n      tag_496\n      jump\t// in\n    tag_726:\n        /* \"#utility.yul\":11063:11126   */\n      swap6\n      pop\n        /* \"#utility.yul\":11019:11136   */\n      pop\n        /* \"#utility.yul\":11203:11205   */\n      0x20\n        /* \"#utility.yul\":11192:11201   */\n      dup7\n        /* \"#utility.yul\":11188:11206   */\n      add\n        /* \"#utility.yul\":11175:11207   */\n      calldataload\n        /* \"#utility.yul\":11234:11252   */\n      0xffffffffffffffff\n        /* \"#utility.yul\":11226:11232   */\n      dup2\n        /* \"#utility.yul\":11223:11253   */\n      gt\n        /* \"#utility.yul\":11220:11337   */\n      iszero\n      tag_727\n      jumpi\n        /* \"#utility.yul\":11256:11335   */\n      tag_728\n      tag_493\n      jump\t// in\n    tag_728:\n        /* \"#utility.yul\":11220:11337   */\n    tag_727:\n        /* \"#utility.yul\":11361:11423   */\n      tag_729\n        /* \"#utility.yul\":11415:11422   */\n      dup9\n        /* \"#utility.yul\":11406:11412   */\n      dup3\n        /* \"#utility.yul\":11395:11404   */\n      dup10\n        /* \"#utility.yul\":11391:11413   */\n      add\n        /* \"#utility.yul\":11361:11423   */\n      tag_525\n      jump\t// in\n    tag_729:\n        /* \"#utility.yul\":11351:11423   */\n      swap5\n      pop\n        /* \"#utility.yul\":11146:11433   */\n      pop\n        /* \"#utility.yul\":11472:11474   */\n      0x40\n        /* \"#utility.yul\":11498:11551   */\n      tag_730\n        /* \"#utility.yul\":11543:11550   */\n      dup9\n        /* \"#utility.yul\":11534:11540   */\n      dup3\n        /* \"#utility.yul\":11523:11532   */\n      dup10\n        /* \"#utility.yul\":11519:11541   */\n      add\n        /* \"#utility.yul\":11498:11551   */\n      tag_500\n      jump\t// in\n    tag_730:\n        /* \"#utility.yul\":11488:11551   */\n      swap4\n      pop\n        /* \"#utility.yul\":11443:11561   */\n      pop\n        /* \"#utility.yul\":11600:11602   */\n      0x60\n        /* \"#utility.yul\":11626:11678   */\n      tag_731\n        /* \"#utility.yul\":11670:11677   */\n      dup9\n        /* \"#utility.yul\":11661:11667   */\n      dup3\n        /* \"#utility.yul\":11650:11659   */\n      dup10\n        /* \"#utility.yul\":11646:11668   */\n      add\n        /* \"#utility.yul\":11626:11678   */\n      tag_528\n      jump\t// in\n    tag_731:\n        /* \"#utility.yul\":11616:11678   */\n      swap3\n      pop\n        /* \"#utility.yul\":11571:11688   */\n      pop\n        /* \"#utility.yul\":11755:11758   */\n      0x80\n        /* \"#utility.yul\":11744:11753   */\n      dup7\n        /* \"#utility.yul\":11740:11759   */\n      add\n        /* \"#utility.yul\":11727:11760   */\n      calldataload\n        /* \"#utility.yul\":11787:11805   */\n      0xffffffffffffffff\n        /* \"#utility.yul\":11779:11785   */\n      dup2\n        /* \"#utility.yul\":11776:11806   */\n      gt\n        /* \"#utility.yul\":11773:11890   */\n      iszero\n      tag_732\n      jumpi\n        /* \"#utility.yul\":11809:11888   */\n      tag_733\n      tag_493\n      jump\t// in\n    tag_733:\n        /* \"#utility.yul\":11773:11890   */\n    tag_732:\n        /* \"#utility.yul\":11914:11976   */\n      tag_734\n        /* \"#utility.yul\":11968:11975   */\n      dup9\n        /* \"#utility.yul\":11959:11965   */\n      dup3\n        /* \"#utility.yul\":11948:11957   */\n      dup10\n        /* \"#utility.yul\":11944:11966   */\n      add\n        /* \"#utility.yul\":11914:11976   */\n      tag_525\n      jump\t// in\n    tag_734:\n        /* \"#utility.yul\":11904:11976   */\n      swap2\n      pop\n        /* \"#utility.yul\":11698:11986   */\n      pop\n        /* \"#utility.yul\":10728:11993   */\n      swap3\n      swap6\n      pop\n      swap3\n      swap6\n      swap1\n      swap4\n      pop\n      jump\t// out\n        /* \"#utility.yul\":11999:12107   */\n    tag_529:\n        /* \"#utility.yul\":12076:12100   */\n      tag_736\n        /* \"#utility.yul\":12094:12099   */\n      dup2\n        /* \"#utility.yul\":12076:12100   */\n      tag_511\n      jump\t// in\n    tag_736:\n        /* \"#utility.yul\":12071:12074   */\n      dup3\n        /* \"#utility.yul\":12064:12101   */\n      mstore\n        /* \"#utility.yul\":11999:12107   */\n      pop\n      pop\n      jump\t// out\n        /* \"#utility.yul\":12113:12221   */\n    tag_530:\n        /* \"#utility.yul\":12190:12214   */\n      tag_738\n        /* \"#utility.yul\":12208:12213   */\n      dup2\n        /* \"#utility.yul\":12190:12214   */\n      tag_494\n      jump\t// in\n    tag_738:\n        /* \"#utility.yul\":12185:12188   */\n      dup3\n        /* \"#utility.yul\":12178:12215   */\n      mstore\n        /* \"#utility.yul\":12113:12221   */\n      pop\n      pop\n      jump\t// out\n        /* \"#utility.yul\":12227:12335   */\n    tag_531:\n        /* \"#utility.yul\":12304:12328   */\n      tag_740\n        /* \"#utility.yul\":12322:12327   */\n      dup2\n        /* \"#utility.yul\":12304:12328   */\n      tag_498\n      jump\t// in\n    tag_740:\n        /* \"#utility.yul\":12299:12302   */\n      dup3\n        /* \"#utility.yul\":12292:12329   */\n      mstore\n        /* \"#utility.yul\":12227:12335   */\n      pop\n      pop\n      jump\t// out\n        /* \"#utility.yul\":12403:13648   */\n    tag_532:\n        /* \"#utility.yul\":12550:12554   */\n      0xc0\n        /* \"#utility.yul\":12545:12548   */\n      dup3\n        /* \"#utility.yul\":12541:12555   */\n      add\n        /* \"#utility.yul\":12642:12646   */\n      0x00\n        /* \"#utility.yul\":12635:12640   */\n      dup3\n        /* \"#utility.yul\":12631:12647   */\n      add\n        /* \"#utility.yul\":12625:12648   */\n      mload\n        /* \"#utility.yul\":12661:12724   */\n      tag_742\n        /* \"#utility.yul\":12718:12722   */\n      0x00\n        /* \"#utility.yul\":12713:12716   */\n      dup6\n        /* \"#utility.yul\":12709:12723   */\n      add\n        /* \"#utility.yul\":12695:12707   */\n      dup3\n        /* \"#utility.yul\":12661:12724   */\n      tag_529\n      jump\t// in\n    tag_742:\n        /* \"#utility.yul\":12565:12734   */\n      pop\n        /* \"#utility.yul\":12823:12827   */\n      0x20\n        /* \"#utility.yul\":12816:12821   */\n      dup3\n        /* \"#utility.yul\":12812:12828   */\n      add\n        /* \"#utility.yul\":12806:12829   */\n      mload\n        /* \"#utility.yul\":12842:12905   */\n      tag_743\n        /* \"#utility.yul\":12899:12903   */\n      0x20\n        /* \"#utility.yul\":12894:12897   */\n      dup6\n        /* \"#utility.yul\":12890:12904   */\n      add\n        /* \"#utility.yul\":12876:12888   */\n      dup3\n        /* \"#utility.yul\":12842:12905   */\n      tag_529\n      jump\t// in\n    tag_743:\n        /* \"#utility.yul\":12744:12915   */\n      pop\n        /* \"#utility.yul\":12996:13000   */\n      0x40\n        /* \"#utility.yul\":12989:12994   */\n      dup3\n        /* \"#utility.yul\":12985:13001   */\n      add\n        /* \"#utility.yul\":12979:13002   */\n      mload\n        /* \"#utility.yul\":13015:13078   */\n      tag_744\n        /* \"#utility.yul\":13072:13076   */\n      0x40\n        /* \"#utility.yul\":13067:13070   */\n      dup6\n        /* \"#utility.yul\":13063:13077   */\n      add\n        /* \"#utility.yul\":13049:13061   */\n      dup3\n        /* \"#utility.yul\":13015:13078   */\n      tag_530\n      jump\t// in\n    tag_744:\n        /* \"#utility.yul\":12925:13088   */\n      pop\n        /* \"#utility.yul\":13174:13178   */\n      0x60\n        /* \"#utility.yul\":13167:13172   */\n      dup3\n        /* \"#utility.yul\":13163:13179   */\n      add\n        /* \"#utility.yul\":13157:13180   */\n      mload\n        /* \"#utility.yul\":13193:13256   */\n      tag_745\n        /* \"#utility.yul\":13250:13254   */\n      0x60\n        /* \"#utility.yul\":13245:13248   */\n      dup6\n        /* \"#utility.yul\":13241:13255   */\n      add\n        /* \"#utility.yul\":13227:13239   */\n      dup3\n        /* \"#utility.yul\":13193:13256   */\n      tag_531\n      jump\t// in\n    tag_745:\n        /* \"#utility.yul\":13098:13266   */\n      pop\n        /* \"#utility.yul\":13362:13366   */\n      0x80\n        /* \"#utility.yul\":13355:13360   */\n      dup3\n        /* \"#utility.yul\":13351:13367   */\n      add\n        /* \"#utility.yul\":13345:13368   */\n      mload\n        /* \"#utility.yul\":13381:13444   */\n      tag_746\n        /* \"#utility.yul\":13438:13442   */\n      0x80\n        /* \"#utility.yul\":13433:13436   */\n      dup6\n        /* \"#utility.yul\":13429:13443   */\n      add\n        /* \"#utility.yul\":13415:13427   */\n      dup3\n        /* \"#utility.yul\":13381:13444   */\n      tag_530\n      jump\t// in\n    tag_746:\n        /* \"#utility.yul\":13276:13454   */\n      pop\n        /* \"#utility.yul\":13549:13553   */\n      0xa0\n        /* \"#utility.yul\":13542:13547   */\n      dup3\n        /* \"#utility.yul\":13538:13554   */\n      add\n        /* \"#utility.yul\":13532:13555   */\n      mload\n        /* \"#utility.yul\":13568:13631   */\n      tag_747\n        /* \"#utility.yul\":13625:13629   */\n      0xa0\n        /* \"#utility.yul\":13620:13623   */\n      dup6\n        /* \"#utility.yul\":13616:13630   */\n      add\n        /* \"#utility.yul\":13602:13614   */\n      dup3\n        /* \"#utility.yul\":13568:13631   */\n      tag_530\n      jump\t// in\n    tag_747:\n        /* \"#utility.yul\":13464:13641   */\n      pop\n        /* \"#utility.yul\":12519:13648   */\n      pop\n        /* \"#utility.yul\":12403:13648   */\n      pop\n      pop\n      jump\t// out\n        /* \"#utility.yul\":13654:13977   */\n    tag_126:\n        /* \"#utility.yul\":13797:13801   */\n      0x00\n        /* \"#utility.yul\":13835:13838   */\n      0xc0\n        /* \"#utility.yul\":13824:13833   */\n      dup3\n        /* \"#utility.yul\":13820:13839   */\n      add\n        /* \"#utility.yul\":13812:13839   */\n      swap1\n      pop\n        /* \"#utility.yul\":13849:13970   */\n      tag_749\n        /* \"#utility.yul\":13967:13968   */\n      0x00\n        /* \"#utility.yul\":13956:13965   */\n      dup4\n        /* \"#utility.yul\":13952:13969   */\n      add\n        /* \"#utility.yul\":13943:13949   */\n      dup5\n        /* \"#utility.yul\":13849:13970   */\n      tag_532\n      jump\t// in\n    tag_749:\n        /* \"#utility.yul\":13654:13977   */\n      swap3\n      swap2\n      pop\n      pop\n      jump\t// out\n        /* \"#utility.yul\":13983:14101   */\n    tag_533:\n        /* \"#utility.yul\":14070:14094   */\n      tag_751\n        /* \"#utility.yul\":14088:14093   */\n      dup2\n        /* \"#utility.yul\":14070:14094   */\n      tag_498\n      jump\t// in\n    tag_751:\n        /* \"#utility.yul\":14065:14068   */\n      dup3\n        /* \"#utility.yul\":14058:14095   */\n      mstore\n        /* \"#utility.yul\":13983:14101   */\n      pop\n      pop\n      jump\t// out\n        /* \"#utility.yul\":14107:14222   */\n    tag_534:\n        /* \"#utility.yul\":14192:14215   */\n      tag_753\n        /* \"#utility.yul\":14209:14214   */\n      dup2\n        /* \"#utility.yul\":14192:14215   */\n      tag_526\n      jump\t// in\n    tag_753:\n        /* \"#utility.yul\":14187:14190   */\n      dup3\n        /* \"#utility.yul\":14180:14216   */\n      mstore\n        /* \"#utility.yul\":14107:14222   */\n      pop\n      pop\n      jump\t// out\n        /* \"#utility.yul\":14228:15284   */\n    tag_135:\n        /* \"#utility.yul\":14523:14527   */\n      0x00\n        /* \"#utility.yul\":14561:14564   */\n      0xe0\n        /* \"#utility.yul\":14550:14559   */\n      dup3\n        /* \"#utility.yul\":14546:14565   */\n      add\n        /* \"#utility.yul\":14538:14565   */\n      swap1\n      pop\n        /* \"#utility.yul\":14575:14646   */\n      tag_755\n        /* \"#utility.yul\":14643:14644   */\n      0x00\n        /* \"#utility.yul\":14632:14641   */\n      dup4\n        /* \"#utility.yul\":14628:14645   */\n      add\n        /* \"#utility.yul\":14619:14625   */\n      dup11\n        /* \"#utility.yul\":14575:14646   */\n      tag_533\n      jump\t// in\n    tag_755:\n        /* \"#utility.yul\":14656:14728   */\n      tag_756\n        /* \"#utility.yul\":14724:14726   */\n      0x20\n        /* \"#utility.yul\":14713:14722   */\n      dup4\n        /* \"#utility.yul\":14709:14727   */\n      add\n        /* \"#utility.yul\":14700:14706   */\n      dup10\n        /* \"#utility.yul\":14656:14728   */\n      tag_501\n      jump\t// in\n    tag_756:\n        /* \"#utility.yul\":14738:14810   */\n      tag_757\n        /* \"#utility.yul\":14806:14808   */\n      0x40\n        /* \"#utility.yul\":14795:14804   */\n      dup4\n        /* \"#utility.yul\":14791:14809   */\n      add\n        /* \"#utility.yul\":14782:14788   */\n      dup9\n        /* \"#utility.yul\":14738:14810   */\n      tag_501\n      jump\t// in\n    tag_757:\n        /* \"#utility.yul\":14857:14866   */\n      dup2\n        /* \"#utility.yul\":14851:14855   */\n      dup2\n        /* \"#utility.yul\":14847:14867   */\n      sub\n        /* \"#utility.yul\":14842:14844   */\n      0x60\n        /* \"#utility.yul\":14831:14840   */\n      dup4\n        /* \"#utility.yul\":14827:14845   */\n      add\n        /* \"#utility.yul\":14820:14868   */\n      mstore\n        /* \"#utility.yul\":14885:14961   */\n      tag_758\n        /* \"#utility.yul\":14956:14960   */\n      dup2\n        /* \"#utility.yul\":14947:14953   */\n      dup8\n        /* \"#utility.yul\":14885:14961   */\n      tag_506\n      jump\t// in\n    tag_758:\n        /* \"#utility.yul\":14877:14961   */\n      swap1\n      pop\n        /* \"#utility.yul\":14971:15044   */\n      tag_759\n        /* \"#utility.yul\":15039:15042   */\n      0x80\n        /* \"#utility.yul\":15028:15037   */\n      dup4\n        /* \"#utility.yul\":15024:15043   */\n      add\n        /* \"#utility.yul\":15015:15021   */\n      dup7\n        /* \"#utility.yul\":14971:15044   */\n      tag_533\n      jump\t// in\n    tag_759:\n        /* \"#utility.yul\":15054:15125   */\n      tag_760\n        /* \"#utility.yul\":15120:15123   */\n      0xa0\n        /* \"#utility.yul\":15109:15118   */\n      dup4\n        /* \"#utility.yul\":15105:15124   */\n      add\n        /* \"#utility.yul\":15096:15102   */\n      dup6\n        /* \"#utility.yul\":15054:15125   */\n      tag_534\n      jump\t// in\n    tag_760:\n        /* \"#utility.yul\":15173:15182   */\n      dup2\n        /* \"#utility.yul\":15167:15171   */\n      dup2\n        /* \"#utility.yul\":15163:15183   */\n      sub\n        /* \"#utility.yul\":15157:15160   */\n      0xc0\n        /* \"#utility.yul\":15146:15155   */\n      dup4\n        /* \"#utility.yul\":15142:15161   */\n      add\n        /* \"#utility.yul\":15135:15184   */\n      mstore\n        /* \"#utility.yul\":15201:15277   */\n      tag_761\n        /* \"#utility.yul\":15272:15276   */\n      dup2\n        /* \"#utility.yul\":15263:15269   */\n      dup5\n        /* \"#utility.yul\":15201:15277   */\n      tag_506\n      jump\t// in\n    tag_761:\n        /* \"#utility.yul\":15193:15277   */\n      swap1\n      pop\n        /* \"#utility.yul\":14228:15284   */\n      swap9\n      swap8\n      pop\n      pop\n      pop\n      pop\n      pop\n      pop\n      pop\n      pop\n      jump\t// out\n        /* \"#utility.yul\":15290:15512   */\n    tag_148:\n        /* \"#utility.yul\":15383:15387   */\n      0x00\n        /* \"#utility.yul\":15421:15423   */\n      0x20\n        /* \"#utility.yul\":15410:15419   */\n      dup3\n        /* \"#utility.yul\":15406:15424   */\n      add\n        /* \"#utility.yul\":15398:15424   */\n      swap1\n      pop\n        /* \"#utility.yul\":15434:15505   */\n      tag_763\n        /* \"#utility.yul\":15502:15503   */\n      0x00\n        /* \"#utility.yul\":15491:15500   */\n      dup4\n        /* \"#utility.yul\":15487:15504   */\n      add\n        /* \"#utility.yul\":15478:15484   */\n      dup5\n        /* \"#utility.yul\":15434:15505   */\n      tag_533\n      jump\t// in\n    tag_763:\n        /* \"#utility.yul\":15290:15512   */\n      swap3\n      swap2\n      pop\n      pop\n      jump\t// out\n        /* \"#utility.yul\":15518:15578   */\n    tag_535:\n        /* \"#utility.yul\":15546:15549   */\n      0x00\n        /* \"#utility.yul\":15567:15572   */\n      dup2\n        /* \"#utility.yul\":15560:15572   */\n      swap1\n      pop\n        /* \"#utility.yul\":15518:15578   */\n      swap2\n      swap1\n      pop\n      jump\t// out\n        /* \"#utility.yul\":15584:15726   */\n    tag_536:\n        /* \"#utility.yul\":15634:15643   */\n      0x00\n        /* \"#utility.yul\":15667:15720   */\n      tag_766\n        /* \"#utility.yul\":15685:15719   */\n      tag_767\n        /* \"#utility.yul\":15694:15718   */\n      tag_768\n        /* \"#utility.yul\":15712:15717   */\n      dup5\n        /* \"#utility.yul\":15694:15718   */\n      tag_497\n      jump\t// in\n    tag_768:\n        /* \"#utility.yul\":15685:15719   */\n      tag_535\n      jump\t// in\n    tag_767:\n        /* \"#utility.yul\":15667:15720   */\n      tag_497\n      jump\t// in\n    tag_766:\n        /* \"#utility.yul\":15654:15720   */\n      swap1\n      pop\n        /* \"#utility.yul\":15584:15726   */\n      swap2\n      swap1\n      pop\n      jump\t// out\n        /* \"#utility.yul\":15732:15858   */\n    tag_537:\n        /* \"#utility.yul\":15782:15791   */\n      0x00\n        /* \"#utility.yul\":15815:15852   */\n      tag_770\n        /* \"#utility.yul\":15846:15851   */\n      dup3\n        /* \"#utility.yul\":15815:15852   */\n      tag_536\n      jump\t// in\n    tag_770:\n        /* \"#utility.yul\":15802:15852   */\n      swap1\n      pop\n        /* \"#utility.yul\":15732:15858   */\n      swap2\n      swap1\n      pop\n      jump\t// out\n        /* \"#utility.yul\":15864:16004   */\n    tag_538:\n        /* \"#utility.yul\":15928:15937   */\n      0x00\n        /* \"#utility.yul\":15961:15998   */\n      tag_772\n        /* \"#utility.yul\":15992:15997   */\n      dup3\n        /* \"#utility.yul\":15961:15998   */\n      tag_537\n      jump\t// in\n    tag_772:\n        /* \"#utility.yul\":15948:15998   */\n      swap1\n      pop\n        /* \"#utility.yul\":15864:16004   */\n      swap2\n      swap1\n      pop\n      jump\t// out\n        /* \"#utility.yul\":16010:16169   */\n    tag_539:\n        /* \"#utility.yul\":16111:16162   */\n      tag_774\n        /* \"#utility.yul\":16156:16161   */\n      dup2\n        /* \"#utility.yul\":16111:16162   */\n      tag_538\n      jump\t// in\n    tag_774:\n        /* \"#utility.yul\":16106:16109   */\n      dup3\n        /* \"#utility.yul\":16099:16163   */\n      mstore\n        /* \"#utility.yul\":16010:16169   */\n      pop\n      pop\n      jump\t// out\n        /* \"#utility.yul\":16175:16425   */\n    tag_153:\n        /* \"#utility.yul\":16282:16286   */\n      0x00\n        /* \"#utility.yul\":16320:16322   */\n      0x20\n        /* \"#utility.yul\":16309:16318   */\n      dup3\n        /* \"#utility.yul\":16305:16323   */\n      add\n        /* \"#utility.yul\":16297:16323   */\n      swap1\n      pop\n        /* \"#utility.yul\":16333:16418   */\n      tag_776\n        /* \"#utility.yul\":16415:16416   */\n      0x00\n        /* \"#utility.yul\":16404:16413   */\n      dup4\n        /* \"#utility.yul\":16400:16417   */\n      add\n        /* \"#utility.yul\":16391:16397   */\n      dup5\n        /* \"#utility.yul\":16333:16418   */\n      tag_539\n      jump\t// in\n    tag_776:\n        /* \"#utility.yul\":16175:16425   */\n      swap3\n      swap2\n      pop\n      pop\n      jump\t// out\n        /* \"#utility.yul\":16431:16600   */\n    tag_540:\n        /* \"#utility.yul\":16515:16526   */\n      0x00\n        /* \"#utility.yul\":16549:16555   */\n      dup3\n        /* \"#utility.yul\":16544:16547   */\n      dup3\n        /* \"#utility.yul\":16537:16556   */\n      mstore\n        /* \"#utility.yul\":16589:16593   */\n      0x20\n        /* \"#utility.yul\":16584:16587   */\n      dup3\n        /* \"#utility.yul\":16580:16594   */\n      add\n        /* \"#utility.yul\":16565:16594   */\n      swap1\n      pop\n        /* \"#utility.yul\":16431:16600   */\n      swap3\n      swap2\n      pop\n      pop\n      jump\t// out\n        /* \"#utility.yul\":16606:16769   */\n    tag_541:\n        /* \"#utility.yul\":16746:16761   */\n      0x4e6f7420746865206f776e657200000000000000000000000000000000000000\n        /* \"#utility.yul\":16742:16743   */\n      0x00\n        /* \"#utility.yul\":16734:16740   */\n      dup3\n        /* \"#utility.yul\":16730:16744   */\n      add\n        /* \"#utility.yul\":16723:16762   */\n      mstore\n        /* \"#utility.yul\":16606:16769   */\n      pop\n      jump\t// out\n        /* \"#utility.yul\":16775:17141   */\n    tag_542:\n        /* \"#utility.yul\":16917:16920   */\n      0x00\n        /* \"#utility.yul\":16938:17005   */\n      tag_780\n        /* \"#utility.yul\":17002:17004   */\n      0x0d\n        /* \"#utility.yul\":16997:17000   */\n      dup4\n        /* \"#utility.yul\":16938:17005   */\n      tag_540\n      jump\t// in\n    tag_780:\n        /* \"#utility.yul\":16931:17005   */\n      swap2\n      pop\n        /* \"#utility.yul\":17014:17107   */\n      tag_781\n        /* \"#utility.yul\":17103:17106   */\n      dup3\n        /* \"#utility.yul\":17014:17107   */\n      tag_541\n      jump\t// in\n    tag_781:\n        /* \"#utility.yul\":17132:17134   */\n      0x20\n        /* \"#utility.yul\":17127:17130   */\n      dup3\n        /* \"#utility.yul\":17123:17135   */\n      add\n        /* \"#utility.yul\":17116:17135   */\n      swap1\n      pop\n        /* \"#utility.yul\":16775:17141   */\n      swap2\n      swap1\n      pop\n      jump\t// out\n        /* \"#utility.yul\":17147:17566   */\n    tag_203:\n        /* \"#utility.yul\":17313:17317   */\n      0x00\n        /* \"#utility.yul\":17351:17353   */\n      0x20\n        /* \"#utility.yul\":17340:17349   */\n      dup3\n        /* \"#utility.yul\":17336:17354   */\n      add\n        /* \"#utility.yul\":17328:17354   */\n      swap1\n      pop\n        /* \"#utility.yul\":17400:17409   */\n      dup2\n        /* \"#utility.yul\":17394:17398   */\n      dup2\n        /* \"#utility.yul\":17390:17410   */\n      sub\n        /* \"#utility.yul\":17386:17387   */\n      0x00\n        /* \"#utility.yul\":17375:17384   */\n      dup4\n        /* \"#utility.yul\":17371:17388   */\n      add\n        /* \"#utility.yul\":17364:17411   */\n      mstore\n        /* \"#utility.yul\":17428:17559   */\n      tag_783\n        /* \"#utility.yul\":17554:17558   */\n      dup2\n        /* \"#utility.yul\":17428:17559   */\n      tag_542\n      jump\t// in\n    tag_783:\n        /* \"#utility.yul\":17420:17559   */\n      swap1\n      pop\n        /* \"#utility.yul\":17147:17566   */\n      swap2\n      swap1\n      pop\n      jump\t// out\n        /* \"#utility.yul\":17572:17742   */\n    tag_543:\n        /* \"#utility.yul\":17712:17734   */\n      0x6d6f64656c20646f6573206e6f74206578697374000000000000000000000000\n        /* \"#utility.yul\":17708:17709   */\n      0x00\n        /* \"#utility.yul\":17700:17706   */\n      dup3\n        /* \"#utility.yul\":17696:17710   */\n      add\n        /* \"#utility.yul\":17689:17735   */\n      mstore\n        /* \"#utility.yul\":17572:17742   */\n      pop\n      jump\t// out\n        /* \"#utility.yul\":17748:18114   */\n    tag_544:\n        /* \"#utility.yul\":17890:17893   */\n      0x00\n        /* \"#utility.yul\":17911:17978   */\n      tag_786\n        /* \"#utility.yul\":17975:17977   */\n      0x14\n        /* \"#utility.yul\":17970:17973   */\n      dup4\n        /* \"#utility.yul\":17911:17978   */\n      tag_540\n      jump\t// in\n    tag_786:\n        /* \"#utility.yul\":17904:17978   */\n      swap2\n      pop\n        /* \"#utility.yul\":17987:18080   */\n      tag_787\n        /* \"#utility.yul\":18076:18079   */\n      dup3\n        /* \"#utility.yul\":17987:18080   */\n      tag_543\n      jump\t// in\n    tag_787:\n        /* \"#utility.yul\":18105:18107   */\n      0x20\n        /* \"#utility.yul\":18100:18103   */\n      dup3\n        /* \"#utility.yul\":18096:18108   */\n      add\n        /* \"#utility.yul\":18089:18108   */\n      swap1\n      pop\n        /* \"#utility.yul\":17748:18114   */\n      swap2\n      swap1\n      pop\n      jump\t// out\n        /* \"#utility.yul\":18120:18539   */\n    tag_207:\n        /* \"#utility.yul\":18286:18290   */\n      0x00\n        /* \"#utility.yul\":18324:18326   */\n      0x20\n        /* \"#utility.yul\":18313:18322   */\n      dup3\n        /* \"#utility.yul\":18309:18327   */\n      add\n        /* \"#utility.yul\":18301:18327   */\n      swap1\n      pop\n        /* \"#utility.yul\":18373:18382   */\n      dup2\n        /* \"#utility.yul\":18367:18371   */\n      dup2\n        /* \"#utility.yul\":18363:18383   */\n      sub\n        /* \"#utility.yul\":18359:18360   */\n      0x00\n        /* \"#utility.yul\":18348:18357   */\n      dup4\n        /* \"#utility.yul\":18344:18361   */\n      add\n        /* \"#utility.yul\":18337:18384   */\n      mstore\n        /* \"#utility.yul\":18401:18532   */\n      tag_789\n        /* \"#utility.yul\":18527:18531   */\n      dup2\n        /* \"#utility.yul\":18401:18532   */\n      tag_544\n      jump\t// in\n    tag_789:\n        /* \"#utility.yul\":18393:18532   */\n      swap1\n      pop\n        /* \"#utility.yul\":18120:18539   */\n      swap2\n      swap1\n      pop\n      jump\t// out\n        /* \"#utility.yul\":18545:18725   */\n    tag_545:\n        /* \"#utility.yul\":18593:18670   */\n      0x4e487b7100000000000000000000000000000000000000000000000000000000\n        /* \"#utility.yul\":18590:18591   */\n      0x00\n        /* \"#utility.yul\":18583:18671   */\n      mstore\n        /* \"#utility.yul\":18690:18694   */\n      0x11\n        /* \"#utility.yul\":18687:18688   */\n      0x04\n        /* \"#utility.yul\":18680:18695   */\n      mstore\n        /* \"#utility.yul\":18714:18718   */\n      0x24\n        /* \"#utility.yul\":18711:18712   */\n      0x00\n        /* \"#utility.yul\":18704:18719   */\n      revert\n        /* \"#utility.yul\":18731:19141   */\n    tag_214:\n        /* \"#utility.yul\":18771:18778   */\n      0x00\n        /* \"#utility.yul\":18794:18814   */\n      tag_792\n        /* \"#utility.yul\":18812:18813   */\n      dup3\n        /* \"#utility.yul\":18794:18814   */\n      tag_494\n      jump\t// in\n    tag_792:\n        /* \"#utility.yul\":18789:18814   */\n      swap2\n      pop\n        /* \"#utility.yul\":18828:18848   */\n      tag_793\n        /* \"#utility.yul\":18846:18847   */\n      dup4\n        /* \"#utility.yul\":18828:18848   */\n      tag_494\n      jump\t// in\n    tag_793:\n        /* \"#utility.yul\":18823:18848   */\n      swap3\n      pop\n        /* \"#utility.yul\":18883:18884   */\n      dup3\n        /* \"#utility.yul\":18880:18881   */\n      dup3\n        /* \"#utility.yul\":18876:18885   */\n      mul\n        /* \"#utility.yul\":18905:18935   */\n      tag_794\n        /* \"#utility.yul\":18923:18934   */\n      dup2\n        /* \"#utility.yul\":18905:18935   */\n      tag_494\n      jump\t// in\n    tag_794:\n        /* \"#utility.yul\":18894:18935   */\n      swap2\n      pop\n        /* \"#utility.yul\":19084:19085   */\n      dup3\n        /* \"#utility.yul\":19075:19082   */\n      dup3\n        /* \"#utility.yul\":19071:19086   */\n      div\n        /* \"#utility.yul\":19068:19069   */\n      dup5\n        /* \"#utility.yul\":19065:19087   */\n      eq\n        /* \"#utility.yul\":19045:19046   */\n      dup4\n        /* \"#utility.yul\":19038:19047   */\n      iszero\n        /* \"#utility.yul\":19018:19101   */\n      or\n        /* \"#utility.yul\":18995:19134   */\n      tag_795\n      jumpi\n        /* \"#utility.yul\":19114:19132   */\n      tag_796\n      tag_545\n      jump\t// in\n    tag_796:\n        /* \"#utility.yul\":18995:19134   */\n    tag_795:\n        /* \"#utility.yul\":18779:19141   */\n      pop\n        /* \"#utility.yul\":18731:19141   */\n      swap3\n      swap2\n      pop\n      pop\n      jump\t// out\n        /* \"#utility.yul\":19147:19338   */\n    tag_216:\n        /* \"#utility.yul\":19187:19190   */\n      0x00\n        /* \"#utility.yul\":19206:19226   */\n      tag_798\n        /* \"#utility.yul\":19224:19225   */\n      dup3\n        /* \"#utility.yul\":19206:19226   */\n      tag_494\n      jump\t// in\n    tag_798:\n        /* \"#utility.yul\":19201:19226   */\n      swap2\n      pop\n        /* \"#utility.yul\":19240:19260   */\n      tag_799\n        /* \"#utility.yul\":19258:19259   */\n      dup4\n        /* \"#utility.yul\":19240:19260   */\n      tag_494\n      jump\t// in\n    tag_799:\n        /* \"#utility.yul\":19235:19260   */\n      swap3\n      pop\n        /* \"#utility.yul\":19283:19284   */\n      dup3\n        /* \"#utility.yul\":19280:19281   */\n      dup3\n        /* \"#utility.yul\":19276:19285   */\n      add\n        /* \"#utility.yul\":19269:19285   */\n      swap1\n      pop\n        /* \"#utility.yul\":19304:19307   */\n      dup1\n        /* \"#utility.yul\":19301:19302   */\n      dup3\n        /* \"#utility.yul\":19298:19308   */\n      gt\n        /* \"#utility.yul\":19295:19331   */\n      iszero\n      tag_800\n      jumpi\n        /* \"#utility.yul\":19311:19329   */\n      tag_801\n      tag_545\n      jump\t// in\n    tag_801:\n        /* \"#utility.yul\":19295:19331   */\n    tag_800:\n        /* \"#utility.yul\":19147:19338   */\n      swap3\n      swap2\n      pop\n      pop\n      jump\t// out\n        /* \"#utility.yul\":19344:19776   */\n    tag_546:\n        /* \"#utility.yul\":19432:19437   */\n      0x00\n        /* \"#utility.yul\":19457:19522   */\n      tag_803\n        /* \"#utility.yul\":19473:19521   */\n      tag_804\n        /* \"#utility.yul\":19514:19520   */\n      dup5\n        /* \"#utility.yul\":19473:19521   */\n      tag_522\n      jump\t// in\n    tag_804:\n        /* \"#utility.yul\":19457:19522   */\n      tag_521\n      jump\t// in\n    tag_803:\n        /* \"#utility.yul\":19448:19522   */\n      swap1\n      pop\n        /* \"#utility.yul\":19545:19551   */\n      dup3\n        /* \"#utility.yul\":19538:19543   */\n      dup2\n        /* \"#utility.yul\":19531:19552   */\n      mstore\n        /* \"#utility.yul\":19583:19587   */\n      0x20\n        /* \"#utility.yul\":19576:19581   */\n      dup2\n        /* \"#utility.yul\":19572:19588   */\n      add\n        /* \"#utility.yul\":19621:19624   */\n      dup5\n        /* \"#utility.yul\":19612:19618   */\n      dup5\n        /* \"#utility.yul\":19607:19610   */\n      dup5\n        /* \"#utility.yul\":19603:19619   */\n      add\n        /* \"#utility.yul\":19600:19625   */\n      gt\n        /* \"#utility.yul\":19597:19709   */\n      iszero\n      tag_805\n      jumpi\n        /* \"#utility.yul\":19628:19707   */\n      tag_806\n      tag_518\n      jump\t// in\n    tag_806:\n        /* \"#utility.yul\":19597:19709   */\n    tag_805:\n        /* \"#utility.yul\":19718:19770   */\n      tag_807\n        /* \"#utility.yul\":19763:19769   */\n      dup5\n        /* \"#utility.yul\":19758:19761   */\n      dup3\n        /* \"#utility.yul\":19753:19756   */\n      dup6\n        /* \"#utility.yul\":19718:19770   */\n      tag_504\n      jump\t// in\n    tag_807:\n        /* \"#utility.yul\":19438:19776   */\n      pop\n        /* \"#utility.yul\":19344:19776   */\n      swap4\n      swap3\n      pop\n      pop\n      pop\n      jump\t// out\n        /* \"#utility.yul\":19795:20148   */\n    tag_547:\n        /* \"#utility.yul\":19861:19866   */\n      0x00\n        /* \"#utility.yul\":19910:19913   */\n      dup3\n        /* \"#utility.yul\":19903:19907   */\n      0x1f\n        /* \"#utility.yul\":19895:19901   */\n      dup4\n        /* \"#utility.yul\":19891:19908   */\n      add\n        /* \"#utility.yul\":19887:19914   */\n      slt\n        /* \"#utility.yul\":19877:19999   */\n      tag_809\n      jumpi\n        /* \"#utility.yul\":19918:19997   */\n      tag_810\n      tag_514\n      jump\t// in\n    tag_810:\n        /* \"#utility.yul\":19877:19999   */\n    tag_809:\n        /* \"#utility.yul\":20028:20034   */\n      dup2\n        /* \"#utility.yul\":20022:20035   */\n      mload\n        /* \"#utility.yul\":20053:20142   */\n      tag_811\n        /* \"#utility.yul\":20138:20141   */\n      dup5\n        /* \"#utility.yul\":20130:20136   */\n      dup3\n        /* \"#utility.yul\":20123:20127   */\n      0x20\n        /* \"#utility.yul\":20115:20121   */\n      dup7\n        /* \"#utility.yul\":20111:20128   */\n      add\n        /* \"#utility.yul\":20053:20142   */\n      tag_546\n      jump\t// in\n    tag_811:\n        /* \"#utility.yul\":20044:20142   */\n      swap2\n      pop\n        /* \"#utility.yul\":19867:20148   */\n      pop\n        /* \"#utility.yul\":19795:20148   */\n      swap3\n      swap2\n      pop\n      pop\n      jump\t// out\n        /* \"#utility.yul\":20154:20676   */\n    tag_222:\n        /* \"#utility.yul\":20233:20239   */\n      0x00\n        /* \"#utility.yul\":20282:20284   */\n      0x20\n        /* \"#utility.yul\":20270:20279   */\n      dup3\n        /* \"#utility.yul\":20261:20268   */\n      dup5\n        /* \"#utility.yul\":20257:20280   */\n      sub\n        /* \"#utility.yul\":20253:20285   */\n      slt\n        /* \"#utility.yul\":20250:20369   */\n      iszero\n      tag_813\n      jumpi\n        /* \"#utility.yul\":20288:20367   */\n      tag_814\n      tag_492\n      jump\t// in\n    tag_814:\n        /* \"#utility.yul\":20250:20369   */\n    tag_813:\n        /* \"#utility.yul\":20429:20430   */\n      0x00\n        /* \"#utility.yul\":20418:20427   */\n      dup3\n        /* \"#utility.yul\":20414:20431   */\n      add\n        /* \"#utility.yul\":20408:20432   */\n      mload\n        /* \"#utility.yul\":20459:20477   */\n      0xffffffffffffffff\n        /* \"#utility.yul\":20451:20457   */\n      dup2\n        /* \"#utility.yul\":20448:20478   */\n      gt\n        /* \"#utility.yul\":20445:20562   */\n      iszero\n      tag_815\n      jumpi\n        /* \"#utility.yul\":20481:20560   */\n      tag_816\n      tag_493\n      jump\t// in\n    tag_816:\n        /* \"#utility.yul\":20445:20562   */\n    tag_815:\n        /* \"#utility.yul\":20586:20659   */\n      tag_817\n        /* \"#utility.yul\":20651:20658   */\n      dup5\n        /* \"#utility.yul\":20642:20648   */\n      dup3\n        /* \"#utility.yul\":20631:20640   */\n      dup6\n        /* \"#utility.yul\":20627:20649   */\n      add\n        /* \"#utility.yul\":20586:20659   */\n      tag_547\n      jump\t// in\n    tag_817:\n        /* \"#utility.yul\":20576:20659   */\n      swap2\n      pop\n        /* \"#utility.yul\":20379:20669   */\n      pop\n        /* \"#utility.yul\":20154:20676   */\n      swap3\n      swap2\n      pop\n      pop\n      jump\t// out\n        /* \"#utility.yul\":20682:20798   */\n    tag_548:\n        /* \"#utility.yul\":20752:20773   */\n      tag_819\n        /* \"#utility.yul\":20767:20772   */\n      dup2\n        /* \"#utility.yul\":20752:20773   */\n      tag_507\n      jump\t// in\n    tag_819:\n        /* \"#utility.yul\":20745:20750   */\n      dup2\n        /* \"#utility.yul\":20742:20774   */\n      eq\n        /* \"#utility.yul\":20732:20792   */\n      tag_820\n      jumpi\n        /* \"#utility.yul\":20788:20789   */\n      0x00\n        /* \"#utility.yul\":20785:20786   */\n      dup1\n        /* \"#utility.yul\":20778:20790   */\n      revert\n        /* \"#utility.yul\":20732:20792   */\n    tag_820:\n        /* \"#utility.yul\":20682:20798   */\n      pop\n      jump\t// out\n        /* \"#utility.yul\":20804:20941   */\n    tag_549:\n        /* \"#utility.yul\":20858:20863   */\n      0x00\n        /* \"#utility.yul\":20889:20895   */\n      dup2\n        /* \"#utility.yul\":20883:20896   */\n      mload\n        /* \"#utility.yul\":20874:20896   */\n      swap1\n      pop\n        /* \"#utility.yul\":20905:20935   */\n      tag_822\n        /* \"#utility.yul\":20929:20934   */\n      dup2\n        /* \"#utility.yul\":20905:20935   */\n      tag_548\n      jump\t// in\n    tag_822:\n        /* \"#utility.yul\":20804:20941   */\n      swap3\n      swap2\n      pop\n      pop\n      jump\t// out\n        /* \"#utility.yul\":20947:21292   */\n    tag_228:\n        /* \"#utility.yul\":21014:21020   */\n      0x00\n        /* \"#utility.yul\":21063:21065   */\n      0x20\n        /* \"#utility.yul\":21051:21060   */\n      dup3\n        /* \"#utility.yul\":21042:21049   */\n      dup5\n        /* \"#utility.yul\":21038:21061   */\n      sub\n        /* \"#utility.yul\":21034:21066   */\n      slt\n        /* \"#utility.yul\":21031:21150   */\n      iszero\n      tag_824\n      jumpi\n        /* \"#utility.yul\":21069:21148   */\n      tag_825\n      tag_492\n      jump\t// in\n    tag_825:\n        /* \"#utility.yul\":21031:21150   */\n    tag_824:\n        /* \"#utility.yul\":21189:21190   */\n      0x00\n        /* \"#utility.yul\":21214:21275   */\n      tag_826\n        /* \"#utility.yul\":21267:21274   */\n      dup5\n        /* \"#utility.yul\":21258:21264   */\n      dup3\n        /* \"#utility.yul\":21247:21256   */\n      dup6\n        /* \"#utility.yul\":21243:21265   */\n      add\n        /* \"#utility.yul\":21214:21275   */\n      tag_549\n      jump\t// in\n    tag_826:\n        /* \"#utility.yul\":21204:21275   */\n      swap2\n      pop\n        /* \"#utility.yul\":21160:21285   */\n      pop\n        /* \"#utility.yul\":20947:21292   */\n      swap3\n      swap2\n      pop\n      pop\n      jump\t// out\n        /* \"#utility.yul\":21298:21478   */\n    tag_240:\n        /* \"#utility.yul\":21346:21423   */\n      0x4e487b7100000000000000000000000000000000000000000000000000000000\n        /* \"#utility.yul\":21343:21344   */\n      0x00\n        /* \"#utility.yul\":21336:21424   */\n      mstore\n        /* \"#utility.yul\":21443:21447   */\n      0x32\n        /* \"#utility.yul\":21440:21441   */\n      0x04\n        /* \"#utility.yul\":21433:21448   */\n      mstore\n        /* \"#utility.yul\":21467:21471   */\n      0x24\n        /* \"#utility.yul\":21464:21465   */\n      0x00\n        /* \"#utility.yul\":21457:21472   */\n      revert\n        /* \"#utility.yul\":21484:21678   */\n    tag_244:\n        /* \"#utility.yul\":21524:21528   */\n      0x00\n        /* \"#utility.yul\":21544:21564   */\n      tag_829\n        /* \"#utility.yul\":21562:21563   */\n      dup3\n        /* \"#utility.yul\":21544:21564   */\n      tag_494\n      jump\t// in\n    tag_829:\n        /* \"#utility.yul\":21539:21564   */\n      swap2\n      pop\n        /* \"#utility.yul\":21578:21598   */\n      tag_830\n        /* \"#utility.yul\":21596:21597   */\n      dup4\n        /* \"#utility.yul\":21578:21598   */\n      tag_494\n      jump\t// in\n    tag_830:\n        /* \"#utility.yul\":21573:21598   */\n      swap3\n      pop\n        /* \"#utility.yul\":21622:21623   */\n      dup3\n        /* \"#utility.yul\":21619:21620   */\n      dup3\n        /* \"#utility.yul\":21615:21624   */\n      sub\n        /* \"#utility.yul\":21607:21624   */\n      swap1\n      pop\n        /* \"#utility.yul\":21646:21647   */\n      dup2\n        /* \"#utility.yul\":21640:21644   */\n      dup2\n        /* \"#utility.yul\":21637:21648   */\n      gt\n        /* \"#utility.yul\":21634:21671   */\n      iszero\n      tag_831\n      jumpi\n        /* \"#utility.yul\":21651:21669   */\n      tag_832\n      tag_545\n      jump\t// in\n    tag_832:\n        /* \"#utility.yul\":21634:21671   */\n    tag_831:\n        /* \"#utility.yul\":21484:21678   */\n      swap3\n      swap2\n      pop\n      pop\n      jump\t// out\n        /* \"#utility.yul\":21684:21831   */\n    tag_550:\n        /* \"#utility.yul\":21785:21796   */\n      0x00\n        /* \"#utility.yul\":21822:21825   */\n      dup2\n        /* \"#utility.yul\":21807:21825   */\n      swap1\n      pop\n        /* \"#utility.yul\":21684:21831   */\n      swap3\n      swap2\n      pop\n      pop\n      jump\t// out\n        /* \"#utility.yul\":21837:21951   */\n    tag_551:\n      pop\n      jump\t// out\n        /* \"#utility.yul\":21957:22355   */\n    tag_552:\n        /* \"#utility.yul\":22116:22119   */\n      0x00\n        /* \"#utility.yul\":22137:22220   */\n      tag_836\n        /* \"#utility.yul\":22218:22219   */\n      0x00\n        /* \"#utility.yul\":22213:22216   */\n      dup4\n        /* \"#utility.yul\":22137:22220   */\n      tag_550\n      jump\t// in\n    tag_836:\n        /* \"#utility.yul\":22130:22220   */\n      swap2\n      pop\n        /* \"#utility.yul\":22229:22322   */\n      tag_837\n        /* \"#utility.yul\":22318:22321   */\n      dup3\n        /* \"#utility.yul\":22229:22322   */\n      tag_551\n      jump\t// in\n    tag_837:\n        /* \"#utility.yul\":22347:22348   */\n      0x00\n        /* \"#utility.yul\":22342:22345   */\n      dup3\n        /* \"#utility.yul\":22338:22349   */\n      add\n        /* \"#utility.yul\":22331:22349   */\n      swap1\n      pop\n        /* \"#utility.yul\":21957:22355   */\n      swap2\n      swap1\n      pop\n      jump\t// out\n        /* \"#utility.yul\":22361:22740   */\n    tag_246:\n        /* \"#utility.yul\":22545:22548   */\n      0x00\n        /* \"#utility.yul\":22567:22714   */\n      tag_839\n        /* \"#utility.yul\":22710:22713   */\n      dup3\n        /* \"#utility.yul\":22567:22714   */\n      tag_552\n      jump\t// in\n    tag_839:\n        /* \"#utility.yul\":22560:22714   */\n      swap2\n      pop\n        /* \"#utility.yul\":22731:22734   */\n      dup2\n        /* \"#utility.yul\":22724:22734   */\n      swap1\n      pop\n        /* \"#utility.yul\":22361:22740   */\n      swap2\n      swap1\n      pop\n      jump\t// out\n        /* \"#utility.yul\":22746:22911   */\n    tag_553:\n        /* \"#utility.yul\":22886:22903   */\n      0x7769746864726177206661696c65640000000000000000000000000000000000\n        /* \"#utility.yul\":22882:22883   */\n      0x00\n        /* \"#utility.yul\":22874:22880   */\n      dup3\n        /* \"#utility.yul\":22870:22884   */\n      add\n        /* \"#utility.yul\":22863:22904   */\n      mstore\n        /* \"#utility.yul\":22746:22911   */\n      pop\n      jump\t// out\n        /* \"#utility.yul\":22917:23283   */\n    tag_554:\n        /* \"#utility.yul\":23059:23062   */\n      0x00\n        /* \"#utility.yul\":23080:23147   */\n      tag_842\n        /* \"#utility.yul\":23144:23146   */\n      0x0f\n        /* \"#utility.yul\":23139:23142   */\n      dup4\n        /* \"#utility.yul\":23080:23147   */\n      tag_540\n      jump\t// in\n    tag_842:\n        /* \"#utility.yul\":23073:23147   */\n      swap2\n      pop\n        /* \"#utility.yul\":23156:23249   */\n      tag_843\n        /* \"#utility.yul\":23245:23248   */\n      dup3\n        /* \"#utility.yul\":23156:23249   */\n      tag_553\n      jump\t// in\n    tag_843:\n        /* \"#utility.yul\":23274:23276   */\n      0x20\n        /* \"#utility.yul\":23269:23272   */\n      dup3\n        /* \"#utility.yul\":23265:23277   */\n      add\n        /* \"#utility.yul\":23258:23277   */\n      swap1\n      pop\n        /* \"#utility.yul\":22917:23283   */\n      swap2\n      swap1\n      pop\n      jump\t// out\n        /* \"#utility.yul\":23289:23708   */\n    tag_252:\n        /* \"#utility.yul\":23455:23459   */\n      0x00\n        /* \"#utility.yul\":23493:23495   */\n      0x20\n        /* \"#utility.yul\":23482:23491   */\n      dup3\n        /* \"#utility.yul\":23478:23496   */\n      add\n        /* \"#utility.yul\":23470:23496   */\n      swap1\n      pop\n        /* \"#utility.yul\":23542:23551   */\n      dup2\n        /* \"#utility.yul\":23536:23540   */\n      dup2\n        /* \"#utility.yul\":23532:23552   */\n      sub\n        /* \"#utility.yul\":23528:23529   */\n      0x00\n        /* \"#utility.yul\":23517:23526   */\n      dup4\n        /* \"#utility.yul\":23513:23530   */\n      add\n        /* \"#utility.yul\":23506:23553   */\n      mstore\n        /* \"#utility.yul\":23570:23701   */\n      tag_845\n        /* \"#utility.yul\":23696:23700   */\n      dup2\n        /* \"#utility.yul\":23570:23701   */\n      tag_554\n      jump\t// in\n    tag_845:\n        /* \"#utility.yul\":23562:23701   */\n      swap1\n      pop\n        /* \"#utility.yul\":23289:23708   */\n      swap2\n      swap1\n      pop\n      jump\t// out\n        /* \"#utility.yul\":23714:23891   */\n    tag_555:\n        /* \"#utility.yul\":23854:23883   */\n      0x70657263656e746167652073686f756c64206265203c3d203130300000000000\n        /* \"#utility.yul\":23850:23851   */\n      0x00\n        /* \"#utility.yul\":23842:23848   */\n      dup3\n        /* \"#utility.yul\":23838:23852   */\n      add\n        /* \"#utility.yul\":23831:23884   */\n      mstore\n        /* \"#utility.yul\":23714:23891   */\n      pop\n      jump\t// out\n        /* \"#utility.yul\":23897:24263   */\n    tag_556:\n        /* \"#utility.yul\":24039:24042   */\n      0x00\n        /* \"#utility.yul\":24060:24127   */\n      tag_848\n        /* \"#utility.yul\":24124:24126   */\n      0x1b\n        /* \"#utility.yul\":24119:24122   */\n      dup4\n        /* \"#utility.yul\":24060:24127   */\n      tag_540\n      jump\t// in\n    tag_848:\n        /* \"#utility.yul\":24053:24127   */\n      swap2\n      pop\n        /* \"#utility.yul\":24136:24229   */\n      tag_849\n        /* \"#utility.yul\":24225:24228   */\n      dup3\n        /* \"#utility.yul\":24136:24229   */\n      tag_555\n      jump\t// in\n    tag_849:\n        /* \"#utility.yul\":24254:24256   */\n      0x20\n        /* \"#utility.yul\":24249:24252   */\n      dup3\n        /* \"#utility.yul\":24245:24257   */\n      add\n        /* \"#utility.yul\":24238:24257   */\n      swap1\n      pop\n        /* \"#utility.yul\":23897:24263   */\n      swap2\n      swap1\n      pop\n      jump\t// out\n        /* \"#utility.yul\":24269:24688   */\n    tag_270:\n        /* \"#utility.yul\":24435:24439   */\n      0x00\n        /* \"#utility.yul\":24473:24475   */\n      0x20\n        /* \"#utility.yul\":24462:24471   */\n      dup3\n        /* \"#utility.yul\":24458:24476   */\n      add\n        /* \"#utility.yul\":24450:24476   */\n      swap1\n      pop\n        /* \"#utility.yul\":24522:24531   */\n      dup2\n        /* \"#utility.yul\":24516:24520   */\n      dup2\n        /* \"#utility.yul\":24512:24532   */\n      sub\n        /* \"#utility.yul\":24508:24509   */\n      0x00\n        /* \"#utility.yul\":24497:24506   */\n      dup4\n        /* \"#utility.yul\":24493:24510   */\n      add\n        /* \"#utility.yul\":24486:24533   */\n      mstore\n        /* \"#utility.yul\":24550:24681   */\n      tag_851\n        /* \"#utility.yul\":24676:24680   */\n      dup2\n        /* \"#utility.yul\":24550:24681   */\n      tag_556\n      jump\t// in\n    tag_851:\n        /* \"#utility.yul\":24542:24681   */\n      swap1\n      pop\n        /* \"#utility.yul\":24269:24688   */\n      swap2\n      swap1\n      pop\n      jump\t// out\n        /* \"#utility.yul\":24694:24812   */\n    tag_557:\n        /* \"#utility.yul\":24781:24805   */\n      tag_853\n        /* \"#utility.yul\":24799:24804   */\n      dup2\n        /* \"#utility.yul\":24781:24805   */\n      tag_511\n      jump\t// in\n    tag_853:\n        /* \"#utility.yul\":24776:24779   */\n      dup3\n        /* \"#utility.yul\":24769:24806   */\n      mstore\n        /* \"#utility.yul\":24694:24812   */\n      pop\n      pop\n      jump\t// out\n        /* \"#utility.yul\":24818:25150   */\n    tag_272:\n        /* \"#utility.yul\":24939:24943   */\n      0x00\n        /* \"#utility.yul\":24977:24979   */\n      0x40\n        /* \"#utility.yul\":24966:24975   */\n      dup3\n        /* \"#utility.yul\":24962:24980   */\n      add\n        /* \"#utility.yul\":24954:24980   */\n      swap1\n      pop\n        /* \"#utility.yul\":24990:25061   */\n      tag_855\n        /* \"#utility.yul\":25058:25059   */\n      0x00\n        /* \"#utility.yul\":25047:25056   */\n      dup4\n        /* \"#utility.yul\":25043:25060   */\n      add\n        /* \"#utility.yul\":25034:25040   */\n      dup6\n        /* \"#utility.yul\":24990:25061   */\n      tag_557\n      jump\t// in\n    tag_855:\n        /* \"#utility.yul\":25071:25143   */\n      tag_856\n        /* \"#utility.yul\":25139:25141   */\n      0x20\n        /* \"#utility.yul\":25128:25137   */\n      dup4\n        /* \"#utility.yul\":25124:25142   */\n      add\n        /* \"#utility.yul\":25115:25121   */\n      dup5\n        /* \"#utility.yul\":25071:25143   */\n      tag_557\n      jump\t// in\n    tag_856:\n        /* \"#utility.yul\":24818:25150   */\n      swap4\n      swap3\n      pop\n      pop\n      pop\n      jump\t// out\n        /* \"#utility.yul\":25156:25329   */\n    tag_558:\n        /* \"#utility.yul\":25296:25321   */\n      0x41646472657373206e6f742077686974656c6973746564000000000000000000\n        /* \"#utility.yul\":25292:25293   */\n      0x00\n        /* \"#utility.yul\":25284:25290   */\n      dup3\n        /* \"#utility.yul\":25280:25294   */\n      add\n        /* \"#utility.yul\":25273:25322   */\n      mstore\n        /* \"#utility.yul\":25156:25329   */\n      pop\n      jump\t// out\n        /* \"#utility.yul\":25335:25701   */\n    tag_559:\n        /* \"#utility.yul\":25477:25480   */\n      0x00\n        /* \"#utility.yul\":25498:25565   */\n      tag_859\n        /* \"#utility.yul\":25562:25564   */\n      0x17\n        /* \"#utility.yul\":25557:25560   */\n      dup4\n        /* \"#utility.yul\":25498:25565   */\n      tag_540\n      jump\t// in\n    tag_859:\n        /* \"#utility.yul\":25491:25565   */\n      swap2\n      pop\n        /* \"#utility.yul\":25574:25667   */\n      tag_860\n        /* \"#utility.yul\":25663:25666   */\n      dup3\n        /* \"#utility.yul\":25574:25667   */\n      tag_558\n      jump\t// in\n    tag_860:\n        /* \"#utility.yul\":25692:25694   */\n      0x20\n        /* \"#utility.yul\":25687:25690   */\n      dup3\n        /* \"#utility.yul\":25683:25695   */\n      add\n        /* \"#utility.yul\":25676:25695   */\n      swap1\n      pop\n        /* \"#utility.yul\":25335:25701   */\n      swap2\n      swap1\n      pop\n      jump\t// out\n        /* \"#utility.yul\":25707:26126   */\n    tag_279:\n        /* \"#utility.yul\":25873:25877   */\n      0x00\n        /* \"#utility.yul\":25911:25913   */\n      0x20\n        /* \"#utility.yul\":25900:25909   */\n      dup3\n        /* \"#utility.yul\":25896:25914   */\n      add\n        /* \"#utility.yul\":25888:25914   */\n      swap1\n      pop\n        /* \"#utility.yul\":25960:25969   */\n      dup2\n        /* \"#utility.yul\":25954:25958   */\n      dup2\n        /* \"#utility.yul\":25950:25970   */\n      sub\n        /* \"#utility.yul\":25946:25947   */\n      0x00\n        /* \"#utility.yul\":25935:25944   */\n      dup4\n        /* \"#utility.yul\":25931:25948   */\n      add\n        /* \"#utility.yul\":25924:25971   */\n      mstore\n        /* \"#utility.yul\":25988:26119   */\n      tag_862\n        /* \"#utility.yul\":26114:26118   */\n      dup2\n        /* \"#utility.yul\":25988:26119   */\n      tag_559\n      jump\t// in\n    tag_862:\n        /* \"#utility.yul\":25980:26119   */\n      swap1\n      pop\n        /* \"#utility.yul\":25707:26126   */\n      swap2\n      swap1\n      pop\n      jump\t// out\n        /* \"#utility.yul\":26154:26468   */\n    tag_560:\n        /* \"#utility.yul\":26250:26253   */\n      0x00\n        /* \"#utility.yul\":26271:26341   */\n      tag_864\n        /* \"#utility.yul\":26334:26340   */\n      dup4\n        /* \"#utility.yul\":26329:26332   */\n      dup6\n        /* \"#utility.yul\":26271:26341   */\n      tag_503\n      jump\t// in\n    tag_864:\n        /* \"#utility.yul\":26264:26341   */\n      swap4\n      pop\n        /* \"#utility.yul\":26351:26407   */\n      tag_865\n        /* \"#utility.yul\":26400:26406   */\n      dup4\n        /* \"#utility.yul\":26395:26398   */\n      dup6\n        /* \"#utility.yul\":26388:26393   */\n      dup5\n        /* \"#utility.yul\":26351:26407   */\n      tag_523\n      jump\t// in\n    tag_865:\n        /* \"#utility.yul\":26432:26461   */\n      tag_866\n        /* \"#utility.yul\":26454:26460   */\n      dup4\n        /* \"#utility.yul\":26432:26461   */\n      tag_505\n      jump\t// in\n    tag_866:\n        /* \"#utility.yul\":26427:26430   */\n      dup5\n        /* \"#utility.yul\":26423:26462   */\n      add\n        /* \"#utility.yul\":26416:26462   */\n      swap1\n      pop\n        /* \"#utility.yul\":26154:26468   */\n      swap4\n      swap3\n      pop\n      pop\n      pop\n      jump\t// out\n        /* \"#utility.yul\":26474:26913   */\n    tag_282:\n        /* \"#utility.yul\":26623:26627   */\n      0x00\n        /* \"#utility.yul\":26661:26663   */\n      0x40\n        /* \"#utility.yul\":26650:26659   */\n      dup3\n        /* \"#utility.yul\":26646:26664   */\n      add\n        /* \"#utility.yul\":26638:26664   */\n      swap1\n      pop\n        /* \"#utility.yul\":26674:26745   */\n      tag_868\n        /* \"#utility.yul\":26742:26743   */\n      0x00\n        /* \"#utility.yul\":26731:26740   */\n      dup4\n        /* \"#utility.yul\":26727:26744   */\n      add\n        /* \"#utility.yul\":26718:26724   */\n      dup7\n        /* \"#utility.yul\":26674:26745   */\n      tag_501\n      jump\t// in\n    tag_868:\n        /* \"#utility.yul\":26792:26801   */\n      dup2\n        /* \"#utility.yul\":26786:26790   */\n      dup2\n        /* \"#utility.yul\":26782:26802   */\n      sub\n        /* \"#utility.yul\":26777:26779   */\n      0x20\n        /* \"#utility.yul\":26766:26775   */\n      dup4\n        /* \"#utility.yul\":26762:26780   */\n      add\n        /* \"#utility.yul\":26755:26803   */\n      mstore\n        /* \"#utility.yul\":26820:26906   */\n      tag_869\n        /* \"#utility.yul\":26901:26905   */\n      dup2\n        /* \"#utility.yul\":26892:26898   */\n      dup5\n        /* \"#utility.yul\":26884:26890   */\n      dup7\n        /* \"#utility.yul\":26820:26906   */\n      tag_560\n      jump\t// in\n    tag_869:\n        /* \"#utility.yul\":26812:26906   */\n      swap1\n      pop\n        /* \"#utility.yul\":26474:26913   */\n      swap5\n      swap4\n      pop\n      pop\n      pop\n      pop\n      jump\t// out\n        /* \"#utility.yul\":26919:27099   */\n    tag_561:\n        /* \"#utility.yul\":26967:27044   */\n      0x4e487b7100000000000000000000000000000000000000000000000000000000\n        /* \"#utility.yul\":26964:26965   */\n      0x00\n        /* \"#utility.yul\":26957:27045   */\n      mstore\n        /* \"#utility.yul\":27064:27068   */\n      0x22\n        /* \"#utility.yul\":27061:27062   */\n      0x04\n        /* \"#utility.yul\":27054:27069   */\n      mstore\n        /* \"#utility.yul\":27088:27092   */\n      0x24\n        /* \"#utility.yul\":27085:27086   */\n      0x00\n        /* \"#utility.yul\":27078:27093   */\n      revert\n        /* \"#utility.yul\":27105:27425   */\n    tag_387:\n        /* \"#utility.yul\":27149:27155   */\n      0x00\n        /* \"#utility.yul\":27186:27187   */\n      0x02\n        /* \"#utility.yul\":27180:27184   */\n      dup3\n        /* \"#utility.yul\":27176:27188   */\n      div\n        /* \"#utility.yul\":27166:27188   */\n      swap1\n      pop\n        /* \"#utility.yul\":27233:27234   */\n      0x01\n        /* \"#utility.yul\":27227:27231   */\n      dup3\n        /* \"#utility.yul\":27223:27235   */\n      and\n        /* \"#utility.yul\":27254:27272   */\n      dup1\n        /* \"#utility.yul\":27244:27325   */\n      tag_872\n      jumpi\n        /* \"#utility.yul\":27310:27314   */\n      0x7f\n        /* \"#utility.yul\":27302:27308   */\n      dup3\n        /* \"#utility.yul\":27298:27315   */\n      and\n        /* \"#utility.yul\":27288:27315   */\n      swap2\n      pop\n        /* \"#utility.yul\":27244:27325   */\n    tag_872:\n        /* \"#utility.yul\":27372:27374   */\n      0x20\n        /* \"#utility.yul\":27364:27370   */\n      dup3\n        /* \"#utility.yul\":27361:27375   */\n      lt\n        /* \"#utility.yul\":27341:27359   */\n      dup2\n        /* \"#utility.yul\":27338:27376   */\n      sub\n        /* \"#utility.yul\":27335:27419   */\n      tag_873\n      jumpi\n        /* \"#utility.yul\":27391:27409   */\n      tag_874\n      tag_561\n      jump\t// in\n    tag_874:\n        /* \"#utility.yul\":27335:27419   */\n    tag_873:\n        /* \"#utility.yul\":27156:27425   */\n      pop\n        /* \"#utility.yul\":27105:27425   */\n      swap2\n      swap1\n      pop\n      jump\t// out\n        /* \"#utility.yul\":27431:27571   */\n    tag_562:\n        /* \"#utility.yul\":27479:27483   */\n      0x00\n        /* \"#utility.yul\":27502:27505   */\n      dup2\n        /* \"#utility.yul\":27494:27505   */\n      swap1\n      pop\n        /* \"#utility.yul\":27525:27528   */\n      dup2\n        /* \"#utility.yul\":27522:27523   */\n      0x00\n        /* \"#utility.yul\":27515:27529   */\n      mstore\n        /* \"#utility.yul\":27559:27563   */\n      0x20\n        /* \"#utility.yul\":27556:27557   */\n      0x00\n        /* \"#utility.yul\":27546:27564   */\n      keccak256\n        /* \"#utility.yul\":27538:27564   */\n      swap1\n      pop\n        /* \"#utility.yul\":27431:27571   */\n      swap2\n      swap1\n      pop\n      jump\t// out\n        /* \"#utility.yul\":27599:28426   */\n    tag_563:\n        /* \"#utility.yul\":27682:27685   */\n      0x00\n        /* \"#utility.yul\":27719:27724   */\n      dup2\n        /* \"#utility.yul\":27713:27725   */\n      sload\n        /* \"#utility.yul\":27748:27784   */\n      tag_877\n        /* \"#utility.yul\":27774:27783   */\n      dup2\n        /* \"#utility.yul\":27748:27784   */\n      tag_387\n      jump\t// in\n    tag_877:\n        /* \"#utility.yul\":27800:27870   */\n      tag_878\n        /* \"#utility.yul\":27863:27869   */\n      dup2\n        /* \"#utility.yul\":27858:27861   */\n      dup7\n        /* \"#utility.yul\":27800:27870   */\n      tag_503\n      jump\t// in\n    tag_878:\n        /* \"#utility.yul\":27793:27870   */\n      swap5\n      pop\n        /* \"#utility.yul\":27901:27902   */\n      0x01\n        /* \"#utility.yul\":27890:27899   */\n      dup3\n        /* \"#utility.yul\":27886:27903   */\n      and\n        /* \"#utility.yul\":27917:27918   */\n      0x00\n        /* \"#utility.yul\":27912:28076   */\n      dup2\n      eq\n      tag_880\n      jumpi\n        /* \"#utility.yul\":28090:28091   */\n      0x01\n        /* \"#utility.yul\":28085:28420   */\n      dup2\n      eq\n      tag_881\n      jumpi\n        /* \"#utility.yul\":27879:28420   */\n      jump(tag_879)\n        /* \"#utility.yul\":27912:28076   */\n    tag_880:\n        /* \"#utility.yul\":27996:28000   */\n      0xff\n        /* \"#utility.yul\":27992:28001   */\n      not\n        /* \"#utility.yul\":27981:27990   */\n      dup4\n        /* \"#utility.yul\":27977:28002   */\n      and\n        /* \"#utility.yul\":27972:27975   */\n      dup7\n        /* \"#utility.yul\":27965:28003   */\n      mstore\n        /* \"#utility.yul\":28056:28062   */\n      dup2\n        /* \"#utility.yul\":28049:28063   */\n      iszero\n        /* \"#utility.yul\":28042:28064   */\n      iszero\n        /* \"#utility.yul\":28036:28040   */\n      0x20\n        /* \"#utility.yul\":28032:28065   */\n      mul\n        /* \"#utility.yul\":28027:28030   */\n      dup7\n        /* \"#utility.yul\":28023:28066   */\n      add\n        /* \"#utility.yul\":28016:28066   */\n      swap4\n      pop\n        /* \"#utility.yul\":27912:28076   */\n      jump(tag_879)\n        /* \"#utility.yul\":28085:28420   */\n    tag_881:\n        /* \"#utility.yul\":28152:28189   */\n      tag_882\n        /* \"#utility.yul\":28183:28188   */\n      dup6\n        /* \"#utility.yul\":28152:28189   */\n      tag_562\n      jump\t// in\n    tag_882:\n        /* \"#utility.yul\":28211:28212   */\n      0x00\n        /* \"#utility.yul\":28225:28379   */\n    tag_883:\n        /* \"#utility.yul\":28239:28245   */\n      dup4\n        /* \"#utility.yul\":28236:28237   */\n      dup2\n        /* \"#utility.yul\":28233:28246   */\n      lt\n        /* \"#utility.yul\":28225:28379   */\n      iszero\n      tag_885\n      jumpi\n        /* \"#utility.yul\":28313:28320   */\n      dup2\n        /* \"#utility.yul\":28307:28321   */\n      sload\n        /* \"#utility.yul\":28303:28304   */\n      dup2\n        /* \"#utility.yul\":28298:28301   */\n      dup10\n        /* \"#utility.yul\":28294:28305   */\n      add\n        /* \"#utility.yul\":28287:28322   */\n      mstore\n        /* \"#utility.yul\":28363:28364   */\n      0x01\n        /* \"#utility.yul\":28354:28361   */\n      dup3\n        /* \"#utility.yul\":28350:28365   */\n      add\n        /* \"#utility.yul\":28339:28365   */\n      swap2\n      pop\n        /* \"#utility.yul\":28261:28265   */\n      0x20\n        /* \"#utility.yul\":28258:28259   */\n      dup2\n        /* \"#utility.yul\":28254:28266   */\n      add\n        /* \"#utility.yul\":28249:28266   */\n      swap1\n      pop\n        /* \"#utility.yul\":28225:28379   */\n      jump(tag_883)\n    tag_885:\n        /* \"#utility.yul\":28408:28409   */\n      dup1\n        /* \"#utility.yul\":28403:28406   */\n      dup9\n        /* \"#utility.yul\":28399:28410   */\n      add\n        /* \"#utility.yul\":28392:28410   */\n      swap6\n      pop\n        /* \"#utility.yul\":28092:28420   */\n      pop\n      pop\n        /* \"#utility.yul\":27879:28420   */\n    tag_879:\n      pop\n        /* \"#utility.yul\":27686:28426   */\n      pop\n      pop\n        /* \"#utility.yul\":27599:28426   */\n      swap3\n      swap2\n      pop\n      pop\n      jump\t// out\n        /* \"#utility.yul\":28432:29062   */\n    tag_288:\n        /* \"#utility.yul\":28624:28628   */\n      0x00\n        /* \"#utility.yul\":28662:28664   */\n      0x60\n        /* \"#utility.yul\":28651:28660   */\n      dup3\n        /* \"#utility.yul\":28647:28665   */\n      add\n        /* \"#utility.yul\":28639:28665   */\n      swap1\n      pop\n        /* \"#utility.yul\":28675:28746   */\n      tag_887\n        /* \"#utility.yul\":28743:28744   */\n      0x00\n        /* \"#utility.yul\":28732:28741   */\n      dup4\n        /* \"#utility.yul\":28728:28745   */\n      add\n        /* \"#utility.yul\":28719:28725   */\n      dup8\n        /* \"#utility.yul\":28675:28746   */\n      tag_501\n      jump\t// in\n    tag_887:\n        /* \"#utility.yul\":28793:28802   */\n      dup2\n        /* \"#utility.yul\":28787:28791   */\n      dup2\n        /* \"#utility.yul\":28783:28803   */\n      sub\n        /* \"#utility.yul\":28778:28780   */\n      0x20\n        /* \"#utility.yul\":28767:28776   */\n      dup4\n        /* \"#utility.yul\":28763:28781   */\n      add\n        /* \"#utility.yul\":28756:28804   */\n      mstore\n        /* \"#utility.yul\":28821:28907   */\n      tag_888\n        /* \"#utility.yul\":28902:28906   */\n      dup2\n        /* \"#utility.yul\":28893:28899   */\n      dup6\n        /* \"#utility.yul\":28885:28891   */\n      dup8\n        /* \"#utility.yul\":28821:28907   */\n      tag_560\n      jump\t// in\n    tag_888:\n        /* \"#utility.yul\":28813:28907   */\n      swap1\n      pop\n        /* \"#utility.yul\":28954:28963   */\n      dup2\n        /* \"#utility.yul\":28948:28952   */\n      dup2\n        /* \"#utility.yul\":28944:28964   */\n      sub\n        /* \"#utility.yul\":28939:28941   */\n      0x40\n        /* \"#utility.yul\":28928:28937   */\n      dup4\n        /* \"#utility.yul\":28924:28942   */\n      add\n        /* \"#utility.yul\":28917:28965   */\n      mstore\n        /* \"#utility.yul\":28982:29055   */\n      tag_889\n        /* \"#utility.yul\":29050:29054   */\n      dup2\n        /* \"#utility.yul\":29041:29047   */\n      dup5\n        /* \"#utility.yul\":28982:29055   */\n      tag_563\n      jump\t// in\n    tag_889:\n        /* \"#utility.yul\":28974:29055   */\n      swap1\n      pop\n        /* \"#utility.yul\":28432:29062   */\n      swap6\n      swap5\n      pop\n      pop\n      pop\n      pop\n      pop\n      jump\t// out\n        /* \"#utility.yul\":29068:29454   */\n    tag_564:\n        /* \"#utility.yul\":29172:29175   */\n      0x00\n        /* \"#utility.yul\":29200:29238   */\n      tag_891\n        /* \"#utility.yul\":29232:29237   */\n      dup3\n        /* \"#utility.yul\":29200:29238   */\n      tag_502\n      jump\t// in\n    tag_891:\n        /* \"#utility.yul\":29254:29342   */\n      tag_892\n        /* \"#utility.yul\":29335:29341   */\n      dup2\n        /* \"#utility.yul\":29330:29333   */\n      dup6\n        /* \"#utility.yul\":29254:29342   */\n      tag_550\n      jump\t// in\n    tag_892:\n        /* \"#utility.yul\":29247:29342   */\n      swap4\n      pop\n        /* \"#utility.yul\":29351:29416   */\n      tag_893\n        /* \"#utility.yul\":29409:29415   */\n      dup2\n        /* \"#utility.yul\":29404:29407   */\n      dup6\n        /* \"#utility.yul\":29397:29401   */\n      0x20\n        /* \"#utility.yul\":29390:29395   */\n      dup7\n        /* \"#utility.yul\":29386:29402   */\n      add\n        /* \"#utility.yul\":29351:29416   */\n      tag_504\n      jump\t// in\n    tag_893:\n        /* \"#utility.yul\":29441:29447   */\n      dup1\n        /* \"#utility.yul\":29436:29439   */\n      dup5\n        /* \"#utility.yul\":29432:29448   */\n      add\n        /* \"#utility.yul\":29425:29448   */\n      swap2\n      pop\n        /* \"#utility.yul\":29176:29454   */\n      pop\n        /* \"#utility.yul\":29068:29454   */\n      swap3\n      swap2\n      pop\n      pop\n      jump\t// out\n        /* \"#utility.yul\":29460:29731   */\n    tag_290:\n        /* \"#utility.yul\":29590:29593   */\n      0x00\n        /* \"#utility.yul\":29612:29705   */\n      tag_895\n        /* \"#utility.yul\":29701:29704   */\n      dup3\n        /* \"#utility.yul\":29692:29698   */\n      dup5\n        /* \"#utility.yul\":29612:29705   */\n      tag_564\n      jump\t// in\n    tag_895:\n        /* \"#utility.yul\":29605:29705   */\n      swap2\n      pop\n        /* \"#utility.yul\":29722:29725   */\n      dup2\n        /* \"#utility.yul\":29715:29725   */\n      swap1\n      pop\n        /* \"#utility.yul\":29460:29731   */\n      swap3\n      swap2\n      pop\n      pop\n      jump\t// out\n        /* \"#utility.yul\":29737:29910   */\n    tag_565:\n        /* \"#utility.yul\":29877:29902   */\n      0x6661696c656420746f2063616c6c2073656c6563746f72000000000000000000\n        /* \"#utility.yul\":29873:29874   */\n      0x00\n        /* \"#utility.yul\":29865:29871   */\n      dup3\n        /* \"#utility.yul\":29861:29875   */\n      add\n        /* \"#utility.yul\":29854:29903   */\n      mstore\n        /* \"#utility.yul\":29737:29910   */\n      pop\n      jump\t// out\n        /* \"#utility.yul\":29916:30282   */\n    tag_566:\n        /* \"#utility.yul\":30058:30061   */\n      0x00\n        /* \"#utility.yul\":30079:30146   */\n      tag_898\n        /* \"#utility.yul\":30143:30145   */\n      0x17\n        /* \"#utility.yul\":30138:30141   */\n      dup4\n        /* \"#utility.yul\":30079:30146   */\n      tag_540\n      jump\t// in\n    tag_898:\n        /* \"#utility.yul\":30072:30146   */\n      swap2\n      pop\n        /* \"#utility.yul\":30155:30248   */\n      tag_899\n        /* \"#utility.yul\":30244:30247   */\n      dup3\n        /* \"#utility.yul\":30155:30248   */\n      tag_565\n      jump\t// in\n    tag_899:\n        /* \"#utility.yul\":30273:30275   */\n      0x20\n        /* \"#utility.yul\":30268:30271   */\n      dup3\n        /* \"#utility.yul\":30264:30276   */\n      add\n        /* \"#utility.yul\":30257:30276   */\n      swap1\n      pop\n        /* \"#utility.yul\":29916:30282   */\n      swap2\n      swap1\n      pop\n      jump\t// out\n        /* \"#utility.yul\":30288:30707   */\n    tag_296:\n        /* \"#utility.yul\":30454:30458   */\n      0x00\n        /* \"#utility.yul\":30492:30494   */\n      0x20\n        /* \"#utility.yul\":30481:30490   */\n      dup3\n        /* \"#utility.yul\":30477:30495   */\n      add\n        /* \"#utility.yul\":30469:30495   */\n      swap1\n      pop\n        /* \"#utility.yul\":30541:30550   */\n      dup2\n        /* \"#utility.yul\":30535:30539   */\n      dup2\n        /* \"#utility.yul\":30531:30551   */\n      sub\n        /* \"#utility.yul\":30527:30528   */\n      0x00\n        /* \"#utility.yul\":30516:30525   */\n      dup4\n        /* \"#utility.yul\":30512:30529   */\n      add\n        /* \"#utility.yul\":30505:30552   */\n      mstore\n        /* \"#utility.yul\":30569:30700   */\n      tag_901\n        /* \"#utility.yul\":30695:30699   */\n      dup2\n        /* \"#utility.yul\":30569:30700   */\n      tag_566\n      jump\t// in\n    tag_901:\n        /* \"#utility.yul\":30561:30700   */\n      swap1\n      pop\n        /* \"#utility.yul\":30288:30707   */\n      swap2\n      swap1\n      pop\n      jump\t// out\n        /* \"#utility.yul\":30713:31152   */\n    tag_299:\n        /* \"#utility.yul\":30862:30866   */\n      0x00\n        /* \"#utility.yul\":30900:30902   */\n      0x40\n        /* \"#utility.yul\":30889:30898   */\n      dup3\n        /* \"#utility.yul\":30885:30903   */\n      add\n        /* \"#utility.yul\":30877:30903   */\n      swap1\n      pop\n        /* \"#utility.yul\":30913:30984   */\n      tag_903\n        /* \"#utility.yul\":30981:30982   */\n      0x00\n        /* \"#utility.yul\":30970:30979   */\n      dup4\n        /* \"#utility.yul\":30966:30983   */\n      add\n        /* \"#utility.yul\":30957:30963   */\n      dup7\n        /* \"#utility.yul\":30913:30984   */\n      tag_533\n      jump\t// in\n    tag_903:\n        /* \"#utility.yul\":31031:31040   */\n      dup2\n        /* \"#utility.yul\":31025:31029   */\n      dup2\n        /* \"#utility.yul\":31021:31041   */\n      sub\n        /* \"#utility.yul\":31016:31018   */\n      0x20\n        /* \"#utility.yul\":31005:31014   */\n      dup4\n        /* \"#utility.yul\":31001:31019   */\n      add\n        /* \"#utility.yul\":30994:31042   */\n      mstore\n        /* \"#utility.yul\":31059:31145   */\n      tag_904\n        /* \"#utility.yul\":31140:31144   */\n      dup2\n        /* \"#utility.yul\":31131:31137   */\n      dup5\n        /* \"#utility.yul\":31123:31129   */\n      dup7\n        /* \"#utility.yul\":31059:31145   */\n      tag_560\n      jump\t// in\n    tag_904:\n        /* \"#utility.yul\":31051:31145   */\n      swap1\n      pop\n        /* \"#utility.yul\":30713:31152   */\n      swap5\n      swap4\n      pop\n      pop\n      pop\n      pop\n      jump\t// out\n        /* \"#utility.yul\":31158:31331   */\n    tag_567:\n        /* \"#utility.yul\":31298:31323   */\n      0x616363756d756c61746520726576656e75652069732030000000000000000000\n        /* \"#utility.yul\":31294:31295   */\n      0x00\n        /* \"#utility.yul\":31286:31292   */\n      dup3\n        /* \"#utility.yul\":31282:31296   */\n      add\n        /* \"#utility.yul\":31275:31324   */\n      mstore\n        /* \"#utility.yul\":31158:31331   */\n      pop\n      jump\t// out\n        /* \"#utility.yul\":31337:31703   */\n    tag_568:\n        /* \"#utility.yul\":31479:31482   */\n      0x00\n        /* \"#utility.yul\":31500:31567   */\n      tag_907\n        /* \"#utility.yul\":31564:31566   */\n      0x17\n        /* \"#utility.yul\":31559:31562   */\n      dup4\n        /* \"#utility.yul\":31500:31567   */\n      tag_540\n      jump\t// in\n    tag_907:\n        /* \"#utility.yul\":31493:31567   */\n      swap2\n      pop\n        /* \"#utility.yul\":31576:31669   */\n      tag_908\n        /* \"#utility.yul\":31665:31668   */\n      dup3\n        /* \"#utility.yul\":31576:31669   */\n      tag_567\n      jump\t// in\n    tag_908:\n        /* \"#utility.yul\":31694:31696   */\n      0x20\n        /* \"#utility.yul\":31689:31692   */\n      dup3\n        /* \"#utility.yul\":31685:31697   */\n      add\n        /* \"#utility.yul\":31678:31697   */\n      swap1\n      pop\n        /* \"#utility.yul\":31337:31703   */\n      swap2\n      swap1\n      pop\n      jump\t// out\n        /* \"#utility.yul\":31709:32128   */\n    tag_306:\n        /* \"#utility.yul\":31875:31879   */\n      0x00\n        /* \"#utility.yul\":31913:31915   */\n      0x20\n        /* \"#utility.yul\":31902:31911   */\n      dup3\n        /* \"#utility.yul\":31898:31916   */\n      add\n        /* \"#utility.yul\":31890:31916   */\n      swap1\n      pop\n        /* \"#utility.yul\":31962:31971   */\n      dup2\n        /* \"#utility.yul\":31956:31960   */\n      dup2\n        /* \"#utility.yul\":31952:31972   */\n      sub\n        /* \"#utility.yul\":31948:31949   */\n      0x00\n        /* \"#utility.yul\":31937:31946   */\n      dup4\n        /* \"#utility.yul\":31933:31950   */\n      add\n        /* \"#utility.yul\":31926:31973   */\n      mstore\n        /* \"#utility.yul\":31990:32121   */\n      tag_910\n        /* \"#utility.yul\":32116:32120   */\n      dup2\n        /* \"#utility.yul\":31990:32121   */\n      tag_568\n      jump\t// in\n    tag_910:\n        /* \"#utility.yul\":31982:32121   */\n      swap1\n      pop\n        /* \"#utility.yul\":31709:32128   */\n      swap2\n      swap1\n      pop\n      jump\t// out\n        /* \"#utility.yul\":32134:32354   */\n    tag_569:\n        /* \"#utility.yul\":32274:32308   */\n      0x636c61696d4d6f64656c526576656e7565207472616e73666572206661696c65\n        /* \"#utility.yul\":32270:32271   */\n      0x00\n        /* \"#utility.yul\":32262:32268   */\n      dup3\n        /* \"#utility.yul\":32258:32272   */\n      add\n        /* \"#utility.yul\":32251:32309   */\n      mstore\n        /* \"#utility.yul\":32343:32346   */\n      0x6400000000000000000000000000000000000000000000000000000000000000\n        /* \"#utility.yul\":32338:32340   */\n      0x20\n        /* \"#utility.yul\":32330:32336   */\n      dup3\n        /* \"#utility.yul\":32326:32341   */\n      add\n        /* \"#utility.yul\":32319:32347   */\n      mstore\n        /* \"#utility.yul\":32134:32354   */\n      pop\n      jump\t// out\n        /* \"#utility.yul\":32360:32726   */\n    tag_570:\n        /* \"#utility.yul\":32502:32505   */\n      0x00\n        /* \"#utility.yul\":32523:32590   */\n      tag_913\n        /* \"#utility.yul\":32587:32589   */\n      0x21\n        /* \"#utility.yul\":32582:32585   */\n      dup4\n        /* \"#utility.yul\":32523:32590   */\n      tag_540\n      jump\t// in\n    tag_913:\n        /* \"#utility.yul\":32516:32590   */\n      swap2\n      pop\n        /* \"#utility.yul\":32599:32692   */\n      tag_914\n        /* \"#utility.yul\":32688:32691   */\n      dup3\n        /* \"#utility.yul\":32599:32692   */\n      tag_569\n      jump\t// in\n    tag_914:\n        /* \"#utility.yul\":32717:32719   */\n      0x40\n        /* \"#utility.yul\":32712:32715   */\n      dup3\n        /* \"#utility.yul\":32708:32720   */\n      add\n        /* \"#utility.yul\":32701:32720   */\n      swap1\n      pop\n        /* \"#utility.yul\":32360:32726   */\n      swap2\n      swap1\n      pop\n      jump\t// out\n        /* \"#utility.yul\":32732:33151   */\n    tag_313:\n        /* \"#utility.yul\":32898:32902   */\n      0x00\n        /* \"#utility.yul\":32936:32938   */\n      0x20\n        /* \"#utility.yul\":32925:32934   */\n      dup3\n        /* \"#utility.yul\":32921:32939   */\n      add\n        /* \"#utility.yul\":32913:32939   */\n      swap1\n      pop\n        /* \"#utility.yul\":32985:32994   */\n      dup2\n        /* \"#utility.yul\":32979:32983   */\n      dup2\n        /* \"#utility.yul\":32975:32995   */\n      sub\n        /* \"#utility.yul\":32971:32972   */\n      0x00\n        /* \"#utility.yul\":32960:32969   */\n      dup4\n        /* \"#utility.yul\":32956:32973   */\n      add\n        /* \"#utility.yul\":32949:32996   */\n      mstore\n        /* \"#utility.yul\":33013:33144   */\n      tag_916\n        /* \"#utility.yul\":33139:33143   */\n      dup2\n        /* \"#utility.yul\":33013:33144   */\n      tag_570\n      jump\t// in\n    tag_916:\n        /* \"#utility.yul\":33005:33144   */\n      swap1\n      pop\n        /* \"#utility.yul\":32732:33151   */\n      swap2\n      swap1\n      pop\n      jump\t// out\n        /* \"#utility.yul\":33157:33686   */\n    tag_318:\n        /* \"#utility.yul\":33324:33328   */\n      0x00\n        /* \"#utility.yul\":33362:33364   */\n      0x60\n        /* \"#utility.yul\":33351:33360   */\n      dup3\n        /* \"#utility.yul\":33347:33365   */\n      add\n        /* \"#utility.yul\":33339:33365   */\n      swap1\n      pop\n        /* \"#utility.yul\":33375:33446   */\n      tag_918\n        /* \"#utility.yul\":33443:33444   */\n      0x00\n        /* \"#utility.yul\":33432:33441   */\n      dup4\n        /* \"#utility.yul\":33428:33445   */\n      add\n        /* \"#utility.yul\":33419:33425   */\n      dup7\n        /* \"#utility.yul\":33375:33446   */\n      tag_557\n      jump\t// in\n    tag_918:\n        /* \"#utility.yul\":33456:33528   */\n      tag_919\n        /* \"#utility.yul\":33524:33526   */\n      0x20\n        /* \"#utility.yul\":33513:33522   */\n      dup4\n        /* \"#utility.yul\":33509:33527   */\n      add\n        /* \"#utility.yul\":33500:33506   */\n      dup6\n        /* \"#utility.yul\":33456:33528   */\n      tag_557\n      jump\t// in\n    tag_919:\n        /* \"#utility.yul\":33575:33584   */\n      dup2\n        /* \"#utility.yul\":33569:33573   */\n      dup2\n        /* \"#utility.yul\":33565:33585   */\n      sub\n        /* \"#utility.yul\":33560:33562   */\n      0x40\n        /* \"#utility.yul\":33549:33558   */\n      dup4\n        /* \"#utility.yul\":33545:33563   */\n      add\n        /* \"#utility.yul\":33538:33586   */\n      mstore\n        /* \"#utility.yul\":33603:33679   */\n      tag_920\n        /* \"#utility.yul\":33674:33678   */\n      dup2\n        /* \"#utility.yul\":33665:33671   */\n      dup5\n        /* \"#utility.yul\":33603:33679   */\n      tag_506\n      jump\t// in\n    tag_920:\n        /* \"#utility.yul\":33595:33679   */\n      swap1\n      pop\n        /* \"#utility.yul\":33157:33686   */\n      swap5\n      swap4\n      pop\n      pop\n      pop\n      pop\n      jump\t// out\n        /* \"#utility.yul\":33692:33835   */\n    tag_571:\n        /* \"#utility.yul\":33749:33754   */\n      0x00\n        /* \"#utility.yul\":33780:33786   */\n      dup2\n        /* \"#utility.yul\":33774:33787   */\n      mload\n        /* \"#utility.yul\":33765:33787   */\n      swap1\n      pop\n        /* \"#utility.yul\":33796:33829   */\n      tag_922\n        /* \"#utility.yul\":33823:33828   */\n      dup2\n        /* \"#utility.yul\":33796:33829   */\n      tag_495\n      jump\t// in\n    tag_922:\n        /* \"#utility.yul\":33692:33835   */\n      swap3\n      swap2\n      pop\n      pop\n      jump\t// out\n        /* \"#utility.yul\":33841:34192   */\n    tag_322:\n        /* \"#utility.yul\":33911:33917   */\n      0x00\n        /* \"#utility.yul\":33960:33962   */\n      0x20\n        /* \"#utility.yul\":33948:33957   */\n      dup3\n        /* \"#utility.yul\":33939:33946   */\n      dup5\n        /* \"#utility.yul\":33935:33958   */\n      sub\n        /* \"#utility.yul\":33931:33963   */\n      slt\n        /* \"#utility.yul\":33928:34047   */\n      iszero\n      tag_924\n      jumpi\n        /* \"#utility.yul\":33966:34045   */\n      tag_925\n      tag_492\n      jump\t// in\n    tag_925:\n        /* \"#utility.yul\":33928:34047   */\n    tag_924:\n        /* \"#utility.yul\":34086:34087   */\n      0x00\n        /* \"#utility.yul\":34111:34175   */\n      tag_926\n        /* \"#utility.yul\":34167:34174   */\n      dup5\n        /* \"#utility.yul\":34158:34164   */\n      dup3\n        /* \"#utility.yul\":34147:34156   */\n      dup6\n        /* \"#utility.yul\":34143:34165   */\n      add\n        /* \"#utility.yul\":34111:34175   */\n      tag_571\n      jump\t// in\n    tag_926:\n        /* \"#utility.yul\":34101:34175   */\n      swap2\n      pop\n        /* \"#utility.yul\":34057:34185   */\n      pop\n        /* \"#utility.yul\":33841:34192   */\n      swap3\n      swap2\n      pop\n      pop\n      jump\t// out\n        /* \"#utility.yul\":34198:34291   */\n    tag_572:\n        /* \"#utility.yul\":34235:34241   */\n      0x00\n        /* \"#utility.yul\":34282:34284   */\n      0x20\n        /* \"#utility.yul\":34277:34279   */\n      0x1f\n        /* \"#utility.yul\":34270:34275   */\n      dup4\n        /* \"#utility.yul\":34266:34280   */\n      add\n        /* \"#utility.yul\":34262:34285   */\n      div\n        /* \"#utility.yul\":34252:34285   */\n      swap1\n      pop\n        /* \"#utility.yul\":34198:34291   */\n      swap2\n      swap1\n      pop\n      jump\t// out\n        /* \"#utility.yul\":34297:34404   */\n    tag_573:\n        /* \"#utility.yul\":34341:34349   */\n      0x00\n        /* \"#utility.yul\":34391:34396   */\n      dup3\n        /* \"#utility.yul\":34385:34389   */\n      dup3\n        /* \"#utility.yul\":34381:34397   */\n      shl\n        /* \"#utility.yul\":34360:34397   */\n      swap1\n      pop\n        /* \"#utility.yul\":34297:34404   */\n      swap3\n      swap2\n      pop\n      pop\n      jump\t// out\n        /* \"#utility.yul\":34410:34803   */\n    tag_574:\n        /* \"#utility.yul\":34479:34485   */\n      0x00\n        /* \"#utility.yul\":34529:34530   */\n      0x08\n        /* \"#utility.yul\":34517:34527   */\n      dup4\n        /* \"#utility.yul\":34513:34531   */\n      mul\n        /* \"#utility.yul\":34552:34649   */\n      tag_930\n        /* \"#utility.yul\":34582:34648   */\n      0xffffffffffffffffffffffffffffffffffffffffffffffffffffffffffffffff\n        /* \"#utility.yul\":34571:34580   */\n      dup3\n        /* \"#utility.yul\":34552:34649   */\n      tag_573\n      jump\t// in\n    tag_930:\n        /* \"#utility.yul\":34670:34709   */\n      tag_931\n        /* \"#utility.yul\":34700:34708   */\n      dup7\n        /* \"#utility.yul\":34689:34698   */\n      dup4\n        /* \"#utility.yul\":34670:34709   */\n      tag_573\n      jump\t// in\n    tag_931:\n        /* \"#utility.yul\":34658:34709   */\n      swap6\n      pop\n        /* \"#utility.yul\":34742:34746   */\n      dup1\n        /* \"#utility.yul\":34738:34747   */\n      not\n        /* \"#utility.yul\":34731:34736   */\n      dup5\n        /* \"#utility.yul\":34727:34748   */\n      and\n        /* \"#utility.yul\":34718:34748   */\n      swap4\n      pop\n        /* \"#utility.yul\":34791:34795   */\n      dup1\n        /* \"#utility.yul\":34781:34789   */\n      dup7\n        /* \"#utility.yul\":34777:34796   */\n      and\n        /* \"#utility.yul\":34770:34775   */\n      dup5\n        /* \"#utility.yul\":34767:34797   */\n      or\n        /* \"#utility.yul\":34757:34797   */\n      swap3\n      pop\n        /* \"#utility.yul\":34486:34803   */\n      pop\n      pop\n        /* \"#utility.yul\":34410:34803   */\n      swap4\n      swap3\n      pop\n      pop\n      pop\n      jump\t// out\n        /* \"#utility.yul\":34809:34951   */\n    tag_575:\n        /* \"#utility.yul\":34859:34868   */\n      0x00\n        /* \"#utility.yul\":34892:34945   */\n      tag_933\n        /* \"#utility.yul\":34910:34944   */\n      tag_934\n        /* \"#utility.yul\":34919:34943   */\n      tag_935\n        /* \"#utility.yul\":34937:34942   */\n      dup5\n        /* \"#utility.yul\":34919:34943   */\n      tag_494\n      jump\t// in\n    tag_935:\n        /* \"#utility.yul\":34910:34944   */\n      tag_535\n      jump\t// in\n    tag_934:\n        /* \"#utility.yul\":34892:34945   */\n      tag_494\n      jump\t// in\n    tag_933:\n        /* \"#utility.yul\":34879:34945   */\n      swap1\n      pop\n        /* \"#utility.yul\":34809:34951   */\n      swap2\n      swap1\n      pop\n      jump\t// out\n        /* \"#utility.yul\":34957:35032   */\n    tag_576:\n        /* \"#utility.yul\":35000:35003   */\n      0x00\n        /* \"#utility.yul\":35021:35026   */\n      dup2\n        /* \"#utility.yul\":35014:35026   */\n      swap1\n      pop\n        /* \"#utility.yul\":34957:35032   */\n      swap2\n      swap1\n      pop\n      jump\t// out\n        /* \"#utility.yul\":35038:35307   */\n    tag_577:\n        /* \"#utility.yul\":35148:35187   */\n      tag_938\n        /* \"#utility.yul\":35179:35186   */\n      dup4\n        /* \"#utility.yul\":35148:35187   */\n      tag_575\n      jump\t// in\n    tag_938:\n        /* \"#utility.yul\":35209:35300   */\n      tag_939\n        /* \"#utility.yul\":35258:35299   */\n      tag_940\n        /* \"#utility.yul\":35282:35298   */\n      dup3\n        /* \"#utility.yul\":35258:35299   */\n      tag_576\n      jump\t// in\n    tag_940:\n        /* \"#utility.yul\":35250:35256   */\n      dup5\n        /* \"#utility.yul\":35243:35247   */\n      dup5\n        /* \"#utility.yul\":35237:35248   */\n      sload\n        /* \"#utility.yul\":35209:35300   */\n      tag_574\n      jump\t// in\n    tag_939:\n        /* \"#utility.yul\":35203:35207   */\n      dup3\n        /* \"#utility.yul\":35196:35301   */\n      sstore\n        /* \"#utility.yul\":35114:35307   */\n      pop\n        /* \"#utility.yul\":35038:35307   */\n      pop\n      pop\n      pop\n      jump\t// out\n        /* \"#utility.yul\":35313:35386   */\n    tag_578:\n        /* \"#utility.yul\":35358:35361   */\n      0x00\n        /* \"#utility.yul\":35313:35386   */\n      swap1\n      jump\t// out\n        /* \"#utility.yul\":35392:35581   */\n    tag_579:\n        /* \"#utility.yul\":35469:35501   */\n      tag_943\n      tag_578\n      jump\t// in\n    tag_943:\n        /* \"#utility.yul\":35510:35575   */\n      tag_944\n        /* \"#utility.yul\":35568:35574   */\n      dup2\n        /* \"#utility.yul\":35560:35566   */\n      dup5\n        /* \"#utility.yul\":35554:35558   */\n      dup5\n        /* \"#utility.yul\":35510:35575   */\n      tag_577\n      jump\t// in\n    tag_944:\n        /* \"#utility.yul\":35445:35581   */\n      pop\n        /* \"#utility.yul\":35392:35581   */\n      pop\n      pop\n      jump\t// out\n        /* \"#utility.yul\":35587:35773   */\n    tag_580:\n        /* \"#utility.yul\":35647:35767   */\n    tag_946:\n        /* \"#utility.yul\":35664:35667   */\n      dup2\n        /* \"#utility.yul\":35657:35662   */\n      dup2\n        /* \"#utility.yul\":35654:35668   */\n      lt\n        /* \"#utility.yul\":35647:35767   */\n      iszero\n      tag_948\n      jumpi\n        /* \"#utility.yul\":35718:35757   */\n      tag_949\n        /* \"#utility.yul\":35755:35756   */\n      0x00\n        /* \"#utility.yul\":35748:35753   */\n      dup3\n        /* \"#utility.yul\":35718:35757   */\n      tag_579\n      jump\t// in\n    tag_949:\n        /* \"#utility.yul\":35691:35692   */\n      0x01\n        /* \"#utility.yul\":35684:35689   */\n      dup2\n        /* \"#utility.yul\":35680:35693   */\n      add\n        /* \"#utility.yul\":35671:35693   */\n      swap1\n      pop\n        /* \"#utility.yul\":35647:35767   */\n      jump(tag_946)\n    tag_948:\n        /* \"#utility.yul\":35587:35773   */\n      pop\n      pop\n      jump\t// out\n        /* \"#utility.yul\":35779:36320   */\n    tag_581:\n        /* \"#utility.yul\":35879:35881   */\n      0x1f\n        /* \"#utility.yul\":35874:35877   */\n      dup3\n        /* \"#utility.yul\":35871:35882   */\n      gt\n        /* \"#utility.yul\":35868:36313   */\n      iszero\n      tag_951\n      jumpi\n        /* \"#utility.yul\":35913:35950   */\n      tag_952\n        /* \"#utility.yul\":35944:35949   */\n      dup2\n        /* \"#utility.yul\":35913:35950   */\n      tag_562\n      jump\t// in\n    tag_952:\n        /* \"#utility.yul\":35996:36025   */\n      tag_953\n        /* \"#utility.yul\":36014:36024   */\n      dup5\n        /* \"#utility.yul\":35996:36025   */\n      tag_572\n      jump\t// in\n    tag_953:\n        /* \"#utility.yul\":35986:35994   */\n      dup2\n        /* \"#utility.yul\":35982:36026   */\n      add\n        /* \"#utility.yul\":36179:36181   */\n      0x20\n        /* \"#utility.yul\":36167:36177   */\n      dup6\n        /* \"#utility.yul\":36164:36182   */\n      lt\n        /* \"#utility.yul\":36161:36210   */\n      iszero\n      tag_954\n      jumpi\n        /* \"#utility.yul\":36200:36208   */\n      dup2\n        /* \"#utility.yul\":36185:36208   */\n      swap1\n      pop\n        /* \"#utility.yul\":36161:36210   */\n    tag_954:\n        /* \"#utility.yul\":36223:36303   */\n      tag_955\n        /* \"#utility.yul\":36279:36301   */\n      tag_956\n        /* \"#utility.yul\":36297:36300   */\n      dup6\n        /* \"#utility.yul\":36279:36301   */\n      tag_572\n      jump\t// in\n    tag_956:\n        /* \"#utility.yul\":36269:36277   */\n      dup4\n        /* \"#utility.yul\":36265:36302   */\n      add\n        /* \"#utility.yul\":36252:36263   */\n      dup3\n        /* \"#utility.yul\":36223:36303   */\n      tag_580\n      jump\t// in\n    tag_955:\n        /* \"#utility.yul\":35883:36313   */\n      pop\n      pop\n        /* \"#utility.yul\":35868:36313   */\n    tag_951:\n        /* \"#utility.yul\":35779:36320   */\n      pop\n      pop\n      pop\n      jump\t// out\n        /* \"#utility.yul\":36326:36443   */\n    tag_582:\n        /* \"#utility.yul\":36380:36388   */\n      0x00\n        /* \"#utility.yul\":36430:36435   */\n      dup3\n        /* \"#utility.yul\":36424:36428   */\n      dup3\n        /* \"#utility.yul\":36420:36436   */\n      shr\n        /* \"#utility.yul\":36399:36436   */\n      swap1\n      pop\n        /* \"#utility.yul\":36326:36443   */\n      swap3\n      swap2\n      pop\n      pop\n      jump\t// out\n        /* \"#utility.yul\":36449:36618   */\n    tag_583:\n        /* \"#utility.yul\":36493:36499   */\n      0x00\n        /* \"#utility.yul\":36526:36577   */\n      tag_959\n        /* \"#utility.yul\":36574:36575   */\n      0x00\n        /* \"#utility.yul\":36570:36576   */\n      not\n        /* \"#utility.yul\":36562:36567   */\n      dup5\n        /* \"#utility.yul\":36559:36560   */\n      0x08\n        /* \"#utility.yul\":36555:36568   */\n      mul\n        /* \"#utility.yul\":36526:36577   */\n      tag_582\n      jump\t// in\n    tag_959:\n        /* \"#utility.yul\":36522:36578   */\n      not\n        /* \"#utility.yul\":36607:36611   */\n      dup1\n        /* \"#utility.yul\":36601:36605   */\n      dup4\n        /* \"#utility.yul\":36597:36612   */\n      and\n        /* \"#utility.yul\":36587:36612   */\n      swap2\n      pop\n        /* \"#utility.yul\":36500:36618   */\n      pop\n        /* \"#utility.yul\":36449:36618   */\n      swap3\n      swap2\n      pop\n      pop\n      jump\t// out\n        /* \"#utility.yul\":36623:36918   */\n    tag_584:\n        /* \"#utility.yul\":36699:36703   */\n      0x00\n        /* \"#utility.yul\":36845:36874   */\n      tag_961\n        /* \"#utility.yul\":36870:36873   */\n      dup4\n        /* \"#utility.yul\":36864:36868   */\n      dup4\n        /* \"#utility.yul\":36845:36874   */\n      tag_583\n      jump\t// in\n    tag_961:\n        /* \"#utility.yul\":36837:36874   */\n      swap2\n      pop\n        /* \"#utility.yul\":36907:36910   */\n      dup3\n        /* \"#utility.yul\":36904:36905   */\n      0x02\n        /* \"#utility.yul\":36900:36911   */\n      mul\n        /* \"#utility.yul\":36894:36898   */\n      dup3\n        /* \"#utility.yul\":36891:36912   */\n      or\n        /* \"#utility.yul\":36883:36912   */\n      swap1\n      pop\n        /* \"#utility.yul\":36623:36918   */\n      swap3\n      swap2\n      pop\n      pop\n      jump\t// out\n        /* \"#utility.yul\":36923:38313   */\n    tag_324:\n        /* \"#utility.yul\":37038:37074   */\n      tag_963\n        /* \"#utility.yul\":37070:37073   */\n      dup3\n        /* \"#utility.yul\":37038:37074   */\n      tag_502\n      jump\t// in\n    tag_963:\n        /* \"#utility.yul\":37139:37157   */\n      0xffffffffffffffff\n        /* \"#utility.yul\":37131:37137   */\n      dup2\n        /* \"#utility.yul\":37128:37158   */\n      gt\n        /* \"#utility.yul\":37125:37181   */\n      iszero\n      tag_964\n      jumpi\n        /* \"#utility.yul\":37161:37179   */\n      tag_965\n      tag_519\n      jump\t// in\n    tag_965:\n        /* \"#utility.yul\":37125:37181   */\n    tag_964:\n        /* \"#utility.yul\":37205:37243   */\n      tag_966\n        /* \"#utility.yul\":37237:37241   */\n      dup3\n        /* \"#utility.yul\":37231:37242   */\n      sload\n        /* \"#utility.yul\":37205:37243   */\n      tag_387\n      jump\t// in\n    tag_966:\n        /* \"#utility.yul\":37290:37356   */\n      tag_967\n        /* \"#utility.yul\":37349:37355   */\n      dup3\n        /* \"#utility.yul\":37341:37347   */\n      dup3\n        /* \"#utility.yul\":37335:37339   */\n      dup6\n        /* \"#utility.yul\":37290:37356   */\n      tag_581\n      jump\t// in\n    tag_967:\n        /* \"#utility.yul\":37383:37384   */\n      0x00\n        /* \"#utility.yul\":37407:37411   */\n      0x20\n        /* \"#utility.yul\":37394:37411   */\n      swap1\n      pop\n        /* \"#utility.yul\":37439:37441   */\n      0x1f\n        /* \"#utility.yul\":37431:37437   */\n      dup4\n        /* \"#utility.yul\":37428:37442   */\n      gt\n        /* \"#utility.yul\":37456:37457   */\n      0x01\n        /* \"#utility.yul\":37451:38068   */\n      dup2\n      eq\n      tag_969\n      jumpi\n        /* \"#utility.yul\":38112:38113   */\n      0x00\n        /* \"#utility.yul\":38129:38135   */\n      dup5\n        /* \"#utility.yul\":38126:38203   */\n      iszero\n      tag_970\n      jumpi\n        /* \"#utility.yul\":38178:38187   */\n      dup3\n        /* \"#utility.yul\":38173:38176   */\n      dup8\n        /* \"#utility.yul\":38169:38188   */\n      add\n        /* \"#utility.yul\":38163:38189   */\n      mload\n        /* \"#utility.yul\":38154:38189   */\n      swap1\n      pop\n        /* \"#utility.yul\":38126:38203   */\n    tag_970:\n        /* \"#utility.yul\":38229:38296   */\n      tag_971\n        /* \"#utility.yul\":38289:38295   */\n      dup6\n        /* \"#utility.yul\":38282:38287   */\n      dup3\n        /* \"#utility.yul\":38229:38296   */\n      tag_584\n      jump\t// in\n    tag_971:\n        /* \"#utility.yul\":38223:38227   */\n      dup7\n        /* \"#utility.yul\":38216:38297   */\n      sstore\n        /* \"#utility.yul\":38085:38307   */\n      pop\n        /* \"#utility.yul\":37421:38307   */\n      jump(tag_968)\n        /* \"#utility.yul\":37451:38068   */\n    tag_969:\n        /* \"#utility.yul\":37503:37507   */\n      0x1f\n        /* \"#utility.yul\":37499:37508   */\n      not\n        /* \"#utility.yul\":37491:37497   */\n      dup5\n        /* \"#utility.yul\":37487:37509   */\n      and\n        /* \"#utility.yul\":37537:37573   */\n      tag_972\n        /* \"#utility.yul\":37568:37572   */\n      dup7\n        /* \"#utility.yul\":37537:37573   */\n      tag_562\n      jump\t// in\n    tag_972:\n        /* \"#utility.yul\":37595:37596   */\n      0x00\n        /* \"#utility.yul\":37609:37817   */\n    tag_973:\n        /* \"#utility.yul\":37623:37630   */\n      dup3\n        /* \"#utility.yul\":37620:37621   */\n      dup2\n        /* \"#utility.yul\":37617:37631   */\n      lt\n        /* \"#utility.yul\":37609:37817   */\n      iszero\n      tag_975\n      jumpi\n        /* \"#utility.yul\":37702:37711   */\n      dup5\n        /* \"#utility.yul\":37697:37700   */\n      dup10\n        /* \"#utility.yul\":37693:37712   */\n      add\n        /* \"#utility.yul\":37687:37713   */\n      mload\n        /* \"#utility.yul\":37679:37685   */\n      dup3\n        /* \"#utility.yul\":37672:37714   */\n      sstore\n        /* \"#utility.yul\":37753:37754   */\n      0x01\n        /* \"#utility.yul\":37745:37751   */\n      dup3\n        /* \"#utility.yul\":37741:37755   */\n      add\n        /* \"#utility.yul\":37731:37755   */\n      swap2\n      pop\n        /* \"#utility.yul\":37800:37802   */\n      0x20\n        /* \"#utility.yul\":37789:37798   */\n      dup6\n        /* \"#utility.yul\":37785:37803   */\n      add\n        /* \"#utility.yul\":37772:37803   */\n      swap5\n      pop\n        /* \"#utility.yul\":37646:37650   */\n      0x20\n        /* \"#utility.yul\":37643:37644   */\n      dup2\n        /* \"#utility.yul\":37639:37651   */\n      add\n        /* \"#utility.yul\":37634:37651   */\n      swap1\n      pop\n        /* \"#utility.yul\":37609:37817   */\n      jump(tag_973)\n    tag_975:\n        /* \"#utility.yul\":37845:37851   */\n      dup7\n        /* \"#utility.yul\":37836:37843   */\n      dup4\n        /* \"#utility.yul\":37833:37852   */\n      lt\n        /* \"#utility.yul\":37830:38009   */\n      iszero\n      tag_976\n      jumpi\n        /* \"#utility.yul\":37903:37912   */\n      dup5\n        /* \"#utility.yul\":37898:37901   */\n      dup10\n        /* \"#utility.yul\":37894:37913   */\n      add\n        /* \"#utility.yul\":37888:37914   */\n      mload\n        /* \"#utility.yul\":37946:37994   */\n      tag_977\n        /* \"#utility.yul\":37988:37992   */\n      0x1f\n        /* \"#utility.yul\":37980:37986   */\n      dup10\n        /* \"#utility.yul\":37976:37993   */\n      and\n        /* \"#utility.yul\":37965:37974   */\n      dup3\n        /* \"#utility.yul\":37946:37994   */\n      tag_583\n      jump\t// in\n    tag_977:\n        /* \"#utility.yul\":37938:37944   */\n      dup4\n        /* \"#utility.yul\":37931:37995   */\n      sstore\n        /* \"#utility.yul\":37853:38009   */\n      pop\n        /* \"#utility.yul\":37830:38009   */\n    tag_976:\n        /* \"#utility.yul\":38055:38056   */\n      0x01\n        /* \"#utility.yul\":38051:38052   */\n      0x02\n        /* \"#utility.yul\":38043:38049   */\n      dup9\n        /* \"#utility.yul\":38039:38053   */\n      mul\n        /* \"#utility.yul\":38035:38057   */\n      add\n        /* \"#utility.yul\":38029:38033   */\n      dup9\n        /* \"#utility.yul\":38022:38058   */\n      sstore\n        /* \"#utility.yul\":37458:38068   */\n      pop\n      pop\n      pop\n        /* \"#utility.yul\":37421:38307   */\n    tag_968:\n      pop\n        /* \"#utility.yul\":37013:38313   */\n      pop\n      pop\n      pop\n        /* \"#utility.yul\":36923:38313   */\n      pop\n      pop\n      jump\t// out\n        /* \"#utility.yul\":38319:39153   */\n    tag_327:\n        /* \"#utility.yul\":38558:38562   */\n      0x00\n        /* \"#utility.yul\":38596:38599   */\n      0xa0\n        /* \"#utility.yul\":38585:38594   */\n      dup3\n        /* \"#utility.yul\":38581:38600   */\n      add\n        /* \"#utility.yul\":38573:38600   */\n      swap1\n      pop\n        /* \"#utility.yul\":38610:38681   */\n      tag_979\n        /* \"#utility.yul\":38678:38679   */\n      0x00\n        /* \"#utility.yul\":38667:38676   */\n      dup4\n        /* \"#utility.yul\":38663:38680   */\n      add\n        /* \"#utility.yul\":38654:38660   */\n      dup9\n        /* \"#utility.yul\":38610:38681   */\n      tag_501\n      jump\t// in\n    tag_979:\n        /* \"#utility.yul\":38728:38737   */\n      dup2\n        /* \"#utility.yul\":38722:38726   */\n      dup2\n        /* \"#utility.yul\":38718:38738   */\n      sub\n        /* \"#utility.yul\":38713:38715   */\n      0x20\n        /* \"#utility.yul\":38702:38711   */\n      dup4\n        /* \"#utility.yul\":38698:38716   */\n      add\n        /* \"#utility.yul\":38691:38739   */\n      mstore\n        /* \"#utility.yul\":38756:38832   */\n      tag_980\n        /* \"#utility.yul\":38827:38831   */\n      dup2\n        /* \"#utility.yul\":38818:38824   */\n      dup8\n        /* \"#utility.yul\":38756:38832   */\n      tag_506\n      jump\t// in\n    tag_980:\n        /* \"#utility.yul\":38748:38832   */\n      swap1\n      pop\n        /* \"#utility.yul\":38842:38914   */\n      tag_981\n        /* \"#utility.yul\":38910:38912   */\n      0x40\n        /* \"#utility.yul\":38899:38908   */\n      dup4\n        /* \"#utility.yul\":38895:38913   */\n      add\n        /* \"#utility.yul\":38886:38892   */\n      dup7\n        /* \"#utility.yul\":38842:38914   */\n      tag_533\n      jump\t// in\n    tag_981:\n        /* \"#utility.yul\":38924:38994   */\n      tag_982\n        /* \"#utility.yul\":38990:38992   */\n      0x60\n        /* \"#utility.yul\":38979:38988   */\n      dup4\n        /* \"#utility.yul\":38975:38993   */\n      add\n        /* \"#utility.yul\":38966:38972   */\n      dup6\n        /* \"#utility.yul\":38924:38994   */\n      tag_534\n      jump\t// in\n    tag_982:\n        /* \"#utility.yul\":39042:39051   */\n      dup2\n        /* \"#utility.yul\":39036:39040   */\n      dup2\n        /* \"#utility.yul\":39032:39052   */\n      sub\n        /* \"#utility.yul\":39026:39029   */\n      0x80\n        /* \"#utility.yul\":39015:39024   */\n      dup4\n        /* \"#utility.yul\":39011:39030   */\n      add\n        /* \"#utility.yul\":39004:39053   */\n      mstore\n        /* \"#utility.yul\":39070:39146   */\n      tag_983\n        /* \"#utility.yul\":39141:39145   */\n      dup2\n        /* \"#utility.yul\":39132:39138   */\n      dup5\n        /* \"#utility.yul\":39070:39146   */\n      tag_506\n      jump\t// in\n    tag_983:\n        /* \"#utility.yul\":39062:39146   */\n      swap1\n      pop\n        /* \"#utility.yul\":38319:39153   */\n      swap7\n      swap6\n      pop\n      pop\n      pop\n      pop\n      pop\n      pop\n      jump\t// out\n        /* \"#utility.yul\":39159:39339   */\n    tag_367:\n        /* \"#utility.yul\":39207:39284   */\n      0x4e487b7100000000000000000000000000000000000000000000000000000000\n        /* \"#utility.yul\":39204:39205   */\n      0x00\n        /* \"#utility.yul\":39197:39285   */\n      mstore\n        /* \"#utility.yul\":39304:39308   */\n      0x31\n        /* \"#utility.yul\":39301:39302   */\n      0x04\n        /* \"#utility.yul\":39294:39309   */\n      mstore\n        /* \"#utility.yul\":39328:39332   */\n      0x24\n        /* \"#utility.yul\":39325:39326   */\n      0x00\n        /* \"#utility.yul\":39318:39333   */\n      revert\n        /* \"#utility.yul\":39345:39514   */\n    tag_585:\n        /* \"#utility.yul\":39485:39506   */\n      0x6f7574707574206e6f742075706c6f6164656400000000000000000000000000\n        /* \"#utility.yul\":39481:39482   */\n      0x00\n        /* \"#utility.yul\":39473:39479   */\n      dup3\n        /* \"#utility.yul\":39469:39483   */\n      add\n        /* \"#utility.yul\":39462:39507   */\n      mstore\n        /* \"#utility.yul\":39345:39514   */\n      pop\n      jump\t// out\n        /* \"#utility.yul\":39520:39886   */\n    tag_586:\n        /* \"#utility.yul\":39662:39665   */\n      0x00\n        /* \"#utility.yul\":39683:39750   */\n      tag_987\n        /* \"#utility.yul\":39747:39749   */\n      0x13\n        /* \"#utility.yul\":39742:39745   */\n      dup4\n        /* \"#utility.yul\":39683:39750   */\n      tag_540\n      jump\t// in\n    tag_987:\n        /* \"#utility.yul\":39676:39750   */\n      swap2\n      pop\n        /* \"#utility.yul\":39759:39852   */\n      tag_988\n        /* \"#utility.yul\":39848:39851   */\n      dup3\n        /* \"#utility.yul\":39759:39852   */\n      tag_585\n      jump\t// in\n    tag_988:\n        /* \"#utility.yul\":39877:39879   */\n      0x20\n        /* \"#utility.yul\":39872:39875   */\n      dup3\n        /* \"#utility.yul\":39868:39880   */\n      add\n        /* \"#utility.yul\":39861:39880   */\n      swap1\n      pop\n        /* \"#utility.yul\":39520:39886   */\n      swap2\n      swap1\n      pop\n      jump\t// out\n        /* \"#utility.yul\":39892:40311   */\n    tag_404:\n        /* \"#utility.yul\":40058:40062   */\n      0x00\n        /* \"#utility.yul\":40096:40098   */\n      0x20\n        /* \"#utility.yul\":40085:40094   */\n      dup3\n        /* \"#utility.yul\":40081:40099   */\n      add\n        /* \"#utility.yul\":40073:40099   */\n      swap1\n      pop\n        /* \"#utility.yul\":40145:40154   */\n      dup2\n        /* \"#utility.yul\":40139:40143   */\n      dup2\n        /* \"#utility.yul\":40135:40155   */\n      sub\n        /* \"#utility.yul\":40131:40132   */\n      0x00\n        /* \"#utility.yul\":40120:40129   */\n      dup4\n        /* \"#utility.yul\":40116:40133   */\n      add\n        /* \"#utility.yul\":40109:40156   */\n      mstore\n        /* \"#utility.yul\":40173:40304   */\n      tag_990\n        /* \"#utility.yul\":40299:40303   */\n      dup2\n        /* \"#utility.yul\":40173:40304   */\n      tag_586\n      jump\t// in\n    tag_990:\n        /* \"#utility.yul\":40165:40304   */\n      swap1\n      pop\n        /* \"#utility.yul\":39892:40311   */\n      swap2\n      swap1\n      pop\n      jump\t// out\n        /* \"#utility.yul\":40317:40927   */\n    tag_407:\n        /* \"#utility.yul\":40499:40503   */\n      0x00\n        /* \"#utility.yul\":40537:40539   */\n      0x60\n        /* \"#utility.yul\":40526:40535   */\n      dup3\n        /* \"#utility.yul\":40522:40540   */\n      add\n        /* \"#utility.yul\":40514:40540   */\n      swap1\n      pop\n        /* \"#utility.yul\":40550:40621   */\n      tag_992\n        /* \"#utility.yul\":40618:40619   */\n      0x00\n        /* \"#utility.yul\":40607:40616   */\n      dup4\n        /* \"#utility.yul\":40603:40620   */\n      add\n        /* \"#utility.yul\":40594:40600   */\n      dup7\n        /* \"#utility.yul\":40550:40621   */\n      tag_501\n      jump\t// in\n    tag_992:\n        /* \"#utility.yul\":40668:40677   */\n      dup2\n        /* \"#utility.yul\":40662:40666   */\n      dup2\n        /* \"#utility.yul\":40658:40678   */\n      sub\n        /* \"#utility.yul\":40653:40655   */\n      0x20\n        /* \"#utility.yul\":40642:40651   */\n      dup4\n        /* \"#utility.yul\":40638:40656   */\n      add\n        /* \"#utility.yul\":40631:40679   */\n      mstore\n        /* \"#utility.yul\":40696:40772   */\n      tag_993\n        /* \"#utility.yul\":40767:40771   */\n      dup2\n        /* \"#utility.yul\":40758:40764   */\n      dup6\n        /* \"#utility.yul\":40696:40772   */\n      tag_506\n      jump\t// in\n    tag_993:\n        /* \"#utility.yul\":40688:40772   */\n      swap1\n      pop\n        /* \"#utility.yul\":40819:40828   */\n      dup2\n        /* \"#utility.yul\":40813:40817   */\n      dup2\n        /* \"#utility.yul\":40809:40829   */\n      sub\n        /* \"#utility.yul\":40804:40806   */\n      0x40\n        /* \"#utility.yul\":40793:40802   */\n      dup4\n        /* \"#utility.yul\":40789:40807   */\n      add\n        /* \"#utility.yul\":40782:40830   */\n      mstore\n        /* \"#utility.yul\":40847:40920   */\n      tag_994\n        /* \"#utility.yul\":40915:40919   */\n      dup2\n        /* \"#utility.yul\":40906:40912   */\n      dup5\n        /* \"#utility.yul\":40847:40920   */\n      tag_563\n      jump\t// in\n    tag_994:\n        /* \"#utility.yul\":40839:40920   */\n      swap1\n      pop\n        /* \"#utility.yul\":40317:40927   */\n      swap5\n      swap4\n      pop\n      pop\n      pop\n      pop\n      jump\t// out\n        /* \"#utility.yul\":40933:41352   */\n    tag_416:\n        /* \"#utility.yul\":41072:41076   */\n      0x00\n        /* \"#utility.yul\":41110:41112   */\n      0x40\n        /* \"#utility.yul\":41099:41108   */\n      dup3\n        /* \"#utility.yul\":41095:41113   */\n      add\n        /* \"#utility.yul\":41087:41113   */\n      swap1\n      pop\n        /* \"#utility.yul\":41123:41194   */\n      tag_996\n        /* \"#utility.yul\":41191:41192   */\n      0x00\n        /* \"#utility.yul\":41180:41189   */\n      dup4\n        /* \"#utility.yul\":41176:41193   */\n      add\n        /* \"#utility.yul\":41167:41173   */\n      dup6\n        /* \"#utility.yul\":41123:41194   */\n      tag_533\n      jump\t// in\n    tag_996:\n        /* \"#utility.yul\":41241:41250   */\n      dup2\n        /* \"#utility.yul\":41235:41239   */\n      dup2\n        /* \"#utility.yul\":41231:41251   */\n      sub\n        /* \"#utility.yul\":41226:41228   */\n      0x20\n        /* \"#utility.yul\":41215:41224   */\n      dup4\n        /* \"#utility.yul\":41211:41229   */\n      add\n        /* \"#utility.yul\":41204:41252   */\n      mstore\n        /* \"#utility.yul\":41269:41345   */\n      tag_997\n        /* \"#utility.yul\":41340:41344   */\n      dup2\n        /* \"#utility.yul\":41331:41337   */\n      dup5\n        /* \"#utility.yul\":41269:41345   */\n      tag_506\n      jump\t// in\n    tag_997:\n        /* \"#utility.yul\":41261:41345   */\n      swap1\n      pop\n        /* \"#utility.yul\":40933:41352   */\n      swap4\n      swap3\n      pop\n      pop\n      pop\n      jump\t// out\n        /* \"#utility.yul\":41358:41528   */\n    tag_587:\n        /* \"#utility.yul\":41498:41520   */\n      0x6d6f64656c20616c726561647920657869737473000000000000000000000000\n        /* \"#utility.yul\":41494:41495   */\n      0x00\n        /* \"#utility.yul\":41486:41492   */\n      dup3\n        /* \"#utility.yul\":41482:41496   */\n      add\n        /* \"#utility.yul\":41475:41521   */\n      mstore\n        /* \"#utility.yul\":41358:41528   */\n      pop\n      jump\t// out\n        /* \"#utility.yul\":41534:41900   */\n    tag_588:\n        /* \"#utility.yul\":41676:41679   */\n      0x00\n        /* \"#utility.yul\":41697:41764   */\n      tag_1000\n        /* \"#utility.yul\":41761:41763   */\n      0x14\n        /* \"#utility.yul\":41756:41759   */\n      dup4\n        /* \"#utility.yul\":41697:41764   */\n      tag_540\n      jump\t// in\n    tag_1000:\n        /* \"#utility.yul\":41690:41764   */\n      swap2\n      pop\n        /* \"#utility.yul\":41773:41866   */\n      tag_1001\n        /* \"#utility.yul\":41862:41865   */\n      dup3\n        /* \"#utility.yul\":41773:41866   */\n      tag_587\n      jump\t// in\n    tag_1001:\n        /* \"#utility.yul\":41891:41893   */\n      0x20\n        /* \"#utility.yul\":41886:41889   */\n      dup3\n        /* \"#utility.yul\":41882:41894   */\n      add\n        /* \"#utility.yul\":41875:41894   */\n      swap1\n      pop\n        /* \"#utility.yul\":41534:41900   */\n      swap2\n      swap1\n      pop\n      jump\t// out\n        /* \"#utility.yul\":41906:42325   */\n    tag_438:\n        /* \"#utility.yul\":42072:42076   */\n      0x00\n        /* \"#utility.yul\":42110:42112   */\n      0x20\n        /* \"#utility.yul\":42099:42108   */\n      dup3\n        /* \"#utility.yul\":42095:42113   */\n      add\n        /* \"#utility.yul\":42087:42113   */\n      swap1\n      pop\n        /* \"#utility.yul\":42159:42168   */\n      dup2\n        /* \"#utility.yul\":42153:42157   */\n      dup2\n        /* \"#utility.yul\":42149:42169   */\n      sub\n        /* \"#utility.yul\":42145:42146   */\n      0x00\n        /* \"#utility.yul\":42134:42143   */\n      dup4\n        /* \"#utility.yul\":42130:42147   */\n      add\n        /* \"#utility.yul\":42123:42170   */\n      mstore\n        /* \"#utility.yul\":42187:42318   */\n      tag_1003\n        /* \"#utility.yul\":42313:42317   */\n      dup2\n        /* \"#utility.yul\":42187:42318   */\n      tag_588\n      jump\t// in\n    tag_1003:\n        /* \"#utility.yul\":42179:42318   */\n      swap1\n      pop\n        /* \"#utility.yul\":41906:42325   */\n      swap2\n      swap1\n      pop\n      jump\t// out\n        /* \"#utility.yul\":42331:42507   */\n    tag_589:\n        /* \"#utility.yul\":42471:42499   */\n      0x6f6e6c79207365727665722063616e20696e6974206f776e6572000000000000\n        /* \"#utility.yul\":42467:42468   */\n      0x00\n        /* \"#utility.yul\":42459:42465   */\n      dup3\n        /* \"#utility.yul\":42455:42469   */\n      add\n        /* \"#utility.yul\":42448:42500   */\n      mstore\n        /* \"#utility.yul\":42331:42507   */\n      pop\n      jump\t// out\n        /* \"#utility.yul\":42513:42879   */\n    tag_590:\n        /* \"#utility.yul\":42655:42658   */\n      0x00\n        /* \"#utility.yul\":42676:42743   */\n      tag_1006\n        /* \"#utility.yul\":42740:42742   */\n      0x1a\n        /* \"#utility.yul\":42735:42738   */\n      dup4\n        /* \"#utility.yul\":42676:42743   */\n      tag_540\n      jump\t// in\n    tag_1006:\n        /* \"#utility.yul\":42669:42743   */\n      swap2\n      pop\n        /* \"#utility.yul\":42752:42845   */\n      tag_1007\n        /* \"#utility.yul\":42841:42844   */\n      dup3\n        /* \"#utility.yul\":42752:42845   */\n      tag_589\n      jump\t// in\n    tag_1007:\n        /* \"#utility.yul\":42870:42872   */\n      0x20\n        /* \"#utility.yul\":42865:42868   */\n      dup3\n        /* \"#utility.yul\":42861:42873   */\n      add\n        /* \"#utility.yul\":42854:42873   */\n      swap1\n      pop\n        /* \"#utility.yul\":42513:42879   */\n      swap2\n      swap1\n      pop\n      jump\t// out\n        /* \"#utility.yul\":42885:43304   */\n    tag_459:\n        /* \"#utility.yul\":43051:43055   */\n      0x00\n        /* \"#utility.yul\":43089:43091   */\n      0x20\n        /* \"#utility.yul\":43078:43087   */\n      dup3\n        /* \"#utility.yul\":43074:43092   */\n      add\n        /* \"#utility.yul\":43066:43092   */\n      swap1\n      pop\n        /* \"#utility.yul\":43138:43147   */\n      dup2\n        /* \"#utility.yul\":43132:43136   */\n      dup2\n        /* \"#utility.yul\":43128:43148   */\n      sub\n        /* \"#utility.yul\":43124:43125   */\n      0x00\n        /* \"#utility.yul\":43113:43122   */\n      dup4\n        /* \"#utility.yul\":43109:43126   */\n      add\n        /* \"#utility.yul\":43102:43149   */\n      mstore\n        /* \"#utility.yul\":43166:43297   */\n      tag_1009\n        /* \"#utility.yul\":43292:43296   */\n      dup2\n        /* \"#utility.yul\":43166:43297   */\n      tag_590\n      jump\t// in\n    tag_1009:\n        /* \"#utility.yul\":43158:43297   */\n      swap1\n      pop\n        /* \"#utility.yul\":42885:43304   */\n      swap2\n      swap1\n      pop\n      jump\t// out\n        /* \"#utility.yul\":43310:43472   */\n    tag_591:\n        /* \"#utility.yul\":43450:43464   */\n      0x496e20626c61636b6c6973740000000000000000000000000000000000000000\n        /* \"#utility.yul\":43446:43447   */\n      0x00\n        /* \"#utility.yul\":43438:43444   */\n      dup3\n        /* \"#utility.yul\":43434:43448   */\n      add\n        /* \"#utility.yul\":43427:43465   */\n      mstore\n        /* \"#utility.yul\":43310:43472   */\n      pop\n      jump\t// out\n        /* \"#utility.yul\":43478:43844   */\n    tag_592:\n        /* \"#utility.yul\":43620:43623   */\n      0x00\n        /* \"#utility.yul\":43641:43708   */\n      tag_1012\n        /* \"#utility.yul\":43705:43707   */\n      0x0c\n        /* \"#utility.yul\":43700:43703   */\n      dup4\n        /* \"#utility.yul\":43641:43708   */\n      tag_540\n      jump\t// in\n    tag_1012:\n        /* \"#utility.yul\":43634:43708   */\n      swap2\n      pop\n        /* \"#utility.yul\":43717:43810   */\n      tag_1013\n        /* \"#utility.yul\":43806:43809   */\n      dup3\n        /* \"#utility.yul\":43717:43810   */\n      tag_591\n      jump\t// in\n    tag_1013:\n        /* \"#utility.yul\":43835:43837   */\n      0x20\n        /* \"#utility.yul\":43830:43833   */\n      dup3\n        /* \"#utility.yul\":43826:43838   */\n      add\n        /* \"#utility.yul\":43819:43838   */\n      swap1\n      pop\n        /* \"#utility.yul\":43478:43844   */\n      swap2\n      swap1\n      pop\n      jump\t// out\n        /* \"#utility.yul\":43850:44269   */\n    tag_469:\n        /* \"#utility.yul\":44016:44020   */\n      0x00\n        /* \"#utility.yul\":44054:44056   */\n      0x20\n        /* \"#utility.yul\":44043:44052   */\n      dup3\n        /* \"#utility.yul\":44039:44057   */\n      add\n        /* \"#utility.yul\":44031:44057   */\n      swap1\n      pop\n        /* \"#utility.yul\":44103:44112   */\n      dup2\n        /* \"#utility.yul\":44097:44101   */\n      dup2\n        /* \"#utility.yul\":44093:44113   */\n      sub\n        /* \"#utility.yul\":44089:44090   */\n      0x00\n        /* \"#utility.yul\":44078:44087   */\n      dup4\n        /* \"#utility.yul\":44074:44091   */\n      add\n        /* \"#utility.yul\":44067:44114   */\n      mstore\n        /* \"#utility.yul\":44131:44262   */\n      tag_1015\n        /* \"#utility.yul\":44257:44261   */\n      dup2\n        /* \"#utility.yul\":44131:44262   */\n      tag_592\n      jump\t// in\n    tag_1015:\n        /* \"#utility.yul\":44123:44262   */\n      swap1\n      pop\n        /* \"#utility.yul\":43850:44269   */\n      swap2\n      swap1\n      pop\n      jump\t// out\n        /* \"#utility.yul\":44275:44441   */\n    tag_593:\n        /* \"#utility.yul\":44415:44433   */\n      0x696e73756666696369656e742066656500000000000000000000000000000000\n        /* \"#utility.yul\":44411:44412   */\n      0x00\n        /* \"#utility.yul\":44403:44409   */\n      dup3\n        /* \"#utility.yul\":44399:44413   */\n      add\n        /* \"#utility.yul\":44392:44434   */\n      mstore\n        /* \"#utility.yul\":44275:44441   */\n      pop\n      jump\t// out\n        /* \"#utility.yul\":44447:44813   */\n    tag_594:\n        /* \"#utility.yul\":44589:44592   */\n      0x00\n        /* \"#utility.yul\":44610:44677   */\n      tag_1018\n        /* \"#utility.yul\":44674:44676   */\n      0x10\n        /* \"#utility.yul\":44669:44672   */\n      dup4\n        /* \"#utility.yul\":44610:44677   */\n      tag_540\n      jump\t// in\n    tag_1018:\n        /* \"#utility.yul\":44603:44677   */\n      swap2\n      pop\n        /* \"#utility.yul\":44686:44779   */\n      tag_1019\n        /* \"#utility.yul\":44775:44778   */\n      dup3\n        /* \"#utility.yul\":44686:44779   */\n      tag_593\n      jump\t// in\n    tag_1019:\n        /* \"#utility.yul\":44804:44806   */\n      0x20\n        /* \"#utility.yul\":44799:44802   */\n      dup3\n        /* \"#utility.yul\":44795:44807   */\n      add\n        /* \"#utility.yul\":44788:44807   */\n      swap1\n      pop\n        /* \"#utility.yul\":44447:44813   */\n      swap2\n      swap1\n      pop\n      jump\t// out\n        /* \"#utility.yul\":44819:45238   */\n    tag_475:\n        /* \"#utility.yul\":44985:44989   */\n      0x00\n        /* \"#utility.yul\":45023:45025   */\n      0x20\n        /* \"#utility.yul\":45012:45021   */\n      dup3\n        /* \"#utility.yul\":45008:45026   */\n      add\n        /* \"#utility.yul\":45000:45026   */\n      swap1\n      pop\n        /* \"#utility.yul\":45072:45081   */\n      dup2\n        /* \"#utility.yul\":45066:45070   */\n      dup2\n        /* \"#utility.yul\":45062:45082   */\n      sub\n        /* \"#utility.yul\":45058:45059   */\n      0x00\n        /* \"#utility.yul\":45047:45056   */\n      dup4\n        /* \"#utility.yul\":45043:45060   */\n      add\n        /* \"#utility.yul\":45036:45083   */\n      mstore\n        /* \"#utility.yul\":45100:45231   */\n      tag_1021\n        /* \"#utility.yul\":45226:45230   */\n      dup2\n        /* \"#utility.yul\":45100:45231   */\n      tag_594\n      jump\t// in\n    tag_1021:\n        /* \"#utility.yul\":45092:45231   */\n      swap1\n      pop\n        /* \"#utility.yul\":44819:45238   */\n      swap2\n      swap1\n      pop\n      jump\t// out\n        /* \"#utility.yul\":45244:45424   */\n    tag_595:\n        /* \"#utility.yul\":45292:45369   */\n      0x4e487b7100000000000000000000000000000000000000000000000000000000\n        /* \"#utility.yul\":45289:45290   */\n      0x00\n        /* \"#utility.yul\":45282:45370   */\n      mstore\n        /* \"#utility.yul\":45389:45393   */\n      0x12\n        /* \"#utility.yul\":45386:45387   */\n      0x04\n        /* \"#utility.yul\":45379:45394   */\n      mstore\n        /* \"#utility.yul\":45413:45417   */\n      0x24\n        /* \"#utility.yul\":45410:45411   */\n      0x00\n        /* \"#utility.yul\":45403:45418   */\n      revert\n        /* \"#utility.yul\":45430:45615   */\n    tag_478:\n        /* \"#utility.yul\":45470:45471   */\n      0x00\n        /* \"#utility.yul\":45487:45507   */\n      tag_1024\n        /* \"#utility.yul\":45505:45506   */\n      dup3\n        /* \"#utility.yul\":45487:45507   */\n      tag_494\n      jump\t// in\n    tag_1024:\n        /* \"#utility.yul\":45482:45507   */\n      swap2\n      pop\n        /* \"#utility.yul\":45521:45541   */\n      tag_1025\n        /* \"#utility.yul\":45539:45540   */\n      dup4\n        /* \"#utility.yul\":45521:45541   */\n      tag_494\n      jump\t// in\n    tag_1025:\n        /* \"#utility.yul\":45516:45541   */\n      swap3\n      pop\n        /* \"#utility.yul\":45560:45561   */\n      dup3\n        /* \"#utility.yul\":45550:45585   */\n      tag_1026\n      jumpi\n        /* \"#utility.yul\":45565:45583   */\n      tag_1027\n      tag_595\n      jump\t// in\n    tag_1027:\n        /* \"#utility.yul\":45550:45585   */\n    tag_1026:\n        /* \"#utility.yul\":45607:45608   */\n      dup3\n        /* \"#utility.yul\":45604:45605   */\n      dup3\n        /* \"#utility.yul\":45600:45609   */\n      div\n        /* \"#utility.yul\":45595:45609   */\n      swap1\n      pop\n        /* \"#utility.yul\":45430:45615   */\n      swap3\n      swap2\n      pop\n      pop\n      jump\t// out\n        /* \"#utility.yul\":45621:45789   */\n    tag_596:\n        /* \"#utility.yul\":45761:45781   */\n      0x696e707574206e6f742075706c6f616465640000000000000000000000000000\n        /* \"#utility.yul\":45757:45758   */\n      0x00\n        /* \"#utility.yul\":45749:45755   */\n      dup3\n        /* \"#utility.yul\":45745:45759   */\n      add\n        /* \"#utility.yul\":45738:45782   */\n      mstore\n        /* \"#utility.yul\":45621:45789   */\n      pop\n      jump\t// out\n        /* \"#utility.yul\":45795:46161   */\n    tag_597:\n        /* \"#utility.yul\":45937:45940   */\n      0x00\n        /* \"#utility.yul\":45958:46025   */\n      tag_1030\n        /* \"#utility.yul\":46022:46024   */\n      0x12\n        /* \"#utility.yul\":46017:46020   */\n      dup4\n        /* \"#utility.yul\":45958:46025   */\n      tag_540\n      jump\t// in\n    tag_1030:\n        /* \"#utility.yul\":45951:46025   */\n      swap2\n      pop\n        /* \"#utility.yul\":46034:46127   */\n      tag_1031\n        /* \"#utility.yul\":46123:46126   */\n      dup3\n        /* \"#utility.yul\":46034:46127   */\n      tag_596\n      jump\t// in\n    tag_1031:\n        /* \"#utility.yul\":46152:46154   */\n      0x20\n        /* \"#utility.yul\":46147:46150   */\n      dup3\n        /* \"#utility.yul\":46143:46155   */\n      add\n        /* \"#utility.yul\":46136:46155   */\n      swap1\n      pop\n        /* \"#utility.yul\":45795:46161   */\n      swap2\n      swap1\n      pop\n      jump\t// out\n        /* \"#utility.yul\":46167:46586   */\n    tag_482:\n        /* \"#utility.yul\":46333:46337   */\n      0x00\n        /* \"#utility.yul\":46371:46373   */\n      0x20\n        /* \"#utility.yul\":46360:46369   */\n      dup3\n        /* \"#utility.yul\":46356:46374   */\n      add\n        /* \"#utility.yul\":46348:46374   */\n      swap1\n      pop\n        /* \"#utility.yul\":46420:46429   */\n      dup2\n        /* \"#utility.yul\":46414:46418   */\n      dup2\n        /* \"#utility.yul\":46410:46430   */\n      sub\n        /* \"#utility.yul\":46406:46407   */\n      0x00\n        /* \"#utility.yul\":46395:46404   */\n      dup4\n        /* \"#utility.yul\":46391:46408   */\n      add\n        /* \"#utility.yul\":46384:46431   */\n      mstore\n        /* \"#utility.yul\":46448:46579   */\n      tag_1033\n        /* \"#utility.yul\":46574:46578   */\n      dup2\n        /* \"#utility.yul\":46448:46579   */\n      tag_597\n      jump\t// in\n    tag_1033:\n        /* \"#utility.yul\":46440:46579   */\n      swap1\n      pop\n        /* \"#utility.yul\":46167:46586   */\n      swap2\n      swap1\n      pop\n      jump\t// out\n        /* \"#utility.yul\":46592:46758   */\n    tag_598:\n        /* \"#utility.yul\":46732:46750   */\n      0x496e76616c6964206761734c696d697400000000000000000000000000000000\n        /* \"#utility.yul\":46728:46729   */\n      0x00\n        /* \"#utility.yul\":46720:46726   */\n      dup3\n        /* \"#utility.yul\":46716:46730   */\n      add\n        /* \"#utility.yul\":46709:46751   */\n      mstore\n        /* \"#utility.yul\":46592:46758   */\n      pop\n      jump\t// out\n        /* \"#utility.yul\":46764:47130   */\n    tag_599:\n        /* \"#utility.yul\":46906:46909   */\n      0x00\n        /* \"#utility.yul\":46927:46994   */\n      tag_1036\n        /* \"#utility.yul\":46991:46993   */\n      0x10\n        /* \"#utility.yul\":46986:46989   */\n      dup4\n        /* \"#utility.yul\":46927:46994   */\n      tag_540\n      jump\t// in\n    tag_1036:\n        /* \"#utility.yul\":46920:46994   */\n      swap2\n      pop\n        /* \"#utility.yul\":47003:47096   */\n      tag_1037\n        /* \"#utility.yul\":47092:47095   */\n      dup3\n        /* \"#utility.yul\":47003:47096   */\n      tag_598\n      jump\t// in\n    tag_1037:\n        /* \"#utility.yul\":47121:47123   */\n      0x20\n        /* \"#utility.yul\":47116:47119   */\n      dup3\n        /* \"#utility.yul\":47112:47124   */\n      add\n        /* \"#utility.yul\":47105:47124   */\n      swap1\n      pop\n        /* \"#utility.yul\":46764:47130   */\n      swap2\n      swap1\n      pop\n      jump\t// out\n        /* \"#utility.yul\":47136:47555   */\n    tag_485:\n        /* \"#utility.yul\":47302:47306   */\n      0x00\n        /* \"#utility.yul\":47340:47342   */\n      0x20\n        /* \"#utility.yul\":47329:47338   */\n      dup3\n        /* \"#utility.yul\":47325:47343   */\n      add\n        /* \"#utility.yul\":47317:47343   */\n      swap1\n      pop\n        /* \"#utility.yul\":47389:47398   */\n      dup2\n        /* \"#utility.yul\":47383:47387   */\n      dup2\n        /* \"#utility.yul\":47379:47399   */\n      sub\n        /* \"#utility.yul\":47375:47376   */\n      0x00\n        /* \"#utility.yul\":47364:47373   */\n      dup4\n        /* \"#utility.yul\":47360:47377   */\n      add\n        /* \"#utility.yul\":47353:47400   */\n      mstore\n        /* \"#utility.yul\":47417:47548   */\n      tag_1039\n        /* \"#utility.yul\":47543:47547   */\n      dup2\n        /* \"#utility.yul\":47417:47548   */\n      tag_599\n      jump\t// in\n    tag_1039:\n        /* \"#utility.yul\":47409:47548   */\n      swap1\n      pop\n        /* \"#utility.yul\":47136:47555   */\n      swap2\n      swap1\n      pop\n      jump\t// out\n\n    auxdata: 0xa26469706673582212200e70a550574703407baef9d01f508091433db4d9b6c1dc0403b4b7fb2b7fb09764736f6c634300081a0033\n}\n",
				"bytecode": {
					"linkReferences": {},
					"object": "6080604052348015600e575f80fd5b506148548061001c5f395ff3fe6080604052600436106101f6575f3560e01c8063754592b21161010c578063b10975231161009f578063ea5abe611161006e578063ea5abe6114610702578063f2fde38b1461072a578063f9f92be414610752578063fd922a421461078e578063fe173b97146107b8576101f6565b8063b10975231461064c578063b70b5ccc14610688578063e43252d7146106b0578063e857f747146106d8576101f6565b80638da5cb5b116100db5780638da5cb5b146105a65780639a6a794f146105d05780639b19251a146105fa578063ace04ec714610636576101f6565b8063754592b2146104fe57806381d12c581461051457806382dcc26d146105565780638ab1d6811461057e576101f6565b8063537df3b61161018f5780635b9538061161015e5780635b9538061461041a578063699ecb831461044a5780636b0641a3146104725780636c124d741461049a5780636d361694146104c2576101f6565b8063537df3b61461037a57806354c33b10146103a257806355d15d93146103ca5780635638101b146103f2576101f6565b8063349c4136116101cb578063349c4136146102d65780633ccfd60b1461031257806344337ea1146103285780634916373114610350576101f6565b806277f244146101fa578062e1d8d01461022257806317861f871461025e57806333727c4d1461029a575b5f80fd5b348015610205575f80fd5b50610220600480360381019061021b919061319e565b6107e2565b005b34801561022d575f80fd5b50610248600480360381019061024391906131dc565b61092b565b6040516102559190613229565b60405180910390f35b348015610269575f80fd5b50610284600480360381019061027f9190613242565b6109c5565b60405161029191906132dd565b60405180910390f35b3480156102a5575f80fd5b506102c060048036038101906102bb9190613242565b610a6a565b6040516102cd9190613317565b60405180910390f35b3480156102e1575f80fd5b506102fc60048036038101906102f79190613242565b610b0b565b6040516103099190613229565b60405180910390f35b34801561031d575f80fd5b50610326610b2b565b005b348015610333575f80fd5b5061034e60048036038101906103499190613330565b610d70565b005b34801561035b575f80fd5b50610364610e56565b6040516103719190613395565b60405180910390f35b348015610385575f80fd5b506103a0600480360381019061039b9190613330565b610e61565b005b3480156103ad575f80fd5b506103c860048036038101906103c391906133e1565b610f46565b005b3480156103d5575f80fd5b506103f060048036038101906103eb91906134cb565b611183565b005b3480156103fd575f80fd5b5061041860048036038101906104139190613242565b61150b565b005b610434600480360381019061042f919061368d565b6116a6565b6040516104419190613229565b60405180910390f35b348015610455575f80fd5b50610470600480360381019061046b91906131dc565b611980565b005b34801561047d575f80fd5b5061049860048036038101906104939190613242565b611ad4565b005b3480156104a5575f80fd5b506104c060048036038101906104bb91906131dc565b611dab565b005b3480156104cd575f80fd5b506104e860048036038101906104e39190613242565b611ebb565b6040516104f591906137e2565b60405180910390f35b348015610509575f80fd5b50610512611fd0565b005b34801561051f575f80fd5b5061053a60048036038101906105359190613242565b612068565b60405161054d9796959493929190613819565b60405180910390f35b348015610561575f80fd5b5061057c60048036038101906105779190613242565b612204565b005b348015610589575f80fd5b506105a4600480360381019061059f9190613330565b61254e565b005b3480156105b1575f80fd5b506105ba612634565b6040516105c79190613894565b60405180910390f35b3480156105db575f80fd5b506105e4612659565b6040516105f19190613908565b60405180910390f35b348015610605575f80fd5b50610620600480360381019061061b9190613330565b61267e565b60405161062d9190613317565b60405180910390f35b348015610641575f80fd5b5061064a61269b565b005b348015610657575f80fd5b50610672600480360381019061066d9190613242565b612739565b60405161067f91906132dd565b60405180910390f35b348015610693575f80fd5b506106ae60048036038101906106a991906133e1565b6127d4565b005b3480156106bb575f80fd5b506106d660048036038101906106d19190613330565b612a5f565b005b3480156106e3575f80fd5b506106ec612b46565b6040516106f99190613229565b60405180910390f35b34801561070d575f80fd5b5061072860048036038101906107239190613330565b612b52565b005b348015610735575f80fd5b50610750600480360381019061074b9190613330565b612c24565b005b34801561075d575f80fd5b5061077860048036038101906107739190613330565b612dd2565b6040516107859190613317565b60405180910390f35b348015610799575f80fd5b506107a2612dee565b6040516107af9190613894565b60405180910390f35b3480156107c3575f80fd5b506107cc612e06565b6040516107d99190613229565b60405180910390f35b60085f9054906101000a900473ffffffffffffffffffffffffffffffffffffffff1673ffffffffffffffffffffffffffffffffffffffff163373ffffffffffffffffffffffffffffffffffffffff1614610871576040517f08c379a00000000000000000000000000000000000000000000000000000000081526004016108689061397b565b60405180910390fd5b8160045f8281526020019081526020015f205f9054906101000a900460ff166108cf576040517f08c379a00000000000000000000000000000000000000000000000000000000081526004016108c6906139e3565b60405180910390fd5b5f60035f8581526020019081526020015f20905082816003015f6101000a81548173ffffffffffffffffffffffffffffffffffffffff021916908373ffffffffffffffffffffffffffffffffffffffff16021790555050505050565b5f8260045f8281526020019081526020015f205f9054906101000a900460ff1661098a576040517f08c379a0000000000000000000000000000000000000000000000000000000008152600401610981906139e3565b60405180910390fd5b5f60035f8681526020019081526020015f209050836005546109ac9190613a2e565b81600201546109bb9190613a6f565b9250505092915050565b606060075f9054906101000a900473ffffffffffffffffffffffffffffffffffffffff1673ffffffffffffffffffffffffffffffffffffffff166317861f87836040518263ffffffff1660e01b8152600401610a219190613229565b5f60405180830381865afa158015610a3b573d5f803e3d5ffd5b505050506040513d5f823e3d601f19601f82011682018060405250810190610a639190613b10565b9050919050565b5f60075f9054906101000a900473ffffffffffffffffffffffffffffffffffffffff1673ffffffffffffffffffffffffffffffffffffffff166333727c4d836040518263ffffffff1660e01b8152600401610ac59190613229565b602060405180830381865afa158015610ae0573d5f803e3d5ffd5b505050506040513d601f19601f82011682018060405250810190610b049190613b81565b9050919050565b60068181548110610b1a575f80fd5b905f5260205f20015f915090505481565b60085f9054906101000a900473ffffffffffffffffffffffffffffffffffffffff1673ffffffffffffffffffffffffffffffffffffffff163373ffffffffffffffffffffffffffffffffffffffff1614610bba576040517f08c379a0000000000000000000000000000000000000000000000000000000008152600401610bb19061397b565b60405180910390fd5b5f805f90505b600680549050811015610cb3575f60068281548110610be257610be1613bac565b5b905f5260205f20015490505f60035f8381526020019081526020015f206040518060c00160405290815f82015481526020016001820154815260200160028201548152602001600382015f9054906101000a900473ffffffffffffffffffffffffffffffffffffffff1673ffffffffffffffffffffffffffffffffffffffff1673ffffffffffffffffffffffffffffffffffffffff1681526020016004820154815260200160058201548152505090508060a0015184610ca29190613a6f565b935050508080600101915050610bc0565b505f8147610cc19190613bd9565b90505f3373ffffffffffffffffffffffffffffffffffffffff1682604051610ce890613c39565b5f6040518083038185875af1925050503d805f8114610d22576040519150601f19603f3d011682016040523d82523d5f602084013e610d27565b606091505b5050905080610d6b576040517f08c379a0000000000000000000000000000000000000000000000000000000008152600401610d6290613c97565b60405180910390fd5b505050565b60085f9054906101000a900473ffffffffffffffffffffffffffffffffffffffff1673ffffffffffffffffffffffffffffffffffffffff163373ffffffffffffffffffffffffffffffffffffffff1614610dff576040517f08c379a0000000000000000000000000000000000000000000000000000000008152600401610df69061397b565b60405180910390fd5b60015f808373ffffffffffffffffffffffffffffffffffffffff1673ffffffffffffffffffffffffffffffffffffffff1681526020019081526020015f205f6101000a81548160ff02191690831515021790555050565b63b034781460e01b81565b60085f9054906101000a900473ffffffffffffffffffffffffffffffffffffffff1673ffffffffffffffffffffffffffffffffffffffff163373ffffffffffffffffffffffffffffffffffffffff1614610ef0576040517f08c379a0000000000000000000000000000000000000000000000000000000008152600401610ee79061397b565b60405180910390fd5b5f805f8373ffffffffffffffffffffffffffffffffffffffff1673ffffffffffffffffffffffffffffffffffffffff1681526020019081526020015f205f6101000a81548160ff02191690831515021790555050565b60085f9054906101000a900473ffffffffffffffffffffffffffffffffffffffff1673ffffffffffffffffffffffffffffffffffffffff163373ffffffffffffffffffffffffffffffffffffffff1614610fd5576040517f08c379a0000000000000000000000000000000000000000000000000000000008152600401610fcc9061397b565b60405180910390fd5b8560045f8281526020019081526020015f205f9054906101000a900460ff16611033576040517f08c379a000000000000000000000000000000000000000000000000000000000815260040161102a906139e3565b60405180910390fd5b6064821115611077576040517f08c379a000000000000000000000000000000000000000000000000000000000815260040161106e90613cff565b60405180910390fd5b5f60035f8981526020019081526020015f20905086815f018190555085816001018190555084816002018190555083816003015f6101000a81548173ffffffffffffffffffffffffffffffffffffffff021916908373ffffffffffffffffffffffffffffffffffffffff16021790555082816004018190555060075f9054906101000a900473ffffffffffffffffffffffffffffffffffffffff1673ffffffffffffffffffffffffffffffffffffffff16635c3d151988886040518363ffffffff1660e01b815260040161114c929190613d2c565b5f604051808303815f87803b158015611163575f80fd5b505af1158015611175573d5f803e3d5ffd5b505050505050505050505050565b60095f3373ffffffffffffffffffffffffffffffffffffffff1673ffffffffffffffffffffffffffffffffffffffff1681526020019081526020015f205f9054906101000a900460ff1661120c576040517f08c379a000000000000000000000000000000000000000000000000000000000815260040161120390613d9d565b60405180910390fd5b5f60015f8581526020019081526020015f20905060075f9054906101000a900473ffffffffffffffffffffffffffffffffffffffff1673ffffffffffffffffffffffffffffffffffffffff1663480f07c88585856040518463ffffffff1660e01b815260040161127e93929190613de7565b5f604051808303815f87803b158015611295575f80fd5b505af11580156112a7573d5f803e3d5ffd5b505050505f73ffffffffffffffffffffffffffffffffffffffff16816004015f9054906101000a900473ffffffffffffffffffffffffffffffffffffffff1673ffffffffffffffffffffffffffffffffffffffff1614611489575f63b034781460e01b82600101548585856005016040516024016113289493929190613f07565b604051602081830303815290604052907bffffffffffffffffffffffffffffffffffffffffffffffffffffffff19166020820180517bffffffffffffffffffffffffffffffffffffffffffffffffffffffff838183161783525050505090505f80836004015f9054906101000a900473ffffffffffffffffffffffffffffffffffffffff1673ffffffffffffffffffffffffffffffffffffffff168460040160149054906101000a900467ffffffffffffffff1667ffffffffffffffff16846040516113f49190613f7c565b5f604051808303815f8787f1925050503d805f811461142e576040519150601f19603f3d011682016040523d82523d5f602084013e611433565b606091505b509150915081611478576040517f08c379a000000000000000000000000000000000000000000000000000000000815260040161146f90613fdc565b60405180910390fd5b8161148557805160208201fd5b5050505b83815f015f9054906101000a900473ffffffffffffffffffffffffffffffffffffffff1673ffffffffffffffffffffffffffffffffffffffff167fb7b413554c4e94c80cfbb175a0e4727f2f425d29b980195c49dac293c2914fc03386866040516114f693929190613ffa565b60405180910390a33a60058190555050505050565b8060045f8281526020019081526020015f205f9054906101000a900460ff16611569576040517f08c379a0000000000000000000000000000000000000000000000000000000008152600401611560906139e3565b60405180910390fd5b5f60035f8481526020019081526020015f2090505f8160050154116115c3576040517f08c379a00000000000000000000000000000000000000000000000000000000081526004016115ba90614074565b60405180910390fd5b5f816005015490505f82600501819055505f826003015f9054906101000a900473ffffffffffffffffffffffffffffffffffffffff1673ffffffffffffffffffffffffffffffffffffffff168260405161161c90613c39565b5f6040518083038185875af1925050503d805f8114611656576040519150601f19603f3d011682016040523d82523d5f602084013e61165b565b606091505b505090508061169f576040517f08c379a000000000000000000000000000000000000000000000000000000000815260040161169690614102565b60405180910390fd5b5050505050565b5f6116b386868686612e0c565b5f60035f8881526020019081526020015f206040518060c00160405290815f82015481526020016001820154815260200160028201548152602001600382015f9054906101000a900473ffffffffffffffffffffffffffffffffffffffff1673ffffffffffffffffffffffffffffffffffffffff1673ffffffffffffffffffffffffffffffffffffffff1681526020016004820154815260200160058201548152505090505f60075f9054906101000a900473ffffffffffffffffffffffffffffffffffffffff1673ffffffffffffffffffffffffffffffffffffffff1663c61b0b76835f015184602001518a6040518463ffffffff1660e01b81526004016117be93929190614120565b6020604051808303815f875af11580156117da573d5f803e3d5ffd5b505050506040513d601f19601f820116820180604052508101906117fe9190614170565b90505f60015f8381526020019081526020015f20905033815f015f6101000a81548173ffffffffffffffffffffffffffffffffffffffff021916908373ffffffffffffffffffffffffffffffffffffffff16021790555081816001018190555088816002018190555087816003019081611878919061431d565b5086816004015f6101000a81548173ffffffffffffffffffffffffffffffffffffffff021916908373ffffffffffffffffffffffffffffffffffffffff160217905550858160040160146101000a81548167ffffffffffffffff021916908367ffffffffffffffff160217905550848160050190816118f7919061431d565b5081815f015f9054906101000a900473ffffffffffffffffffffffffffffffffffffffff1673ffffffffffffffffffffffffffffffffffffffff167f849aa5adc3bf6a75cb08afbf31d88d1528c274e5d84e3d4355d23d8e9ebd649b8b8b8b8b8b6040516119699594939291906143ec565b60405180910390a381935050505095945050505050565b60085f9054906101000a900473ffffffffffffffffffffffffffffffffffffffff1673ffffffffffffffffffffffffffffffffffffffff163373ffffffffffffffffffffffffffffffffffffffff1614611a0f576040517f08c379a0000000000000000000000000000000000000000000000000000000008152600401611a069061397b565b60405180910390fd5b8160045f8281526020019081526020015f205f9054906101000a900460ff16611a6d576040517f08c379a0000000000000000000000000000000000000000000000000000000008152600401611a64906139e3565b60405180910390fd5b6064821115611ab1576040517f08c379a0000000000000000000000000000000000000000000000000000000008152600401611aa890613cff565b60405180910390fd5b5f60035f8581526020019081526020015f20905082816004018190555050505050565b60085f9054906101000a900473ffffffffffffffffffffffffffffffffffffffff1673ffffffffffffffffffffffffffffffffffffffff163373ffffffffffffffffffffffffffffffffffffffff1614611b63576040517f08c379a0000000000000000000000000000000000000000000000000000000008152600401611b5a9061397b565b60405180910390fd5b8060045f8281526020019081526020015f205f9054906101000a900460ff16611bc1576040517f08c379a0000000000000000000000000000000000000000000000000000000008152600401611bb8906139e3565b60405180910390fd5b5f60035f8481526020019081526020015f2090505f81600501541115611cc0575f816005015490505f82600501819055505f826003015f9054906101000a900473ffffffffffffffffffffffffffffffffffffffff1673ffffffffffffffffffffffffffffffffffffffff1682604051611c3a90613c39565b5f6040518083038185875af1925050503d805f8114611c74576040519150601f19603f3d011682016040523d82523d5f602084013e611c79565b606091505b5050905080611cbd576040517f08c379a0000000000000000000000000000000000000000000000000000000008152600401611cb490614102565b60405180910390fd5b50505b5f60045f8581526020019081526020015f205f6101000a81548160ff0219169083151502179055505f5b600680549050811015611da5575f60068281548110611d0c57611d0b613bac565b5b905f5260205f2001549050848103611d975760066001600680549050611d329190613bd9565b81548110611d4357611d42613bac565b5b905f5260205f20015460068381548110611d6057611d5f613bac565b5b905f5260205f2001819055506006805480611d7e57611d7d61444b565b5b600190038181905f5260205f20015f9055905550611da5565b508080600101915050611cea565b50505050565b60085f9054906101000a900473ffffffffffffffffffffffffffffffffffffffff1673ffffffffffffffffffffffffffffffffffffffff163373ffffffffffffffffffffffffffffffffffffffff1614611e3a576040517f08c379a0000000000000000000000000000000000000000000000000000000008152600401611e319061397b565b60405180910390fd5b8160045f8281526020019081526020015f205f9054906101000a900460ff16611e98576040517f08c379a0000000000000000000000000000000000000000000000000000000008152600401611e8f906139e3565b60405180910390fd5b5f60035f8581526020019081526020015f20905082816002018190555050505050565b611ec361307b565b8160045f8281526020019081526020015f205f9054906101000a900460ff16611f21576040517f08c379a0000000000000000000000000000000000000000000000000000000008152600401611f18906139e3565b60405180910390fd5b5f60035f8581526020019081526020015f206040518060c00160405290815f82015481526020016001820154815260200160028201548152602001600382015f9054906101000a900473ffffffffffffffffffffffffffffffffffffffff1673ffffffffffffffffffffffffffffffffffffffff1673ffffffffffffffffffffffffffffffffffffffff1681526020016004820154815260200160058201548152505090508092505050919050565b60085f9054906101000a900473ffffffffffffffffffffffffffffffffffffffff1673ffffffffffffffffffffffffffffffffffffffff163373ffffffffffffffffffffffffffffffffffffffff161461205f576040517f08c379a00000000000000000000000000000000000000000000000000000000081526004016120569061397b565b60405180910390fd5b5f600581905550565b6001602052805f5260405f205f91509050805f015f9054906101000a900473ffffffffffffffffffffffffffffffffffffffff16908060010154908060020154908060030180546120b890613e44565b80601f01602080910402602001604051908101604052809291908181526020018280546120e490613e44565b801561212f5780601f106121065761010080835404028352916020019161212f565b820191905f5260205f20905b81548152906001019060200180831161211257829003601f168201915b505050505090806004015f9054906101000a900473ffffffffffffffffffffffffffffffffffffffff16908060040160149054906101000a900467ffffffffffffffff169080600501805461218390613e44565b80601f01602080910402602001604051908101604052809291908181526020018280546121af90613e44565b80156121fa5780601f106121d1576101008083540402835291602001916121fa565b820191905f5260205f20905b8154815290600101906020018083116121dd57829003601f168201915b5050505050905087565b5f60015f8381526020019081526020015f2090505f60075f9054906101000a900473ffffffffffffffffffffffffffffffffffffffff1673ffffffffffffffffffffffffffffffffffffffff166317861f87846040518263ffffffff1660e01b81526004016122739190613229565b5f60405180830381865afa15801561228d573d5f803e3d5ffd5b505050506040513d5f823e3d601f19601f820116820180604052508101906122b59190613b10565b90505f8151116122fa576040517f08c379a00000000000000000000000000000000000000000000000000000000081526004016122f1906144c2565b60405180910390fd5b5f73ffffffffffffffffffffffffffffffffffffffff16826004015f9054906101000a900473ffffffffffffffffffffffffffffffffffffffff1673ffffffffffffffffffffffffffffffffffffffff16146124d6575f63b034781460e01b83600101548385600501604051602401612375939291906144e0565b604051602081830303815290604052907bffffffffffffffffffffffffffffffffffffffffffffffffffffffff19166020820180517bffffffffffffffffffffffffffffffffffffffffffffffffffffffff838183161783525050505090505f80846004015f9054906101000a900473ffffffffffffffffffffffffffffffffffffffff1673ffffffffffffffffffffffffffffffffffffffff168560040160149054906101000a900467ffffffffffffffff1667ffffffffffffffff16846040516124419190613f7c565b5f604051808303815f8787f1925050503d805f811461247b576040519150601f19603f3d011682016040523d82523d5f602084013e612480565b606091505b5091509150816124c5576040517f08c379a00000000000000000000000000000000000000000000000000000000081526004016124bc90613fdc565b60405180910390fd5b816124d257805160208201fd5b5050505b82825f015f9054906101000a900473ffffffffffffffffffffffffffffffffffffffff1673ffffffffffffffffffffffffffffffffffffffff167fb7b413554c4e94c80cfbb175a0e4727f2f425d29b980195c49dac293c2914fc03384604051612541929190614523565b60405180910390a3505050565b60085f9054906101000a900473ffffffffffffffffffffffffffffffffffffffff1673ffffffffffffffffffffffffffffffffffffffff163373ffffffffffffffffffffffffffffffffffffffff16146125dd576040517f08c379a00000000000000000000000000000000000000000000000000000000081526004016125d49061397b565b60405180910390fd5b5f60095f8373ffffffffffffffffffffffffffffffffffffffff1673ffffffffffffffffffffffffffffffffffffffff1681526020019081526020015f205f6101000a81548160ff02191690831515021790555050565b60085f9054906101000a900473ffffffffffffffffffffffffffffffffffffffff1681565b60075f9054906101000a900473ffffffffffffffffffffffffffffffffffffffff1681565b6009602052805f5260405f205f915054906101000a900460ff1681565b60085f9054906101000a900473ffffffffffffffffffffffffffffffffffffffff1673ffffffffffffffffffffffffffffffffffffffff163373ffffffffffffffffffffffffffffffffffffffff161461272a576040517f08c379a00000000000000000000000000000000000000000000000000000000081526004016127219061397b565b60405180910390fd5b60065f61273791906130c7565b565b6002602052805f5260405f205f91509050805461275590613e44565b80601f016020809104026020016040519081016040528092919081815260200182805461278190613e44565b80156127cc5780601f106127a3576101008083540402835291602001916127cc565b820191905f5260205f20905b8154815290600101906020018083116127af57829003601f168201915b505050505081565b60085f9054906101000a900473ffffffffffffffffffffffffffffffffffffffff1673ffffffffffffffffffffffffffffffffffffffff163373ffffffffffffffffffffffffffffffffffffffff1614612863576040517f08c379a000000000000000000000000000000000000000000000000000000000815260040161285a9061397b565b60405180910390fd5b60045f8781526020019081526020015f205f9054906101000a900460ff16156128c1576040517f08c379a00000000000000000000000000000000000000000000000000000000081526004016128b89061459b565b60405180910390fd5b6064811115612905576040517f08c379a00000000000000000000000000000000000000000000000000000000081526004016128fc90613cff565b60405180910390fd5b600160045f8881526020019081526020015f205f6101000a81548160ff021916908315150217905550600686908060018154018082558091505060019003905f5260205f20015f90919091909150555f60035f8881526020019081526020015f20905085815f018190555084816001018190555083816002018190555082816003015f6101000a81548173ffffffffffffffffffffffffffffffffffffffff021916908373ffffffffffffffffffffffffffffffffffffffff16021790555081816004018190555060075f9054906101000a900473ffffffffffffffffffffffffffffffffffffffff1673ffffffffffffffffffffffffffffffffffffffff16635c3d151987876040518363ffffffff1660e01b8152600401612a29929190613d2c565b5f604051808303815f87803b158015612a40575f80fd5b505af1158015612a52573d5f803e3d5ffd5b5050505050505050505050565b60085f9054906101000a900473ffffffffffffffffffffffffffffffffffffffff1673ffffffffffffffffffffffffffffffffffffffff163373ffffffffffffffffffffffffffffffffffffffff1614612aee576040517f08c379a0000000000000000000000000000000000000000000000000000000008152600401612ae59061397b565b60405180910390fd5b600160095f8373ffffffffffffffffffffffffffffffffffffffff1673ffffffffffffffffffffffffffffffffffffffff1681526020019081526020015f205f6101000a81548160ff02191690831515021790555050565b5f600680549050905090565b60085f9054906101000a900473ffffffffffffffffffffffffffffffffffffffff1673ffffffffffffffffffffffffffffffffffffffff163373ffffffffffffffffffffffffffffffffffffffff1614612be1576040517f08c379a0000000000000000000000000000000000000000000000000000000008152600401612bd89061397b565b60405180910390fd5b8060075f6101000a81548173ffffffffffffffffffffffffffffffffffffffff021916908373ffffffffffffffffffffffffffffffffffffffff16021790555050565b5f73ffffffffffffffffffffffffffffffffffffffff1660085f9054906101000a900473ffffffffffffffffffffffffffffffffffffffff1673ffffffffffffffffffffffffffffffffffffffff1603612cff5773f5aeb5a4b35be7af7dbfdb765f99bcf479c917bd73ffffffffffffffffffffffffffffffffffffffff163373ffffffffffffffffffffffffffffffffffffffff1614612cfa576040517f08c379a0000000000000000000000000000000000000000000000000000000008152600401612cf190614603565b60405180910390fd5b612d8f565b60085f9054906101000a900473ffffffffffffffffffffffffffffffffffffffff1673ffffffffffffffffffffffffffffffffffffffff163373ffffffffffffffffffffffffffffffffffffffff1614612d8e576040517f08c379a0000000000000000000000000000000000000000000000000000000008152600401612d859061397b565b60405180910390fd5b5b8060085f6101000a81548173ffffffffffffffffffffffffffffffffffffffff021916908373ffffffffffffffffffffffffffffffffffffffff16021790555050565b5f602052805f5260405f205f915054906101000a900460ff1681565b73f5aeb5a4b35be7af7dbfdb765f99bcf479c917bd81565b60055481565b8360045f8281526020019081526020015f205f9054906101000a900460ff16612e6a576040517f08c379a0000000000000000000000000000000000000000000000000000000008152600401612e61906139e3565b60405180910390fd5b825f808273ffffffffffffffffffffffffffffffffffffffff1673ffffffffffffffffffffffffffffffffffffffff1681526020019081526020015f205f9054906101000a900460ff1615612ef4576040517f08c379a0000000000000000000000000000000000000000000000000000000008152600401612eeb9061466b565b60405180910390fd5b5f60035f8881526020019081526020015f2090508367ffffffffffffffff16600554612f209190613a2e565b8160020154612f2f9190613a6f565b341015612f71576040517f08c379a0000000000000000000000000000000000000000000000000000000008152600401612f68906146d3565b60405180910390fd5b606481600401548260020154612f879190613a2e565b612f91919061471e565b816005015f828254612fa39190613a6f565b925050819055505f865111612fed576040517f08c379a0000000000000000000000000000000000000000000000000000000008152600401612fe490614798565b60405180910390fd5b5f8073ffffffffffffffffffffffffffffffffffffffff168673ffffffffffffffffffffffffffffffffffffffff161490505f8567ffffffffffffffff1614151581151514613071576040517f08c379a000000000000000000000000000000000000000000000000000000000815260040161306890614800565b60405180910390fd5b5050505050505050565b6040518060c001604052805f80191681526020015f80191681526020015f81526020015f73ffffffffffffffffffffffffffffffffffffffff1681526020015f81526020015f81525090565b5080545f8255905f5260205f20908101906130e291906130e5565b50565b5b808211156130fc575f815f9055506001016130e6565b5090565b5f604051905090565b5f80fd5b5f80fd5b5f819050919050565b61312381613111565b811461312d575f80fd5b50565b5f8135905061313e8161311a565b92915050565b5f73ffffffffffffffffffffffffffffffffffffffff82169050919050565b5f61316d82613144565b9050919050565b61317d81613163565b8114613187575f80fd5b50565b5f8135905061319881613174565b92915050565b5f80604083850312156131b4576131b3613109565b5b5f6131c185828601613130565b92505060206131d28582860161318a565b9150509250929050565b5f80604083850312156131f2576131f1613109565b5b5f6131ff85828601613130565b925050602061321085828601613130565b9150509250929050565b61322381613111565b82525050565b5f60208201905061323c5f83018461321a565b92915050565b5f6020828403121561325757613256613109565b5b5f61326484828501613130565b91505092915050565b5f81519050919050565b5f82825260208201905092915050565b8281835e5f83830152505050565b5f601f19601f8301169050919050565b5f6132af8261326d565b6132b98185613277565b93506132c9818560208601613287565b6132d281613295565b840191505092915050565b5f6020820190508181035f8301526132f581846132a5565b905092915050565b5f8115159050919050565b613311816132fd565b82525050565b5f60208201905061332a5f830184613308565b92915050565b5f6020828403121561334557613344613109565b5b5f6133528482850161318a565b91505092915050565b5f7fffffffff0000000000000000000000000000000000000000000000000000000082169050919050565b61338f8161335b565b82525050565b5f6020820190506133a85f830184613386565b92915050565b5f819050919050565b6133c0816133ae565b81146133ca575f80fd5b50565b5f813590506133db816133b7565b92915050565b5f805f805f8060c087890312156133fb576133fa613109565b5b5f61340889828a01613130565b965050602061341989828a016133cd565b955050604061342a89828a016133cd565b945050606061343b89828a01613130565b935050608061344c89828a0161318a565b92505060a061345d89828a01613130565b9150509295509295509295565b5f80fd5b5f80fd5b5f80fd5b5f8083601f84011261348b5761348a61346a565b5b8235905067ffffffffffffffff8111156134a8576134a761346e565b5b6020830191508360018202830111156134c4576134c3613472565b5b9250929050565b5f805f604084860312156134e2576134e1613109565b5b5f6134ef86828701613130565b935050602084013567ffffffffffffffff8111156135105761350f61310d565b5b61351c86828701613476565b92509250509250925092565b5f80fd5b7f4e487b71000000000000000000000000000000000000000000000000000000005f52604160045260245ffd5b61356282613295565b810181811067ffffffffffffffff821117156135815761358061352c565b5b80604052505050565b5f613593613100565b905061359f8282613559565b919050565b5f67ffffffffffffffff8211156135be576135bd61352c565b5b6135c782613295565b9050602081019050919050565b828183375f83830152505050565b5f6135f46135ef846135a4565b61358a565b9050828152602081018484840111156136105761360f613528565b5b61361b8482856135d4565b509392505050565b5f82601f8301126136375761363661346a565b5b81356136478482602086016135e2565b91505092915050565b5f67ffffffffffffffff82169050919050565b61366c81613650565b8114613676575f80fd5b50565b5f8135905061368781613663565b92915050565b5f805f805f60a086880312156136a6576136a5613109565b5b5f6136b388828901613130565b955050602086013567ffffffffffffffff8111156136d4576136d361310d565b5b6136e088828901613623565b94505060406136f18882890161318a565b935050606061370288828901613679565b925050608086013567ffffffffffffffff8111156137235761372261310d565b5b61372f88828901613623565b9150509295509295909350565b613745816133ae565b82525050565b61375481613111565b82525050565b61376381613163565b82525050565b60c082015f82015161377d5f85018261373c565b506020820151613790602085018261373c565b5060408201516137a3604085018261374b565b5060608201516137b6606085018261375a565b5060808201516137c9608085018261374b565b5060a08201516137dc60a085018261374b565b50505050565b5f60c0820190506137f55f830184613769565b92915050565b61380481613163565b82525050565b61381381613650565b82525050565b5f60e08201905061382c5f83018a6137fb565b613839602083018961321a565b613846604083018861321a565b818103606083015261385881876132a5565b905061386760808301866137fb565b61387460a083018561380a565b81810360c083015261388681846132a5565b905098975050505050505050565b5f6020820190506138a75f8301846137fb565b92915050565b5f819050919050565b5f6138d06138cb6138c684613144565b6138ad565b613144565b9050919050565b5f6138e1826138b6565b9050919050565b5f6138f2826138d7565b9050919050565b613902816138e8565b82525050565b5f60208201905061391b5f8301846138f9565b92915050565b5f82825260208201905092915050565b7f4e6f7420746865206f776e6572000000000000000000000000000000000000005f82015250565b5f613965600d83613921565b915061397082613931565b602082019050919050565b5f6020820190508181035f83015261399281613959565b9050919050565b7f6d6f64656c20646f6573206e6f742065786973740000000000000000000000005f82015250565b5f6139cd601483613921565b91506139d882613999565b602082019050919050565b5f6020820190508181035f8301526139fa816139c1565b9050919050565b7f4e487b71000000000000000000000000000000000000000000000000000000005f52601160045260245ffd5b5f613a3882613111565b9150613a4383613111565b9250828202613a5181613111565b91508282048414831517613a6857613a67613a01565b5b5092915050565b5f613a7982613111565b9150613a8483613111565b9250828201905080821115613a9c57613a9b613a01565b5b92915050565b5f613ab4613aaf846135a4565b61358a565b905082815260208101848484011115613ad057613acf613528565b5b613adb848285613287565b509392505050565b5f82601f830112613af757613af661346a565b5b8151613b07848260208601613aa2565b91505092915050565b5f60208284031215613b2557613b24613109565b5b5f82015167ffffffffffffffff811115613b4257613b4161310d565b5b613b4e84828501613ae3565b91505092915050565b613b60816132fd565b8114613b6a575f80fd5b50565b5f81519050613b7b81613b57565b92915050565b5f60208284031215613b9657613b95613109565b5b5f613ba384828501613b6d565b91505092915050565b7f4e487b71000000000000000000000000000000000000000000000000000000005f52603260045260245ffd5b5f613be382613111565b9150613bee83613111565b9250828203905081811115613c0657613c05613a01565b5b92915050565b5f81905092915050565b50565b5f613c245f83613c0c565b9150613c2f82613c16565b5f82019050919050565b5f613c4382613c19565b9150819050919050565b7f7769746864726177206661696c656400000000000000000000000000000000005f82015250565b5f613c81600f83613921565b9150613c8c82613c4d565b602082019050919050565b5f6020820190508181035f830152613cae81613c75565b9050919050565b7f70657263656e746167652073686f756c64206265203c3d2031303000000000005f82015250565b5f613ce9601b83613921565b9150613cf482613cb5565b602082019050919050565b5f6020820190508181035f830152613d1681613cdd565b9050919050565b613d26816133ae565b82525050565b5f604082019050613d3f5f830185613d1d565b613d4c6020830184613d1d565b9392505050565b7f41646472657373206e6f742077686974656c69737465640000000000000000005f82015250565b5f613d87601783613921565b9150613d9282613d53565b602082019050919050565b5f6020820190508181035f830152613db481613d7b565b9050919050565b5f613dc68385613277565b9350613dd38385846135d4565b613ddc83613295565b840190509392505050565b5f604082019050613dfa5f83018661321a565b8181036020830152613e0d818486613dbb565b9050949350505050565b7f4e487b71000000000000000000000000000000000000000000000000000000005f52602260045260245ffd5b5f6002820490506001821680613e5b57607f821691505b602082108103613e6e57613e6d613e17565b5b50919050565b5f819050815f5260205f209050919050565b5f8154613e9281613e44565b613e9c8186613277565b9450600182165f8114613eb65760018114613ecc57613efe565b60ff198316865281151560200286019350613efe565b613ed585613e74565b5f5b83811015613ef657815481890152600182019150602081019050613ed7565b808801955050505b50505092915050565b5f606082019050613f1a5f83018761321a565b8181036020830152613f2d818587613dbb565b90508181036040830152613f418184613e86565b905095945050505050565b5f613f568261326d565b613f608185613c0c565b9350613f70818560208601613287565b80840191505092915050565b5f613f878284613f4c565b915081905092915050565b7f6661696c656420746f2063616c6c2073656c6563746f720000000000000000005f82015250565b5f613fc6601783613921565b9150613fd182613f92565b602082019050919050565b5f6020820190508181035f830152613ff381613fba565b9050919050565b5f60408201905061400d5f8301866137fb565b8181036020830152614020818486613dbb565b9050949350505050565b7f616363756d756c61746520726576656e756520697320300000000000000000005f82015250565b5f61405e601783613921565b91506140698261402a565b602082019050919050565b5f6020820190508181035f83015261408b81614052565b9050919050565b7f636c61696d4d6f64656c526576656e7565207472616e73666572206661696c655f8201527f6400000000000000000000000000000000000000000000000000000000000000602082015250565b5f6140ec602183613921565b91506140f782614092565b604082019050919050565b5f6020820190508181035f830152614119816140e0565b9050919050565b5f6060820190506141335f830186613d1d565b6141406020830185613d1d565b818103604083015261415281846132a5565b9050949350505050565b5f8151905061416a8161311a565b92915050565b5f6020828403121561418557614184613109565b5b5f6141928482850161415c565b91505092915050565b5f6020601f8301049050919050565b5f82821b905092915050565b5f600883026141e57fffffffffffffffffffffffffffffffffffffffffffffffffffffffffffffffff826141aa565b6141ef86836141aa565b95508019841693508086168417925050509392505050565b5f61422161421c61421784613111565b6138ad565b613111565b9050919050565b5f819050919050565b61423a83614207565b61424e61424682614228565b8484546141b6565b825550505050565b5f90565b614262614256565b61426d818484614231565b505050565b5b81811015614290576142855f8261425a565b600181019050614273565b5050565b601f8211156142d5576142a681613e74565b6142af8461419b565b810160208510156142be578190505b6142d26142ca8561419b565b830182614272565b50505b505050565b5f82821c905092915050565b5f6142f55f19846008026142da565b1980831691505092915050565b5f61430d83836142e6565b9150826002028217905092915050565b6143268261326d565b67ffffffffffffffff81111561433f5761433e61352c565b5b6143498254613e44565b614354828285614294565b5f60209050601f831160018114614385575f8415614373578287015190505b61437d8582614302565b8655506143e4565b601f19841661439386613e74565b5f5b828110156143ba57848901518255600182019150602085019450602081019050614395565b868310156143d757848901516143d3601f8916826142e6565b8355505b6001600288020188555050505b505050505050565b5f60a0820190506143ff5f83018861321a565b818103602083015261441181876132a5565b905061442060408301866137fb565b61442d606083018561380a565b818103608083015261443f81846132a5565b90509695505050505050565b7f4e487b71000000000000000000000000000000000000000000000000000000005f52603160045260245ffd5b7f6f7574707574206e6f742075706c6f61646564000000000000000000000000005f82015250565b5f6144ac601383613921565b91506144b782614478565b602082019050919050565b5f6020820190508181035f8301526144d9816144a0565b9050919050565b5f6060820190506144f35f83018661321a565b818103602083015261450581856132a5565b905081810360408301526145198184613e86565b9050949350505050565b5f6040820190506145365f8301856137fb565b818103602083015261454881846132a5565b90509392505050565b7f6d6f64656c20616c7265616479206578697374730000000000000000000000005f82015250565b5f614585601483613921565b915061459082614551565b602082019050919050565b5f6020820190508181035f8301526145b281614579565b9050919050565b7f6f6e6c79207365727665722063616e20696e6974206f776e65720000000000005f82015250565b5f6145ed601a83613921565b91506145f8826145b9565b602082019050919050565b5f6020820190508181035f83015261461a816145e1565b9050919050565b7f496e20626c61636b6c69737400000000000000000000000000000000000000005f82015250565b5f614655600c83613921565b915061466082614621565b602082019050919050565b5f6020820190508181035f83015261468281614649565b9050919050565b7f696e73756666696369656e7420666565000000000000000000000000000000005f82015250565b5f6146bd601083613921565b91506146c882614689565b602082019050919050565b5f6020820190508181035f8301526146ea816146b1565b9050919050565b7f4e487b71000000000000000000000000000000000000000000000000000000005f52601260045260245ffd5b5f61472882613111565b915061473383613111565b925082614743576147426146f1565b5b828204905092915050565b7f696e707574206e6f742075706c6f6164656400000000000000000000000000005f82015250565b5f614782601283613921565b915061478d8261474e565b602082019050919050565b5f6020820190508181035f8301526147af81614776565b9050919050565b7f496e76616c6964206761734c696d6974000000000000000000000000000000005f82015250565b5f6147ea601083613921565b91506147f5826147b6565b602082019050919050565b5f6020820190508181035f830152614817816147de565b905091905056fea26469706673582212200e70a550574703407baef9d01f508091433db4d9b6c1dc0403b4b7fb2b7fb09764736f6c634300081a0033",
					"opcodes": "PUSH1 0x80 PUSH1 0x40 MSTORE CALLVALUE DUP1 ISZERO PUSH1 0xE JUMPI PUSH0 DUP1 REVERT JUMPDEST POP PUSH2 0x4854 DUP1 PUSH2 0x1C PUSH0 CODECOPY PUSH0 RETURN INVALID PUSH1 0x80 PUSH1 0x40 MSTORE PUSH1 0x4 CALLDATASIZE LT PUSH2 0x1F6 JUMPI PUSH0 CALLDATALOAD PUSH1 0xE0 SHR DUP1 PUSH4 0x754592B2 GT PUSH2 0x10C JUMPI DUP1 PUSH4 0xB1097523 GT PUSH2 0x9F JUMPI DUP1 PUSH4 0xEA5ABE61 GT PUSH2 0x6E JUMPI DUP1 PUSH4 0xEA5ABE61 EQ PUSH2 0x702 JUMPI DUP1 PUSH4 0xF2FDE38B EQ PUSH2 0x72A JUMPI DUP1 PUSH4 0xF9F92BE4 EQ PUSH2 0x752 JUMPI DUP1 PUSH4 0xFD922A42 EQ PUSH2 0x78E JUMPI DUP1 PUSH4 0xFE173B97 EQ PUSH2 0x7B8 JUMPI PUSH2 0x1F6 JUMP JUMPDEST DUP1 PUSH4 0xB1097523 EQ PUSH2 0x64C JUMPI DUP1 PUSH4 0xB70B5CCC EQ PUSH2 0x688 JUMPI DUP1 PUSH4 0xE43252D7 EQ PUSH2 0x6B0 JUMPI DUP1 PUSH4 0xE857F747 EQ PUSH2 0x6D8 JUMPI PUSH2 0x1F6 JUMP JUMPDEST DUP1 PUSH4 0x8DA5CB5B GT PUSH2 0xDB JUMPI DUP1 PUSH4 0x8DA5CB5B EQ PUSH2 0x5A6 JUMPI DUP1 PUSH4 0x9A6A794F EQ PUSH2 0x5D0 JUMPI DUP1 PUSH4 0x9B19251A EQ PUSH2 0x5FA JUMPI DUP1 PUSH4 0xACE04EC7 EQ PUSH2 0x636 JUMPI PUSH2 0x1F6 JUMP JUMPDEST DUP1 PUSH4 0x754592B2 EQ PUSH2 0x4FE JUMPI DUP1 PUSH4 0x81D12C58 EQ PUSH2 0x514 JUMPI DUP1 PUSH4 0x82DCC26D EQ PUSH2 0x556 JUMPI DUP1 PUSH4 0x8AB1D681 EQ PUSH2 0x57E JUMPI PUSH2 0x1F6 JUMP JUMPDEST DUP1 PUSH4 0x537DF3B6 GT PUSH2 0x18F JUMPI DUP1 PUSH4 0x5B953806 GT PUSH2 0x15E JUMPI DUP1 PUSH4 0x5B953806 EQ PUSH2 0x41A JUMPI DUP1 PUSH4 0x699ECB83 EQ PUSH2 0x44A JUMPI DUP1 PUSH4 0x6B0641A3 EQ PUSH2 0x472 JUMPI DUP1 PUSH4 0x6C124D74 EQ PUSH2 0x49A JUMPI DUP1 PUSH4 0x6D361694 EQ PUSH2 0x4C2 JUMPI PUSH2 0x1F6 JUMP JUMPDEST DUP1 PUSH4 0x537DF3B6 EQ PUSH2 0x37A JUMPI DUP1 PUSH4 0x54C33B10 EQ PUSH2 0x3A2 JUMPI DUP1 PUSH4 0x55D15D93 EQ PUSH2 0x3CA JUMPI DUP1 PUSH4 0x5638101B EQ PUSH2 0x3F2 JUMPI PUSH2 0x1F6 JUMP JUMPDEST DUP1 PUSH4 0x349C4136 GT PUSH2 0x1CB JUMPI DUP1 PUSH4 0x349C4136 EQ PUSH2 0x2D6 JUMPI DUP1 PUSH4 0x3CCFD60B EQ PUSH2 0x312 JUMPI DUP1 PUSH4 0x44337EA1 EQ PUSH2 0x328 JUMPI DUP1 PUSH4 0x49163731 EQ PUSH2 0x350 JUMPI PUSH2 0x1F6 JUMP JUMPDEST DUP1 PUSH3 0x77F244 EQ PUSH2 0x1FA JUMPI DUP1 PUSH3 0xE1D8D0 EQ PUSH2 0x222 JUMPI DUP1 PUSH4 0x17861F87 EQ PUSH2 0x25E JUMPI DUP1 PUSH4 0x33727C4D EQ PUSH2 0x29A JUMPI JUMPDEST PUSH0 DUP1 REVERT JUMPDEST CALLVALUE DUP1 ISZERO PUSH2 0x205 JUMPI PUSH0 DUP1 REVERT JUMPDEST POP PUSH2 0x220 PUSH1 0x4 DUP1 CALLDATASIZE SUB DUP2 ADD SWAP1 PUSH2 0x21B SWAP2 SWAP1 PUSH2 0x319E JUMP JUMPDEST PUSH2 0x7E2 JUMP JUMPDEST STOP JUMPDEST CALLVALUE DUP1 ISZERO PUSH2 0x22D JUMPI PUSH0 DUP1 REVERT JUMPDEST POP PUSH2 0x248 PUSH1 0x4 DUP1 CALLDATASIZE SUB DUP2 ADD SWAP1 PUSH2 0x243 SWAP2 SWAP1 PUSH2 0x31DC JUMP JUMPDEST PUSH2 0x92B JUMP JUMPDEST PUSH1 0x40 MLOAD PUSH2 0x255 SWAP2 SWAP1 PUSH2 0x3229 JUMP JUMPDEST PUSH1 0x40 MLOAD DUP1 SWAP2 SUB SWAP1 RETURN JUMPDEST CALLVALUE DUP1 ISZERO PUSH2 0x269 JUMPI PUSH0 DUP1 REVERT JUMPDEST POP PUSH2 0x284 PUSH1 0x4 DUP1 CALLDATASIZE SUB DUP2 ADD SWAP1 PUSH2 0x27F SWAP2 SWAP1 PUSH2 0x3242 JUMP JUMPDEST PUSH2 0x9C5 JUMP JUMPDEST PUSH1 0x40 MLOAD PUSH2 0x291 SWAP2 SWAP1 PUSH2 0x32DD JUMP JUMPDEST PUSH1 0x40 MLOAD DUP1 SWAP2 SUB SWAP1 RETURN JUMPDEST CALLVALUE DUP1 ISZERO PUSH2 0x2A5 JUMPI PUSH0 DUP1 REVERT JUMPDEST POP PUSH2 0x2C0 PUSH1 0x4 DUP1 CALLDATASIZE SUB DUP2 ADD SWAP1 PUSH2 0x2BB SWAP2 SWAP1 PUSH2 0x3242 JUMP JUMPDEST PUSH2 0xA6A JUMP JUMPDEST PUSH1 0x40 MLOAD PUSH2 0x2CD SWAP2 SWAP1 PUSH2 0x3317 JUMP JUMPDEST PUSH1 0x40 MLOAD DUP1 SWAP2 SUB SWAP1 RETURN JUMPDEST CALLVALUE DUP1 ISZERO PUSH2 0x2E1 JUMPI PUSH0 DUP1 REVERT JUMPDEST POP PUSH2 0x2FC PUSH1 0x4 DUP1 CALLDATASIZE SUB DUP2 ADD SWAP1 PUSH2 0x2F7 SWAP2 SWAP1 PUSH2 0x3242 JUMP JUMPDEST PUSH2 0xB0B JUMP JUMPDEST PUSH1 0x40 MLOAD PUSH2 0x309 SWAP2 SWAP1 PUSH2 0x3229 JUMP JUMPDEST PUSH1 0x40 MLOAD DUP1 SWAP2 SUB SWAP1 RETURN JUMPDEST CALLVALUE DUP1 ISZERO PUSH2 0x31D JUMPI PUSH0 DUP1 REVERT JUMPDEST POP PUSH2 0x326 PUSH2 0xB2B JUMP JUMPDEST STOP JUMPDEST CALLVALUE DUP1 ISZERO PUSH2 0x333 JUMPI PUSH0 DUP1 REVERT JUMPDEST POP PUSH2 0x34E PUSH1 0x4 DUP1 CALLDATASIZE SUB DUP2 ADD SWAP1 PUSH2 0x349 SWAP2 SWAP1 PUSH2 0x3330 JUMP JUMPDEST PUSH2 0xD70 JUMP JUMPDEST STOP JUMPDEST CALLVALUE DUP1 ISZERO PUSH2 0x35B JUMPI PUSH0 DUP1 REVERT JUMPDEST POP PUSH2 0x364 PUSH2 0xE56 JUMP JUMPDEST PUSH1 0x40 MLOAD PUSH2 0x371 SWAP2 SWAP1 PUSH2 0x3395 JUMP JUMPDEST PUSH1 0x40 MLOAD DUP1 SWAP2 SUB SWAP1 RETURN JUMPDEST CALLVALUE DUP1 ISZERO PUSH2 0x385 JUMPI PUSH0 DUP1 REVERT JUMPDEST POP PUSH2 0x3A0 PUSH1 0x4 DUP1 CALLDATASIZE SUB DUP2 ADD SWAP1 PUSH2 0x39B SWAP2 SWAP1 PUSH2 0x3330 JUMP JUMPDEST PUSH2 0xE61 JUMP JUMPDEST STOP JUMPDEST CALLVALUE DUP1 ISZERO PUSH2 0x3AD JUMPI PUSH0 DUP1 REVERT JUMPDEST POP PUSH2 0x3C8 PUSH1 0x4 DUP1 CALLDATASIZE SUB DUP2 ADD SWAP1 PUSH2 0x3C3 SWAP2 SWAP1 PUSH2 0x33E1 JUMP JUMPDEST PUSH2 0xF46 JUMP JUMPDEST STOP JUMPDEST CALLVALUE DUP1 ISZERO PUSH2 0x3D5 JUMPI PUSH0 DUP1 REVERT JUMPDEST POP PUSH2 0x3F0 PUSH1 0x4 DUP1 CALLDATASIZE SUB DUP2 ADD SWAP1 PUSH2 0x3EB SWAP2 SWAP1 PUSH2 0x34CB JUMP JUMPDEST PUSH2 0x1183 JUMP JUMPDEST STOP JUMPDEST CALLVALUE DUP1 ISZERO PUSH2 0x3FD JUMPI PUSH0 DUP1 REVERT JUMPDEST POP PUSH2 0x418 PUSH1 0x4 DUP1 CALLDATASIZE SUB DUP2 ADD SWAP1 PUSH2 0x413 SWAP2 SWAP1 PUSH2 0x3242 JUMP JUMPDEST PUSH2 0x150B JUMP JUMPDEST STOP JUMPDEST PUSH2 0x434 PUSH1 0x4 DUP1 CALLDATASIZE SUB DUP2 ADD SWAP1 PUSH2 0x42F SWAP2 SWAP1 PUSH2 0x368D JUMP JUMPDEST PUSH2 0x16A6 JUMP JUMPDEST PUSH1 0x40 MLOAD PUSH2 0x441 SWAP2 SWAP1 PUSH2 0x3229 JUMP JUMPDEST PUSH1 0x40 MLOAD DUP1 SWAP2 SUB SWAP1 RETURN JUMPDEST CALLVALUE DUP1 ISZERO PUSH2 0x455 JUMPI PUSH0 DUP1 REVERT JUMPDEST POP PUSH2 0x470 PUSH1 0x4 DUP1 CALLDATASIZE SUB DUP2 ADD SWAP1 PUSH2 0x46B SWAP2 SWAP1 PUSH2 0x31DC JUMP JUMPDEST PUSH2 0x1980 JUMP JUMPDEST STOP JUMPDEST CALLVALUE DUP1 ISZERO PUSH2 0x47D JUMPI PUSH0 DUP1 REVERT JUMPDEST POP PUSH2 0x498 PUSH1 0x4 DUP1 CALLDATASIZE SUB DUP2 ADD SWAP1 PUSH2 0x493 SWAP2 SWAP1 PUSH2 0x3242 JUMP JUMPDEST PUSH2 0x1AD4 JUMP JUMPDEST STOP JUMPDEST CALLVALUE DUP1 ISZERO PUSH2 0x4A5 JUMPI PUSH0 DUP1 REVERT JUMPDEST POP PUSH2 0x4C0 PUSH1 0x4 DUP1 CALLDATASIZE SUB DUP2 ADD SWAP1 PUSH2 0x4BB SWAP2 SWAP1 PUSH2 0x31DC JUMP JUMPDEST PUSH2 0x1DAB JUMP JUMPDEST STOP JUMPDEST CALLVALUE DUP1 ISZERO PUSH2 0x4CD JUMPI PUSH0 DUP1 REVERT JUMPDEST POP PUSH2 0x4E8 PUSH1 0x4 DUP1 CALLDATASIZE SUB DUP2 ADD SWAP1 PUSH2 0x4E3 SWAP2 SWAP1 PUSH2 0x3242 JUMP JUMPDEST PUSH2 0x1EBB JUMP JUMPDEST PUSH1 0x40 MLOAD PUSH2 0x4F5 SWAP2 SWAP1 PUSH2 0x37E2 JUMP JUMPDEST PUSH1 0x40 MLOAD DUP1 SWAP2 SUB SWAP1 RETURN JUMPDEST CALLVALUE DUP1 ISZERO PUSH2 0x509 JUMPI PUSH0 DUP1 REVERT JUMPDEST POP PUSH2 0x512 PUSH2 0x1FD0 JUMP JUMPDEST STOP JUMPDEST CALLVALUE DUP1 ISZERO PUSH2 0x51F JUMPI PUSH0 DUP1 REVERT JUMPDEST POP PUSH2 0x53A PUSH1 0x4 DUP1 CALLDATASIZE SUB DUP2 ADD SWAP1 PUSH2 0x535 SWAP2 SWAP1 PUSH2 0x3242 JUMP JUMPDEST PUSH2 0x2068 JUMP JUMPDEST PUSH1 0x40 MLOAD PUSH2 0x54D SWAP8 SWAP7 SWAP6 SWAP5 SWAP4 SWAP3 SWAP2 SWAP1 PUSH2 0x3819 JUMP JUMPDEST PUSH1 0x40 MLOAD DUP1 SWAP2 SUB SWAP1 RETURN JUMPDEST CALLVALUE DUP1 ISZERO PUSH2 0x561 JUMPI PUSH0 DUP1 REVERT JUMPDEST POP PUSH2 0x57C PUSH1 0x4 DUP1 CALLDATASIZE SUB DUP2 ADD SWAP1 PUSH2 0x577 SWAP2 SWAP1 PUSH2 0x3242 JUMP JUMPDEST PUSH2 0x2204 JUMP JUMPDEST STOP JUMPDEST CALLVALUE DUP1 ISZERO PUSH2 0x589 JUMPI PUSH0 DUP1 REVERT JUMPDEST POP PUSH2 0x5A4 PUSH1 0x4 DUP1 CALLDATASIZE SUB DUP2 ADD SWAP1 PUSH2 0x59F SWAP2 SWAP1 PUSH2 0x3330 JUMP JUMPDEST PUSH2 0x254E JUMP JUMPDEST STOP JUMPDEST CALLVALUE DUP1 ISZERO PUSH2 0x5B1 JUMPI PUSH0 DUP1 REVERT JUMPDEST POP PUSH2 0x5BA PUSH2 0x2634 JUMP JUMPDEST PUSH1 0x40 MLOAD PUSH2 0x5C7 SWAP2 SWAP1 PUSH2 0x3894 JUMP JUMPDEST PUSH1 0x40 MLOAD DUP1 SWAP2 SUB SWAP1 RETURN JUMPDEST CALLVALUE DUP1 ISZERO PUSH2 0x5DB JUMPI PUSH0 DUP1 REVERT JUMPDEST POP PUSH2 0x5E4 PUSH2 0x2659 JUMP JUMPDEST PUSH1 0x40 MLOAD PUSH2 0x5F1 SWAP2 SWAP1 PUSH2 0x3908 JUMP JUMPDEST PUSH1 0x40 MLOAD DUP1 SWAP2 SUB SWAP1 RETURN JUMPDEST CALLVALUE DUP1 ISZERO PUSH2 0x605 JUMPI PUSH0 DUP1 REVERT JUMPDEST POP PUSH2 0x620 PUSH1 0x4 DUP1 CALLDATASIZE SUB DUP2 ADD SWAP1 PUSH2 0x61B SWAP2 SWAP1 PUSH2 0x3330 JUMP JUMPDEST PUSH2 0x267E JUMP JUMPDEST PUSH1 0x40 MLOAD PUSH2 0x62D SWAP2 SWAP1 PUSH2 0x3317 JUMP JUMPDEST PUSH1 0x40 MLOAD DUP1 SWAP2 SUB SWAP1 RETURN JUMPDEST CALLVALUE DUP1 ISZERO PUSH2 0x641 JUMPI PUSH0 DUP1 REVERT JUMPDEST POP PUSH2 0x64A PUSH2 0x269B JUMP JUMPDEST STOP JUMPDEST CALLVALUE DUP1 ISZERO PUSH2 0x657 JUMPI PUSH0 DUP1 REVERT JUMPDEST POP PUSH2 0x672 PUSH1 0x4 DUP1 CALLDATASIZE SUB DUP2 ADD SWAP1 PUSH2 0x66D SWAP2 SWAP1 PUSH2 0x3242 JUMP JUMPDEST PUSH2 0x2739 JUMP JUMPDEST PUSH1 0x40 MLOAD PUSH2 0x67F SWAP2 SWAP1 PUSH2 0x32DD JUMP JUMPDEST PUSH1 0x40 MLOAD DUP1 SWAP2 SUB SWAP1 RETURN JUMPDEST CALLVALUE DUP1 ISZERO PUSH2 0x693 JUMPI PUSH0 DUP1 REVERT JUMPDEST POP PUSH2 0x6AE PUSH1 0x4 DUP1 CALLDATASIZE SUB DUP2 ADD SWAP1 PUSH2 0x6A9 SWAP2 SWAP1 PUSH2 0x33E1 JUMP JUMPDEST PUSH2 0x27D4 JUMP JUMPDEST STOP JUMPDEST CALLVALUE DUP1 ISZERO PUSH2 0x6BB JUMPI PUSH0 DUP1 REVERT JUMPDEST POP PUSH2 0x6D6 PUSH1 0x4 DUP1 CALLDATASIZE SUB DUP2 ADD SWAP1 PUSH2 0x6D1 SWAP2 SWAP1 PUSH2 0x3330 JUMP JUMPDEST PUSH2 0x2A5F JUMP JUMPDEST STOP JUMPDEST CALLVALUE DUP1 ISZERO PUSH2 0x6E3 JUMPI PUSH0 DUP1 REVERT JUMPDEST POP PUSH2 0x6EC PUSH2 0x2B46 JUMP JUMPDEST PUSH1 0x40 MLOAD PUSH2 0x6F9 SWAP2 SWAP1 PUSH2 0x3229 JUMP JUMPDEST PUSH1 0x40 MLOAD DUP1 SWAP2 SUB SWAP1 RETURN JUMPDEST CALLVALUE DUP1 ISZERO PUSH2 0x70D JUMPI PUSH0 DUP1 REVERT JUMPDEST POP PUSH2 0x728 PUSH1 0x4 DUP1 CALLDATASIZE SUB DUP2 ADD SWAP1 PUSH2 0x723 SWAP2 SWAP1 PUSH2 0x3330 JUMP JUMPDEST PUSH2 0x2B52 JUMP JUMPDEST STOP JUMPDEST CALLVALUE DUP1 ISZERO PUSH2 0x735 JUMPI PUSH0 DUP1 REVERT JUMPDEST POP PUSH2 0x750 PUSH1 0x4 DUP1 CALLDATASIZE SUB DUP2 ADD SWAP1 PUSH2 0x74B SWAP2 SWAP1 PUSH2 0x3330 JUMP JUMPDEST PUSH2 0x2C24 JUMP JUMPDEST STOP JUMPDEST CALLVALUE DUP1 ISZERO PUSH2 0x75D JUMPI PUSH0 DUP1 REVERT JUMPDEST POP PUSH2 0x778 PUSH1 0x4 DUP1 CALLDATASIZE SUB DUP2 ADD SWAP1 PUSH2 0x773 SWAP2 SWAP1 PUSH2 0x3330 JUMP JUMPDEST PUSH2 0x2DD2 JUMP JUMPDEST PUSH1 0x40 MLOAD PUSH2 0x785 SWAP2 SWAP1 PUSH2 0x3317 JUMP JUMPDEST PUSH1 0x40 MLOAD DUP1 SWAP2 SUB SWAP1 RETURN JUMPDEST CALLVALUE DUP1 ISZERO PUSH2 0x799 JUMPI PUSH0 DUP1 REVERT JUMPDEST POP PUSH2 0x7A2 PUSH2 0x2DEE JUMP JUMPDEST PUSH1 0x40 MLOAD PUSH2 0x7AF SWAP2 SWAP1 PUSH2 0x3894 JUMP JUMPDEST PUSH1 0x40 MLOAD DUP1 SWAP2 SUB SWAP1 RETURN JUMPDEST CALLVALUE DUP1 ISZERO PUSH2 0x7C3 JUMPI PUSH0 DUP1 REVERT JUMPDEST POP PUSH2 0x7CC PUSH2 0x2E06 JUMP JUMPDEST PUSH1 0x40 MLOAD PUSH2 0x7D9 SWAP2 SWAP1 PUSH2 0x3229 JUMP JUMPDEST PUSH1 0x40 MLOAD DUP1 SWAP2 SUB SWAP1 RETURN JUMPDEST PUSH1 0x8 PUSH0 SWAP1 SLOAD SWAP1 PUSH2 0x100 EXP SWAP1 DIV PUSH20 0xFFFFFFFFFFFFFFFFFFFFFFFFFFFFFFFFFFFFFFFF AND PUSH20 0xFFFFFFFFFFFFFFFFFFFFFFFFFFFFFFFFFFFFFFFF AND CALLER PUSH20 0xFFFFFFFFFFFFFFFFFFFFFFFFFFFFFFFFFFFFFFFF AND EQ PUSH2 0x871 JUMPI PUSH1 0x40 MLOAD PUSH32 0x8C379A000000000000000000000000000000000000000000000000000000000 DUP2 MSTORE PUSH1 0x4 ADD PUSH2 0x868 SWAP1 PUSH2 0x397B JUMP JUMPDEST PUSH1 0x40 MLOAD DUP1 SWAP2 SUB SWAP1 REVERT JUMPDEST DUP2 PUSH1 0x4 PUSH0 DUP3 DUP2 MSTORE PUSH1 0x20 ADD SWAP1 DUP2 MSTORE PUSH1 0x20 ADD PUSH0 KECCAK256 PUSH0 SWAP1 SLOAD SWAP1 PUSH2 0x100 EXP SWAP1 DIV PUSH1 0xFF AND PUSH2 0x8CF JUMPI PUSH1 0x40 MLOAD PUSH32 0x8C379A000000000000000000000000000000000000000000000000000000000 DUP2 MSTORE PUSH1 0x4 ADD PUSH2 0x8C6 SWAP1 PUSH2 0x39E3 JUMP JUMPDEST PUSH1 0x40 MLOAD DUP1 SWAP2 SUB SWAP1 REVERT JUMPDEST PUSH0 PUSH1 0x3 PUSH0 DUP6 DUP2 MSTORE PUSH1 0x20 ADD SWAP1 DUP2 MSTORE PUSH1 0x20 ADD PUSH0 KECCAK256 SWAP1 POP DUP3 DUP2 PUSH1 0x3 ADD PUSH0 PUSH2 0x100 EXP DUP2 SLOAD DUP2 PUSH20 0xFFFFFFFFFFFFFFFFFFFFFFFFFFFFFFFFFFFFFFFF MUL NOT AND SWAP1 DUP4 PUSH20 0xFFFFFFFFFFFFFFFFFFFFFFFFFFFFFFFFFFFFFFFF AND MUL OR SWAP1 SSTORE POP POP POP POP POP JUMP JUMPDEST PUSH0 DUP3 PUSH1 0x4 PUSH0 DUP3 DUP2 MSTORE PUSH1 0x20 ADD SWAP1 DUP2 MSTORE PUSH1 0x20 ADD PUSH0 KECCAK256 PUSH0 SWAP1 SLOAD SWAP1 PUSH2 0x100 EXP SWAP1 DIV PUSH1 0xFF AND PUSH2 0x98A JUMPI PUSH1 0x40 MLOAD PUSH32 0x8C379A000000000000000000000000000000000000000000000000000000000 DUP2 MSTORE PUSH1 0x4 ADD PUSH2 0x981 SWAP1 PUSH2 0x39E3 JUMP JUMPDEST PUSH1 0x40 MLOAD DUP1 SWAP2 SUB SWAP1 REVERT JUMPDEST PUSH0 PUSH1 0x3 PUSH0 DUP7 DUP2 MSTORE PUSH1 0x20 ADD SWAP1 DUP2 MSTORE PUSH1 0x20 ADD PUSH0 KECCAK256 SWAP1 POP DUP4 PUSH1 0x5 SLOAD PUSH2 0x9AC SWAP2 SWAP1 PUSH2 0x3A2E JUMP JUMPDEST DUP2 PUSH1 0x2 ADD SLOAD PUSH2 0x9BB SWAP2 SWAP1 PUSH2 0x3A6F JUMP JUMPDEST SWAP3 POP POP POP SWAP3 SWAP2 POP POP JUMP JUMPDEST PUSH1 0x60 PUSH1 0x7 PUSH0 SWAP1 SLOAD SWAP1 PUSH2 0x100 EXP SWAP1 DIV PUSH20 0xFFFFFFFFFFFFFFFFFFFFFFFFFFFFFFFFFFFFFFFF AND PUSH20 0xFFFFFFFFFFFFFFFFFFFFFFFFFFFFFFFFFFFFFFFF AND PUSH4 0x17861F87 DUP4 PUSH1 0x40 MLOAD DUP3 PUSH4 0xFFFFFFFF AND PUSH1 0xE0 SHL DUP2 MSTORE PUSH1 0x4 ADD PUSH2 0xA21 SWAP2 SWAP1 PUSH2 0x3229 JUMP JUMPDEST PUSH0 PUSH1 0x40 MLOAD DUP1 DUP4 SUB DUP2 DUP7 GAS STATICCALL ISZERO DUP1 ISZERO PUSH2 0xA3B JUMPI RETURNDATASIZE PUSH0 DUP1 RETURNDATACOPY RETURNDATASIZE PUSH0 REVERT JUMPDEST POP POP POP POP PUSH1 0x40 MLOAD RETURNDATASIZE PUSH0 DUP3 RETURNDATACOPY RETURNDATASIZE PUSH1 0x1F NOT PUSH1 0x1F DUP3 ADD AND DUP3 ADD DUP1 PUSH1 0x40 MSTORE POP DUP2 ADD SWAP1 PUSH2 0xA63 SWAP2 SWAP1 PUSH2 0x3B10 JUMP JUMPDEST SWAP1 POP SWAP2 SWAP1 POP JUMP JUMPDEST PUSH0 PUSH1 0x7 PUSH0 SWAP1 SLOAD SWAP1 PUSH2 0x100 EXP SWAP1 DIV PUSH20 0xFFFFFFFFFFFFFFFFFFFFFFFFFFFFFFFFFFFFFFFF AND PUSH20 0xFFFFFFFFFFFFFFFFFFFFFFFFFFFFFFFFFFFFFFFF AND PUSH4 0x33727C4D DUP4 PUSH1 0x40 MLOAD DUP3 PUSH4 0xFFFFFFFF AND PUSH1 0xE0 SHL DUP2 MSTORE PUSH1 0x4 ADD PUSH2 0xAC5 SWAP2 SWAP1 PUSH2 0x3229 JUMP JUMPDEST PUSH1 0x20 PUSH1 0x40 MLOAD DUP1 DUP4 SUB DUP2 DUP7 GAS STATICCALL ISZERO DUP1 ISZERO PUSH2 0xAE0 JUMPI RETURNDATASIZE PUSH0 DUP1 RETURNDATACOPY RETURNDATASIZE PUSH0 REVERT JUMPDEST POP POP POP POP PUSH1 0x40 MLOAD RETURNDATASIZE PUSH1 0x1F NOT PUSH1 0x1F DUP3 ADD AND DUP3 ADD DUP1 PUSH1 0x40 MSTORE POP DUP2 ADD SWAP1 PUSH2 0xB04 SWAP2 SWAP1 PUSH2 0x3B81 JUMP JUMPDEST SWAP1 POP SWAP2 SWAP1 POP JUMP JUMPDEST PUSH1 0x6 DUP2 DUP2 SLOAD DUP2 LT PUSH2 0xB1A JUMPI PUSH0 DUP1 REVERT JUMPDEST SWAP1 PUSH0 MSTORE PUSH1 0x20 PUSH0 KECCAK256 ADD PUSH0 SWAP2 POP SWAP1 POP SLOAD DUP2 JUMP JUMPDEST PUSH1 0x8 PUSH0 SWAP1 SLOAD SWAP1 PUSH2 0x100 EXP SWAP1 DIV PUSH20 0xFFFFFFFFFFFFFFFFFFFFFFFFFFFFFFFFFFFFFFFF AND PUSH20 0xFFFFFFFFFFFFFFFFFFFFFFFFFFFFFFFFFFFFFFFF AND CALLER PUSH20 0xFFFFFFFFFFFFFFFFFFFFFFFFFFFFFFFFFFFFFFFF AND EQ PUSH2 0xBBA JUMPI PUSH1 0x40 MLOAD PUSH32 0x8C379A000000000000000000000000000000000000000000000000000000000 DUP2 MSTORE PUSH1 0x4 ADD PUSH2 0xBB1 SWAP1 PUSH2 0x397B JUMP JUMPDEST PUSH1 0x40 MLOAD DUP1 SWAP2 SUB SWAP1 REVERT JUMPDEST PUSH0 DUP1 PUSH0 SWAP1 POP JUMPDEST PUSH1 0x6 DUP1 SLOAD SWAP1 POP DUP2 LT ISZERO PUSH2 0xCB3 JUMPI PUSH0 PUSH1 0x6 DUP3 DUP2 SLOAD DUP2 LT PUSH2 0xBE2 JUMPI PUSH2 0xBE1 PUSH2 0x3BAC JUMP JUMPDEST JUMPDEST SWAP1 PUSH0 MSTORE PUSH1 0x20 PUSH0 KECCAK256 ADD SLOAD SWAP1 POP PUSH0 PUSH1 0x3 PUSH0 DUP4 DUP2 MSTORE PUSH1 0x20 ADD SWAP1 DUP2 MSTORE PUSH1 0x20 ADD PUSH0 KECCAK256 PUSH1 0x40 MLOAD DUP1 PUSH1 0xC0 ADD PUSH1 0x40 MSTORE SWAP1 DUP2 PUSH0 DUP3 ADD SLOAD DUP2 MSTORE PUSH1 0x20 ADD PUSH1 0x1 DUP3 ADD SLOAD DUP2 MSTORE PUSH1 0x20 ADD PUSH1 0x2 DUP3 ADD SLOAD DUP2 MSTORE PUSH1 0x20 ADD PUSH1 0x3 DUP3 ADD PUSH0 SWAP1 SLOAD SWAP1 PUSH2 0x100 EXP SWAP1 DIV PUSH20 0xFFFFFFFFFFFFFFFFFFFFFFFFFFFFFFFFFFFFFFFF AND PUSH20 0xFFFFFFFFFFFFFFFFFFFFFFFFFFFFFFFFFFFFFFFF AND PUSH20 0xFFFFFFFFFFFFFFFFFFFFFFFFFFFFFFFFFFFFFFFF AND DUP2 MSTORE PUSH1 0x20 ADD PUSH1 0x4 DUP3 ADD SLOAD DUP2 MSTORE PUSH1 0x20 ADD PUSH1 0x5 DUP3 ADD SLOAD DUP2 MSTORE POP POP SWAP1 POP DUP1 PUSH1 0xA0 ADD MLOAD DUP5 PUSH2 0xCA2 SWAP2 SWAP1 PUSH2 0x3A6F JUMP JUMPDEST SWAP4 POP POP POP DUP1 DUP1 PUSH1 0x1 ADD SWAP2 POP POP PUSH2 0xBC0 JUMP JUMPDEST POP PUSH0 DUP2 SELFBALANCE PUSH2 0xCC1 SWAP2 SWAP1 PUSH2 0x3BD9 JUMP JUMPDEST SWAP1 POP PUSH0 CALLER PUSH20 0xFFFFFFFFFFFFFFFFFFFFFFFFFFFFFFFFFFFFFFFF AND DUP3 PUSH1 0x40 MLOAD PUSH2 0xCE8 SWAP1 PUSH2 0x3C39 JUMP JUMPDEST PUSH0 PUSH1 0x40 MLOAD DUP1 DUP4 SUB DUP2 DUP6 DUP8 GAS CALL SWAP3 POP POP POP RETURNDATASIZE DUP1 PUSH0 DUP2 EQ PUSH2 0xD22 JUMPI PUSH1 0x40 MLOAD SWAP2 POP PUSH1 0x1F NOT PUSH1 0x3F RETURNDATASIZE ADD AND DUP3 ADD PUSH1 0x40 MSTORE RETURNDATASIZE DUP3 MSTORE RETURNDATASIZE PUSH0 PUSH1 0x20 DUP5 ADD RETURNDATACOPY PUSH2 0xD27 JUMP JUMPDEST PUSH1 0x60 SWAP2 POP JUMPDEST POP POP SWAP1 POP DUP1 PUSH2 0xD6B JUMPI PUSH1 0x40 MLOAD PUSH32 0x8C379A000000000000000000000000000000000000000000000000000000000 DUP2 MSTORE PUSH1 0x4 ADD PUSH2 0xD62 SWAP1 PUSH2 0x3C97 JUMP JUMPDEST PUSH1 0x40 MLOAD DUP1 SWAP2 SUB SWAP1 REVERT JUMPDEST POP POP POP JUMP JUMPDEST PUSH1 0x8 PUSH0 SWAP1 SLOAD SWAP1 PUSH2 0x100 EXP SWAP1 DIV PUSH20 0xFFFFFFFFFFFFFFFFFFFFFFFFFFFFFFFFFFFFFFFF AND PUSH20 0xFFFFFFFFFFFFFFFFFFFFFFFFFFFFFFFFFFFFFFFF AND CALLER PUSH20 0xFFFFFFFFFFFFFFFFFFFFFFFFFFFFFFFFFFFFFFFF AND EQ PUSH2 0xDFF JUMPI PUSH1 0x40 MLOAD PUSH32 0x8C379A000000000000000000000000000000000000000000000000000000000 DUP2 MSTORE PUSH1 0x4 ADD PUSH2 0xDF6 SWAP1 PUSH2 0x397B JUMP JUMPDEST PUSH1 0x40 MLOAD DUP1 SWAP2 SUB SWAP1 REVERT JUMPDEST PUSH1 0x1 PUSH0 DUP1 DUP4 PUSH20 0xFFFFFFFFFFFFFFFFFFFFFFFFFFFFFFFFFFFFFFFF AND PUSH20 0xFFFFFFFFFFFFFFFFFFFFFFFFFFFFFFFFFFFFFFFF AND DUP2 MSTORE PUSH1 0x20 ADD SWAP1 DUP2 MSTORE PUSH1 0x20 ADD PUSH0 KECCAK256 PUSH0 PUSH2 0x100 EXP DUP2 SLOAD DUP2 PUSH1 0xFF MUL NOT AND SWAP1 DUP4 ISZERO ISZERO MUL OR SWAP1 SSTORE POP POP JUMP JUMPDEST PUSH4 0xB0347814 PUSH1 0xE0 SHL DUP2 JUMP JUMPDEST PUSH1 0x8 PUSH0 SWAP1 SLOAD SWAP1 PUSH2 0x100 EXP SWAP1 DIV PUSH20 0xFFFFFFFFFFFFFFFFFFFFFFFFFFFFFFFFFFFFFFFF AND PUSH20 0xFFFFFFFFFFFFFFFFFFFFFFFFFFFFFFFFFFFFFFFF AND CALLER PUSH20 0xFFFFFFFFFFFFFFFFFFFFFFFFFFFFFFFFFFFFFFFF AND EQ PUSH2 0xEF0 JUMPI PUSH1 0x40 MLOAD PUSH32 0x8C379A000000000000000000000000000000000000000000000000000000000 DUP2 MSTORE PUSH1 0x4 ADD PUSH2 0xEE7 SWAP1 PUSH2 0x397B JUMP JUMPDEST PUSH1 0x40 MLOAD DUP1 SWAP2 SUB SWAP1 REVERT JUMPDEST PUSH0 DUP1 PUSH0 DUP4 PUSH20 0xFFFFFFFFFFFFFFFFFFFFFFFFFFFFFFFFFFFFFFFF AND PUSH20 0xFFFFFFFFFFFFFFFFFFFFFFFFFFFFFFFFFFFFFFFF AND DUP2 MSTORE PUSH1 0x20 ADD SWAP1 DUP2 MSTORE PUSH1 0x20 ADD PUSH0 KECCAK256 PUSH0 PUSH2 0x100 EXP DUP2 SLOAD DUP2 PUSH1 0xFF MUL NOT AND SWAP1 DUP4 ISZERO ISZERO MUL OR SWAP1 SSTORE POP POP JUMP JUMPDEST PUSH1 0x8 PUSH0 SWAP1 SLOAD SWAP1 PUSH2 0x100 EXP SWAP1 DIV PUSH20 0xFFFFFFFFFFFFFFFFFFFFFFFFFFFFFFFFFFFFFFFF AND PUSH20 0xFFFFFFFFFFFFFFFFFFFFFFFFFFFFFFFFFFFFFFFF AND CALLER PUSH20 0xFFFFFFFFFFFFFFFFFFFFFFFFFFFFFFFFFFFFFFFF AND EQ PUSH2 0xFD5 JUMPI PUSH1 0x40 MLOAD PUSH32 0x8C379A000000000000000000000000000000000000000000000000000000000 DUP2 MSTORE PUSH1 0x4 ADD PUSH2 0xFCC SWAP1 PUSH2 0x397B JUMP JUMPDEST PUSH1 0x40 MLOAD DUP1 SWAP2 SUB SWAP1 REVERT JUMPDEST DUP6 PUSH1 0x4 PUSH0 DUP3 DUP2 MSTORE PUSH1 0x20 ADD SWAP1 DUP2 MSTORE PUSH1 0x20 ADD PUSH0 KECCAK256 PUSH0 SWAP1 SLOAD SWAP1 PUSH2 0x100 EXP SWAP1 DIV PUSH1 0xFF AND PUSH2 0x1033 JUMPI PUSH1 0x40 MLOAD PUSH32 0x8C379A000000000000000000000000000000000000000000000000000000000 DUP2 MSTORE PUSH1 0x4 ADD PUSH2 0x102A SWAP1 PUSH2 0x39E3 JUMP JUMPDEST PUSH1 0x40 MLOAD DUP1 SWAP2 SUB SWAP1 REVERT JUMPDEST PUSH1 0x64 DUP3 GT ISZERO PUSH2 0x1077 JUMPI PUSH1 0x40 MLOAD PUSH32 0x8C379A000000000000000000000000000000000000000000000000000000000 DUP2 MSTORE PUSH1 0x4 ADD PUSH2 0x106E SWAP1 PUSH2 0x3CFF JUMP JUMPDEST PUSH1 0x40 MLOAD DUP1 SWAP2 SUB SWAP1 REVERT JUMPDEST PUSH0 PUSH1 0x3 PUSH0 DUP10 DUP2 MSTORE PUSH1 0x20 ADD SWAP1 DUP2 MSTORE PUSH1 0x20 ADD PUSH0 KECCAK256 SWAP1 POP DUP7 DUP2 PUSH0 ADD DUP2 SWAP1 SSTORE POP DUP6 DUP2 PUSH1 0x1 ADD DUP2 SWAP1 SSTORE POP DUP5 DUP2 PUSH1 0x2 ADD DUP2 SWAP1 SSTORE POP DUP4 DUP2 PUSH1 0x3 ADD PUSH0 PUSH2 0x100 EXP DUP2 SLOAD DUP2 PUSH20 0xFFFFFFFFFFFFFFFFFFFFFFFFFFFFFFFFFFFFFFFF MUL NOT AND SWAP1 DUP4 PUSH20 0xFFFFFFFFFFFFFFFFFFFFFFFFFFFFFFFFFFFFFFFF AND MUL OR SWAP1 SSTORE POP DUP3 DUP2 PUSH1 0x4 ADD DUP2 SWAP1 SSTORE POP PUSH1 0x7 PUSH0 SWAP1 SLOAD SWAP1 PUSH2 0x100 EXP SWAP1 DIV PUSH20 0xFFFFFFFFFFFFFFFFFFFFFFFFFFFFFFFFFFFFFFFF AND PUSH20 0xFFFFFFFFFFFFFFFFFFFFFFFFFFFFFFFFFFFFFFFF AND PUSH4 0x5C3D1519 DUP9 DUP9 PUSH1 0x40 MLOAD DUP4 PUSH4 0xFFFFFFFF AND PUSH1 0xE0 SHL DUP2 MSTORE PUSH1 0x4 ADD PUSH2 0x114C SWAP3 SWAP2 SWAP1 PUSH2 0x3D2C JUMP JUMPDEST PUSH0 PUSH1 0x40 MLOAD DUP1 DUP4 SUB DUP2 PUSH0 DUP8 DUP1 EXTCODESIZE ISZERO DUP1 ISZERO PUSH2 0x1163 JUMPI PUSH0 DUP1 REVERT JUMPDEST POP GAS CALL ISZERO DUP1 ISZERO PUSH2 0x1175 JUMPI RETURNDATASIZE PUSH0 DUP1 RETURNDATACOPY RETURNDATASIZE PUSH0 REVERT JUMPDEST POP POP POP POP POP POP POP POP POP POP POP POP JUMP JUMPDEST PUSH1 0x9 PUSH0 CALLER PUSH20 0xFFFFFFFFFFFFFFFFFFFFFFFFFFFFFFFFFFFFFFFF AND PUSH20 0xFFFFFFFFFFFFFFFFFFFFFFFFFFFFFFFFFFFFFFFF AND DUP2 MSTORE PUSH1 0x20 ADD SWAP1 DUP2 MSTORE PUSH1 0x20 ADD PUSH0 KECCAK256 PUSH0 SWAP1 SLOAD SWAP1 PUSH2 0x100 EXP SWAP1 DIV PUSH1 0xFF AND PUSH2 0x120C JUMPI PUSH1 0x40 MLOAD PUSH32 0x8C379A000000000000000000000000000000000000000000000000000000000 DUP2 MSTORE PUSH1 0x4 ADD PUSH2 0x1203 SWAP1 PUSH2 0x3D9D JUMP JUMPDEST PUSH1 0x40 MLOAD DUP1 SWAP2 SUB SWAP1 REVERT JUMPDEST PUSH0 PUSH1 0x1 PUSH0 DUP6 DUP2 MSTORE PUSH1 0x20 ADD SWAP1 DUP2 MSTORE PUSH1 0x20 ADD PUSH0 KECCAK256 SWAP1 POP PUSH1 0x7 PUSH0 SWAP1 SLOAD SWAP1 PUSH2 0x100 EXP SWAP1 DIV PUSH20 0xFFFFFFFFFFFFFFFFFFFFFFFFFFFFFFFFFFFFFFFF AND PUSH20 0xFFFFFFFFFFFFFFFFFFFFFFFFFFFFFFFFFFFFFFFF AND PUSH4 0x480F07C8 DUP6 DUP6 DUP6 PUSH1 0x40 MLOAD DUP5 PUSH4 0xFFFFFFFF AND PUSH1 0xE0 SHL DUP2 MSTORE PUSH1 0x4 ADD PUSH2 0x127E SWAP4 SWAP3 SWAP2 SWAP1 PUSH2 0x3DE7 JUMP JUMPDEST PUSH0 PUSH1 0x40 MLOAD DUP1 DUP4 SUB DUP2 PUSH0 DUP8 DUP1 EXTCODESIZE ISZERO DUP1 ISZERO PUSH2 0x1295 JUMPI PUSH0 DUP1 REVERT JUMPDEST POP GAS CALL ISZERO DUP1 ISZERO PUSH2 0x12A7 JUMPI RETURNDATASIZE PUSH0 DUP1 RETURNDATACOPY RETURNDATASIZE PUSH0 REVERT JUMPDEST POP POP POP POP PUSH0 PUSH20 0xFFFFFFFFFFFFFFFFFFFFFFFFFFFFFFFFFFFFFFFF AND DUP2 PUSH1 0x4 ADD PUSH0 SWAP1 SLOAD SWAP1 PUSH2 0x100 EXP SWAP1 DIV PUSH20 0xFFFFFFFFFFFFFFFFFFFFFFFFFFFFFFFFFFFFFFFF AND PUSH20 0xFFFFFFFFFFFFFFFFFFFFFFFFFFFFFFFFFFFFFFFF AND EQ PUSH2 0x1489 JUMPI PUSH0 PUSH4 0xB0347814 PUSH1 0xE0 SHL DUP3 PUSH1 0x1 ADD SLOAD DUP6 DUP6 DUP6 PUSH1 0x5 ADD PUSH1 0x40 MLOAD PUSH1 0x24 ADD PUSH2 0x1328 SWAP5 SWAP4 SWAP3 SWAP2 SWAP1 PUSH2 0x3F07 JUMP JUMPDEST PUSH1 0x40 MLOAD PUSH1 0x20 DUP2 DUP4 SUB SUB DUP2 MSTORE SWAP1 PUSH1 0x40 MSTORE SWAP1 PUSH28 0xFFFFFFFFFFFFFFFFFFFFFFFFFFFFFFFFFFFFFFFFFFFFFFFFFFFFFFFF NOT AND PUSH1 0x20 DUP3 ADD DUP1 MLOAD PUSH28 0xFFFFFFFFFFFFFFFFFFFFFFFFFFFFFFFFFFFFFFFFFFFFFFFFFFFFFFFF DUP4 DUP2 DUP4 AND OR DUP4 MSTORE POP POP POP POP SWAP1 POP PUSH0 DUP1 DUP4 PUSH1 0x4 ADD PUSH0 SWAP1 SLOAD SWAP1 PUSH2 0x100 EXP SWAP1 DIV PUSH20 0xFFFFFFFFFFFFFFFFFFFFFFFFFFFFFFFFFFFFFFFF AND PUSH20 0xFFFFFFFFFFFFFFFFFFFFFFFFFFFFFFFFFFFFFFFF AND DUP5 PUSH1 0x4 ADD PUSH1 0x14 SWAP1 SLOAD SWAP1 PUSH2 0x100 EXP SWAP1 DIV PUSH8 0xFFFFFFFFFFFFFFFF AND PUSH8 0xFFFFFFFFFFFFFFFF AND DUP5 PUSH1 0x40 MLOAD PUSH2 0x13F4 SWAP2 SWAP1 PUSH2 0x3F7C JUMP JUMPDEST PUSH0 PUSH1 0x40 MLOAD DUP1 DUP4 SUB DUP2 PUSH0 DUP8 DUP8 CALL SWAP3 POP POP POP RETURNDATASIZE DUP1 PUSH0 DUP2 EQ PUSH2 0x142E JUMPI PUSH1 0x40 MLOAD SWAP2 POP PUSH1 0x1F NOT PUSH1 0x3F RETURNDATASIZE ADD AND DUP3 ADD PUSH1 0x40 MSTORE RETURNDATASIZE DUP3 MSTORE RETURNDATASIZE PUSH0 PUSH1 0x20 DUP5 ADD RETURNDATACOPY PUSH2 0x1433 JUMP JUMPDEST PUSH1 0x60 SWAP2 POP JUMPDEST POP SWAP2 POP SWAP2 POP DUP2 PUSH2 0x1478 JUMPI PUSH1 0x40 MLOAD PUSH32 0x8C379A000000000000000000000000000000000000000000000000000000000 DUP2 MSTORE PUSH1 0x4 ADD PUSH2 0x146F SWAP1 PUSH2 0x3FDC JUMP JUMPDEST PUSH1 0x40 MLOAD DUP1 SWAP2 SUB SWAP1 REVERT JUMPDEST DUP2 PUSH2 0x1485 JUMPI DUP1 MLOAD PUSH1 0x20 DUP3 ADD REVERT JUMPDEST POP POP POP JUMPDEST DUP4 DUP2 PUSH0 ADD PUSH0 SWAP1 SLOAD SWAP1 PUSH2 0x100 EXP SWAP1 DIV PUSH20 0xFFFFFFFFFFFFFFFFFFFFFFFFFFFFFFFFFFFFFFFF AND PUSH20 0xFFFFFFFFFFFFFFFFFFFFFFFFFFFFFFFFFFFFFFFF AND PUSH32 0xB7B413554C4E94C80CFBB175A0E4727F2F425D29B980195C49DAC293C2914FC0 CALLER DUP7 DUP7 PUSH1 0x40 MLOAD PUSH2 0x14F6 SWAP4 SWAP3 SWAP2 SWAP1 PUSH2 0x3FFA JUMP JUMPDEST PUSH1 0x40 MLOAD DUP1 SWAP2 SUB SWAP1 LOG3 GASPRICE PUSH1 0x5 DUP2 SWAP1 SSTORE POP POP POP POP POP JUMP JUMPDEST DUP1 PUSH1 0x4 PUSH0 DUP3 DUP2 MSTORE PUSH1 0x20 ADD SWAP1 DUP2 MSTORE PUSH1 0x20 ADD PUSH0 KECCAK256 PUSH0 SWAP1 SLOAD SWAP1 PUSH2 0x100 EXP SWAP1 DIV PUSH1 0xFF AND PUSH2 0x1569 JUMPI PUSH1 0x40 MLOAD PUSH32 0x8C379A000000000000000000000000000000000000000000000000000000000 DUP2 MSTORE PUSH1 0x4 ADD PUSH2 0x1560 SWAP1 PUSH2 0x39E3 JUMP JUMPDEST PUSH1 0x40 MLOAD DUP1 SWAP2 SUB SWAP1 REVERT JUMPDEST PUSH0 PUSH1 0x3 PUSH0 DUP5 DUP2 MSTORE PUSH1 0x20 ADD SWAP1 DUP2 MSTORE PUSH1 0x20 ADD PUSH0 KECCAK256 SWAP1 POP PUSH0 DUP2 PUSH1 0x5 ADD SLOAD GT PUSH2 0x15C3 JUMPI PUSH1 0x40 MLOAD PUSH32 0x8C379A000000000000000000000000000000000000000000000000000000000 DUP2 MSTORE PUSH1 0x4 ADD PUSH2 0x15BA SWAP1 PUSH2 0x4074 JUMP JUMPDEST PUSH1 0x40 MLOAD DUP1 SWAP2 SUB SWAP1 REVERT JUMPDEST PUSH0 DUP2 PUSH1 0x5 ADD SLOAD SWAP1 POP PUSH0 DUP3 PUSH1 0x5 ADD DUP2 SWAP1 SSTORE POP PUSH0 DUP3 PUSH1 0x3 ADD PUSH0 SWAP1 SLOAD SWAP1 PUSH2 0x100 EXP SWAP1 DIV PUSH20 0xFFFFFFFFFFFFFFFFFFFFFFFFFFFFFFFFFFFFFFFF AND PUSH20 0xFFFFFFFFFFFFFFFFFFFFFFFFFFFFFFFFFFFFFFFF AND DUP3 PUSH1 0x40 MLOAD PUSH2 0x161C SWAP1 PUSH2 0x3C39 JUMP JUMPDEST PUSH0 PUSH1 0x40 MLOAD DUP1 DUP4 SUB DUP2 DUP6 DUP8 GAS CALL SWAP3 POP POP POP RETURNDATASIZE DUP1 PUSH0 DUP2 EQ PUSH2 0x1656 JUMPI PUSH1 0x40 MLOAD SWAP2 POP PUSH1 0x1F NOT PUSH1 0x3F RETURNDATASIZE ADD AND DUP3 ADD PUSH1 0x40 MSTORE RETURNDATASIZE DUP3 MSTORE RETURNDATASIZE PUSH0 PUSH1 0x20 DUP5 ADD RETURNDATACOPY PUSH2 0x165B JUMP JUMPDEST PUSH1 0x60 SWAP2 POP JUMPDEST POP POP SWAP1 POP DUP1 PUSH2 0x169F JUMPI PUSH1 0x40 MLOAD PUSH32 0x8C379A000000000000000000000000000000000000000000000000000000000 DUP2 MSTORE PUSH1 0x4 ADD PUSH2 0x1696 SWAP1 PUSH2 0x4102 JUMP JUMPDEST PUSH1 0x40 MLOAD DUP1 SWAP2 SUB SWAP1 REVERT JUMPDEST POP POP POP POP POP JUMP JUMPDEST PUSH0 PUSH2 0x16B3 DUP7 DUP7 DUP7 DUP7 PUSH2 0x2E0C JUMP JUMPDEST PUSH0 PUSH1 0x3 PUSH0 DUP9 DUP2 MSTORE PUSH1 0x20 ADD SWAP1 DUP2 MSTORE PUSH1 0x20 ADD PUSH0 KECCAK256 PUSH1 0x40 MLOAD DUP1 PUSH1 0xC0 ADD PUSH1 0x40 MSTORE SWAP1 DUP2 PUSH0 DUP3 ADD SLOAD DUP2 MSTORE PUSH1 0x20 ADD PUSH1 0x1 DUP3 ADD SLOAD DUP2 MSTORE PUSH1 0x20 ADD PUSH1 0x2 DUP3 ADD SLOAD DUP2 MSTORE PUSH1 0x20 ADD PUSH1 0x3 DUP3 ADD PUSH0 SWAP1 SLOAD SWAP1 PUSH2 0x100 EXP SWAP1 DIV PUSH20 0xFFFFFFFFFFFFFFFFFFFFFFFFFFFFFFFFFFFFFFFF AND PUSH20 0xFFFFFFFFFFFFFFFFFFFFFFFFFFFFFFFFFFFFFFFF AND PUSH20 0xFFFFFFFFFFFFFFFFFFFFFFFFFFFFFFFFFFFFFFFF AND DUP2 MSTORE PUSH1 0x20 ADD PUSH1 0x4 DUP3 ADD SLOAD DUP2 MSTORE PUSH1 0x20 ADD PUSH1 0x5 DUP3 ADD SLOAD DUP2 MSTORE POP POP SWAP1 POP PUSH0 PUSH1 0x7 PUSH0 SWAP1 SLOAD SWAP1 PUSH2 0x100 EXP SWAP1 DIV PUSH20 0xFFFFFFFFFFFFFFFFFFFFFFFFFFFFFFFFFFFFFFFF AND PUSH20 0xFFFFFFFFFFFFFFFFFFFFFFFFFFFFFFFFFFFFFFFF AND PUSH4 0xC61B0B76 DUP4 PUSH0 ADD MLOAD DUP5 PUSH1 0x20 ADD MLOAD DUP11 PUSH1 0x40 MLOAD DUP5 PUSH4 0xFFFFFFFF AND PUSH1 0xE0 SHL DUP2 MSTORE PUSH1 0x4 ADD PUSH2 0x17BE SWAP4 SWAP3 SWAP2 SWAP1 PUSH2 0x4120 JUMP JUMPDEST PUSH1 0x20 PUSH1 0x40 MLOAD DUP1 DUP4 SUB DUP2 PUSH0 DUP8 GAS CALL ISZERO DUP1 ISZERO PUSH2 0x17DA JUMPI RETURNDATASIZE PUSH0 DUP1 RETURNDATACOPY RETURNDATASIZE PUSH0 REVERT JUMPDEST POP POP POP POP PUSH1 0x40 MLOAD RETURNDATASIZE PUSH1 0x1F NOT PUSH1 0x1F DUP3 ADD AND DUP3 ADD DUP1 PUSH1 0x40 MSTORE POP DUP2 ADD SWAP1 PUSH2 0x17FE SWAP2 SWAP1 PUSH2 0x4170 JUMP JUMPDEST SWAP1 POP PUSH0 PUSH1 0x1 PUSH0 DUP4 DUP2 MSTORE PUSH1 0x20 ADD SWAP1 DUP2 MSTORE PUSH1 0x20 ADD PUSH0 KECCAK256 SWAP1 POP CALLER DUP2 PUSH0 ADD PUSH0 PUSH2 0x100 EXP DUP2 SLOAD DUP2 PUSH20 0xFFFFFFFFFFFFFFFFFFFFFFFFFFFFFFFFFFFFFFFF MUL NOT AND SWAP1 DUP4 PUSH20 0xFFFFFFFFFFFFFFFFFFFFFFFFFFFFFFFFFFFFFFFF AND MUL OR SWAP1 SSTORE POP DUP2 DUP2 PUSH1 0x1 ADD DUP2 SWAP1 SSTORE POP DUP9 DUP2 PUSH1 0x2 ADD DUP2 SWAP1 SSTORE POP DUP8 DUP2 PUSH1 0x3 ADD SWAP1 DUP2 PUSH2 0x1878 SWAP2 SWAP1 PUSH2 0x431D JUMP JUMPDEST POP DUP7 DUP2 PUSH1 0x4 ADD PUSH0 PUSH2 0x100 EXP DUP2 SLOAD DUP2 PUSH20 0xFFFFFFFFFFFFFFFFFFFFFFFFFFFFFFFFFFFFFFFF MUL NOT AND SWAP1 DUP4 PUSH20 0xFFFFFFFFFFFFFFFFFFFFFFFFFFFFFFFFFFFFFFFF AND MUL OR SWAP1 SSTORE POP DUP6 DUP2 PUSH1 0x4 ADD PUSH1 0x14 PUSH2 0x100 EXP DUP2 SLOAD DUP2 PUSH8 0xFFFFFFFFFFFFFFFF MUL NOT AND SWAP1 DUP4 PUSH8 0xFFFFFFFFFFFFFFFF AND MUL OR SWAP1 SSTORE POP DUP5 DUP2 PUSH1 0x5 ADD SWAP1 DUP2 PUSH2 0x18F7 SWAP2 SWAP1 PUSH2 0x431D JUMP JUMPDEST POP DUP2 DUP2 PUSH0 ADD PUSH0 SWAP1 SLOAD SWAP1 PUSH2 0x100 EXP SWAP1 DIV PUSH20 0xFFFFFFFFFFFFFFFFFFFFFFFFFFFFFFFFFFFFFFFF AND PUSH20 0xFFFFFFFFFFFFFFFFFFFFFFFFFFFFFFFFFFFFFFFF AND PUSH32 0x849AA5ADC3BF6A75CB08AFBF31D88D1528C274E5D84E3D4355D23D8E9EBD649B DUP12 DUP12 DUP12 DUP12 DUP12 PUSH1 0x40 MLOAD PUSH2 0x1969 SWAP6 SWAP5 SWAP4 SWAP3 SWAP2 SWAP1 PUSH2 0x43EC JUMP JUMPDEST PUSH1 0x40 MLOAD DUP1 SWAP2 SUB SWAP1 LOG3 DUP2 SWAP4 POP POP POP POP SWAP6 SWAP5 POP POP POP POP POP JUMP JUMPDEST PUSH1 0x8 PUSH0 SWAP1 SLOAD SWAP1 PUSH2 0x100 EXP SWAP1 DIV PUSH20 0xFFFFFFFFFFFFFFFFFFFFFFFFFFFFFFFFFFFFFFFF AND PUSH20 0xFFFFFFFFFFFFFFFFFFFFFFFFFFFFFFFFFFFFFFFF AND CALLER PUSH20 0xFFFFFFFFFFFFFFFFFFFFFFFFFFFFFFFFFFFFFFFF AND EQ PUSH2 0x1A0F JUMPI PUSH1 0x40 MLOAD PUSH32 0x8C379A000000000000000000000000000000000000000000000000000000000 DUP2 MSTORE PUSH1 0x4 ADD PUSH2 0x1A06 SWAP1 PUSH2 0x397B JUMP JUMPDEST PUSH1 0x40 MLOAD DUP1 SWAP2 SUB SWAP1 REVERT JUMPDEST DUP2 PUSH1 0x4 PUSH0 DUP3 DUP2 MSTORE PUSH1 0x20 ADD SWAP1 DUP2 MSTORE PUSH1 0x20 ADD PUSH0 KECCAK256 PUSH0 SWAP1 SLOAD SWAP1 PUSH2 0x100 EXP SWAP1 DIV PUSH1 0xFF AND PUSH2 0x1A6D JUMPI PUSH1 0x40 MLOAD PUSH32 0x8C379A000000000000000000000000000000000000000000000000000000000 DUP2 MSTORE PUSH1 0x4 ADD PUSH2 0x1A64 SWAP1 PUSH2 0x39E3 JUMP JUMPDEST PUSH1 0x40 MLOAD DUP1 SWAP2 SUB SWAP1 REVERT JUMPDEST PUSH1 0x64 DUP3 GT ISZERO PUSH2 0x1AB1 JUMPI PUSH1 0x40 MLOAD PUSH32 0x8C379A000000000000000000000000000000000000000000000000000000000 DUP2 MSTORE PUSH1 0x4 ADD PUSH2 0x1AA8 SWAP1 PUSH2 0x3CFF JUMP JUMPDEST PUSH1 0x40 MLOAD DUP1 SWAP2 SUB SWAP1 REVERT JUMPDEST PUSH0 PUSH1 0x3 PUSH0 DUP6 DUP2 MSTORE PUSH1 0x20 ADD SWAP1 DUP2 MSTORE PUSH1 0x20 ADD PUSH0 KECCAK256 SWAP1 POP DUP3 DUP2 PUSH1 0x4 ADD DUP2 SWAP1 SSTORE POP POP POP POP POP JUMP JUMPDEST PUSH1 0x8 PUSH0 SWAP1 SLOAD SWAP1 PUSH2 0x100 EXP SWAP1 DIV PUSH20 0xFFFFFFFFFFFFFFFFFFFFFFFFFFFFFFFFFFFFFFFF AND PUSH20 0xFFFFFFFFFFFFFFFFFFFFFFFFFFFFFFFFFFFFFFFF AND CALLER PUSH20 0xFFFFFFFFFFFFFFFFFFFFFFFFFFFFFFFFFFFFFFFF AND EQ PUSH2 0x1B63 JUMPI PUSH1 0x40 MLOAD PUSH32 0x8C379A000000000000000000000000000000000000000000000000000000000 DUP2 MSTORE PUSH1 0x4 ADD PUSH2 0x1B5A SWAP1 PUSH2 0x397B JUMP JUMPDEST PUSH1 0x40 MLOAD DUP1 SWAP2 SUB SWAP1 REVERT JUMPDEST DUP1 PUSH1 0x4 PUSH0 DUP3 DUP2 MSTORE PUSH1 0x20 ADD SWAP1 DUP2 MSTORE PUSH1 0x20 ADD PUSH0 KECCAK256 PUSH0 SWAP1 SLOAD SWAP1 PUSH2 0x100 EXP SWAP1 DIV PUSH1 0xFF AND PUSH2 0x1BC1 JUMPI PUSH1 0x40 MLOAD PUSH32 0x8C379A000000000000000000000000000000000000000000000000000000000 DUP2 MSTORE PUSH1 0x4 ADD PUSH2 0x1BB8 SWAP1 PUSH2 0x39E3 JUMP JUMPDEST PUSH1 0x40 MLOAD DUP1 SWAP2 SUB SWAP1 REVERT JUMPDEST PUSH0 PUSH1 0x3 PUSH0 DUP5 DUP2 MSTORE PUSH1 0x20 ADD SWAP1 DUP2 MSTORE PUSH1 0x20 ADD PUSH0 KECCAK256 SWAP1 POP PUSH0 DUP2 PUSH1 0x5 ADD SLOAD GT ISZERO PUSH2 0x1CC0 JUMPI PUSH0 DUP2 PUSH1 0x5 ADD SLOAD SWAP1 POP PUSH0 DUP3 PUSH1 0x5 ADD DUP2 SWAP1 SSTORE POP PUSH0 DUP3 PUSH1 0x3 ADD PUSH0 SWAP1 SLOAD SWAP1 PUSH2 0x100 EXP SWAP1 DIV PUSH20 0xFFFFFFFFFFFFFFFFFFFFFFFFFFFFFFFFFFFFFFFF AND PUSH20 0xFFFFFFFFFFFFFFFFFFFFFFFFFFFFFFFFFFFFFFFF AND DUP3 PUSH1 0x40 MLOAD PUSH2 0x1C3A SWAP1 PUSH2 0x3C39 JUMP JUMPDEST PUSH0 PUSH1 0x40 MLOAD DUP1 DUP4 SUB DUP2 DUP6 DUP8 GAS CALL SWAP3 POP POP POP RETURNDATASIZE DUP1 PUSH0 DUP2 EQ PUSH2 0x1C74 JUMPI PUSH1 0x40 MLOAD SWAP2 POP PUSH1 0x1F NOT PUSH1 0x3F RETURNDATASIZE ADD AND DUP3 ADD PUSH1 0x40 MSTORE RETURNDATASIZE DUP3 MSTORE RETURNDATASIZE PUSH0 PUSH1 0x20 DUP5 ADD RETURNDATACOPY PUSH2 0x1C79 JUMP JUMPDEST PUSH1 0x60 SWAP2 POP JUMPDEST POP POP SWAP1 POP DUP1 PUSH2 0x1CBD JUMPI PUSH1 0x40 MLOAD PUSH32 0x8C379A000000000000000000000000000000000000000000000000000000000 DUP2 MSTORE PUSH1 0x4 ADD PUSH2 0x1CB4 SWAP1 PUSH2 0x4102 JUMP JUMPDEST PUSH1 0x40 MLOAD DUP1 SWAP2 SUB SWAP1 REVERT JUMPDEST POP POP JUMPDEST PUSH0 PUSH1 0x4 PUSH0 DUP6 DUP2 MSTORE PUSH1 0x20 ADD SWAP1 DUP2 MSTORE PUSH1 0x20 ADD PUSH0 KECCAK256 PUSH0 PUSH2 0x100 EXP DUP2 SLOAD DUP2 PUSH1 0xFF MUL NOT AND SWAP1 DUP4 ISZERO ISZERO MUL OR SWAP1 SSTORE POP PUSH0 JUMPDEST PUSH1 0x6 DUP1 SLOAD SWAP1 POP DUP2 LT ISZERO PUSH2 0x1DA5 JUMPI PUSH0 PUSH1 0x6 DUP3 DUP2 SLOAD DUP2 LT PUSH2 0x1D0C JUMPI PUSH2 0x1D0B PUSH2 0x3BAC JUMP JUMPDEST JUMPDEST SWAP1 PUSH0 MSTORE PUSH1 0x20 PUSH0 KECCAK256 ADD SLOAD SWAP1 POP DUP5 DUP2 SUB PUSH2 0x1D97 JUMPI PUSH1 0x6 PUSH1 0x1 PUSH1 0x6 DUP1 SLOAD SWAP1 POP PUSH2 0x1D32 SWAP2 SWAP1 PUSH2 0x3BD9 JUMP JUMPDEST DUP2 SLOAD DUP2 LT PUSH2 0x1D43 JUMPI PUSH2 0x1D42 PUSH2 0x3BAC JUMP JUMPDEST JUMPDEST SWAP1 PUSH0 MSTORE PUSH1 0x20 PUSH0 KECCAK256 ADD SLOAD PUSH1 0x6 DUP4 DUP2 SLOAD DUP2 LT PUSH2 0x1D60 JUMPI PUSH2 0x1D5F PUSH2 0x3BAC JUMP JUMPDEST JUMPDEST SWAP1 PUSH0 MSTORE PUSH1 0x20 PUSH0 KECCAK256 ADD DUP2 SWAP1 SSTORE POP PUSH1 0x6 DUP1 SLOAD DUP1 PUSH2 0x1D7E JUMPI PUSH2 0x1D7D PUSH2 0x444B JUMP JUMPDEST JUMPDEST PUSH1 0x1 SWAP1 SUB DUP2 DUP2 SWAP1 PUSH0 MSTORE PUSH1 0x20 PUSH0 KECCAK256 ADD PUSH0 SWAP1 SSTORE SWAP1 SSTORE POP PUSH2 0x1DA5 JUMP JUMPDEST POP DUP1 DUP1 PUSH1 0x1 ADD SWAP2 POP POP PUSH2 0x1CEA JUMP JUMPDEST POP POP POP POP JUMP JUMPDEST PUSH1 0x8 PUSH0 SWAP1 SLOAD SWAP1 PUSH2 0x100 EXP SWAP1 DIV PUSH20 0xFFFFFFFFFFFFFFFFFFFFFFFFFFFFFFFFFFFFFFFF AND PUSH20 0xFFFFFFFFFFFFFFFFFFFFFFFFFFFFFFFFFFFFFFFF AND CALLER PUSH20 0xFFFFFFFFFFFFFFFFFFFFFFFFFFFFFFFFFFFFFFFF AND EQ PUSH2 0x1E3A JUMPI PUSH1 0x40 MLOAD PUSH32 0x8C379A000000000000000000000000000000000000000000000000000000000 DUP2 MSTORE PUSH1 0x4 ADD PUSH2 0x1E31 SWAP1 PUSH2 0x397B JUMP JUMPDEST PUSH1 0x40 MLOAD DUP1 SWAP2 SUB SWAP1 REVERT JUMPDEST DUP2 PUSH1 0x4 PUSH0 DUP3 DUP2 MSTORE PUSH1 0x20 ADD SWAP1 DUP2 MSTORE PUSH1 0x20 ADD PUSH0 KECCAK256 PUSH0 SWAP1 SLOAD SWAP1 PUSH2 0x100 EXP SWAP1 DIV PUSH1 0xFF AND PUSH2 0x1E98 JUMPI PUSH1 0x40 MLOAD PUSH32 0x8C379A000000000000000000000000000000000000000000000000000000000 DUP2 MSTORE PUSH1 0x4 ADD PUSH2 0x1E8F SWAP1 PUSH2 0x39E3 JUMP JUMPDEST PUSH1 0x40 MLOAD DUP1 SWAP2 SUB SWAP1 REVERT JUMPDEST PUSH0 PUSH1 0x3 PUSH0 DUP6 DUP2 MSTORE PUSH1 0x20 ADD SWAP1 DUP2 MSTORE PUSH1 0x20 ADD PUSH0 KECCAK256 SWAP1 POP DUP3 DUP2 PUSH1 0x2 ADD DUP2 SWAP1 SSTORE POP POP POP POP POP JUMP JUMPDEST PUSH2 0x1EC3 PUSH2 0x307B JUMP JUMPDEST DUP2 PUSH1 0x4 PUSH0 DUP3 DUP2 MSTORE PUSH1 0x20 ADD SWAP1 DUP2 MSTORE PUSH1 0x20 ADD PUSH0 KECCAK256 PUSH0 SWAP1 SLOAD SWAP1 PUSH2 0x100 EXP SWAP1 DIV PUSH1 0xFF AND PUSH2 0x1F21 JUMPI PUSH1 0x40 MLOAD PUSH32 0x8C379A000000000000000000000000000000000000000000000000000000000 DUP2 MSTORE PUSH1 0x4 ADD PUSH2 0x1F18 SWAP1 PUSH2 0x39E3 JUMP JUMPDEST PUSH1 0x40 MLOAD DUP1 SWAP2 SUB SWAP1 REVERT JUMPDEST PUSH0 PUSH1 0x3 PUSH0 DUP6 DUP2 MSTORE PUSH1 0x20 ADD SWAP1 DUP2 MSTORE PUSH1 0x20 ADD PUSH0 KECCAK256 PUSH1 0x40 MLOAD DUP1 PUSH1 0xC0 ADD PUSH1 0x40 MSTORE SWAP1 DUP2 PUSH0 DUP3 ADD SLOAD DUP2 MSTORE PUSH1 0x20 ADD PUSH1 0x1 DUP3 ADD SLOAD DUP2 MSTORE PUSH1 0x20 ADD PUSH1 0x2 DUP3 ADD SLOAD DUP2 MSTORE PUSH1 0x20 ADD PUSH1 0x3 DUP3 ADD PUSH0 SWAP1 SLOAD SWAP1 PUSH2 0x100 EXP SWAP1 DIV PUSH20 0xFFFFFFFFFFFFFFFFFFFFFFFFFFFFFFFFFFFFFFFF AND PUSH20 0xFFFFFFFFFFFFFFFFFFFFFFFFFFFFFFFFFFFFFFFF AND PUSH20 0xFFFFFFFFFFFFFFFFFFFFFFFFFFFFFFFFFFFFFFFF AND DUP2 MSTORE PUSH1 0x20 ADD PUSH1 0x4 DUP3 ADD SLOAD DUP2 MSTORE PUSH1 0x20 ADD PUSH1 0x5 DUP3 ADD SLOAD DUP2 MSTORE POP POP SWAP1 POP DUP1 SWAP3 POP POP POP SWAP2 SWAP1 POP JUMP JUMPDEST PUSH1 0x8 PUSH0 SWAP1 SLOAD SWAP1 PUSH2 0x100 EXP SWAP1 DIV PUSH20 0xFFFFFFFFFFFFFFFFFFFFFFFFFFFFFFFFFFFFFFFF AND PUSH20 0xFFFFFFFFFFFFFFFFFFFFFFFFFFFFFFFFFFFFFFFF AND CALLER PUSH20 0xFFFFFFFFFFFFFFFFFFFFFFFFFFFFFFFFFFFFFFFF AND EQ PUSH2 0x205F JUMPI PUSH1 0x40 MLOAD PUSH32 0x8C379A000000000000000000000000000000000000000000000000000000000 DUP2 MSTORE PUSH1 0x4 ADD PUSH2 0x2056 SWAP1 PUSH2 0x397B JUMP JUMPDEST PUSH1 0x40 MLOAD DUP1 SWAP2 SUB SWAP1 REVERT JUMPDEST PUSH0 PUSH1 0x5 DUP2 SWAP1 SSTORE POP JUMP JUMPDEST PUSH1 0x1 PUSH1 0x20 MSTORE DUP1 PUSH0 MSTORE PUSH1 0x40 PUSH0 KECCAK256 PUSH0 SWAP2 POP SWAP1 POP DUP1 PUSH0 ADD PUSH0 SWAP1 SLOAD SWAP1 PUSH2 0x100 EXP SWAP1 DIV PUSH20 0xFFFFFFFFFFFFFFFFFFFFFFFFFFFFFFFFFFFFFFFF AND SWAP1 DUP1 PUSH1 0x1 ADD SLOAD SWAP1 DUP1 PUSH1 0x2 ADD SLOAD SWAP1 DUP1 PUSH1 0x3 ADD DUP1 SLOAD PUSH2 0x20B8 SWAP1 PUSH2 0x3E44 JUMP JUMPDEST DUP1 PUSH1 0x1F ADD PUSH1 0x20 DUP1 SWAP2 DIV MUL PUSH1 0x20 ADD PUSH1 0x40 MLOAD SWAP1 DUP2 ADD PUSH1 0x40 MSTORE DUP1 SWAP3 SWAP2 SWAP1 DUP2 DUP2 MSTORE PUSH1 0x20 ADD DUP3 DUP1 SLOAD PUSH2 0x20E4 SWAP1 PUSH2 0x3E44 JUMP JUMPDEST DUP1 ISZERO PUSH2 0x212F JUMPI DUP1 PUSH1 0x1F LT PUSH2 0x2106 JUMPI PUSH2 0x100 DUP1 DUP4 SLOAD DIV MUL DUP4 MSTORE SWAP2 PUSH1 0x20 ADD SWAP2 PUSH2 0x212F JUMP JUMPDEST DUP3 ADD SWAP2 SWAP1 PUSH0 MSTORE PUSH1 0x20 PUSH0 KECCAK256 SWAP1 JUMPDEST DUP2 SLOAD DUP2 MSTORE SWAP1 PUSH1 0x1 ADD SWAP1 PUSH1 0x20 ADD DUP1 DUP4 GT PUSH2 0x2112 JUMPI DUP3 SWAP1 SUB PUSH1 0x1F AND DUP3 ADD SWAP2 JUMPDEST POP POP POP POP POP SWAP1 DUP1 PUSH1 0x4 ADD PUSH0 SWAP1 SLOAD SWAP1 PUSH2 0x100 EXP SWAP1 DIV PUSH20 0xFFFFFFFFFFFFFFFFFFFFFFFFFFFFFFFFFFFFFFFF AND SWAP1 DUP1 PUSH1 0x4 ADD PUSH1 0x14 SWAP1 SLOAD SWAP1 PUSH2 0x100 EXP SWAP1 DIV PUSH8 0xFFFFFFFFFFFFFFFF AND SWAP1 DUP1 PUSH1 0x5 ADD DUP1 SLOAD PUSH2 0x2183 SWAP1 PUSH2 0x3E44 JUMP JUMPDEST DUP1 PUSH1 0x1F ADD PUSH1 0x20 DUP1 SWAP2 DIV MUL PUSH1 0x20 ADD PUSH1 0x40 MLOAD SWAP1 DUP2 ADD PUSH1 0x40 MSTORE DUP1 SWAP3 SWAP2 SWAP1 DUP2 DUP2 MSTORE PUSH1 0x20 ADD DUP3 DUP1 SLOAD PUSH2 0x21AF SWAP1 PUSH2 0x3E44 JUMP JUMPDEST DUP1 ISZERO PUSH2 0x21FA JUMPI DUP1 PUSH1 0x1F LT PUSH2 0x21D1 JUMPI PUSH2 0x100 DUP1 DUP4 SLOAD DIV MUL DUP4 MSTORE SWAP2 PUSH1 0x20 ADD SWAP2 PUSH2 0x21FA JUMP JUMPDEST DUP3 ADD SWAP2 SWAP1 PUSH0 MSTORE PUSH1 0x20 PUSH0 KECCAK256 SWAP1 JUMPDEST DUP2 SLOAD DUP2 MSTORE SWAP1 PUSH1 0x1 ADD SWAP1 PUSH1 0x20 ADD DUP1 DUP4 GT PUSH2 0x21DD JUMPI DUP3 SWAP1 SUB PUSH1 0x1F AND DUP3 ADD SWAP2 JUMPDEST POP POP POP POP POP SWAP1 POP DUP8 JUMP JUMPDEST PUSH0 PUSH1 0x1 PUSH0 DUP4 DUP2 MSTORE PUSH1 0x20 ADD SWAP1 DUP2 MSTORE PUSH1 0x20 ADD PUSH0 KECCAK256 SWAP1 POP PUSH0 PUSH1 0x7 PUSH0 SWAP1 SLOAD SWAP1 PUSH2 0x100 EXP SWAP1 DIV PUSH20 0xFFFFFFFFFFFFFFFFFFFFFFFFFFFFFFFFFFFFFFFF AND PUSH20 0xFFFFFFFFFFFFFFFFFFFFFFFFFFFFFFFFFFFFFFFF AND PUSH4 0x17861F87 DUP5 PUSH1 0x40 MLOAD DUP3 PUSH4 0xFFFFFFFF AND PUSH1 0xE0 SHL DUP2 MSTORE PUSH1 0x4 ADD PUSH2 0x2273 SWAP2 SWAP1 PUSH2 0x3229 JUMP JUMPDEST PUSH0 PUSH1 0x40 MLOAD DUP1 DUP4 SUB DUP2 DUP7 GAS STATICCALL ISZERO DUP1 ISZERO PUSH2 0x228D JUMPI RETURNDATASIZE PUSH0 DUP1 RETURNDATACOPY RETURNDATASIZE PUSH0 REVERT JUMPDEST POP POP POP POP PUSH1 0x40 MLOAD RETURNDATASIZE PUSH0 DUP3 RETURNDATACOPY RETURNDATASIZE PUSH1 0x1F NOT PUSH1 0x1F DUP3 ADD AND DUP3 ADD DUP1 PUSH1 0x40 MSTORE POP DUP2 ADD SWAP1 PUSH2 0x22B5 SWAP2 SWAP1 PUSH2 0x3B10 JUMP JUMPDEST SWAP1 POP PUSH0 DUP2 MLOAD GT PUSH2 0x22FA JUMPI PUSH1 0x40 MLOAD PUSH32 0x8C379A000000000000000000000000000000000000000000000000000000000 DUP2 MSTORE PUSH1 0x4 ADD PUSH2 0x22F1 SWAP1 PUSH2 0x44C2 JUMP JUMPDEST PUSH1 0x40 MLOAD DUP1 SWAP2 SUB SWAP1 REVERT JUMPDEST PUSH0 PUSH20 0xFFFFFFFFFFFFFFFFFFFFFFFFFFFFFFFFFFFFFFFF AND DUP3 PUSH1 0x4 ADD PUSH0 SWAP1 SLOAD SWAP1 PUSH2 0x100 EXP SWAP1 DIV PUSH20 0xFFFFFFFFFFFFFFFFFFFFFFFFFFFFFFFFFFFFFFFF AND PUSH20 0xFFFFFFFFFFFFFFFFFFFFFFFFFFFFFFFFFFFFFFFF AND EQ PUSH2 0x24D6 JUMPI PUSH0 PUSH4 0xB0347814 PUSH1 0xE0 SHL DUP4 PUSH1 0x1 ADD SLOAD DUP4 DUP6 PUSH1 0x5 ADD PUSH1 0x40 MLOAD PUSH1 0x24 ADD PUSH2 0x2375 SWAP4 SWAP3 SWAP2 SWAP1 PUSH2 0x44E0 JUMP JUMPDEST PUSH1 0x40 MLOAD PUSH1 0x20 DUP2 DUP4 SUB SUB DUP2 MSTORE SWAP1 PUSH1 0x40 MSTORE SWAP1 PUSH28 0xFFFFFFFFFFFFFFFFFFFFFFFFFFFFFFFFFFFFFFFFFFFFFFFFFFFFFFFF NOT AND PUSH1 0x20 DUP3 ADD DUP1 MLOAD PUSH28 0xFFFFFFFFFFFFFFFFFFFFFFFFFFFFFFFFFFFFFFFFFFFFFFFFFFFFFFFF DUP4 DUP2 DUP4 AND OR DUP4 MSTORE POP POP POP POP SWAP1 POP PUSH0 DUP1 DUP5 PUSH1 0x4 ADD PUSH0 SWAP1 SLOAD SWAP1 PUSH2 0x100 EXP SWAP1 DIV PUSH20 0xFFFFFFFFFFFFFFFFFFFFFFFFFFFFFFFFFFFFFFFF AND PUSH20 0xFFFFFFFFFFFFFFFFFFFFFFFFFFFFFFFFFFFFFFFF AND DUP6 PUSH1 0x4 ADD PUSH1 0x14 SWAP1 SLOAD SWAP1 PUSH2 0x100 EXP SWAP1 DIV PUSH8 0xFFFFFFFFFFFFFFFF AND PUSH8 0xFFFFFFFFFFFFFFFF AND DUP5 PUSH1 0x40 MLOAD PUSH2 0x2441 SWAP2 SWAP1 PUSH2 0x3F7C JUMP JUMPDEST PUSH0 PUSH1 0x40 MLOAD DUP1 DUP4 SUB DUP2 PUSH0 DUP8 DUP8 CALL SWAP3 POP POP POP RETURNDATASIZE DUP1 PUSH0 DUP2 EQ PUSH2 0x247B JUMPI PUSH1 0x40 MLOAD SWAP2 POP PUSH1 0x1F NOT PUSH1 0x3F RETURNDATASIZE ADD AND DUP3 ADD PUSH1 0x40 MSTORE RETURNDATASIZE DUP3 MSTORE RETURNDATASIZE PUSH0 PUSH1 0x20 DUP5 ADD RETURNDATACOPY PUSH2 0x2480 JUMP JUMPDEST PUSH1 0x60 SWAP2 POP JUMPDEST POP SWAP2 POP SWAP2 POP DUP2 PUSH2 0x24C5 JUMPI PUSH1 0x40 MLOAD PUSH32 0x8C379A000000000000000000000000000000000000000000000000000000000 DUP2 MSTORE PUSH1 0x4 ADD PUSH2 0x24BC SWAP1 PUSH2 0x3FDC JUMP JUMPDEST PUSH1 0x40 MLOAD DUP1 SWAP2 SUB SWAP1 REVERT JUMPDEST DUP2 PUSH2 0x24D2 JUMPI DUP1 MLOAD PUSH1 0x20 DUP3 ADD REVERT JUMPDEST POP POP POP JUMPDEST DUP3 DUP3 PUSH0 ADD PUSH0 SWAP1 SLOAD SWAP1 PUSH2 0x100 EXP SWAP1 DIV PUSH20 0xFFFFFFFFFFFFFFFFFFFFFFFFFFFFFFFFFFFFFFFF AND PUSH20 0xFFFFFFFFFFFFFFFFFFFFFFFFFFFFFFFFFFFFFFFF AND PUSH32 0xB7B413554C4E94C80CFBB175A0E4727F2F425D29B980195C49DAC293C2914FC0 CALLER DUP5 PUSH1 0x40 MLOAD PUSH2 0x2541 SWAP3 SWAP2 SWAP1 PUSH2 0x4523 JUMP JUMPDEST PUSH1 0x40 MLOAD DUP1 SWAP2 SUB SWAP1 LOG3 POP POP POP JUMP JUMPDEST PUSH1 0x8 PUSH0 SWAP1 SLOAD SWAP1 PUSH2 0x100 EXP SWAP1 DIV PUSH20 0xFFFFFFFFFFFFFFFFFFFFFFFFFFFFFFFFFFFFFFFF AND PUSH20 0xFFFFFFFFFFFFFFFFFFFFFFFFFFFFFFFFFFFFFFFF AND CALLER PUSH20 0xFFFFFFFFFFFFFFFFFFFFFFFFFFFFFFFFFFFFFFFF AND EQ PUSH2 0x25DD JUMPI PUSH1 0x40 MLOAD PUSH32 0x8C379A000000000000000000000000000000000000000000000000000000000 DUP2 MSTORE PUSH1 0x4 ADD PUSH2 0x25D4 SWAP1 PUSH2 0x397B JUMP JUMPDEST PUSH1 0x40 MLOAD DUP1 SWAP2 SUB SWAP1 REVERT JUMPDEST PUSH0 PUSH1 0x9 PUSH0 DUP4 PUSH20 0xFFFFFFFFFFFFFFFFFFFFFFFFFFFFFFFFFFFFFFFF AND PUSH20 0xFFFFFFFFFFFFFFFFFFFFFFFFFFFFFFFFFFFFFFFF AND DUP2 MSTORE PUSH1 0x20 ADD SWAP1 DUP2 MSTORE PUSH1 0x20 ADD PUSH0 KECCAK256 PUSH0 PUSH2 0x100 EXP DUP2 SLOAD DUP2 PUSH1 0xFF MUL NOT AND SWAP1 DUP4 ISZERO ISZERO MUL OR SWAP1 SSTORE POP POP JUMP JUMPDEST PUSH1 0x8 PUSH0 SWAP1 SLOAD SWAP1 PUSH2 0x100 EXP SWAP1 DIV PUSH20 0xFFFFFFFFFFFFFFFFFFFFFFFFFFFFFFFFFFFFFFFF AND DUP2 JUMP JUMPDEST PUSH1 0x7 PUSH0 SWAP1 SLOAD SWAP1 PUSH2 0x100 EXP SWAP1 DIV PUSH20 0xFFFFFFFFFFFFFFFFFFFFFFFFFFFFFFFFFFFFFFFF AND DUP2 JUMP JUMPDEST PUSH1 0x9 PUSH1 0x20 MSTORE DUP1 PUSH0 MSTORE PUSH1 0x40 PUSH0 KECCAK256 PUSH0 SWAP2 POP SLOAD SWAP1 PUSH2 0x100 EXP SWAP1 DIV PUSH1 0xFF AND DUP2 JUMP JUMPDEST PUSH1 0x8 PUSH0 SWAP1 SLOAD SWAP1 PUSH2 0x100 EXP SWAP1 DIV PUSH20 0xFFFFFFFFFFFFFFFFFFFFFFFFFFFFFFFFFFFFFFFF AND PUSH20 0xFFFFFFFFFFFFFFFFFFFFFFFFFFFFFFFFFFFFFFFF AND CALLER PUSH20 0xFFFFFFFFFFFFFFFFFFFFFFFFFFFFFFFFFFFFFFFF AND EQ PUSH2 0x272A JUMPI PUSH1 0x40 MLOAD PUSH32 0x8C379A000000000000000000000000000000000000000000000000000000000 DUP2 MSTORE PUSH1 0x4 ADD PUSH2 0x2721 SWAP1 PUSH2 0x397B JUMP JUMPDEST PUSH1 0x40 MLOAD DUP1 SWAP2 SUB SWAP1 REVERT JUMPDEST PUSH1 0x6 PUSH0 PUSH2 0x2737 SWAP2 SWAP1 PUSH2 0x30C7 JUMP JUMPDEST JUMP JUMPDEST PUSH1 0x2 PUSH1 0x20 MSTORE DUP1 PUSH0 MSTORE PUSH1 0x40 PUSH0 KECCAK256 PUSH0 SWAP2 POP SWAP1 POP DUP1 SLOAD PUSH2 0x2755 SWAP1 PUSH2 0x3E44 JUMP JUMPDEST DUP1 PUSH1 0x1F ADD PUSH1 0x20 DUP1 SWAP2 DIV MUL PUSH1 0x20 ADD PUSH1 0x40 MLOAD SWAP1 DUP2 ADD PUSH1 0x40 MSTORE DUP1 SWAP3 SWAP2 SWAP1 DUP2 DUP2 MSTORE PUSH1 0x20 ADD DUP3 DUP1 SLOAD PUSH2 0x2781 SWAP1 PUSH2 0x3E44 JUMP JUMPDEST DUP1 ISZERO PUSH2 0x27CC JUMPI DUP1 PUSH1 0x1F LT PUSH2 0x27A3 JUMPI PUSH2 0x100 DUP1 DUP4 SLOAD DIV MUL DUP4 MSTORE SWAP2 PUSH1 0x20 ADD SWAP2 PUSH2 0x27CC JUMP JUMPDEST DUP3 ADD SWAP2 SWAP1 PUSH0 MSTORE PUSH1 0x20 PUSH0 KECCAK256 SWAP1 JUMPDEST DUP2 SLOAD DUP2 MSTORE SWAP1 PUSH1 0x1 ADD SWAP1 PUSH1 0x20 ADD DUP1 DUP4 GT PUSH2 0x27AF JUMPI DUP3 SWAP1 SUB PUSH1 0x1F AND DUP3 ADD SWAP2 JUMPDEST POP POP POP POP POP DUP2 JUMP JUMPDEST PUSH1 0x8 PUSH0 SWAP1 SLOAD SWAP1 PUSH2 0x100 EXP SWAP1 DIV PUSH20 0xFFFFFFFFFFFFFFFFFFFFFFFFFFFFFFFFFFFFFFFF AND PUSH20 0xFFFFFFFFFFFFFFFFFFFFFFFFFFFFFFFFFFFFFFFF AND CALLER PUSH20 0xFFFFFFFFFFFFFFFFFFFFFFFFFFFFFFFFFFFFFFFF AND EQ PUSH2 0x2863 JUMPI PUSH1 0x40 MLOAD PUSH32 0x8C379A000000000000000000000000000000000000000000000000000000000 DUP2 MSTORE PUSH1 0x4 ADD PUSH2 0x285A SWAP1 PUSH2 0x397B JUMP JUMPDEST PUSH1 0x40 MLOAD DUP1 SWAP2 SUB SWAP1 REVERT JUMPDEST PUSH1 0x4 PUSH0 DUP8 DUP2 MSTORE PUSH1 0x20 ADD SWAP1 DUP2 MSTORE PUSH1 0x20 ADD PUSH0 KECCAK256 PUSH0 SWAP1 SLOAD SWAP1 PUSH2 0x100 EXP SWAP1 DIV PUSH1 0xFF AND ISZERO PUSH2 0x28C1 JUMPI PUSH1 0x40 MLOAD PUSH32 0x8C379A000000000000000000000000000000000000000000000000000000000 DUP2 MSTORE PUSH1 0x4 ADD PUSH2 0x28B8 SWAP1 PUSH2 0x459B JUMP JUMPDEST PUSH1 0x40 MLOAD DUP1 SWAP2 SUB SWAP1 REVERT JUMPDEST PUSH1 0x64 DUP2 GT ISZERO PUSH2 0x2905 JUMPI PUSH1 0x40 MLOAD PUSH32 0x8C379A000000000000000000000000000000000000000000000000000000000 DUP2 MSTORE PUSH1 0x4 ADD PUSH2 0x28FC SWAP1 PUSH2 0x3CFF JUMP JUMPDEST PUSH1 0x40 MLOAD DUP1 SWAP2 SUB SWAP1 REVERT JUMPDEST PUSH1 0x1 PUSH1 0x4 PUSH0 DUP9 DUP2 MSTORE PUSH1 0x20 ADD SWAP1 DUP2 MSTORE PUSH1 0x20 ADD PUSH0 KECCAK256 PUSH0 PUSH2 0x100 EXP DUP2 SLOAD DUP2 PUSH1 0xFF MUL NOT AND SWAP1 DUP4 ISZERO ISZERO MUL OR SWAP1 SSTORE POP PUSH1 0x6 DUP7 SWAP1 DUP1 PUSH1 0x1 DUP2 SLOAD ADD DUP1 DUP3 SSTORE DUP1 SWAP2 POP POP PUSH1 0x1 SWAP1 SUB SWAP1 PUSH0 MSTORE PUSH1 0x20 PUSH0 KECCAK256 ADD PUSH0 SWAP1 SWAP2 SWAP1 SWAP2 SWAP1 SWAP2 POP SSTORE PUSH0 PUSH1 0x3 PUSH0 DUP9 DUP2 MSTORE PUSH1 0x20 ADD SWAP1 DUP2 MSTORE PUSH1 0x20 ADD PUSH0 KECCAK256 SWAP1 POP DUP6 DUP2 PUSH0 ADD DUP2 SWAP1 SSTORE POP DUP5 DUP2 PUSH1 0x1 ADD DUP2 SWAP1 SSTORE POP DUP4 DUP2 PUSH1 0x2 ADD DUP2 SWAP1 SSTORE POP DUP3 DUP2 PUSH1 0x3 ADD PUSH0 PUSH2 0x100 EXP DUP2 SLOAD DUP2 PUSH20 0xFFFFFFFFFFFFFFFFFFFFFFFFFFFFFFFFFFFFFFFF MUL NOT AND SWAP1 DUP4 PUSH20 0xFFFFFFFFFFFFFFFFFFFFFFFFFFFFFFFFFFFFFFFF AND MUL OR SWAP1 SSTORE POP DUP2 DUP2 PUSH1 0x4 ADD DUP2 SWAP1 SSTORE POP PUSH1 0x7 PUSH0 SWAP1 SLOAD SWAP1 PUSH2 0x100 EXP SWAP1 DIV PUSH20 0xFFFFFFFFFFFFFFFFFFFFFFFFFFFFFFFFFFFFFFFF AND PUSH20 0xFFFFFFFFFFFFFFFFFFFFFFFFFFFFFFFFFFFFFFFF AND PUSH4 0x5C3D1519 DUP8 DUP8 PUSH1 0x40 MLOAD DUP4 PUSH4 0xFFFFFFFF AND PUSH1 0xE0 SHL DUP2 MSTORE PUSH1 0x4 ADD PUSH2 0x2A29 SWAP3 SWAP2 SWAP1 PUSH2 0x3D2C JUMP JUMPDEST PUSH0 PUSH1 0x40 MLOAD DUP1 DUP4 SUB DUP2 PUSH0 DUP8 DUP1 EXTCODESIZE ISZERO DUP1 ISZERO PUSH2 0x2A40 JUMPI PUSH0 DUP1 REVERT JUMPDEST POP GAS CALL ISZERO DUP1 ISZERO PUSH2 0x2A52 JUMPI RETURNDATASIZE PUSH0 DUP1 RETURNDATACOPY RETURNDATASIZE PUSH0 REVERT JUMPDEST POP POP POP POP POP POP POP POP POP POP POP JUMP JUMPDEST PUSH1 0x8 PUSH0 SWAP1 SLOAD SWAP1 PUSH2 0x100 EXP SWAP1 DIV PUSH20 0xFFFFFFFFFFFFFFFFFFFFFFFFFFFFFFFFFFFFFFFF AND PUSH20 0xFFFFFFFFFFFFFFFFFFFFFFFFFFFFFFFFFFFFFFFF AND CALLER PUSH20 0xFFFFFFFFFFFFFFFFFFFFFFFFFFFFFFFFFFFFFFFF AND EQ PUSH2 0x2AEE JUMPI PUSH1 0x40 MLOAD PUSH32 0x8C379A000000000000000000000000000000000000000000000000000000000 DUP2 MSTORE PUSH1 0x4 ADD PUSH2 0x2AE5 SWAP1 PUSH2 0x397B JUMP JUMPDEST PUSH1 0x40 MLOAD DUP1 SWAP2 SUB SWAP1 REVERT JUMPDEST PUSH1 0x1 PUSH1 0x9 PUSH0 DUP4 PUSH20 0xFFFFFFFFFFFFFFFFFFFFFFFFFFFFFFFFFFFFFFFF AND PUSH20 0xFFFFFFFFFFFFFFFFFFFFFFFFFFFFFFFFFFFFFFFF AND DUP2 MSTORE PUSH1 0x20 ADD SWAP1 DUP2 MSTORE PUSH1 0x20 ADD PUSH0 KECCAK256 PUSH0 PUSH2 0x100 EXP DUP2 SLOAD DUP2 PUSH1 0xFF MUL NOT AND SWAP1 DUP4 ISZERO ISZERO MUL OR SWAP1 SSTORE POP POP JUMP JUMPDEST PUSH0 PUSH1 0x6 DUP1 SLOAD SWAP1 POP SWAP1 POP SWAP1 JUMP JUMPDEST PUSH1 0x8 PUSH0 SWAP1 SLOAD SWAP1 PUSH2 0x100 EXP SWAP1 DIV PUSH20 0xFFFFFFFFFFFFFFFFFFFFFFFFFFFFFFFFFFFFFFFF AND PUSH20 0xFFFFFFFFFFFFFFFFFFFFFFFFFFFFFFFFFFFFFFFF AND CALLER PUSH20 0xFFFFFFFFFFFFFFFFFFFFFFFFFFFFFFFFFFFFFFFF AND EQ PUSH2 0x2BE1 JUMPI PUSH1 0x40 MLOAD PUSH32 0x8C379A000000000000000000000000000000000000000000000000000000000 DUP2 MSTORE PUSH1 0x4 ADD PUSH2 0x2BD8 SWAP1 PUSH2 0x397B JUMP JUMPDEST PUSH1 0x40 MLOAD DUP1 SWAP2 SUB SWAP1 REVERT JUMPDEST DUP1 PUSH1 0x7 PUSH0 PUSH2 0x100 EXP DUP2 SLOAD DUP2 PUSH20 0xFFFFFFFFFFFFFFFFFFFFFFFFFFFFFFFFFFFFFFFF MUL NOT AND SWAP1 DUP4 PUSH20 0xFFFFFFFFFFFFFFFFFFFFFFFFFFFFFFFFFFFFFFFF AND MUL OR SWAP1 SSTORE POP POP JUMP JUMPDEST PUSH0 PUSH20 0xFFFFFFFFFFFFFFFFFFFFFFFFFFFFFFFFFFFFFFFF AND PUSH1 0x8 PUSH0 SWAP1 SLOAD SWAP1 PUSH2 0x100 EXP SWAP1 DIV PUSH20 0xFFFFFFFFFFFFFFFFFFFFFFFFFFFFFFFFFFFFFFFF AND PUSH20 0xFFFFFFFFFFFFFFFFFFFFFFFFFFFFFFFFFFFFFFFF AND SUB PUSH2 0x2CFF JUMPI PUSH20 0xF5AEB5A4B35BE7AF7DBFDB765F99BCF479C917BD PUSH20 0xFFFFFFFFFFFFFFFFFFFFFFFFFFFFFFFFFFFFFFFF AND CALLER PUSH20 0xFFFFFFFFFFFFFFFFFFFFFFFFFFFFFFFFFFFFFFFF AND EQ PUSH2 0x2CFA JUMPI PUSH1 0x40 MLOAD PUSH32 0x8C379A000000000000000000000000000000000000000000000000000000000 DUP2 MSTORE PUSH1 0x4 ADD PUSH2 0x2CF1 SWAP1 PUSH2 0x4603 JUMP JUMPDEST PUSH1 0x40 MLOAD DUP1 SWAP2 SUB SWAP1 REVERT JUMPDEST PUSH2 0x2D8F JUMP JUMPDEST PUSH1 0x8 PUSH0 SWAP1 SLOAD SWAP1 PUSH2 0x100 EXP SWAP1 DIV PUSH20 0xFFFFFFFFFFFFFFFFFFFFFFFFFFFFFFFFFFFFFFFF AND PUSH20 0xFFFFFFFFFFFFFFFFFFFFFFFFFFFFFFFFFFFFFFFF AND CALLER PUSH20 0xFFFFFFFFFFFFFFFFFFFFFFFFFFFFFFFFFFFFFFFF AND EQ PUSH2 0x2D8E JUMPI PUSH1 0x40 MLOAD PUSH32 0x8C379A000000000000000000000000000000000000000000000000000000000 DUP2 MSTORE PUSH1 0x4 ADD PUSH2 0x2D85 SWAP1 PUSH2 0x397B JUMP JUMPDEST PUSH1 0x40 MLOAD DUP1 SWAP2 SUB SWAP1 REVERT JUMPDEST JUMPDEST DUP1 PUSH1 0x8 PUSH0 PUSH2 0x100 EXP DUP2 SLOAD DUP2 PUSH20 0xFFFFFFFFFFFFFFFFFFFFFFFFFFFFFFFFFFFFFFFF MUL NOT AND SWAP1 DUP4 PUSH20 0xFFFFFFFFFFFFFFFFFFFFFFFFFFFFFFFFFFFFFFFF AND MUL OR SWAP1 SSTORE POP POP JUMP JUMPDEST PUSH0 PUSH1 0x20 MSTORE DUP1 PUSH0 MSTORE PUSH1 0x40 PUSH0 KECCAK256 PUSH0 SWAP2 POP SLOAD SWAP1 PUSH2 0x100 EXP SWAP1 DIV PUSH1 0xFF AND DUP2 JUMP JUMPDEST PUSH20 0xF5AEB5A4B35BE7AF7DBFDB765F99BCF479C917BD DUP2 JUMP JUMPDEST PUSH1 0x5 SLOAD DUP2 JUMP JUMPDEST DUP4 PUSH1 0x4 PUSH0 DUP3 DUP2 MSTORE PUSH1 0x20 ADD SWAP1 DUP2 MSTORE PUSH1 0x20 ADD PUSH0 KECCAK256 PUSH0 SWAP1 SLOAD SWAP1 PUSH2 0x100 EXP SWAP1 DIV PUSH1 0xFF AND PUSH2 0x2E6A JUMPI PUSH1 0x40 MLOAD PUSH32 0x8C379A000000000000000000000000000000000000000000000000000000000 DUP2 MSTORE PUSH1 0x4 ADD PUSH2 0x2E61 SWAP1 PUSH2 0x39E3 JUMP JUMPDEST PUSH1 0x40 MLOAD DUP1 SWAP2 SUB SWAP1 REVERT JUMPDEST DUP3 PUSH0 DUP1 DUP3 PUSH20 0xFFFFFFFFFFFFFFFFFFFFFFFFFFFFFFFFFFFFFFFF AND PUSH20 0xFFFFFFFFFFFFFFFFFFFFFFFFFFFFFFFFFFFFFFFF AND DUP2 MSTORE PUSH1 0x20 ADD SWAP1 DUP2 MSTORE PUSH1 0x20 ADD PUSH0 KECCAK256 PUSH0 SWAP1 SLOAD SWAP1 PUSH2 0x100 EXP SWAP1 DIV PUSH1 0xFF AND ISZERO PUSH2 0x2EF4 JUMPI PUSH1 0x40 MLOAD PUSH32 0x8C379A000000000000000000000000000000000000000000000000000000000 DUP2 MSTORE PUSH1 0x4 ADD PUSH2 0x2EEB SWAP1 PUSH2 0x466B JUMP JUMPDEST PUSH1 0x40 MLOAD DUP1 SWAP2 SUB SWAP1 REVERT JUMPDEST PUSH0 PUSH1 0x3 PUSH0 DUP9 DUP2 MSTORE PUSH1 0x20 ADD SWAP1 DUP2 MSTORE PUSH1 0x20 ADD PUSH0 KECCAK256 SWAP1 POP DUP4 PUSH8 0xFFFFFFFFFFFFFFFF AND PUSH1 0x5 SLOAD PUSH2 0x2F20 SWAP2 SWAP1 PUSH2 0x3A2E JUMP JUMPDEST DUP2 PUSH1 0x2 ADD SLOAD PUSH2 0x2F2F SWAP2 SWAP1 PUSH2 0x3A6F JUMP JUMPDEST CALLVALUE LT ISZERO PUSH2 0x2F71 JUMPI PUSH1 0x40 MLOAD PUSH32 0x8C379A000000000000000000000000000000000000000000000000000000000 DUP2 MSTORE PUSH1 0x4 ADD PUSH2 0x2F68 SWAP1 PUSH2 0x46D3 JUMP JUMPDEST PUSH1 0x40 MLOAD DUP1 SWAP2 SUB SWAP1 REVERT JUMPDEST PUSH1 0x64 DUP2 PUSH1 0x4 ADD SLOAD DUP3 PUSH1 0x2 ADD SLOAD PUSH2 0x2F87 SWAP2 SWAP1 PUSH2 0x3A2E JUMP JUMPDEST PUSH2 0x2F91 SWAP2 SWAP1 PUSH2 0x471E JUMP JUMPDEST DUP2 PUSH1 0x5 ADD PUSH0 DUP3 DUP3 SLOAD PUSH2 0x2FA3 SWAP2 SWAP1 PUSH2 0x3A6F JUMP JUMPDEST SWAP3 POP POP DUP2 SWAP1 SSTORE POP PUSH0 DUP7 MLOAD GT PUSH2 0x2FED JUMPI PUSH1 0x40 MLOAD PUSH32 0x8C379A000000000000000000000000000000000000000000000000000000000 DUP2 MSTORE PUSH1 0x4 ADD PUSH2 0x2FE4 SWAP1 PUSH2 0x4798 JUMP JUMPDEST PUSH1 0x40 MLOAD DUP1 SWAP2 SUB SWAP1 REVERT JUMPDEST PUSH0 DUP1 PUSH20 0xFFFFFFFFFFFFFFFFFFFFFFFFFFFFFFFFFFFFFFFF AND DUP7 PUSH20 0xFFFFFFFFFFFFFFFFFFFFFFFFFFFFFFFFFFFFFFFF AND EQ SWAP1 POP PUSH0 DUP6 PUSH8 0xFFFFFFFFFFFFFFFF AND EQ ISZERO ISZERO DUP2 ISZERO ISZERO EQ PUSH2 0x3071 JUMPI PUSH1 0x40 MLOAD PUSH32 0x8C379A000000000000000000000000000000000000000000000000000000000 DUP2 MSTORE PUSH1 0x4 ADD PUSH2 0x3068 SWAP1 PUSH2 0x4800 JUMP JUMPDEST PUSH1 0x40 MLOAD DUP1 SWAP2 SUB SWAP1 REVERT JUMPDEST POP POP POP POP POP POP POP POP JUMP JUMPDEST PUSH1 0x40 MLOAD DUP1 PUSH1 0xC0 ADD PUSH1 0x40 MSTORE DUP1 PUSH0 DUP1 NOT AND DUP2 MSTORE PUSH1 0x20 ADD PUSH0 DUP1 NOT AND DUP2 MSTORE PUSH1 0x20 ADD PUSH0 DUP2 MSTORE PUSH1 0x20 ADD PUSH0 PUSH20 0xFFFFFFFFFFFFFFFFFFFFFFFFFFFFFFFFFFFFFFFF AND DUP2 MSTORE PUSH1 0x20 ADD PUSH0 DUP2 MSTORE PUSH1 0x20 ADD PUSH0 DUP2 MSTORE POP SWAP1 JUMP JUMPDEST POP DUP1 SLOAD PUSH0 DUP3 SSTORE SWAP1 PUSH0 MSTORE PUSH1 0x20 PUSH0 KECCAK256 SWAP1 DUP2 ADD SWAP1 PUSH2 0x30E2 SWAP2 SWAP1 PUSH2 0x30E5 JUMP JUMPDEST POP JUMP JUMPDEST JUMPDEST DUP1 DUP3 GT ISZERO PUSH2 0x30FC JUMPI PUSH0 DUP2 PUSH0 SWAP1 SSTORE POP PUSH1 0x1 ADD PUSH2 0x30E6 JUMP JUMPDEST POP SWAP1 JUMP JUMPDEST PUSH0 PUSH1 0x40 MLOAD SWAP1 POP SWAP1 JUMP JUMPDEST PUSH0 DUP1 REVERT JUMPDEST PUSH0 DUP1 REVERT JUMPDEST PUSH0 DUP2 SWAP1 POP SWAP2 SWAP1 POP JUMP JUMPDEST PUSH2 0x3123 DUP2 PUSH2 0x3111 JUMP JUMPDEST DUP2 EQ PUSH2 0x312D JUMPI PUSH0 DUP1 REVERT JUMPDEST POP JUMP JUMPDEST PUSH0 DUP2 CALLDATALOAD SWAP1 POP PUSH2 0x313E DUP2 PUSH2 0x311A JUMP JUMPDEST SWAP3 SWAP2 POP POP JUMP JUMPDEST PUSH0 PUSH20 0xFFFFFFFFFFFFFFFFFFFFFFFFFFFFFFFFFFFFFFFF DUP3 AND SWAP1 POP SWAP2 SWAP1 POP JUMP JUMPDEST PUSH0 PUSH2 0x316D DUP3 PUSH2 0x3144 JUMP JUMPDEST SWAP1 POP SWAP2 SWAP1 POP JUMP JUMPDEST PUSH2 0x317D DUP2 PUSH2 0x3163 JUMP JUMPDEST DUP2 EQ PUSH2 0x3187 JUMPI PUSH0 DUP1 REVERT JUMPDEST POP JUMP JUMPDEST PUSH0 DUP2 CALLDATALOAD SWAP1 POP PUSH2 0x3198 DUP2 PUSH2 0x3174 JUMP JUMPDEST SWAP3 SWAP2 POP POP JUMP JUMPDEST PUSH0 DUP1 PUSH1 0x40 DUP4 DUP6 SUB SLT ISZERO PUSH2 0x31B4 JUMPI PUSH2 0x31B3 PUSH2 0x3109 JUMP JUMPDEST JUMPDEST PUSH0 PUSH2 0x31C1 DUP6 DUP3 DUP7 ADD PUSH2 0x3130 JUMP JUMPDEST SWAP3 POP POP PUSH1 0x20 PUSH2 0x31D2 DUP6 DUP3 DUP7 ADD PUSH2 0x318A JUMP JUMPDEST SWAP2 POP POP SWAP3 POP SWAP3 SWAP1 POP JUMP JUMPDEST PUSH0 DUP1 PUSH1 0x40 DUP4 DUP6 SUB SLT ISZERO PUSH2 0x31F2 JUMPI PUSH2 0x31F1 PUSH2 0x3109 JUMP JUMPDEST JUMPDEST PUSH0 PUSH2 0x31FF DUP6 DUP3 DUP7 ADD PUSH2 0x3130 JUMP JUMPDEST SWAP3 POP POP PUSH1 0x20 PUSH2 0x3210 DUP6 DUP3 DUP7 ADD PUSH2 0x3130 JUMP JUMPDEST SWAP2 POP POP SWAP3 POP SWAP3 SWAP1 POP JUMP JUMPDEST PUSH2 0x3223 DUP2 PUSH2 0x3111 JUMP JUMPDEST DUP3 MSTORE POP POP JUMP JUMPDEST PUSH0 PUSH1 0x20 DUP3 ADD SWAP1 POP PUSH2 0x323C PUSH0 DUP4 ADD DUP5 PUSH2 0x321A JUMP JUMPDEST SWAP3 SWAP2 POP POP JUMP JUMPDEST PUSH0 PUSH1 0x20 DUP3 DUP5 SUB SLT ISZERO PUSH2 0x3257 JUMPI PUSH2 0x3256 PUSH2 0x3109 JUMP JUMPDEST JUMPDEST PUSH0 PUSH2 0x3264 DUP5 DUP3 DUP6 ADD PUSH2 0x3130 JUMP JUMPDEST SWAP2 POP POP SWAP3 SWAP2 POP POP JUMP JUMPDEST PUSH0 DUP2 MLOAD SWAP1 POP SWAP2 SWAP1 POP JUMP JUMPDEST PUSH0 DUP3 DUP3 MSTORE PUSH1 0x20 DUP3 ADD SWAP1 POP SWAP3 SWAP2 POP POP JUMP JUMPDEST DUP3 DUP2 DUP4 MCOPY PUSH0 DUP4 DUP4 ADD MSTORE POP POP POP JUMP JUMPDEST PUSH0 PUSH1 0x1F NOT PUSH1 0x1F DUP4 ADD AND SWAP1 POP SWAP2 SWAP1 POP JUMP JUMPDEST PUSH0 PUSH2 0x32AF DUP3 PUSH2 0x326D JUMP JUMPDEST PUSH2 0x32B9 DUP2 DUP6 PUSH2 0x3277 JUMP JUMPDEST SWAP4 POP PUSH2 0x32C9 DUP2 DUP6 PUSH1 0x20 DUP7 ADD PUSH2 0x3287 JUMP JUMPDEST PUSH2 0x32D2 DUP2 PUSH2 0x3295 JUMP JUMPDEST DUP5 ADD SWAP2 POP POP SWAP3 SWAP2 POP POP JUMP JUMPDEST PUSH0 PUSH1 0x20 DUP3 ADD SWAP1 POP DUP2 DUP2 SUB PUSH0 DUP4 ADD MSTORE PUSH2 0x32F5 DUP2 DUP5 PUSH2 0x32A5 JUMP JUMPDEST SWAP1 POP SWAP3 SWAP2 POP POP JUMP JUMPDEST PUSH0 DUP2 ISZERO ISZERO SWAP1 POP SWAP2 SWAP1 POP JUMP JUMPDEST PUSH2 0x3311 DUP2 PUSH2 0x32FD JUMP JUMPDEST DUP3 MSTORE POP POP JUMP JUMPDEST PUSH0 PUSH1 0x20 DUP3 ADD SWAP1 POP PUSH2 0x332A PUSH0 DUP4 ADD DUP5 PUSH2 0x3308 JUMP JUMPDEST SWAP3 SWAP2 POP POP JUMP JUMPDEST PUSH0 PUSH1 0x20 DUP3 DUP5 SUB SLT ISZERO PUSH2 0x3345 JUMPI PUSH2 0x3344 PUSH2 0x3109 JUMP JUMPDEST JUMPDEST PUSH0 PUSH2 0x3352 DUP5 DUP3 DUP6 ADD PUSH2 0x318A JUMP JUMPDEST SWAP2 POP POP SWAP3 SWAP2 POP POP JUMP JUMPDEST PUSH0 PUSH32 0xFFFFFFFF00000000000000000000000000000000000000000000000000000000 DUP3 AND SWAP1 POP SWAP2 SWAP1 POP JUMP JUMPDEST PUSH2 0x338F DUP2 PUSH2 0x335B JUMP JUMPDEST DUP3 MSTORE POP POP JUMP JUMPDEST PUSH0 PUSH1 0x20 DUP3 ADD SWAP1 POP PUSH2 0x33A8 PUSH0 DUP4 ADD DUP5 PUSH2 0x3386 JUMP JUMPDEST SWAP3 SWAP2 POP POP JUMP JUMPDEST PUSH0 DUP2 SWAP1 POP SWAP2 SWAP1 POP JUMP JUMPDEST PUSH2 0x33C0 DUP2 PUSH2 0x33AE JUMP JUMPDEST DUP2 EQ PUSH2 0x33CA JUMPI PUSH0 DUP1 REVERT JUMPDEST POP JUMP JUMPDEST PUSH0 DUP2 CALLDATALOAD SWAP1 POP PUSH2 0x33DB DUP2 PUSH2 0x33B7 JUMP JUMPDEST SWAP3 SWAP2 POP POP JUMP JUMPDEST PUSH0 DUP1 PUSH0 DUP1 PUSH0 DUP1 PUSH1 0xC0 DUP8 DUP10 SUB SLT ISZERO PUSH2 0x33FB JUMPI PUSH2 0x33FA PUSH2 0x3109 JUMP JUMPDEST JUMPDEST PUSH0 PUSH2 0x3408 DUP10 DUP3 DUP11 ADD PUSH2 0x3130 JUMP JUMPDEST SWAP7 POP POP PUSH1 0x20 PUSH2 0x3419 DUP10 DUP3 DUP11 ADD PUSH2 0x33CD JUMP JUMPDEST SWAP6 POP POP PUSH1 0x40 PUSH2 0x342A DUP10 DUP3 DUP11 ADD PUSH2 0x33CD JUMP JUMPDEST SWAP5 POP POP PUSH1 0x60 PUSH2 0x343B DUP10 DUP3 DUP11 ADD PUSH2 0x3130 JUMP JUMPDEST SWAP4 POP POP PUSH1 0x80 PUSH2 0x344C DUP10 DUP3 DUP11 ADD PUSH2 0x318A JUMP JUMPDEST SWAP3 POP POP PUSH1 0xA0 PUSH2 0x345D DUP10 DUP3 DUP11 ADD PUSH2 0x3130 JUMP JUMPDEST SWAP2 POP POP SWAP3 SWAP6 POP SWAP3 SWAP6 POP SWAP3 SWAP6 JUMP JUMPDEST PUSH0 DUP1 REVERT JUMPDEST PUSH0 DUP1 REVERT JUMPDEST PUSH0 DUP1 REVERT JUMPDEST PUSH0 DUP1 DUP4 PUSH1 0x1F DUP5 ADD SLT PUSH2 0x348B JUMPI PUSH2 0x348A PUSH2 0x346A JUMP JUMPDEST JUMPDEST DUP3 CALLDATALOAD SWAP1 POP PUSH8 0xFFFFFFFFFFFFFFFF DUP2 GT ISZERO PUSH2 0x34A8 JUMPI PUSH2 0x34A7 PUSH2 0x346E JUMP JUMPDEST JUMPDEST PUSH1 0x20 DUP4 ADD SWAP2 POP DUP4 PUSH1 0x1 DUP3 MUL DUP4 ADD GT ISZERO PUSH2 0x34C4 JUMPI PUSH2 0x34C3 PUSH2 0x3472 JUMP JUMPDEST JUMPDEST SWAP3 POP SWAP3 SWAP1 POP JUMP JUMPDEST PUSH0 DUP1 PUSH0 PUSH1 0x40 DUP5 DUP7 SUB SLT ISZERO PUSH2 0x34E2 JUMPI PUSH2 0x34E1 PUSH2 0x3109 JUMP JUMPDEST JUMPDEST PUSH0 PUSH2 0x34EF DUP7 DUP3 DUP8 ADD PUSH2 0x3130 JUMP JUMPDEST SWAP4 POP POP PUSH1 0x20 DUP5 ADD CALLDATALOAD PUSH8 0xFFFFFFFFFFFFFFFF DUP2 GT ISZERO PUSH2 0x3510 JUMPI PUSH2 0x350F PUSH2 0x310D JUMP JUMPDEST JUMPDEST PUSH2 0x351C DUP7 DUP3 DUP8 ADD PUSH2 0x3476 JUMP JUMPDEST SWAP3 POP SWAP3 POP POP SWAP3 POP SWAP3 POP SWAP3 JUMP JUMPDEST PUSH0 DUP1 REVERT JUMPDEST PUSH32 0x4E487B7100000000000000000000000000000000000000000000000000000000 PUSH0 MSTORE PUSH1 0x41 PUSH1 0x4 MSTORE PUSH1 0x24 PUSH0 REVERT JUMPDEST PUSH2 0x3562 DUP3 PUSH2 0x3295 JUMP JUMPDEST DUP2 ADD DUP2 DUP2 LT PUSH8 0xFFFFFFFFFFFFFFFF DUP3 GT OR ISZERO PUSH2 0x3581 JUMPI PUSH2 0x3580 PUSH2 0x352C JUMP JUMPDEST JUMPDEST DUP1 PUSH1 0x40 MSTORE POP POP POP JUMP JUMPDEST PUSH0 PUSH2 0x3593 PUSH2 0x3100 JUMP JUMPDEST SWAP1 POP PUSH2 0x359F DUP3 DUP3 PUSH2 0x3559 JUMP JUMPDEST SWAP2 SWAP1 POP JUMP JUMPDEST PUSH0 PUSH8 0xFFFFFFFFFFFFFFFF DUP3 GT ISZERO PUSH2 0x35BE JUMPI PUSH2 0x35BD PUSH2 0x352C JUMP JUMPDEST JUMPDEST PUSH2 0x35C7 DUP3 PUSH2 0x3295 JUMP JUMPDEST SWAP1 POP PUSH1 0x20 DUP2 ADD SWAP1 POP SWAP2 SWAP1 POP JUMP JUMPDEST DUP3 DUP2 DUP4 CALLDATACOPY PUSH0 DUP4 DUP4 ADD MSTORE POP POP POP JUMP JUMPDEST PUSH0 PUSH2 0x35F4 PUSH2 0x35EF DUP5 PUSH2 0x35A4 JUMP JUMPDEST PUSH2 0x358A JUMP JUMPDEST SWAP1 POP DUP3 DUP2 MSTORE PUSH1 0x20 DUP2 ADD DUP5 DUP5 DUP5 ADD GT ISZERO PUSH2 0x3610 JUMPI PUSH2 0x360F PUSH2 0x3528 JUMP JUMPDEST JUMPDEST PUSH2 0x361B DUP5 DUP3 DUP6 PUSH2 0x35D4 JUMP JUMPDEST POP SWAP4 SWAP3 POP POP POP JUMP JUMPDEST PUSH0 DUP3 PUSH1 0x1F DUP4 ADD SLT PUSH2 0x3637 JUMPI PUSH2 0x3636 PUSH2 0x346A JUMP JUMPDEST JUMPDEST DUP2 CALLDATALOAD PUSH2 0x3647 DUP5 DUP3 PUSH1 0x20 DUP7 ADD PUSH2 0x35E2 JUMP JUMPDEST SWAP2 POP POP SWAP3 SWAP2 POP POP JUMP JUMPDEST PUSH0 PUSH8 0xFFFFFFFFFFFFFFFF DUP3 AND SWAP1 POP SWAP2 SWAP1 POP JUMP JUMPDEST PUSH2 0x366C DUP2 PUSH2 0x3650 JUMP JUMPDEST DUP2 EQ PUSH2 0x3676 JUMPI PUSH0 DUP1 REVERT JUMPDEST POP JUMP JUMPDEST PUSH0 DUP2 CALLDATALOAD SWAP1 POP PUSH2 0x3687 DUP2 PUSH2 0x3663 JUMP JUMPDEST SWAP3 SWAP2 POP POP JUMP JUMPDEST PUSH0 DUP1 PUSH0 DUP1 PUSH0 PUSH1 0xA0 DUP7 DUP9 SUB SLT ISZERO PUSH2 0x36A6 JUMPI PUSH2 0x36A5 PUSH2 0x3109 JUMP JUMPDEST JUMPDEST PUSH0 PUSH2 0x36B3 DUP9 DUP3 DUP10 ADD PUSH2 0x3130 JUMP JUMPDEST SWAP6 POP POP PUSH1 0x20 DUP7 ADD CALLDATALOAD PUSH8 0xFFFFFFFFFFFFFFFF DUP2 GT ISZERO PUSH2 0x36D4 JUMPI PUSH2 0x36D3 PUSH2 0x310D JUMP JUMPDEST JUMPDEST PUSH2 0x36E0 DUP9 DUP3 DUP10 ADD PUSH2 0x3623 JUMP JUMPDEST SWAP5 POP POP PUSH1 0x40 PUSH2 0x36F1 DUP9 DUP3 DUP10 ADD PUSH2 0x318A JUMP JUMPDEST SWAP4 POP POP PUSH1 0x60 PUSH2 0x3702 DUP9 DUP3 DUP10 ADD PUSH2 0x3679 JUMP JUMPDEST SWAP3 POP POP PUSH1 0x80 DUP7 ADD CALLDATALOAD PUSH8 0xFFFFFFFFFFFFFFFF DUP2 GT ISZERO PUSH2 0x3723 JUMPI PUSH2 0x3722 PUSH2 0x310D JUMP JUMPDEST JUMPDEST PUSH2 0x372F DUP9 DUP3 DUP10 ADD PUSH2 0x3623 JUMP JUMPDEST SWAP2 POP POP SWAP3 SWAP6 POP SWAP3 SWAP6 SWAP1 SWAP4 POP JUMP JUMPDEST PUSH2 0x3745 DUP2 PUSH2 0x33AE JUMP JUMPDEST DUP3 MSTORE POP POP JUMP JUMPDEST PUSH2 0x3754 DUP2 PUSH2 0x3111 JUMP JUMPDEST DUP3 MSTORE POP POP JUMP JUMPDEST PUSH2 0x3763 DUP2 PUSH2 0x3163 JUMP JUMPDEST DUP3 MSTORE POP POP JUMP JUMPDEST PUSH1 0xC0 DUP3 ADD PUSH0 DUP3 ADD MLOAD PUSH2 0x377D PUSH0 DUP6 ADD DUP3 PUSH2 0x373C JUMP JUMPDEST POP PUSH1 0x20 DUP3 ADD MLOAD PUSH2 0x3790 PUSH1 0x20 DUP6 ADD DUP3 PUSH2 0x373C JUMP JUMPDEST POP PUSH1 0x40 DUP3 ADD MLOAD PUSH2 0x37A3 PUSH1 0x40 DUP6 ADD DUP3 PUSH2 0x374B JUMP JUMPDEST POP PUSH1 0x60 DUP3 ADD MLOAD PUSH2 0x37B6 PUSH1 0x60 DUP6 ADD DUP3 PUSH2 0x375A JUMP JUMPDEST POP PUSH1 0x80 DUP3 ADD MLOAD PUSH2 0x37C9 PUSH1 0x80 DUP6 ADD DUP3 PUSH2 0x374B JUMP JUMPDEST POP PUSH1 0xA0 DUP3 ADD MLOAD PUSH2 0x37DC PUSH1 0xA0 DUP6 ADD DUP3 PUSH2 0x374B JUMP JUMPDEST POP POP POP POP JUMP JUMPDEST PUSH0 PUSH1 0xC0 DUP3 ADD SWAP1 POP PUSH2 0x37F5 PUSH0 DUP4 ADD DUP5 PUSH2 0x3769 JUMP JUMPDEST SWAP3 SWAP2 POP POP JUMP JUMPDEST PUSH2 0x3804 DUP2 PUSH2 0x3163 JUMP JUMPDEST DUP3 MSTORE POP POP JUMP JUMPDEST PUSH2 0x3813 DUP2 PUSH2 0x3650 JUMP JUMPDEST DUP3 MSTORE POP POP JUMP JUMPDEST PUSH0 PUSH1 0xE0 DUP3 ADD SWAP1 POP PUSH2 0x382C PUSH0 DUP4 ADD DUP11 PUSH2 0x37FB JUMP JUMPDEST PUSH2 0x3839 PUSH1 0x20 DUP4 ADD DUP10 PUSH2 0x321A JUMP JUMPDEST PUSH2 0x3846 PUSH1 0x40 DUP4 ADD DUP9 PUSH2 0x321A JUMP JUMPDEST DUP2 DUP2 SUB PUSH1 0x60 DUP4 ADD MSTORE PUSH2 0x3858 DUP2 DUP8 PUSH2 0x32A5 JUMP JUMPDEST SWAP1 POP PUSH2 0x3867 PUSH1 0x80 DUP4 ADD DUP7 PUSH2 0x37FB JUMP JUMPDEST PUSH2 0x3874 PUSH1 0xA0 DUP4 ADD DUP6 PUSH2 0x380A JUMP JUMPDEST DUP2 DUP2 SUB PUSH1 0xC0 DUP4 ADD MSTORE PUSH2 0x3886 DUP2 DUP5 PUSH2 0x32A5 JUMP JUMPDEST SWAP1 POP SWAP9 SWAP8 POP POP POP POP POP POP POP POP JUMP JUMPDEST PUSH0 PUSH1 0x20 DUP3 ADD SWAP1 POP PUSH2 0x38A7 PUSH0 DUP4 ADD DUP5 PUSH2 0x37FB JUMP JUMPDEST SWAP3 SWAP2 POP POP JUMP JUMPDEST PUSH0 DUP2 SWAP1 POP SWAP2 SWAP1 POP JUMP JUMPDEST PUSH0 PUSH2 0x38D0 PUSH2 0x38CB PUSH2 0x38C6 DUP5 PUSH2 0x3144 JUMP JUMPDEST PUSH2 0x38AD JUMP JUMPDEST PUSH2 0x3144 JUMP JUMPDEST SWAP1 POP SWAP2 SWAP1 POP JUMP JUMPDEST PUSH0 PUSH2 0x38E1 DUP3 PUSH2 0x38B6 JUMP JUMPDEST SWAP1 POP SWAP2 SWAP1 POP JUMP JUMPDEST PUSH0 PUSH2 0x38F2 DUP3 PUSH2 0x38D7 JUMP JUMPDEST SWAP1 POP SWAP2 SWAP1 POP JUMP JUMPDEST PUSH2 0x3902 DUP2 PUSH2 0x38E8 JUMP JUMPDEST DUP3 MSTORE POP POP JUMP JUMPDEST PUSH0 PUSH1 0x20 DUP3 ADD SWAP1 POP PUSH2 0x391B PUSH0 DUP4 ADD DUP5 PUSH2 0x38F9 JUMP JUMPDEST SWAP3 SWAP2 POP POP JUMP JUMPDEST PUSH0 DUP3 DUP3 MSTORE PUSH1 0x20 DUP3 ADD SWAP1 POP SWAP3 SWAP2 POP POP JUMP JUMPDEST PUSH32 0x4E6F7420746865206F776E657200000000000000000000000000000000000000 PUSH0 DUP3 ADD MSTORE POP JUMP JUMPDEST PUSH0 PUSH2 0x3965 PUSH1 0xD DUP4 PUSH2 0x3921 JUMP JUMPDEST SWAP2 POP PUSH2 0x3970 DUP3 PUSH2 0x3931 JUMP JUMPDEST PUSH1 0x20 DUP3 ADD SWAP1 POP SWAP2 SWAP1 POP JUMP JUMPDEST PUSH0 PUSH1 0x20 DUP3 ADD SWAP1 POP DUP2 DUP2 SUB PUSH0 DUP4 ADD MSTORE PUSH2 0x3992 DUP2 PUSH2 0x3959 JUMP JUMPDEST SWAP1 POP SWAP2 SWAP1 POP JUMP JUMPDEST PUSH32 0x6D6F64656C20646F6573206E6F74206578697374000000000000000000000000 PUSH0 DUP3 ADD MSTORE POP JUMP JUMPDEST PUSH0 PUSH2 0x39CD PUSH1 0x14 DUP4 PUSH2 0x3921 JUMP JUMPDEST SWAP2 POP PUSH2 0x39D8 DUP3 PUSH2 0x3999 JUMP JUMPDEST PUSH1 0x20 DUP3 ADD SWAP1 POP SWAP2 SWAP1 POP JUMP JUMPDEST PUSH0 PUSH1 0x20 DUP3 ADD SWAP1 POP DUP2 DUP2 SUB PUSH0 DUP4 ADD MSTORE PUSH2 0x39FA DUP2 PUSH2 0x39C1 JUMP JUMPDEST SWAP1 POP SWAP2 SWAP1 POP JUMP JUMPDEST PUSH32 0x4E487B7100000000000000000000000000000000000000000000000000000000 PUSH0 MSTORE PUSH1 0x11 PUSH1 0x4 MSTORE PUSH1 0x24 PUSH0 REVERT JUMPDEST PUSH0 PUSH2 0x3A38 DUP3 PUSH2 0x3111 JUMP JUMPDEST SWAP2 POP PUSH2 0x3A43 DUP4 PUSH2 0x3111 JUMP JUMPDEST SWAP3 POP DUP3 DUP3 MUL PUSH2 0x3A51 DUP2 PUSH2 0x3111 JUMP JUMPDEST SWAP2 POP DUP3 DUP3 DIV DUP5 EQ DUP4 ISZERO OR PUSH2 0x3A68 JUMPI PUSH2 0x3A67 PUSH2 0x3A01 JUMP JUMPDEST JUMPDEST POP SWAP3 SWAP2 POP POP JUMP JUMPDEST PUSH0 PUSH2 0x3A79 DUP3 PUSH2 0x3111 JUMP JUMPDEST SWAP2 POP PUSH2 0x3A84 DUP4 PUSH2 0x3111 JUMP JUMPDEST SWAP3 POP DUP3 DUP3 ADD SWAP1 POP DUP1 DUP3 GT ISZERO PUSH2 0x3A9C JUMPI PUSH2 0x3A9B PUSH2 0x3A01 JUMP JUMPDEST JUMPDEST SWAP3 SWAP2 POP POP JUMP JUMPDEST PUSH0 PUSH2 0x3AB4 PUSH2 0x3AAF DUP5 PUSH2 0x35A4 JUMP JUMPDEST PUSH2 0x358A JUMP JUMPDEST SWAP1 POP DUP3 DUP2 MSTORE PUSH1 0x20 DUP2 ADD DUP5 DUP5 DUP5 ADD GT ISZERO PUSH2 0x3AD0 JUMPI PUSH2 0x3ACF PUSH2 0x3528 JUMP JUMPDEST JUMPDEST PUSH2 0x3ADB DUP5 DUP3 DUP6 PUSH2 0x3287 JUMP JUMPDEST POP SWAP4 SWAP3 POP POP POP JUMP JUMPDEST PUSH0 DUP3 PUSH1 0x1F DUP4 ADD SLT PUSH2 0x3AF7 JUMPI PUSH2 0x3AF6 PUSH2 0x346A JUMP JUMPDEST JUMPDEST DUP2 MLOAD PUSH2 0x3B07 DUP5 DUP3 PUSH1 0x20 DUP7 ADD PUSH2 0x3AA2 JUMP JUMPDEST SWAP2 POP POP SWAP3 SWAP2 POP POP JUMP JUMPDEST PUSH0 PUSH1 0x20 DUP3 DUP5 SUB SLT ISZERO PUSH2 0x3B25 JUMPI PUSH2 0x3B24 PUSH2 0x3109 JUMP JUMPDEST JUMPDEST PUSH0 DUP3 ADD MLOAD PUSH8 0xFFFFFFFFFFFFFFFF DUP2 GT ISZERO PUSH2 0x3B42 JUMPI PUSH2 0x3B41 PUSH2 0x310D JUMP JUMPDEST JUMPDEST PUSH2 0x3B4E DUP5 DUP3 DUP6 ADD PUSH2 0x3AE3 JUMP JUMPDEST SWAP2 POP POP SWAP3 SWAP2 POP POP JUMP JUMPDEST PUSH2 0x3B60 DUP2 PUSH2 0x32FD JUMP JUMPDEST DUP2 EQ PUSH2 0x3B6A JUMPI PUSH0 DUP1 REVERT JUMPDEST POP JUMP JUMPDEST PUSH0 DUP2 MLOAD SWAP1 POP PUSH2 0x3B7B DUP2 PUSH2 0x3B57 JUMP JUMPDEST SWAP3 SWAP2 POP POP JUMP JUMPDEST PUSH0 PUSH1 0x20 DUP3 DUP5 SUB SLT ISZERO PUSH2 0x3B96 JUMPI PUSH2 0x3B95 PUSH2 0x3109 JUMP JUMPDEST JUMPDEST PUSH0 PUSH2 0x3BA3 DUP5 DUP3 DUP6 ADD PUSH2 0x3B6D JUMP JUMPDEST SWAP2 POP POP SWAP3 SWAP2 POP POP JUMP JUMPDEST PUSH32 0x4E487B7100000000000000000000000000000000000000000000000000000000 PUSH0 MSTORE PUSH1 0x32 PUSH1 0x4 MSTORE PUSH1 0x24 PUSH0 REVERT JUMPDEST PUSH0 PUSH2 0x3BE3 DUP3 PUSH2 0x3111 JUMP JUMPDEST SWAP2 POP PUSH2 0x3BEE DUP4 PUSH2 0x3111 JUMP JUMPDEST SWAP3 POP DUP3 DUP3 SUB SWAP1 POP DUP2 DUP2 GT ISZERO PUSH2 0x3C06 JUMPI PUSH2 0x3C05 PUSH2 0x3A01 JUMP JUMPDEST JUMPDEST SWAP3 SWAP2 POP POP JUMP JUMPDEST PUSH0 DUP2 SWAP1 POP SWAP3 SWAP2 POP POP JUMP JUMPDEST POP JUMP JUMPDEST PUSH0 PUSH2 0x3C24 PUSH0 DUP4 PUSH2 0x3C0C JUMP JUMPDEST SWAP2 POP PUSH2 0x3C2F DUP3 PUSH2 0x3C16 JUMP JUMPDEST PUSH0 DUP3 ADD SWAP1 POP SWAP2 SWAP1 POP JUMP JUMPDEST PUSH0 PUSH2 0x3C43 DUP3 PUSH2 0x3C19 JUMP JUMPDEST SWAP2 POP DUP2 SWAP1 POP SWAP2 SWAP1 POP JUMP JUMPDEST PUSH32 0x7769746864726177206661696C65640000000000000000000000000000000000 PUSH0 DUP3 ADD MSTORE POP JUMP JUMPDEST PUSH0 PUSH2 0x3C81 PUSH1 0xF DUP4 PUSH2 0x3921 JUMP JUMPDEST SWAP2 POP PUSH2 0x3C8C DUP3 PUSH2 0x3C4D JUMP JUMPDEST PUSH1 0x20 DUP3 ADD SWAP1 POP SWAP2 SWAP1 POP JUMP JUMPDEST PUSH0 PUSH1 0x20 DUP3 ADD SWAP1 POP DUP2 DUP2 SUB PUSH0 DUP4 ADD MSTORE PUSH2 0x3CAE DUP2 PUSH2 0x3C75 JUMP JUMPDEST SWAP1 POP SWAP2 SWAP1 POP JUMP JUMPDEST PUSH32 0x70657263656E746167652073686F756C64206265203C3D203130300000000000 PUSH0 DUP3 ADD MSTORE POP JUMP JUMPDEST PUSH0 PUSH2 0x3CE9 PUSH1 0x1B DUP4 PUSH2 0x3921 JUMP JUMPDEST SWAP2 POP PUSH2 0x3CF4 DUP3 PUSH2 0x3CB5 JUMP JUMPDEST PUSH1 0x20 DUP3 ADD SWAP1 POP SWAP2 SWAP1 POP JUMP JUMPDEST PUSH0 PUSH1 0x20 DUP3 ADD SWAP1 POP DUP2 DUP2 SUB PUSH0 DUP4 ADD MSTORE PUSH2 0x3D16 DUP2 PUSH2 0x3CDD JUMP JUMPDEST SWAP1 POP SWAP2 SWAP1 POP JUMP JUMPDEST PUSH2 0x3D26 DUP2 PUSH2 0x33AE JUMP JUMPDEST DUP3 MSTORE POP POP JUMP JUMPDEST PUSH0 PUSH1 0x40 DUP3 ADD SWAP1 POP PUSH2 0x3D3F PUSH0 DUP4 ADD DUP6 PUSH2 0x3D1D JUMP JUMPDEST PUSH2 0x3D4C PUSH1 0x20 DUP4 ADD DUP5 PUSH2 0x3D1D JUMP JUMPDEST SWAP4 SWAP3 POP POP POP JUMP JUMPDEST PUSH32 0x41646472657373206E6F742077686974656C6973746564000000000000000000 PUSH0 DUP3 ADD MSTORE POP JUMP JUMPDEST PUSH0 PUSH2 0x3D87 PUSH1 0x17 DUP4 PUSH2 0x3921 JUMP JUMPDEST SWAP2 POP PUSH2 0x3D92 DUP3 PUSH2 0x3D53 JUMP JUMPDEST PUSH1 0x20 DUP3 ADD SWAP1 POP SWAP2 SWAP1 POP JUMP JUMPDEST PUSH0 PUSH1 0x20 DUP3 ADD SWAP1 POP DUP2 DUP2 SUB PUSH0 DUP4 ADD MSTORE PUSH2 0x3DB4 DUP2 PUSH2 0x3D7B JUMP JUMPDEST SWAP1 POP SWAP2 SWAP1 POP JUMP JUMPDEST PUSH0 PUSH2 0x3DC6 DUP4 DUP6 PUSH2 0x3277 JUMP JUMPDEST SWAP4 POP PUSH2 0x3DD3 DUP4 DUP6 DUP5 PUSH2 0x35D4 JUMP JUMPDEST PUSH2 0x3DDC DUP4 PUSH2 0x3295 JUMP JUMPDEST DUP5 ADD SWAP1 POP SWAP4 SWAP3 POP POP POP JUMP JUMPDEST PUSH0 PUSH1 0x40 DUP3 ADD SWAP1 POP PUSH2 0x3DFA PUSH0 DUP4 ADD DUP7 PUSH2 0x321A JUMP JUMPDEST DUP2 DUP2 SUB PUSH1 0x20 DUP4 ADD MSTORE PUSH2 0x3E0D DUP2 DUP5 DUP7 PUSH2 0x3DBB JUMP JUMPDEST SWAP1 POP SWAP5 SWAP4 POP POP POP POP JUMP JUMPDEST PUSH32 0x4E487B7100000000000000000000000000000000000000000000000000000000 PUSH0 MSTORE PUSH1 0x22 PUSH1 0x4 MSTORE PUSH1 0x24 PUSH0 REVERT JUMPDEST PUSH0 PUSH1 0x2 DUP3 DIV SWAP1 POP PUSH1 0x1 DUP3 AND DUP1 PUSH2 0x3E5B JUMPI PUSH1 0x7F DUP3 AND SWAP2 POP JUMPDEST PUSH1 0x20 DUP3 LT DUP2 SUB PUSH2 0x3E6E JUMPI PUSH2 0x3E6D PUSH2 0x3E17 JUMP JUMPDEST JUMPDEST POP SWAP2 SWAP1 POP JUMP JUMPDEST PUSH0 DUP2 SWAP1 POP DUP2 PUSH0 MSTORE PUSH1 0x20 PUSH0 KECCAK256 SWAP1 POP SWAP2 SWAP1 POP JUMP JUMPDEST PUSH0 DUP2 SLOAD PUSH2 0x3E92 DUP2 PUSH2 0x3E44 JUMP JUMPDEST PUSH2 0x3E9C DUP2 DUP7 PUSH2 0x3277 JUMP JUMPDEST SWAP5 POP PUSH1 0x1 DUP3 AND PUSH0 DUP2 EQ PUSH2 0x3EB6 JUMPI PUSH1 0x1 DUP2 EQ PUSH2 0x3ECC JUMPI PUSH2 0x3EFE JUMP JUMPDEST PUSH1 0xFF NOT DUP4 AND DUP7 MSTORE DUP2 ISZERO ISZERO PUSH1 0x20 MUL DUP7 ADD SWAP4 POP PUSH2 0x3EFE JUMP JUMPDEST PUSH2 0x3ED5 DUP6 PUSH2 0x3E74 JUMP JUMPDEST PUSH0 JUMPDEST DUP4 DUP2 LT ISZERO PUSH2 0x3EF6 JUMPI DUP2 SLOAD DUP2 DUP10 ADD MSTORE PUSH1 0x1 DUP3 ADD SWAP2 POP PUSH1 0x20 DUP2 ADD SWAP1 POP PUSH2 0x3ED7 JUMP JUMPDEST DUP1 DUP9 ADD SWAP6 POP POP POP JUMPDEST POP POP POP SWAP3 SWAP2 POP POP JUMP JUMPDEST PUSH0 PUSH1 0x60 DUP3 ADD SWAP1 POP PUSH2 0x3F1A PUSH0 DUP4 ADD DUP8 PUSH2 0x321A JUMP JUMPDEST DUP2 DUP2 SUB PUSH1 0x20 DUP4 ADD MSTORE PUSH2 0x3F2D DUP2 DUP6 DUP8 PUSH2 0x3DBB JUMP JUMPDEST SWAP1 POP DUP2 DUP2 SUB PUSH1 0x40 DUP4 ADD MSTORE PUSH2 0x3F41 DUP2 DUP5 PUSH2 0x3E86 JUMP JUMPDEST SWAP1 POP SWAP6 SWAP5 POP POP POP POP POP JUMP JUMPDEST PUSH0 PUSH2 0x3F56 DUP3 PUSH2 0x326D JUMP JUMPDEST PUSH2 0x3F60 DUP2 DUP6 PUSH2 0x3C0C JUMP JUMPDEST SWAP4 POP PUSH2 0x3F70 DUP2 DUP6 PUSH1 0x20 DUP7 ADD PUSH2 0x3287 JUMP JUMPDEST DUP1 DUP5 ADD SWAP2 POP POP SWAP3 SWAP2 POP POP JUMP JUMPDEST PUSH0 PUSH2 0x3F87 DUP3 DUP5 PUSH2 0x3F4C JUMP JUMPDEST SWAP2 POP DUP2 SWAP1 POP SWAP3 SWAP2 POP POP JUMP JUMPDEST PUSH32 0x6661696C656420746F2063616C6C2073656C6563746F72000000000000000000 PUSH0 DUP3 ADD MSTORE POP JUMP JUMPDEST PUSH0 PUSH2 0x3FC6 PUSH1 0x17 DUP4 PUSH2 0x3921 JUMP JUMPDEST SWAP2 POP PUSH2 0x3FD1 DUP3 PUSH2 0x3F92 JUMP JUMPDEST PUSH1 0x20 DUP3 ADD SWAP1 POP SWAP2 SWAP1 POP JUMP JUMPDEST PUSH0 PUSH1 0x20 DUP3 ADD SWAP1 POP DUP2 DUP2 SUB PUSH0 DUP4 ADD MSTORE PUSH2 0x3FF3 DUP2 PUSH2 0x3FBA JUMP JUMPDEST SWAP1 POP SWAP2 SWAP1 POP JUMP JUMPDEST PUSH0 PUSH1 0x40 DUP3 ADD SWAP1 POP PUSH2 0x400D PUSH0 DUP4 ADD DUP7 PUSH2 0x37FB JUMP JUMPDEST DUP2 DUP2 SUB PUSH1 0x20 DUP4 ADD MSTORE PUSH2 0x4020 DUP2 DUP5 DUP7 PUSH2 0x3DBB JUMP JUMPDEST SWAP1 POP SWAP5 SWAP4 POP POP POP POP JUMP JUMPDEST PUSH32 0x616363756D756C61746520726576656E75652069732030000000000000000000 PUSH0 DUP3 ADD MSTORE POP JUMP JUMPDEST PUSH0 PUSH2 0x405E PUSH1 0x17 DUP4 PUSH2 0x3921 JUMP JUMPDEST SWAP2 POP PUSH2 0x4069 DUP3 PUSH2 0x402A JUMP JUMPDEST PUSH1 0x20 DUP3 ADD SWAP1 POP SWAP2 SWAP1 POP JUMP JUMPDEST PUSH0 PUSH1 0x20 DUP3 ADD SWAP1 POP DUP2 DUP2 SUB PUSH0 DUP4 ADD MSTORE PUSH2 0x408B DUP2 PUSH2 0x4052 JUMP JUMPDEST SWAP1 POP SWAP2 SWAP1 POP JUMP JUMPDEST PUSH32 0x636C61696D4D6F64656C526576656E7565207472616E73666572206661696C65 PUSH0 DUP3 ADD MSTORE PUSH32 0x6400000000000000000000000000000000000000000000000000000000000000 PUSH1 0x20 DUP3 ADD MSTORE POP JUMP JUMPDEST PUSH0 PUSH2 0x40EC PUSH1 0x21 DUP4 PUSH2 0x3921 JUMP JUMPDEST SWAP2 POP PUSH2 0x40F7 DUP3 PUSH2 0x4092 JUMP JUMPDEST PUSH1 0x40 DUP3 ADD SWAP1 POP SWAP2 SWAP1 POP JUMP JUMPDEST PUSH0 PUSH1 0x20 DUP3 ADD SWAP1 POP DUP2 DUP2 SUB PUSH0 DUP4 ADD MSTORE PUSH2 0x4119 DUP2 PUSH2 0x40E0 JUMP JUMPDEST SWAP1 POP SWAP2 SWAP1 POP JUMP JUMPDEST PUSH0 PUSH1 0x60 DUP3 ADD SWAP1 POP PUSH2 0x4133 PUSH0 DUP4 ADD DUP7 PUSH2 0x3D1D JUMP JUMPDEST PUSH2 0x4140 PUSH1 0x20 DUP4 ADD DUP6 PUSH2 0x3D1D JUMP JUMPDEST DUP2 DUP2 SUB PUSH1 0x40 DUP4 ADD MSTORE PUSH2 0x4152 DUP2 DUP5 PUSH2 0x32A5 JUMP JUMPDEST SWAP1 POP SWAP5 SWAP4 POP POP POP POP JUMP JUMPDEST PUSH0 DUP2 MLOAD SWAP1 POP PUSH2 0x416A DUP2 PUSH2 0x311A JUMP JUMPDEST SWAP3 SWAP2 POP POP JUMP JUMPDEST PUSH0 PUSH1 0x20 DUP3 DUP5 SUB SLT ISZERO PUSH2 0x4185 JUMPI PUSH2 0x4184 PUSH2 0x3109 JUMP JUMPDEST JUMPDEST PUSH0 PUSH2 0x4192 DUP5 DUP3 DUP6 ADD PUSH2 0x415C JUMP JUMPDEST SWAP2 POP POP SWAP3 SWAP2 POP POP JUMP JUMPDEST PUSH0 PUSH1 0x20 PUSH1 0x1F DUP4 ADD DIV SWAP1 POP SWAP2 SWAP1 POP JUMP JUMPDEST PUSH0 DUP3 DUP3 SHL SWAP1 POP SWAP3 SWAP2 POP POP JUMP JUMPDEST PUSH0 PUSH1 0x8 DUP4 MUL PUSH2 0x41E5 PUSH32 0xFFFFFFFFFFFFFFFFFFFFFFFFFFFFFFFFFFFFFFFFFFFFFFFFFFFFFFFFFFFFFFFF DUP3 PUSH2 0x41AA JUMP JUMPDEST PUSH2 0x41EF DUP7 DUP4 PUSH2 0x41AA JUMP JUMPDEST SWAP6 POP DUP1 NOT DUP5 AND SWAP4 POP DUP1 DUP7 AND DUP5 OR SWAP3 POP POP POP SWAP4 SWAP3 POP POP POP JUMP JUMPDEST PUSH0 PUSH2 0x4221 PUSH2 0x421C PUSH2 0x4217 DUP5 PUSH2 0x3111 JUMP JUMPDEST PUSH2 0x38AD JUMP JUMPDEST PUSH2 0x3111 JUMP JUMPDEST SWAP1 POP SWAP2 SWAP1 POP JUMP JUMPDEST PUSH0 DUP2 SWAP1 POP SWAP2 SWAP1 POP JUMP JUMPDEST PUSH2 0x423A DUP4 PUSH2 0x4207 JUMP JUMPDEST PUSH2 0x424E PUSH2 0x4246 DUP3 PUSH2 0x4228 JUMP JUMPDEST DUP5 DUP5 SLOAD PUSH2 0x41B6 JUMP JUMPDEST DUP3 SSTORE POP POP POP POP JUMP JUMPDEST PUSH0 SWAP1 JUMP JUMPDEST PUSH2 0x4262 PUSH2 0x4256 JUMP JUMPDEST PUSH2 0x426D DUP2 DUP5 DUP5 PUSH2 0x4231 JUMP JUMPDEST POP POP POP JUMP JUMPDEST JUMPDEST DUP2 DUP2 LT ISZERO PUSH2 0x4290 JUMPI PUSH2 0x4285 PUSH0 DUP3 PUSH2 0x425A JUMP JUMPDEST PUSH1 0x1 DUP2 ADD SWAP1 POP PUSH2 0x4273 JUMP JUMPDEST POP POP JUMP JUMPDEST PUSH1 0x1F DUP3 GT ISZERO PUSH2 0x42D5 JUMPI PUSH2 0x42A6 DUP2 PUSH2 0x3E74 JUMP JUMPDEST PUSH2 0x42AF DUP5 PUSH2 0x419B JUMP JUMPDEST DUP2 ADD PUSH1 0x20 DUP6 LT ISZERO PUSH2 0x42BE JUMPI DUP2 SWAP1 POP JUMPDEST PUSH2 0x42D2 PUSH2 0x42CA DUP6 PUSH2 0x419B JUMP JUMPDEST DUP4 ADD DUP3 PUSH2 0x4272 JUMP JUMPDEST POP POP JUMPDEST POP POP POP JUMP JUMPDEST PUSH0 DUP3 DUP3 SHR SWAP1 POP SWAP3 SWAP2 POP POP JUMP JUMPDEST PUSH0 PUSH2 0x42F5 PUSH0 NOT DUP5 PUSH1 0x8 MUL PUSH2 0x42DA JUMP JUMPDEST NOT DUP1 DUP4 AND SWAP2 POP POP SWAP3 SWAP2 POP POP JUMP JUMPDEST PUSH0 PUSH2 0x430D DUP4 DUP4 PUSH2 0x42E6 JUMP JUMPDEST SWAP2 POP DUP3 PUSH1 0x2 MUL DUP3 OR SWAP1 POP SWAP3 SWAP2 POP POP JUMP JUMPDEST PUSH2 0x4326 DUP3 PUSH2 0x326D JUMP JUMPDEST PUSH8 0xFFFFFFFFFFFFFFFF DUP2 GT ISZERO PUSH2 0x433F JUMPI PUSH2 0x433E PUSH2 0x352C JUMP JUMPDEST JUMPDEST PUSH2 0x4349 DUP3 SLOAD PUSH2 0x3E44 JUMP JUMPDEST PUSH2 0x4354 DUP3 DUP3 DUP6 PUSH2 0x4294 JUMP JUMPDEST PUSH0 PUSH1 0x20 SWAP1 POP PUSH1 0x1F DUP4 GT PUSH1 0x1 DUP2 EQ PUSH2 0x4385 JUMPI PUSH0 DUP5 ISZERO PUSH2 0x4373 JUMPI DUP3 DUP8 ADD MLOAD SWAP1 POP JUMPDEST PUSH2 0x437D DUP6 DUP3 PUSH2 0x4302 JUMP JUMPDEST DUP7 SSTORE POP PUSH2 0x43E4 JUMP JUMPDEST PUSH1 0x1F NOT DUP5 AND PUSH2 0x4393 DUP7 PUSH2 0x3E74 JUMP JUMPDEST PUSH0 JUMPDEST DUP3 DUP2 LT ISZERO PUSH2 0x43BA JUMPI DUP5 DUP10 ADD MLOAD DUP3 SSTORE PUSH1 0x1 DUP3 ADD SWAP2 POP PUSH1 0x20 DUP6 ADD SWAP5 POP PUSH1 0x20 DUP2 ADD SWAP1 POP PUSH2 0x4395 JUMP JUMPDEST DUP7 DUP4 LT ISZERO PUSH2 0x43D7 JUMPI DUP5 DUP10 ADD MLOAD PUSH2 0x43D3 PUSH1 0x1F DUP10 AND DUP3 PUSH2 0x42E6 JUMP JUMPDEST DUP4 SSTORE POP JUMPDEST PUSH1 0x1 PUSH1 0x2 DUP9 MUL ADD DUP9 SSTORE POP POP POP JUMPDEST POP POP POP POP POP POP JUMP JUMPDEST PUSH0 PUSH1 0xA0 DUP3 ADD SWAP1 POP PUSH2 0x43FF PUSH0 DUP4 ADD DUP9 PUSH2 0x321A JUMP JUMPDEST DUP2 DUP2 SUB PUSH1 0x20 DUP4 ADD MSTORE PUSH2 0x4411 DUP2 DUP8 PUSH2 0x32A5 JUMP JUMPDEST SWAP1 POP PUSH2 0x4420 PUSH1 0x40 DUP4 ADD DUP7 PUSH2 0x37FB JUMP JUMPDEST PUSH2 0x442D PUSH1 0x60 DUP4 ADD DUP6 PUSH2 0x380A JUMP JUMPDEST DUP2 DUP2 SUB PUSH1 0x80 DUP4 ADD MSTORE PUSH2 0x443F DUP2 DUP5 PUSH2 0x32A5 JUMP JUMPDEST SWAP1 POP SWAP7 SWAP6 POP POP POP POP POP POP JUMP JUMPDEST PUSH32 0x4E487B7100000000000000000000000000000000000000000000000000000000 PUSH0 MSTORE PUSH1 0x31 PUSH1 0x4 MSTORE PUSH1 0x24 PUSH0 REVERT JUMPDEST PUSH32 0x6F7574707574206E6F742075706C6F6164656400000000000000000000000000 PUSH0 DUP3 ADD MSTORE POP JUMP JUMPDEST PUSH0 PUSH2 0x44AC PUSH1 0x13 DUP4 PUSH2 0x3921 JUMP JUMPDEST SWAP2 POP PUSH2 0x44B7 DUP3 PUSH2 0x4478 JUMP JUMPDEST PUSH1 0x20 DUP3 ADD SWAP1 POP SWAP2 SWAP1 POP JUMP JUMPDEST PUSH0 PUSH1 0x20 DUP3 ADD SWAP1 POP DUP2 DUP2 SUB PUSH0 DUP4 ADD MSTORE PUSH2 0x44D9 DUP2 PUSH2 0x44A0 JUMP JUMPDEST SWAP1 POP SWAP2 SWAP1 POP JUMP JUMPDEST PUSH0 PUSH1 0x60 DUP3 ADD SWAP1 POP PUSH2 0x44F3 PUSH0 DUP4 ADD DUP7 PUSH2 0x321A JUMP JUMPDEST DUP2 DUP2 SUB PUSH1 0x20 DUP4 ADD MSTORE PUSH2 0x4505 DUP2 DUP6 PUSH2 0x32A5 JUMP JUMPDEST SWAP1 POP DUP2 DUP2 SUB PUSH1 0x40 DUP4 ADD MSTORE PUSH2 0x4519 DUP2 DUP5 PUSH2 0x3E86 JUMP JUMPDEST SWAP1 POP SWAP5 SWAP4 POP POP POP POP JUMP JUMPDEST PUSH0 PUSH1 0x40 DUP3 ADD SWAP1 POP PUSH2 0x4536 PUSH0 DUP4 ADD DUP6 PUSH2 0x37FB JUMP JUMPDEST DUP2 DUP2 SUB PUSH1 0x20 DUP4 ADD MSTORE PUSH2 0x4548 DUP2 DUP5 PUSH2 0x32A5 JUMP JUMPDEST SWAP1 POP SWAP4 SWAP3 POP POP POP JUMP JUMPDEST PUSH32 0x6D6F64656C20616C726561647920657869737473000000000000000000000000 PUSH0 DUP3 ADD MSTORE POP JUMP JUMPDEST PUSH0 PUSH2 0x4585 PUSH1 0x14 DUP4 PUSH2 0x3921 JUMP JUMPDEST SWAP2 POP PUSH2 0x4590 DUP3 PUSH2 0x4551 JUMP JUMPDEST PUSH1 0x20 DUP3 ADD SWAP1 POP SWAP2 SWAP1 POP JUMP JUMPDEST PUSH0 PUSH1 0x20 DUP3 ADD SWAP1 POP DUP2 DUP2 SUB PUSH0 DUP4 ADD MSTORE PUSH2 0x45B2 DUP2 PUSH2 0x4579 JUMP JUMPDEST SWAP1 POP SWAP2 SWAP1 POP JUMP JUMPDEST PUSH32 0x6F6E6C79207365727665722063616E20696E6974206F776E6572000000000000 PUSH0 DUP3 ADD MSTORE POP JUMP JUMPDEST PUSH0 PUSH2 0x45ED PUSH1 0x1A DUP4 PUSH2 0x3921 JUMP JUMPDEST SWAP2 POP PUSH2 0x45F8 DUP3 PUSH2 0x45B9 JUMP JUMPDEST PUSH1 0x20 DUP3 ADD SWAP1 POP SWAP2 SWAP1 POP JUMP JUMPDEST PUSH0 PUSH1 0x20 DUP3 ADD SWAP1 POP DUP2 DUP2 SUB PUSH0 DUP4 ADD MSTORE PUSH2 0x461A DUP2 PUSH2 0x45E1 JUMP JUMPDEST SWAP1 POP SWAP2 SWAP1 POP JUMP JUMPDEST PUSH32 0x496E20626C61636B6C6973740000000000000000000000000000000000000000 PUSH0 DUP3 ADD MSTORE POP JUMP JUMPDEST PUSH0 PUSH2 0x4655 PUSH1 0xC DUP4 PUSH2 0x3921 JUMP JUMPDEST SWAP2 POP PUSH2 0x4660 DUP3 PUSH2 0x4621 JUMP JUMPDEST PUSH1 0x20 DUP3 ADD SWAP1 POP SWAP2 SWAP1 POP JUMP JUMPDEST PUSH0 PUSH1 0x20 DUP3 ADD SWAP1 POP DUP2 DUP2 SUB PUSH0 DUP4 ADD MSTORE PUSH2 0x4682 DUP2 PUSH2 0x4649 JUMP JUMPDEST SWAP1 POP SWAP2 SWAP1 POP JUMP JUMPDEST PUSH32 0x696E73756666696369656E742066656500000000000000000000000000000000 PUSH0 DUP3 ADD MSTORE POP JUMP JUMPDEST PUSH0 PUSH2 0x46BD PUSH1 0x10 DUP4 PUSH2 0x3921 JUMP JUMPDEST SWAP2 POP PUSH2 0x46C8 DUP3 PUSH2 0x4689 JUMP JUMPDEST PUSH1 0x20 DUP3 ADD SWAP1 POP SWAP2 SWAP1 POP JUMP JUMPDEST PUSH0 PUSH1 0x20 DUP3 ADD SWAP1 POP DUP2 DUP2 SUB PUSH0 DUP4 ADD MSTORE PUSH2 0x46EA DUP2 PUSH2 0x46B1 JUMP JUMPDEST SWAP1 POP SWAP2 SWAP1 POP JUMP JUMPDEST PUSH32 0x4E487B7100000000000000000000000000000000000000000000000000000000 PUSH0 MSTORE PUSH1 0x12 PUSH1 0x4 MSTORE PUSH1 0x24 PUSH0 REVERT JUMPDEST PUSH0 PUSH2 0x4728 DUP3 PUSH2 0x3111 JUMP JUMPDEST SWAP2 POP PUSH2 0x4733 DUP4 PUSH2 0x3111 JUMP JUMPDEST SWAP3 POP DUP3 PUSH2 0x4743 JUMPI PUSH2 0x4742 PUSH2 0x46F1 JUMP JUMPDEST JUMPDEST DUP3 DUP3 DIV SWAP1 POP SWAP3 SWAP2 POP POP JUMP JUMPDEST PUSH32 0x696E707574206E6F742075706C6F616465640000000000000000000000000000 PUSH0 DUP3 ADD MSTORE POP JUMP JUMPDEST PUSH0 PUSH2 0x4782 PUSH1 0x12 DUP4 PUSH2 0x3921 JUMP JUMPDEST SWAP2 POP PUSH2 0x478D DUP3 PUSH2 0x474E JUMP JUMPDEST PUSH1 0x20 DUP3 ADD SWAP1 POP SWAP2 SWAP1 POP JUMP JUMPDEST PUSH0 PUSH1 0x20 DUP3 ADD SWAP1 POP DUP2 DUP2 SUB PUSH0 DUP4 ADD MSTORE PUSH2 0x47AF DUP2 PUSH2 0x4776 JUMP JUMPDEST SWAP1 POP SWAP2 SWAP1 POP JUMP JUMPDEST PUSH32 0x496E76616C6964206761734C696D697400000000000000000000000000000000 PUSH0 DUP3 ADD MSTORE POP JUMP JUMPDEST PUSH0 PUSH2 0x47EA PUSH1 0x10 DUP4 PUSH2 0x3921 JUMP JUMPDEST SWAP2 POP PUSH2 0x47F5 DUP3 PUSH2 0x47B6 JUMP JUMPDEST PUSH1 0x20 DUP3 ADD SWAP1 POP SWAP2 SWAP1 POP JUMP JUMPDEST PUSH0 PUSH1 0x20 DUP3 ADD SWAP1 POP DUP2 DUP2 SUB PUSH0 DUP4 ADD MSTORE PUSH2 0x4817 DUP2 PUSH2 0x47DE JUMP JUMPDEST SWAP1 POP SWAP2 SWAP1 POP JUMP INVALID LOG2 PUSH5 0x6970667358 0x22 SLT KECCAK256 0xE PUSH17 0xA550574703407BAEF9D01F508091433DB4 0xD9 0xB6 0xC1 0xDC DIV SUB 0xB4 0xB7 0xFB 0x2B PUSH32 0xB09764736F6C634300081A003300000000000000000000000000000000000000 "
				},
				"gasEstimates": {
					"creation": {
						"codeDepositCost": "3703200",
						"executionCost": "4177",
						"totalCost": "3707377"
					},
					"external": {
						"addToBlacklist(address)": "27062",
						"addToWhitelist(address)": "27061",
						"blacklist(address)": "2920",
						"callbackFunctionSelector()": "449",
						"claimModelRevenue(uint256)": "infinite",
						"estimateFee(uint256,uint256)": "infinite",
						"gasPrice()": "2557",
						"getModel(uint256)": "infinite",
						"getOutput(uint256)": "infinite",
						"invokeCallback(uint256,bytes)": "infinite",
						"isFinalized(uint256)": "infinite",
						"modelIDs(uint256)": "infinite",
						"numberOfModels()": "2551",
						"opml()": "infinite",
						"outputOfRequest(uint256)": "infinite",
						"owner()": "2553",
						"removeFromBlacklist(address)": "27017",
						"removeFromWhitelist(address)": "27083",
						"removeModel(uint256)": "infinite",
						"requestCallback(uint256,bytes,address,uint64,bytes)": "infinite",
						"requests(uint256)": "infinite",
						"resetGasPrice()": "7371",
						"resetModelIDs()": "infinite",
						"server()": "483",
						"setModelFee(uint256,uint256)": "infinite",
						"setModelReceiver(uint256,address)": "29429",
						"setModelReceiverPercentage(uint256,uint256)": "infinite",
						"setOpml(address)": "26928",
						"transferOwnership(address)": "29120",
						"updateModel(uint256,bytes32,bytes32,uint256,address,uint256)": "infinite",
						"updateResult(uint256)": "infinite",
						"uploadModel(uint256,bytes32,bytes32,uint256,address,uint256)": "infinite",
						"whitelist(address)": "2922",
						"withdraw()": "infinite"
					},
					"internal": {
						"_validateParams(uint256,bytes memory,address,uint64)": "infinite"
					}
				},
				"methodIdentifiers": {
					"addToBlacklist(address)": "44337ea1",
					"addToWhitelist(address)": "e43252d7",
					"blacklist(address)": "f9f92be4",
					"callbackFunctionSelector()": "49163731",
					"claimModelRevenue(uint256)": "5638101b",
					"estimateFee(uint256,uint256)": "00e1d8d0",
					"gasPrice()": "fe173b97",
					"getModel(uint256)": "6d361694",
					"getOutput(uint256)": "17861f87",
					"invokeCallback(uint256,bytes)": "55d15d93",
					"isFinalized(uint256)": "33727c4d",
					"modelIDs(uint256)": "349c4136",
					"numberOfModels()": "e857f747",
					"opml()": "9a6a794f",
					"outputOfRequest(uint256)": "b1097523",
					"owner()": "8da5cb5b",
					"removeFromBlacklist(address)": "537df3b6",
					"removeFromWhitelist(address)": "8ab1d681",
					"removeModel(uint256)": "6b0641a3",
					"requestCallback(uint256,bytes,address,uint64,bytes)": "5b953806",
					"requests(uint256)": "81d12c58",
					"resetGasPrice()": "754592b2",
					"resetModelIDs()": "ace04ec7",
					"server()": "fd922a42",
					"setModelFee(uint256,uint256)": "6c124d74",
					"setModelReceiver(uint256,address)": "0077f244",
					"setModelReceiverPercentage(uint256,uint256)": "699ecb83",
					"setOpml(address)": "ea5abe61",
					"transferOwnership(address)": "f2fde38b",
					"updateModel(uint256,bytes32,bytes32,uint256,address,uint256)": "54c33b10",
					"updateResult(uint256)": "82dcc26d",
					"uploadModel(uint256,bytes32,bytes32,uint256,address,uint256)": "b70b5ccc",
					"whitelist(address)": "9b19251a",
					"withdraw()": "3ccfd60b"
				}
			},
			"storageLayout": {
				"storage": [
					{
						"astId": 27,
						"contract": "contracts/AIOracle.sol:AIOracle",
						"label": "blacklist",
						"offset": 0,
						"slot": "0",
						"type": "t_mapping(t_address,t_bool)"
					},
					{
						"astId": 47,
						"contract": "contracts/AIOracle.sol:AIOracle",
						"label": "requests",
						"offset": 0,
						"slot": "1",
						"type": "t_mapping(t_uint256,t_struct(AICallbackRequestData)42_storage)"
					},
					{
						"astId": 51,
						"contract": "contracts/AIOracle.sol:AIOracle",
						"label": "outputOfRequest",
						"offset": 0,
						"slot": "2",
						"type": "t_mapping(t_uint256,t_bytes_storage)"
					},
					{
						"astId": 69,
						"contract": "contracts/AIOracle.sol:AIOracle",
						"label": "models",
						"offset": 0,
						"slot": "3",
						"type": "t_mapping(t_uint256,t_struct(ModelData)64_storage)"
					},
					{
						"astId": 73,
						"contract": "contracts/AIOracle.sol:AIOracle",
						"label": "modelExists",
						"offset": 0,
						"slot": "4",
						"type": "t_mapping(t_uint256,t_bool)"
					},
					{
						"astId": 75,
						"contract": "contracts/AIOracle.sol:AIOracle",
						"label": "gasPrice",
						"offset": 0,
						"slot": "5",
						"type": "t_uint256"
					},
					{
						"astId": 78,
						"contract": "contracts/AIOracle.sol:AIOracle",
						"label": "modelIDs",
						"offset": 0,
						"slot": "6",
						"type": "t_array(t_uint256)dyn_storage"
					},
					{
						"astId": 81,
						"contract": "contracts/AIOracle.sol:AIOracle",
						"label": "opml",
						"offset": 0,
						"slot": "7",
						"type": "t_contract(IOpml)1276"
					},
					{
						"astId": 83,
						"contract": "contracts/AIOracle.sol:AIOracle",
						"label": "owner",
						"offset": 0,
						"slot": "8",
						"type": "t_address"
					},
					{
						"astId": 87,
						"contract": "contracts/AIOracle.sol:AIOracle",
						"label": "whitelist",
						"offset": 0,
						"slot": "9",
						"type": "t_mapping(t_address,t_bool)"
					}
				],
				"types": {
					"t_address": {
						"encoding": "inplace",
						"label": "address",
						"numberOfBytes": "20"
					},
					"t_array(t_uint256)dyn_storage": {
						"base": "t_uint256",
						"encoding": "dynamic_array",
						"label": "uint256[]",
						"numberOfBytes": "32"
					},
					"t_bool": {
						"encoding": "inplace",
						"label": "bool",
						"numberOfBytes": "1"
					},
					"t_bytes32": {
						"encoding": "inplace",
						"label": "bytes32",
						"numberOfBytes": "32"
					},
					"t_bytes_storage": {
						"encoding": "bytes",
						"label": "bytes",
						"numberOfBytes": "32"
					},
					"t_contract(IOpml)1276": {
						"encoding": "inplace",
						"label": "contract IOpml",
						"numberOfBytes": "20"
					},
					"t_mapping(t_address,t_bool)": {
						"encoding": "mapping",
						"key": "t_address",
						"label": "mapping(address => bool)",
						"numberOfBytes": "32",
						"value": "t_bool"
					},
					"t_mapping(t_uint256,t_bool)": {
						"encoding": "mapping",
						"key": "t_uint256",
						"label": "mapping(uint256 => bool)",
						"numberOfBytes": "32",
						"value": "t_bool"
					},
					"t_mapping(t_uint256,t_bytes_storage)": {
						"encoding": "mapping",
						"key": "t_uint256",
						"label": "mapping(uint256 => bytes)",
						"numberOfBytes": "32",
						"value": "t_bytes_storage"
					},
					"t_mapping(t_uint256,t_struct(AICallbackRequestData)42_storage)": {
						"encoding": "mapping",
						"key": "t_uint256",
						"label": "mapping(uint256 => struct AIOracle.AICallbackRequestData)",
						"numberOfBytes": "32",
						"value": "t_struct(AICallbackRequestData)42_storage"
					},
					"t_mapping(t_uint256,t_struct(ModelData)64_storage)": {
						"encoding": "mapping",
						"key": "t_uint256",
						"label": "mapping(uint256 => struct AIOracle.ModelData)",
						"numberOfBytes": "32",
						"value": "t_struct(ModelData)64_storage"
					},
					"t_struct(AICallbackRequestData)42_storage": {
						"encoding": "inplace",
						"label": "struct AIOracle.AICallbackRequestData",
						"members": [
							{
								"astId": 29,
								"contract": "contracts/AIOracle.sol:AIOracle",
								"label": "account",
								"offset": 0,
								"slot": "0",
								"type": "t_address"
							},
							{
								"astId": 31,
								"contract": "contracts/AIOracle.sol:AIOracle",
								"label": "requestId",
								"offset": 0,
								"slot": "1",
								"type": "t_uint256"
							},
							{
								"astId": 33,
								"contract": "contracts/AIOracle.sol:AIOracle",
								"label": "modelId",
								"offset": 0,
								"slot": "2",
								"type": "t_uint256"
							},
							{
								"astId": 35,
								"contract": "contracts/AIOracle.sol:AIOracle",
								"label": "input",
								"offset": 0,
								"slot": "3",
								"type": "t_bytes_storage"
							},
							{
								"astId": 37,
								"contract": "contracts/AIOracle.sol:AIOracle",
								"label": "callbackContract",
								"offset": 0,
								"slot": "4",
								"type": "t_address"
							},
							{
								"astId": 39,
								"contract": "contracts/AIOracle.sol:AIOracle",
								"label": "gasLimit",
								"offset": 20,
								"slot": "4",
								"type": "t_uint64"
							},
							{
								"astId": 41,
								"contract": "contracts/AIOracle.sol:AIOracle",
								"label": "callbackData",
								"offset": 0,
								"slot": "5",
								"type": "t_bytes_storage"
							}
						],
						"numberOfBytes": "192"
					},
					"t_struct(ModelData)64_storage": {
						"encoding": "inplace",
						"label": "struct AIOracle.ModelData",
						"members": [
							{
								"astId": 53,
								"contract": "contracts/AIOracle.sol:AIOracle",
								"label": "modelHash",
								"offset": 0,
								"slot": "0",
								"type": "t_bytes32"
							},
							{
								"astId": 55,
								"contract": "contracts/AIOracle.sol:AIOracle",
								"label": "programHash",
								"offset": 0,
								"slot": "1",
								"type": "t_bytes32"
							},
							{
								"astId": 57,
								"contract": "contracts/AIOracle.sol:AIOracle",
								"label": "fee",
								"offset": 0,
								"slot": "2",
								"type": "t_uint256"
							},
							{
								"astId": 59,
								"contract": "contracts/AIOracle.sol:AIOracle",
								"label": "receiver",
								"offset": 0,
								"slot": "3",
								"type": "t_address"
							},
							{
								"astId": 61,
								"contract": "contracts/AIOracle.sol:AIOracle",
								"label": "receiverPercentage",
								"offset": 0,
								"slot": "4",
								"type": "t_uint256"
							},
							{
								"astId": 63,
								"contract": "contracts/AIOracle.sol:AIOracle",
								"label": "accumulateRevenue",
								"offset": 0,
								"slot": "5",
								"type": "t_uint256"
							}
						],
						"numberOfBytes": "192"
					},
					"t_uint256": {
						"encoding": "inplace",
						"label": "uint256",
						"numberOfBytes": "32"
					},
					"t_uint64": {
						"encoding": "inplace",
						"label": "uint64",
						"numberOfBytes": "8"
					}
				}
			},
			"userdoc": {
				"events": {
					"AICallbackRequest(address,uint256,uint256,bytes,address,uint64,bytes)": {
						"notice": "Event emitted upon receiving a callback request through requestCallback."
					},
					"AICallbackResult(address,uint256,address,bytes)": {
						"notice": "Event emitted when the result is uploaded or update."
					}
				},
				"kind": "user",
				"methods": {
					"requestCallback(uint256,bytes,address,uint64,bytes)": {
						"notice": "initiate a request in OAO"
					}
				},
				"version": 1
			}
		}
	}
}