{
	"contracts/Prompt.sol": {
		"Prompt": {
			"abi": [
				{
					"inputs": [
						{
							"internalType": "contract IAIOracle",
							"name": "_aiOracle",
							"type": "address"
						}
					],
					"stateMutability": "nonpayable",
					"type": "constructor"
				},
				{
					"inputs": [
						{
							"internalType": "contract IAIOracle",
							"name": "expected",
							"type": "address"
						},
						{
							"internalType": "contract IAIOracle",
							"name": "found",
							"type": "address"
						}
					],
					"name": "UnauthorizedCallbackSource",
					"type": "error"
				},
				{
					"anonymous": false,
					"inputs": [
						{
							"indexed": false,
							"internalType": "uint256",
							"name": "requestId",
							"type": "uint256"
						},
						{
							"indexed": false,
							"internalType": "address",
							"name": "sender",
							"type": "address"
						},
						{
							"indexed": false,
							"internalType": "uint256",
							"name": "modelId",
							"type": "uint256"
						},
						{
							"indexed": false,
							"internalType": "string",
							"name": "prompt",
							"type": "string"
						}
					],
					"name": "promptRequest",
					"type": "event"
				},
				{
					"anonymous": false,
					"inputs": [
						{
							"indexed": false,
							"internalType": "uint256",
							"name": "requestId",
							"type": "uint256"
						},
						{
							"indexed": false,
							"internalType": "uint256",
							"name": "modelId",
							"type": "uint256"
						},
						{
							"indexed": false,
							"internalType": "string",
							"name": "input",
							"type": "string"
						},
						{
							"indexed": false,
							"internalType": "string",
							"name": "output",
							"type": "string"
						},
						{
							"indexed": false,
							"internalType": "bytes",
							"name": "callbackData",
							"type": "bytes"
						}
					],
					"name": "promptsUpdated",
					"type": "event"
				},
				{
					"inputs": [],
					"name": "aiOracle",
					"outputs": [
						{
							"internalType": "contract IAIOracle",
							"name": "",
							"type": "address"
						}
					],
					"stateMutability": "view",
					"type": "function"
				},
				{
					"inputs": [
						{
							"internalType": "uint256",
							"name": "requestId",
							"type": "uint256"
						},
						{
							"internalType": "bytes",
							"name": "output",
							"type": "bytes"
						},
						{
							"internalType": "bytes",
							"name": "callbackData",
							"type": "bytes"
						}
					],
					"name": "aiOracleCallback",
					"outputs": [],
					"stateMutability": "nonpayable",
					"type": "function"
				},
				{
					"inputs": [
						{
							"internalType": "uint256",
							"name": "modelId",
							"type": "uint256"
						},
						{
							"internalType": "string",
							"name": "prompt",
							"type": "string"
						}
					],
					"name": "calculateAIResult",
					"outputs": [],
					"stateMutability": "payable",
					"type": "function"
				},
				{
					"inputs": [
						{
							"internalType": "uint256",
							"name": "",
							"type": "uint256"
						}
					],
					"name": "callbackGasLimit",
					"outputs": [
						{
							"internalType": "uint64",
							"name": "",
							"type": "uint64"
						}
					],
					"stateMutability": "view",
					"type": "function"
				},
				{
					"inputs": [
						{
							"internalType": "uint256",
							"name": "modelId",
							"type": "uint256"
						}
					],
					"name": "estimateFee",
					"outputs": [
						{
							"internalType": "uint256",
							"name": "",
							"type": "uint256"
						}
					],
					"stateMutability": "view",
					"type": "function"
				},
				{
					"inputs": [
						{
							"internalType": "uint256",
							"name": "modelId",
							"type": "uint256"
						},
						{
							"internalType": "string",
							"name": "prompt",
							"type": "string"
						}
					],
					"name": "getAIResult",
					"outputs": [
						{
							"internalType": "string",
							"name": "",
							"type": "string"
						}
					],
					"stateMutability": "view",
					"type": "function"
				},
				{
					"inputs": [
						{
							"internalType": "uint256",
							"name": "requestId",
							"type": "uint256"
						}
					],
					"name": "isFinalized",
					"outputs": [
						{
							"internalType": "bool",
							"name": "",
							"type": "bool"
						}
					],
					"stateMutability": "view",
					"type": "function"
				},
				{
					"inputs": [
						{
							"internalType": "uint256",
							"name": "",
							"type": "uint256"
						},
						{
							"internalType": "string",
							"name": "",
							"type": "string"
						}
					],
					"name": "prompts",
					"outputs": [
						{
							"internalType": "string",
							"name": "",
							"type": "string"
						}
					],
					"stateMutability": "view",
					"type": "function"
				},
				{
					"inputs": [
						{
							"internalType": "uint256",
							"name": "",
							"type": "uint256"
						}
					],
					"name": "requests",
					"outputs": [
						{
							"internalType": "address",
							"name": "sender",
							"type": "address"
						},
						{
							"internalType": "uint256",
							"name": "modelId",
							"type": "uint256"
						},
						{
							"internalType": "bytes",
							"name": "input",
							"type": "bytes"
						},
						{
							"internalType": "bytes",
							"name": "output",
							"type": "bytes"
						}
					],
					"stateMutability": "view",
					"type": "function"
				},
				{
					"inputs": [
						{
							"internalType": "uint256",
							"name": "modelId",
							"type": "uint256"
						},
						{
							"internalType": "uint64",
							"name": "gasLimit",
							"type": "uint64"
						}
					],
					"name": "setCallbackGasLimit",
					"outputs": [],
					"stateMutability": "nonpayable",
					"type": "function"
				}
			],
			"devdoc": {
				"kind": "dev",
				"methods": {
					"aiOracleCallback(uint256,bytes,bytes)": {
						"details": "the callback function in OAO, should add the modifier onlyAIOracleCallback!",
						"params": {
							"callbackData": "user-defined data (The same as when the user call aiOracle.requestCallback)",
							"output": "AI model's output",
							"requestId": "Id for the request in OAO (unique per request)"
						}
					}
				},
				"version": 1
			},
			"evm": {
				"assembly": "    /* \"contracts/Prompt.sol\":200:3012  contract Prompt is AIOracleCallbackReceiver {... */\n  mstore(0x40, 0xa0)\n    /* \"contracts/Prompt.sol\":1050:1154  constructor(IAIOracle _aiOracle) AIOracleCallbackReceiver(_aiOracle) {... */\n  callvalue\n  dup1\n  iszero\n  tag_1\n  jumpi\n  0x00\n  dup1\n  revert\ntag_1:\n  pop\n  mload(0x40)\n  sub(codesize, bytecodeSize)\n  dup1\n  bytecodeSize\n  dup4\n  codecopy\n  dup2\n  dup2\n  add\n  0x40\n  mstore\n  dup2\n  add\n  swap1\n  tag_2\n  swap2\n  swap1\n  tag_3\n  jump\t// in\ntag_2:\n    /* \"contracts/Prompt.sol\":1108:1117  _aiOracle */\n  dup1\n    /* \"contracts/AIOracleCallbackReceiver.sol\":556:565  _aiOracle */\n  dup1\n    /* \"contracts/AIOracleCallbackReceiver.sol\":545:565  aiOracle = _aiOracle */\n  0xffffffffffffffffffffffffffffffffffffffff\n  and\n  0x80\n  dup2\n  0xffffffffffffffffffffffffffffffffffffffff\n  and\n  dup2\n  mstore\n  pop\n  pop\n    /* \"contracts/AIOracleCallbackReceiver.sol\":502:572  constructor(IAIOracle _aiOracle) {... */\n  pop\n    /* \"contracts/Prompt.sol\":1137:1147  msg.sender */\n  caller\n    /* \"contracts/Prompt.sol\":1129:1134  owner */\n  0x00\n  dup1\n    /* \"contracts/Prompt.sol\":1129:1147  owner = msg.sender */\n  0x0100\n  exp\n  dup2\n  sload\n  dup2\n  0xffffffffffffffffffffffffffffffffffffffff\n  mul\n  not\n  and\n  swap1\n  dup4\n  0xffffffffffffffffffffffffffffffffffffffff\n  and\n  mul\n  or\n  swap1\n  sstore\n  pop\n    /* \"contracts/Prompt.sol\":1050:1154  constructor(IAIOracle _aiOracle) AIOracleCallbackReceiver(_aiOracle) {... */\n  pop\n    /* \"contracts/Prompt.sol\":200:3012  contract Prompt is AIOracleCallbackReceiver {... */\n  jump(tag_8)\n    /* \"#utility.yul\":88:205   */\ntag_10:\n    /* \"#utility.yul\":197:198   */\n  0x00\n    /* \"#utility.yul\":194:195   */\n  dup1\n    /* \"#utility.yul\":187:199   */\n  revert\n    /* \"#utility.yul\":334:460   */\ntag_12:\n    /* \"#utility.yul\":371:378   */\n  0x00\n    /* \"#utility.yul\":411:453   */\n  0xffffffffffffffffffffffffffffffffffffffff\n    /* \"#utility.yul\":404:409   */\n  dup3\n    /* \"#utility.yul\":400:454   */\n  and\n    /* \"#utility.yul\":389:454   */\n  swap1\n  pop\n    /* \"#utility.yul\":334:460   */\n  swap2\n  swap1\n  pop\n  jump\t// out\n    /* \"#utility.yul\":466:562   */\ntag_13:\n    /* \"#utility.yul\":503:510   */\n  0x00\n    /* \"#utility.yul\":532:556   */\n  tag_23\n    /* \"#utility.yul\":550:555   */\n  dup3\n    /* \"#utility.yul\":532:556   */\n  tag_12\n  jump\t// in\ntag_23:\n    /* \"#utility.yul\":521:556   */\n  swap1\n  pop\n    /* \"#utility.yul\":466:562   */\n  swap2\n  swap1\n  pop\n  jump\t// out\n    /* \"#utility.yul\":568:681   */\ntag_14:\n    /* \"#utility.yul\":622:629   */\n  0x00\n    /* \"#utility.yul\":651:675   */\n  tag_25\n    /* \"#utility.yul\":669:674   */\n  dup3\n    /* \"#utility.yul\":651:675   */\n  tag_13\n  jump\t// in\ntag_25:\n    /* \"#utility.yul\":640:675   */\n  swap1\n  pop\n    /* \"#utility.yul\":568:681   */\n  swap2\n  swap1\n  pop\n  jump\t// out\n    /* \"#utility.yul\":687:843   */\ntag_15:\n    /* \"#utility.yul\":777:818   */\n  tag_27\n    /* \"#utility.yul\":812:817   */\n  dup2\n    /* \"#utility.yul\":777:818   */\n  tag_14\n  jump\t// in\ntag_27:\n    /* \"#utility.yul\":770:775   */\n  dup2\n    /* \"#utility.yul\":767:819   */\n  eq\n    /* \"#utility.yul\":757:837   */\n  tag_28\n  jumpi\n    /* \"#utility.yul\":833:834   */\n  0x00\n    /* \"#utility.yul\":830:831   */\n  dup1\n    /* \"#utility.yul\":823:835   */\n  revert\n    /* \"#utility.yul\":757:837   */\ntag_28:\n    /* \"#utility.yul\":687:843   */\n  pop\n  jump\t// out\n    /* \"#utility.yul\":849:1026   */\ntag_16:\n    /* \"#utility.yul\":923:928   */\n  0x00\n    /* \"#utility.yul\":954:960   */\n  dup2\n    /* \"#utility.yul\":948:961   */\n  mload\n    /* \"#utility.yul\":939:961   */\n  swap1\n  pop\n    /* \"#utility.yul\":970:1020   */\n  tag_30\n    /* \"#utility.yul\":1014:1019   */\n  dup2\n    /* \"#utility.yul\":970:1020   */\n  tag_15\n  jump\t// in\ntag_30:\n    /* \"#utility.yul\":849:1026   */\n  swap3\n  swap2\n  pop\n  pop\n  jump\t// out\n    /* \"#utility.yul\":1032:1417   */\ntag_3:\n    /* \"#utility.yul\":1119:1125   */\n  0x00\n    /* \"#utility.yul\":1168:1170   */\n  0x20\n    /* \"#utility.yul\":1156:1165   */\n  dup3\n    /* \"#utility.yul\":1147:1154   */\n  dup5\n    /* \"#utility.yul\":1143:1166   */\n  sub\n    /* \"#utility.yul\":1139:1171   */\n  slt\n    /* \"#utility.yul\":1136:1255   */\n  iszero\n  tag_32\n  jumpi\n    /* \"#utility.yul\":1174:1253   */\n  tag_33\n  tag_10\n  jump\t// in\ntag_33:\n    /* \"#utility.yul\":1136:1255   */\ntag_32:\n    /* \"#utility.yul\":1294:1295   */\n  0x00\n    /* \"#utility.yul\":1319:1400   */\n  tag_34\n    /* \"#utility.yul\":1392:1399   */\n  dup5\n    /* \"#utility.yul\":1383:1389   */\n  dup3\n    /* \"#utility.yul\":1372:1381   */\n  dup6\n    /* \"#utility.yul\":1368:1390   */\n  add\n    /* \"#utility.yul\":1319:1400   */\n  tag_16\n  jump\t// in\ntag_34:\n    /* \"#utility.yul\":1309:1400   */\n  swap2\n  pop\n    /* \"#utility.yul\":1265:1410   */\n  pop\n    /* \"#utility.yul\":1032:1417   */\n  swap3\n  swap2\n  pop\n  pop\n  jump\t// out\n    /* \"contracts/Prompt.sol\":200:3012  contract Prompt is AIOracleCallbackReceiver {... */\ntag_8:\n  mload(0x80)\n  codecopy(0x00, dataOffset(sub_0), dataSize(sub_0))\n  0x00\n  assignImmutable(\"0xe455bf8ea6e7463a1046a0b52804526e119b4bf5136279614e0b1e8e296a4e2d\")\n  return(0x00, dataSize(sub_0))\nstop\n\nsub_0: assembly {\n        /* \"contracts/Prompt.sol\":200:3012  contract Prompt is AIOracleCallbackReceiver {... */\n      mstore(0x40, 0x80)\n      jumpi(tag_1, lt(calldatasize, 0x04))\n      shr(0xe0, calldataload(0x00))\n      dup1\n      0x813d1e15\n      gt\n      tag_12\n      jumpi\n      dup1\n      0x813d1e15\n      eq\n      tag_7\n      jumpi\n      dup1\n      0x81d12c58\n      eq\n      tag_8\n      jumpi\n      dup1\n      0x8cbc52d9\n      eq\n      tag_9\n      jumpi\n      dup1\n      0xb0347814\n      eq\n      tag_10\n      jumpi\n      dup1\n      0xfac5d7e1\n      eq\n      tag_11\n      jumpi\n      jump(tag_1)\n    tag_12:\n      dup1\n      0x127e8e4d\n      eq\n      tag_2\n      jumpi\n      dup1\n      0x20f38718\n      eq\n      tag_3\n      jumpi\n      dup1\n      0x2c6296b7\n      eq\n      tag_4\n      jumpi\n      dup1\n      0x31b221cd\n      eq\n      tag_5\n      jumpi\n      dup1\n      0x33727c4d\n      eq\n      tag_6\n      jumpi\n    tag_1:\n      0x00\n      dup1\n      revert\n        /* \"contracts/Prompt.sol\":2254:2402  function estimateFee(uint256 modelId) public view returns (uint256) {... */\n    tag_2:\n      callvalue\n      dup1\n      iszero\n      tag_13\n      jumpi\n      0x00\n      dup1\n      revert\n    tag_13:\n      pop\n      tag_14\n      0x04\n      dup1\n      calldatasize\n      sub\n      dup2\n      add\n      swap1\n      tag_15\n      swap2\n      swap1\n      tag_16\n      jump\t// in\n    tag_15:\n      tag_17\n      jump\t// in\n    tag_14:\n      mload(0x40)\n      tag_18\n      swap2\n      swap1\n      tag_19\n      jump\t// in\n    tag_18:\n      mload(0x40)\n      dup1\n      swap2\n      sub\n      swap1\n      return\n        /* \"contracts/Prompt.sol\":916:966  mapping(uint256 => uint64) public callbackGasLimit */\n    tag_3:\n      callvalue\n      dup1\n      iszero\n      tag_20\n      jumpi\n      0x00\n      dup1\n      revert\n    tag_20:\n      pop\n      tag_21\n      0x04\n      dup1\n      calldatasize\n      sub\n      dup2\n      add\n      swap1\n      tag_22\n      swap2\n      swap1\n      tag_16\n      jump\t// in\n    tag_22:\n      tag_23\n      jump\t// in\n    tag_21:\n      mload(0x40)\n      tag_24\n      swap2\n      swap1\n      tag_25\n      jump\t// in\n    tag_24:\n      mload(0x40)\n      dup1\n      swap2\n      sub\n      swap1\n      return\n        /* \"contracts/Prompt.sol\":1430:1578  function getAIResult(uint256 modelId, string calldata prompt) external view returns (string memory) {... */\n    tag_4:\n      callvalue\n      dup1\n      iszero\n      tag_26\n      jumpi\n      0x00\n      dup1\n      revert\n    tag_26:\n      pop\n      tag_27\n      0x04\n      dup1\n      calldatasize\n      sub\n      dup2\n      add\n      swap1\n      tag_28\n      swap2\n      swap1\n      tag_29\n      jump\t// in\n    tag_28:\n      tag_30\n      jump\t// in\n    tag_27:\n      mload(0x40)\n      tag_31\n      swap2\n      swap1\n      tag_32\n      jump\t// in\n    tag_31:\n      mload(0x40)\n      dup1\n      swap2\n      sub\n      swap1\n      return\n        /* \"contracts/AIOracleCallbackReceiver.sol\":262:297  IAIOracle public immutable aiOracle */\n    tag_5:\n      callvalue\n      dup1\n      iszero\n      tag_33\n      jumpi\n      0x00\n      dup1\n      revert\n    tag_33:\n      pop\n      tag_34\n      tag_35\n      jump\t// in\n    tag_34:\n      mload(0x40)\n      tag_36\n      swap2\n      swap1\n      tag_37\n      jump\t// in\n    tag_36:\n      mload(0x40)\n      dup1\n      swap2\n      sub\n      swap1\n      return\n        /* \"contracts/AIOracleCallbackReceiver.sol\":1331:1455  function isFinalized(uint256 requestId) external view returns (bool) {... */\n    tag_6:\n      callvalue\n      dup1\n      iszero\n      tag_38\n      jumpi\n      0x00\n      dup1\n      revert\n    tag_38:\n      pop\n      tag_39\n      0x04\n      dup1\n      calldatasize\n      sub\n      dup2\n      add\n      swap1\n      tag_40\n      swap2\n      swap1\n      tag_16\n      jump\t// in\n    tag_40:\n      tag_41\n      jump\t// in\n    tag_39:\n      mload(0x40)\n      tag_42\n      swap2\n      swap1\n      tag_43\n      jump\t// in\n    tag_42:\n      mload(0x40)\n      dup1\n      swap2\n      sub\n      swap1\n      return\n        /* \"contracts/Prompt.sol\":1160:1295  function setCallbackGasLimit(uint256 modelId, uint64 gasLimit) external onlyOwner {... */\n    tag_7:\n      callvalue\n      dup1\n      iszero\n      tag_44\n      jumpi\n      0x00\n      dup1\n      revert\n    tag_44:\n      pop\n      tag_45\n      0x04\n      dup1\n      calldatasize\n      sub\n      dup2\n      add\n      swap1\n      tag_46\n      swap2\n      swap1\n      tag_47\n      jump\t// in\n    tag_46:\n      tag_48\n      jump\t// in\n    tag_45:\n      stop\n        /* \"contracts/Prompt.sol\":822:873  mapping(uint256 => AIOracleRequest) public requests */\n    tag_8:\n      callvalue\n      dup1\n      iszero\n      tag_49\n      jumpi\n      0x00\n      dup1\n      revert\n    tag_49:\n      pop\n      tag_50\n      0x04\n      dup1\n      calldatasize\n      sub\n      dup2\n      add\n      swap1\n      tag_51\n      swap2\n      swap1\n      tag_16\n      jump\t// in\n    tag_51:\n      tag_52\n      jump\t// in\n    tag_50:\n      mload(0x40)\n      tag_53\n      swap5\n      swap4\n      swap3\n      swap2\n      swap1\n      tag_54\n      jump\t// in\n    tag_53:\n      mload(0x40)\n      dup1\n      swap2\n      sub\n      swap1\n      return\n        /* \"contracts/Prompt.sol\":1363:1423  mapping(uint256 => mapping(string => string)) public prompts */\n    tag_9:\n      callvalue\n      dup1\n      iszero\n      tag_55\n      jumpi\n      0x00\n      dup1\n      revert\n    tag_55:\n      pop\n      tag_56\n      0x04\n      dup1\n      calldatasize\n      sub\n      dup2\n      add\n      swap1\n      tag_57\n      swap2\n      swap1\n      tag_58\n      jump\t// in\n    tag_57:\n      tag_59\n      jump\t// in\n    tag_56:\n      mload(0x40)\n      tag_60\n      swap2\n      swap1\n      tag_32\n      jump\t// in\n    tag_60:\n      mload(0x40)\n      dup1\n      swap2\n      sub\n      swap1\n      return\n        /* \"contracts/Prompt.sol\":1656:2248  function aiOracleCallback(uint256 requestId, bytes calldata output, bytes calldata callbackData) external override onlyAIOracleCallback() {... */\n    tag_10:\n      callvalue\n      dup1\n      iszero\n      tag_61\n      jumpi\n      0x00\n      dup1\n      revert\n    tag_61:\n      pop\n      tag_62\n      0x04\n      dup1\n      calldatasize\n      sub\n      dup2\n      add\n      swap1\n      tag_63\n      swap2\n      swap1\n      tag_64\n      jump\t// in\n    tag_63:\n      tag_65\n      jump\t// in\n    tag_62:\n      stop\n        /* \"contracts/Prompt.sol\":2408:3010  function calculateAIResult(uint256 modelId, string calldata prompt) payable external {... */\n    tag_11:\n      tag_66\n      0x04\n      dup1\n      calldatasize\n      sub\n      dup2\n      add\n      swap1\n      tag_67\n      swap2\n      swap1\n      tag_29\n      jump\t// in\n    tag_67:\n      tag_68\n      jump\t// in\n    tag_66:\n      stop\n        /* \"contracts/Prompt.sol\":2254:2402  function estimateFee(uint256 modelId) public view returns (uint256) {... */\n    tag_17:\n        /* \"contracts/Prompt.sol\":2313:2320  uint256 */\n      0x00\n        /* \"contracts/Prompt.sol\":2339:2347  aiOracle */\n      immutable(\"0xe455bf8ea6e7463a1046a0b52804526e119b4bf5136279614e0b1e8e296a4e2d\")\n        /* \"contracts/Prompt.sol\":2339:2359  aiOracle.estimateFee */\n      0xffffffffffffffffffffffffffffffffffffffff\n      and\n      0xe1d8d0\n        /* \"contracts/Prompt.sol\":2360:2367  modelId */\n      dup4\n        /* \"contracts/Prompt.sol\":2369:2385  callbackGasLimit */\n      0x02\n        /* \"contracts/Prompt.sol\":2369:2394  callbackGasLimit[modelId] */\n      0x00\n        /* \"contracts/Prompt.sol\":2386:2393  modelId */\n      dup7\n        /* \"contracts/Prompt.sol\":2369:2394  callbackGasLimit[modelId] */\n      dup2\n      mstore\n      0x20\n      add\n      swap1\n      dup2\n      mstore\n      0x20\n      add\n      0x00\n      keccak256\n      0x00\n      swap1\n      sload\n      swap1\n      0x0100\n      exp\n      swap1\n      div\n      0xffffffffffffffff\n      and\n        /* \"contracts/Prompt.sol\":2339:2395  aiOracle.estimateFee(modelId, callbackGasLimit[modelId]) */\n      mload(0x40)\n      dup4\n      0xffffffff\n      and\n      0xe0\n      shl\n      dup2\n      mstore\n      0x04\n      add\n      tag_70\n      swap3\n      swap2\n      swap1\n      tag_71\n      jump\t// in\n    tag_70:\n      0x20\n      mload(0x40)\n      dup1\n      dup4\n      sub\n      dup2\n      dup7\n      gas\n      staticcall\n      iszero\n      dup1\n      iszero\n      tag_73\n      jumpi\n      returndatasize\n      0x00\n      dup1\n      returndatacopy\n      revert(0x00, returndatasize)\n    tag_73:\n      pop\n      pop\n      pop\n      pop\n      mload(0x40)\n      returndatasize\n      not(0x1f)\n      0x1f\n      dup3\n      add\n      and\n      dup3\n      add\n      dup1\n      0x40\n      mstore\n      pop\n      dup2\n      add\n      swap1\n      tag_74\n      swap2\n      swap1\n      tag_75\n      jump\t// in\n    tag_74:\n        /* \"contracts/Prompt.sol\":2332:2395  return aiOracle.estimateFee(modelId, callbackGasLimit[modelId]) */\n      swap1\n      pop\n        /* \"contracts/Prompt.sol\":2254:2402  function estimateFee(uint256 modelId) public view returns (uint256) {... */\n      swap2\n      swap1\n      pop\n      jump\t// out\n        /* \"contracts/Prompt.sol\":916:966  mapping(uint256 => uint64) public callbackGasLimit */\n    tag_23:\n      mstore(0x20, 0x02)\n      dup1\n      0x00\n      mstore\n      keccak256(0x00, 0x40)\n      0x00\n      swap2\n      pop\n      sload\n      swap1\n      0x0100\n      exp\n      swap1\n      div\n      0xffffffffffffffff\n      and\n      dup2\n      jump\t// out\n        /* \"contracts/Prompt.sol\":1430:1578  function getAIResult(uint256 modelId, string calldata prompt) external view returns (string memory) {... */\n    tag_30:\n        /* \"contracts/Prompt.sol\":1515:1528  string memory */\n      0x60\n        /* \"contracts/Prompt.sol\":1547:1554  prompts */\n      0x03\n        /* \"contracts/Prompt.sol\":1547:1563  prompts[modelId] */\n      0x00\n        /* \"contracts/Prompt.sol\":1555:1562  modelId */\n      dup6\n        /* \"contracts/Prompt.sol\":1547:1563  prompts[modelId] */\n      dup2\n      mstore\n      0x20\n      add\n      swap1\n      dup2\n      mstore\n      0x20\n      add\n      0x00\n      keccak256\n        /* \"contracts/Prompt.sol\":1564:1570  prompt */\n      dup4\n      dup4\n        /* \"contracts/Prompt.sol\":1547:1571  prompts[modelId][prompt] */\n      mload(0x40)\n      tag_77\n      swap3\n      swap2\n      swap1\n      tag_78\n      jump\t// in\n    tag_77:\n      swap1\n      dup2\n      mstore\n      0x20\n      add\n      mload(0x40)\n      dup1\n      swap2\n      sub\n      swap1\n      keccak256\n        /* \"contracts/Prompt.sol\":1540:1571  return prompts[modelId][prompt] */\n      dup1\n      sload\n      tag_79\n      swap1\n      tag_80\n      jump\t// in\n    tag_79:\n      dup1\n      0x1f\n      add\n      0x20\n      dup1\n      swap2\n      div\n      mul\n      0x20\n      add\n      mload(0x40)\n      swap1\n      dup2\n      add\n      0x40\n      mstore\n      dup1\n      swap3\n      swap2\n      swap1\n      dup2\n      dup2\n      mstore\n      0x20\n      add\n      dup3\n      dup1\n      sload\n      tag_81\n      swap1\n      tag_80\n      jump\t// in\n    tag_81:\n      dup1\n      iszero\n      tag_82\n      jumpi\n      dup1\n      0x1f\n      lt\n      tag_83\n      jumpi\n      0x0100\n      dup1\n      dup4\n      sload\n      div\n      mul\n      dup4\n      mstore\n      swap2\n      0x20\n      add\n      swap2\n      jump(tag_82)\n    tag_83:\n      dup3\n      add\n      swap2\n      swap1\n      0x00\n      mstore\n      keccak256(0x00, 0x20)\n      swap1\n    tag_84:\n      dup2\n      sload\n      dup2\n      mstore\n      swap1\n      0x01\n      add\n      swap1\n      0x20\n      add\n      dup1\n      dup4\n      gt\n      tag_84\n      jumpi\n      dup3\n      swap1\n      sub\n      0x1f\n      and\n      dup3\n      add\n      swap2\n    tag_82:\n      pop\n      pop\n      pop\n      pop\n      pop\n      swap1\n      pop\n        /* \"contracts/Prompt.sol\":1430:1578  function getAIResult(uint256 modelId, string calldata prompt) external view returns (string memory) {... */\n      swap4\n      swap3\n      pop\n      pop\n      pop\n      jump\t// out\n        /* \"contracts/AIOracleCallbackReceiver.sol\":262:297  IAIOracle public immutable aiOracle */\n    tag_35:\n      immutable(\"0xe455bf8ea6e7463a1046a0b52804526e119b4bf5136279614e0b1e8e296a4e2d\")\n      dup2\n      jump\t// out\n        /* \"contracts/AIOracleCallbackReceiver.sol\":1331:1455  function isFinalized(uint256 requestId) external view returns (bool) {... */\n    tag_41:\n        /* \"contracts/AIOracleCallbackReceiver.sol\":1394:1398  bool */\n      0x00\n        /* \"contracts/AIOracleCallbackReceiver.sol\":1417:1425  aiOracle */\n      immutable(\"0xe455bf8ea6e7463a1046a0b52804526e119b4bf5136279614e0b1e8e296a4e2d\")\n        /* \"contracts/AIOracleCallbackReceiver.sol\":1417:1437  aiOracle.isFinalized */\n      0xffffffffffffffffffffffffffffffffffffffff\n      and\n      0x33727c4d\n        /* \"contracts/AIOracleCallbackReceiver.sol\":1438:1447  requestId */\n      dup4\n        /* \"contracts/AIOracleCallbackReceiver.sol\":1417:1448  aiOracle.isFinalized(requestId) */\n      mload(0x40)\n      dup3\n      0xffffffff\n      and\n      0xe0\n      shl\n      dup2\n      mstore\n      0x04\n      add\n      tag_86\n      swap2\n      swap1\n      tag_19\n      jump\t// in\n    tag_86:\n      0x20\n      mload(0x40)\n      dup1\n      dup4\n      sub\n      dup2\n      dup7\n      gas\n      staticcall\n      iszero\n      dup1\n      iszero\n      tag_88\n      jumpi\n      returndatasize\n      0x00\n      dup1\n      returndatacopy\n      revert(0x00, returndatasize)\n    tag_88:\n      pop\n      pop\n      pop\n      pop\n      mload(0x40)\n      returndatasize\n      not(0x1f)\n      0x1f\n      dup3\n      add\n      and\n      dup3\n      add\n      dup1\n      0x40\n      mstore\n      pop\n      dup2\n      add\n      swap1\n      tag_89\n      swap2\n      swap1\n      tag_90\n      jump\t// in\n    tag_89:\n        /* \"contracts/AIOracleCallbackReceiver.sol\":1410:1448  return aiOracle.isFinalized(requestId) */\n      swap1\n      pop\n        /* \"contracts/AIOracleCallbackReceiver.sol\":1331:1455  function isFinalized(uint256 requestId) external view returns (bool) {... */\n      swap2\n      swap1\n      pop\n      jump\t// out\n        /* \"contracts/Prompt.sol\":1160:1295  function setCallbackGasLimit(uint256 modelId, uint64 gasLimit) external onlyOwner {... */\n    tag_48:\n        /* \"contracts/Prompt.sol\":742:747  owner */\n      0x00\n      dup1\n      sload\n      swap1\n      0x0100\n      exp\n      swap1\n      div\n      0xffffffffffffffffffffffffffffffffffffffff\n      and\n        /* \"contracts/Prompt.sol\":728:747  msg.sender == owner */\n      0xffffffffffffffffffffffffffffffffffffffff\n      and\n        /* \"contracts/Prompt.sol\":728:738  msg.sender */\n      caller\n        /* \"contracts/Prompt.sol\":728:747  msg.sender == owner */\n      0xffffffffffffffffffffffffffffffffffffffff\n      and\n      eq\n        /* \"contracts/Prompt.sol\":720:762  require(msg.sender == owner, \"Only owner\") */\n      tag_92\n      jumpi\n      mload(0x40)\n      0x08c379a000000000000000000000000000000000000000000000000000000000\n      dup2\n      mstore\n      0x04\n      add\n      tag_93\n      swap1\n      tag_94\n      jump\t// in\n    tag_93:\n      mload(0x40)\n      dup1\n      swap2\n      sub\n      swap1\n      revert\n    tag_92:\n        /* \"contracts/Prompt.sol\":1280:1288  gasLimit */\n      dup1\n        /* \"contracts/Prompt.sol\":1252:1268  callbackGasLimit */\n      0x02\n        /* \"contracts/Prompt.sol\":1252:1277  callbackGasLimit[modelId] */\n      0x00\n        /* \"contracts/Prompt.sol\":1269:1276  modelId */\n      dup5\n        /* \"contracts/Prompt.sol\":1252:1277  callbackGasLimit[modelId] */\n      dup2\n      mstore\n      0x20\n      add\n      swap1\n      dup2\n      mstore\n      0x20\n      add\n      0x00\n      keccak256\n      0x00\n        /* \"contracts/Prompt.sol\":1252:1288  callbackGasLimit[modelId] = gasLimit */\n      0x0100\n      exp\n      dup2\n      sload\n      dup2\n      0xffffffffffffffff\n      mul\n      not\n      and\n      swap1\n      dup4\n      0xffffffffffffffff\n      and\n      mul\n      or\n      swap1\n      sstore\n      pop\n        /* \"contracts/Prompt.sol\":1160:1295  function setCallbackGasLimit(uint256 modelId, uint64 gasLimit) external onlyOwner {... */\n      pop\n      pop\n      jump\t// out\n        /* \"contracts/Prompt.sol\":822:873  mapping(uint256 => AIOracleRequest) public requests */\n    tag_52:\n      mstore(0x20, 0x01)\n      dup1\n      0x00\n      mstore\n      keccak256(0x00, 0x40)\n      0x00\n      swap2\n      pop\n      swap1\n      pop\n      dup1\n      0x00\n      add\n      0x00\n      swap1\n      sload\n      swap1\n      0x0100\n      exp\n      swap1\n      div\n      0xffffffffffffffffffffffffffffffffffffffff\n      and\n      swap1\n      dup1\n      0x01\n      add\n      sload\n      swap1\n      dup1\n      0x02\n      add\n      dup1\n      sload\n      tag_96\n      swap1\n      tag_80\n      jump\t// in\n    tag_96:\n      dup1\n      0x1f\n      add\n      0x20\n      dup1\n      swap2\n      div\n      mul\n      0x20\n      add\n      mload(0x40)\n      swap1\n      dup2\n      add\n      0x40\n      mstore\n      dup1\n      swap3\n      swap2\n      swap1\n      dup2\n      dup2\n      mstore\n      0x20\n      add\n      dup3\n      dup1\n      sload\n      tag_97\n      swap1\n      tag_80\n      jump\t// in\n    tag_97:\n      dup1\n      iszero\n      tag_98\n      jumpi\n      dup1\n      0x1f\n      lt\n      tag_99\n      jumpi\n      0x0100\n      dup1\n      dup4\n      sload\n      div\n      mul\n      dup4\n      mstore\n      swap2\n      0x20\n      add\n      swap2\n      jump(tag_98)\n    tag_99:\n      dup3\n      add\n      swap2\n      swap1\n      0x00\n      mstore\n      keccak256(0x00, 0x20)\n      swap1\n    tag_100:\n      dup2\n      sload\n      dup2\n      mstore\n      swap1\n      0x01\n      add\n      swap1\n      0x20\n      add\n      dup1\n      dup4\n      gt\n      tag_100\n      jumpi\n      dup3\n      swap1\n      sub\n      0x1f\n      and\n      dup3\n      add\n      swap2\n    tag_98:\n      pop\n      pop\n      pop\n      pop\n      pop\n      swap1\n      dup1\n      0x03\n      add\n      dup1\n      sload\n      tag_101\n      swap1\n      tag_80\n      jump\t// in\n    tag_101:\n      dup1\n      0x1f\n      add\n      0x20\n      dup1\n      swap2\n      div\n      mul\n      0x20\n      add\n      mload(0x40)\n      swap1\n      dup2\n      add\n      0x40\n      mstore\n      dup1\n      swap3\n      swap2\n      swap1\n      dup2\n      dup2\n      mstore\n      0x20\n      add\n      dup3\n      dup1\n      sload\n      tag_102\n      swap1\n      tag_80\n      jump\t// in\n    tag_102:\n      dup1\n      iszero\n      tag_103\n      jumpi\n      dup1\n      0x1f\n      lt\n      tag_104\n      jumpi\n      0x0100\n      dup1\n      dup4\n      sload\n      div\n      mul\n      dup4\n      mstore\n      swap2\n      0x20\n      add\n      swap2\n      jump(tag_103)\n    tag_104:\n      dup3\n      add\n      swap2\n      swap1\n      0x00\n      mstore\n      keccak256(0x00, 0x20)\n      swap1\n    tag_105:\n      dup2\n      sload\n      dup2\n      mstore\n      swap1\n      0x01\n      add\n      swap1\n      0x20\n      add\n      dup1\n      dup4\n      gt\n      tag_105\n      jumpi\n      dup3\n      swap1\n      sub\n      0x1f\n      and\n      dup3\n      add\n      swap2\n    tag_103:\n      pop\n      pop\n      pop\n      pop\n      pop\n      swap1\n      pop\n      dup5\n      jump\t// out\n        /* \"contracts/Prompt.sol\":1363:1423  mapping(uint256 => mapping(string => string)) public prompts */\n    tag_59:\n      mstore(0x20, 0x03)\n      dup2\n      0x00\n      mstore\n      keccak256(0x00, 0x40)\n      dup2\n      dup1\n      mload\n      0x20\n      dup2\n      add\n      dup3\n      add\n      dup1\n      mload\n      dup5\n      dup3\n      mstore\n      0x20\n      dup4\n      add\n      0x20\n      dup6\n      add\n      keccak256\n      dup2\n      dup4\n      mstore\n      dup1\n      swap6\n      pop\n      pop\n      pop\n      pop\n      pop\n      pop\n      0x00\n      swap2\n      pop\n      swap2\n      pop\n      pop\n      dup1\n      sload\n      tag_106\n      swap1\n      tag_80\n      jump\t// in\n    tag_106:\n      dup1\n      0x1f\n      add\n      0x20\n      dup1\n      swap2\n      div\n      mul\n      0x20\n      add\n      mload(0x40)\n      swap1\n      dup2\n      add\n      0x40\n      mstore\n      dup1\n      swap3\n      swap2\n      swap1\n      dup2\n      dup2\n      mstore\n      0x20\n      add\n      dup3\n      dup1\n      sload\n      tag_107\n      swap1\n      tag_80\n      jump\t// in\n    tag_107:\n      dup1\n      iszero\n      tag_108\n      jumpi\n      dup1\n      0x1f\n      lt\n      tag_109\n      jumpi\n      0x0100\n      dup1\n      dup4\n      sload\n      div\n      mul\n      dup4\n      mstore\n      swap2\n      0x20\n      add\n      swap2\n      jump(tag_108)\n    tag_109:\n      dup3\n      add\n      swap2\n      swap1\n      0x00\n      mstore\n      keccak256(0x00, 0x20)\n      swap1\n    tag_110:\n      dup2\n      sload\n      dup2\n      mstore\n      swap1\n      0x01\n      add\n      swap1\n      0x20\n      add\n      dup1\n      dup4\n      gt\n      tag_110\n      jumpi\n      dup3\n      swap1\n      sub\n      0x1f\n      and\n      dup3\n      add\n      swap2\n    tag_108:\n      pop\n      pop\n      pop\n      pop\n      pop\n      dup2\n      jump\t// out\n        /* \"contracts/Prompt.sol\":1656:2248  function aiOracleCallback(uint256 requestId, bytes calldata output, bytes calldata callbackData) external override onlyAIOracleCallback() {... */\n    tag_65:\n        /* \"contracts/AIOracleCallbackReceiver.sol\":688:715  IAIOracle foundRelayAddress */\n      0x00\n        /* \"contracts/AIOracleCallbackReceiver.sol\":728:738  msg.sender */\n      caller\n        /* \"contracts/AIOracleCallbackReceiver.sol\":688:739  IAIOracle foundRelayAddress = IAIOracle(msg.sender) */\n      swap1\n      pop\n        /* \"contracts/AIOracleCallbackReceiver.sol\":774:782  aiOracle */\n      immutable(\"0xe455bf8ea6e7463a1046a0b52804526e119b4bf5136279614e0b1e8e296a4e2d\")\n        /* \"contracts/AIOracleCallbackReceiver.sol\":753:782  foundRelayAddress != aiOracle */\n      0xffffffffffffffffffffffffffffffffffffffff\n      and\n        /* \"contracts/AIOracleCallbackReceiver.sol\":753:770  foundRelayAddress */\n      dup2\n        /* \"contracts/AIOracleCallbackReceiver.sol\":753:782  foundRelayAddress != aiOracle */\n      0xffffffffffffffffffffffffffffffffffffffff\n      and\n      eq\n        /* \"contracts/AIOracleCallbackReceiver.sol\":749:871  if (foundRelayAddress != aiOracle) {... */\n      tag_112\n      jumpi\n        /* \"contracts/AIOracleCallbackReceiver.sol\":832:840  aiOracle */\n      immutable(\"0xe455bf8ea6e7463a1046a0b52804526e119b4bf5136279614e0b1e8e296a4e2d\")\n        /* \"contracts/AIOracleCallbackReceiver.sol\":842:859  foundRelayAddress */\n      dup2\n        /* \"contracts/AIOracleCallbackReceiver.sol\":805:860  UnauthorizedCallbackSource(aiOracle, foundRelayAddress) */\n      mload(0x40)\n      0x865c066e00000000000000000000000000000000000000000000000000000000\n      dup2\n      mstore\n      0x04\n      add\n      tag_113\n      swap3\n      swap2\n      swap1\n      tag_114\n      jump\t// in\n    tag_113:\n      mload(0x40)\n      dup1\n      swap2\n      sub\n      swap1\n      revert\n        /* \"contracts/AIOracleCallbackReceiver.sol\":749:871  if (foundRelayAddress != aiOracle) {... */\n    tag_112:\n        /* \"contracts/Prompt.sol\":1902:1933  AIOracleRequest storage request */\n      0x00\n        /* \"contracts/Prompt.sol\":1936:1944  requests */\n      0x01\n        /* \"contracts/Prompt.sol\":1936:1955  requests[requestId] */\n      0x00\n        /* \"contracts/Prompt.sol\":1945:1954  requestId */\n      dup9\n        /* \"contracts/Prompt.sol\":1936:1955  requests[requestId] */\n      dup2\n      mstore\n      0x20\n      add\n      swap1\n      dup2\n      mstore\n      0x20\n      add\n      0x00\n      keccak256\n        /* \"contracts/Prompt.sol\":1902:1955  AIOracleRequest storage request = requests[requestId] */\n      swap1\n      pop\n        /* \"contracts/Prompt.sol\":1999:2000  0 */\n      0x00\n        /* \"contracts/Prompt.sol\":1973:2001  request.sender != address(0) */\n      0xffffffffffffffffffffffffffffffffffffffff\n      and\n        /* \"contracts/Prompt.sol\":1973:1980  request */\n      dup2\n        /* \"contracts/Prompt.sol\":1973:1987  request.sender */\n      0x00\n      add\n      0x00\n      swap1\n      sload\n      swap1\n      0x0100\n      exp\n      swap1\n      div\n      0xffffffffffffffffffffffffffffffffffffffff\n      and\n        /* \"contracts/Prompt.sol\":1973:2001  request.sender != address(0) */\n      0xffffffffffffffffffffffffffffffffffffffff\n      and\n      sub\n        /* \"contracts/Prompt.sol\":1965:2024  require(request.sender != address(0), \"request not exists\") */\n      tag_116\n      jumpi\n      mload(0x40)\n      0x08c379a000000000000000000000000000000000000000000000000000000000\n      dup2\n      mstore\n      0x04\n      add\n      tag_117\n      swap1\n      tag_118\n      jump\t// in\n    tag_117:\n      mload(0x40)\n      dup1\n      swap2\n      sub\n      swap1\n      revert\n    tag_116:\n        /* \"contracts/Prompt.sol\":2051:2057  output */\n      dup6\n      dup6\n        /* \"contracts/Prompt.sol\":2034:2041  request */\n      dup3\n        /* \"contracts/Prompt.sol\":2034:2048  request.output */\n      0x03\n      add\n        /* \"contracts/Prompt.sol\":2034:2057  request.output = output */\n      swap2\n      dup3\n      tag_119\n      swap3\n      swap2\n      swap1\n      tag_120\n      jump\t// in\n    tag_119:\n      pop\n        /* \"contracts/Prompt.sol\":2124:2130  output */\n      dup6\n      dup6\n        /* \"contracts/Prompt.sol\":2067:2074  prompts */\n      0x03\n        /* \"contracts/Prompt.sol\":2067:2091  prompts[request.modelId] */\n      0x00\n        /* \"contracts/Prompt.sol\":2075:2082  request */\n      dup5\n        /* \"contracts/Prompt.sol\":2075:2090  request.modelId */\n      0x01\n      add\n      sload\n        /* \"contracts/Prompt.sol\":2067:2091  prompts[request.modelId] */\n      dup2\n      mstore\n      0x20\n      add\n      swap1\n      dup2\n      mstore\n      0x20\n      add\n      0x00\n      keccak256\n        /* \"contracts/Prompt.sol\":2099:2106  request */\n      dup4\n        /* \"contracts/Prompt.sol\":2099:2112  request.input */\n      0x02\n      add\n        /* \"contracts/Prompt.sol\":2067:2114  prompts[request.modelId][string(request.input)] */\n      mload(0x40)\n      tag_121\n      swap2\n      swap1\n      tag_122\n      jump\t// in\n    tag_121:\n      swap1\n      dup2\n      mstore\n      0x20\n      add\n      mload(0x40)\n      dup1\n      swap2\n      sub\n      swap1\n      keccak256\n        /* \"contracts/Prompt.sol\":2067:2131  prompts[request.modelId][string(request.input)] = string(output) */\n      swap2\n      dup3\n      tag_123\n      swap3\n      swap2\n      swap1\n      tag_124\n      jump\t// in\n    tag_123:\n      pop\n        /* \"contracts/Prompt.sol\":2146:2241  promptsUpdated(requestId, request.modelId, string(request.input), string(output), callbackData) */\n      0xaf2b2381ddcb18a2b18a7826186fd216acdd9c852a8c7a9a49e7eab127f96ccf\n        /* \"contracts/Prompt.sol\":2161:2170  requestId */\n      dup8\n        /* \"contracts/Prompt.sol\":2172:2179  request */\n      dup3\n        /* \"contracts/Prompt.sol\":2172:2187  request.modelId */\n      0x01\n      add\n      sload\n        /* \"contracts/Prompt.sol\":2196:2203  request */\n      dup4\n        /* \"contracts/Prompt.sol\":2196:2209  request.input */\n      0x02\n      add\n        /* \"contracts/Prompt.sol\":2219:2225  output */\n      dup10\n      dup10\n        /* \"contracts/Prompt.sol\":2228:2240  callbackData */\n      dup10\n      dup10\n        /* \"contracts/Prompt.sol\":2146:2241  promptsUpdated(requestId, request.modelId, string(request.input), string(output), callbackData) */\n      mload(0x40)\n      tag_125\n      swap8\n      swap7\n      swap6\n      swap5\n      swap4\n      swap3\n      swap2\n      swap1\n      tag_126\n      jump\t// in\n    tag_125:\n      mload(0x40)\n      dup1\n      swap2\n      sub\n      swap1\n      log1\n        /* \"contracts/Prompt.sol\":1794:2248  {... */\n      pop\n        /* \"contracts/AIOracleCallbackReceiver.sol\":678:888  {... */\n      pop\n        /* \"contracts/Prompt.sol\":1656:2248  function aiOracleCallback(uint256 requestId, bytes calldata output, bytes calldata callbackData) external override onlyAIOracleCallback() {... */\n      pop\n      pop\n      pop\n      pop\n      pop\n      jump\t// out\n        /* \"contracts/Prompt.sol\":2408:3010  function calculateAIResult(uint256 modelId, string calldata prompt) payable external {... */\n    tag_68:\n        /* \"contracts/Prompt.sol\":2503:2521  bytes memory input */\n      0x00\n        /* \"contracts/Prompt.sol\":2530:2536  prompt */\n      dup3\n      dup3\n        /* \"contracts/Prompt.sol\":2503:2537  bytes memory input = bytes(prompt) */\n      dup1\n      dup1\n      0x1f\n      add\n      0x20\n      dup1\n      swap2\n      div\n      mul\n      0x20\n      add\n      mload(0x40)\n      swap1\n      dup2\n      add\n      0x40\n      mstore\n      dup1\n      swap4\n      swap3\n      swap2\n      swap1\n      dup2\n      dup2\n      mstore\n      0x20\n      add\n      dup4\n      dup4\n      dup1\n      dup3\n      dup5\n      calldatacopy\n      0x00\n      dup2\n      dup5\n      add\n      mstore\n      not(0x1f)\n      0x1f\n      dup3\n      add\n      and\n      swap1\n      pop\n      dup1\n      dup4\n      add\n      swap3\n      pop\n      pop\n      pop\n      pop\n      pop\n      pop\n      pop\n      swap1\n      pop\n        /* \"contracts/Prompt.sol\":2613:2630  uint256 requestId */\n      0x00\n        /* \"contracts/Prompt.sol\":2633:2641  aiOracle */\n      immutable(\"0xe455bf8ea6e7463a1046a0b52804526e119b4bf5136279614e0b1e8e296a4e2d\")\n        /* \"contracts/Prompt.sol\":2633:2657  aiOracle.requestCallback */\n      0xffffffffffffffffffffffffffffffffffffffff\n      and\n      0x5b953806\n        /* \"contracts/Prompt.sol\":2665:2674  msg.value */\n      callvalue\n        /* \"contracts/Prompt.sol\":2689:2696  modelId */\n      dup8\n        /* \"contracts/Prompt.sol\":2698:2703  input */\n      dup6\n        /* \"contracts/Prompt.sol\":2713:2717  this */\n      address\n        /* \"contracts/Prompt.sol\":2720:2736  callbackGasLimit */\n      0x02\n        /* \"contracts/Prompt.sol\":2720:2745  callbackGasLimit[modelId] */\n      0x00\n        /* \"contracts/Prompt.sol\":2737:2744  modelId */\n      dup13\n        /* \"contracts/Prompt.sol\":2720:2745  callbackGasLimit[modelId] */\n      dup2\n      mstore\n      0x20\n      add\n      swap1\n      dup2\n      mstore\n      0x20\n      add\n      0x00\n      keccak256\n      0x00\n      swap1\n      sload\n      swap1\n      0x0100\n      exp\n      swap1\n      div\n      0xffffffffffffffff\n      and\n        /* \"contracts/Prompt.sol\":2633:2759  aiOracle.requestCallback{value: msg.value}(... */\n      mload(0x40)\n      dup7\n      0xffffffff\n      and\n      0xe0\n      shl\n      dup2\n      mstore\n      0x04\n      add\n      tag_128\n      swap5\n      swap4\n      swap3\n      swap2\n      swap1\n      tag_129\n      jump\t// in\n    tag_128:\n      0x20\n      mload(0x40)\n      dup1\n      dup4\n      sub\n      dup2\n      dup6\n      dup9\n      gas\n      call\n      iszero\n      dup1\n      iszero\n      tag_131\n      jumpi\n      returndatasize\n      0x00\n      dup1\n      returndatacopy\n      revert(0x00, returndatasize)\n    tag_131:\n      pop\n      pop\n      pop\n      pop\n      pop\n      mload(0x40)\n      returndatasize\n      not(0x1f)\n      0x1f\n      dup3\n      add\n      and\n      dup3\n      add\n      dup1\n      0x40\n      mstore\n      pop\n      dup2\n      add\n      swap1\n      tag_132\n      swap2\n      swap1\n      tag_75\n      jump\t// in\n    tag_132:\n        /* \"contracts/Prompt.sol\":2613:2759  uint256 requestId = aiOracle.requestCallback{value: msg.value}(... */\n      swap1\n      pop\n        /* \"contracts/Prompt.sol\":2779:2810  AIOracleRequest storage request */\n      0x00\n        /* \"contracts/Prompt.sol\":2813:2821  requests */\n      0x01\n        /* \"contracts/Prompt.sol\":2813:2832  requests[requestId] */\n      0x00\n        /* \"contracts/Prompt.sol\":2822:2831  requestId */\n      dup4\n        /* \"contracts/Prompt.sol\":2813:2832  requests[requestId] */\n      dup2\n      mstore\n      0x20\n      add\n      swap1\n      dup2\n      mstore\n      0x20\n      add\n      0x00\n      keccak256\n        /* \"contracts/Prompt.sol\":2779:2832  AIOracleRequest storage request = requests[requestId] */\n      swap1\n      pop\n        /* \"contracts/Prompt.sol\":2858:2863  input */\n      dup3\n        /* \"contracts/Prompt.sol\":2842:2849  request */\n      dup2\n        /* \"contracts/Prompt.sol\":2842:2855  request.input */\n      0x02\n      add\n        /* \"contracts/Prompt.sol\":2842:2863  request.input = input */\n      swap1\n      dup2\n      tag_133\n      swap2\n      swap1\n      tag_134\n      jump\t// in\n    tag_133:\n      pop\n        /* \"contracts/Prompt.sol\":2890:2900  msg.sender */\n      caller\n        /* \"contracts/Prompt.sol\":2873:2880  request */\n      dup2\n        /* \"contracts/Prompt.sol\":2873:2887  request.sender */\n      0x00\n      add\n      0x00\n        /* \"contracts/Prompt.sol\":2873:2900  request.sender = msg.sender */\n      0x0100\n      exp\n      dup2\n      sload\n      dup2\n      0xffffffffffffffffffffffffffffffffffffffff\n      mul\n      not\n      and\n      swap1\n      dup4\n      0xffffffffffffffffffffffffffffffffffffffff\n      and\n      mul\n      or\n      swap1\n      sstore\n      pop\n        /* \"contracts/Prompt.sol\":2928:2935  modelId */\n      dup6\n        /* \"contracts/Prompt.sol\":2910:2917  request */\n      dup2\n        /* \"contracts/Prompt.sol\":2910:2925  request.modelId */\n      0x01\n      add\n        /* \"contracts/Prompt.sol\":2910:2935  request.modelId = modelId */\n      dup2\n      swap1\n      sstore\n      pop\n        /* \"contracts/Prompt.sol\":2950:3003  promptRequest(requestId, msg.sender, modelId, prompt) */\n      0xa0faead83d70148ae18b694377f9bef079251342ab90e14af0f9ef68b891269f\n        /* \"contracts/Prompt.sol\":2964:2973  requestId */\n      dup3\n        /* \"contracts/Prompt.sol\":2975:2985  msg.sender */\n      caller\n        /* \"contracts/Prompt.sol\":2987:2994  modelId */\n      dup9\n        /* \"contracts/Prompt.sol\":2996:3002  prompt */\n      dup9\n      dup9\n        /* \"contracts/Prompt.sol\":2950:3003  promptRequest(requestId, msg.sender, modelId, prompt) */\n      mload(0x40)\n      tag_135\n      swap6\n      swap5\n      swap4\n      swap3\n      swap2\n      swap1\n      tag_136\n      jump\t// in\n    tag_135:\n      mload(0x40)\n      dup1\n      swap2\n      sub\n      swap1\n      log1\n        /* \"contracts/Prompt.sol\":2493:3010  {... */\n      pop\n      pop\n      pop\n        /* \"contracts/Prompt.sol\":2408:3010  function calculateAIResult(uint256 modelId, string calldata prompt) payable external {... */\n      pop\n      pop\n      pop\n      jump\t// out\n        /* \"#utility.yul\":7:82   */\n    tag_137:\n        /* \"#utility.yul\":40:46   */\n      0x00\n        /* \"#utility.yul\":73:75   */\n      0x40\n        /* \"#utility.yul\":67:76   */\n      mload\n        /* \"#utility.yul\":57:76   */\n      swap1\n      pop\n        /* \"#utility.yul\":7:82   */\n      swap1\n      jump\t// out\n        /* \"#utility.yul\":88:205   */\n    tag_138:\n        /* \"#utility.yul\":197:198   */\n      0x00\n        /* \"#utility.yul\":194:195   */\n      dup1\n        /* \"#utility.yul\":187:199   */\n      revert\n        /* \"#utility.yul\":211:328   */\n    tag_139:\n        /* \"#utility.yul\":320:321   */\n      0x00\n        /* \"#utility.yul\":317:318   */\n      dup1\n        /* \"#utility.yul\":310:322   */\n      revert\n        /* \"#utility.yul\":334:411   */\n    tag_140:\n        /* \"#utility.yul\":371:378   */\n      0x00\n        /* \"#utility.yul\":400:405   */\n      dup2\n        /* \"#utility.yul\":389:405   */\n      swap1\n      pop\n        /* \"#utility.yul\":334:411   */\n      swap2\n      swap1\n      pop\n      jump\t// out\n        /* \"#utility.yul\":417:539   */\n    tag_141:\n        /* \"#utility.yul\":490:514   */\n      tag_222\n        /* \"#utility.yul\":508:513   */\n      dup2\n        /* \"#utility.yul\":490:514   */\n      tag_140\n      jump\t// in\n    tag_222:\n        /* \"#utility.yul\":483:488   */\n      dup2\n        /* \"#utility.yul\":480:515   */\n      eq\n        /* \"#utility.yul\":470:533   */\n      tag_223\n      jumpi\n        /* \"#utility.yul\":529:530   */\n      0x00\n        /* \"#utility.yul\":526:527   */\n      dup1\n        /* \"#utility.yul\":519:531   */\n      revert\n        /* \"#utility.yul\":470:533   */\n    tag_223:\n        /* \"#utility.yul\":417:539   */\n      pop\n      jump\t// out\n        /* \"#utility.yul\":545:684   */\n    tag_142:\n        /* \"#utility.yul\":591:596   */\n      0x00\n        /* \"#utility.yul\":629:635   */\n      dup2\n        /* \"#utility.yul\":616:636   */\n      calldataload\n        /* \"#utility.yul\":607:636   */\n      swap1\n      pop\n        /* \"#utility.yul\":645:678   */\n      tag_225\n        /* \"#utility.yul\":672:677   */\n      dup2\n        /* \"#utility.yul\":645:678   */\n      tag_141\n      jump\t// in\n    tag_225:\n        /* \"#utility.yul\":545:684   */\n      swap3\n      swap2\n      pop\n      pop\n      jump\t// out\n        /* \"#utility.yul\":690:1019   */\n    tag_16:\n        /* \"#utility.yul\":749:755   */\n      0x00\n        /* \"#utility.yul\":798:800   */\n      0x20\n        /* \"#utility.yul\":786:795   */\n      dup3\n        /* \"#utility.yul\":777:784   */\n      dup5\n        /* \"#utility.yul\":773:796   */\n      sub\n        /* \"#utility.yul\":769:801   */\n      slt\n        /* \"#utility.yul\":766:885   */\n      iszero\n      tag_227\n      jumpi\n        /* \"#utility.yul\":804:883   */\n      tag_228\n      tag_138\n      jump\t// in\n    tag_228:\n        /* \"#utility.yul\":766:885   */\n    tag_227:\n        /* \"#utility.yul\":924:925   */\n      0x00\n        /* \"#utility.yul\":949:1002   */\n      tag_229\n        /* \"#utility.yul\":994:1001   */\n      dup5\n        /* \"#utility.yul\":985:991   */\n      dup3\n        /* \"#utility.yul\":974:983   */\n      dup6\n        /* \"#utility.yul\":970:992   */\n      add\n        /* \"#utility.yul\":949:1002   */\n      tag_142\n      jump\t// in\n    tag_229:\n        /* \"#utility.yul\":939:1002   */\n      swap2\n      pop\n        /* \"#utility.yul\":895:1012   */\n      pop\n        /* \"#utility.yul\":690:1019   */\n      swap3\n      swap2\n      pop\n      pop\n      jump\t// out\n        /* \"#utility.yul\":1025:1143   */\n    tag_143:\n        /* \"#utility.yul\":1112:1136   */\n      tag_231\n        /* \"#utility.yul\":1130:1135   */\n      dup2\n        /* \"#utility.yul\":1112:1136   */\n      tag_140\n      jump\t// in\n    tag_231:\n        /* \"#utility.yul\":1107:1110   */\n      dup3\n        /* \"#utility.yul\":1100:1137   */\n      mstore\n        /* \"#utility.yul\":1025:1143   */\n      pop\n      pop\n      jump\t// out\n        /* \"#utility.yul\":1149:1371   */\n    tag_19:\n        /* \"#utility.yul\":1242:1246   */\n      0x00\n        /* \"#utility.yul\":1280:1282   */\n      0x20\n        /* \"#utility.yul\":1269:1278   */\n      dup3\n        /* \"#utility.yul\":1265:1283   */\n      add\n        /* \"#utility.yul\":1257:1283   */\n      swap1\n      pop\n        /* \"#utility.yul\":1293:1364   */\n      tag_233\n        /* \"#utility.yul\":1361:1362   */\n      0x00\n        /* \"#utility.yul\":1350:1359   */\n      dup4\n        /* \"#utility.yul\":1346:1363   */\n      add\n        /* \"#utility.yul\":1337:1343   */\n      dup5\n        /* \"#utility.yul\":1293:1364   */\n      tag_143\n      jump\t// in\n    tag_233:\n        /* \"#utility.yul\":1149:1371   */\n      swap3\n      swap2\n      pop\n      pop\n      jump\t// out\n        /* \"#utility.yul\":1377:1478   */\n    tag_144:\n        /* \"#utility.yul\":1413:1420   */\n      0x00\n        /* \"#utility.yul\":1453:1471   */\n      0xffffffffffffffff\n        /* \"#utility.yul\":1446:1451   */\n      dup3\n        /* \"#utility.yul\":1442:1472   */\n      and\n        /* \"#utility.yul\":1431:1472   */\n      swap1\n      pop\n        /* \"#utility.yul\":1377:1478   */\n      swap2\n      swap1\n      pop\n      jump\t// out\n        /* \"#utility.yul\":1484:1599   */\n    tag_145:\n        /* \"#utility.yul\":1569:1592   */\n      tag_236\n        /* \"#utility.yul\":1586:1591   */\n      dup2\n        /* \"#utility.yul\":1569:1592   */\n      tag_144\n      jump\t// in\n    tag_236:\n        /* \"#utility.yul\":1564:1567   */\n      dup3\n        /* \"#utility.yul\":1557:1593   */\n      mstore\n        /* \"#utility.yul\":1484:1599   */\n      pop\n      pop\n      jump\t// out\n        /* \"#utility.yul\":1605:1823   */\n    tag_25:\n        /* \"#utility.yul\":1696:1700   */\n      0x00\n        /* \"#utility.yul\":1734:1736   */\n      0x20\n        /* \"#utility.yul\":1723:1732   */\n      dup3\n        /* \"#utility.yul\":1719:1737   */\n      add\n        /* \"#utility.yul\":1711:1737   */\n      swap1\n      pop\n        /* \"#utility.yul\":1747:1816   */\n      tag_238\n        /* \"#utility.yul\":1813:1814   */\n      0x00\n        /* \"#utility.yul\":1802:1811   */\n      dup4\n        /* \"#utility.yul\":1798:1815   */\n      add\n        /* \"#utility.yul\":1789:1795   */\n      dup5\n        /* \"#utility.yul\":1747:1816   */\n      tag_145\n      jump\t// in\n    tag_238:\n        /* \"#utility.yul\":1605:1823   */\n      swap3\n      swap2\n      pop\n      pop\n      jump\t// out\n        /* \"#utility.yul\":1829:1946   */\n    tag_146:\n        /* \"#utility.yul\":1938:1939   */\n      0x00\n        /* \"#utility.yul\":1935:1936   */\n      dup1\n        /* \"#utility.yul\":1928:1940   */\n      revert\n        /* \"#utility.yul\":1952:2069   */\n    tag_147:\n        /* \"#utility.yul\":2061:2062   */\n      0x00\n        /* \"#utility.yul\":2058:2059   */\n      dup1\n        /* \"#utility.yul\":2051:2063   */\n      revert\n        /* \"#utility.yul\":2075:2192   */\n    tag_148:\n        /* \"#utility.yul\":2184:2185   */\n      0x00\n        /* \"#utility.yul\":2181:2182   */\n      dup1\n        /* \"#utility.yul\":2174:2186   */\n      revert\n        /* \"#utility.yul\":2212:2765   */\n    tag_149:\n        /* \"#utility.yul\":2270:2278   */\n      0x00\n        /* \"#utility.yul\":2280:2286   */\n      dup1\n        /* \"#utility.yul\":2330:2333   */\n      dup4\n        /* \"#utility.yul\":2323:2327   */\n      0x1f\n        /* \"#utility.yul\":2315:2321   */\n      dup5\n        /* \"#utility.yul\":2311:2328   */\n      add\n        /* \"#utility.yul\":2307:2334   */\n      slt\n        /* \"#utility.yul\":2297:2419   */\n      tag_243\n      jumpi\n        /* \"#utility.yul\":2338:2417   */\n      tag_244\n      tag_146\n      jump\t// in\n    tag_244:\n        /* \"#utility.yul\":2297:2419   */\n    tag_243:\n        /* \"#utility.yul\":2451:2457   */\n      dup3\n        /* \"#utility.yul\":2438:2458   */\n      calldataload\n        /* \"#utility.yul\":2428:2458   */\n      swap1\n      pop\n        /* \"#utility.yul\":2481:2499   */\n      0xffffffffffffffff\n        /* \"#utility.yul\":2473:2479   */\n      dup2\n        /* \"#utility.yul\":2470:2500   */\n      gt\n        /* \"#utility.yul\":2467:2584   */\n      iszero\n      tag_245\n      jumpi\n        /* \"#utility.yul\":2503:2582   */\n      tag_246\n      tag_147\n      jump\t// in\n    tag_246:\n        /* \"#utility.yul\":2467:2584   */\n    tag_245:\n        /* \"#utility.yul\":2617:2621   */\n      0x20\n        /* \"#utility.yul\":2609:2615   */\n      dup4\n        /* \"#utility.yul\":2605:2622   */\n      add\n        /* \"#utility.yul\":2593:2622   */\n      swap2\n      pop\n        /* \"#utility.yul\":2671:2674   */\n      dup4\n        /* \"#utility.yul\":2663:2667   */\n      0x01\n        /* \"#utility.yul\":2655:2661   */\n      dup3\n        /* \"#utility.yul\":2651:2668   */\n      mul\n        /* \"#utility.yul\":2641:2649   */\n      dup4\n        /* \"#utility.yul\":2637:2669   */\n      add\n        /* \"#utility.yul\":2634:2675   */\n      gt\n        /* \"#utility.yul\":2631:2759   */\n      iszero\n      tag_247\n      jumpi\n        /* \"#utility.yul\":2678:2757   */\n      tag_248\n      tag_148\n      jump\t// in\n    tag_248:\n        /* \"#utility.yul\":2631:2759   */\n    tag_247:\n        /* \"#utility.yul\":2212:2765   */\n      swap3\n      pop\n      swap3\n      swap1\n      pop\n      jump\t// out\n        /* \"#utility.yul\":2771:3445   */\n    tag_29:\n        /* \"#utility.yul\":2851:2857   */\n      0x00\n        /* \"#utility.yul\":2859:2865   */\n      dup1\n        /* \"#utility.yul\":2867:2873   */\n      0x00\n        /* \"#utility.yul\":2916:2918   */\n      0x40\n        /* \"#utility.yul\":2904:2913   */\n      dup5\n        /* \"#utility.yul\":2895:2902   */\n      dup7\n        /* \"#utility.yul\":2891:2914   */\n      sub\n        /* \"#utility.yul\":2887:2919   */\n      slt\n        /* \"#utility.yul\":2884:3003   */\n      iszero\n      tag_250\n      jumpi\n        /* \"#utility.yul\":2922:3001   */\n      tag_251\n      tag_138\n      jump\t// in\n    tag_251:\n        /* \"#utility.yul\":2884:3003   */\n    tag_250:\n        /* \"#utility.yul\":3042:3043   */\n      0x00\n        /* \"#utility.yul\":3067:3120   */\n      tag_252\n        /* \"#utility.yul\":3112:3119   */\n      dup7\n        /* \"#utility.yul\":3103:3109   */\n      dup3\n        /* \"#utility.yul\":3092:3101   */\n      dup8\n        /* \"#utility.yul\":3088:3110   */\n      add\n        /* \"#utility.yul\":3067:3120   */\n      tag_142\n      jump\t// in\n    tag_252:\n        /* \"#utility.yul\":3057:3120   */\n      swap4\n      pop\n        /* \"#utility.yul\":3013:3130   */\n      pop\n        /* \"#utility.yul\":3197:3199   */\n      0x20\n        /* \"#utility.yul\":3186:3195   */\n      dup5\n        /* \"#utility.yul\":3182:3200   */\n      add\n        /* \"#utility.yul\":3169:3201   */\n      calldataload\n        /* \"#utility.yul\":3228:3246   */\n      0xffffffffffffffff\n        /* \"#utility.yul\":3220:3226   */\n      dup2\n        /* \"#utility.yul\":3217:3247   */\n      gt\n        /* \"#utility.yul\":3214:3331   */\n      iszero\n      tag_253\n      jumpi\n        /* \"#utility.yul\":3250:3329   */\n      tag_254\n      tag_139\n      jump\t// in\n    tag_254:\n        /* \"#utility.yul\":3214:3331   */\n    tag_253:\n        /* \"#utility.yul\":3363:3428   */\n      tag_255\n        /* \"#utility.yul\":3420:3427   */\n      dup7\n        /* \"#utility.yul\":3411:3417   */\n      dup3\n        /* \"#utility.yul\":3400:3409   */\n      dup8\n        /* \"#utility.yul\":3396:3418   */\n      add\n        /* \"#utility.yul\":3363:3428   */\n      tag_149\n      jump\t// in\n    tag_255:\n        /* \"#utility.yul\":3345:3428   */\n      swap3\n      pop\n      swap3\n      pop\n        /* \"#utility.yul\":3140:3438   */\n      pop\n        /* \"#utility.yul\":2771:3445   */\n      swap3\n      pop\n      swap3\n      pop\n      swap3\n      jump\t// out\n        /* \"#utility.yul\":3451:3550   */\n    tag_150:\n        /* \"#utility.yul\":3503:3509   */\n      0x00\n        /* \"#utility.yul\":3537:3542   */\n      dup2\n        /* \"#utility.yul\":3531:3543   */\n      mload\n        /* \"#utility.yul\":3521:3543   */\n      swap1\n      pop\n        /* \"#utility.yul\":3451:3550   */\n      swap2\n      swap1\n      pop\n      jump\t// out\n        /* \"#utility.yul\":3556:3725   */\n    tag_151:\n        /* \"#utility.yul\":3640:3651   */\n      0x00\n        /* \"#utility.yul\":3674:3680   */\n      dup3\n        /* \"#utility.yul\":3669:3672   */\n      dup3\n        /* \"#utility.yul\":3662:3681   */\n      mstore\n        /* \"#utility.yul\":3714:3718   */\n      0x20\n        /* \"#utility.yul\":3709:3712   */\n      dup3\n        /* \"#utility.yul\":3705:3719   */\n      add\n        /* \"#utility.yul\":3690:3719   */\n      swap1\n      pop\n        /* \"#utility.yul\":3556:3725   */\n      swap3\n      swap2\n      pop\n      pop\n      jump\t// out\n        /* \"#utility.yul\":3731:3870   */\n    tag_152:\n        /* \"#utility.yul\":3820:3826   */\n      dup3\n        /* \"#utility.yul\":3815:3818   */\n      dup2\n        /* \"#utility.yul\":3810:3813   */\n      dup4\n        /* \"#utility.yul\":3804:3827   */\n      mcopy\n        /* \"#utility.yul\":3861:3862   */\n      0x00\n        /* \"#utility.yul\":3852:3858   */\n      dup4\n        /* \"#utility.yul\":3847:3850   */\n      dup4\n        /* \"#utility.yul\":3843:3859   */\n      add\n        /* \"#utility.yul\":3836:3863   */\n      mstore\n        /* \"#utility.yul\":3731:3870   */\n      pop\n      pop\n      pop\n      jump\t// out\n        /* \"#utility.yul\":3876:3978   */\n    tag_153:\n        /* \"#utility.yul\":3917:3923   */\n      0x00\n        /* \"#utility.yul\":3968:3970   */\n      0x1f\n        /* \"#utility.yul\":3964:3971   */\n      not\n        /* \"#utility.yul\":3959:3961   */\n      0x1f\n        /* \"#utility.yul\":3952:3957   */\n      dup4\n        /* \"#utility.yul\":3948:3962   */\n      add\n        /* \"#utility.yul\":3944:3972   */\n      and\n        /* \"#utility.yul\":3934:3972   */\n      swap1\n      pop\n        /* \"#utility.yul\":3876:3978   */\n      swap2\n      swap1\n      pop\n      jump\t// out\n        /* \"#utility.yul\":3984:4361   */\n    tag_154:\n        /* \"#utility.yul\":4072:4075   */\n      0x00\n        /* \"#utility.yul\":4100:4139   */\n      tag_261\n        /* \"#utility.yul\":4133:4138   */\n      dup3\n        /* \"#utility.yul\":4100:4139   */\n      tag_150\n      jump\t// in\n    tag_261:\n        /* \"#utility.yul\":4155:4226   */\n      tag_262\n        /* \"#utility.yul\":4219:4225   */\n      dup2\n        /* \"#utility.yul\":4214:4217   */\n      dup6\n        /* \"#utility.yul\":4155:4226   */\n      tag_151\n      jump\t// in\n    tag_262:\n        /* \"#utility.yul\":4148:4226   */\n      swap4\n      pop\n        /* \"#utility.yul\":4235:4300   */\n      tag_263\n        /* \"#utility.yul\":4293:4299   */\n      dup2\n        /* \"#utility.yul\":4288:4291   */\n      dup6\n        /* \"#utility.yul\":4281:4285   */\n      0x20\n        /* \"#utility.yul\":4274:4279   */\n      dup7\n        /* \"#utility.yul\":4270:4286   */\n      add\n        /* \"#utility.yul\":4235:4300   */\n      tag_152\n      jump\t// in\n    tag_263:\n        /* \"#utility.yul\":4325:4354   */\n      tag_264\n        /* \"#utility.yul\":4347:4353   */\n      dup2\n        /* \"#utility.yul\":4325:4354   */\n      tag_153\n      jump\t// in\n    tag_264:\n        /* \"#utility.yul\":4320:4323   */\n      dup5\n        /* \"#utility.yul\":4316:4355   */\n      add\n        /* \"#utility.yul\":4309:4355   */\n      swap2\n      pop\n        /* \"#utility.yul\":4076:4361   */\n      pop\n        /* \"#utility.yul\":3984:4361   */\n      swap3\n      swap2\n      pop\n      pop\n      jump\t// out\n        /* \"#utility.yul\":4367:4680   */\n    tag_32:\n        /* \"#utility.yul\":4480:4484   */\n      0x00\n        /* \"#utility.yul\":4518:4520   */\n      0x20\n        /* \"#utility.yul\":4507:4516   */\n      dup3\n        /* \"#utility.yul\":4503:4521   */\n      add\n        /* \"#utility.yul\":4495:4521   */\n      swap1\n      pop\n        /* \"#utility.yul\":4567:4576   */\n      dup2\n        /* \"#utility.yul\":4561:4565   */\n      dup2\n        /* \"#utility.yul\":4557:4577   */\n      sub\n        /* \"#utility.yul\":4553:4554   */\n      0x00\n        /* \"#utility.yul\":4542:4551   */\n      dup4\n        /* \"#utility.yul\":4538:4555   */\n      add\n        /* \"#utility.yul\":4531:4578   */\n      mstore\n        /* \"#utility.yul\":4595:4673   */\n      tag_266\n        /* \"#utility.yul\":4668:4672   */\n      dup2\n        /* \"#utility.yul\":4659:4665   */\n      dup5\n        /* \"#utility.yul\":4595:4673   */\n      tag_154\n      jump\t// in\n    tag_266:\n        /* \"#utility.yul\":4587:4673   */\n      swap1\n      pop\n        /* \"#utility.yul\":4367:4680   */\n      swap3\n      swap2\n      pop\n      pop\n      jump\t// out\n        /* \"#utility.yul\":4686:4812   */\n    tag_155:\n        /* \"#utility.yul\":4723:4730   */\n      0x00\n        /* \"#utility.yul\":4763:4805   */\n      0xffffffffffffffffffffffffffffffffffffffff\n        /* \"#utility.yul\":4756:4761   */\n      dup3\n        /* \"#utility.yul\":4752:4806   */\n      and\n        /* \"#utility.yul\":4741:4806   */\n      swap1\n      pop\n        /* \"#utility.yul\":4686:4812   */\n      swap2\n      swap1\n      pop\n      jump\t// out\n        /* \"#utility.yul\":4818:4878   */\n    tag_156:\n        /* \"#utility.yul\":4846:4849   */\n      0x00\n        /* \"#utility.yul\":4867:4872   */\n      dup2\n        /* \"#utility.yul\":4860:4872   */\n      swap1\n      pop\n        /* \"#utility.yul\":4818:4878   */\n      swap2\n      swap1\n      pop\n      jump\t// out\n        /* \"#utility.yul\":4884:5026   */\n    tag_157:\n        /* \"#utility.yul\":4934:4943   */\n      0x00\n        /* \"#utility.yul\":4967:5020   */\n      tag_270\n        /* \"#utility.yul\":4985:5019   */\n      tag_271\n        /* \"#utility.yul\":4994:5018   */\n      tag_272\n        /* \"#utility.yul\":5012:5017   */\n      dup5\n        /* \"#utility.yul\":4994:5018   */\n      tag_155\n      jump\t// in\n    tag_272:\n        /* \"#utility.yul\":4985:5019   */\n      tag_156\n      jump\t// in\n    tag_271:\n        /* \"#utility.yul\":4967:5020   */\n      tag_155\n      jump\t// in\n    tag_270:\n        /* \"#utility.yul\":4954:5020   */\n      swap1\n      pop\n        /* \"#utility.yul\":4884:5026   */\n      swap2\n      swap1\n      pop\n      jump\t// out\n        /* \"#utility.yul\":5032:5158   */\n    tag_158:\n        /* \"#utility.yul\":5082:5091   */\n      0x00\n        /* \"#utility.yul\":5115:5152   */\n      tag_274\n        /* \"#utility.yul\":5146:5151   */\n      dup3\n        /* \"#utility.yul\":5115:5152   */\n      tag_157\n      jump\t// in\n    tag_274:\n        /* \"#utility.yul\":5102:5152   */\n      swap1\n      pop\n        /* \"#utility.yul\":5032:5158   */\n      swap2\n      swap1\n      pop\n      jump\t// out\n        /* \"#utility.yul\":5164:5307   */\n    tag_159:\n        /* \"#utility.yul\":5231:5240   */\n      0x00\n        /* \"#utility.yul\":5264:5301   */\n      tag_276\n        /* \"#utility.yul\":5295:5300   */\n      dup3\n        /* \"#utility.yul\":5264:5301   */\n      tag_158\n      jump\t// in\n    tag_276:\n        /* \"#utility.yul\":5251:5301   */\n      swap1\n      pop\n        /* \"#utility.yul\":5164:5307   */\n      swap2\n      swap1\n      pop\n      jump\t// out\n        /* \"#utility.yul\":5313:5478   */\n    tag_160:\n        /* \"#utility.yul\":5417:5471   */\n      tag_278\n        /* \"#utility.yul\":5465:5470   */\n      dup2\n        /* \"#utility.yul\":5417:5471   */\n      tag_159\n      jump\t// in\n    tag_278:\n        /* \"#utility.yul\":5412:5415   */\n      dup3\n        /* \"#utility.yul\":5405:5472   */\n      mstore\n        /* \"#utility.yul\":5313:5478   */\n      pop\n      pop\n      jump\t// out\n        /* \"#utility.yul\":5484:5740   */\n    tag_37:\n        /* \"#utility.yul\":5594:5598   */\n      0x00\n        /* \"#utility.yul\":5632:5634   */\n      0x20\n        /* \"#utility.yul\":5621:5630   */\n      dup3\n        /* \"#utility.yul\":5617:5635   */\n      add\n        /* \"#utility.yul\":5609:5635   */\n      swap1\n      pop\n        /* \"#utility.yul\":5645:5733   */\n      tag_280\n        /* \"#utility.yul\":5730:5731   */\n      0x00\n        /* \"#utility.yul\":5719:5728   */\n      dup4\n        /* \"#utility.yul\":5715:5732   */\n      add\n        /* \"#utility.yul\":5706:5712   */\n      dup5\n        /* \"#utility.yul\":5645:5733   */\n      tag_160\n      jump\t// in\n    tag_280:\n        /* \"#utility.yul\":5484:5740   */\n      swap3\n      swap2\n      pop\n      pop\n      jump\t// out\n        /* \"#utility.yul\":5746:5836   */\n    tag_161:\n        /* \"#utility.yul\":5780:5787   */\n      0x00\n        /* \"#utility.yul\":5823:5828   */\n      dup2\n        /* \"#utility.yul\":5816:5829   */\n      iszero\n        /* \"#utility.yul\":5809:5830   */\n      iszero\n        /* \"#utility.yul\":5798:5830   */\n      swap1\n      pop\n        /* \"#utility.yul\":5746:5836   */\n      swap2\n      swap1\n      pop\n      jump\t// out\n        /* \"#utility.yul\":5842:5951   */\n    tag_162:\n        /* \"#utility.yul\":5923:5944   */\n      tag_283\n        /* \"#utility.yul\":5938:5943   */\n      dup2\n        /* \"#utility.yul\":5923:5944   */\n      tag_161\n      jump\t// in\n    tag_283:\n        /* \"#utility.yul\":5918:5921   */\n      dup3\n        /* \"#utility.yul\":5911:5945   */\n      mstore\n        /* \"#utility.yul\":5842:5951   */\n      pop\n      pop\n      jump\t// out\n        /* \"#utility.yul\":5957:6167   */\n    tag_43:\n        /* \"#utility.yul\":6044:6048   */\n      0x00\n        /* \"#utility.yul\":6082:6084   */\n      0x20\n        /* \"#utility.yul\":6071:6080   */\n      dup3\n        /* \"#utility.yul\":6067:6085   */\n      add\n        /* \"#utility.yul\":6059:6085   */\n      swap1\n      pop\n        /* \"#utility.yul\":6095:6160   */\n      tag_285\n        /* \"#utility.yul\":6157:6158   */\n      0x00\n        /* \"#utility.yul\":6146:6155   */\n      dup4\n        /* \"#utility.yul\":6142:6159   */\n      add\n        /* \"#utility.yul\":6133:6139   */\n      dup5\n        /* \"#utility.yul\":6095:6160   */\n      tag_162\n      jump\t// in\n    tag_285:\n        /* \"#utility.yul\":5957:6167   */\n      swap3\n      swap2\n      pop\n      pop\n      jump\t// out\n        /* \"#utility.yul\":6173:6293   */\n    tag_163:\n        /* \"#utility.yul\":6245:6268   */\n      tag_287\n        /* \"#utility.yul\":6262:6267   */\n      dup2\n        /* \"#utility.yul\":6245:6268   */\n      tag_144\n      jump\t// in\n    tag_287:\n        /* \"#utility.yul\":6238:6243   */\n      dup2\n        /* \"#utility.yul\":6235:6269   */\n      eq\n        /* \"#utility.yul\":6225:6287   */\n      tag_288\n      jumpi\n        /* \"#utility.yul\":6283:6284   */\n      0x00\n        /* \"#utility.yul\":6280:6281   */\n      dup1\n        /* \"#utility.yul\":6273:6285   */\n      revert\n        /* \"#utility.yul\":6225:6287   */\n    tag_288:\n        /* \"#utility.yul\":6173:6293   */\n      pop\n      jump\t// out\n        /* \"#utility.yul\":6299:6436   */\n    tag_164:\n        /* \"#utility.yul\":6344:6349   */\n      0x00\n        /* \"#utility.yul\":6382:6388   */\n      dup2\n        /* \"#utility.yul\":6369:6389   */\n      calldataload\n        /* \"#utility.yul\":6360:6389   */\n      swap1\n      pop\n        /* \"#utility.yul\":6398:6430   */\n      tag_290\n        /* \"#utility.yul\":6424:6429   */\n      dup2\n        /* \"#utility.yul\":6398:6430   */\n      tag_163\n      jump\t// in\n    tag_290:\n        /* \"#utility.yul\":6299:6436   */\n      swap3\n      swap2\n      pop\n      pop\n      jump\t// out\n        /* \"#utility.yul\":6442:6914   */\n    tag_47:\n        /* \"#utility.yul\":6509:6515   */\n      0x00\n        /* \"#utility.yul\":6517:6523   */\n      dup1\n        /* \"#utility.yul\":6566:6568   */\n      0x40\n        /* \"#utility.yul\":6554:6563   */\n      dup4\n        /* \"#utility.yul\":6545:6552   */\n      dup6\n        /* \"#utility.yul\":6541:6564   */\n      sub\n        /* \"#utility.yul\":6537:6569   */\n      slt\n        /* \"#utility.yul\":6534:6653   */\n      iszero\n      tag_292\n      jumpi\n        /* \"#utility.yul\":6572:6651   */\n      tag_293\n      tag_138\n      jump\t// in\n    tag_293:\n        /* \"#utility.yul\":6534:6653   */\n    tag_292:\n        /* \"#utility.yul\":6692:6693   */\n      0x00\n        /* \"#utility.yul\":6717:6770   */\n      tag_294\n        /* \"#utility.yul\":6762:6769   */\n      dup6\n        /* \"#utility.yul\":6753:6759   */\n      dup3\n        /* \"#utility.yul\":6742:6751   */\n      dup7\n        /* \"#utility.yul\":6738:6760   */\n      add\n        /* \"#utility.yul\":6717:6770   */\n      tag_142\n      jump\t// in\n    tag_294:\n        /* \"#utility.yul\":6707:6770   */\n      swap3\n      pop\n        /* \"#utility.yul\":6663:6780   */\n      pop\n        /* \"#utility.yul\":6819:6821   */\n      0x20\n        /* \"#utility.yul\":6845:6897   */\n      tag_295\n        /* \"#utility.yul\":6889:6896   */\n      dup6\n        /* \"#utility.yul\":6880:6886   */\n      dup3\n        /* \"#utility.yul\":6869:6878   */\n      dup7\n        /* \"#utility.yul\":6865:6887   */\n      add\n        /* \"#utility.yul\":6845:6897   */\n      tag_164\n      jump\t// in\n    tag_295:\n        /* \"#utility.yul\":6835:6897   */\n      swap2\n      pop\n        /* \"#utility.yul\":6790:6907   */\n      pop\n        /* \"#utility.yul\":6442:6914   */\n      swap3\n      pop\n      swap3\n      swap1\n      pop\n      jump\t// out\n        /* \"#utility.yul\":6920:7016   */\n    tag_165:\n        /* \"#utility.yul\":6957:6964   */\n      0x00\n        /* \"#utility.yul\":6986:7010   */\n      tag_297\n        /* \"#utility.yul\":7004:7009   */\n      dup3\n        /* \"#utility.yul\":6986:7010   */\n      tag_155\n      jump\t// in\n    tag_297:\n        /* \"#utility.yul\":6975:7010   */\n      swap1\n      pop\n        /* \"#utility.yul\":6920:7016   */\n      swap2\n      swap1\n      pop\n      jump\t// out\n        /* \"#utility.yul\":7022:7140   */\n    tag_166:\n        /* \"#utility.yul\":7109:7133   */\n      tag_299\n        /* \"#utility.yul\":7127:7132   */\n      dup2\n        /* \"#utility.yul\":7109:7133   */\n      tag_165\n      jump\t// in\n    tag_299:\n        /* \"#utility.yul\":7104:7107   */\n      dup3\n        /* \"#utility.yul\":7097:7134   */\n      mstore\n        /* \"#utility.yul\":7022:7140   */\n      pop\n      pop\n      jump\t// out\n        /* \"#utility.yul\":7146:7244   */\n    tag_167:\n        /* \"#utility.yul\":7197:7203   */\n      0x00\n        /* \"#utility.yul\":7231:7236   */\n      dup2\n        /* \"#utility.yul\":7225:7237   */\n      mload\n        /* \"#utility.yul\":7215:7237   */\n      swap1\n      pop\n        /* \"#utility.yul\":7146:7244   */\n      swap2\n      swap1\n      pop\n      jump\t// out\n        /* \"#utility.yul\":7250:7418   */\n    tag_168:\n        /* \"#utility.yul\":7333:7344   */\n      0x00\n        /* \"#utility.yul\":7367:7373   */\n      dup3\n        /* \"#utility.yul\":7362:7365   */\n      dup3\n        /* \"#utility.yul\":7355:7374   */\n      mstore\n        /* \"#utility.yul\":7407:7411   */\n      0x20\n        /* \"#utility.yul\":7402:7405   */\n      dup3\n        /* \"#utility.yul\":7398:7412   */\n      add\n        /* \"#utility.yul\":7383:7412   */\n      swap1\n      pop\n        /* \"#utility.yul\":7250:7418   */\n      swap3\n      swap2\n      pop\n      pop\n      jump\t// out\n        /* \"#utility.yul\":7424:7797   */\n    tag_169:\n        /* \"#utility.yul\":7510:7513   */\n      0x00\n        /* \"#utility.yul\":7538:7576   */\n      tag_303\n        /* \"#utility.yul\":7570:7575   */\n      dup3\n        /* \"#utility.yul\":7538:7576   */\n      tag_167\n      jump\t// in\n    tag_303:\n        /* \"#utility.yul\":7592:7662   */\n      tag_304\n        /* \"#utility.yul\":7655:7661   */\n      dup2\n        /* \"#utility.yul\":7650:7653   */\n      dup6\n        /* \"#utility.yul\":7592:7662   */\n      tag_168\n      jump\t// in\n    tag_304:\n        /* \"#utility.yul\":7585:7662   */\n      swap4\n      pop\n        /* \"#utility.yul\":7671:7736   */\n      tag_305\n        /* \"#utility.yul\":7729:7735   */\n      dup2\n        /* \"#utility.yul\":7724:7727   */\n      dup6\n        /* \"#utility.yul\":7717:7721   */\n      0x20\n        /* \"#utility.yul\":7710:7715   */\n      dup7\n        /* \"#utility.yul\":7706:7722   */\n      add\n        /* \"#utility.yul\":7671:7736   */\n      tag_152\n      jump\t// in\n    tag_305:\n        /* \"#utility.yul\":7761:7790   */\n      tag_306\n        /* \"#utility.yul\":7783:7789   */\n      dup2\n        /* \"#utility.yul\":7761:7790   */\n      tag_153\n      jump\t// in\n    tag_306:\n        /* \"#utility.yul\":7756:7759   */\n      dup5\n        /* \"#utility.yul\":7752:7791   */\n      add\n        /* \"#utility.yul\":7745:7791   */\n      swap2\n      pop\n        /* \"#utility.yul\":7514:7797   */\n      pop\n        /* \"#utility.yul\":7424:7797   */\n      swap3\n      swap2\n      pop\n      pop\n      jump\t// out\n        /* \"#utility.yul\":7803:8530   */\n    tag_54:\n        /* \"#utility.yul\":8016:8020   */\n      0x00\n        /* \"#utility.yul\":8054:8057   */\n      0x80\n        /* \"#utility.yul\":8043:8052   */\n      dup3\n        /* \"#utility.yul\":8039:8058   */\n      add\n        /* \"#utility.yul\":8031:8058   */\n      swap1\n      pop\n        /* \"#utility.yul\":8068:8139   */\n      tag_308\n        /* \"#utility.yul\":8136:8137   */\n      0x00\n        /* \"#utility.yul\":8125:8134   */\n      dup4\n        /* \"#utility.yul\":8121:8138   */\n      add\n        /* \"#utility.yul\":8112:8118   */\n      dup8\n        /* \"#utility.yul\":8068:8139   */\n      tag_166\n      jump\t// in\n    tag_308:\n        /* \"#utility.yul\":8149:8221   */\n      tag_309\n        /* \"#utility.yul\":8217:8219   */\n      0x20\n        /* \"#utility.yul\":8206:8215   */\n      dup4\n        /* \"#utility.yul\":8202:8220   */\n      add\n        /* \"#utility.yul\":8193:8199   */\n      dup7\n        /* \"#utility.yul\":8149:8221   */\n      tag_143\n      jump\t// in\n    tag_309:\n        /* \"#utility.yul\":8268:8277   */\n      dup2\n        /* \"#utility.yul\":8262:8266   */\n      dup2\n        /* \"#utility.yul\":8258:8278   */\n      sub\n        /* \"#utility.yul\":8253:8255   */\n      0x40\n        /* \"#utility.yul\":8242:8251   */\n      dup4\n        /* \"#utility.yul\":8238:8256   */\n      add\n        /* \"#utility.yul\":8231:8279   */\n      mstore\n        /* \"#utility.yul\":8296:8372   */\n      tag_310\n        /* \"#utility.yul\":8367:8371   */\n      dup2\n        /* \"#utility.yul\":8358:8364   */\n      dup6\n        /* \"#utility.yul\":8296:8372   */\n      tag_169\n      jump\t// in\n    tag_310:\n        /* \"#utility.yul\":8288:8372   */\n      swap1\n      pop\n        /* \"#utility.yul\":8419:8428   */\n      dup2\n        /* \"#utility.yul\":8413:8417   */\n      dup2\n        /* \"#utility.yul\":8409:8429   */\n      sub\n        /* \"#utility.yul\":8404:8406   */\n      0x60\n        /* \"#utility.yul\":8393:8402   */\n      dup4\n        /* \"#utility.yul\":8389:8407   */\n      add\n        /* \"#utility.yul\":8382:8430   */\n      mstore\n        /* \"#utility.yul\":8447:8523   */\n      tag_311\n        /* \"#utility.yul\":8518:8522   */\n      dup2\n        /* \"#utility.yul\":8509:8515   */\n      dup5\n        /* \"#utility.yul\":8447:8523   */\n      tag_169\n      jump\t// in\n    tag_311:\n        /* \"#utility.yul\":8439:8523   */\n      swap1\n      pop\n        /* \"#utility.yul\":7803:8530   */\n      swap6\n      swap5\n      pop\n      pop\n      pop\n      pop\n      pop\n      jump\t// out\n        /* \"#utility.yul\":8536:8653   */\n    tag_170:\n        /* \"#utility.yul\":8645:8646   */\n      0x00\n        /* \"#utility.yul\":8642:8643   */\n      dup1\n        /* \"#utility.yul\":8635:8647   */\n      revert\n        /* \"#utility.yul\":8659:8839   */\n    tag_171:\n        /* \"#utility.yul\":8707:8784   */\n      0x4e487b7100000000000000000000000000000000000000000000000000000000\n        /* \"#utility.yul\":8704:8705   */\n      0x00\n        /* \"#utility.yul\":8697:8785   */\n      mstore\n        /* \"#utility.yul\":8804:8808   */\n      0x41\n        /* \"#utility.yul\":8801:8802   */\n      0x04\n        /* \"#utility.yul\":8794:8809   */\n      mstore\n        /* \"#utility.yul\":8828:8832   */\n      0x24\n        /* \"#utility.yul\":8825:8826   */\n      0x00\n        /* \"#utility.yul\":8818:8833   */\n      revert\n        /* \"#utility.yul\":8845:9126   */\n    tag_172:\n        /* \"#utility.yul\":8928:8955   */\n      tag_315\n        /* \"#utility.yul\":8950:8954   */\n      dup3\n        /* \"#utility.yul\":8928:8955   */\n      tag_153\n      jump\t// in\n    tag_315:\n        /* \"#utility.yul\":8920:8926   */\n      dup2\n        /* \"#utility.yul\":8916:8956   */\n      add\n        /* \"#utility.yul\":9058:9064   */\n      dup2\n        /* \"#utility.yul\":9046:9056   */\n      dup2\n        /* \"#utility.yul\":9043:9065   */\n      lt\n        /* \"#utility.yul\":9022:9040   */\n      0xffffffffffffffff\n        /* \"#utility.yul\":9010:9020   */\n      dup3\n        /* \"#utility.yul\":9007:9041   */\n      gt\n        /* \"#utility.yul\":9004:9066   */\n      or\n        /* \"#utility.yul\":9001:9089   */\n      iszero\n      tag_316\n      jumpi\n        /* \"#utility.yul\":9069:9087   */\n      tag_317\n      tag_171\n      jump\t// in\n    tag_317:\n        /* \"#utility.yul\":9001:9089   */\n    tag_316:\n        /* \"#utility.yul\":9109:9119   */\n      dup1\n        /* \"#utility.yul\":9105:9107   */\n      0x40\n        /* \"#utility.yul\":9098:9120   */\n      mstore\n        /* \"#utility.yul\":8888:9126   */\n      pop\n        /* \"#utility.yul\":8845:9126   */\n      pop\n      pop\n      jump\t// out\n        /* \"#utility.yul\":9132:9261   */\n    tag_173:\n        /* \"#utility.yul\":9166:9172   */\n      0x00\n        /* \"#utility.yul\":9193:9213   */\n      tag_319\n      tag_137\n      jump\t// in\n    tag_319:\n        /* \"#utility.yul\":9183:9213   */\n      swap1\n      pop\n        /* \"#utility.yul\":9222:9255   */\n      tag_320\n        /* \"#utility.yul\":9250:9254   */\n      dup3\n        /* \"#utility.yul\":9242:9248   */\n      dup3\n        /* \"#utility.yul\":9222:9255   */\n      tag_172\n      jump\t// in\n    tag_320:\n        /* \"#utility.yul\":9132:9261   */\n      swap2\n      swap1\n      pop\n      jump\t// out\n        /* \"#utility.yul\":9267:9575   */\n    tag_174:\n        /* \"#utility.yul\":9329:9333   */\n      0x00\n        /* \"#utility.yul\":9419:9437   */\n      0xffffffffffffffff\n        /* \"#utility.yul\":9411:9417   */\n      dup3\n        /* \"#utility.yul\":9408:9438   */\n      gt\n        /* \"#utility.yul\":9405:9461   */\n      iszero\n      tag_322\n      jumpi\n        /* \"#utility.yul\":9441:9459   */\n      tag_323\n      tag_171\n      jump\t// in\n    tag_323:\n        /* \"#utility.yul\":9405:9461   */\n    tag_322:\n        /* \"#utility.yul\":9479:9508   */\n      tag_324\n        /* \"#utility.yul\":9501:9507   */\n      dup3\n        /* \"#utility.yul\":9479:9508   */\n      tag_153\n      jump\t// in\n    tag_324:\n        /* \"#utility.yul\":9471:9508   */\n      swap1\n      pop\n        /* \"#utility.yul\":9563:9567   */\n      0x20\n        /* \"#utility.yul\":9557:9561   */\n      dup2\n        /* \"#utility.yul\":9553:9568   */\n      add\n        /* \"#utility.yul\":9545:9568   */\n      swap1\n      pop\n        /* \"#utility.yul\":9267:9575   */\n      swap2\n      swap1\n      pop\n      jump\t// out\n        /* \"#utility.yul\":9581:9729   */\n    tag_175:\n        /* \"#utility.yul\":9679:9685   */\n      dup3\n        /* \"#utility.yul\":9674:9677   */\n      dup2\n        /* \"#utility.yul\":9669:9672   */\n      dup4\n        /* \"#utility.yul\":9656:9686   */\n      calldatacopy\n        /* \"#utility.yul\":9720:9721   */\n      0x00\n        /* \"#utility.yul\":9711:9717   */\n      dup4\n        /* \"#utility.yul\":9706:9709   */\n      dup4\n        /* \"#utility.yul\":9702:9718   */\n      add\n        /* \"#utility.yul\":9695:9722   */\n      mstore\n        /* \"#utility.yul\":9581:9729   */\n      pop\n      pop\n      pop\n      jump\t// out\n        /* \"#utility.yul\":9735:10160   */\n    tag_176:\n        /* \"#utility.yul\":9813:9818   */\n      0x00\n        /* \"#utility.yul\":9838:9904   */\n      tag_327\n        /* \"#utility.yul\":9854:9903   */\n      tag_328\n        /* \"#utility.yul\":9896:9902   */\n      dup5\n        /* \"#utility.yul\":9854:9903   */\n      tag_174\n      jump\t// in\n    tag_328:\n        /* \"#utility.yul\":9838:9904   */\n      tag_173\n      jump\t// in\n    tag_327:\n        /* \"#utility.yul\":9829:9904   */\n      swap1\n      pop\n        /* \"#utility.yul\":9927:9933   */\n      dup3\n        /* \"#utility.yul\":9920:9925   */\n      dup2\n        /* \"#utility.yul\":9913:9934   */\n      mstore\n        /* \"#utility.yul\":9965:9969   */\n      0x20\n        /* \"#utility.yul\":9958:9963   */\n      dup2\n        /* \"#utility.yul\":9954:9970   */\n      add\n        /* \"#utility.yul\":10003:10006   */\n      dup5\n        /* \"#utility.yul\":9994:10000   */\n      dup5\n        /* \"#utility.yul\":9989:9992   */\n      dup5\n        /* \"#utility.yul\":9985:10001   */\n      add\n        /* \"#utility.yul\":9982:10007   */\n      gt\n        /* \"#utility.yul\":9979:10091   */\n      iszero\n      tag_329\n      jumpi\n        /* \"#utility.yul\":10010:10089   */\n      tag_330\n      tag_170\n      jump\t// in\n    tag_330:\n        /* \"#utility.yul\":9979:10091   */\n    tag_329:\n        /* \"#utility.yul\":10100:10154   */\n      tag_331\n        /* \"#utility.yul\":10147:10153   */\n      dup5\n        /* \"#utility.yul\":10142:10145   */\n      dup3\n        /* \"#utility.yul\":10137:10140   */\n      dup6\n        /* \"#utility.yul\":10100:10154   */\n      tag_175\n      jump\t// in\n    tag_331:\n        /* \"#utility.yul\":9819:10160   */\n      pop\n        /* \"#utility.yul\":9735:10160   */\n      swap4\n      swap3\n      pop\n      pop\n      pop\n      jump\t// out\n        /* \"#utility.yul\":10180:10520   */\n    tag_177:\n        /* \"#utility.yul\":10236:10241   */\n      0x00\n        /* \"#utility.yul\":10285:10288   */\n      dup3\n        /* \"#utility.yul\":10278:10282   */\n      0x1f\n        /* \"#utility.yul\":10270:10276   */\n      dup4\n        /* \"#utility.yul\":10266:10283   */\n      add\n        /* \"#utility.yul\":10262:10289   */\n      slt\n        /* \"#utility.yul\":10252:10374   */\n      tag_333\n      jumpi\n        /* \"#utility.yul\":10293:10372   */\n      tag_334\n      tag_146\n      jump\t// in\n    tag_334:\n        /* \"#utility.yul\":10252:10374   */\n    tag_333:\n        /* \"#utility.yul\":10410:10416   */\n      dup2\n        /* \"#utility.yul\":10397:10417   */\n      calldataload\n        /* \"#utility.yul\":10435:10514   */\n      tag_335\n        /* \"#utility.yul\":10510:10513   */\n      dup5\n        /* \"#utility.yul\":10502:10508   */\n      dup3\n        /* \"#utility.yul\":10495:10499   */\n      0x20\n        /* \"#utility.yul\":10487:10493   */\n      dup7\n        /* \"#utility.yul\":10483:10500   */\n      add\n        /* \"#utility.yul\":10435:10514   */\n      tag_176\n      jump\t// in\n    tag_335:\n        /* \"#utility.yul\":10426:10514   */\n      swap2\n      pop\n        /* \"#utility.yul\":10242:10520   */\n      pop\n        /* \"#utility.yul\":10180:10520   */\n      swap3\n      swap2\n      pop\n      pop\n      jump\t// out\n        /* \"#utility.yul\":10526:11180   */\n    tag_58:\n        /* \"#utility.yul\":10604:10610   */\n      0x00\n        /* \"#utility.yul\":10612:10618   */\n      dup1\n        /* \"#utility.yul\":10661:10663   */\n      0x40\n        /* \"#utility.yul\":10649:10658   */\n      dup4\n        /* \"#utility.yul\":10640:10647   */\n      dup6\n        /* \"#utility.yul\":10636:10659   */\n      sub\n        /* \"#utility.yul\":10632:10664   */\n      slt\n        /* \"#utility.yul\":10629:10748   */\n      iszero\n      tag_337\n      jumpi\n        /* \"#utility.yul\":10667:10746   */\n      tag_338\n      tag_138\n      jump\t// in\n    tag_338:\n        /* \"#utility.yul\":10629:10748   */\n    tag_337:\n        /* \"#utility.yul\":10787:10788   */\n      0x00\n        /* \"#utility.yul\":10812:10865   */\n      tag_339\n        /* \"#utility.yul\":10857:10864   */\n      dup6\n        /* \"#utility.yul\":10848:10854   */\n      dup3\n        /* \"#utility.yul\":10837:10846   */\n      dup7\n        /* \"#utility.yul\":10833:10855   */\n      add\n        /* \"#utility.yul\":10812:10865   */\n      tag_142\n      jump\t// in\n    tag_339:\n        /* \"#utility.yul\":10802:10865   */\n      swap3\n      pop\n        /* \"#utility.yul\":10758:10875   */\n      pop\n        /* \"#utility.yul\":10942:10944   */\n      0x20\n        /* \"#utility.yul\":10931:10940   */\n      dup4\n        /* \"#utility.yul\":10927:10945   */\n      add\n        /* \"#utility.yul\":10914:10946   */\n      calldataload\n        /* \"#utility.yul\":10973:10991   */\n      0xffffffffffffffff\n        /* \"#utility.yul\":10965:10971   */\n      dup2\n        /* \"#utility.yul\":10962:10992   */\n      gt\n        /* \"#utility.yul\":10959:11076   */\n      iszero\n      tag_340\n      jumpi\n        /* \"#utility.yul\":10995:11074   */\n      tag_341\n      tag_139\n      jump\t// in\n    tag_341:\n        /* \"#utility.yul\":10959:11076   */\n    tag_340:\n        /* \"#utility.yul\":11100:11163   */\n      tag_342\n        /* \"#utility.yul\":11155:11162   */\n      dup6\n        /* \"#utility.yul\":11146:11152   */\n      dup3\n        /* \"#utility.yul\":11135:11144   */\n      dup7\n        /* \"#utility.yul\":11131:11153   */\n      add\n        /* \"#utility.yul\":11100:11163   */\n      tag_177\n      jump\t// in\n    tag_342:\n        /* \"#utility.yul\":11090:11163   */\n      swap2\n      pop\n        /* \"#utility.yul\":10885:11173   */\n      pop\n        /* \"#utility.yul\":10526:11180   */\n      swap3\n      pop\n      swap3\n      swap1\n      pop\n      jump\t// out\n        /* \"#utility.yul\":11199:11751   */\n    tag_178:\n        /* \"#utility.yul\":11256:11264   */\n      0x00\n        /* \"#utility.yul\":11266:11272   */\n      dup1\n        /* \"#utility.yul\":11316:11319   */\n      dup4\n        /* \"#utility.yul\":11309:11313   */\n      0x1f\n        /* \"#utility.yul\":11301:11307   */\n      dup5\n        /* \"#utility.yul\":11297:11314   */\n      add\n        /* \"#utility.yul\":11293:11320   */\n      slt\n        /* \"#utility.yul\":11283:11405   */\n      tag_344\n      jumpi\n        /* \"#utility.yul\":11324:11403   */\n      tag_345\n      tag_146\n      jump\t// in\n    tag_345:\n        /* \"#utility.yul\":11283:11405   */\n    tag_344:\n        /* \"#utility.yul\":11437:11443   */\n      dup3\n        /* \"#utility.yul\":11424:11444   */\n      calldataload\n        /* \"#utility.yul\":11414:11444   */\n      swap1\n      pop\n        /* \"#utility.yul\":11467:11485   */\n      0xffffffffffffffff\n        /* \"#utility.yul\":11459:11465   */\n      dup2\n        /* \"#utility.yul\":11456:11486   */\n      gt\n        /* \"#utility.yul\":11453:11570   */\n      iszero\n      tag_346\n      jumpi\n        /* \"#utility.yul\":11489:11568   */\n      tag_347\n      tag_147\n      jump\t// in\n    tag_347:\n        /* \"#utility.yul\":11453:11570   */\n    tag_346:\n        /* \"#utility.yul\":11603:11607   */\n      0x20\n        /* \"#utility.yul\":11595:11601   */\n      dup4\n        /* \"#utility.yul\":11591:11608   */\n      add\n        /* \"#utility.yul\":11579:11608   */\n      swap2\n      pop\n        /* \"#utility.yul\":11657:11660   */\n      dup4\n        /* \"#utility.yul\":11649:11653   */\n      0x01\n        /* \"#utility.yul\":11641:11647   */\n      dup3\n        /* \"#utility.yul\":11637:11654   */\n      mul\n        /* \"#utility.yul\":11627:11635   */\n      dup4\n        /* \"#utility.yul\":11623:11655   */\n      add\n        /* \"#utility.yul\":11620:11661   */\n      gt\n        /* \"#utility.yul\":11617:11745   */\n      iszero\n      tag_348\n      jumpi\n        /* \"#utility.yul\":11664:11743   */\n      tag_349\n      tag_148\n      jump\t// in\n    tag_349:\n        /* \"#utility.yul\":11617:11745   */\n    tag_348:\n        /* \"#utility.yul\":11199:11751   */\n      swap3\n      pop\n      swap3\n      swap1\n      pop\n      jump\t// out\n        /* \"#utility.yul\":11757:12772   */\n    tag_64:\n        /* \"#utility.yul\":11856:11862   */\n      0x00\n        /* \"#utility.yul\":11864:11870   */\n      dup1\n        /* \"#utility.yul\":11872:11878   */\n      0x00\n        /* \"#utility.yul\":11880:11886   */\n      dup1\n        /* \"#utility.yul\":11888:11894   */\n      0x00\n        /* \"#utility.yul\":11937:11939   */\n      0x60\n        /* \"#utility.yul\":11925:11934   */\n      dup7\n        /* \"#utility.yul\":11916:11923   */\n      dup9\n        /* \"#utility.yul\":11912:11935   */\n      sub\n        /* \"#utility.yul\":11908:11940   */\n      slt\n        /* \"#utility.yul\":11905:12024   */\n      iszero\n      tag_351\n      jumpi\n        /* \"#utility.yul\":11943:12022   */\n      tag_352\n      tag_138\n      jump\t// in\n    tag_352:\n        /* \"#utility.yul\":11905:12024   */\n    tag_351:\n        /* \"#utility.yul\":12063:12064   */\n      0x00\n        /* \"#utility.yul\":12088:12141   */\n      tag_353\n        /* \"#utility.yul\":12133:12140   */\n      dup9\n        /* \"#utility.yul\":12124:12130   */\n      dup3\n        /* \"#utility.yul\":12113:12122   */\n      dup10\n        /* \"#utility.yul\":12109:12131   */\n      add\n        /* \"#utility.yul\":12088:12141   */\n      tag_142\n      jump\t// in\n    tag_353:\n        /* \"#utility.yul\":12078:12141   */\n      swap6\n      pop\n        /* \"#utility.yul\":12034:12151   */\n      pop\n        /* \"#utility.yul\":12218:12220   */\n      0x20\n        /* \"#utility.yul\":12207:12216   */\n      dup7\n        /* \"#utility.yul\":12203:12221   */\n      add\n        /* \"#utility.yul\":12190:12222   */\n      calldataload\n        /* \"#utility.yul\":12249:12267   */\n      0xffffffffffffffff\n        /* \"#utility.yul\":12241:12247   */\n      dup2\n        /* \"#utility.yul\":12238:12268   */\n      gt\n        /* \"#utility.yul\":12235:12352   */\n      iszero\n      tag_354\n      jumpi\n        /* \"#utility.yul\":12271:12350   */\n      tag_355\n      tag_139\n      jump\t// in\n    tag_355:\n        /* \"#utility.yul\":12235:12352   */\n    tag_354:\n        /* \"#utility.yul\":12384:12448   */\n      tag_356\n        /* \"#utility.yul\":12440:12447   */\n      dup9\n        /* \"#utility.yul\":12431:12437   */\n      dup3\n        /* \"#utility.yul\":12420:12429   */\n      dup10\n        /* \"#utility.yul\":12416:12438   */\n      add\n        /* \"#utility.yul\":12384:12448   */\n      tag_178\n      jump\t// in\n    tag_356:\n        /* \"#utility.yul\":12366:12448   */\n      swap5\n      pop\n      swap5\n      pop\n        /* \"#utility.yul\":12161:12458   */\n      pop\n        /* \"#utility.yul\":12525:12527   */\n      0x40\n        /* \"#utility.yul\":12514:12523   */\n      dup7\n        /* \"#utility.yul\":12510:12528   */\n      add\n        /* \"#utility.yul\":12497:12529   */\n      calldataload\n        /* \"#utility.yul\":12556:12574   */\n      0xffffffffffffffff\n        /* \"#utility.yul\":12548:12554   */\n      dup2\n        /* \"#utility.yul\":12545:12575   */\n      gt\n        /* \"#utility.yul\":12542:12659   */\n      iszero\n      tag_357\n      jumpi\n        /* \"#utility.yul\":12578:12657   */\n      tag_358\n      tag_139\n      jump\t// in\n    tag_358:\n        /* \"#utility.yul\":12542:12659   */\n    tag_357:\n        /* \"#utility.yul\":12691:12755   */\n      tag_359\n        /* \"#utility.yul\":12747:12754   */\n      dup9\n        /* \"#utility.yul\":12738:12744   */\n      dup3\n        /* \"#utility.yul\":12727:12736   */\n      dup10\n        /* \"#utility.yul\":12723:12745   */\n      add\n        /* \"#utility.yul\":12691:12755   */\n      tag_178\n      jump\t// in\n    tag_359:\n        /* \"#utility.yul\":12673:12755   */\n      swap3\n      pop\n      swap3\n      pop\n        /* \"#utility.yul\":12468:12765   */\n      pop\n        /* \"#utility.yul\":11757:12772   */\n      swap3\n      swap6\n      pop\n      swap3\n      swap6\n      swap1\n      swap4\n      pop\n      jump\t// out\n        /* \"#utility.yul\":12778:12918   */\n    tag_179:\n        /* \"#utility.yul\":12827:12836   */\n      0x00\n        /* \"#utility.yul\":12860:12912   */\n      tag_361\n        /* \"#utility.yul\":12878:12911   */\n      tag_362\n        /* \"#utility.yul\":12887:12910   */\n      tag_363\n        /* \"#utility.yul\":12904:12909   */\n      dup5\n        /* \"#utility.yul\":12887:12910   */\n      tag_144\n      jump\t// in\n    tag_363:\n        /* \"#utility.yul\":12878:12911   */\n      tag_156\n      jump\t// in\n    tag_362:\n        /* \"#utility.yul\":12860:12912   */\n      tag_140\n      jump\t// in\n    tag_361:\n        /* \"#utility.yul\":12847:12912   */\n      swap1\n      pop\n        /* \"#utility.yul\":12778:12918   */\n      swap2\n      swap1\n      pop\n      jump\t// out\n        /* \"#utility.yul\":12924:13053   */\n    tag_180:\n        /* \"#utility.yul\":13010:13046   */\n      tag_365\n        /* \"#utility.yul\":13040:13045   */\n      dup2\n        /* \"#utility.yul\":13010:13046   */\n      tag_179\n      jump\t// in\n    tag_365:\n        /* \"#utility.yul\":13005:13008   */\n      dup3\n        /* \"#utility.yul\":12998:13047   */\n      mstore\n        /* \"#utility.yul\":12924:13053   */\n      pop\n      pop\n      jump\t// out\n        /* \"#utility.yul\":13059:13389   */\n    tag_71:\n        /* \"#utility.yul\":13179:13183   */\n      0x00\n        /* \"#utility.yul\":13217:13219   */\n      0x40\n        /* \"#utility.yul\":13206:13215   */\n      dup3\n        /* \"#utility.yul\":13202:13220   */\n      add\n        /* \"#utility.yul\":13194:13220   */\n      swap1\n      pop\n        /* \"#utility.yul\":13230:13301   */\n      tag_367\n        /* \"#utility.yul\":13298:13299   */\n      0x00\n        /* \"#utility.yul\":13287:13296   */\n      dup4\n        /* \"#utility.yul\":13283:13300   */\n      add\n        /* \"#utility.yul\":13274:13280   */\n      dup6\n        /* \"#utility.yul\":13230:13301   */\n      tag_143\n      jump\t// in\n    tag_367:\n        /* \"#utility.yul\":13311:13382   */\n      tag_368\n        /* \"#utility.yul\":13378:13380   */\n      0x20\n        /* \"#utility.yul\":13367:13376   */\n      dup4\n        /* \"#utility.yul\":13363:13381   */\n      add\n        /* \"#utility.yul\":13354:13360   */\n      dup5\n        /* \"#utility.yul\":13311:13382   */\n      tag_180\n      jump\t// in\n    tag_368:\n        /* \"#utility.yul\":13059:13389   */\n      swap4\n      swap3\n      pop\n      pop\n      pop\n      jump\t// out\n        /* \"#utility.yul\":13395:13538   */\n    tag_181:\n        /* \"#utility.yul\":13452:13457   */\n      0x00\n        /* \"#utility.yul\":13483:13489   */\n      dup2\n        /* \"#utility.yul\":13477:13490   */\n      mload\n        /* \"#utility.yul\":13468:13490   */\n      swap1\n      pop\n        /* \"#utility.yul\":13499:13532   */\n      tag_370\n        /* \"#utility.yul\":13526:13531   */\n      dup2\n        /* \"#utility.yul\":13499:13532   */\n      tag_141\n      jump\t// in\n    tag_370:\n        /* \"#utility.yul\":13395:13538   */\n      swap3\n      swap2\n      pop\n      pop\n      jump\t// out\n        /* \"#utility.yul\":13544:13895   */\n    tag_75:\n        /* \"#utility.yul\":13614:13620   */\n      0x00\n        /* \"#utility.yul\":13663:13665   */\n      0x20\n        /* \"#utility.yul\":13651:13660   */\n      dup3\n        /* \"#utility.yul\":13642:13649   */\n      dup5\n        /* \"#utility.yul\":13638:13661   */\n      sub\n        /* \"#utility.yul\":13634:13666   */\n      slt\n        /* \"#utility.yul\":13631:13750   */\n      iszero\n      tag_372\n      jumpi\n        /* \"#utility.yul\":13669:13748   */\n      tag_373\n      tag_138\n      jump\t// in\n    tag_373:\n        /* \"#utility.yul\":13631:13750   */\n    tag_372:\n        /* \"#utility.yul\":13789:13790   */\n      0x00\n        /* \"#utility.yul\":13814:13878   */\n      tag_374\n        /* \"#utility.yul\":13870:13877   */\n      dup5\n        /* \"#utility.yul\":13861:13867   */\n      dup3\n        /* \"#utility.yul\":13850:13859   */\n      dup6\n        /* \"#utility.yul\":13846:13868   */\n      add\n        /* \"#utility.yul\":13814:13878   */\n      tag_181\n      jump\t// in\n    tag_374:\n        /* \"#utility.yul\":13804:13878   */\n      swap2\n      pop\n        /* \"#utility.yul\":13760:13888   */\n      pop\n        /* \"#utility.yul\":13544:13895   */\n      swap3\n      swap2\n      pop\n      pop\n      jump\t// out\n        /* \"#utility.yul\":13901:14049   */\n    tag_182:\n        /* \"#utility.yul\":14003:14014   */\n      0x00\n        /* \"#utility.yul\":14040:14043   */\n      dup2\n        /* \"#utility.yul\":14025:14043   */\n      swap1\n      pop\n        /* \"#utility.yul\":13901:14049   */\n      swap3\n      swap2\n      pop\n      pop\n      jump\t// out\n        /* \"#utility.yul\":14079:14409   */\n    tag_183:\n        /* \"#utility.yul\":14195:14198   */\n      0x00\n        /* \"#utility.yul\":14216:14305   */\n      tag_377\n        /* \"#utility.yul\":14298:14304   */\n      dup4\n        /* \"#utility.yul\":14293:14296   */\n      dup6\n        /* \"#utility.yul\":14216:14305   */\n      tag_182\n      jump\t// in\n    tag_377:\n        /* \"#utility.yul\":14209:14305   */\n      swap4\n      pop\n        /* \"#utility.yul\":14315:14371   */\n      tag_378\n        /* \"#utility.yul\":14364:14370   */\n      dup4\n        /* \"#utility.yul\":14359:14362   */\n      dup6\n        /* \"#utility.yul\":14352:14357   */\n      dup5\n        /* \"#utility.yul\":14315:14371   */\n      tag_175\n      jump\t// in\n    tag_378:\n        /* \"#utility.yul\":14396:14402   */\n      dup3\n        /* \"#utility.yul\":14391:14394   */\n      dup5\n        /* \"#utility.yul\":14387:14403   */\n      add\n        /* \"#utility.yul\":14380:14403   */\n      swap1\n      pop\n        /* \"#utility.yul\":14079:14409   */\n      swap4\n      swap3\n      pop\n      pop\n      pop\n      jump\t// out\n        /* \"#utility.yul\":14415:14710   */\n    tag_78:\n        /* \"#utility.yul\":14557:14560   */\n      0x00\n        /* \"#utility.yul\":14579:14684   */\n      tag_380\n        /* \"#utility.yul\":14680:14683   */\n      dup3\n        /* \"#utility.yul\":14671:14677   */\n      dup5\n        /* \"#utility.yul\":14663:14669   */\n      dup7\n        /* \"#utility.yul\":14579:14684   */\n      tag_183\n      jump\t// in\n    tag_380:\n        /* \"#utility.yul\":14572:14684   */\n      swap2\n      pop\n        /* \"#utility.yul\":14701:14704   */\n      dup2\n        /* \"#utility.yul\":14694:14704   */\n      swap1\n      pop\n        /* \"#utility.yul\":14415:14710   */\n      swap4\n      swap3\n      pop\n      pop\n      pop\n      jump\t// out\n        /* \"#utility.yul\":14716:14896   */\n    tag_184:\n        /* \"#utility.yul\":14764:14841   */\n      0x4e487b7100000000000000000000000000000000000000000000000000000000\n        /* \"#utility.yul\":14761:14762   */\n      0x00\n        /* \"#utility.yul\":14754:14842   */\n      mstore\n        /* \"#utility.yul\":14861:14865   */\n      0x22\n        /* \"#utility.yul\":14858:14859   */\n      0x04\n        /* \"#utility.yul\":14851:14866   */\n      mstore\n        /* \"#utility.yul\":14885:14889   */\n      0x24\n        /* \"#utility.yul\":14882:14883   */\n      0x00\n        /* \"#utility.yul\":14875:14890   */\n      revert\n        /* \"#utility.yul\":14902:15222   */\n    tag_80:\n        /* \"#utility.yul\":14946:14952   */\n      0x00\n        /* \"#utility.yul\":14983:14984   */\n      0x02\n        /* \"#utility.yul\":14977:14981   */\n      dup3\n        /* \"#utility.yul\":14973:14985   */\n      div\n        /* \"#utility.yul\":14963:14985   */\n      swap1\n      pop\n        /* \"#utility.yul\":15030:15031   */\n      0x01\n        /* \"#utility.yul\":15024:15028   */\n      dup3\n        /* \"#utility.yul\":15020:15032   */\n      and\n        /* \"#utility.yul\":15051:15069   */\n      dup1\n        /* \"#utility.yul\":15041:15122   */\n      tag_383\n      jumpi\n        /* \"#utility.yul\":15107:15111   */\n      0x7f\n        /* \"#utility.yul\":15099:15105   */\n      dup3\n        /* \"#utility.yul\":15095:15112   */\n      and\n        /* \"#utility.yul\":15085:15112   */\n      swap2\n      pop\n        /* \"#utility.yul\":15041:15122   */\n    tag_383:\n        /* \"#utility.yul\":15169:15171   */\n      0x20\n        /* \"#utility.yul\":15161:15167   */\n      dup3\n        /* \"#utility.yul\":15158:15172   */\n      lt\n        /* \"#utility.yul\":15138:15156   */\n      dup2\n        /* \"#utility.yul\":15135:15173   */\n      sub\n        /* \"#utility.yul\":15132:15216   */\n      tag_384\n      jumpi\n        /* \"#utility.yul\":15188:15206   */\n      tag_385\n      tag_184\n      jump\t// in\n    tag_385:\n        /* \"#utility.yul\":15132:15216   */\n    tag_384:\n        /* \"#utility.yul\":14953:15222   */\n      pop\n        /* \"#utility.yul\":14902:15222   */\n      swap2\n      swap1\n      pop\n      jump\t// out\n        /* \"#utility.yul\":15228:15344   */\n    tag_185:\n        /* \"#utility.yul\":15298:15319   */\n      tag_387\n        /* \"#utility.yul\":15313:15318   */\n      dup2\n        /* \"#utility.yul\":15298:15319   */\n      tag_161\n      jump\t// in\n    tag_387:\n        /* \"#utility.yul\":15291:15296   */\n      dup2\n        /* \"#utility.yul\":15288:15320   */\n      eq\n        /* \"#utility.yul\":15278:15338   */\n      tag_388\n      jumpi\n        /* \"#utility.yul\":15334:15335   */\n      0x00\n        /* \"#utility.yul\":15331:15332   */\n      dup1\n        /* \"#utility.yul\":15324:15336   */\n      revert\n        /* \"#utility.yul\":15278:15338   */\n    tag_388:\n        /* \"#utility.yul\":15228:15344   */\n      pop\n      jump\t// out\n        /* \"#utility.yul\":15350:15487   */\n    tag_186:\n        /* \"#utility.yul\":15404:15409   */\n      0x00\n        /* \"#utility.yul\":15435:15441   */\n      dup2\n        /* \"#utility.yul\":15429:15442   */\n      mload\n        /* \"#utility.yul\":15420:15442   */\n      swap1\n      pop\n        /* \"#utility.yul\":15451:15481   */\n      tag_390\n        /* \"#utility.yul\":15475:15480   */\n      dup2\n        /* \"#utility.yul\":15451:15481   */\n      tag_185\n      jump\t// in\n    tag_390:\n        /* \"#utility.yul\":15350:15487   */\n      swap3\n      swap2\n      pop\n      pop\n      jump\t// out\n        /* \"#utility.yul\":15493:15838   */\n    tag_90:\n        /* \"#utility.yul\":15560:15566   */\n      0x00\n        /* \"#utility.yul\":15609:15611   */\n      0x20\n        /* \"#utility.yul\":15597:15606   */\n      dup3\n        /* \"#utility.yul\":15588:15595   */\n      dup5\n        /* \"#utility.yul\":15584:15607   */\n      sub\n        /* \"#utility.yul\":15580:15612   */\n      slt\n        /* \"#utility.yul\":15577:15696   */\n      iszero\n      tag_392\n      jumpi\n        /* \"#utility.yul\":15615:15694   */\n      tag_393\n      tag_138\n      jump\t// in\n    tag_393:\n        /* \"#utility.yul\":15577:15696   */\n    tag_392:\n        /* \"#utility.yul\":15735:15736   */\n      0x00\n        /* \"#utility.yul\":15760:15821   */\n      tag_394\n        /* \"#utility.yul\":15813:15820   */\n      dup5\n        /* \"#utility.yul\":15804:15810   */\n      dup3\n        /* \"#utility.yul\":15793:15802   */\n      dup6\n        /* \"#utility.yul\":15789:15811   */\n      add\n        /* \"#utility.yul\":15760:15821   */\n      tag_186\n      jump\t// in\n    tag_394:\n        /* \"#utility.yul\":15750:15821   */\n      swap2\n      pop\n        /* \"#utility.yul\":15706:15831   */\n      pop\n        /* \"#utility.yul\":15493:15838   */\n      swap3\n      swap2\n      pop\n      pop\n      jump\t// out\n        /* \"#utility.yul\":15844:16004   */\n    tag_187:\n        /* \"#utility.yul\":15984:15996   */\n      0x4f6e6c79206f776e657200000000000000000000000000000000000000000000\n        /* \"#utility.yul\":15980:15981   */\n      0x00\n        /* \"#utility.yul\":15972:15978   */\n      dup3\n        /* \"#utility.yul\":15968:15982   */\n      add\n        /* \"#utility.yul\":15961:15997   */\n      mstore\n        /* \"#utility.yul\":15844:16004   */\n      pop\n      jump\t// out\n        /* \"#utility.yul\":16010:16376   */\n    tag_188:\n        /* \"#utility.yul\":16152:16155   */\n      0x00\n        /* \"#utility.yul\":16173:16240   */\n      tag_397\n        /* \"#utility.yul\":16237:16239   */\n      0x0a\n        /* \"#utility.yul\":16232:16235   */\n      dup4\n        /* \"#utility.yul\":16173:16240   */\n      tag_151\n      jump\t// in\n    tag_397:\n        /* \"#utility.yul\":16166:16240   */\n      swap2\n      pop\n        /* \"#utility.yul\":16249:16342   */\n      tag_398\n        /* \"#utility.yul\":16338:16341   */\n      dup3\n        /* \"#utility.yul\":16249:16342   */\n      tag_187\n      jump\t// in\n    tag_398:\n        /* \"#utility.yul\":16367:16369   */\n      0x20\n        /* \"#utility.yul\":16362:16365   */\n      dup3\n        /* \"#utility.yul\":16358:16370   */\n      add\n        /* \"#utility.yul\":16351:16370   */\n      swap1\n      pop\n        /* \"#utility.yul\":16010:16376   */\n      swap2\n      swap1\n      pop\n      jump\t// out\n        /* \"#utility.yul\":16382:16801   */\n    tag_94:\n        /* \"#utility.yul\":16548:16552   */\n      0x00\n        /* \"#utility.yul\":16586:16588   */\n      0x20\n        /* \"#utility.yul\":16575:16584   */\n      dup3\n        /* \"#utility.yul\":16571:16589   */\n      add\n        /* \"#utility.yul\":16563:16589   */\n      swap1\n      pop\n        /* \"#utility.yul\":16635:16644   */\n      dup2\n        /* \"#utility.yul\":16629:16633   */\n      dup2\n        /* \"#utility.yul\":16625:16645   */\n      sub\n        /* \"#utility.yul\":16621:16622   */\n      0x00\n        /* \"#utility.yul\":16610:16619   */\n      dup4\n        /* \"#utility.yul\":16606:16623   */\n      add\n        /* \"#utility.yul\":16599:16646   */\n      mstore\n        /* \"#utility.yul\":16663:16794   */\n      tag_400\n        /* \"#utility.yul\":16789:16793   */\n      dup2\n        /* \"#utility.yul\":16663:16794   */\n      tag_188\n      jump\t// in\n    tag_400:\n        /* \"#utility.yul\":16655:16794   */\n      swap1\n      pop\n        /* \"#utility.yul\":16382:16801   */\n      swap2\n      swap1\n      pop\n      jump\t// out\n        /* \"#utility.yul\":16807:17207   */\n    tag_114:\n        /* \"#utility.yul\":16962:16966   */\n      0x00\n        /* \"#utility.yul\":17000:17002   */\n      0x40\n        /* \"#utility.yul\":16989:16998   */\n      dup3\n        /* \"#utility.yul\":16985:17003   */\n      add\n        /* \"#utility.yul\":16977:17003   */\n      swap1\n      pop\n        /* \"#utility.yul\":17013:17101   */\n      tag_402\n        /* \"#utility.yul\":17098:17099   */\n      0x00\n        /* \"#utility.yul\":17087:17096   */\n      dup4\n        /* \"#utility.yul\":17083:17100   */\n      add\n        /* \"#utility.yul\":17074:17080   */\n      dup6\n        /* \"#utility.yul\":17013:17101   */\n      tag_160\n      jump\t// in\n    tag_402:\n        /* \"#utility.yul\":17111:17200   */\n      tag_403\n        /* \"#utility.yul\":17196:17198   */\n      0x20\n        /* \"#utility.yul\":17185:17194   */\n      dup4\n        /* \"#utility.yul\":17181:17199   */\n      add\n        /* \"#utility.yul\":17172:17178   */\n      dup5\n        /* \"#utility.yul\":17111:17200   */\n      tag_160\n      jump\t// in\n    tag_403:\n        /* \"#utility.yul\":16807:17207   */\n      swap4\n      swap3\n      pop\n      pop\n      pop\n      jump\t// out\n        /* \"#utility.yul\":17213:17381   */\n    tag_189:\n        /* \"#utility.yul\":17353:17373   */\n      0x72657175657374206e6f74206578697374730000000000000000000000000000\n        /* \"#utility.yul\":17349:17350   */\n      0x00\n        /* \"#utility.yul\":17341:17347   */\n      dup3\n        /* \"#utility.yul\":17337:17351   */\n      add\n        /* \"#utility.yul\":17330:17374   */\n      mstore\n        /* \"#utility.yul\":17213:17381   */\n      pop\n      jump\t// out\n        /* \"#utility.yul\":17387:17753   */\n    tag_190:\n        /* \"#utility.yul\":17529:17532   */\n      0x00\n        /* \"#utility.yul\":17550:17617   */\n      tag_406\n        /* \"#utility.yul\":17614:17616   */\n      0x12\n        /* \"#utility.yul\":17609:17612   */\n      dup4\n        /* \"#utility.yul\":17550:17617   */\n      tag_151\n      jump\t// in\n    tag_406:\n        /* \"#utility.yul\":17543:17617   */\n      swap2\n      pop\n        /* \"#utility.yul\":17626:17719   */\n      tag_407\n        /* \"#utility.yul\":17715:17718   */\n      dup3\n        /* \"#utility.yul\":17626:17719   */\n      tag_189\n      jump\t// in\n    tag_407:\n        /* \"#utility.yul\":17744:17746   */\n      0x20\n        /* \"#utility.yul\":17739:17742   */\n      dup3\n        /* \"#utility.yul\":17735:17747   */\n      add\n        /* \"#utility.yul\":17728:17747   */\n      swap1\n      pop\n        /* \"#utility.yul\":17387:17753   */\n      swap2\n      swap1\n      pop\n      jump\t// out\n        /* \"#utility.yul\":17759:18178   */\n    tag_118:\n        /* \"#utility.yul\":17925:17929   */\n      0x00\n        /* \"#utility.yul\":17963:17965   */\n      0x20\n        /* \"#utility.yul\":17952:17961   */\n      dup3\n        /* \"#utility.yul\":17948:17966   */\n      add\n        /* \"#utility.yul\":17940:17966   */\n      swap1\n      pop\n        /* \"#utility.yul\":18012:18021   */\n      dup2\n        /* \"#utility.yul\":18006:18010   */\n      dup2\n        /* \"#utility.yul\":18002:18022   */\n      sub\n        /* \"#utility.yul\":17998:17999   */\n      0x00\n        /* \"#utility.yul\":17987:17996   */\n      dup4\n        /* \"#utility.yul\":17983:18000   */\n      add\n        /* \"#utility.yul\":17976:18023   */\n      mstore\n        /* \"#utility.yul\":18040:18171   */\n      tag_409\n        /* \"#utility.yul\":18166:18170   */\n      dup2\n        /* \"#utility.yul\":18040:18171   */\n      tag_190\n      jump\t// in\n    tag_409:\n        /* \"#utility.yul\":18032:18171   */\n      swap1\n      pop\n        /* \"#utility.yul\":17759:18178   */\n      swap2\n      swap1\n      pop\n      jump\t// out\n        /* \"#utility.yul\":18184:18280   */\n    tag_191:\n        /* \"#utility.yul\":18242:18248   */\n      0x00\n        /* \"#utility.yul\":18270:18273   */\n      dup3\n        /* \"#utility.yul\":18260:18273   */\n      swap1\n      pop\n        /* \"#utility.yul\":18184:18280   */\n      swap3\n      swap2\n      pop\n      pop\n      jump\t// out\n        /* \"#utility.yul\":18286:18426   */\n    tag_192:\n        /* \"#utility.yul\":18334:18338   */\n      0x00\n        /* \"#utility.yul\":18357:18360   */\n      dup2\n        /* \"#utility.yul\":18349:18360   */\n      swap1\n      pop\n        /* \"#utility.yul\":18380:18383   */\n      dup2\n        /* \"#utility.yul\":18377:18378   */\n      0x00\n        /* \"#utility.yul\":18370:18384   */\n      mstore\n        /* \"#utility.yul\":18414:18418   */\n      0x20\n        /* \"#utility.yul\":18411:18412   */\n      0x00\n        /* \"#utility.yul\":18401:18419   */\n      keccak256\n        /* \"#utility.yul\":18393:18419   */\n      swap1\n      pop\n        /* \"#utility.yul\":18286:18426   */\n      swap2\n      swap1\n      pop\n      jump\t// out\n        /* \"#utility.yul\":18432:18525   */\n    tag_193:\n        /* \"#utility.yul\":18469:18475   */\n      0x00\n        /* \"#utility.yul\":18516:18518   */\n      0x20\n        /* \"#utility.yul\":18511:18513   */\n      0x1f\n        /* \"#utility.yul\":18504:18509   */\n      dup4\n        /* \"#utility.yul\":18500:18514   */\n      add\n        /* \"#utility.yul\":18496:18519   */\n      div\n        /* \"#utility.yul\":18486:18519   */\n      swap1\n      pop\n        /* \"#utility.yul\":18432:18525   */\n      swap2\n      swap1\n      pop\n      jump\t// out\n        /* \"#utility.yul\":18531:18638   */\n    tag_194:\n        /* \"#utility.yul\":18575:18583   */\n      0x00\n        /* \"#utility.yul\":18625:18630   */\n      dup3\n        /* \"#utility.yul\":18619:18623   */\n      dup3\n        /* \"#utility.yul\":18615:18631   */\n      shl\n        /* \"#utility.yul\":18594:18631   */\n      swap1\n      pop\n        /* \"#utility.yul\":18531:18638   */\n      swap3\n      swap2\n      pop\n      pop\n      jump\t// out\n        /* \"#utility.yul\":18644:19037   */\n    tag_195:\n        /* \"#utility.yul\":18713:18719   */\n      0x00\n        /* \"#utility.yul\":18763:18764   */\n      0x08\n        /* \"#utility.yul\":18751:18761   */\n      dup4\n        /* \"#utility.yul\":18747:18765   */\n      mul\n        /* \"#utility.yul\":18786:18883   */\n      tag_415\n        /* \"#utility.yul\":18816:18882   */\n      0xffffffffffffffffffffffffffffffffffffffffffffffffffffffffffffffff\n        /* \"#utility.yul\":18805:18814   */\n      dup3\n        /* \"#utility.yul\":18786:18883   */\n      tag_194\n      jump\t// in\n    tag_415:\n        /* \"#utility.yul\":18904:18943   */\n      tag_416\n        /* \"#utility.yul\":18934:18942   */\n      dup7\n        /* \"#utility.yul\":18923:18932   */\n      dup4\n        /* \"#utility.yul\":18904:18943   */\n      tag_194\n      jump\t// in\n    tag_416:\n        /* \"#utility.yul\":18892:18943   */\n      swap6\n      pop\n        /* \"#utility.yul\":18976:18980   */\n      dup1\n        /* \"#utility.yul\":18972:18981   */\n      not\n        /* \"#utility.yul\":18965:18970   */\n      dup5\n        /* \"#utility.yul\":18961:18982   */\n      and\n        /* \"#utility.yul\":18952:18982   */\n      swap4\n      pop\n        /* \"#utility.yul\":19025:19029   */\n      dup1\n        /* \"#utility.yul\":19015:19023   */\n      dup7\n        /* \"#utility.yul\":19011:19030   */\n      and\n        /* \"#utility.yul\":19004:19009   */\n      dup5\n        /* \"#utility.yul\":19001:19031   */\n      or\n        /* \"#utility.yul\":18991:19031   */\n      swap3\n      pop\n        /* \"#utility.yul\":18720:19037   */\n      pop\n      pop\n        /* \"#utility.yul\":18644:19037   */\n      swap4\n      swap3\n      pop\n      pop\n      pop\n      jump\t// out\n        /* \"#utility.yul\":19043:19185   */\n    tag_196:\n        /* \"#utility.yul\":19093:19102   */\n      0x00\n        /* \"#utility.yul\":19126:19179   */\n      tag_418\n        /* \"#utility.yul\":19144:19178   */\n      tag_419\n        /* \"#utility.yul\":19153:19177   */\n      tag_420\n        /* \"#utility.yul\":19171:19176   */\n      dup5\n        /* \"#utility.yul\":19153:19177   */\n      tag_140\n      jump\t// in\n    tag_420:\n        /* \"#utility.yul\":19144:19178   */\n      tag_156\n      jump\t// in\n    tag_419:\n        /* \"#utility.yul\":19126:19179   */\n      tag_140\n      jump\t// in\n    tag_418:\n        /* \"#utility.yul\":19113:19179   */\n      swap1\n      pop\n        /* \"#utility.yul\":19043:19185   */\n      swap2\n      swap1\n      pop\n      jump\t// out\n        /* \"#utility.yul\":19191:19266   */\n    tag_197:\n        /* \"#utility.yul\":19234:19237   */\n      0x00\n        /* \"#utility.yul\":19255:19260   */\n      dup2\n        /* \"#utility.yul\":19248:19260   */\n      swap1\n      pop\n        /* \"#utility.yul\":19191:19266   */\n      swap2\n      swap1\n      pop\n      jump\t// out\n        /* \"#utility.yul\":19272:19541   */\n    tag_198:\n        /* \"#utility.yul\":19382:19421   */\n      tag_423\n        /* \"#utility.yul\":19413:19420   */\n      dup4\n        /* \"#utility.yul\":19382:19421   */\n      tag_196\n      jump\t// in\n    tag_423:\n        /* \"#utility.yul\":19443:19534   */\n      tag_424\n        /* \"#utility.yul\":19492:19533   */\n      tag_425\n        /* \"#utility.yul\":19516:19532   */\n      dup3\n        /* \"#utility.yul\":19492:19533   */\n      tag_197\n      jump\t// in\n    tag_425:\n        /* \"#utility.yul\":19484:19490   */\n      dup5\n        /* \"#utility.yul\":19477:19481   */\n      dup5\n        /* \"#utility.yul\":19471:19482   */\n      sload\n        /* \"#utility.yul\":19443:19534   */\n      tag_195\n      jump\t// in\n    tag_424:\n        /* \"#utility.yul\":19437:19441   */\n      dup3\n        /* \"#utility.yul\":19430:19535   */\n      sstore\n        /* \"#utility.yul\":19348:19541   */\n      pop\n        /* \"#utility.yul\":19272:19541   */\n      pop\n      pop\n      pop\n      jump\t// out\n        /* \"#utility.yul\":19547:19620   */\n    tag_199:\n        /* \"#utility.yul\":19592:19595   */\n      0x00\n        /* \"#utility.yul\":19547:19620   */\n      swap1\n      jump\t// out\n        /* \"#utility.yul\":19626:19815   */\n    tag_200:\n        /* \"#utility.yul\":19703:19735   */\n      tag_428\n      tag_199\n      jump\t// in\n    tag_428:\n        /* \"#utility.yul\":19744:19809   */\n      tag_429\n        /* \"#utility.yul\":19802:19808   */\n      dup2\n        /* \"#utility.yul\":19794:19800   */\n      dup5\n        /* \"#utility.yul\":19788:19792   */\n      dup5\n        /* \"#utility.yul\":19744:19809   */\n      tag_198\n      jump\t// in\n    tag_429:\n        /* \"#utility.yul\":19679:19815   */\n      pop\n        /* \"#utility.yul\":19626:19815   */\n      pop\n      pop\n      jump\t// out\n        /* \"#utility.yul\":19821:20007   */\n    tag_201:\n        /* \"#utility.yul\":19881:20001   */\n    tag_431:\n        /* \"#utility.yul\":19898:19901   */\n      dup2\n        /* \"#utility.yul\":19891:19896   */\n      dup2\n        /* \"#utility.yul\":19888:19902   */\n      lt\n        /* \"#utility.yul\":19881:20001   */\n      iszero\n      tag_433\n      jumpi\n        /* \"#utility.yul\":19952:19991   */\n      tag_434\n        /* \"#utility.yul\":19989:19990   */\n      0x00\n        /* \"#utility.yul\":19982:19987   */\n      dup3\n        /* \"#utility.yul\":19952:19991   */\n      tag_200\n      jump\t// in\n    tag_434:\n        /* \"#utility.yul\":19925:19926   */\n      0x01\n        /* \"#utility.yul\":19918:19923   */\n      dup2\n        /* \"#utility.yul\":19914:19927   */\n      add\n        /* \"#utility.yul\":19905:19927   */\n      swap1\n      pop\n        /* \"#utility.yul\":19881:20001   */\n      jump(tag_431)\n    tag_433:\n        /* \"#utility.yul\":19821:20007   */\n      pop\n      pop\n      jump\t// out\n        /* \"#utility.yul\":20013:20554   */\n    tag_202:\n        /* \"#utility.yul\":20113:20115   */\n      0x1f\n        /* \"#utility.yul\":20108:20111   */\n      dup3\n        /* \"#utility.yul\":20105:20116   */\n      gt\n        /* \"#utility.yul\":20102:20547   */\n      iszero\n      tag_436\n      jumpi\n        /* \"#utility.yul\":20147:20184   */\n      tag_437\n        /* \"#utility.yul\":20178:20183   */\n      dup2\n        /* \"#utility.yul\":20147:20184   */\n      tag_192\n      jump\t// in\n    tag_437:\n        /* \"#utility.yul\":20230:20259   */\n      tag_438\n        /* \"#utility.yul\":20248:20258   */\n      dup5\n        /* \"#utility.yul\":20230:20259   */\n      tag_193\n      jump\t// in\n    tag_438:\n        /* \"#utility.yul\":20220:20228   */\n      dup2\n        /* \"#utility.yul\":20216:20260   */\n      add\n        /* \"#utility.yul\":20413:20415   */\n      0x20\n        /* \"#utility.yul\":20401:20411   */\n      dup6\n        /* \"#utility.yul\":20398:20416   */\n      lt\n        /* \"#utility.yul\":20395:20444   */\n      iszero\n      tag_439\n      jumpi\n        /* \"#utility.yul\":20434:20442   */\n      dup2\n        /* \"#utility.yul\":20419:20442   */\n      swap1\n      pop\n        /* \"#utility.yul\":20395:20444   */\n    tag_439:\n        /* \"#utility.yul\":20457:20537   */\n      tag_440\n        /* \"#utility.yul\":20513:20535   */\n      tag_441\n        /* \"#utility.yul\":20531:20534   */\n      dup6\n        /* \"#utility.yul\":20513:20535   */\n      tag_193\n      jump\t// in\n    tag_441:\n        /* \"#utility.yul\":20503:20511   */\n      dup4\n        /* \"#utility.yul\":20499:20536   */\n      add\n        /* \"#utility.yul\":20486:20497   */\n      dup3\n        /* \"#utility.yul\":20457:20537   */\n      tag_201\n      jump\t// in\n    tag_440:\n        /* \"#utility.yul\":20117:20547   */\n      pop\n      pop\n        /* \"#utility.yul\":20102:20547   */\n    tag_436:\n        /* \"#utility.yul\":20013:20554   */\n      pop\n      pop\n      pop\n      jump\t// out\n        /* \"#utility.yul\":20560:20677   */\n    tag_203:\n        /* \"#utility.yul\":20614:20622   */\n      0x00\n        /* \"#utility.yul\":20664:20669   */\n      dup3\n        /* \"#utility.yul\":20658:20662   */\n      dup3\n        /* \"#utility.yul\":20654:20670   */\n      shr\n        /* \"#utility.yul\":20633:20670   */\n      swap1\n      pop\n        /* \"#utility.yul\":20560:20677   */\n      swap3\n      swap2\n      pop\n      pop\n      jump\t// out\n        /* \"#utility.yul\":20683:20852   */\n    tag_204:\n        /* \"#utility.yul\":20727:20733   */\n      0x00\n        /* \"#utility.yul\":20760:20811   */\n      tag_444\n        /* \"#utility.yul\":20808:20809   */\n      0x00\n        /* \"#utility.yul\":20804:20810   */\n      not\n        /* \"#utility.yul\":20796:20801   */\n      dup5\n        /* \"#utility.yul\":20793:20794   */\n      0x08\n        /* \"#utility.yul\":20789:20802   */\n      mul\n        /* \"#utility.yul\":20760:20811   */\n      tag_203\n      jump\t// in\n    tag_444:\n        /* \"#utility.yul\":20756:20812   */\n      not\n        /* \"#utility.yul\":20841:20845   */\n      dup1\n        /* \"#utility.yul\":20835:20839   */\n      dup4\n        /* \"#utility.yul\":20831:20846   */\n      and\n        /* \"#utility.yul\":20821:20846   */\n      swap2\n      pop\n        /* \"#utility.yul\":20734:20852   */\n      pop\n        /* \"#utility.yul\":20683:20852   */\n      swap3\n      swap2\n      pop\n      pop\n      jump\t// out\n        /* \"#utility.yul\":20857:21152   */\n    tag_205:\n        /* \"#utility.yul\":20933:20937   */\n      0x00\n        /* \"#utility.yul\":21079:21108   */\n      tag_446\n        /* \"#utility.yul\":21104:21107   */\n      dup4\n        /* \"#utility.yul\":21098:21102   */\n      dup4\n        /* \"#utility.yul\":21079:21108   */\n      tag_204\n      jump\t// in\n    tag_446:\n        /* \"#utility.yul\":21071:21108   */\n      swap2\n      pop\n        /* \"#utility.yul\":21141:21144   */\n      dup3\n        /* \"#utility.yul\":21138:21139   */\n      0x02\n        /* \"#utility.yul\":21134:21145   */\n      mul\n        /* \"#utility.yul\":21128:21132   */\n      dup3\n        /* \"#utility.yul\":21125:21146   */\n      or\n        /* \"#utility.yul\":21117:21146   */\n      swap1\n      pop\n        /* \"#utility.yul\":20857:21152   */\n      swap3\n      swap2\n      pop\n      pop\n      jump\t// out\n        /* \"#utility.yul\":21157:22555   */\n    tag_120:\n        /* \"#utility.yul\":21279:21322   */\n      tag_448\n        /* \"#utility.yul\":21318:21321   */\n      dup4\n        /* \"#utility.yul\":21313:21316   */\n      dup4\n        /* \"#utility.yul\":21279:21322   */\n      tag_191\n      jump\t// in\n    tag_448:\n        /* \"#utility.yul\":21387:21405   */\n      0xffffffffffffffff\n        /* \"#utility.yul\":21379:21385   */\n      dup2\n        /* \"#utility.yul\":21376:21406   */\n      gt\n        /* \"#utility.yul\":21373:21429   */\n      iszero\n      tag_449\n      jumpi\n        /* \"#utility.yul\":21409:21427   */\n      tag_450\n      tag_171\n      jump\t// in\n    tag_450:\n        /* \"#utility.yul\":21373:21429   */\n    tag_449:\n        /* \"#utility.yul\":21453:21491   */\n      tag_451\n        /* \"#utility.yul\":21485:21489   */\n      dup3\n        /* \"#utility.yul\":21479:21490   */\n      sload\n        /* \"#utility.yul\":21453:21491   */\n      tag_80\n      jump\t// in\n    tag_451:\n        /* \"#utility.yul\":21538:21604   */\n      tag_452\n        /* \"#utility.yul\":21597:21603   */\n      dup3\n        /* \"#utility.yul\":21589:21595   */\n      dup3\n        /* \"#utility.yul\":21583:21587   */\n      dup6\n        /* \"#utility.yul\":21538:21604   */\n      tag_202\n      jump\t// in\n    tag_452:\n        /* \"#utility.yul\":21631:21632   */\n      0x00\n        /* \"#utility.yul\":21660:21662   */\n      0x1f\n        /* \"#utility.yul\":21652:21658   */\n      dup4\n        /* \"#utility.yul\":21649:21663   */\n      gt\n        /* \"#utility.yul\":21677:21678   */\n      0x01\n        /* \"#utility.yul\":21672:22303   */\n      dup2\n      eq\n      tag_454\n      jumpi\n        /* \"#utility.yul\":22347:22348   */\n      0x00\n        /* \"#utility.yul\":22364:22370   */\n      dup5\n        /* \"#utility.yul\":22361:22445   */\n      iszero\n      tag_455\n      jumpi\n        /* \"#utility.yul\":22420:22429   */\n      dup3\n        /* \"#utility.yul\":22415:22418   */\n      dup8\n        /* \"#utility.yul\":22411:22430   */\n      add\n        /* \"#utility.yul\":22398:22431   */\n      calldataload\n        /* \"#utility.yul\":22389:22431   */\n      swap1\n      pop\n        /* \"#utility.yul\":22361:22445   */\n    tag_455:\n        /* \"#utility.yul\":22471:22538   */\n      tag_456\n        /* \"#utility.yul\":22531:22537   */\n      dup6\n        /* \"#utility.yul\":22524:22529   */\n      dup3\n        /* \"#utility.yul\":22471:22538   */\n      tag_205\n      jump\t// in\n    tag_456:\n        /* \"#utility.yul\":22465:22469   */\n      dup7\n        /* \"#utility.yul\":22458:22539   */\n      sstore\n        /* \"#utility.yul\":22320:22549   */\n      pop\n        /* \"#utility.yul\":21642:22549   */\n      jump(tag_453)\n        /* \"#utility.yul\":21672:22303   */\n    tag_454:\n        /* \"#utility.yul\":21724:21728   */\n      0x1f\n        /* \"#utility.yul\":21720:21729   */\n      not\n        /* \"#utility.yul\":21712:21718   */\n      dup5\n        /* \"#utility.yul\":21708:21730   */\n      and\n        /* \"#utility.yul\":21758:21794   */\n      tag_457\n        /* \"#utility.yul\":21789:21793   */\n      dup7\n        /* \"#utility.yul\":21758:21794   */\n      tag_192\n      jump\t// in\n    tag_457:\n        /* \"#utility.yul\":21816:21817   */\n      0x00\n        /* \"#utility.yul\":21830:22045   */\n    tag_458:\n        /* \"#utility.yul\":21844:21851   */\n      dup3\n        /* \"#utility.yul\":21841:21842   */\n      dup2\n        /* \"#utility.yul\":21838:21852   */\n      lt\n        /* \"#utility.yul\":21830:22045   */\n      iszero\n      tag_460\n      jumpi\n        /* \"#utility.yul\":21930:21939   */\n      dup5\n        /* \"#utility.yul\":21925:21928   */\n      dup10\n        /* \"#utility.yul\":21921:21940   */\n      add\n        /* \"#utility.yul\":21908:21941   */\n      calldataload\n        /* \"#utility.yul\":21900:21906   */\n      dup3\n        /* \"#utility.yul\":21893:21942   */\n      sstore\n        /* \"#utility.yul\":21981:21982   */\n      0x01\n        /* \"#utility.yul\":21973:21979   */\n      dup3\n        /* \"#utility.yul\":21969:21983   */\n      add\n        /* \"#utility.yul\":21959:21983   */\n      swap2\n      pop\n        /* \"#utility.yul\":22028:22030   */\n      0x20\n        /* \"#utility.yul\":22017:22026   */\n      dup6\n        /* \"#utility.yul\":22013:22031   */\n      add\n        /* \"#utility.yul\":22000:22031   */\n      swap5\n      pop\n        /* \"#utility.yul\":21867:21871   */\n      0x20\n        /* \"#utility.yul\":21864:21865   */\n      dup2\n        /* \"#utility.yul\":21860:21872   */\n      add\n        /* \"#utility.yul\":21855:21872   */\n      swap1\n      pop\n        /* \"#utility.yul\":21830:22045   */\n      jump(tag_458)\n    tag_460:\n        /* \"#utility.yul\":22073:22079   */\n      dup7\n        /* \"#utility.yul\":22064:22071   */\n      dup4\n        /* \"#utility.yul\":22061:22080   */\n      lt\n        /* \"#utility.yul\":22058:22244   */\n      iszero\n      tag_461\n      jumpi\n        /* \"#utility.yul\":22138:22147   */\n      dup5\n        /* \"#utility.yul\":22133:22136   */\n      dup10\n        /* \"#utility.yul\":22129:22148   */\n      add\n        /* \"#utility.yul\":22116:22149   */\n      calldataload\n        /* \"#utility.yul\":22181:22229   */\n      tag_462\n        /* \"#utility.yul\":22223:22227   */\n      0x1f\n        /* \"#utility.yul\":22215:22221   */\n      dup10\n        /* \"#utility.yul\":22211:22228   */\n      and\n        /* \"#utility.yul\":22200:22209   */\n      dup3\n        /* \"#utility.yul\":22181:22229   */\n      tag_204\n      jump\t// in\n    tag_462:\n        /* \"#utility.yul\":22173:22179   */\n      dup4\n        /* \"#utility.yul\":22166:22230   */\n      sstore\n        /* \"#utility.yul\":22081:22244   */\n      pop\n        /* \"#utility.yul\":22058:22244   */\n    tag_461:\n        /* \"#utility.yul\":22290:22291   */\n      0x01\n        /* \"#utility.yul\":22286:22287   */\n      0x02\n        /* \"#utility.yul\":22278:22284   */\n      dup9\n        /* \"#utility.yul\":22274:22288   */\n      mul\n        /* \"#utility.yul\":22270:22292   */\n      add\n        /* \"#utility.yul\":22264:22268   */\n      dup9\n        /* \"#utility.yul\":22257:22293   */\n      sstore\n        /* \"#utility.yul\":21679:22303   */\n      pop\n      pop\n      pop\n        /* \"#utility.yul\":21642:22549   */\n    tag_453:\n      pop\n        /* \"#utility.yul\":21254:22555   */\n      pop\n      pop\n      pop\n        /* \"#utility.yul\":21157:22555   */\n      pop\n      pop\n      pop\n      jump\t// out\n        /* \"#utility.yul\":22561:22706   */\n    tag_206:\n        /* \"#utility.yul\":22614:22618   */\n      0x00\n        /* \"#utility.yul\":22637:22640   */\n      dup2\n        /* \"#utility.yul\":22629:22640   */\n      swap1\n      pop\n        /* \"#utility.yul\":22660:22663   */\n      dup2\n        /* \"#utility.yul\":22657:22658   */\n      0x00\n        /* \"#utility.yul\":22650:22664   */\n      mstore\n        /* \"#utility.yul\":22694:22698   */\n      0x20\n        /* \"#utility.yul\":22691:22692   */\n      0x00\n        /* \"#utility.yul\":22681:22699   */\n      keccak256\n        /* \"#utility.yul\":22673:22699   */\n      swap1\n      pop\n        /* \"#utility.yul\":22561:22706   */\n      swap2\n      swap1\n      pop\n      jump\t// out\n        /* \"#utility.yul\":22736:23618   */\n    tag_207:\n        /* \"#utility.yul\":22843:22846   */\n      0x00\n        /* \"#utility.yul\":22880:22885   */\n      dup2\n        /* \"#utility.yul\":22874:22886   */\n      sload\n        /* \"#utility.yul\":22909:22945   */\n      tag_465\n        /* \"#utility.yul\":22935:22944   */\n      dup2\n        /* \"#utility.yul\":22909:22945   */\n      tag_80\n      jump\t// in\n    tag_465:\n        /* \"#utility.yul\":22961:23050   */\n      tag_466\n        /* \"#utility.yul\":23043:23049   */\n      dup2\n        /* \"#utility.yul\":23038:23041   */\n      dup7\n        /* \"#utility.yul\":22961:23050   */\n      tag_182\n      jump\t// in\n    tag_466:\n        /* \"#utility.yul\":22954:23050   */\n      swap5\n      pop\n        /* \"#utility.yul\":23081:23082   */\n      0x01\n        /* \"#utility.yul\":23070:23079   */\n      dup3\n        /* \"#utility.yul\":23066:23083   */\n      and\n        /* \"#utility.yul\":23097:23098   */\n      0x00\n        /* \"#utility.yul\":23092:23258   */\n      dup2\n      eq\n      tag_468\n      jumpi\n        /* \"#utility.yul\":23272:23273   */\n      0x01\n        /* \"#utility.yul\":23267:23612   */\n      dup2\n      eq\n      tag_469\n      jumpi\n        /* \"#utility.yul\":23059:23612   */\n      jump(tag_467)\n        /* \"#utility.yul\":23092:23258   */\n    tag_468:\n        /* \"#utility.yul\":23176:23180   */\n      0xff\n        /* \"#utility.yul\":23172:23181   */\n      not\n        /* \"#utility.yul\":23161:23170   */\n      dup4\n        /* \"#utility.yul\":23157:23182   */\n      and\n        /* \"#utility.yul\":23152:23155   */\n      dup7\n        /* \"#utility.yul\":23145:23183   */\n      mstore\n        /* \"#utility.yul\":23238:23244   */\n      dup2\n        /* \"#utility.yul\":23231:23245   */\n      iszero\n        /* \"#utility.yul\":23224:23246   */\n      iszero\n        /* \"#utility.yul\":23216:23222   */\n      dup3\n        /* \"#utility.yul\":23212:23247   */\n      mul\n        /* \"#utility.yul\":23207:23210   */\n      dup7\n        /* \"#utility.yul\":23203:23248   */\n      add\n        /* \"#utility.yul\":23196:23248   */\n      swap4\n      pop\n        /* \"#utility.yul\":23092:23258   */\n      jump(tag_467)\n        /* \"#utility.yul\":23267:23612   */\n    tag_469:\n        /* \"#utility.yul\":23334:23376   */\n      tag_470\n        /* \"#utility.yul\":23370:23375   */\n      dup6\n        /* \"#utility.yul\":23334:23376   */\n      tag_206\n      jump\t// in\n    tag_470:\n        /* \"#utility.yul\":23398:23399   */\n      0x00\n        /* \"#utility.yul\":23412:23566   */\n    tag_471:\n        /* \"#utility.yul\":23426:23432   */\n      dup4\n        /* \"#utility.yul\":23423:23424   */\n      dup2\n        /* \"#utility.yul\":23420:23433   */\n      lt\n        /* \"#utility.yul\":23412:23566   */\n      iszero\n      tag_473\n      jumpi\n        /* \"#utility.yul\":23500:23507   */\n      dup2\n        /* \"#utility.yul\":23494:23508   */\n      sload\n        /* \"#utility.yul\":23490:23491   */\n      dup2\n        /* \"#utility.yul\":23485:23488   */\n      dup10\n        /* \"#utility.yul\":23481:23492   */\n      add\n        /* \"#utility.yul\":23474:23509   */\n      mstore\n        /* \"#utility.yul\":23550:23551   */\n      0x01\n        /* \"#utility.yul\":23541:23548   */\n      dup3\n        /* \"#utility.yul\":23537:23552   */\n      add\n        /* \"#utility.yul\":23526:23552   */\n      swap2\n      pop\n        /* \"#utility.yul\":23448:23452   */\n      0x20\n        /* \"#utility.yul\":23445:23446   */\n      dup2\n        /* \"#utility.yul\":23441:23453   */\n      add\n        /* \"#utility.yul\":23436:23453   */\n      swap1\n      pop\n        /* \"#utility.yul\":23412:23566   */\n      jump(tag_471)\n    tag_473:\n        /* \"#utility.yul\":23595:23601   */\n      dup4\n        /* \"#utility.yul\":23590:23593   */\n      dup9\n        /* \"#utility.yul\":23586:23602   */\n      add\n        /* \"#utility.yul\":23579:23602   */\n      swap6\n      pop\n        /* \"#utility.yul\":23274:23612   */\n      pop\n      pop\n        /* \"#utility.yul\":23059:23612   */\n    tag_467:\n      pop\n        /* \"#utility.yul\":22847:23618   */\n      pop\n      pop\n        /* \"#utility.yul\":22736:23618   */\n      swap3\n      swap2\n      pop\n      pop\n      jump\t// out\n        /* \"#utility.yul\":23624:23901   */\n    tag_122:\n        /* \"#utility.yul\":23757:23760   */\n      0x00\n        /* \"#utility.yul\":23779:23875   */\n      tag_475\n        /* \"#utility.yul\":23871:23874   */\n      dup3\n        /* \"#utility.yul\":23862:23868   */\n      dup5\n        /* \"#utility.yul\":23779:23875   */\n      tag_207\n      jump\t// in\n    tag_475:\n        /* \"#utility.yul\":23772:23875   */\n      swap2\n      pop\n        /* \"#utility.yul\":23892:23895   */\n      dup2\n        /* \"#utility.yul\":23885:23895   */\n      swap1\n      pop\n        /* \"#utility.yul\":23624:23901   */\n      swap3\n      swap2\n      pop\n      pop\n      jump\t// out\n        /* \"#utility.yul\":23907:24004   */\n    tag_208:\n        /* \"#utility.yul\":23966:23972   */\n      0x00\n        /* \"#utility.yul\":23994:23997   */\n      dup3\n        /* \"#utility.yul\":23984:23997   */\n      swap1\n      pop\n        /* \"#utility.yul\":23907:24004   */\n      swap3\n      swap2\n      pop\n      pop\n      jump\t// out\n        /* \"#utility.yul\":24010:24151   */\n    tag_209:\n        /* \"#utility.yul\":24059:24063   */\n      0x00\n        /* \"#utility.yul\":24082:24085   */\n      dup2\n        /* \"#utility.yul\":24074:24085   */\n      swap1\n      pop\n        /* \"#utility.yul\":24105:24108   */\n      dup2\n        /* \"#utility.yul\":24102:24103   */\n      0x00\n        /* \"#utility.yul\":24095:24109   */\n      mstore\n        /* \"#utility.yul\":24139:24143   */\n      0x20\n        /* \"#utility.yul\":24136:24137   */\n      0x00\n        /* \"#utility.yul\":24126:24144   */\n      keccak256\n        /* \"#utility.yul\":24118:24144   */\n      swap1\n      pop\n        /* \"#utility.yul\":24010:24151   */\n      swap2\n      swap1\n      pop\n      jump\t// out\n        /* \"#utility.yul\":24157:24700   */\n    tag_210:\n        /* \"#utility.yul\":24258:24260   */\n      0x1f\n        /* \"#utility.yul\":24253:24256   */\n      dup3\n        /* \"#utility.yul\":24250:24261   */\n      gt\n        /* \"#utility.yul\":24247:24693   */\n      iszero\n      tag_479\n      jumpi\n        /* \"#utility.yul\":24292:24330   */\n      tag_480\n        /* \"#utility.yul\":24324:24329   */\n      dup2\n        /* \"#utility.yul\":24292:24330   */\n      tag_209\n      jump\t// in\n    tag_480:\n        /* \"#utility.yul\":24376:24405   */\n      tag_481\n        /* \"#utility.yul\":24394:24404   */\n      dup5\n        /* \"#utility.yul\":24376:24405   */\n      tag_193\n      jump\t// in\n    tag_481:\n        /* \"#utility.yul\":24366:24374   */\n      dup2\n        /* \"#utility.yul\":24362:24406   */\n      add\n        /* \"#utility.yul\":24559:24561   */\n      0x20\n        /* \"#utility.yul\":24547:24557   */\n      dup6\n        /* \"#utility.yul\":24544:24562   */\n      lt\n        /* \"#utility.yul\":24541:24590   */\n      iszero\n      tag_482\n      jumpi\n        /* \"#utility.yul\":24580:24588   */\n      dup2\n        /* \"#utility.yul\":24565:24588   */\n      swap1\n      pop\n        /* \"#utility.yul\":24541:24590   */\n    tag_482:\n        /* \"#utility.yul\":24603:24683   */\n      tag_483\n        /* \"#utility.yul\":24659:24681   */\n      tag_484\n        /* \"#utility.yul\":24677:24680   */\n      dup6\n        /* \"#utility.yul\":24659:24681   */\n      tag_193\n      jump\t// in\n    tag_484:\n        /* \"#utility.yul\":24649:24657   */\n      dup4\n        /* \"#utility.yul\":24645:24682   */\n      add\n        /* \"#utility.yul\":24632:24643   */\n      dup3\n        /* \"#utility.yul\":24603:24683   */\n      tag_201\n      jump\t// in\n    tag_483:\n        /* \"#utility.yul\":24262:24693   */\n      pop\n      pop\n        /* \"#utility.yul\":24247:24693   */\n    tag_479:\n        /* \"#utility.yul\":24157:24700   */\n      pop\n      pop\n      pop\n      jump\t// out\n        /* \"#utility.yul\":24706:26109   */\n    tag_124:\n        /* \"#utility.yul\":24830:24874   */\n      tag_486\n        /* \"#utility.yul\":24870:24873   */\n      dup4\n        /* \"#utility.yul\":24865:24868   */\n      dup4\n        /* \"#utility.yul\":24830:24874   */\n      tag_208\n      jump\t// in\n    tag_486:\n        /* \"#utility.yul\":24939:24957   */\n      0xffffffffffffffff\n        /* \"#utility.yul\":24931:24937   */\n      dup2\n        /* \"#utility.yul\":24928:24958   */\n      gt\n        /* \"#utility.yul\":24925:24981   */\n      iszero\n      tag_487\n      jumpi\n        /* \"#utility.yul\":24961:24979   */\n      tag_488\n      tag_171\n      jump\t// in\n    tag_488:\n        /* \"#utility.yul\":24925:24981   */\n    tag_487:\n        /* \"#utility.yul\":25005:25043   */\n      tag_489\n        /* \"#utility.yul\":25037:25041   */\n      dup3\n        /* \"#utility.yul\":25031:25042   */\n      sload\n        /* \"#utility.yul\":25005:25043   */\n      tag_80\n      jump\t// in\n    tag_489:\n        /* \"#utility.yul\":25090:25157   */\n      tag_490\n        /* \"#utility.yul\":25150:25156   */\n      dup3\n        /* \"#utility.yul\":25142:25148   */\n      dup3\n        /* \"#utility.yul\":25136:25140   */\n      dup6\n        /* \"#utility.yul\":25090:25157   */\n      tag_210\n      jump\t// in\n    tag_490:\n        /* \"#utility.yul\":25184:25185   */\n      0x00\n        /* \"#utility.yul\":25213:25215   */\n      0x1f\n        /* \"#utility.yul\":25205:25211   */\n      dup4\n        /* \"#utility.yul\":25202:25216   */\n      gt\n        /* \"#utility.yul\":25230:25231   */\n      0x01\n        /* \"#utility.yul\":25225:25857   */\n      dup2\n      eq\n      tag_492\n      jumpi\n        /* \"#utility.yul\":25901:25902   */\n      0x00\n        /* \"#utility.yul\":25918:25924   */\n      dup5\n        /* \"#utility.yul\":25915:25999   */\n      iszero\n      tag_493\n      jumpi\n        /* \"#utility.yul\":25974:25983   */\n      dup3\n        /* \"#utility.yul\":25969:25972   */\n      dup8\n        /* \"#utility.yul\":25965:25984   */\n      add\n        /* \"#utility.yul\":25952:25985   */\n      calldataload\n        /* \"#utility.yul\":25943:25985   */\n      swap1\n      pop\n        /* \"#utility.yul\":25915:25999   */\n    tag_493:\n        /* \"#utility.yul\":26025:26092   */\n      tag_494\n        /* \"#utility.yul\":26085:26091   */\n      dup6\n        /* \"#utility.yul\":26078:26083   */\n      dup3\n        /* \"#utility.yul\":26025:26092   */\n      tag_205\n      jump\t// in\n    tag_494:\n        /* \"#utility.yul\":26019:26023   */\n      dup7\n        /* \"#utility.yul\":26012:26093   */\n      sstore\n        /* \"#utility.yul\":25874:26103   */\n      pop\n        /* \"#utility.yul\":25195:26103   */\n      jump(tag_491)\n        /* \"#utility.yul\":25225:25857   */\n    tag_492:\n        /* \"#utility.yul\":25277:25281   */\n      0x1f\n        /* \"#utility.yul\":25273:25282   */\n      not\n        /* \"#utility.yul\":25265:25271   */\n      dup5\n        /* \"#utility.yul\":25261:25283   */\n      and\n        /* \"#utility.yul\":25311:25348   */\n      tag_495\n        /* \"#utility.yul\":25343:25347   */\n      dup7\n        /* \"#utility.yul\":25311:25348   */\n      tag_209\n      jump\t// in\n    tag_495:\n        /* \"#utility.yul\":25370:25371   */\n      0x00\n        /* \"#utility.yul\":25384:25599   */\n    tag_496:\n        /* \"#utility.yul\":25398:25405   */\n      dup3\n        /* \"#utility.yul\":25395:25396   */\n      dup2\n        /* \"#utility.yul\":25392:25406   */\n      lt\n        /* \"#utility.yul\":25384:25599   */\n      iszero\n      tag_498\n      jumpi\n        /* \"#utility.yul\":25484:25493   */\n      dup5\n        /* \"#utility.yul\":25479:25482   */\n      dup10\n        /* \"#utility.yul\":25475:25494   */\n      add\n        /* \"#utility.yul\":25462:25495   */\n      calldataload\n        /* \"#utility.yul\":25454:25460   */\n      dup3\n        /* \"#utility.yul\":25447:25496   */\n      sstore\n        /* \"#utility.yul\":25535:25536   */\n      0x01\n        /* \"#utility.yul\":25527:25533   */\n      dup3\n        /* \"#utility.yul\":25523:25537   */\n      add\n        /* \"#utility.yul\":25513:25537   */\n      swap2\n      pop\n        /* \"#utility.yul\":25582:25584   */\n      0x20\n        /* \"#utility.yul\":25571:25580   */\n      dup6\n        /* \"#utility.yul\":25567:25585   */\n      add\n        /* \"#utility.yul\":25554:25585   */\n      swap5\n      pop\n        /* \"#utility.yul\":25421:25425   */\n      0x20\n        /* \"#utility.yul\":25418:25419   */\n      dup2\n        /* \"#utility.yul\":25414:25426   */\n      add\n        /* \"#utility.yul\":25409:25426   */\n      swap1\n      pop\n        /* \"#utility.yul\":25384:25599   */\n      jump(tag_496)\n    tag_498:\n        /* \"#utility.yul\":25627:25633   */\n      dup7\n        /* \"#utility.yul\":25618:25625   */\n      dup4\n        /* \"#utility.yul\":25615:25634   */\n      lt\n        /* \"#utility.yul\":25612:25798   */\n      iszero\n      tag_499\n      jumpi\n        /* \"#utility.yul\":25692:25701   */\n      dup5\n        /* \"#utility.yul\":25687:25690   */\n      dup10\n        /* \"#utility.yul\":25683:25702   */\n      add\n        /* \"#utility.yul\":25670:25703   */\n      calldataload\n        /* \"#utility.yul\":25735:25783   */\n      tag_500\n        /* \"#utility.yul\":25777:25781   */\n      0x1f\n        /* \"#utility.yul\":25769:25775   */\n      dup10\n        /* \"#utility.yul\":25765:25782   */\n      and\n        /* \"#utility.yul\":25754:25763   */\n      dup3\n        /* \"#utility.yul\":25735:25783   */\n      tag_204\n      jump\t// in\n    tag_500:\n        /* \"#utility.yul\":25727:25733   */\n      dup4\n        /* \"#utility.yul\":25720:25784   */\n      sstore\n        /* \"#utility.yul\":25635:25798   */\n      pop\n        /* \"#utility.yul\":25612:25798   */\n    tag_499:\n        /* \"#utility.yul\":25844:25845   */\n      0x01\n        /* \"#utility.yul\":25840:25841   */\n      0x02\n        /* \"#utility.yul\":25832:25838   */\n      dup9\n        /* \"#utility.yul\":25828:25842   */\n      mul\n        /* \"#utility.yul\":25824:25846   */\n      add\n        /* \"#utility.yul\":25818:25822   */\n      dup9\n        /* \"#utility.yul\":25811:25847   */\n      sstore\n        /* \"#utility.yul\":25232:25857   */\n      pop\n      pop\n      pop\n        /* \"#utility.yul\":25195:26103   */\n    tag_491:\n      pop\n        /* \"#utility.yul\":24805:26109   */\n      pop\n      pop\n      pop\n        /* \"#utility.yul\":24706:26109   */\n      pop\n      pop\n      pop\n      jump\t// out\n        /* \"#utility.yul\":26139:26978   */\n    tag_211:\n        /* \"#utility.yul\":26228:26231   */\n      0x00\n        /* \"#utility.yul\":26265:26270   */\n      dup2\n        /* \"#utility.yul\":26259:26271   */\n      sload\n        /* \"#utility.yul\":26294:26330   */\n      tag_502\n        /* \"#utility.yul\":26320:26329   */\n      dup2\n        /* \"#utility.yul\":26294:26330   */\n      tag_80\n      jump\t// in\n    tag_502:\n        /* \"#utility.yul\":26346:26417   */\n      tag_503\n        /* \"#utility.yul\":26410:26416   */\n      dup2\n        /* \"#utility.yul\":26405:26408   */\n      dup7\n        /* \"#utility.yul\":26346:26417   */\n      tag_151\n      jump\t// in\n    tag_503:\n        /* \"#utility.yul\":26339:26417   */\n      swap5\n      pop\n        /* \"#utility.yul\":26448:26449   */\n      0x01\n        /* \"#utility.yul\":26437:26446   */\n      dup3\n        /* \"#utility.yul\":26433:26450   */\n      and\n        /* \"#utility.yul\":26464:26465   */\n      0x00\n        /* \"#utility.yul\":26459:26623   */\n      dup2\n      eq\n      tag_505\n      jumpi\n        /* \"#utility.yul\":26637:26638   */\n      0x01\n        /* \"#utility.yul\":26632:26972   */\n      dup2\n      eq\n      tag_506\n      jumpi\n        /* \"#utility.yul\":26426:26972   */\n      jump(tag_504)\n        /* \"#utility.yul\":26459:26623   */\n    tag_505:\n        /* \"#utility.yul\":26543:26547   */\n      0xff\n        /* \"#utility.yul\":26539:26548   */\n      not\n        /* \"#utility.yul\":26528:26537   */\n      dup4\n        /* \"#utility.yul\":26524:26549   */\n      and\n        /* \"#utility.yul\":26519:26522   */\n      dup7\n        /* \"#utility.yul\":26512:26550   */\n      mstore\n        /* \"#utility.yul\":26603:26609   */\n      dup2\n        /* \"#utility.yul\":26596:26610   */\n      iszero\n        /* \"#utility.yul\":26589:26611   */\n      iszero\n        /* \"#utility.yul\":26583:26587   */\n      0x20\n        /* \"#utility.yul\":26579:26612   */\n      mul\n        /* \"#utility.yul\":26574:26577   */\n      dup7\n        /* \"#utility.yul\":26570:26613   */\n      add\n        /* \"#utility.yul\":26563:26613   */\n      swap4\n      pop\n        /* \"#utility.yul\":26459:26623   */\n      jump(tag_504)\n        /* \"#utility.yul\":26632:26972   */\n    tag_506:\n        /* \"#utility.yul\":26699:26741   */\n      tag_507\n        /* \"#utility.yul\":26735:26740   */\n      dup6\n        /* \"#utility.yul\":26699:26741   */\n      tag_206\n      jump\t// in\n    tag_507:\n        /* \"#utility.yul\":26763:26764   */\n      0x00\n        /* \"#utility.yul\":26777:26931   */\n    tag_508:\n        /* \"#utility.yul\":26791:26797   */\n      dup4\n        /* \"#utility.yul\":26788:26789   */\n      dup2\n        /* \"#utility.yul\":26785:26798   */\n      lt\n        /* \"#utility.yul\":26777:26931   */\n      iszero\n      tag_510\n      jumpi\n        /* \"#utility.yul\":26865:26872   */\n      dup2\n        /* \"#utility.yul\":26859:26873   */\n      sload\n        /* \"#utility.yul\":26855:26856   */\n      dup2\n        /* \"#utility.yul\":26850:26853   */\n      dup10\n        /* \"#utility.yul\":26846:26857   */\n      add\n        /* \"#utility.yul\":26839:26874   */\n      mstore\n        /* \"#utility.yul\":26915:26916   */\n      0x01\n        /* \"#utility.yul\":26906:26913   */\n      dup3\n        /* \"#utility.yul\":26902:26917   */\n      add\n        /* \"#utility.yul\":26891:26917   */\n      swap2\n      pop\n        /* \"#utility.yul\":26813:26817   */\n      0x20\n        /* \"#utility.yul\":26810:26811   */\n      dup2\n        /* \"#utility.yul\":26806:26818   */\n      add\n        /* \"#utility.yul\":26801:26818   */\n      swap1\n      pop\n        /* \"#utility.yul\":26777:26931   */\n      jump(tag_508)\n    tag_510:\n        /* \"#utility.yul\":26960:26961   */\n      dup1\n        /* \"#utility.yul\":26955:26958   */\n      dup9\n        /* \"#utility.yul\":26951:26962   */\n      add\n        /* \"#utility.yul\":26944:26962   */\n      swap6\n      pop\n        /* \"#utility.yul\":26639:26972   */\n      pop\n      pop\n        /* \"#utility.yul\":26426:26972   */\n    tag_504:\n      pop\n        /* \"#utility.yul\":26232:26978   */\n      pop\n      pop\n        /* \"#utility.yul\":26139:26978   */\n      swap3\n      swap2\n      pop\n      pop\n      jump\t// out\n        /* \"#utility.yul\":27008:27325   */\n    tag_212:\n        /* \"#utility.yul\":27106:27109   */\n      0x00\n        /* \"#utility.yul\":27127:27198   */\n      tag_512\n        /* \"#utility.yul\":27191:27197   */\n      dup4\n        /* \"#utility.yul\":27186:27189   */\n      dup6\n        /* \"#utility.yul\":27127:27198   */\n      tag_151\n      jump\t// in\n    tag_512:\n        /* \"#utility.yul\":27120:27198   */\n      swap4\n      pop\n        /* \"#utility.yul\":27208:27264   */\n      tag_513\n        /* \"#utility.yul\":27257:27263   */\n      dup4\n        /* \"#utility.yul\":27252:27255   */\n      dup6\n        /* \"#utility.yul\":27245:27250   */\n      dup5\n        /* \"#utility.yul\":27208:27264   */\n      tag_175\n      jump\t// in\n    tag_513:\n        /* \"#utility.yul\":27289:27318   */\n      tag_514\n        /* \"#utility.yul\":27311:27317   */\n      dup4\n        /* \"#utility.yul\":27289:27318   */\n      tag_153\n      jump\t// in\n    tag_514:\n        /* \"#utility.yul\":27284:27287   */\n      dup5\n        /* \"#utility.yul\":27280:27319   */\n      add\n        /* \"#utility.yul\":27273:27319   */\n      swap1\n      pop\n        /* \"#utility.yul\":27008:27325   */\n      swap4\n      swap3\n      pop\n      pop\n      pop\n      jump\t// out\n        /* \"#utility.yul\":27353:27667   */\n    tag_213:\n        /* \"#utility.yul\":27449:27452   */\n      0x00\n        /* \"#utility.yul\":27470:27540   */\n      tag_516\n        /* \"#utility.yul\":27533:27539   */\n      dup4\n        /* \"#utility.yul\":27528:27531   */\n      dup6\n        /* \"#utility.yul\":27470:27540   */\n      tag_168\n      jump\t// in\n    tag_516:\n        /* \"#utility.yul\":27463:27540   */\n      swap4\n      pop\n        /* \"#utility.yul\":27550:27606   */\n      tag_517\n        /* \"#utility.yul\":27599:27605   */\n      dup4\n        /* \"#utility.yul\":27594:27597   */\n      dup6\n        /* \"#utility.yul\":27587:27592   */\n      dup5\n        /* \"#utility.yul\":27550:27606   */\n      tag_175\n      jump\t// in\n    tag_517:\n        /* \"#utility.yul\":27631:27660   */\n      tag_518\n        /* \"#utility.yul\":27653:27659   */\n      dup4\n        /* \"#utility.yul\":27631:27660   */\n      tag_153\n      jump\t// in\n    tag_518:\n        /* \"#utility.yul\":27626:27629   */\n      dup5\n        /* \"#utility.yul\":27622:27661   */\n      add\n        /* \"#utility.yul\":27615:27661   */\n      swap1\n      pop\n        /* \"#utility.yul\":27353:27667   */\n      swap4\n      swap3\n      pop\n      pop\n      pop\n      jump\t// out\n        /* \"#utility.yul\":27673:28648   */\n    tag_126:\n        /* \"#utility.yul\":27957:27961   */\n      0x00\n        /* \"#utility.yul\":27995:27998   */\n      0xa0\n        /* \"#utility.yul\":27984:27993   */\n      dup3\n        /* \"#utility.yul\":27980:27999   */\n      add\n        /* \"#utility.yul\":27972:27999   */\n      swap1\n      pop\n        /* \"#utility.yul\":28009:28080   */\n      tag_520\n        /* \"#utility.yul\":28077:28078   */\n      0x00\n        /* \"#utility.yul\":28066:28075   */\n      dup4\n        /* \"#utility.yul\":28062:28079   */\n      add\n        /* \"#utility.yul\":28053:28059   */\n      dup11\n        /* \"#utility.yul\":28009:28080   */\n      tag_143\n      jump\t// in\n    tag_520:\n        /* \"#utility.yul\":28090:28162   */\n      tag_521\n        /* \"#utility.yul\":28158:28160   */\n      0x20\n        /* \"#utility.yul\":28147:28156   */\n      dup4\n        /* \"#utility.yul\":28143:28161   */\n      add\n        /* \"#utility.yul\":28134:28140   */\n      dup10\n        /* \"#utility.yul\":28090:28162   */\n      tag_143\n      jump\t// in\n    tag_521:\n        /* \"#utility.yul\":28209:28218   */\n      dup2\n        /* \"#utility.yul\":28203:28207   */\n      dup2\n        /* \"#utility.yul\":28199:28219   */\n      sub\n        /* \"#utility.yul\":28194:28196   */\n      0x40\n        /* \"#utility.yul\":28183:28192   */\n      dup4\n        /* \"#utility.yul\":28179:28197   */\n      add\n        /* \"#utility.yul\":28172:28220   */\n      mstore\n        /* \"#utility.yul\":28237:28316   */\n      tag_522\n        /* \"#utility.yul\":28311:28315   */\n      dup2\n        /* \"#utility.yul\":28302:28308   */\n      dup9\n        /* \"#utility.yul\":28237:28316   */\n      tag_211\n      jump\t// in\n    tag_522:\n        /* \"#utility.yul\":28229:28316   */\n      swap1\n      pop\n        /* \"#utility.yul\":28363:28372   */\n      dup2\n        /* \"#utility.yul\":28357:28361   */\n      dup2\n        /* \"#utility.yul\":28353:28373   */\n      sub\n        /* \"#utility.yul\":28348:28350   */\n      0x60\n        /* \"#utility.yul\":28337:28346   */\n      dup4\n        /* \"#utility.yul\":28333:28351   */\n      add\n        /* \"#utility.yul\":28326:28374   */\n      mstore\n        /* \"#utility.yul\":28391:28479   */\n      tag_523\n        /* \"#utility.yul\":28474:28478   */\n      dup2\n        /* \"#utility.yul\":28465:28471   */\n      dup7\n        /* \"#utility.yul\":28457:28463   */\n      dup9\n        /* \"#utility.yul\":28391:28479   */\n      tag_212\n      jump\t// in\n    tag_523:\n        /* \"#utility.yul\":28383:28479   */\n      swap1\n      pop\n        /* \"#utility.yul\":28527:28536   */\n      dup2\n        /* \"#utility.yul\":28521:28525   */\n      dup2\n        /* \"#utility.yul\":28517:28537   */\n      sub\n        /* \"#utility.yul\":28511:28514   */\n      0x80\n        /* \"#utility.yul\":28500:28509   */\n      dup4\n        /* \"#utility.yul\":28496:28515   */\n      add\n        /* \"#utility.yul\":28489:28538   */\n      mstore\n        /* \"#utility.yul\":28555:28641   */\n      tag_524\n        /* \"#utility.yul\":28636:28640   */\n      dup2\n        /* \"#utility.yul\":28627:28633   */\n      dup5\n        /* \"#utility.yul\":28619:28625   */\n      dup7\n        /* \"#utility.yul\":28555:28641   */\n      tag_213\n      jump\t// in\n    tag_524:\n        /* \"#utility.yul\":28547:28641   */\n      swap1\n      pop\n        /* \"#utility.yul\":27673:28648   */\n      swap9\n      swap8\n      pop\n      pop\n      pop\n      pop\n      pop\n      pop\n      pop\n      pop\n      jump\t// out\n        /* \"#utility.yul\":28654:28768   */\n    tag_214:\n      pop\n      jump\t// out\n        /* \"#utility.yul\":28774:29136   */\n    tag_215:\n        /* \"#utility.yul\":28915:28918   */\n      0x00\n        /* \"#utility.yul\":28936:29001   */\n      tag_527\n        /* \"#utility.yul\":28999:29000   */\n      0x00\n        /* \"#utility.yul\":28994:28997   */\n      dup4\n        /* \"#utility.yul\":28936:29001   */\n      tag_168\n      jump\t// in\n    tag_527:\n        /* \"#utility.yul\":28929:29001   */\n      swap2\n      pop\n        /* \"#utility.yul\":29010:29103   */\n      tag_528\n        /* \"#utility.yul\":29099:29102   */\n      dup3\n        /* \"#utility.yul\":29010:29103   */\n      tag_214\n      jump\t// in\n    tag_528:\n        /* \"#utility.yul\":29128:29129   */\n      0x00\n        /* \"#utility.yul\":29123:29126   */\n      dup3\n        /* \"#utility.yul\":29119:29130   */\n      add\n        /* \"#utility.yul\":29112:29130   */\n      swap1\n      pop\n        /* \"#utility.yul\":28774:29136   */\n      swap2\n      swap1\n      pop\n      jump\t// out\n        /* \"#utility.yul\":29142:30084   */\n    tag_129:\n        /* \"#utility.yul\":29435:29439   */\n      0x00\n        /* \"#utility.yul\":29473:29476   */\n      0xa0\n        /* \"#utility.yul\":29462:29471   */\n      dup3\n        /* \"#utility.yul\":29458:29477   */\n      add\n        /* \"#utility.yul\":29450:29477   */\n      swap1\n      pop\n        /* \"#utility.yul\":29487:29558   */\n      tag_530\n        /* \"#utility.yul\":29555:29556   */\n      0x00\n        /* \"#utility.yul\":29544:29553   */\n      dup4\n        /* \"#utility.yul\":29540:29557   */\n      add\n        /* \"#utility.yul\":29531:29537   */\n      dup8\n        /* \"#utility.yul\":29487:29558   */\n      tag_143\n      jump\t// in\n    tag_530:\n        /* \"#utility.yul\":29605:29614   */\n      dup2\n        /* \"#utility.yul\":29599:29603   */\n      dup2\n        /* \"#utility.yul\":29595:29615   */\n      sub\n        /* \"#utility.yul\":29590:29592   */\n      0x20\n        /* \"#utility.yul\":29579:29588   */\n      dup4\n        /* \"#utility.yul\":29575:29593   */\n      add\n        /* \"#utility.yul\":29568:29616   */\n      mstore\n        /* \"#utility.yul\":29633:29709   */\n      tag_531\n        /* \"#utility.yul\":29704:29708   */\n      dup2\n        /* \"#utility.yul\":29695:29701   */\n      dup7\n        /* \"#utility.yul\":29633:29709   */\n      tag_169\n      jump\t// in\n    tag_531:\n        /* \"#utility.yul\":29625:29709   */\n      swap1\n      pop\n        /* \"#utility.yul\":29719:29791   */\n      tag_532\n        /* \"#utility.yul\":29787:29789   */\n      0x40\n        /* \"#utility.yul\":29776:29785   */\n      dup4\n        /* \"#utility.yul\":29772:29790   */\n      add\n        /* \"#utility.yul\":29763:29769   */\n      dup6\n        /* \"#utility.yul\":29719:29791   */\n      tag_166\n      jump\t// in\n    tag_532:\n        /* \"#utility.yul\":29801:29871   */\n      tag_533\n        /* \"#utility.yul\":29867:29869   */\n      0x60\n        /* \"#utility.yul\":29856:29865   */\n      dup4\n        /* \"#utility.yul\":29852:29870   */\n      add\n        /* \"#utility.yul\":29843:29849   */\n      dup5\n        /* \"#utility.yul\":29801:29871   */\n      tag_145\n      jump\t// in\n    tag_533:\n        /* \"#utility.yul\":29919:29928   */\n      dup2\n        /* \"#utility.yul\":29913:29917   */\n      dup2\n        /* \"#utility.yul\":29909:29929   */\n      sub\n        /* \"#utility.yul\":29903:29906   */\n      0x80\n        /* \"#utility.yul\":29892:29901   */\n      dup4\n        /* \"#utility.yul\":29888:29907   */\n      add\n        /* \"#utility.yul\":29881:29930   */\n      mstore\n        /* \"#utility.yul\":29947:30077   */\n      tag_534\n        /* \"#utility.yul\":30072:30076   */\n      dup2\n        /* \"#utility.yul\":29947:30077   */\n      tag_215\n      jump\t// in\n    tag_534:\n        /* \"#utility.yul\":29939:30077   */\n      swap1\n      pop\n        /* \"#utility.yul\":29142:30084   */\n      swap6\n      swap5\n      pop\n      pop\n      pop\n      pop\n      pop\n      jump\t// out\n        /* \"#utility.yul\":30090:31480   */\n    tag_134:\n        /* \"#utility.yul\":30205:30241   */\n      tag_536\n        /* \"#utility.yul\":30237:30240   */\n      dup3\n        /* \"#utility.yul\":30205:30241   */\n      tag_167\n      jump\t// in\n    tag_536:\n        /* \"#utility.yul\":30306:30324   */\n      0xffffffffffffffff\n        /* \"#utility.yul\":30298:30304   */\n      dup2\n        /* \"#utility.yul\":30295:30325   */\n      gt\n        /* \"#utility.yul\":30292:30348   */\n      iszero\n      tag_537\n      jumpi\n        /* \"#utility.yul\":30328:30346   */\n      tag_538\n      tag_171\n      jump\t// in\n    tag_538:\n        /* \"#utility.yul\":30292:30348   */\n    tag_537:\n        /* \"#utility.yul\":30372:30410   */\n      tag_539\n        /* \"#utility.yul\":30404:30408   */\n      dup3\n        /* \"#utility.yul\":30398:30409   */\n      sload\n        /* \"#utility.yul\":30372:30410   */\n      tag_80\n      jump\t// in\n    tag_539:\n        /* \"#utility.yul\":30457:30523   */\n      tag_540\n        /* \"#utility.yul\":30516:30522   */\n      dup3\n        /* \"#utility.yul\":30508:30514   */\n      dup3\n        /* \"#utility.yul\":30502:30506   */\n      dup6\n        /* \"#utility.yul\":30457:30523   */\n      tag_202\n      jump\t// in\n    tag_540:\n        /* \"#utility.yul\":30550:30551   */\n      0x00\n        /* \"#utility.yul\":30574:30578   */\n      0x20\n        /* \"#utility.yul\":30561:30578   */\n      swap1\n      pop\n        /* \"#utility.yul\":30606:30608   */\n      0x1f\n        /* \"#utility.yul\":30598:30604   */\n      dup4\n        /* \"#utility.yul\":30595:30609   */\n      gt\n        /* \"#utility.yul\":30623:30624   */\n      0x01\n        /* \"#utility.yul\":30618:31235   */\n      dup2\n      eq\n      tag_542\n      jumpi\n        /* \"#utility.yul\":31279:31280   */\n      0x00\n        /* \"#utility.yul\":31296:31302   */\n      dup5\n        /* \"#utility.yul\":31293:31370   */\n      iszero\n      tag_543\n      jumpi\n        /* \"#utility.yul\":31345:31354   */\n      dup3\n        /* \"#utility.yul\":31340:31343   */\n      dup8\n        /* \"#utility.yul\":31336:31355   */\n      add\n        /* \"#utility.yul\":31330:31356   */\n      mload\n        /* \"#utility.yul\":31321:31356   */\n      swap1\n      pop\n        /* \"#utility.yul\":31293:31370   */\n    tag_543:\n        /* \"#utility.yul\":31396:31463   */\n      tag_544\n        /* \"#utility.yul\":31456:31462   */\n      dup6\n        /* \"#utility.yul\":31449:31454   */\n      dup3\n        /* \"#utility.yul\":31396:31463   */\n      tag_205\n      jump\t// in\n    tag_544:\n        /* \"#utility.yul\":31390:31394   */\n      dup7\n        /* \"#utility.yul\":31383:31464   */\n      sstore\n        /* \"#utility.yul\":31252:31474   */\n      pop\n        /* \"#utility.yul\":30588:31474   */\n      jump(tag_541)\n        /* \"#utility.yul\":30618:31235   */\n    tag_542:\n        /* \"#utility.yul\":30670:30674   */\n      0x1f\n        /* \"#utility.yul\":30666:30675   */\n      not\n        /* \"#utility.yul\":30658:30664   */\n      dup5\n        /* \"#utility.yul\":30654:30676   */\n      and\n        /* \"#utility.yul\":30704:30740   */\n      tag_545\n        /* \"#utility.yul\":30735:30739   */\n      dup7\n        /* \"#utility.yul\":30704:30740   */\n      tag_192\n      jump\t// in\n    tag_545:\n        /* \"#utility.yul\":30762:30763   */\n      0x00\n        /* \"#utility.yul\":30776:30984   */\n    tag_546:\n        /* \"#utility.yul\":30790:30797   */\n      dup3\n        /* \"#utility.yul\":30787:30788   */\n      dup2\n        /* \"#utility.yul\":30784:30798   */\n      lt\n        /* \"#utility.yul\":30776:30984   */\n      iszero\n      tag_548\n      jumpi\n        /* \"#utility.yul\":30869:30878   */\n      dup5\n        /* \"#utility.yul\":30864:30867   */\n      dup10\n        /* \"#utility.yul\":30860:30879   */\n      add\n        /* \"#utility.yul\":30854:30880   */\n      mload\n        /* \"#utility.yul\":30846:30852   */\n      dup3\n        /* \"#utility.yul\":30839:30881   */\n      sstore\n        /* \"#utility.yul\":30920:30921   */\n      0x01\n        /* \"#utility.yul\":30912:30918   */\n      dup3\n        /* \"#utility.yul\":30908:30922   */\n      add\n        /* \"#utility.yul\":30898:30922   */\n      swap2\n      pop\n        /* \"#utility.yul\":30967:30969   */\n      0x20\n        /* \"#utility.yul\":30956:30965   */\n      dup6\n        /* \"#utility.yul\":30952:30970   */\n      add\n        /* \"#utility.yul\":30939:30970   */\n      swap5\n      pop\n        /* \"#utility.yul\":30813:30817   */\n      0x20\n        /* \"#utility.yul\":30810:30811   */\n      dup2\n        /* \"#utility.yul\":30806:30818   */\n      add\n        /* \"#utility.yul\":30801:30818   */\n      swap1\n      pop\n        /* \"#utility.yul\":30776:30984   */\n      jump(tag_546)\n    tag_548:\n        /* \"#utility.yul\":31012:31018   */\n      dup7\n        /* \"#utility.yul\":31003:31010   */\n      dup4\n        /* \"#utility.yul\":31000:31019   */\n      lt\n        /* \"#utility.yul\":30997:31176   */\n      iszero\n      tag_549\n      jumpi\n        /* \"#utility.yul\":31070:31079   */\n      dup5\n        /* \"#utility.yul\":31065:31068   */\n      dup10\n        /* \"#utility.yul\":31061:31080   */\n      add\n        /* \"#utility.yul\":31055:31081   */\n      mload\n        /* \"#utility.yul\":31113:31161   */\n      tag_550\n        /* \"#utility.yul\":31155:31159   */\n      0x1f\n        /* \"#utility.yul\":31147:31153   */\n      dup10\n        /* \"#utility.yul\":31143:31160   */\n      and\n        /* \"#utility.yul\":31132:31141   */\n      dup3\n        /* \"#utility.yul\":31113:31161   */\n      tag_204\n      jump\t// in\n    tag_550:\n        /* \"#utility.yul\":31105:31111   */\n      dup4\n        /* \"#utility.yul\":31098:31162   */\n      sstore\n        /* \"#utility.yul\":31020:31176   */\n      pop\n        /* \"#utility.yul\":30997:31176   */\n    tag_549:\n        /* \"#utility.yul\":31222:31223   */\n      0x01\n        /* \"#utility.yul\":31218:31219   */\n      0x02\n        /* \"#utility.yul\":31210:31216   */\n      dup9\n        /* \"#utility.yul\":31206:31220   */\n      mul\n        /* \"#utility.yul\":31202:31224   */\n      add\n        /* \"#utility.yul\":31196:31200   */\n      dup9\n        /* \"#utility.yul\":31189:31225   */\n      sstore\n        /* \"#utility.yul\":30625:31235   */\n      pop\n      pop\n      pop\n        /* \"#utility.yul\":30588:31474   */\n    tag_541:\n      pop\n        /* \"#utility.yul\":30180:31480   */\n      pop\n      pop\n      pop\n        /* \"#utility.yul\":30090:31480   */\n      pop\n      pop\n      jump\t// out\n        /* \"#utility.yul\":31486:32150   */\n    tag_136:\n        /* \"#utility.yul\":31693:31697   */\n      0x00\n        /* \"#utility.yul\":31731:31734   */\n      0x80\n        /* \"#utility.yul\":31720:31729   */\n      dup3\n        /* \"#utility.yul\":31716:31735   */\n      add\n        /* \"#utility.yul\":31708:31735   */\n      swap1\n      pop\n        /* \"#utility.yul\":31745:31816   */\n      tag_552\n        /* \"#utility.yul\":31813:31814   */\n      0x00\n        /* \"#utility.yul\":31802:31811   */\n      dup4\n        /* \"#utility.yul\":31798:31815   */\n      add\n        /* \"#utility.yul\":31789:31795   */\n      dup9\n        /* \"#utility.yul\":31745:31816   */\n      tag_143\n      jump\t// in\n    tag_552:\n        /* \"#utility.yul\":31826:31898   */\n      tag_553\n        /* \"#utility.yul\":31894:31896   */\n      0x20\n        /* \"#utility.yul\":31883:31892   */\n      dup4\n        /* \"#utility.yul\":31879:31897   */\n      add\n        /* \"#utility.yul\":31870:31876   */\n      dup8\n        /* \"#utility.yul\":31826:31898   */\n      tag_166\n      jump\t// in\n    tag_553:\n        /* \"#utility.yul\":31908:31980   */\n      tag_554\n        /* \"#utility.yul\":31976:31978   */\n      0x40\n        /* \"#utility.yul\":31965:31974   */\n      dup4\n        /* \"#utility.yul\":31961:31979   */\n      add\n        /* \"#utility.yul\":31952:31958   */\n      dup7\n        /* \"#utility.yul\":31908:31980   */\n      tag_143\n      jump\t// in\n    tag_554:\n        /* \"#utility.yul\":32027:32036   */\n      dup2\n        /* \"#utility.yul\":32021:32025   */\n      dup2\n        /* \"#utility.yul\":32017:32037   */\n      sub\n        /* \"#utility.yul\":32012:32014   */\n      0x60\n        /* \"#utility.yul\":32001:32010   */\n      dup4\n        /* \"#utility.yul\":31997:32015   */\n      add\n        /* \"#utility.yul\":31990:32038   */\n      mstore\n        /* \"#utility.yul\":32055:32143   */\n      tag_555\n        /* \"#utility.yul\":32138:32142   */\n      dup2\n        /* \"#utility.yul\":32129:32135   */\n      dup5\n        /* \"#utility.yul\":32121:32127   */\n      dup7\n        /* \"#utility.yul\":32055:32143   */\n      tag_212\n      jump\t// in\n    tag_555:\n        /* \"#utility.yul\":32047:32143   */\n      swap1\n      pop\n        /* \"#utility.yul\":31486:32150   */\n      swap7\n      swap6\n      pop\n      pop\n      pop\n      pop\n      pop\n      pop\n      jump\t// out\n\n    auxdata: 0xa26469706673582212202a3f237ab64846a2a7dfaec281b1ebe4cdd6ec4bdc1ebb78855c2f697c286dde64736f6c634300081a0033\n}\n",
				"bytecode": {
					"linkReferences": {},
					"object": "60a060405234801561000f575f80fd5b50604051611d80380380611d808339818101604052810190610031919061011b565b808073ffffffffffffffffffffffffffffffffffffffff1660808173ffffffffffffffffffffffffffffffffffffffff168152505050335f806101000a81548173ffffffffffffffffffffffffffffffffffffffff021916908373ffffffffffffffffffffffffffffffffffffffff16021790555050610146565b5f80fd5b5f73ffffffffffffffffffffffffffffffffffffffff82169050919050565b5f6100d9826100b0565b9050919050565b5f6100ea826100cf565b9050919050565b6100fa816100e0565b8114610104575f80fd5b50565b5f81519050610115816100f1565b92915050565b5f602082840312156101305761012f6100ac565b5b5f61013d84828501610107565b91505092915050565b608051611bff6101815f395f81816102980152818161044101528181610466015281816107e6015281816108390152610a2f0152611bff5ff3fe608060405260043610610090575f3560e01c8063813d1e1511610058578063813d1e15146101ae57806381d12c58146101d65780638cbc52d914610215578063b034781414610251578063fac5d7e11461027957610090565b8063127e8e4d1461009457806320f38718146100d05780632c6296b71461010c57806331b221cd1461014857806333727c4d14610172575b5f80fd5b34801561009f575f80fd5b506100ba60048036038101906100b59190610bef565b610295565b6040516100c79190610c29565b60405180910390f35b3480156100db575f80fd5b506100f660048036038101906100f19190610bef565b61035a565b6040516101039190610c64565b60405180910390f35b348015610117575f80fd5b50610132600480360381019061012d9190610cde565b61037e565b60405161013f9190610dab565b60405180910390f35b348015610153575f80fd5b5061015c61043f565b6040516101699190610e45565b60405180910390f35b34801561017d575f80fd5b5061019860048036038101906101939190610bef565b610463565b6040516101a59190610e78565b60405180910390f35b3480156101b9575f80fd5b506101d460048036038101906101cf9190610ebb565b610503565b005b3480156101e1575f80fd5b506101fc60048036038101906101f79190610bef565b6105cb565b60405161020c9493929190610f6b565b60405180910390f35b348015610220575f80fd5b5061023b600480360381019061023691906110e4565b610722565b6040516102489190610dab565b60405180910390f35b34801561025c575f80fd5b5061027760048036038101906102729190611193565b6107e0565b005b610293600480360381019061028e9190610cde565b6109e5565b005b5f7f000000000000000000000000000000000000000000000000000000000000000073ffffffffffffffffffffffffffffffffffffffff1662e1d8d08360025f8681526020019081526020015f205f9054906101000a900467ffffffffffffffff166040518363ffffffff1660e01b8152600401610314929190611254565b602060405180830381865afa15801561032f573d5f803e3d5ffd5b505050506040513d601f19601f82011682018060405250810190610353919061128f565b9050919050565b6002602052805f5260405f205f915054906101000a900467ffffffffffffffff1681565b606060035f8581526020019081526020015f2083836040516103a19291906112e8565b908152602001604051809103902080546103ba9061132d565b80601f01602080910402602001604051908101604052809291908181526020018280546103e69061132d565b80156104315780601f1061040857610100808354040283529160200191610431565b820191905f5260205f20905b81548152906001019060200180831161041457829003601f168201915b505050505090509392505050565b7f000000000000000000000000000000000000000000000000000000000000000081565b5f7f000000000000000000000000000000000000000000000000000000000000000073ffffffffffffffffffffffffffffffffffffffff166333727c4d836040518263ffffffff1660e01b81526004016104bd9190610c29565b602060405180830381865afa1580156104d8573d5f803e3d5ffd5b505050506040513d601f19601f820116820180604052508101906104fc9190611387565b9050919050565b5f8054906101000a900473ffffffffffffffffffffffffffffffffffffffff1673ffffffffffffffffffffffffffffffffffffffff163373ffffffffffffffffffffffffffffffffffffffff1614610590576040517f08c379a0000000000000000000000000000000000000000000000000000000008152600401610587906113fc565b60405180910390fd5b8060025f8481526020019081526020015f205f6101000a81548167ffffffffffffffff021916908367ffffffffffffffff1602179055505050565b6001602052805f5260405f205f91509050805f015f9054906101000a900473ffffffffffffffffffffffffffffffffffffffff16908060010154908060020180546106159061132d565b80601f01602080910402602001604051908101604052809291908181526020018280546106419061132d565b801561068c5780601f106106635761010080835404028352916020019161068c565b820191905f5260205f20905b81548152906001019060200180831161066f57829003601f168201915b5050505050908060030180546106a19061132d565b80601f01602080910402602001604051908101604052809291908181526020018280546106cd9061132d565b80156107185780601f106106ef57610100808354040283529160200191610718565b820191905f5260205f20905b8154815290600101906020018083116106fb57829003601f168201915b5050505050905084565b6003602052815f5260405f20818051602081018201805184825260208301602085012081835280955050505050505f915091505080546107619061132d565b80601f016020809104026020016040519081016040528092919081815260200182805461078d9061132d565b80156107d85780601f106107af576101008083540402835291602001916107d8565b820191905f5260205f20905b8154815290600101906020018083116107bb57829003601f168201915b505050505081565b5f3390507f000000000000000000000000000000000000000000000000000000000000000073ffffffffffffffffffffffffffffffffffffffff168173ffffffffffffffffffffffffffffffffffffffff1614610896577f0000000000000000000000000000000000000000000000000000000000000000816040517f865c066e00000000000000000000000000000000000000000000000000000000815260040161088d92919061141a565b60405180910390fd5b5f60015f8881526020019081526020015f2090505f73ffffffffffffffffffffffffffffffffffffffff16815f015f9054906101000a900473ffffffffffffffffffffffffffffffffffffffff1673ffffffffffffffffffffffffffffffffffffffff160361093a576040517f08c379a00000000000000000000000000000000000000000000000000000000081526004016109319061148b565b60405180910390fd5b858582600301918261094d929190611647565b50858560035f846001015481526020019081526020015f208360020160405161097691906117a6565b9081526020016040518091039020918261099192919061181e565b507faf2b2381ddcb18a2b18a7826186fd216acdd9c852a8c7a9a49e7eab127f96ccf87826001015483600201898989896040516109d497969594939291906119c4565b60405180910390a150505050505050565b5f82828080601f0160208091040260200160405190810160405280939291908181526020018383808284375f81840152601f19601f8201169050808301925050505050505090505f7f000000000000000000000000000000000000000000000000000000000000000073ffffffffffffffffffffffffffffffffffffffff16635b9538063487853060025f8c81526020019081526020015f205f9054906101000a900467ffffffffffffffff166040518663ffffffff1660e01b8152600401610ab19493929190611a51565b60206040518083038185885af1158015610acd573d5f803e3d5ffd5b50505050506040513d601f19601f82011682018060405250810190610af2919061128f565b90505f60015f8381526020019081526020015f20905082816002019081610b199190611aae565b5033815f015f6101000a81548173ffffffffffffffffffffffffffffffffffffffff021916908373ffffffffffffffffffffffffffffffffffffffff1602179055508581600101819055507fa0faead83d70148ae18b694377f9bef079251342ab90e14af0f9ef68b891269f8233888888604051610b9b959493929190611b7d565b60405180910390a1505050505050565b5f604051905090565b5f80fd5b5f80fd5b5f819050919050565b610bce81610bbc565b8114610bd8575f80fd5b50565b5f81359050610be981610bc5565b92915050565b5f60208284031215610c0457610c03610bb4565b5b5f610c1184828501610bdb565b91505092915050565b610c2381610bbc565b82525050565b5f602082019050610c3c5f830184610c1a565b92915050565b5f67ffffffffffffffff82169050919050565b610c5e81610c42565b82525050565b5f602082019050610c775f830184610c55565b92915050565b5f80fd5b5f80fd5b5f80fd5b5f8083601f840112610c9e57610c9d610c7d565b5b8235905067ffffffffffffffff811115610cbb57610cba610c81565b5b602083019150836001820283011115610cd757610cd6610c85565b5b9250929050565b5f805f60408486031215610cf557610cf4610bb4565b5b5f610d0286828701610bdb565b935050602084013567ffffffffffffffff811115610d2357610d22610bb8565b5b610d2f86828701610c89565b92509250509250925092565b5f81519050919050565b5f82825260208201905092915050565b8281835e5f83830152505050565b5f601f19601f8301169050919050565b5f610d7d82610d3b565b610d878185610d45565b9350610d97818560208601610d55565b610da081610d63565b840191505092915050565b5f6020820190508181035f830152610dc38184610d73565b905092915050565b5f73ffffffffffffffffffffffffffffffffffffffff82169050919050565b5f819050919050565b5f610e0d610e08610e0384610dcb565b610dea565b610dcb565b9050919050565b5f610e1e82610df3565b9050919050565b5f610e2f82610e14565b9050919050565b610e3f81610e25565b82525050565b5f602082019050610e585f830184610e36565b92915050565b5f8115159050919050565b610e7281610e5e565b82525050565b5f602082019050610e8b5f830184610e69565b92915050565b610e9a81610c42565b8114610ea4575f80fd5b50565b5f81359050610eb581610e91565b92915050565b5f8060408385031215610ed157610ed0610bb4565b5b5f610ede85828601610bdb565b9250506020610eef85828601610ea7565b9150509250929050565b5f610f0382610dcb565b9050919050565b610f1381610ef9565b82525050565b5f81519050919050565b5f82825260208201905092915050565b5f610f3d82610f19565b610f478185610f23565b9350610f57818560208601610d55565b610f6081610d63565b840191505092915050565b5f608082019050610f7e5f830187610f0a565b610f8b6020830186610c1a565b8181036040830152610f9d8185610f33565b90508181036060830152610fb18184610f33565b905095945050505050565b5f80fd5b7f4e487b71000000000000000000000000000000000000000000000000000000005f52604160045260245ffd5b610ff682610d63565b810181811067ffffffffffffffff8211171561101557611014610fc0565b5b80604052505050565b5f611027610bab565b90506110338282610fed565b919050565b5f67ffffffffffffffff82111561105257611051610fc0565b5b61105b82610d63565b9050602081019050919050565b828183375f83830152505050565b5f61108861108384611038565b61101e565b9050828152602081018484840111156110a4576110a3610fbc565b5b6110af848285611068565b509392505050565b5f82601f8301126110cb576110ca610c7d565b5b81356110db848260208601611076565b91505092915050565b5f80604083850312156110fa576110f9610bb4565b5b5f61110785828601610bdb565b925050602083013567ffffffffffffffff81111561112857611127610bb8565b5b611134858286016110b7565b9150509250929050565b5f8083601f84011261115357611152610c7d565b5b8235905067ffffffffffffffff8111156111705761116f610c81565b5b60208301915083600182028301111561118c5761118b610c85565b5b9250929050565b5f805f805f606086880312156111ac576111ab610bb4565b5b5f6111b988828901610bdb565b955050602086013567ffffffffffffffff8111156111da576111d9610bb8565b5b6111e68882890161113e565b9450945050604086013567ffffffffffffffff81111561120957611208610bb8565b5b6112158882890161113e565b92509250509295509295909350565b5f61123e61123961123484610c42565b610dea565b610bbc565b9050919050565b61124e81611224565b82525050565b5f6040820190506112675f830185610c1a565b6112746020830184611245565b9392505050565b5f8151905061128981610bc5565b92915050565b5f602082840312156112a4576112a3610bb4565b5b5f6112b18482850161127b565b91505092915050565b5f81905092915050565b5f6112cf83856112ba565b93506112dc838584611068565b82840190509392505050565b5f6112f48284866112c4565b91508190509392505050565b7f4e487b71000000000000000000000000000000000000000000000000000000005f52602260045260245ffd5b5f600282049050600182168061134457607f821691505b60208210810361135757611356611300565b5b50919050565b61136681610e5e565b8114611370575f80fd5b50565b5f815190506113818161135d565b92915050565b5f6020828403121561139c5761139b610bb4565b5b5f6113a984828501611373565b91505092915050565b7f4f6e6c79206f776e6572000000000000000000000000000000000000000000005f82015250565b5f6113e6600a83610d45565b91506113f1826113b2565b602082019050919050565b5f6020820190508181035f830152611413816113da565b9050919050565b5f60408201905061142d5f830185610e36565b61143a6020830184610e36565b9392505050565b7f72657175657374206e6f742065786973747300000000000000000000000000005f82015250565b5f611475601283610d45565b915061148082611441565b602082019050919050565b5f6020820190508181035f8301526114a281611469565b9050919050565b5f82905092915050565b5f819050815f5260205f209050919050565b5f6020601f8301049050919050565b5f82821b905092915050565b5f6008830261150f7fffffffffffffffffffffffffffffffffffffffffffffffffffffffffffffffff826114d4565b61151986836114d4565b95508019841693508086168417925050509392505050565b5f61154b61154661154184610bbc565b610dea565b610bbc565b9050919050565b5f819050919050565b61156483611531565b61157861157082611552565b8484546114e0565b825550505050565b5f90565b61158c611580565b61159781848461155b565b505050565b5b818110156115ba576115af5f82611584565b60018101905061159d565b5050565b601f8211156115ff576115d0816114b3565b6115d9846114c5565b810160208510156115e8578190505b6115fc6115f4856114c5565b83018261159c565b50505b505050565b5f82821c905092915050565b5f61161f5f1984600802611604565b1980831691505092915050565b5f6116378383611610565b9150826002028217905092915050565b61165183836114a9565b67ffffffffffffffff81111561166a57611669610fc0565b5b611674825461132d565b61167f8282856115be565b5f601f8311600181146116ac575f841561169a578287013590505b6116a4858261162c565b86555061170b565b601f1984166116ba866114b3565b5f5b828110156116e1578489013582556001820191506020850194506020810190506116bc565b868310156116fe57848901356116fa601f891682611610565b8355505b6001600288020188555050505b50505050505050565b5f819050815f5260205f209050919050565b5f81546117328161132d565b61173c81866112ba565b9450600182165f8114611756576001811461176b5761179d565b60ff198316865281151582028601935061179d565b61177485611714565b5f5b8381101561179557815481890152600182019150602081019050611776565b838801955050505b50505092915050565b5f6117b18284611726565b915081905092915050565b5f82905092915050565b5f819050815f5260205f209050919050565b601f821115611819576117ea816117c6565b6117f3846114c5565b81016020851015611802578190505b61181661180e856114c5565b83018261159c565b50505b505050565b61182883836117bc565b67ffffffffffffffff81111561184157611840610fc0565b5b61184b825461132d565b6118568282856117d8565b5f601f831160018114611883575f8415611871578287013590505b61187b858261162c565b8655506118e2565b601f198416611891866117c6565b5f5b828110156118b857848901358255600182019150602085019450602081019050611893565b868310156118d557848901356118d1601f891682611610565b8355505b6001600288020188555050505b50505050505050565b5f81546118f78161132d565b6119018186610d45565b9450600182165f811461191b576001811461193157611963565b60ff198316865281151560200286019350611963565b61193a85611714565b5f5b8381101561195b5781548189015260018201915060208101905061193c565b808801955050505b50505092915050565b5f6119778385610d45565b9350611984838584611068565b61198d83610d63565b840190509392505050565b5f6119a38385610f23565b93506119b0838584611068565b6119b983610d63565b840190509392505050565b5f60a0820190506119d75f83018a610c1a565b6119e46020830189610c1a565b81810360408301526119f681886118eb565b90508181036060830152611a0b81868861196c565b90508181036080830152611a20818486611998565b905098975050505050505050565b50565b5f611a3c5f83610f23565b9150611a4782611a2e565b5f82019050919050565b5f60a082019050611a645f830187610c1a565b8181036020830152611a768186610f33565b9050611a856040830185610f0a565b611a926060830184610c55565b8181036080830152611aa381611a31565b905095945050505050565b611ab782610f19565b67ffffffffffffffff811115611ad057611acf610fc0565b5b611ada825461132d565b611ae58282856115be565b5f60209050601f831160018114611b16575f8415611b04578287015190505b611b0e858261162c565b865550611b75565b601f198416611b24866114b3565b5f5b82811015611b4b57848901518255600182019150602085019450602081019050611b26565b86831015611b685784890151611b64601f891682611610565b8355505b6001600288020188555050505b505050505050565b5f608082019050611b905f830188610c1a565b611b9d6020830187610f0a565b611baa6040830186610c1a565b8181036060830152611bbd81848661196c565b9050969550505050505056fea26469706673582212202a3f237ab64846a2a7dfaec281b1ebe4cdd6ec4bdc1ebb78855c2f697c286dde64736f6c634300081a0033",
					"opcodes": "PUSH1 0xA0 PUSH1 0x40 MSTORE CALLVALUE DUP1 ISZERO PUSH2 0xF JUMPI PUSH0 DUP1 REVERT JUMPDEST POP PUSH1 0x40 MLOAD PUSH2 0x1D80 CODESIZE SUB DUP1 PUSH2 0x1D80 DUP4 CODECOPY DUP2 DUP2 ADD PUSH1 0x40 MSTORE DUP2 ADD SWAP1 PUSH2 0x31 SWAP2 SWAP1 PUSH2 0x11B JUMP JUMPDEST DUP1 DUP1 PUSH20 0xFFFFFFFFFFFFFFFFFFFFFFFFFFFFFFFFFFFFFFFF AND PUSH1 0x80 DUP2 PUSH20 0xFFFFFFFFFFFFFFFFFFFFFFFFFFFFFFFFFFFFFFFF AND DUP2 MSTORE POP POP POP CALLER PUSH0 DUP1 PUSH2 0x100 EXP DUP2 SLOAD DUP2 PUSH20 0xFFFFFFFFFFFFFFFFFFFFFFFFFFFFFFFFFFFFFFFF MUL NOT AND SWAP1 DUP4 PUSH20 0xFFFFFFFFFFFFFFFFFFFFFFFFFFFFFFFFFFFFFFFF AND MUL OR SWAP1 SSTORE POP POP PUSH2 0x146 JUMP JUMPDEST PUSH0 DUP1 REVERT JUMPDEST PUSH0 PUSH20 0xFFFFFFFFFFFFFFFFFFFFFFFFFFFFFFFFFFFFFFFF DUP3 AND SWAP1 POP SWAP2 SWAP1 POP JUMP JUMPDEST PUSH0 PUSH2 0xD9 DUP3 PUSH2 0xB0 JUMP JUMPDEST SWAP1 POP SWAP2 SWAP1 POP JUMP JUMPDEST PUSH0 PUSH2 0xEA DUP3 PUSH2 0xCF JUMP JUMPDEST SWAP1 POP SWAP2 SWAP1 POP JUMP JUMPDEST PUSH2 0xFA DUP2 PUSH2 0xE0 JUMP JUMPDEST DUP2 EQ PUSH2 0x104 JUMPI PUSH0 DUP1 REVERT JUMPDEST POP JUMP JUMPDEST PUSH0 DUP2 MLOAD SWAP1 POP PUSH2 0x115 DUP2 PUSH2 0xF1 JUMP JUMPDEST SWAP3 SWAP2 POP POP JUMP JUMPDEST PUSH0 PUSH1 0x20 DUP3 DUP5 SUB SLT ISZERO PUSH2 0x130 JUMPI PUSH2 0x12F PUSH2 0xAC JUMP JUMPDEST JUMPDEST PUSH0 PUSH2 0x13D DUP5 DUP3 DUP6 ADD PUSH2 0x107 JUMP JUMPDEST SWAP2 POP POP SWAP3 SWAP2 POP POP JUMP JUMPDEST PUSH1 0x80 MLOAD PUSH2 0x1BFF PUSH2 0x181 PUSH0 CODECOPY PUSH0 DUP2 DUP2 PUSH2 0x298 ADD MSTORE DUP2 DUP2 PUSH2 0x441 ADD MSTORE DUP2 DUP2 PUSH2 0x466 ADD MSTORE DUP2 DUP2 PUSH2 0x7E6 ADD MSTORE DUP2 DUP2 PUSH2 0x839 ADD MSTORE PUSH2 0xA2F ADD MSTORE PUSH2 0x1BFF PUSH0 RETURN INVALID PUSH1 0x80 PUSH1 0x40 MSTORE PUSH1 0x4 CALLDATASIZE LT PUSH2 0x90 JUMPI PUSH0 CALLDATALOAD PUSH1 0xE0 SHR DUP1 PUSH4 0x813D1E15 GT PUSH2 0x58 JUMPI DUP1 PUSH4 0x813D1E15 EQ PUSH2 0x1AE JUMPI DUP1 PUSH4 0x81D12C58 EQ PUSH2 0x1D6 JUMPI DUP1 PUSH4 0x8CBC52D9 EQ PUSH2 0x215 JUMPI DUP1 PUSH4 0xB0347814 EQ PUSH2 0x251 JUMPI DUP1 PUSH4 0xFAC5D7E1 EQ PUSH2 0x279 JUMPI PUSH2 0x90 JUMP JUMPDEST DUP1 PUSH4 0x127E8E4D EQ PUSH2 0x94 JUMPI DUP1 PUSH4 0x20F38718 EQ PUSH2 0xD0 JUMPI DUP1 PUSH4 0x2C6296B7 EQ PUSH2 0x10C JUMPI DUP1 PUSH4 0x31B221CD EQ PUSH2 0x148 JUMPI DUP1 PUSH4 0x33727C4D EQ PUSH2 0x172 JUMPI JUMPDEST PUSH0 DUP1 REVERT JUMPDEST CALLVALUE DUP1 ISZERO PUSH2 0x9F JUMPI PUSH0 DUP1 REVERT JUMPDEST POP PUSH2 0xBA PUSH1 0x4 DUP1 CALLDATASIZE SUB DUP2 ADD SWAP1 PUSH2 0xB5 SWAP2 SWAP1 PUSH2 0xBEF JUMP JUMPDEST PUSH2 0x295 JUMP JUMPDEST PUSH1 0x40 MLOAD PUSH2 0xC7 SWAP2 SWAP1 PUSH2 0xC29 JUMP JUMPDEST PUSH1 0x40 MLOAD DUP1 SWAP2 SUB SWAP1 RETURN JUMPDEST CALLVALUE DUP1 ISZERO PUSH2 0xDB JUMPI PUSH0 DUP1 REVERT JUMPDEST POP PUSH2 0xF6 PUSH1 0x4 DUP1 CALLDATASIZE SUB DUP2 ADD SWAP1 PUSH2 0xF1 SWAP2 SWAP1 PUSH2 0xBEF JUMP JUMPDEST PUSH2 0x35A JUMP JUMPDEST PUSH1 0x40 MLOAD PUSH2 0x103 SWAP2 SWAP1 PUSH2 0xC64 JUMP JUMPDEST PUSH1 0x40 MLOAD DUP1 SWAP2 SUB SWAP1 RETURN JUMPDEST CALLVALUE DUP1 ISZERO PUSH2 0x117 JUMPI PUSH0 DUP1 REVERT JUMPDEST POP PUSH2 0x132 PUSH1 0x4 DUP1 CALLDATASIZE SUB DUP2 ADD SWAP1 PUSH2 0x12D SWAP2 SWAP1 PUSH2 0xCDE JUMP JUMPDEST PUSH2 0x37E JUMP JUMPDEST PUSH1 0x40 MLOAD PUSH2 0x13F SWAP2 SWAP1 PUSH2 0xDAB JUMP JUMPDEST PUSH1 0x40 MLOAD DUP1 SWAP2 SUB SWAP1 RETURN JUMPDEST CALLVALUE DUP1 ISZERO PUSH2 0x153 JUMPI PUSH0 DUP1 REVERT JUMPDEST POP PUSH2 0x15C PUSH2 0x43F JUMP JUMPDEST PUSH1 0x40 MLOAD PUSH2 0x169 SWAP2 SWAP1 PUSH2 0xE45 JUMP JUMPDEST PUSH1 0x40 MLOAD DUP1 SWAP2 SUB SWAP1 RETURN JUMPDEST CALLVALUE DUP1 ISZERO PUSH2 0x17D JUMPI PUSH0 DUP1 REVERT JUMPDEST POP PUSH2 0x198 PUSH1 0x4 DUP1 CALLDATASIZE SUB DUP2 ADD SWAP1 PUSH2 0x193 SWAP2 SWAP1 PUSH2 0xBEF JUMP JUMPDEST PUSH2 0x463 JUMP JUMPDEST PUSH1 0x40 MLOAD PUSH2 0x1A5 SWAP2 SWAP1 PUSH2 0xE78 JUMP JUMPDEST PUSH1 0x40 MLOAD DUP1 SWAP2 SUB SWAP1 RETURN JUMPDEST CALLVALUE DUP1 ISZERO PUSH2 0x1B9 JUMPI PUSH0 DUP1 REVERT JUMPDEST POP PUSH2 0x1D4 PUSH1 0x4 DUP1 CALLDATASIZE SUB DUP2 ADD SWAP1 PUSH2 0x1CF SWAP2 SWAP1 PUSH2 0xEBB JUMP JUMPDEST PUSH2 0x503 JUMP JUMPDEST STOP JUMPDEST CALLVALUE DUP1 ISZERO PUSH2 0x1E1 JUMPI PUSH0 DUP1 REVERT JUMPDEST POP PUSH2 0x1FC PUSH1 0x4 DUP1 CALLDATASIZE SUB DUP2 ADD SWAP1 PUSH2 0x1F7 SWAP2 SWAP1 PUSH2 0xBEF JUMP JUMPDEST PUSH2 0x5CB JUMP JUMPDEST PUSH1 0x40 MLOAD PUSH2 0x20C SWAP5 SWAP4 SWAP3 SWAP2 SWAP1 PUSH2 0xF6B JUMP JUMPDEST PUSH1 0x40 MLOAD DUP1 SWAP2 SUB SWAP1 RETURN JUMPDEST CALLVALUE DUP1 ISZERO PUSH2 0x220 JUMPI PUSH0 DUP1 REVERT JUMPDEST POP PUSH2 0x23B PUSH1 0x4 DUP1 CALLDATASIZE SUB DUP2 ADD SWAP1 PUSH2 0x236 SWAP2 SWAP1 PUSH2 0x10E4 JUMP JUMPDEST PUSH2 0x722 JUMP JUMPDEST PUSH1 0x40 MLOAD PUSH2 0x248 SWAP2 SWAP1 PUSH2 0xDAB JUMP JUMPDEST PUSH1 0x40 MLOAD DUP1 SWAP2 SUB SWAP1 RETURN JUMPDEST CALLVALUE DUP1 ISZERO PUSH2 0x25C JUMPI PUSH0 DUP1 REVERT JUMPDEST POP PUSH2 0x277 PUSH1 0x4 DUP1 CALLDATASIZE SUB DUP2 ADD SWAP1 PUSH2 0x272 SWAP2 SWAP1 PUSH2 0x1193 JUMP JUMPDEST PUSH2 0x7E0 JUMP JUMPDEST STOP JUMPDEST PUSH2 0x293 PUSH1 0x4 DUP1 CALLDATASIZE SUB DUP2 ADD SWAP1 PUSH2 0x28E SWAP2 SWAP1 PUSH2 0xCDE JUMP JUMPDEST PUSH2 0x9E5 JUMP JUMPDEST STOP JUMPDEST PUSH0 PUSH32 0x0 PUSH20 0xFFFFFFFFFFFFFFFFFFFFFFFFFFFFFFFFFFFFFFFF AND PUSH3 0xE1D8D0 DUP4 PUSH1 0x2 PUSH0 DUP7 DUP2 MSTORE PUSH1 0x20 ADD SWAP1 DUP2 MSTORE PUSH1 0x20 ADD PUSH0 KECCAK256 PUSH0 SWAP1 SLOAD SWAP1 PUSH2 0x100 EXP SWAP1 DIV PUSH8 0xFFFFFFFFFFFFFFFF AND PUSH1 0x40 MLOAD DUP4 PUSH4 0xFFFFFFFF AND PUSH1 0xE0 SHL DUP2 MSTORE PUSH1 0x4 ADD PUSH2 0x314 SWAP3 SWAP2 SWAP1 PUSH2 0x1254 JUMP JUMPDEST PUSH1 0x20 PUSH1 0x40 MLOAD DUP1 DUP4 SUB DUP2 DUP7 GAS STATICCALL ISZERO DUP1 ISZERO PUSH2 0x32F JUMPI RETURNDATASIZE PUSH0 DUP1 RETURNDATACOPY RETURNDATASIZE PUSH0 REVERT JUMPDEST POP POP POP POP PUSH1 0x40 MLOAD RETURNDATASIZE PUSH1 0x1F NOT PUSH1 0x1F DUP3 ADD AND DUP3 ADD DUP1 PUSH1 0x40 MSTORE POP DUP2 ADD SWAP1 PUSH2 0x353 SWAP2 SWAP1 PUSH2 0x128F JUMP JUMPDEST SWAP1 POP SWAP2 SWAP1 POP JUMP JUMPDEST PUSH1 0x2 PUSH1 0x20 MSTORE DUP1 PUSH0 MSTORE PUSH1 0x40 PUSH0 KECCAK256 PUSH0 SWAP2 POP SLOAD SWAP1 PUSH2 0x100 EXP SWAP1 DIV PUSH8 0xFFFFFFFFFFFFFFFF AND DUP2 JUMP JUMPDEST PUSH1 0x60 PUSH1 0x3 PUSH0 DUP6 DUP2 MSTORE PUSH1 0x20 ADD SWAP1 DUP2 MSTORE PUSH1 0x20 ADD PUSH0 KECCAK256 DUP4 DUP4 PUSH1 0x40 MLOAD PUSH2 0x3A1 SWAP3 SWAP2 SWAP1 PUSH2 0x12E8 JUMP JUMPDEST SWAP1 DUP2 MSTORE PUSH1 0x20 ADD PUSH1 0x40 MLOAD DUP1 SWAP2 SUB SWAP1 KECCAK256 DUP1 SLOAD PUSH2 0x3BA SWAP1 PUSH2 0x132D JUMP JUMPDEST DUP1 PUSH1 0x1F ADD PUSH1 0x20 DUP1 SWAP2 DIV MUL PUSH1 0x20 ADD PUSH1 0x40 MLOAD SWAP1 DUP2 ADD PUSH1 0x40 MSTORE DUP1 SWAP3 SWAP2 SWAP1 DUP2 DUP2 MSTORE PUSH1 0x20 ADD DUP3 DUP1 SLOAD PUSH2 0x3E6 SWAP1 PUSH2 0x132D JUMP JUMPDEST DUP1 ISZERO PUSH2 0x431 JUMPI DUP1 PUSH1 0x1F LT PUSH2 0x408 JUMPI PUSH2 0x100 DUP1 DUP4 SLOAD DIV MUL DUP4 MSTORE SWAP2 PUSH1 0x20 ADD SWAP2 PUSH2 0x431 JUMP JUMPDEST DUP3 ADD SWAP2 SWAP1 PUSH0 MSTORE PUSH1 0x20 PUSH0 KECCAK256 SWAP1 JUMPDEST DUP2 SLOAD DUP2 MSTORE SWAP1 PUSH1 0x1 ADD SWAP1 PUSH1 0x20 ADD DUP1 DUP4 GT PUSH2 0x414 JUMPI DUP3 SWAP1 SUB PUSH1 0x1F AND DUP3 ADD SWAP2 JUMPDEST POP POP POP POP POP SWAP1 POP SWAP4 SWAP3 POP POP POP JUMP JUMPDEST PUSH32 0x0 DUP2 JUMP JUMPDEST PUSH0 PUSH32 0x0 PUSH20 0xFFFFFFFFFFFFFFFFFFFFFFFFFFFFFFFFFFFFFFFF AND PUSH4 0x33727C4D DUP4 PUSH1 0x40 MLOAD DUP3 PUSH4 0xFFFFFFFF AND PUSH1 0xE0 SHL DUP2 MSTORE PUSH1 0x4 ADD PUSH2 0x4BD SWAP2 SWAP1 PUSH2 0xC29 JUMP JUMPDEST PUSH1 0x20 PUSH1 0x40 MLOAD DUP1 DUP4 SUB DUP2 DUP7 GAS STATICCALL ISZERO DUP1 ISZERO PUSH2 0x4D8 JUMPI RETURNDATASIZE PUSH0 DUP1 RETURNDATACOPY RETURNDATASIZE PUSH0 REVERT JUMPDEST POP POP POP POP PUSH1 0x40 MLOAD RETURNDATASIZE PUSH1 0x1F NOT PUSH1 0x1F DUP3 ADD AND DUP3 ADD DUP1 PUSH1 0x40 MSTORE POP DUP2 ADD SWAP1 PUSH2 0x4FC SWAP2 SWAP1 PUSH2 0x1387 JUMP JUMPDEST SWAP1 POP SWAP2 SWAP1 POP JUMP JUMPDEST PUSH0 DUP1 SLOAD SWAP1 PUSH2 0x100 EXP SWAP1 DIV PUSH20 0xFFFFFFFFFFFFFFFFFFFFFFFFFFFFFFFFFFFFFFFF AND PUSH20 0xFFFFFFFFFFFFFFFFFFFFFFFFFFFFFFFFFFFFFFFF AND CALLER PUSH20 0xFFFFFFFFFFFFFFFFFFFFFFFFFFFFFFFFFFFFFFFF AND EQ PUSH2 0x590 JUMPI PUSH1 0x40 MLOAD PUSH32 0x8C379A000000000000000000000000000000000000000000000000000000000 DUP2 MSTORE PUSH1 0x4 ADD PUSH2 0x587 SWAP1 PUSH2 0x13FC JUMP JUMPDEST PUSH1 0x40 MLOAD DUP1 SWAP2 SUB SWAP1 REVERT JUMPDEST DUP1 PUSH1 0x2 PUSH0 DUP5 DUP2 MSTORE PUSH1 0x20 ADD SWAP1 DUP2 MSTORE PUSH1 0x20 ADD PUSH0 KECCAK256 PUSH0 PUSH2 0x100 EXP DUP2 SLOAD DUP2 PUSH8 0xFFFFFFFFFFFFFFFF MUL NOT AND SWAP1 DUP4 PUSH8 0xFFFFFFFFFFFFFFFF AND MUL OR SWAP1 SSTORE POP POP POP JUMP JUMPDEST PUSH1 0x1 PUSH1 0x20 MSTORE DUP1 PUSH0 MSTORE PUSH1 0x40 PUSH0 KECCAK256 PUSH0 SWAP2 POP SWAP1 POP DUP1 PUSH0 ADD PUSH0 SWAP1 SLOAD SWAP1 PUSH2 0x100 EXP SWAP1 DIV PUSH20 0xFFFFFFFFFFFFFFFFFFFFFFFFFFFFFFFFFFFFFFFF AND SWAP1 DUP1 PUSH1 0x1 ADD SLOAD SWAP1 DUP1 PUSH1 0x2 ADD DUP1 SLOAD PUSH2 0x615 SWAP1 PUSH2 0x132D JUMP JUMPDEST DUP1 PUSH1 0x1F ADD PUSH1 0x20 DUP1 SWAP2 DIV MUL PUSH1 0x20 ADD PUSH1 0x40 MLOAD SWAP1 DUP2 ADD PUSH1 0x40 MSTORE DUP1 SWAP3 SWAP2 SWAP1 DUP2 DUP2 MSTORE PUSH1 0x20 ADD DUP3 DUP1 SLOAD PUSH2 0x641 SWAP1 PUSH2 0x132D JUMP JUMPDEST DUP1 ISZERO PUSH2 0x68C JUMPI DUP1 PUSH1 0x1F LT PUSH2 0x663 JUMPI PUSH2 0x100 DUP1 DUP4 SLOAD DIV MUL DUP4 MSTORE SWAP2 PUSH1 0x20 ADD SWAP2 PUSH2 0x68C JUMP JUMPDEST DUP3 ADD SWAP2 SWAP1 PUSH0 MSTORE PUSH1 0x20 PUSH0 KECCAK256 SWAP1 JUMPDEST DUP2 SLOAD DUP2 MSTORE SWAP1 PUSH1 0x1 ADD SWAP1 PUSH1 0x20 ADD DUP1 DUP4 GT PUSH2 0x66F JUMPI DUP3 SWAP1 SUB PUSH1 0x1F AND DUP3 ADD SWAP2 JUMPDEST POP POP POP POP POP SWAP1 DUP1 PUSH1 0x3 ADD DUP1 SLOAD PUSH2 0x6A1 SWAP1 PUSH2 0x132D JUMP JUMPDEST DUP1 PUSH1 0x1F ADD PUSH1 0x20 DUP1 SWAP2 DIV MUL PUSH1 0x20 ADD PUSH1 0x40 MLOAD SWAP1 DUP2 ADD PUSH1 0x40 MSTORE DUP1 SWAP3 SWAP2 SWAP1 DUP2 DUP2 MSTORE PUSH1 0x20 ADD DUP3 DUP1 SLOAD PUSH2 0x6CD SWAP1 PUSH2 0x132D JUMP JUMPDEST DUP1 ISZERO PUSH2 0x718 JUMPI DUP1 PUSH1 0x1F LT PUSH2 0x6EF JUMPI PUSH2 0x100 DUP1 DUP4 SLOAD DIV MUL DUP4 MSTORE SWAP2 PUSH1 0x20 ADD SWAP2 PUSH2 0x718 JUMP JUMPDEST DUP3 ADD SWAP2 SWAP1 PUSH0 MSTORE PUSH1 0x20 PUSH0 KECCAK256 SWAP1 JUMPDEST DUP2 SLOAD DUP2 MSTORE SWAP1 PUSH1 0x1 ADD SWAP1 PUSH1 0x20 ADD DUP1 DUP4 GT PUSH2 0x6FB JUMPI DUP3 SWAP1 SUB PUSH1 0x1F AND DUP3 ADD SWAP2 JUMPDEST POP POP POP POP POP SWAP1 POP DUP5 JUMP JUMPDEST PUSH1 0x3 PUSH1 0x20 MSTORE DUP2 PUSH0 MSTORE PUSH1 0x40 PUSH0 KECCAK256 DUP2 DUP1 MLOAD PUSH1 0x20 DUP2 ADD DUP3 ADD DUP1 MLOAD DUP5 DUP3 MSTORE PUSH1 0x20 DUP4 ADD PUSH1 0x20 DUP6 ADD KECCAK256 DUP2 DUP4 MSTORE DUP1 SWAP6 POP POP POP POP POP POP PUSH0 SWAP2 POP SWAP2 POP POP DUP1 SLOAD PUSH2 0x761 SWAP1 PUSH2 0x132D JUMP JUMPDEST DUP1 PUSH1 0x1F ADD PUSH1 0x20 DUP1 SWAP2 DIV MUL PUSH1 0x20 ADD PUSH1 0x40 MLOAD SWAP1 DUP2 ADD PUSH1 0x40 MSTORE DUP1 SWAP3 SWAP2 SWAP1 DUP2 DUP2 MSTORE PUSH1 0x20 ADD DUP3 DUP1 SLOAD PUSH2 0x78D SWAP1 PUSH2 0x132D JUMP JUMPDEST DUP1 ISZERO PUSH2 0x7D8 JUMPI DUP1 PUSH1 0x1F LT PUSH2 0x7AF JUMPI PUSH2 0x100 DUP1 DUP4 SLOAD DIV MUL DUP4 MSTORE SWAP2 PUSH1 0x20 ADD SWAP2 PUSH2 0x7D8 JUMP JUMPDEST DUP3 ADD SWAP2 SWAP1 PUSH0 MSTORE PUSH1 0x20 PUSH0 KECCAK256 SWAP1 JUMPDEST DUP2 SLOAD DUP2 MSTORE SWAP1 PUSH1 0x1 ADD SWAP1 PUSH1 0x20 ADD DUP1 DUP4 GT PUSH2 0x7BB JUMPI DUP3 SWAP1 SUB PUSH1 0x1F AND DUP3 ADD SWAP2 JUMPDEST POP POP POP POP POP DUP2 JUMP JUMPDEST PUSH0 CALLER SWAP1 POP PUSH32 0x0 PUSH20 0xFFFFFFFFFFFFFFFFFFFFFFFFFFFFFFFFFFFFFFFF AND DUP2 PUSH20 0xFFFFFFFFFFFFFFFFFFFFFFFFFFFFFFFFFFFFFFFF AND EQ PUSH2 0x896 JUMPI PUSH32 0x0 DUP2 PUSH1 0x40 MLOAD PUSH32 0x865C066E00000000000000000000000000000000000000000000000000000000 DUP2 MSTORE PUSH1 0x4 ADD PUSH2 0x88D SWAP3 SWAP2 SWAP1 PUSH2 0x141A JUMP JUMPDEST PUSH1 0x40 MLOAD DUP1 SWAP2 SUB SWAP1 REVERT JUMPDEST PUSH0 PUSH1 0x1 PUSH0 DUP9 DUP2 MSTORE PUSH1 0x20 ADD SWAP1 DUP2 MSTORE PUSH1 0x20 ADD PUSH0 KECCAK256 SWAP1 POP PUSH0 PUSH20 0xFFFFFFFFFFFFFFFFFFFFFFFFFFFFFFFFFFFFFFFF AND DUP2 PUSH0 ADD PUSH0 SWAP1 SLOAD SWAP1 PUSH2 0x100 EXP SWAP1 DIV PUSH20 0xFFFFFFFFFFFFFFFFFFFFFFFFFFFFFFFFFFFFFFFF AND PUSH20 0xFFFFFFFFFFFFFFFFFFFFFFFFFFFFFFFFFFFFFFFF AND SUB PUSH2 0x93A JUMPI PUSH1 0x40 MLOAD PUSH32 0x8C379A000000000000000000000000000000000000000000000000000000000 DUP2 MSTORE PUSH1 0x4 ADD PUSH2 0x931 SWAP1 PUSH2 0x148B JUMP JUMPDEST PUSH1 0x40 MLOAD DUP1 SWAP2 SUB SWAP1 REVERT JUMPDEST DUP6 DUP6 DUP3 PUSH1 0x3 ADD SWAP2 DUP3 PUSH2 0x94D SWAP3 SWAP2 SWAP1 PUSH2 0x1647 JUMP JUMPDEST POP DUP6 DUP6 PUSH1 0x3 PUSH0 DUP5 PUSH1 0x1 ADD SLOAD DUP2 MSTORE PUSH1 0x20 ADD SWAP1 DUP2 MSTORE PUSH1 0x20 ADD PUSH0 KECCAK256 DUP4 PUSH1 0x2 ADD PUSH1 0x40 MLOAD PUSH2 0x976 SWAP2 SWAP1 PUSH2 0x17A6 JUMP JUMPDEST SWAP1 DUP2 MSTORE PUSH1 0x20 ADD PUSH1 0x40 MLOAD DUP1 SWAP2 SUB SWAP1 KECCAK256 SWAP2 DUP3 PUSH2 0x991 SWAP3 SWAP2 SWAP1 PUSH2 0x181E JUMP JUMPDEST POP PUSH32 0xAF2B2381DDCB18A2B18A7826186FD216ACDD9C852A8C7A9A49E7EAB127F96CCF DUP8 DUP3 PUSH1 0x1 ADD SLOAD DUP4 PUSH1 0x2 ADD DUP10 DUP10 DUP10 DUP10 PUSH1 0x40 MLOAD PUSH2 0x9D4 SWAP8 SWAP7 SWAP6 SWAP5 SWAP4 SWAP3 SWAP2 SWAP1 PUSH2 0x19C4 JUMP JUMPDEST PUSH1 0x40 MLOAD DUP1 SWAP2 SUB SWAP1 LOG1 POP POP POP POP POP POP POP JUMP JUMPDEST PUSH0 DUP3 DUP3 DUP1 DUP1 PUSH1 0x1F ADD PUSH1 0x20 DUP1 SWAP2 DIV MUL PUSH1 0x20 ADD PUSH1 0x40 MLOAD SWAP1 DUP2 ADD PUSH1 0x40 MSTORE DUP1 SWAP4 SWAP3 SWAP2 SWAP1 DUP2 DUP2 MSTORE PUSH1 0x20 ADD DUP4 DUP4 DUP1 DUP3 DUP5 CALLDATACOPY PUSH0 DUP2 DUP5 ADD MSTORE PUSH1 0x1F NOT PUSH1 0x1F DUP3 ADD AND SWAP1 POP DUP1 DUP4 ADD SWAP3 POP POP POP POP POP POP POP SWAP1 POP PUSH0 PUSH32 0x0 PUSH20 0xFFFFFFFFFFFFFFFFFFFFFFFFFFFFFFFFFFFFFFFF AND PUSH4 0x5B953806 CALLVALUE DUP8 DUP6 ADDRESS PUSH1 0x2 PUSH0 DUP13 DUP2 MSTORE PUSH1 0x20 ADD SWAP1 DUP2 MSTORE PUSH1 0x20 ADD PUSH0 KECCAK256 PUSH0 SWAP1 SLOAD SWAP1 PUSH2 0x100 EXP SWAP1 DIV PUSH8 0xFFFFFFFFFFFFFFFF AND PUSH1 0x40 MLOAD DUP7 PUSH4 0xFFFFFFFF AND PUSH1 0xE0 SHL DUP2 MSTORE PUSH1 0x4 ADD PUSH2 0xAB1 SWAP5 SWAP4 SWAP3 SWAP2 SWAP1 PUSH2 0x1A51 JUMP JUMPDEST PUSH1 0x20 PUSH1 0x40 MLOAD DUP1 DUP4 SUB DUP2 DUP6 DUP9 GAS CALL ISZERO DUP1 ISZERO PUSH2 0xACD JUMPI RETURNDATASIZE PUSH0 DUP1 RETURNDATACOPY RETURNDATASIZE PUSH0 REVERT JUMPDEST POP POP POP POP POP PUSH1 0x40 MLOAD RETURNDATASIZE PUSH1 0x1F NOT PUSH1 0x1F DUP3 ADD AND DUP3 ADD DUP1 PUSH1 0x40 MSTORE POP DUP2 ADD SWAP1 PUSH2 0xAF2 SWAP2 SWAP1 PUSH2 0x128F JUMP JUMPDEST SWAP1 POP PUSH0 PUSH1 0x1 PUSH0 DUP4 DUP2 MSTORE PUSH1 0x20 ADD SWAP1 DUP2 MSTORE PUSH1 0x20 ADD PUSH0 KECCAK256 SWAP1 POP DUP3 DUP2 PUSH1 0x2 ADD SWAP1 DUP2 PUSH2 0xB19 SWAP2 SWAP1 PUSH2 0x1AAE JUMP JUMPDEST POP CALLER DUP2 PUSH0 ADD PUSH0 PUSH2 0x100 EXP DUP2 SLOAD DUP2 PUSH20 0xFFFFFFFFFFFFFFFFFFFFFFFFFFFFFFFFFFFFFFFF MUL NOT AND SWAP1 DUP4 PUSH20 0xFFFFFFFFFFFFFFFFFFFFFFFFFFFFFFFFFFFFFFFF AND MUL OR SWAP1 SSTORE POP DUP6 DUP2 PUSH1 0x1 ADD DUP2 SWAP1 SSTORE POP PUSH32 0xA0FAEAD83D70148AE18B694377F9BEF079251342AB90E14AF0F9EF68B891269F DUP3 CALLER DUP9 DUP9 DUP9 PUSH1 0x40 MLOAD PUSH2 0xB9B SWAP6 SWAP5 SWAP4 SWAP3 SWAP2 SWAP1 PUSH2 0x1B7D JUMP JUMPDEST PUSH1 0x40 MLOAD DUP1 SWAP2 SUB SWAP1 LOG1 POP POP POP POP POP POP JUMP JUMPDEST PUSH0 PUSH1 0x40 MLOAD SWAP1 POP SWAP1 JUMP JUMPDEST PUSH0 DUP1 REVERT JUMPDEST PUSH0 DUP1 REVERT JUMPDEST PUSH0 DUP2 SWAP1 POP SWAP2 SWAP1 POP JUMP JUMPDEST PUSH2 0xBCE DUP2 PUSH2 0xBBC JUMP JUMPDEST DUP2 EQ PUSH2 0xBD8 JUMPI PUSH0 DUP1 REVERT JUMPDEST POP JUMP JUMPDEST PUSH0 DUP2 CALLDATALOAD SWAP1 POP PUSH2 0xBE9 DUP2 PUSH2 0xBC5 JUMP JUMPDEST SWAP3 SWAP2 POP POP JUMP JUMPDEST PUSH0 PUSH1 0x20 DUP3 DUP5 SUB SLT ISZERO PUSH2 0xC04 JUMPI PUSH2 0xC03 PUSH2 0xBB4 JUMP JUMPDEST JUMPDEST PUSH0 PUSH2 0xC11 DUP5 DUP3 DUP6 ADD PUSH2 0xBDB JUMP JUMPDEST SWAP2 POP POP SWAP3 SWAP2 POP POP JUMP JUMPDEST PUSH2 0xC23 DUP2 PUSH2 0xBBC JUMP JUMPDEST DUP3 MSTORE POP POP JUMP JUMPDEST PUSH0 PUSH1 0x20 DUP3 ADD SWAP1 POP PUSH2 0xC3C PUSH0 DUP4 ADD DUP5 PUSH2 0xC1A JUMP JUMPDEST SWAP3 SWAP2 POP POP JUMP JUMPDEST PUSH0 PUSH8 0xFFFFFFFFFFFFFFFF DUP3 AND SWAP1 POP SWAP2 SWAP1 POP JUMP JUMPDEST PUSH2 0xC5E DUP2 PUSH2 0xC42 JUMP JUMPDEST DUP3 MSTORE POP POP JUMP JUMPDEST PUSH0 PUSH1 0x20 DUP3 ADD SWAP1 POP PUSH2 0xC77 PUSH0 DUP4 ADD DUP5 PUSH2 0xC55 JUMP JUMPDEST SWAP3 SWAP2 POP POP JUMP JUMPDEST PUSH0 DUP1 REVERT JUMPDEST PUSH0 DUP1 REVERT JUMPDEST PUSH0 DUP1 REVERT JUMPDEST PUSH0 DUP1 DUP4 PUSH1 0x1F DUP5 ADD SLT PUSH2 0xC9E JUMPI PUSH2 0xC9D PUSH2 0xC7D JUMP JUMPDEST JUMPDEST DUP3 CALLDATALOAD SWAP1 POP PUSH8 0xFFFFFFFFFFFFFFFF DUP2 GT ISZERO PUSH2 0xCBB JUMPI PUSH2 0xCBA PUSH2 0xC81 JUMP JUMPDEST JUMPDEST PUSH1 0x20 DUP4 ADD SWAP2 POP DUP4 PUSH1 0x1 DUP3 MUL DUP4 ADD GT ISZERO PUSH2 0xCD7 JUMPI PUSH2 0xCD6 PUSH2 0xC85 JUMP JUMPDEST JUMPDEST SWAP3 POP SWAP3 SWAP1 POP JUMP JUMPDEST PUSH0 DUP1 PUSH0 PUSH1 0x40 DUP5 DUP7 SUB SLT ISZERO PUSH2 0xCF5 JUMPI PUSH2 0xCF4 PUSH2 0xBB4 JUMP JUMPDEST JUMPDEST PUSH0 PUSH2 0xD02 DUP7 DUP3 DUP8 ADD PUSH2 0xBDB JUMP JUMPDEST SWAP4 POP POP PUSH1 0x20 DUP5 ADD CALLDATALOAD PUSH8 0xFFFFFFFFFFFFFFFF DUP2 GT ISZERO PUSH2 0xD23 JUMPI PUSH2 0xD22 PUSH2 0xBB8 JUMP JUMPDEST JUMPDEST PUSH2 0xD2F DUP7 DUP3 DUP8 ADD PUSH2 0xC89 JUMP JUMPDEST SWAP3 POP SWAP3 POP POP SWAP3 POP SWAP3 POP SWAP3 JUMP JUMPDEST PUSH0 DUP2 MLOAD SWAP1 POP SWAP2 SWAP1 POP JUMP JUMPDEST PUSH0 DUP3 DUP3 MSTORE PUSH1 0x20 DUP3 ADD SWAP1 POP SWAP3 SWAP2 POP POP JUMP JUMPDEST DUP3 DUP2 DUP4 MCOPY PUSH0 DUP4 DUP4 ADD MSTORE POP POP POP JUMP JUMPDEST PUSH0 PUSH1 0x1F NOT PUSH1 0x1F DUP4 ADD AND SWAP1 POP SWAP2 SWAP1 POP JUMP JUMPDEST PUSH0 PUSH2 0xD7D DUP3 PUSH2 0xD3B JUMP JUMPDEST PUSH2 0xD87 DUP2 DUP6 PUSH2 0xD45 JUMP JUMPDEST SWAP4 POP PUSH2 0xD97 DUP2 DUP6 PUSH1 0x20 DUP7 ADD PUSH2 0xD55 JUMP JUMPDEST PUSH2 0xDA0 DUP2 PUSH2 0xD63 JUMP JUMPDEST DUP5 ADD SWAP2 POP POP SWAP3 SWAP2 POP POP JUMP JUMPDEST PUSH0 PUSH1 0x20 DUP3 ADD SWAP1 POP DUP2 DUP2 SUB PUSH0 DUP4 ADD MSTORE PUSH2 0xDC3 DUP2 DUP5 PUSH2 0xD73 JUMP JUMPDEST SWAP1 POP SWAP3 SWAP2 POP POP JUMP JUMPDEST PUSH0 PUSH20 0xFFFFFFFFFFFFFFFFFFFFFFFFFFFFFFFFFFFFFFFF DUP3 AND SWAP1 POP SWAP2 SWAP1 POP JUMP JUMPDEST PUSH0 DUP2 SWAP1 POP SWAP2 SWAP1 POP JUMP JUMPDEST PUSH0 PUSH2 0xE0D PUSH2 0xE08 PUSH2 0xE03 DUP5 PUSH2 0xDCB JUMP JUMPDEST PUSH2 0xDEA JUMP JUMPDEST PUSH2 0xDCB JUMP JUMPDEST SWAP1 POP SWAP2 SWAP1 POP JUMP JUMPDEST PUSH0 PUSH2 0xE1E DUP3 PUSH2 0xDF3 JUMP JUMPDEST SWAP1 POP SWAP2 SWAP1 POP JUMP JUMPDEST PUSH0 PUSH2 0xE2F DUP3 PUSH2 0xE14 JUMP JUMPDEST SWAP1 POP SWAP2 SWAP1 POP JUMP JUMPDEST PUSH2 0xE3F DUP2 PUSH2 0xE25 JUMP JUMPDEST DUP3 MSTORE POP POP JUMP JUMPDEST PUSH0 PUSH1 0x20 DUP3 ADD SWAP1 POP PUSH2 0xE58 PUSH0 DUP4 ADD DUP5 PUSH2 0xE36 JUMP JUMPDEST SWAP3 SWAP2 POP POP JUMP JUMPDEST PUSH0 DUP2 ISZERO ISZERO SWAP1 POP SWAP2 SWAP1 POP JUMP JUMPDEST PUSH2 0xE72 DUP2 PUSH2 0xE5E JUMP JUMPDEST DUP3 MSTORE POP POP JUMP JUMPDEST PUSH0 PUSH1 0x20 DUP3 ADD SWAP1 POP PUSH2 0xE8B PUSH0 DUP4 ADD DUP5 PUSH2 0xE69 JUMP JUMPDEST SWAP3 SWAP2 POP POP JUMP JUMPDEST PUSH2 0xE9A DUP2 PUSH2 0xC42 JUMP JUMPDEST DUP2 EQ PUSH2 0xEA4 JUMPI PUSH0 DUP1 REVERT JUMPDEST POP JUMP JUMPDEST PUSH0 DUP2 CALLDATALOAD SWAP1 POP PUSH2 0xEB5 DUP2 PUSH2 0xE91 JUMP JUMPDEST SWAP3 SWAP2 POP POP JUMP JUMPDEST PUSH0 DUP1 PUSH1 0x40 DUP4 DUP6 SUB SLT ISZERO PUSH2 0xED1 JUMPI PUSH2 0xED0 PUSH2 0xBB4 JUMP JUMPDEST JUMPDEST PUSH0 PUSH2 0xEDE DUP6 DUP3 DUP7 ADD PUSH2 0xBDB JUMP JUMPDEST SWAP3 POP POP PUSH1 0x20 PUSH2 0xEEF DUP6 DUP3 DUP7 ADD PUSH2 0xEA7 JUMP JUMPDEST SWAP2 POP POP SWAP3 POP SWAP3 SWAP1 POP JUMP JUMPDEST PUSH0 PUSH2 0xF03 DUP3 PUSH2 0xDCB JUMP JUMPDEST SWAP1 POP SWAP2 SWAP1 POP JUMP JUMPDEST PUSH2 0xF13 DUP2 PUSH2 0xEF9 JUMP JUMPDEST DUP3 MSTORE POP POP JUMP JUMPDEST PUSH0 DUP2 MLOAD SWAP1 POP SWAP2 SWAP1 POP JUMP JUMPDEST PUSH0 DUP3 DUP3 MSTORE PUSH1 0x20 DUP3 ADD SWAP1 POP SWAP3 SWAP2 POP POP JUMP JUMPDEST PUSH0 PUSH2 0xF3D DUP3 PUSH2 0xF19 JUMP JUMPDEST PUSH2 0xF47 DUP2 DUP6 PUSH2 0xF23 JUMP JUMPDEST SWAP4 POP PUSH2 0xF57 DUP2 DUP6 PUSH1 0x20 DUP7 ADD PUSH2 0xD55 JUMP JUMPDEST PUSH2 0xF60 DUP2 PUSH2 0xD63 JUMP JUMPDEST DUP5 ADD SWAP2 POP POP SWAP3 SWAP2 POP POP JUMP JUMPDEST PUSH0 PUSH1 0x80 DUP3 ADD SWAP1 POP PUSH2 0xF7E PUSH0 DUP4 ADD DUP8 PUSH2 0xF0A JUMP JUMPDEST PUSH2 0xF8B PUSH1 0x20 DUP4 ADD DUP7 PUSH2 0xC1A JUMP JUMPDEST DUP2 DUP2 SUB PUSH1 0x40 DUP4 ADD MSTORE PUSH2 0xF9D DUP2 DUP6 PUSH2 0xF33 JUMP JUMPDEST SWAP1 POP DUP2 DUP2 SUB PUSH1 0x60 DUP4 ADD MSTORE PUSH2 0xFB1 DUP2 DUP5 PUSH2 0xF33 JUMP JUMPDEST SWAP1 POP SWAP6 SWAP5 POP POP POP POP POP JUMP JUMPDEST PUSH0 DUP1 REVERT JUMPDEST PUSH32 0x4E487B7100000000000000000000000000000000000000000000000000000000 PUSH0 MSTORE PUSH1 0x41 PUSH1 0x4 MSTORE PUSH1 0x24 PUSH0 REVERT JUMPDEST PUSH2 0xFF6 DUP3 PUSH2 0xD63 JUMP JUMPDEST DUP2 ADD DUP2 DUP2 LT PUSH8 0xFFFFFFFFFFFFFFFF DUP3 GT OR ISZERO PUSH2 0x1015 JUMPI PUSH2 0x1014 PUSH2 0xFC0 JUMP JUMPDEST JUMPDEST DUP1 PUSH1 0x40 MSTORE POP POP POP JUMP JUMPDEST PUSH0 PUSH2 0x1027 PUSH2 0xBAB JUMP JUMPDEST SWAP1 POP PUSH2 0x1033 DUP3 DUP3 PUSH2 0xFED JUMP JUMPDEST SWAP2 SWAP1 POP JUMP JUMPDEST PUSH0 PUSH8 0xFFFFFFFFFFFFFFFF DUP3 GT ISZERO PUSH2 0x1052 JUMPI PUSH2 0x1051 PUSH2 0xFC0 JUMP JUMPDEST JUMPDEST PUSH2 0x105B DUP3 PUSH2 0xD63 JUMP JUMPDEST SWAP1 POP PUSH1 0x20 DUP2 ADD SWAP1 POP SWAP2 SWAP1 POP JUMP JUMPDEST DUP3 DUP2 DUP4 CALLDATACOPY PUSH0 DUP4 DUP4 ADD MSTORE POP POP POP JUMP JUMPDEST PUSH0 PUSH2 0x1088 PUSH2 0x1083 DUP5 PUSH2 0x1038 JUMP JUMPDEST PUSH2 0x101E JUMP JUMPDEST SWAP1 POP DUP3 DUP2 MSTORE PUSH1 0x20 DUP2 ADD DUP5 DUP5 DUP5 ADD GT ISZERO PUSH2 0x10A4 JUMPI PUSH2 0x10A3 PUSH2 0xFBC JUMP JUMPDEST JUMPDEST PUSH2 0x10AF DUP5 DUP3 DUP6 PUSH2 0x1068 JUMP JUMPDEST POP SWAP4 SWAP3 POP POP POP JUMP JUMPDEST PUSH0 DUP3 PUSH1 0x1F DUP4 ADD SLT PUSH2 0x10CB JUMPI PUSH2 0x10CA PUSH2 0xC7D JUMP JUMPDEST JUMPDEST DUP2 CALLDATALOAD PUSH2 0x10DB DUP5 DUP3 PUSH1 0x20 DUP7 ADD PUSH2 0x1076 JUMP JUMPDEST SWAP2 POP POP SWAP3 SWAP2 POP POP JUMP JUMPDEST PUSH0 DUP1 PUSH1 0x40 DUP4 DUP6 SUB SLT ISZERO PUSH2 0x10FA JUMPI PUSH2 0x10F9 PUSH2 0xBB4 JUMP JUMPDEST JUMPDEST PUSH0 PUSH2 0x1107 DUP6 DUP3 DUP7 ADD PUSH2 0xBDB JUMP JUMPDEST SWAP3 POP POP PUSH1 0x20 DUP4 ADD CALLDATALOAD PUSH8 0xFFFFFFFFFFFFFFFF DUP2 GT ISZERO PUSH2 0x1128 JUMPI PUSH2 0x1127 PUSH2 0xBB8 JUMP JUMPDEST JUMPDEST PUSH2 0x1134 DUP6 DUP3 DUP7 ADD PUSH2 0x10B7 JUMP JUMPDEST SWAP2 POP POP SWAP3 POP SWAP3 SWAP1 POP JUMP JUMPDEST PUSH0 DUP1 DUP4 PUSH1 0x1F DUP5 ADD SLT PUSH2 0x1153 JUMPI PUSH2 0x1152 PUSH2 0xC7D JUMP JUMPDEST JUMPDEST DUP3 CALLDATALOAD SWAP1 POP PUSH8 0xFFFFFFFFFFFFFFFF DUP2 GT ISZERO PUSH2 0x1170 JUMPI PUSH2 0x116F PUSH2 0xC81 JUMP JUMPDEST JUMPDEST PUSH1 0x20 DUP4 ADD SWAP2 POP DUP4 PUSH1 0x1 DUP3 MUL DUP4 ADD GT ISZERO PUSH2 0x118C JUMPI PUSH2 0x118B PUSH2 0xC85 JUMP JUMPDEST JUMPDEST SWAP3 POP SWAP3 SWAP1 POP JUMP JUMPDEST PUSH0 DUP1 PUSH0 DUP1 PUSH0 PUSH1 0x60 DUP7 DUP9 SUB SLT ISZERO PUSH2 0x11AC JUMPI PUSH2 0x11AB PUSH2 0xBB4 JUMP JUMPDEST JUMPDEST PUSH0 PUSH2 0x11B9 DUP9 DUP3 DUP10 ADD PUSH2 0xBDB JUMP JUMPDEST SWAP6 POP POP PUSH1 0x20 DUP7 ADD CALLDATALOAD PUSH8 0xFFFFFFFFFFFFFFFF DUP2 GT ISZERO PUSH2 0x11DA JUMPI PUSH2 0x11D9 PUSH2 0xBB8 JUMP JUMPDEST JUMPDEST PUSH2 0x11E6 DUP9 DUP3 DUP10 ADD PUSH2 0x113E JUMP JUMPDEST SWAP5 POP SWAP5 POP POP PUSH1 0x40 DUP7 ADD CALLDATALOAD PUSH8 0xFFFFFFFFFFFFFFFF DUP2 GT ISZERO PUSH2 0x1209 JUMPI PUSH2 0x1208 PUSH2 0xBB8 JUMP JUMPDEST JUMPDEST PUSH2 0x1215 DUP9 DUP3 DUP10 ADD PUSH2 0x113E JUMP JUMPDEST SWAP3 POP SWAP3 POP POP SWAP3 SWAP6 POP SWAP3 SWAP6 SWAP1 SWAP4 POP JUMP JUMPDEST PUSH0 PUSH2 0x123E PUSH2 0x1239 PUSH2 0x1234 DUP5 PUSH2 0xC42 JUMP JUMPDEST PUSH2 0xDEA JUMP JUMPDEST PUSH2 0xBBC JUMP JUMPDEST SWAP1 POP SWAP2 SWAP1 POP JUMP JUMPDEST PUSH2 0x124E DUP2 PUSH2 0x1224 JUMP JUMPDEST DUP3 MSTORE POP POP JUMP JUMPDEST PUSH0 PUSH1 0x40 DUP3 ADD SWAP1 POP PUSH2 0x1267 PUSH0 DUP4 ADD DUP6 PUSH2 0xC1A JUMP JUMPDEST PUSH2 0x1274 PUSH1 0x20 DUP4 ADD DUP5 PUSH2 0x1245 JUMP JUMPDEST SWAP4 SWAP3 POP POP POP JUMP JUMPDEST PUSH0 DUP2 MLOAD SWAP1 POP PUSH2 0x1289 DUP2 PUSH2 0xBC5 JUMP JUMPDEST SWAP3 SWAP2 POP POP JUMP JUMPDEST PUSH0 PUSH1 0x20 DUP3 DUP5 SUB SLT ISZERO PUSH2 0x12A4 JUMPI PUSH2 0x12A3 PUSH2 0xBB4 JUMP JUMPDEST JUMPDEST PUSH0 PUSH2 0x12B1 DUP5 DUP3 DUP6 ADD PUSH2 0x127B JUMP JUMPDEST SWAP2 POP POP SWAP3 SWAP2 POP POP JUMP JUMPDEST PUSH0 DUP2 SWAP1 POP SWAP3 SWAP2 POP POP JUMP JUMPDEST PUSH0 PUSH2 0x12CF DUP4 DUP6 PUSH2 0x12BA JUMP JUMPDEST SWAP4 POP PUSH2 0x12DC DUP4 DUP6 DUP5 PUSH2 0x1068 JUMP JUMPDEST DUP3 DUP5 ADD SWAP1 POP SWAP4 SWAP3 POP POP POP JUMP JUMPDEST PUSH0 PUSH2 0x12F4 DUP3 DUP5 DUP7 PUSH2 0x12C4 JUMP JUMPDEST SWAP2 POP DUP2 SWAP1 POP SWAP4 SWAP3 POP POP POP JUMP JUMPDEST PUSH32 0x4E487B7100000000000000000000000000000000000000000000000000000000 PUSH0 MSTORE PUSH1 0x22 PUSH1 0x4 MSTORE PUSH1 0x24 PUSH0 REVERT JUMPDEST PUSH0 PUSH1 0x2 DUP3 DIV SWAP1 POP PUSH1 0x1 DUP3 AND DUP1 PUSH2 0x1344 JUMPI PUSH1 0x7F DUP3 AND SWAP2 POP JUMPDEST PUSH1 0x20 DUP3 LT DUP2 SUB PUSH2 0x1357 JUMPI PUSH2 0x1356 PUSH2 0x1300 JUMP JUMPDEST JUMPDEST POP SWAP2 SWAP1 POP JUMP JUMPDEST PUSH2 0x1366 DUP2 PUSH2 0xE5E JUMP JUMPDEST DUP2 EQ PUSH2 0x1370 JUMPI PUSH0 DUP1 REVERT JUMPDEST POP JUMP JUMPDEST PUSH0 DUP2 MLOAD SWAP1 POP PUSH2 0x1381 DUP2 PUSH2 0x135D JUMP JUMPDEST SWAP3 SWAP2 POP POP JUMP JUMPDEST PUSH0 PUSH1 0x20 DUP3 DUP5 SUB SLT ISZERO PUSH2 0x139C JUMPI PUSH2 0x139B PUSH2 0xBB4 JUMP JUMPDEST JUMPDEST PUSH0 PUSH2 0x13A9 DUP5 DUP3 DUP6 ADD PUSH2 0x1373 JUMP JUMPDEST SWAP2 POP POP SWAP3 SWAP2 POP POP JUMP JUMPDEST PUSH32 0x4F6E6C79206F776E657200000000000000000000000000000000000000000000 PUSH0 DUP3 ADD MSTORE POP JUMP JUMPDEST PUSH0 PUSH2 0x13E6 PUSH1 0xA DUP4 PUSH2 0xD45 JUMP JUMPDEST SWAP2 POP PUSH2 0x13F1 DUP3 PUSH2 0x13B2 JUMP JUMPDEST PUSH1 0x20 DUP3 ADD SWAP1 POP SWAP2 SWAP1 POP JUMP JUMPDEST PUSH0 PUSH1 0x20 DUP3 ADD SWAP1 POP DUP2 DUP2 SUB PUSH0 DUP4 ADD MSTORE PUSH2 0x1413 DUP2 PUSH2 0x13DA JUMP JUMPDEST SWAP1 POP SWAP2 SWAP1 POP JUMP JUMPDEST PUSH0 PUSH1 0x40 DUP3 ADD SWAP1 POP PUSH2 0x142D PUSH0 DUP4 ADD DUP6 PUSH2 0xE36 JUMP JUMPDEST PUSH2 0x143A PUSH1 0x20 DUP4 ADD DUP5 PUSH2 0xE36 JUMP JUMPDEST SWAP4 SWAP3 POP POP POP JUMP JUMPDEST PUSH32 0x72657175657374206E6F74206578697374730000000000000000000000000000 PUSH0 DUP3 ADD MSTORE POP JUMP JUMPDEST PUSH0 PUSH2 0x1475 PUSH1 0x12 DUP4 PUSH2 0xD45 JUMP JUMPDEST SWAP2 POP PUSH2 0x1480 DUP3 PUSH2 0x1441 JUMP JUMPDEST PUSH1 0x20 DUP3 ADD SWAP1 POP SWAP2 SWAP1 POP JUMP JUMPDEST PUSH0 PUSH1 0x20 DUP3 ADD SWAP1 POP DUP2 DUP2 SUB PUSH0 DUP4 ADD MSTORE PUSH2 0x14A2 DUP2 PUSH2 0x1469 JUMP JUMPDEST SWAP1 POP SWAP2 SWAP1 POP JUMP JUMPDEST PUSH0 DUP3 SWAP1 POP SWAP3 SWAP2 POP POP JUMP JUMPDEST PUSH0 DUP2 SWAP1 POP DUP2 PUSH0 MSTORE PUSH1 0x20 PUSH0 KECCAK256 SWAP1 POP SWAP2 SWAP1 POP JUMP JUMPDEST PUSH0 PUSH1 0x20 PUSH1 0x1F DUP4 ADD DIV SWAP1 POP SWAP2 SWAP1 POP JUMP JUMPDEST PUSH0 DUP3 DUP3 SHL SWAP1 POP SWAP3 SWAP2 POP POP JUMP JUMPDEST PUSH0 PUSH1 0x8 DUP4 MUL PUSH2 0x150F PUSH32 0xFFFFFFFFFFFFFFFFFFFFFFFFFFFFFFFFFFFFFFFFFFFFFFFFFFFFFFFFFFFFFFFF DUP3 PUSH2 0x14D4 JUMP JUMPDEST PUSH2 0x1519 DUP7 DUP4 PUSH2 0x14D4 JUMP JUMPDEST SWAP6 POP DUP1 NOT DUP5 AND SWAP4 POP DUP1 DUP7 AND DUP5 OR SWAP3 POP POP POP SWAP4 SWAP3 POP POP POP JUMP JUMPDEST PUSH0 PUSH2 0x154B PUSH2 0x1546 PUSH2 0x1541 DUP5 PUSH2 0xBBC JUMP JUMPDEST PUSH2 0xDEA JUMP JUMPDEST PUSH2 0xBBC JUMP JUMPDEST SWAP1 POP SWAP2 SWAP1 POP JUMP JUMPDEST PUSH0 DUP2 SWAP1 POP SWAP2 SWAP1 POP JUMP JUMPDEST PUSH2 0x1564 DUP4 PUSH2 0x1531 JUMP JUMPDEST PUSH2 0x1578 PUSH2 0x1570 DUP3 PUSH2 0x1552 JUMP JUMPDEST DUP5 DUP5 SLOAD PUSH2 0x14E0 JUMP JUMPDEST DUP3 SSTORE POP POP POP POP JUMP JUMPDEST PUSH0 SWAP1 JUMP JUMPDEST PUSH2 0x158C PUSH2 0x1580 JUMP JUMPDEST PUSH2 0x1597 DUP2 DUP5 DUP5 PUSH2 0x155B JUMP JUMPDEST POP POP POP JUMP JUMPDEST JUMPDEST DUP2 DUP2 LT ISZERO PUSH2 0x15BA JUMPI PUSH2 0x15AF PUSH0 DUP3 PUSH2 0x1584 JUMP JUMPDEST PUSH1 0x1 DUP2 ADD SWAP1 POP PUSH2 0x159D JUMP JUMPDEST POP POP JUMP JUMPDEST PUSH1 0x1F DUP3 GT ISZERO PUSH2 0x15FF JUMPI PUSH2 0x15D0 DUP2 PUSH2 0x14B3 JUMP JUMPDEST PUSH2 0x15D9 DUP5 PUSH2 0x14C5 JUMP JUMPDEST DUP2 ADD PUSH1 0x20 DUP6 LT ISZERO PUSH2 0x15E8 JUMPI DUP2 SWAP1 POP JUMPDEST PUSH2 0x15FC PUSH2 0x15F4 DUP6 PUSH2 0x14C5 JUMP JUMPDEST DUP4 ADD DUP3 PUSH2 0x159C JUMP JUMPDEST POP POP JUMPDEST POP POP POP JUMP JUMPDEST PUSH0 DUP3 DUP3 SHR SWAP1 POP SWAP3 SWAP2 POP POP JUMP JUMPDEST PUSH0 PUSH2 0x161F PUSH0 NOT DUP5 PUSH1 0x8 MUL PUSH2 0x1604 JUMP JUMPDEST NOT DUP1 DUP4 AND SWAP2 POP POP SWAP3 SWAP2 POP POP JUMP JUMPDEST PUSH0 PUSH2 0x1637 DUP4 DUP4 PUSH2 0x1610 JUMP JUMPDEST SWAP2 POP DUP3 PUSH1 0x2 MUL DUP3 OR SWAP1 POP SWAP3 SWAP2 POP POP JUMP JUMPDEST PUSH2 0x1651 DUP4 DUP4 PUSH2 0x14A9 JUMP JUMPDEST PUSH8 0xFFFFFFFFFFFFFFFF DUP2 GT ISZERO PUSH2 0x166A JUMPI PUSH2 0x1669 PUSH2 0xFC0 JUMP JUMPDEST JUMPDEST PUSH2 0x1674 DUP3 SLOAD PUSH2 0x132D JUMP JUMPDEST PUSH2 0x167F DUP3 DUP3 DUP6 PUSH2 0x15BE JUMP JUMPDEST PUSH0 PUSH1 0x1F DUP4 GT PUSH1 0x1 DUP2 EQ PUSH2 0x16AC JUMPI PUSH0 DUP5 ISZERO PUSH2 0x169A JUMPI DUP3 DUP8 ADD CALLDATALOAD SWAP1 POP JUMPDEST PUSH2 0x16A4 DUP6 DUP3 PUSH2 0x162C JUMP JUMPDEST DUP7 SSTORE POP PUSH2 0x170B JUMP JUMPDEST PUSH1 0x1F NOT DUP5 AND PUSH2 0x16BA DUP7 PUSH2 0x14B3 JUMP JUMPDEST PUSH0 JUMPDEST DUP3 DUP2 LT ISZERO PUSH2 0x16E1 JUMPI DUP5 DUP10 ADD CALLDATALOAD DUP3 SSTORE PUSH1 0x1 DUP3 ADD SWAP2 POP PUSH1 0x20 DUP6 ADD SWAP5 POP PUSH1 0x20 DUP2 ADD SWAP1 POP PUSH2 0x16BC JUMP JUMPDEST DUP7 DUP4 LT ISZERO PUSH2 0x16FE JUMPI DUP5 DUP10 ADD CALLDATALOAD PUSH2 0x16FA PUSH1 0x1F DUP10 AND DUP3 PUSH2 0x1610 JUMP JUMPDEST DUP4 SSTORE POP JUMPDEST PUSH1 0x1 PUSH1 0x2 DUP9 MUL ADD DUP9 SSTORE POP POP POP JUMPDEST POP POP POP POP POP POP POP JUMP JUMPDEST PUSH0 DUP2 SWAP1 POP DUP2 PUSH0 MSTORE PUSH1 0x20 PUSH0 KECCAK256 SWAP1 POP SWAP2 SWAP1 POP JUMP JUMPDEST PUSH0 DUP2 SLOAD PUSH2 0x1732 DUP2 PUSH2 0x132D JUMP JUMPDEST PUSH2 0x173C DUP2 DUP7 PUSH2 0x12BA JUMP JUMPDEST SWAP5 POP PUSH1 0x1 DUP3 AND PUSH0 DUP2 EQ PUSH2 0x1756 JUMPI PUSH1 0x1 DUP2 EQ PUSH2 0x176B JUMPI PUSH2 0x179D JUMP JUMPDEST PUSH1 0xFF NOT DUP4 AND DUP7 MSTORE DUP2 ISZERO ISZERO DUP3 MUL DUP7 ADD SWAP4 POP PUSH2 0x179D JUMP JUMPDEST PUSH2 0x1774 DUP6 PUSH2 0x1714 JUMP JUMPDEST PUSH0 JUMPDEST DUP4 DUP2 LT ISZERO PUSH2 0x1795 JUMPI DUP2 SLOAD DUP2 DUP10 ADD MSTORE PUSH1 0x1 DUP3 ADD SWAP2 POP PUSH1 0x20 DUP2 ADD SWAP1 POP PUSH2 0x1776 JUMP JUMPDEST DUP4 DUP9 ADD SWAP6 POP POP POP JUMPDEST POP POP POP SWAP3 SWAP2 POP POP JUMP JUMPDEST PUSH0 PUSH2 0x17B1 DUP3 DUP5 PUSH2 0x1726 JUMP JUMPDEST SWAP2 POP DUP2 SWAP1 POP SWAP3 SWAP2 POP POP JUMP JUMPDEST PUSH0 DUP3 SWAP1 POP SWAP3 SWAP2 POP POP JUMP JUMPDEST PUSH0 DUP2 SWAP1 POP DUP2 PUSH0 MSTORE PUSH1 0x20 PUSH0 KECCAK256 SWAP1 POP SWAP2 SWAP1 POP JUMP JUMPDEST PUSH1 0x1F DUP3 GT ISZERO PUSH2 0x1819 JUMPI PUSH2 0x17EA DUP2 PUSH2 0x17C6 JUMP JUMPDEST PUSH2 0x17F3 DUP5 PUSH2 0x14C5 JUMP JUMPDEST DUP2 ADD PUSH1 0x20 DUP6 LT ISZERO PUSH2 0x1802 JUMPI DUP2 SWAP1 POP JUMPDEST PUSH2 0x1816 PUSH2 0x180E DUP6 PUSH2 0x14C5 JUMP JUMPDEST DUP4 ADD DUP3 PUSH2 0x159C JUMP JUMPDEST POP POP JUMPDEST POP POP POP JUMP JUMPDEST PUSH2 0x1828 DUP4 DUP4 PUSH2 0x17BC JUMP JUMPDEST PUSH8 0xFFFFFFFFFFFFFFFF DUP2 GT ISZERO PUSH2 0x1841 JUMPI PUSH2 0x1840 PUSH2 0xFC0 JUMP JUMPDEST JUMPDEST PUSH2 0x184B DUP3 SLOAD PUSH2 0x132D JUMP JUMPDEST PUSH2 0x1856 DUP3 DUP3 DUP6 PUSH2 0x17D8 JUMP JUMPDEST PUSH0 PUSH1 0x1F DUP4 GT PUSH1 0x1 DUP2 EQ PUSH2 0x1883 JUMPI PUSH0 DUP5 ISZERO PUSH2 0x1871 JUMPI DUP3 DUP8 ADD CALLDATALOAD SWAP1 POP JUMPDEST PUSH2 0x187B DUP6 DUP3 PUSH2 0x162C JUMP JUMPDEST DUP7 SSTORE POP PUSH2 0x18E2 JUMP JUMPDEST PUSH1 0x1F NOT DUP5 AND PUSH2 0x1891 DUP7 PUSH2 0x17C6 JUMP JUMPDEST PUSH0 JUMPDEST DUP3 DUP2 LT ISZERO PUSH2 0x18B8 JUMPI DUP5 DUP10 ADD CALLDATALOAD DUP3 SSTORE PUSH1 0x1 DUP3 ADD SWAP2 POP PUSH1 0x20 DUP6 ADD SWAP5 POP PUSH1 0x20 DUP2 ADD SWAP1 POP PUSH2 0x1893 JUMP JUMPDEST DUP7 DUP4 LT ISZERO PUSH2 0x18D5 JUMPI DUP5 DUP10 ADD CALLDATALOAD PUSH2 0x18D1 PUSH1 0x1F DUP10 AND DUP3 PUSH2 0x1610 JUMP JUMPDEST DUP4 SSTORE POP JUMPDEST PUSH1 0x1 PUSH1 0x2 DUP9 MUL ADD DUP9 SSTORE POP POP POP JUMPDEST POP POP POP POP POP POP POP JUMP JUMPDEST PUSH0 DUP2 SLOAD PUSH2 0x18F7 DUP2 PUSH2 0x132D JUMP JUMPDEST PUSH2 0x1901 DUP2 DUP7 PUSH2 0xD45 JUMP JUMPDEST SWAP5 POP PUSH1 0x1 DUP3 AND PUSH0 DUP2 EQ PUSH2 0x191B JUMPI PUSH1 0x1 DUP2 EQ PUSH2 0x1931 JUMPI PUSH2 0x1963 JUMP JUMPDEST PUSH1 0xFF NOT DUP4 AND DUP7 MSTORE DUP2 ISZERO ISZERO PUSH1 0x20 MUL DUP7 ADD SWAP4 POP PUSH2 0x1963 JUMP JUMPDEST PUSH2 0x193A DUP6 PUSH2 0x1714 JUMP JUMPDEST PUSH0 JUMPDEST DUP4 DUP2 LT ISZERO PUSH2 0x195B JUMPI DUP2 SLOAD DUP2 DUP10 ADD MSTORE PUSH1 0x1 DUP3 ADD SWAP2 POP PUSH1 0x20 DUP2 ADD SWAP1 POP PUSH2 0x193C JUMP JUMPDEST DUP1 DUP9 ADD SWAP6 POP POP POP JUMPDEST POP POP POP SWAP3 SWAP2 POP POP JUMP JUMPDEST PUSH0 PUSH2 0x1977 DUP4 DUP6 PUSH2 0xD45 JUMP JUMPDEST SWAP4 POP PUSH2 0x1984 DUP4 DUP6 DUP5 PUSH2 0x1068 JUMP JUMPDEST PUSH2 0x198D DUP4 PUSH2 0xD63 JUMP JUMPDEST DUP5 ADD SWAP1 POP SWAP4 SWAP3 POP POP POP JUMP JUMPDEST PUSH0 PUSH2 0x19A3 DUP4 DUP6 PUSH2 0xF23 JUMP JUMPDEST SWAP4 POP PUSH2 0x19B0 DUP4 DUP6 DUP5 PUSH2 0x1068 JUMP JUMPDEST PUSH2 0x19B9 DUP4 PUSH2 0xD63 JUMP JUMPDEST DUP5 ADD SWAP1 POP SWAP4 SWAP3 POP POP POP JUMP JUMPDEST PUSH0 PUSH1 0xA0 DUP3 ADD SWAP1 POP PUSH2 0x19D7 PUSH0 DUP4 ADD DUP11 PUSH2 0xC1A JUMP JUMPDEST PUSH2 0x19E4 PUSH1 0x20 DUP4 ADD DUP10 PUSH2 0xC1A JUMP JUMPDEST DUP2 DUP2 SUB PUSH1 0x40 DUP4 ADD MSTORE PUSH2 0x19F6 DUP2 DUP9 PUSH2 0x18EB JUMP JUMPDEST SWAP1 POP DUP2 DUP2 SUB PUSH1 0x60 DUP4 ADD MSTORE PUSH2 0x1A0B DUP2 DUP7 DUP9 PUSH2 0x196C JUMP JUMPDEST SWAP1 POP DUP2 DUP2 SUB PUSH1 0x80 DUP4 ADD MSTORE PUSH2 0x1A20 DUP2 DUP5 DUP7 PUSH2 0x1998 JUMP JUMPDEST SWAP1 POP SWAP9 SWAP8 POP POP POP POP POP POP POP POP JUMP JUMPDEST POP JUMP JUMPDEST PUSH0 PUSH2 0x1A3C PUSH0 DUP4 PUSH2 0xF23 JUMP JUMPDEST SWAP2 POP PUSH2 0x1A47 DUP3 PUSH2 0x1A2E JUMP JUMPDEST PUSH0 DUP3 ADD SWAP1 POP SWAP2 SWAP1 POP JUMP JUMPDEST PUSH0 PUSH1 0xA0 DUP3 ADD SWAP1 POP PUSH2 0x1A64 PUSH0 DUP4 ADD DUP8 PUSH2 0xC1A JUMP JUMPDEST DUP2 DUP2 SUB PUSH1 0x20 DUP4 ADD MSTORE PUSH2 0x1A76 DUP2 DUP7 PUSH2 0xF33 JUMP JUMPDEST SWAP1 POP PUSH2 0x1A85 PUSH1 0x40 DUP4 ADD DUP6 PUSH2 0xF0A JUMP JUMPDEST PUSH2 0x1A92 PUSH1 0x60 DUP4 ADD DUP5 PUSH2 0xC55 JUMP JUMPDEST DUP2 DUP2 SUB PUSH1 0x80 DUP4 ADD MSTORE PUSH2 0x1AA3 DUP2 PUSH2 0x1A31 JUMP JUMPDEST SWAP1 POP SWAP6 SWAP5 POP POP POP POP POP JUMP JUMPDEST PUSH2 0x1AB7 DUP3 PUSH2 0xF19 JUMP JUMPDEST PUSH8 0xFFFFFFFFFFFFFFFF DUP2 GT ISZERO PUSH2 0x1AD0 JUMPI PUSH2 0x1ACF PUSH2 0xFC0 JUMP JUMPDEST JUMPDEST PUSH2 0x1ADA DUP3 SLOAD PUSH2 0x132D JUMP JUMPDEST PUSH2 0x1AE5 DUP3 DUP3 DUP6 PUSH2 0x15BE JUMP JUMPDEST PUSH0 PUSH1 0x20 SWAP1 POP PUSH1 0x1F DUP4 GT PUSH1 0x1 DUP2 EQ PUSH2 0x1B16 JUMPI PUSH0 DUP5 ISZERO PUSH2 0x1B04 JUMPI DUP3 DUP8 ADD MLOAD SWAP1 POP JUMPDEST PUSH2 0x1B0E DUP6 DUP3 PUSH2 0x162C JUMP JUMPDEST DUP7 SSTORE POP PUSH2 0x1B75 JUMP JUMPDEST PUSH1 0x1F NOT DUP5 AND PUSH2 0x1B24 DUP7 PUSH2 0x14B3 JUMP JUMPDEST PUSH0 JUMPDEST DUP3 DUP2 LT ISZERO PUSH2 0x1B4B JUMPI DUP5 DUP10 ADD MLOAD DUP3 SSTORE PUSH1 0x1 DUP3 ADD SWAP2 POP PUSH1 0x20 DUP6 ADD SWAP5 POP PUSH1 0x20 DUP2 ADD SWAP1 POP PUSH2 0x1B26 JUMP JUMPDEST DUP7 DUP4 LT ISZERO PUSH2 0x1B68 JUMPI DUP5 DUP10 ADD MLOAD PUSH2 0x1B64 PUSH1 0x1F DUP10 AND DUP3 PUSH2 0x1610 JUMP JUMPDEST DUP4 SSTORE POP JUMPDEST PUSH1 0x1 PUSH1 0x2 DUP9 MUL ADD DUP9 SSTORE POP POP POP JUMPDEST POP POP POP POP POP POP JUMP JUMPDEST PUSH0 PUSH1 0x80 DUP3 ADD SWAP1 POP PUSH2 0x1B90 PUSH0 DUP4 ADD DUP9 PUSH2 0xC1A JUMP JUMPDEST PUSH2 0x1B9D PUSH1 0x20 DUP4 ADD DUP8 PUSH2 0xF0A JUMP JUMPDEST PUSH2 0x1BAA PUSH1 0x40 DUP4 ADD DUP7 PUSH2 0xC1A JUMP JUMPDEST DUP2 DUP2 SUB PUSH1 0x60 DUP4 ADD MSTORE PUSH2 0x1BBD DUP2 DUP5 DUP7 PUSH2 0x196C JUMP JUMPDEST SWAP1 POP SWAP7 SWAP6 POP POP POP POP POP POP JUMP INVALID LOG2 PUSH5 0x6970667358 0x22 SLT KECCAK256 0x2A EXTCODEHASH 0x23 PUSH27 0xB64846A2A7DFAEC281B1EBE4CDD6EC4BDC1EBB78855C2F697C286D 0xDE PUSH5 0x736F6C6343 STOP ADDMOD BYTE STOP CALLER "
				},
				"gasEstimates": {
					"creation": {
						"codeDepositCost": "1433400",
						"executionCost": "infinite",
						"totalCost": "infinite"
					},
					"external": {
						"aiOracle()": "infinite",
						"aiOracleCallback(uint256,bytes,bytes)": "infinite",
						"calculateAIResult(uint256,string)": "infinite",
						"callbackGasLimit(uint256)": "2808",
						"estimateFee(uint256)": "infinite",
						"getAIResult(uint256,string)": "infinite",
						"isFinalized(uint256)": "infinite",
						"prompts(uint256,string)": "infinite",
						"requests(uint256)": "infinite",
						"setCallbackGasLimit(uint256,uint64)": "27086"
					}
				},
				"methodIdentifiers": {
					"aiOracle()": "31b221cd",
					"aiOracleCallback(uint256,bytes,bytes)": "b0347814",
					"calculateAIResult(uint256,string)": "fac5d7e1",
					"callbackGasLimit(uint256)": "20f38718",
					"estimateFee(uint256)": "127e8e4d",
					"getAIResult(uint256,string)": "2c6296b7",
					"isFinalized(uint256)": "33727c4d",
					"prompts(uint256,string)": "8cbc52d9",
					"requests(uint256)": "81d12c58",
					"setCallbackGasLimit(uint256,uint64)": "813d1e15"
				}
			},
			"storageLayout": {
				"storage": [
					{
						"astId": 112,
						"contract": "contracts/Prompt.sol:Prompt",
						"label": "owner",
						"offset": 0,
						"slot": "0",
						"type": "t_address"
					},
					{
						"astId": 129,
						"contract": "contracts/Prompt.sol:Prompt",
						"label": "requests",
						"offset": 0,
						"slot": "1",
						"type": "t_mapping(t_uint256,t_struct(AIOracleRequest)110_storage)"
					},
					{
						"astId": 133,
						"contract": "contracts/Prompt.sol:Prompt",
						"label": "callbackGasLimit",
						"offset": 0,
						"slot": "2",
						"type": "t_mapping(t_uint256,t_uint64)"
					},
					{
						"astId": 171,
						"contract": "contracts/Prompt.sol:Prompt",
						"label": "prompts",
						"offset": 0,
						"slot": "3",
						"type": "t_mapping(t_uint256,t_mapping(t_string_memory_ptr,t_string_storage))"
					}
				],
				"types": {
					"t_address": {
						"encoding": "inplace",
						"label": "address",
						"numberOfBytes": "20"
					},
					"t_bytes_storage": {
						"encoding": "bytes",
						"label": "bytes",
						"numberOfBytes": "32"
					},
					"t_mapping(t_string_memory_ptr,t_string_storage)": {
						"encoding": "mapping",
						"key": "t_string_memory_ptr",
						"label": "mapping(string => string)",
						"numberOfBytes": "32",
						"value": "t_string_storage"
					},
					"t_mapping(t_uint256,t_mapping(t_string_memory_ptr,t_string_storage))": {
						"encoding": "mapping",
						"key": "t_uint256",
						"label": "mapping(uint256 => mapping(string => string))",
						"numberOfBytes": "32",
						"value": "t_mapping(t_string_memory_ptr,t_string_storage)"
					},
					"t_mapping(t_uint256,t_struct(AIOracleRequest)110_storage)": {
						"encoding": "mapping",
						"key": "t_uint256",
						"label": "mapping(uint256 => struct Prompt.AIOracleRequest)",
						"numberOfBytes": "32",
						"value": "t_struct(AIOracleRequest)110_storage"
					},
					"t_mapping(t_uint256,t_uint64)": {
						"encoding": "mapping",
						"key": "t_uint256",
						"label": "mapping(uint256 => uint64)",
						"numberOfBytes": "32",
						"value": "t_uint64"
					},
					"t_string_memory_ptr": {
						"encoding": "bytes",
						"label": "string",
						"numberOfBytes": "32"
					},
					"t_string_storage": {
						"encoding": "bytes",
						"label": "string",
						"numberOfBytes": "32"
					},
					"t_struct(AIOracleRequest)110_storage": {
						"encoding": "inplace",
						"label": "struct Prompt.AIOracleRequest",
						"members": [
							{
								"astId": 103,
								"contract": "contracts/Prompt.sol:Prompt",
								"label": "sender",
								"offset": 0,
								"slot": "0",
								"type": "t_address"
							},
							{
								"astId": 105,
								"contract": "contracts/Prompt.sol:Prompt",
								"label": "modelId",
								"offset": 0,
								"slot": "1",
								"type": "t_uint256"
							},
							{
								"astId": 107,
								"contract": "contracts/Prompt.sol:Prompt",
								"label": "input",
								"offset": 0,
								"slot": "2",
								"type": "t_bytes_storage"
							},
							{
								"astId": 109,
								"contract": "contracts/Prompt.sol:Prompt",
								"label": "output",
								"offset": 0,
								"slot": "3",
								"type": "t_bytes_storage"
							}
						],
						"numberOfBytes": "128"
					},
					"t_uint256": {
						"encoding": "inplace",
						"label": "uint256",
						"numberOfBytes": "32"
					},
					"t_uint64": {
						"encoding": "inplace",
						"label": "uint64",
						"numberOfBytes": "8"
					}
				}
			},
			"userdoc": {
				"kind": "user",
				"methods": {
					"constructor": {
						"notice": "Initialize the contract, binding it to a specified AIOracle."
					}
				},
				"version": 1
			}
		}
	}
}