{
	"contracts/Promp-nft.sol": {
		"Prompt": {
			"abi": [
				{
					"inputs": [
						{
							"internalType": "contract IAIOracle",
							"name": "_aiOracle",
							"type": "address"
						},
						{
							"internalType": "contract IERC7007",
							"name": "_erc7007",
							"type": "address"
						}
					],
					"stateMutability": "nonpayable",
					"type": "constructor"
				},
				{
					"inputs": [
						{
							"internalType": "contract IAIOracle",
							"name": "expected",
							"type": "address"
						},
						{
							"internalType": "contract IAIOracle",
							"name": "found",
							"type": "address"
						}
					],
					"name": "UnauthorizedCallbackSource",
					"type": "error"
				},
				{
					"anonymous": false,
					"inputs": [
						{
							"indexed": true,
							"internalType": "address",
							"name": "to",
							"type": "address"
						},
						{
							"indexed": true,
							"internalType": "uint256",
							"name": "tokenId",
							"type": "uint256"
						},
						{
							"indexed": true,
							"internalType": "bytes",
							"name": "prompt",
							"type": "bytes"
						},
						{
							"indexed": false,
							"internalType": "bytes",
							"name": "aigcData",
							"type": "bytes"
						}
					],
					"name": "MintedWithAI",
					"type": "event"
				},
				{
					"anonymous": false,
					"inputs": [
						{
							"indexed": true,
							"internalType": "address",
							"name": "to",
							"type": "address"
						},
						{
							"indexed": true,
							"internalType": "uint256",
							"name": "tokenId",
							"type": "uint256"
						},
						{
							"indexed": false,
							"internalType": "string",
							"name": "uri",
							"type": "string"
						}
					],
					"name": "MintedWithURI",
					"type": "event"
				},
				{
					"anonymous": false,
					"inputs": [
						{
							"indexed": false,
							"internalType": "uint256",
							"name": "requestId",
							"type": "uint256"
						},
						{
							"indexed": false,
							"internalType": "address",
							"name": "sender",
							"type": "address"
						},
						{
							"indexed": false,
							"internalType": "uint256",
							"name": "modelId",
							"type": "uint256"
						},
						{
							"indexed": false,
							"internalType": "string",
							"name": "prompt",
							"type": "string"
						}
					],
					"name": "PromptRequest",
					"type": "event"
				},
				{
					"anonymous": false,
					"inputs": [
						{
							"indexed": false,
							"internalType": "uint256",
							"name": "requestId",
							"type": "uint256"
						},
						{
							"indexed": false,
							"internalType": "uint256",
							"name": "modelId",
							"type": "uint256"
						},
						{
							"indexed": false,
							"internalType": "string",
							"name": "input",
							"type": "string"
						},
						{
							"indexed": false,
							"internalType": "string",
							"name": "output",
							"type": "string"
						},
						{
							"indexed": false,
							"internalType": "bytes",
							"name": "callbackData",
							"type": "bytes"
						}
					],
					"name": "PromptsUpdated",
					"type": "event"
				},
				{
					"inputs": [],
					"name": "aiOracle",
					"outputs": [
						{
							"internalType": "contract IAIOracle",
							"name": "",
							"type": "address"
						}
					],
					"stateMutability": "view",
					"type": "function"
				},
				{
					"inputs": [
						{
							"internalType": "uint256",
							"name": "requestId",
							"type": "uint256"
						},
						{
							"internalType": "bytes",
							"name": "output",
							"type": "bytes"
						},
						{
							"internalType": "bytes",
							"name": "callbackData",
							"type": "bytes"
						}
					],
					"name": "aiOracleCallback",
					"outputs": [],
					"stateMutability": "nonpayable",
					"type": "function"
				},
				{
					"inputs": [
						{
							"internalType": "uint256",
							"name": "modelId",
							"type": "uint256"
						},
						{
							"internalType": "string",
							"name": "prompt",
							"type": "string"
						}
					],
					"name": "calculateAIResult",
					"outputs": [],
					"stateMutability": "payable",
					"type": "function"
				},
				{
					"inputs": [
						{
							"internalType": "uint256",
							"name": "",
							"type": "uint256"
						}
					],
					"name": "callbackGasLimit",
					"outputs": [
						{
							"internalType": "uint64",
							"name": "",
							"type": "uint64"
						}
					],
					"stateMutability": "view",
					"type": "function"
				},
				{
					"inputs": [],
					"name": "erc7007",
					"outputs": [
						{
							"internalType": "contract IERC7007",
							"name": "",
							"type": "address"
						}
					],
					"stateMutability": "view",
					"type": "function"
				},
				{
					"inputs": [
						{
							"internalType": "uint256",
							"name": "modelId",
							"type": "uint256"
						}
					],
					"name": "estimateFee",
					"outputs": [
						{
							"internalType": "uint256",
							"name": "",
							"type": "uint256"
						}
					],
					"stateMutability": "view",
					"type": "function"
				},
				{
					"inputs": [
						{
							"internalType": "uint256",
							"name": "modelId",
							"type": "uint256"
						},
						{
							"internalType": "string",
							"name": "prompt",
							"type": "string"
						}
					],
					"name": "getAIResult",
					"outputs": [
						{
							"internalType": "string",
							"name": "",
							"type": "string"
						}
					],
					"stateMutability": "view",
					"type": "function"
				},
				{
					"inputs": [
						{
							"internalType": "uint256",
							"name": "requestId",
							"type": "uint256"
						}
					],
					"name": "isFinalized",
					"outputs": [
						{
							"internalType": "bool",
							"name": "",
							"type": "bool"
						}
					],
					"stateMutability": "view",
					"type": "function"
				},
				{
					"inputs": [
						{
							"internalType": "uint256",
							"name": "requestId",
							"type": "uint256"
						}
					],
					"name": "mintWithAIResult",
					"outputs": [],
					"stateMutability": "nonpayable",
					"type": "function"
				},
				{
					"inputs": [],
					"name": "owner",
					"outputs": [
						{
							"internalType": "address",
							"name": "",
							"type": "address"
						}
					],
					"stateMutability": "view",
					"type": "function"
				},
				{
					"inputs": [
						{
							"internalType": "uint256",
							"name": "",
							"type": "uint256"
						},
						{
							"internalType": "string",
							"name": "",
							"type": "string"
						}
					],
					"name": "prompts",
					"outputs": [
						{
							"internalType": "string",
							"name": "",
							"type": "string"
						}
					],
					"stateMutability": "view",
					"type": "function"
				},
				{
					"inputs": [
						{
							"internalType": "uint256",
							"name": "",
							"type": "uint256"
						}
					],
					"name": "requests",
					"outputs": [
						{
							"internalType": "address",
							"name": "sender",
							"type": "address"
						},
						{
							"internalType": "uint256",
							"name": "modelId",
							"type": "uint256"
						},
						{
							"internalType": "bytes",
							"name": "input",
							"type": "bytes"
						},
						{
							"internalType": "bytes",
							"name": "output",
							"type": "bytes"
						}
					],
					"stateMutability": "view",
					"type": "function"
				},
				{
					"inputs": [
						{
							"internalType": "uint256",
							"name": "modelId",
							"type": "uint256"
						},
						{
							"internalType": "uint64",
							"name": "gasLimit",
							"type": "uint64"
						}
					],
					"name": "setCallbackGasLimit",
					"outputs": [],
					"stateMutability": "nonpayable",
					"type": "function"
				}
			],
			"devdoc": {
				"kind": "dev",
				"methods": {
					"aiOracleCallback(uint256,bytes,bytes)": {
						"details": "the callback function in OAO, should add the modifier onlyAIOracleCallback!",
						"params": {
							"callbackData": "user-defined data (The same as when the user call aiOracle.requestCallback)",
							"output": "AI model's output",
							"requestId": "Id for the request in OAO (unique per request)"
						}
					}
				},
				"version": 1
			},
			"evm": {
				"assembly": "    /* \"contracts/Promp-nft.sol\":212:4548  contract Prompt is AIOracleCallbackReceiver {... */\n  mstore(0x40, 0xa0)\n    /* \"contracts/Promp-nft.sol\":1272:1423  constructor(IAIOracle _aiOracle, IERC7007 _erc7007) AIOracleCallbackReceiver(_aiOracle) {... */\n  callvalue\n  dup1\n  iszero\n  tag_1\n  jumpi\n  0x00\n  dup1\n  revert\ntag_1:\n  pop\n  mload(0x40)\n  sub(codesize, bytecodeSize)\n  dup1\n  bytecodeSize\n  dup4\n  codecopy\n  dup2\n  dup2\n  add\n  0x40\n  mstore\n  dup2\n  add\n  swap1\n  tag_2\n  swap2\n  swap1\n  tag_3\n  jump\t// in\ntag_2:\n    /* \"contracts/Promp-nft.sol\":1349:1358  _aiOracle */\n  dup2\n    /* \"contracts/AIOracleCallbackReceiver.sol\":556:565  _aiOracle */\n  dup1\n    /* \"contracts/AIOracleCallbackReceiver.sol\":545:565  aiOracle = _aiOracle */\n  0xffffffffffffffffffffffffffffffffffffffff\n  and\n  0x80\n  dup2\n  0xffffffffffffffffffffffffffffffffffffffff\n  and\n  dup2\n  mstore\n  pop\n  pop\n    /* \"contracts/AIOracleCallbackReceiver.sol\":502:572  constructor(IAIOracle _aiOracle) {... */\n  pop\n    /* \"contracts/Promp-nft.sol\":1378:1388  msg.sender */\n  caller\n    /* \"contracts/Promp-nft.sol\":1370:1375  owner */\n  0x00\n  dup1\n    /* \"contracts/Promp-nft.sol\":1370:1388  owner = msg.sender */\n  0x0100\n  exp\n  dup2\n  sload\n  dup2\n  0xffffffffffffffffffffffffffffffffffffffff\n  mul\n  not\n  and\n  swap1\n  dup4\n  0xffffffffffffffffffffffffffffffffffffffff\n  and\n  mul\n  or\n  swap1\n  sstore\n  pop\n    /* \"contracts/Promp-nft.sol\":1408:1416  _erc7007 */\n  dup1\n    /* \"contracts/Promp-nft.sol\":1398:1405  erc7007 */\n  0x01\n  0x00\n    /* \"contracts/Promp-nft.sol\":1398:1416  erc7007 = _erc7007 */\n  0x0100\n  exp\n  dup2\n  sload\n  dup2\n  0xffffffffffffffffffffffffffffffffffffffff\n  mul\n  not\n  and\n  swap1\n  dup4\n  0xffffffffffffffffffffffffffffffffffffffff\n  and\n  mul\n  or\n  swap1\n  sstore\n  pop\n    /* \"contracts/Promp-nft.sol\":1272:1423  constructor(IAIOracle _aiOracle, IERC7007 _erc7007) AIOracleCallbackReceiver(_aiOracle) {... */\n  pop\n  pop\n    /* \"contracts/Promp-nft.sol\":212:4548  contract Prompt is AIOracleCallbackReceiver {... */\n  jump(tag_8)\n    /* \"#utility.yul\":88:205   */\ntag_10:\n    /* \"#utility.yul\":197:198   */\n  0x00\n    /* \"#utility.yul\":194:195   */\n  dup1\n    /* \"#utility.yul\":187:199   */\n  revert\n    /* \"#utility.yul\":334:460   */\ntag_12:\n    /* \"#utility.yul\":371:378   */\n  0x00\n    /* \"#utility.yul\":411:453   */\n  0xffffffffffffffffffffffffffffffffffffffff\n    /* \"#utility.yul\":404:409   */\n  dup3\n    /* \"#utility.yul\":400:454   */\n  and\n    /* \"#utility.yul\":389:454   */\n  swap1\n  pop\n    /* \"#utility.yul\":334:460   */\n  swap2\n  swap1\n  pop\n  jump\t// out\n    /* \"#utility.yul\":466:562   */\ntag_13:\n    /* \"#utility.yul\":503:510   */\n  0x00\n    /* \"#utility.yul\":532:556   */\n  tag_26\n    /* \"#utility.yul\":550:555   */\n  dup3\n    /* \"#utility.yul\":532:556   */\n  tag_12\n  jump\t// in\ntag_26:\n    /* \"#utility.yul\":521:556   */\n  swap1\n  pop\n    /* \"#utility.yul\":466:562   */\n  swap2\n  swap1\n  pop\n  jump\t// out\n    /* \"#utility.yul\":568:681   */\ntag_14:\n    /* \"#utility.yul\":622:629   */\n  0x00\n    /* \"#utility.yul\":651:675   */\n  tag_28\n    /* \"#utility.yul\":669:674   */\n  dup3\n    /* \"#utility.yul\":651:675   */\n  tag_13\n  jump\t// in\ntag_28:\n    /* \"#utility.yul\":640:675   */\n  swap1\n  pop\n    /* \"#utility.yul\":568:681   */\n  swap2\n  swap1\n  pop\n  jump\t// out\n    /* \"#utility.yul\":687:843   */\ntag_15:\n    /* \"#utility.yul\":777:818   */\n  tag_30\n    /* \"#utility.yul\":812:817   */\n  dup2\n    /* \"#utility.yul\":777:818   */\n  tag_14\n  jump\t// in\ntag_30:\n    /* \"#utility.yul\":770:775   */\n  dup2\n    /* \"#utility.yul\":767:819   */\n  eq\n    /* \"#utility.yul\":757:837   */\n  tag_31\n  jumpi\n    /* \"#utility.yul\":833:834   */\n  0x00\n    /* \"#utility.yul\":830:831   */\n  dup1\n    /* \"#utility.yul\":823:835   */\n  revert\n    /* \"#utility.yul\":757:837   */\ntag_31:\n    /* \"#utility.yul\":687:843   */\n  pop\n  jump\t// out\n    /* \"#utility.yul\":849:1026   */\ntag_16:\n    /* \"#utility.yul\":923:928   */\n  0x00\n    /* \"#utility.yul\":954:960   */\n  dup2\n    /* \"#utility.yul\":948:961   */\n  mload\n    /* \"#utility.yul\":939:961   */\n  swap1\n  pop\n    /* \"#utility.yul\":970:1020   */\n  tag_33\n    /* \"#utility.yul\":1014:1019   */\n  dup2\n    /* \"#utility.yul\":970:1020   */\n  tag_15\n  jump\t// in\ntag_33:\n    /* \"#utility.yul\":849:1026   */\n  swap3\n  swap2\n  pop\n  pop\n  jump\t// out\n    /* \"#utility.yul\":1032:1144   */\ntag_17:\n    /* \"#utility.yul\":1085:1092   */\n  0x00\n    /* \"#utility.yul\":1114:1138   */\n  tag_35\n    /* \"#utility.yul\":1132:1137   */\n  dup3\n    /* \"#utility.yul\":1114:1138   */\n  tag_13\n  jump\t// in\ntag_35:\n    /* \"#utility.yul\":1103:1138   */\n  swap1\n  pop\n    /* \"#utility.yul\":1032:1144   */\n  swap2\n  swap1\n  pop\n  jump\t// out\n    /* \"#utility.yul\":1150:1304   */\ntag_18:\n    /* \"#utility.yul\":1239:1279   */\n  tag_37\n    /* \"#utility.yul\":1273:1278   */\n  dup2\n    /* \"#utility.yul\":1239:1279   */\n  tag_17\n  jump\t// in\ntag_37:\n    /* \"#utility.yul\":1232:1237   */\n  dup2\n    /* \"#utility.yul\":1229:1280   */\n  eq\n    /* \"#utility.yul\":1219:1298   */\n  tag_38\n  jumpi\n    /* \"#utility.yul\":1294:1295   */\n  0x00\n    /* \"#utility.yul\":1291:1292   */\n  dup1\n    /* \"#utility.yul\":1284:1296   */\n  revert\n    /* \"#utility.yul\":1219:1298   */\ntag_38:\n    /* \"#utility.yul\":1150:1304   */\n  pop\n  jump\t// out\n    /* \"#utility.yul\":1310:1485   */\ntag_19:\n    /* \"#utility.yul\":1383:1388   */\n  0x00\n    /* \"#utility.yul\":1414:1420   */\n  dup2\n    /* \"#utility.yul\":1408:1421   */\n  mload\n    /* \"#utility.yul\":1399:1421   */\n  swap1\n  pop\n    /* \"#utility.yul\":1430:1479   */\n  tag_40\n    /* \"#utility.yul\":1473:1478   */\n  dup2\n    /* \"#utility.yul\":1430:1479   */\n  tag_18\n  jump\t// in\ntag_40:\n    /* \"#utility.yul\":1310:1485   */\n  swap3\n  swap2\n  pop\n  pop\n  jump\t// out\n    /* \"#utility.yul\":1491:2064   */\ntag_3:\n    /* \"#utility.yul\":1603:1609   */\n  0x00\n    /* \"#utility.yul\":1611:1617   */\n  dup1\n    /* \"#utility.yul\":1660:1662   */\n  0x40\n    /* \"#utility.yul\":1648:1657   */\n  dup4\n    /* \"#utility.yul\":1639:1646   */\n  dup6\n    /* \"#utility.yul\":1635:1658   */\n  sub\n    /* \"#utility.yul\":1631:1663   */\n  slt\n    /* \"#utility.yul\":1628:1747   */\n  iszero\n  tag_42\n  jumpi\n    /* \"#utility.yul\":1666:1745   */\n  tag_43\n  tag_10\n  jump\t// in\ntag_43:\n    /* \"#utility.yul\":1628:1747   */\ntag_42:\n    /* \"#utility.yul\":1786:1787   */\n  0x00\n    /* \"#utility.yul\":1811:1892   */\n  tag_44\n    /* \"#utility.yul\":1884:1891   */\n  dup6\n    /* \"#utility.yul\":1875:1881   */\n  dup3\n    /* \"#utility.yul\":1864:1873   */\n  dup7\n    /* \"#utility.yul\":1860:1882   */\n  add\n    /* \"#utility.yul\":1811:1892   */\n  tag_16\n  jump\t// in\ntag_44:\n    /* \"#utility.yul\":1801:1892   */\n  swap3\n  pop\n    /* \"#utility.yul\":1757:1902   */\n  pop\n    /* \"#utility.yul\":1941:1943   */\n  0x20\n    /* \"#utility.yul\":1967:2047   */\n  tag_45\n    /* \"#utility.yul\":2039:2046   */\n  dup6\n    /* \"#utility.yul\":2030:2036   */\n  dup3\n    /* \"#utility.yul\":2019:2028   */\n  dup7\n    /* \"#utility.yul\":2015:2037   */\n  add\n    /* \"#utility.yul\":1967:2047   */\n  tag_19\n  jump\t// in\ntag_45:\n    /* \"#utility.yul\":1957:2047   */\n  swap2\n  pop\n    /* \"#utility.yul\":1912:2057   */\n  pop\n    /* \"#utility.yul\":1491:2064   */\n  swap3\n  pop\n  swap3\n  swap1\n  pop\n  jump\t// out\n    /* \"contracts/Promp-nft.sol\":212:4548  contract Prompt is AIOracleCallbackReceiver {... */\ntag_8:\n  mload(0x80)\n  codecopy(0x00, dataOffset(sub_0), dataSize(sub_0))\n  0x00\n  assignImmutable(\"0xfb99367007fd9c292fe20455f4aefac1b6d18fbfb06adbfe9341c081cfd9cc19\")\n  return(0x00, dataSize(sub_0))\nstop\n\nsub_0: assembly {\n        /* \"contracts/Promp-nft.sol\":212:4548  contract Prompt is AIOracleCallbackReceiver {... */\n      mstore(0x40, 0x80)\n      jumpi(tag_1, lt(calldatasize, 0x04))\n      shr(0xe0, calldataload(0x00))\n      dup1\n      0x81d12c58\n      gt\n      tag_15\n      jumpi\n      dup1\n      0xa1216472\n      gt\n      tag_16\n      jumpi\n      dup1\n      0xa1216472\n      eq\n      tag_11\n      jumpi\n      dup1\n      0xb0347814\n      eq\n      tag_12\n      jumpi\n      dup1\n      0xde1f8676\n      eq\n      tag_13\n      jumpi\n      dup1\n      0xfac5d7e1\n      eq\n      tag_14\n      jumpi\n      jump(tag_1)\n    tag_16:\n      dup1\n      0x81d12c58\n      eq\n      tag_8\n      jumpi\n      dup1\n      0x8cbc52d9\n      eq\n      tag_9\n      jumpi\n      dup1\n      0x8da5cb5b\n      eq\n      tag_10\n      jumpi\n      jump(tag_1)\n    tag_15:\n      dup1\n      0x127e8e4d\n      eq\n      tag_2\n      jumpi\n      dup1\n      0x20f38718\n      eq\n      tag_3\n      jumpi\n      dup1\n      0x2c6296b7\n      eq\n      tag_4\n      jumpi\n      dup1\n      0x31b221cd\n      eq\n      tag_5\n      jumpi\n      dup1\n      0x33727c4d\n      eq\n      tag_6\n      jumpi\n      dup1\n      0x813d1e15\n      eq\n      tag_7\n      jumpi\n    tag_1:\n      0x00\n      dup1\n      revert\n        /* \"contracts/Promp-nft.sol\":2224:2372  function estimateFee(uint256 modelId) public view returns (uint256) {... */\n    tag_2:\n      callvalue\n      dup1\n      iszero\n      tag_17\n      jumpi\n      0x00\n      dup1\n      revert\n    tag_17:\n      pop\n      tag_18\n      0x04\n      dup1\n      calldatasize\n      sub\n      dup2\n      add\n      swap1\n      tag_19\n      swap2\n      swap1\n      tag_20\n      jump\t// in\n    tag_19:\n      tag_21\n      jump\t// in\n    tag_18:\n      mload(0x40)\n      tag_22\n      swap2\n      swap1\n      tag_23\n      jump\t// in\n    tag_22:\n      mload(0x40)\n      dup1\n      swap2\n      sub\n      swap1\n      return\n        /* \"contracts/Promp-nft.sol\":1149:1199  mapping(uint256 => uint64) public callbackGasLimit */\n    tag_3:\n      callvalue\n      dup1\n      iszero\n      tag_24\n      jumpi\n      0x00\n      dup1\n      revert\n    tag_24:\n      pop\n      tag_25\n      0x04\n      dup1\n      calldatasize\n      sub\n      dup2\n      add\n      swap1\n      tag_26\n      swap2\n      swap1\n      tag_20\n      jump\t// in\n    tag_26:\n      tag_27\n      jump\t// in\n    tag_25:\n      mload(0x40)\n      tag_28\n      swap2\n      swap1\n      tag_29\n      jump\t// in\n    tag_28:\n      mload(0x40)\n      dup1\n      swap2\n      sub\n      swap1\n      return\n        /* \"contracts/Promp-nft.sol\":1570:1718  function getAIResult(uint256 modelId, string calldata prompt) external view returns (string memory) {... */\n    tag_4:\n      callvalue\n      dup1\n      iszero\n      tag_30\n      jumpi\n      0x00\n      dup1\n      revert\n    tag_30:\n      pop\n      tag_31\n      0x04\n      dup1\n      calldatasize\n      sub\n      dup2\n      add\n      swap1\n      tag_32\n      swap2\n      swap1\n      tag_33\n      jump\t// in\n    tag_32:\n      tag_34\n      jump\t// in\n    tag_31:\n      mload(0x40)\n      tag_35\n      swap2\n      swap1\n      tag_36\n      jump\t// in\n    tag_35:\n      mload(0x40)\n      dup1\n      swap2\n      sub\n      swap1\n      return\n        /* \"contracts/AIOracleCallbackReceiver.sol\":262:297  IAIOracle public immutable aiOracle */\n    tag_5:\n      callvalue\n      dup1\n      iszero\n      tag_37\n      jumpi\n      0x00\n      dup1\n      revert\n    tag_37:\n      pop\n      tag_38\n      tag_39\n      jump\t// in\n    tag_38:\n      mload(0x40)\n      tag_40\n      swap2\n      swap1\n      tag_41\n      jump\t// in\n    tag_40:\n      mload(0x40)\n      dup1\n      swap2\n      sub\n      swap1\n      return\n        /* \"contracts/AIOracleCallbackReceiver.sol\":1331:1455  function isFinalized(uint256 requestId) external view returns (bool) {... */\n    tag_6:\n      callvalue\n      dup1\n      iszero\n      tag_42\n      jumpi\n      0x00\n      dup1\n      revert\n    tag_42:\n      pop\n      tag_43\n      0x04\n      dup1\n      calldatasize\n      sub\n      dup2\n      add\n      swap1\n      tag_44\n      swap2\n      swap1\n      tag_20\n      jump\t// in\n    tag_44:\n      tag_45\n      jump\t// in\n    tag_43:\n      mload(0x40)\n      tag_46\n      swap2\n      swap1\n      tag_47\n      jump\t// in\n    tag_46:\n      mload(0x40)\n      dup1\n      swap2\n      sub\n      swap1\n      return\n        /* \"contracts/Promp-nft.sol\":1429:1564  function setCallbackGasLimit(uint256 modelId, uint64 gasLimit) external onlyOwner {... */\n    tag_7:\n      callvalue\n      dup1\n      iszero\n      tag_48\n      jumpi\n      0x00\n      dup1\n      revert\n    tag_48:\n      pop\n      tag_49\n      0x04\n      dup1\n      calldatasize\n      sub\n      dup2\n      add\n      swap1\n      tag_50\n      swap2\n      swap1\n      tag_51\n      jump\t// in\n    tag_50:\n      tag_52\n      jump\t// in\n    tag_49:\n      stop\n        /* \"contracts/Promp-nft.sol\":1092:1143  mapping(uint256 => AIOracleRequest) public requests */\n    tag_8:\n      callvalue\n      dup1\n      iszero\n      tag_53\n      jumpi\n      0x00\n      dup1\n      revert\n    tag_53:\n      pop\n      tag_54\n      0x04\n      dup1\n      calldatasize\n      sub\n      dup2\n      add\n      swap1\n      tag_55\n      swap2\n      swap1\n      tag_20\n      jump\t// in\n    tag_55:\n      tag_56\n      jump\t// in\n    tag_54:\n      mload(0x40)\n      tag_57\n      swap5\n      swap4\n      swap3\n      swap2\n      swap1\n      tag_58\n      jump\t// in\n    tag_57:\n      mload(0x40)\n      dup1\n      swap2\n      sub\n      swap1\n      return\n        /* \"contracts/Promp-nft.sol\":1205:1265  mapping(uint256 => mapping(string => string)) public prompts */\n    tag_9:\n      callvalue\n      dup1\n      iszero\n      tag_59\n      jumpi\n      0x00\n      dup1\n      revert\n    tag_59:\n      pop\n      tag_60\n      0x04\n      dup1\n      calldatasize\n      sub\n      dup2\n      add\n      swap1\n      tag_61\n      swap2\n      swap1\n      tag_62\n      jump\t// in\n    tag_61:\n      tag_63\n      jump\t// in\n    tag_60:\n      mload(0x40)\n      tag_64\n      swap2\n      swap1\n      tag_36\n      jump\t// in\n    tag_64:\n      mload(0x40)\n      dup1\n      swap2\n      sub\n      swap1\n      return\n        /* \"contracts/Promp-nft.sol\":939:959  address public owner */\n    tag_10:\n      callvalue\n      dup1\n      iszero\n      tag_65\n      jumpi\n      0x00\n      dup1\n      revert\n    tag_65:\n      pop\n      tag_66\n      tag_67\n      jump\t// in\n    tag_66:\n      mload(0x40)\n      tag_68\n      swap2\n      swap1\n      tag_69\n      jump\t// in\n    tag_68:\n      mload(0x40)\n      dup1\n      swap2\n      sub\n      swap1\n      return\n        /* \"contracts/Promp-nft.sol\":965:988  IERC7007 public erc7007 */\n    tag_11:\n      callvalue\n      dup1\n      iszero\n      tag_70\n      jumpi\n      0x00\n      dup1\n      revert\n    tag_70:\n      pop\n      tag_71\n      tag_72\n      jump\t// in\n    tag_71:\n      mload(0x40)\n      tag_73\n      swap2\n      swap1\n      tag_74\n      jump\t// in\n    tag_73:\n      mload(0x40)\n      dup1\n      swap2\n      sub\n      swap1\n      return\n        /* \"contracts/Promp-nft.sol\":1724:2218  function aiOracleCallback(uint256 requestId, bytes calldata output, bytes calldata callbackData) external override onlyAIOracleCallback() {... */\n    tag_12:\n      callvalue\n      dup1\n      iszero\n      tag_75\n      jumpi\n      0x00\n      dup1\n      revert\n    tag_75:\n      pop\n      tag_76\n      0x04\n      dup1\n      calldatasize\n      sub\n      dup2\n      add\n      swap1\n      tag_77\n      swap2\n      swap1\n      tag_78\n      jump\t// in\n    tag_77:\n      tag_79\n      jump\t// in\n    tag_76:\n      stop\n        /* \"contracts/Promp-nft.sol\":2911:4546  function mintWithAIResult(uint256 requestId) external {... */\n    tag_13:\n      callvalue\n      dup1\n      iszero\n      tag_80\n      jumpi\n      0x00\n      dup1\n      revert\n    tag_80:\n      pop\n      tag_81\n      0x04\n      dup1\n      calldatasize\n      sub\n      dup2\n      add\n      swap1\n      tag_82\n      swap2\n      swap1\n      tag_20\n      jump\t// in\n    tag_82:\n      tag_83\n      jump\t// in\n    tag_81:\n      stop\n        /* \"contracts/Promp-nft.sol\":2378:2905  function calculateAIResult(uint256 modelId, string calldata prompt) payable external {... */\n    tag_14:\n      tag_84\n      0x04\n      dup1\n      calldatasize\n      sub\n      dup2\n      add\n      swap1\n      tag_85\n      swap2\n      swap1\n      tag_33\n      jump\t// in\n    tag_85:\n      tag_86\n      jump\t// in\n    tag_84:\n      stop\n        /* \"contracts/Promp-nft.sol\":2224:2372  function estimateFee(uint256 modelId) public view returns (uint256) {... */\n    tag_21:\n        /* \"contracts/Promp-nft.sol\":2283:2290  uint256 */\n      0x00\n        /* \"contracts/Promp-nft.sol\":2309:2317  aiOracle */\n      immutable(\"0xfb99367007fd9c292fe20455f4aefac1b6d18fbfb06adbfe9341c081cfd9cc19\")\n        /* \"contracts/Promp-nft.sol\":2309:2329  aiOracle.estimateFee */\n      0xffffffffffffffffffffffffffffffffffffffff\n      and\n      0xe1d8d0\n        /* \"contracts/Promp-nft.sol\":2330:2337  modelId */\n      dup4\n        /* \"contracts/Promp-nft.sol\":2339:2355  callbackGasLimit */\n      0x03\n        /* \"contracts/Promp-nft.sol\":2339:2364  callbackGasLimit[modelId] */\n      0x00\n        /* \"contracts/Promp-nft.sol\":2356:2363  modelId */\n      dup7\n        /* \"contracts/Promp-nft.sol\":2339:2364  callbackGasLimit[modelId] */\n      dup2\n      mstore\n      0x20\n      add\n      swap1\n      dup2\n      mstore\n      0x20\n      add\n      0x00\n      keccak256\n      0x00\n      swap1\n      sload\n      swap1\n      0x0100\n      exp\n      swap1\n      div\n      0xffffffffffffffff\n      and\n        /* \"contracts/Promp-nft.sol\":2309:2365  aiOracle.estimateFee(modelId, callbackGasLimit[modelId]) */\n      mload(0x40)\n      dup4\n      0xffffffff\n      and\n      0xe0\n      shl\n      dup2\n      mstore\n      0x04\n      add\n      tag_88\n      swap3\n      swap2\n      swap1\n      tag_89\n      jump\t// in\n    tag_88:\n      0x20\n      mload(0x40)\n      dup1\n      dup4\n      sub\n      dup2\n      dup7\n      gas\n      staticcall\n      iszero\n      dup1\n      iszero\n      tag_91\n      jumpi\n      returndatasize\n      0x00\n      dup1\n      returndatacopy\n      revert(0x00, returndatasize)\n    tag_91:\n      pop\n      pop\n      pop\n      pop\n      mload(0x40)\n      returndatasize\n      not(0x1f)\n      0x1f\n      dup3\n      add\n      and\n      dup3\n      add\n      dup1\n      0x40\n      mstore\n      pop\n      dup2\n      add\n      swap1\n      tag_92\n      swap2\n      swap1\n      tag_93\n      jump\t// in\n    tag_92:\n        /* \"contracts/Promp-nft.sol\":2302:2365  return aiOracle.estimateFee(modelId, callbackGasLimit[modelId]) */\n      swap1\n      pop\n        /* \"contracts/Promp-nft.sol\":2224:2372  function estimateFee(uint256 modelId) public view returns (uint256) {... */\n      swap2\n      swap1\n      pop\n      jump\t// out\n        /* \"contracts/Promp-nft.sol\":1149:1199  mapping(uint256 => uint64) public callbackGasLimit */\n    tag_27:\n      mstore(0x20, 0x03)\n      dup1\n      0x00\n      mstore\n      keccak256(0x00, 0x40)\n      0x00\n      swap2\n      pop\n      sload\n      swap1\n      0x0100\n      exp\n      swap1\n      div\n      0xffffffffffffffff\n      and\n      dup2\n      jump\t// out\n        /* \"contracts/Promp-nft.sol\":1570:1718  function getAIResult(uint256 modelId, string calldata prompt) external view returns (string memory) {... */\n    tag_34:\n        /* \"contracts/Promp-nft.sol\":1655:1668  string memory */\n      0x60\n        /* \"contracts/Promp-nft.sol\":1687:1694  prompts */\n      0x04\n        /* \"contracts/Promp-nft.sol\":1687:1703  prompts[modelId] */\n      0x00\n        /* \"contracts/Promp-nft.sol\":1695:1702  modelId */\n      dup6\n        /* \"contracts/Promp-nft.sol\":1687:1703  prompts[modelId] */\n      dup2\n      mstore\n      0x20\n      add\n      swap1\n      dup2\n      mstore\n      0x20\n      add\n      0x00\n      keccak256\n        /* \"contracts/Promp-nft.sol\":1704:1710  prompt */\n      dup4\n      dup4\n        /* \"contracts/Promp-nft.sol\":1687:1711  prompts[modelId][prompt] */\n      mload(0x40)\n      tag_95\n      swap3\n      swap2\n      swap1\n      tag_96\n      jump\t// in\n    tag_95:\n      swap1\n      dup2\n      mstore\n      0x20\n      add\n      mload(0x40)\n      dup1\n      swap2\n      sub\n      swap1\n      keccak256\n        /* \"contracts/Promp-nft.sol\":1680:1711  return prompts[modelId][prompt] */\n      dup1\n      sload\n      tag_97\n      swap1\n      tag_98\n      jump\t// in\n    tag_97:\n      dup1\n      0x1f\n      add\n      0x20\n      dup1\n      swap2\n      div\n      mul\n      0x20\n      add\n      mload(0x40)\n      swap1\n      dup2\n      add\n      0x40\n      mstore\n      dup1\n      swap3\n      swap2\n      swap1\n      dup2\n      dup2\n      mstore\n      0x20\n      add\n      dup3\n      dup1\n      sload\n      tag_99\n      swap1\n      tag_98\n      jump\t// in\n    tag_99:\n      dup1\n      iszero\n      tag_100\n      jumpi\n      dup1\n      0x1f\n      lt\n      tag_101\n      jumpi\n      0x0100\n      dup1\n      dup4\n      sload\n      div\n      mul\n      dup4\n      mstore\n      swap2\n      0x20\n      add\n      swap2\n      jump(tag_100)\n    tag_101:\n      dup3\n      add\n      swap2\n      swap1\n      0x00\n      mstore\n      keccak256(0x00, 0x20)\n      swap1\n    tag_102:\n      dup2\n      sload\n      dup2\n      mstore\n      swap1\n      0x01\n      add\n      swap1\n      0x20\n      add\n      dup1\n      dup4\n      gt\n      tag_102\n      jumpi\n      dup3\n      swap1\n      sub\n      0x1f\n      and\n      dup3\n      add\n      swap2\n    tag_100:\n      pop\n      pop\n      pop\n      pop\n      pop\n      swap1\n      pop\n        /* \"contracts/Promp-nft.sol\":1570:1718  function getAIResult(uint256 modelId, string calldata prompt) external view returns (string memory) {... */\n      swap4\n      swap3\n      pop\n      pop\n      pop\n      jump\t// out\n        /* \"contracts/AIOracleCallbackReceiver.sol\":262:297  IAIOracle public immutable aiOracle */\n    tag_39:\n      immutable(\"0xfb99367007fd9c292fe20455f4aefac1b6d18fbfb06adbfe9341c081cfd9cc19\")\n      dup2\n      jump\t// out\n        /* \"contracts/AIOracleCallbackReceiver.sol\":1331:1455  function isFinalized(uint256 requestId) external view returns (bool) {... */\n    tag_45:\n        /* \"contracts/AIOracleCallbackReceiver.sol\":1394:1398  bool */\n      0x00\n        /* \"contracts/AIOracleCallbackReceiver.sol\":1417:1425  aiOracle */\n      immutable(\"0xfb99367007fd9c292fe20455f4aefac1b6d18fbfb06adbfe9341c081cfd9cc19\")\n        /* \"contracts/AIOracleCallbackReceiver.sol\":1417:1437  aiOracle.isFinalized */\n      0xffffffffffffffffffffffffffffffffffffffff\n      and\n      0x33727c4d\n        /* \"contracts/AIOracleCallbackReceiver.sol\":1438:1447  requestId */\n      dup4\n        /* \"contracts/AIOracleCallbackReceiver.sol\":1417:1448  aiOracle.isFinalized(requestId) */\n      mload(0x40)\n      dup3\n      0xffffffff\n      and\n      0xe0\n      shl\n      dup2\n      mstore\n      0x04\n      add\n      tag_104\n      swap2\n      swap1\n      tag_23\n      jump\t// in\n    tag_104:\n      0x20\n      mload(0x40)\n      dup1\n      dup4\n      sub\n      dup2\n      dup7\n      gas\n      staticcall\n      iszero\n      dup1\n      iszero\n      tag_106\n      jumpi\n      returndatasize\n      0x00\n      dup1\n      returndatacopy\n      revert(0x00, returndatasize)\n    tag_106:\n      pop\n      pop\n      pop\n      pop\n      mload(0x40)\n      returndatasize\n      not(0x1f)\n      0x1f\n      dup3\n      add\n      and\n      dup3\n      add\n      dup1\n      0x40\n      mstore\n      pop\n      dup2\n      add\n      swap1\n      tag_107\n      swap2\n      swap1\n      tag_108\n      jump\t// in\n    tag_107:\n        /* \"contracts/AIOracleCallbackReceiver.sol\":1410:1448  return aiOracle.isFinalized(requestId) */\n      swap1\n      pop\n        /* \"contracts/AIOracleCallbackReceiver.sol\":1331:1455  function isFinalized(uint256 requestId) external view returns (bool) {... */\n      swap2\n      swap1\n      pop\n      jump\t// out\n        /* \"contracts/Promp-nft.sol\":1429:1564  function setCallbackGasLimit(uint256 modelId, uint64 gasLimit) external onlyOwner {... */\n    tag_52:\n        /* \"contracts/Promp-nft.sol\":1048:1053  owner */\n      0x00\n      dup1\n      sload\n      swap1\n      0x0100\n      exp\n      swap1\n      div\n      0xffffffffffffffffffffffffffffffffffffffff\n      and\n        /* \"contracts/Promp-nft.sol\":1034:1053  msg.sender == owner */\n      0xffffffffffffffffffffffffffffffffffffffff\n      and\n        /* \"contracts/Promp-nft.sol\":1034:1044  msg.sender */\n      caller\n        /* \"contracts/Promp-nft.sol\":1034:1053  msg.sender == owner */\n      0xffffffffffffffffffffffffffffffffffffffff\n      and\n      eq\n        /* \"contracts/Promp-nft.sol\":1026:1068  require(msg.sender == owner, \"Only owner\") */\n      tag_110\n      jumpi\n      mload(0x40)\n      0x08c379a000000000000000000000000000000000000000000000000000000000\n      dup2\n      mstore\n      0x04\n      add\n      tag_111\n      swap1\n      tag_112\n      jump\t// in\n    tag_111:\n      mload(0x40)\n      dup1\n      swap2\n      sub\n      swap1\n      revert\n    tag_110:\n        /* \"contracts/Promp-nft.sol\":1549:1557  gasLimit */\n      dup1\n        /* \"contracts/Promp-nft.sol\":1521:1537  callbackGasLimit */\n      0x03\n        /* \"contracts/Promp-nft.sol\":1521:1546  callbackGasLimit[modelId] */\n      0x00\n        /* \"contracts/Promp-nft.sol\":1538:1545  modelId */\n      dup5\n        /* \"contracts/Promp-nft.sol\":1521:1546  callbackGasLimit[modelId] */\n      dup2\n      mstore\n      0x20\n      add\n      swap1\n      dup2\n      mstore\n      0x20\n      add\n      0x00\n      keccak256\n      0x00\n        /* \"contracts/Promp-nft.sol\":1521:1557  callbackGasLimit[modelId] = gasLimit */\n      0x0100\n      exp\n      dup2\n      sload\n      dup2\n      0xffffffffffffffff\n      mul\n      not\n      and\n      swap1\n      dup4\n      0xffffffffffffffff\n      and\n      mul\n      or\n      swap1\n      sstore\n      pop\n        /* \"contracts/Promp-nft.sol\":1429:1564  function setCallbackGasLimit(uint256 modelId, uint64 gasLimit) external onlyOwner {... */\n      pop\n      pop\n      jump\t// out\n        /* \"contracts/Promp-nft.sol\":1092:1143  mapping(uint256 => AIOracleRequest) public requests */\n    tag_56:\n      mstore(0x20, 0x02)\n      dup1\n      0x00\n      mstore\n      keccak256(0x00, 0x40)\n      0x00\n      swap2\n      pop\n      swap1\n      pop\n      dup1\n      0x00\n      add\n      0x00\n      swap1\n      sload\n      swap1\n      0x0100\n      exp\n      swap1\n      div\n      0xffffffffffffffffffffffffffffffffffffffff\n      and\n      swap1\n      dup1\n      0x01\n      add\n      sload\n      swap1\n      dup1\n      0x02\n      add\n      dup1\n      sload\n      tag_114\n      swap1\n      tag_98\n      jump\t// in\n    tag_114:\n      dup1\n      0x1f\n      add\n      0x20\n      dup1\n      swap2\n      div\n      mul\n      0x20\n      add\n      mload(0x40)\n      swap1\n      dup2\n      add\n      0x40\n      mstore\n      dup1\n      swap3\n      swap2\n      swap1\n      dup2\n      dup2\n      mstore\n      0x20\n      add\n      dup3\n      dup1\n      sload\n      tag_115\n      swap1\n      tag_98\n      jump\t// in\n    tag_115:\n      dup1\n      iszero\n      tag_116\n      jumpi\n      dup1\n      0x1f\n      lt\n      tag_117\n      jumpi\n      0x0100\n      dup1\n      dup4\n      sload\n      div\n      mul\n      dup4\n      mstore\n      swap2\n      0x20\n      add\n      swap2\n      jump(tag_116)\n    tag_117:\n      dup3\n      add\n      swap2\n      swap1\n      0x00\n      mstore\n      keccak256(0x00, 0x20)\n      swap1\n    tag_118:\n      dup2\n      sload\n      dup2\n      mstore\n      swap1\n      0x01\n      add\n      swap1\n      0x20\n      add\n      dup1\n      dup4\n      gt\n      tag_118\n      jumpi\n      dup3\n      swap1\n      sub\n      0x1f\n      and\n      dup3\n      add\n      swap2\n    tag_116:\n      pop\n      pop\n      pop\n      pop\n      pop\n      swap1\n      dup1\n      0x03\n      add\n      dup1\n      sload\n      tag_119\n      swap1\n      tag_98\n      jump\t// in\n    tag_119:\n      dup1\n      0x1f\n      add\n      0x20\n      dup1\n      swap2\n      div\n      mul\n      0x20\n      add\n      mload(0x40)\n      swap1\n      dup2\n      add\n      0x40\n      mstore\n      dup1\n      swap3\n      swap2\n      swap1\n      dup2\n      dup2\n      mstore\n      0x20\n      add\n      dup3\n      dup1\n      sload\n      tag_120\n      swap1\n      tag_98\n      jump\t// in\n    tag_120:\n      dup1\n      iszero\n      tag_121\n      jumpi\n      dup1\n      0x1f\n      lt\n      tag_122\n      jumpi\n      0x0100\n      dup1\n      dup4\n      sload\n      div\n      mul\n      dup4\n      mstore\n      swap2\n      0x20\n      add\n      swap2\n      jump(tag_121)\n    tag_122:\n      dup3\n      add\n      swap2\n      swap1\n      0x00\n      mstore\n      keccak256(0x00, 0x20)\n      swap1\n    tag_123:\n      dup2\n      sload\n      dup2\n      mstore\n      swap1\n      0x01\n      add\n      swap1\n      0x20\n      add\n      dup1\n      dup4\n      gt\n      tag_123\n      jumpi\n      dup3\n      swap1\n      sub\n      0x1f\n      and\n      dup3\n      add\n      swap2\n    tag_121:\n      pop\n      pop\n      pop\n      pop\n      pop\n      swap1\n      pop\n      dup5\n      jump\t// out\n        /* \"contracts/Promp-nft.sol\":1205:1265  mapping(uint256 => mapping(string => string)) public prompts */\n    tag_63:\n      mstore(0x20, 0x04)\n      dup2\n      0x00\n      mstore\n      keccak256(0x00, 0x40)\n      dup2\n      dup1\n      mload\n      0x20\n      dup2\n      add\n      dup3\n      add\n      dup1\n      mload\n      dup5\n      dup3\n      mstore\n      0x20\n      dup4\n      add\n      0x20\n      dup6\n      add\n      keccak256\n      dup2\n      dup4\n      mstore\n      dup1\n      swap6\n      pop\n      pop\n      pop\n      pop\n      pop\n      pop\n      0x00\n      swap2\n      pop\n      swap2\n      pop\n      pop\n      dup1\n      sload\n      tag_124\n      swap1\n      tag_98\n      jump\t// in\n    tag_124:\n      dup1\n      0x1f\n      add\n      0x20\n      dup1\n      swap2\n      div\n      mul\n      0x20\n      add\n      mload(0x40)\n      swap1\n      dup2\n      add\n      0x40\n      mstore\n      dup1\n      swap3\n      swap2\n      swap1\n      dup2\n      dup2\n      mstore\n      0x20\n      add\n      dup3\n      dup1\n      sload\n      tag_125\n      swap1\n      tag_98\n      jump\t// in\n    tag_125:\n      dup1\n      iszero\n      tag_126\n      jumpi\n      dup1\n      0x1f\n      lt\n      tag_127\n      jumpi\n      0x0100\n      dup1\n      dup4\n      sload\n      div\n      mul\n      dup4\n      mstore\n      swap2\n      0x20\n      add\n      swap2\n      jump(tag_126)\n    tag_127:\n      dup3\n      add\n      swap2\n      swap1\n      0x00\n      mstore\n      keccak256(0x00, 0x20)\n      swap1\n    tag_128:\n      dup2\n      sload\n      dup2\n      mstore\n      swap1\n      0x01\n      add\n      swap1\n      0x20\n      add\n      dup1\n      dup4\n      gt\n      tag_128\n      jumpi\n      dup3\n      swap1\n      sub\n      0x1f\n      and\n      dup3\n      add\n      swap2\n    tag_126:\n      pop\n      pop\n      pop\n      pop\n      pop\n      dup2\n      jump\t// out\n        /* \"contracts/Promp-nft.sol\":939:959  address public owner */\n    tag_67:\n      0x00\n      dup1\n      sload\n      swap1\n      0x0100\n      exp\n      swap1\n      div\n      0xffffffffffffffffffffffffffffffffffffffff\n      and\n      dup2\n      jump\t// out\n        /* \"contracts/Promp-nft.sol\":965:988  IERC7007 public erc7007 */\n    tag_72:\n      0x01\n      0x00\n      swap1\n      sload\n      swap1\n      0x0100\n      exp\n      swap1\n      div\n      0xffffffffffffffffffffffffffffffffffffffff\n      and\n      dup2\n      jump\t// out\n        /* \"contracts/Promp-nft.sol\":1724:2218  function aiOracleCallback(uint256 requestId, bytes calldata output, bytes calldata callbackData) external override onlyAIOracleCallback() {... */\n    tag_79:\n        /* \"contracts/AIOracleCallbackReceiver.sol\":688:715  IAIOracle foundRelayAddress */\n      0x00\n        /* \"contracts/AIOracleCallbackReceiver.sol\":728:738  msg.sender */\n      caller\n        /* \"contracts/AIOracleCallbackReceiver.sol\":688:739  IAIOracle foundRelayAddress = IAIOracle(msg.sender) */\n      swap1\n      pop\n        /* \"contracts/AIOracleCallbackReceiver.sol\":774:782  aiOracle */\n      immutable(\"0xfb99367007fd9c292fe20455f4aefac1b6d18fbfb06adbfe9341c081cfd9cc19\")\n        /* \"contracts/AIOracleCallbackReceiver.sol\":753:782  foundRelayAddress != aiOracle */\n      0xffffffffffffffffffffffffffffffffffffffff\n      and\n        /* \"contracts/AIOracleCallbackReceiver.sol\":753:770  foundRelayAddress */\n      dup2\n        /* \"contracts/AIOracleCallbackReceiver.sol\":753:782  foundRelayAddress != aiOracle */\n      0xffffffffffffffffffffffffffffffffffffffff\n      and\n      eq\n        /* \"contracts/AIOracleCallbackReceiver.sol\":749:871  if (foundRelayAddress != aiOracle) {... */\n      tag_130\n      jumpi\n        /* \"contracts/AIOracleCallbackReceiver.sol\":832:840  aiOracle */\n      immutable(\"0xfb99367007fd9c292fe20455f4aefac1b6d18fbfb06adbfe9341c081cfd9cc19\")\n        /* \"contracts/AIOracleCallbackReceiver.sol\":842:859  foundRelayAddress */\n      dup2\n        /* \"contracts/AIOracleCallbackReceiver.sol\":805:860  UnauthorizedCallbackSource(aiOracle, foundRelayAddress) */\n      mload(0x40)\n      0x865c066e00000000000000000000000000000000000000000000000000000000\n      dup2\n      mstore\n      0x04\n      add\n      tag_131\n      swap3\n      swap2\n      swap1\n      tag_132\n      jump\t// in\n    tag_131:\n      mload(0x40)\n      dup1\n      swap2\n      sub\n      swap1\n      revert\n        /* \"contracts/AIOracleCallbackReceiver.sol\":749:871  if (foundRelayAddress != aiOracle) {... */\n    tag_130:\n        /* \"contracts/Promp-nft.sol\":1872:1903  AIOracleRequest storage request */\n      0x00\n        /* \"contracts/Promp-nft.sol\":1906:1914  requests */\n      0x02\n        /* \"contracts/Promp-nft.sol\":1906:1925  requests[requestId] */\n      0x00\n        /* \"contracts/Promp-nft.sol\":1915:1924  requestId */\n      dup9\n        /* \"contracts/Promp-nft.sol\":1906:1925  requests[requestId] */\n      dup2\n      mstore\n      0x20\n      add\n      swap1\n      dup2\n      mstore\n      0x20\n      add\n      0x00\n      keccak256\n        /* \"contracts/Promp-nft.sol\":1872:1925  AIOracleRequest storage request = requests[requestId] */\n      swap1\n      pop\n        /* \"contracts/Promp-nft.sol\":1969:1970  0 */\n      0x00\n        /* \"contracts/Promp-nft.sol\":1943:1971  request.sender != address(0) */\n      0xffffffffffffffffffffffffffffffffffffffff\n      and\n        /* \"contracts/Promp-nft.sol\":1943:1950  request */\n      dup2\n        /* \"contracts/Promp-nft.sol\":1943:1957  request.sender */\n      0x00\n      add\n      0x00\n      swap1\n      sload\n      swap1\n      0x0100\n      exp\n      swap1\n      div\n      0xffffffffffffffffffffffffffffffffffffffff\n      and\n        /* \"contracts/Promp-nft.sol\":1943:1971  request.sender != address(0) */\n      0xffffffffffffffffffffffffffffffffffffffff\n      and\n      sub\n        /* \"contracts/Promp-nft.sol\":1935:1994  require(request.sender != address(0), \"Request not exists\") */\n      tag_134\n      jumpi\n      mload(0x40)\n      0x08c379a000000000000000000000000000000000000000000000000000000000\n      dup2\n      mstore\n      0x04\n      add\n      tag_135\n      swap1\n      tag_136\n      jump\t// in\n    tag_135:\n      mload(0x40)\n      dup1\n      swap2\n      sub\n      swap1\n      revert\n    tag_134:\n        /* \"contracts/Promp-nft.sol\":2021:2027  output */\n      dup6\n      dup6\n        /* \"contracts/Promp-nft.sol\":2004:2011  request */\n      dup3\n        /* \"contracts/Promp-nft.sol\":2004:2018  request.output */\n      0x03\n      add\n        /* \"contracts/Promp-nft.sol\":2004:2027  request.output = output */\n      swap2\n      dup3\n      tag_137\n      swap3\n      swap2\n      swap1\n      tag_138\n      jump\t// in\n    tag_137:\n      pop\n        /* \"contracts/Promp-nft.sol\":2094:2100  output */\n      dup6\n      dup6\n        /* \"contracts/Promp-nft.sol\":2037:2044  prompts */\n      0x04\n        /* \"contracts/Promp-nft.sol\":2037:2061  prompts[request.modelId] */\n      0x00\n        /* \"contracts/Promp-nft.sol\":2045:2052  request */\n      dup5\n        /* \"contracts/Promp-nft.sol\":2045:2060  request.modelId */\n      0x01\n      add\n      sload\n        /* \"contracts/Promp-nft.sol\":2037:2061  prompts[request.modelId] */\n      dup2\n      mstore\n      0x20\n      add\n      swap1\n      dup2\n      mstore\n      0x20\n      add\n      0x00\n      keccak256\n        /* \"contracts/Promp-nft.sol\":2069:2076  request */\n      dup4\n        /* \"contracts/Promp-nft.sol\":2069:2082  request.input */\n      0x02\n      add\n        /* \"contracts/Promp-nft.sol\":2037:2084  prompts[request.modelId][string(request.input)] */\n      mload(0x40)\n      tag_139\n      swap2\n      swap1\n      tag_140\n      jump\t// in\n    tag_139:\n      swap1\n      dup2\n      mstore\n      0x20\n      add\n      mload(0x40)\n      dup1\n      swap2\n      sub\n      swap1\n      keccak256\n        /* \"contracts/Promp-nft.sol\":2037:2101  prompts[request.modelId][string(request.input)] = string(output) */\n      swap2\n      dup3\n      tag_141\n      swap3\n      swap2\n      swap1\n      tag_142\n      jump\t// in\n    tag_141:\n      pop\n        /* \"contracts/Promp-nft.sol\":2116:2211  PromptsUpdated(requestId, request.modelId, string(request.input), string(output), callbackData) */\n      0xb9ac0d9601c26e75ee070e76a3ea8a2a4bc36bbc534b932de84a609166cf410c\n        /* \"contracts/Promp-nft.sol\":2131:2140  requestId */\n      dup8\n        /* \"contracts/Promp-nft.sol\":2142:2149  request */\n      dup3\n        /* \"contracts/Promp-nft.sol\":2142:2157  request.modelId */\n      0x01\n      add\n      sload\n        /* \"contracts/Promp-nft.sol\":2166:2173  request */\n      dup4\n        /* \"contracts/Promp-nft.sol\":2166:2179  request.input */\n      0x02\n      add\n        /* \"contracts/Promp-nft.sol\":2189:2195  output */\n      dup10\n      dup10\n        /* \"contracts/Promp-nft.sol\":2198:2210  callbackData */\n      dup10\n      dup10\n        /* \"contracts/Promp-nft.sol\":2116:2211  PromptsUpdated(requestId, request.modelId, string(request.input), string(output), callbackData) */\n      mload(0x40)\n      tag_143\n      swap8\n      swap7\n      swap6\n      swap5\n      swap4\n      swap3\n      swap2\n      swap1\n      tag_144\n      jump\t// in\n    tag_143:\n      mload(0x40)\n      dup1\n      swap2\n      sub\n      swap1\n      log1\n        /* \"contracts/Promp-nft.sol\":1862:2218  {... */\n      pop\n        /* \"contracts/AIOracleCallbackReceiver.sol\":678:888  {... */\n      pop\n        /* \"contracts/Promp-nft.sol\":1724:2218  function aiOracleCallback(uint256 requestId, bytes calldata output, bytes calldata callbackData) external override onlyAIOracleCallback() {... */\n      pop\n      pop\n      pop\n      pop\n      pop\n      jump\t// out\n        /* \"contracts/Promp-nft.sol\":2911:4546  function mintWithAIResult(uint256 requestId) external {... */\n    tag_83:\n        /* \"contracts/Promp-nft.sol\":2975:3006  AIOracleRequest storage request */\n      0x00\n        /* \"contracts/Promp-nft.sol\":3009:3017  requests */\n      0x02\n        /* \"contracts/Promp-nft.sol\":3009:3028  requests[requestId] */\n      0x00\n        /* \"contracts/Promp-nft.sol\":3018:3027  requestId */\n      dup4\n        /* \"contracts/Promp-nft.sol\":3009:3028  requests[requestId] */\n      dup2\n      mstore\n      0x20\n      add\n      swap1\n      dup2\n      mstore\n      0x20\n      add\n      0x00\n      keccak256\n        /* \"contracts/Promp-nft.sol\":2975:3028  AIOracleRequest storage request = requests[requestId] */\n      swap1\n      pop\n        /* \"contracts/Promp-nft.sol\":3072:3073  0 */\n      0x00\n        /* \"contracts/Promp-nft.sol\":3046:3074  request.sender != address(0) */\n      0xffffffffffffffffffffffffffffffffffffffff\n      and\n        /* \"contracts/Promp-nft.sol\":3046:3053  request */\n      dup2\n        /* \"contracts/Promp-nft.sol\":3046:3060  request.sender */\n      0x00\n      add\n      0x00\n      swap1\n      sload\n      swap1\n      0x0100\n      exp\n      swap1\n      div\n      0xffffffffffffffffffffffffffffffffffffffff\n      and\n        /* \"contracts/Promp-nft.sol\":3046:3074  request.sender != address(0) */\n      0xffffffffffffffffffffffffffffffffffffffff\n      and\n      sub\n        /* \"contracts/Promp-nft.sol\":3038:3097  require(request.sender != address(0), \"Request not exists\") */\n      tag_146\n      jumpi\n      mload(0x40)\n      0x08c379a000000000000000000000000000000000000000000000000000000000\n      dup2\n      mstore\n      0x04\n      add\n      tag_147\n      swap1\n      tag_136\n      jump\t// in\n    tag_147:\n      mload(0x40)\n      dup1\n      swap2\n      sub\n      swap1\n      revert\n    tag_146:\n        /* \"contracts/Promp-nft.sol\":3139:3140  0 */\n      0x00\n        /* \"contracts/Promp-nft.sol\":3115:3122  request */\n      dup2\n        /* \"contracts/Promp-nft.sol\":3115:3129  request.output */\n      0x03\n      add\n        /* \"contracts/Promp-nft.sol\":3115:3136  request.output.length */\n      dup1\n      sload\n      tag_148\n      swap1\n      tag_98\n      jump\t// in\n    tag_148:\n      swap1\n      pop\n        /* \"contracts/Promp-nft.sol\":3115:3140  request.output.length > 0 */\n      gt\n        /* \"contracts/Promp-nft.sol\":3107:3168  require(request.output.length > 0, \"AI result not available\") */\n      tag_149\n      jumpi\n      mload(0x40)\n      0x08c379a000000000000000000000000000000000000000000000000000000000\n      dup2\n      mstore\n      0x04\n      add\n      tag_150\n      swap1\n      tag_151\n      jump\t// in\n    tag_150:\n      mload(0x40)\n      dup1\n      swap2\n      sub\n      swap1\n      revert\n    tag_149:\n        /* \"contracts/Promp-nft.sol\":3179:3189  address to */\n      0x00\n        /* \"contracts/Promp-nft.sol\":3192:3199  request */\n      dup2\n        /* \"contracts/Promp-nft.sol\":3192:3206  request.sender */\n      0x00\n      add\n      0x00\n      swap1\n      sload\n      swap1\n      0x0100\n      exp\n      swap1\n      div\n      0xffffffffffffffffffffffffffffffffffffffff\n      and\n        /* \"contracts/Promp-nft.sol\":3179:3206  address to = request.sender */\n      swap1\n      pop\n        /* \"contracts/Promp-nft.sol\":3216:3240  bytes memory promptBytes */\n      0x00\n        /* \"contracts/Promp-nft.sol\":3243:3250  request */\n      dup3\n        /* \"contracts/Promp-nft.sol\":3243:3256  request.input */\n      0x02\n      add\n        /* \"contracts/Promp-nft.sol\":3216:3256  bytes memory promptBytes = request.input */\n      dup1\n      sload\n      tag_152\n      swap1\n      tag_98\n      jump\t// in\n    tag_152:\n      dup1\n      0x1f\n      add\n      0x20\n      dup1\n      swap2\n      div\n      mul\n      0x20\n      add\n      mload(0x40)\n      swap1\n      dup2\n      add\n      0x40\n      mstore\n      dup1\n      swap3\n      swap2\n      swap1\n      dup2\n      dup2\n      mstore\n      0x20\n      add\n      dup3\n      dup1\n      sload\n      tag_153\n      swap1\n      tag_98\n      jump\t// in\n    tag_153:\n      dup1\n      iszero\n      tag_154\n      jumpi\n      dup1\n      0x1f\n      lt\n      tag_155\n      jumpi\n      0x0100\n      dup1\n      dup4\n      sload\n      div\n      mul\n      dup4\n      mstore\n      swap2\n      0x20\n      add\n      swap2\n      jump(tag_154)\n    tag_155:\n      dup3\n      add\n      swap2\n      swap1\n      0x00\n      mstore\n      keccak256(0x00, 0x20)\n      swap1\n    tag_156:\n      dup2\n      sload\n      dup2\n      mstore\n      swap1\n      0x01\n      add\n      swap1\n      0x20\n      add\n      dup1\n      dup4\n      gt\n      tag_156\n      jumpi\n      dup3\n      swap1\n      sub\n      0x1f\n      and\n      dup3\n      add\n      swap2\n    tag_154:\n      pop\n      pop\n      pop\n      pop\n      pop\n      swap1\n      pop\n        /* \"contracts/Promp-nft.sol\":3266:3292  bytes memory aigcDataBytes */\n      0x00\n        /* \"contracts/Promp-nft.sol\":3295:3302  request */\n      dup4\n        /* \"contracts/Promp-nft.sol\":3295:3309  request.output */\n      0x03\n      add\n        /* \"contracts/Promp-nft.sol\":3266:3309  bytes memory aigcDataBytes = request.output */\n      dup1\n      sload\n      tag_157\n      swap1\n      tag_98\n      jump\t// in\n    tag_157:\n      dup1\n      0x1f\n      add\n      0x20\n      dup1\n      swap2\n      div\n      mul\n      0x20\n      add\n      mload(0x40)\n      swap1\n      dup2\n      add\n      0x40\n      mstore\n      dup1\n      swap3\n      swap2\n      swap1\n      dup2\n      dup2\n      mstore\n      0x20\n      add\n      dup3\n      dup1\n      sload\n      tag_158\n      swap1\n      tag_98\n      jump\t// in\n    tag_158:\n      dup1\n      iszero\n      tag_159\n      jumpi\n      dup1\n      0x1f\n      lt\n      tag_160\n      jumpi\n      0x0100\n      dup1\n      dup4\n      sload\n      div\n      mul\n      dup4\n      mstore\n      swap2\n      0x20\n      add\n      swap2\n      jump(tag_159)\n    tag_160:\n      dup3\n      add\n      swap2\n      swap1\n      0x00\n      mstore\n      keccak256(0x00, 0x20)\n      swap1\n    tag_161:\n      dup2\n      sload\n      dup2\n      mstore\n      swap1\n      0x01\n      add\n      swap1\n      0x20\n      add\n      dup1\n      dup4\n      gt\n      tag_161\n      jumpi\n      dup3\n      swap1\n      sub\n      0x1f\n      and\n      dup3\n      add\n      swap2\n    tag_159:\n      pop\n      pop\n      pop\n      pop\n      pop\n      swap1\n      pop\n        /* \"contracts/Promp-nft.sol\":3320:3340  string memory prompt */\n      0x00\n        /* \"contracts/Promp-nft.sol\":3350:3361  promptBytes */\n      dup3\n        /* \"contracts/Promp-nft.sol\":3320:3362  string memory prompt = string(promptBytes) */\n      swap1\n      pop\n        /* \"contracts/Promp-nft.sol\":3372:3394  string memory aigcData */\n      0x00\n        /* \"contracts/Promp-nft.sol\":3404:3417  aigcDataBytes */\n      dup3\n        /* \"contracts/Promp-nft.sol\":3372:3418  string memory aigcData = string(aigcDataBytes) */\n      swap1\n      pop\n        /* \"contracts/Promp-nft.sol\":3497:3519  string memory metadata */\n      0x00\n        /* \"contracts/Promp-nft.sol\":3922:3928  prompt */\n      dup3\n        /* \"contracts/Promp-nft.sol\":4010:4018  aigcData */\n      dup3\n        /* \"contracts/Promp-nft.sol\":3542:4099  abi.encodePacked(... */\n      add(0x20, mload(0x40))\n      tag_162\n      swap3\n      swap2\n      swap1\n      tag_163\n      jump\t// in\n    tag_162:\n      mload(0x40)\n      0x20\n      dup2\n      dup4\n      sub\n      sub\n      dup2\n      mstore\n      swap1\n      0x40\n      mstore\n        /* \"contracts/Promp-nft.sol\":3497:4109  string memory metadata = string(... */\n      swap1\n      pop\n        /* \"contracts/Promp-nft.sol\":4157:4174  string memory uri */\n      0x00\n        /* \"contracts/Promp-nft.sol\":4247:4277  Base64.encode(bytes(metadata)) */\n      tag_164\n        /* \"contracts/Promp-nft.sol\":4267:4275  metadata */\n      dup3\n        /* \"contracts/Promp-nft.sol\":4247:4260  Base64.encode */\n      tag_165\n        /* \"contracts/Promp-nft.sol\":4247:4277  Base64.encode(bytes(metadata)) */\n      jump\t// in\n    tag_164:\n        /* \"contracts/Promp-nft.sol\":4197:4278  abi.encodePacked(\"data:application/json;base64,\", Base64.encode(bytes(metadata))) */\n      add(0x20, mload(0x40))\n      tag_166\n      swap2\n      swap1\n      tag_167\n      jump\t// in\n    tag_166:\n      mload(0x40)\n      0x20\n      dup2\n      dup4\n      sub\n      sub\n      dup2\n      mstore\n      swap1\n      0x40\n      mstore\n        /* \"contracts/Promp-nft.sol\":4157:4288  string memory uri = string(... */\n      swap1\n      pop\n        /* \"contracts/Promp-nft.sol\":4353:4368  uint256 tokenId */\n      0x00\n        /* \"contracts/Promp-nft.sol\":4371:4378  erc7007 */\n      0x01\n      0x00\n      swap1\n      sload\n      swap1\n      0x0100\n      exp\n      swap1\n      div\n      0xffffffffffffffffffffffffffffffffffffffff\n      and\n        /* \"contracts/Promp-nft.sol\":4371:4383  erc7007.mint */\n      0xffffffffffffffffffffffffffffffffffffffff\n      and\n      0xf405e530\n        /* \"contracts/Promp-nft.sol\":4384:4386  to */\n      dup10\n        /* \"contracts/Promp-nft.sol\":4388:4399  promptBytes */\n      dup10\n        /* \"contracts/Promp-nft.sol\":4401:4414  aigcDataBytes */\n      dup10\n        /* \"contracts/Promp-nft.sol\":4416:4419  uri */\n      dup7\n        /* \"contracts/Promp-nft.sol\":4371:4424  erc7007.mint(to, promptBytes, aigcDataBytes, uri, \"\") */\n      mload(0x40)\n      dup6\n      0xffffffff\n      and\n      0xe0\n      shl\n      dup2\n      mstore\n      0x04\n      add\n      tag_168\n      swap5\n      swap4\n      swap3\n      swap2\n      swap1\n      tag_169\n      jump\t// in\n    tag_168:\n      0x20\n      mload(0x40)\n      dup1\n      dup4\n      sub\n      dup2\n      0x00\n      dup8\n      gas\n      call\n      iszero\n      dup1\n      iszero\n      tag_171\n      jumpi\n      returndatasize\n      0x00\n      dup1\n      returndatacopy\n      revert(0x00, returndatasize)\n    tag_171:\n      pop\n      pop\n      pop\n      pop\n      mload(0x40)\n      returndatasize\n      not(0x1f)\n      0x1f\n      dup3\n      add\n      and\n      dup3\n      add\n      dup1\n      0x40\n      mstore\n      pop\n      dup2\n      add\n      swap1\n      tag_172\n      swap2\n      swap1\n      tag_93\n      jump\t// in\n    tag_172:\n        /* \"contracts/Promp-nft.sol\":4353:4424  uint256 tokenId = erc7007.mint(to, promptBytes, aigcDataBytes, uri, \"\") */\n      swap1\n      pop\n        /* \"contracts/Promp-nft.sol\":4466:4477  promptBytes */\n      dup7\n        /* \"contracts/Promp-nft.sol\":4440:4493  MintedWithAI(to, tokenId, promptBytes, aigcDataBytes) */\n      mload(0x40)\n      tag_173\n      swap2\n      swap1\n      tag_174\n      jump\t// in\n    tag_173:\n      mload(0x40)\n      dup1\n      swap2\n      sub\n      swap1\n      keccak256\n        /* \"contracts/Promp-nft.sol\":4457:4464  tokenId */\n      dup2\n        /* \"contracts/Promp-nft.sol\":4453:4455  to */\n      dup10\n        /* \"contracts/Promp-nft.sol\":4440:4493  MintedWithAI(to, tokenId, promptBytes, aigcDataBytes) */\n      0xffffffffffffffffffffffffffffffffffffffff\n      and\n      0xc64190d52fdbace55b49506d85b6fb7984c505f4988e4ccf0d03913783e8a6a6\n        /* \"contracts/Promp-nft.sol\":4479:4492  aigcDataBytes */\n      dup10\n        /* \"contracts/Promp-nft.sol\":4440:4493  MintedWithAI(to, tokenId, promptBytes, aigcDataBytes) */\n      mload(0x40)\n      tag_175\n      swap2\n      swap1\n      tag_176\n      jump\t// in\n    tag_175:\n      mload(0x40)\n      dup1\n      swap2\n      sub\n      swap1\n      log4\n        /* \"contracts/Promp-nft.sol\":4526:4533  tokenId */\n      dup1\n        /* \"contracts/Promp-nft.sol\":4522:4524  to */\n      dup9\n        /* \"contracts/Promp-nft.sol\":4508:4539  MintedWithURI(to, tokenId, uri) */\n      0xffffffffffffffffffffffffffffffffffffffff\n      and\n      0x232a20897eccd77cd199098ecc15db4c2fe458c859f6272614e8c1153d0df825\n        /* \"contracts/Promp-nft.sol\":4535:4538  uri */\n      dup5\n        /* \"contracts/Promp-nft.sol\":4508:4539  MintedWithURI(to, tokenId, uri) */\n      mload(0x40)\n      tag_177\n      swap2\n      swap1\n      tag_36\n      jump\t// in\n    tag_177:\n      mload(0x40)\n      dup1\n      swap2\n      sub\n      swap1\n      log3\n        /* \"contracts/Promp-nft.sol\":2965:4546  {... */\n      pop\n      pop\n      pop\n      pop\n      pop\n      pop\n      pop\n      pop\n      pop\n        /* \"contracts/Promp-nft.sol\":2911:4546  function mintWithAIResult(uint256 requestId) external {... */\n      pop\n      jump\t// out\n        /* \"contracts/Promp-nft.sol\":2378:2905  function calculateAIResult(uint256 modelId, string calldata prompt) payable external {... */\n    tag_86:\n        /* \"contracts/Promp-nft.sol\":2473:2491  bytes memory input */\n      0x00\n        /* \"contracts/Promp-nft.sol\":2500:2506  prompt */\n      dup3\n      dup3\n        /* \"contracts/Promp-nft.sol\":2473:2507  bytes memory input = bytes(prompt) */\n      dup1\n      dup1\n      0x1f\n      add\n      0x20\n      dup1\n      swap2\n      div\n      mul\n      0x20\n      add\n      mload(0x40)\n      swap1\n      dup2\n      add\n      0x40\n      mstore\n      dup1\n      swap4\n      swap3\n      swap2\n      swap1\n      dup2\n      dup2\n      mstore\n      0x20\n      add\n      dup4\n      dup4\n      dup1\n      dup3\n      dup5\n      calldatacopy\n      0x00\n      dup2\n      dup5\n      add\n      mstore\n      not(0x1f)\n      0x1f\n      dup3\n      add\n      and\n      swap1\n      pop\n      dup1\n      dup4\n      add\n      swap3\n      pop\n      pop\n      pop\n      pop\n      pop\n      pop\n      pop\n      swap1\n      pop\n        /* \"contracts/Promp-nft.sol\":2517:2534  uint256 requestId */\n      0x00\n        /* \"contracts/Promp-nft.sol\":2537:2545  aiOracle */\n      immutable(\"0xfb99367007fd9c292fe20455f4aefac1b6d18fbfb06adbfe9341c081cfd9cc19\")\n        /* \"contracts/Promp-nft.sol\":2537:2561  aiOracle.requestCallback */\n      0xffffffffffffffffffffffffffffffffffffffff\n      and\n      0x5b953806\n        /* \"contracts/Promp-nft.sol\":2569:2578  msg.value */\n      callvalue\n        /* \"contracts/Promp-nft.sol\":2593:2600  modelId */\n      dup8\n        /* \"contracts/Promp-nft.sol\":2602:2607  input */\n      dup6\n        /* \"contracts/Promp-nft.sol\":2617:2621  this */\n      address\n        /* \"contracts/Promp-nft.sol\":2624:2640  callbackGasLimit */\n      0x03\n        /* \"contracts/Promp-nft.sol\":2624:2649  callbackGasLimit[modelId] */\n      0x00\n        /* \"contracts/Promp-nft.sol\":2641:2648  modelId */\n      dup13\n        /* \"contracts/Promp-nft.sol\":2624:2649  callbackGasLimit[modelId] */\n      dup2\n      mstore\n      0x20\n      add\n      swap1\n      dup2\n      mstore\n      0x20\n      add\n      0x00\n      keccak256\n      0x00\n      swap1\n      sload\n      swap1\n      0x0100\n      exp\n      swap1\n      div\n      0xffffffffffffffff\n      and\n        /* \"contracts/Promp-nft.sol\":2537:2663  aiOracle.requestCallback{value: msg.value}(... */\n      mload(0x40)\n      dup7\n      0xffffffff\n      and\n      0xe0\n      shl\n      dup2\n      mstore\n      0x04\n      add\n      tag_179\n      swap5\n      swap4\n      swap3\n      swap2\n      swap1\n      tag_180\n      jump\t// in\n    tag_179:\n      0x20\n      mload(0x40)\n      dup1\n      dup4\n      sub\n      dup2\n      dup6\n      dup9\n      gas\n      call\n      iszero\n      dup1\n      iszero\n      tag_182\n      jumpi\n      returndatasize\n      0x00\n      dup1\n      returndatacopy\n      revert(0x00, returndatasize)\n    tag_182:\n      pop\n      pop\n      pop\n      pop\n      pop\n      mload(0x40)\n      returndatasize\n      not(0x1f)\n      0x1f\n      dup3\n      add\n      and\n      dup3\n      add\n      dup1\n      0x40\n      mstore\n      pop\n      dup2\n      add\n      swap1\n      tag_183\n      swap2\n      swap1\n      tag_93\n      jump\t// in\n    tag_183:\n        /* \"contracts/Promp-nft.sol\":2517:2663  uint256 requestId = aiOracle.requestCallback{value: msg.value}(... */\n      swap1\n      pop\n        /* \"contracts/Promp-nft.sol\":2674:2705  AIOracleRequest storage request */\n      0x00\n        /* \"contracts/Promp-nft.sol\":2708:2716  requests */\n      0x02\n        /* \"contracts/Promp-nft.sol\":2708:2727  requests[requestId] */\n      0x00\n        /* \"contracts/Promp-nft.sol\":2717:2726  requestId */\n      dup4\n        /* \"contracts/Promp-nft.sol\":2708:2727  requests[requestId] */\n      dup2\n      mstore\n      0x20\n      add\n      swap1\n      dup2\n      mstore\n      0x20\n      add\n      0x00\n      keccak256\n        /* \"contracts/Promp-nft.sol\":2674:2727  AIOracleRequest storage request = requests[requestId] */\n      swap1\n      pop\n        /* \"contracts/Promp-nft.sol\":2753:2758  input */\n      dup3\n        /* \"contracts/Promp-nft.sol\":2737:2744  request */\n      dup2\n        /* \"contracts/Promp-nft.sol\":2737:2750  request.input */\n      0x02\n      add\n        /* \"contracts/Promp-nft.sol\":2737:2758  request.input = input */\n      swap1\n      dup2\n      tag_184\n      swap2\n      swap1\n      tag_185\n      jump\t// in\n    tag_184:\n      pop\n        /* \"contracts/Promp-nft.sol\":2785:2795  msg.sender */\n      caller\n        /* \"contracts/Promp-nft.sol\":2768:2775  request */\n      dup2\n        /* \"contracts/Promp-nft.sol\":2768:2782  request.sender */\n      0x00\n      add\n      0x00\n        /* \"contracts/Promp-nft.sol\":2768:2795  request.sender = msg.sender */\n      0x0100\n      exp\n      dup2\n      sload\n      dup2\n      0xffffffffffffffffffffffffffffffffffffffff\n      mul\n      not\n      and\n      swap1\n      dup4\n      0xffffffffffffffffffffffffffffffffffffffff\n      and\n      mul\n      or\n      swap1\n      sstore\n      pop\n        /* \"contracts/Promp-nft.sol\":2823:2830  modelId */\n      dup6\n        /* \"contracts/Promp-nft.sol\":2805:2812  request */\n      dup2\n        /* \"contracts/Promp-nft.sol\":2805:2820  request.modelId */\n      0x01\n      add\n        /* \"contracts/Promp-nft.sol\":2805:2830  request.modelId = modelId */\n      dup2\n      swap1\n      sstore\n      pop\n        /* \"contracts/Promp-nft.sol\":2845:2898  PromptRequest(requestId, msg.sender, modelId, prompt) */\n      0xea70aa9d39e3817fb34fb254478941e77c372c6f135536f7dd6173d236c1e7\n        /* \"contracts/Promp-nft.sol\":2859:2868  requestId */\n      dup3\n        /* \"contracts/Promp-nft.sol\":2870:2880  msg.sender */\n      caller\n        /* \"contracts/Promp-nft.sol\":2882:2889  modelId */\n      dup9\n        /* \"contracts/Promp-nft.sol\":2891:2897  prompt */\n      dup9\n      dup9\n        /* \"contracts/Promp-nft.sol\":2845:2898  PromptRequest(requestId, msg.sender, modelId, prompt) */\n      mload(0x40)\n      tag_186\n      swap6\n      swap5\n      swap4\n      swap3\n      swap2\n      swap1\n      tag_187\n      jump\t// in\n    tag_186:\n      mload(0x40)\n      dup1\n      swap2\n      sub\n      swap1\n      log1\n        /* \"contracts/Promp-nft.sol\":2463:2905  {... */\n      pop\n      pop\n      pop\n        /* \"contracts/Promp-nft.sol\":2378:2905  function calculateAIResult(uint256 modelId, string calldata prompt) payable external {... */\n      pop\n      pop\n      pop\n      jump\t// out\n        /* \"@openzeppelin/contracts/utils/Base64.sol\":663:787  function encode(bytes memory data) internal pure returns (string memory) {... */\n    tag_165:\n        /* \"@openzeppelin/contracts/utils/Base64.sol\":721:734  string memory */\n      0x60\n        /* \"@openzeppelin/contracts/utils/Base64.sol\":753:780  _encode(data, _TABLE, true) */\n      tag_189\n        /* \"@openzeppelin/contracts/utils/Base64.sol\":761:765  data */\n      dup3\n        /* \"@openzeppelin/contracts/utils/Base64.sol\":767:773  _TABLE */\n      mload(0x40)\n      dup1\n      0x60\n      add\n      0x40\n      mstore\n      dup1\n      0x40\n      dup2\n      mstore\n      0x20\n      add\n      data_84d8a590de33e00cbdc16e1f28c3506f5ec15c599fab9a6a4bcd575cc2f110ce\n      0x40\n      swap2\n      codecopy\n        /* \"@openzeppelin/contracts/utils/Base64.sol\":775:779  true */\n      0x01\n        /* \"@openzeppelin/contracts/utils/Base64.sol\":753:760  _encode */\n      tag_190\n        /* \"@openzeppelin/contracts/utils/Base64.sol\":753:780  _encode(data, _TABLE, true) */\n      jump\t// in\n    tag_189:\n        /* \"@openzeppelin/contracts/utils/Base64.sol\":746:780  return _encode(data, _TABLE, true) */\n      swap1\n      pop\n        /* \"@openzeppelin/contracts/utils/Base64.sol\":663:787  function encode(bytes memory data) internal pure returns (string memory) {... */\n      swap2\n      swap1\n      pop\n      jump\t// out\n        /* \"@openzeppelin/contracts/utils/Base64.sol\":1186:5208  function _encode(bytes memory data, string memory table, bool withPadding) private pure returns (string memory) {... */\n    tag_190:\n        /* \"@openzeppelin/contracts/utils/Base64.sol\":1283:1296  string memory */\n      0x60\n        /* \"@openzeppelin/contracts/utils/Base64.sol\":1530:1531  0 */\n      0x00\n        /* \"@openzeppelin/contracts/utils/Base64.sol\":1515:1519  data */\n      dup5\n        /* \"@openzeppelin/contracts/utils/Base64.sol\":1515:1526  data.length */\n      mload\n        /* \"@openzeppelin/contracts/utils/Base64.sol\":1515:1531  data.length == 0 */\n      sub\n        /* \"@openzeppelin/contracts/utils/Base64.sol\":1511:1542  if (data.length == 0) return \"\" */\n      tag_192\n      jumpi\n        /* \"@openzeppelin/contracts/utils/Base64.sol\":1533:1542  return \"\" */\n      mload(0x40)\n      dup1\n      0x20\n      add\n      0x40\n      mstore\n      dup1\n      0x00\n      dup2\n      mstore\n      pop\n      swap1\n      pop\n      jump(tag_191)\n        /* \"@openzeppelin/contracts/utils/Base64.sol\":1511:1542  if (data.length == 0) return \"\" */\n    tag_192:\n        /* \"@openzeppelin/contracts/utils/Base64.sol\":2480:2500  uint256 resultLength */\n      0x00\n        /* \"@openzeppelin/contracts/utils/Base64.sol\":2503:2514  withPadding */\n      dup3\n        /* \"@openzeppelin/contracts/utils/Base64.sol\":2503:2572  withPadding ? 4 * ((data.length + 2) / 3) : (4 * data.length + 2) / 3 */\n      tag_193\n      jumpi\n        /* \"@openzeppelin/contracts/utils/Base64.sol\":2571:2572  3 */\n      0x03\n        /* \"@openzeppelin/contracts/utils/Base64.sol\":2566:2567  2 */\n      0x02\n        /* \"@openzeppelin/contracts/utils/Base64.sol\":2552:2556  data */\n      dup7\n        /* \"@openzeppelin/contracts/utils/Base64.sol\":2552:2563  data.length */\n      mload\n        /* \"@openzeppelin/contracts/utils/Base64.sol\":2548:2549  4 */\n      0x04\n        /* \"@openzeppelin/contracts/utils/Base64.sol\":2548:2563  4 * data.length */\n      tag_194\n      swap2\n      swap1\n      tag_195\n      jump\t// in\n    tag_194:\n        /* \"@openzeppelin/contracts/utils/Base64.sol\":2548:2567  4 * data.length + 2 */\n      tag_196\n      swap2\n      swap1\n      tag_197\n      jump\t// in\n    tag_196:\n        /* \"@openzeppelin/contracts/utils/Base64.sol\":2547:2572  (4 * data.length + 2) / 3 */\n      tag_198\n      swap2\n      swap1\n      tag_199\n      jump\t// in\n    tag_198:\n        /* \"@openzeppelin/contracts/utils/Base64.sol\":2503:2572  withPadding ? 4 * ((data.length + 2) / 3) : (4 * data.length + 2) / 3 */\n      jump(tag_200)\n    tag_193:\n        /* \"@openzeppelin/contracts/utils/Base64.sol\":2542:2543  3 */\n      0x03\n        /* \"@openzeppelin/contracts/utils/Base64.sol\":2537:2538  2 */\n      0x02\n        /* \"@openzeppelin/contracts/utils/Base64.sol\":2523:2527  data */\n      dup7\n        /* \"@openzeppelin/contracts/utils/Base64.sol\":2523:2534  data.length */\n      mload\n        /* \"@openzeppelin/contracts/utils/Base64.sol\":2523:2538  data.length + 2 */\n      tag_201\n      swap2\n      swap1\n      tag_197\n      jump\t// in\n    tag_201:\n        /* \"@openzeppelin/contracts/utils/Base64.sol\":2522:2543  (data.length + 2) / 3 */\n      tag_202\n      swap2\n      swap1\n      tag_199\n      jump\t// in\n    tag_202:\n        /* \"@openzeppelin/contracts/utils/Base64.sol\":2517:2518  4 */\n      0x04\n        /* \"@openzeppelin/contracts/utils/Base64.sol\":2517:2544  4 * ((data.length + 2) / 3) */\n      tag_203\n      swap2\n      swap1\n      tag_195\n      jump\t// in\n    tag_203:\n        /* \"@openzeppelin/contracts/utils/Base64.sol\":2503:2572  withPadding ? 4 * ((data.length + 2) / 3) : (4 * data.length + 2) / 3 */\n    tag_200:\n        /* \"@openzeppelin/contracts/utils/Base64.sol\":2480:2572  uint256 resultLength = withPadding ? 4 * ((data.length + 2) / 3) : (4 * data.length + 2) / 3 */\n      swap1\n      pop\n        /* \"@openzeppelin/contracts/utils/Base64.sol\":2583:2603  string memory result */\n      0x00\n        /* \"@openzeppelin/contracts/utils/Base64.sol\":2617:2629  resultLength */\n      dup2\n        /* \"@openzeppelin/contracts/utils/Base64.sol\":2606:2630  new string(resultLength) */\n      0xffffffffffffffff\n      dup2\n      gt\n      iszero\n      tag_204\n      jumpi\n      tag_205\n      tag_206\n      jump\t// in\n    tag_205:\n    tag_204:\n      mload(0x40)\n      swap1\n      dup1\n      dup3\n      mstore\n      dup1\n      0x1f\n      add\n      not(0x1f)\n      and\n      0x20\n      add\n      dup3\n      add\n      0x40\n      mstore\n      dup1\n      iszero\n      tag_207\n      jumpi\n      dup2\n      0x20\n      add\n      0x01\n      dup3\n      mul\n      dup1\n      calldatasize\n      dup4\n      calldatacopy\n      dup1\n      dup3\n      add\n      swap2\n      pop\n      pop\n      swap1\n      pop\n    tag_207:\n      pop\n        /* \"@openzeppelin/contracts/utils/Base64.sol\":2583:2630  string memory result = new string(resultLength) */\n      swap1\n      pop\n        /* \"@openzeppelin/contracts/utils/Base64.sol\":2778:2779  1 */\n      0x01\n        /* \"@openzeppelin/contracts/utils/Base64.sol\":2771:2776  table */\n      dup6\n        /* \"@openzeppelin/contracts/utils/Base64.sol\":2767:2780  add(table, 1) */\n      add\n        /* \"@openzeppelin/contracts/utils/Base64.sol\":2879:2883  0x20 */\n      0x20\n        /* \"@openzeppelin/contracts/utils/Base64.sol\":2871:2877  result */\n      dup3\n        /* \"@openzeppelin/contracts/utils/Base64.sol\":2867:2884  add(result, 0x20) */\n      add\n        /* \"@openzeppelin/contracts/utils/Base64.sol\":2912:2916  data */\n      dup8\n        /* \"@openzeppelin/contracts/utils/Base64.sol\":2959:2963  data */\n      dup9\n        /* \"@openzeppelin/contracts/utils/Base64.sol\":2953:2964  mload(data) */\n      mload\n        /* \"@openzeppelin/contracts/utils/Base64.sol\":2947:2951  data */\n      dup10\n        /* \"@openzeppelin/contracts/utils/Base64.sol\":2943:2965  add(data, mload(data)) */\n      add\n        /* \"@openzeppelin/contracts/utils/Base64.sol\":3207:3211  0x20 */\n      0x20\n        /* \"@openzeppelin/contracts/utils/Base64.sol\":3199:3205  endPtr */\n      dup2\n        /* \"@openzeppelin/contracts/utils/Base64.sol\":3195:3212  add(endPtr, 0x20) */\n      add\n        /* \"@openzeppelin/contracts/utils/Base64.sol\":3249:3257  afterPtr */\n      dup1\n        /* \"@openzeppelin/contracts/utils/Base64.sol\":3243:3258  mload(afterPtr) */\n      mload\n        /* \"@openzeppelin/contracts/utils/Base64.sol\":3288:3292  0x00 */\n      0x00\n        /* \"@openzeppelin/contracts/utils/Base64.sol\":3278:3286  afterPtr */\n      dup3\n        /* \"@openzeppelin/contracts/utils/Base64.sol\":3271:3293  mstore(afterPtr, 0x00) */\n      mstore\n        /* \"@openzeppelin/contracts/utils/Base64.sol\":3360:4619  for {... */\n    tag_208:\n        /* \"@openzeppelin/contracts/utils/Base64.sol\":3393:3399  endPtr */\n      dup3\n        /* \"@openzeppelin/contracts/utils/Base64.sol\":3384:3391  dataPtr */\n      dup5\n        /* \"@openzeppelin/contracts/utils/Base64.sol\":3381:3400  lt(dataPtr, endPtr) */\n      lt\n        /* \"@openzeppelin/contracts/utils/Base64.sol\":3360:4619  for {... */\n      iszero\n      tag_210\n      jumpi\n        /* \"@openzeppelin/contracts/utils/Base64.sol\":3495:3496  3 */\n      0x03\n        /* \"@openzeppelin/contracts/utils/Base64.sol\":3486:3493  dataPtr */\n      dup5\n        /* \"@openzeppelin/contracts/utils/Base64.sol\":3482:3497  add(dataPtr, 3) */\n      add\n        /* \"@openzeppelin/contracts/utils/Base64.sol\":3471:3497  dataPtr := add(dataPtr, 3) */\n      swap4\n      pop\n        /* \"@openzeppelin/contracts/utils/Base64.sol\":3533:3540  dataPtr */\n      dup4\n        /* \"@openzeppelin/contracts/utils/Base64.sol\":3527:3541  mload(dataPtr) */\n      mload\n        /* \"@openzeppelin/contracts/utils/Base64.sol\":4120:4124  0x3F */\n      0x3f\n        /* \"@openzeppelin/contracts/utils/Base64.sol\":4112:4117  input */\n      dup2\n        /* \"@openzeppelin/contracts/utils/Base64.sol\":4108:4110  18 */\n      0x12\n        /* \"@openzeppelin/contracts/utils/Base64.sol\":4104:4118  shr(18, input) */\n      shr\n        /* \"@openzeppelin/contracts/utils/Base64.sol\":4100:4125  and(shr(18, input), 0x3F) */\n      and\n        /* \"@openzeppelin/contracts/utils/Base64.sol\":4090:4098  tablePtr */\n      dup8\n        /* \"@openzeppelin/contracts/utils/Base64.sol\":4086:4126  add(tablePtr, and(shr(18, input), 0x3F)) */\n      add\n        /* \"@openzeppelin/contracts/utils/Base64.sol\":4080:4127  mload(add(tablePtr, and(shr(18, input), 0x3F))) */\n      mload\n        /* \"@openzeppelin/contracts/utils/Base64.sol\":4069:4078  resultPtr */\n      dup7\n        /* \"@openzeppelin/contracts/utils/Base64.sol\":4061:4128  mstore8(resultPtr, mload(add(tablePtr, and(shr(18, input), 0x3F)))) */\n      mstore8\n        /* \"@openzeppelin/contracts/utils/Base64.sol\":4173:4174  1 */\n      0x01\n        /* \"@openzeppelin/contracts/utils/Base64.sol\":4162:4171  resultPtr */\n      dup7\n        /* \"@openzeppelin/contracts/utils/Base64.sol\":4158:4175  add(resultPtr, 1) */\n      add\n        /* \"@openzeppelin/contracts/utils/Base64.sol\":4145:4175  resultPtr := add(resultPtr, 1) */\n      swap6\n      pop\n        /* \"@openzeppelin/contracts/utils/Base64.sol\":4263:4267  0x3F */\n      0x3f\n        /* \"@openzeppelin/contracts/utils/Base64.sol\":4255:4260  input */\n      dup2\n        /* \"@openzeppelin/contracts/utils/Base64.sol\":4251:4253  12 */\n      0x0c\n        /* \"@openzeppelin/contracts/utils/Base64.sol\":4247:4261  shr(12, input) */\n      shr\n        /* \"@openzeppelin/contracts/utils/Base64.sol\":4243:4268  and(shr(12, input), 0x3F) */\n      and\n        /* \"@openzeppelin/contracts/utils/Base64.sol\":4233:4241  tablePtr */\n      dup8\n        /* \"@openzeppelin/contracts/utils/Base64.sol\":4229:4269  add(tablePtr, and(shr(12, input), 0x3F)) */\n      add\n        /* \"@openzeppelin/contracts/utils/Base64.sol\":4223:4270  mload(add(tablePtr, and(shr(12, input), 0x3F))) */\n      mload\n        /* \"@openzeppelin/contracts/utils/Base64.sol\":4212:4221  resultPtr */\n      dup7\n        /* \"@openzeppelin/contracts/utils/Base64.sol\":4204:4271  mstore8(resultPtr, mload(add(tablePtr, and(shr(12, input), 0x3F)))) */\n      mstore8\n        /* \"@openzeppelin/contracts/utils/Base64.sol\":4316:4317  1 */\n      0x01\n        /* \"@openzeppelin/contracts/utils/Base64.sol\":4305:4314  resultPtr */\n      dup7\n        /* \"@openzeppelin/contracts/utils/Base64.sol\":4301:4318  add(resultPtr, 1) */\n      add\n        /* \"@openzeppelin/contracts/utils/Base64.sol\":4288:4318  resultPtr := add(resultPtr, 1) */\n      swap6\n      pop\n        /* \"@openzeppelin/contracts/utils/Base64.sol\":4405:4409  0x3F */\n      0x3f\n        /* \"@openzeppelin/contracts/utils/Base64.sol\":4397:4402  input */\n      dup2\n        /* \"@openzeppelin/contracts/utils/Base64.sol\":4394:4395  6 */\n      0x06\n        /* \"@openzeppelin/contracts/utils/Base64.sol\":4390:4403  shr(6, input) */\n      shr\n        /* \"@openzeppelin/contracts/utils/Base64.sol\":4386:4410  and(shr(6, input), 0x3F) */\n      and\n        /* \"@openzeppelin/contracts/utils/Base64.sol\":4376:4384  tablePtr */\n      dup8\n        /* \"@openzeppelin/contracts/utils/Base64.sol\":4372:4411  add(tablePtr, and(shr(6, input), 0x3F)) */\n      add\n        /* \"@openzeppelin/contracts/utils/Base64.sol\":4366:4412  mload(add(tablePtr, and(shr(6, input), 0x3F))) */\n      mload\n        /* \"@openzeppelin/contracts/utils/Base64.sol\":4355:4364  resultPtr */\n      dup7\n        /* \"@openzeppelin/contracts/utils/Base64.sol\":4347:4413  mstore8(resultPtr, mload(add(tablePtr, and(shr(6, input), 0x3F)))) */\n      mstore8\n        /* \"@openzeppelin/contracts/utils/Base64.sol\":4458:4459  1 */\n      0x01\n        /* \"@openzeppelin/contracts/utils/Base64.sol\":4447:4456  resultPtr */\n      dup7\n        /* \"@openzeppelin/contracts/utils/Base64.sol\":4443:4460  add(resultPtr, 1) */\n      add\n        /* \"@openzeppelin/contracts/utils/Base64.sol\":4430:4460  resultPtr := add(resultPtr, 1) */\n      swap6\n      pop\n        /* \"@openzeppelin/contracts/utils/Base64.sol\":4539:4543  0x3F */\n      0x3f\n        /* \"@openzeppelin/contracts/utils/Base64.sol\":4532:4537  input */\n      dup2\n        /* \"@openzeppelin/contracts/utils/Base64.sol\":4528:4544  and(input, 0x3F) */\n      and\n        /* \"@openzeppelin/contracts/utils/Base64.sol\":4518:4526  tablePtr */\n      dup8\n        /* \"@openzeppelin/contracts/utils/Base64.sol\":4514:4545  add(tablePtr, and(input, 0x3F)) */\n      add\n        /* \"@openzeppelin/contracts/utils/Base64.sol\":4508:4546  mload(add(tablePtr, and(input, 0x3F))) */\n      mload\n        /* \"@openzeppelin/contracts/utils/Base64.sol\":4497:4506  resultPtr */\n      dup7\n        /* \"@openzeppelin/contracts/utils/Base64.sol\":4489:4547  mstore8(resultPtr, mload(add(tablePtr, and(input, 0x3F)))) */\n      mstore8\n        /* \"@openzeppelin/contracts/utils/Base64.sol\":4592:4593  1 */\n      0x01\n        /* \"@openzeppelin/contracts/utils/Base64.sol\":4581:4590  resultPtr */\n      dup7\n        /* \"@openzeppelin/contracts/utils/Base64.sol\":4577:4594  add(resultPtr, 1) */\n      add\n        /* \"@openzeppelin/contracts/utils/Base64.sol\":4564:4594  resultPtr := add(resultPtr, 1) */\n      swap6\n      pop\n        /* \"@openzeppelin/contracts/utils/Base64.sol\":3418:4619  {... */\n      pop\n        /* \"@openzeppelin/contracts/utils/Base64.sol\":3360:4619  for {... */\n      jump(tag_208)\n    tag_210:\n        /* \"@openzeppelin/contracts/utils/Base64.sol\":4697:4707  afterCache */\n      dup1\n        /* \"@openzeppelin/contracts/utils/Base64.sol\":4687:4695  afterPtr */\n      dup3\n        /* \"@openzeppelin/contracts/utils/Base64.sol\":4680:4708  mstore(afterPtr, afterCache) */\n      mstore\n        /* \"@openzeppelin/contracts/utils/Base64.sol\":4725:4736  withPadding */\n      dup10\n        /* \"@openzeppelin/contracts/utils/Base64.sol\":4722:5168  if withPadding {... */\n      iszero\n      tag_211\n      jumpi\n        /* \"@openzeppelin/contracts/utils/Base64.sol\":4907:4908  3 */\n      0x03\n        /* \"@openzeppelin/contracts/utils/Base64.sol\":4900:4904  data */\n      dup13\n        /* \"@openzeppelin/contracts/utils/Base64.sol\":4894:4905  mload(data) */\n      mload\n        /* \"@openzeppelin/contracts/utils/Base64.sol\":4890:4909  mod(mload(data), 3) */\n      mod\n        /* \"@openzeppelin/contracts/utils/Base64.sol\":4931:4932  1 */\n      0x01\n        /* \"@openzeppelin/contracts/utils/Base64.sol\":4926:5058  case 1 {... */\n      dup2\n      eq\n      tag_213\n      jumpi\n        /* \"@openzeppelin/contracts/utils/Base64.sol\":5080:5081  2 */\n      0x02\n        /* \"@openzeppelin/contracts/utils/Base64.sol\":5075:5154  case 2 {... */\n      dup2\n      eq\n      tag_214\n      jumpi\n        /* \"@openzeppelin/contracts/utils/Base64.sol\":4883:5154  switch mod(mload(data), 3)... */\n      jump(tag_212)\n        /* \"@openzeppelin/contracts/utils/Base64.sol\":4926:5058  case 1 {... */\n    tag_213:\n        /* \"@openzeppelin/contracts/utils/Base64.sol\":4982:4986  0x3d */\n      0x3d\n        /* \"@openzeppelin/contracts/utils/Base64.sol\":4978:4979  1 */\n      0x01\n        /* \"@openzeppelin/contracts/utils/Base64.sol\":4967:4976  resultPtr */\n      dup8\n        /* \"@openzeppelin/contracts/utils/Base64.sol\":4963:4980  sub(resultPtr, 1) */\n      sub\n        /* \"@openzeppelin/contracts/utils/Base64.sol\":4955:4987  mstore8(sub(resultPtr, 1), 0x3d) */\n      mstore8\n        /* \"@openzeppelin/contracts/utils/Base64.sol\":5035:5039  0x3d */\n      0x3d\n        /* \"@openzeppelin/contracts/utils/Base64.sol\":5031:5032  2 */\n      0x02\n        /* \"@openzeppelin/contracts/utils/Base64.sol\":5020:5029  resultPtr */\n      dup8\n        /* \"@openzeppelin/contracts/utils/Base64.sol\":5016:5033  sub(resultPtr, 2) */\n      sub\n        /* \"@openzeppelin/contracts/utils/Base64.sol\":5008:5040  mstore8(sub(resultPtr, 2), 0x3d) */\n      mstore8\n        /* \"@openzeppelin/contracts/utils/Base64.sol\":4926:5058  case 1 {... */\n      jump(tag_212)\n        /* \"@openzeppelin/contracts/utils/Base64.sol\":5075:5154  case 2 {... */\n    tag_214:\n        /* \"@openzeppelin/contracts/utils/Base64.sol\":5131:5135  0x3d */\n      0x3d\n        /* \"@openzeppelin/contracts/utils/Base64.sol\":5127:5128  1 */\n      0x01\n        /* \"@openzeppelin/contracts/utils/Base64.sol\":5116:5125  resultPtr */\n      dup8\n        /* \"@openzeppelin/contracts/utils/Base64.sol\":5112:5129  sub(resultPtr, 1) */\n      sub\n        /* \"@openzeppelin/contracts/utils/Base64.sol\":5104:5136  mstore8(sub(resultPtr, 1), 0x3d) */\n      mstore8\n        /* \"@openzeppelin/contracts/utils/Base64.sol\":4883:5154  switch mod(mload(data), 3)... */\n    tag_212:\n      pop\n        /* \"@openzeppelin/contracts/utils/Base64.sol\":4722:5168  if withPadding {... */\n    tag_211:\n        /* \"@openzeppelin/contracts/utils/Base64.sol\":2666:5178  {... */\n      pop\n      pop\n      pop\n      pop\n      pop\n      pop\n        /* \"@openzeppelin/contracts/utils/Base64.sol\":5195:5201  result */\n      dup1\n        /* \"@openzeppelin/contracts/utils/Base64.sol\":5188:5201  return result */\n      swap3\n      pop\n      pop\n      pop\n        /* \"@openzeppelin/contracts/utils/Base64.sol\":1186:5208  function _encode(bytes memory data, string memory table, bool withPadding) private pure returns (string memory) {... */\n    tag_191:\n      swap4\n      swap3\n      pop\n      pop\n      pop\n      jump\t// out\n        /* \"#utility.yul\":7:82   */\n    tag_215:\n        /* \"#utility.yul\":40:46   */\n      0x00\n        /* \"#utility.yul\":73:75   */\n      0x40\n        /* \"#utility.yul\":67:76   */\n      mload\n        /* \"#utility.yul\":57:76   */\n      swap1\n      pop\n        /* \"#utility.yul\":7:82   */\n      swap1\n      jump\t// out\n        /* \"#utility.yul\":88:205   */\n    tag_216:\n        /* \"#utility.yul\":197:198   */\n      0x00\n        /* \"#utility.yul\":194:195   */\n      dup1\n        /* \"#utility.yul\":187:199   */\n      revert\n        /* \"#utility.yul\":211:328   */\n    tag_217:\n        /* \"#utility.yul\":320:321   */\n      0x00\n        /* \"#utility.yul\":317:318   */\n      dup1\n        /* \"#utility.yul\":310:322   */\n      revert\n        /* \"#utility.yul\":334:411   */\n    tag_218:\n        /* \"#utility.yul\":371:378   */\n      0x00\n        /* \"#utility.yul\":400:405   */\n      dup2\n        /* \"#utility.yul\":389:405   */\n      swap1\n      pop\n        /* \"#utility.yul\":334:411   */\n      swap2\n      swap1\n      pop\n      jump\t// out\n        /* \"#utility.yul\":417:539   */\n    tag_219:\n        /* \"#utility.yul\":490:514   */\n      tag_332\n        /* \"#utility.yul\":508:513   */\n      dup2\n        /* \"#utility.yul\":490:514   */\n      tag_218\n      jump\t// in\n    tag_332:\n        /* \"#utility.yul\":483:488   */\n      dup2\n        /* \"#utility.yul\":480:515   */\n      eq\n        /* \"#utility.yul\":470:533   */\n      tag_333\n      jumpi\n        /* \"#utility.yul\":529:530   */\n      0x00\n        /* \"#utility.yul\":526:527   */\n      dup1\n        /* \"#utility.yul\":519:531   */\n      revert\n        /* \"#utility.yul\":470:533   */\n    tag_333:\n        /* \"#utility.yul\":417:539   */\n      pop\n      jump\t// out\n        /* \"#utility.yul\":545:684   */\n    tag_220:\n        /* \"#utility.yul\":591:596   */\n      0x00\n        /* \"#utility.yul\":629:635   */\n      dup2\n        /* \"#utility.yul\":616:636   */\n      calldataload\n        /* \"#utility.yul\":607:636   */\n      swap1\n      pop\n        /* \"#utility.yul\":645:678   */\n      tag_335\n        /* \"#utility.yul\":672:677   */\n      dup2\n        /* \"#utility.yul\":645:678   */\n      tag_219\n      jump\t// in\n    tag_335:\n        /* \"#utility.yul\":545:684   */\n      swap3\n      swap2\n      pop\n      pop\n      jump\t// out\n        /* \"#utility.yul\":690:1019   */\n    tag_20:\n        /* \"#utility.yul\":749:755   */\n      0x00\n        /* \"#utility.yul\":798:800   */\n      0x20\n        /* \"#utility.yul\":786:795   */\n      dup3\n        /* \"#utility.yul\":777:784   */\n      dup5\n        /* \"#utility.yul\":773:796   */\n      sub\n        /* \"#utility.yul\":769:801   */\n      slt\n        /* \"#utility.yul\":766:885   */\n      iszero\n      tag_337\n      jumpi\n        /* \"#utility.yul\":804:883   */\n      tag_338\n      tag_216\n      jump\t// in\n    tag_338:\n        /* \"#utility.yul\":766:885   */\n    tag_337:\n        /* \"#utility.yul\":924:925   */\n      0x00\n        /* \"#utility.yul\":949:1002   */\n      tag_339\n        /* \"#utility.yul\":994:1001   */\n      dup5\n        /* \"#utility.yul\":985:991   */\n      dup3\n        /* \"#utility.yul\":974:983   */\n      dup6\n        /* \"#utility.yul\":970:992   */\n      add\n        /* \"#utility.yul\":949:1002   */\n      tag_220\n      jump\t// in\n    tag_339:\n        /* \"#utility.yul\":939:1002   */\n      swap2\n      pop\n        /* \"#utility.yul\":895:1012   */\n      pop\n        /* \"#utility.yul\":690:1019   */\n      swap3\n      swap2\n      pop\n      pop\n      jump\t// out\n        /* \"#utility.yul\":1025:1143   */\n    tag_221:\n        /* \"#utility.yul\":1112:1136   */\n      tag_341\n        /* \"#utility.yul\":1130:1135   */\n      dup2\n        /* \"#utility.yul\":1112:1136   */\n      tag_218\n      jump\t// in\n    tag_341:\n        /* \"#utility.yul\":1107:1110   */\n      dup3\n        /* \"#utility.yul\":1100:1137   */\n      mstore\n        /* \"#utility.yul\":1025:1143   */\n      pop\n      pop\n      jump\t// out\n        /* \"#utility.yul\":1149:1371   */\n    tag_23:\n        /* \"#utility.yul\":1242:1246   */\n      0x00\n        /* \"#utility.yul\":1280:1282   */\n      0x20\n        /* \"#utility.yul\":1269:1278   */\n      dup3\n        /* \"#utility.yul\":1265:1283   */\n      add\n        /* \"#utility.yul\":1257:1283   */\n      swap1\n      pop\n        /* \"#utility.yul\":1293:1364   */\n      tag_343\n        /* \"#utility.yul\":1361:1362   */\n      0x00\n        /* \"#utility.yul\":1350:1359   */\n      dup4\n        /* \"#utility.yul\":1346:1363   */\n      add\n        /* \"#utility.yul\":1337:1343   */\n      dup5\n        /* \"#utility.yul\":1293:1364   */\n      tag_221\n      jump\t// in\n    tag_343:\n        /* \"#utility.yul\":1149:1371   */\n      swap3\n      swap2\n      pop\n      pop\n      jump\t// out\n        /* \"#utility.yul\":1377:1478   */\n    tag_222:\n        /* \"#utility.yul\":1413:1420   */\n      0x00\n        /* \"#utility.yul\":1453:1471   */\n      0xffffffffffffffff\n        /* \"#utility.yul\":1446:1451   */\n      dup3\n        /* \"#utility.yul\":1442:1472   */\n      and\n        /* \"#utility.yul\":1431:1472   */\n      swap1\n      pop\n        /* \"#utility.yul\":1377:1478   */\n      swap2\n      swap1\n      pop\n      jump\t// out\n        /* \"#utility.yul\":1484:1599   */\n    tag_223:\n        /* \"#utility.yul\":1569:1592   */\n      tag_346\n        /* \"#utility.yul\":1586:1591   */\n      dup2\n        /* \"#utility.yul\":1569:1592   */\n      tag_222\n      jump\t// in\n    tag_346:\n        /* \"#utility.yul\":1564:1567   */\n      dup3\n        /* \"#utility.yul\":1557:1593   */\n      mstore\n        /* \"#utility.yul\":1484:1599   */\n      pop\n      pop\n      jump\t// out\n        /* \"#utility.yul\":1605:1823   */\n    tag_29:\n        /* \"#utility.yul\":1696:1700   */\n      0x00\n        /* \"#utility.yul\":1734:1736   */\n      0x20\n        /* \"#utility.yul\":1723:1732   */\n      dup3\n        /* \"#utility.yul\":1719:1737   */\n      add\n        /* \"#utility.yul\":1711:1737   */\n      swap1\n      pop\n        /* \"#utility.yul\":1747:1816   */\n      tag_348\n        /* \"#utility.yul\":1813:1814   */\n      0x00\n        /* \"#utility.yul\":1802:1811   */\n      dup4\n        /* \"#utility.yul\":1798:1815   */\n      add\n        /* \"#utility.yul\":1789:1795   */\n      dup5\n        /* \"#utility.yul\":1747:1816   */\n      tag_223\n      jump\t// in\n    tag_348:\n        /* \"#utility.yul\":1605:1823   */\n      swap3\n      swap2\n      pop\n      pop\n      jump\t// out\n        /* \"#utility.yul\":1829:1946   */\n    tag_224:\n        /* \"#utility.yul\":1938:1939   */\n      0x00\n        /* \"#utility.yul\":1935:1936   */\n      dup1\n        /* \"#utility.yul\":1928:1940   */\n      revert\n        /* \"#utility.yul\":1952:2069   */\n    tag_225:\n        /* \"#utility.yul\":2061:2062   */\n      0x00\n        /* \"#utility.yul\":2058:2059   */\n      dup1\n        /* \"#utility.yul\":2051:2063   */\n      revert\n        /* \"#utility.yul\":2075:2192   */\n    tag_226:\n        /* \"#utility.yul\":2184:2185   */\n      0x00\n        /* \"#utility.yul\":2181:2182   */\n      dup1\n        /* \"#utility.yul\":2174:2186   */\n      revert\n        /* \"#utility.yul\":2212:2765   */\n    tag_227:\n        /* \"#utility.yul\":2270:2278   */\n      0x00\n        /* \"#utility.yul\":2280:2286   */\n      dup1\n        /* \"#utility.yul\":2330:2333   */\n      dup4\n        /* \"#utility.yul\":2323:2327   */\n      0x1f\n        /* \"#utility.yul\":2315:2321   */\n      dup5\n        /* \"#utility.yul\":2311:2328   */\n      add\n        /* \"#utility.yul\":2307:2334   */\n      slt\n        /* \"#utility.yul\":2297:2419   */\n      tag_353\n      jumpi\n        /* \"#utility.yul\":2338:2417   */\n      tag_354\n      tag_224\n      jump\t// in\n    tag_354:\n        /* \"#utility.yul\":2297:2419   */\n    tag_353:\n        /* \"#utility.yul\":2451:2457   */\n      dup3\n        /* \"#utility.yul\":2438:2458   */\n      calldataload\n        /* \"#utility.yul\":2428:2458   */\n      swap1\n      pop\n        /* \"#utility.yul\":2481:2499   */\n      0xffffffffffffffff\n        /* \"#utility.yul\":2473:2479   */\n      dup2\n        /* \"#utility.yul\":2470:2500   */\n      gt\n        /* \"#utility.yul\":2467:2584   */\n      iszero\n      tag_355\n      jumpi\n        /* \"#utility.yul\":2503:2582   */\n      tag_356\n      tag_225\n      jump\t// in\n    tag_356:\n        /* \"#utility.yul\":2467:2584   */\n    tag_355:\n        /* \"#utility.yul\":2617:2621   */\n      0x20\n        /* \"#utility.yul\":2609:2615   */\n      dup4\n        /* \"#utility.yul\":2605:2622   */\n      add\n        /* \"#utility.yul\":2593:2622   */\n      swap2\n      pop\n        /* \"#utility.yul\":2671:2674   */\n      dup4\n        /* \"#utility.yul\":2663:2667   */\n      0x01\n        /* \"#utility.yul\":2655:2661   */\n      dup3\n        /* \"#utility.yul\":2651:2668   */\n      mul\n        /* \"#utility.yul\":2641:2649   */\n      dup4\n        /* \"#utility.yul\":2637:2669   */\n      add\n        /* \"#utility.yul\":2634:2675   */\n      gt\n        /* \"#utility.yul\":2631:2759   */\n      iszero\n      tag_357\n      jumpi\n        /* \"#utility.yul\":2678:2757   */\n      tag_358\n      tag_226\n      jump\t// in\n    tag_358:\n        /* \"#utility.yul\":2631:2759   */\n    tag_357:\n        /* \"#utility.yul\":2212:2765   */\n      swap3\n      pop\n      swap3\n      swap1\n      pop\n      jump\t// out\n        /* \"#utility.yul\":2771:3445   */\n    tag_33:\n        /* \"#utility.yul\":2851:2857   */\n      0x00\n        /* \"#utility.yul\":2859:2865   */\n      dup1\n        /* \"#utility.yul\":2867:2873   */\n      0x00\n        /* \"#utility.yul\":2916:2918   */\n      0x40\n        /* \"#utility.yul\":2904:2913   */\n      dup5\n        /* \"#utility.yul\":2895:2902   */\n      dup7\n        /* \"#utility.yul\":2891:2914   */\n      sub\n        /* \"#utility.yul\":2887:2919   */\n      slt\n        /* \"#utility.yul\":2884:3003   */\n      iszero\n      tag_360\n      jumpi\n        /* \"#utility.yul\":2922:3001   */\n      tag_361\n      tag_216\n      jump\t// in\n    tag_361:\n        /* \"#utility.yul\":2884:3003   */\n    tag_360:\n        /* \"#utility.yul\":3042:3043   */\n      0x00\n        /* \"#utility.yul\":3067:3120   */\n      tag_362\n        /* \"#utility.yul\":3112:3119   */\n      dup7\n        /* \"#utility.yul\":3103:3109   */\n      dup3\n        /* \"#utility.yul\":3092:3101   */\n      dup8\n        /* \"#utility.yul\":3088:3110   */\n      add\n        /* \"#utility.yul\":3067:3120   */\n      tag_220\n      jump\t// in\n    tag_362:\n        /* \"#utility.yul\":3057:3120   */\n      swap4\n      pop\n        /* \"#utility.yul\":3013:3130   */\n      pop\n        /* \"#utility.yul\":3197:3199   */\n      0x20\n        /* \"#utility.yul\":3186:3195   */\n      dup5\n        /* \"#utility.yul\":3182:3200   */\n      add\n        /* \"#utility.yul\":3169:3201   */\n      calldataload\n        /* \"#utility.yul\":3228:3246   */\n      0xffffffffffffffff\n        /* \"#utility.yul\":3220:3226   */\n      dup2\n        /* \"#utility.yul\":3217:3247   */\n      gt\n        /* \"#utility.yul\":3214:3331   */\n      iszero\n      tag_363\n      jumpi\n        /* \"#utility.yul\":3250:3329   */\n      tag_364\n      tag_217\n      jump\t// in\n    tag_364:\n        /* \"#utility.yul\":3214:3331   */\n    tag_363:\n        /* \"#utility.yul\":3363:3428   */\n      tag_365\n        /* \"#utility.yul\":3420:3427   */\n      dup7\n        /* \"#utility.yul\":3411:3417   */\n      dup3\n        /* \"#utility.yul\":3400:3409   */\n      dup8\n        /* \"#utility.yul\":3396:3418   */\n      add\n        /* \"#utility.yul\":3363:3428   */\n      tag_227\n      jump\t// in\n    tag_365:\n        /* \"#utility.yul\":3345:3428   */\n      swap3\n      pop\n      swap3\n      pop\n        /* \"#utility.yul\":3140:3438   */\n      pop\n        /* \"#utility.yul\":2771:3445   */\n      swap3\n      pop\n      swap3\n      pop\n      swap3\n      jump\t// out\n        /* \"#utility.yul\":3451:3550   */\n    tag_228:\n        /* \"#utility.yul\":3503:3509   */\n      0x00\n        /* \"#utility.yul\":3537:3542   */\n      dup2\n        /* \"#utility.yul\":3531:3543   */\n      mload\n        /* \"#utility.yul\":3521:3543   */\n      swap1\n      pop\n        /* \"#utility.yul\":3451:3550   */\n      swap2\n      swap1\n      pop\n      jump\t// out\n        /* \"#utility.yul\":3556:3725   */\n    tag_229:\n        /* \"#utility.yul\":3640:3651   */\n      0x00\n        /* \"#utility.yul\":3674:3680   */\n      dup3\n        /* \"#utility.yul\":3669:3672   */\n      dup3\n        /* \"#utility.yul\":3662:3681   */\n      mstore\n        /* \"#utility.yul\":3714:3718   */\n      0x20\n        /* \"#utility.yul\":3709:3712   */\n      dup3\n        /* \"#utility.yul\":3705:3719   */\n      add\n        /* \"#utility.yul\":3690:3719   */\n      swap1\n      pop\n        /* \"#utility.yul\":3556:3725   */\n      swap3\n      swap2\n      pop\n      pop\n      jump\t// out\n        /* \"#utility.yul\":3731:3870   */\n    tag_230:\n        /* \"#utility.yul\":3820:3826   */\n      dup3\n        /* \"#utility.yul\":3815:3818   */\n      dup2\n        /* \"#utility.yul\":3810:3813   */\n      dup4\n        /* \"#utility.yul\":3804:3827   */\n      mcopy\n        /* \"#utility.yul\":3861:3862   */\n      0x00\n        /* \"#utility.yul\":3852:3858   */\n      dup4\n        /* \"#utility.yul\":3847:3850   */\n      dup4\n        /* \"#utility.yul\":3843:3859   */\n      add\n        /* \"#utility.yul\":3836:3863   */\n      mstore\n        /* \"#utility.yul\":3731:3870   */\n      pop\n      pop\n      pop\n      jump\t// out\n        /* \"#utility.yul\":3876:3978   */\n    tag_231:\n        /* \"#utility.yul\":3917:3923   */\n      0x00\n        /* \"#utility.yul\":3968:3970   */\n      0x1f\n        /* \"#utility.yul\":3964:3971   */\n      not\n        /* \"#utility.yul\":3959:3961   */\n      0x1f\n        /* \"#utility.yul\":3952:3957   */\n      dup4\n        /* \"#utility.yul\":3948:3962   */\n      add\n        /* \"#utility.yul\":3944:3972   */\n      and\n        /* \"#utility.yul\":3934:3972   */\n      swap1\n      pop\n        /* \"#utility.yul\":3876:3978   */\n      swap2\n      swap1\n      pop\n      jump\t// out\n        /* \"#utility.yul\":3984:4361   */\n    tag_232:\n        /* \"#utility.yul\":4072:4075   */\n      0x00\n        /* \"#utility.yul\":4100:4139   */\n      tag_371\n        /* \"#utility.yul\":4133:4138   */\n      dup3\n        /* \"#utility.yul\":4100:4139   */\n      tag_228\n      jump\t// in\n    tag_371:\n        /* \"#utility.yul\":4155:4226   */\n      tag_372\n        /* \"#utility.yul\":4219:4225   */\n      dup2\n        /* \"#utility.yul\":4214:4217   */\n      dup6\n        /* \"#utility.yul\":4155:4226   */\n      tag_229\n      jump\t// in\n    tag_372:\n        /* \"#utility.yul\":4148:4226   */\n      swap4\n      pop\n        /* \"#utility.yul\":4235:4300   */\n      tag_373\n        /* \"#utility.yul\":4293:4299   */\n      dup2\n        /* \"#utility.yul\":4288:4291   */\n      dup6\n        /* \"#utility.yul\":4281:4285   */\n      0x20\n        /* \"#utility.yul\":4274:4279   */\n      dup7\n        /* \"#utility.yul\":4270:4286   */\n      add\n        /* \"#utility.yul\":4235:4300   */\n      tag_230\n      jump\t// in\n    tag_373:\n        /* \"#utility.yul\":4325:4354   */\n      tag_374\n        /* \"#utility.yul\":4347:4353   */\n      dup2\n        /* \"#utility.yul\":4325:4354   */\n      tag_231\n      jump\t// in\n    tag_374:\n        /* \"#utility.yul\":4320:4323   */\n      dup5\n        /* \"#utility.yul\":4316:4355   */\n      add\n        /* \"#utility.yul\":4309:4355   */\n      swap2\n      pop\n        /* \"#utility.yul\":4076:4361   */\n      pop\n        /* \"#utility.yul\":3984:4361   */\n      swap3\n      swap2\n      pop\n      pop\n      jump\t// out\n        /* \"#utility.yul\":4367:4680   */\n    tag_36:\n        /* \"#utility.yul\":4480:4484   */\n      0x00\n        /* \"#utility.yul\":4518:4520   */\n      0x20\n        /* \"#utility.yul\":4507:4516   */\n      dup3\n        /* \"#utility.yul\":4503:4521   */\n      add\n        /* \"#utility.yul\":4495:4521   */\n      swap1\n      pop\n        /* \"#utility.yul\":4567:4576   */\n      dup2\n        /* \"#utility.yul\":4561:4565   */\n      dup2\n        /* \"#utility.yul\":4557:4577   */\n      sub\n        /* \"#utility.yul\":4553:4554   */\n      0x00\n        /* \"#utility.yul\":4542:4551   */\n      dup4\n        /* \"#utility.yul\":4538:4555   */\n      add\n        /* \"#utility.yul\":4531:4578   */\n      mstore\n        /* \"#utility.yul\":4595:4673   */\n      tag_376\n        /* \"#utility.yul\":4668:4672   */\n      dup2\n        /* \"#utility.yul\":4659:4665   */\n      dup5\n        /* \"#utility.yul\":4595:4673   */\n      tag_232\n      jump\t// in\n    tag_376:\n        /* \"#utility.yul\":4587:4673   */\n      swap1\n      pop\n        /* \"#utility.yul\":4367:4680   */\n      swap3\n      swap2\n      pop\n      pop\n      jump\t// out\n        /* \"#utility.yul\":4686:4812   */\n    tag_233:\n        /* \"#utility.yul\":4723:4730   */\n      0x00\n        /* \"#utility.yul\":4763:4805   */\n      0xffffffffffffffffffffffffffffffffffffffff\n        /* \"#utility.yul\":4756:4761   */\n      dup3\n        /* \"#utility.yul\":4752:4806   */\n      and\n        /* \"#utility.yul\":4741:4806   */\n      swap1\n      pop\n        /* \"#utility.yul\":4686:4812   */\n      swap2\n      swap1\n      pop\n      jump\t// out\n        /* \"#utility.yul\":4818:4878   */\n    tag_234:\n        /* \"#utility.yul\":4846:4849   */\n      0x00\n        /* \"#utility.yul\":4867:4872   */\n      dup2\n        /* \"#utility.yul\":4860:4872   */\n      swap1\n      pop\n        /* \"#utility.yul\":4818:4878   */\n      swap2\n      swap1\n      pop\n      jump\t// out\n        /* \"#utility.yul\":4884:5026   */\n    tag_235:\n        /* \"#utility.yul\":4934:4943   */\n      0x00\n        /* \"#utility.yul\":4967:5020   */\n      tag_380\n        /* \"#utility.yul\":4985:5019   */\n      tag_381\n        /* \"#utility.yul\":4994:5018   */\n      tag_382\n        /* \"#utility.yul\":5012:5017   */\n      dup5\n        /* \"#utility.yul\":4994:5018   */\n      tag_233\n      jump\t// in\n    tag_382:\n        /* \"#utility.yul\":4985:5019   */\n      tag_234\n      jump\t// in\n    tag_381:\n        /* \"#utility.yul\":4967:5020   */\n      tag_233\n      jump\t// in\n    tag_380:\n        /* \"#utility.yul\":4954:5020   */\n      swap1\n      pop\n        /* \"#utility.yul\":4884:5026   */\n      swap2\n      swap1\n      pop\n      jump\t// out\n        /* \"#utility.yul\":5032:5158   */\n    tag_236:\n        /* \"#utility.yul\":5082:5091   */\n      0x00\n        /* \"#utility.yul\":5115:5152   */\n      tag_384\n        /* \"#utility.yul\":5146:5151   */\n      dup3\n        /* \"#utility.yul\":5115:5152   */\n      tag_235\n      jump\t// in\n    tag_384:\n        /* \"#utility.yul\":5102:5152   */\n      swap1\n      pop\n        /* \"#utility.yul\":5032:5158   */\n      swap2\n      swap1\n      pop\n      jump\t// out\n        /* \"#utility.yul\":5164:5307   */\n    tag_237:\n        /* \"#utility.yul\":5231:5240   */\n      0x00\n        /* \"#utility.yul\":5264:5301   */\n      tag_386\n        /* \"#utility.yul\":5295:5300   */\n      dup3\n        /* \"#utility.yul\":5264:5301   */\n      tag_236\n      jump\t// in\n    tag_386:\n        /* \"#utility.yul\":5251:5301   */\n      swap1\n      pop\n        /* \"#utility.yul\":5164:5307   */\n      swap2\n      swap1\n      pop\n      jump\t// out\n        /* \"#utility.yul\":5313:5478   */\n    tag_238:\n        /* \"#utility.yul\":5417:5471   */\n      tag_388\n        /* \"#utility.yul\":5465:5470   */\n      dup2\n        /* \"#utility.yul\":5417:5471   */\n      tag_237\n      jump\t// in\n    tag_388:\n        /* \"#utility.yul\":5412:5415   */\n      dup3\n        /* \"#utility.yul\":5405:5472   */\n      mstore\n        /* \"#utility.yul\":5313:5478   */\n      pop\n      pop\n      jump\t// out\n        /* \"#utility.yul\":5484:5740   */\n    tag_41:\n        /* \"#utility.yul\":5594:5598   */\n      0x00\n        /* \"#utility.yul\":5632:5634   */\n      0x20\n        /* \"#utility.yul\":5621:5630   */\n      dup3\n        /* \"#utility.yul\":5617:5635   */\n      add\n        /* \"#utility.yul\":5609:5635   */\n      swap1\n      pop\n        /* \"#utility.yul\":5645:5733   */\n      tag_390\n        /* \"#utility.yul\":5730:5731   */\n      0x00\n        /* \"#utility.yul\":5719:5728   */\n      dup4\n        /* \"#utility.yul\":5715:5732   */\n      add\n        /* \"#utility.yul\":5706:5712   */\n      dup5\n        /* \"#utility.yul\":5645:5733   */\n      tag_238\n      jump\t// in\n    tag_390:\n        /* \"#utility.yul\":5484:5740   */\n      swap3\n      swap2\n      pop\n      pop\n      jump\t// out\n        /* \"#utility.yul\":5746:5836   */\n    tag_239:\n        /* \"#utility.yul\":5780:5787   */\n      0x00\n        /* \"#utility.yul\":5823:5828   */\n      dup2\n        /* \"#utility.yul\":5816:5829   */\n      iszero\n        /* \"#utility.yul\":5809:5830   */\n      iszero\n        /* \"#utility.yul\":5798:5830   */\n      swap1\n      pop\n        /* \"#utility.yul\":5746:5836   */\n      swap2\n      swap1\n      pop\n      jump\t// out\n        /* \"#utility.yul\":5842:5951   */\n    tag_240:\n        /* \"#utility.yul\":5923:5944   */\n      tag_393\n        /* \"#utility.yul\":5938:5943   */\n      dup2\n        /* \"#utility.yul\":5923:5944   */\n      tag_239\n      jump\t// in\n    tag_393:\n        /* \"#utility.yul\":5918:5921   */\n      dup3\n        /* \"#utility.yul\":5911:5945   */\n      mstore\n        /* \"#utility.yul\":5842:5951   */\n      pop\n      pop\n      jump\t// out\n        /* \"#utility.yul\":5957:6167   */\n    tag_47:\n        /* \"#utility.yul\":6044:6048   */\n      0x00\n        /* \"#utility.yul\":6082:6084   */\n      0x20\n        /* \"#utility.yul\":6071:6080   */\n      dup3\n        /* \"#utility.yul\":6067:6085   */\n      add\n        /* \"#utility.yul\":6059:6085   */\n      swap1\n      pop\n        /* \"#utility.yul\":6095:6160   */\n      tag_395\n        /* \"#utility.yul\":6157:6158   */\n      0x00\n        /* \"#utility.yul\":6146:6155   */\n      dup4\n        /* \"#utility.yul\":6142:6159   */\n      add\n        /* \"#utility.yul\":6133:6139   */\n      dup5\n        /* \"#utility.yul\":6095:6160   */\n      tag_240\n      jump\t// in\n    tag_395:\n        /* \"#utility.yul\":5957:6167   */\n      swap3\n      swap2\n      pop\n      pop\n      jump\t// out\n        /* \"#utility.yul\":6173:6293   */\n    tag_241:\n        /* \"#utility.yul\":6245:6268   */\n      tag_397\n        /* \"#utility.yul\":6262:6267   */\n      dup2\n        /* \"#utility.yul\":6245:6268   */\n      tag_222\n      jump\t// in\n    tag_397:\n        /* \"#utility.yul\":6238:6243   */\n      dup2\n        /* \"#utility.yul\":6235:6269   */\n      eq\n        /* \"#utility.yul\":6225:6287   */\n      tag_398\n      jumpi\n        /* \"#utility.yul\":6283:6284   */\n      0x00\n        /* \"#utility.yul\":6280:6281   */\n      dup1\n        /* \"#utility.yul\":6273:6285   */\n      revert\n        /* \"#utility.yul\":6225:6287   */\n    tag_398:\n        /* \"#utility.yul\":6173:6293   */\n      pop\n      jump\t// out\n        /* \"#utility.yul\":6299:6436   */\n    tag_242:\n        /* \"#utility.yul\":6344:6349   */\n      0x00\n        /* \"#utility.yul\":6382:6388   */\n      dup2\n        /* \"#utility.yul\":6369:6389   */\n      calldataload\n        /* \"#utility.yul\":6360:6389   */\n      swap1\n      pop\n        /* \"#utility.yul\":6398:6430   */\n      tag_400\n        /* \"#utility.yul\":6424:6429   */\n      dup2\n        /* \"#utility.yul\":6398:6430   */\n      tag_241\n      jump\t// in\n    tag_400:\n        /* \"#utility.yul\":6299:6436   */\n      swap3\n      swap2\n      pop\n      pop\n      jump\t// out\n        /* \"#utility.yul\":6442:6914   */\n    tag_51:\n        /* \"#utility.yul\":6509:6515   */\n      0x00\n        /* \"#utility.yul\":6517:6523   */\n      dup1\n        /* \"#utility.yul\":6566:6568   */\n      0x40\n        /* \"#utility.yul\":6554:6563   */\n      dup4\n        /* \"#utility.yul\":6545:6552   */\n      dup6\n        /* \"#utility.yul\":6541:6564   */\n      sub\n        /* \"#utility.yul\":6537:6569   */\n      slt\n        /* \"#utility.yul\":6534:6653   */\n      iszero\n      tag_402\n      jumpi\n        /* \"#utility.yul\":6572:6651   */\n      tag_403\n      tag_216\n      jump\t// in\n    tag_403:\n        /* \"#utility.yul\":6534:6653   */\n    tag_402:\n        /* \"#utility.yul\":6692:6693   */\n      0x00\n        /* \"#utility.yul\":6717:6770   */\n      tag_404\n        /* \"#utility.yul\":6762:6769   */\n      dup6\n        /* \"#utility.yul\":6753:6759   */\n      dup3\n        /* \"#utility.yul\":6742:6751   */\n      dup7\n        /* \"#utility.yul\":6738:6760   */\n      add\n        /* \"#utility.yul\":6717:6770   */\n      tag_220\n      jump\t// in\n    tag_404:\n        /* \"#utility.yul\":6707:6770   */\n      swap3\n      pop\n        /* \"#utility.yul\":6663:6780   */\n      pop\n        /* \"#utility.yul\":6819:6821   */\n      0x20\n        /* \"#utility.yul\":6845:6897   */\n      tag_405\n        /* \"#utility.yul\":6889:6896   */\n      dup6\n        /* \"#utility.yul\":6880:6886   */\n      dup3\n        /* \"#utility.yul\":6869:6878   */\n      dup7\n        /* \"#utility.yul\":6865:6887   */\n      add\n        /* \"#utility.yul\":6845:6897   */\n      tag_242\n      jump\t// in\n    tag_405:\n        /* \"#utility.yul\":6835:6897   */\n      swap2\n      pop\n        /* \"#utility.yul\":6790:6907   */\n      pop\n        /* \"#utility.yul\":6442:6914   */\n      swap3\n      pop\n      swap3\n      swap1\n      pop\n      jump\t// out\n        /* \"#utility.yul\":6920:7016   */\n    tag_243:\n        /* \"#utility.yul\":6957:6964   */\n      0x00\n        /* \"#utility.yul\":6986:7010   */\n      tag_407\n        /* \"#utility.yul\":7004:7009   */\n      dup3\n        /* \"#utility.yul\":6986:7010   */\n      tag_233\n      jump\t// in\n    tag_407:\n        /* \"#utility.yul\":6975:7010   */\n      swap1\n      pop\n        /* \"#utility.yul\":6920:7016   */\n      swap2\n      swap1\n      pop\n      jump\t// out\n        /* \"#utility.yul\":7022:7140   */\n    tag_244:\n        /* \"#utility.yul\":7109:7133   */\n      tag_409\n        /* \"#utility.yul\":7127:7132   */\n      dup2\n        /* \"#utility.yul\":7109:7133   */\n      tag_243\n      jump\t// in\n    tag_409:\n        /* \"#utility.yul\":7104:7107   */\n      dup3\n        /* \"#utility.yul\":7097:7134   */\n      mstore\n        /* \"#utility.yul\":7022:7140   */\n      pop\n      pop\n      jump\t// out\n        /* \"#utility.yul\":7146:7244   */\n    tag_245:\n        /* \"#utility.yul\":7197:7203   */\n      0x00\n        /* \"#utility.yul\":7231:7236   */\n      dup2\n        /* \"#utility.yul\":7225:7237   */\n      mload\n        /* \"#utility.yul\":7215:7237   */\n      swap1\n      pop\n        /* \"#utility.yul\":7146:7244   */\n      swap2\n      swap1\n      pop\n      jump\t// out\n        /* \"#utility.yul\":7250:7418   */\n    tag_246:\n        /* \"#utility.yul\":7333:7344   */\n      0x00\n        /* \"#utility.yul\":7367:7373   */\n      dup3\n        /* \"#utility.yul\":7362:7365   */\n      dup3\n        /* \"#utility.yul\":7355:7374   */\n      mstore\n        /* \"#utility.yul\":7407:7411   */\n      0x20\n        /* \"#utility.yul\":7402:7405   */\n      dup3\n        /* \"#utility.yul\":7398:7412   */\n      add\n        /* \"#utility.yul\":7383:7412   */\n      swap1\n      pop\n        /* \"#utility.yul\":7250:7418   */\n      swap3\n      swap2\n      pop\n      pop\n      jump\t// out\n        /* \"#utility.yul\":7424:7797   */\n    tag_247:\n        /* \"#utility.yul\":7510:7513   */\n      0x00\n        /* \"#utility.yul\":7538:7576   */\n      tag_413\n        /* \"#utility.yul\":7570:7575   */\n      dup3\n        /* \"#utility.yul\":7538:7576   */\n      tag_245\n      jump\t// in\n    tag_413:\n        /* \"#utility.yul\":7592:7662   */\n      tag_414\n        /* \"#utility.yul\":7655:7661   */\n      dup2\n        /* \"#utility.yul\":7650:7653   */\n      dup6\n        /* \"#utility.yul\":7592:7662   */\n      tag_246\n      jump\t// in\n    tag_414:\n        /* \"#utility.yul\":7585:7662   */\n      swap4\n      pop\n        /* \"#utility.yul\":7671:7736   */\n      tag_415\n        /* \"#utility.yul\":7729:7735   */\n      dup2\n        /* \"#utility.yul\":7724:7727   */\n      dup6\n        /* \"#utility.yul\":7717:7721   */\n      0x20\n        /* \"#utility.yul\":7710:7715   */\n      dup7\n        /* \"#utility.yul\":7706:7722   */\n      add\n        /* \"#utility.yul\":7671:7736   */\n      tag_230\n      jump\t// in\n    tag_415:\n        /* \"#utility.yul\":7761:7790   */\n      tag_416\n        /* \"#utility.yul\":7783:7789   */\n      dup2\n        /* \"#utility.yul\":7761:7790   */\n      tag_231\n      jump\t// in\n    tag_416:\n        /* \"#utility.yul\":7756:7759   */\n      dup5\n        /* \"#utility.yul\":7752:7791   */\n      add\n        /* \"#utility.yul\":7745:7791   */\n      swap2\n      pop\n        /* \"#utility.yul\":7514:7797   */\n      pop\n        /* \"#utility.yul\":7424:7797   */\n      swap3\n      swap2\n      pop\n      pop\n      jump\t// out\n        /* \"#utility.yul\":7803:8530   */\n    tag_58:\n        /* \"#utility.yul\":8016:8020   */\n      0x00\n        /* \"#utility.yul\":8054:8057   */\n      0x80\n        /* \"#utility.yul\":8043:8052   */\n      dup3\n        /* \"#utility.yul\":8039:8058   */\n      add\n        /* \"#utility.yul\":8031:8058   */\n      swap1\n      pop\n        /* \"#utility.yul\":8068:8139   */\n      tag_418\n        /* \"#utility.yul\":8136:8137   */\n      0x00\n        /* \"#utility.yul\":8125:8134   */\n      dup4\n        /* \"#utility.yul\":8121:8138   */\n      add\n        /* \"#utility.yul\":8112:8118   */\n      dup8\n        /* \"#utility.yul\":8068:8139   */\n      tag_244\n      jump\t// in\n    tag_418:\n        /* \"#utility.yul\":8149:8221   */\n      tag_419\n        /* \"#utility.yul\":8217:8219   */\n      0x20\n        /* \"#utility.yul\":8206:8215   */\n      dup4\n        /* \"#utility.yul\":8202:8220   */\n      add\n        /* \"#utility.yul\":8193:8199   */\n      dup7\n        /* \"#utility.yul\":8149:8221   */\n      tag_221\n      jump\t// in\n    tag_419:\n        /* \"#utility.yul\":8268:8277   */\n      dup2\n        /* \"#utility.yul\":8262:8266   */\n      dup2\n        /* \"#utility.yul\":8258:8278   */\n      sub\n        /* \"#utility.yul\":8253:8255   */\n      0x40\n        /* \"#utility.yul\":8242:8251   */\n      dup4\n        /* \"#utility.yul\":8238:8256   */\n      add\n        /* \"#utility.yul\":8231:8279   */\n      mstore\n        /* \"#utility.yul\":8296:8372   */\n      tag_420\n        /* \"#utility.yul\":8367:8371   */\n      dup2\n        /* \"#utility.yul\":8358:8364   */\n      dup6\n        /* \"#utility.yul\":8296:8372   */\n      tag_247\n      jump\t// in\n    tag_420:\n        /* \"#utility.yul\":8288:8372   */\n      swap1\n      pop\n        /* \"#utility.yul\":8419:8428   */\n      dup2\n        /* \"#utility.yul\":8413:8417   */\n      dup2\n        /* \"#utility.yul\":8409:8429   */\n      sub\n        /* \"#utility.yul\":8404:8406   */\n      0x60\n        /* \"#utility.yul\":8393:8402   */\n      dup4\n        /* \"#utility.yul\":8389:8407   */\n      add\n        /* \"#utility.yul\":8382:8430   */\n      mstore\n        /* \"#utility.yul\":8447:8523   */\n      tag_421\n        /* \"#utility.yul\":8518:8522   */\n      dup2\n        /* \"#utility.yul\":8509:8515   */\n      dup5\n        /* \"#utility.yul\":8447:8523   */\n      tag_247\n      jump\t// in\n    tag_421:\n        /* \"#utility.yul\":8439:8523   */\n      swap1\n      pop\n        /* \"#utility.yul\":7803:8530   */\n      swap6\n      swap5\n      pop\n      pop\n      pop\n      pop\n      pop\n      jump\t// out\n        /* \"#utility.yul\":8536:8653   */\n    tag_248:\n        /* \"#utility.yul\":8645:8646   */\n      0x00\n        /* \"#utility.yul\":8642:8643   */\n      dup1\n        /* \"#utility.yul\":8635:8647   */\n      revert\n        /* \"#utility.yul\":8659:8839   */\n    tag_206:\n        /* \"#utility.yul\":8707:8784   */\n      0x4e487b7100000000000000000000000000000000000000000000000000000000\n        /* \"#utility.yul\":8704:8705   */\n      0x00\n        /* \"#utility.yul\":8697:8785   */\n      mstore\n        /* \"#utility.yul\":8804:8808   */\n      0x41\n        /* \"#utility.yul\":8801:8802   */\n      0x04\n        /* \"#utility.yul\":8794:8809   */\n      mstore\n        /* \"#utility.yul\":8828:8832   */\n      0x24\n        /* \"#utility.yul\":8825:8826   */\n      0x00\n        /* \"#utility.yul\":8818:8833   */\n      revert\n        /* \"#utility.yul\":8845:9126   */\n    tag_249:\n        /* \"#utility.yul\":8928:8955   */\n      tag_425\n        /* \"#utility.yul\":8950:8954   */\n      dup3\n        /* \"#utility.yul\":8928:8955   */\n      tag_231\n      jump\t// in\n    tag_425:\n        /* \"#utility.yul\":8920:8926   */\n      dup2\n        /* \"#utility.yul\":8916:8956   */\n      add\n        /* \"#utility.yul\":9058:9064   */\n      dup2\n        /* \"#utility.yul\":9046:9056   */\n      dup2\n        /* \"#utility.yul\":9043:9065   */\n      lt\n        /* \"#utility.yul\":9022:9040   */\n      0xffffffffffffffff\n        /* \"#utility.yul\":9010:9020   */\n      dup3\n        /* \"#utility.yul\":9007:9041   */\n      gt\n        /* \"#utility.yul\":9004:9066   */\n      or\n        /* \"#utility.yul\":9001:9089   */\n      iszero\n      tag_426\n      jumpi\n        /* \"#utility.yul\":9069:9087   */\n      tag_427\n      tag_206\n      jump\t// in\n    tag_427:\n        /* \"#utility.yul\":9001:9089   */\n    tag_426:\n        /* \"#utility.yul\":9109:9119   */\n      dup1\n        /* \"#utility.yul\":9105:9107   */\n      0x40\n        /* \"#utility.yul\":9098:9120   */\n      mstore\n        /* \"#utility.yul\":8888:9126   */\n      pop\n        /* \"#utility.yul\":8845:9126   */\n      pop\n      pop\n      jump\t// out\n        /* \"#utility.yul\":9132:9261   */\n    tag_250:\n        /* \"#utility.yul\":9166:9172   */\n      0x00\n        /* \"#utility.yul\":9193:9213   */\n      tag_429\n      tag_215\n      jump\t// in\n    tag_429:\n        /* \"#utility.yul\":9183:9213   */\n      swap1\n      pop\n        /* \"#utility.yul\":9222:9255   */\n      tag_430\n        /* \"#utility.yul\":9250:9254   */\n      dup3\n        /* \"#utility.yul\":9242:9248   */\n      dup3\n        /* \"#utility.yul\":9222:9255   */\n      tag_249\n      jump\t// in\n    tag_430:\n        /* \"#utility.yul\":9132:9261   */\n      swap2\n      swap1\n      pop\n      jump\t// out\n        /* \"#utility.yul\":9267:9575   */\n    tag_251:\n        /* \"#utility.yul\":9329:9333   */\n      0x00\n        /* \"#utility.yul\":9419:9437   */\n      0xffffffffffffffff\n        /* \"#utility.yul\":9411:9417   */\n      dup3\n        /* \"#utility.yul\":9408:9438   */\n      gt\n        /* \"#utility.yul\":9405:9461   */\n      iszero\n      tag_432\n      jumpi\n        /* \"#utility.yul\":9441:9459   */\n      tag_433\n      tag_206\n      jump\t// in\n    tag_433:\n        /* \"#utility.yul\":9405:9461   */\n    tag_432:\n        /* \"#utility.yul\":9479:9508   */\n      tag_434\n        /* \"#utility.yul\":9501:9507   */\n      dup3\n        /* \"#utility.yul\":9479:9508   */\n      tag_231\n      jump\t// in\n    tag_434:\n        /* \"#utility.yul\":9471:9508   */\n      swap1\n      pop\n        /* \"#utility.yul\":9563:9567   */\n      0x20\n        /* \"#utility.yul\":9557:9561   */\n      dup2\n        /* \"#utility.yul\":9553:9568   */\n      add\n        /* \"#utility.yul\":9545:9568   */\n      swap1\n      pop\n        /* \"#utility.yul\":9267:9575   */\n      swap2\n      swap1\n      pop\n      jump\t// out\n        /* \"#utility.yul\":9581:9729   */\n    tag_252:\n        /* \"#utility.yul\":9679:9685   */\n      dup3\n        /* \"#utility.yul\":9674:9677   */\n      dup2\n        /* \"#utility.yul\":9669:9672   */\n      dup4\n        /* \"#utility.yul\":9656:9686   */\n      calldatacopy\n        /* \"#utility.yul\":9720:9721   */\n      0x00\n        /* \"#utility.yul\":9711:9717   */\n      dup4\n        /* \"#utility.yul\":9706:9709   */\n      dup4\n        /* \"#utility.yul\":9702:9718   */\n      add\n        /* \"#utility.yul\":9695:9722   */\n      mstore\n        /* \"#utility.yul\":9581:9729   */\n      pop\n      pop\n      pop\n      jump\t// out\n        /* \"#utility.yul\":9735:10160   */\n    tag_253:\n        /* \"#utility.yul\":9813:9818   */\n      0x00\n        /* \"#utility.yul\":9838:9904   */\n      tag_437\n        /* \"#utility.yul\":9854:9903   */\n      tag_438\n        /* \"#utility.yul\":9896:9902   */\n      dup5\n        /* \"#utility.yul\":9854:9903   */\n      tag_251\n      jump\t// in\n    tag_438:\n        /* \"#utility.yul\":9838:9904   */\n      tag_250\n      jump\t// in\n    tag_437:\n        /* \"#utility.yul\":9829:9904   */\n      swap1\n      pop\n        /* \"#utility.yul\":9927:9933   */\n      dup3\n        /* \"#utility.yul\":9920:9925   */\n      dup2\n        /* \"#utility.yul\":9913:9934   */\n      mstore\n        /* \"#utility.yul\":9965:9969   */\n      0x20\n        /* \"#utility.yul\":9958:9963   */\n      dup2\n        /* \"#utility.yul\":9954:9970   */\n      add\n        /* \"#utility.yul\":10003:10006   */\n      dup5\n        /* \"#utility.yul\":9994:10000   */\n      dup5\n        /* \"#utility.yul\":9989:9992   */\n      dup5\n        /* \"#utility.yul\":9985:10001   */\n      add\n        /* \"#utility.yul\":9982:10007   */\n      gt\n        /* \"#utility.yul\":9979:10091   */\n      iszero\n      tag_439\n      jumpi\n        /* \"#utility.yul\":10010:10089   */\n      tag_440\n      tag_248\n      jump\t// in\n    tag_440:\n        /* \"#utility.yul\":9979:10091   */\n    tag_439:\n        /* \"#utility.yul\":10100:10154   */\n      tag_441\n        /* \"#utility.yul\":10147:10153   */\n      dup5\n        /* \"#utility.yul\":10142:10145   */\n      dup3\n        /* \"#utility.yul\":10137:10140   */\n      dup6\n        /* \"#utility.yul\":10100:10154   */\n      tag_252\n      jump\t// in\n    tag_441:\n        /* \"#utility.yul\":9819:10160   */\n      pop\n        /* \"#utility.yul\":9735:10160   */\n      swap4\n      swap3\n      pop\n      pop\n      pop\n      jump\t// out\n        /* \"#utility.yul\":10180:10520   */\n    tag_254:\n        /* \"#utility.yul\":10236:10241   */\n      0x00\n        /* \"#utility.yul\":10285:10288   */\n      dup3\n        /* \"#utility.yul\":10278:10282   */\n      0x1f\n        /* \"#utility.yul\":10270:10276   */\n      dup4\n        /* \"#utility.yul\":10266:10283   */\n      add\n        /* \"#utility.yul\":10262:10289   */\n      slt\n        /* \"#utility.yul\":10252:10374   */\n      tag_443\n      jumpi\n        /* \"#utility.yul\":10293:10372   */\n      tag_444\n      tag_224\n      jump\t// in\n    tag_444:\n        /* \"#utility.yul\":10252:10374   */\n    tag_443:\n        /* \"#utility.yul\":10410:10416   */\n      dup2\n        /* \"#utility.yul\":10397:10417   */\n      calldataload\n        /* \"#utility.yul\":10435:10514   */\n      tag_445\n        /* \"#utility.yul\":10510:10513   */\n      dup5\n        /* \"#utility.yul\":10502:10508   */\n      dup3\n        /* \"#utility.yul\":10495:10499   */\n      0x20\n        /* \"#utility.yul\":10487:10493   */\n      dup7\n        /* \"#utility.yul\":10483:10500   */\n      add\n        /* \"#utility.yul\":10435:10514   */\n      tag_253\n      jump\t// in\n    tag_445:\n        /* \"#utility.yul\":10426:10514   */\n      swap2\n      pop\n        /* \"#utility.yul\":10242:10520   */\n      pop\n        /* \"#utility.yul\":10180:10520   */\n      swap3\n      swap2\n      pop\n      pop\n      jump\t// out\n        /* \"#utility.yul\":10526:11180   */\n    tag_62:\n        /* \"#utility.yul\":10604:10610   */\n      0x00\n        /* \"#utility.yul\":10612:10618   */\n      dup1\n        /* \"#utility.yul\":10661:10663   */\n      0x40\n        /* \"#utility.yul\":10649:10658   */\n      dup4\n        /* \"#utility.yul\":10640:10647   */\n      dup6\n        /* \"#utility.yul\":10636:10659   */\n      sub\n        /* \"#utility.yul\":10632:10664   */\n      slt\n        /* \"#utility.yul\":10629:10748   */\n      iszero\n      tag_447\n      jumpi\n        /* \"#utility.yul\":10667:10746   */\n      tag_448\n      tag_216\n      jump\t// in\n    tag_448:\n        /* \"#utility.yul\":10629:10748   */\n    tag_447:\n        /* \"#utility.yul\":10787:10788   */\n      0x00\n        /* \"#utility.yul\":10812:10865   */\n      tag_449\n        /* \"#utility.yul\":10857:10864   */\n      dup6\n        /* \"#utility.yul\":10848:10854   */\n      dup3\n        /* \"#utility.yul\":10837:10846   */\n      dup7\n        /* \"#utility.yul\":10833:10855   */\n      add\n        /* \"#utility.yul\":10812:10865   */\n      tag_220\n      jump\t// in\n    tag_449:\n        /* \"#utility.yul\":10802:10865   */\n      swap3\n      pop\n        /* \"#utility.yul\":10758:10875   */\n      pop\n        /* \"#utility.yul\":10942:10944   */\n      0x20\n        /* \"#utility.yul\":10931:10940   */\n      dup4\n        /* \"#utility.yul\":10927:10945   */\n      add\n        /* \"#utility.yul\":10914:10946   */\n      calldataload\n        /* \"#utility.yul\":10973:10991   */\n      0xffffffffffffffff\n        /* \"#utility.yul\":10965:10971   */\n      dup2\n        /* \"#utility.yul\":10962:10992   */\n      gt\n        /* \"#utility.yul\":10959:11076   */\n      iszero\n      tag_450\n      jumpi\n        /* \"#utility.yul\":10995:11074   */\n      tag_451\n      tag_217\n      jump\t// in\n    tag_451:\n        /* \"#utility.yul\":10959:11076   */\n    tag_450:\n        /* \"#utility.yul\":11100:11163   */\n      tag_452\n        /* \"#utility.yul\":11155:11162   */\n      dup6\n        /* \"#utility.yul\":11146:11152   */\n      dup3\n        /* \"#utility.yul\":11135:11144   */\n      dup7\n        /* \"#utility.yul\":11131:11153   */\n      add\n        /* \"#utility.yul\":11100:11163   */\n      tag_254\n      jump\t// in\n    tag_452:\n        /* \"#utility.yul\":11090:11163   */\n      swap2\n      pop\n        /* \"#utility.yul\":10885:11173   */\n      pop\n        /* \"#utility.yul\":10526:11180   */\n      swap3\n      pop\n      swap3\n      swap1\n      pop\n      jump\t// out\n        /* \"#utility.yul\":11186:11408   */\n    tag_69:\n        /* \"#utility.yul\":11279:11283   */\n      0x00\n        /* \"#utility.yul\":11317:11319   */\n      0x20\n        /* \"#utility.yul\":11306:11315   */\n      dup3\n        /* \"#utility.yul\":11302:11320   */\n      add\n        /* \"#utility.yul\":11294:11320   */\n      swap1\n      pop\n        /* \"#utility.yul\":11330:11401   */\n      tag_454\n        /* \"#utility.yul\":11398:11399   */\n      0x00\n        /* \"#utility.yul\":11387:11396   */\n      dup4\n        /* \"#utility.yul\":11383:11400   */\n      add\n        /* \"#utility.yul\":11374:11380   */\n      dup5\n        /* \"#utility.yul\":11330:11401   */\n      tag_244\n      jump\t// in\n    tag_454:\n        /* \"#utility.yul\":11186:11408   */\n      swap3\n      swap2\n      pop\n      pop\n      jump\t// out\n        /* \"#utility.yul\":11414:11556   */\n    tag_255:\n        /* \"#utility.yul\":11480:11489   */\n      0x00\n        /* \"#utility.yul\":11513:11550   */\n      tag_456\n        /* \"#utility.yul\":11544:11549   */\n      dup3\n        /* \"#utility.yul\":11513:11550   */\n      tag_236\n      jump\t// in\n    tag_456:\n        /* \"#utility.yul\":11500:11550   */\n      swap1\n      pop\n        /* \"#utility.yul\":11414:11556   */\n      swap2\n      swap1\n      pop\n      jump\t// out\n        /* \"#utility.yul\":11562:11725   */\n    tag_256:\n        /* \"#utility.yul\":11665:11718   */\n      tag_458\n        /* \"#utility.yul\":11712:11717   */\n      dup2\n        /* \"#utility.yul\":11665:11718   */\n      tag_255\n      jump\t// in\n    tag_458:\n        /* \"#utility.yul\":11660:11663   */\n      dup3\n        /* \"#utility.yul\":11653:11719   */\n      mstore\n        /* \"#utility.yul\":11562:11725   */\n      pop\n      pop\n      jump\t// out\n        /* \"#utility.yul\":11731:11985   */\n    tag_74:\n        /* \"#utility.yul\":11840:11844   */\n      0x00\n        /* \"#utility.yul\":11878:11880   */\n      0x20\n        /* \"#utility.yul\":11867:11876   */\n      dup3\n        /* \"#utility.yul\":11863:11881   */\n      add\n        /* \"#utility.yul\":11855:11881   */\n      swap1\n      pop\n        /* \"#utility.yul\":11891:11978   */\n      tag_460\n        /* \"#utility.yul\":11975:11976   */\n      0x00\n        /* \"#utility.yul\":11964:11973   */\n      dup4\n        /* \"#utility.yul\":11960:11977   */\n      add\n        /* \"#utility.yul\":11951:11957   */\n      dup5\n        /* \"#utility.yul\":11891:11978   */\n      tag_256\n      jump\t// in\n    tag_460:\n        /* \"#utility.yul\":11731:11985   */\n      swap3\n      swap2\n      pop\n      pop\n      jump\t// out\n        /* \"#utility.yul\":12004:12556   */\n    tag_257:\n        /* \"#utility.yul\":12061:12069   */\n      0x00\n        /* \"#utility.yul\":12071:12077   */\n      dup1\n        /* \"#utility.yul\":12121:12124   */\n      dup4\n        /* \"#utility.yul\":12114:12118   */\n      0x1f\n        /* \"#utility.yul\":12106:12112   */\n      dup5\n        /* \"#utility.yul\":12102:12119   */\n      add\n        /* \"#utility.yul\":12098:12125   */\n      slt\n        /* \"#utility.yul\":12088:12210   */\n      tag_462\n      jumpi\n        /* \"#utility.yul\":12129:12208   */\n      tag_463\n      tag_224\n      jump\t// in\n    tag_463:\n        /* \"#utility.yul\":12088:12210   */\n    tag_462:\n        /* \"#utility.yul\":12242:12248   */\n      dup3\n        /* \"#utility.yul\":12229:12249   */\n      calldataload\n        /* \"#utility.yul\":12219:12249   */\n      swap1\n      pop\n        /* \"#utility.yul\":12272:12290   */\n      0xffffffffffffffff\n        /* \"#utility.yul\":12264:12270   */\n      dup2\n        /* \"#utility.yul\":12261:12291   */\n      gt\n        /* \"#utility.yul\":12258:12375   */\n      iszero\n      tag_464\n      jumpi\n        /* \"#utility.yul\":12294:12373   */\n      tag_465\n      tag_225\n      jump\t// in\n    tag_465:\n        /* \"#utility.yul\":12258:12375   */\n    tag_464:\n        /* \"#utility.yul\":12408:12412   */\n      0x20\n        /* \"#utility.yul\":12400:12406   */\n      dup4\n        /* \"#utility.yul\":12396:12413   */\n      add\n        /* \"#utility.yul\":12384:12413   */\n      swap2\n      pop\n        /* \"#utility.yul\":12462:12465   */\n      dup4\n        /* \"#utility.yul\":12454:12458   */\n      0x01\n        /* \"#utility.yul\":12446:12452   */\n      dup3\n        /* \"#utility.yul\":12442:12459   */\n      mul\n        /* \"#utility.yul\":12432:12440   */\n      dup4\n        /* \"#utility.yul\":12428:12460   */\n      add\n        /* \"#utility.yul\":12425:12466   */\n      gt\n        /* \"#utility.yul\":12422:12550   */\n      iszero\n      tag_466\n      jumpi\n        /* \"#utility.yul\":12469:12548   */\n      tag_467\n      tag_226\n      jump\t// in\n    tag_467:\n        /* \"#utility.yul\":12422:12550   */\n    tag_466:\n        /* \"#utility.yul\":12004:12556   */\n      swap3\n      pop\n      swap3\n      swap1\n      pop\n      jump\t// out\n        /* \"#utility.yul\":12562:13577   */\n    tag_78:\n        /* \"#utility.yul\":12661:12667   */\n      0x00\n        /* \"#utility.yul\":12669:12675   */\n      dup1\n        /* \"#utility.yul\":12677:12683   */\n      0x00\n        /* \"#utility.yul\":12685:12691   */\n      dup1\n        /* \"#utility.yul\":12693:12699   */\n      0x00\n        /* \"#utility.yul\":12742:12744   */\n      0x60\n        /* \"#utility.yul\":12730:12739   */\n      dup7\n        /* \"#utility.yul\":12721:12728   */\n      dup9\n        /* \"#utility.yul\":12717:12740   */\n      sub\n        /* \"#utility.yul\":12713:12745   */\n      slt\n        /* \"#utility.yul\":12710:12829   */\n      iszero\n      tag_469\n      jumpi\n        /* \"#utility.yul\":12748:12827   */\n      tag_470\n      tag_216\n      jump\t// in\n    tag_470:\n        /* \"#utility.yul\":12710:12829   */\n    tag_469:\n        /* \"#utility.yul\":12868:12869   */\n      0x00\n        /* \"#utility.yul\":12893:12946   */\n      tag_471\n        /* \"#utility.yul\":12938:12945   */\n      dup9\n        /* \"#utility.yul\":12929:12935   */\n      dup3\n        /* \"#utility.yul\":12918:12927   */\n      dup10\n        /* \"#utility.yul\":12914:12936   */\n      add\n        /* \"#utility.yul\":12893:12946   */\n      tag_220\n      jump\t// in\n    tag_471:\n        /* \"#utility.yul\":12883:12946   */\n      swap6\n      pop\n        /* \"#utility.yul\":12839:12956   */\n      pop\n        /* \"#utility.yul\":13023:13025   */\n      0x20\n        /* \"#utility.yul\":13012:13021   */\n      dup7\n        /* \"#utility.yul\":13008:13026   */\n      add\n        /* \"#utility.yul\":12995:13027   */\n      calldataload\n        /* \"#utility.yul\":13054:13072   */\n      0xffffffffffffffff\n        /* \"#utility.yul\":13046:13052   */\n      dup2\n        /* \"#utility.yul\":13043:13073   */\n      gt\n        /* \"#utility.yul\":13040:13157   */\n      iszero\n      tag_472\n      jumpi\n        /* \"#utility.yul\":13076:13155   */\n      tag_473\n      tag_217\n      jump\t// in\n    tag_473:\n        /* \"#utility.yul\":13040:13157   */\n    tag_472:\n        /* \"#utility.yul\":13189:13253   */\n      tag_474\n        /* \"#utility.yul\":13245:13252   */\n      dup9\n        /* \"#utility.yul\":13236:13242   */\n      dup3\n        /* \"#utility.yul\":13225:13234   */\n      dup10\n        /* \"#utility.yul\":13221:13243   */\n      add\n        /* \"#utility.yul\":13189:13253   */\n      tag_257\n      jump\t// in\n    tag_474:\n        /* \"#utility.yul\":13171:13253   */\n      swap5\n      pop\n      swap5\n      pop\n        /* \"#utility.yul\":12966:13263   */\n      pop\n        /* \"#utility.yul\":13330:13332   */\n      0x40\n        /* \"#utility.yul\":13319:13328   */\n      dup7\n        /* \"#utility.yul\":13315:13333   */\n      add\n        /* \"#utility.yul\":13302:13334   */\n      calldataload\n        /* \"#utility.yul\":13361:13379   */\n      0xffffffffffffffff\n        /* \"#utility.yul\":13353:13359   */\n      dup2\n        /* \"#utility.yul\":13350:13380   */\n      gt\n        /* \"#utility.yul\":13347:13464   */\n      iszero\n      tag_475\n      jumpi\n        /* \"#utility.yul\":13383:13462   */\n      tag_476\n      tag_217\n      jump\t// in\n    tag_476:\n        /* \"#utility.yul\":13347:13464   */\n    tag_475:\n        /* \"#utility.yul\":13496:13560   */\n      tag_477\n        /* \"#utility.yul\":13552:13559   */\n      dup9\n        /* \"#utility.yul\":13543:13549   */\n      dup3\n        /* \"#utility.yul\":13532:13541   */\n      dup10\n        /* \"#utility.yul\":13528:13550   */\n      add\n        /* \"#utility.yul\":13496:13560   */\n      tag_257\n      jump\t// in\n    tag_477:\n        /* \"#utility.yul\":13478:13560   */\n      swap3\n      pop\n      swap3\n      pop\n        /* \"#utility.yul\":13273:13570   */\n      pop\n        /* \"#utility.yul\":12562:13577   */\n      swap3\n      swap6\n      pop\n      swap3\n      swap6\n      swap1\n      swap4\n      pop\n      jump\t// out\n        /* \"#utility.yul\":13583:13723   */\n    tag_258:\n        /* \"#utility.yul\":13632:13641   */\n      0x00\n        /* \"#utility.yul\":13665:13717   */\n      tag_479\n        /* \"#utility.yul\":13683:13716   */\n      tag_480\n        /* \"#utility.yul\":13692:13715   */\n      tag_481\n        /* \"#utility.yul\":13709:13714   */\n      dup5\n        /* \"#utility.yul\":13692:13715   */\n      tag_222\n      jump\t// in\n    tag_481:\n        /* \"#utility.yul\":13683:13716   */\n      tag_234\n      jump\t// in\n    tag_480:\n        /* \"#utility.yul\":13665:13717   */\n      tag_218\n      jump\t// in\n    tag_479:\n        /* \"#utility.yul\":13652:13717   */\n      swap1\n      pop\n        /* \"#utility.yul\":13583:13723   */\n      swap2\n      swap1\n      pop\n      jump\t// out\n        /* \"#utility.yul\":13729:13858   */\n    tag_259:\n        /* \"#utility.yul\":13815:13851   */\n      tag_483\n        /* \"#utility.yul\":13845:13850   */\n      dup2\n        /* \"#utility.yul\":13815:13851   */\n      tag_258\n      jump\t// in\n    tag_483:\n        /* \"#utility.yul\":13810:13813   */\n      dup3\n        /* \"#utility.yul\":13803:13852   */\n      mstore\n        /* \"#utility.yul\":13729:13858   */\n      pop\n      pop\n      jump\t// out\n        /* \"#utility.yul\":13864:14194   */\n    tag_89:\n        /* \"#utility.yul\":13984:13988   */\n      0x00\n        /* \"#utility.yul\":14022:14024   */\n      0x40\n        /* \"#utility.yul\":14011:14020   */\n      dup3\n        /* \"#utility.yul\":14007:14025   */\n      add\n        /* \"#utility.yul\":13999:14025   */\n      swap1\n      pop\n        /* \"#utility.yul\":14035:14106   */\n      tag_485\n        /* \"#utility.yul\":14103:14104   */\n      0x00\n        /* \"#utility.yul\":14092:14101   */\n      dup4\n        /* \"#utility.yul\":14088:14105   */\n      add\n        /* \"#utility.yul\":14079:14085   */\n      dup6\n        /* \"#utility.yul\":14035:14106   */\n      tag_221\n      jump\t// in\n    tag_485:\n        /* \"#utility.yul\":14116:14187   */\n      tag_486\n        /* \"#utility.yul\":14183:14185   */\n      0x20\n        /* \"#utility.yul\":14172:14181   */\n      dup4\n        /* \"#utility.yul\":14168:14186   */\n      add\n        /* \"#utility.yul\":14159:14165   */\n      dup5\n        /* \"#utility.yul\":14116:14187   */\n      tag_259\n      jump\t// in\n    tag_486:\n        /* \"#utility.yul\":13864:14194   */\n      swap4\n      swap3\n      pop\n      pop\n      pop\n      jump\t// out\n        /* \"#utility.yul\":14200:14343   */\n    tag_260:\n        /* \"#utility.yul\":14257:14262   */\n      0x00\n        /* \"#utility.yul\":14288:14294   */\n      dup2\n        /* \"#utility.yul\":14282:14295   */\n      mload\n        /* \"#utility.yul\":14273:14295   */\n      swap1\n      pop\n        /* \"#utility.yul\":14304:14337   */\n      tag_488\n        /* \"#utility.yul\":14331:14336   */\n      dup2\n        /* \"#utility.yul\":14304:14337   */\n      tag_219\n      jump\t// in\n    tag_488:\n        /* \"#utility.yul\":14200:14343   */\n      swap3\n      swap2\n      pop\n      pop\n      jump\t// out\n        /* \"#utility.yul\":14349:14700   */\n    tag_93:\n        /* \"#utility.yul\":14419:14425   */\n      0x00\n        /* \"#utility.yul\":14468:14470   */\n      0x20\n        /* \"#utility.yul\":14456:14465   */\n      dup3\n        /* \"#utility.yul\":14447:14454   */\n      dup5\n        /* \"#utility.yul\":14443:14466   */\n      sub\n        /* \"#utility.yul\":14439:14471   */\n      slt\n        /* \"#utility.yul\":14436:14555   */\n      iszero\n      tag_490\n      jumpi\n        /* \"#utility.yul\":14474:14553   */\n      tag_491\n      tag_216\n      jump\t// in\n    tag_491:\n        /* \"#utility.yul\":14436:14555   */\n    tag_490:\n        /* \"#utility.yul\":14594:14595   */\n      0x00\n        /* \"#utility.yul\":14619:14683   */\n      tag_492\n        /* \"#utility.yul\":14675:14682   */\n      dup5\n        /* \"#utility.yul\":14666:14672   */\n      dup3\n        /* \"#utility.yul\":14655:14664   */\n      dup6\n        /* \"#utility.yul\":14651:14673   */\n      add\n        /* \"#utility.yul\":14619:14683   */\n      tag_260\n      jump\t// in\n    tag_492:\n        /* \"#utility.yul\":14609:14683   */\n      swap2\n      pop\n        /* \"#utility.yul\":14565:14693   */\n      pop\n        /* \"#utility.yul\":14349:14700   */\n      swap3\n      swap2\n      pop\n      pop\n      jump\t// out\n        /* \"#utility.yul\":14706:14854   */\n    tag_261:\n        /* \"#utility.yul\":14808:14819   */\n      0x00\n        /* \"#utility.yul\":14845:14848   */\n      dup2\n        /* \"#utility.yul\":14830:14848   */\n      swap1\n      pop\n        /* \"#utility.yul\":14706:14854   */\n      swap3\n      swap2\n      pop\n      pop\n      jump\t// out\n        /* \"#utility.yul\":14884:15214   */\n    tag_262:\n        /* \"#utility.yul\":15000:15003   */\n      0x00\n        /* \"#utility.yul\":15021:15110   */\n      tag_495\n        /* \"#utility.yul\":15103:15109   */\n      dup4\n        /* \"#utility.yul\":15098:15101   */\n      dup6\n        /* \"#utility.yul\":15021:15110   */\n      tag_261\n      jump\t// in\n    tag_495:\n        /* \"#utility.yul\":15014:15110   */\n      swap4\n      pop\n        /* \"#utility.yul\":15120:15176   */\n      tag_496\n        /* \"#utility.yul\":15169:15175   */\n      dup4\n        /* \"#utility.yul\":15164:15167   */\n      dup6\n        /* \"#utility.yul\":15157:15162   */\n      dup5\n        /* \"#utility.yul\":15120:15176   */\n      tag_252\n      jump\t// in\n    tag_496:\n        /* \"#utility.yul\":15201:15207   */\n      dup3\n        /* \"#utility.yul\":15196:15199   */\n      dup5\n        /* \"#utility.yul\":15192:15208   */\n      add\n        /* \"#utility.yul\":15185:15208   */\n      swap1\n      pop\n        /* \"#utility.yul\":14884:15214   */\n      swap4\n      swap3\n      pop\n      pop\n      pop\n      jump\t// out\n        /* \"#utility.yul\":15220:15515   */\n    tag_96:\n        /* \"#utility.yul\":15362:15365   */\n      0x00\n        /* \"#utility.yul\":15384:15489   */\n      tag_498\n        /* \"#utility.yul\":15485:15488   */\n      dup3\n        /* \"#utility.yul\":15476:15482   */\n      dup5\n        /* \"#utility.yul\":15468:15474   */\n      dup7\n        /* \"#utility.yul\":15384:15489   */\n      tag_262\n      jump\t// in\n    tag_498:\n        /* \"#utility.yul\":15377:15489   */\n      swap2\n      pop\n        /* \"#utility.yul\":15506:15509   */\n      dup2\n        /* \"#utility.yul\":15499:15509   */\n      swap1\n      pop\n        /* \"#utility.yul\":15220:15515   */\n      swap4\n      swap3\n      pop\n      pop\n      pop\n      jump\t// out\n        /* \"#utility.yul\":15521:15701   */\n    tag_263:\n        /* \"#utility.yul\":15569:15646   */\n      0x4e487b7100000000000000000000000000000000000000000000000000000000\n        /* \"#utility.yul\":15566:15567   */\n      0x00\n        /* \"#utility.yul\":15559:15647   */\n      mstore\n        /* \"#utility.yul\":15666:15670   */\n      0x22\n        /* \"#utility.yul\":15663:15664   */\n      0x04\n        /* \"#utility.yul\":15656:15671   */\n      mstore\n        /* \"#utility.yul\":15690:15694   */\n      0x24\n        /* \"#utility.yul\":15687:15688   */\n      0x00\n        /* \"#utility.yul\":15680:15695   */\n      revert\n        /* \"#utility.yul\":15707:16027   */\n    tag_98:\n        /* \"#utility.yul\":15751:15757   */\n      0x00\n        /* \"#utility.yul\":15788:15789   */\n      0x02\n        /* \"#utility.yul\":15782:15786   */\n      dup3\n        /* \"#utility.yul\":15778:15790   */\n      div\n        /* \"#utility.yul\":15768:15790   */\n      swap1\n      pop\n        /* \"#utility.yul\":15835:15836   */\n      0x01\n        /* \"#utility.yul\":15829:15833   */\n      dup3\n        /* \"#utility.yul\":15825:15837   */\n      and\n        /* \"#utility.yul\":15856:15874   */\n      dup1\n        /* \"#utility.yul\":15846:15927   */\n      tag_501\n      jumpi\n        /* \"#utility.yul\":15912:15916   */\n      0x7f\n        /* \"#utility.yul\":15904:15910   */\n      dup3\n        /* \"#utility.yul\":15900:15917   */\n      and\n        /* \"#utility.yul\":15890:15917   */\n      swap2\n      pop\n        /* \"#utility.yul\":15846:15927   */\n    tag_501:\n        /* \"#utility.yul\":15974:15976   */\n      0x20\n        /* \"#utility.yul\":15966:15972   */\n      dup3\n        /* \"#utility.yul\":15963:15977   */\n      lt\n        /* \"#utility.yul\":15943:15961   */\n      dup2\n        /* \"#utility.yul\":15940:15978   */\n      sub\n        /* \"#utility.yul\":15937:16021   */\n      tag_502\n      jumpi\n        /* \"#utility.yul\":15993:16011   */\n      tag_503\n      tag_263\n      jump\t// in\n    tag_503:\n        /* \"#utility.yul\":15937:16021   */\n    tag_502:\n        /* \"#utility.yul\":15758:16027   */\n      pop\n        /* \"#utility.yul\":15707:16027   */\n      swap2\n      swap1\n      pop\n      jump\t// out\n        /* \"#utility.yul\":16033:16149   */\n    tag_264:\n        /* \"#utility.yul\":16103:16124   */\n      tag_505\n        /* \"#utility.yul\":16118:16123   */\n      dup2\n        /* \"#utility.yul\":16103:16124   */\n      tag_239\n      jump\t// in\n    tag_505:\n        /* \"#utility.yul\":16096:16101   */\n      dup2\n        /* \"#utility.yul\":16093:16125   */\n      eq\n        /* \"#utility.yul\":16083:16143   */\n      tag_506\n      jumpi\n        /* \"#utility.yul\":16139:16140   */\n      0x00\n        /* \"#utility.yul\":16136:16137   */\n      dup1\n        /* \"#utility.yul\":16129:16141   */\n      revert\n        /* \"#utility.yul\":16083:16143   */\n    tag_506:\n        /* \"#utility.yul\":16033:16149   */\n      pop\n      jump\t// out\n        /* \"#utility.yul\":16155:16292   */\n    tag_265:\n        /* \"#utility.yul\":16209:16214   */\n      0x00\n        /* \"#utility.yul\":16240:16246   */\n      dup2\n        /* \"#utility.yul\":16234:16247   */\n      mload\n        /* \"#utility.yul\":16225:16247   */\n      swap1\n      pop\n        /* \"#utility.yul\":16256:16286   */\n      tag_508\n        /* \"#utility.yul\":16280:16285   */\n      dup2\n        /* \"#utility.yul\":16256:16286   */\n      tag_264\n      jump\t// in\n    tag_508:\n        /* \"#utility.yul\":16155:16292   */\n      swap3\n      swap2\n      pop\n      pop\n      jump\t// out\n        /* \"#utility.yul\":16298:16643   */\n    tag_108:\n        /* \"#utility.yul\":16365:16371   */\n      0x00\n        /* \"#utility.yul\":16414:16416   */\n      0x20\n        /* \"#utility.yul\":16402:16411   */\n      dup3\n        /* \"#utility.yul\":16393:16400   */\n      dup5\n        /* \"#utility.yul\":16389:16412   */\n      sub\n        /* \"#utility.yul\":16385:16417   */\n      slt\n        /* \"#utility.yul\":16382:16501   */\n      iszero\n      tag_510\n      jumpi\n        /* \"#utility.yul\":16420:16499   */\n      tag_511\n      tag_216\n      jump\t// in\n    tag_511:\n        /* \"#utility.yul\":16382:16501   */\n    tag_510:\n        /* \"#utility.yul\":16540:16541   */\n      0x00\n        /* \"#utility.yul\":16565:16626   */\n      tag_512\n        /* \"#utility.yul\":16618:16625   */\n      dup5\n        /* \"#utility.yul\":16609:16615   */\n      dup3\n        /* \"#utility.yul\":16598:16607   */\n      dup6\n        /* \"#utility.yul\":16594:16616   */\n      add\n        /* \"#utility.yul\":16565:16626   */\n      tag_265\n      jump\t// in\n    tag_512:\n        /* \"#utility.yul\":16555:16626   */\n      swap2\n      pop\n        /* \"#utility.yul\":16511:16636   */\n      pop\n        /* \"#utility.yul\":16298:16643   */\n      swap3\n      swap2\n      pop\n      pop\n      jump\t// out\n        /* \"#utility.yul\":16649:16809   */\n    tag_266:\n        /* \"#utility.yul\":16789:16801   */\n      0x4f6e6c79206f776e657200000000000000000000000000000000000000000000\n        /* \"#utility.yul\":16785:16786   */\n      0x00\n        /* \"#utility.yul\":16777:16783   */\n      dup3\n        /* \"#utility.yul\":16773:16787   */\n      add\n        /* \"#utility.yul\":16766:16802   */\n      mstore\n        /* \"#utility.yul\":16649:16809   */\n      pop\n      jump\t// out\n        /* \"#utility.yul\":16815:17181   */\n    tag_267:\n        /* \"#utility.yul\":16957:16960   */\n      0x00\n        /* \"#utility.yul\":16978:17045   */\n      tag_515\n        /* \"#utility.yul\":17042:17044   */\n      0x0a\n        /* \"#utility.yul\":17037:17040   */\n      dup4\n        /* \"#utility.yul\":16978:17045   */\n      tag_229\n      jump\t// in\n    tag_515:\n        /* \"#utility.yul\":16971:17045   */\n      swap2\n      pop\n        /* \"#utility.yul\":17054:17147   */\n      tag_516\n        /* \"#utility.yul\":17143:17146   */\n      dup3\n        /* \"#utility.yul\":17054:17147   */\n      tag_266\n      jump\t// in\n    tag_516:\n        /* \"#utility.yul\":17172:17174   */\n      0x20\n        /* \"#utility.yul\":17167:17170   */\n      dup3\n        /* \"#utility.yul\":17163:17175   */\n      add\n        /* \"#utility.yul\":17156:17175   */\n      swap1\n      pop\n        /* \"#utility.yul\":16815:17181   */\n      swap2\n      swap1\n      pop\n      jump\t// out\n        /* \"#utility.yul\":17187:17606   */\n    tag_112:\n        /* \"#utility.yul\":17353:17357   */\n      0x00\n        /* \"#utility.yul\":17391:17393   */\n      0x20\n        /* \"#utility.yul\":17380:17389   */\n      dup3\n        /* \"#utility.yul\":17376:17394   */\n      add\n        /* \"#utility.yul\":17368:17394   */\n      swap1\n      pop\n        /* \"#utility.yul\":17440:17449   */\n      dup2\n        /* \"#utility.yul\":17434:17438   */\n      dup2\n        /* \"#utility.yul\":17430:17450   */\n      sub\n        /* \"#utility.yul\":17426:17427   */\n      0x00\n        /* \"#utility.yul\":17415:17424   */\n      dup4\n        /* \"#utility.yul\":17411:17428   */\n      add\n        /* \"#utility.yul\":17404:17451   */\n      mstore\n        /* \"#utility.yul\":17468:17599   */\n      tag_518\n        /* \"#utility.yul\":17594:17598   */\n      dup2\n        /* \"#utility.yul\":17468:17599   */\n      tag_267\n      jump\t// in\n    tag_518:\n        /* \"#utility.yul\":17460:17599   */\n      swap1\n      pop\n        /* \"#utility.yul\":17187:17606   */\n      swap2\n      swap1\n      pop\n      jump\t// out\n        /* \"#utility.yul\":17612:18012   */\n    tag_132:\n        /* \"#utility.yul\":17767:17771   */\n      0x00\n        /* \"#utility.yul\":17805:17807   */\n      0x40\n        /* \"#utility.yul\":17794:17803   */\n      dup3\n        /* \"#utility.yul\":17790:17808   */\n      add\n        /* \"#utility.yul\":17782:17808   */\n      swap1\n      pop\n        /* \"#utility.yul\":17818:17906   */\n      tag_520\n        /* \"#utility.yul\":17903:17904   */\n      0x00\n        /* \"#utility.yul\":17892:17901   */\n      dup4\n        /* \"#utility.yul\":17888:17905   */\n      add\n        /* \"#utility.yul\":17879:17885   */\n      dup6\n        /* \"#utility.yul\":17818:17906   */\n      tag_238\n      jump\t// in\n    tag_520:\n        /* \"#utility.yul\":17916:18005   */\n      tag_521\n        /* \"#utility.yul\":18001:18003   */\n      0x20\n        /* \"#utility.yul\":17990:17999   */\n      dup4\n        /* \"#utility.yul\":17986:18004   */\n      add\n        /* \"#utility.yul\":17977:17983   */\n      dup5\n        /* \"#utility.yul\":17916:18005   */\n      tag_238\n      jump\t// in\n    tag_521:\n        /* \"#utility.yul\":17612:18012   */\n      swap4\n      swap3\n      pop\n      pop\n      pop\n      jump\t// out\n        /* \"#utility.yul\":18018:18186   */\n    tag_268:\n        /* \"#utility.yul\":18158:18178   */\n      0x52657175657374206e6f74206578697374730000000000000000000000000000\n        /* \"#utility.yul\":18154:18155   */\n      0x00\n        /* \"#utility.yul\":18146:18152   */\n      dup3\n        /* \"#utility.yul\":18142:18156   */\n      add\n        /* \"#utility.yul\":18135:18179   */\n      mstore\n        /* \"#utility.yul\":18018:18186   */\n      pop\n      jump\t// out\n        /* \"#utility.yul\":18192:18558   */\n    tag_269:\n        /* \"#utility.yul\":18334:18337   */\n      0x00\n        /* \"#utility.yul\":18355:18422   */\n      tag_524\n        /* \"#utility.yul\":18419:18421   */\n      0x12\n        /* \"#utility.yul\":18414:18417   */\n      dup4\n        /* \"#utility.yul\":18355:18422   */\n      tag_229\n      jump\t// in\n    tag_524:\n        /* \"#utility.yul\":18348:18422   */\n      swap2\n      pop\n        /* \"#utility.yul\":18431:18524   */\n      tag_525\n        /* \"#utility.yul\":18520:18523   */\n      dup3\n        /* \"#utility.yul\":18431:18524   */\n      tag_268\n      jump\t// in\n    tag_525:\n        /* \"#utility.yul\":18549:18551   */\n      0x20\n        /* \"#utility.yul\":18544:18547   */\n      dup3\n        /* \"#utility.yul\":18540:18552   */\n      add\n        /* \"#utility.yul\":18533:18552   */\n      swap1\n      pop\n        /* \"#utility.yul\":18192:18558   */\n      swap2\n      swap1\n      pop\n      jump\t// out\n        /* \"#utility.yul\":18564:18983   */\n    tag_136:\n        /* \"#utility.yul\":18730:18734   */\n      0x00\n        /* \"#utility.yul\":18768:18770   */\n      0x20\n        /* \"#utility.yul\":18757:18766   */\n      dup3\n        /* \"#utility.yul\":18753:18771   */\n      add\n        /* \"#utility.yul\":18745:18771   */\n      swap1\n      pop\n        /* \"#utility.yul\":18817:18826   */\n      dup2\n        /* \"#utility.yul\":18811:18815   */\n      dup2\n        /* \"#utility.yul\":18807:18827   */\n      sub\n        /* \"#utility.yul\":18803:18804   */\n      0x00\n        /* \"#utility.yul\":18792:18801   */\n      dup4\n        /* \"#utility.yul\":18788:18805   */\n      add\n        /* \"#utility.yul\":18781:18828   */\n      mstore\n        /* \"#utility.yul\":18845:18976   */\n      tag_527\n        /* \"#utility.yul\":18971:18975   */\n      dup2\n        /* \"#utility.yul\":18845:18976   */\n      tag_269\n      jump\t// in\n    tag_527:\n        /* \"#utility.yul\":18837:18976   */\n      swap1\n      pop\n        /* \"#utility.yul\":18564:18983   */\n      swap2\n      swap1\n      pop\n      jump\t// out\n        /* \"#utility.yul\":18989:19085   */\n    tag_270:\n        /* \"#utility.yul\":19047:19053   */\n      0x00\n        /* \"#utility.yul\":19075:19078   */\n      dup3\n        /* \"#utility.yul\":19065:19078   */\n      swap1\n      pop\n        /* \"#utility.yul\":18989:19085   */\n      swap3\n      swap2\n      pop\n      pop\n      jump\t// out\n        /* \"#utility.yul\":19091:19231   */\n    tag_271:\n        /* \"#utility.yul\":19139:19143   */\n      0x00\n        /* \"#utility.yul\":19162:19165   */\n      dup2\n        /* \"#utility.yul\":19154:19165   */\n      swap1\n      pop\n        /* \"#utility.yul\":19185:19188   */\n      dup2\n        /* \"#utility.yul\":19182:19183   */\n      0x00\n        /* \"#utility.yul\":19175:19189   */\n      mstore\n        /* \"#utility.yul\":19219:19223   */\n      0x20\n        /* \"#utility.yul\":19216:19217   */\n      0x00\n        /* \"#utility.yul\":19206:19224   */\n      keccak256\n        /* \"#utility.yul\":19198:19224   */\n      swap1\n      pop\n        /* \"#utility.yul\":19091:19231   */\n      swap2\n      swap1\n      pop\n      jump\t// out\n        /* \"#utility.yul\":19237:19330   */\n    tag_272:\n        /* \"#utility.yul\":19274:19280   */\n      0x00\n        /* \"#utility.yul\":19321:19323   */\n      0x20\n        /* \"#utility.yul\":19316:19318   */\n      0x1f\n        /* \"#utility.yul\":19309:19314   */\n      dup4\n        /* \"#utility.yul\":19305:19319   */\n      add\n        /* \"#utility.yul\":19301:19324   */\n      div\n        /* \"#utility.yul\":19291:19324   */\n      swap1\n      pop\n        /* \"#utility.yul\":19237:19330   */\n      swap2\n      swap1\n      pop\n      jump\t// out\n        /* \"#utility.yul\":19336:19443   */\n    tag_273:\n        /* \"#utility.yul\":19380:19388   */\n      0x00\n        /* \"#utility.yul\":19430:19435   */\n      dup3\n        /* \"#utility.yul\":19424:19428   */\n      dup3\n        /* \"#utility.yul\":19420:19436   */\n      shl\n        /* \"#utility.yul\":19399:19436   */\n      swap1\n      pop\n        /* \"#utility.yul\":19336:19443   */\n      swap3\n      swap2\n      pop\n      pop\n      jump\t// out\n        /* \"#utility.yul\":19449:19842   */\n    tag_274:\n        /* \"#utility.yul\":19518:19524   */\n      0x00\n        /* \"#utility.yul\":19568:19569   */\n      0x08\n        /* \"#utility.yul\":19556:19566   */\n      dup4\n        /* \"#utility.yul\":19552:19570   */\n      mul\n        /* \"#utility.yul\":19591:19688   */\n      tag_533\n        /* \"#utility.yul\":19621:19687   */\n      0xffffffffffffffffffffffffffffffffffffffffffffffffffffffffffffffff\n        /* \"#utility.yul\":19610:19619   */\n      dup3\n        /* \"#utility.yul\":19591:19688   */\n      tag_273\n      jump\t// in\n    tag_533:\n        /* \"#utility.yul\":19709:19748   */\n      tag_534\n        /* \"#utility.yul\":19739:19747   */\n      dup7\n        /* \"#utility.yul\":19728:19737   */\n      dup4\n        /* \"#utility.yul\":19709:19748   */\n      tag_273\n      jump\t// in\n    tag_534:\n        /* \"#utility.yul\":19697:19748   */\n      swap6\n      pop\n        /* \"#utility.yul\":19781:19785   */\n      dup1\n        /* \"#utility.yul\":19777:19786   */\n      not\n        /* \"#utility.yul\":19770:19775   */\n      dup5\n        /* \"#utility.yul\":19766:19787   */\n      and\n        /* \"#utility.yul\":19757:19787   */\n      swap4\n      pop\n        /* \"#utility.yul\":19830:19834   */\n      dup1\n        /* \"#utility.yul\":19820:19828   */\n      dup7\n        /* \"#utility.yul\":19816:19835   */\n      and\n        /* \"#utility.yul\":19809:19814   */\n      dup5\n        /* \"#utility.yul\":19806:19836   */\n      or\n        /* \"#utility.yul\":19796:19836   */\n      swap3\n      pop\n        /* \"#utility.yul\":19525:19842   */\n      pop\n      pop\n        /* \"#utility.yul\":19449:19842   */\n      swap4\n      swap3\n      pop\n      pop\n      pop\n      jump\t// out\n        /* \"#utility.yul\":19848:19990   */\n    tag_275:\n        /* \"#utility.yul\":19898:19907   */\n      0x00\n        /* \"#utility.yul\":19931:19984   */\n      tag_536\n        /* \"#utility.yul\":19949:19983   */\n      tag_537\n        /* \"#utility.yul\":19958:19982   */\n      tag_538\n        /* \"#utility.yul\":19976:19981   */\n      dup5\n        /* \"#utility.yul\":19958:19982   */\n      tag_218\n      jump\t// in\n    tag_538:\n        /* \"#utility.yul\":19949:19983   */\n      tag_234\n      jump\t// in\n    tag_537:\n        /* \"#utility.yul\":19931:19984   */\n      tag_218\n      jump\t// in\n    tag_536:\n        /* \"#utility.yul\":19918:19984   */\n      swap1\n      pop\n        /* \"#utility.yul\":19848:19990   */\n      swap2\n      swap1\n      pop\n      jump\t// out\n        /* \"#utility.yul\":19996:20071   */\n    tag_276:\n        /* \"#utility.yul\":20039:20042   */\n      0x00\n        /* \"#utility.yul\":20060:20065   */\n      dup2\n        /* \"#utility.yul\":20053:20065   */\n      swap1\n      pop\n        /* \"#utility.yul\":19996:20071   */\n      swap2\n      swap1\n      pop\n      jump\t// out\n        /* \"#utility.yul\":20077:20346   */\n    tag_277:\n        /* \"#utility.yul\":20187:20226   */\n      tag_541\n        /* \"#utility.yul\":20218:20225   */\n      dup4\n        /* \"#utility.yul\":20187:20226   */\n      tag_275\n      jump\t// in\n    tag_541:\n        /* \"#utility.yul\":20248:20339   */\n      tag_542\n        /* \"#utility.yul\":20297:20338   */\n      tag_543\n        /* \"#utility.yul\":20321:20337   */\n      dup3\n        /* \"#utility.yul\":20297:20338   */\n      tag_276\n      jump\t// in\n    tag_543:\n        /* \"#utility.yul\":20289:20295   */\n      dup5\n        /* \"#utility.yul\":20282:20286   */\n      dup5\n        /* \"#utility.yul\":20276:20287   */\n      sload\n        /* \"#utility.yul\":20248:20339   */\n      tag_274\n      jump\t// in\n    tag_542:\n        /* \"#utility.yul\":20242:20246   */\n      dup3\n        /* \"#utility.yul\":20235:20340   */\n      sstore\n        /* \"#utility.yul\":20153:20346   */\n      pop\n        /* \"#utility.yul\":20077:20346   */\n      pop\n      pop\n      pop\n      jump\t// out\n        /* \"#utility.yul\":20352:20425   */\n    tag_278:\n        /* \"#utility.yul\":20397:20400   */\n      0x00\n        /* \"#utility.yul\":20352:20425   */\n      swap1\n      jump\t// out\n        /* \"#utility.yul\":20431:20620   */\n    tag_279:\n        /* \"#utility.yul\":20508:20540   */\n      tag_546\n      tag_278\n      jump\t// in\n    tag_546:\n        /* \"#utility.yul\":20549:20614   */\n      tag_547\n        /* \"#utility.yul\":20607:20613   */\n      dup2\n        /* \"#utility.yul\":20599:20605   */\n      dup5\n        /* \"#utility.yul\":20593:20597   */\n      dup5\n        /* \"#utility.yul\":20549:20614   */\n      tag_277\n      jump\t// in\n    tag_547:\n        /* \"#utility.yul\":20484:20620   */\n      pop\n        /* \"#utility.yul\":20431:20620   */\n      pop\n      pop\n      jump\t// out\n        /* \"#utility.yul\":20626:20812   */\n    tag_280:\n        /* \"#utility.yul\":20686:20806   */\n    tag_549:\n        /* \"#utility.yul\":20703:20706   */\n      dup2\n        /* \"#utility.yul\":20696:20701   */\n      dup2\n        /* \"#utility.yul\":20693:20707   */\n      lt\n        /* \"#utility.yul\":20686:20806   */\n      iszero\n      tag_551\n      jumpi\n        /* \"#utility.yul\":20757:20796   */\n      tag_552\n        /* \"#utility.yul\":20794:20795   */\n      0x00\n        /* \"#utility.yul\":20787:20792   */\n      dup3\n        /* \"#utility.yul\":20757:20796   */\n      tag_279\n      jump\t// in\n    tag_552:\n        /* \"#utility.yul\":20730:20731   */\n      0x01\n        /* \"#utility.yul\":20723:20728   */\n      dup2\n        /* \"#utility.yul\":20719:20732   */\n      add\n        /* \"#utility.yul\":20710:20732   */\n      swap1\n      pop\n        /* \"#utility.yul\":20686:20806   */\n      jump(tag_549)\n    tag_551:\n        /* \"#utility.yul\":20626:20812   */\n      pop\n      pop\n      jump\t// out\n        /* \"#utility.yul\":20818:21359   */\n    tag_281:\n        /* \"#utility.yul\":20918:20920   */\n      0x1f\n        /* \"#utility.yul\":20913:20916   */\n      dup3\n        /* \"#utility.yul\":20910:20921   */\n      gt\n        /* \"#utility.yul\":20907:21352   */\n      iszero\n      tag_554\n      jumpi\n        /* \"#utility.yul\":20952:20989   */\n      tag_555\n        /* \"#utility.yul\":20983:20988   */\n      dup2\n        /* \"#utility.yul\":20952:20989   */\n      tag_271\n      jump\t// in\n    tag_555:\n        /* \"#utility.yul\":21035:21064   */\n      tag_556\n        /* \"#utility.yul\":21053:21063   */\n      dup5\n        /* \"#utility.yul\":21035:21064   */\n      tag_272\n      jump\t// in\n    tag_556:\n        /* \"#utility.yul\":21025:21033   */\n      dup2\n        /* \"#utility.yul\":21021:21065   */\n      add\n        /* \"#utility.yul\":21218:21220   */\n      0x20\n        /* \"#utility.yul\":21206:21216   */\n      dup6\n        /* \"#utility.yul\":21203:21221   */\n      lt\n        /* \"#utility.yul\":21200:21249   */\n      iszero\n      tag_557\n      jumpi\n        /* \"#utility.yul\":21239:21247   */\n      dup2\n        /* \"#utility.yul\":21224:21247   */\n      swap1\n      pop\n        /* \"#utility.yul\":21200:21249   */\n    tag_557:\n        /* \"#utility.yul\":21262:21342   */\n      tag_558\n        /* \"#utility.yul\":21318:21340   */\n      tag_559\n        /* \"#utility.yul\":21336:21339   */\n      dup6\n        /* \"#utility.yul\":21318:21340   */\n      tag_272\n      jump\t// in\n    tag_559:\n        /* \"#utility.yul\":21308:21316   */\n      dup4\n        /* \"#utility.yul\":21304:21341   */\n      add\n        /* \"#utility.yul\":21291:21302   */\n      dup3\n        /* \"#utility.yul\":21262:21342   */\n      tag_280\n      jump\t// in\n    tag_558:\n        /* \"#utility.yul\":20922:21352   */\n      pop\n      pop\n        /* \"#utility.yul\":20907:21352   */\n    tag_554:\n        /* \"#utility.yul\":20818:21359   */\n      pop\n      pop\n      pop\n      jump\t// out\n        /* \"#utility.yul\":21365:21482   */\n    tag_282:\n        /* \"#utility.yul\":21419:21427   */\n      0x00\n        /* \"#utility.yul\":21469:21474   */\n      dup3\n        /* \"#utility.yul\":21463:21467   */\n      dup3\n        /* \"#utility.yul\":21459:21475   */\n      shr\n        /* \"#utility.yul\":21438:21475   */\n      swap1\n      pop\n        /* \"#utility.yul\":21365:21482   */\n      swap3\n      swap2\n      pop\n      pop\n      jump\t// out\n        /* \"#utility.yul\":21488:21657   */\n    tag_283:\n        /* \"#utility.yul\":21532:21538   */\n      0x00\n        /* \"#utility.yul\":21565:21616   */\n      tag_562\n        /* \"#utility.yul\":21613:21614   */\n      0x00\n        /* \"#utility.yul\":21609:21615   */\n      not\n        /* \"#utility.yul\":21601:21606   */\n      dup5\n        /* \"#utility.yul\":21598:21599   */\n      0x08\n        /* \"#utility.yul\":21594:21607   */\n      mul\n        /* \"#utility.yul\":21565:21616   */\n      tag_282\n      jump\t// in\n    tag_562:\n        /* \"#utility.yul\":21561:21617   */\n      not\n        /* \"#utility.yul\":21646:21650   */\n      dup1\n        /* \"#utility.yul\":21640:21644   */\n      dup4\n        /* \"#utility.yul\":21636:21651   */\n      and\n        /* \"#utility.yul\":21626:21651   */\n      swap2\n      pop\n        /* \"#utility.yul\":21539:21657   */\n      pop\n        /* \"#utility.yul\":21488:21657   */\n      swap3\n      swap2\n      pop\n      pop\n      jump\t// out\n        /* \"#utility.yul\":21662:21957   */\n    tag_284:\n        /* \"#utility.yul\":21738:21742   */\n      0x00\n        /* \"#utility.yul\":21884:21913   */\n      tag_564\n        /* \"#utility.yul\":21909:21912   */\n      dup4\n        /* \"#utility.yul\":21903:21907   */\n      dup4\n        /* \"#utility.yul\":21884:21913   */\n      tag_283\n      jump\t// in\n    tag_564:\n        /* \"#utility.yul\":21876:21913   */\n      swap2\n      pop\n        /* \"#utility.yul\":21946:21949   */\n      dup3\n        /* \"#utility.yul\":21943:21944   */\n      0x02\n        /* \"#utility.yul\":21939:21950   */\n      mul\n        /* \"#utility.yul\":21933:21937   */\n      dup3\n        /* \"#utility.yul\":21930:21951   */\n      or\n        /* \"#utility.yul\":21922:21951   */\n      swap1\n      pop\n        /* \"#utility.yul\":21662:21957   */\n      swap3\n      swap2\n      pop\n      pop\n      jump\t// out\n        /* \"#utility.yul\":21962:23360   */\n    tag_138:\n        /* \"#utility.yul\":22084:22127   */\n      tag_566\n        /* \"#utility.yul\":22123:22126   */\n      dup4\n        /* \"#utility.yul\":22118:22121   */\n      dup4\n        /* \"#utility.yul\":22084:22127   */\n      tag_270\n      jump\t// in\n    tag_566:\n        /* \"#utility.yul\":22192:22210   */\n      0xffffffffffffffff\n        /* \"#utility.yul\":22184:22190   */\n      dup2\n        /* \"#utility.yul\":22181:22211   */\n      gt\n        /* \"#utility.yul\":22178:22234   */\n      iszero\n      tag_567\n      jumpi\n        /* \"#utility.yul\":22214:22232   */\n      tag_568\n      tag_206\n      jump\t// in\n    tag_568:\n        /* \"#utility.yul\":22178:22234   */\n    tag_567:\n        /* \"#utility.yul\":22258:22296   */\n      tag_569\n        /* \"#utility.yul\":22290:22294   */\n      dup3\n        /* \"#utility.yul\":22284:22295   */\n      sload\n        /* \"#utility.yul\":22258:22296   */\n      tag_98\n      jump\t// in\n    tag_569:\n        /* \"#utility.yul\":22343:22409   */\n      tag_570\n        /* \"#utility.yul\":22402:22408   */\n      dup3\n        /* \"#utility.yul\":22394:22400   */\n      dup3\n        /* \"#utility.yul\":22388:22392   */\n      dup6\n        /* \"#utility.yul\":22343:22409   */\n      tag_281\n      jump\t// in\n    tag_570:\n        /* \"#utility.yul\":22436:22437   */\n      0x00\n        /* \"#utility.yul\":22465:22467   */\n      0x1f\n        /* \"#utility.yul\":22457:22463   */\n      dup4\n        /* \"#utility.yul\":22454:22468   */\n      gt\n        /* \"#utility.yul\":22482:22483   */\n      0x01\n        /* \"#utility.yul\":22477:23108   */\n      dup2\n      eq\n      tag_572\n      jumpi\n        /* \"#utility.yul\":23152:23153   */\n      0x00\n        /* \"#utility.yul\":23169:23175   */\n      dup5\n        /* \"#utility.yul\":23166:23250   */\n      iszero\n      tag_573\n      jumpi\n        /* \"#utility.yul\":23225:23234   */\n      dup3\n        /* \"#utility.yul\":23220:23223   */\n      dup8\n        /* \"#utility.yul\":23216:23235   */\n      add\n        /* \"#utility.yul\":23203:23236   */\n      calldataload\n        /* \"#utility.yul\":23194:23236   */\n      swap1\n      pop\n        /* \"#utility.yul\":23166:23250   */\n    tag_573:\n        /* \"#utility.yul\":23276:23343   */\n      tag_574\n        /* \"#utility.yul\":23336:23342   */\n      dup6\n        /* \"#utility.yul\":23329:23334   */\n      dup3\n        /* \"#utility.yul\":23276:23343   */\n      tag_284\n      jump\t// in\n    tag_574:\n        /* \"#utility.yul\":23270:23274   */\n      dup7\n        /* \"#utility.yul\":23263:23344   */\n      sstore\n        /* \"#utility.yul\":23125:23354   */\n      pop\n        /* \"#utility.yul\":22447:23354   */\n      jump(tag_571)\n        /* \"#utility.yul\":22477:23108   */\n    tag_572:\n        /* \"#utility.yul\":22529:22533   */\n      0x1f\n        /* \"#utility.yul\":22525:22534   */\n      not\n        /* \"#utility.yul\":22517:22523   */\n      dup5\n        /* \"#utility.yul\":22513:22535   */\n      and\n        /* \"#utility.yul\":22563:22599   */\n      tag_575\n        /* \"#utility.yul\":22594:22598   */\n      dup7\n        /* \"#utility.yul\":22563:22599   */\n      tag_271\n      jump\t// in\n    tag_575:\n        /* \"#utility.yul\":22621:22622   */\n      0x00\n        /* \"#utility.yul\":22635:22850   */\n    tag_576:\n        /* \"#utility.yul\":22649:22656   */\n      dup3\n        /* \"#utility.yul\":22646:22647   */\n      dup2\n        /* \"#utility.yul\":22643:22657   */\n      lt\n        /* \"#utility.yul\":22635:22850   */\n      iszero\n      tag_578\n      jumpi\n        /* \"#utility.yul\":22735:22744   */\n      dup5\n        /* \"#utility.yul\":22730:22733   */\n      dup10\n        /* \"#utility.yul\":22726:22745   */\n      add\n        /* \"#utility.yul\":22713:22746   */\n      calldataload\n        /* \"#utility.yul\":22705:22711   */\n      dup3\n        /* \"#utility.yul\":22698:22747   */\n      sstore\n        /* \"#utility.yul\":22786:22787   */\n      0x01\n        /* \"#utility.yul\":22778:22784   */\n      dup3\n        /* \"#utility.yul\":22774:22788   */\n      add\n        /* \"#utility.yul\":22764:22788   */\n      swap2\n      pop\n        /* \"#utility.yul\":22833:22835   */\n      0x20\n        /* \"#utility.yul\":22822:22831   */\n      dup6\n        /* \"#utility.yul\":22818:22836   */\n      add\n        /* \"#utility.yul\":22805:22836   */\n      swap5\n      pop\n        /* \"#utility.yul\":22672:22676   */\n      0x20\n        /* \"#utility.yul\":22669:22670   */\n      dup2\n        /* \"#utility.yul\":22665:22677   */\n      add\n        /* \"#utility.yul\":22660:22677   */\n      swap1\n      pop\n        /* \"#utility.yul\":22635:22850   */\n      jump(tag_576)\n    tag_578:\n        /* \"#utility.yul\":22878:22884   */\n      dup7\n        /* \"#utility.yul\":22869:22876   */\n      dup4\n        /* \"#utility.yul\":22866:22885   */\n      lt\n        /* \"#utility.yul\":22863:23049   */\n      iszero\n      tag_579\n      jumpi\n        /* \"#utility.yul\":22943:22952   */\n      dup5\n        /* \"#utility.yul\":22938:22941   */\n      dup10\n        /* \"#utility.yul\":22934:22953   */\n      add\n        /* \"#utility.yul\":22921:22954   */\n      calldataload\n        /* \"#utility.yul\":22986:23034   */\n      tag_580\n        /* \"#utility.yul\":23028:23032   */\n      0x1f\n        /* \"#utility.yul\":23020:23026   */\n      dup10\n        /* \"#utility.yul\":23016:23033   */\n      and\n        /* \"#utility.yul\":23005:23014   */\n      dup3\n        /* \"#utility.yul\":22986:23034   */\n      tag_283\n      jump\t// in\n    tag_580:\n        /* \"#utility.yul\":22978:22984   */\n      dup4\n        /* \"#utility.yul\":22971:23035   */\n      sstore\n        /* \"#utility.yul\":22886:23049   */\n      pop\n        /* \"#utility.yul\":22863:23049   */\n    tag_579:\n        /* \"#utility.yul\":23095:23096   */\n      0x01\n        /* \"#utility.yul\":23091:23092   */\n      0x02\n        /* \"#utility.yul\":23083:23089   */\n      dup9\n        /* \"#utility.yul\":23079:23093   */\n      mul\n        /* \"#utility.yul\":23075:23097   */\n      add\n        /* \"#utility.yul\":23069:23073   */\n      dup9\n        /* \"#utility.yul\":23062:23098   */\n      sstore\n        /* \"#utility.yul\":22484:23108   */\n      pop\n      pop\n      pop\n        /* \"#utility.yul\":22447:23354   */\n    tag_571:\n      pop\n        /* \"#utility.yul\":22059:23360   */\n      pop\n      pop\n      pop\n        /* \"#utility.yul\":21962:23360   */\n      pop\n      pop\n      pop\n      jump\t// out\n        /* \"#utility.yul\":23366:23511   */\n    tag_285:\n        /* \"#utility.yul\":23419:23423   */\n      0x00\n        /* \"#utility.yul\":23442:23445   */\n      dup2\n        /* \"#utility.yul\":23434:23445   */\n      swap1\n      pop\n        /* \"#utility.yul\":23465:23468   */\n      dup2\n        /* \"#utility.yul\":23462:23463   */\n      0x00\n        /* \"#utility.yul\":23455:23469   */\n      mstore\n        /* \"#utility.yul\":23499:23503   */\n      0x20\n        /* \"#utility.yul\":23496:23497   */\n      0x00\n        /* \"#utility.yul\":23486:23504   */\n      keccak256\n        /* \"#utility.yul\":23478:23504   */\n      swap1\n      pop\n        /* \"#utility.yul\":23366:23511   */\n      swap2\n      swap1\n      pop\n      jump\t// out\n        /* \"#utility.yul\":23541:24423   */\n    tag_286:\n        /* \"#utility.yul\":23648:23651   */\n      0x00\n        /* \"#utility.yul\":23685:23690   */\n      dup2\n        /* \"#utility.yul\":23679:23691   */\n      sload\n        /* \"#utility.yul\":23714:23750   */\n      tag_583\n        /* \"#utility.yul\":23740:23749   */\n      dup2\n        /* \"#utility.yul\":23714:23750   */\n      tag_98\n      jump\t// in\n    tag_583:\n        /* \"#utility.yul\":23766:23855   */\n      tag_584\n        /* \"#utility.yul\":23848:23854   */\n      dup2\n        /* \"#utility.yul\":23843:23846   */\n      dup7\n        /* \"#utility.yul\":23766:23855   */\n      tag_261\n      jump\t// in\n    tag_584:\n        /* \"#utility.yul\":23759:23855   */\n      swap5\n      pop\n        /* \"#utility.yul\":23886:23887   */\n      0x01\n        /* \"#utility.yul\":23875:23884   */\n      dup3\n        /* \"#utility.yul\":23871:23888   */\n      and\n        /* \"#utility.yul\":23902:23903   */\n      0x00\n        /* \"#utility.yul\":23897:24063   */\n      dup2\n      eq\n      tag_586\n      jumpi\n        /* \"#utility.yul\":24077:24078   */\n      0x01\n        /* \"#utility.yul\":24072:24417   */\n      dup2\n      eq\n      tag_587\n      jumpi\n        /* \"#utility.yul\":23864:24417   */\n      jump(tag_585)\n        /* \"#utility.yul\":23897:24063   */\n    tag_586:\n        /* \"#utility.yul\":23981:23985   */\n      0xff\n        /* \"#utility.yul\":23977:23986   */\n      not\n        /* \"#utility.yul\":23966:23975   */\n      dup4\n        /* \"#utility.yul\":23962:23987   */\n      and\n        /* \"#utility.yul\":23957:23960   */\n      dup7\n        /* \"#utility.yul\":23950:23988   */\n      mstore\n        /* \"#utility.yul\":24043:24049   */\n      dup2\n        /* \"#utility.yul\":24036:24050   */\n      iszero\n        /* \"#utility.yul\":24029:24051   */\n      iszero\n        /* \"#utility.yul\":24021:24027   */\n      dup3\n        /* \"#utility.yul\":24017:24052   */\n      mul\n        /* \"#utility.yul\":24012:24015   */\n      dup7\n        /* \"#utility.yul\":24008:24053   */\n      add\n        /* \"#utility.yul\":24001:24053   */\n      swap4\n      pop\n        /* \"#utility.yul\":23897:24063   */\n      jump(tag_585)\n        /* \"#utility.yul\":24072:24417   */\n    tag_587:\n        /* \"#utility.yul\":24139:24181   */\n      tag_588\n        /* \"#utility.yul\":24175:24180   */\n      dup6\n        /* \"#utility.yul\":24139:24181   */\n      tag_285\n      jump\t// in\n    tag_588:\n        /* \"#utility.yul\":24203:24204   */\n      0x00\n        /* \"#utility.yul\":24217:24371   */\n    tag_589:\n        /* \"#utility.yul\":24231:24237   */\n      dup4\n        /* \"#utility.yul\":24228:24229   */\n      dup2\n        /* \"#utility.yul\":24225:24238   */\n      lt\n        /* \"#utility.yul\":24217:24371   */\n      iszero\n      tag_591\n      jumpi\n        /* \"#utility.yul\":24305:24312   */\n      dup2\n        /* \"#utility.yul\":24299:24313   */\n      sload\n        /* \"#utility.yul\":24295:24296   */\n      dup2\n        /* \"#utility.yul\":24290:24293   */\n      dup10\n        /* \"#utility.yul\":24286:24297   */\n      add\n        /* \"#utility.yul\":24279:24314   */\n      mstore\n        /* \"#utility.yul\":24355:24356   */\n      0x01\n        /* \"#utility.yul\":24346:24353   */\n      dup3\n        /* \"#utility.yul\":24342:24357   */\n      add\n        /* \"#utility.yul\":24331:24357   */\n      swap2\n      pop\n        /* \"#utility.yul\":24253:24257   */\n      0x20\n        /* \"#utility.yul\":24250:24251   */\n      dup2\n        /* \"#utility.yul\":24246:24258   */\n      add\n        /* \"#utility.yul\":24241:24258   */\n      swap1\n      pop\n        /* \"#utility.yul\":24217:24371   */\n      jump(tag_589)\n    tag_591:\n        /* \"#utility.yul\":24400:24406   */\n      dup4\n        /* \"#utility.yul\":24395:24398   */\n      dup9\n        /* \"#utility.yul\":24391:24407   */\n      add\n        /* \"#utility.yul\":24384:24407   */\n      swap6\n      pop\n        /* \"#utility.yul\":24079:24417   */\n      pop\n      pop\n        /* \"#utility.yul\":23864:24417   */\n    tag_585:\n      pop\n        /* \"#utility.yul\":23652:24423   */\n      pop\n      pop\n        /* \"#utility.yul\":23541:24423   */\n      swap3\n      swap2\n      pop\n      pop\n      jump\t// out\n        /* \"#utility.yul\":24429:24706   */\n    tag_140:\n        /* \"#utility.yul\":24562:24565   */\n      0x00\n        /* \"#utility.yul\":24584:24680   */\n      tag_593\n        /* \"#utility.yul\":24676:24679   */\n      dup3\n        /* \"#utility.yul\":24667:24673   */\n      dup5\n        /* \"#utility.yul\":24584:24680   */\n      tag_286\n      jump\t// in\n    tag_593:\n        /* \"#utility.yul\":24577:24680   */\n      swap2\n      pop\n        /* \"#utility.yul\":24697:24700   */\n      dup2\n        /* \"#utility.yul\":24690:24700   */\n      swap1\n      pop\n        /* \"#utility.yul\":24429:24706   */\n      swap3\n      swap2\n      pop\n      pop\n      jump\t// out\n        /* \"#utility.yul\":24712:24809   */\n    tag_287:\n        /* \"#utility.yul\":24771:24777   */\n      0x00\n        /* \"#utility.yul\":24799:24802   */\n      dup3\n        /* \"#utility.yul\":24789:24802   */\n      swap1\n      pop\n        /* \"#utility.yul\":24712:24809   */\n      swap3\n      swap2\n      pop\n      pop\n      jump\t// out\n        /* \"#utility.yul\":24815:24956   */\n    tag_288:\n        /* \"#utility.yul\":24864:24868   */\n      0x00\n        /* \"#utility.yul\":24887:24890   */\n      dup2\n        /* \"#utility.yul\":24879:24890   */\n      swap1\n      pop\n        /* \"#utility.yul\":24910:24913   */\n      dup2\n        /* \"#utility.yul\":24907:24908   */\n      0x00\n        /* \"#utility.yul\":24900:24914   */\n      mstore\n        /* \"#utility.yul\":24944:24948   */\n      0x20\n        /* \"#utility.yul\":24941:24942   */\n      0x00\n        /* \"#utility.yul\":24931:24949   */\n      keccak256\n        /* \"#utility.yul\":24923:24949   */\n      swap1\n      pop\n        /* \"#utility.yul\":24815:24956   */\n      swap2\n      swap1\n      pop\n      jump\t// out\n        /* \"#utility.yul\":24962:25505   */\n    tag_289:\n        /* \"#utility.yul\":25063:25065   */\n      0x1f\n        /* \"#utility.yul\":25058:25061   */\n      dup3\n        /* \"#utility.yul\":25055:25066   */\n      gt\n        /* \"#utility.yul\":25052:25498   */\n      iszero\n      tag_597\n      jumpi\n        /* \"#utility.yul\":25097:25135   */\n      tag_598\n        /* \"#utility.yul\":25129:25134   */\n      dup2\n        /* \"#utility.yul\":25097:25135   */\n      tag_288\n      jump\t// in\n    tag_598:\n        /* \"#utility.yul\":25181:25210   */\n      tag_599\n        /* \"#utility.yul\":25199:25209   */\n      dup5\n        /* \"#utility.yul\":25181:25210   */\n      tag_272\n      jump\t// in\n    tag_599:\n        /* \"#utility.yul\":25171:25179   */\n      dup2\n        /* \"#utility.yul\":25167:25211   */\n      add\n        /* \"#utility.yul\":25364:25366   */\n      0x20\n        /* \"#utility.yul\":25352:25362   */\n      dup6\n        /* \"#utility.yul\":25349:25367   */\n      lt\n        /* \"#utility.yul\":25346:25395   */\n      iszero\n      tag_600\n      jumpi\n        /* \"#utility.yul\":25385:25393   */\n      dup2\n        /* \"#utility.yul\":25370:25393   */\n      swap1\n      pop\n        /* \"#utility.yul\":25346:25395   */\n    tag_600:\n        /* \"#utility.yul\":25408:25488   */\n      tag_601\n        /* \"#utility.yul\":25464:25486   */\n      tag_602\n        /* \"#utility.yul\":25482:25485   */\n      dup6\n        /* \"#utility.yul\":25464:25486   */\n      tag_272\n      jump\t// in\n    tag_602:\n        /* \"#utility.yul\":25454:25462   */\n      dup4\n        /* \"#utility.yul\":25450:25487   */\n      add\n        /* \"#utility.yul\":25437:25448   */\n      dup3\n        /* \"#utility.yul\":25408:25488   */\n      tag_280\n      jump\t// in\n    tag_601:\n        /* \"#utility.yul\":25067:25498   */\n      pop\n      pop\n        /* \"#utility.yul\":25052:25498   */\n    tag_597:\n        /* \"#utility.yul\":24962:25505   */\n      pop\n      pop\n      pop\n      jump\t// out\n        /* \"#utility.yul\":25511:26914   */\n    tag_142:\n        /* \"#utility.yul\":25635:25679   */\n      tag_604\n        /* \"#utility.yul\":25675:25678   */\n      dup4\n        /* \"#utility.yul\":25670:25673   */\n      dup4\n        /* \"#utility.yul\":25635:25679   */\n      tag_287\n      jump\t// in\n    tag_604:\n        /* \"#utility.yul\":25744:25762   */\n      0xffffffffffffffff\n        /* \"#utility.yul\":25736:25742   */\n      dup2\n        /* \"#utility.yul\":25733:25763   */\n      gt\n        /* \"#utility.yul\":25730:25786   */\n      iszero\n      tag_605\n      jumpi\n        /* \"#utility.yul\":25766:25784   */\n      tag_606\n      tag_206\n      jump\t// in\n    tag_606:\n        /* \"#utility.yul\":25730:25786   */\n    tag_605:\n        /* \"#utility.yul\":25810:25848   */\n      tag_607\n        /* \"#utility.yul\":25842:25846   */\n      dup3\n        /* \"#utility.yul\":25836:25847   */\n      sload\n        /* \"#utility.yul\":25810:25848   */\n      tag_98\n      jump\t// in\n    tag_607:\n        /* \"#utility.yul\":25895:25962   */\n      tag_608\n        /* \"#utility.yul\":25955:25961   */\n      dup3\n        /* \"#utility.yul\":25947:25953   */\n      dup3\n        /* \"#utility.yul\":25941:25945   */\n      dup6\n        /* \"#utility.yul\":25895:25962   */\n      tag_289\n      jump\t// in\n    tag_608:\n        /* \"#utility.yul\":25989:25990   */\n      0x00\n        /* \"#utility.yul\":26018:26020   */\n      0x1f\n        /* \"#utility.yul\":26010:26016   */\n      dup4\n        /* \"#utility.yul\":26007:26021   */\n      gt\n        /* \"#utility.yul\":26035:26036   */\n      0x01\n        /* \"#utility.yul\":26030:26662   */\n      dup2\n      eq\n      tag_610\n      jumpi\n        /* \"#utility.yul\":26706:26707   */\n      0x00\n        /* \"#utility.yul\":26723:26729   */\n      dup5\n        /* \"#utility.yul\":26720:26804   */\n      iszero\n      tag_611\n      jumpi\n        /* \"#utility.yul\":26779:26788   */\n      dup3\n        /* \"#utility.yul\":26774:26777   */\n      dup8\n        /* \"#utility.yul\":26770:26789   */\n      add\n        /* \"#utility.yul\":26757:26790   */\n      calldataload\n        /* \"#utility.yul\":26748:26790   */\n      swap1\n      pop\n        /* \"#utility.yul\":26720:26804   */\n    tag_611:\n        /* \"#utility.yul\":26830:26897   */\n      tag_612\n        /* \"#utility.yul\":26890:26896   */\n      dup6\n        /* \"#utility.yul\":26883:26888   */\n      dup3\n        /* \"#utility.yul\":26830:26897   */\n      tag_284\n      jump\t// in\n    tag_612:\n        /* \"#utility.yul\":26824:26828   */\n      dup7\n        /* \"#utility.yul\":26817:26898   */\n      sstore\n        /* \"#utility.yul\":26679:26908   */\n      pop\n        /* \"#utility.yul\":26000:26908   */\n      jump(tag_609)\n        /* \"#utility.yul\":26030:26662   */\n    tag_610:\n        /* \"#utility.yul\":26082:26086   */\n      0x1f\n        /* \"#utility.yul\":26078:26087   */\n      not\n        /* \"#utility.yul\":26070:26076   */\n      dup5\n        /* \"#utility.yul\":26066:26088   */\n      and\n        /* \"#utility.yul\":26116:26153   */\n      tag_613\n        /* \"#utility.yul\":26148:26152   */\n      dup7\n        /* \"#utility.yul\":26116:26153   */\n      tag_288\n      jump\t// in\n    tag_613:\n        /* \"#utility.yul\":26175:26176   */\n      0x00\n        /* \"#utility.yul\":26189:26404   */\n    tag_614:\n        /* \"#utility.yul\":26203:26210   */\n      dup3\n        /* \"#utility.yul\":26200:26201   */\n      dup2\n        /* \"#utility.yul\":26197:26211   */\n      lt\n        /* \"#utility.yul\":26189:26404   */\n      iszero\n      tag_616\n      jumpi\n        /* \"#utility.yul\":26289:26298   */\n      dup5\n        /* \"#utility.yul\":26284:26287   */\n      dup10\n        /* \"#utility.yul\":26280:26299   */\n      add\n        /* \"#utility.yul\":26267:26300   */\n      calldataload\n        /* \"#utility.yul\":26259:26265   */\n      dup3\n        /* \"#utility.yul\":26252:26301   */\n      sstore\n        /* \"#utility.yul\":26340:26341   */\n      0x01\n        /* \"#utility.yul\":26332:26338   */\n      dup3\n        /* \"#utility.yul\":26328:26342   */\n      add\n        /* \"#utility.yul\":26318:26342   */\n      swap2\n      pop\n        /* \"#utility.yul\":26387:26389   */\n      0x20\n        /* \"#utility.yul\":26376:26385   */\n      dup6\n        /* \"#utility.yul\":26372:26390   */\n      add\n        /* \"#utility.yul\":26359:26390   */\n      swap5\n      pop\n        /* \"#utility.yul\":26226:26230   */\n      0x20\n        /* \"#utility.yul\":26223:26224   */\n      dup2\n        /* \"#utility.yul\":26219:26231   */\n      add\n        /* \"#utility.yul\":26214:26231   */\n      swap1\n      pop\n        /* \"#utility.yul\":26189:26404   */\n      jump(tag_614)\n    tag_616:\n        /* \"#utility.yul\":26432:26438   */\n      dup7\n        /* \"#utility.yul\":26423:26430   */\n      dup4\n        /* \"#utility.yul\":26420:26439   */\n      lt\n        /* \"#utility.yul\":26417:26603   */\n      iszero\n      tag_617\n      jumpi\n        /* \"#utility.yul\":26497:26506   */\n      dup5\n        /* \"#utility.yul\":26492:26495   */\n      dup10\n        /* \"#utility.yul\":26488:26507   */\n      add\n        /* \"#utility.yul\":26475:26508   */\n      calldataload\n        /* \"#utility.yul\":26540:26588   */\n      tag_618\n        /* \"#utility.yul\":26582:26586   */\n      0x1f\n        /* \"#utility.yul\":26574:26580   */\n      dup10\n        /* \"#utility.yul\":26570:26587   */\n      and\n        /* \"#utility.yul\":26559:26568   */\n      dup3\n        /* \"#utility.yul\":26540:26588   */\n      tag_283\n      jump\t// in\n    tag_618:\n        /* \"#utility.yul\":26532:26538   */\n      dup4\n        /* \"#utility.yul\":26525:26589   */\n      sstore\n        /* \"#utility.yul\":26440:26603   */\n      pop\n        /* \"#utility.yul\":26417:26603   */\n    tag_617:\n        /* \"#utility.yul\":26649:26650   */\n      0x01\n        /* \"#utility.yul\":26645:26646   */\n      0x02\n        /* \"#utility.yul\":26637:26643   */\n      dup9\n        /* \"#utility.yul\":26633:26647   */\n      mul\n        /* \"#utility.yul\":26629:26651   */\n      add\n        /* \"#utility.yul\":26623:26627   */\n      dup9\n        /* \"#utility.yul\":26616:26652   */\n      sstore\n        /* \"#utility.yul\":26037:26662   */\n      pop\n      pop\n      pop\n        /* \"#utility.yul\":26000:26908   */\n    tag_609:\n      pop\n        /* \"#utility.yul\":25610:26914   */\n      pop\n      pop\n      pop\n        /* \"#utility.yul\":25511:26914   */\n      pop\n      pop\n      pop\n      jump\t// out\n        /* \"#utility.yul\":26944:27783   */\n    tag_290:\n        /* \"#utility.yul\":27033:27036   */\n      0x00\n        /* \"#utility.yul\":27070:27075   */\n      dup2\n        /* \"#utility.yul\":27064:27076   */\n      sload\n        /* \"#utility.yul\":27099:27135   */\n      tag_620\n        /* \"#utility.yul\":27125:27134   */\n      dup2\n        /* \"#utility.yul\":27099:27135   */\n      tag_98\n      jump\t// in\n    tag_620:\n        /* \"#utility.yul\":27151:27222   */\n      tag_621\n        /* \"#utility.yul\":27215:27221   */\n      dup2\n        /* \"#utility.yul\":27210:27213   */\n      dup7\n        /* \"#utility.yul\":27151:27222   */\n      tag_229\n      jump\t// in\n    tag_621:\n        /* \"#utility.yul\":27144:27222   */\n      swap5\n      pop\n        /* \"#utility.yul\":27253:27254   */\n      0x01\n        /* \"#utility.yul\":27242:27251   */\n      dup3\n        /* \"#utility.yul\":27238:27255   */\n      and\n        /* \"#utility.yul\":27269:27270   */\n      0x00\n        /* \"#utility.yul\":27264:27428   */\n      dup2\n      eq\n      tag_623\n      jumpi\n        /* \"#utility.yul\":27442:27443   */\n      0x01\n        /* \"#utility.yul\":27437:27777   */\n      dup2\n      eq\n      tag_624\n      jumpi\n        /* \"#utility.yul\":27231:27777   */\n      jump(tag_622)\n        /* \"#utility.yul\":27264:27428   */\n    tag_623:\n        /* \"#utility.yul\":27348:27352   */\n      0xff\n        /* \"#utility.yul\":27344:27353   */\n      not\n        /* \"#utility.yul\":27333:27342   */\n      dup4\n        /* \"#utility.yul\":27329:27354   */\n      and\n        /* \"#utility.yul\":27324:27327   */\n      dup7\n        /* \"#utility.yul\":27317:27355   */\n      mstore\n        /* \"#utility.yul\":27408:27414   */\n      dup2\n        /* \"#utility.yul\":27401:27415   */\n      iszero\n        /* \"#utility.yul\":27394:27416   */\n      iszero\n        /* \"#utility.yul\":27388:27392   */\n      0x20\n        /* \"#utility.yul\":27384:27417   */\n      mul\n        /* \"#utility.yul\":27379:27382   */\n      dup7\n        /* \"#utility.yul\":27375:27418   */\n      add\n        /* \"#utility.yul\":27368:27418   */\n      swap4\n      pop\n        /* \"#utility.yul\":27264:27428   */\n      jump(tag_622)\n        /* \"#utility.yul\":27437:27777   */\n    tag_624:\n        /* \"#utility.yul\":27504:27546   */\n      tag_625\n        /* \"#utility.yul\":27540:27545   */\n      dup6\n        /* \"#utility.yul\":27504:27546   */\n      tag_285\n      jump\t// in\n    tag_625:\n        /* \"#utility.yul\":27568:27569   */\n      0x00\n        /* \"#utility.yul\":27582:27736   */\n    tag_626:\n        /* \"#utility.yul\":27596:27602   */\n      dup4\n        /* \"#utility.yul\":27593:27594   */\n      dup2\n        /* \"#utility.yul\":27590:27603   */\n      lt\n        /* \"#utility.yul\":27582:27736   */\n      iszero\n      tag_628\n      jumpi\n        /* \"#utility.yul\":27670:27677   */\n      dup2\n        /* \"#utility.yul\":27664:27678   */\n      sload\n        /* \"#utility.yul\":27660:27661   */\n      dup2\n        /* \"#utility.yul\":27655:27658   */\n      dup10\n        /* \"#utility.yul\":27651:27662   */\n      add\n        /* \"#utility.yul\":27644:27679   */\n      mstore\n        /* \"#utility.yul\":27720:27721   */\n      0x01\n        /* \"#utility.yul\":27711:27718   */\n      dup3\n        /* \"#utility.yul\":27707:27722   */\n      add\n        /* \"#utility.yul\":27696:27722   */\n      swap2\n      pop\n        /* \"#utility.yul\":27618:27622   */\n      0x20\n        /* \"#utility.yul\":27615:27616   */\n      dup2\n        /* \"#utility.yul\":27611:27623   */\n      add\n        /* \"#utility.yul\":27606:27623   */\n      swap1\n      pop\n        /* \"#utility.yul\":27582:27736   */\n      jump(tag_626)\n    tag_628:\n        /* \"#utility.yul\":27765:27766   */\n      dup1\n        /* \"#utility.yul\":27760:27763   */\n      dup9\n        /* \"#utility.yul\":27756:27767   */\n      add\n        /* \"#utility.yul\":27749:27767   */\n      swap6\n      pop\n        /* \"#utility.yul\":27444:27777   */\n      pop\n      pop\n        /* \"#utility.yul\":27231:27777   */\n    tag_622:\n      pop\n        /* \"#utility.yul\":27037:27783   */\n      pop\n      pop\n        /* \"#utility.yul\":26944:27783   */\n      swap3\n      swap2\n      pop\n      pop\n      jump\t// out\n        /* \"#utility.yul\":27813:28130   */\n    tag_291:\n        /* \"#utility.yul\":27911:27914   */\n      0x00\n        /* \"#utility.yul\":27932:28003   */\n      tag_630\n        /* \"#utility.yul\":27996:28002   */\n      dup4\n        /* \"#utility.yul\":27991:27994   */\n      dup6\n        /* \"#utility.yul\":27932:28003   */\n      tag_229\n      jump\t// in\n    tag_630:\n        /* \"#utility.yul\":27925:28003   */\n      swap4\n      pop\n        /* \"#utility.yul\":28013:28069   */\n      tag_631\n        /* \"#utility.yul\":28062:28068   */\n      dup4\n        /* \"#utility.yul\":28057:28060   */\n      dup6\n        /* \"#utility.yul\":28050:28055   */\n      dup5\n        /* \"#utility.yul\":28013:28069   */\n      tag_252\n      jump\t// in\n    tag_631:\n        /* \"#utility.yul\":28094:28123   */\n      tag_632\n        /* \"#utility.yul\":28116:28122   */\n      dup4\n        /* \"#utility.yul\":28094:28123   */\n      tag_231\n      jump\t// in\n    tag_632:\n        /* \"#utility.yul\":28089:28092   */\n      dup5\n        /* \"#utility.yul\":28085:28124   */\n      add\n        /* \"#utility.yul\":28078:28124   */\n      swap1\n      pop\n        /* \"#utility.yul\":27813:28130   */\n      swap4\n      swap3\n      pop\n      pop\n      pop\n      jump\t// out\n        /* \"#utility.yul\":28158:28472   */\n    tag_292:\n        /* \"#utility.yul\":28254:28257   */\n      0x00\n        /* \"#utility.yul\":28275:28345   */\n      tag_634\n        /* \"#utility.yul\":28338:28344   */\n      dup4\n        /* \"#utility.yul\":28333:28336   */\n      dup6\n        /* \"#utility.yul\":28275:28345   */\n      tag_246\n      jump\t// in\n    tag_634:\n        /* \"#utility.yul\":28268:28345   */\n      swap4\n      pop\n        /* \"#utility.yul\":28355:28411   */\n      tag_635\n        /* \"#utility.yul\":28404:28410   */\n      dup4\n        /* \"#utility.yul\":28399:28402   */\n      dup6\n        /* \"#utility.yul\":28392:28397   */\n      dup5\n        /* \"#utility.yul\":28355:28411   */\n      tag_252\n      jump\t// in\n    tag_635:\n        /* \"#utility.yul\":28436:28465   */\n      tag_636\n        /* \"#utility.yul\":28458:28464   */\n      dup4\n        /* \"#utility.yul\":28436:28465   */\n      tag_231\n      jump\t// in\n    tag_636:\n        /* \"#utility.yul\":28431:28434   */\n      dup5\n        /* \"#utility.yul\":28427:28466   */\n      add\n        /* \"#utility.yul\":28420:28466   */\n      swap1\n      pop\n        /* \"#utility.yul\":28158:28472   */\n      swap4\n      swap3\n      pop\n      pop\n      pop\n      jump\t// out\n        /* \"#utility.yul\":28478:29453   */\n    tag_144:\n        /* \"#utility.yul\":28762:28766   */\n      0x00\n        /* \"#utility.yul\":28800:28803   */\n      0xa0\n        /* \"#utility.yul\":28789:28798   */\n      dup3\n        /* \"#utility.yul\":28785:28804   */\n      add\n        /* \"#utility.yul\":28777:28804   */\n      swap1\n      pop\n        /* \"#utility.yul\":28814:28885   */\n      tag_638\n        /* \"#utility.yul\":28882:28883   */\n      0x00\n        /* \"#utility.yul\":28871:28880   */\n      dup4\n        /* \"#utility.yul\":28867:28884   */\n      add\n        /* \"#utility.yul\":28858:28864   */\n      dup11\n        /* \"#utility.yul\":28814:28885   */\n      tag_221\n      jump\t// in\n    tag_638:\n        /* \"#utility.yul\":28895:28967   */\n      tag_639\n        /* \"#utility.yul\":28963:28965   */\n      0x20\n        /* \"#utility.yul\":28952:28961   */\n      dup4\n        /* \"#utility.yul\":28948:28966   */\n      add\n        /* \"#utility.yul\":28939:28945   */\n      dup10\n        /* \"#utility.yul\":28895:28967   */\n      tag_221\n      jump\t// in\n    tag_639:\n        /* \"#utility.yul\":29014:29023   */\n      dup2\n        /* \"#utility.yul\":29008:29012   */\n      dup2\n        /* \"#utility.yul\":29004:29024   */\n      sub\n        /* \"#utility.yul\":28999:29001   */\n      0x40\n        /* \"#utility.yul\":28988:28997   */\n      dup4\n        /* \"#utility.yul\":28984:29002   */\n      add\n        /* \"#utility.yul\":28977:29025   */\n      mstore\n        /* \"#utility.yul\":29042:29121   */\n      tag_640\n        /* \"#utility.yul\":29116:29120   */\n      dup2\n        /* \"#utility.yul\":29107:29113   */\n      dup9\n        /* \"#utility.yul\":29042:29121   */\n      tag_290\n      jump\t// in\n    tag_640:\n        /* \"#utility.yul\":29034:29121   */\n      swap1\n      pop\n        /* \"#utility.yul\":29168:29177   */\n      dup2\n        /* \"#utility.yul\":29162:29166   */\n      dup2\n        /* \"#utility.yul\":29158:29178   */\n      sub\n        /* \"#utility.yul\":29153:29155   */\n      0x60\n        /* \"#utility.yul\":29142:29151   */\n      dup4\n        /* \"#utility.yul\":29138:29156   */\n      add\n        /* \"#utility.yul\":29131:29179   */\n      mstore\n        /* \"#utility.yul\":29196:29284   */\n      tag_641\n        /* \"#utility.yul\":29279:29283   */\n      dup2\n        /* \"#utility.yul\":29270:29276   */\n      dup7\n        /* \"#utility.yul\":29262:29268   */\n      dup9\n        /* \"#utility.yul\":29196:29284   */\n      tag_291\n      jump\t// in\n    tag_641:\n        /* \"#utility.yul\":29188:29284   */\n      swap1\n      pop\n        /* \"#utility.yul\":29332:29341   */\n      dup2\n        /* \"#utility.yul\":29326:29330   */\n      dup2\n        /* \"#utility.yul\":29322:29342   */\n      sub\n        /* \"#utility.yul\":29316:29319   */\n      0x80\n        /* \"#utility.yul\":29305:29314   */\n      dup4\n        /* \"#utility.yul\":29301:29320   */\n      add\n        /* \"#utility.yul\":29294:29343   */\n      mstore\n        /* \"#utility.yul\":29360:29446   */\n      tag_642\n        /* \"#utility.yul\":29441:29445   */\n      dup2\n        /* \"#utility.yul\":29432:29438   */\n      dup5\n        /* \"#utility.yul\":29424:29430   */\n      dup7\n        /* \"#utility.yul\":29360:29446   */\n      tag_292\n      jump\t// in\n    tag_642:\n        /* \"#utility.yul\":29352:29446   */\n      swap1\n      pop\n        /* \"#utility.yul\":28478:29453   */\n      swap9\n      swap8\n      pop\n      pop\n      pop\n      pop\n      pop\n      pop\n      pop\n      pop\n      jump\t// out\n        /* \"#utility.yul\":29459:29632   */\n    tag_293:\n        /* \"#utility.yul\":29599:29624   */\n      0x414920726573756c74206e6f7420617661696c61626c65000000000000000000\n        /* \"#utility.yul\":29595:29596   */\n      0x00\n        /* \"#utility.yul\":29587:29593   */\n      dup3\n        /* \"#utility.yul\":29583:29597   */\n      add\n        /* \"#utility.yul\":29576:29625   */\n      mstore\n        /* \"#utility.yul\":29459:29632   */\n      pop\n      jump\t// out\n        /* \"#utility.yul\":29638:30004   */\n    tag_294:\n        /* \"#utility.yul\":29780:29783   */\n      0x00\n        /* \"#utility.yul\":29801:29868   */\n      tag_645\n        /* \"#utility.yul\":29865:29867   */\n      0x17\n        /* \"#utility.yul\":29860:29863   */\n      dup4\n        /* \"#utility.yul\":29801:29868   */\n      tag_229\n      jump\t// in\n    tag_645:\n        /* \"#utility.yul\":29794:29868   */\n      swap2\n      pop\n        /* \"#utility.yul\":29877:29970   */\n      tag_646\n        /* \"#utility.yul\":29966:29969   */\n      dup3\n        /* \"#utility.yul\":29877:29970   */\n      tag_293\n      jump\t// in\n    tag_646:\n        /* \"#utility.yul\":29995:29997   */\n      0x20\n        /* \"#utility.yul\":29990:29993   */\n      dup3\n        /* \"#utility.yul\":29986:29998   */\n      add\n        /* \"#utility.yul\":29979:29998   */\n      swap1\n      pop\n        /* \"#utility.yul\":29638:30004   */\n      swap2\n      swap1\n      pop\n      jump\t// out\n        /* \"#utility.yul\":30010:30429   */\n    tag_151:\n        /* \"#utility.yul\":30176:30180   */\n      0x00\n        /* \"#utility.yul\":30214:30216   */\n      0x20\n        /* \"#utility.yul\":30203:30212   */\n      dup3\n        /* \"#utility.yul\":30199:30217   */\n      add\n        /* \"#utility.yul\":30191:30217   */\n      swap1\n      pop\n        /* \"#utility.yul\":30263:30272   */\n      dup2\n        /* \"#utility.yul\":30257:30261   */\n      dup2\n        /* \"#utility.yul\":30253:30273   */\n      sub\n        /* \"#utility.yul\":30249:30250   */\n      0x00\n        /* \"#utility.yul\":30238:30247   */\n      dup4\n        /* \"#utility.yul\":30234:30251   */\n      add\n        /* \"#utility.yul\":30227:30274   */\n      mstore\n        /* \"#utility.yul\":30291:30422   */\n      tag_648\n        /* \"#utility.yul\":30417:30421   */\n      dup2\n        /* \"#utility.yul\":30291:30422   */\n      tag_294\n      jump\t// in\n    tag_648:\n        /* \"#utility.yul\":30283:30422   */\n      swap1\n      pop\n        /* \"#utility.yul\":30010:30429   */\n      swap2\n      swap1\n      pop\n      jump\t// out\n        /* \"#utility.yul\":30435:30590   */\n    tag_295:\n        /* \"#utility.yul\":30575:30578   */\n      0x7b00000000000000000000000000000000000000000000000000000000000000\n        /* \"#utility.yul\":30571:30572   */\n      0x00\n        /* \"#utility.yul\":30563:30569   */\n      dup3\n        /* \"#utility.yul\":30559:30573   */\n      add\n        /* \"#utility.yul\":30552:30579   */\n      mstore\n        /* \"#utility.yul\":30435:30590   */\n      pop\n      jump\t// out\n        /* \"#utility.yul\":30600:31016   */\n    tag_296:\n        /* \"#utility.yul\":30760:30763   */\n      0x00\n        /* \"#utility.yul\":30785:30869   */\n      tag_651\n        /* \"#utility.yul\":30867:30868   */\n      0x01\n        /* \"#utility.yul\":30862:30865   */\n      dup4\n        /* \"#utility.yul\":30785:30869   */\n      tag_261\n      jump\t// in\n    tag_651:\n        /* \"#utility.yul\":30778:30869   */\n      swap2\n      pop\n        /* \"#utility.yul\":30882:30975   */\n      tag_652\n        /* \"#utility.yul\":30971:30974   */\n      dup3\n        /* \"#utility.yul\":30882:30975   */\n      tag_295\n      jump\t// in\n    tag_652:\n        /* \"#utility.yul\":31004:31005   */\n      0x01\n        /* \"#utility.yul\":30999:31002   */\n      dup3\n        /* \"#utility.yul\":30995:31006   */\n      add\n        /* \"#utility.yul\":30988:31006   */\n      swap1\n      pop\n        /* \"#utility.yul\":30600:31016   */\n      swap2\n      swap1\n      pop\n      jump\t// out\n        /* \"#utility.yul\":31026:31248   */\n    tag_297:\n        /* \"#utility.yul\":31170:31236   */\n      0x227469746c65223a202241494743204d65746164617461222c00000000000000\n        /* \"#utility.yul\":31166:31167   */\n      0x00\n        /* \"#utility.yul\":31158:31164   */\n      dup3\n        /* \"#utility.yul\":31154:31168   */\n      add\n        /* \"#utility.yul\":31147:31237   */\n      mstore\n        /* \"#utility.yul\":31026:31248   */\n      pop\n      jump\t// out\n        /* \"#utility.yul\":31258:31676   */\n    tag_298:\n        /* \"#utility.yul\":31418:31421   */\n      0x00\n        /* \"#utility.yul\":31443:31528   */\n      tag_655\n        /* \"#utility.yul\":31525:31527   */\n      0x19\n        /* \"#utility.yul\":31520:31523   */\n      dup4\n        /* \"#utility.yul\":31443:31528   */\n      tag_261\n      jump\t// in\n    tag_655:\n        /* \"#utility.yul\":31436:31528   */\n      swap2\n      pop\n        /* \"#utility.yul\":31541:31634   */\n      tag_656\n        /* \"#utility.yul\":31630:31633   */\n      dup3\n        /* \"#utility.yul\":31541:31634   */\n      tag_297\n      jump\t// in\n    tag_656:\n        /* \"#utility.yul\":31663:31665   */\n      0x19\n        /* \"#utility.yul\":31658:31661   */\n      dup3\n        /* \"#utility.yul\":31654:31666   */\n      add\n        /* \"#utility.yul\":31647:31666   */\n      swap1\n      pop\n        /* \"#utility.yul\":31258:31676   */\n      swap2\n      swap1\n      pop\n      jump\t// out\n        /* \"#utility.yul\":31686:32013   */\n    tag_299:\n        /* \"#utility.yul\":31830:31896   */\n      0x226e616d65223a202245524320373030372054657874204261736564204e4654\n        /* \"#utility.yul\":31826:31827   */\n      0x00\n        /* \"#utility.yul\":31818:31824   */\n      dup3\n        /* \"#utility.yul\":31814:31828   */\n      add\n        /* \"#utility.yul\":31807:31897   */\n      mstore\n        /* \"#utility.yul\":31935:32001   */\n      0x222c000000000000000000000000000000000000000000000000000000000000\n        /* \"#utility.yul\":31930:31932   */\n      0x20\n        /* \"#utility.yul\":31922:31928   */\n      dup3\n        /* \"#utility.yul\":31918:31933   */\n      add\n        /* \"#utility.yul\":31911:32002   */\n      mstore\n        /* \"#utility.yul\":31686:32013   */\n      pop\n      jump\t// out\n        /* \"#utility.yul\":32023:32441   */\n    tag_300:\n        /* \"#utility.yul\":32183:32186   */\n      0x00\n        /* \"#utility.yul\":32208:32293   */\n      tag_659\n        /* \"#utility.yul\":32290:32292   */\n      0x22\n        /* \"#utility.yul\":32285:32288   */\n      dup4\n        /* \"#utility.yul\":32208:32293   */\n      tag_261\n      jump\t// in\n    tag_659:\n        /* \"#utility.yul\":32201:32293   */\n      swap2\n      pop\n        /* \"#utility.yul\":32306:32399   */\n      tag_660\n        /* \"#utility.yul\":32395:32398   */\n      dup3\n        /* \"#utility.yul\":32306:32399   */\n      tag_299\n      jump\t// in\n    tag_660:\n        /* \"#utility.yul\":32428:32430   */\n      0x22\n        /* \"#utility.yul\":32423:32426   */\n      dup3\n        /* \"#utility.yul\":32419:32431   */\n      add\n        /* \"#utility.yul\":32412:32431   */\n      swap1\n      pop\n        /* \"#utility.yul\":32023:32441   */\n      swap2\n      swap1\n      pop\n      jump\t// out\n        /* \"#utility.yul\":32451:32778   */\n    tag_301:\n        /* \"#utility.yul\":32595:32661   */\n      0x226465736372697074696f6e223a202241492047656e65726174656420436f6e\n        /* \"#utility.yul\":32591:32592   */\n      0x00\n        /* \"#utility.yul\":32583:32589   */\n      dup3\n        /* \"#utility.yul\":32579:32593   */\n      add\n        /* \"#utility.yul\":32572:32662   */\n      mstore\n        /* \"#utility.yul\":32700:32766   */\n      0x74656e74222c0000000000000000000000000000000000000000000000000000\n        /* \"#utility.yul\":32695:32697   */\n      0x20\n        /* \"#utility.yul\":32687:32693   */\n      dup3\n        /* \"#utility.yul\":32683:32698   */\n      add\n        /* \"#utility.yul\":32676:32767   */\n      mstore\n        /* \"#utility.yul\":32451:32778   */\n      pop\n      jump\t// out\n        /* \"#utility.yul\":32788:33206   */\n    tag_302:\n        /* \"#utility.yul\":32948:32951   */\n      0x00\n        /* \"#utility.yul\":32973:33058   */\n      tag_663\n        /* \"#utility.yul\":33055:33057   */\n      0x26\n        /* \"#utility.yul\":33050:33053   */\n      dup4\n        /* \"#utility.yul\":32973:33058   */\n      tag_261\n      jump\t// in\n    tag_663:\n        /* \"#utility.yul\":32966:33058   */\n      swap2\n      pop\n        /* \"#utility.yul\":33071:33164   */\n      tag_664\n        /* \"#utility.yul\":33160:33163   */\n      dup3\n        /* \"#utility.yul\":33071:33164   */\n      tag_301\n      jump\t// in\n    tag_664:\n        /* \"#utility.yul\":33193:33195   */\n      0x26\n        /* \"#utility.yul\":33188:33191   */\n      dup3\n        /* \"#utility.yul\":33184:33196   */\n      add\n        /* \"#utility.yul\":33177:33196   */\n      swap1\n      pop\n        /* \"#utility.yul\":32788:33206   */\n      swap2\n      swap1\n      pop\n      jump\t// out\n        /* \"#utility.yul\":33216:33763   */\n    tag_303:\n        /* \"#utility.yul\":33360:33426   */\n      0x22696d616765223a202268747470733a2f2f6c6176656e6465722d61646f7261\n        /* \"#utility.yul\":33356:33357   */\n      0x00\n        /* \"#utility.yul\":33348:33354   */\n      dup3\n        /* \"#utility.yul\":33344:33358   */\n      add\n        /* \"#utility.yul\":33337:33427   */\n      mstore\n        /* \"#utility.yul\":33465:33499   */\n      0x626c652d68756d6d696e67626972642d3737342e6d7970696e6174612e636c6f\n        /* \"#utility.yul\":33460:33462   */\n      0x20\n        /* \"#utility.yul\":33452:33458   */\n      dup3\n        /* \"#utility.yul\":33448:33463   */\n      add\n        /* \"#utility.yul\":33441:33500   */\n      mstore\n        /* \"#utility.yul\":33538:33572   */\n      0x75642f697066732f6261666b72656968796777777734676477756d707577626e\n        /* \"#utility.yul\":33533:33535   */\n      0x40\n        /* \"#utility.yul\":33525:33531   */\n      dup3\n        /* \"#utility.yul\":33521:33536   */\n      add\n        /* \"#utility.yul\":33514:33573   */\n      mstore\n        /* \"#utility.yul\":33611:33645   */\n      0x69347a7666616134673272683561616e67707078616a68336b79627873726d67\n        /* \"#utility.yul\":33606:33608   */\n      0x60\n        /* \"#utility.yul\":33598:33604   */\n      dup3\n        /* \"#utility.yul\":33594:33609   */\n      add\n        /* \"#utility.yul\":33587:33646   */\n      mstore\n        /* \"#utility.yul\":33685:33751   */\n      0x757a79222c000000000000000000000000000000000000000000000000000000\n        /* \"#utility.yul\":33679:33682   */\n      0x80\n        /* \"#utility.yul\":33671:33677   */\n      dup3\n        /* \"#utility.yul\":33667:33683   */\n      add\n        /* \"#utility.yul\":33660:33752   */\n      mstore\n        /* \"#utility.yul\":33216:33763   */\n      pop\n      jump\t// out\n        /* \"#utility.yul\":33773:34193   */\n    tag_304:\n        /* \"#utility.yul\":33933:33936   */\n      0x00\n        /* \"#utility.yul\":33958:34044   */\n      tag_667\n        /* \"#utility.yul\":34040:34043   */\n      0x85\n        /* \"#utility.yul\":34035:34038   */\n      dup4\n        /* \"#utility.yul\":33958:34044   */\n      tag_261\n      jump\t// in\n    tag_667:\n        /* \"#utility.yul\":33951:34044   */\n      swap2\n      pop\n        /* \"#utility.yul\":34057:34150   */\n      tag_668\n        /* \"#utility.yul\":34146:34149   */\n      dup3\n        /* \"#utility.yul\":34057:34150   */\n      tag_303\n      jump\t// in\n    tag_668:\n        /* \"#utility.yul\":34179:34182   */\n      0x85\n        /* \"#utility.yul\":34174:34177   */\n      dup3\n        /* \"#utility.yul\":34170:34183   */\n      add\n        /* \"#utility.yul\":34163:34183   */\n      swap1\n      pop\n        /* \"#utility.yul\":33773:34193   */\n      swap2\n      swap1\n      pop\n      jump\t// out\n        /* \"#utility.yul\":34203:34425   */\n    tag_305:\n        /* \"#utility.yul\":34347:34413   */\n      0x2270726f6d7074223a2022000000000000000000000000000000000000000000\n        /* \"#utility.yul\":34343:34344   */\n      0x00\n        /* \"#utility.yul\":34335:34341   */\n      dup3\n        /* \"#utility.yul\":34331:34345   */\n      add\n        /* \"#utility.yul\":34324:34414   */\n      mstore\n        /* \"#utility.yul\":34203:34425   */\n      pop\n      jump\t// out\n        /* \"#utility.yul\":34435:34853   */\n    tag_306:\n        /* \"#utility.yul\":34595:34598   */\n      0x00\n        /* \"#utility.yul\":34620:34705   */\n      tag_671\n        /* \"#utility.yul\":34702:34704   */\n      0x0b\n        /* \"#utility.yul\":34697:34700   */\n      dup4\n        /* \"#utility.yul\":34620:34705   */\n      tag_261\n      jump\t// in\n    tag_671:\n        /* \"#utility.yul\":34613:34705   */\n      swap2\n      pop\n        /* \"#utility.yul\":34718:34811   */\n      tag_672\n        /* \"#utility.yul\":34807:34810   */\n      dup3\n        /* \"#utility.yul\":34718:34811   */\n      tag_305\n      jump\t// in\n    tag_672:\n        /* \"#utility.yul\":34840:34842   */\n      0x0b\n        /* \"#utility.yul\":34835:34838   */\n      dup3\n        /* \"#utility.yul\":34831:34843   */\n      add\n        /* \"#utility.yul\":34824:34843   */\n      swap1\n      pop\n        /* \"#utility.yul\":34435:34853   */\n      swap2\n      swap1\n      pop\n      jump\t// out\n        /* \"#utility.yul\":34863:35273   */\n    tag_307:\n        /* \"#utility.yul\":34969:34972   */\n      0x00\n        /* \"#utility.yul\":35001:35040   */\n      tag_674\n        /* \"#utility.yul\":35034:35039   */\n      dup3\n        /* \"#utility.yul\":35001:35040   */\n      tag_228\n      jump\t// in\n    tag_674:\n        /* \"#utility.yul\":35060:35149   */\n      tag_675\n        /* \"#utility.yul\":35142:35148   */\n      dup2\n        /* \"#utility.yul\":35137:35140   */\n      dup6\n        /* \"#utility.yul\":35060:35149   */\n      tag_261\n      jump\t// in\n    tag_675:\n        /* \"#utility.yul\":35053:35149   */\n      swap4\n      pop\n        /* \"#utility.yul\":35162:35227   */\n      tag_676\n        /* \"#utility.yul\":35220:35226   */\n      dup2\n        /* \"#utility.yul\":35215:35218   */\n      dup6\n        /* \"#utility.yul\":35208:35212   */\n      0x20\n        /* \"#utility.yul\":35201:35206   */\n      dup7\n        /* \"#utility.yul\":35197:35213   */\n      add\n        /* \"#utility.yul\":35162:35227   */\n      tag_230\n      jump\t// in\n    tag_676:\n        /* \"#utility.yul\":35256:35262   */\n      dup1\n        /* \"#utility.yul\":35251:35254   */\n      dup5\n        /* \"#utility.yul\":35247:35263   */\n      add\n        /* \"#utility.yul\":35240:35263   */\n      swap2\n      pop\n        /* \"#utility.yul\":34973:35273   */\n      pop\n        /* \"#utility.yul\":34863:35273   */\n      swap3\n      swap2\n      pop\n      pop\n      jump\t// out\n        /* \"#utility.yul\":35283:35505   */\n    tag_308:\n        /* \"#utility.yul\":35427:35493   */\n      0x222c000000000000000000000000000000000000000000000000000000000000\n        /* \"#utility.yul\":35423:35424   */\n      0x00\n        /* \"#utility.yul\":35415:35421   */\n      dup3\n        /* \"#utility.yul\":35411:35425   */\n      add\n        /* \"#utility.yul\":35404:35494   */\n      mstore\n        /* \"#utility.yul\":35283:35505   */\n      pop\n      jump\t// out\n        /* \"#utility.yul\":35515:35931   */\n    tag_309:\n        /* \"#utility.yul\":35675:35678   */\n      0x00\n        /* \"#utility.yul\":35700:35784   */\n      tag_679\n        /* \"#utility.yul\":35782:35783   */\n      0x02\n        /* \"#utility.yul\":35777:35780   */\n      dup4\n        /* \"#utility.yul\":35700:35784   */\n      tag_261\n      jump\t// in\n    tag_679:\n        /* \"#utility.yul\":35693:35784   */\n      swap2\n      pop\n        /* \"#utility.yul\":35797:35890   */\n      tag_680\n        /* \"#utility.yul\":35886:35889   */\n      dup3\n        /* \"#utility.yul\":35797:35890   */\n      tag_308\n      jump\t// in\n    tag_680:\n        /* \"#utility.yul\":35919:35920   */\n      0x02\n        /* \"#utility.yul\":35914:35917   */\n      dup3\n        /* \"#utility.yul\":35910:35921   */\n      add\n        /* \"#utility.yul\":35903:35921   */\n      swap1\n      pop\n        /* \"#utility.yul\":35515:35931   */\n      swap2\n      swap1\n      pop\n      jump\t// out\n        /* \"#utility.yul\":35941:36163   */\n    tag_310:\n        /* \"#utility.yul\":36085:36151   */\n      0x22616967635f74797065223a202274657874222c000000000000000000000000\n        /* \"#utility.yul\":36081:36082   */\n      0x00\n        /* \"#utility.yul\":36073:36079   */\n      dup3\n        /* \"#utility.yul\":36069:36083   */\n      add\n        /* \"#utility.yul\":36062:36152   */\n      mstore\n        /* \"#utility.yul\":35941:36163   */\n      pop\n      jump\t// out\n        /* \"#utility.yul\":36173:36591   */\n    tag_311:\n        /* \"#utility.yul\":36333:36336   */\n      0x00\n        /* \"#utility.yul\":36358:36443   */\n      tag_683\n        /* \"#utility.yul\":36440:36442   */\n      0x14\n        /* \"#utility.yul\":36435:36438   */\n      dup4\n        /* \"#utility.yul\":36358:36443   */\n      tag_261\n      jump\t// in\n    tag_683:\n        /* \"#utility.yul\":36351:36443   */\n      swap2\n      pop\n        /* \"#utility.yul\":36456:36549   */\n      tag_684\n        /* \"#utility.yul\":36545:36548   */\n      dup3\n        /* \"#utility.yul\":36456:36549   */\n      tag_310\n      jump\t// in\n    tag_684:\n        /* \"#utility.yul\":36578:36580   */\n      0x14\n        /* \"#utility.yul\":36573:36576   */\n      dup3\n        /* \"#utility.yul\":36569:36581   */\n      add\n        /* \"#utility.yul\":36562:36581   */\n      swap1\n      pop\n        /* \"#utility.yul\":36173:36591   */\n      swap2\n      swap1\n      pop\n      jump\t// out\n        /* \"#utility.yul\":36601:36823   */\n    tag_312:\n        /* \"#utility.yul\":36745:36811   */\n      0x22616967635f64617461223a2022000000000000000000000000000000000000\n        /* \"#utility.yul\":36741:36742   */\n      0x00\n        /* \"#utility.yul\":36733:36739   */\n      dup3\n        /* \"#utility.yul\":36729:36743   */\n      add\n        /* \"#utility.yul\":36722:36812   */\n      mstore\n        /* \"#utility.yul\":36601:36823   */\n      pop\n      jump\t// out\n        /* \"#utility.yul\":36833:37251   */\n    tag_313:\n        /* \"#utility.yul\":36993:36996   */\n      0x00\n        /* \"#utility.yul\":37018:37103   */\n      tag_687\n        /* \"#utility.yul\":37100:37102   */\n      0x0e\n        /* \"#utility.yul\":37095:37098   */\n      dup4\n        /* \"#utility.yul\":37018:37103   */\n      tag_261\n      jump\t// in\n    tag_687:\n        /* \"#utility.yul\":37011:37103   */\n      swap2\n      pop\n        /* \"#utility.yul\":37116:37209   */\n      tag_688\n        /* \"#utility.yul\":37205:37208   */\n      dup3\n        /* \"#utility.yul\":37116:37209   */\n      tag_312\n      jump\t// in\n    tag_688:\n        /* \"#utility.yul\":37238:37240   */\n      0x0e\n        /* \"#utility.yul\":37233:37236   */\n      dup3\n        /* \"#utility.yul\":37229:37241   */\n      add\n        /* \"#utility.yul\":37222:37241   */\n      swap1\n      pop\n        /* \"#utility.yul\":36833:37251   */\n      swap2\n      swap1\n      pop\n      jump\t// out\n        /* \"#utility.yul\":37261:37483   */\n    tag_314:\n        /* \"#utility.yul\":37405:37471   */\n      0x2270726f6f665f74797065223a20226f704d4c22000000000000000000000000\n        /* \"#utility.yul\":37401:37402   */\n      0x00\n        /* \"#utility.yul\":37393:37399   */\n      dup3\n        /* \"#utility.yul\":37389:37403   */\n      add\n        /* \"#utility.yul\":37382:37472   */\n      mstore\n        /* \"#utility.yul\":37261:37483   */\n      pop\n      jump\t// out\n        /* \"#utility.yul\":37493:37911   */\n    tag_315:\n        /* \"#utility.yul\":37653:37656   */\n      0x00\n        /* \"#utility.yul\":37678:37763   */\n      tag_691\n        /* \"#utility.yul\":37760:37762   */\n      0x14\n        /* \"#utility.yul\":37755:37758   */\n      dup4\n        /* \"#utility.yul\":37678:37763   */\n      tag_261\n      jump\t// in\n    tag_691:\n        /* \"#utility.yul\":37671:37763   */\n      swap2\n      pop\n        /* \"#utility.yul\":37776:37869   */\n      tag_692\n        /* \"#utility.yul\":37865:37868   */\n      dup3\n        /* \"#utility.yul\":37776:37869   */\n      tag_314\n      jump\t// in\n    tag_692:\n        /* \"#utility.yul\":37898:37900   */\n      0x14\n        /* \"#utility.yul\":37893:37896   */\n      dup3\n        /* \"#utility.yul\":37889:37901   */\n      add\n        /* \"#utility.yul\":37882:37901   */\n      swap1\n      pop\n        /* \"#utility.yul\":37493:37911   */\n      swap2\n      swap1\n      pop\n      jump\t// out\n        /* \"#utility.yul\":37921:38072   */\n    tag_316:\n        /* \"#utility.yul\":38061:38064   */\n      0x7d00000000000000000000000000000000000000000000000000000000000000\n        /* \"#utility.yul\":38057:38058   */\n      0x00\n        /* \"#utility.yul\":38049:38055   */\n      dup3\n        /* \"#utility.yul\":38045:38059   */\n      add\n        /* \"#utility.yul\":38038:38065   */\n      mstore\n        /* \"#utility.yul\":37921:38072   */\n      pop\n      jump\t// out\n        /* \"#utility.yul\":38078:38478   */\n    tag_317:\n        /* \"#utility.yul\":38238:38241   */\n      0x00\n        /* \"#utility.yul\":38259:38343   */\n      tag_695\n        /* \"#utility.yul\":38341:38342   */\n      0x01\n        /* \"#utility.yul\":38336:38339   */\n      dup4\n        /* \"#utility.yul\":38259:38343   */\n      tag_261\n      jump\t// in\n    tag_695:\n        /* \"#utility.yul\":38252:38343   */\n      swap2\n      pop\n        /* \"#utility.yul\":38352:38445   */\n      tag_696\n        /* \"#utility.yul\":38441:38444   */\n      dup3\n        /* \"#utility.yul\":38352:38445   */\n      tag_316\n      jump\t// in\n    tag_696:\n        /* \"#utility.yul\":38470:38471   */\n      0x01\n        /* \"#utility.yul\":38465:38468   */\n      dup3\n        /* \"#utility.yul\":38461:38472   */\n      add\n        /* \"#utility.yul\":38454:38472   */\n      swap1\n      pop\n        /* \"#utility.yul\":38078:38478   */\n      swap2\n      swap1\n      pop\n      jump\t// out\n        /* \"#utility.yul\":38484:42111   */\n    tag_163:\n        /* \"#utility.yul\":39876:39879   */\n      0x00\n        /* \"#utility.yul\":39898:40046   */\n      tag_698\n        /* \"#utility.yul\":40042:40045   */\n      dup3\n        /* \"#utility.yul\":39898:40046   */\n      tag_296\n      jump\t// in\n    tag_698:\n        /* \"#utility.yul\":39891:40046   */\n      swap2\n      pop\n        /* \"#utility.yul\":40063:40211   */\n      tag_699\n        /* \"#utility.yul\":40207:40210   */\n      dup3\n        /* \"#utility.yul\":40063:40211   */\n      tag_298\n      jump\t// in\n    tag_699:\n        /* \"#utility.yul\":40056:40211   */\n      swap2\n      pop\n        /* \"#utility.yul\":40228:40376   */\n      tag_700\n        /* \"#utility.yul\":40372:40375   */\n      dup3\n        /* \"#utility.yul\":40228:40376   */\n      tag_300\n      jump\t// in\n    tag_700:\n        /* \"#utility.yul\":40221:40376   */\n      swap2\n      pop\n        /* \"#utility.yul\":40393:40541   */\n      tag_701\n        /* \"#utility.yul\":40537:40540   */\n      dup3\n        /* \"#utility.yul\":40393:40541   */\n      tag_302\n      jump\t// in\n    tag_701:\n        /* \"#utility.yul\":40386:40541   */\n      swap2\n      pop\n        /* \"#utility.yul\":40558:40706   */\n      tag_702\n        /* \"#utility.yul\":40702:40705   */\n      dup3\n        /* \"#utility.yul\":40558:40706   */\n      tag_304\n      jump\t// in\n    tag_702:\n        /* \"#utility.yul\":40551:40706   */\n      swap2\n      pop\n        /* \"#utility.yul\":40723:40871   */\n      tag_703\n        /* \"#utility.yul\":40867:40870   */\n      dup3\n        /* \"#utility.yul\":40723:40871   */\n      tag_306\n      jump\t// in\n    tag_703:\n        /* \"#utility.yul\":40716:40871   */\n      swap2\n      pop\n        /* \"#utility.yul\":40888:40983   */\n      tag_704\n        /* \"#utility.yul\":40979:40982   */\n      dup3\n        /* \"#utility.yul\":40970:40976   */\n      dup6\n        /* \"#utility.yul\":40888:40983   */\n      tag_307\n      jump\t// in\n    tag_704:\n        /* \"#utility.yul\":40881:40983   */\n      swap2\n      pop\n        /* \"#utility.yul\":41000:41148   */\n      tag_705\n        /* \"#utility.yul\":41144:41147   */\n      dup3\n        /* \"#utility.yul\":41000:41148   */\n      tag_309\n      jump\t// in\n    tag_705:\n        /* \"#utility.yul\":40993:41148   */\n      swap2\n      pop\n        /* \"#utility.yul\":41165:41313   */\n      tag_706\n        /* \"#utility.yul\":41309:41312   */\n      dup3\n        /* \"#utility.yul\":41165:41313   */\n      tag_311\n      jump\t// in\n    tag_706:\n        /* \"#utility.yul\":41158:41313   */\n      swap2\n      pop\n        /* \"#utility.yul\":41330:41478   */\n      tag_707\n        /* \"#utility.yul\":41474:41477   */\n      dup3\n        /* \"#utility.yul\":41330:41478   */\n      tag_313\n      jump\t// in\n    tag_707:\n        /* \"#utility.yul\":41323:41478   */\n      swap2\n      pop\n        /* \"#utility.yul\":41495:41590   */\n      tag_708\n        /* \"#utility.yul\":41586:41589   */\n      dup3\n        /* \"#utility.yul\":41577:41583   */\n      dup5\n        /* \"#utility.yul\":41495:41590   */\n      tag_307\n      jump\t// in\n    tag_708:\n        /* \"#utility.yul\":41488:41590   */\n      swap2\n      pop\n        /* \"#utility.yul\":41607:41755   */\n      tag_709\n        /* \"#utility.yul\":41751:41754   */\n      dup3\n        /* \"#utility.yul\":41607:41755   */\n      tag_309\n      jump\t// in\n    tag_709:\n        /* \"#utility.yul\":41600:41755   */\n      swap2\n      pop\n        /* \"#utility.yul\":41772:41920   */\n      tag_710\n        /* \"#utility.yul\":41916:41919   */\n      dup3\n        /* \"#utility.yul\":41772:41920   */\n      tag_315\n      jump\t// in\n    tag_710:\n        /* \"#utility.yul\":41765:41920   */\n      swap2\n      pop\n        /* \"#utility.yul\":41937:42085   */\n      tag_711\n        /* \"#utility.yul\":42081:42084   */\n      dup3\n        /* \"#utility.yul\":41937:42085   */\n      tag_317\n      jump\t// in\n    tag_711:\n        /* \"#utility.yul\":41930:42085   */\n      swap2\n      pop\n        /* \"#utility.yul\":42102:42105   */\n      dup2\n        /* \"#utility.yul\":42095:42105   */\n      swap1\n      pop\n        /* \"#utility.yul\":38484:42111   */\n      swap4\n      swap3\n      pop\n      pop\n      pop\n      jump\t// out\n        /* \"#utility.yul\":42117:42296   */\n    tag_318:\n        /* \"#utility.yul\":42257:42288   */\n      0x646174613a6170706c69636174696f6e2f6a736f6e3b6261736536342c000000\n        /* \"#utility.yul\":42253:42254   */\n      0x00\n        /* \"#utility.yul\":42245:42251   */\n      dup3\n        /* \"#utility.yul\":42241:42255   */\n      add\n        /* \"#utility.yul\":42234:42289   */\n      mstore\n        /* \"#utility.yul\":42117:42296   */\n      pop\n      jump\t// out\n        /* \"#utility.yul\":42302:42704   */\n    tag_319:\n        /* \"#utility.yul\":42462:42465   */\n      0x00\n        /* \"#utility.yul\":42483:42568   */\n      tag_714\n        /* \"#utility.yul\":42565:42567   */\n      0x1d\n        /* \"#utility.yul\":42560:42563   */\n      dup4\n        /* \"#utility.yul\":42483:42568   */\n      tag_261\n      jump\t// in\n    tag_714:\n        /* \"#utility.yul\":42476:42568   */\n      swap2\n      pop\n        /* \"#utility.yul\":42577:42670   */\n      tag_715\n        /* \"#utility.yul\":42666:42669   */\n      dup3\n        /* \"#utility.yul\":42577:42670   */\n      tag_318\n      jump\t// in\n    tag_715:\n        /* \"#utility.yul\":42695:42697   */\n      0x1d\n        /* \"#utility.yul\":42690:42693   */\n      dup3\n        /* \"#utility.yul\":42686:42698   */\n      add\n        /* \"#utility.yul\":42679:42698   */\n      swap1\n      pop\n        /* \"#utility.yul\":42302:42704   */\n      swap2\n      swap1\n      pop\n      jump\t// out\n        /* \"#utility.yul\":42710:43251   */\n    tag_167:\n        /* \"#utility.yul\":42943:42946   */\n      0x00\n        /* \"#utility.yul\":42965:43113   */\n      tag_717\n        /* \"#utility.yul\":43109:43112   */\n      dup3\n        /* \"#utility.yul\":42965:43113   */\n      tag_319\n      jump\t// in\n    tag_717:\n        /* \"#utility.yul\":42958:43113   */\n      swap2\n      pop\n        /* \"#utility.yul\":43130:43225   */\n      tag_718\n        /* \"#utility.yul\":43221:43224   */\n      dup3\n        /* \"#utility.yul\":43212:43218   */\n      dup5\n        /* \"#utility.yul\":43130:43225   */\n      tag_307\n      jump\t// in\n    tag_718:\n        /* \"#utility.yul\":43123:43225   */\n      swap2\n      pop\n        /* \"#utility.yul\":43242:43245   */\n      dup2\n        /* \"#utility.yul\":43235:43245   */\n      swap1\n      pop\n        /* \"#utility.yul\":42710:43251   */\n      swap3\n      swap2\n      pop\n      pop\n      jump\t// out\n        /* \"#utility.yul\":43257:43371   */\n    tag_320:\n      pop\n      jump\t// out\n        /* \"#utility.yul\":43377:43739   */\n    tag_321:\n        /* \"#utility.yul\":43518:43521   */\n      0x00\n        /* \"#utility.yul\":43539:43604   */\n      tag_721\n        /* \"#utility.yul\":43602:43603   */\n      0x00\n        /* \"#utility.yul\":43597:43600   */\n      dup4\n        /* \"#utility.yul\":43539:43604   */\n      tag_246\n      jump\t// in\n    tag_721:\n        /* \"#utility.yul\":43532:43604   */\n      swap2\n      pop\n        /* \"#utility.yul\":43613:43706   */\n      tag_722\n        /* \"#utility.yul\":43702:43705   */\n      dup3\n        /* \"#utility.yul\":43613:43706   */\n      tag_320\n      jump\t// in\n    tag_722:\n        /* \"#utility.yul\":43731:43732   */\n      0x00\n        /* \"#utility.yul\":43726:43729   */\n      dup3\n        /* \"#utility.yul\":43722:43733   */\n      add\n        /* \"#utility.yul\":43715:43733   */\n      swap1\n      pop\n        /* \"#utility.yul\":43377:43739   */\n      swap2\n      swap1\n      pop\n      jump\t// out\n        /* \"#utility.yul\":43745:44869   */\n    tag_169:\n        /* \"#utility.yul\":44078:44082   */\n      0x00\n        /* \"#utility.yul\":44116:44119   */\n      0xa0\n        /* \"#utility.yul\":44105:44114   */\n      dup3\n        /* \"#utility.yul\":44101:44120   */\n      add\n        /* \"#utility.yul\":44093:44120   */\n      swap1\n      pop\n        /* \"#utility.yul\":44130:44201   */\n      tag_724\n        /* \"#utility.yul\":44198:44199   */\n      0x00\n        /* \"#utility.yul\":44187:44196   */\n      dup4\n        /* \"#utility.yul\":44183:44200   */\n      add\n        /* \"#utility.yul\":44174:44180   */\n      dup8\n        /* \"#utility.yul\":44130:44201   */\n      tag_244\n      jump\t// in\n    tag_724:\n        /* \"#utility.yul\":44248:44257   */\n      dup2\n        /* \"#utility.yul\":44242:44246   */\n      dup2\n        /* \"#utility.yul\":44238:44258   */\n      sub\n        /* \"#utility.yul\":44233:44235   */\n      0x20\n        /* \"#utility.yul\":44222:44231   */\n      dup4\n        /* \"#utility.yul\":44218:44236   */\n      add\n        /* \"#utility.yul\":44211:44259   */\n      mstore\n        /* \"#utility.yul\":44276:44352   */\n      tag_725\n        /* \"#utility.yul\":44347:44351   */\n      dup2\n        /* \"#utility.yul\":44338:44344   */\n      dup7\n        /* \"#utility.yul\":44276:44352   */\n      tag_247\n      jump\t// in\n    tag_725:\n        /* \"#utility.yul\":44268:44352   */\n      swap1\n      pop\n        /* \"#utility.yul\":44399:44408   */\n      dup2\n        /* \"#utility.yul\":44393:44397   */\n      dup2\n        /* \"#utility.yul\":44389:44409   */\n      sub\n        /* \"#utility.yul\":44384:44386   */\n      0x40\n        /* \"#utility.yul\":44373:44382   */\n      dup4\n        /* \"#utility.yul\":44369:44387   */\n      add\n        /* \"#utility.yul\":44362:44410   */\n      mstore\n        /* \"#utility.yul\":44427:44503   */\n      tag_726\n        /* \"#utility.yul\":44498:44502   */\n      dup2\n        /* \"#utility.yul\":44489:44495   */\n      dup6\n        /* \"#utility.yul\":44427:44503   */\n      tag_247\n      jump\t// in\n    tag_726:\n        /* \"#utility.yul\":44419:44503   */\n      swap1\n      pop\n        /* \"#utility.yul\":44550:44559   */\n      dup2\n        /* \"#utility.yul\":44544:44548   */\n      dup2\n        /* \"#utility.yul\":44540:44560   */\n      sub\n        /* \"#utility.yul\":44535:44537   */\n      0x60\n        /* \"#utility.yul\":44524:44533   */\n      dup4\n        /* \"#utility.yul\":44520:44538   */\n      add\n        /* \"#utility.yul\":44513:44561   */\n      mstore\n        /* \"#utility.yul\":44578:44656   */\n      tag_727\n        /* \"#utility.yul\":44651:44655   */\n      dup2\n        /* \"#utility.yul\":44642:44648   */\n      dup5\n        /* \"#utility.yul\":44578:44656   */\n      tag_232\n      jump\t// in\n    tag_727:\n        /* \"#utility.yul\":44570:44656   */\n      swap1\n      pop\n        /* \"#utility.yul\":44704:44713   */\n      dup2\n        /* \"#utility.yul\":44698:44702   */\n      dup2\n        /* \"#utility.yul\":44694:44714   */\n      sub\n        /* \"#utility.yul\":44688:44691   */\n      0x80\n        /* \"#utility.yul\":44677:44686   */\n      dup4\n        /* \"#utility.yul\":44673:44692   */\n      add\n        /* \"#utility.yul\":44666:44715   */\n      mstore\n        /* \"#utility.yul\":44732:44862   */\n      tag_728\n        /* \"#utility.yul\":44857:44861   */\n      dup2\n        /* \"#utility.yul\":44732:44862   */\n      tag_321\n      jump\t// in\n    tag_728:\n        /* \"#utility.yul\":44724:44862   */\n      swap1\n      pop\n        /* \"#utility.yul\":43745:44869   */\n      swap6\n      swap5\n      pop\n      pop\n      pop\n      pop\n      pop\n      jump\t// out\n        /* \"#utility.yul\":44875:45022   */\n    tag_322:\n        /* \"#utility.yul\":44976:44987   */\n      0x00\n        /* \"#utility.yul\":45013:45016   */\n      dup2\n        /* \"#utility.yul\":44998:45016   */\n      swap1\n      pop\n        /* \"#utility.yul\":44875:45022   */\n      swap3\n      swap2\n      pop\n      pop\n      jump\t// out\n        /* \"#utility.yul\":45028:45414   */\n    tag_323:\n        /* \"#utility.yul\":45132:45135   */\n      0x00\n        /* \"#utility.yul\":45160:45198   */\n      tag_731\n        /* \"#utility.yul\":45192:45197   */\n      dup3\n        /* \"#utility.yul\":45160:45198   */\n      tag_245\n      jump\t// in\n    tag_731:\n        /* \"#utility.yul\":45214:45302   */\n      tag_732\n        /* \"#utility.yul\":45295:45301   */\n      dup2\n        /* \"#utility.yul\":45290:45293   */\n      dup6\n        /* \"#utility.yul\":45214:45302   */\n      tag_322\n      jump\t// in\n    tag_732:\n        /* \"#utility.yul\":45207:45302   */\n      swap4\n      pop\n        /* \"#utility.yul\":45311:45376   */\n      tag_733\n        /* \"#utility.yul\":45369:45375   */\n      dup2\n        /* \"#utility.yul\":45364:45367   */\n      dup6\n        /* \"#utility.yul\":45357:45361   */\n      0x20\n        /* \"#utility.yul\":45350:45355   */\n      dup7\n        /* \"#utility.yul\":45346:45362   */\n      add\n        /* \"#utility.yul\":45311:45376   */\n      tag_230\n      jump\t// in\n    tag_733:\n        /* \"#utility.yul\":45401:45407   */\n      dup1\n        /* \"#utility.yul\":45396:45399   */\n      dup5\n        /* \"#utility.yul\":45392:45408   */\n      add\n        /* \"#utility.yul\":45385:45408   */\n      swap2\n      pop\n        /* \"#utility.yul\":45136:45414   */\n      pop\n        /* \"#utility.yul\":45028:45414   */\n      swap3\n      swap2\n      pop\n      pop\n      jump\t// out\n        /* \"#utility.yul\":45420:45691   */\n    tag_174:\n        /* \"#utility.yul\":45550:45553   */\n      0x00\n        /* \"#utility.yul\":45572:45665   */\n      tag_735\n        /* \"#utility.yul\":45661:45664   */\n      dup3\n        /* \"#utility.yul\":45652:45658   */\n      dup5\n        /* \"#utility.yul\":45572:45665   */\n      tag_323\n      jump\t// in\n    tag_735:\n        /* \"#utility.yul\":45565:45665   */\n      swap2\n      pop\n        /* \"#utility.yul\":45682:45685   */\n      dup2\n        /* \"#utility.yul\":45675:45685   */\n      swap1\n      pop\n        /* \"#utility.yul\":45420:45691   */\n      swap3\n      swap2\n      pop\n      pop\n      jump\t// out\n        /* \"#utility.yul\":45697:46006   */\n    tag_176:\n        /* \"#utility.yul\":45808:45812   */\n      0x00\n        /* \"#utility.yul\":45846:45848   */\n      0x20\n        /* \"#utility.yul\":45835:45844   */\n      dup3\n        /* \"#utility.yul\":45831:45849   */\n      add\n        /* \"#utility.yul\":45823:45849   */\n      swap1\n      pop\n        /* \"#utility.yul\":45895:45904   */\n      dup2\n        /* \"#utility.yul\":45889:45893   */\n      dup2\n        /* \"#utility.yul\":45885:45905   */\n      sub\n        /* \"#utility.yul\":45881:45882   */\n      0x00\n        /* \"#utility.yul\":45870:45879   */\n      dup4\n        /* \"#utility.yul\":45866:45883   */\n      add\n        /* \"#utility.yul\":45859:45906   */\n      mstore\n        /* \"#utility.yul\":45923:45999   */\n      tag_737\n        /* \"#utility.yul\":45994:45998   */\n      dup2\n        /* \"#utility.yul\":45985:45991   */\n      dup5\n        /* \"#utility.yul\":45923:45999   */\n      tag_247\n      jump\t// in\n    tag_737:\n        /* \"#utility.yul\":45915:45999   */\n      swap1\n      pop\n        /* \"#utility.yul\":45697:46006   */\n      swap3\n      swap2\n      pop\n      pop\n      jump\t// out\n        /* \"#utility.yul\":46012:46954   */\n    tag_180:\n        /* \"#utility.yul\":46305:46309   */\n      0x00\n        /* \"#utility.yul\":46343:46346   */\n      0xa0\n        /* \"#utility.yul\":46332:46341   */\n      dup3\n        /* \"#utility.yul\":46328:46347   */\n      add\n        /* \"#utility.yul\":46320:46347   */\n      swap1\n      pop\n        /* \"#utility.yul\":46357:46428   */\n      tag_739\n        /* \"#utility.yul\":46425:46426   */\n      0x00\n        /* \"#utility.yul\":46414:46423   */\n      dup4\n        /* \"#utility.yul\":46410:46427   */\n      add\n        /* \"#utility.yul\":46401:46407   */\n      dup8\n        /* \"#utility.yul\":46357:46428   */\n      tag_221\n      jump\t// in\n    tag_739:\n        /* \"#utility.yul\":46475:46484   */\n      dup2\n        /* \"#utility.yul\":46469:46473   */\n      dup2\n        /* \"#utility.yul\":46465:46485   */\n      sub\n        /* \"#utility.yul\":46460:46462   */\n      0x20\n        /* \"#utility.yul\":46449:46458   */\n      dup4\n        /* \"#utility.yul\":46445:46463   */\n      add\n        /* \"#utility.yul\":46438:46486   */\n      mstore\n        /* \"#utility.yul\":46503:46579   */\n      tag_740\n        /* \"#utility.yul\":46574:46578   */\n      dup2\n        /* \"#utility.yul\":46565:46571   */\n      dup7\n        /* \"#utility.yul\":46503:46579   */\n      tag_247\n      jump\t// in\n    tag_740:\n        /* \"#utility.yul\":46495:46579   */\n      swap1\n      pop\n        /* \"#utility.yul\":46589:46661   */\n      tag_741\n        /* \"#utility.yul\":46657:46659   */\n      0x40\n        /* \"#utility.yul\":46646:46655   */\n      dup4\n        /* \"#utility.yul\":46642:46660   */\n      add\n        /* \"#utility.yul\":46633:46639   */\n      dup6\n        /* \"#utility.yul\":46589:46661   */\n      tag_244\n      jump\t// in\n    tag_741:\n        /* \"#utility.yul\":46671:46741   */\n      tag_742\n        /* \"#utility.yul\":46737:46739   */\n      0x60\n        /* \"#utility.yul\":46726:46735   */\n      dup4\n        /* \"#utility.yul\":46722:46740   */\n      add\n        /* \"#utility.yul\":46713:46719   */\n      dup5\n        /* \"#utility.yul\":46671:46741   */\n      tag_223\n      jump\t// in\n    tag_742:\n        /* \"#utility.yul\":46789:46798   */\n      dup2\n        /* \"#utility.yul\":46783:46787   */\n      dup2\n        /* \"#utility.yul\":46779:46799   */\n      sub\n        /* \"#utility.yul\":46773:46776   */\n      0x80\n        /* \"#utility.yul\":46762:46771   */\n      dup4\n        /* \"#utility.yul\":46758:46777   */\n      add\n        /* \"#utility.yul\":46751:46800   */\n      mstore\n        /* \"#utility.yul\":46817:46947   */\n      tag_743\n        /* \"#utility.yul\":46942:46946   */\n      dup2\n        /* \"#utility.yul\":46817:46947   */\n      tag_321\n      jump\t// in\n    tag_743:\n        /* \"#utility.yul\":46809:46947   */\n      swap1\n      pop\n        /* \"#utility.yul\":46012:46954   */\n      swap6\n      swap5\n      pop\n      pop\n      pop\n      pop\n      pop\n      jump\t// out\n        /* \"#utility.yul\":46960:48350   */\n    tag_185:\n        /* \"#utility.yul\":47075:47111   */\n      tag_745\n        /* \"#utility.yul\":47107:47110   */\n      dup3\n        /* \"#utility.yul\":47075:47111   */\n      tag_245\n      jump\t// in\n    tag_745:\n        /* \"#utility.yul\":47176:47194   */\n      0xffffffffffffffff\n        /* \"#utility.yul\":47168:47174   */\n      dup2\n        /* \"#utility.yul\":47165:47195   */\n      gt\n        /* \"#utility.yul\":47162:47218   */\n      iszero\n      tag_746\n      jumpi\n        /* \"#utility.yul\":47198:47216   */\n      tag_747\n      tag_206\n      jump\t// in\n    tag_747:\n        /* \"#utility.yul\":47162:47218   */\n    tag_746:\n        /* \"#utility.yul\":47242:47280   */\n      tag_748\n        /* \"#utility.yul\":47274:47278   */\n      dup3\n        /* \"#utility.yul\":47268:47279   */\n      sload\n        /* \"#utility.yul\":47242:47280   */\n      tag_98\n      jump\t// in\n    tag_748:\n        /* \"#utility.yul\":47327:47393   */\n      tag_749\n        /* \"#utility.yul\":47386:47392   */\n      dup3\n        /* \"#utility.yul\":47378:47384   */\n      dup3\n        /* \"#utility.yul\":47372:47376   */\n      dup6\n        /* \"#utility.yul\":47327:47393   */\n      tag_281\n      jump\t// in\n    tag_749:\n        /* \"#utility.yul\":47420:47421   */\n      0x00\n        /* \"#utility.yul\":47444:47448   */\n      0x20\n        /* \"#utility.yul\":47431:47448   */\n      swap1\n      pop\n        /* \"#utility.yul\":47476:47478   */\n      0x1f\n        /* \"#utility.yul\":47468:47474   */\n      dup4\n        /* \"#utility.yul\":47465:47479   */\n      gt\n        /* \"#utility.yul\":47493:47494   */\n      0x01\n        /* \"#utility.yul\":47488:48105   */\n      dup2\n      eq\n      tag_751\n      jumpi\n        /* \"#utility.yul\":48149:48150   */\n      0x00\n        /* \"#utility.yul\":48166:48172   */\n      dup5\n        /* \"#utility.yul\":48163:48240   */\n      iszero\n      tag_752\n      jumpi\n        /* \"#utility.yul\":48215:48224   */\n      dup3\n        /* \"#utility.yul\":48210:48213   */\n      dup8\n        /* \"#utility.yul\":48206:48225   */\n      add\n        /* \"#utility.yul\":48200:48226   */\n      mload\n        /* \"#utility.yul\":48191:48226   */\n      swap1\n      pop\n        /* \"#utility.yul\":48163:48240   */\n    tag_752:\n        /* \"#utility.yul\":48266:48333   */\n      tag_753\n        /* \"#utility.yul\":48326:48332   */\n      dup6\n        /* \"#utility.yul\":48319:48324   */\n      dup3\n        /* \"#utility.yul\":48266:48333   */\n      tag_284\n      jump\t// in\n    tag_753:\n        /* \"#utility.yul\":48260:48264   */\n      dup7\n        /* \"#utility.yul\":48253:48334   */\n      sstore\n        /* \"#utility.yul\":48122:48344   */\n      pop\n        /* \"#utility.yul\":47458:48344   */\n      jump(tag_750)\n        /* \"#utility.yul\":47488:48105   */\n    tag_751:\n        /* \"#utility.yul\":47540:47544   */\n      0x1f\n        /* \"#utility.yul\":47536:47545   */\n      not\n        /* \"#utility.yul\":47528:47534   */\n      dup5\n        /* \"#utility.yul\":47524:47546   */\n      and\n        /* \"#utility.yul\":47574:47610   */\n      tag_754\n        /* \"#utility.yul\":47605:47609   */\n      dup7\n        /* \"#utility.yul\":47574:47610   */\n      tag_271\n      jump\t// in\n    tag_754:\n        /* \"#utility.yul\":47632:47633   */\n      0x00\n        /* \"#utility.yul\":47646:47854   */\n    tag_755:\n        /* \"#utility.yul\":47660:47667   */\n      dup3\n        /* \"#utility.yul\":47657:47658   */\n      dup2\n        /* \"#utility.yul\":47654:47668   */\n      lt\n        /* \"#utility.yul\":47646:47854   */\n      iszero\n      tag_757\n      jumpi\n        /* \"#utility.yul\":47739:47748   */\n      dup5\n        /* \"#utility.yul\":47734:47737   */\n      dup10\n        /* \"#utility.yul\":47730:47749   */\n      add\n        /* \"#utility.yul\":47724:47750   */\n      mload\n        /* \"#utility.yul\":47716:47722   */\n      dup3\n        /* \"#utility.yul\":47709:47751   */\n      sstore\n        /* \"#utility.yul\":47790:47791   */\n      0x01\n        /* \"#utility.yul\":47782:47788   */\n      dup3\n        /* \"#utility.yul\":47778:47792   */\n      add\n        /* \"#utility.yul\":47768:47792   */\n      swap2\n      pop\n        /* \"#utility.yul\":47837:47839   */\n      0x20\n        /* \"#utility.yul\":47826:47835   */\n      dup6\n        /* \"#utility.yul\":47822:47840   */\n      add\n        /* \"#utility.yul\":47809:47840   */\n      swap5\n      pop\n        /* \"#utility.yul\":47683:47687   */\n      0x20\n        /* \"#utility.yul\":47680:47681   */\n      dup2\n        /* \"#utility.yul\":47676:47688   */\n      add\n        /* \"#utility.yul\":47671:47688   */\n      swap1\n      pop\n        /* \"#utility.yul\":47646:47854   */\n      jump(tag_755)\n    tag_757:\n        /* \"#utility.yul\":47882:47888   */\n      dup7\n        /* \"#utility.yul\":47873:47880   */\n      dup4\n        /* \"#utility.yul\":47870:47889   */\n      lt\n        /* \"#utility.yul\":47867:48046   */\n      iszero\n      tag_758\n      jumpi\n        /* \"#utility.yul\":47940:47949   */\n      dup5\n        /* \"#utility.yul\":47935:47938   */\n      dup10\n        /* \"#utility.yul\":47931:47950   */\n      add\n        /* \"#utility.yul\":47925:47951   */\n      mload\n        /* \"#utility.yul\":47983:48031   */\n      tag_759\n        /* \"#utility.yul\":48025:48029   */\n      0x1f\n        /* \"#utility.yul\":48017:48023   */\n      dup10\n        /* \"#utility.yul\":48013:48030   */\n      and\n        /* \"#utility.yul\":48002:48011   */\n      dup3\n        /* \"#utility.yul\":47983:48031   */\n      tag_283\n      jump\t// in\n    tag_759:\n        /* \"#utility.yul\":47975:47981   */\n      dup4\n        /* \"#utility.yul\":47968:48032   */\n      sstore\n        /* \"#utility.yul\":47890:48046   */\n      pop\n        /* \"#utility.yul\":47867:48046   */\n    tag_758:\n        /* \"#utility.yul\":48092:48093   */\n      0x01\n        /* \"#utility.yul\":48088:48089   */\n      0x02\n        /* \"#utility.yul\":48080:48086   */\n      dup9\n        /* \"#utility.yul\":48076:48090   */\n      mul\n        /* \"#utility.yul\":48072:48094   */\n      add\n        /* \"#utility.yul\":48066:48070   */\n      dup9\n        /* \"#utility.yul\":48059:48095   */\n      sstore\n        /* \"#utility.yul\":47495:48105   */\n      pop\n      pop\n      pop\n        /* \"#utility.yul\":47458:48344   */\n    tag_750:\n      pop\n        /* \"#utility.yul\":47050:48350   */\n      pop\n      pop\n      pop\n        /* \"#utility.yul\":46960:48350   */\n      pop\n      pop\n      jump\t// out\n        /* \"#utility.yul\":48356:49020   */\n    tag_187:\n        /* \"#utility.yul\":48563:48567   */\n      0x00\n        /* \"#utility.yul\":48601:48604   */\n      0x80\n        /* \"#utility.yul\":48590:48599   */\n      dup3\n        /* \"#utility.yul\":48586:48605   */\n      add\n        /* \"#utility.yul\":48578:48605   */\n      swap1\n      pop\n        /* \"#utility.yul\":48615:48686   */\n      tag_761\n        /* \"#utility.yul\":48683:48684   */\n      0x00\n        /* \"#utility.yul\":48672:48681   */\n      dup4\n        /* \"#utility.yul\":48668:48685   */\n      add\n        /* \"#utility.yul\":48659:48665   */\n      dup9\n        /* \"#utility.yul\":48615:48686   */\n      tag_221\n      jump\t// in\n    tag_761:\n        /* \"#utility.yul\":48696:48768   */\n      tag_762\n        /* \"#utility.yul\":48764:48766   */\n      0x20\n        /* \"#utility.yul\":48753:48762   */\n      dup4\n        /* \"#utility.yul\":48749:48767   */\n      add\n        /* \"#utility.yul\":48740:48746   */\n      dup8\n        /* \"#utility.yul\":48696:48768   */\n      tag_244\n      jump\t// in\n    tag_762:\n        /* \"#utility.yul\":48778:48850   */\n      tag_763\n        /* \"#utility.yul\":48846:48848   */\n      0x40\n        /* \"#utility.yul\":48835:48844   */\n      dup4\n        /* \"#utility.yul\":48831:48849   */\n      add\n        /* \"#utility.yul\":48822:48828   */\n      dup7\n        /* \"#utility.yul\":48778:48850   */\n      tag_221\n      jump\t// in\n    tag_763:\n        /* \"#utility.yul\":48897:48906   */\n      dup2\n        /* \"#utility.yul\":48891:48895   */\n      dup2\n        /* \"#utility.yul\":48887:48907   */\n      sub\n        /* \"#utility.yul\":48882:48884   */\n      0x60\n        /* \"#utility.yul\":48871:48880   */\n      dup4\n        /* \"#utility.yul\":48867:48885   */\n      add\n        /* \"#utility.yul\":48860:48908   */\n      mstore\n        /* \"#utility.yul\":48925:49013   */\n      tag_764\n        /* \"#utility.yul\":49008:49012   */\n      dup2\n        /* \"#utility.yul\":48999:49005   */\n      dup5\n        /* \"#utility.yul\":48991:48997   */\n      dup7\n        /* \"#utility.yul\":48925:49013   */\n      tag_291\n      jump\t// in\n    tag_764:\n        /* \"#utility.yul\":48917:49013   */\n      swap1\n      pop\n        /* \"#utility.yul\":48356:49020   */\n      swap7\n      swap6\n      pop\n      pop\n      pop\n      pop\n      pop\n      pop\n      jump\t// out\n        /* \"#utility.yul\":49026:49206   */\n    tag_324:\n        /* \"#utility.yul\":49074:49151   */\n      0x4e487b7100000000000000000000000000000000000000000000000000000000\n        /* \"#utility.yul\":49071:49072   */\n      0x00\n        /* \"#utility.yul\":49064:49152   */\n      mstore\n        /* \"#utility.yul\":49171:49175   */\n      0x11\n        /* \"#utility.yul\":49168:49169   */\n      0x04\n        /* \"#utility.yul\":49161:49176   */\n      mstore\n        /* \"#utility.yul\":49195:49199   */\n      0x24\n        /* \"#utility.yul\":49192:49193   */\n      0x00\n        /* \"#utility.yul\":49185:49200   */\n      revert\n        /* \"#utility.yul\":49212:49622   */\n    tag_195:\n        /* \"#utility.yul\":49252:49259   */\n      0x00\n        /* \"#utility.yul\":49275:49295   */\n      tag_767\n        /* \"#utility.yul\":49293:49294   */\n      dup3\n        /* \"#utility.yul\":49275:49295   */\n      tag_218\n      jump\t// in\n    tag_767:\n        /* \"#utility.yul\":49270:49295   */\n      swap2\n      pop\n        /* \"#utility.yul\":49309:49329   */\n      tag_768\n        /* \"#utility.yul\":49327:49328   */\n      dup4\n        /* \"#utility.yul\":49309:49329   */\n      tag_218\n      jump\t// in\n    tag_768:\n        /* \"#utility.yul\":49304:49329   */\n      swap3\n      pop\n        /* \"#utility.yul\":49364:49365   */\n      dup3\n        /* \"#utility.yul\":49361:49362   */\n      dup3\n        /* \"#utility.yul\":49357:49366   */\n      mul\n        /* \"#utility.yul\":49386:49416   */\n      tag_769\n        /* \"#utility.yul\":49404:49415   */\n      dup2\n        /* \"#utility.yul\":49386:49416   */\n      tag_218\n      jump\t// in\n    tag_769:\n        /* \"#utility.yul\":49375:49416   */\n      swap2\n      pop\n        /* \"#utility.yul\":49565:49566   */\n      dup3\n        /* \"#utility.yul\":49556:49563   */\n      dup3\n        /* \"#utility.yul\":49552:49567   */\n      div\n        /* \"#utility.yul\":49549:49550   */\n      dup5\n        /* \"#utility.yul\":49546:49568   */\n      eq\n        /* \"#utility.yul\":49526:49527   */\n      dup4\n        /* \"#utility.yul\":49519:49528   */\n      iszero\n        /* \"#utility.yul\":49499:49582   */\n      or\n        /* \"#utility.yul\":49476:49615   */\n      tag_770\n      jumpi\n        /* \"#utility.yul\":49595:49613   */\n      tag_771\n      tag_324\n      jump\t// in\n    tag_771:\n        /* \"#utility.yul\":49476:49615   */\n    tag_770:\n        /* \"#utility.yul\":49260:49622   */\n      pop\n        /* \"#utility.yul\":49212:49622   */\n      swap3\n      swap2\n      pop\n      pop\n      jump\t// out\n        /* \"#utility.yul\":49628:49819   */\n    tag_197:\n        /* \"#utility.yul\":49668:49671   */\n      0x00\n        /* \"#utility.yul\":49687:49707   */\n      tag_773\n        /* \"#utility.yul\":49705:49706   */\n      dup3\n        /* \"#utility.yul\":49687:49707   */\n      tag_218\n      jump\t// in\n    tag_773:\n        /* \"#utility.yul\":49682:49707   */\n      swap2\n      pop\n        /* \"#utility.yul\":49721:49741   */\n      tag_774\n        /* \"#utility.yul\":49739:49740   */\n      dup4\n        /* \"#utility.yul\":49721:49741   */\n      tag_218\n      jump\t// in\n    tag_774:\n        /* \"#utility.yul\":49716:49741   */\n      swap3\n      pop\n        /* \"#utility.yul\":49764:49765   */\n      dup3\n        /* \"#utility.yul\":49761:49762   */\n      dup3\n        /* \"#utility.yul\":49757:49766   */\n      add\n        /* \"#utility.yul\":49750:49766   */\n      swap1\n      pop\n        /* \"#utility.yul\":49785:49788   */\n      dup1\n        /* \"#utility.yul\":49782:49783   */\n      dup3\n        /* \"#utility.yul\":49779:49789   */\n      gt\n        /* \"#utility.yul\":49776:49812   */\n      iszero\n      tag_775\n      jumpi\n        /* \"#utility.yul\":49792:49810   */\n      tag_776\n      tag_324\n      jump\t// in\n    tag_776:\n        /* \"#utility.yul\":49776:49812   */\n    tag_775:\n        /* \"#utility.yul\":49628:49819   */\n      swap3\n      swap2\n      pop\n      pop\n      jump\t// out\n        /* \"#utility.yul\":49825:50005   */\n    tag_325:\n        /* \"#utility.yul\":49873:49950   */\n      0x4e487b7100000000000000000000000000000000000000000000000000000000\n        /* \"#utility.yul\":49870:49871   */\n      0x00\n        /* \"#utility.yul\":49863:49951   */\n      mstore\n        /* \"#utility.yul\":49970:49974   */\n      0x12\n        /* \"#utility.yul\":49967:49968   */\n      0x04\n        /* \"#utility.yul\":49960:49975   */\n      mstore\n        /* \"#utility.yul\":49994:49998   */\n      0x24\n        /* \"#utility.yul\":49991:49992   */\n      0x00\n        /* \"#utility.yul\":49984:49999   */\n      revert\n        /* \"#utility.yul\":50011:50196   */\n    tag_199:\n        /* \"#utility.yul\":50051:50052   */\n      0x00\n        /* \"#utility.yul\":50068:50088   */\n      tag_779\n        /* \"#utility.yul\":50086:50087   */\n      dup3\n        /* \"#utility.yul\":50068:50088   */\n      tag_218\n      jump\t// in\n    tag_779:\n        /* \"#utility.yul\":50063:50088   */\n      swap2\n      pop\n        /* \"#utility.yul\":50102:50122   */\n      tag_780\n        /* \"#utility.yul\":50120:50121   */\n      dup4\n        /* \"#utility.yul\":50102:50122   */\n      tag_218\n      jump\t// in\n    tag_780:\n        /* \"#utility.yul\":50097:50122   */\n      swap3\n      pop\n        /* \"#utility.yul\":50141:50142   */\n      dup3\n        /* \"#utility.yul\":50131:50166   */\n      tag_781\n      jumpi\n        /* \"#utility.yul\":50146:50164   */\n      tag_782\n      tag_325\n      jump\t// in\n    tag_782:\n        /* \"#utility.yul\":50131:50166   */\n    tag_781:\n        /* \"#utility.yul\":50188:50189   */\n      dup3\n        /* \"#utility.yul\":50185:50186   */\n      dup3\n        /* \"#utility.yul\":50181:50190   */\n      div\n        /* \"#utility.yul\":50176:50190   */\n      swap1\n      pop\n        /* \"#utility.yul\":50011:50196   */\n      swap3\n      swap2\n      pop\n      pop\n      jump\t// out\n    stop\n    data_84d8a590de33e00cbdc16e1f28c3506f5ec15c599fab9a6a4bcd575cc2f110ce 4142434445464748494a4b4c4d4e4f505152535455565758595a6162636465666768696a6b6c6d6e6f707172737475767778797a303132333435363738392b2f\n\n    auxdata: 0xa2646970667358221220e2198151d22c7a9d1243704991fb4792e7485bc15de6c0a37812c6e91ecccc4c64736f6c634300081a0033\n}\n",
				"bytecode": {
					"linkReferences": {},
					"object": "60a060405234801561000f575f80fd5b50604051612cd9380380612cd983398181016040528101906100319190610197565b818073ffffffffffffffffffffffffffffffffffffffff1660808173ffffffffffffffffffffffffffffffffffffffff168152505050335f806101000a81548173ffffffffffffffffffffffffffffffffffffffff021916908373ffffffffffffffffffffffffffffffffffffffff1602179055508060015f6101000a81548173ffffffffffffffffffffffffffffffffffffffff021916908373ffffffffffffffffffffffffffffffffffffffff16021790555050506101d5565b5f80fd5b5f73ffffffffffffffffffffffffffffffffffffffff82169050919050565b5f61011a826100f1565b9050919050565b5f61012b82610110565b9050919050565b61013b81610121565b8114610145575f80fd5b50565b5f8151905061015681610132565b92915050565b5f61016682610110565b9050919050565b6101768161015c565b8114610180575f80fd5b50565b5f815190506101918161016d565b92915050565b5f80604083850312156101ad576101ac6100ed565b5b5f6101ba85828601610148565b92505060206101cb85828601610183565b9150509250929050565b608051612ac96102105f395f8181610345015281816104ee01528181610513015281816108db0152818161092e0152610f170152612ac95ff3fe6080604052600436106100c1575f3560e01c806381d12c581161007e578063a121647211610058578063a1216472146102ac578063b0347814146102d6578063de1f8676146102fe578063fac5d7e114610326576100c1565b806381d12c58146102075780638cbc52d9146102465780638da5cb5b14610282576100c1565b8063127e8e4d146100c557806320f38718146101015780632c6296b71461013d57806331b221cd1461017957806333727c4d146101a3578063813d1e15146101df575b5f80fd5b3480156100d0575f80fd5b506100eb60048036038101906100e69190611292565b610342565b6040516100f891906112cc565b60405180910390f35b34801561010c575f80fd5b5061012760048036038101906101229190611292565b610407565b6040516101349190611307565b60405180910390f35b348015610148575f80fd5b50610163600480360381019061015e9190611381565b61042b565b604051610170919061144e565b60405180910390f35b348015610184575f80fd5b5061018d6104ec565b60405161019a91906114e8565b60405180910390f35b3480156101ae575f80fd5b506101c960048036038101906101c49190611292565b610510565b6040516101d6919061151b565b60405180910390f35b3480156101ea575f80fd5b506102056004803603810190610200919061155e565b6105b0565b005b348015610212575f80fd5b5061022d60048036038101906102289190611292565b610678565b60405161023d949392919061160e565b60405180910390f35b348015610251575f80fd5b5061026c60048036038101906102679190611787565b6107cf565b604051610279919061144e565b60405180910390f35b34801561028d575f80fd5b5061029661088d565b6040516102a391906117e1565b60405180910390f35b3480156102b7575f80fd5b506102c06108b0565b6040516102cd919061181a565b60405180910390f35b3480156102e1575f80fd5b506102fc60048036038101906102f79190611888565b6108d5565b005b348015610309575f80fd5b50610324600480360381019061031f9190611292565b610ada565b005b610340600480360381019061033b9190611381565b610ecd565b005b5f7f000000000000000000000000000000000000000000000000000000000000000073ffffffffffffffffffffffffffffffffffffffff1662e1d8d08360035f8681526020019081526020015f205f9054906101000a900467ffffffffffffffff166040518363ffffffff1660e01b81526004016103c1929190611949565b602060405180830381865afa1580156103dc573d5f803e3d5ffd5b505050506040513d601f19601f820116820180604052508101906104009190611984565b9050919050565b6003602052805f5260405f205f915054906101000a900467ffffffffffffffff1681565b606060045f8581526020019081526020015f20838360405161044e9291906119dd565b9081526020016040518091039020805461046790611a22565b80601f016020809104026020016040519081016040528092919081815260200182805461049390611a22565b80156104de5780601f106104b5576101008083540402835291602001916104de565b820191905f5260205f20905b8154815290600101906020018083116104c157829003601f168201915b505050505090509392505050565b7f000000000000000000000000000000000000000000000000000000000000000081565b5f7f000000000000000000000000000000000000000000000000000000000000000073ffffffffffffffffffffffffffffffffffffffff166333727c4d836040518263ffffffff1660e01b815260040161056a91906112cc565b602060405180830381865afa158015610585573d5f803e3d5ffd5b505050506040513d601f19601f820116820180604052508101906105a99190611a7c565b9050919050565b5f8054906101000a900473ffffffffffffffffffffffffffffffffffffffff1673ffffffffffffffffffffffffffffffffffffffff163373ffffffffffffffffffffffffffffffffffffffff161461063d576040517f08c379a000000000000000000000000000000000000000000000000000000000815260040161063490611af1565b60405180910390fd5b8060035f8481526020019081526020015f205f6101000a81548167ffffffffffffffff021916908367ffffffffffffffff1602179055505050565b6002602052805f5260405f205f91509050805f015f9054906101000a900473ffffffffffffffffffffffffffffffffffffffff16908060010154908060020180546106c290611a22565b80601f01602080910402602001604051908101604052809291908181526020018280546106ee90611a22565b80156107395780601f1061071057610100808354040283529160200191610739565b820191905f5260205f20905b81548152906001019060200180831161071c57829003601f168201915b50505050509080600301805461074e90611a22565b80601f016020809104026020016040519081016040528092919081815260200182805461077a90611a22565b80156107c55780601f1061079c576101008083540402835291602001916107c5565b820191905f5260205f20905b8154815290600101906020018083116107a857829003601f168201915b5050505050905084565b6004602052815f5260405f20818051602081018201805184825260208301602085012081835280955050505050505f9150915050805461080e90611a22565b80601f016020809104026020016040519081016040528092919081815260200182805461083a90611a22565b80156108855780601f1061085c57610100808354040283529160200191610885565b820191905f5260205f20905b81548152906001019060200180831161086857829003601f168201915b505050505081565b5f8054906101000a900473ffffffffffffffffffffffffffffffffffffffff1681565b60015f9054906101000a900473ffffffffffffffffffffffffffffffffffffffff1681565b5f3390507f000000000000000000000000000000000000000000000000000000000000000073ffffffffffffffffffffffffffffffffffffffff168173ffffffffffffffffffffffffffffffffffffffff161461098b577f0000000000000000000000000000000000000000000000000000000000000000816040517f865c066e000000000000000000000000000000000000000000000000000000008152600401610982929190611b0f565b60405180910390fd5b5f60025f8881526020019081526020015f2090505f73ffffffffffffffffffffffffffffffffffffffff16815f015f9054906101000a900473ffffffffffffffffffffffffffffffffffffffff1673ffffffffffffffffffffffffffffffffffffffff1603610a2f576040517f08c379a0000000000000000000000000000000000000000000000000000000008152600401610a2690611b80565b60405180910390fd5b8585826003019182610a42929190611d3c565b50858560045f846001015481526020019081526020015f2083600201604051610a6b9190611e9b565b90815260200160405180910390209182610a86929190611f13565b507fb9ac0d9601c26e75ee070e76a3ea8a2a4bc36bbc534b932de84a609166cf410c8782600101548360020189898989604051610ac997969594939291906120b9565b60405180910390a150505050505050565b5f60025f8381526020019081526020015f2090505f73ffffffffffffffffffffffffffffffffffffffff16815f015f9054906101000a900473ffffffffffffffffffffffffffffffffffffffff1673ffffffffffffffffffffffffffffffffffffffff1603610b7e576040517f08c379a0000000000000000000000000000000000000000000000000000000008152600401610b7590611b80565b60405180910390fd5b5f816003018054610b8e90611a22565b905011610bd0576040517f08c379a0000000000000000000000000000000000000000000000000000000008152600401610bc79061216d565b60405180910390fd5b5f815f015f9054906101000a900473ffffffffffffffffffffffffffffffffffffffff1690505f826002018054610c0690611a22565b80601f0160208091040260200160405190810160405280929190818152602001828054610c3290611a22565b8015610c7d5780601f10610c5457610100808354040283529160200191610c7d565b820191905f5260205f20905b815481529060010190602001808311610c6057829003601f168201915b505050505090505f836003018054610c9490611a22565b80601f0160208091040260200160405190810160405280929190818152602001828054610cc090611a22565b8015610d0b5780601f10610ce257610100808354040283529160200191610d0b565b820191905f5260205f20905b815481529060010190602001808311610cee57829003601f168201915b505050505090505f8290505f8290505f8282604051602001610d2e9291906125cd565b60405160208183030381529060405290505f610d4982611092565b604051602001610d5991906126be565b60405160208183030381529060405290505f60015f9054906101000a900473ffffffffffffffffffffffffffffffffffffffff1673ffffffffffffffffffffffffffffffffffffffff1663f405e530898989866040518563ffffffff1660e01b8152600401610dcb9493929190612702565b6020604051808303815f875af1158015610de7573d5f803e3d5ffd5b505050506040513d601f19601f82011682018060405250810190610e0b9190611984565b905086604051610e1b91906127a7565b6040518091039020818973ffffffffffffffffffffffffffffffffffffffff167fc64190d52fdbace55b49506d85b6fb7984c505f4988e4ccf0d03913783e8a6a689604051610e6a91906127bd565b60405180910390a4808873ffffffffffffffffffffffffffffffffffffffff167f232a20897eccd77cd199098ecc15db4c2fe458c859f6272614e8c1153d0df82584604051610eb9919061144e565b60405180910390a350505050505050505050565b5f82828080601f0160208091040260200160405190810160405280939291908181526020018383808284375f81840152601f19601f8201169050808301925050505050505090505f7f000000000000000000000000000000000000000000000000000000000000000073ffffffffffffffffffffffffffffffffffffffff16635b9538063487853060035f8c81526020019081526020015f205f9054906101000a900467ffffffffffffffff166040518663ffffffff1660e01b8152600401610f9994939291906127dd565b60206040518083038185885af1158015610fb5573d5f803e3d5ffd5b50505050506040513d601f19601f82011682018060405250810190610fda9190611984565b90505f60025f8381526020019081526020015f20905082816002019081611001919061283a565b5033815f015f6101000a81548173ffffffffffffffffffffffffffffffffffffffff021916908373ffffffffffffffffffffffffffffffffffffffff1602179055508581600101819055507eea70aa9d39e3817fb34fb254478941e77c372c6f135536f7dd6173d236c1e78233888888604051611082959493929190612909565b60405180910390a1505050505050565b60606110b882604051806060016040528060408152602001612a546040913960016110bf565b9050919050565b60605f8451036110df5760405180602001604052805f8152509050611247565b5f826111105760036002865160046110f79190612982565b61110191906129c3565b61110b9190612a23565b611137565b60036002865161112091906129c3565b61112a9190612a23565b60046111369190612982565b5b90505f8167ffffffffffffffff81111561115457611153611663565b5b6040519080825280601f01601f1916602001820160405280156111865781602001600182028036833780820191505090505b509050600185016020820187885189016020810180515f82525b828410156111fb576003840193508351603f8160121c168701518653600186019550603f81600c1c168701518653600186019550603f8160061c168701518653600186019550603f81168701518653600186019550506111a0565b808252891561123b5760038c51066001811461121e576002811461123157611239565b603d6001870353603d6002870353611239565b603d60018703535b505b50505050505080925050505b9392505050565b5f604051905090565b5f80fd5b5f80fd5b5f819050919050565b6112718161125f565b811461127b575f80fd5b50565b5f8135905061128c81611268565b92915050565b5f602082840312156112a7576112a6611257565b5b5f6112b48482850161127e565b91505092915050565b6112c68161125f565b82525050565b5f6020820190506112df5f8301846112bd565b92915050565b5f67ffffffffffffffff82169050919050565b611301816112e5565b82525050565b5f60208201905061131a5f8301846112f8565b92915050565b5f80fd5b5f80fd5b5f80fd5b5f8083601f84011261134157611340611320565b5b8235905067ffffffffffffffff81111561135e5761135d611324565b5b60208301915083600182028301111561137a57611379611328565b5b9250929050565b5f805f6040848603121561139857611397611257565b5b5f6113a58682870161127e565b935050602084013567ffffffffffffffff8111156113c6576113c561125b565b5b6113d28682870161132c565b92509250509250925092565b5f81519050919050565b5f82825260208201905092915050565b8281835e5f83830152505050565b5f601f19601f8301169050919050565b5f611420826113de565b61142a81856113e8565b935061143a8185602086016113f8565b61144381611406565b840191505092915050565b5f6020820190508181035f8301526114668184611416565b905092915050565b5f73ffffffffffffffffffffffffffffffffffffffff82169050919050565b5f819050919050565b5f6114b06114ab6114a68461146e565b61148d565b61146e565b9050919050565b5f6114c182611496565b9050919050565b5f6114d2826114b7565b9050919050565b6114e2816114c8565b82525050565b5f6020820190506114fb5f8301846114d9565b92915050565b5f8115159050919050565b61151581611501565b82525050565b5f60208201905061152e5f83018461150c565b92915050565b61153d816112e5565b8114611547575f80fd5b50565b5f8135905061155881611534565b92915050565b5f806040838503121561157457611573611257565b5b5f6115818582860161127e565b92505060206115928582860161154a565b9150509250929050565b5f6115a68261146e565b9050919050565b6115b68161159c565b82525050565b5f81519050919050565b5f82825260208201905092915050565b5f6115e0826115bc565b6115ea81856115c6565b93506115fa8185602086016113f8565b61160381611406565b840191505092915050565b5f6080820190506116215f8301876115ad565b61162e60208301866112bd565b818103604083015261164081856115d6565b9050818103606083015261165481846115d6565b905095945050505050565b5f80fd5b7f4e487b71000000000000000000000000000000000000000000000000000000005f52604160045260245ffd5b61169982611406565b810181811067ffffffffffffffff821117156116b8576116b7611663565b5b80604052505050565b5f6116ca61124e565b90506116d68282611690565b919050565b5f67ffffffffffffffff8211156116f5576116f4611663565b5b6116fe82611406565b9050602081019050919050565b828183375f83830152505050565b5f61172b611726846116db565b6116c1565b9050828152602081018484840111156117475761174661165f565b5b61175284828561170b565b509392505050565b5f82601f83011261176e5761176d611320565b5b813561177e848260208601611719565b91505092915050565b5f806040838503121561179d5761179c611257565b5b5f6117aa8582860161127e565b925050602083013567ffffffffffffffff8111156117cb576117ca61125b565b5b6117d78582860161175a565b9150509250929050565b5f6020820190506117f45f8301846115ad565b92915050565b5f611804826114b7565b9050919050565b611814816117fa565b82525050565b5f60208201905061182d5f83018461180b565b92915050565b5f8083601f84011261184857611847611320565b5b8235905067ffffffffffffffff81111561186557611864611324565b5b60208301915083600182028301111561188157611880611328565b5b9250929050565b5f805f805f606086880312156118a1576118a0611257565b5b5f6118ae8882890161127e565b955050602086013567ffffffffffffffff8111156118cf576118ce61125b565b5b6118db88828901611833565b9450945050604086013567ffffffffffffffff8111156118fe576118fd61125b565b5b61190a88828901611833565b92509250509295509295909350565b5f61193361192e611929846112e5565b61148d565b61125f565b9050919050565b61194381611919565b82525050565b5f60408201905061195c5f8301856112bd565b611969602083018461193a565b9392505050565b5f8151905061197e81611268565b92915050565b5f6020828403121561199957611998611257565b5b5f6119a684828501611970565b91505092915050565b5f81905092915050565b5f6119c483856119af565b93506119d183858461170b565b82840190509392505050565b5f6119e98284866119b9565b91508190509392505050565b7f4e487b71000000000000000000000000000000000000000000000000000000005f52602260045260245ffd5b5f6002820490506001821680611a3957607f821691505b602082108103611a4c57611a4b6119f5565b5b50919050565b611a5b81611501565b8114611a65575f80fd5b50565b5f81519050611a7681611a52565b92915050565b5f60208284031215611a9157611a90611257565b5b5f611a9e84828501611a68565b91505092915050565b7f4f6e6c79206f776e6572000000000000000000000000000000000000000000005f82015250565b5f611adb600a836113e8565b9150611ae682611aa7565b602082019050919050565b5f6020820190508181035f830152611b0881611acf565b9050919050565b5f604082019050611b225f8301856114d9565b611b2f60208301846114d9565b9392505050565b7f52657175657374206e6f742065786973747300000000000000000000000000005f82015250565b5f611b6a6012836113e8565b9150611b7582611b36565b602082019050919050565b5f6020820190508181035f830152611b9781611b5e565b9050919050565b5f82905092915050565b5f819050815f5260205f209050919050565b5f6020601f8301049050919050565b5f82821b905092915050565b5f60088302611c047fffffffffffffffffffffffffffffffffffffffffffffffffffffffffffffffff82611bc9565b611c0e8683611bc9565b95508019841693508086168417925050509392505050565b5f611c40611c3b611c368461125f565b61148d565b61125f565b9050919050565b5f819050919050565b611c5983611c26565b611c6d611c6582611c47565b848454611bd5565b825550505050565b5f90565b611c81611c75565b611c8c818484611c50565b505050565b5b81811015611caf57611ca45f82611c79565b600181019050611c92565b5050565b601f821115611cf457611cc581611ba8565b611cce84611bba565b81016020851015611cdd578190505b611cf1611ce985611bba565b830182611c91565b50505b505050565b5f82821c905092915050565b5f611d145f1984600802611cf9565b1980831691505092915050565b5f611d2c8383611d05565b9150826002028217905092915050565b611d468383611b9e565b67ffffffffffffffff811115611d5f57611d5e611663565b5b611d698254611a22565b611d74828285611cb3565b5f601f831160018114611da1575f8415611d8f578287013590505b611d998582611d21565b865550611e00565b601f198416611daf86611ba8565b5f5b82811015611dd657848901358255600182019150602085019450602081019050611db1565b86831015611df35784890135611def601f891682611d05565b8355505b6001600288020188555050505b50505050505050565b5f819050815f5260205f209050919050565b5f8154611e2781611a22565b611e3181866119af565b9450600182165f8114611e4b5760018114611e6057611e92565b60ff1983168652811515820286019350611e92565b611e6985611e09565b5f5b83811015611e8a57815481890152600182019150602081019050611e6b565b838801955050505b50505092915050565b5f611ea68284611e1b565b915081905092915050565b5f82905092915050565b5f819050815f5260205f209050919050565b601f821115611f0e57611edf81611ebb565b611ee884611bba565b81016020851015611ef7578190505b611f0b611f0385611bba565b830182611c91565b50505b505050565b611f1d8383611eb1565b67ffffffffffffffff811115611f3657611f35611663565b5b611f408254611a22565b611f4b828285611ecd565b5f601f831160018114611f78575f8415611f66578287013590505b611f708582611d21565b865550611fd7565b601f198416611f8686611ebb565b5f5b82811015611fad57848901358255600182019150602085019450602081019050611f88565b86831015611fca5784890135611fc6601f891682611d05565b8355505b6001600288020188555050505b50505050505050565b5f8154611fec81611a22565b611ff681866113e8565b9450600182165f8114612010576001811461202657612058565b60ff198316865281151560200286019350612058565b61202f85611e09565b5f5b8381101561205057815481890152600182019150602081019050612031565b808801955050505b50505092915050565b5f61206c83856113e8565b935061207983858461170b565b61208283611406565b840190509392505050565b5f61209883856115c6565b93506120a583858461170b565b6120ae83611406565b840190509392505050565b5f60a0820190506120cc5f83018a6112bd565b6120d960208301896112bd565b81810360408301526120eb8188611fe0565b90508181036060830152612100818688612061565b9050818103608083015261211581848661208d565b905098975050505050505050565b7f414920726573756c74206e6f7420617661696c61626c650000000000000000005f82015250565b5f6121576017836113e8565b915061216282612123565b602082019050919050565b5f6020820190508181035f8301526121848161214b565b9050919050565b7f7b000000000000000000000000000000000000000000000000000000000000005f82015250565b5f6121bf6001836119af565b91506121ca8261218b565b600182019050919050565b7f227469746c65223a202241494743204d65746164617461222c000000000000005f82015250565b5f6122096019836119af565b9150612214826121d5565b601982019050919050565b7f226e616d65223a202245524320373030372054657874204261736564204e46545f8201527f222c000000000000000000000000000000000000000000000000000000000000602082015250565b5f6122796022836119af565b91506122848261221f565b602282019050919050565b7f226465736372697074696f6e223a202241492047656e65726174656420436f6e5f8201527f74656e74222c0000000000000000000000000000000000000000000000000000602082015250565b5f6122e96026836119af565b91506122f48261228f565b602682019050919050565b7f22696d616765223a202268747470733a2f2f6c6176656e6465722d61646f72615f8201527f626c652d68756d6d696e67626972642d3737342e6d7970696e6174612e636c6f60208201527f75642f697066732f6261666b72656968796777777734676477756d707577626e60408201527f69347a7666616134673272683561616e67707078616a68336b79627873726d6760608201527f757a79222c000000000000000000000000000000000000000000000000000000608082015250565b5f6123cb6085836119af565b91506123d6826122ff565b608582019050919050565b7f2270726f6d7074223a20220000000000000000000000000000000000000000005f82015250565b5f612415600b836119af565b9150612420826123e1565b600b82019050919050565b5f612435826113de565b61243f81856119af565b935061244f8185602086016113f8565b80840191505092915050565b7f222c0000000000000000000000000000000000000000000000000000000000005f82015250565b5f61248f6002836119af565b915061249a8261245b565b600282019050919050565b7f22616967635f74797065223a202274657874222c0000000000000000000000005f82015250565b5f6124d96014836119af565b91506124e4826124a5565b601482019050919050565b7f22616967635f64617461223a20220000000000000000000000000000000000005f82015250565b5f612523600e836119af565b915061252e826124ef565b600e82019050919050565b7f2270726f6f665f74797065223a20226f704d4c220000000000000000000000005f82015250565b5f61256d6014836119af565b915061257882612539565b601482019050919050565b7f7d000000000000000000000000000000000000000000000000000000000000005f82015250565b5f6125b76001836119af565b91506125c282612583565b600182019050919050565b5f6125d7826121b3565b91506125e2826121fd565b91506125ed8261226d565b91506125f8826122dd565b9150612603826123bf565b915061260e82612409565b915061261a828561242b565b915061262582612483565b9150612630826124cd565b915061263b82612517565b9150612647828461242b565b915061265282612483565b915061265d82612561565b9150612668826125ab565b91508190509392505050565b7f646174613a6170706c69636174696f6e2f6a736f6e3b6261736536342c0000005f82015250565b5f6126a8601d836119af565b91506126b382612674565b601d82019050919050565b5f6126c88261269c565b91506126d4828461242b565b915081905092915050565b50565b5f6126ed5f836115c6565b91506126f8826126df565b5f82019050919050565b5f60a0820190506127155f8301876115ad565b818103602083015261272781866115d6565b9050818103604083015261273b81856115d6565b9050818103606083015261274f8184611416565b90508181036080830152612762816126e2565b905095945050505050565b5f81905092915050565b5f612781826115bc565b61278b818561276d565b935061279b8185602086016113f8565b80840191505092915050565b5f6127b28284612777565b915081905092915050565b5f6020820190508181035f8301526127d581846115d6565b905092915050565b5f60a0820190506127f05f8301876112bd565b818103602083015261280281866115d6565b905061281160408301856115ad565b61281e60608301846112f8565b818103608083015261282f816126e2565b905095945050505050565b612843826115bc565b67ffffffffffffffff81111561285c5761285b611663565b5b6128668254611a22565b612871828285611cb3565b5f60209050601f8311600181146128a2575f8415612890578287015190505b61289a8582611d21565b865550612901565b601f1984166128b086611ba8565b5f5b828110156128d7578489015182556001820191506020850194506020810190506128b2565b868310156128f457848901516128f0601f891682611d05565b8355505b6001600288020188555050505b505050505050565b5f60808201905061291c5f8301886112bd565b61292960208301876115ad565b61293660408301866112bd565b8181036060830152612949818486612061565b90509695505050505050565b7f4e487b71000000000000000000000000000000000000000000000000000000005f52601160045260245ffd5b5f61298c8261125f565b91506129978361125f565b92508282026129a58161125f565b915082820484148315176129bc576129bb612955565b5b5092915050565b5f6129cd8261125f565b91506129d88361125f565b92508282019050808211156129f0576129ef612955565b5b92915050565b7f4e487b71000000000000000000000000000000000000000000000000000000005f52601260045260245ffd5b5f612a2d8261125f565b9150612a388361125f565b925082612a4857612a476129f6565b5b82820490509291505056fe4142434445464748494a4b4c4d4e4f505152535455565758595a6162636465666768696a6b6c6d6e6f707172737475767778797a303132333435363738392b2fa2646970667358221220e2198151d22c7a9d1243704991fb4792e7485bc15de6c0a37812c6e91ecccc4c64736f6c634300081a0033",
					"opcodes": "PUSH1 0xA0 PUSH1 0x40 MSTORE CALLVALUE DUP1 ISZERO PUSH2 0xF JUMPI PUSH0 DUP1 REVERT JUMPDEST POP PUSH1 0x40 MLOAD PUSH2 0x2CD9 CODESIZE SUB DUP1 PUSH2 0x2CD9 DUP4 CODECOPY DUP2 DUP2 ADD PUSH1 0x40 MSTORE DUP2 ADD SWAP1 PUSH2 0x31 SWAP2 SWAP1 PUSH2 0x197 JUMP JUMPDEST DUP2 DUP1 PUSH20 0xFFFFFFFFFFFFFFFFFFFFFFFFFFFFFFFFFFFFFFFF AND PUSH1 0x80 DUP2 PUSH20 0xFFFFFFFFFFFFFFFFFFFFFFFFFFFFFFFFFFFFFFFF AND DUP2 MSTORE POP POP POP CALLER PUSH0 DUP1 PUSH2 0x100 EXP DUP2 SLOAD DUP2 PUSH20 0xFFFFFFFFFFFFFFFFFFFFFFFFFFFFFFFFFFFFFFFF MUL NOT AND SWAP1 DUP4 PUSH20 0xFFFFFFFFFFFFFFFFFFFFFFFFFFFFFFFFFFFFFFFF AND MUL OR SWAP1 SSTORE POP DUP1 PUSH1 0x1 PUSH0 PUSH2 0x100 EXP DUP2 SLOAD DUP2 PUSH20 0xFFFFFFFFFFFFFFFFFFFFFFFFFFFFFFFFFFFFFFFF MUL NOT AND SWAP1 DUP4 PUSH20 0xFFFFFFFFFFFFFFFFFFFFFFFFFFFFFFFFFFFFFFFF AND MUL OR SWAP1 SSTORE POP POP POP PUSH2 0x1D5 JUMP JUMPDEST PUSH0 DUP1 REVERT JUMPDEST PUSH0 PUSH20 0xFFFFFFFFFFFFFFFFFFFFFFFFFFFFFFFFFFFFFFFF DUP3 AND SWAP1 POP SWAP2 SWAP1 POP JUMP JUMPDEST PUSH0 PUSH2 0x11A DUP3 PUSH2 0xF1 JUMP JUMPDEST SWAP1 POP SWAP2 SWAP1 POP JUMP JUMPDEST PUSH0 PUSH2 0x12B DUP3 PUSH2 0x110 JUMP JUMPDEST SWAP1 POP SWAP2 SWAP1 POP JUMP JUMPDEST PUSH2 0x13B DUP2 PUSH2 0x121 JUMP JUMPDEST DUP2 EQ PUSH2 0x145 JUMPI PUSH0 DUP1 REVERT JUMPDEST POP JUMP JUMPDEST PUSH0 DUP2 MLOAD SWAP1 POP PUSH2 0x156 DUP2 PUSH2 0x132 JUMP JUMPDEST SWAP3 SWAP2 POP POP JUMP JUMPDEST PUSH0 PUSH2 0x166 DUP3 PUSH2 0x110 JUMP JUMPDEST SWAP1 POP SWAP2 SWAP1 POP JUMP JUMPDEST PUSH2 0x176 DUP2 PUSH2 0x15C JUMP JUMPDEST DUP2 EQ PUSH2 0x180 JUMPI PUSH0 DUP1 REVERT JUMPDEST POP JUMP JUMPDEST PUSH0 DUP2 MLOAD SWAP1 POP PUSH2 0x191 DUP2 PUSH2 0x16D JUMP JUMPDEST SWAP3 SWAP2 POP POP JUMP JUMPDEST PUSH0 DUP1 PUSH1 0x40 DUP4 DUP6 SUB SLT ISZERO PUSH2 0x1AD JUMPI PUSH2 0x1AC PUSH2 0xED JUMP JUMPDEST JUMPDEST PUSH0 PUSH2 0x1BA DUP6 DUP3 DUP7 ADD PUSH2 0x148 JUMP JUMPDEST SWAP3 POP POP PUSH1 0x20 PUSH2 0x1CB DUP6 DUP3 DUP7 ADD PUSH2 0x183 JUMP JUMPDEST SWAP2 POP POP SWAP3 POP SWAP3 SWAP1 POP JUMP JUMPDEST PUSH1 0x80 MLOAD PUSH2 0x2AC9 PUSH2 0x210 PUSH0 CODECOPY PUSH0 DUP2 DUP2 PUSH2 0x345 ADD MSTORE DUP2 DUP2 PUSH2 0x4EE ADD MSTORE DUP2 DUP2 PUSH2 0x513 ADD MSTORE DUP2 DUP2 PUSH2 0x8DB ADD MSTORE DUP2 DUP2 PUSH2 0x92E ADD MSTORE PUSH2 0xF17 ADD MSTORE PUSH2 0x2AC9 PUSH0 RETURN INVALID PUSH1 0x80 PUSH1 0x40 MSTORE PUSH1 0x4 CALLDATASIZE LT PUSH2 0xC1 JUMPI PUSH0 CALLDATALOAD PUSH1 0xE0 SHR DUP1 PUSH4 0x81D12C58 GT PUSH2 0x7E JUMPI DUP1 PUSH4 0xA1216472 GT PUSH2 0x58 JUMPI DUP1 PUSH4 0xA1216472 EQ PUSH2 0x2AC JUMPI DUP1 PUSH4 0xB0347814 EQ PUSH2 0x2D6 JUMPI DUP1 PUSH4 0xDE1F8676 EQ PUSH2 0x2FE JUMPI DUP1 PUSH4 0xFAC5D7E1 EQ PUSH2 0x326 JUMPI PUSH2 0xC1 JUMP JUMPDEST DUP1 PUSH4 0x81D12C58 EQ PUSH2 0x207 JUMPI DUP1 PUSH4 0x8CBC52D9 EQ PUSH2 0x246 JUMPI DUP1 PUSH4 0x8DA5CB5B EQ PUSH2 0x282 JUMPI PUSH2 0xC1 JUMP JUMPDEST DUP1 PUSH4 0x127E8E4D EQ PUSH2 0xC5 JUMPI DUP1 PUSH4 0x20F38718 EQ PUSH2 0x101 JUMPI DUP1 PUSH4 0x2C6296B7 EQ PUSH2 0x13D JUMPI DUP1 PUSH4 0x31B221CD EQ PUSH2 0x179 JUMPI DUP1 PUSH4 0x33727C4D EQ PUSH2 0x1A3 JUMPI DUP1 PUSH4 0x813D1E15 EQ PUSH2 0x1DF JUMPI JUMPDEST PUSH0 DUP1 REVERT JUMPDEST CALLVALUE DUP1 ISZERO PUSH2 0xD0 JUMPI PUSH0 DUP1 REVERT JUMPDEST POP PUSH2 0xEB PUSH1 0x4 DUP1 CALLDATASIZE SUB DUP2 ADD SWAP1 PUSH2 0xE6 SWAP2 SWAP1 PUSH2 0x1292 JUMP JUMPDEST PUSH2 0x342 JUMP JUMPDEST PUSH1 0x40 MLOAD PUSH2 0xF8 SWAP2 SWAP1 PUSH2 0x12CC JUMP JUMPDEST PUSH1 0x40 MLOAD DUP1 SWAP2 SUB SWAP1 RETURN JUMPDEST CALLVALUE DUP1 ISZERO PUSH2 0x10C JUMPI PUSH0 DUP1 REVERT JUMPDEST POP PUSH2 0x127 PUSH1 0x4 DUP1 CALLDATASIZE SUB DUP2 ADD SWAP1 PUSH2 0x122 SWAP2 SWAP1 PUSH2 0x1292 JUMP JUMPDEST PUSH2 0x407 JUMP JUMPDEST PUSH1 0x40 MLOAD PUSH2 0x134 SWAP2 SWAP1 PUSH2 0x1307 JUMP JUMPDEST PUSH1 0x40 MLOAD DUP1 SWAP2 SUB SWAP1 RETURN JUMPDEST CALLVALUE DUP1 ISZERO PUSH2 0x148 JUMPI PUSH0 DUP1 REVERT JUMPDEST POP PUSH2 0x163 PUSH1 0x4 DUP1 CALLDATASIZE SUB DUP2 ADD SWAP1 PUSH2 0x15E SWAP2 SWAP1 PUSH2 0x1381 JUMP JUMPDEST PUSH2 0x42B JUMP JUMPDEST PUSH1 0x40 MLOAD PUSH2 0x170 SWAP2 SWAP1 PUSH2 0x144E JUMP JUMPDEST PUSH1 0x40 MLOAD DUP1 SWAP2 SUB SWAP1 RETURN JUMPDEST CALLVALUE DUP1 ISZERO PUSH2 0x184 JUMPI PUSH0 DUP1 REVERT JUMPDEST POP PUSH2 0x18D PUSH2 0x4EC JUMP JUMPDEST PUSH1 0x40 MLOAD PUSH2 0x19A SWAP2 SWAP1 PUSH2 0x14E8 JUMP JUMPDEST PUSH1 0x40 MLOAD DUP1 SWAP2 SUB SWAP1 RETURN JUMPDEST CALLVALUE DUP1 ISZERO PUSH2 0x1AE JUMPI PUSH0 DUP1 REVERT JUMPDEST POP PUSH2 0x1C9 PUSH1 0x4 DUP1 CALLDATASIZE SUB DUP2 ADD SWAP1 PUSH2 0x1C4 SWAP2 SWAP1 PUSH2 0x1292 JUMP JUMPDEST PUSH2 0x510 JUMP JUMPDEST PUSH1 0x40 MLOAD PUSH2 0x1D6 SWAP2 SWAP1 PUSH2 0x151B JUMP JUMPDEST PUSH1 0x40 MLOAD DUP1 SWAP2 SUB SWAP1 RETURN JUMPDEST CALLVALUE DUP1 ISZERO PUSH2 0x1EA JUMPI PUSH0 DUP1 REVERT JUMPDEST POP PUSH2 0x205 PUSH1 0x4 DUP1 CALLDATASIZE SUB DUP2 ADD SWAP1 PUSH2 0x200 SWAP2 SWAP1 PUSH2 0x155E JUMP JUMPDEST PUSH2 0x5B0 JUMP JUMPDEST STOP JUMPDEST CALLVALUE DUP1 ISZERO PUSH2 0x212 JUMPI PUSH0 DUP1 REVERT JUMPDEST POP PUSH2 0x22D PUSH1 0x4 DUP1 CALLDATASIZE SUB DUP2 ADD SWAP1 PUSH2 0x228 SWAP2 SWAP1 PUSH2 0x1292 JUMP JUMPDEST PUSH2 0x678 JUMP JUMPDEST PUSH1 0x40 MLOAD PUSH2 0x23D SWAP5 SWAP4 SWAP3 SWAP2 SWAP1 PUSH2 0x160E JUMP JUMPDEST PUSH1 0x40 MLOAD DUP1 SWAP2 SUB SWAP1 RETURN JUMPDEST CALLVALUE DUP1 ISZERO PUSH2 0x251 JUMPI PUSH0 DUP1 REVERT JUMPDEST POP PUSH2 0x26C PUSH1 0x4 DUP1 CALLDATASIZE SUB DUP2 ADD SWAP1 PUSH2 0x267 SWAP2 SWAP1 PUSH2 0x1787 JUMP JUMPDEST PUSH2 0x7CF JUMP JUMPDEST PUSH1 0x40 MLOAD PUSH2 0x279 SWAP2 SWAP1 PUSH2 0x144E JUMP JUMPDEST PUSH1 0x40 MLOAD DUP1 SWAP2 SUB SWAP1 RETURN JUMPDEST CALLVALUE DUP1 ISZERO PUSH2 0x28D JUMPI PUSH0 DUP1 REVERT JUMPDEST POP PUSH2 0x296 PUSH2 0x88D JUMP JUMPDEST PUSH1 0x40 MLOAD PUSH2 0x2A3 SWAP2 SWAP1 PUSH2 0x17E1 JUMP JUMPDEST PUSH1 0x40 MLOAD DUP1 SWAP2 SUB SWAP1 RETURN JUMPDEST CALLVALUE DUP1 ISZERO PUSH2 0x2B7 JUMPI PUSH0 DUP1 REVERT JUMPDEST POP PUSH2 0x2C0 PUSH2 0x8B0 JUMP JUMPDEST PUSH1 0x40 MLOAD PUSH2 0x2CD SWAP2 SWAP1 PUSH2 0x181A JUMP JUMPDEST PUSH1 0x40 MLOAD DUP1 SWAP2 SUB SWAP1 RETURN JUMPDEST CALLVALUE DUP1 ISZERO PUSH2 0x2E1 JUMPI PUSH0 DUP1 REVERT JUMPDEST POP PUSH2 0x2FC PUSH1 0x4 DUP1 CALLDATASIZE SUB DUP2 ADD SWAP1 PUSH2 0x2F7 SWAP2 SWAP1 PUSH2 0x1888 JUMP JUMPDEST PUSH2 0x8D5 JUMP JUMPDEST STOP JUMPDEST CALLVALUE DUP1 ISZERO PUSH2 0x309 JUMPI PUSH0 DUP1 REVERT JUMPDEST POP PUSH2 0x324 PUSH1 0x4 DUP1 CALLDATASIZE SUB DUP2 ADD SWAP1 PUSH2 0x31F SWAP2 SWAP1 PUSH2 0x1292 JUMP JUMPDEST PUSH2 0xADA JUMP JUMPDEST STOP JUMPDEST PUSH2 0x340 PUSH1 0x4 DUP1 CALLDATASIZE SUB DUP2 ADD SWAP1 PUSH2 0x33B SWAP2 SWAP1 PUSH2 0x1381 JUMP JUMPDEST PUSH2 0xECD JUMP JUMPDEST STOP JUMPDEST PUSH0 PUSH32 0x0 PUSH20 0xFFFFFFFFFFFFFFFFFFFFFFFFFFFFFFFFFFFFFFFF AND PUSH3 0xE1D8D0 DUP4 PUSH1 0x3 PUSH0 DUP7 DUP2 MSTORE PUSH1 0x20 ADD SWAP1 DUP2 MSTORE PUSH1 0x20 ADD PUSH0 KECCAK256 PUSH0 SWAP1 SLOAD SWAP1 PUSH2 0x100 EXP SWAP1 DIV PUSH8 0xFFFFFFFFFFFFFFFF AND PUSH1 0x40 MLOAD DUP4 PUSH4 0xFFFFFFFF AND PUSH1 0xE0 SHL DUP2 MSTORE PUSH1 0x4 ADD PUSH2 0x3C1 SWAP3 SWAP2 SWAP1 PUSH2 0x1949 JUMP JUMPDEST PUSH1 0x20 PUSH1 0x40 MLOAD DUP1 DUP4 SUB DUP2 DUP7 GAS STATICCALL ISZERO DUP1 ISZERO PUSH2 0x3DC JUMPI RETURNDATASIZE PUSH0 DUP1 RETURNDATACOPY RETURNDATASIZE PUSH0 REVERT JUMPDEST POP POP POP POP PUSH1 0x40 MLOAD RETURNDATASIZE PUSH1 0x1F NOT PUSH1 0x1F DUP3 ADD AND DUP3 ADD DUP1 PUSH1 0x40 MSTORE POP DUP2 ADD SWAP1 PUSH2 0x400 SWAP2 SWAP1 PUSH2 0x1984 JUMP JUMPDEST SWAP1 POP SWAP2 SWAP1 POP JUMP JUMPDEST PUSH1 0x3 PUSH1 0x20 MSTORE DUP1 PUSH0 MSTORE PUSH1 0x40 PUSH0 KECCAK256 PUSH0 SWAP2 POP SLOAD SWAP1 PUSH2 0x100 EXP SWAP1 DIV PUSH8 0xFFFFFFFFFFFFFFFF AND DUP2 JUMP JUMPDEST PUSH1 0x60 PUSH1 0x4 PUSH0 DUP6 DUP2 MSTORE PUSH1 0x20 ADD SWAP1 DUP2 MSTORE PUSH1 0x20 ADD PUSH0 KECCAK256 DUP4 DUP4 PUSH1 0x40 MLOAD PUSH2 0x44E SWAP3 SWAP2 SWAP1 PUSH2 0x19DD JUMP JUMPDEST SWAP1 DUP2 MSTORE PUSH1 0x20 ADD PUSH1 0x40 MLOAD DUP1 SWAP2 SUB SWAP1 KECCAK256 DUP1 SLOAD PUSH2 0x467 SWAP1 PUSH2 0x1A22 JUMP JUMPDEST DUP1 PUSH1 0x1F ADD PUSH1 0x20 DUP1 SWAP2 DIV MUL PUSH1 0x20 ADD PUSH1 0x40 MLOAD SWAP1 DUP2 ADD PUSH1 0x40 MSTORE DUP1 SWAP3 SWAP2 SWAP1 DUP2 DUP2 MSTORE PUSH1 0x20 ADD DUP3 DUP1 SLOAD PUSH2 0x493 SWAP1 PUSH2 0x1A22 JUMP JUMPDEST DUP1 ISZERO PUSH2 0x4DE JUMPI DUP1 PUSH1 0x1F LT PUSH2 0x4B5 JUMPI PUSH2 0x100 DUP1 DUP4 SLOAD DIV MUL DUP4 MSTORE SWAP2 PUSH1 0x20 ADD SWAP2 PUSH2 0x4DE JUMP JUMPDEST DUP3 ADD SWAP2 SWAP1 PUSH0 MSTORE PUSH1 0x20 PUSH0 KECCAK256 SWAP1 JUMPDEST DUP2 SLOAD DUP2 MSTORE SWAP1 PUSH1 0x1 ADD SWAP1 PUSH1 0x20 ADD DUP1 DUP4 GT PUSH2 0x4C1 JUMPI DUP3 SWAP1 SUB PUSH1 0x1F AND DUP3 ADD SWAP2 JUMPDEST POP POP POP POP POP SWAP1 POP SWAP4 SWAP3 POP POP POP JUMP JUMPDEST PUSH32 0x0 DUP2 JUMP JUMPDEST PUSH0 PUSH32 0x0 PUSH20 0xFFFFFFFFFFFFFFFFFFFFFFFFFFFFFFFFFFFFFFFF AND PUSH4 0x33727C4D DUP4 PUSH1 0x40 MLOAD DUP3 PUSH4 0xFFFFFFFF AND PUSH1 0xE0 SHL DUP2 MSTORE PUSH1 0x4 ADD PUSH2 0x56A SWAP2 SWAP1 PUSH2 0x12CC JUMP JUMPDEST PUSH1 0x20 PUSH1 0x40 MLOAD DUP1 DUP4 SUB DUP2 DUP7 GAS STATICCALL ISZERO DUP1 ISZERO PUSH2 0x585 JUMPI RETURNDATASIZE PUSH0 DUP1 RETURNDATACOPY RETURNDATASIZE PUSH0 REVERT JUMPDEST POP POP POP POP PUSH1 0x40 MLOAD RETURNDATASIZE PUSH1 0x1F NOT PUSH1 0x1F DUP3 ADD AND DUP3 ADD DUP1 PUSH1 0x40 MSTORE POP DUP2 ADD SWAP1 PUSH2 0x5A9 SWAP2 SWAP1 PUSH2 0x1A7C JUMP JUMPDEST SWAP1 POP SWAP2 SWAP1 POP JUMP JUMPDEST PUSH0 DUP1 SLOAD SWAP1 PUSH2 0x100 EXP SWAP1 DIV PUSH20 0xFFFFFFFFFFFFFFFFFFFFFFFFFFFFFFFFFFFFFFFF AND PUSH20 0xFFFFFFFFFFFFFFFFFFFFFFFFFFFFFFFFFFFFFFFF AND CALLER PUSH20 0xFFFFFFFFFFFFFFFFFFFFFFFFFFFFFFFFFFFFFFFF AND EQ PUSH2 0x63D JUMPI PUSH1 0x40 MLOAD PUSH32 0x8C379A000000000000000000000000000000000000000000000000000000000 DUP2 MSTORE PUSH1 0x4 ADD PUSH2 0x634 SWAP1 PUSH2 0x1AF1 JUMP JUMPDEST PUSH1 0x40 MLOAD DUP1 SWAP2 SUB SWAP1 REVERT JUMPDEST DUP1 PUSH1 0x3 PUSH0 DUP5 DUP2 MSTORE PUSH1 0x20 ADD SWAP1 DUP2 MSTORE PUSH1 0x20 ADD PUSH0 KECCAK256 PUSH0 PUSH2 0x100 EXP DUP2 SLOAD DUP2 PUSH8 0xFFFFFFFFFFFFFFFF MUL NOT AND SWAP1 DUP4 PUSH8 0xFFFFFFFFFFFFFFFF AND MUL OR SWAP1 SSTORE POP POP POP JUMP JUMPDEST PUSH1 0x2 PUSH1 0x20 MSTORE DUP1 PUSH0 MSTORE PUSH1 0x40 PUSH0 KECCAK256 PUSH0 SWAP2 POP SWAP1 POP DUP1 PUSH0 ADD PUSH0 SWAP1 SLOAD SWAP1 PUSH2 0x100 EXP SWAP1 DIV PUSH20 0xFFFFFFFFFFFFFFFFFFFFFFFFFFFFFFFFFFFFFFFF AND SWAP1 DUP1 PUSH1 0x1 ADD SLOAD SWAP1 DUP1 PUSH1 0x2 ADD DUP1 SLOAD PUSH2 0x6C2 SWAP1 PUSH2 0x1A22 JUMP JUMPDEST DUP1 PUSH1 0x1F ADD PUSH1 0x20 DUP1 SWAP2 DIV MUL PUSH1 0x20 ADD PUSH1 0x40 MLOAD SWAP1 DUP2 ADD PUSH1 0x40 MSTORE DUP1 SWAP3 SWAP2 SWAP1 DUP2 DUP2 MSTORE PUSH1 0x20 ADD DUP3 DUP1 SLOAD PUSH2 0x6EE SWAP1 PUSH2 0x1A22 JUMP JUMPDEST DUP1 ISZERO PUSH2 0x739 JUMPI DUP1 PUSH1 0x1F LT PUSH2 0x710 JUMPI PUSH2 0x100 DUP1 DUP4 SLOAD DIV MUL DUP4 MSTORE SWAP2 PUSH1 0x20 ADD SWAP2 PUSH2 0x739 JUMP JUMPDEST DUP3 ADD SWAP2 SWAP1 PUSH0 MSTORE PUSH1 0x20 PUSH0 KECCAK256 SWAP1 JUMPDEST DUP2 SLOAD DUP2 MSTORE SWAP1 PUSH1 0x1 ADD SWAP1 PUSH1 0x20 ADD DUP1 DUP4 GT PUSH2 0x71C JUMPI DUP3 SWAP1 SUB PUSH1 0x1F AND DUP3 ADD SWAP2 JUMPDEST POP POP POP POP POP SWAP1 DUP1 PUSH1 0x3 ADD DUP1 SLOAD PUSH2 0x74E SWAP1 PUSH2 0x1A22 JUMP JUMPDEST DUP1 PUSH1 0x1F ADD PUSH1 0x20 DUP1 SWAP2 DIV MUL PUSH1 0x20 ADD PUSH1 0x40 MLOAD SWAP1 DUP2 ADD PUSH1 0x40 MSTORE DUP1 SWAP3 SWAP2 SWAP1 DUP2 DUP2 MSTORE PUSH1 0x20 ADD DUP3 DUP1 SLOAD PUSH2 0x77A SWAP1 PUSH2 0x1A22 JUMP JUMPDEST DUP1 ISZERO PUSH2 0x7C5 JUMPI DUP1 PUSH1 0x1F LT PUSH2 0x79C JUMPI PUSH2 0x100 DUP1 DUP4 SLOAD DIV MUL DUP4 MSTORE SWAP2 PUSH1 0x20 ADD SWAP2 PUSH2 0x7C5 JUMP JUMPDEST DUP3 ADD SWAP2 SWAP1 PUSH0 MSTORE PUSH1 0x20 PUSH0 KECCAK256 SWAP1 JUMPDEST DUP2 SLOAD DUP2 MSTORE SWAP1 PUSH1 0x1 ADD SWAP1 PUSH1 0x20 ADD DUP1 DUP4 GT PUSH2 0x7A8 JUMPI DUP3 SWAP1 SUB PUSH1 0x1F AND DUP3 ADD SWAP2 JUMPDEST POP POP POP POP POP SWAP1 POP DUP5 JUMP JUMPDEST PUSH1 0x4 PUSH1 0x20 MSTORE DUP2 PUSH0 MSTORE PUSH1 0x40 PUSH0 KECCAK256 DUP2 DUP1 MLOAD PUSH1 0x20 DUP2 ADD DUP3 ADD DUP1 MLOAD DUP5 DUP3 MSTORE PUSH1 0x20 DUP4 ADD PUSH1 0x20 DUP6 ADD KECCAK256 DUP2 DUP4 MSTORE DUP1 SWAP6 POP POP POP POP POP POP PUSH0 SWAP2 POP SWAP2 POP POP DUP1 SLOAD PUSH2 0x80E SWAP1 PUSH2 0x1A22 JUMP JUMPDEST DUP1 PUSH1 0x1F ADD PUSH1 0x20 DUP1 SWAP2 DIV MUL PUSH1 0x20 ADD PUSH1 0x40 MLOAD SWAP1 DUP2 ADD PUSH1 0x40 MSTORE DUP1 SWAP3 SWAP2 SWAP1 DUP2 DUP2 MSTORE PUSH1 0x20 ADD DUP3 DUP1 SLOAD PUSH2 0x83A SWAP1 PUSH2 0x1A22 JUMP JUMPDEST DUP1 ISZERO PUSH2 0x885 JUMPI DUP1 PUSH1 0x1F LT PUSH2 0x85C JUMPI PUSH2 0x100 DUP1 DUP4 SLOAD DIV MUL DUP4 MSTORE SWAP2 PUSH1 0x20 ADD SWAP2 PUSH2 0x885 JUMP JUMPDEST DUP3 ADD SWAP2 SWAP1 PUSH0 MSTORE PUSH1 0x20 PUSH0 KECCAK256 SWAP1 JUMPDEST DUP2 SLOAD DUP2 MSTORE SWAP1 PUSH1 0x1 ADD SWAP1 PUSH1 0x20 ADD DUP1 DUP4 GT PUSH2 0x868 JUMPI DUP3 SWAP1 SUB PUSH1 0x1F AND DUP3 ADD SWAP2 JUMPDEST POP POP POP POP POP DUP2 JUMP JUMPDEST PUSH0 DUP1 SLOAD SWAP1 PUSH2 0x100 EXP SWAP1 DIV PUSH20 0xFFFFFFFFFFFFFFFFFFFFFFFFFFFFFFFFFFFFFFFF AND DUP2 JUMP JUMPDEST PUSH1 0x1 PUSH0 SWAP1 SLOAD SWAP1 PUSH2 0x100 EXP SWAP1 DIV PUSH20 0xFFFFFFFFFFFFFFFFFFFFFFFFFFFFFFFFFFFFFFFF AND DUP2 JUMP JUMPDEST PUSH0 CALLER SWAP1 POP PUSH32 0x0 PUSH20 0xFFFFFFFFFFFFFFFFFFFFFFFFFFFFFFFFFFFFFFFF AND DUP2 PUSH20 0xFFFFFFFFFFFFFFFFFFFFFFFFFFFFFFFFFFFFFFFF AND EQ PUSH2 0x98B JUMPI PUSH32 0x0 DUP2 PUSH1 0x40 MLOAD PUSH32 0x865C066E00000000000000000000000000000000000000000000000000000000 DUP2 MSTORE PUSH1 0x4 ADD PUSH2 0x982 SWAP3 SWAP2 SWAP1 PUSH2 0x1B0F JUMP JUMPDEST PUSH1 0x40 MLOAD DUP1 SWAP2 SUB SWAP1 REVERT JUMPDEST PUSH0 PUSH1 0x2 PUSH0 DUP9 DUP2 MSTORE PUSH1 0x20 ADD SWAP1 DUP2 MSTORE PUSH1 0x20 ADD PUSH0 KECCAK256 SWAP1 POP PUSH0 PUSH20 0xFFFFFFFFFFFFFFFFFFFFFFFFFFFFFFFFFFFFFFFF AND DUP2 PUSH0 ADD PUSH0 SWAP1 SLOAD SWAP1 PUSH2 0x100 EXP SWAP1 DIV PUSH20 0xFFFFFFFFFFFFFFFFFFFFFFFFFFFFFFFFFFFFFFFF AND PUSH20 0xFFFFFFFFFFFFFFFFFFFFFFFFFFFFFFFFFFFFFFFF AND SUB PUSH2 0xA2F JUMPI PUSH1 0x40 MLOAD PUSH32 0x8C379A000000000000000000000000000000000000000000000000000000000 DUP2 MSTORE PUSH1 0x4 ADD PUSH2 0xA26 SWAP1 PUSH2 0x1B80 JUMP JUMPDEST PUSH1 0x40 MLOAD DUP1 SWAP2 SUB SWAP1 REVERT JUMPDEST DUP6 DUP6 DUP3 PUSH1 0x3 ADD SWAP2 DUP3 PUSH2 0xA42 SWAP3 SWAP2 SWAP1 PUSH2 0x1D3C JUMP JUMPDEST POP DUP6 DUP6 PUSH1 0x4 PUSH0 DUP5 PUSH1 0x1 ADD SLOAD DUP2 MSTORE PUSH1 0x20 ADD SWAP1 DUP2 MSTORE PUSH1 0x20 ADD PUSH0 KECCAK256 DUP4 PUSH1 0x2 ADD PUSH1 0x40 MLOAD PUSH2 0xA6B SWAP2 SWAP1 PUSH2 0x1E9B JUMP JUMPDEST SWAP1 DUP2 MSTORE PUSH1 0x20 ADD PUSH1 0x40 MLOAD DUP1 SWAP2 SUB SWAP1 KECCAK256 SWAP2 DUP3 PUSH2 0xA86 SWAP3 SWAP2 SWAP1 PUSH2 0x1F13 JUMP JUMPDEST POP PUSH32 0xB9AC0D9601C26E75EE070E76A3EA8A2A4BC36BBC534B932DE84A609166CF410C DUP8 DUP3 PUSH1 0x1 ADD SLOAD DUP4 PUSH1 0x2 ADD DUP10 DUP10 DUP10 DUP10 PUSH1 0x40 MLOAD PUSH2 0xAC9 SWAP8 SWAP7 SWAP6 SWAP5 SWAP4 SWAP3 SWAP2 SWAP1 PUSH2 0x20B9 JUMP JUMPDEST PUSH1 0x40 MLOAD DUP1 SWAP2 SUB SWAP1 LOG1 POP POP POP POP POP POP POP JUMP JUMPDEST PUSH0 PUSH1 0x2 PUSH0 DUP4 DUP2 MSTORE PUSH1 0x20 ADD SWAP1 DUP2 MSTORE PUSH1 0x20 ADD PUSH0 KECCAK256 SWAP1 POP PUSH0 PUSH20 0xFFFFFFFFFFFFFFFFFFFFFFFFFFFFFFFFFFFFFFFF AND DUP2 PUSH0 ADD PUSH0 SWAP1 SLOAD SWAP1 PUSH2 0x100 EXP SWAP1 DIV PUSH20 0xFFFFFFFFFFFFFFFFFFFFFFFFFFFFFFFFFFFFFFFF AND PUSH20 0xFFFFFFFFFFFFFFFFFFFFFFFFFFFFFFFFFFFFFFFF AND SUB PUSH2 0xB7E JUMPI PUSH1 0x40 MLOAD PUSH32 0x8C379A000000000000000000000000000000000000000000000000000000000 DUP2 MSTORE PUSH1 0x4 ADD PUSH2 0xB75 SWAP1 PUSH2 0x1B80 JUMP JUMPDEST PUSH1 0x40 MLOAD DUP1 SWAP2 SUB SWAP1 REVERT JUMPDEST PUSH0 DUP2 PUSH1 0x3 ADD DUP1 SLOAD PUSH2 0xB8E SWAP1 PUSH2 0x1A22 JUMP JUMPDEST SWAP1 POP GT PUSH2 0xBD0 JUMPI PUSH1 0x40 MLOAD PUSH32 0x8C379A000000000000000000000000000000000000000000000000000000000 DUP2 MSTORE PUSH1 0x4 ADD PUSH2 0xBC7 SWAP1 PUSH2 0x216D JUMP JUMPDEST PUSH1 0x40 MLOAD DUP1 SWAP2 SUB SWAP1 REVERT JUMPDEST PUSH0 DUP2 PUSH0 ADD PUSH0 SWAP1 SLOAD SWAP1 PUSH2 0x100 EXP SWAP1 DIV PUSH20 0xFFFFFFFFFFFFFFFFFFFFFFFFFFFFFFFFFFFFFFFF AND SWAP1 POP PUSH0 DUP3 PUSH1 0x2 ADD DUP1 SLOAD PUSH2 0xC06 SWAP1 PUSH2 0x1A22 JUMP JUMPDEST DUP1 PUSH1 0x1F ADD PUSH1 0x20 DUP1 SWAP2 DIV MUL PUSH1 0x20 ADD PUSH1 0x40 MLOAD SWAP1 DUP2 ADD PUSH1 0x40 MSTORE DUP1 SWAP3 SWAP2 SWAP1 DUP2 DUP2 MSTORE PUSH1 0x20 ADD DUP3 DUP1 SLOAD PUSH2 0xC32 SWAP1 PUSH2 0x1A22 JUMP JUMPDEST DUP1 ISZERO PUSH2 0xC7D JUMPI DUP1 PUSH1 0x1F LT PUSH2 0xC54 JUMPI PUSH2 0x100 DUP1 DUP4 SLOAD DIV MUL DUP4 MSTORE SWAP2 PUSH1 0x20 ADD SWAP2 PUSH2 0xC7D JUMP JUMPDEST DUP3 ADD SWAP2 SWAP1 PUSH0 MSTORE PUSH1 0x20 PUSH0 KECCAK256 SWAP1 JUMPDEST DUP2 SLOAD DUP2 MSTORE SWAP1 PUSH1 0x1 ADD SWAP1 PUSH1 0x20 ADD DUP1 DUP4 GT PUSH2 0xC60 JUMPI DUP3 SWAP1 SUB PUSH1 0x1F AND DUP3 ADD SWAP2 JUMPDEST POP POP POP POP POP SWAP1 POP PUSH0 DUP4 PUSH1 0x3 ADD DUP1 SLOAD PUSH2 0xC94 SWAP1 PUSH2 0x1A22 JUMP JUMPDEST DUP1 PUSH1 0x1F ADD PUSH1 0x20 DUP1 SWAP2 DIV MUL PUSH1 0x20 ADD PUSH1 0x40 MLOAD SWAP1 DUP2 ADD PUSH1 0x40 MSTORE DUP1 SWAP3 SWAP2 SWAP1 DUP2 DUP2 MSTORE PUSH1 0x20 ADD DUP3 DUP1 SLOAD PUSH2 0xCC0 SWAP1 PUSH2 0x1A22 JUMP JUMPDEST DUP1 ISZERO PUSH2 0xD0B JUMPI DUP1 PUSH1 0x1F LT PUSH2 0xCE2 JUMPI PUSH2 0x100 DUP1 DUP4 SLOAD DIV MUL DUP4 MSTORE SWAP2 PUSH1 0x20 ADD SWAP2 PUSH2 0xD0B JUMP JUMPDEST DUP3 ADD SWAP2 SWAP1 PUSH0 MSTORE PUSH1 0x20 PUSH0 KECCAK256 SWAP1 JUMPDEST DUP2 SLOAD DUP2 MSTORE SWAP1 PUSH1 0x1 ADD SWAP1 PUSH1 0x20 ADD DUP1 DUP4 GT PUSH2 0xCEE JUMPI DUP3 SWAP1 SUB PUSH1 0x1F AND DUP3 ADD SWAP2 JUMPDEST POP POP POP POP POP SWAP1 POP PUSH0 DUP3 SWAP1 POP PUSH0 DUP3 SWAP1 POP PUSH0 DUP3 DUP3 PUSH1 0x40 MLOAD PUSH1 0x20 ADD PUSH2 0xD2E SWAP3 SWAP2 SWAP1 PUSH2 0x25CD JUMP JUMPDEST PUSH1 0x40 MLOAD PUSH1 0x20 DUP2 DUP4 SUB SUB DUP2 MSTORE SWAP1 PUSH1 0x40 MSTORE SWAP1 POP PUSH0 PUSH2 0xD49 DUP3 PUSH2 0x1092 JUMP JUMPDEST PUSH1 0x40 MLOAD PUSH1 0x20 ADD PUSH2 0xD59 SWAP2 SWAP1 PUSH2 0x26BE JUMP JUMPDEST PUSH1 0x40 MLOAD PUSH1 0x20 DUP2 DUP4 SUB SUB DUP2 MSTORE SWAP1 PUSH1 0x40 MSTORE SWAP1 POP PUSH0 PUSH1 0x1 PUSH0 SWAP1 SLOAD SWAP1 PUSH2 0x100 EXP SWAP1 DIV PUSH20 0xFFFFFFFFFFFFFFFFFFFFFFFFFFFFFFFFFFFFFFFF AND PUSH20 0xFFFFFFFFFFFFFFFFFFFFFFFFFFFFFFFFFFFFFFFF AND PUSH4 0xF405E530 DUP10 DUP10 DUP10 DUP7 PUSH1 0x40 MLOAD DUP6 PUSH4 0xFFFFFFFF AND PUSH1 0xE0 SHL DUP2 MSTORE PUSH1 0x4 ADD PUSH2 0xDCB SWAP5 SWAP4 SWAP3 SWAP2 SWAP1 PUSH2 0x2702 JUMP JUMPDEST PUSH1 0x20 PUSH1 0x40 MLOAD DUP1 DUP4 SUB DUP2 PUSH0 DUP8 GAS CALL ISZERO DUP1 ISZERO PUSH2 0xDE7 JUMPI RETURNDATASIZE PUSH0 DUP1 RETURNDATACOPY RETURNDATASIZE PUSH0 REVERT JUMPDEST POP POP POP POP PUSH1 0x40 MLOAD RETURNDATASIZE PUSH1 0x1F NOT PUSH1 0x1F DUP3 ADD AND DUP3 ADD DUP1 PUSH1 0x40 MSTORE POP DUP2 ADD SWAP1 PUSH2 0xE0B SWAP2 SWAP1 PUSH2 0x1984 JUMP JUMPDEST SWAP1 POP DUP7 PUSH1 0x40 MLOAD PUSH2 0xE1B SWAP2 SWAP1 PUSH2 0x27A7 JUMP JUMPDEST PUSH1 0x40 MLOAD DUP1 SWAP2 SUB SWAP1 KECCAK256 DUP2 DUP10 PUSH20 0xFFFFFFFFFFFFFFFFFFFFFFFFFFFFFFFFFFFFFFFF AND PUSH32 0xC64190D52FDBACE55B49506D85B6FB7984C505F4988E4CCF0D03913783E8A6A6 DUP10 PUSH1 0x40 MLOAD PUSH2 0xE6A SWAP2 SWAP1 PUSH2 0x27BD JUMP JUMPDEST PUSH1 0x40 MLOAD DUP1 SWAP2 SUB SWAP1 LOG4 DUP1 DUP9 PUSH20 0xFFFFFFFFFFFFFFFFFFFFFFFFFFFFFFFFFFFFFFFF AND PUSH32 0x232A20897ECCD77CD199098ECC15DB4C2FE458C859F6272614E8C1153D0DF825 DUP5 PUSH1 0x40 MLOAD PUSH2 0xEB9 SWAP2 SWAP1 PUSH2 0x144E JUMP JUMPDEST PUSH1 0x40 MLOAD DUP1 SWAP2 SUB SWAP1 LOG3 POP POP POP POP POP POP POP POP POP POP JUMP JUMPDEST PUSH0 DUP3 DUP3 DUP1 DUP1 PUSH1 0x1F ADD PUSH1 0x20 DUP1 SWAP2 DIV MUL PUSH1 0x20 ADD PUSH1 0x40 MLOAD SWAP1 DUP2 ADD PUSH1 0x40 MSTORE DUP1 SWAP4 SWAP3 SWAP2 SWAP1 DUP2 DUP2 MSTORE PUSH1 0x20 ADD DUP4 DUP4 DUP1 DUP3 DUP5 CALLDATACOPY PUSH0 DUP2 DUP5 ADD MSTORE PUSH1 0x1F NOT PUSH1 0x1F DUP3 ADD AND SWAP1 POP DUP1 DUP4 ADD SWAP3 POP POP POP POP POP POP POP SWAP1 POP PUSH0 PUSH32 0x0 PUSH20 0xFFFFFFFFFFFFFFFFFFFFFFFFFFFFFFFFFFFFFFFF AND PUSH4 0x5B953806 CALLVALUE DUP8 DUP6 ADDRESS PUSH1 0x3 PUSH0 DUP13 DUP2 MSTORE PUSH1 0x20 ADD SWAP1 DUP2 MSTORE PUSH1 0x20 ADD PUSH0 KECCAK256 PUSH0 SWAP1 SLOAD SWAP1 PUSH2 0x100 EXP SWAP1 DIV PUSH8 0xFFFFFFFFFFFFFFFF AND PUSH1 0x40 MLOAD DUP7 PUSH4 0xFFFFFFFF AND PUSH1 0xE0 SHL DUP2 MSTORE PUSH1 0x4 ADD PUSH2 0xF99 SWAP5 SWAP4 SWAP3 SWAP2 SWAP1 PUSH2 0x27DD JUMP JUMPDEST PUSH1 0x20 PUSH1 0x40 MLOAD DUP1 DUP4 SUB DUP2 DUP6 DUP9 GAS CALL ISZERO DUP1 ISZERO PUSH2 0xFB5 JUMPI RETURNDATASIZE PUSH0 DUP1 RETURNDATACOPY RETURNDATASIZE PUSH0 REVERT JUMPDEST POP POP POP POP POP PUSH1 0x40 MLOAD RETURNDATASIZE PUSH1 0x1F NOT PUSH1 0x1F DUP3 ADD AND DUP3 ADD DUP1 PUSH1 0x40 MSTORE POP DUP2 ADD SWAP1 PUSH2 0xFDA SWAP2 SWAP1 PUSH2 0x1984 JUMP JUMPDEST SWAP1 POP PUSH0 PUSH1 0x2 PUSH0 DUP4 DUP2 MSTORE PUSH1 0x20 ADD SWAP1 DUP2 MSTORE PUSH1 0x20 ADD PUSH0 KECCAK256 SWAP1 POP DUP3 DUP2 PUSH1 0x2 ADD SWAP1 DUP2 PUSH2 0x1001 SWAP2 SWAP1 PUSH2 0x283A JUMP JUMPDEST POP CALLER DUP2 PUSH0 ADD PUSH0 PUSH2 0x100 EXP DUP2 SLOAD DUP2 PUSH20 0xFFFFFFFFFFFFFFFFFFFFFFFFFFFFFFFFFFFFFFFF MUL NOT AND SWAP1 DUP4 PUSH20 0xFFFFFFFFFFFFFFFFFFFFFFFFFFFFFFFFFFFFFFFF AND MUL OR SWAP1 SSTORE POP DUP6 DUP2 PUSH1 0x1 ADD DUP2 SWAP1 SSTORE POP PUSH31 0xEA70AA9D39E3817FB34FB254478941E77C372C6F135536F7DD6173D236C1E7 DUP3 CALLER DUP9 DUP9 DUP9 PUSH1 0x40 MLOAD PUSH2 0x1082 SWAP6 SWAP5 SWAP4 SWAP3 SWAP2 SWAP1 PUSH2 0x2909 JUMP JUMPDEST PUSH1 0x40 MLOAD DUP1 SWAP2 SUB SWAP1 LOG1 POP POP POP POP POP POP JUMP JUMPDEST PUSH1 0x60 PUSH2 0x10B8 DUP3 PUSH1 0x40 MLOAD DUP1 PUSH1 0x60 ADD PUSH1 0x40 MSTORE DUP1 PUSH1 0x40 DUP2 MSTORE PUSH1 0x20 ADD PUSH2 0x2A54 PUSH1 0x40 SWAP2 CODECOPY PUSH1 0x1 PUSH2 0x10BF JUMP JUMPDEST SWAP1 POP SWAP2 SWAP1 POP JUMP JUMPDEST PUSH1 0x60 PUSH0 DUP5 MLOAD SUB PUSH2 0x10DF JUMPI PUSH1 0x40 MLOAD DUP1 PUSH1 0x20 ADD PUSH1 0x40 MSTORE DUP1 PUSH0 DUP2 MSTORE POP SWAP1 POP PUSH2 0x1247 JUMP JUMPDEST PUSH0 DUP3 PUSH2 0x1110 JUMPI PUSH1 0x3 PUSH1 0x2 DUP7 MLOAD PUSH1 0x4 PUSH2 0x10F7 SWAP2 SWAP1 PUSH2 0x2982 JUMP JUMPDEST PUSH2 0x1101 SWAP2 SWAP1 PUSH2 0x29C3 JUMP JUMPDEST PUSH2 0x110B SWAP2 SWAP1 PUSH2 0x2A23 JUMP JUMPDEST PUSH2 0x1137 JUMP JUMPDEST PUSH1 0x3 PUSH1 0x2 DUP7 MLOAD PUSH2 0x1120 SWAP2 SWAP1 PUSH2 0x29C3 JUMP JUMPDEST PUSH2 0x112A SWAP2 SWAP1 PUSH2 0x2A23 JUMP JUMPDEST PUSH1 0x4 PUSH2 0x1136 SWAP2 SWAP1 PUSH2 0x2982 JUMP JUMPDEST JUMPDEST SWAP1 POP PUSH0 DUP2 PUSH8 0xFFFFFFFFFFFFFFFF DUP2 GT ISZERO PUSH2 0x1154 JUMPI PUSH2 0x1153 PUSH2 0x1663 JUMP JUMPDEST JUMPDEST PUSH1 0x40 MLOAD SWAP1 DUP1 DUP3 MSTORE DUP1 PUSH1 0x1F ADD PUSH1 0x1F NOT AND PUSH1 0x20 ADD DUP3 ADD PUSH1 0x40 MSTORE DUP1 ISZERO PUSH2 0x1186 JUMPI DUP2 PUSH1 0x20 ADD PUSH1 0x1 DUP3 MUL DUP1 CALLDATASIZE DUP4 CALLDATACOPY DUP1 DUP3 ADD SWAP2 POP POP SWAP1 POP JUMPDEST POP SWAP1 POP PUSH1 0x1 DUP6 ADD PUSH1 0x20 DUP3 ADD DUP8 DUP9 MLOAD DUP10 ADD PUSH1 0x20 DUP2 ADD DUP1 MLOAD PUSH0 DUP3 MSTORE JUMPDEST DUP3 DUP5 LT ISZERO PUSH2 0x11FB JUMPI PUSH1 0x3 DUP5 ADD SWAP4 POP DUP4 MLOAD PUSH1 0x3F DUP2 PUSH1 0x12 SHR AND DUP8 ADD MLOAD DUP7 MSTORE8 PUSH1 0x1 DUP7 ADD SWAP6 POP PUSH1 0x3F DUP2 PUSH1 0xC SHR AND DUP8 ADD MLOAD DUP7 MSTORE8 PUSH1 0x1 DUP7 ADD SWAP6 POP PUSH1 0x3F DUP2 PUSH1 0x6 SHR AND DUP8 ADD MLOAD DUP7 MSTORE8 PUSH1 0x1 DUP7 ADD SWAP6 POP PUSH1 0x3F DUP2 AND DUP8 ADD MLOAD DUP7 MSTORE8 PUSH1 0x1 DUP7 ADD SWAP6 POP POP PUSH2 0x11A0 JUMP JUMPDEST DUP1 DUP3 MSTORE DUP10 ISZERO PUSH2 0x123B JUMPI PUSH1 0x3 DUP13 MLOAD MOD PUSH1 0x1 DUP2 EQ PUSH2 0x121E JUMPI PUSH1 0x2 DUP2 EQ PUSH2 0x1231 JUMPI PUSH2 0x1239 JUMP JUMPDEST PUSH1 0x3D PUSH1 0x1 DUP8 SUB MSTORE8 PUSH1 0x3D PUSH1 0x2 DUP8 SUB MSTORE8 PUSH2 0x1239 JUMP JUMPDEST PUSH1 0x3D PUSH1 0x1 DUP8 SUB MSTORE8 JUMPDEST POP JUMPDEST POP POP POP POP POP POP DUP1 SWAP3 POP POP POP JUMPDEST SWAP4 SWAP3 POP POP POP JUMP JUMPDEST PUSH0 PUSH1 0x40 MLOAD SWAP1 POP SWAP1 JUMP JUMPDEST PUSH0 DUP1 REVERT JUMPDEST PUSH0 DUP1 REVERT JUMPDEST PUSH0 DUP2 SWAP1 POP SWAP2 SWAP1 POP JUMP JUMPDEST PUSH2 0x1271 DUP2 PUSH2 0x125F JUMP JUMPDEST DUP2 EQ PUSH2 0x127B JUMPI PUSH0 DUP1 REVERT JUMPDEST POP JUMP JUMPDEST PUSH0 DUP2 CALLDATALOAD SWAP1 POP PUSH2 0x128C DUP2 PUSH2 0x1268 JUMP JUMPDEST SWAP3 SWAP2 POP POP JUMP JUMPDEST PUSH0 PUSH1 0x20 DUP3 DUP5 SUB SLT ISZERO PUSH2 0x12A7 JUMPI PUSH2 0x12A6 PUSH2 0x1257 JUMP JUMPDEST JUMPDEST PUSH0 PUSH2 0x12B4 DUP5 DUP3 DUP6 ADD PUSH2 0x127E JUMP JUMPDEST SWAP2 POP POP SWAP3 SWAP2 POP POP JUMP JUMPDEST PUSH2 0x12C6 DUP2 PUSH2 0x125F JUMP JUMPDEST DUP3 MSTORE POP POP JUMP JUMPDEST PUSH0 PUSH1 0x20 DUP3 ADD SWAP1 POP PUSH2 0x12DF PUSH0 DUP4 ADD DUP5 PUSH2 0x12BD JUMP JUMPDEST SWAP3 SWAP2 POP POP JUMP JUMPDEST PUSH0 PUSH8 0xFFFFFFFFFFFFFFFF DUP3 AND SWAP1 POP SWAP2 SWAP1 POP JUMP JUMPDEST PUSH2 0x1301 DUP2 PUSH2 0x12E5 JUMP JUMPDEST DUP3 MSTORE POP POP JUMP JUMPDEST PUSH0 PUSH1 0x20 DUP3 ADD SWAP1 POP PUSH2 0x131A PUSH0 DUP4 ADD DUP5 PUSH2 0x12F8 JUMP JUMPDEST SWAP3 SWAP2 POP POP JUMP JUMPDEST PUSH0 DUP1 REVERT JUMPDEST PUSH0 DUP1 REVERT JUMPDEST PUSH0 DUP1 REVERT JUMPDEST PUSH0 DUP1 DUP4 PUSH1 0x1F DUP5 ADD SLT PUSH2 0x1341 JUMPI PUSH2 0x1340 PUSH2 0x1320 JUMP JUMPDEST JUMPDEST DUP3 CALLDATALOAD SWAP1 POP PUSH8 0xFFFFFFFFFFFFFFFF DUP2 GT ISZERO PUSH2 0x135E JUMPI PUSH2 0x135D PUSH2 0x1324 JUMP JUMPDEST JUMPDEST PUSH1 0x20 DUP4 ADD SWAP2 POP DUP4 PUSH1 0x1 DUP3 MUL DUP4 ADD GT ISZERO PUSH2 0x137A JUMPI PUSH2 0x1379 PUSH2 0x1328 JUMP JUMPDEST JUMPDEST SWAP3 POP SWAP3 SWAP1 POP JUMP JUMPDEST PUSH0 DUP1 PUSH0 PUSH1 0x40 DUP5 DUP7 SUB SLT ISZERO PUSH2 0x1398 JUMPI PUSH2 0x1397 PUSH2 0x1257 JUMP JUMPDEST JUMPDEST PUSH0 PUSH2 0x13A5 DUP7 DUP3 DUP8 ADD PUSH2 0x127E JUMP JUMPDEST SWAP4 POP POP PUSH1 0x20 DUP5 ADD CALLDATALOAD PUSH8 0xFFFFFFFFFFFFFFFF DUP2 GT ISZERO PUSH2 0x13C6 JUMPI PUSH2 0x13C5 PUSH2 0x125B JUMP JUMPDEST JUMPDEST PUSH2 0x13D2 DUP7 DUP3 DUP8 ADD PUSH2 0x132C JUMP JUMPDEST SWAP3 POP SWAP3 POP POP SWAP3 POP SWAP3 POP SWAP3 JUMP JUMPDEST PUSH0 DUP2 MLOAD SWAP1 POP SWAP2 SWAP1 POP JUMP JUMPDEST PUSH0 DUP3 DUP3 MSTORE PUSH1 0x20 DUP3 ADD SWAP1 POP SWAP3 SWAP2 POP POP JUMP JUMPDEST DUP3 DUP2 DUP4 MCOPY PUSH0 DUP4 DUP4 ADD MSTORE POP POP POP JUMP JUMPDEST PUSH0 PUSH1 0x1F NOT PUSH1 0x1F DUP4 ADD AND SWAP1 POP SWAP2 SWAP1 POP JUMP JUMPDEST PUSH0 PUSH2 0x1420 DUP3 PUSH2 0x13DE JUMP JUMPDEST PUSH2 0x142A DUP2 DUP6 PUSH2 0x13E8 JUMP JUMPDEST SWAP4 POP PUSH2 0x143A DUP2 DUP6 PUSH1 0x20 DUP7 ADD PUSH2 0x13F8 JUMP JUMPDEST PUSH2 0x1443 DUP2 PUSH2 0x1406 JUMP JUMPDEST DUP5 ADD SWAP2 POP POP SWAP3 SWAP2 POP POP JUMP JUMPDEST PUSH0 PUSH1 0x20 DUP3 ADD SWAP1 POP DUP2 DUP2 SUB PUSH0 DUP4 ADD MSTORE PUSH2 0x1466 DUP2 DUP5 PUSH2 0x1416 JUMP JUMPDEST SWAP1 POP SWAP3 SWAP2 POP POP JUMP JUMPDEST PUSH0 PUSH20 0xFFFFFFFFFFFFFFFFFFFFFFFFFFFFFFFFFFFFFFFF DUP3 AND SWAP1 POP SWAP2 SWAP1 POP JUMP JUMPDEST PUSH0 DUP2 SWAP1 POP SWAP2 SWAP1 POP JUMP JUMPDEST PUSH0 PUSH2 0x14B0 PUSH2 0x14AB PUSH2 0x14A6 DUP5 PUSH2 0x146E JUMP JUMPDEST PUSH2 0x148D JUMP JUMPDEST PUSH2 0x146E JUMP JUMPDEST SWAP1 POP SWAP2 SWAP1 POP JUMP JUMPDEST PUSH0 PUSH2 0x14C1 DUP3 PUSH2 0x1496 JUMP JUMPDEST SWAP1 POP SWAP2 SWAP1 POP JUMP JUMPDEST PUSH0 PUSH2 0x14D2 DUP3 PUSH2 0x14B7 JUMP JUMPDEST SWAP1 POP SWAP2 SWAP1 POP JUMP JUMPDEST PUSH2 0x14E2 DUP2 PUSH2 0x14C8 JUMP JUMPDEST DUP3 MSTORE POP POP JUMP JUMPDEST PUSH0 PUSH1 0x20 DUP3 ADD SWAP1 POP PUSH2 0x14FB PUSH0 DUP4 ADD DUP5 PUSH2 0x14D9 JUMP JUMPDEST SWAP3 SWAP2 POP POP JUMP JUMPDEST PUSH0 DUP2 ISZERO ISZERO SWAP1 POP SWAP2 SWAP1 POP JUMP JUMPDEST PUSH2 0x1515 DUP2 PUSH2 0x1501 JUMP JUMPDEST DUP3 MSTORE POP POP JUMP JUMPDEST PUSH0 PUSH1 0x20 DUP3 ADD SWAP1 POP PUSH2 0x152E PUSH0 DUP4 ADD DUP5 PUSH2 0x150C JUMP JUMPDEST SWAP3 SWAP2 POP POP JUMP JUMPDEST PUSH2 0x153D DUP2 PUSH2 0x12E5 JUMP JUMPDEST DUP2 EQ PUSH2 0x1547 JUMPI PUSH0 DUP1 REVERT JUMPDEST POP JUMP JUMPDEST PUSH0 DUP2 CALLDATALOAD SWAP1 POP PUSH2 0x1558 DUP2 PUSH2 0x1534 JUMP JUMPDEST SWAP3 SWAP2 POP POP JUMP JUMPDEST PUSH0 DUP1 PUSH1 0x40 DUP4 DUP6 SUB SLT ISZERO PUSH2 0x1574 JUMPI PUSH2 0x1573 PUSH2 0x1257 JUMP JUMPDEST JUMPDEST PUSH0 PUSH2 0x1581 DUP6 DUP3 DUP7 ADD PUSH2 0x127E JUMP JUMPDEST SWAP3 POP POP PUSH1 0x20 PUSH2 0x1592 DUP6 DUP3 DUP7 ADD PUSH2 0x154A JUMP JUMPDEST SWAP2 POP POP SWAP3 POP SWAP3 SWAP1 POP JUMP JUMPDEST PUSH0 PUSH2 0x15A6 DUP3 PUSH2 0x146E JUMP JUMPDEST SWAP1 POP SWAP2 SWAP1 POP JUMP JUMPDEST PUSH2 0x15B6 DUP2 PUSH2 0x159C JUMP JUMPDEST DUP3 MSTORE POP POP JUMP JUMPDEST PUSH0 DUP2 MLOAD SWAP1 POP SWAP2 SWAP1 POP JUMP JUMPDEST PUSH0 DUP3 DUP3 MSTORE PUSH1 0x20 DUP3 ADD SWAP1 POP SWAP3 SWAP2 POP POP JUMP JUMPDEST PUSH0 PUSH2 0x15E0 DUP3 PUSH2 0x15BC JUMP JUMPDEST PUSH2 0x15EA DUP2 DUP6 PUSH2 0x15C6 JUMP JUMPDEST SWAP4 POP PUSH2 0x15FA DUP2 DUP6 PUSH1 0x20 DUP7 ADD PUSH2 0x13F8 JUMP JUMPDEST PUSH2 0x1603 DUP2 PUSH2 0x1406 JUMP JUMPDEST DUP5 ADD SWAP2 POP POP SWAP3 SWAP2 POP POP JUMP JUMPDEST PUSH0 PUSH1 0x80 DUP3 ADD SWAP1 POP PUSH2 0x1621 PUSH0 DUP4 ADD DUP8 PUSH2 0x15AD JUMP JUMPDEST PUSH2 0x162E PUSH1 0x20 DUP4 ADD DUP7 PUSH2 0x12BD JUMP JUMPDEST DUP2 DUP2 SUB PUSH1 0x40 DUP4 ADD MSTORE PUSH2 0x1640 DUP2 DUP6 PUSH2 0x15D6 JUMP JUMPDEST SWAP1 POP DUP2 DUP2 SUB PUSH1 0x60 DUP4 ADD MSTORE PUSH2 0x1654 DUP2 DUP5 PUSH2 0x15D6 JUMP JUMPDEST SWAP1 POP SWAP6 SWAP5 POP POP POP POP POP JUMP JUMPDEST PUSH0 DUP1 REVERT JUMPDEST PUSH32 0x4E487B7100000000000000000000000000000000000000000000000000000000 PUSH0 MSTORE PUSH1 0x41 PUSH1 0x4 MSTORE PUSH1 0x24 PUSH0 REVERT JUMPDEST PUSH2 0x1699 DUP3 PUSH2 0x1406 JUMP JUMPDEST DUP2 ADD DUP2 DUP2 LT PUSH8 0xFFFFFFFFFFFFFFFF DUP3 GT OR ISZERO PUSH2 0x16B8 JUMPI PUSH2 0x16B7 PUSH2 0x1663 JUMP JUMPDEST JUMPDEST DUP1 PUSH1 0x40 MSTORE POP POP POP JUMP JUMPDEST PUSH0 PUSH2 0x16CA PUSH2 0x124E JUMP JUMPDEST SWAP1 POP PUSH2 0x16D6 DUP3 DUP3 PUSH2 0x1690 JUMP JUMPDEST SWAP2 SWAP1 POP JUMP JUMPDEST PUSH0 PUSH8 0xFFFFFFFFFFFFFFFF DUP3 GT ISZERO PUSH2 0x16F5 JUMPI PUSH2 0x16F4 PUSH2 0x1663 JUMP JUMPDEST JUMPDEST PUSH2 0x16FE DUP3 PUSH2 0x1406 JUMP JUMPDEST SWAP1 POP PUSH1 0x20 DUP2 ADD SWAP1 POP SWAP2 SWAP1 POP JUMP JUMPDEST DUP3 DUP2 DUP4 CALLDATACOPY PUSH0 DUP4 DUP4 ADD MSTORE POP POP POP JUMP JUMPDEST PUSH0 PUSH2 0x172B PUSH2 0x1726 DUP5 PUSH2 0x16DB JUMP JUMPDEST PUSH2 0x16C1 JUMP JUMPDEST SWAP1 POP DUP3 DUP2 MSTORE PUSH1 0x20 DUP2 ADD DUP5 DUP5 DUP5 ADD GT ISZERO PUSH2 0x1747 JUMPI PUSH2 0x1746 PUSH2 0x165F JUMP JUMPDEST JUMPDEST PUSH2 0x1752 DUP5 DUP3 DUP6 PUSH2 0x170B JUMP JUMPDEST POP SWAP4 SWAP3 POP POP POP JUMP JUMPDEST PUSH0 DUP3 PUSH1 0x1F DUP4 ADD SLT PUSH2 0x176E JUMPI PUSH2 0x176D PUSH2 0x1320 JUMP JUMPDEST JUMPDEST DUP2 CALLDATALOAD PUSH2 0x177E DUP5 DUP3 PUSH1 0x20 DUP7 ADD PUSH2 0x1719 JUMP JUMPDEST SWAP2 POP POP SWAP3 SWAP2 POP POP JUMP JUMPDEST PUSH0 DUP1 PUSH1 0x40 DUP4 DUP6 SUB SLT ISZERO PUSH2 0x179D JUMPI PUSH2 0x179C PUSH2 0x1257 JUMP JUMPDEST JUMPDEST PUSH0 PUSH2 0x17AA DUP6 DUP3 DUP7 ADD PUSH2 0x127E JUMP JUMPDEST SWAP3 POP POP PUSH1 0x20 DUP4 ADD CALLDATALOAD PUSH8 0xFFFFFFFFFFFFFFFF DUP2 GT ISZERO PUSH2 0x17CB JUMPI PUSH2 0x17CA PUSH2 0x125B JUMP JUMPDEST JUMPDEST PUSH2 0x17D7 DUP6 DUP3 DUP7 ADD PUSH2 0x175A JUMP JUMPDEST SWAP2 POP POP SWAP3 POP SWAP3 SWAP1 POP JUMP JUMPDEST PUSH0 PUSH1 0x20 DUP3 ADD SWAP1 POP PUSH2 0x17F4 PUSH0 DUP4 ADD DUP5 PUSH2 0x15AD JUMP JUMPDEST SWAP3 SWAP2 POP POP JUMP JUMPDEST PUSH0 PUSH2 0x1804 DUP3 PUSH2 0x14B7 JUMP JUMPDEST SWAP1 POP SWAP2 SWAP1 POP JUMP JUMPDEST PUSH2 0x1814 DUP2 PUSH2 0x17FA JUMP JUMPDEST DUP3 MSTORE POP POP JUMP JUMPDEST PUSH0 PUSH1 0x20 DUP3 ADD SWAP1 POP PUSH2 0x182D PUSH0 DUP4 ADD DUP5 PUSH2 0x180B JUMP JUMPDEST SWAP3 SWAP2 POP POP JUMP JUMPDEST PUSH0 DUP1 DUP4 PUSH1 0x1F DUP5 ADD SLT PUSH2 0x1848 JUMPI PUSH2 0x1847 PUSH2 0x1320 JUMP JUMPDEST JUMPDEST DUP3 CALLDATALOAD SWAP1 POP PUSH8 0xFFFFFFFFFFFFFFFF DUP2 GT ISZERO PUSH2 0x1865 JUMPI PUSH2 0x1864 PUSH2 0x1324 JUMP JUMPDEST JUMPDEST PUSH1 0x20 DUP4 ADD SWAP2 POP DUP4 PUSH1 0x1 DUP3 MUL DUP4 ADD GT ISZERO PUSH2 0x1881 JUMPI PUSH2 0x1880 PUSH2 0x1328 JUMP JUMPDEST JUMPDEST SWAP3 POP SWAP3 SWAP1 POP JUMP JUMPDEST PUSH0 DUP1 PUSH0 DUP1 PUSH0 PUSH1 0x60 DUP7 DUP9 SUB SLT ISZERO PUSH2 0x18A1 JUMPI PUSH2 0x18A0 PUSH2 0x1257 JUMP JUMPDEST JUMPDEST PUSH0 PUSH2 0x18AE DUP9 DUP3 DUP10 ADD PUSH2 0x127E JUMP JUMPDEST SWAP6 POP POP PUSH1 0x20 DUP7 ADD CALLDATALOAD PUSH8 0xFFFFFFFFFFFFFFFF DUP2 GT ISZERO PUSH2 0x18CF JUMPI PUSH2 0x18CE PUSH2 0x125B JUMP JUMPDEST JUMPDEST PUSH2 0x18DB DUP9 DUP3 DUP10 ADD PUSH2 0x1833 JUMP JUMPDEST SWAP5 POP SWAP5 POP POP PUSH1 0x40 DUP7 ADD CALLDATALOAD PUSH8 0xFFFFFFFFFFFFFFFF DUP2 GT ISZERO PUSH2 0x18FE JUMPI PUSH2 0x18FD PUSH2 0x125B JUMP JUMPDEST JUMPDEST PUSH2 0x190A DUP9 DUP3 DUP10 ADD PUSH2 0x1833 JUMP JUMPDEST SWAP3 POP SWAP3 POP POP SWAP3 SWAP6 POP SWAP3 SWAP6 SWAP1 SWAP4 POP JUMP JUMPDEST PUSH0 PUSH2 0x1933 PUSH2 0x192E PUSH2 0x1929 DUP5 PUSH2 0x12E5 JUMP JUMPDEST PUSH2 0x148D JUMP JUMPDEST PUSH2 0x125F JUMP JUMPDEST SWAP1 POP SWAP2 SWAP1 POP JUMP JUMPDEST PUSH2 0x1943 DUP2 PUSH2 0x1919 JUMP JUMPDEST DUP3 MSTORE POP POP JUMP JUMPDEST PUSH0 PUSH1 0x40 DUP3 ADD SWAP1 POP PUSH2 0x195C PUSH0 DUP4 ADD DUP6 PUSH2 0x12BD JUMP JUMPDEST PUSH2 0x1969 PUSH1 0x20 DUP4 ADD DUP5 PUSH2 0x193A JUMP JUMPDEST SWAP4 SWAP3 POP POP POP JUMP JUMPDEST PUSH0 DUP2 MLOAD SWAP1 POP PUSH2 0x197E DUP2 PUSH2 0x1268 JUMP JUMPDEST SWAP3 SWAP2 POP POP JUMP JUMPDEST PUSH0 PUSH1 0x20 DUP3 DUP5 SUB SLT ISZERO PUSH2 0x1999 JUMPI PUSH2 0x1998 PUSH2 0x1257 JUMP JUMPDEST JUMPDEST PUSH0 PUSH2 0x19A6 DUP5 DUP3 DUP6 ADD PUSH2 0x1970 JUMP JUMPDEST SWAP2 POP POP SWAP3 SWAP2 POP POP JUMP JUMPDEST PUSH0 DUP2 SWAP1 POP SWAP3 SWAP2 POP POP JUMP JUMPDEST PUSH0 PUSH2 0x19C4 DUP4 DUP6 PUSH2 0x19AF JUMP JUMPDEST SWAP4 POP PUSH2 0x19D1 DUP4 DUP6 DUP5 PUSH2 0x170B JUMP JUMPDEST DUP3 DUP5 ADD SWAP1 POP SWAP4 SWAP3 POP POP POP JUMP JUMPDEST PUSH0 PUSH2 0x19E9 DUP3 DUP5 DUP7 PUSH2 0x19B9 JUMP JUMPDEST SWAP2 POP DUP2 SWAP1 POP SWAP4 SWAP3 POP POP POP JUMP JUMPDEST PUSH32 0x4E487B7100000000000000000000000000000000000000000000000000000000 PUSH0 MSTORE PUSH1 0x22 PUSH1 0x4 MSTORE PUSH1 0x24 PUSH0 REVERT JUMPDEST PUSH0 PUSH1 0x2 DUP3 DIV SWAP1 POP PUSH1 0x1 DUP3 AND DUP1 PUSH2 0x1A39 JUMPI PUSH1 0x7F DUP3 AND SWAP2 POP JUMPDEST PUSH1 0x20 DUP3 LT DUP2 SUB PUSH2 0x1A4C JUMPI PUSH2 0x1A4B PUSH2 0x19F5 JUMP JUMPDEST JUMPDEST POP SWAP2 SWAP1 POP JUMP JUMPDEST PUSH2 0x1A5B DUP2 PUSH2 0x1501 JUMP JUMPDEST DUP2 EQ PUSH2 0x1A65 JUMPI PUSH0 DUP1 REVERT JUMPDEST POP JUMP JUMPDEST PUSH0 DUP2 MLOAD SWAP1 POP PUSH2 0x1A76 DUP2 PUSH2 0x1A52 JUMP JUMPDEST SWAP3 SWAP2 POP POP JUMP JUMPDEST PUSH0 PUSH1 0x20 DUP3 DUP5 SUB SLT ISZERO PUSH2 0x1A91 JUMPI PUSH2 0x1A90 PUSH2 0x1257 JUMP JUMPDEST JUMPDEST PUSH0 PUSH2 0x1A9E DUP5 DUP3 DUP6 ADD PUSH2 0x1A68 JUMP JUMPDEST SWAP2 POP POP SWAP3 SWAP2 POP POP JUMP JUMPDEST PUSH32 0x4F6E6C79206F776E657200000000000000000000000000000000000000000000 PUSH0 DUP3 ADD MSTORE POP JUMP JUMPDEST PUSH0 PUSH2 0x1ADB PUSH1 0xA DUP4 PUSH2 0x13E8 JUMP JUMPDEST SWAP2 POP PUSH2 0x1AE6 DUP3 PUSH2 0x1AA7 JUMP JUMPDEST PUSH1 0x20 DUP3 ADD SWAP1 POP SWAP2 SWAP1 POP JUMP JUMPDEST PUSH0 PUSH1 0x20 DUP3 ADD SWAP1 POP DUP2 DUP2 SUB PUSH0 DUP4 ADD MSTORE PUSH2 0x1B08 DUP2 PUSH2 0x1ACF JUMP JUMPDEST SWAP1 POP SWAP2 SWAP1 POP JUMP JUMPDEST PUSH0 PUSH1 0x40 DUP3 ADD SWAP1 POP PUSH2 0x1B22 PUSH0 DUP4 ADD DUP6 PUSH2 0x14D9 JUMP JUMPDEST PUSH2 0x1B2F PUSH1 0x20 DUP4 ADD DUP5 PUSH2 0x14D9 JUMP JUMPDEST SWAP4 SWAP3 POP POP POP JUMP JUMPDEST PUSH32 0x52657175657374206E6F74206578697374730000000000000000000000000000 PUSH0 DUP3 ADD MSTORE POP JUMP JUMPDEST PUSH0 PUSH2 0x1B6A PUSH1 0x12 DUP4 PUSH2 0x13E8 JUMP JUMPDEST SWAP2 POP PUSH2 0x1B75 DUP3 PUSH2 0x1B36 JUMP JUMPDEST PUSH1 0x20 DUP3 ADD SWAP1 POP SWAP2 SWAP1 POP JUMP JUMPDEST PUSH0 PUSH1 0x20 DUP3 ADD SWAP1 POP DUP2 DUP2 SUB PUSH0 DUP4 ADD MSTORE PUSH2 0x1B97 DUP2 PUSH2 0x1B5E JUMP JUMPDEST SWAP1 POP SWAP2 SWAP1 POP JUMP JUMPDEST PUSH0 DUP3 SWAP1 POP SWAP3 SWAP2 POP POP JUMP JUMPDEST PUSH0 DUP2 SWAP1 POP DUP2 PUSH0 MSTORE PUSH1 0x20 PUSH0 KECCAK256 SWAP1 POP SWAP2 SWAP1 POP JUMP JUMPDEST PUSH0 PUSH1 0x20 PUSH1 0x1F DUP4 ADD DIV SWAP1 POP SWAP2 SWAP1 POP JUMP JUMPDEST PUSH0 DUP3 DUP3 SHL SWAP1 POP SWAP3 SWAP2 POP POP JUMP JUMPDEST PUSH0 PUSH1 0x8 DUP4 MUL PUSH2 0x1C04 PUSH32 0xFFFFFFFFFFFFFFFFFFFFFFFFFFFFFFFFFFFFFFFFFFFFFFFFFFFFFFFFFFFFFFFF DUP3 PUSH2 0x1BC9 JUMP JUMPDEST PUSH2 0x1C0E DUP7 DUP4 PUSH2 0x1BC9 JUMP JUMPDEST SWAP6 POP DUP1 NOT DUP5 AND SWAP4 POP DUP1 DUP7 AND DUP5 OR SWAP3 POP POP POP SWAP4 SWAP3 POP POP POP JUMP JUMPDEST PUSH0 PUSH2 0x1C40 PUSH2 0x1C3B PUSH2 0x1C36 DUP5 PUSH2 0x125F JUMP JUMPDEST PUSH2 0x148D JUMP JUMPDEST PUSH2 0x125F JUMP JUMPDEST SWAP1 POP SWAP2 SWAP1 POP JUMP JUMPDEST PUSH0 DUP2 SWAP1 POP SWAP2 SWAP1 POP JUMP JUMPDEST PUSH2 0x1C59 DUP4 PUSH2 0x1C26 JUMP JUMPDEST PUSH2 0x1C6D PUSH2 0x1C65 DUP3 PUSH2 0x1C47 JUMP JUMPDEST DUP5 DUP5 SLOAD PUSH2 0x1BD5 JUMP JUMPDEST DUP3 SSTORE POP POP POP POP JUMP JUMPDEST PUSH0 SWAP1 JUMP JUMPDEST PUSH2 0x1C81 PUSH2 0x1C75 JUMP JUMPDEST PUSH2 0x1C8C DUP2 DUP5 DUP5 PUSH2 0x1C50 JUMP JUMPDEST POP POP POP JUMP JUMPDEST JUMPDEST DUP2 DUP2 LT ISZERO PUSH2 0x1CAF JUMPI PUSH2 0x1CA4 PUSH0 DUP3 PUSH2 0x1C79 JUMP JUMPDEST PUSH1 0x1 DUP2 ADD SWAP1 POP PUSH2 0x1C92 JUMP JUMPDEST POP POP JUMP JUMPDEST PUSH1 0x1F DUP3 GT ISZERO PUSH2 0x1CF4 JUMPI PUSH2 0x1CC5 DUP2 PUSH2 0x1BA8 JUMP JUMPDEST PUSH2 0x1CCE DUP5 PUSH2 0x1BBA JUMP JUMPDEST DUP2 ADD PUSH1 0x20 DUP6 LT ISZERO PUSH2 0x1CDD JUMPI DUP2 SWAP1 POP JUMPDEST PUSH2 0x1CF1 PUSH2 0x1CE9 DUP6 PUSH2 0x1BBA JUMP JUMPDEST DUP4 ADD DUP3 PUSH2 0x1C91 JUMP JUMPDEST POP POP JUMPDEST POP POP POP JUMP JUMPDEST PUSH0 DUP3 DUP3 SHR SWAP1 POP SWAP3 SWAP2 POP POP JUMP JUMPDEST PUSH0 PUSH2 0x1D14 PUSH0 NOT DUP5 PUSH1 0x8 MUL PUSH2 0x1CF9 JUMP JUMPDEST NOT DUP1 DUP4 AND SWAP2 POP POP SWAP3 SWAP2 POP POP JUMP JUMPDEST PUSH0 PUSH2 0x1D2C DUP4 DUP4 PUSH2 0x1D05 JUMP JUMPDEST SWAP2 POP DUP3 PUSH1 0x2 MUL DUP3 OR SWAP1 POP SWAP3 SWAP2 POP POP JUMP JUMPDEST PUSH2 0x1D46 DUP4 DUP4 PUSH2 0x1B9E JUMP JUMPDEST PUSH8 0xFFFFFFFFFFFFFFFF DUP2 GT ISZERO PUSH2 0x1D5F JUMPI PUSH2 0x1D5E PUSH2 0x1663 JUMP JUMPDEST JUMPDEST PUSH2 0x1D69 DUP3 SLOAD PUSH2 0x1A22 JUMP JUMPDEST PUSH2 0x1D74 DUP3 DUP3 DUP6 PUSH2 0x1CB3 JUMP JUMPDEST PUSH0 PUSH1 0x1F DUP4 GT PUSH1 0x1 DUP2 EQ PUSH2 0x1DA1 JUMPI PUSH0 DUP5 ISZERO PUSH2 0x1D8F JUMPI DUP3 DUP8 ADD CALLDATALOAD SWAP1 POP JUMPDEST PUSH2 0x1D99 DUP6 DUP3 PUSH2 0x1D21 JUMP JUMPDEST DUP7 SSTORE POP PUSH2 0x1E00 JUMP JUMPDEST PUSH1 0x1F NOT DUP5 AND PUSH2 0x1DAF DUP7 PUSH2 0x1BA8 JUMP JUMPDEST PUSH0 JUMPDEST DUP3 DUP2 LT ISZERO PUSH2 0x1DD6 JUMPI DUP5 DUP10 ADD CALLDATALOAD DUP3 SSTORE PUSH1 0x1 DUP3 ADD SWAP2 POP PUSH1 0x20 DUP6 ADD SWAP5 POP PUSH1 0x20 DUP2 ADD SWAP1 POP PUSH2 0x1DB1 JUMP JUMPDEST DUP7 DUP4 LT ISZERO PUSH2 0x1DF3 JUMPI DUP5 DUP10 ADD CALLDATALOAD PUSH2 0x1DEF PUSH1 0x1F DUP10 AND DUP3 PUSH2 0x1D05 JUMP JUMPDEST DUP4 SSTORE POP JUMPDEST PUSH1 0x1 PUSH1 0x2 DUP9 MUL ADD DUP9 SSTORE POP POP POP JUMPDEST POP POP POP POP POP POP POP JUMP JUMPDEST PUSH0 DUP2 SWAP1 POP DUP2 PUSH0 MSTORE PUSH1 0x20 PUSH0 KECCAK256 SWAP1 POP SWAP2 SWAP1 POP JUMP JUMPDEST PUSH0 DUP2 SLOAD PUSH2 0x1E27 DUP2 PUSH2 0x1A22 JUMP JUMPDEST PUSH2 0x1E31 DUP2 DUP7 PUSH2 0x19AF JUMP JUMPDEST SWAP5 POP PUSH1 0x1 DUP3 AND PUSH0 DUP2 EQ PUSH2 0x1E4B JUMPI PUSH1 0x1 DUP2 EQ PUSH2 0x1E60 JUMPI PUSH2 0x1E92 JUMP JUMPDEST PUSH1 0xFF NOT DUP4 AND DUP7 MSTORE DUP2 ISZERO ISZERO DUP3 MUL DUP7 ADD SWAP4 POP PUSH2 0x1E92 JUMP JUMPDEST PUSH2 0x1E69 DUP6 PUSH2 0x1E09 JUMP JUMPDEST PUSH0 JUMPDEST DUP4 DUP2 LT ISZERO PUSH2 0x1E8A JUMPI DUP2 SLOAD DUP2 DUP10 ADD MSTORE PUSH1 0x1 DUP3 ADD SWAP2 POP PUSH1 0x20 DUP2 ADD SWAP1 POP PUSH2 0x1E6B JUMP JUMPDEST DUP4 DUP9 ADD SWAP6 POP POP POP JUMPDEST POP POP POP SWAP3 SWAP2 POP POP JUMP JUMPDEST PUSH0 PUSH2 0x1EA6 DUP3 DUP5 PUSH2 0x1E1B JUMP JUMPDEST SWAP2 POP DUP2 SWAP1 POP SWAP3 SWAP2 POP POP JUMP JUMPDEST PUSH0 DUP3 SWAP1 POP SWAP3 SWAP2 POP POP JUMP JUMPDEST PUSH0 DUP2 SWAP1 POP DUP2 PUSH0 MSTORE PUSH1 0x20 PUSH0 KECCAK256 SWAP1 POP SWAP2 SWAP1 POP JUMP JUMPDEST PUSH1 0x1F DUP3 GT ISZERO PUSH2 0x1F0E JUMPI PUSH2 0x1EDF DUP2 PUSH2 0x1EBB JUMP JUMPDEST PUSH2 0x1EE8 DUP5 PUSH2 0x1BBA JUMP JUMPDEST DUP2 ADD PUSH1 0x20 DUP6 LT ISZERO PUSH2 0x1EF7 JUMPI DUP2 SWAP1 POP JUMPDEST PUSH2 0x1F0B PUSH2 0x1F03 DUP6 PUSH2 0x1BBA JUMP JUMPDEST DUP4 ADD DUP3 PUSH2 0x1C91 JUMP JUMPDEST POP POP JUMPDEST POP POP POP JUMP JUMPDEST PUSH2 0x1F1D DUP4 DUP4 PUSH2 0x1EB1 JUMP JUMPDEST PUSH8 0xFFFFFFFFFFFFFFFF DUP2 GT ISZERO PUSH2 0x1F36 JUMPI PUSH2 0x1F35 PUSH2 0x1663 JUMP JUMPDEST JUMPDEST PUSH2 0x1F40 DUP3 SLOAD PUSH2 0x1A22 JUMP JUMPDEST PUSH2 0x1F4B DUP3 DUP3 DUP6 PUSH2 0x1ECD JUMP JUMPDEST PUSH0 PUSH1 0x1F DUP4 GT PUSH1 0x1 DUP2 EQ PUSH2 0x1F78 JUMPI PUSH0 DUP5 ISZERO PUSH2 0x1F66 JUMPI DUP3 DUP8 ADD CALLDATALOAD SWAP1 POP JUMPDEST PUSH2 0x1F70 DUP6 DUP3 PUSH2 0x1D21 JUMP JUMPDEST DUP7 SSTORE POP PUSH2 0x1FD7 JUMP JUMPDEST PUSH1 0x1F NOT DUP5 AND PUSH2 0x1F86 DUP7 PUSH2 0x1EBB JUMP JUMPDEST PUSH0 JUMPDEST DUP3 DUP2 LT ISZERO PUSH2 0x1FAD JUMPI DUP5 DUP10 ADD CALLDATALOAD DUP3 SSTORE PUSH1 0x1 DUP3 ADD SWAP2 POP PUSH1 0x20 DUP6 ADD SWAP5 POP PUSH1 0x20 DUP2 ADD SWAP1 POP PUSH2 0x1F88 JUMP JUMPDEST DUP7 DUP4 LT ISZERO PUSH2 0x1FCA JUMPI DUP5 DUP10 ADD CALLDATALOAD PUSH2 0x1FC6 PUSH1 0x1F DUP10 AND DUP3 PUSH2 0x1D05 JUMP JUMPDEST DUP4 SSTORE POP JUMPDEST PUSH1 0x1 PUSH1 0x2 DUP9 MUL ADD DUP9 SSTORE POP POP POP JUMPDEST POP POP POP POP POP POP POP JUMP JUMPDEST PUSH0 DUP2 SLOAD PUSH2 0x1FEC DUP2 PUSH2 0x1A22 JUMP JUMPDEST PUSH2 0x1FF6 DUP2 DUP7 PUSH2 0x13E8 JUMP JUMPDEST SWAP5 POP PUSH1 0x1 DUP3 AND PUSH0 DUP2 EQ PUSH2 0x2010 JUMPI PUSH1 0x1 DUP2 EQ PUSH2 0x2026 JUMPI PUSH2 0x2058 JUMP JUMPDEST PUSH1 0xFF NOT DUP4 AND DUP7 MSTORE DUP2 ISZERO ISZERO PUSH1 0x20 MUL DUP7 ADD SWAP4 POP PUSH2 0x2058 JUMP JUMPDEST PUSH2 0x202F DUP6 PUSH2 0x1E09 JUMP JUMPDEST PUSH0 JUMPDEST DUP4 DUP2 LT ISZERO PUSH2 0x2050 JUMPI DUP2 SLOAD DUP2 DUP10 ADD MSTORE PUSH1 0x1 DUP3 ADD SWAP2 POP PUSH1 0x20 DUP2 ADD SWAP1 POP PUSH2 0x2031 JUMP JUMPDEST DUP1 DUP9 ADD SWAP6 POP POP POP JUMPDEST POP POP POP SWAP3 SWAP2 POP POP JUMP JUMPDEST PUSH0 PUSH2 0x206C DUP4 DUP6 PUSH2 0x13E8 JUMP JUMPDEST SWAP4 POP PUSH2 0x2079 DUP4 DUP6 DUP5 PUSH2 0x170B JUMP JUMPDEST PUSH2 0x2082 DUP4 PUSH2 0x1406 JUMP JUMPDEST DUP5 ADD SWAP1 POP SWAP4 SWAP3 POP POP POP JUMP JUMPDEST PUSH0 PUSH2 0x2098 DUP4 DUP6 PUSH2 0x15C6 JUMP JUMPDEST SWAP4 POP PUSH2 0x20A5 DUP4 DUP6 DUP5 PUSH2 0x170B JUMP JUMPDEST PUSH2 0x20AE DUP4 PUSH2 0x1406 JUMP JUMPDEST DUP5 ADD SWAP1 POP SWAP4 SWAP3 POP POP POP JUMP JUMPDEST PUSH0 PUSH1 0xA0 DUP3 ADD SWAP1 POP PUSH2 0x20CC PUSH0 DUP4 ADD DUP11 PUSH2 0x12BD JUMP JUMPDEST PUSH2 0x20D9 PUSH1 0x20 DUP4 ADD DUP10 PUSH2 0x12BD JUMP JUMPDEST DUP2 DUP2 SUB PUSH1 0x40 DUP4 ADD MSTORE PUSH2 0x20EB DUP2 DUP9 PUSH2 0x1FE0 JUMP JUMPDEST SWAP1 POP DUP2 DUP2 SUB PUSH1 0x60 DUP4 ADD MSTORE PUSH2 0x2100 DUP2 DUP7 DUP9 PUSH2 0x2061 JUMP JUMPDEST SWAP1 POP DUP2 DUP2 SUB PUSH1 0x80 DUP4 ADD MSTORE PUSH2 0x2115 DUP2 DUP5 DUP7 PUSH2 0x208D JUMP JUMPDEST SWAP1 POP SWAP9 SWAP8 POP POP POP POP POP POP POP POP JUMP JUMPDEST PUSH32 0x414920726573756C74206E6F7420617661696C61626C65000000000000000000 PUSH0 DUP3 ADD MSTORE POP JUMP JUMPDEST PUSH0 PUSH2 0x2157 PUSH1 0x17 DUP4 PUSH2 0x13E8 JUMP JUMPDEST SWAP2 POP PUSH2 0x2162 DUP3 PUSH2 0x2123 JUMP JUMPDEST PUSH1 0x20 DUP3 ADD SWAP1 POP SWAP2 SWAP1 POP JUMP JUMPDEST PUSH0 PUSH1 0x20 DUP3 ADD SWAP1 POP DUP2 DUP2 SUB PUSH0 DUP4 ADD MSTORE PUSH2 0x2184 DUP2 PUSH2 0x214B JUMP JUMPDEST SWAP1 POP SWAP2 SWAP1 POP JUMP JUMPDEST PUSH32 0x7B00000000000000000000000000000000000000000000000000000000000000 PUSH0 DUP3 ADD MSTORE POP JUMP JUMPDEST PUSH0 PUSH2 0x21BF PUSH1 0x1 DUP4 PUSH2 0x19AF JUMP JUMPDEST SWAP2 POP PUSH2 0x21CA DUP3 PUSH2 0x218B JUMP JUMPDEST PUSH1 0x1 DUP3 ADD SWAP1 POP SWAP2 SWAP1 POP JUMP JUMPDEST PUSH32 0x227469746C65223A202241494743204D65746164617461222C00000000000000 PUSH0 DUP3 ADD MSTORE POP JUMP JUMPDEST PUSH0 PUSH2 0x2209 PUSH1 0x19 DUP4 PUSH2 0x19AF JUMP JUMPDEST SWAP2 POP PUSH2 0x2214 DUP3 PUSH2 0x21D5 JUMP JUMPDEST PUSH1 0x19 DUP3 ADD SWAP1 POP SWAP2 SWAP1 POP JUMP JUMPDEST PUSH32 0x226E616D65223A202245524320373030372054657874204261736564204E4654 PUSH0 DUP3 ADD MSTORE PUSH32 0x222C000000000000000000000000000000000000000000000000000000000000 PUSH1 0x20 DUP3 ADD MSTORE POP JUMP JUMPDEST PUSH0 PUSH2 0x2279 PUSH1 0x22 DUP4 PUSH2 0x19AF JUMP JUMPDEST SWAP2 POP PUSH2 0x2284 DUP3 PUSH2 0x221F JUMP JUMPDEST PUSH1 0x22 DUP3 ADD SWAP1 POP SWAP2 SWAP1 POP JUMP JUMPDEST PUSH32 0x226465736372697074696F6E223A202241492047656E65726174656420436F6E PUSH0 DUP3 ADD MSTORE PUSH32 0x74656E74222C0000000000000000000000000000000000000000000000000000 PUSH1 0x20 DUP3 ADD MSTORE POP JUMP JUMPDEST PUSH0 PUSH2 0x22E9 PUSH1 0x26 DUP4 PUSH2 0x19AF JUMP JUMPDEST SWAP2 POP PUSH2 0x22F4 DUP3 PUSH2 0x228F JUMP JUMPDEST PUSH1 0x26 DUP3 ADD SWAP1 POP SWAP2 SWAP1 POP JUMP JUMPDEST PUSH32 0x22696D616765223A202268747470733A2F2F6C6176656E6465722D61646F7261 PUSH0 DUP3 ADD MSTORE PUSH32 0x626C652D68756D6D696E67626972642D3737342E6D7970696E6174612E636C6F PUSH1 0x20 DUP3 ADD MSTORE PUSH32 0x75642F697066732F6261666B72656968796777777734676477756D707577626E PUSH1 0x40 DUP3 ADD MSTORE PUSH32 0x69347A7666616134673272683561616E67707078616A68336B79627873726D67 PUSH1 0x60 DUP3 ADD MSTORE PUSH32 0x757A79222C000000000000000000000000000000000000000000000000000000 PUSH1 0x80 DUP3 ADD MSTORE POP JUMP JUMPDEST PUSH0 PUSH2 0x23CB PUSH1 0x85 DUP4 PUSH2 0x19AF JUMP JUMPDEST SWAP2 POP PUSH2 0x23D6 DUP3 PUSH2 0x22FF JUMP JUMPDEST PUSH1 0x85 DUP3 ADD SWAP1 POP SWAP2 SWAP1 POP JUMP JUMPDEST PUSH32 0x2270726F6D7074223A2022000000000000000000000000000000000000000000 PUSH0 DUP3 ADD MSTORE POP JUMP JUMPDEST PUSH0 PUSH2 0x2415 PUSH1 0xB DUP4 PUSH2 0x19AF JUMP JUMPDEST SWAP2 POP PUSH2 0x2420 DUP3 PUSH2 0x23E1 JUMP JUMPDEST PUSH1 0xB DUP3 ADD SWAP1 POP SWAP2 SWAP1 POP JUMP JUMPDEST PUSH0 PUSH2 0x2435 DUP3 PUSH2 0x13DE JUMP JUMPDEST PUSH2 0x243F DUP2 DUP6 PUSH2 0x19AF JUMP JUMPDEST SWAP4 POP PUSH2 0x244F DUP2 DUP6 PUSH1 0x20 DUP7 ADD PUSH2 0x13F8 JUMP JUMPDEST DUP1 DUP5 ADD SWAP2 POP POP SWAP3 SWAP2 POP POP JUMP JUMPDEST PUSH32 0x222C000000000000000000000000000000000000000000000000000000000000 PUSH0 DUP3 ADD MSTORE POP JUMP JUMPDEST PUSH0 PUSH2 0x248F PUSH1 0x2 DUP4 PUSH2 0x19AF JUMP JUMPDEST SWAP2 POP PUSH2 0x249A DUP3 PUSH2 0x245B JUMP JUMPDEST PUSH1 0x2 DUP3 ADD SWAP1 POP SWAP2 SWAP1 POP JUMP JUMPDEST PUSH32 0x22616967635F74797065223A202274657874222C000000000000000000000000 PUSH0 DUP3 ADD MSTORE POP JUMP JUMPDEST PUSH0 PUSH2 0x24D9 PUSH1 0x14 DUP4 PUSH2 0x19AF JUMP JUMPDEST SWAP2 POP PUSH2 0x24E4 DUP3 PUSH2 0x24A5 JUMP JUMPDEST PUSH1 0x14 DUP3 ADD SWAP1 POP SWAP2 SWAP1 POP JUMP JUMPDEST PUSH32 0x22616967635F64617461223A2022000000000000000000000000000000000000 PUSH0 DUP3 ADD MSTORE POP JUMP JUMPDEST PUSH0 PUSH2 0x2523 PUSH1 0xE DUP4 PUSH2 0x19AF JUMP JUMPDEST SWAP2 POP PUSH2 0x252E DUP3 PUSH2 0x24EF JUMP JUMPDEST PUSH1 0xE DUP3 ADD SWAP1 POP SWAP2 SWAP1 POP JUMP JUMPDEST PUSH32 0x2270726F6F665F74797065223A20226F704D4C22000000000000000000000000 PUSH0 DUP3 ADD MSTORE POP JUMP JUMPDEST PUSH0 PUSH2 0x256D PUSH1 0x14 DUP4 PUSH2 0x19AF JUMP JUMPDEST SWAP2 POP PUSH2 0x2578 DUP3 PUSH2 0x2539 JUMP JUMPDEST PUSH1 0x14 DUP3 ADD SWAP1 POP SWAP2 SWAP1 POP JUMP JUMPDEST PUSH32 0x7D00000000000000000000000000000000000000000000000000000000000000 PUSH0 DUP3 ADD MSTORE POP JUMP JUMPDEST PUSH0 PUSH2 0x25B7 PUSH1 0x1 DUP4 PUSH2 0x19AF JUMP JUMPDEST SWAP2 POP PUSH2 0x25C2 DUP3 PUSH2 0x2583 JUMP JUMPDEST PUSH1 0x1 DUP3 ADD SWAP1 POP SWAP2 SWAP1 POP JUMP JUMPDEST PUSH0 PUSH2 0x25D7 DUP3 PUSH2 0x21B3 JUMP JUMPDEST SWAP2 POP PUSH2 0x25E2 DUP3 PUSH2 0x21FD JUMP JUMPDEST SWAP2 POP PUSH2 0x25ED DUP3 PUSH2 0x226D JUMP JUMPDEST SWAP2 POP PUSH2 0x25F8 DUP3 PUSH2 0x22DD JUMP JUMPDEST SWAP2 POP PUSH2 0x2603 DUP3 PUSH2 0x23BF JUMP JUMPDEST SWAP2 POP PUSH2 0x260E DUP3 PUSH2 0x2409 JUMP JUMPDEST SWAP2 POP PUSH2 0x261A DUP3 DUP6 PUSH2 0x242B JUMP JUMPDEST SWAP2 POP PUSH2 0x2625 DUP3 PUSH2 0x2483 JUMP JUMPDEST SWAP2 POP PUSH2 0x2630 DUP3 PUSH2 0x24CD JUMP JUMPDEST SWAP2 POP PUSH2 0x263B DUP3 PUSH2 0x2517 JUMP JUMPDEST SWAP2 POP PUSH2 0x2647 DUP3 DUP5 PUSH2 0x242B JUMP JUMPDEST SWAP2 POP PUSH2 0x2652 DUP3 PUSH2 0x2483 JUMP JUMPDEST SWAP2 POP PUSH2 0x265D DUP3 PUSH2 0x2561 JUMP JUMPDEST SWAP2 POP PUSH2 0x2668 DUP3 PUSH2 0x25AB JUMP JUMPDEST SWAP2 POP DUP2 SWAP1 POP SWAP4 SWAP3 POP POP POP JUMP JUMPDEST PUSH32 0x646174613A6170706C69636174696F6E2F6A736F6E3B6261736536342C000000 PUSH0 DUP3 ADD MSTORE POP JUMP JUMPDEST PUSH0 PUSH2 0x26A8 PUSH1 0x1D DUP4 PUSH2 0x19AF JUMP JUMPDEST SWAP2 POP PUSH2 0x26B3 DUP3 PUSH2 0x2674 JUMP JUMPDEST PUSH1 0x1D DUP3 ADD SWAP1 POP SWAP2 SWAP1 POP JUMP JUMPDEST PUSH0 PUSH2 0x26C8 DUP3 PUSH2 0x269C JUMP JUMPDEST SWAP2 POP PUSH2 0x26D4 DUP3 DUP5 PUSH2 0x242B JUMP JUMPDEST SWAP2 POP DUP2 SWAP1 POP SWAP3 SWAP2 POP POP JUMP JUMPDEST POP JUMP JUMPDEST PUSH0 PUSH2 0x26ED PUSH0 DUP4 PUSH2 0x15C6 JUMP JUMPDEST SWAP2 POP PUSH2 0x26F8 DUP3 PUSH2 0x26DF JUMP JUMPDEST PUSH0 DUP3 ADD SWAP1 POP SWAP2 SWAP1 POP JUMP JUMPDEST PUSH0 PUSH1 0xA0 DUP3 ADD SWAP1 POP PUSH2 0x2715 PUSH0 DUP4 ADD DUP8 PUSH2 0x15AD JUMP JUMPDEST DUP2 DUP2 SUB PUSH1 0x20 DUP4 ADD MSTORE PUSH2 0x2727 DUP2 DUP7 PUSH2 0x15D6 JUMP JUMPDEST SWAP1 POP DUP2 DUP2 SUB PUSH1 0x40 DUP4 ADD MSTORE PUSH2 0x273B DUP2 DUP6 PUSH2 0x15D6 JUMP JUMPDEST SWAP1 POP DUP2 DUP2 SUB PUSH1 0x60 DUP4 ADD MSTORE PUSH2 0x274F DUP2 DUP5 PUSH2 0x1416 JUMP JUMPDEST SWAP1 POP DUP2 DUP2 SUB PUSH1 0x80 DUP4 ADD MSTORE PUSH2 0x2762 DUP2 PUSH2 0x26E2 JUMP JUMPDEST SWAP1 POP SWAP6 SWAP5 POP POP POP POP POP JUMP JUMPDEST PUSH0 DUP2 SWAP1 POP SWAP3 SWAP2 POP POP JUMP JUMPDEST PUSH0 PUSH2 0x2781 DUP3 PUSH2 0x15BC JUMP JUMPDEST PUSH2 0x278B DUP2 DUP6 PUSH2 0x276D JUMP JUMPDEST SWAP4 POP PUSH2 0x279B DUP2 DUP6 PUSH1 0x20 DUP7 ADD PUSH2 0x13F8 JUMP JUMPDEST DUP1 DUP5 ADD SWAP2 POP POP SWAP3 SWAP2 POP POP JUMP JUMPDEST PUSH0 PUSH2 0x27B2 DUP3 DUP5 PUSH2 0x2777 JUMP JUMPDEST SWAP2 POP DUP2 SWAP1 POP SWAP3 SWAP2 POP POP JUMP JUMPDEST PUSH0 PUSH1 0x20 DUP3 ADD SWAP1 POP DUP2 DUP2 SUB PUSH0 DUP4 ADD MSTORE PUSH2 0x27D5 DUP2 DUP5 PUSH2 0x15D6 JUMP JUMPDEST SWAP1 POP SWAP3 SWAP2 POP POP JUMP JUMPDEST PUSH0 PUSH1 0xA0 DUP3 ADD SWAP1 POP PUSH2 0x27F0 PUSH0 DUP4 ADD DUP8 PUSH2 0x12BD JUMP JUMPDEST DUP2 DUP2 SUB PUSH1 0x20 DUP4 ADD MSTORE PUSH2 0x2802 DUP2 DUP7 PUSH2 0x15D6 JUMP JUMPDEST SWAP1 POP PUSH2 0x2811 PUSH1 0x40 DUP4 ADD DUP6 PUSH2 0x15AD JUMP JUMPDEST PUSH2 0x281E PUSH1 0x60 DUP4 ADD DUP5 PUSH2 0x12F8 JUMP JUMPDEST DUP2 DUP2 SUB PUSH1 0x80 DUP4 ADD MSTORE PUSH2 0x282F DUP2 PUSH2 0x26E2 JUMP JUMPDEST SWAP1 POP SWAP6 SWAP5 POP POP POP POP POP JUMP JUMPDEST PUSH2 0x2843 DUP3 PUSH2 0x15BC JUMP JUMPDEST PUSH8 0xFFFFFFFFFFFFFFFF DUP2 GT ISZERO PUSH2 0x285C JUMPI PUSH2 0x285B PUSH2 0x1663 JUMP JUMPDEST JUMPDEST PUSH2 0x2866 DUP3 SLOAD PUSH2 0x1A22 JUMP JUMPDEST PUSH2 0x2871 DUP3 DUP3 DUP6 PUSH2 0x1CB3 JUMP JUMPDEST PUSH0 PUSH1 0x20 SWAP1 POP PUSH1 0x1F DUP4 GT PUSH1 0x1 DUP2 EQ PUSH2 0x28A2 JUMPI PUSH0 DUP5 ISZERO PUSH2 0x2890 JUMPI DUP3 DUP8 ADD MLOAD SWAP1 POP JUMPDEST PUSH2 0x289A DUP6 DUP3 PUSH2 0x1D21 JUMP JUMPDEST DUP7 SSTORE POP PUSH2 0x2901 JUMP JUMPDEST PUSH1 0x1F NOT DUP5 AND PUSH2 0x28B0 DUP7 PUSH2 0x1BA8 JUMP JUMPDEST PUSH0 JUMPDEST DUP3 DUP2 LT ISZERO PUSH2 0x28D7 JUMPI DUP5 DUP10 ADD MLOAD DUP3 SSTORE PUSH1 0x1 DUP3 ADD SWAP2 POP PUSH1 0x20 DUP6 ADD SWAP5 POP PUSH1 0x20 DUP2 ADD SWAP1 POP PUSH2 0x28B2 JUMP JUMPDEST DUP7 DUP4 LT ISZERO PUSH2 0x28F4 JUMPI DUP5 DUP10 ADD MLOAD PUSH2 0x28F0 PUSH1 0x1F DUP10 AND DUP3 PUSH2 0x1D05 JUMP JUMPDEST DUP4 SSTORE POP JUMPDEST PUSH1 0x1 PUSH1 0x2 DUP9 MUL ADD DUP9 SSTORE POP POP POP JUMPDEST POP POP POP POP POP POP JUMP JUMPDEST PUSH0 PUSH1 0x80 DUP3 ADD SWAP1 POP PUSH2 0x291C PUSH0 DUP4 ADD DUP9 PUSH2 0x12BD JUMP JUMPDEST PUSH2 0x2929 PUSH1 0x20 DUP4 ADD DUP8 PUSH2 0x15AD JUMP JUMPDEST PUSH2 0x2936 PUSH1 0x40 DUP4 ADD DUP7 PUSH2 0x12BD JUMP JUMPDEST DUP2 DUP2 SUB PUSH1 0x60 DUP4 ADD MSTORE PUSH2 0x2949 DUP2 DUP5 DUP7 PUSH2 0x2061 JUMP JUMPDEST SWAP1 POP SWAP7 SWAP6 POP POP POP POP POP POP JUMP JUMPDEST PUSH32 0x4E487B7100000000000000000000000000000000000000000000000000000000 PUSH0 MSTORE PUSH1 0x11 PUSH1 0x4 MSTORE PUSH1 0x24 PUSH0 REVERT JUMPDEST PUSH0 PUSH2 0x298C DUP3 PUSH2 0x125F JUMP JUMPDEST SWAP2 POP PUSH2 0x2997 DUP4 PUSH2 0x125F JUMP JUMPDEST SWAP3 POP DUP3 DUP3 MUL PUSH2 0x29A5 DUP2 PUSH2 0x125F JUMP JUMPDEST SWAP2 POP DUP3 DUP3 DIV DUP5 EQ DUP4 ISZERO OR PUSH2 0x29BC JUMPI PUSH2 0x29BB PUSH2 0x2955 JUMP JUMPDEST JUMPDEST POP SWAP3 SWAP2 POP POP JUMP JUMPDEST PUSH0 PUSH2 0x29CD DUP3 PUSH2 0x125F JUMP JUMPDEST SWAP2 POP PUSH2 0x29D8 DUP4 PUSH2 0x125F JUMP JUMPDEST SWAP3 POP DUP3 DUP3 ADD SWAP1 POP DUP1 DUP3 GT ISZERO PUSH2 0x29F0 JUMPI PUSH2 0x29EF PUSH2 0x2955 JUMP JUMPDEST JUMPDEST SWAP3 SWAP2 POP POP JUMP JUMPDEST PUSH32 0x4E487B7100000000000000000000000000000000000000000000000000000000 PUSH0 MSTORE PUSH1 0x12 PUSH1 0x4 MSTORE PUSH1 0x24 PUSH0 REVERT JUMPDEST PUSH0 PUSH2 0x2A2D DUP3 PUSH2 0x125F JUMP JUMPDEST SWAP2 POP PUSH2 0x2A38 DUP4 PUSH2 0x125F JUMP JUMPDEST SWAP3 POP DUP3 PUSH2 0x2A48 JUMPI PUSH2 0x2A47 PUSH2 0x29F6 JUMP JUMPDEST JUMPDEST DUP3 DUP3 DIV SWAP1 POP SWAP3 SWAP2 POP POP JUMP INVALID COINBASE TIMESTAMP NUMBER PREVRANDAO GASLIMIT CHAINID SELFBALANCE BASEFEE BLOBHASH BLOBBASEFEE 0x4B 0x4C 0x4D 0x4E 0x4F POP MLOAD MSTORE MSTORE8 SLOAD SSTORE JUMP JUMPI PC MSIZE GAS PUSH2 0x6263 PUSH5 0x6566676869 PUSH11 0x6B6C6D6E6F707172737475 PUSH23 0x7778797A303132333435363738392B2FA2646970667358 0x22 SLT KECCAK256 0xE2 NOT DUP2 MLOAD 0xD2 0x2C PUSH27 0x9D1243704991FB4792E7485BC15DE6C0A37812C6E91ECCCC4C6473 PUSH16 0x6C634300081A00330000000000000000 "
				},
				"gasEstimates": {
					"creation": {
						"codeDepositCost": "2190600",
						"executionCost": "infinite",
						"totalCost": "infinite"
					},
					"external": {
						"aiOracle()": "infinite",
						"aiOracleCallback(uint256,bytes,bytes)": "infinite",
						"calculateAIResult(uint256,string)": "infinite",
						"callbackGasLimit(uint256)": "2808",
						"erc7007()": "infinite",
						"estimateFee(uint256)": "infinite",
						"getAIResult(uint256,string)": "infinite",
						"isFinalized(uint256)": "infinite",
						"mintWithAIResult(uint256)": "infinite",
						"owner()": "2572",
						"prompts(uint256,string)": "infinite",
						"requests(uint256)": "infinite",
						"setCallbackGasLimit(uint256,uint64)": "27197"
					}
				},
				"methodIdentifiers": {
					"aiOracle()": "31b221cd",
					"aiOracleCallback(uint256,bytes,bytes)": "b0347814",
					"calculateAIResult(uint256,string)": "fac5d7e1",
					"callbackGasLimit(uint256)": "20f38718",
					"erc7007()": "a1216472",
					"estimateFee(uint256)": "127e8e4d",
					"getAIResult(uint256,string)": "2c6296b7",
					"isFinalized(uint256)": "33727c4d",
					"mintWithAIResult(uint256)": "de1f8676",
					"owner()": "8da5cb5b",
					"prompts(uint256,string)": "8cbc52d9",
					"requests(uint256)": "81d12c58",
					"setCallbackGasLimit(uint256,uint64)": "813d1e15"
				}
			},
			"storageLayout": {
				"storage": [
					{
						"astId": 408,
						"contract": "contracts/Promp-nft.sol:Prompt",
						"label": "owner",
						"offset": 0,
						"slot": "0",
						"type": "t_address"
					},
					{
						"astId": 411,
						"contract": "contracts/Promp-nft.sol:Prompt",
						"label": "erc7007",
						"offset": 0,
						"slot": "1",
						"type": "t_contract(IERC7007)349"
					},
					{
						"astId": 428,
						"contract": "contracts/Promp-nft.sol:Prompt",
						"label": "requests",
						"offset": 0,
						"slot": "2",
						"type": "t_mapping(t_uint256,t_struct(AIOracleRequest)406_storage)"
					},
					{
						"astId": 432,
						"contract": "contracts/Promp-nft.sol:Prompt",
						"label": "callbackGasLimit",
						"offset": 0,
						"slot": "3",
						"type": "t_mapping(t_uint256,t_uint64)"
					},
					{
						"astId": 438,
						"contract": "contracts/Promp-nft.sol:Prompt",
						"label": "prompts",
						"offset": 0,
						"slot": "4",
						"type": "t_mapping(t_uint256,t_mapping(t_string_memory_ptr,t_string_storage))"
					}
				],
				"types": {
					"t_address": {
						"encoding": "inplace",
						"label": "address",
						"numberOfBytes": "20"
					},
					"t_bytes_storage": {
						"encoding": "bytes",
						"label": "bytes",
						"numberOfBytes": "32"
					},
					"t_contract(IERC7007)349": {
						"encoding": "inplace",
						"label": "contract IERC7007",
						"numberOfBytes": "20"
					},
					"t_mapping(t_string_memory_ptr,t_string_storage)": {
						"encoding": "mapping",
						"key": "t_string_memory_ptr",
						"label": "mapping(string => string)",
						"numberOfBytes": "32",
						"value": "t_string_storage"
					},
					"t_mapping(t_uint256,t_mapping(t_string_memory_ptr,t_string_storage))": {
						"encoding": "mapping",
						"key": "t_uint256",
						"label": "mapping(uint256 => mapping(string => string))",
						"numberOfBytes": "32",
						"value": "t_mapping(t_string_memory_ptr,t_string_storage)"
					},
					"t_mapping(t_uint256,t_struct(AIOracleRequest)406_storage)": {
						"encoding": "mapping",
						"key": "t_uint256",
						"label": "mapping(uint256 => struct Prompt.AIOracleRequest)",
						"numberOfBytes": "32",
						"value": "t_struct(AIOracleRequest)406_storage"
					},
					"t_mapping(t_uint256,t_uint64)": {
						"encoding": "mapping",
						"key": "t_uint256",
						"label": "mapping(uint256 => uint64)",
						"numberOfBytes": "32",
						"value": "t_uint64"
					},
					"t_string_memory_ptr": {
						"encoding": "bytes",
						"label": "string",
						"numberOfBytes": "32"
					},
					"t_string_storage": {
						"encoding": "bytes",
						"label": "string",
						"numberOfBytes": "32"
					},
					"t_struct(AIOracleRequest)406_storage": {
						"encoding": "inplace",
						"label": "struct Prompt.AIOracleRequest",
						"members": [
							{
								"astId": 399,
								"contract": "contracts/Promp-nft.sol:Prompt",
								"label": "sender",
								"offset": 0,
								"slot": "0",
								"type": "t_address"
							},
							{
								"astId": 401,
								"contract": "contracts/Promp-nft.sol:Prompt",
								"label": "modelId",
								"offset": 0,
								"slot": "1",
								"type": "t_uint256"
							},
							{
								"astId": 403,
								"contract": "contracts/Promp-nft.sol:Prompt",
								"label": "input",
								"offset": 0,
								"slot": "2",
								"type": "t_bytes_storage"
							},
							{
								"astId": 405,
								"contract": "contracts/Promp-nft.sol:Prompt",
								"label": "output",
								"offset": 0,
								"slot": "3",
								"type": "t_bytes_storage"
							}
						],
						"numberOfBytes": "128"
					},
					"t_uint256": {
						"encoding": "inplace",
						"label": "uint256",
						"numberOfBytes": "32"
					},
					"t_uint64": {
						"encoding": "inplace",
						"label": "uint64",
						"numberOfBytes": "8"
					}
				}
			},
			"userdoc": {
				"kind": "user",
				"methods": {},
				"version": 1
			}
		}
	}
}