{
	"data": {
		"bytecode": {
			"linkReferences": {},
			"object": "6080604052348015600e575f80fd5b506115cb8061001c5f395ff3fe608060405234801561000f575f80fd5b5060043610610029575f3560e01c8063bcb998861461002d575b5f80fd5b610047600480360381019061004291906113c4565b61005d565b604051610054919061141e565b60405180910390f35b5f80600567ffffffffffffffff81111561007a576100796110b9565b5b6040519080825280602002602001820160405280156100a85781602001602082028036833780820191505090505b5090505f5b60058110156100fa578381600581106100c9576100c8611437565b5b60200201518282815181106100e1576100e0611437565b5b60200260200101818152505080806001019150506100ad565b505f6101068286610120565b0361011557600191505061011a565b5f9150505b92915050565b5f807f30644e72e131a029b85045b68181585d2833e84879b9709143e1f593f000000190505f61014e6102a5565b9050806080015151600186516101649190611491565b1461016d575f80fd5b5f60405180604001604052805f81526020015f81525090505f5b865181101561021b57838782815181106101a4576101a3611437565b5b6020026020010151106101b5575f80fd5b61020c8261020785608001516001856101ce9190611491565b815181106101df576101de611437565b5b60200260200101518a85815181106101fa576101f9611437565b5b6020026020010151610886565b610923565b91508080600101915050610187565b506102448183608001515f8151811061023757610236611437565b5b6020026020010151610923565b9050610288855f0151866020015161025b846109e5565b856040015161026d8a604001516109e5565b876060015161027e895f01516109e5565b8960200151610a83565b610298576001935050505061029f565b5f93505050505b92915050565b6102ad610f8b565b60405180604001604052807f02e4e342e09cc38aea0f5718187109ee6a693e1692746240d8067b196c9ab88581526020017f03c638f67c45fb557ff3f71cc8dcf72453f99c0d4a2798d493b74abe18338639815250815f0181905250604051806040016040528060405180604001604052807f2ba2f1e535ae7e51b492963def6fa6c4738a45225ff6da59f9ca3555d5597ab681526020017f14417ad1e990c4c9e7409cd36c6e407d8bb6c8a2f68874c94a36b4e8ac633b31815250815260200160405180604001604052807f19928a8904f87693d2d2bd365716ea0c91dbeaa0372af2f81fb70fe83e49a4e581526020017f11f564070e89eba8be4ad6d33b4d552e7bc8bf037844b9e8c7af2b7ecedccca28152508152508160200181905250604051806040016040528060405180604001604052807f0d804e6d1f1762cb46759150697eb53e52a834955768a4d45b68e05c90587c5f81526020017f0dc13c8c5866f242f0b7a647efcc1c5f6d879eae30506c5ad0eecd626d23aad3815250815260200160405180604001604052807f08c66f6f5f3c534b3e1a9d8ce2ecd4487ff95326411961f1e6452ebd0b7c791a81526020017ecde05a84f2e5d78e1842f70e7b0cb96ef779095a45868334e2464e96cb3f268152508152508160400181905250604051806040016040528060405180604001604052807f2a16f67937b4b8e82faaa42288bac1efc6bc0add48c3e7c5fae8464f67bbe09081526020017f24b37c5a0a88be3189e6a10511d055059da535814b410845f844c29d14fb353a815250815260200160405180604001604052807f2953406a63ac0b96f4f4b84abb6bd47b8a132631731e1c70e778b4baac67f08681526020017f03f07238dcf2398796b73e92b6898bb99d13b5619881e78b719bfd74ed2556c28152508152508160600181905250600667ffffffffffffffff811115610572576105716110b9565b5b6040519080825280602002602001820160405280156105ab57816020015b610598610fd2565b8152602001906001900390816105905790505b50816080018190525060405180604001604052807f2452a2328a0fca42ecb2a6f6d9b61576a910388349addc48198edf54ebad7a3381526020017f2454cb7daa4e6c00799d8117accb5039dfcacdffd4191d61eb4cc2ff410f4e3a81525081608001515f815181106106205761061f611437565b5b602002602001018190525060405180604001604052807f2679b135d62055ab41a37c90c4155ffc349954780ab5e947f8e235c08917980c81526020017f23ef3a05c85d47d61c90386632c108cab613fc6dfe7faca9abdcda9e4ec32ffc815250816080015160018151811061069857610697611437565b5b602002602001018190525060405180604001604052807f14e5b612c827c82c99359c2d63c44cf11d3e9a0b25f142e2f3aba355c776631381526020017f0e51f3aaf7b63c9da98c6281493de75c57cccfcdf251cbb6256450a0c2bdf4e881525081608001516002815181106107105761070f611437565b5b602002602001018190525060405180604001604052807f2b10a4c3361b605103ce234ddc8b761b07276d7d053c7446aeb749537548227381526020017f0924baec305060d2e5db5a75b55a37fbebe726e921f0cc2f8a1ed9494aba8808815250816080015160038151811061078857610787611437565b5b602002602001018190525060405180604001604052807f261ef28886d60c9824fb9a91bc881f585016c5c79d3ff8acab386f4217e0874681526020017f1ad4a1db1d3bd52391b730ce54667c51f1f11d84236025fc801c63dd099a7c568152508160800151600481518110610800576107ff611437565b5b602002602001018190525060405180604001604052807f086d3244f4ed19477811a7551700271c448723e042ca1a57868baf2c92b3c9a781526020017f28b602b08762b6ae16bb5ae35c421a1f8d19b0331d71e1bb1fa22c866d46f8b7815250816080015160058151811061087857610877611437565b5b602002602001018190525090565b61088e610fd2565b610896610fea565b835f0151815f600381106108ad576108ac611437565b5b6020020181815250508360200151816001600381106108cf576108ce611437565b5b60200201818152505082816002600381106108ed576108ec611437565b5b6020020181815250505f60608360808460076107d05a03fa9050805f810361091157fe5b508061091b575f80fd5b505092915050565b61092b610fd2565b61093361100c565b835f0151815f6004811061094a57610949611437565b5b60200201818152505083602001518160016004811061096c5761096b611437565b5b602002018181525050825f01518160026004811061098d5761098c611437565b5b6020020181815250508260200151816003600481106109af576109ae611437565b5b6020020181815250505f60608360c08460066107d05a03fa9050805f81036109d357fe5b50806109dd575f80fd5b505092915050565b6109ed610fd2565b5f7f30644e72e131a029b85045b68181585d97816a916871ca8d3c208c16d87cfd4790505f835f0151148015610a2657505f8360200151145b15610a485760405180604001604052805f81526020015f815250915050610a7e565b6040518060400160405280845f01518152602001828560200151610a6c91906114f1565b83610a779190611521565b8152509150505b919050565b5f80600467ffffffffffffffff811115610aa057610a9f6110b9565b5b604051908082528060200260200182016040528015610ad957816020015b610ac6610fd2565b815260200190600190039081610abe5790505b5090505f600467ffffffffffffffff811115610af857610af76110b9565b5b604051908082528060200260200182016040528015610b3157816020015b610b1e61102e565b815260200190600190039081610b165790505b5090508a825f81518110610b4857610b47611437565b5b60200260200101819052508882600181518110610b6857610b67611437565b5b60200260200101819052508682600281518110610b8857610b87611437565b5b60200260200101819052508482600381518110610ba857610ba7611437565b5b602002602001018190525089815f81518110610bc757610bc6611437565b5b60200260200101819052508781600181518110610be757610be6611437565b5b60200260200101819052508581600281518110610c0757610c06611437565b5b60200260200101819052508381600381518110610c2757610c26611437565b5b6020026020010181905250610c3c8282610c4c565b9250505098975050505050505050565b5f8151835114610c5a575f80fd5b5f835190505f600682610c6d9190611554565b90505f8167ffffffffffffffff811115610c8a57610c896110b9565b5b604051908082528060200260200182016040528015610cb85781602001602082028036833780820191505090505b5090505f5b83811015610f3057868181518110610cd857610cd7611437565b5b60200260200101515f0151825f600684610cf29190611554565b610cfc9190611491565b81518110610d0d57610d0c611437565b5b602002602001018181525050868181518110610d2c57610d2b611437565b5b602002602001015160200151826001600684610d489190611554565b610d529190611491565b81518110610d6357610d62611437565b5b602002602001018181525050858181518110610d8257610d81611437565b5b60200260200101515f0151600160028110610da057610d9f611437565b5b6020020151826002600684610db59190611554565b610dbf9190611491565b81518110610dd057610dcf611437565b5b602002602001018181525050858181518110610def57610dee611437565b5b60200260200101515f01515f60028110610e0c57610e0b611437565b5b6020020151826003600684610e219190611554565b610e2b9190611491565b81518110610e3c57610e3b611437565b5b602002602001018181525050858181518110610e5b57610e5a611437565b5b602002602001015160200151600160028110610e7a57610e79611437565b5b6020020151826004600684610e8f9190611554565b610e999190611491565b81518110610eaa57610ea9611437565b5b602002602001018181525050858181518110610ec957610ec8611437565b5b6020026020010151602001515f60028110610ee757610ee6611437565b5b6020020151826005600684610efc9190611554565b610f069190611491565b81518110610f1757610f16611437565b5b6020026020010181815250508080600101915050610cbd565b50610f39611054565b5f602082602086026020860160086107d05a03fa9050805f8103610f5957fe5b5080610f63575f80fd5b5f825f60018110610f7757610f76611437565b5b602002015114159550505050505092915050565b6040518060a00160405280610f9e610fd2565b8152602001610fab61102e565b8152602001610fb861102e565b8152602001610fc561102e565b8152602001606081525090565b60405180604001604052805f81526020015f81525090565b6040518060600160405280600390602082028036833780820191505090505090565b6040518060800160405280600490602082028036833780820191505090505090565b6040518060400160405280611041611076565b815260200161104e611076565b81525090565b6040518060200160405280600190602082028036833780820191505090505090565b6040518060400160405280600290602082028036833780820191505090505090565b5f604051905090565b5f80fd5b5f80fd5b5f601f19601f8301169050919050565b7f4e487b71000000000000000000000000000000000000000000000000000000005f52604160045260245ffd5b6110ef826110a9565b810181811067ffffffffffffffff8211171561110e5761110d6110b9565b5b80604052505050565b5f611120611098565b905061112c82826110e6565b919050565b5f819050919050565b61114381611131565b811461114d575f80fd5b50565b5f8135905061115e8161113a565b92915050565b5f60408284031215611179576111786110a5565b5b6111836040611117565b90505f61119284828501611150565b5f8301525060206111a584828501611150565b60208301525092915050565b5f80fd5b5f67ffffffffffffffff8211156111cf576111ce6110b9565b5b602082029050919050565b5f80fd5b5f6111f06111eb846111b5565b611117565b9050806020840283018581111561120a576112096111da565b5b835b81811015611233578061121f8882611150565b84526020840193505060208101905061120c565b5050509392505050565b5f82601f830112611251576112506111b1565b5b600261125e8482856111de565b91505092915050565b5f6080828403121561127c5761127b6110a5565b5b6112866040611117565b90505f6112958482850161123d565b5f8301525060406112a88482850161123d565b60208301525092915050565b5f61010082840312156112ca576112c96110a5565b5b6112d46060611117565b90505f6112e384828501611164565b5f8301525060406112f684828501611267565b60208301525060c061130a84828501611164565b60408301525092915050565b5f67ffffffffffffffff8211156113305761132f6110b9565b5b602082029050919050565b5f61134d61134884611316565b611117565b90508060208402830185811115611367576113666111da565b5b835b81811015611390578061137c8882611150565b845260208401935050602081019050611369565b5050509392505050565b5f82601f8301126113ae576113ad6111b1565b5b60056113bb84828561133b565b91505092915050565b5f806101a083850312156113db576113da6110a1565b5b5f6113e8858286016112b4565b9250506101006113fa8582860161139a565b9150509250929050565b5f8115159050919050565b61141881611404565b82525050565b5f6020820190506114315f83018461140f565b92915050565b7f4e487b71000000000000000000000000000000000000000000000000000000005f52603260045260245ffd5b7f4e487b71000000000000000000000000000000000000000000000000000000005f52601160045260245ffd5b5f61149b82611131565b91506114a683611131565b92508282019050808211156114be576114bd611464565b5b92915050565b7f4e487b71000000000000000000000000000000000000000000000000000000005f52601260045260245ffd5b5f6114fb82611131565b915061150683611131565b925082611516576115156114c4565b5b828206905092915050565b5f61152b82611131565b915061153683611131565b925082820390508181111561154e5761154d611464565b5b92915050565b5f61155e82611131565b915061156983611131565b925082820261157781611131565b9150828204841483151761158e5761158d611464565b5b509291505056fea2646970667358221220d975cbc68ed36fdc44b72930c19591bf8e778a074e865333d225d9c07ecfd77964736f6c634300081a0033",
			"opcodes": "PUSH1 0x80 PUSH1 0x40 MSTORE CALLVALUE DUP1 ISZERO PUSH1 0xE JUMPI PUSH0 DUP1 REVERT JUMPDEST POP PUSH2 0x15CB DUP1 PUSH2 0x1C PUSH0 CODECOPY PUSH0 RETURN INVALID PUSH1 0x80 PUSH1 0x40 MSTORE CALLVALUE DUP1 ISZERO PUSH2 0xF JUMPI PUSH0 DUP1 REVERT JUMPDEST POP PUSH1 0x4 CALLDATASIZE LT PUSH2 0x29 JUMPI PUSH0 CALLDATALOAD PUSH1 0xE0 SHR DUP1 PUSH4 0xBCB99886 EQ PUSH2 0x2D JUMPI JUMPDEST PUSH0 DUP1 REVERT JUMPDEST PUSH2 0x47 PUSH1 0x4 DUP1 CALLDATASIZE SUB DUP2 ADD SWAP1 PUSH2 0x42 SWAP2 SWAP1 PUSH2 0x13C4 JUMP JUMPDEST PUSH2 0x5D JUMP JUMPDEST PUSH1 0x40 MLOAD PUSH2 0x54 SWAP2 SWAP1 PUSH2 0x141E JUMP JUMPDEST PUSH1 0x40 MLOAD DUP1 SWAP2 SUB SWAP1 RETURN JUMPDEST PUSH0 DUP1 PUSH1 0x5 PUSH8 0xFFFFFFFFFFFFFFFF DUP2 GT ISZERO PUSH2 0x7A JUMPI PUSH2 0x79 PUSH2 0x10B9 JUMP JUMPDEST JUMPDEST PUSH1 0x40 MLOAD SWAP1 DUP1 DUP3 MSTORE DUP1 PUSH1 0x20 MUL PUSH1 0x20 ADD DUP3 ADD PUSH1 0x40 MSTORE DUP1 ISZERO PUSH2 0xA8 JUMPI DUP2 PUSH1 0x20 ADD PUSH1 0x20 DUP3 MUL DUP1 CALLDATASIZE DUP4 CALLDATACOPY DUP1 DUP3 ADD SWAP2 POP POP SWAP1 POP JUMPDEST POP SWAP1 POP PUSH0 JUMPDEST PUSH1 0x5 DUP2 LT ISZERO PUSH2 0xFA JUMPI DUP4 DUP2 PUSH1 0x5 DUP2 LT PUSH2 0xC9 JUMPI PUSH2 0xC8 PUSH2 0x1437 JUMP JUMPDEST JUMPDEST PUSH1 0x20 MUL ADD MLOAD DUP3 DUP3 DUP2 MLOAD DUP2 LT PUSH2 0xE1 JUMPI PUSH2 0xE0 PUSH2 0x1437 JUMP JUMPDEST JUMPDEST PUSH1 0x20 MUL PUSH1 0x20 ADD ADD DUP2 DUP2 MSTORE POP POP DUP1 DUP1 PUSH1 0x1 ADD SWAP2 POP POP PUSH2 0xAD JUMP JUMPDEST POP PUSH0 PUSH2 0x106 DUP3 DUP7 PUSH2 0x120 JUMP JUMPDEST SUB PUSH2 0x115 JUMPI PUSH1 0x1 SWAP2 POP POP PUSH2 0x11A JUMP JUMPDEST PUSH0 SWAP2 POP POP JUMPDEST SWAP3 SWAP2 POP POP JUMP JUMPDEST PUSH0 DUP1 PUSH32 0x30644E72E131A029B85045B68181585D2833E84879B9709143E1F593F0000001 SWAP1 POP PUSH0 PUSH2 0x14E PUSH2 0x2A5 JUMP JUMPDEST SWAP1 POP DUP1 PUSH1 0x80 ADD MLOAD MLOAD PUSH1 0x1 DUP7 MLOAD PUSH2 0x164 SWAP2 SWAP1 PUSH2 0x1491 JUMP JUMPDEST EQ PUSH2 0x16D JUMPI PUSH0 DUP1 REVERT JUMPDEST PUSH0 PUSH1 0x40 MLOAD DUP1 PUSH1 0x40 ADD PUSH1 0x40 MSTORE DUP1 PUSH0 DUP2 MSTORE PUSH1 0x20 ADD PUSH0 DUP2 MSTORE POP SWAP1 POP PUSH0 JUMPDEST DUP7 MLOAD DUP2 LT ISZERO PUSH2 0x21B JUMPI DUP4 DUP8 DUP3 DUP2 MLOAD DUP2 LT PUSH2 0x1A4 JUMPI PUSH2 0x1A3 PUSH2 0x1437 JUMP JUMPDEST JUMPDEST PUSH1 0x20 MUL PUSH1 0x20 ADD ADD MLOAD LT PUSH2 0x1B5 JUMPI PUSH0 DUP1 REVERT JUMPDEST PUSH2 0x20C DUP3 PUSH2 0x207 DUP6 PUSH1 0x80 ADD MLOAD PUSH1 0x1 DUP6 PUSH2 0x1CE SWAP2 SWAP1 PUSH2 0x1491 JUMP JUMPDEST DUP2 MLOAD DUP2 LT PUSH2 0x1DF JUMPI PUSH2 0x1DE PUSH2 0x1437 JUMP JUMPDEST JUMPDEST PUSH1 0x20 MUL PUSH1 0x20 ADD ADD MLOAD DUP11 DUP6 DUP2 MLOAD DUP2 LT PUSH2 0x1FA JUMPI PUSH2 0x1F9 PUSH2 0x1437 JUMP JUMPDEST JUMPDEST PUSH1 0x20 MUL PUSH1 0x20 ADD ADD MLOAD PUSH2 0x886 JUMP JUMPDEST PUSH2 0x923 JUMP JUMPDEST SWAP2 POP DUP1 DUP1 PUSH1 0x1 ADD SWAP2 POP POP PUSH2 0x187 JUMP JUMPDEST POP PUSH2 0x244 DUP2 DUP4 PUSH1 0x80 ADD MLOAD PUSH0 DUP2 MLOAD DUP2 LT PUSH2 0x237 JUMPI PUSH2 0x236 PUSH2 0x1437 JUMP JUMPDEST JUMPDEST PUSH1 0x20 MUL PUSH1 0x20 ADD ADD MLOAD PUSH2 0x923 JUMP JUMPDEST SWAP1 POP PUSH2 0x288 DUP6 PUSH0 ADD MLOAD DUP7 PUSH1 0x20 ADD MLOAD PUSH2 0x25B DUP5 PUSH2 0x9E5 JUMP JUMPDEST DUP6 PUSH1 0x40 ADD MLOAD PUSH2 0x26D DUP11 PUSH1 0x40 ADD MLOAD PUSH2 0x9E5 JUMP JUMPDEST DUP8 PUSH1 0x60 ADD MLOAD PUSH2 0x27E DUP10 PUSH0 ADD MLOAD PUSH2 0x9E5 JUMP JUMPDEST DUP10 PUSH1 0x20 ADD MLOAD PUSH2 0xA83 JUMP JUMPDEST PUSH2 0x298 JUMPI PUSH1 0x1 SWAP4 POP POP POP POP PUSH2 0x29F JUMP JUMPDEST PUSH0 SWAP4 POP POP POP POP JUMPDEST SWAP3 SWAP2 POP POP JUMP JUMPDEST PUSH2 0x2AD PUSH2 0xF8B JUMP JUMPDEST PUSH1 0x40 MLOAD DUP1 PUSH1 0x40 ADD PUSH1 0x40 MSTORE DUP1 PUSH32 0x2E4E342E09CC38AEA0F5718187109EE6A693E1692746240D8067B196C9AB885 DUP2 MSTORE PUSH1 0x20 ADD PUSH32 0x3C638F67C45FB557FF3F71CC8DCF72453F99C0D4A2798D493B74ABE18338639 DUP2 MSTORE POP DUP2 PUSH0 ADD DUP2 SWAP1 MSTORE POP PUSH1 0x40 MLOAD DUP1 PUSH1 0x40 ADD PUSH1 0x40 MSTORE DUP1 PUSH1 0x40 MLOAD DUP1 PUSH1 0x40 ADD PUSH1 0x40 MSTORE DUP1 PUSH32 0x2BA2F1E535AE7E51B492963DEF6FA6C4738A45225FF6DA59F9CA3555D5597AB6 DUP2 MSTORE PUSH1 0x20 ADD PUSH32 0x14417AD1E990C4C9E7409CD36C6E407D8BB6C8A2F68874C94A36B4E8AC633B31 DUP2 MSTORE POP DUP2 MSTORE PUSH1 0x20 ADD PUSH1 0x40 MLOAD DUP1 PUSH1 0x40 ADD PUSH1 0x40 MSTORE DUP1 PUSH32 0x19928A8904F87693D2D2BD365716EA0C91DBEAA0372AF2F81FB70FE83E49A4E5 DUP2 MSTORE PUSH1 0x20 ADD PUSH32 0x11F564070E89EBA8BE4AD6D33B4D552E7BC8BF037844B9E8C7AF2B7ECEDCCCA2 DUP2 MSTORE POP DUP2 MSTORE POP DUP2 PUSH1 0x20 ADD DUP2 SWAP1 MSTORE POP PUSH1 0x40 MLOAD DUP1 PUSH1 0x40 ADD PUSH1 0x40 MSTORE DUP1 PUSH1 0x40 MLOAD DUP1 PUSH1 0x40 ADD PUSH1 0x40 MSTORE DUP1 PUSH32 0xD804E6D1F1762CB46759150697EB53E52A834955768A4D45B68E05C90587C5F DUP2 MSTORE PUSH1 0x20 ADD PUSH32 0xDC13C8C5866F242F0B7A647EFCC1C5F6D879EAE30506C5AD0EECD626D23AAD3 DUP2 MSTORE POP DUP2 MSTORE PUSH1 0x20 ADD PUSH1 0x40 MLOAD DUP1 PUSH1 0x40 ADD PUSH1 0x40 MSTORE DUP1 PUSH32 0x8C66F6F5F3C534B3E1A9D8CE2ECD4487FF95326411961F1E6452EBD0B7C791A DUP2 MSTORE PUSH1 0x20 ADD PUSH31 0xCDE05A84F2E5D78E1842F70E7B0CB96EF779095A45868334E2464E96CB3F26 DUP2 MSTORE POP DUP2 MSTORE POP DUP2 PUSH1 0x40 ADD DUP2 SWAP1 MSTORE POP PUSH1 0x40 MLOAD DUP1 PUSH1 0x40 ADD PUSH1 0x40 MSTORE DUP1 PUSH1 0x40 MLOAD DUP1 PUSH1 0x40 ADD PUSH1 0x40 MSTORE DUP1 PUSH32 0x2A16F67937B4B8E82FAAA42288BAC1EFC6BC0ADD48C3E7C5FAE8464F67BBE090 DUP2 MSTORE PUSH1 0x20 ADD PUSH32 0x24B37C5A0A88BE3189E6A10511D055059DA535814B410845F844C29D14FB353A DUP2 MSTORE POP DUP2 MSTORE PUSH1 0x20 ADD PUSH1 0x40 MLOAD DUP1 PUSH1 0x40 ADD PUSH1 0x40 MSTORE DUP1 PUSH32 0x2953406A63AC0B96F4F4B84ABB6BD47B8A132631731E1C70E778B4BAAC67F086 DUP2 MSTORE PUSH1 0x20 ADD PUSH32 0x3F07238DCF2398796B73E92B6898BB99D13B5619881E78B719BFD74ED2556C2 DUP2 MSTORE POP DUP2 MSTORE POP DUP2 PUSH1 0x60 ADD DUP2 SWAP1 MSTORE POP PUSH1 0x6 PUSH8 0xFFFFFFFFFFFFFFFF DUP2 GT ISZERO PUSH2 0x572 JUMPI PUSH2 0x571 PUSH2 0x10B9 JUMP JUMPDEST JUMPDEST PUSH1 0x40 MLOAD SWAP1 DUP1 DUP3 MSTORE DUP1 PUSH1 0x20 MUL PUSH1 0x20 ADD DUP3 ADD PUSH1 0x40 MSTORE DUP1 ISZERO PUSH2 0x5AB JUMPI DUP2 PUSH1 0x20 ADD JUMPDEST PUSH2 0x598 PUSH2 0xFD2 JUMP JUMPDEST DUP2 MSTORE PUSH1 0x20 ADD SWAP1 PUSH1 0x1 SWAP1 SUB SWAP1 DUP2 PUSH2 0x590 JUMPI SWAP1 POP JUMPDEST POP DUP2 PUSH1 0x80 ADD DUP2 SWAP1 MSTORE POP PUSH1 0x40 MLOAD DUP1 PUSH1 0x40 ADD PUSH1 0x40 MSTORE DUP1 PUSH32 0x2452A2328A0FCA42ECB2A6F6D9B61576A910388349ADDC48198EDF54EBAD7A33 DUP2 MSTORE PUSH1 0x20 ADD PUSH32 0x2454CB7DAA4E6C00799D8117ACCB5039DFCACDFFD4191D61EB4CC2FF410F4E3A DUP2 MSTORE POP DUP2 PUSH1 0x80 ADD MLOAD PUSH0 DUP2 MLOAD DUP2 LT PUSH2 0x620 JUMPI PUSH2 0x61F PUSH2 0x1437 JUMP JUMPDEST JUMPDEST PUSH1 0x20 MUL PUSH1 0x20 ADD ADD DUP2 SWAP1 MSTORE POP PUSH1 0x40 MLOAD DUP1 PUSH1 0x40 ADD PUSH1 0x40 MSTORE DUP1 PUSH32 0x2679B135D62055AB41A37C90C4155FFC349954780AB5E947F8E235C08917980C DUP2 MSTORE PUSH1 0x20 ADD PUSH32 0x23EF3A05C85D47D61C90386632C108CAB613FC6DFE7FACA9ABDCDA9E4EC32FFC DUP2 MSTORE POP DUP2 PUSH1 0x80 ADD MLOAD PUSH1 0x1 DUP2 MLOAD DUP2 LT PUSH2 0x698 JUMPI PUSH2 0x697 PUSH2 0x1437 JUMP JUMPDEST JUMPDEST PUSH1 0x20 MUL PUSH1 0x20 ADD ADD DUP2 SWAP1 MSTORE POP PUSH1 0x40 MLOAD DUP1 PUSH1 0x40 ADD PUSH1 0x40 MSTORE DUP1 PUSH32 0x14E5B612C827C82C99359C2D63C44CF11D3E9A0B25F142E2F3ABA355C7766313 DUP2 MSTORE PUSH1 0x20 ADD PUSH32 0xE51F3AAF7B63C9DA98C6281493DE75C57CCCFCDF251CBB6256450A0C2BDF4E8 DUP2 MSTORE POP DUP2 PUSH1 0x80 ADD MLOAD PUSH1 0x2 DUP2 MLOAD DUP2 LT PUSH2 0x710 JUMPI PUSH2 0x70F PUSH2 0x1437 JUMP JUMPDEST JUMPDEST PUSH1 0x20 MUL PUSH1 0x20 ADD ADD DUP2 SWAP1 MSTORE POP PUSH1 0x40 MLOAD DUP1 PUSH1 0x40 ADD PUSH1 0x40 MSTORE DUP1 PUSH32 0x2B10A4C3361B605103CE234DDC8B761B07276D7D053C7446AEB7495375482273 DUP2 MSTORE PUSH1 0x20 ADD PUSH32 0x924BAEC305060D2E5DB5A75B55A37FBEBE726E921F0CC2F8A1ED9494ABA8808 DUP2 MSTORE POP DUP2 PUSH1 0x80 ADD MLOAD PUSH1 0x3 DUP2 MLOAD DUP2 LT PUSH2 0x788 JUMPI PUSH2 0x787 PUSH2 0x1437 JUMP JUMPDEST JUMPDEST PUSH1 0x20 MUL PUSH1 0x20 ADD ADD DUP2 SWAP1 MSTORE POP PUSH1 0x40 MLOAD DUP1 PUSH1 0x40 ADD PUSH1 0x40 MSTORE DUP1 PUSH32 0x261EF28886D60C9824FB9A91BC881F585016C5C79D3FF8ACAB386F4217E08746 DUP2 MSTORE PUSH1 0x20 ADD PUSH32 0x1AD4A1DB1D3BD52391B730CE54667C51F1F11D84236025FC801C63DD099A7C56 DUP2 MSTORE POP DUP2 PUSH1 0x80 ADD MLOAD PUSH1 0x4 DUP2 MLOAD DUP2 LT PUSH2 0x800 JUMPI PUSH2 0x7FF PUSH2 0x1437 JUMP JUMPDEST JUMPDEST PUSH1 0x20 MUL PUSH1 0x20 ADD ADD DUP2 SWAP1 MSTORE POP PUSH1 0x40 MLOAD DUP1 PUSH1 0x40 ADD PUSH1 0x40 MSTORE DUP1 PUSH32 0x86D3244F4ED19477811A7551700271C448723E042CA1A57868BAF2C92B3C9A7 DUP2 MSTORE PUSH1 0x20 ADD PUSH32 0x28B602B08762B6AE16BB5AE35C421A1F8D19B0331D71E1BB1FA22C866D46F8B7 DUP2 MSTORE POP DUP2 PUSH1 0x80 ADD MLOAD PUSH1 0x5 DUP2 MLOAD DUP2 LT PUSH2 0x878 JUMPI PUSH2 0x877 PUSH2 0x1437 JUMP JUMPDEST JUMPDEST PUSH1 0x20 MUL PUSH1 0x20 ADD ADD DUP2 SWAP1 MSTORE POP SWAP1 JUMP JUMPDEST PUSH2 0x88E PUSH2 0xFD2 JUMP JUMPDEST PUSH2 0x896 PUSH2 0xFEA JUMP JUMPDEST DUP4 PUSH0 ADD MLOAD DUP2 PUSH0 PUSH1 0x3 DUP2 LT PUSH2 0x8AD JUMPI PUSH2 0x8AC PUSH2 0x1437 JUMP JUMPDEST JUMPDEST PUSH1 0x20 MUL ADD DUP2 DUP2 MSTORE POP POP DUP4 PUSH1 0x20 ADD MLOAD DUP2 PUSH1 0x1 PUSH1 0x3 DUP2 LT PUSH2 0x8CF JUMPI PUSH2 0x8CE PUSH2 0x1437 JUMP JUMPDEST JUMPDEST PUSH1 0x20 MUL ADD DUP2 DUP2 MSTORE POP POP DUP3 DUP2 PUSH1 0x2 PUSH1 0x3 DUP2 LT PUSH2 0x8ED JUMPI PUSH2 0x8EC PUSH2 0x1437 JUMP JUMPDEST JUMPDEST PUSH1 0x20 MUL ADD DUP2 DUP2 MSTORE POP POP PUSH0 PUSH1 0x60 DUP4 PUSH1 0x80 DUP5 PUSH1 0x7 PUSH2 0x7D0 GAS SUB STATICCALL SWAP1 POP DUP1 PUSH0 DUP2 SUB PUSH2 0x911 JUMPI INVALID JUMPDEST POP DUP1 PUSH2 0x91B JUMPI PUSH0 DUP1 REVERT JUMPDEST POP POP SWAP3 SWAP2 POP POP JUMP JUMPDEST PUSH2 0x92B PUSH2 0xFD2 JUMP JUMPDEST PUSH2 0x933 PUSH2 0x100C JUMP JUMPDEST DUP4 PUSH0 ADD MLOAD DUP2 PUSH0 PUSH1 0x4 DUP2 LT PUSH2 0x94A JUMPI PUSH2 0x949 PUSH2 0x1437 JUMP JUMPDEST JUMPDEST PUSH1 0x20 MUL ADD DUP2 DUP2 MSTORE POP POP DUP4 PUSH1 0x20 ADD MLOAD DUP2 PUSH1 0x1 PUSH1 0x4 DUP2 LT PUSH2 0x96C JUMPI PUSH2 0x96B PUSH2 0x1437 JUMP JUMPDEST JUMPDEST PUSH1 0x20 MUL ADD DUP2 DUP2 MSTORE POP POP DUP3 PUSH0 ADD MLOAD DUP2 PUSH1 0x2 PUSH1 0x4 DUP2 LT PUSH2 0x98D JUMPI PUSH2 0x98C PUSH2 0x1437 JUMP JUMPDEST JUMPDEST PUSH1 0x20 MUL ADD DUP2 DUP2 MSTORE POP POP DUP3 PUSH1 0x20 ADD MLOAD DUP2 PUSH1 0x3 PUSH1 0x4 DUP2 LT PUSH2 0x9AF JUMPI PUSH2 0x9AE PUSH2 0x1437 JUMP JUMPDEST JUMPDEST PUSH1 0x20 MUL ADD DUP2 DUP2 MSTORE POP POP PUSH0 PUSH1 0x60 DUP4 PUSH1 0xC0 DUP5 PUSH1 0x6 PUSH2 0x7D0 GAS SUB STATICCALL SWAP1 POP DUP1 PUSH0 DUP2 SUB PUSH2 0x9D3 JUMPI INVALID JUMPDEST POP DUP1 PUSH2 0x9DD JUMPI PUSH0 DUP1 REVERT JUMPDEST POP POP SWAP3 SWAP2 POP POP JUMP JUMPDEST PUSH2 0x9ED PUSH2 0xFD2 JUMP JUMPDEST PUSH0 PUSH32 0x30644E72E131A029B85045B68181585D97816A916871CA8D3C208C16D87CFD47 SWAP1 POP PUSH0 DUP4 PUSH0 ADD MLOAD EQ DUP1 ISZERO PUSH2 0xA26 JUMPI POP PUSH0 DUP4 PUSH1 0x20 ADD MLOAD EQ JUMPDEST ISZERO PUSH2 0xA48 JUMPI PUSH1 0x40 MLOAD DUP1 PUSH1 0x40 ADD PUSH1 0x40 MSTORE DUP1 PUSH0 DUP2 MSTORE PUSH1 0x20 ADD PUSH0 DUP2 MSTORE POP SWAP2 POP POP PUSH2 0xA7E JUMP JUMPDEST PUSH1 0x40 MLOAD DUP1 PUSH1 0x40 ADD PUSH1 0x40 MSTORE DUP1 DUP5 PUSH0 ADD MLOAD DUP2 MSTORE PUSH1 0x20 ADD DUP3 DUP6 PUSH1 0x20 ADD MLOAD PUSH2 0xA6C SWAP2 SWAP1 PUSH2 0x14F1 JUMP JUMPDEST DUP4 PUSH2 0xA77 SWAP2 SWAP1 PUSH2 0x1521 JUMP JUMPDEST DUP2 MSTORE POP SWAP2 POP POP JUMPDEST SWAP2 SWAP1 POP JUMP JUMPDEST PUSH0 DUP1 PUSH1 0x4 PUSH8 0xFFFFFFFFFFFFFFFF DUP2 GT ISZERO PUSH2 0xAA0 JUMPI PUSH2 0xA9F PUSH2 0x10B9 JUMP JUMPDEST JUMPDEST PUSH1 0x40 MLOAD SWAP1 DUP1 DUP3 MSTORE DUP1 PUSH1 0x20 MUL PUSH1 0x20 ADD DUP3 ADD PUSH1 0x40 MSTORE DUP1 ISZERO PUSH2 0xAD9 JUMPI DUP2 PUSH1 0x20 ADD JUMPDEST PUSH2 0xAC6 PUSH2 0xFD2 JUMP JUMPDEST DUP2 MSTORE PUSH1 0x20 ADD SWAP1 PUSH1 0x1 SWAP1 SUB SWAP1 DUP2 PUSH2 0xABE JUMPI SWAP1 POP JUMPDEST POP SWAP1 POP PUSH0 PUSH1 0x4 PUSH8 0xFFFFFFFFFFFFFFFF DUP2 GT ISZERO PUSH2 0xAF8 JUMPI PUSH2 0xAF7 PUSH2 0x10B9 JUMP JUMPDEST JUMPDEST PUSH1 0x40 MLOAD SWAP1 DUP1 DUP3 MSTORE DUP1 PUSH1 0x20 MUL PUSH1 0x20 ADD DUP3 ADD PUSH1 0x40 MSTORE DUP1 ISZERO PUSH2 0xB31 JUMPI DUP2 PUSH1 0x20 ADD JUMPDEST PUSH2 0xB1E PUSH2 0x102E JUMP JUMPDEST DUP2 MSTORE PUSH1 0x20 ADD SWAP1 PUSH1 0x1 SWAP1 SUB SWAP1 DUP2 PUSH2 0xB16 JUMPI SWAP1 POP JUMPDEST POP SWAP1 POP DUP11 DUP3 PUSH0 DUP2 MLOAD DUP2 LT PUSH2 0xB48 JUMPI PUSH2 0xB47 PUSH2 0x1437 JUMP JUMPDEST JUMPDEST PUSH1 0x20 MUL PUSH1 0x20 ADD ADD DUP2 SWAP1 MSTORE POP DUP9 DUP3 PUSH1 0x1 DUP2 MLOAD DUP2 LT PUSH2 0xB68 JUMPI PUSH2 0xB67 PUSH2 0x1437 JUMP JUMPDEST JUMPDEST PUSH1 0x20 MUL PUSH1 0x20 ADD ADD DUP2 SWAP1 MSTORE POP DUP7 DUP3 PUSH1 0x2 DUP2 MLOAD DUP2 LT PUSH2 0xB88 JUMPI PUSH2 0xB87 PUSH2 0x1437 JUMP JUMPDEST JUMPDEST PUSH1 0x20 MUL PUSH1 0x20 ADD ADD DUP2 SWAP1 MSTORE POP DUP5 DUP3 PUSH1 0x3 DUP2 MLOAD DUP2 LT PUSH2 0xBA8 JUMPI PUSH2 0xBA7 PUSH2 0x1437 JUMP JUMPDEST JUMPDEST PUSH1 0x20 MUL PUSH1 0x20 ADD ADD DUP2 SWAP1 MSTORE POP DUP10 DUP2 PUSH0 DUP2 MLOAD DUP2 LT PUSH2 0xBC7 JUMPI PUSH2 0xBC6 PUSH2 0x1437 JUMP JUMPDEST JUMPDEST PUSH1 0x20 MUL PUSH1 0x20 ADD ADD DUP2 SWAP1 MSTORE POP DUP8 DUP2 PUSH1 0x1 DUP2 MLOAD DUP2 LT PUSH2 0xBE7 JUMPI PUSH2 0xBE6 PUSH2 0x1437 JUMP JUMPDEST JUMPDEST PUSH1 0x20 MUL PUSH1 0x20 ADD ADD DUP2 SWAP1 MSTORE POP DUP6 DUP2 PUSH1 0x2 DUP2 MLOAD DUP2 LT PUSH2 0xC07 JUMPI PUSH2 0xC06 PUSH2 0x1437 JUMP JUMPDEST JUMPDEST PUSH1 0x20 MUL PUSH1 0x20 ADD ADD DUP2 SWAP1 MSTORE POP DUP4 DUP2 PUSH1 0x3 DUP2 MLOAD DUP2 LT PUSH2 0xC27 JUMPI PUSH2 0xC26 PUSH2 0x1437 JUMP JUMPDEST JUMPDEST PUSH1 0x20 MUL PUSH1 0x20 ADD ADD DUP2 SWAP1 MSTORE POP PUSH2 0xC3C DUP3 DUP3 PUSH2 0xC4C JUMP JUMPDEST SWAP3 POP POP POP SWAP9 SWAP8 POP POP POP POP POP POP POP POP JUMP JUMPDEST PUSH0 DUP2 MLOAD DUP4 MLOAD EQ PUSH2 0xC5A JUMPI PUSH0 DUP1 REVERT JUMPDEST PUSH0 DUP4 MLOAD SWAP1 POP PUSH0 PUSH1 0x6 DUP3 PUSH2 0xC6D SWAP2 SWAP1 PUSH2 0x1554 JUMP JUMPDEST SWAP1 POP PUSH0 DUP2 PUSH8 0xFFFFFFFFFFFFFFFF DUP2 GT ISZERO PUSH2 0xC8A JUMPI PUSH2 0xC89 PUSH2 0x10B9 JUMP JUMPDEST JUMPDEST PUSH1 0x40 MLOAD SWAP1 DUP1 DUP3 MSTORE DUP1 PUSH1 0x20 MUL PUSH1 0x20 ADD DUP3 ADD PUSH1 0x40 MSTORE DUP1 ISZERO PUSH2 0xCB8 JUMPI DUP2 PUSH1 0x20 ADD PUSH1 0x20 DUP3 MUL DUP1 CALLDATASIZE DUP4 CALLDATACOPY DUP1 DUP3 ADD SWAP2 POP POP SWAP1 POP JUMPDEST POP SWAP1 POP PUSH0 JUMPDEST DUP4 DUP2 LT ISZERO PUSH2 0xF30 JUMPI DUP7 DUP2 DUP2 MLOAD DUP2 LT PUSH2 0xCD8 JUMPI PUSH2 0xCD7 PUSH2 0x1437 JUMP JUMPDEST JUMPDEST PUSH1 0x20 MUL PUSH1 0x20 ADD ADD MLOAD PUSH0 ADD MLOAD DUP3 PUSH0 PUSH1 0x6 DUP5 PUSH2 0xCF2 SWAP2 SWAP1 PUSH2 0x1554 JUMP JUMPDEST PUSH2 0xCFC SWAP2 SWAP1 PUSH2 0x1491 JUMP JUMPDEST DUP2 MLOAD DUP2 LT PUSH2 0xD0D JUMPI PUSH2 0xD0C PUSH2 0x1437 JUMP JUMPDEST JUMPDEST PUSH1 0x20 MUL PUSH1 0x20 ADD ADD DUP2 DUP2 MSTORE POP POP DUP7 DUP2 DUP2 MLOAD DUP2 LT PUSH2 0xD2C JUMPI PUSH2 0xD2B PUSH2 0x1437 JUMP JUMPDEST JUMPDEST PUSH1 0x20 MUL PUSH1 0x20 ADD ADD MLOAD PUSH1 0x20 ADD MLOAD DUP3 PUSH1 0x1 PUSH1 0x6 DUP5 PUSH2 0xD48 SWAP2 SWAP1 PUSH2 0x1554 JUMP JUMPDEST PUSH2 0xD52 SWAP2 SWAP1 PUSH2 0x1491 JUMP JUMPDEST DUP2 MLOAD DUP2 LT PUSH2 0xD63 JUMPI PUSH2 0xD62 PUSH2 0x1437 JUMP JUMPDEST JUMPDEST PUSH1 0x20 MUL PUSH1 0x20 ADD ADD DUP2 DUP2 MSTORE POP POP DUP6 DUP2 DUP2 MLOAD DUP2 LT PUSH2 0xD82 JUMPI PUSH2 0xD81 PUSH2 0x1437 JUMP JUMPDEST JUMPDEST PUSH1 0x20 MUL PUSH1 0x20 ADD ADD MLOAD PUSH0 ADD MLOAD PUSH1 0x1 PUSH1 0x2 DUP2 LT PUSH2 0xDA0 JUMPI PUSH2 0xD9F PUSH2 0x1437 JUMP JUMPDEST JUMPDEST PUSH1 0x20 MUL ADD MLOAD DUP3 PUSH1 0x2 PUSH1 0x6 DUP5 PUSH2 0xDB5 SWAP2 SWAP1 PUSH2 0x1554 JUMP JUMPDEST PUSH2 0xDBF SWAP2 SWAP1 PUSH2 0x1491 JUMP JUMPDEST DUP2 MLOAD DUP2 LT PUSH2 0xDD0 JUMPI PUSH2 0xDCF PUSH2 0x1437 JUMP JUMPDEST JUMPDEST PUSH1 0x20 MUL PUSH1 0x20 ADD ADD DUP2 DUP2 MSTORE POP POP DUP6 DUP2 DUP2 MLOAD DUP2 LT PUSH2 0xDEF JUMPI PUSH2 0xDEE PUSH2 0x1437 JUMP JUMPDEST JUMPDEST PUSH1 0x20 MUL PUSH1 0x20 ADD ADD MLOAD PUSH0 ADD MLOAD PUSH0 PUSH1 0x2 DUP2 LT PUSH2 0xE0C JUMPI PUSH2 0xE0B PUSH2 0x1437 JUMP JUMPDEST JUMPDEST PUSH1 0x20 MUL ADD MLOAD DUP3 PUSH1 0x3 PUSH1 0x6 DUP5 PUSH2 0xE21 SWAP2 SWAP1 PUSH2 0x1554 JUMP JUMPDEST PUSH2 0xE2B SWAP2 SWAP1 PUSH2 0x1491 JUMP JUMPDEST DUP2 MLOAD DUP2 LT PUSH2 0xE3C JUMPI PUSH2 0xE3B PUSH2 0x1437 JUMP JUMPDEST JUMPDEST PUSH1 0x20 MUL PUSH1 0x20 ADD ADD DUP2 DUP2 MSTORE POP POP DUP6 DUP2 DUP2 MLOAD DUP2 LT PUSH2 0xE5B JUMPI PUSH2 0xE5A PUSH2 0x1437 JUMP JUMPDEST JUMPDEST PUSH1 0x20 MUL PUSH1 0x20 ADD ADD MLOAD PUSH1 0x20 ADD MLOAD PUSH1 0x1 PUSH1 0x2 DUP2 LT PUSH2 0xE7A JUMPI PUSH2 0xE79 PUSH2 0x1437 JUMP JUMPDEST JUMPDEST PUSH1 0x20 MUL ADD MLOAD DUP3 PUSH1 0x4 PUSH1 0x6 DUP5 PUSH2 0xE8F SWAP2 SWAP1 PUSH2 0x1554 JUMP JUMPDEST PUSH2 0xE99 SWAP2 SWAP1 PUSH2 0x1491 JUMP JUMPDEST DUP2 MLOAD DUP2 LT PUSH2 0xEAA JUMPI PUSH2 0xEA9 PUSH2 0x1437 JUMP JUMPDEST JUMPDEST PUSH1 0x20 MUL PUSH1 0x20 ADD ADD DUP2 DUP2 MSTORE POP POP DUP6 DUP2 DUP2 MLOAD DUP2 LT PUSH2 0xEC9 JUMPI PUSH2 0xEC8 PUSH2 0x1437 JUMP JUMPDEST JUMPDEST PUSH1 0x20 MUL PUSH1 0x20 ADD ADD MLOAD PUSH1 0x20 ADD MLOAD PUSH0 PUSH1 0x2 DUP2 LT PUSH2 0xEE7 JUMPI PUSH2 0xEE6 PUSH2 0x1437 JUMP JUMPDEST JUMPDEST PUSH1 0x20 MUL ADD MLOAD DUP3 PUSH1 0x5 PUSH1 0x6 DUP5 PUSH2 0xEFC SWAP2 SWAP1 PUSH2 0x1554 JUMP JUMPDEST PUSH2 0xF06 SWAP2 SWAP1 PUSH2 0x1491 JUMP JUMPDEST DUP2 MLOAD DUP2 LT PUSH2 0xF17 JUMPI PUSH2 0xF16 PUSH2 0x1437 JUMP JUMPDEST JUMPDEST PUSH1 0x20 MUL PUSH1 0x20 ADD ADD DUP2 DUP2 MSTORE POP POP DUP1 DUP1 PUSH1 0x1 ADD SWAP2 POP POP PUSH2 0xCBD JUMP JUMPDEST POP PUSH2 0xF39 PUSH2 0x1054 JUMP JUMPDEST PUSH0 PUSH1 0x20 DUP3 PUSH1 0x20 DUP7 MUL PUSH1 0x20 DUP7 ADD PUSH1 0x8 PUSH2 0x7D0 GAS SUB STATICCALL SWAP1 POP DUP1 PUSH0 DUP2 SUB PUSH2 0xF59 JUMPI INVALID JUMPDEST POP DUP1 PUSH2 0xF63 JUMPI PUSH0 DUP1 REVERT JUMPDEST PUSH0 DUP3 PUSH0 PUSH1 0x1 DUP2 LT PUSH2 0xF77 JUMPI PUSH2 0xF76 PUSH2 0x1437 JUMP JUMPDEST JUMPDEST PUSH1 0x20 MUL ADD MLOAD EQ ISZERO SWAP6 POP POP POP POP POP POP SWAP3 SWAP2 POP POP JUMP JUMPDEST PUSH1 0x40 MLOAD DUP1 PUSH1 0xA0 ADD PUSH1 0x40 MSTORE DUP1 PUSH2 0xF9E PUSH2 0xFD2 JUMP JUMPDEST DUP2 MSTORE PUSH1 0x20 ADD PUSH2 0xFAB PUSH2 0x102E JUMP JUMPDEST DUP2 MSTORE PUSH1 0x20 ADD PUSH2 0xFB8 PUSH2 0x102E JUMP JUMPDEST DUP2 MSTORE PUSH1 0x20 ADD PUSH2 0xFC5 PUSH2 0x102E JUMP JUMPDEST DUP2 MSTORE PUSH1 0x20 ADD PUSH1 0x60 DUP2 MSTORE POP SWAP1 JUMP JUMPDEST PUSH1 0x40 MLOAD DUP1 PUSH1 0x40 ADD PUSH1 0x40 MSTORE DUP1 PUSH0 DUP2 MSTORE PUSH1 0x20 ADD PUSH0 DUP2 MSTORE POP SWAP1 JUMP JUMPDEST PUSH1 0x40 MLOAD DUP1 PUSH1 0x60 ADD PUSH1 0x40 MSTORE DUP1 PUSH1 0x3 SWAP1 PUSH1 0x20 DUP3 MUL DUP1 CALLDATASIZE DUP4 CALLDATACOPY DUP1 DUP3 ADD SWAP2 POP POP SWAP1 POP POP SWAP1 JUMP JUMPDEST PUSH1 0x40 MLOAD DUP1 PUSH1 0x80 ADD PUSH1 0x40 MSTORE DUP1 PUSH1 0x4 SWAP1 PUSH1 0x20 DUP3 MUL DUP1 CALLDATASIZE DUP4 CALLDATACOPY DUP1 DUP3 ADD SWAP2 POP POP SWAP1 POP POP SWAP1 JUMP JUMPDEST PUSH1 0x40 MLOAD DUP1 PUSH1 0x40 ADD PUSH1 0x40 MSTORE DUP1 PUSH2 0x1041 PUSH2 0x1076 JUMP JUMPDEST DUP2 MSTORE PUSH1 0x20 ADD PUSH2 0x104E PUSH2 0x1076 JUMP JUMPDEST DUP2 MSTORE POP SWAP1 JUMP JUMPDEST PUSH1 0x40 MLOAD DUP1 PUSH1 0x20 ADD PUSH1 0x40 MSTORE DUP1 PUSH1 0x1 SWAP1 PUSH1 0x20 DUP3 MUL DUP1 CALLDATASIZE DUP4 CALLDATACOPY DUP1 DUP3 ADD SWAP2 POP POP SWAP1 POP POP SWAP1 JUMP JUMPDEST PUSH1 0x40 MLOAD DUP1 PUSH1 0x40 ADD PUSH1 0x40 MSTORE DUP1 PUSH1 0x2 SWAP1 PUSH1 0x20 DUP3 MUL DUP1 CALLDATASIZE DUP4 CALLDATACOPY DUP1 DUP3 ADD SWAP2 POP POP SWAP1 POP POP SWAP1 JUMP JUMPDEST PUSH0 PUSH1 0x40 MLOAD SWAP1 POP SWAP1 JUMP JUMPDEST PUSH0 DUP1 REVERT JUMPDEST PUSH0 DUP1 REVERT JUMPDEST PUSH0 PUSH1 0x1F NOT PUSH1 0x1F DUP4 ADD AND SWAP1 POP SWAP2 SWAP1 POP JUMP JUMPDEST PUSH32 0x4E487B7100000000000000000000000000000000000000000000000000000000 PUSH0 MSTORE PUSH1 0x41 PUSH1 0x4 MSTORE PUSH1 0x24 PUSH0 REVERT JUMPDEST PUSH2 0x10EF DUP3 PUSH2 0x10A9 JUMP JUMPDEST DUP2 ADD DUP2 DUP2 LT PUSH8 0xFFFFFFFFFFFFFFFF DUP3 GT OR ISZERO PUSH2 0x110E JUMPI PUSH2 0x110D PUSH2 0x10B9 JUMP JUMPDEST JUMPDEST DUP1 PUSH1 0x40 MSTORE POP POP POP JUMP JUMPDEST PUSH0 PUSH2 0x1120 PUSH2 0x1098 JUMP JUMPDEST SWAP1 POP PUSH2 0x112C DUP3 DUP3 PUSH2 0x10E6 JUMP JUMPDEST SWAP2 SWAP1 POP JUMP JUMPDEST PUSH0 DUP2 SWAP1 POP SWAP2 SWAP1 POP JUMP JUMPDEST PUSH2 0x1143 DUP2 PUSH2 0x1131 JUMP JUMPDEST DUP2 EQ PUSH2 0x114D JUMPI PUSH0 DUP1 REVERT JUMPDEST POP JUMP JUMPDEST PUSH0 DUP2 CALLDATALOAD SWAP1 POP PUSH2 0x115E DUP2 PUSH2 0x113A JUMP JUMPDEST SWAP3 SWAP2 POP POP JUMP JUMPDEST PUSH0 PUSH1 0x40 DUP3 DUP5 SUB SLT ISZERO PUSH2 0x1179 JUMPI PUSH2 0x1178 PUSH2 0x10A5 JUMP JUMPDEST JUMPDEST PUSH2 0x1183 PUSH1 0x40 PUSH2 0x1117 JUMP JUMPDEST SWAP1 POP PUSH0 PUSH2 0x1192 DUP5 DUP3 DUP6 ADD PUSH2 0x1150 JUMP JUMPDEST PUSH0 DUP4 ADD MSTORE POP PUSH1 0x20 PUSH2 0x11A5 DUP5 DUP3 DUP6 ADD PUSH2 0x1150 JUMP JUMPDEST PUSH1 0x20 DUP4 ADD MSTORE POP SWAP3 SWAP2 POP POP JUMP JUMPDEST PUSH0 DUP1 REVERT JUMPDEST PUSH0 PUSH8 0xFFFFFFFFFFFFFFFF DUP3 GT ISZERO PUSH2 0x11CF JUMPI PUSH2 0x11CE PUSH2 0x10B9 JUMP JUMPDEST JUMPDEST PUSH1 0x20 DUP3 MUL SWAP1 POP SWAP2 SWAP1 POP JUMP JUMPDEST PUSH0 DUP1 REVERT JUMPDEST PUSH0 PUSH2 0x11F0 PUSH2 0x11EB DUP5 PUSH2 0x11B5 JUMP JUMPDEST PUSH2 0x1117 JUMP JUMPDEST SWAP1 POP DUP1 PUSH1 0x20 DUP5 MUL DUP4 ADD DUP6 DUP2 GT ISZERO PUSH2 0x120A JUMPI PUSH2 0x1209 PUSH2 0x11DA JUMP JUMPDEST JUMPDEST DUP4 JUMPDEST DUP2 DUP2 LT ISZERO PUSH2 0x1233 JUMPI DUP1 PUSH2 0x121F DUP9 DUP3 PUSH2 0x1150 JUMP JUMPDEST DUP5 MSTORE PUSH1 0x20 DUP5 ADD SWAP4 POP POP PUSH1 0x20 DUP2 ADD SWAP1 POP PUSH2 0x120C JUMP JUMPDEST POP POP POP SWAP4 SWAP3 POP POP POP JUMP JUMPDEST PUSH0 DUP3 PUSH1 0x1F DUP4 ADD SLT PUSH2 0x1251 JUMPI PUSH2 0x1250 PUSH2 0x11B1 JUMP JUMPDEST JUMPDEST PUSH1 0x2 PUSH2 0x125E DUP5 DUP3 DUP6 PUSH2 0x11DE JUMP JUMPDEST SWAP2 POP POP SWAP3 SWAP2 POP POP JUMP JUMPDEST PUSH0 PUSH1 0x80 DUP3 DUP5 SUB SLT ISZERO PUSH2 0x127C JUMPI PUSH2 0x127B PUSH2 0x10A5 JUMP JUMPDEST JUMPDEST PUSH2 0x1286 PUSH1 0x40 PUSH2 0x1117 JUMP JUMPDEST SWAP1 POP PUSH0 PUSH2 0x1295 DUP5 DUP3 DUP6 ADD PUSH2 0x123D JUMP JUMPDEST PUSH0 DUP4 ADD MSTORE POP PUSH1 0x40 PUSH2 0x12A8 DUP5 DUP3 DUP6 ADD PUSH2 0x123D JUMP JUMPDEST PUSH1 0x20 DUP4 ADD MSTORE POP SWAP3 SWAP2 POP POP JUMP JUMPDEST PUSH0 PUSH2 0x100 DUP3 DUP5 SUB SLT ISZERO PUSH2 0x12CA JUMPI PUSH2 0x12C9 PUSH2 0x10A5 JUMP JUMPDEST JUMPDEST PUSH2 0x12D4 PUSH1 0x60 PUSH2 0x1117 JUMP JUMPDEST SWAP1 POP PUSH0 PUSH2 0x12E3 DUP5 DUP3 DUP6 ADD PUSH2 0x1164 JUMP JUMPDEST PUSH0 DUP4 ADD MSTORE POP PUSH1 0x40 PUSH2 0x12F6 DUP5 DUP3 DUP6 ADD PUSH2 0x1267 JUMP JUMPDEST PUSH1 0x20 DUP4 ADD MSTORE POP PUSH1 0xC0 PUSH2 0x130A DUP5 DUP3 DUP6 ADD PUSH2 0x1164 JUMP JUMPDEST PUSH1 0x40 DUP4 ADD MSTORE POP SWAP3 SWAP2 POP POP JUMP JUMPDEST PUSH0 PUSH8 0xFFFFFFFFFFFFFFFF DUP3 GT ISZERO PUSH2 0x1330 JUMPI PUSH2 0x132F PUSH2 0x10B9 JUMP JUMPDEST JUMPDEST PUSH1 0x20 DUP3 MUL SWAP1 POP SWAP2 SWAP1 POP JUMP JUMPDEST PUSH0 PUSH2 0x134D PUSH2 0x1348 DUP5 PUSH2 0x1316 JUMP JUMPDEST PUSH2 0x1117 JUMP JUMPDEST SWAP1 POP DUP1 PUSH1 0x20 DUP5 MUL DUP4 ADD DUP6 DUP2 GT ISZERO PUSH2 0x1367 JUMPI PUSH2 0x1366 PUSH2 0x11DA JUMP JUMPDEST JUMPDEST DUP4 JUMPDEST DUP2 DUP2 LT ISZERO PUSH2 0x1390 JUMPI DUP1 PUSH2 0x137C DUP9 DUP3 PUSH2 0x1150 JUMP JUMPDEST DUP5 MSTORE PUSH1 0x20 DUP5 ADD SWAP4 POP POP PUSH1 0x20 DUP2 ADD SWAP1 POP PUSH2 0x1369 JUMP JUMPDEST POP POP POP SWAP4 SWAP3 POP POP POP JUMP JUMPDEST PUSH0 DUP3 PUSH1 0x1F DUP4 ADD SLT PUSH2 0x13AE JUMPI PUSH2 0x13AD PUSH2 0x11B1 JUMP JUMPDEST JUMPDEST PUSH1 0x5 PUSH2 0x13BB DUP5 DUP3 DUP6 PUSH2 0x133B JUMP JUMPDEST SWAP2 POP POP SWAP3 SWAP2 POP POP JUMP JUMPDEST PUSH0 DUP1 PUSH2 0x1A0 DUP4 DUP6 SUB SLT ISZERO PUSH2 0x13DB JUMPI PUSH2 0x13DA PUSH2 0x10A1 JUMP JUMPDEST JUMPDEST PUSH0 PUSH2 0x13E8 DUP6 DUP3 DUP7 ADD PUSH2 0x12B4 JUMP JUMPDEST SWAP3 POP POP PUSH2 0x100 PUSH2 0x13FA DUP6 DUP3 DUP7 ADD PUSH2 0x139A JUMP JUMPDEST SWAP2 POP POP SWAP3 POP SWAP3 SWAP1 POP JUMP JUMPDEST PUSH0 DUP2 ISZERO ISZERO SWAP1 POP SWAP2 SWAP1 POP JUMP JUMPDEST PUSH2 0x1418 DUP2 PUSH2 0x1404 JUMP JUMPDEST DUP3 MSTORE POP POP JUMP JUMPDEST PUSH0 PUSH1 0x20 DUP3 ADD SWAP1 POP PUSH2 0x1431 PUSH0 DUP4 ADD DUP5 PUSH2 0x140F JUMP JUMPDEST SWAP3 SWAP2 POP POP JUMP JUMPDEST PUSH32 0x4E487B7100000000000000000000000000000000000000000000000000000000 PUSH0 MSTORE PUSH1 0x32 PUSH1 0x4 MSTORE PUSH1 0x24 PUSH0 REVERT JUMPDEST PUSH32 0x4E487B7100000000000000000000000000000000000000000000000000000000 PUSH0 MSTORE PUSH1 0x11 PUSH1 0x4 MSTORE PUSH1 0x24 PUSH0 REVERT JUMPDEST PUSH0 PUSH2 0x149B DUP3 PUSH2 0x1131 JUMP JUMPDEST SWAP2 POP PUSH2 0x14A6 DUP4 PUSH2 0x1131 JUMP JUMPDEST SWAP3 POP DUP3 DUP3 ADD SWAP1 POP DUP1 DUP3 GT ISZERO PUSH2 0x14BE JUMPI PUSH2 0x14BD PUSH2 0x1464 JUMP JUMPDEST JUMPDEST SWAP3 SWAP2 POP POP JUMP JUMPDEST PUSH32 0x4E487B7100000000000000000000000000000000000000000000000000000000 PUSH0 MSTORE PUSH1 0x12 PUSH1 0x4 MSTORE PUSH1 0x24 PUSH0 REVERT JUMPDEST PUSH0 PUSH2 0x14FB DUP3 PUSH2 0x1131 JUMP JUMPDEST SWAP2 POP PUSH2 0x1506 DUP4 PUSH2 0x1131 JUMP JUMPDEST SWAP3 POP DUP3 PUSH2 0x1516 JUMPI PUSH2 0x1515 PUSH2 0x14C4 JUMP JUMPDEST JUMPDEST DUP3 DUP3 MOD SWAP1 POP SWAP3 SWAP2 POP POP JUMP JUMPDEST PUSH0 PUSH2 0x152B DUP3 PUSH2 0x1131 JUMP JUMPDEST SWAP2 POP PUSH2 0x1536 DUP4 PUSH2 0x1131 JUMP JUMPDEST SWAP3 POP DUP3 DUP3 SUB SWAP1 POP DUP2 DUP2 GT ISZERO PUSH2 0x154E JUMPI PUSH2 0x154D PUSH2 0x1464 JUMP JUMPDEST JUMPDEST SWAP3 SWAP2 POP POP JUMP JUMPDEST PUSH0 PUSH2 0x155E DUP3 PUSH2 0x1131 JUMP JUMPDEST SWAP2 POP PUSH2 0x1569 DUP4 PUSH2 0x1131 JUMP JUMPDEST SWAP3 POP DUP3 DUP3 MUL PUSH2 0x1577 DUP2 PUSH2 0x1131 JUMP JUMPDEST SWAP2 POP DUP3 DUP3 DIV DUP5 EQ DUP4 ISZERO OR PUSH2 0x158E JUMPI PUSH2 0x158D PUSH2 0x1464 JUMP JUMPDEST JUMPDEST POP SWAP3 SWAP2 POP POP JUMP INVALID LOG2 PUSH5 0x6970667358 0x22 SLT KECCAK256 0xD9 PUSH22 0xCBC68ED36FDC44B72930C19591BF8E778A074E865333 0xD2 0x25 0xD9 0xC0 PUSH31 0xCFD77964736F6C634300081A00330000000000000000000000000000000000 "
		},
		"gasEstimates": {
			"creation": {
				"codeDepositCost": "1115800",
				"executionCost": "1158",
				"totalCost": "1116958"
			},
			"external": {
				"verifyTx(((uint256,uint256),(uint256[2],uint256[2]),(uint256,uint256)),uint256[5])": "infinite"
			},
			"internal": {
				"verify(uint256[] memory,struct Verifier.Proof memory)": "infinite",
				"verifyingKey()": "infinite"
			}
		},
		"methodIdentifiers": {
			"verifyTx(((uint256,uint256),(uint256[2],uint256[2]),(uint256,uint256)),uint256[5])": "bcb99886"
		}
	},
	"abi": [
		{
			"inputs": [
				{
					"components": [
						{
							"components": [
								{
									"internalType": "uint256",
									"name": "X",
									"type": "uint256"
								},
								{
									"internalType": "uint256",
									"name": "Y",
									"type": "uint256"
								}
							],
							"internalType": "struct Pairing.G1Point",
							"name": "a",
							"type": "tuple"
						},
						{
							"components": [
								{
									"internalType": "uint256[2]",
									"name": "X",
									"type": "uint256[2]"
								},
								{
									"internalType": "uint256[2]",
									"name": "Y",
									"type": "uint256[2]"
								}
							],
							"internalType": "struct Pairing.G2Point",
							"name": "b",
							"type": "tuple"
						},
						{
							"components": [
								{
									"internalType": "uint256",
									"name": "X",
									"type": "uint256"
								},
								{
									"internalType": "uint256",
									"name": "Y",
									"type": "uint256"
								}
							],
							"internalType": "struct Pairing.G1Point",
							"name": "c",
							"type": "tuple"
						}
					],
					"internalType": "struct Verifier.Proof",
					"name": "proof",
					"type": "tuple"
				},
				{
					"internalType": "uint256[5]",
					"name": "input",
					"type": "uint256[5]"
				}
			],
			"name": "verifyTx",
			"outputs": [
				{
					"internalType": "bool",
					"name": "r",
					"type": "bool"
				}
			],
			"stateMutability": "view",
			"type": "function"
		}
	]
}